{
  "_format": "hh-sol-artifact-1",
  "contractName": "LHBDao",
  "sourceName": "contracts/compound/dao/Dao.sol",
  "abi": [
    {
      "inputs": [
        {
          "internalType": "string",
          "name": "__name",
          "type": "string"
        },
        {
          "internalType": "string",
          "name": "__symbol",
          "type": "string"
        },
        {
          "internalType": "uint256",
          "name": "_lockTime",
          "type": "uint256"
        },
        {
          "internalType": "address",
          "name": "_LHB",
          "type": "address"
        },
        {
          "internalType": "address",
          "name": "chef",
          "type": "address"
        }
      ],
      "stateMutability": "nonpayable",
      "type": "constructor"
    },
    {
      "anonymous": false,
      "inputs": [
        {
          "indexed": true,
          "internalType": "address",
          "name": "owner",
          "type": "address"
        },
        {
          "indexed": true,
          "internalType": "address",
          "name": "spender",
          "type": "address"
        },
        {
          "indexed": false,
          "internalType": "uint256",
          "name": "value",
          "type": "uint256"
        }
      ],
      "name": "Approval",
      "type": "event"
    },
    {
      "anonymous": false,
      "inputs": [
        {
          "indexed": true,
          "internalType": "address",
          "name": "from",
          "type": "address"
        },
        {
          "indexed": true,
          "internalType": "address",
          "name": "to",
          "type": "address"
        },
        {
          "indexed": false,
          "internalType": "uint256",
          "name": "value",
          "type": "uint256"
        }
      ],
      "name": "Transfer",
      "type": "event"
    },
    {
      "inputs": [
        {
          "internalType": "address",
          "name": "_a",
          "type": "address"
        }
      ],
      "name": "addLimitTarget",
      "outputs": [],
      "stateMutability": "nonpayable",
      "type": "function"
    },
    {
      "inputs": [],
      "name": "allowContract",
      "outputs": [
        {
          "internalType": "bool",
          "name": "",
          "type": "bool"
        }
      ],
      "stateMutability": "view",
      "type": "function"
    },
    {
      "inputs": [
        {
          "internalType": "address",
          "name": "owner",
          "type": "address"
        },
        {
          "internalType": "address",
          "name": "spender",
          "type": "address"
        }
      ],
      "name": "allowance",
      "outputs": [
        {
          "internalType": "uint256",
          "name": "",
          "type": "uint256"
        }
      ],
      "stateMutability": "view",
      "type": "function"
    },
    {
      "inputs": [
        {
          "internalType": "address",
          "name": "spender",
          "type": "address"
        },
        {
          "internalType": "uint256",
          "name": "amount",
          "type": "uint256"
        }
      ],
      "name": "approve",
      "outputs": [
        {
          "internalType": "bool",
          "name": "",
          "type": "bool"
        }
      ],
      "stateMutability": "nonpayable",
      "type": "function"
    },
    {
      "inputs": [
        {
          "internalType": "address",
          "name": "account",
          "type": "address"
        }
      ],
      "name": "balanceOf",
      "outputs": [
        {
          "internalType": "uint256",
          "name": "",
          "type": "uint256"
        }
      ],
      "stateMutability": "view",
      "type": "function"
    },
    {
      "inputs": [
        {
          "internalType": "address",
          "name": "user",
          "type": "address"
        }
      ],
      "name": "canWithdraw",
      "outputs": [
        {
          "internalType": "bool",
          "name": "",
          "type": "bool"
        }
      ],
      "stateMutability": "view",
      "type": "function"
    },
    {
      "inputs": [],
      "name": "decimals",
      "outputs": [
        {
          "internalType": "uint8",
          "name": "",
          "type": "uint8"
        }
      ],
      "stateMutability": "view",
      "type": "function"
    },
    {
      "inputs": [
        {
          "internalType": "address",
          "name": "spender",
          "type": "address"
        },
        {
          "internalType": "uint256",
          "name": "subtractedValue",
          "type": "uint256"
        }
      ],
      "name": "decreaseAllowance",
      "outputs": [
        {
          "internalType": "bool",
          "name": "",
          "type": "bool"
        }
      ],
      "stateMutability": "nonpayable",
      "type": "function"
    },
    {
      "inputs": [
        {
          "internalType": "uint256",
          "name": "_amount",
          "type": "uint256"
        }
      ],
      "name": "deposit",
      "outputs": [],
      "stateMutability": "nonpayable",
      "type": "function"
    },
    {
      "inputs": [],
      "name": "enableTranferLimit",
      "outputs": [
        {
          "internalType": "bool",
          "name": "",
          "type": "bool"
        }
      ],
      "stateMutability": "view",
      "type": "function"
    },
    {
      "inputs": [],
      "name": "governance",
      "outputs": [
        {
          "internalType": "address",
          "name": "",
          "type": "address"
        }
      ],
      "stateMutability": "view",
      "type": "function"
    },
    {
      "inputs": [
        {
          "internalType": "address",
          "name": "spender",
          "type": "address"
        },
        {
          "internalType": "uint256",
          "name": "addedValue",
          "type": "uint256"
        }
      ],
      "name": "increaseAllowance",
      "outputs": [
        {
          "internalType": "bool",
          "name": "",
          "type": "bool"
        }
      ],
      "stateMutability": "nonpayable",
      "type": "function"
    },
    {
      "inputs": [],
      "name": "lhb",
      "outputs": [
        {
          "internalType": "address",
          "name": "",
          "type": "address"
        }
      ],
      "stateMutability": "view",
      "type": "function"
    },
    {
      "inputs": [
        {
          "internalType": "address",
          "name": "",
          "type": "address"
        }
      ],
      "name": "lockBlocks",
      "outputs": [
        {
          "internalType": "uint256",
          "name": "",
          "type": "uint256"
        }
      ],
      "stateMutability": "view",
      "type": "function"
    },
    {
      "inputs": [],
      "name": "lockTime",
      "outputs": [
        {
          "internalType": "uint256",
          "name": "",
          "type": "uint256"
        }
      ],
      "stateMutability": "view",
      "type": "function"
    },
    {
      "inputs": [],
      "name": "name",
      "outputs": [
        {
          "internalType": "string",
          "name": "",
          "type": "string"
        }
      ],
      "stateMutability": "view",
      "type": "function"
    },
    {
      "inputs": [],
      "name": "openWithdraw",
      "outputs": [
        {
          "internalType": "bool",
          "name": "",
          "type": "bool"
        }
      ],
      "stateMutability": "view",
      "type": "function"
    },
    {
      "inputs": [
        {
          "internalType": "address",
          "name": "_a",
          "type": "address"
        }
      ],
      "name": "removeLimitTarget",
      "outputs": [],
      "stateMutability": "nonpayable",
      "type": "function"
    },
    {
      "inputs": [
        {
          "internalType": "address",
          "name": "_governance",
          "type": "address"
        }
      ],
      "name": "setGovernance",
      "outputs": [],
      "stateMutability": "nonpayable",
      "type": "function"
    },
    {
      "inputs": [],
      "name": "symbol",
      "outputs": [
        {
          "internalType": "string",
          "name": "",
          "type": "string"
        }
      ],
      "stateMutability": "view",
      "type": "function"
    },
    {
      "inputs": [
        {
          "internalType": "bool",
          "name": "_b",
          "type": "bool"
        }
      ],
      "name": "toggleAllowContract",
      "outputs": [],
      "stateMutability": "nonpayable",
      "type": "function"
    },
    {
      "inputs": [
        {
          "internalType": "bool",
          "name": "_e",
          "type": "bool"
        }
      ],
      "name": "toggleOpenWithdraw",
      "outputs": [],
      "stateMutability": "nonpayable",
      "type": "function"
    },
    {
      "inputs": [
        {
          "internalType": "bool",
          "name": "_e",
          "type": "bool"
        }
      ],
      "name": "toggleTransferLimit",
      "outputs": [],
      "stateMutability": "nonpayable",
      "type": "function"
    },
    {
      "inputs": [],
      "name": "totalSupply",
      "outputs": [
        {
          "internalType": "uint256",
          "name": "",
          "type": "uint256"
        }
      ],
      "stateMutability": "view",
      "type": "function"
    },
    {
      "inputs": [
        {
          "internalType": "address",
          "name": "recipient",
          "type": "address"
        },
        {
          "internalType": "uint256",
          "name": "amount",
          "type": "uint256"
        }
      ],
      "name": "transfer",
      "outputs": [
        {
          "internalType": "bool",
          "name": "",
          "type": "bool"
        }
      ],
      "stateMutability": "nonpayable",
      "type": "function"
    },
    {
      "inputs": [
        {
          "internalType": "address",
          "name": "sender",
          "type": "address"
        },
        {
          "internalType": "address",
          "name": "recipient",
          "type": "address"
        },
        {
          "internalType": "uint256",
          "name": "amount",
          "type": "uint256"
        }
      ],
      "name": "transferFrom",
      "outputs": [
        {
          "internalType": "bool",
          "name": "",
          "type": "bool"
        }
      ],
      "stateMutability": "nonpayable",
      "type": "function"
    },
    {
      "inputs": [
        {
          "internalType": "address",
          "name": "",
          "type": "address"
        }
      ],
      "name": "transferLimitTargets",
      "outputs": [
        {
          "internalType": "bool",
          "name": "",
          "type": "bool"
        }
      ],
      "stateMutability": "view",
      "type": "function"
    },
    {
      "inputs": [
        {
          "internalType": "uint256",
          "name": "_lt",
          "type": "uint256"
        }
      ],
      "name": "updateLockTime",
      "outputs": [],
      "stateMutability": "nonpayable",
      "type": "function"
    },
    {
      "inputs": [
        {
          "internalType": "uint256",
          "name": "_shares",
          "type": "uint256"
        }
      ],
      "name": "withdraw",
      "outputs": [],
      "stateMutability": "nonpayable",
      "type": "function"
    },
    {
      "inputs": [],
      "name": "withdrawAll",
      "outputs": [],
      "stateMutability": "nonpayable",
      "type": "function"
    }
  ],
  "bytecode": "0x6080604052600b805462ffff001960ff199091166001171690553480156200002657600080fd5b5060405162001eb738038062001eb7833981810160405260a08110156200004c57600080fd5b81019080805160405193929190846401000000008211156200006d57600080fd5b9083019060208201858111156200008357600080fd5b82516401000000008111828201881017156200009e57600080fd5b82525081516020918201929091019080838360005b83811015620000cd578181015183820152602001620000b3565b50505050905090810190601f168015620000fb5780820380516001836020036101000a031916815260200191505b50604052602001805160405193929190846401000000008211156200011f57600080fd5b9083019060208201858111156200013557600080fd5b82516401000000008111828201881017156200015057600080fd5b82525081516020918201929091019080838360005b838110156200017f57818101518382015260200162000165565b50505050905090810190601f168015620001ad5780820380516001836020036101000a031916815260200191505b5060409081526020828101519183015160609093015160008054336001600160a01b0319918216179091556003849055600180549091166001600160a01b03861617905587519295509293506200020a91600791880190620002d7565b50835162000220906008906020870190620002d7565b50816001600160a01b031663313ce5676040518163ffffffff1660e01b815260040160206040518083038186803b1580156200025b57600080fd5b505afa15801562000270573d6000803e3d6000fd5b505050506040513d60208110156200028757600080fd5b50516009805460ff90921660ff19928316179055600b8054821660019081179091556001600160a01b039092166000908152600a6020526040902080549091169091179055506200038392505050565b828054600181600116156101000203166002900490600052602060002090601f0160209004810192826200030f57600085556200035a565b82601f106200032a57805160ff19168380011785556200035a565b828001600101855582156200035a579182015b828111156200035a5782518255916020019190600101906200033d565b50620003689291506200036c565b5090565b5b808211156200036857600081556001016200036d565b611b2480620003936000396000f3fe608060405234801561001057600080fd5b50600436106101da5760003560e01c80637088f2cf11610104578063a9059cbb116100a2578063d62e5f9f11610071578063d62e5f9f14610548578063dd62ed3e1461056e578063e7948fef1461059c578063fbfa4e11146105bb576101da565b8063a9059cbb146104b3578063ab033ea9146104df578063b521377b14610505578063b6b55f251461052b576101da565b8063853828b6116100de578063853828b61461045857806395d89b411461046057806397567dcf14610468578063a457c2d714610487576101da565b80637088f2cf1461042257806370a082311461042a578063845105e214610450576101da565b80632e1a7d4d1161017c5780634098e6111161014b5780634098e611146103b157806350179a54146103d55780635aa6e675146103f457806360bdb0bc146103fc576101da565b80632e1a7d4d14610340578063313ce5671461035f57806338b50c2e1461037d5780633950935114610385576101da565b806318160ddd116101b857806318160ddd146102b65780631896e1a4146102be57806319262d30146102e457806323b872dd1461030a576101da565b806306fdde03146101df578063095ea7b31461025c5780630d6680871461029c575b600080fd5b6101e76105d8565b6040805160208082528351818301528351919283929083019185019080838360005b83811015610221578181015183820152602001610209565b50505050905090810190601f16801561024e5780820380516001836020036101000a031916815260200191505b509250505060405180910390f35b6102886004803603604081101561027257600080fd5b506001600160a01b03813516906020013561066e565b604080519115158252519081900360200190f35b6102a461068c565b60408051918252519081900360200190f35b6102a4610692565b6102a4600480360360208110156102d457600080fd5b50356001600160a01b0316610698565b610288600480360360208110156102fa57600080fd5b50356001600160a01b03166106aa565b6102886004803603606081101561032057600080fd5b506001600160a01b038135811691602081013590911690604001356106e9565b61035d6004803603602081101561035657600080fd5b5035610770565b005b6103676107ea565b6040805160ff9092168252519081900360200190f35b6102886107f3565b6102886004803603604081101561039b57600080fd5b506001600160a01b0381351690602001356107fc565b6103b961084a565b604080516001600160a01b039092168252519081900360200190f35b61035d600480360360208110156103eb57600080fd5b50351515610859565b6103b96108c0565b61035d6004803603602081101561041257600080fd5b50356001600160a01b03166108cf565b610288610940565b6102a46004803603602081101561044057600080fd5b50356001600160a01b031661094e565b610288610969565b61035d610978565b6101e76109a6565b61035d6004803603602081101561047e57600080fd5b50351515610a07565b6102886004803603604081101561049d57600080fd5b506001600160a01b038135169060200135610a70565b610288600480360360408110156104c957600080fd5b506001600160a01b038135169060200135610ad8565b61035d600480360360208110156104f557600080fd5b50356001600160a01b0316610aec565b61035d6004803603602081101561051b57600080fd5b50356001600160a01b0316610b73565b61035d6004803603602081101561054157600080fd5b5035610be1565b6102886004803603602081101561055e57600080fd5b50356001600160a01b0316610e6d565b6102a46004803603604081101561058457600080fd5b506001600160a01b0381358116916020013516610e82565b61035d600480360360208110156105b257600080fd5b50351515610ead565b61035d600480360360208110156105d157600080fd5b5035610f0d565b60078054604080516020601f60026000196101006001881615020190951694909404938401819004810282018101909252828152606093909290918301828280156106645780601f1061063957610100808354040283529160200191610664565b820191906000526020600020905b81548152906001019060200180831161064757829003601f168201915b5050505050905090565b600061068261067b610f6c565b8484610f70565b5060015b92915050565b60035481565b60065490565b60026020526000908152604090205481565b600b5460009062010000900460ff16156106c6575060016106e4565b506001600160a01b0381166000908152600260205260409020544310155b919050565b60006106f684848461105c565b61076684610702610f6c565b61076185604051806060016040528060288152602001611a0e602891396001600160a01b038a16600090815260056020526040812090610740610f6c565b6001600160a01b031681526020810191909152604001600020549190611249565b610f70565b5060019392505050565b600b54610100900460ff166107e75733321461078b57600080fd5b6000811161079857600080fd5b600b5462010000900460ff166107c3573360009081526002602052604090205443116107c357600080fd5b806107ce33826112e0565b6001546107e5906001600160a01b031633836113d0565b505b50565b60095460ff1690565b600b5460ff1681565b6000610682610809610f6c565b84610761856005600061081a610f6c565b6001600160a01b03908116825260208083019390935260409182016000908120918c168152925290205490611455565b6001546001600160a01b031681565b6000546001600160a01b031633146108a6576040805162461bcd60e51b815260206004820152600b60248201526a21676f7665726e616e636560a81b604482015290519081900360640190fd5b600b80549115156101000261ff0019909216919091179055565b6000546001600160a01b031681565b6000546001600160a01b0316331461091c576040805162461bcd60e51b815260206004820152600b60248201526a21676f7665726e616e636560a81b604482015290519081900360640190fd5b6001600160a01b03166000908152600a60205260409020805460ff19166001179055565b600b54610100900460ff1681565b6001600160a01b031660009081526004602052604090205490565b600b5462010000900460ff1681565b600b54610100900460ff166109a45733321461099357600080fd5b6109a461099f3361094e565b610770565b565b60088054604080516020601f60026000196101006001881615020190951694909404938401819004810282018101909252828152606093909290918301828280156106645780601f1061063957610100808354040283529160200191610664565b6000546001600160a01b03163314610a54576040805162461bcd60e51b815260206004820152600b60248201526a21676f7665726e616e636560a81b604482015290519081900360640190fd5b600b8054911515620100000262ff000019909216919091179055565b6000610682610a7d610f6c565b8461076185604051806060016040528060258152602001611aca6025913960056000610aa7610f6c565b6001600160a01b03908116825260208083019390935260409182016000908120918d16815292529020549190611249565b6000610682610ae5610f6c565b848461105c565b6000546001600160a01b03163314610b39576040805162461bcd60e51b815260206004820152600b60248201526a21676f7665726e616e636560a81b604482015290519081900360640190fd5b600080547fffffffffffffffffffffffff0000000000000000000000000000000000000000166001600160a01b0392909216919091179055565b6000546001600160a01b03163314610bc0576040805162461bcd60e51b815260206004820152600b60248201526a21676f7665726e616e636560a81b604482015290519081900360640190fd5b6001600160a01b03166000908152600a60205260409020805460ff19169055565b600b54610100900460ff166107e757333214610bfc57600080fd5b60008111610c51576040805162461bcd60e51b815260206004820152600c60248201527f7a65726f206465706f7369740000000000000000000000000000000000000000604482015290519081900360640190fd5b600154604080516370a0823160e01b815230600482015290516000926001600160a01b0316916370a08231916024808301926020929190829003018186803b158015610c9c57600080fd5b505afa158015610cb0573d6000803e3d6000fd5b505050506040513d6020811015610cc657600080fd5b5051600154909150610ce3906001600160a01b03163330856114b6565b600154604080516370a0823160e01b815230600482015290516000926001600160a01b0316916370a08231916024808301926020929190829003018186803b158015610d2e57600080fd5b505afa158015610d42573d6000803e3d6000fd5b505050506040513d6020811015610d5857600080fd5b50519050610d668183611544565b9250826000610d743361094e565b905080610d9e57600354610d89904390611455565b33600090815260026020526040902055610e5c565b3360009081526002602052604081205490610db98388611455565b90506000610dd26003548961158690919063ffffffff16565b905043831115610e2e576000610de88443611544565b90506000610e0a84610e0485610dfe8a87611586565b90611455565b906115df565b9050610e164382611455565b3360009081526002602052604090205550610e589050565b6000610e3a82846115df565b9050610e464382611455565b33600090815260026020526040902055505b5050505b610e663383611621565b5050505050565b600a6020526000908152604090205460ff1681565b6001600160a01b03918216600090815260056020908152604080832093909416825291909152205490565b6000546001600160a01b03163314610efa576040805162461bcd60e51b815260206004820152600b60248201526a21676f7665726e616e636560a81b604482015290519081900360640190fd5b600b805460ff1916911515919091179055565b6000546001600160a01b03163314610f5a576040805162461bcd60e51b815260206004820152600b60248201526a21676f7665726e616e636560a81b604482015290519081900360640190fd5b60008111610f6757600080fd5b600355565b3390565b6001600160a01b038316610fb55760405162461bcd60e51b8152600401808060200182810382526024815260200180611a7c6024913960400191505060405180910390fd5b6001600160a01b038216610ffa5760405162461bcd60e51b81526004018080602001828103825260228152602001806119a56022913960400191505060405180910390fd5b6001600160a01b03808416600081815260056020908152604080832094871680845294825291829020859055815185815291517f8c5be1e5ebec7d5bd14f71427d1e84f3dd0314c0f7b2291e5b200ac8c7c3b9259281900390910190a3505050565b6001600160a01b0383166110a15760405162461bcd60e51b8152600401808060200182810382526025815260200180611a576025913960400191505060405180910390fd5b6001600160a01b0382166110e65760405162461bcd60e51b81526004018080602001828103825260238152602001806119606023913960400191505060405180910390fd5b600b5460ff1615611181576001600160a01b0383166000908152600a602052604090205460ff168061113057506001600160a01b0382166000908152600a602052604090205460ff165b611181576040805162461bcd60e51b815260206004820152601660248201527f6c696d6974207472616e73666572207461726765747300000000000000000000604482015290519081900360640190fd5b6111be816040518060600160405280602681526020016119c7602691396001600160a01b0386166000908152600460205260409020549190611249565b6001600160a01b0380851660009081526004602052604080822093909355908416815220546111ed9082611455565b6001600160a01b0380841660008181526004602090815260409182902094909455805185815290519193928716927fddf252ad1be2c89b69c2b068fc378daa952ba7f163c4a11628f55a4df523b3ef92918290030190a3505050565b600081848411156112d85760405162461bcd60e51b81526004018080602001828103825283818151815260200191508051906020019080838360005b8381101561129d578181015183820152602001611285565b50505050905090810190601f1680156112ca5780820380516001836020036101000a031916815260200191505b509250505060405180910390fd5b505050900390565b6001600160a01b0382166113255760405162461bcd60e51b8152600401808060200182810382526021815260200180611a366021913960400191505060405180910390fd5b61136281604051806060016040528060228152602001611983602291396001600160a01b0385166000908152600460205260409020549190611249565b6001600160a01b0383166000908152600460205260409020556006546113889082611544565b6006556040805182815290516000916001600160a01b038516917fddf252ad1be2c89b69c2b068fc378daa952ba7f163c4a11628f55a4df523b3ef9181900360200190a35050565b604080516001600160a01b038416602482015260448082018490528251808303909101815260649091019091526020810180517bffffffffffffffffffffffffffffffffffffffffffffffffffffffff167fa9059cbb00000000000000000000000000000000000000000000000000000000179052611450908490611707565b505050565b6000828201838110156114af576040805162461bcd60e51b815260206004820152601b60248201527f536166654d6174683a206164646974696f6e206f766572666c6f770000000000604482015290519081900360640190fd5b9392505050565b604080516001600160a01b0380861660248301528416604482015260648082018490528251808303909101815260849091019091526020810180517bffffffffffffffffffffffffffffffffffffffffffffffffffffffff167f23b872dd0000000000000000000000000000000000000000000000000000000017905261153e908590611707565b50505050565b60006114af83836040518060400160405280601e81526020017f536166654d6174683a207375627472616374696f6e206f766572666c6f770000815250611249565b60008261159557506000610686565b828202828482816115a257fe5b04146114af5760405162461bcd60e51b81526004018080602001828103825260218152602001806119ed6021913960400191505060405180910390fd5b60006114af83836040518060400160405280601a81526020017f536166654d6174683a206469766973696f6e206279207a65726f0000000000008152506118be565b6001600160a01b03821661167c576040805162461bcd60e51b815260206004820152601f60248201527f45524332303a206d696e7420746f20746865207a65726f206164647265737300604482015290519081900360640190fd5b6006546116899082611455565b6006556001600160a01b0382166000908152600460205260409020546116af9082611455565b6001600160a01b03831660008181526004602090815260408083209490945583518581529351929391927fddf252ad1be2c89b69c2b068fc378daa952ba7f163c4a11628f55a4df523b3ef9281900390910190a35050565b611719826001600160a01b0316611923565b61176a576040805162461bcd60e51b815260206004820152601f60248201527f5361666545524332303a2063616c6c20746f206e6f6e2d636f6e747261637400604482015290519081900360640190fd5b600080836001600160a01b0316836040518082805190602001908083835b602083106117a75780518252601f199092019160209182019101611788565b6001836020036101000a0380198251168184511680821785525050505050509050019150506000604051808303816000865af19150503d8060008114611809576040519150601f19603f3d011682016040523d82523d6000602084013e61180e565b606091505b509150915081611865576040805162461bcd60e51b815260206004820181905260248201527f5361666545524332303a206c6f772d6c6576656c2063616c6c206661696c6564604482015290519081900360640190fd5b80511561153e5780806020019051602081101561188157600080fd5b505161153e5760405162461bcd60e51b815260040180806020018281038252602a815260200180611aa0602a913960400191505060405180910390fd5b6000818361190d5760405162461bcd60e51b815260206004820181815283516024840152835190928392604490910191908501908083836000831561129d578181015183820152602001611285565b50600083858161191957fe5b0495945050505050565b6000813f7fc5d2460186f7233c927e7db2dcc703c0e500b653ca82273b7bfad8045d85a47081158015906119575750808214155b94935050505056fe45524332303a207472616e7366657220746f20746865207a65726f206164647265737345524332303a206275726e20616d6f756e7420657863656564732062616c616e636545524332303a20617070726f766520746f20746865207a65726f206164647265737345524332303a207472616e7366657220616d6f756e7420657863656564732062616c616e6365536166654d6174683a206d756c7469706c69636174696f6e206f766572666c6f7745524332303a207472616e7366657220616d6f756e74206578636565647320616c6c6f77616e636545524332303a206275726e2066726f6d20746865207a65726f206164647265737345524332303a207472616e736665722066726f6d20746865207a65726f206164647265737345524332303a20617070726f76652066726f6d20746865207a65726f20616464726573735361666545524332303a204552433230206f7065726174696f6e20646964206e6f74207375636365656445524332303a2064656372656173656420616c6c6f77616e63652062656c6f77207a65726fa2646970667358221220811966190ea7addf207d5849cdf543e240c1d8bf8f45eac6fa2aa38eb6a7263764736f6c63430007060033",
  "linkReferences": {},
  "deployedLinkReferences": {}
}