{
  "_format": "hh-sol-artifact-1",
  "contractName": "LHT",
  "sourceName": "contracts/compound/LHT.sol",
  "abi": [
    {
      "inputs": [
        {
          "internalType": "contract ComptrollerInterface",
          "name": "comptroller_",
          "type": "address"
        },
        {
          "internalType": "contract InterestRateModel",
          "name": "interestRateModel_",
          "type": "address"
        },
        {
          "internalType": "uint256",
          "name": "initialExchangeRateMantissa_",
          "type": "uint256"
        },
        {
          "internalType": "string",
          "name": "name_",
          "type": "string"
        },
        {
          "internalType": "string",
          "name": "symbol_",
          "type": "string"
        },
        {
          "internalType": "uint8",
          "name": "decimals_",
          "type": "uint8"
        },
        {
          "internalType": "address payable",
          "name": "admin_",
          "type": "address"
        }
      ],
      "payable": false,
      "stateMutability": "nonpayable",
      "type": "constructor"
    },
    {
      "anonymous": false,
      "inputs": [
        {
          "indexed": false,
          "internalType": "uint256",
          "name": "cashPrior",
          "type": "uint256"
        },
        {
          "indexed": false,
          "internalType": "uint256",
          "name": "interestAccumulated",
          "type": "uint256"
        },
        {
          "indexed": false,
          "internalType": "uint256",
          "name": "borrowIndex",
          "type": "uint256"
        },
        {
          "indexed": false,
          "internalType": "uint256",
          "name": "totalBorrows",
          "type": "uint256"
        }
      ],
      "name": "AccrueInterest",
      "type": "event"
    },
    {
      "anonymous": false,
      "inputs": [
        {
          "indexed": true,
          "internalType": "address",
          "name": "owner",
          "type": "address"
        },
        {
          "indexed": true,
          "internalType": "address",
          "name": "spender",
          "type": "address"
        },
        {
          "indexed": false,
          "internalType": "uint256",
          "name": "amount",
          "type": "uint256"
        }
      ],
      "name": "Approval",
      "type": "event"
    },
    {
      "anonymous": false,
      "inputs": [
        {
          "indexed": false,
          "internalType": "address",
          "name": "borrower",
          "type": "address"
        },
        {
          "indexed": false,
          "internalType": "uint256",
          "name": "borrowAmount",
          "type": "uint256"
        },
        {
          "indexed": false,
          "internalType": "uint256",
          "name": "accountBorrows",
          "type": "uint256"
        },
        {
          "indexed": false,
          "internalType": "uint256",
          "name": "totalBorrows",
          "type": "uint256"
        }
      ],
      "name": "Borrow",
      "type": "event"
    },
    {
      "anonymous": false,
      "inputs": [
        {
          "indexed": false,
          "internalType": "uint256",
          "name": "error",
          "type": "uint256"
        },
        {
          "indexed": false,
          "internalType": "uint256",
          "name": "info",
          "type": "uint256"
        },
        {
          "indexed": false,
          "internalType": "uint256",
          "name": "detail",
          "type": "uint256"
        }
      ],
      "name": "Failure",
      "type": "event"
    },
    {
      "anonymous": false,
      "inputs": [
        {
          "indexed": false,
          "internalType": "address",
          "name": "liquidator",
          "type": "address"
        },
        {
          "indexed": false,
          "internalType": "address",
          "name": "borrower",
          "type": "address"
        },
        {
          "indexed": false,
          "internalType": "uint256",
          "name": "repayAmount",
          "type": "uint256"
        },
        {
          "indexed": false,
          "internalType": "address",
          "name": "cTokenCollateral",
          "type": "address"
        },
        {
          "indexed": false,
          "internalType": "uint256",
          "name": "seizeTokens",
          "type": "uint256"
        }
      ],
      "name": "LiquidateBorrow",
      "type": "event"
    },
    {
      "anonymous": false,
      "inputs": [
        {
          "indexed": false,
          "internalType": "address",
          "name": "minter",
          "type": "address"
        },
        {
          "indexed": false,
          "internalType": "uint256",
          "name": "mintAmount",
          "type": "uint256"
        },
        {
          "indexed": false,
          "internalType": "uint256",
          "name": "mintTokens",
          "type": "uint256"
        }
      ],
      "name": "Mint",
      "type": "event"
    },
    {
      "anonymous": false,
      "inputs": [
        {
          "indexed": false,
          "internalType": "address",
          "name": "oldAdmin",
          "type": "address"
        },
        {
          "indexed": false,
          "internalType": "address",
          "name": "newAdmin",
          "type": "address"
        }
      ],
      "name": "NewAdmin",
      "type": "event"
    },
    {
      "anonymous": false,
      "inputs": [
        {
          "indexed": false,
          "internalType": "contract ComptrollerInterface",
          "name": "oldComptroller",
          "type": "address"
        },
        {
          "indexed": false,
          "internalType": "contract ComptrollerInterface",
          "name": "newComptroller",
          "type": "address"
        }
      ],
      "name": "NewComptroller",
      "type": "event"
    },
    {
      "anonymous": false,
      "inputs": [
        {
          "indexed": false,
          "internalType": "contract InterestRateModel",
          "name": "oldInterestRateModel",
          "type": "address"
        },
        {
          "indexed": false,
          "internalType": "contract InterestRateModel",
          "name": "newInterestRateModel",
          "type": "address"
        }
      ],
      "name": "NewMarketInterestRateModel",
      "type": "event"
    },
    {
      "anonymous": false,
      "inputs": [
        {
          "indexed": false,
          "internalType": "address",
          "name": "oldPendingAdmin",
          "type": "address"
        },
        {
          "indexed": false,
          "internalType": "address",
          "name": "newPendingAdmin",
          "type": "address"
        }
      ],
      "name": "NewPendingAdmin",
      "type": "event"
    },
    {
      "anonymous": false,
      "inputs": [
        {
          "indexed": false,
          "internalType": "uint256",
          "name": "oldReserveFactorMantissa",
          "type": "uint256"
        },
        {
          "indexed": false,
          "internalType": "uint256",
          "name": "newReserveFactorMantissa",
          "type": "uint256"
        }
      ],
      "name": "NewReserveFactor",
      "type": "event"
    },
    {
      "anonymous": false,
      "inputs": [
        {
          "indexed": false,
          "internalType": "address",
          "name": "redeemer",
          "type": "address"
        },
        {
          "indexed": false,
          "internalType": "uint256",
          "name": "redeemAmount",
          "type": "uint256"
        },
        {
          "indexed": false,
          "internalType": "uint256",
          "name": "redeemTokens",
          "type": "uint256"
        }
      ],
      "name": "Redeem",
      "type": "event"
    },
    {
      "anonymous": false,
      "inputs": [
        {
          "indexed": false,
          "internalType": "address",
          "name": "payer",
          "type": "address"
        },
        {
          "indexed": false,
          "internalType": "address",
          "name": "borrower",
          "type": "address"
        },
        {
          "indexed": false,
          "internalType": "uint256",
          "name": "repayAmount",
          "type": "uint256"
        },
        {
          "indexed": false,
          "internalType": "uint256",
          "name": "accountBorrows",
          "type": "uint256"
        },
        {
          "indexed": false,
          "internalType": "uint256",
          "name": "totalBorrows",
          "type": "uint256"
        }
      ],
      "name": "RepayBorrow",
      "type": "event"
    },
    {
      "anonymous": false,
      "inputs": [
        {
          "indexed": false,
          "internalType": "address",
          "name": "benefactor",
          "type": "address"
        },
        {
          "indexed": false,
          "internalType": "uint256",
          "name": "addAmount",
          "type": "uint256"
        },
        {
          "indexed": false,
          "internalType": "uint256",
          "name": "newTotalReserves",
          "type": "uint256"
        }
      ],
      "name": "ReservesAdded",
      "type": "event"
    },
    {
      "anonymous": false,
      "inputs": [
        {
          "indexed": false,
          "internalType": "address",
          "name": "admin",
          "type": "address"
        },
        {
          "indexed": false,
          "internalType": "uint256",
          "name": "reduceAmount",
          "type": "uint256"
        },
        {
          "indexed": false,
          "internalType": "uint256",
          "name": "newTotalReserves",
          "type": "uint256"
        }
      ],
      "name": "ReservesReduced",
      "type": "event"
    },
    {
      "anonymous": false,
      "inputs": [
        {
          "indexed": true,
          "internalType": "address",
          "name": "from",
          "type": "address"
        },
        {
          "indexed": true,
          "internalType": "address",
          "name": "to",
          "type": "address"
        },
        {
          "indexed": false,
          "internalType": "uint256",
          "name": "amount",
          "type": "uint256"
        }
      ],
      "name": "Transfer",
      "type": "event"
    },
    {
      "payable": true,
      "stateMutability": "payable",
      "type": "fallback"
    },
    {
      "constant": false,
      "inputs": [],
      "name": "_acceptAdmin",
      "outputs": [
        {
          "internalType": "uint256",
          "name": "",
          "type": "uint256"
        }
      ],
      "payable": false,
      "stateMutability": "nonpayable",
      "type": "function"
    },
    {
      "constant": false,
      "inputs": [
        {
          "internalType": "uint256",
          "name": "reduceAmount",
          "type": "uint256"
        }
      ],
      "name": "_reduceReserves",
      "outputs": [
        {
          "internalType": "uint256",
          "name": "",
          "type": "uint256"
        }
      ],
      "payable": false,
      "stateMutability": "nonpayable",
      "type": "function"
    },
    {
      "constant": false,
      "inputs": [
        {
          "internalType": "contract ComptrollerInterface",
          "name": "newComptroller",
          "type": "address"
        }
      ],
      "name": "_setComptroller",
      "outputs": [
        {
          "internalType": "uint256",
          "name": "",
          "type": "uint256"
        }
      ],
      "payable": false,
      "stateMutability": "nonpayable",
      "type": "function"
    },
    {
      "constant": false,
      "inputs": [
        {
          "internalType": "contract InterestRateModel",
          "name": "newInterestRateModel",
          "type": "address"
        }
      ],
      "name": "_setInterestRateModel",
      "outputs": [
        {
          "internalType": "uint256",
          "name": "",
          "type": "uint256"
        }
      ],
      "payable": false,
      "stateMutability": "nonpayable",
      "type": "function"
    },
    {
      "constant": false,
      "inputs": [
        {
          "internalType": "address payable",
          "name": "newPendingAdmin",
          "type": "address"
        }
      ],
      "name": "_setPendingAdmin",
      "outputs": [
        {
          "internalType": "uint256",
          "name": "",
          "type": "uint256"
        }
      ],
      "payable": false,
      "stateMutability": "nonpayable",
      "type": "function"
    },
    {
      "constant": false,
      "inputs": [
        {
          "internalType": "uint256",
          "name": "newReserveFactorMantissa",
          "type": "uint256"
        }
      ],
      "name": "_setReserveFactor",
      "outputs": [
        {
          "internalType": "uint256",
          "name": "",
          "type": "uint256"
        }
      ],
      "payable": false,
      "stateMutability": "nonpayable",
      "type": "function"
    },
    {
      "constant": true,
      "inputs": [],
      "name": "accrualBlockNumber",
      "outputs": [
        {
          "internalType": "uint256",
          "name": "",
          "type": "uint256"
        }
      ],
      "payable": false,
      "stateMutability": "view",
      "type": "function"
    },
    {
      "constant": false,
      "inputs": [],
      "name": "accrueInterest",
      "outputs": [
        {
          "internalType": "uint256",
          "name": "",
          "type": "uint256"
        }
      ],
      "payable": false,
      "stateMutability": "nonpayable",
      "type": "function"
    },
    {
      "constant": true,
      "inputs": [],
      "name": "admin",
      "outputs": [
        {
          "internalType": "address payable",
          "name": "",
          "type": "address"
        }
      ],
      "payable": false,
      "stateMutability": "view",
      "type": "function"
    },
    {
      "constant": true,
      "inputs": [
        {
          "internalType": "address",
          "name": "owner",
          "type": "address"
        },
        {
          "internalType": "address",
          "name": "spender",
          "type": "address"
        }
      ],
      "name": "allowance",
      "outputs": [
        {
          "internalType": "uint256",
          "name": "",
          "type": "uint256"
        }
      ],
      "payable": false,
      "stateMutability": "view",
      "type": "function"
    },
    {
      "constant": false,
      "inputs": [
        {
          "internalType": "address",
          "name": "spender",
          "type": "address"
        },
        {
          "internalType": "uint256",
          "name": "amount",
          "type": "uint256"
        }
      ],
      "name": "approve",
      "outputs": [
        {
          "internalType": "bool",
          "name": "",
          "type": "bool"
        }
      ],
      "payable": false,
      "stateMutability": "nonpayable",
      "type": "function"
    },
    {
      "constant": true,
      "inputs": [
        {
          "internalType": "address",
          "name": "owner",
          "type": "address"
        }
      ],
      "name": "balanceOf",
      "outputs": [
        {
          "internalType": "uint256",
          "name": "",
          "type": "uint256"
        }
      ],
      "payable": false,
      "stateMutability": "view",
      "type": "function"
    },
    {
      "constant": false,
      "inputs": [
        {
          "internalType": "address",
          "name": "owner",
          "type": "address"
        }
      ],
      "name": "balanceOfUnderlying",
      "outputs": [
        {
          "internalType": "uint256",
          "name": "",
          "type": "uint256"
        }
      ],
      "payable": false,
      "stateMutability": "nonpayable",
      "type": "function"
    },
    {
      "constant": false,
      "inputs": [
        {
          "internalType": "uint256",
          "name": "borrowAmount",
          "type": "uint256"
        },
        {
          "internalType": "address",
          "name": "to",
          "type": "address"
        }
      ],
      "name": "borrow",
      "outputs": [
        {
          "internalType": "uint256",
          "name": "",
          "type": "uint256"
        }
      ],
      "payable": false,
      "stateMutability": "nonpayable",
      "type": "function"
    },
    {
      "constant": false,
      "inputs": [
        {
          "internalType": "address",
          "name": "account",
          "type": "address"
        }
      ],
      "name": "borrowBalanceCurrent",
      "outputs": [
        {
          "internalType": "uint256",
          "name": "",
          "type": "uint256"
        }
      ],
      "payable": false,
      "stateMutability": "nonpayable",
      "type": "function"
    },
    {
      "constant": true,
      "inputs": [
        {
          "internalType": "address",
          "name": "account",
          "type": "address"
        }
      ],
      "name": "borrowBalanceStored",
      "outputs": [
        {
          "internalType": "uint256",
          "name": "",
          "type": "uint256"
        }
      ],
      "payable": false,
      "stateMutability": "view",
      "type": "function"
    },
    {
      "constant": true,
      "inputs": [],
      "name": "borrowIndex",
      "outputs": [
        {
          "internalType": "uint256",
          "name": "",
          "type": "uint256"
        }
      ],
      "payable": false,
      "stateMutability": "view",
      "type": "function"
    },
    {
      "constant": true,
      "inputs": [],
      "name": "borrowRatePerBlock",
      "outputs": [
        {
          "internalType": "uint256",
          "name": "",
          "type": "uint256"
        }
      ],
      "payable": false,
      "stateMutability": "view",
      "type": "function"
    },
    {
      "constant": true,
      "inputs": [],
      "name": "comptroller",
      "outputs": [
        {
          "internalType": "contract ComptrollerInterface",
          "name": "",
          "type": "address"
        }
      ],
      "payable": false,
      "stateMutability": "view",
      "type": "function"
    },
    {
      "constant": true,
      "inputs": [],
      "name": "comptrollerV2",
      "outputs": [
        {
          "internalType": "contract ComptrollerInterfaceV2",
          "name": "",
          "type": "address"
        }
      ],
      "payable": false,
      "stateMutability": "view",
      "type": "function"
    },
    {
      "constant": true,
      "inputs": [],
      "name": "decimals",
      "outputs": [
        {
          "internalType": "uint8",
          "name": "",
          "type": "uint8"
        }
      ],
      "payable": false,
      "stateMutability": "view",
      "type": "function"
    },
    {
      "constant": false,
      "inputs": [],
      "name": "exchangeRateCurrent",
      "outputs": [
        {
          "internalType": "uint256",
          "name": "",
          "type": "uint256"
        }
      ],
      "payable": false,
      "stateMutability": "nonpayable",
      "type": "function"
    },
    {
      "constant": true,
      "inputs": [],
      "name": "exchangeRateStored",
      "outputs": [
        {
          "internalType": "uint256",
          "name": "",
          "type": "uint256"
        }
      ],
      "payable": false,
      "stateMutability": "view",
      "type": "function"
    },
    {
      "constant": false,
      "inputs": [
        {
          "internalType": "uint256",
          "name": "addBorrow",
          "type": "uint256"
        }
      ],
      "name": "externalDebtAdd",
      "outputs": [
        {
          "internalType": "uint256",
          "name": "",
          "type": "uint256"
        }
      ],
      "payable": false,
      "stateMutability": "nonpayable",
      "type": "function"
    },
    {
      "constant": true,
      "inputs": [
        {
          "internalType": "address",
          "name": "account",
          "type": "address"
        }
      ],
      "name": "getAccountSnapshot",
      "outputs": [
        {
          "internalType": "uint256",
          "name": "",
          "type": "uint256"
        },
        {
          "internalType": "uint256",
          "name": "",
          "type": "uint256"
        },
        {
          "internalType": "uint256",
          "name": "",
          "type": "uint256"
        },
        {
          "internalType": "uint256",
          "name": "",
          "type": "uint256"
        }
      ],
      "payable": false,
      "stateMutability": "view",
      "type": "function"
    },
    {
      "constant": true,
      "inputs": [],
      "name": "getBorrowRate",
      "outputs": [
        {
          "internalType": "uint256",
          "name": "",
          "type": "uint256"
        }
      ],
      "payable": false,
      "stateMutability": "view",
      "type": "function"
    },
    {
      "constant": true,
      "inputs": [],
      "name": "getCash",
      "outputs": [
        {
          "internalType": "uint256",
          "name": "",
          "type": "uint256"
        }
      ],
      "payable": false,
      "stateMutability": "view",
      "type": "function"
    },
    {
      "constant": false,
      "inputs": [
        {
          "internalType": "contract ComptrollerInterface",
          "name": "comptroller_",
          "type": "address"
        },
        {
          "internalType": "contract InterestRateModel",
          "name": "interestRateModel_",
          "type": "address"
        },
        {
          "internalType": "uint256",
          "name": "initialExchangeRateMantissa_",
          "type": "uint256"
        },
        {
          "internalType": "string",
          "name": "name_",
          "type": "string"
        },
        {
          "internalType": "string",
          "name": "symbol_",
          "type": "string"
        },
        {
          "internalType": "uint8",
          "name": "decimals_",
          "type": "uint8"
        }
      ],
      "name": "initialize",
      "outputs": [],
      "payable": false,
      "stateMutability": "nonpayable",
      "type": "function"
    },
    {
      "constant": true,
      "inputs": [],
      "name": "interestRateModel",
      "outputs": [
        {
          "internalType": "contract InterestRateModel",
          "name": "",
          "type": "address"
        }
      ],
      "payable": false,
      "stateMutability": "view",
      "type": "function"
    },
    {
      "constant": true,
      "inputs": [],
      "name": "isCToken",
      "outputs": [
        {
          "internalType": "bool",
          "name": "",
          "type": "bool"
        }
      ],
      "payable": false,
      "stateMutability": "view",
      "type": "function"
    },
    {
      "constant": false,
      "inputs": [
        {
          "internalType": "uint256",
          "name": "leverageAmount",
          "type": "uint256"
        }
      ],
      "name": "leverageBorrow",
      "outputs": [
        {
          "internalType": "uint256",
          "name": "",
          "type": "uint256"
        }
      ],
      "payable": false,
      "stateMutability": "nonpayable",
      "type": "function"
    },
    {
      "constant": true,
      "inputs": [],
      "name": "leverageSupply",
      "outputs": [
        {
          "internalType": "uint256",
          "name": "",
          "type": "uint256"
        }
      ],
      "payable": false,
      "stateMutability": "view",
      "type": "function"
    },
    {
      "constant": false,
      "inputs": [
        {
          "internalType": "address",
          "name": "borrower",
          "type": "address"
        },
        {
          "internalType": "contract CToken",
          "name": "cTokenCollateral",
          "type": "address"
        }
      ],
      "name": "liquidateBorrow",
      "outputs": [],
      "payable": true,
      "stateMutability": "payable",
      "type": "function"
    },
    {
      "constant": false,
      "inputs": [],
      "name": "mint",
      "outputs": [
        {
          "internalType": "uint256",
          "name": "",
          "type": "uint256"
        },
        {
          "internalType": "uint256",
          "name": "",
          "type": "uint256"
        }
      ],
      "payable": true,
      "stateMutability": "payable",
      "type": "function"
    },
    {
      "constant": true,
      "inputs": [],
      "name": "name",
      "outputs": [
        {
          "internalType": "string",
          "name": "",
          "type": "string"
        }
      ],
      "payable": false,
      "stateMutability": "view",
      "type": "function"
    },
    {
      "constant": true,
      "inputs": [],
      "name": "pendingAdmin",
      "outputs": [
        {
          "internalType": "address payable",
          "name": "",
          "type": "address"
        }
      ],
      "payable": false,
      "stateMutability": "view",
      "type": "function"
    },
    {
      "constant": false,
      "inputs": [
        {
          "internalType": "uint256",
          "name": "redeemTokens",
          "type": "uint256"
        }
      ],
      "name": "redeem",
      "outputs": [
        {
          "internalType": "uint256",
          "name": "",
          "type": "uint256"
        },
        {
          "internalType": "uint256",
          "name": "",
          "type": "uint256"
        },
        {
          "internalType": "uint256",
          "name": "",
          "type": "uint256"
        }
      ],
      "payable": false,
      "stateMutability": "nonpayable",
      "type": "function"
    },
    {
      "constant": false,
      "inputs": [
        {
          "internalType": "uint256",
          "name": "redeemTokens",
          "type": "uint256"
        }
      ],
      "name": "redeemLeverage",
      "outputs": [
        {
          "internalType": "uint256",
          "name": "",
          "type": "uint256"
        },
        {
          "internalType": "uint256",
          "name": "",
          "type": "uint256"
        }
      ],
      "payable": false,
      "stateMutability": "nonpayable",
      "type": "function"
    },
    {
      "constant": false,
      "inputs": [
        {
          "internalType": "uint256",
          "name": "redeemAmount",
          "type": "uint256"
        }
      ],
      "name": "redeemUnderlying",
      "outputs": [
        {
          "internalType": "uint256",
          "name": "",
          "type": "uint256"
        },
        {
          "internalType": "uint256",
          "name": "",
          "type": "uint256"
        },
        {
          "internalType": "uint256",
          "name": "",
          "type": "uint256"
        }
      ],
      "payable": false,
      "stateMutability": "nonpayable",
      "type": "function"
    },
    {
      "constant": false,
      "inputs": [],
      "name": "repayBorrow",
      "outputs": [],
      "payable": true,
      "stateMutability": "payable",
      "type": "function"
    },
    {
      "constant": false,
      "inputs": [
        {
          "internalType": "address",
          "name": "borrower",
          "type": "address"
        }
      ],
      "name": "repayBorrowBehalf",
      "outputs": [],
      "payable": true,
      "stateMutability": "payable",
      "type": "function"
    },
    {
      "constant": true,
      "inputs": [],
      "name": "reserveFactorMantissa",
      "outputs": [
        {
          "internalType": "uint256",
          "name": "",
          "type": "uint256"
        }
      ],
      "payable": false,
      "stateMutability": "view",
      "type": "function"
    },
    {
      "constant": false,
      "inputs": [
        {
          "internalType": "address",
          "name": "liquidator",
          "type": "address"
        },
        {
          "internalType": "address",
          "name": "borrower",
          "type": "address"
        },
        {
          "internalType": "uint256",
          "name": "seizeTokens",
          "type": "uint256"
        }
      ],
      "name": "seize",
      "outputs": [
        {
          "internalType": "uint256",
          "name": "",
          "type": "uint256"
        }
      ],
      "payable": false,
      "stateMutability": "nonpayable",
      "type": "function"
    },
    {
      "constant": true,
      "inputs": [],
      "name": "supplyRatePerBlock",
      "outputs": [
        {
          "internalType": "uint256",
          "name": "",
          "type": "uint256"
        }
      ],
      "payable": false,
      "stateMutability": "view",
      "type": "function"
    },
    {
      "constant": true,
      "inputs": [],
      "name": "symbol",
      "outputs": [
        {
          "internalType": "string",
          "name": "",
          "type": "string"
        }
      ],
      "payable": false,
      "stateMutability": "view",
      "type": "function"
    },
    {
      "constant": true,
      "inputs": [],
      "name": "totalBorrows",
      "outputs": [
        {
          "internalType": "uint256",
          "name": "",
          "type": "uint256"
        }
      ],
      "payable": false,
      "stateMutability": "view",
      "type": "function"
    },
    {
      "constant": false,
      "inputs": [],
      "name": "totalBorrowsCurrent",
      "outputs": [
        {
          "internalType": "uint256",
          "name": "",
          "type": "uint256"
        }
      ],
      "payable": false,
      "stateMutability": "nonpayable",
      "type": "function"
    },
    {
      "constant": true,
      "inputs": [],
      "name": "totalReserves",
      "outputs": [
        {
          "internalType": "uint256",
          "name": "",
          "type": "uint256"
        }
      ],
      "payable": false,
      "stateMutability": "view",
      "type": "function"
    },
    {
      "constant": true,
      "inputs": [],
      "name": "totalSupply",
      "outputs": [
        {
          "internalType": "uint256",
          "name": "",
          "type": "uint256"
        }
      ],
      "payable": false,
      "stateMutability": "view",
      "type": "function"
    },
    {
      "constant": false,
      "inputs": [
        {
          "internalType": "address",
          "name": "dst",
          "type": "address"
        },
        {
          "internalType": "uint256",
          "name": "amount",
          "type": "uint256"
        }
      ],
      "name": "transfer",
      "outputs": [
        {
          "internalType": "bool",
          "name": "",
          "type": "bool"
        }
      ],
      "payable": false,
      "stateMutability": "nonpayable",
      "type": "function"
    },
    {
      "constant": false,
      "inputs": [
        {
          "internalType": "address",
          "name": "src",
          "type": "address"
        },
        {
          "internalType": "address",
          "name": "dst",
          "type": "address"
        },
        {
          "internalType": "uint256",
          "name": "amount",
          "type": "uint256"
        }
      ],
      "name": "transferFrom",
      "outputs": [
        {
          "internalType": "bool",
          "name": "",
          "type": "bool"
        }
      ],
      "payable": false,
      "stateMutability": "nonpayable",
      "type": "function"
    }
  ],
  "bytecode": "0x60806040523480156200001157600080fd5b506040516200632038038062006320833981810160405260e08110156200003757600080fd5b8151602083015160408085015160608601805192519496939591949391820192846401000000008211156200006b57600080fd5b9083019060208201858111156200008157600080fd5b82516401000000008111828201881017156200009c57600080fd5b82525081516020918201929091019080838360005b83811015620000cb578181015183820152602001620000b1565b50505050905090810190601f168015620000f95780820380516001836020036101000a031916815260200191505b50604052602001805160405193929190846401000000008211156200011d57600080fd5b9083019060208201858111156200013357600080fd5b82516401000000008111828201881017156200014e57600080fd5b82525081516020918201929091019080838360005b838110156200017d57818101518382015260200162000163565b50505050905090810190601f168015620001ab5780820380516001836020036101000a031916815260200191505b506040908152602082015191015160038054610100600160a81b03191633610100021790559092509050620001e587878787878762000218565b600380546001600160a01b0390921661010002610100600160a81b03199092169190911790555062000861945050505050565b60035461010090046001600160a01b03163314620002685760405162461bcd60e51b8152600401808060200182810382526024815260200180620062876024913960400191505060405180910390fd5b600a54158015620002795750600b54155b620002b65760405162461bcd60e51b8152600401808060200182810382526023815260200180620062ab6023913960400191505060405180910390fd5b600884905583620002f95760405162461bcd60e51b8152600401808060200182810382526030815260200180620062ce6030913960400191505060405180910390fd5b60006200030f876001600160e01b036200042e16565b9050801562000365576040805162461bcd60e51b815260206004820152601a60248201527f73657474696e6720636f6d7074726f6c6c6572206661696c6564000000000000604482015290519081900360640190fd5b620003786001600160e01b03620005a416565b600a55670de0b6b3a7640000600b556200039b866001600160e01b03620005a916565b90508015620003dc5760405162461bcd60e51b8152600401808060200182810382526022815260200180620062fe6022913960400191505060405180910390fd5b8351620003f1906001906020870190620007bf565b50825162000407906002906020860190620007bf565b50506003805460ff90921660ff199283161790556000805490911660011790555050505050565b60035460009061010090046001600160a01b031633146200046857620004606001603f6001600160e01b036200074f16565b90506200059f565b60055460408051623f1ee960e11b815290516001600160a01b0392831692851691627e3dd2916004808301926020929190829003018186803b158015620004ae57600080fd5b505afa158015620004c3573d6000803e3d6000fd5b505050506040513d6020811015620004da57600080fd5b50516200052e576040805162461bcd60e51b815260206004820152601c60248201527f6d61726b6572206d6574686f642072657475726e65642066616c736500000000604482015290519081900360640190fd5b600580546001600160a01b038086166001600160a01b03199283168117909355600680549092168317909155604080519184168252602082019290925281517f7ac369dbd14fa5ea3f473ed67cc9d598964a77501540ba6751eb0b3decf5870d929181900390910190a160005b9150505b919050565b435b90565b600354600090819061010090046001600160a01b03163314620005e657620005dd600160426001600160e01b036200074f16565b9150506200059f565b620005f96001600160e01b03620005a416565b600a54146200061957620005dd600a60416001600160e01b036200074f16565b600760009054906101000a90046001600160a01b03169050826001600160a01b0316632191f92a6040518163ffffffff1660e01b815260040160206040518083038186803b1580156200066b57600080fd5b505afa15801562000680573d6000803e3d6000fd5b505050506040513d60208110156200069757600080fd5b5051620006eb576040805162461bcd60e51b815260206004820152601c60248201527f6d61726b6572206d6574686f642072657475726e65642066616c736500000000604482015290519081900360640190fd5b600780546001600160a01b0319166001600160a01b03858116918217909255604080519284168352602083019190915280517fedffc32e068c7c95dfd4bdfd5c4d939a084d6b11c4199eac8436ed234d72f9269281900390910190a160006200059b565b60007f45b96fe442630264581b197e84bbada861235052c5a1aadfff9ea4e40a969aa08360108111156200077f57fe5b8360508111156200078c57fe5b604080519283526020830191909152600082820152519081900360600190a1826010811115620007b857fe5b9392505050565b828054600181600116156101000203166002900490600052602060002090601f016020900481019282601f106200080257805160ff191683800117855562000832565b8280016001018555821562000832579182015b828111156200083257825182559160200191906001019062000815565b506200084092915062000844565b5090565b620005a691905b808211156200084057600081556001016200084b565b615a1680620008716000396000f3fe6080604052600436106102e45760003560e01c80638f840ddd11610190578063bd6d894d116100dc578063ea5b375e11610095578063f851a4401161006f578063f851a44014610be0578063f8f9da2814610bf5578063fca7820b14610c0a578063fe9c44ae14610c34576102e4565b8063ea5b375e14610b6e578063f2b3abbd14610b98578063f3fdb15a14610bcb576102e4565b8063bd6d894d14610a60578063c37f68e214610a75578063db006a7514610ace578063dd62ed3e14610af8578063e597461914610b33578063e9c714f214610b59576102e4565b8063aa5af0fd11610149578063ae9d70b011610123578063ae9d70b0146109c0578063b2a02ff1146109d5578063b71d1a0c14610a18578063ba1c5e8014610a4b576102e4565b8063aa5af0fd14610968578063aae40a2a1461097d578063ab317fd9146109ab576102e4565b80638f840ddd1461075e57806395d89b411461077357806395dd91931461078857806399d8c1b4146107bb578063a6afed951461091a578063a9059cbb1461092f576102e4565b80633af9e6691161024f5780635fe3b5671161020857806370a08231116101e257806370a08231146106a457806373acee98146106d7578063822df1b4146106ec578063852a12e314610716576102e4565b80635fe3b56714610650578063601a0bf1146106655780636c540baf1461068f576102e4565b80633af9e6691461057d5780633b1d21a2146105b05780634576b5db146105c557806347bd3718146105f85780634b3fd1481461060d5780634e4d9fea14610646576102e4565b806318160ddd116102a157806318160ddd146104a6578063182df0f5146104bb57806323b872dd146104d05780632678224714610513578063313ce5671461052857806338f8fc4f14610553576102e4565b806306fdde0314610323578063095ea7b3146103ad578063106d3786146103fa5780631249c58b1461042b578063173b99041461044c57806317bfdfbc14610473575b60006102ef34610c49565b50509050610320816040518060400160405280600b81526020016a1b5a5b9d0819985a5b195960aa1b815250610cf8565b50005b34801561032f57600080fd5b50610338610ef8565b6040805160208082528351818301528351919283929083019185019080838360005b8381101561037257818101518382015260200161035a565b50505050905090810190601f16801561039f5780820380516001836020036101000a031916815260200191505b509250505060405180910390f35b3480156103b957600080fd5b506103e6600480360360408110156103d057600080fd5b506001600160a01b038135169060200135610f85565b604080519115158252519081900360200190f35b34801561040657600080fd5b5061040f610ff0565b604080516001600160a01b039092168252519081900360200190f35b610433610fff565b6040805192835260208301919091528051918290030190f35b34801561045857600080fd5b5061046161104a565b60408051918252519081900360200190f35b34801561047f57600080fd5b506104616004803603602081101561049657600080fd5b50356001600160a01b0316611050565b3480156104b257600080fd5b50610461611110565b3480156104c757600080fd5b50610461611116565b3480156104dc57600080fd5b506103e6600480360360608110156104f357600080fd5b506001600160a01b03813581169160208101359091169060400135611179565b34801561051f57600080fd5b5061040f6112b4565b34801561053457600080fd5b5061053d6112c3565b6040805160ff9092168252519081900360200190f35b34801561055f57600080fd5b506104616004803603602081101561057657600080fd5b50356112cc565b34801561058957600080fd5b50610461600480360360208110156105a057600080fd5b50356001600160a01b0316611388565b3480156105bc57600080fd5b5061046161143e565b3480156105d157600080fd5b50610461600480360360208110156105e857600080fd5b50356001600160a01b031661144d565b34801561060457600080fd5b506104616115b0565b34801561061957600080fd5b506104616004803603604081101561063057600080fd5b50803590602001356001600160a01b03166115b6565b61064e6115c2565b005b34801561065c57600080fd5b5061040f611607565b34801561067157600080fd5b506104616004803603602081101561068857600080fd5b5035611616565b34801561069b57600080fd5b506104616116b1565b3480156106b057600080fd5b50610461600480360360208110156106c757600080fd5b50356001600160a01b03166116b7565b3480156106e357600080fd5b506104616116d2565b3480156106f857600080fd5b506104336004803603602081101561070f57600080fd5b5035611788565b34801561072257600080fd5b506107406004803603602081101561073957600080fd5b503561179e565b60408051938452602084019290925282820152519081900360600190f35b34801561076a57600080fd5b506104616117b9565b34801561077f57600080fd5b506103386117bf565b34801561079457600080fd5b50610461600480360360208110156107ab57600080fd5b50356001600160a01b0316611817565b3480156107c757600080fd5b5061064e600480360360c08110156107de57600080fd5b6001600160a01b0382358116926020810135909116916040820135919081019060808101606082013564010000000081111561081957600080fd5b82018360208201111561082b57600080fd5b8035906020019184600183028401116401000000008311171561084d57600080fd5b91908080601f01602080910402602001604051908101604052809392919081815260200183838082843760009201919091525092959493602081019350359150506401000000008111156108a057600080fd5b8201836020820111156108b257600080fd5b803590602001918460018302840111640100000000831117156108d457600080fd5b91908080601f0160208091040260200160405190810160405280939291908181526020018383808284376000920191909152509295505050903560ff1691506118749050565b34801561092657600080fd5b50610461611a5b565b34801561093b57600080fd5b506103e66004803603604081101561095257600080fd5b506001600160a01b038135169060200135611dae565b34801561097457600080fd5b50610461611ee0565b61064e6004803603604081101561099357600080fd5b506001600160a01b0381358116916020013516611ee6565b3480156109b757600080fd5b50610461611f33565b3480156109cc57600080fd5b50610461611f39565b3480156109e157600080fd5b50610461600480360360608110156109f857600080fd5b506001600160a01b03813581169160208101359091169060400135611fd8565b348015610a2457600080fd5b5061046160048036036020811015610a3b57600080fd5b50356001600160a01b0316612049565b348015610a5757600080fd5b506104616120d5565b348015610a6c57600080fd5b506104616121db565b348015610a8157600080fd5b50610aa860048036036020811015610a9857600080fd5b50356001600160a01b0316612297565b604080519485526020850193909352838301919091526060830152519081900360800190f35b348015610ada57600080fd5b5061074060048036036020811015610af157600080fd5b503561232c565b348015610b0457600080fd5b5061046160048036036040811015610b1b57600080fd5b506001600160a01b038135811691602001351661233a565b61064e60048036036020811015610b4957600080fd5b50356001600160a01b0316612365565b348015610b6557600080fd5b506104616123b3565b348015610b7a57600080fd5b5061046160048036036020811015610b9157600080fd5b50356124b6565b348015610ba457600080fd5b5061046160048036036020811015610bbb57600080fd5b50356001600160a01b03166124f6565b348015610bd757600080fd5b5061040f612528565b348015610bec57600080fd5b5061040f612537565b348015610c0157600080fd5b5061046161254b565b348015610c1657600080fd5b5061046160048036036020811015610c2d57600080fd5b50356125af565b348015610c4057600080fd5b506103e661262d565b600080548190819060ff16610c92576040805162461bcd60e51b815260206004820152600a6024820152691c994b595b9d195c995960b21b604482015290519081900360640190fd5b6000805460ff19168155610ca4611a5b565b90508015610cd257610cc2816010811115610cbb57fe5b601e612632565b935060009250829150610ce49050565b610cdc3386612698565b935093509350505b6000805460ff191660011790559193909250565b81610d0257610ef4565b606081516005016040519080825280601f01601f191660200182016040528015610d33576020820181803883390190505b50905060005b8251811015610d8457828181518110610d4e57fe5b602001015160f81c60f81b828281518110610d6557fe5b60200101906001600160f81b031916908160001a905350600101610d39565b8151600160fd1b90839083908110610d9857fe5b60200101906001600160f81b031916908160001a905350602860f81b828260010181518110610dc357fe5b60200101906001600160f81b031916908160001a905350600a840460300160f81b828260020181518110610df357fe5b60200101906001600160f81b031916908160001a905350600a840660300160f81b828260030181518110610e2357fe5b60200101906001600160f81b031916908160001a905350602960f81b828260040181518110610e4e57fe5b60200101906001600160f81b031916908160001a905350818415610ef05760405162461bcd60e51b81526004018080602001828103825283818151815260200191508051906020019080838360005b83811015610eb5578181015183820152602001610e9d565b50505050905090810190601f168015610ee25780820380516001836020036101000a031916815260200191505b509250505060405180910390fd5b5050505b5050565b60018054604080516020600284861615610100026000190190941693909304601f81018490048402820184019092528181529291830182828015610f7d5780601f10610f5257610100808354040283529160200191610f7d565b820191906000526020600020905b815481529060010190602001808311610f6057829003601f168201915b505050505081565b3360008181526011602090815260408083206001600160a01b03871680855290835281842086905581518681529151939493909284927f8c5be1e5ebec7d5bd14f71427d1e84f3dd0314c0f7b2291e5b200ac8c7c3b925929081900390910190a35060019392505050565b6006546001600160a01b031681565b60008060008061100e34610c49565b9250509150611040826040518060400160405280600b81526020016a1b5a5b9d0819985a5b195960aa1b815250610cf8565b90925090505b9091565b60095481565b6000805460ff16611095576040805162461bcd60e51b815260206004820152600a6024820152691c994b595b9d195c995960b21b604482015290519081900360640190fd5b6000805460ff191681556110a7611a5b565b146110f2576040805162461bcd60e51b81526020600482015260166024820152751858d8dc9d59481a5b9d195c995cdd0819985a5b195960521b604482015290519081900360640190fd5b6110fb82611817565b90505b6000805460ff19166001179055919050565b600e5481565b6000806000611123612b8a565b9092509050600082600381111561113657fe5b146111725760405162461bcd60e51b815260040180806020018281038252603581526020018061592d6035913960400191505060405180910390fd5b9150505b90565b6000805460ff166111be576040805162461bcd60e51b815260206004820152600a6024820152691c994b595b9d195c995960b21b604482015290519081900360640190fd5b6000805460ff1916815560065460408051637df0f76760e01b815230600482015290516001600160a01b0390921691637df0f76791602480820192602092909190829003018186803b15801561121357600080fd5b505afa158015611227573d6000803e3d6000fd5b505050506040513d602081101561123d57600080fd5b50519050801561128e576001600160a01b038416301461128e5760405162461bcd60e51b815260040180806020018281038252602c81526020018061578f602c913960400191505060405180910390fd5b600061129c33878787612c35565b149150506000805460ff191660011790559392505050565b6004546001600160a01b031681565b60035460ff1681565b600033156112d957600080fd5b60006112e3611a5b565b90508015611309576113018160108111156112fa57fe5b6008612632565b915050611383565b6113116155ab565b61131d600c5485612f43565b604083018190528282600381111561133157fe5b600381111561133c57fe5b905250600090508151600381111561135057fe5b1461137a576113716009600b8360000151600381111561136c57fe5b612f6c565b92505050611383565b60400151600c55505b919050565b60006113926155cd565b60405180602001604052806113a56121db565b90526001600160a01b0384166000908152601060205260408120549192509081906113d1908490612fd2565b909250905060008260038111156113e457fe5b14611436576040805162461bcd60e51b815260206004820152601f60248201527f62616c616e636520636f756c64206e6f742062652063616c63756c6174656400604482015290519081900360640190fd5b949350505050565b6000611448613025565b905090565b60035460009061010090046001600160a01b0316331461147a576114736001603f612632565b9050611383565b60055460408051623f1ee960e11b815290516001600160a01b0392831692851691627e3dd2916004808301926020929190829003018186803b1580156114bf57600080fd5b505afa1580156114d3573d6000803e3d6000fd5b505050506040513d60208110156114e957600080fd5b505161153c576040805162461bcd60e51b815260206004820152601c60248201527f6d61726b6572206d6574686f642072657475726e65642066616c736500000000604482015290519081900360640190fd5b600580546001600160a01b038086166001600160a01b03199283168117909355600680549092168317909155604080519184168252602082019290925281517f7ac369dbd14fa5ea3f473ed67cc9d598964a77501540ba6751eb0b3decf5870d929181900390910190a160005b9392505050565b600c5481565b60006115a98383613051565b60006115cd346130ea565b50905061160481604051806040016040528060128152602001711c995c185e509bdc9c9bddc819985a5b195960721b815250610cf8565b50565b6005546001600160a01b031681565b6000805460ff1661165b576040805162461bcd60e51b815260206004820152600a6024820152691c994b595b9d195c995960b21b604482015290519081900360640190fd5b6000805460ff1916815561166d611a5b565b905080156116935761168b81601081111561168457fe5b6030612632565b9150506110fe565b61169c83613193565b9150506000805460ff19166001179055919050565b600a5481565b6001600160a01b031660009081526010602052604090205490565b6000805460ff16611717576040805162461bcd60e51b815260206004820152600a6024820152691c994b595b9d195c995960b21b604482015290519081900360640190fd5b6000805460ff19168155611729611a5b565b14611774576040805162461bcd60e51b81526020600482015260166024820152751858d8dc9d59481a5b9d195c995cdd0819985a5b195960521b604482015290519081900360640190fd5b50600c546000805460ff1916600117905590565b600080611794836132c6565b915091505b915091565b60008060006117ac84613339565b9250925092509193909250565b600d5481565b6002805460408051602060018416156101000260001901909316849004601f81018490048402820184019092528181529291830182828015610f7d5780601f10610f5257610100808354040283529160200191610f7d565b6000806000611825846133be565b9092509050600082600381111561183857fe5b146115a95760405162461bcd60e51b81526004018080602001828103825260378152602001806158386037913960400191505060405180910390fd5b60035461010090046001600160a01b031633146118c25760405162461bcd60e51b81526004018080602001828103825260248152602001806157486024913960400191505060405180910390fd5b600a541580156118d25750600b54155b61190d5760405162461bcd60e51b815260040180806020018281038252602381526020018061576c6023913960400191505060405180910390fd5b60088490558361194e5760405162461bcd60e51b81526004018080602001828103825260308152602001806157bb6030913960400191505060405180910390fd5b60006119598761144d565b905080156119ae576040805162461bcd60e51b815260206004820152601a60248201527f73657474696e6720636f6d7074726f6c6c6572206661696c6564000000000000604482015290519081900360640190fd5b6119b6613471565b600a55670de0b6b3a7640000600b556119ce86613475565b90508015611a0d5760405162461bcd60e51b81526004018080602001828103825260228152602001806157eb6022913960400191505060405180910390fd5b8351611a209060019060208701906155e0565b508251611a349060029060208601906155e0565b50506003805460ff90921660ff199283161790556000805490911660011790555050505050565b600080611a66613471565b600a5490915080821415611a7f57600092505050611176565b6000611a89613025565b600c54600d54600b54600754604080516315f2405360e01b815260048101879052602481018690526044810185905290519596509394929391926000926001600160a01b03909216916315f24053916064808301926020929190829003018186803b158015611af757600080fd5b505afa158015611b0b573d6000803e3d6000fd5b505050506040513d6020811015611b2157600080fd5b5051905065048c27395000811115611b80576040805162461bcd60e51b815260206004820152601c60248201527f626f72726f772072617465206973206162737572646c79206869676800000000604482015290519081900360640190fd5b600080611b8d89896135ea565b90925090506000826003811115611ba057fe5b14611bf2576040805162461bcd60e51b815260206004820152601f60248201527f636f756c64206e6f742063616c63756c61746520626c6f636b2064656c746100604482015290519081900360640190fd5b611bfa6155cd565b600080600080611c1860405180602001604052808a8152508761360d565b90975094506000876003811115611c2b57fe5b14611c5857611c436009600689600381111561136c57fe5b9e505050505050505050505050505050611176565b611c62858c612fd2565b90975093506000876003811115611c7557fe5b14611c8d57611c436009600189600381111561136c57fe5b611c97848c612f43565b90975092506000876003811115611caa57fe5b14611cc257611c436009600489600381111561136c57fe5b611cdd6040518060200160405280600954815250858c613675565b90975091506000876003811115611cf057fe5b14611d0857611c436009600589600381111561136c57fe5b611d13858a8b613675565b90975090506000876003811115611d2657fe5b14611d3e57611c436009600389600381111561136c57fe5b600a8e9055600b819055600c839055600d829055604080518d8152602081018690528082018390526060810185905290517f4dec04e750ca11537cabcd8a9eab06494de08da3735bc8871cd41250e190bc049181900360800190a160009e50505050505050505050505050505090565b6000805460ff16611df3576040805162461bcd60e51b815260206004820152600a6024820152691c994b595b9d195c995960b21b604482015290519081900360640190fd5b6000805460ff1916815560065460408051637df0f76760e01b815230600482015290516001600160a01b0390921691637df0f76791602480820192602092909190829003018186803b158015611e4857600080fd5b505afa158015611e5c573d6000803e3d6000fd5b505050506040513d6020811015611e7257600080fd5b505190508015611eba57333014611eba5760405162461bcd60e51b815260040180806020018281038252602c81526020018061578f602c913960400191505060405180910390fd5b6000611ec833338787612c35565b149150505b6000805460ff1916600117905592915050565b600b5481565b6000611ef38334846136d1565b509050611f2e81604051806040016040528060168152602001751b1a5c5d5a59185d19509bdc9c9bddc819985a5b195960521b815250610cf8565b505050565b600f5481565b6007546000906001600160a01b031663b8168816611f55613025565b600c54600d546009546040518563ffffffff1660e01b81526004018085815260200184815260200183815260200182815260200194505050505060206040518083038186803b158015611fa757600080fd5b505afa158015611fbb573d6000803e3d6000fd5b505050506040513d6020811015611fd157600080fd5b5051905090565b6000805460ff1661201d576040805162461bcd60e51b815260206004820152600a6024820152691c994b595b9d195c995960b21b604482015290519081900360640190fd5b6000805460ff1916905561203333858585613803565b90506000805460ff191660011790559392505050565b60035460009061010090046001600160a01b0316331461206f5761147360016045612632565b600480546001600160a01b038481166001600160a01b0319831681179093556040805191909216808252602082019390935281517fca4f2f25d0898edd99413412fb94012f9e54ec8142f9b093e7720646a95b16a9929181900390910190a160006115a9565b6000806120e0613025565b600c54600d54600754604080516315f2405360e01b81526004810186905260248101859052604481018490529051949550929391926000926001600160a01b03909216916315f2405391606480820192602092909190829003018186803b15801561214a57600080fd5b505afa15801561215e573d6000803e3d6000fd5b505050506040513d602081101561217457600080fd5b5051905065048c273950008111156121d3576040805162461bcd60e51b815260206004820152601c60248201527f626f72726f772072617465206973206162737572646c79206869676800000000604482015290519081900360640190fd5b935050505090565b6000805460ff16612220576040805162461bcd60e51b815260206004820152600a6024820152691c994b595b9d195c995960b21b604482015290519081900360640190fd5b6000805460ff19168155612232611a5b565b1461227d576040805162461bcd60e51b81526020600482015260166024820152751858d8dc9d59481a5b9d195c995cdd0819985a5b195960521b604482015290519081900360640190fd5b612285611116565b90506000805460ff1916600117905590565b6001600160a01b0381166000908152601060205260408120548190819081908180806122c2896133be565b9350905060008160038111156122d457fe5b146122f25760095b9750600096508695508594506123259350505050565b6122fa612b8a565b92509050600081600381111561230c57fe5b146123185760096122dc565b5060009650919450925090505b9193509193565b60008060006117ac84613a69565b6001600160a01b03918216600090815260116020908152604080832093909416825291909152205490565b60006123718234613ae7565b509050610ef4816040518060400160405280601881526020017f7265706179426f72726f77426568616c66206661696c65640000000000000000815250610cf8565b6004546000906001600160a01b0316331415806123ce575033155b156123e6576123df60016000612632565b9050611176565b60038054600480546001600160a01b03818116610100818102610100600160a81b0319871617968790556001600160a01b031990931690935560408051948390048216808652929095041660208401528351909391927ff9ffabca9c8276e99321725bcb43fb076a6c66a54b7f21c4e8146d8519b417dc92908290030190a1600454604080516001600160a01b038085168252909216602083015280517fca4f2f25d0898edd99413412fb94012f9e54ec8142f9b093e7720646a95b16a99281900390910190a160009250505090565b60008060006124c484613b92565b92505091506115a9826040518060400160405280600b81526020016a1b5a5b9d0819985a5b195960aa1b815250610cf8565b600080612501611a5b565b9050801561251f5761130181601081111561251857fe5b6040612632565b6115a983613475565b6007546001600160a01b031681565b60035461010090046001600160a01b031681565b6007546000906001600160a01b03166315f24053612567613025565b600c54600d546040518463ffffffff1660e01b815260040180848152602001838152602001828152602001935050505060206040518083038186803b158015611fa757600080fd5b6000805460ff166125f4576040805162461bcd60e51b815260206004820152600a6024820152691c994b595b9d195c995960b21b604482015290519081900360640190fd5b6000805460ff19168155612606611a5b565b905080156126245761168b81601081111561261d57fe5b6046612632565b61169c83613c0e565b600181565b60007f45b96fe442630264581b197e84bbada861235052c5a1aadfff9ea4e40a969aa083601081111561266157fe5b83605081111561266d57fe5b604080519283526020830191909152600082820152519081900360600190a18260108111156115a957fe5b60055460408051634ef4c3e160e01b81523060048201526001600160a01b0385811660248301526044820185905291516000938493849384939190921691634ef4c3e191606480830192602092919082900301818787803b1580156126fc57600080fd5b505af1158015612710573d6000803e3d6000fd5b505050506040513d602081101561272657600080fd5b50519050801561274d5761273d6003601f83612f6c565b935060009250829150612b839050565b612755613471565b600a54146127695761273d600a6022612632565b61277161565e565b612779612b8a565b604083018190526020830182600381111561279057fe5b600381111561279b57fe5b90525060009050816020015160038111156127b257fe5b146127df576127ce600960218360200151600381111561136c57fe5b945060009350839250612b83915050565b6127e98787613cb6565b60e082018190526040805160208101825290830151815261280a9190613d52565b606083018190526020830182600381111561282157fe5b600381111561282c57fe5b905250600090508160200151600381111561284357fe5b14612895576040805162461bcd60e51b815260206004820181905260248201527f4d494e545f45584348414e47455f43414c43554c4154494f4e5f4641494c4544604482015290519081900360640190fd5b6128a5600e548260600151612f43565b60808301819052602083018260038111156128bc57fe5b60038111156128c757fe5b90525060009050816020015160038111156128de57fe5b1461291a5760405162461bcd60e51b81526004018080602001828103825260288152602001806159626028913960400191505060405180910390fd5b6001600160a01b03871660009081526010602052604090205460608201516129429190612f43565b60c083018190526020830182600381111561295957fe5b600381111561296457fe5b905250600090508160200151600381111561297b57fe5b146129b75760405162461bcd60e51b815260040180806020018281038252602b81526020018061580d602b913960400191505060405180910390fd5b6080810151600e5560c08101516001600160a01b0388166000818152601060209081526040918290209390935560e084015160608086015183519485529484019190915282820193909352517f4c209b5fc8ad50758f13e2e1088ba56a560dff690a1c6fef26394f4c03821c4f929181900390910190a1606081015160408051918252516001600160a01b0389169130916000805160206158a98339815191529181900360200190a360055460e08201516060830151604080516341c728b960e01b81523060048201526001600160a01b038c81166024830152604482019490945260648101929092525191909216916341c728b991608480830192600092919082900301818387803b158015612acd57600080fd5b505af1158015612ae1573d6000803e3d6000fd5b505060055460608401516040805162b7516560e11b815260048101929092526001600160a01b038c811660248401529051600095509216925063016ea2ca91604480830192602092919082900301818787803b158015612b4057600080fd5b505af1158015612b54573d6000803e3d6000fd5b505050506040513d6020811015612b6a57600080fd5b50505060e0810151606090910151600095509093509150505b9250925092565b600e54600090819080612ba557505060085460009150611046565b6000612baf613025565b90506000612bbb6155cd565b6000612bcc84600c54600d54613d69565b935090506000816003811115612bde57fe5b14612bf3579550600094506110469350505050565b612bfd8386613da7565b925090506000816003811115612c0f57fe5b14612c24579550600094506110469350505050565b505160009550935061104692505050565b600554604080516317b9b84b60e31b81523060048201526001600160a01b03868116602483015285811660448301526064820185905291516000938493169163bdcdc25891608480830192602092919082900301818787803b158015612c9a57600080fd5b505af1158015612cae573d6000803e3d6000fd5b505050506040513d6020811015612cc457600080fd5b505190508015612ce357612cdb6003604a83612f6c565b915050611436565b836001600160a01b0316856001600160a01b03161415612d0957612cdb6002604b612632565b60006001600160a01b038781169087161415612d285750600019612d50565b506001600160a01b038086166000908152601160209081526040808320938a16835292905220545b600080600080612d6085896135ea565b90945092506000846003811115612d7357fe5b14612d9157612d846009604b612632565b9650505050505050611436565b6001600160a01b038a16600090815260106020526040902054612db490896135ea565b90945091506000846003811115612dc757fe5b14612dd857612d846009604c612632565b6001600160a01b038916600090815260106020526040902054612dfb9089612f43565b90945090506000846003811115612e0e57fe5b14612e1f57612d846009604d612632565b6001600160a01b03808b16600090815260106020526040808220859055918b168152208190556000198514612e77576001600160a01b03808b166000908152601160209081526040808320938f168352929052208390555b886001600160a01b03168a6001600160a01b03166000805160206158a98339815191528a6040518082815260200191505060405180910390a36005546040805163352b4a3f60e11b81523060048201526001600160a01b038d811660248301528c81166044830152606482018c905291519190921691636a56947e91608480830192600092919082900301818387803b158015612f1357600080fd5b505af1158015612f27573d6000803e3d6000fd5b5060009250612f34915050565b9b9a5050505050505050505050565b600080838301848110612f5b57600092509050612f65565b5060029150600090505b9250929050565b60007f45b96fe442630264581b197e84bbada861235052c5a1aadfff9ea4e40a969aa0846010811115612f9b57fe5b846050811115612fa757fe5b604080519283526020830191909152818101859052519081900360600190a183601081111561143657fe5b6000806000612fdf6155cd565b612fe9868661360d565b90925090506000826003811115612ffc57fe5b1461300d5750915060009050612f65565b600061301882613e57565b9350935050509250929050565b600080600061303447346135ea565b9092509050600082600381111561304757fe5b1461117257600080fd5b6000805460ff16613096576040805162461bcd60e51b815260206004820152600a6024820152691c994b595b9d195c995960b21b604482015290519081900360640190fd5b6000805460ff191681556130a8611a5b565b905080156130c7576130bf8160108111156112fa57fe5b915050611ecd565b826130d3338683613e66565b925050506000805460ff1916600117905592915050565b60008054819060ff16613131576040805162461bcd60e51b815260206004820152600a6024820152691c994b595b9d195c995960b21b604482015290519081900360640190fd5b6000805460ff19168155613143611a5b565b9050801561316e5761316181601081111561315a57fe5b6036612632565b92506000915061317f9050565b61317933338661418a565b92509250505b6000805460ff191660011790559092909150565b600354600090819061010090046001600160a01b031633146131bb5761130160016031612632565b6131c3613471565b600a54146131d757611301600a6033612632565b826131e0613025565b10156131f257611301600e6032612632565b600d548311156132085761130160026034612632565b50600d548281039081111561324e5760405162461bcd60e51b81526004018080602001828103825260248152602001806159be6024913960400191505060405180910390fd5b600d81905560035461326e9061010090046001600160a01b03168461456f565b600354604080516101009092046001600160a01b0316825260208201859052818101839052517f3bad0c59cf2f06e7314077049f48a93578cd16f5ef92329f1dab1420a99c177e916060908290030190a160006115a9565b60008054819060ff1661330d576040805162461bcd60e51b815260206004820152600a6024820152691c994b595b9d195c995960b21b604482015290519081900360640190fd5b6000805460ff1916905561332133846145a5565b915091506000805460ff191660011790559092909150565b600080548190819060ff16613382576040805162461bcd60e51b815260206004820152600a6024820152691c994b595b9d195c995960b21b604482015290519081900360640190fd5b6000805460ff19168155613394611a5b565b905080156133b257610cc28160108111156133ab57fe5b6027612632565b610cdc3360008761472d565b6001600160a01b0381166000908152601260205260408120805482918291829182916133f557506000945084935061179992505050565b6134058160000154600b54614c9c565b9094509250600084600381111561341857fe5b1461342d575091935060009250611799915050565b61343b838260010154614cdb565b9094509150600084600381111561344e57fe5b14613463575091935060009250611799915050565b506000945092505050915091565b4390565b600354600090819061010090046001600160a01b0316331461349d5761130160016042612632565b6134a5613471565b600a54146134b957611301600a6041612632565b600760009054906101000a90046001600160a01b03169050826001600160a01b0316632191f92a6040518163ffffffff1660e01b815260040160206040518083038186803b15801561350a57600080fd5b505afa15801561351e573d6000803e3d6000fd5b505050506040513d602081101561353457600080fd5b5051613587576040805162461bcd60e51b815260206004820152601c60248201527f6d61726b6572206d6574686f642072657475726e65642066616c736500000000604482015290519081900360640190fd5b600780546001600160a01b0319166001600160a01b03858116918217909255604080519284168352602083019190915280517fedffc32e068c7c95dfd4bdfd5c4d939a084d6b11c4199eac8436ed234d72f9269281900390910190a160006115a9565b600080838311613601575060009050818303612f65565b50600390506000612f65565b60006136176155cd565b600080613628866000015186614c9c565b9092509050600082600381111561363b57fe5b1461365a57506040805160208101909152600081529092509050612f65565b60408051602081019091529081526000969095509350505050565b60008060006136826155cd565b61368c878761360d565b9092509050600082600381111561369f57fe5b146136b057509150600090506136c9565b6136c26136bc82613e57565b86612f43565b9350935050505b935093915050565b60008054819060ff16613718576040805162461bcd60e51b815260206004820152600a6024820152691c994b595b9d195c995960b21b604482015290519081900360640190fd5b6000805460ff1916815561372a611a5b565b905080156137555761374881601081111561374157fe5b600f612632565b9250600091506137ec9050565b836001600160a01b031663a6afed956040518163ffffffff1660e01b8152600401602060405180830381600087803b15801561379057600080fd5b505af11580156137a4573d6000803e3d6000fd5b505050506040513d60208110156137ba57600080fd5b5051905080156137da576137488160108111156137d357fe5b6010612632565b6137e633878787614d06565b92509250505b6000805460ff191660011790559094909350915050565b6005546040805163d02f735160e01b81523060048201526001600160a01b038781166024830152868116604483015285811660648301526084820185905291516000938493169163d02f73519160a480830192602092919082900301818787803b15801561387057600080fd5b505af1158015613884573d6000803e3d6000fd5b505050506040513d602081101561389a57600080fd5b5051905080156138b157612cdb6003601b83612f6c565b846001600160a01b0316846001600160a01b031614156138d757612cdb6006601c612632565b6001600160a01b038416600090815260106020526040812054819081906138fe90876135ea565b9093509150600083600381111561391157fe5b14613934576139296009601a85600381111561136c57fe5b945050505050611436565b6001600160a01b0388166000908152601060205260409020546139579087612f43565b9093509050600083600381111561396a57fe5b14613982576139296009601985600381111561136c57fe5b6001600160a01b038088166000818152601060209081526040808320879055938c168083529184902085905583518a8152935191936000805160206158a9833981519152929081900390910190a360055460408051636d35bf9160e01b81523060048201526001600160a01b038c811660248301528b811660448301528a81166064830152608482018a905291519190921691636d35bf919160a480830192600092919082900301818387803b158015613a3b57600080fd5b505af1158015613a4f573d6000803e3d6000fd5b5060009250613a5c915050565b9998505050505050505050565b600080548190819060ff16613ab2576040805162461bcd60e51b815260206004820152600a6024820152691c994b595b9d195c995960b21b604482015290519081900360640190fd5b6000805460ff19168155613ac4611a5b565b90508015613adb57610cc28160108111156133ab57fe5b610cdc3386600061472d565b60008054819060ff16613b2e576040805162461bcd60e51b815260206004820152600a6024820152691c994b595b9d195c995960b21b604482015290519081900360640190fd5b6000805460ff19168155613b40611a5b565b90508015613b6b57613b5e816010811115613b5757fe5b6035612632565b925060009150613b7c9050565b613b7633868661418a565b92509250505b6000805460ff1916600117905590939092509050565b600080548190819060ff16613bdb576040805162461bcd60e51b815260206004820152600a6024820152691c994b595b9d195c995960b21b604482015290519081900360640190fd5b6000805460ff19168155613bed611a5b565b90508015613c0457610cc2816010811115610cbb57fe5b610cdc3386615289565b60035460009061010090046001600160a01b03163314613c345761147360016047612632565b613c3c613471565b600a5414613c5057611473600a6048612632565b670de0b6b3a7640000821115613c6c5761147360026049612632565b6009805490839055604080518281526020810185905281517faaa68312e2ea9d50e16af5068410ab56e1a1fd06037b1a35664812c30f821460929181900390910190a160006115a9565b6000336001600160a01b03841614613d07576040805162461bcd60e51b815260206004820152600f60248201526e0e6cadcc8cae440dad2e6dac2e8c6d608b1b604482015290519081900360640190fd5b813414613d4c576040805162461bcd60e51b815260206004820152600e60248201526d0ecc2d8eaca40dad2e6dac2e8c6d60931b604482015290519081900360640190fd5b50919050565b6000806000613d5f6155cd565b612fe9868661554c565b600080600080613d798787612f43565b90925090506000826003811115613d8c57fe5b14613d9d57509150600090506136c9565b6136c281866135ea565b6000613db16155cd565b600080613dc686670de0b6b3a7640000614c9c565b90925090506000826003811115613dd957fe5b14613df857506040805160208101909152600081529092509050612f65565b600080613e058388614cdb565b90925090506000826003811115613e1857fe5b14613e3a57506040805160208101909152600081529094509250612f65915050565b604080516020810190915290815260009890975095505050505050565b51670de0b6b3a7640000900490565b6005546040805163368f515360e21b81523060048201526001600160a01b0386811660248301526044820186905291516000938493169163da3d454c91606480830192602092919082900301818787803b158015613ec357600080fd5b505af1158015613ed7573d6000803e3d6000fd5b505050506040513d6020811015613eed57600080fd5b505190508015613f0c57613f046003600e83612f6c565b9150506115a9565b613f14613471565b600a5414613f2757613f04600a80612632565b83613f30613025565b1015613f4257613f04600e6009612632565b613f4a6156a4565b613f53866133be565b6040830181905282826003811115613f6757fe5b6003811115613f7257fe5b9052506000905081516003811115613f8657fe5b14613fab57613fa2600960078360000151600381111561136c57fe5b925050506115a9565b613fb9816040015186612f43565b6060830181905282826003811115613fcd57fe5b6003811115613fd857fe5b9052506000905081516003811115613fec57fe5b1461400857613fa26009600c8360000151600381111561136c57fe5b614014600c5486612f43565b608083018190528282600381111561402857fe5b600381111561403357fe5b905250600090508151600381111561404757fe5b1461406357613fa26009600b8360000151600381111561136c57fe5b6001600160a01b038416614075578593505b61407f848661456f565b606080820180516001600160a01b038916600081815260126020908152604091829020938455600b54600190940193909355608080870151600c819055945182519384529383018b9052828201939093529381019290925291517f13ed6866d4e1ee6da46f845c46d7e54120883d75c5ea9a2dacc1c4ca8984ab80929181900390910190a160055460408051635c77860560e01b81523060048201526001600160a01b0389811660248301526044820189905291519190921691635c77860591606480830192600092919082900301818387803b15801561415f57600080fd5b505af1158015614173573d6000803e3d6000fd5b5060009250614180915050565b9695505050505050565b60055460408051631200453160e11b81523060048201526001600160a01b0386811660248301528581166044830152606482018590529151600093849384939116916324008a629160848082019260209290919082900301818787803b1580156141f357600080fd5b505af1158015614207573d6000803e3d6000fd5b505050506040513d602081101561421d57600080fd5b505190508015614241576142346003603883612f6c565b9250600091506136c99050565b614249613471565b600a541461425d57614234600a6039612632565b61426561565e565b6001600160a01b038616600090815260126020526040902060010154606082015261428f866133be565b60808301819052602083018260038111156142a657fe5b60038111156142b157fe5b90525060009050816020015160038111156142c857fe5b146142f2576142e4600960378360200151600381111561136c57fe5b9350600092506136c9915050565b60001985141561430b5760808101516040820152614313565b604081018590525b614321878260400151613cb6565b60e082018190526080820151614336916135ea565b60a083018190526020830182600381111561434d57fe5b600381111561435857fe5b905250600090508160200151600381111561436f57fe5b146143ab5760405162461bcd60e51b815260040180806020018281038252603a81526020018061586f603a913960400191505060405180910390fd5b6143bb600c548260e001516135ea565b60c08301819052602083018260038111156143d257fe5b60038111156143dd57fe5b90525060009050816020015160038111156143f457fe5b146144305760405162461bcd60e51b81526004018080602001828103825260318152602001806158c96031913960400191505060405180910390fd5b60a080820180516001600160a01b03808a16600081815260126020908152604091829020948555600b5460019095019490945560c0870151600c81905560e088015195518251948f16855294840192909252828101949094526060820192909252608081019190915290517f1a2a22cb034d26d1854bdc6666a5b91fe25efbbb5dcad3b0355478d6f5c362a1929181900390910190a160055460e0820151606083015160408051631ededc9160e01b81523060048201526001600160a01b038c811660248301528b8116604483015260648201949094526084810192909252519190921691631ededc919160a480830192600092919082900301818387803b15801561453b57600080fd5b505af115801561454f573d6000803e3d6000fd5b506000925061455c915050565b8160e00151935093505050935093915050565b6040516001600160a01b0383169082156108fc029083906000818181858888f19350505050158015611f2e573d6000803e3d6000fd5b60008082156145fb576040805162461bcd60e51b815260206004820152601e60248201527f72656465656d546f6b656e73496e206d7573746e2774206265207a65726f0000604482015290519081900360640190fd5b6146036156d5565b60608101849052600f5461461790856135ea565b608083018190526020830182600381111561462e57fe5b600381111561463957fe5b905250600090508160200151600381111561465057fe5b146146795761466c6009602e8360200151600381111561136c57fe5b925060009150612f659050565b6001600160a01b03851660009081526010602052604090205460608201516146a191906135ea565b60c08301819052602083018260038111156146b857fe5b60038111156146c357fe5b90525060009050816020015160038111156146da57fe5b146146f65761466c6009602d8360200151600381111561136c57fe5b6080810151600f5560c08101516001600160a01b039590951660009081526010602052604081209590955560600151939492505050565b6000808084158061473c575083155b6147775760405162461bcd60e51b815260040180806020018281038252603481526020018061598a6034913960400191505060405180910390fd5b61477f61565e565b614787612b8a565b604083018190526020830182600381111561479e57fe5b60038111156147a957fe5b90525060009050816020015160038111156147c057fe5b146147ec576147dc6009602b8360200151600381111561136c57fe5b935060009250829150614c939050565b851561486d5760608101869052604080516020810182529082015181526148139087612fd2565b608083018190526020830182600381111561482a57fe5b600381111561483557fe5b905250600090508160200151600381111561484c57fe5b14614868576147dc600960298360200151600381111561136c57fe5b6148e6565b6148898560405180602001604052808460400151815250613d52565b60608301819052602083018260038111156148a057fe5b60038111156148ab57fe5b90525060009050816020015160038111156148c257fe5b146148de576147dc6009602a8360200151600381111561136c57fe5b608081018590525b60055460608201516040805163eabe7d9160e01b81523060048201526001600160a01b038b8116602483015260448201939093529051600093929092169163eabe7d919160648082019260209290919082900301818787803b15801561494b57600080fd5b505af115801561495f573d6000803e3d6000fd5b505050506040513d602081101561497557600080fd5b50519050801561499d5761498c6003602883612f6c565b945060009350839250614c93915050565b6149a5613471565b600a54146149b95761498c600a602c612632565b6149c9600e5483606001516135ea565b60a08401819052602084018260038111156149e057fe5b60038111156149eb57fe5b9052506000905082602001516003811115614a0257fe5b14614a1e5761498c6009602e8460200151600381111561136c57fe5b6001600160a01b0388166000908152601060205260409020546060830151614a4691906135ea565b60e0840181905260208401826003811115614a5d57fe5b6003811115614a6857fe5b9052506000905082602001516003811115614a7f57fe5b14614a9b5761498c6009602d8460200151600381111561136c57fe5b8160800151614aa8613025565b1015614aba5761498c600e602f612632565b614ac888836080015161456f565b60a0820151600e5560e08201516001600160a01b0389166000818152601060209081526040918290209390935560608501518151908152905130936000805160206158a9833981519152928290030190a36080820151606080840151604080516001600160a01b038d168152602081019490945283810191909152517fe5b754fb1abb7f01b499791d0b820ae3b6af3424ac1c59768edb53f4ec31a9299281900390910190a160055460808301516060840151604080516351dff98960e01b81523060048201526001600160a01b038d81166024830152604482019490945260648101929092525191909216916351dff98991608480830192600092919082900301818387803b158015614bdb57600080fd5b505af1158015614bef573d6000803e3d6000fd5b50506005546060850151604080516394021d7f60e01b815260048101929092526001600160a01b038d81166024840152905160009550921692506394021d7f91604480830192602092919082900301818787803b158015614c4f57600080fd5b505af1158015614c63573d6000803e3d6000fd5b505050506040513d6020811015614c7957600080fd5b505190506000836080015184606001519550955095505050505b93509350939050565b60008083614caf57506000905080612f65565b83830283858281614cbc57fe5b0414614cd057506002915060009050612f65565b600092509050612f65565b60008082614cef5750600190506000612f65565b6000838581614cfa57fe5b04915091509250929050565b60055460408051632fe3f38f60e11b81523060048201526001600160a01b0384811660248301528781166044830152868116606483015260848201869052915160009384938493911691635fc7e71e9160a48082019260209290919082900301818787803b158015614d7757600080fd5b505af1158015614d8b573d6000803e3d6000fd5b505050506040513d6020811015614da157600080fd5b505190508015614dc557614db86003601283612f6c565b9250600091506152809050565b614dcd613471565b600a5414614de157614db8600a6016612632565b614de9613471565b846001600160a01b0316636c540baf6040518163ffffffff1660e01b815260040160206040518083038186803b158015614e2257600080fd5b505afa158015614e36573d6000803e3d6000fd5b505050506040513d6020811015614e4c57600080fd5b505114614e5f57614db8600a6011612632565b866001600160a01b0316866001600160a01b03161415614e8557614db860066017612632565b84614e9657614db860076015612632565b600019851415614eac57614db860076014612632565b600080614eba89898961418a565b90925090508115614eea57614edb826010811115614ed457fe5b6018612632565b94506000935061528092505050565b6005546040805163c488847b60e01b81523060048201526001600160a01b038981166024830152604482018590528251600094859492169263c488847b926064808301939192829003018186803b158015614f4457600080fd5b505afa158015614f58573d6000803e3d6000fd5b505050506040513d6040811015614f6e57600080fd5b50805160209091015190925090508115614fb95760405162461bcd60e51b81526004018080602001828103825260338152602001806158fa6033913960400191505060405180910390fd5b80886001600160a01b03166370a082318c6040518263ffffffff1660e01b815260040180826001600160a01b03166001600160a01b0316815260200191505060206040518083038186803b15801561501057600080fd5b505afa158015615024573d6000803e3d6000fd5b505050506040513d602081101561503a57600080fd5b5051101561508f576040805162461bcd60e51b815260206004820152601860248201527f4c49515549444154455f5345495a455f544f4f5f4d5543480000000000000000604482015290519081900360640190fd5b60006001600160a01b0389163014156150b5576150ae308d8d85613803565b905061513f565b6040805163b2a02ff160e01b81526001600160a01b038e811660048301528d81166024830152604482018590529151918b169163b2a02ff1916064808201926020929091908290030181600087803b15801561511057600080fd5b505af1158015615124573d6000803e3d6000fd5b505050506040513d602081101561513a57600080fd5b505190505b8015615189576040805162461bcd60e51b81526020600482015260146024820152731d1bdad95b881cd95a5e9d5c994819985a5b195960621b604482015290519081900360640190fd5b604080516001600160a01b03808f168252808e1660208301528183018790528b1660608201526080810184905290517f298637f684da70674f26509b10f07ec2fbc77a335ab1e7d6215a4b2484d8bb529181900360a00190a1600554604080516347ef3b3b60e01b81523060048201526001600160a01b038c811660248301528f811660448301528e811660648301526084820188905260a48201869052915191909216916347ef3b3b9160c480830192600092919082900301818387803b15801561525457600080fd5b505af1158015615268573d6000803e3d6000fd5b5060009250615275915050565b975092955050505050505b94509492505050565b6000806000615296613471565b600a54146152b8576152aa600a6022612632565b925060009150819050612b83565b6152c0615713565b6152c8612b8a565b60408301819052602083018260038111156152df57fe5b60038111156152ea57fe5b905250600090508160200151600381111561530157fe5b1461531d5761273d600960218360200151600381111561136c57fe5b6153398560405180602001604052808460400151815250613d52565b606083018190526020830182600381111561535057fe5b600381111561535b57fe5b905250600090508160200151600381111561537257fe5b146153c4576040805162461bcd60e51b815260206004820181905260248201527f4d494e545f45584348414e47455f43414c43554c4154494f4e5f4641494c4544604482015290519081900360640190fd5b6153d4600f548260600151612f43565b60a08301819052602083018260038111156153eb57fe5b60038111156153f657fe5b905250600090508160200151600381111561540d57fe5b146154495760405162461bcd60e51b81526004018080602001828103825260288152602001806159626028913960400191505060405180910390fd5b6001600160a01b03861660009081526010602052604090205460608201516154719190612f43565b608083018190526020830182600381111561548857fe5b600381111561549357fe5b90525060009050816020015160038111156154aa57fe5b146154e65760405162461bcd60e51b815260040180806020018281038252602b81526020018061580d602b913960400191505060405180910390fd5b60a0810151600f5560808101516001600160a01b03871660008181526010602090815260409182902093909355606084015181519081529051919230926000805160206158a98339815191529281900390910190a3606001516000969495509392505050565b60006155566155cd565b60008061556b670de0b6b3a764000087614c9c565b9092509050600082600381111561557e57fe5b1461559d57506040805160208101909152600081529092509050612f65565b613018818660000151613da7565b6040805160608101909152806000815260200160008152602001600081525090565b6040518060200160405280600081525090565b828054600181600116156101000203166002900490600052602060002090601f016020900481019282601f1061562157805160ff191683800117855561564e565b8280016001018555821561564e579182015b8281111561564e578251825591602001919060010190615633565b5061565a92915061572d565b5090565b6040805161010081019091528060008152602001600081526020016000815260200160008152602001600081526020016000815260200160008152602001600081525090565b6040805160a081019091528060005b8152602001600081526020016000815260200160008152602001600081525090565b6040805160e0810190915280600081526020016000815260200160008152602001600081526020016000815260200160008152602001600081525090565b6040805160c08101909152806000815260200160006156b3565b61117691905b8082111561565a576000815560010161573356fe6f6e6c792061646d696e206d617920696e697469616c697a6520746865206d61726b65746d61726b6574206d6179206f6e6c7920626520696e697469616c697a6564206f6e6365557365727320617265206e6f7420616c6c6f77656420746f207472616e7366657220696e2070726976617465696e697469616c2065786368616e67652072617465206d7573742062652067726561746572207468616e207a65726f2e73657474696e6720696e7465726573742072617465206d6f64656c206661696c65644d494e545f4e45575f4143434f554e545f42414c414e43455f43414c43554c4154494f4e5f4641494c4544626f72726f7742616c616e636553746f7265643a20626f72726f7742616c616e636553746f726564496e7465726e616c206661696c656452455041595f424f52524f575f4e45575f4143434f554e545f424f52524f575f42414c414e43455f43414c43554c4154494f4e5f4641494c4544ddf252ad1be2c89b69c2b068fc378daa952ba7f163c4a11628f55a4df523b3ef52455041595f424f52524f575f4e45575f544f54414c5f42414c414e43455f43414c43554c4154494f4e5f4641494c45444c49515549444154455f434f4d5054524f4c4c45525f43414c43554c4154455f414d4f554e545f5345495a455f4641494c454465786368616e67655261746553746f7265643a2065786368616e67655261746553746f726564496e7465726e616c206661696c65644d494e545f4e45575f544f54414c5f535550504c595f43414c43554c4154494f4e5f4641494c45446f6e65206f662072656465656d546f6b656e73496e206f722072656465656d416d6f756e74496e206d757374206265207a65726f72656475636520726573657276657320756e657870656374656420756e646572666c6f77a265627a7a72315820f6e0aa07ce3583168f8ed0f888430ca72d92f0b25cd676bd72eb3d334366249764736f6c634300051000326f6e6c792061646d696e206d617920696e697469616c697a6520746865206d61726b65746d61726b6574206d6179206f6e6c7920626520696e697469616c697a6564206f6e6365696e697469616c2065786368616e67652072617465206d7573742062652067726561746572207468616e207a65726f2e73657474696e6720696e7465726573742072617465206d6f64656c206661696c6564",
  "linkReferences": {},
  "deployedLinkReferences": {}
}