{
  "address": "0xce1d1470e93C6c315a3ABfAdcEaa600E757c5d42",
  "abi": [
    {
      "inputs": [],
      "stateMutability": "nonpayable",
      "type": "constructor"
    },
    {
      "anonymous": false,
      "inputs": [
        {
          "indexed": false,
          "internalType": "string",
          "name": "action",
          "type": "string"
        },
        {
          "indexed": false,
          "internalType": "bool",
          "name": "pauseState",
          "type": "bool"
        }
      ],
      "name": "ActionPaused",
      "type": "event"
    },
    {
      "anonymous": false,
      "inputs": [
        {
          "indexed": false,
          "internalType": "contract CToken",
          "name": "cToken",
          "type": "address"
        },
        {
          "indexed": false,
          "internalType": "string",
          "name": "action",
          "type": "string"
        },
        {
          "indexed": false,
          "internalType": "bool",
          "name": "pauseState",
          "type": "bool"
        }
      ],
      "name": "ActionPaused",
      "type": "event"
    },
    {
      "anonymous": false,
      "inputs": [
        {
          "indexed": false,
          "internalType": "address",
          "name": "recipient",
          "type": "address"
        },
        {
          "indexed": false,
          "internalType": "uint256",
          "name": "amount",
          "type": "uint256"
        }
      ],
      "name": "CompGranted",
      "type": "event"
    },
    {
      "anonymous": false,
      "inputs": [
        {
          "indexed": true,
          "internalType": "contract CToken",
          "name": "cToken",
          "type": "address"
        },
        {
          "indexed": false,
          "internalType": "uint256",
          "name": "newSpeed",
          "type": "uint256"
        }
      ],
      "name": "CompSpeedUpdated",
      "type": "event"
    },
    {
      "anonymous": false,
      "inputs": [
        {
          "indexed": true,
          "internalType": "contract CToken",
          "name": "cToken",
          "type": "address"
        },
        {
          "indexed": true,
          "internalType": "address",
          "name": "borrower",
          "type": "address"
        },
        {
          "indexed": false,
          "internalType": "uint256",
          "name": "compDelta",
          "type": "uint256"
        },
        {
          "indexed": false,
          "internalType": "uint256",
          "name": "compBorrowIndex",
          "type": "uint256"
        }
      ],
      "name": "DistributedBorrowerComp",
      "type": "event"
    },
    {
      "anonymous": false,
      "inputs": [
        {
          "indexed": true,
          "internalType": "contract CToken",
          "name": "cToken",
          "type": "address"
        },
        {
          "indexed": true,
          "internalType": "address",
          "name": "supplier",
          "type": "address"
        },
        {
          "indexed": false,
          "internalType": "uint256",
          "name": "compDelta",
          "type": "uint256"
        },
        {
          "indexed": false,
          "internalType": "uint256",
          "name": "compSupplyIndex",
          "type": "uint256"
        }
      ],
      "name": "DistributedSupplierComp",
      "type": "event"
    },
    {
      "anonymous": false,
      "inputs": [
        {
          "indexed": false,
          "internalType": "uint256",
          "name": "error",
          "type": "uint256"
        },
        {
          "indexed": false,
          "internalType": "uint256",
          "name": "info",
          "type": "uint256"
        },
        {
          "indexed": false,
          "internalType": "uint256",
          "name": "detail",
          "type": "uint256"
        }
      ],
      "name": "Failure",
      "type": "event"
    },
    {
      "anonymous": false,
      "inputs": [
        {
          "indexed": false,
          "internalType": "contract CToken",
          "name": "cToken",
          "type": "address"
        },
        {
          "indexed": false,
          "internalType": "bool",
          "name": "isComped",
          "type": "bool"
        }
      ],
      "name": "MarketComped",
      "type": "event"
    },
    {
      "anonymous": false,
      "inputs": [
        {
          "indexed": false,
          "internalType": "contract CToken",
          "name": "cToken",
          "type": "address"
        },
        {
          "indexed": false,
          "internalType": "address",
          "name": "account",
          "type": "address"
        }
      ],
      "name": "MarketEntered",
      "type": "event"
    },
    {
      "anonymous": false,
      "inputs": [
        {
          "indexed": false,
          "internalType": "contract CToken",
          "name": "cToken",
          "type": "address"
        },
        {
          "indexed": false,
          "internalType": "address",
          "name": "account",
          "type": "address"
        }
      ],
      "name": "MarketExited",
      "type": "event"
    },
    {
      "anonymous": false,
      "inputs": [
        {
          "indexed": false,
          "internalType": "contract CToken",
          "name": "cToken",
          "type": "address"
        }
      ],
      "name": "MarketListed",
      "type": "event"
    },
    {
      "anonymous": false,
      "inputs": [
        {
          "indexed": true,
          "internalType": "contract CToken",
          "name": "cToken",
          "type": "address"
        },
        {
          "indexed": false,
          "internalType": "uint256",
          "name": "newBorrowCap",
          "type": "uint256"
        }
      ],
      "name": "NewBorrowCap",
      "type": "event"
    },
    {
      "anonymous": false,
      "inputs": [
        {
          "indexed": false,
          "internalType": "address",
          "name": "oldBorrowCapGuardian",
          "type": "address"
        },
        {
          "indexed": false,
          "internalType": "address",
          "name": "newBorrowCapGuardian",
          "type": "address"
        }
      ],
      "name": "NewBorrowCapGuardian",
      "type": "event"
    },
    {
      "anonymous": false,
      "inputs": [
        {
          "indexed": false,
          "internalType": "uint256",
          "name": "oldCloseFactorMantissa",
          "type": "uint256"
        },
        {
          "indexed": false,
          "internalType": "uint256",
          "name": "newCloseFactorMantissa",
          "type": "uint256"
        }
      ],
      "name": "NewCloseFactor",
      "type": "event"
    },
    {
      "anonymous": false,
      "inputs": [
        {
          "indexed": false,
          "internalType": "contract CToken",
          "name": "cToken",
          "type": "address"
        },
        {
          "indexed": false,
          "internalType": "uint256",
          "name": "oldCollateralFactorMantissa",
          "type": "uint256"
        },
        {
          "indexed": false,
          "internalType": "uint256",
          "name": "newCollateralFactorMantissa",
          "type": "uint256"
        }
      ],
      "name": "NewCollateralFactor",
      "type": "event"
    },
    {
      "anonymous": false,
      "inputs": [
        {
          "indexed": false,
          "internalType": "uint256",
          "name": "oldCompRate",
          "type": "uint256"
        },
        {
          "indexed": false,
          "internalType": "uint256",
          "name": "newCompRate",
          "type": "uint256"
        }
      ],
      "name": "NewCompRate",
      "type": "event"
    },
    {
      "anonymous": false,
      "inputs": [
        {
          "indexed": false,
          "internalType": "uint256",
          "name": "oldLiquidationIncentiveMantissa",
          "type": "uint256"
        },
        {
          "indexed": false,
          "internalType": "uint256",
          "name": "newLiquidationIncentiveMantissa",
          "type": "uint256"
        }
      ],
      "name": "NewLiquidationIncentive",
      "type": "event"
    },
    {
      "anonymous": false,
      "inputs": [
        {
          "indexed": false,
          "internalType": "address",
          "name": "oldPauseGuardian",
          "type": "address"
        },
        {
          "indexed": false,
          "internalType": "address",
          "name": "newPauseGuardian",
          "type": "address"
        }
      ],
      "name": "NewPauseGuardian",
      "type": "event"
    },
    {
      "anonymous": false,
      "inputs": [
        {
          "indexed": false,
          "internalType": "contract PriceOracle",
          "name": "oldPriceOracle",
          "type": "address"
        },
        {
          "indexed": false,
          "internalType": "contract PriceOracle",
          "name": "newPriceOracle",
          "type": "address"
        }
      ],
      "name": "NewPriceOracle",
      "type": "event"
    },
    {
      "inputs": [
        {
          "internalType": "address[]",
          "name": "cTokens",
          "type": "address[]"
        }
      ],
      "name": "_addCompMarkets",
      "outputs": [],
      "stateMutability": "nonpayable",
      "type": "function"
    },
    {
      "inputs": [
        {
          "internalType": "contract Unitroller",
          "name": "unitroller",
          "type": "address"
        }
      ],
      "name": "_become",
      "outputs": [],
      "stateMutability": "nonpayable",
      "type": "function"
    },
    {
      "inputs": [],
      "name": "_borrowGuardianPaused",
      "outputs": [
        {
          "internalType": "bool",
          "name": "",
          "type": "bool"
        }
      ],
      "stateMutability": "view",
      "type": "function"
    },
    {
      "inputs": [
        {
          "internalType": "address",
          "name": "cToken",
          "type": "address"
        }
      ],
      "name": "_dropCompMarket",
      "outputs": [],
      "stateMutability": "nonpayable",
      "type": "function"
    },
    {
      "inputs": [
        {
          "internalType": "address",
          "name": "recipient",
          "type": "address"
        },
        {
          "internalType": "uint256",
          "name": "amount",
          "type": "uint256"
        }
      ],
      "name": "_grantComp",
      "outputs": [],
      "stateMutability": "nonpayable",
      "type": "function"
    },
    {
      "inputs": [],
      "name": "_mintGuardianPaused",
      "outputs": [
        {
          "internalType": "bool",
          "name": "",
          "type": "bool"
        }
      ],
      "stateMutability": "view",
      "type": "function"
    },
    {
      "inputs": [
        {
          "internalType": "address",
          "name": "newBorrowCapGuardian",
          "type": "address"
        }
      ],
      "name": "_setBorrowCapGuardian",
      "outputs": [],
      "stateMutability": "nonpayable",
      "type": "function"
    },
    {
      "inputs": [
        {
          "internalType": "contract CToken",
          "name": "cToken",
          "type": "address"
        },
        {
          "internalType": "bool",
          "name": "state",
          "type": "bool"
        }
      ],
      "name": "_setBorrowPaused",
      "outputs": [
        {
          "internalType": "bool",
          "name": "",
          "type": "bool"
        }
      ],
      "stateMutability": "nonpayable",
      "type": "function"
    },
    {
      "inputs": [
        {
          "internalType": "uint256",
          "name": "newCloseFactorMantissa",
          "type": "uint256"
        }
      ],
      "name": "_setCloseFactor",
      "outputs": [
        {
          "internalType": "uint256",
          "name": "",
          "type": "uint256"
        }
      ],
      "stateMutability": "nonpayable",
      "type": "function"
    },
    {
      "inputs": [
        {
          "internalType": "contract CToken",
          "name": "cToken",
          "type": "address"
        },
        {
          "internalType": "uint256",
          "name": "newCollateralFactorMantissa",
          "type": "uint256"
        }
      ],
      "name": "_setCollateralFactor",
      "outputs": [
        {
          "internalType": "uint256",
          "name": "",
          "type": "uint256"
        }
      ],
      "stateMutability": "nonpayable",
      "type": "function"
    },
    {
      "inputs": [
        {
          "internalType": "uint256",
          "name": "compRate_",
          "type": "uint256"
        }
      ],
      "name": "_setCompRate",
      "outputs": [],
      "stateMutability": "nonpayable",
      "type": "function"
    },
    {
      "inputs": [
        {
          "internalType": "uint256",
          "name": "newLiquidationIncentiveMantissa",
          "type": "uint256"
        }
      ],
      "name": "_setLiquidationIncentive",
      "outputs": [
        {
          "internalType": "uint256",
          "name": "",
          "type": "uint256"
        }
      ],
      "stateMutability": "nonpayable",
      "type": "function"
    },
    {
      "inputs": [
        {
          "internalType": "contract CToken[]",
          "name": "cTokens",
          "type": "address[]"
        },
        {
          "internalType": "uint256[]",
          "name": "newBorrowCaps",
          "type": "uint256[]"
        }
      ],
      "name": "_setMarketBorrowCaps",
      "outputs": [],
      "stateMutability": "nonpayable",
      "type": "function"
    },
    {
      "inputs": [
        {
          "internalType": "contract CToken",
          "name": "cToken",
          "type": "address"
        },
        {
          "internalType": "bool",
          "name": "state",
          "type": "bool"
        }
      ],
      "name": "_setMintPaused",
      "outputs": [
        {
          "internalType": "bool",
          "name": "",
          "type": "bool"
        }
      ],
      "stateMutability": "nonpayable",
      "type": "function"
    },
    {
      "inputs": [
        {
          "internalType": "address",
          "name": "newPauseGuardian",
          "type": "address"
        }
      ],
      "name": "_setPauseGuardian",
      "outputs": [
        {
          "internalType": "uint256",
          "name": "",
          "type": "uint256"
        }
      ],
      "stateMutability": "nonpayable",
      "type": "function"
    },
    {
      "inputs": [
        {
          "internalType": "contract PriceOracle",
          "name": "newOracle",
          "type": "address"
        }
      ],
      "name": "_setPriceOracle",
      "outputs": [
        {
          "internalType": "uint256",
          "name": "",
          "type": "uint256"
        }
      ],
      "stateMutability": "nonpayable",
      "type": "function"
    },
    {
      "inputs": [
        {
          "internalType": "bool",
          "name": "state",
          "type": "bool"
        }
      ],
      "name": "_setSeizePaused",
      "outputs": [
        {
          "internalType": "bool",
          "name": "",
          "type": "bool"
        }
      ],
      "stateMutability": "nonpayable",
      "type": "function"
    },
    {
      "inputs": [
        {
          "internalType": "bool",
          "name": "state",
          "type": "bool"
        }
      ],
      "name": "_setTransferPaused",
      "outputs": [
        {
          "internalType": "bool",
          "name": "",
          "type": "bool"
        }
      ],
      "stateMutability": "nonpayable",
      "type": "function"
    },
    {
      "inputs": [
        {
          "internalType": "contract CToken",
          "name": "cToken",
          "type": "address"
        }
      ],
      "name": "_supportMarket",
      "outputs": [
        {
          "internalType": "uint256",
          "name": "",
          "type": "uint256"
        }
      ],
      "stateMutability": "nonpayable",
      "type": "function"
    },
    {
      "inputs": [
        {
          "internalType": "address",
          "name": "",
          "type": "address"
        },
        {
          "internalType": "uint256",
          "name": "",
          "type": "uint256"
        }
      ],
      "name": "accountAssets",
      "outputs": [
        {
          "internalType": "contract CToken",
          "name": "",
          "type": "address"
        }
      ],
      "stateMutability": "view",
      "type": "function"
    },
    {
      "inputs": [],
      "name": "admin",
      "outputs": [
        {
          "internalType": "address",
          "name": "",
          "type": "address"
        }
      ],
      "stateMutability": "view",
      "type": "function"
    },
    {
      "inputs": [
        {
          "internalType": "uint256",
          "name": "",
          "type": "uint256"
        }
      ],
      "name": "allMarkets",
      "outputs": [
        {
          "internalType": "contract CToken",
          "name": "",
          "type": "address"
        }
      ],
      "stateMutability": "view",
      "type": "function"
    },
    {
      "inputs": [
        {
          "internalType": "address",
          "name": "cToken",
          "type": "address"
        },
        {
          "internalType": "address",
          "name": "borrower",
          "type": "address"
        },
        {
          "internalType": "uint256",
          "name": "borrowAmount",
          "type": "uint256"
        }
      ],
      "name": "borrowAllowed",
      "outputs": [
        {
          "internalType": "uint256",
          "name": "",
          "type": "uint256"
        }
      ],
      "stateMutability": "nonpayable",
      "type": "function"
    },
    {
      "inputs": [],
      "name": "borrowCapGuardian",
      "outputs": [
        {
          "internalType": "address",
          "name": "",
          "type": "address"
        }
      ],
      "stateMutability": "view",
      "type": "function"
    },
    {
      "inputs": [
        {
          "internalType": "address",
          "name": "",
          "type": "address"
        }
      ],
      "name": "borrowCaps",
      "outputs": [
        {
          "internalType": "uint256",
          "name": "",
          "type": "uint256"
        }
      ],
      "stateMutability": "view",
      "type": "function"
    },
    {
      "inputs": [
        {
          "internalType": "address",
          "name": "",
          "type": "address"
        }
      ],
      "name": "borrowGuardianPaused",
      "outputs": [
        {
          "internalType": "bool",
          "name": "",
          "type": "bool"
        }
      ],
      "stateMutability": "view",
      "type": "function"
    },
    {
      "inputs": [
        {
          "internalType": "address",
          "name": "cToken",
          "type": "address"
        },
        {
          "internalType": "address",
          "name": "borrower",
          "type": "address"
        },
        {
          "internalType": "uint256",
          "name": "borrowAmount",
          "type": "uint256"
        }
      ],
      "name": "borrowVerify",
      "outputs": [],
      "stateMutability": "nonpayable",
      "type": "function"
    },
    {
      "inputs": [
        {
          "internalType": "address",
          "name": "account",
          "type": "address"
        },
        {
          "internalType": "contract CToken",
          "name": "cToken",
          "type": "address"
        }
      ],
      "name": "checkMembership",
      "outputs": [
        {
          "internalType": "bool",
          "name": "",
          "type": "bool"
        }
      ],
      "stateMutability": "view",
      "type": "function"
    },
    {
      "inputs": [
        {
          "internalType": "address",
          "name": "holder",
          "type": "address"
        },
        {
          "internalType": "contract CToken[]",
          "name": "cTokens",
          "type": "address[]"
        }
      ],
      "name": "claimComp",
      "outputs": [],
      "stateMutability": "nonpayable",
      "type": "function"
    },
    {
      "inputs": [
        {
          "internalType": "address[]",
          "name": "holders",
          "type": "address[]"
        },
        {
          "internalType": "contract CToken[]",
          "name": "cTokens",
          "type": "address[]"
        },
        {
          "internalType": "bool",
          "name": "borrowers",
          "type": "bool"
        },
        {
          "internalType": "bool",
          "name": "suppliers",
          "type": "bool"
        }
      ],
      "name": "claimComp",
      "outputs": [],
      "stateMutability": "nonpayable",
      "type": "function"
    },
    {
      "inputs": [
        {
          "internalType": "address",
          "name": "holder",
          "type": "address"
        }
      ],
      "name": "claimComp",
      "outputs": [],
      "stateMutability": "nonpayable",
      "type": "function"
    },
    {
      "inputs": [],
      "name": "closeFactorMantissa",
      "outputs": [
        {
          "internalType": "uint256",
          "name": "",
          "type": "uint256"
        }
      ],
      "stateMutability": "view",
      "type": "function"
    },
    {
      "inputs": [
        {
          "internalType": "address",
          "name": "",
          "type": "address"
        }
      ],
      "name": "compAccrued",
      "outputs": [
        {
          "internalType": "uint256",
          "name": "",
          "type": "uint256"
        }
      ],
      "stateMutability": "view",
      "type": "function"
    },
    {
      "inputs": [
        {
          "internalType": "address",
          "name": "",
          "type": "address"
        }
      ],
      "name": "compBorrowState",
      "outputs": [
        {
          "internalType": "uint224",
          "name": "index",
          "type": "uint224"
        },
        {
          "internalType": "uint32",
          "name": "block",
          "type": "uint32"
        }
      ],
      "stateMutability": "view",
      "type": "function"
    },
    {
      "inputs": [
        {
          "internalType": "address",
          "name": "",
          "type": "address"
        },
        {
          "internalType": "address",
          "name": "",
          "type": "address"
        }
      ],
      "name": "compBorrowerIndex",
      "outputs": [
        {
          "internalType": "uint256",
          "name": "",
          "type": "uint256"
        }
      ],
      "stateMutability": "view",
      "type": "function"
    },
    {
      "inputs": [],
      "name": "compClaimThreshold",
      "outputs": [
        {
          "internalType": "uint256",
          "name": "",
          "type": "uint256"
        }
      ],
      "stateMutability": "view",
      "type": "function"
    },
    {
      "inputs": [],
      "name": "compInitialIndex",
      "outputs": [
        {
          "internalType": "uint224",
          "name": "",
          "type": "uint224"
        }
      ],
      "stateMutability": "view",
      "type": "function"
    },
    {
      "inputs": [],
      "name": "compRate",
      "outputs": [
        {
          "internalType": "uint256",
          "name": "",
          "type": "uint256"
        }
      ],
      "stateMutability": "view",
      "type": "function"
    },
    {
      "inputs": [
        {
          "internalType": "address",
          "name": "",
          "type": "address"
        }
      ],
      "name": "compSpeeds",
      "outputs": [
        {
          "internalType": "uint256",
          "name": "",
          "type": "uint256"
        }
      ],
      "stateMutability": "view",
      "type": "function"
    },
    {
      "inputs": [
        {
          "internalType": "address",
          "name": "",
          "type": "address"
        },
        {
          "internalType": "address",
          "name": "",
          "type": "address"
        }
      ],
      "name": "compSupplierIndex",
      "outputs": [
        {
          "internalType": "uint256",
          "name": "",
          "type": "uint256"
        }
      ],
      "stateMutability": "view",
      "type": "function"
    },
    {
      "inputs": [
        {
          "internalType": "address",
          "name": "",
          "type": "address"
        }
      ],
      "name": "compSupplyState",
      "outputs": [
        {
          "internalType": "uint224",
          "name": "index",
          "type": "uint224"
        },
        {
          "internalType": "uint32",
          "name": "block",
          "type": "uint32"
        }
      ],
      "stateMutability": "view",
      "type": "function"
    },
    {
      "inputs": [],
      "name": "comptrollerImplementation",
      "outputs": [
        {
          "internalType": "address",
          "name": "",
          "type": "address"
        }
      ],
      "stateMutability": "view",
      "type": "function"
    },
    {
      "inputs": [
        {
          "internalType": "address[]",
          "name": "cTokens",
          "type": "address[]"
        }
      ],
      "name": "enterMarkets",
      "outputs": [
        {
          "internalType": "uint256[]",
          "name": "",
          "type": "uint256[]"
        }
      ],
      "stateMutability": "nonpayable",
      "type": "function"
    },
    {
      "inputs": [
        {
          "internalType": "address",
          "name": "cTokenAddress",
          "type": "address"
        }
      ],
      "name": "exitMarket",
      "outputs": [
        {
          "internalType": "uint256",
          "name": "",
          "type": "uint256"
        }
      ],
      "stateMutability": "nonpayable",
      "type": "function"
    },
    {
      "inputs": [
        {
          "internalType": "address",
          "name": "account",
          "type": "address"
        }
      ],
      "name": "getAccountLiquidity",
      "outputs": [
        {
          "internalType": "uint256",
          "name": "",
          "type": "uint256"
        },
        {
          "internalType": "uint256",
          "name": "",
          "type": "uint256"
        },
        {
          "internalType": "uint256",
          "name": "",
          "type": "uint256"
        }
      ],
      "stateMutability": "view",
      "type": "function"
    },
    {
      "inputs": [],
      "name": "getAllMarkets",
      "outputs": [
        {
          "internalType": "contract CToken[]",
          "name": "",
          "type": "address[]"
        }
      ],
      "stateMutability": "view",
      "type": "function"
    },
    {
      "inputs": [
        {
          "internalType": "address",
          "name": "account",
          "type": "address"
        }
      ],
      "name": "getAssetsIn",
      "outputs": [
        {
          "internalType": "contract CToken[]",
          "name": "",
          "type": "address[]"
        }
      ],
      "stateMutability": "view",
      "type": "function"
    },
    {
      "inputs": [],
      "name": "getBlockNumber",
      "outputs": [
        {
          "internalType": "uint256",
          "name": "",
          "type": "uint256"
        }
      ],
      "stateMutability": "view",
      "type": "function"
    },
    {
      "inputs": [
        {
          "internalType": "address",
          "name": "token",
          "type": "address"
        }
      ],
      "name": "getCTokenAddress",
      "outputs": [
        {
          "internalType": "address",
          "name": "",
          "type": "address"
        }
      ],
      "stateMutability": "pure",
      "type": "function"
    },
    {
      "inputs": [],
      "name": "getCompAddress",
      "outputs": [
        {
          "internalType": "address",
          "name": "",
          "type": "address"
        }
      ],
      "stateMutability": "pure",
      "type": "function"
    },
    {
      "inputs": [
        {
          "internalType": "address",
          "name": "account",
          "type": "address"
        },
        {
          "internalType": "address",
          "name": "cTokenModify",
          "type": "address"
        },
        {
          "internalType": "uint256",
          "name": "redeemTokens",
          "type": "uint256"
        },
        {
          "internalType": "uint256",
          "name": "borrowAmount",
          "type": "uint256"
        }
      ],
      "name": "getHypotheticalAccountLiquidity",
      "outputs": [
        {
          "internalType": "uint256",
          "name": "",
          "type": "uint256"
        },
        {
          "internalType": "uint256",
          "name": "",
          "type": "uint256"
        },
        {
          "internalType": "uint256",
          "name": "",
          "type": "uint256"
        }
      ],
      "stateMutability": "view",
      "type": "function"
    },
    {
      "inputs": [],
      "name": "isComptroller",
      "outputs": [
        {
          "internalType": "bool",
          "name": "",
          "type": "bool"
        }
      ],
      "stateMutability": "view",
      "type": "function"
    },
    {
      "inputs": [
        {
          "internalType": "address",
          "name": "cTokenBorrowed",
          "type": "address"
        },
        {
          "internalType": "address",
          "name": "cTokenCollateral",
          "type": "address"
        },
        {
          "internalType": "address",
          "name": "liquidator",
          "type": "address"
        },
        {
          "internalType": "address",
          "name": "borrower",
          "type": "address"
        },
        {
          "internalType": "uint256",
          "name": "repayAmount",
          "type": "uint256"
        }
      ],
      "name": "liquidateBorrowAllowed",
      "outputs": [
        {
          "internalType": "uint256",
          "name": "",
          "type": "uint256"
        }
      ],
      "stateMutability": "view",
      "type": "function"
    },
    {
      "inputs": [
        {
          "internalType": "address",
          "name": "cTokenBorrowed",
          "type": "address"
        },
        {
          "internalType": "address",
          "name": "cTokenCollateral",
          "type": "address"
        },
        {
          "internalType": "address",
          "name": "liquidator",
          "type": "address"
        },
        {
          "internalType": "address",
          "name": "borrower",
          "type": "address"
        },
        {
          "internalType": "uint256",
          "name": "actualRepayAmount",
          "type": "uint256"
        },
        {
          "internalType": "uint256",
          "name": "seizeTokens",
          "type": "uint256"
        }
      ],
      "name": "liquidateBorrowVerify",
      "outputs": [],
      "stateMutability": "nonpayable",
      "type": "function"
    },
    {
      "inputs": [
        {
          "internalType": "address",
          "name": "cTokenBorrowed",
          "type": "address"
        },
        {
          "internalType": "address",
          "name": "cTokenCollateral",
          "type": "address"
        },
        {
          "internalType": "uint256",
          "name": "actualRepayAmount",
          "type": "uint256"
        }
      ],
      "name": "liquidateCalculateSeizeTokens",
      "outputs": [
        {
          "internalType": "uint256",
          "name": "",
          "type": "uint256"
        },
        {
          "internalType": "uint256",
          "name": "",
          "type": "uint256"
        }
      ],
      "stateMutability": "view",
      "type": "function"
    },
    {
      "inputs": [],
      "name": "liquidationIncentiveMantissa",
      "outputs": [
        {
          "internalType": "uint256",
          "name": "",
          "type": "uint256"
        }
      ],
      "stateMutability": "view",
      "type": "function"
    },
    {
      "inputs": [
        {
          "internalType": "address",
          "name": "",
          "type": "address"
        }
      ],
      "name": "markets",
      "outputs": [
        {
          "internalType": "bool",
          "name": "isListed",
          "type": "bool"
        },
        {
          "internalType": "uint256",
          "name": "collateralFactorMantissa",
          "type": "uint256"
        },
        {
          "internalType": "bool",
          "name": "isComped",
          "type": "bool"
        }
      ],
      "stateMutability": "view",
      "type": "function"
    },
    {
      "inputs": [],
      "name": "maxAssets",
      "outputs": [
        {
          "internalType": "uint256",
          "name": "",
          "type": "uint256"
        }
      ],
      "stateMutability": "view",
      "type": "function"
    },
    {
      "inputs": [
        {
          "internalType": "address",
          "name": "cToken",
          "type": "address"
        },
        {
          "internalType": "address",
          "name": "minter",
          "type": "address"
        },
        {
          "internalType": "uint256",
          "name": "mintAmount",
          "type": "uint256"
        }
      ],
      "name": "mintAllowed",
      "outputs": [
        {
          "internalType": "uint256",
          "name": "",
          "type": "uint256"
        }
      ],
      "stateMutability": "nonpayable",
      "type": "function"
    },
    {
      "inputs": [
        {
          "internalType": "address",
          "name": "",
          "type": "address"
        }
      ],
      "name": "mintGuardianPaused",
      "outputs": [
        {
          "internalType": "bool",
          "name": "",
          "type": "bool"
        }
      ],
      "stateMutability": "view",
      "type": "function"
    },
    {
      "inputs": [
        {
          "internalType": "address",
          "name": "cToken",
          "type": "address"
        },
        {
          "internalType": "address",
          "name": "minter",
          "type": "address"
        },
        {
          "internalType": "uint256",
          "name": "actualMintAmount",
          "type": "uint256"
        },
        {
          "internalType": "uint256",
          "name": "mintTokens",
          "type": "uint256"
        }
      ],
      "name": "mintVerify",
      "outputs": [],
      "stateMutability": "nonpayable",
      "type": "function"
    },
    {
      "inputs": [],
      "name": "oracle",
      "outputs": [
        {
          "internalType": "contract PriceOracle",
          "name": "",
          "type": "address"
        }
      ],
      "stateMutability": "view",
      "type": "function"
    },
    {
      "inputs": [],
      "name": "pauseGuardian",
      "outputs": [
        {
          "internalType": "address",
          "name": "",
          "type": "address"
        }
      ],
      "stateMutability": "view",
      "type": "function"
    },
    {
      "inputs": [],
      "name": "pendingAdmin",
      "outputs": [
        {
          "internalType": "address",
          "name": "",
          "type": "address"
        }
      ],
      "stateMutability": "view",
      "type": "function"
    },
    {
      "inputs": [],
      "name": "pendingComptrollerImplementation",
      "outputs": [
        {
          "internalType": "address",
          "name": "",
          "type": "address"
        }
      ],
      "stateMutability": "view",
      "type": "function"
    },
    {
      "inputs": [
        {
          "internalType": "address",
          "name": "cToken",
          "type": "address"
        },
        {
          "internalType": "address",
          "name": "redeemer",
          "type": "address"
        },
        {
          "internalType": "uint256",
          "name": "redeemTokens",
          "type": "uint256"
        }
      ],
      "name": "redeemAllowed",
      "outputs": [
        {
          "internalType": "uint256",
          "name": "",
          "type": "uint256"
        }
      ],
      "stateMutability": "nonpayable",
      "type": "function"
    },
    {
      "inputs": [
        {
          "internalType": "address",
          "name": "cToken",
          "type": "address"
        },
        {
          "internalType": "address",
          "name": "redeemer",
          "type": "address"
        },
        {
          "internalType": "uint256",
          "name": "redeemAmount",
          "type": "uint256"
        },
        {
          "internalType": "uint256",
          "name": "redeemTokens",
          "type": "uint256"
        }
      ],
      "name": "redeemVerify",
      "outputs": [],
      "stateMutability": "pure",
      "type": "function"
    },
    {
      "inputs": [],
      "name": "refreshCompSpeeds",
      "outputs": [],
      "stateMutability": "nonpayable",
      "type": "function"
    },
    {
      "inputs": [
        {
          "internalType": "address",
          "name": "cToken",
          "type": "address"
        },
        {
          "internalType": "address",
          "name": "payer",
          "type": "address"
        },
        {
          "internalType": "address",
          "name": "borrower",
          "type": "address"
        },
        {
          "internalType": "uint256",
          "name": "repayAmount",
          "type": "uint256"
        }
      ],
      "name": "repayBorrowAllowed",
      "outputs": [
        {
          "internalType": "uint256",
          "name": "",
          "type": "uint256"
        }
      ],
      "stateMutability": "nonpayable",
      "type": "function"
    },
    {
      "inputs": [
        {
          "internalType": "address",
          "name": "cToken",
          "type": "address"
        },
        {
          "internalType": "address",
          "name": "payer",
          "type": "address"
        },
        {
          "internalType": "address",
          "name": "borrower",
          "type": "address"
        },
        {
          "internalType": "uint256",
          "name": "actualRepayAmount",
          "type": "uint256"
        },
        {
          "internalType": "uint256",
          "name": "borrowerIndex",
          "type": "uint256"
        }
      ],
      "name": "repayBorrowVerify",
      "outputs": [],
      "stateMutability": "nonpayable",
      "type": "function"
    },
    {
      "inputs": [
        {
          "internalType": "address",
          "name": "cTokenCollateral",
          "type": "address"
        },
        {
          "internalType": "address",
          "name": "cTokenBorrowed",
          "type": "address"
        },
        {
          "internalType": "address",
          "name": "liquidator",
          "type": "address"
        },
        {
          "internalType": "address",
          "name": "borrower",
          "type": "address"
        },
        {
          "internalType": "uint256",
          "name": "seizeTokens",
          "type": "uint256"
        }
      ],
      "name": "seizeAllowed",
      "outputs": [
        {
          "internalType": "uint256",
          "name": "",
          "type": "uint256"
        }
      ],
      "stateMutability": "nonpayable",
      "type": "function"
    },
    {
      "inputs": [],
      "name": "seizeGuardianPaused",
      "outputs": [
        {
          "internalType": "bool",
          "name": "",
          "type": "bool"
        }
      ],
      "stateMutability": "view",
      "type": "function"
    },
    {
      "inputs": [
        {
          "internalType": "address",
          "name": "cTokenCollateral",
          "type": "address"
        },
        {
          "internalType": "address",
          "name": "cTokenBorrowed",
          "type": "address"
        },
        {
          "internalType": "address",
          "name": "liquidator",
          "type": "address"
        },
        {
          "internalType": "address",
          "name": "borrower",
          "type": "address"
        },
        {
          "internalType": "uint256",
          "name": "seizeTokens",
          "type": "uint256"
        }
      ],
      "name": "seizeVerify",
      "outputs": [],
      "stateMutability": "nonpayable",
      "type": "function"
    },
    {
      "inputs": [
        {
          "internalType": "address",
          "name": "cToken",
          "type": "address"
        },
        {
          "internalType": "address",
          "name": "src",
          "type": "address"
        },
        {
          "internalType": "address",
          "name": "dst",
          "type": "address"
        },
        {
          "internalType": "uint256",
          "name": "transferTokens",
          "type": "uint256"
        }
      ],
      "name": "transferAllowed",
      "outputs": [
        {
          "internalType": "uint256",
          "name": "",
          "type": "uint256"
        }
      ],
      "stateMutability": "nonpayable",
      "type": "function"
    },
    {
      "inputs": [],
      "name": "transferGuardianPaused",
      "outputs": [
        {
          "internalType": "bool",
          "name": "",
          "type": "bool"
        }
      ],
      "stateMutability": "view",
      "type": "function"
    },
    {
      "inputs": [
        {
          "internalType": "address",
          "name": "cToken",
          "type": "address"
        },
        {
          "internalType": "address",
          "name": "src",
          "type": "address"
        },
        {
          "internalType": "address",
          "name": "dst",
          "type": "address"
        },
        {
          "internalType": "uint256",
          "name": "transferTokens",
          "type": "uint256"
        }
      ],
      "name": "transferVerify",
      "outputs": [],
      "stateMutability": "nonpayable",
      "type": "function"
    }
  ],
  "transactionHash": "0x140985fc6d2a38d63492b3b26e29d04bdaa11f86112a2dd091deb8b3d20d26b8",
  "args": [],
  "solcInputHash": "0a5eb2bbccf5154107dab249be8e3dbc",
  "bytecode": "0x608060405234801561001057600080fd5b50600080546001600160a01b03191633179055615d5780620000336000396000f3fe608060405234801561001057600080fd5b50600436106105135760003560e01c80636b79c38d116102a1578063b21be7fd1161016b578063da3d454c116100e3578063e875544611610097578063eabe7d911161007c578063eabe7d9114611344578063ede4edd01461137a578063f851a440146113a057610513565b8063e875544614611316578063e9af02921461131e57610513565b8063dcfbc0c7116100c8578063dcfbc0c7146112da578063e4028eee146112e2578063e6653f3d1461130e57610513565b8063da3d454c14611278578063dce15449146112ae57610513565b8063c488847b1161013a578063cc7ebdc41161011f578063cc7ebdc414611169578063ce485c5e1461118f578063d02f73511461123257610513565b8063c488847b146110ec578063ca0af0431461113b57610513565b8063b21be7fd14610fd7578063bb82aa5e14611005578063bdcdc2581461100d578063c29982381461104957610513565b80638ebf636411610219578063a7f0e231116101cd578063abfceffc116101b2578063abfceffc14610f51578063ac0b0bb714610fc7578063b0772d0b14610fcf57610513565b8063a7f0e23114610f25578063aa90075414610f4957610513565b806394b2294b116101fe57806394b2294b14610eef5780639d1b5a0a14610ef7578063a76b3fda14610eff57610513565b80638ebf636414610ea2578063929fe9a114610ec157610513565b8063747026c91161027057806387f763031161025557806387f7630314610e2c5780638c57804e14610e345780638e8f294b14610e5a57610513565b8063747026c914610e1c5780637dc0d1d014610e2457610513565b80636b79c38d14610d3c5780636d154ea514610d8a5780636d35bf9114610db0578063731f0c2b14610df657610513565b806342cbb15c116103e257806352d84d1e1161035a5780635fc7e71e1161030e5780636810dfa6116102f35780636810dfa614610bb35780636a49111214610ce35780636a56947e14610d0057610513565b80635fc7e71e14610aab578063607ef6c114610af157610513565b80635c7786051161033f5780635c77860514610a295780635ec88c7914610a5f5780635f5af1aa14610a8557610513565b806352d84d1e146109e657806355ee1fe114610a0357610513565b80634d8e5037116103b15780634ef4c3e1116103965780634ef4c3e1146109575780634fd42e171461098d57806351dff989146109aa57610513565b80634d8e5037146108f55780634e79238f146108fd57610513565b806342cbb15c1461087357806347ef3b3b1461087b5780634a584432146108c75780634ada90af146108ed57610513565b80632678224711610490578063391957d7116104445780633bcf7ec1116104295780633bcf7ec1146108015780633c94786f1461082f57806341c728b91461083757610513565b8063391957d7146107b55780633aa729b4146107db57610513565b806327efe3cb1161047557806327efe3cb1461074d5780632d70db7814610779578063317b0b771461079857610513565b8063267822471461071f57806326c7bd931461072757610513565b80631d7b33d7116104e757806321af4569116104cc57806321af4569146106b757806324008a62146106db57806324a3d6221461071757610513565b80631d7b33d71461063d5780631ededc911461067557610513565b80627e3dd21461051857806318c882a5146105345780631c3db2e0146105625780631d504dc614610617575b600080fd5b6105206113a8565b604080519115158252519081900360200190f35b6105206004803603604081101561054a57600080fd5b506001600160a01b03813516906020013515156113ad565b6106156004803603604081101561057857600080fd5b6001600160a01b0382351691908101906040810160208201356401000000008111156105a357600080fd5b8201836020820111156105b557600080fd5b803590602001918460208302840111640100000000831117156105d757600080fd5b91908080602002602001604051908101604052809392919081815260200183836020028082843760009201919091525092955061156b945050505050565b005b6106156004803603602081101561062d57600080fd5b50356001600160a01b03166115cd565b6106636004803603602081101561065357600080fd5b50356001600160a01b0316611734565b60408051918252519081900360200190f35b610615600480360360a081101561068b57600080fd5b506001600160a01b03813581169160208101358216916040820135169060608101359060800135611746565b6106bf61174d565b604080516001600160a01b039092168252519081900360200190f35b610663600480360360808110156106f157600080fd5b506001600160a01b0381358116916020810135821691604082013516906060013561175c565b6106bf61181f565b6106bf61182e565b6106bf6004803603602081101561073d57600080fd5b50356001600160a01b031661183d565b6106156004803603604081101561076357600080fd5b506001600160a01b038135169060200135611858565b6105206004803603602081101561078f57600080fd5b5035151561195b565b610663600480360360208110156107ae57600080fd5b5035611acb565b610615600480360360208110156107cb57600080fd5b50356001600160a01b0316611b78565b610615600480360360208110156107f157600080fd5b50356001600160a01b0316611c24565b6105206004803603604081101561081757600080fd5b506001600160a01b0381351690602001351515611d55565b610520611f10565b6106156004803603608081101561084d57600080fd5b506001600160a01b03813581169160208101359091169060408101359060600135611f31565b610663611f37565b610615600480360360c081101561089157600080fd5b506001600160a01b0381358116916020810135821691604082013581169160608101359091169060808101359060a00135611f3b565b610663600480360360208110156108dd57600080fd5b50356001600160a01b0316611f43565b610663611f55565b610615611f5b565b6109396004803603608081101561091357600080fd5b506001600160a01b03813581169160208101359091169060408101359060600135611fa3565b60408051938452602084019290925282820152519081900360600190f35b6106636004803603606081101561096d57600080fd5b506001600160a01b03813581169160208101359091169060400135611fdd565b610663600480360360208110156109a357600080fd5b5035612094565b610615600480360360808110156109c057600080fd5b506001600160a01b03813581169160208101359091169060408101359060600135612104565b6106bf600480360360208110156109fc57600080fd5b5035612164565b61066360048036036020811015610a1957600080fd5b50356001600160a01b031661218e565b61061560048036036060811015610a3f57600080fd5b506001600160a01b03813581169160208101359091169060400135612213565b61093960048036036020811015610a7557600080fd5b50356001600160a01b0316612218565b61066360048036036020811015610a9b57600080fd5b50356001600160a01b031661224d565b610663600480360360a0811015610ac157600080fd5b506001600160a01b03813581169160208101358216916040820135811691606081013590911690608001356122d1565b61061560048036036040811015610b0757600080fd5b810190602081018135640100000000811115610b2257600080fd5b820183602082011115610b3457600080fd5b80359060200191846020830284011164010000000083111715610b5657600080fd5b919390929091602081019035640100000000811115610b7457600080fd5b820183602082011115610b8657600080fd5b80359060200191846020830284011164010000000083111715610ba857600080fd5b50909250905061242d565b61061560048036036080811015610bc957600080fd5b810190602081018135640100000000811115610be457600080fd5b820183602082011115610bf657600080fd5b80359060200191846020830284011164010000000083111715610c1857600080fd5b9190808060200260200160405190810160405280939291908181526020018383602002808284376000920191909152509295949360208101935035915050640100000000811115610c6857600080fd5b820183602082011115610c7a57600080fd5b80359060200191846020830284011164010000000083111715610c9c57600080fd5b9190808060200260200160405190810160405280939291908181526020018383602002808284376000920191909152509295505050508035151591506020013515156125cd565b61061560048036036020811015610cf957600080fd5b5035612778565b61061560048036036080811015610d1657600080fd5b506001600160a01b03813581169160208101358216916040820135169060600135611f31565b610d6260048036036020811015610d5257600080fd5b50356001600160a01b031661281c565b604080516001600160e01b03909316835263ffffffff90911660208301528051918290030190f35b61052060048036036020811015610da057600080fd5b50356001600160a01b0316612846565b610615600480360360a0811015610dc657600080fd5b506001600160a01b0381358116916020810135821691604082013581169160608101359091169060800135611746565b61052060048036036020811015610e0c57600080fd5b50356001600160a01b031661285b565b610663612870565b6106bf61287b565b61052061288a565b610d6260048036036020811015610e4a57600080fd5b50356001600160a01b031661289a565b610e8060048036036020811015610e7057600080fd5b50356001600160a01b03166128c4565b6040805193151584526020840192909252151582820152519081900360600190f35b61052060048036036020811015610eb857600080fd5b503515156128ea565b61052060048036036040811015610ed757600080fd5b506001600160a01b0381358116916020013516612a5a565b610663612a8d565b6106bf612a93565b61066360048036036020811015610f1557600080fd5b50356001600160a01b0316612aab565b610f2d612be0565b604080516001600160e01b039092168252519081900360200190f35b610663612bf3565b610f7760048036036020811015610f6757600080fd5b50356001600160a01b0316612bf9565b60408051602080825283518183015283519192839290830191858101910280838360005b83811015610fb3578181015183820152602001610f9b565b505050509050019250505060405180910390f35b610520612c6f565b610f77612c7f565b61066360048036036040811015610fed57600080fd5b506001600160a01b0381358116916020013516612ce1565b6106bf612cfe565b6106636004803603608081101561102357600080fd5b506001600160a01b03813581169160208101358216916040820135169060600135612d0d565b610f776004803603602081101561105f57600080fd5b81019060208101813564010000000081111561107a57600080fd5b82018360208201111561108c57600080fd5b803590602001918460208302840111640100000000831117156110ae57600080fd5b919080806020026020016040519081016040528093929190818152602001838360200280828437600092019190915250929550612dac945050505050565b6111226004803603606081101561110257600080fd5b506001600160a01b03813581169160208101359091169060400135612e57565b6040805192835260208301919091528051918290030190f35b6106636004803603604081101561115157600080fd5b506001600160a01b038135811691602001351661308f565b6106636004803603602081101561117f57600080fd5b50356001600160a01b03166130ac565b610615600480360360208110156111a557600080fd5b8101906020810181356401000000008111156111c057600080fd5b8201836020820111156111d257600080fd5b803590602001918460208302840111640100000000831117156111f457600080fd5b9190808060200260200160405190810160405280939291908181526020018383602002808284376000920191909152509295506130be945050505050565b610663600480360360a081101561124857600080fd5b506001600160a01b0381358116916020810135821691604082013581169160608101359091169060800135613150565b6106636004803603606081101561128e57600080fd5b506001600160a01b0381358116916020810135909116906040013561332f565b6106bf600480360360408110156112c457600080fd5b506001600160a01b03813516906020013561372b565b6106bf613763565b610663600480360360408110156112f857600080fd5b506001600160a01b038135169060200135613772565b61052061391f565b610663613941565b6106156004803603602081101561133457600080fd5b50356001600160a01b0316613947565b6106636004803603606081101561135a57600080fd5b506001600160a01b038135811691602081013590911690604001356139ab565b6106636004803603602081101561139057600080fd5b50356001600160a01b03166139e8565b6106bf613d18565b600181565b6001600160a01b03821660009081526009602052604081205460ff166114045760405162461bcd60e51b8152600401808060200182810382526028815260200180615bfb6028913960400191505060405180910390fd5b600a546001600160a01b031633148061142757506000546001600160a01b031633145b6114625760405162461bcd60e51b8152600401808060200182810382526027815260200180615c546027913960400191505060405180910390fd5b6000546001600160a01b031633148061147d57506001821515145b6114ce576040805162461bcd60e51b815260206004820152601660248201527f6f6e6c792061646d696e2063616e20756e706175736500000000000000000000604482015290519081900360640190fd5b6001600160a01b0383166000818152600c6020908152604091829020805486151560ff19909116811790915582519384528383015260609083018190526006908301527f426f72726f7700000000000000000000000000000000000000000000000000006080830152517f71aec636243f9709bb0007ae15e9afb8150ab01716d75fd7573be5cc096e03b09181900360a00190a150805b92915050565b60408051600180825281830190925260009160208083019080368337019050509050828160008151811061159b57fe5b60200260200101906001600160a01b031690816001600160a01b0316815250506115c881836001806125cd565b505050565b806001600160a01b031663f851a4406040518163ffffffff1660e01b815260040160206040518083038186803b15801561160657600080fd5b505afa15801561161a573d6000803e3d6000fd5b505050506040513d602081101561163057600080fd5b50516001600160a01b031633146116785760405162461bcd60e51b8152600401808060200182810382526027815260200180615cfb6027913960400191505060405180910390fd5b806001600160a01b031663c1e803346040518163ffffffff1660e01b8152600401602060405180830381600087803b1580156116b357600080fd5b505af11580156116c7573d6000803e3d6000fd5b505050506040513d60208110156116dd57600080fd5b505115611731576040805162461bcd60e51b815260206004820152601560248201527f6368616e6765206e6f7420617574686f72697a65640000000000000000000000604482015290519081900360640190fd5b50565b600f6020526000908152604090205481565b5050505050565b6015546001600160a01b031681565b6001600160a01b03841660009081526009602052604081205460ff1661178457506009611817565b60006040518060200160405280876001600160a01b031663aa5af0fd6040518163ffffffff1660e01b815260040160206040518083038186803b1580156117ca57600080fd5b505afa1580156117de573d6000803e3d6000fd5b505050506040513d60208110156117f457600080fd5b5051905290506118048682613d27565b6118118685836000613fc8565b60009150505b949350505050565b600a546001600160a01b031681565b6001546001600160a01b031681565b738f67854497218043e1f72908ffe38d0ed7f247215b919050565b611860614185565b6118b1576040805162461bcd60e51b815260206004820152601860248201527f6f6e6c792061646d696e2063616e206772616e74204c48420000000000000000604482015290519081900360640190fd5b60006118bd83836141ae565b90508015611912576040805162461bcd60e51b815260206004820152601a60248201527f696e73756666696369656e74204c484220666f72206772616e74000000000000604482015290519081900360640190fd5b604080516001600160a01b03851681526020810184905281517f98b2f82a3a07f223a0be64b3d0f47711c64dccd1feafb94aa28156b38cd9695c929181900390910190a1505050565b600a546000906001600160a01b031633148061198157506000546001600160a01b031633145b6119bc5760405162461bcd60e51b8152600401808060200182810382526027815260200180615c546027913960400191505060405180910390fd5b6000546001600160a01b03163314806119d757506001821515145b611a28576040805162461bcd60e51b815260206004820152601660248201527f6f6e6c792061646d696e2063616e20756e706175736500000000000000000000604482015290519081900360640190fd5b600a8054831515600160b81b81027fffffffffffffffff00ffffffffffffffffffffffffffffffffffffffffffffff909216919091179091556040805160208101929092528082526005828201527f5365697a650000000000000000000000000000000000000000000000000000006060830152517fef159d9a32b2472e32b098f954f3ce62d232939f1c207070b584df1814de2de09181900360800190a15090565b600080546001600160a01b03163314611b2b576040805162461bcd60e51b815260206004820152601f60248201527f6f6e6c792061646d696e2063616e2073657420636c6f736520666163746f7200604482015290519081900360640190fd5b6005805490839055604080518281526020810185905281517f3b9670cf975d26958e754b57098eaa2ac914d8d2a31b83257997b9f346110fd9929181900390910190a160005b9392505050565b6000546001600160a01b03163314611bc15760405162461bcd60e51b8152600401808060200182810382526026815260200180615c7b6026913960400191505060405180910390fd5b601580546001600160a01b038381166001600160a01b0319831681179093556040805191909216808252602082019390935281517feda98690e518e9a05f8ec6837663e188211b2da8f4906648b323f2c1d4434e29929181900390910190a15050565b6000546001600160a01b03163314611c83576040805162461bcd60e51b815260206004820152601e60248201527f6f6e6c792061646d696e2063616e2064726f70204c4842206d61726b65740000604482015290519081900360640190fd5b6001600160a01b0381166000908152600960205260409020600381015460ff161515600114611cf9576040805162461bcd60e51b815260206004820152601a60248201527f6d61726b6574206973206e6f742061204c4842206d61726b6574000000000000604482015290519081900360640190fd5b60038101805460ff19169055604080516001600160a01b03841681526000602082015281517f93c1f3e36ed71139f466a4ce8c9751790e2e33f5afb2df0dcfb3aeabe55d5aa2929181900390910190a1611d516142d7565b5050565b6001600160a01b03821660009081526009602052604081205460ff16611dac5760405162461bcd60e51b8152600401808060200182810382526028815260200180615bfb6028913960400191505060405180910390fd5b600a546001600160a01b0316331480611dcf57506000546001600160a01b031633145b611e0a5760405162461bcd60e51b8152600401808060200182810382526027815260200180615c546027913960400191505060405180910390fd5b6000546001600160a01b0316331480611e2557506001821515145b611e76576040805162461bcd60e51b815260206004820152601660248201527f6f6e6c792061646d696e2063616e20756e706175736500000000000000000000604482015290519081900360640190fd5b6001600160a01b0383166000818152600b6020908152604091829020805486151560ff19909116811790915582519384528383015260609083018190526004908301527f4d696e74000000000000000000000000000000000000000000000000000000006080830152517f71aec636243f9709bb0007ae15e9afb8150ab01716d75fd7573be5cc096e03b09181900360a00190a150919050565b600a5474010000000000000000000000000000000000000000900460ff1681565b50505050565b4390565b505050505050565b60166020526000908152604090205481565b60065481565b333214611f995760405162461bcd60e51b8152600401808060200182810382526031815260200180615c236031913960400191505060405180910390fd5b611fa16142d7565b565b600080600080600080611fb88a8a8a8a6146b6565b925092509250826011811115611fca57fe5b95509093509150505b9450945094915050565b6001600160a01b0383166000908152600b602052604081205460ff161561204b576040805162461bcd60e51b815260206004820152600e60248201527f6d696e7420697320706175736564000000000000000000000000000000000000604482015290519081900360640190fd5b6001600160a01b03841660009081526009602052604090205460ff166120755760095b9050611b71565b61207e846149e0565b61208a84846000614c77565b6000949350505050565b600080546001600160a01b031633146120ba576120b36001600b614e42565b9050611853565b6006805490839055604080518281526020810185905281517faeba5a6c40a8ac138134bff1aaa65debf25971188a58804bad717f82f0ec1316929181900390910190a16000611b71565b801580156121125750600082115b15611f31576040805162461bcd60e51b815260206004820152601160248201527f72656465656d546f6b656e73207a65726f000000000000000000000000000000604482015290519081900360640190fd5b600d818154811061217457600080fd5b6000918252602090912001546001600160a01b0316905081565b600080546001600160a01b031633146121ad576120b360016010614e42565b600480546001600160a01b038481166001600160a01b0319831681179093556040805191909216808252602082019390935281517fd52b2b9b7e9ee655fcb95d2e5b9e0c9f69e7ef2b8e9d2d0ea78402d576d22e22929181900390910190a16000611b71565b6115c8565b60008060008060008061222f8760008060006146b6565b92509250925082601181111561224157fe5b97919650945092505050565b600080546001600160a01b0316331461226c576120b360016013614e42565b600a80546001600160a01b038481166001600160a01b0319831617928390556040805192821680845293909116602083015280517f0613b6ee6a04f0d09f390e4d9318894b9f6ac7fd83897cd8d18896ba579c401e9281900390910190a16000611b71565b6001600160a01b03851660009081526009602052604081205460ff16158061231257506001600160a01b03851660009081526009602052604090205460ff16155b156123215760095b9050612424565b60008061232d85614ea8565b9193509091506000905082601181111561234357fe5b1461235d5781601181111561235457fe5b92505050612424565b80612369576003612354565b6000886001600160a01b03166395dd9193876040518263ffffffff1660e01b815260040180826001600160a01b0316815260200191505060206040518083038186803b1580156123b857600080fd5b505afa1580156123cc573d6000803e3d6000fd5b505050506040513d60208110156123e257600080fd5b5051604080516020810190915260055481529091506000906124049083614ec8565b90508086111561241b576011945050505050612424565b60009450505050505b95945050505050565b6000546001600160a01b031633148061245057506015546001600160a01b031633145b61248b5760405162461bcd60e51b8152600401808060200182810382526035815260200180615ca16035913960400191505060405180910390fd5b8281811580159061249b57508082145b6124ec576040805162461bcd60e51b815260206004820152600d60248201527f696e76616c696420696e70757400000000000000000000000000000000000000604482015290519081900360640190fd5b60005b828110156125c45784848281811061250357fe5b905060200201356016600089898581811061251a57fe5b905060200201356001600160a01b03166001600160a01b03166001600160a01b031681526020019081526020016000208190555086868281811061255a57fe5b905060200201356001600160a01b03166001600160a01b03167f6f1951b2aad10f3fc81b86d91105b413a5b3f847a34bbc5ce1904201b14438f68686848181106125a057fe5b905060200201356040518082815260200191505060405180910390a26001016124ef565b50505050505050565b60005b83518110156117465760008482815181106125e757fe5b6020908102919091018101516001600160a01b0381166000908152600990925260409091205490915060ff16612664576040805162461bcd60e51b815260206004820152601560248201527f6d61726b6574206d757374206265206c69737465640000000000000000000000604482015290519081900360640190fd5b600184151514156127265760006040518060200160405280836001600160a01b031663aa5af0fd6040518163ffffffff1660e01b815260040160206040518083038186803b1580156126b557600080fd5b505afa1580156126c9573d6000803e3d6000fd5b505050506040513d60208110156126df57600080fd5b5051905290506126ef8282613d27565b60005b87518110156127235761271b8389838151811061270b57fe5b6020026020010151846001613fc8565b6001016126f2565b50505b6001831515141561276f5761273a816149e0565b60005b865181101561276d576127658288838151811061275657fe5b60200260200101516001614c77565b60010161273d565b505b506001016125d0565b612780614185565b6127d1576040805162461bcd60e51b815260206004820152601e60248201527f6f6e6c792061646d696e2063616e206368616e6765204c484220726174650000604482015290519081900360640190fd5b600e805490829055604080518281526020810184905281517fc227c9272633c3a307d9845bf2bc2509cefb20d655b5f3c1002d8e1e3f22c8b0929181900390910190a1611d516142d7565b6010602052600090815260409020546001600160e01b03811690600160e01b900463ffffffff1682565b600c6020526000908152604090205460ff1681565b600b6020526000908152604090205460ff1681565b66038d7ea4c6800081565b6004546001600160a01b031681565b600a54600160b01b900460ff1681565b6011602052600090815260409020546001600160e01b03811690600160e01b900463ffffffff1682565b60096020526000908152604090208054600182015460039092015460ff91821692911683565b600a546000906001600160a01b031633148061291057506000546001600160a01b031633145b61294b5760405162461bcd60e51b8152600401808060200182810382526027815260200180615c546027913960400191505060405180910390fd5b6000546001600160a01b031633148061296657506001821515145b6129b7576040805162461bcd60e51b815260206004820152601660248201527f6f6e6c792061646d696e2063616e20756e706175736500000000000000000000604482015290519081900360640190fd5b600a8054831515600160b01b81027fffffffffffffffffff00ffffffffffffffffffffffffffffffffffffffffffff909216919091179091556040805160208101929092528082526008828201527f5472616e736665720000000000000000000000000000000000000000000000006060830152517fef159d9a32b2472e32b098f954f3ce62d232939f1c207070b584df1814de2de09181900360800190a15090565b6001600160a01b038082166000908152600960209081526040808320938616835260029093019052205460ff1692915050565b60075481565b738f67854497218043e1f72908ffe38d0ed7f2472190565b600080546001600160a01b03163314612aca576120b360016012614e42565b6001600160a01b03821660009081526009602052604090205460ff1615612af7576120b3600a6011614e42565b816001600160a01b031663fe9c44ae6040518163ffffffff1660e01b815260040160206040518083038186803b158015612b3057600080fd5b505afa158015612b44573d6000803e3d6000fd5b505050506040513d6020811015612b5a57600080fd5b50506001600160a01b03821660009081526009602052604081208054600160ff1991821681178355600383018054909216909155810191909155612b9d83614ee0565b604080516001600160a01b038516815290517fcf583bb0c569eb967f806b11601c4cb93c10310485c67add5f8362c2f212321f9181900360200190a16000611b71565b6ec097ce7bc90715b34b9f100000000081565b600e5481565b6001600160a01b0381166000908152600860209081526040808320805482518185028101850190935280835260609493830182828015612c6257602002820191906000526020600020905b81546001600160a01b03168152600190910190602001808311612c44575b5093979650505050505050565b600a54600160b81b900460ff1681565b6060600d805480602002602001604051908101604052809291908181526020018280548015612cd757602002820191906000526020600020905b81546001600160a01b03168152600190910190602001808311612cb9575b5050505050905090565b601260209081526000928352604080842090915290825290205481565b6002546001600160a01b031681565b600a54600090600160b01b900460ff1615612d6f576040805162461bcd60e51b815260206004820152601260248201527f7472616e73666572206973207061757365640000000000000000000000000000604482015290519081900360640190fd5b6000612d7c868685614fc7565b90508015612d8b579050611817565b612d94866149e0565b612da086866000614c77565b61181186856000614c77565b805160609060008167ffffffffffffffff81118015612dca57600080fd5b50604051908082528060200260200182016040528015612df4578160200160208202803683370190505b50905060005b82811015612e4f576000858281518110612e1057fe5b60200260200101519050612e248133615073565b6011811115612e2f57fe5b838381518110612e3b57fe5b602090810291909101015250600101612dfa565b509392505050565b6000806000600460009054906101000a90046001600160a01b03166001600160a01b031663fc57d4df876040518263ffffffff1660e01b815260040180826001600160a01b0316815260200191505060206040518083038186803b158015612ebe57600080fd5b505afa158015612ed2573d6000803e3d6000fd5b505050506040513d6020811015612ee857600080fd5b5051600480546040805163fc57d4df60e01b81526001600160a01b038a8116948201949094529051939450600093929091169163fc57d4df91602480820192602092909190829003018186803b158015612f4157600080fd5b505afa158015612f55573d6000803e3d6000fd5b505050506040513d6020811015612f6b57600080fd5b50519050811580612f7a575080155b15612f8e57600d6000935093505050613087565b6000866001600160a01b031663182df0f56040518163ffffffff1660e01b815260040160206040518083038186803b158015612fc957600080fd5b505afa158015612fdd573d6000803e3d6000fd5b505050506040513d6020811015612ff357600080fd5b505190506000613001615b7d565b613009615b7d565b613011615b7d565b613039604051806020016040528060065481525060405180602001604052808a815250615169565b9250613061604051806020016040528088815250604051806020016040528088815250615169565b915061306d83836151a8565b9050613079818b614ec8565b600099509750505050505050505b935093915050565b601360209081526000928352604080842090915290825290205481565b60146020526000908152604090205481565b6130c6614185565b613117576040805162461bcd60e51b815260206004820152601d60248201527f6f6e6c792061646d696e2063616e20616464204c4842206d61726b6574000000604482015290519081900360640190fd5b60005b81518110156131475761313f82828151811061313257fe5b60200260200101516151e4565b60010161311a565b506117316142d7565b600a54600090600160b81b900460ff16156131b2576040805162461bcd60e51b815260206004820152600f60248201527f7365697a65206973207061757365640000000000000000000000000000000000604482015290519081900360640190fd5b6001600160a01b03861660009081526009602052604090205460ff1615806131f357506001600160a01b03851660009081526009602052604090205460ff16155b156131ff57600961231a565b846001600160a01b0316635fe3b5676040518163ffffffff1660e01b815260040160206040518083038186803b15801561323857600080fd5b505afa15801561324c573d6000803e3d6000fd5b505050506040513d602081101561326257600080fd5b5051604080517f5fe3b56700000000000000000000000000000000000000000000000000000000815290516001600160a01b0392831692891691635fe3b567916004808301926020929190829003018186803b1580156132c157600080fd5b505afa1580156132d5573d6000803e3d6000fd5b505050506040513d60208110156132eb57600080fd5b50516001600160a01b03161461330257600261231a565b61330b866149e0565b61331786846000614c77565b61332386856000614c77565b60009695505050505050565b6001600160a01b0383166000908152600c602052604081205460ff161561339d576040805162461bcd60e51b815260206004820152601060248201527f626f72726f772069732070617573656400000000000000000000000000000000604482015290519081900360640190fd5b6001600160a01b03841660009081526009602052604090205460ff166133c457600961206e565b6001600160a01b038085166000908152600960209081526040808320938716835260029093019052205460ff166134bc57336001600160a01b03851614613452576040805162461bcd60e51b815260206004820152601560248201527f73656e646572206d7573742062652063546f6b656e0000000000000000000000604482015290519081900360640190fd5b600061345e3385615073565b9050600081601181111561346e57fe5b146134875780601181111561347f57fe5b915050611b71565b6001600160a01b038086166000908152600960209081526040808320938816835260029093019052205460ff166134ba57fe5b505b600460009054906101000a90046001600160a01b03166001600160a01b031663fc57d4df856040518263ffffffff1660e01b815260040180826001600160a01b0316815260200191505060206040518083038186803b15801561351e57600080fd5b505afa158015613532573d6000803e3d6000fd5b505050506040513d602081101561354857600080fd5b505161355557600d61206e565b6001600160a01b0384166000908152601660205260409020548015613642576000856001600160a01b03166347bd37186040518163ffffffff1660e01b815260040160206040518083038186803b1580156135af57600080fd5b505afa1580156135c3573d6000803e3d6000fd5b505050506040513d60208110156135d957600080fd5b5051905060006135e98286615511565b905082811061363f576040805162461bcd60e51b815260206004820152601960248201527f6d61726b657420626f72726f7720636170207265616368656400000000000000604482015290519081900360640190fd5b50505b60008061365286886000886146b6565b9193509091506000905082601181111561366857fe5b146136835781601181111561367957fe5b9350505050611b71565b8015613690576004613679565b60006040518060200160405280896001600160a01b031663aa5af0fd6040518163ffffffff1660e01b815260040160206040518083038186803b1580156136d657600080fd5b505afa1580156136ea573d6000803e3d6000fd5b505050506040513d602081101561370057600080fd5b5051905290506137108882613d27565b61371d8888836000613fc8565b600098975050505050505050565b6008602052816000526040600020818154811061374757600080fd5b6000918252602090912001546001600160a01b03169150829050565b6003546001600160a01b031681565b600080546001600160a01b031633146137985761379160016006614e42565b9050611565565b6001600160a01b0383166000908152600960205260409020805460ff166137cd576137c560096007614e42565b915050611565565b60408051602080820183528582528251908101909252670c7d713b49da00008252906137f98183615553565b156138145761380a60066008614e42565b9350505050611565565b84158015906138ae5750600460009054906101000a90046001600160a01b03166001600160a01b031663fc57d4df876040518263ffffffff1660e01b815260040180826001600160a01b0316815260200191505060206040518083038186803b15801561388057600080fd5b505afa158015613894573d6000803e3d6000fd5b505050506040513d60208110156138aa57600080fd5b5051155b156138bf5761380a600d6009614e42565b60018301805490869055604080516001600160a01b03891681526020810183905280820188905290517f70483e6592cd5182d45ac970e05bc62cdcc90e9d8ef2c2dbe686cf383bcd7fc59181900360600190a16000979650505050505050565b600a547501000000000000000000000000000000000000000000900460ff1681565b60055481565b61173181600d8054806020026020016040519081016040528092919081815260200182805480156139a157602002820191906000526020600020905b81546001600160a01b03168152600190910190602001808311613983575b505050505061156b565b6000806139b9858585614fc7565b905080156139c8579050611b71565b6139d1856149e0565b6139dd85856000614c77565b600095945050505050565b6000808290506000806000836001600160a01b031663c37f68e2336040518263ffffffff1660e01b815260040180826001600160a01b0316815260200191505060806040518083038186803b158015613a4057600080fd5b505afa158015613a54573d6000803e3d6000fd5b505050506040513d6080811015613a6a57600080fd5b508051602082015160409092015190945090925090508215613abd5760405162461bcd60e51b8152600401808060200182810382526025815260200180615cd66025913960400191505060405180910390fd5b8015613ada57613acf600c6002614e42565b945050505050611853565b6000613ae7873385614fc7565b90508015613b0857613afc600e60038361555a565b95505050505050611853565b6001600160a01b0385166000908152600960209081526040808320338452600281019092529091205460ff16613b475760009650505050505050611853565b3360009081526002820160209081526040808320805460ff191690556008825280832080548251818502810185019093528083529192909190830182828015613bb957602002820191906000526020600020905b81546001600160a01b03168152600190910190602001808311613b9b575b5050835193945083925060009150505b82811015613c0e57896001600160a01b0316848281518110613be757fe5b60200260200101516001600160a01b03161415613c0657809150613c0e565b600101613bc9565b50818110613c1857fe5b336000908152600860205260409020805481906000198101908110613c3957fe5b9060005260206000200160009054906101000a90046001600160a01b0316818381548110613c6357fe5b9060005260206000200160006101000a8154816001600160a01b0302191690836001600160a01b0316021790555080805480613c9b57fe5b6000828152602090819020820160001990810180546001600160a01b0319169055909101909155604080516001600160a01b038d168152339281019290925280517fe699a64c18b07ac5b7301aa273f36a2287239eb9501d81950672794afba29a0d9281900390910190a160009c9b505050505050505050505050565b6000546001600160a01b031681565b6001600160a01b0382166000908152601160209081526040808320600f9092528220549091613d54611f37565b8354909150600090613d74908390600160e01b900463ffffffff166155c0565b9050600081118015613d865750600083115b15613f5c576000613dfb876001600160a01b03166347bd37186040518163ffffffff1660e01b815260040160206040518083038186803b158015613dc957600080fd5b505afa158015613ddd573d6000803e3d6000fd5b505050506040513d6020811015613df357600080fd5b505187615602565b90506000613e098386615620565b90506000808311613e295760405180602001604052806000815250613e33565b613e338284615662565b604080516020810190915288546001600160e01b03168152909150600090613e5b9083615697565b90506040518060400160405280613eab83600001516040518060400160405280601a81526020017f6e657720696e64657820657863656564732032323420626974730000000000008152506156bc565b6001600160e01b03168152602001613ef8886040518060400160405280601c81526020017f626c6f636b206e756d6265722065786365656473203332206269747300000000815250615756565b63ffffffff9081169091526001600160a01b038c166000908152601160209081526040909120835181549490920151909216600160e01b026001600160e01b039182166001600160e01b0319909416939093171691909117905550611f3b92505050565b8015611f3b57613fa1826040518060400160405280601c81526020017f626c6f636b206e756d6265722065786365656473203332206269747300000000815250615756565b845463ffffffff91909116600160e01b026001600160e01b03909116178455505050505050565b6001600160a01b0380851660008181526011602090815260408083208151808401835281546001600160e01b031681528251808501845295855260138452828520968a168086528785529285208054875281519390955295909252909155815190929190156125c457600061403d83836157ac565b905060006140c3896001600160a01b03166395dd91938a6040518263ffffffff1660e01b815260040180826001600160a01b0316815260200191505060206040518083038186803b15801561409157600080fd5b505afa1580156140a5573d6000803e3d6000fd5b505050506040513d60208110156140bb57600080fd5b505188615602565b905060006140d182846157d1565b6001600160a01b038a16600090815260146020526040812054919250906140f89083615511565b90506141198a828a6141115766038d7ea4c68000614114565b60005b615800565b6001600160a01b03808c1660008181526014602090815260409182902094909455895181518781529485015280519193928f16927f1fc3ecc087d8d2d15e23d0032af5a47059c3892d003d8e139fdcb6bb327c99a6929081900390910190a35050505050505050505050565b600080546001600160a01b03163314806141a957506002546001600160a01b031633145b905090565b6000806141b9612a93565b90506000816001600160a01b03166370a08231306040518263ffffffff1660e01b815260040180826001600160a01b0316815260200191505060206040518083038186803b15801561420a57600080fd5b505afa15801561421e573d6000803e3d6000fd5b505050506040513d602081101561423457600080fd5b505190508084116142ce57816001600160a01b031663a9059cbb86866040518363ffffffff1660e01b815260040180836001600160a01b0316815260200182815260200192505050602060405180830381600087803b15801561429657600080fd5b505af11580156142aa573d6000803e3d6000fd5b505050506040513d60208110156142c057600080fd5b506000935061156592505050565b50919392505050565b6000600d80548060200260200160405190810160405280929190818152602001828054801561432f57602002820191906000526020600020905b81546001600160a01b03168152600190910190602001808311614311575b5050505050905060005b81518110156143ed57600082828151811061435057fe5b6020026020010151905060006040518060200160405280836001600160a01b031663aa5af0fd6040518163ffffffff1660e01b815260040160206040518083038186803b1580156143a057600080fd5b505afa1580156143b4573d6000803e3d6000fd5b505050506040513d60208110156143ca57600080fd5b5051905290506143d9826149e0565b6143e38282613d27565b5050600101614339565b5060408051602081019091526000808252825167ffffffffffffffff8111801561441657600080fd5b5060405190808252806020026020018201604052801561445057816020015b61443d615b7d565b8152602001906001900390816144355790505b50905060005b83518110156145ed57600084828151811061446d57fe5b6020908102919091018101516001600160a01b0381166000908152600990925260409091206003015490915060ff16156145e45760408051602080820180845260045463fc57d4df60e01b9091526001600160a01b0385811660248501529351600094849392169163fc57d4df916044808601929190818703018186803b1580156144f757600080fd5b505afa15801561450b573d6000803e3d6000fd5b505050506040513d602081101561452157600080fd5b50519052604080517f47bd371800000000000000000000000000000000000000000000000000000000815290519192506000916145bb9184916001600160a01b038716916347bd3718916004808301926020929190829003018186803b15801561458a57600080fd5b505afa15801561459e573d6000803e3d6000fd5b505050506040513d60208110156145b457600080fd5b5051615941565b9050808585815181106145ca57fe5b60200260200101819052506145df8682615697565b955050505b50600101614456565b5060005b8351811015611f31576000600d828154811061460957fe5b600091825260208220015485516001600160a01b03909116925061462e576000614656565b614656600e5461465186868151811061464357fe5b6020026020010151886151a8565b615962565b6001600160a01b0383166000818152600f60209081526040918290208490558151848152915193945091927f2ab93f65628379309f36cb125e90d7c902454a545c4f8b8cb0794af75c24b807929181900390910190a250506001016145f1565b60008060006146c3615b90565b6001600160a01b03881660009081526008602090815260408083208054825181850281018501909352808352849383018282801561472a57602002820191906000526020600020905b81546001600160a01b0316815260019091019060200180831161470c575b5050505050905060005b81518110156149a157600082828151811061474b57fe5b60200260200101519050806001600160a01b031663c37f68e28d6040518263ffffffff1660e01b815260040180826001600160a01b0316815260200191505060806040518083038186803b1580156147a257600080fd5b505afa1580156147b6573d6000803e3d6000fd5b505050506040513d60808110156147cc57600080fd5b508051602082015160408084015160609485015160808b015293890193909352918701919091529350831561481057600f6000809750975097505050505050611fd3565b60408051602080820183526001600160a01b0380851660008181526009845285902060010154845260c08a01939093528351808301855260808a0151815260e08a015260048054855163fc57d4df60e01b815291820194909452935192169263fc57d4df9260248083019392829003018186803b15801561489057600080fd5b505afa1580156148a4573d6000803e3d6000fd5b505050506040513d60208110156148ba57600080fd5b505160a086018190526148dc57600d6000809750975097505050505050611fd3565b604080516020810190915260a0860151815261010086015260c085015160e08601516149169161490b91615169565b866101000151615169565b61012086018190526040860151865161493092919061597b565b85526101008501516060860151602087015161494d92919061597b565b60208601526001600160a01b03818116908c1614156149985761497a8561012001518b876020015161597b565b60208601819052610100860151614992918b9061597b565b60208601525b50600101614734565b506020830151835111156149c75750506020810151905160009450039150829050611fd3565b5050805160209091015160009450849350039050611fd3565b6001600160a01b0381166000908152601060209081526040808320600f9092528220549091614a0d611f37565b8354909150600090614a2d908390600160e01b900463ffffffff166155c0565b9050600081118015614a3f5750600083115b15614c0c576000856001600160a01b03166318160ddd6040518163ffffffff1660e01b815260040160206040518083038186803b158015614a7f57600080fd5b505afa158015614a93573d6000803e3d6000fd5b505050506040513d6020811015614aa957600080fd5b505190506000614ab98386615620565b90506000808311614ad95760405180602001604052806000815250614ae3565b614ae38284615662565b604080516020810190915288546001600160e01b03168152909150600090614b0b9083615697565b90506040518060400160405280614b5b83600001516040518060400160405280601a81526020017f6e657720696e64657820657863656564732032323420626974730000000000008152506156bc565b6001600160e01b03168152602001614ba8886040518060400160405280601c81526020017f626c6f636b206e756d6265722065786365656473203332206269747300000000815250615756565b63ffffffff9081169091526001600160a01b038b166000908152601060209081526040909120835181549490920151909216600160e01b026001600160e01b039182166001600160e01b031990941693909317169190911790555061174692505050565b801561174657614c51826040518060400160405280601c81526020017f626c6f636b206e756d6265722065786365656473203332206269747300000000815250615756565b845463ffffffff91909116600160e01b026001600160e01b039091161784555050505050565b6001600160a01b0380841660008181526010602090815260408083208151808401835281546001600160e01b0316815282518085018452958552601284528285209689168086528785529285208054875281519390955295909252909155815190929190158015614ce85750815115155b15614d00576ec097ce7bc90715b34b9f100000000081525b6000614d0c83836157ac565b90506000876001600160a01b03166370a08231886040518263ffffffff1660e01b815260040180826001600160a01b0316815260200191505060206040518083038186803b158015614d5d57600080fd5b505afa158015614d71573d6000803e3d6000fd5b505050506040513d6020811015614d8757600080fd5b505190506000614d9782846157d1565b6001600160a01b03891660009081526014602052604081205491925090614dbe9083615511565b9050614dd789828a6141115766038d7ea4c68000614114565b6001600160a01b03808b1660008181526014602090815260409182902094909455895181518781529485015280519193928e16927f2caecd17d02f56fa897705dcc740da2d237c373f70686f4e0d9bd3bf0400ea7a929081900390910190a350505050505050505050565b60007f45b96fe442630264581b197e84bbada861235052c5a1aadfff9ea4e40a969aa0836011811115614e7157fe5b836013811115614e7d57fe5b604080519283526020830191909152600082820152519081900360600190a1826011811115611b7157fe5b6000806000614ebb8460008060006146b6565b9250925092509193909250565b600080614ed58484615941565b90506118178161599c565b60005b600d54811015614f7457816001600160a01b0316600d8281548110614f0457fe5b6000918252602090912001546001600160a01b03161415614f6c576040805162461bcd60e51b815260206004820152601460248201527f6d61726b657420616c7265616479206164646564000000000000000000000000604482015290519081900360640190fd5b600101614ee3565b50600d80546001810182556000919091527fd7b6990105719101dabeb77144f2a3385c8033acd3af97e9423a695e81ad1eb50180546001600160a01b0319166001600160a01b0392909216919091179055565b6001600160a01b03831660009081526009602052604081205460ff16614fee57600961206e565b6001600160a01b038085166000908152600960209081526040808320938716835260029093019052205460ff1661502657600061206e565b60008061503685878660006146b6565b9193509091506000905082601181111561504c57fe5b146150665781601181111561505d57fe5b92505050611b71565b801561332357600461505d565b6001600160a01b0382166000908152600960205260408120805460ff1661509e576009915050611565565b6001600160a01b038316600090815260028201602052604090205460ff161515600114156150d0576000915050611565565b6001600160a01b0380841660008181526002840160209081526040808320805460ff19166001908117909155600883528184208054918201815584529282902090920180549489166001600160a01b031990951685179055815193845283019190915280517f3ab23ab0d51cccc0c3085aec51f99228625aa1a922b3a8ca89a26b0f2027a1a59281900390910190a15060009392505050565b615171615b7d565b6040518060200160405280670de0b6b3a764000061519786600001518660000151615620565b8161519e57fe5b0490529392505050565b6151b0615b7d565b60405180602001604052806151db6151d48660000151670de0b6b3a7640000615620565b85516159ab565b90529392505050565b6001600160a01b0381166000908152600960205260409020805460ff161515600114615257576040805162461bcd60e51b815260206004820152601860248201527f4c4842206d61726b6574206973206e6f74206c69737465640000000000000000604482015290519081900360640190fd5b600381015460ff16156152b1576040805162461bcd60e51b815260206004820152601860248201527f4c4842206d61726b657420616c72656164792061646465640000000000000000604482015290519081900360640190fd5b60038101805460ff19166001908117909155604080516001600160a01b0385168152602081019290925280517f93c1f3e36ed71139f466a4ce8c9751790e2e33f5afb2df0dcfb3aeabe55d5aa29281900390910190a16001600160a01b0382166000908152601060205260409020546001600160e01b031615801561535957506001600160a01b038216600090815260106020526040902054600160e01b900463ffffffff16155b156154285760405180604001604052806ec097ce7bc90715b34b9f10000000006001600160e01b031681526020016153cd615392611f37565b6040518060400160405280601c81526020017f626c6f636b206e756d6265722065786365656473203332206269747300000000815250615756565b63ffffffff9081169091526001600160a01b0384166000908152601060209081526040909120835181549490920151909216600160e01b026001600160e01b039182166001600160e01b031990941693909317169190911790555b6001600160a01b0382166000908152601160205260409020546001600160e01b031615801561547a57506001600160a01b038216600090815260116020526040902054600160e01b900463ffffffff16155b15611d515760405180604001604052806ec097ce7bc90715b34b9f10000000006001600160e01b031681526020016154b3615392611f37565b63ffffffff9081169091526001600160a01b0384166000908152601160209081526040909120835181549490920151909216600160e01b026001600160e01b039182166001600160e01b031990941693909317169190911790555050565b6000611b7183836040518060400160405280601181526020017f6164646974696f6e206f766572666c6f770000000000000000000000000000008152506159ed565b5190511090565b60007f45b96fe442630264581b197e84bbada861235052c5a1aadfff9ea4e40a969aa084601181111561558957fe5b84601381111561559557fe5b604080519283526020830191909152818101859052519081900360600190a183601181111561181757fe5b6000611b7183836040518060400160405280601581526020017f7375627472616374696f6e20756e646572666c6f770000000000000000000000815250615a4b565b6000611b7161561984670de0b6b3a7640000615620565b83516159ab565b6000611b7183836040518060400160405280601781526020017f6d756c7469706c69636174696f6e206f766572666c6f77000000000000000000815250615aa5565b61566a615b7d565b60405180602001604052806151db615691866ec097ce7bc90715b34b9f1000000000615620565b856159ab565b61569f615b7d565b60405180602001604052806151db85600001518560000151615511565b600081600160e01b841061574e5760405162461bcd60e51b81526004018080602001828103825283818151815260200191508051906020019080838360005b838110156157135781810151838201526020016156fb565b50505050905090810190601f1680156157405780820380516001836020036101000a031916815260200191505b509250505060405180910390fd5b509192915050565b600081640100000000841061574e5760405162461bcd60e51b81526020600482018181528351602484015283519092839260449091019190850190808383600083156157135781810151838201526020016156fb565b6157b4615b7d565b60405180602001604052806151db856000015185600001516155c0565b60006ec097ce7bc90715b34b9f10000000006157f1848460000151615620565b816157f857fe5b049392505050565b60008183101580156158125750600083115b15615939576000615821612a93565b90506000816001600160a01b03166370a08231306040518263ffffffff1660e01b815260040180826001600160a01b0316815260200191505060206040518083038186803b15801561587257600080fd5b505afa158015615886573d6000803e3d6000fd5b505050506040513d602081101561589c57600080fd5b5051905080851161593657816001600160a01b031663a9059cbb87876040518363ffffffff1660e01b815260040180836001600160a01b0316815260200182815260200192505050602060405180830381600087803b1580156158fe57600080fd5b505af1158015615912573d6000803e3d6000fd5b505050506040513d602081101561592857600080fd5b5060009350611b7192505050565b50505b509092915050565b615949615b7d565b60405180602001604052806151db856000015185615620565b6000670de0b6b3a76400006157f1848460000151615620565b6000806159888585615941565b90506124246159968261599c565b84615511565b51670de0b6b3a7640000900490565b6000611b7183836040518060400160405280600e81526020017f646976696465206279207a65726f000000000000000000000000000000000000815250615b1b565b60008383018285821015615a425760405162461bcd60e51b81526020600482018181528351602484015283519092839260449091019190850190808383600083156157135781810151838201526020016156fb565b50949350505050565b60008184841115615a9d5760405162461bcd60e51b81526020600482018181528351602484015283519092839260449091019190850190808383600083156157135781810151838201526020016156fb565b505050900390565b6000831580615ab2575082155b15615abf57506000611b71565b83830283858281615acc57fe5b04148390615a425760405162461bcd60e51b81526020600482018181528351602484015283519092839260449091019190850190808383600083156157135781810151838201526020016156fb565b60008183615b6a5760405162461bcd60e51b81526020600482018181528351602484015283519092839260449091019190850190808383600083156157135781810151838201526020016156fb565b50828481615b7457fe5b04949350505050565b6040518060200160405280600081525090565b604051806101400160405280600081526020016000815260200160008152602001600081526020016000815260200160008152602001615bce615b7d565b8152602001615bdb615b7d565b8152602001615be8615b7d565b8152602001615bf5615b7d565b90529056fe63616e6e6f742070617573652061206d61726b65742074686174206973206e6f74206c69737465646f6e6c792065787465726e616c6c79206f776e6564206163636f756e7473206d61792072656672657368207370656564736f6e6c7920706175736520677561726469616e20616e642061646d696e2063616e2070617573656f6e6c792061646d696e2063616e2073657420626f72726f772063617020677561726469616e6f6e6c792061646d696e206f7220626f72726f772063617020677561726469616e2063616e2073657420626f72726f772063617073657869744d61726b65743a206765744163636f756e74536e617073686f74206661696c65646f6e6c7920756e6974726f6c6c65722061646d696e2063616e206368616e676520627261696e73a2646970667358221220c30e85ad53e37365ac5e18e710bda2813f420b4f7a5b8532451557471001ca7964736f6c63430007060033",
  "devdoc": {
    "author": "Compound",
    "kind": "dev",
    "methods": {
      "_addCompMarkets(address[])": {
        "params": {
          "cTokens": "The addresses of the markets to add"
        }
      },
      "_dropCompMarket(address)": {
        "params": {
          "cToken": "The address of the market to drop"
        }
      },
      "_grantComp(address,uint256)": {
        "details": "Note: If there is not enough LHB, we do not perform the transfer all.",
        "params": {
          "amount": "The amount of LHB to (possibly) transfer",
          "recipient": "The address of the recipient to transfer LHB to"
        }
      },
      "_setBorrowCapGuardian(address)": {
        "params": {
          "newBorrowCapGuardian": "The address of the new Borrow Cap Guardian"
        }
      },
      "_setCloseFactor(uint256)": {
        "details": "Admin function to set closeFactor",
        "params": {
          "newCloseFactorMantissa": "New close factor, scaled by 1e18"
        },
        "returns": {
          "_0": "uint 0=success, otherwise a failure"
        }
      },
      "_setCollateralFactor(address,uint256)": {
        "details": "Admin function to set per-market collateralFactor",
        "params": {
          "cToken": "The market to set the factor on",
          "newCollateralFactorMantissa": "The new collateral factor, scaled by 1e18"
        },
        "returns": {
          "_0": "uint 0=success, otherwise a failure. (See ErrorReporter for details)"
        }
      },
      "_setCompRate(uint256)": {
        "params": {
          "compRate_": "The amount of LHB wei per block to distribute"
        }
      },
      "_setLiquidationIncentive(uint256)": {
        "details": "Admin function to set liquidationIncentive",
        "params": {
          "newLiquidationIncentiveMantissa": "New liquidationIncentive scaled by 1e18"
        },
        "returns": {
          "_0": "uint 0=success, otherwise a failure. (See ErrorReporter for details)"
        }
      },
      "_setMarketBorrowCaps(address[],uint256[])": {
        "details": "Admin or borrowCapGuardian function to set the borrow caps. A borrow cap of 0 corresponds to unlimited borrowing.",
        "params": {
          "cTokens": "The addresses of the markets (tokens) to change the borrow caps for",
          "newBorrowCaps": "The new borrow cap values in underlying to be set. A value of 0 corresponds to unlimited borrowing."
        }
      },
      "_setPauseGuardian(address)": {
        "params": {
          "newPauseGuardian": "The address of the new Pause Guardian"
        },
        "returns": {
          "_0": "uint 0=success, otherwise a failure. (See enum Error for details)"
        }
      },
      "_setPriceOracle(address)": {
        "details": "Admin function to set a new price oracle",
        "returns": {
          "_0": "uint 0=success, otherwise a failure (see ErrorReporter.sol for details)"
        }
      },
      "_supportMarket(address)": {
        "details": "Admin function to set isListed and add support for the market",
        "params": {
          "cToken": "The address of the market (token) to list"
        },
        "returns": {
          "_0": "uint 0=success, otherwise a failure. (See enum Error for details)"
        }
      },
      "borrowAllowed(address,address,uint256)": {
        "params": {
          "borrowAmount": "The amount of underlying the account would borrow",
          "borrower": "The account which would borrow the asset",
          "cToken": "The market to verify the borrow against"
        },
        "returns": {
          "_0": "0 if the borrow is allowed, otherwise a semi-opaque error code (See ErrorReporter.sol)"
        }
      },
      "borrowVerify(address,address,uint256)": {
        "params": {
          "borrowAmount": "The amount of the underlying asset requested to borrow",
          "borrower": "The address borrowing the underlying",
          "cToken": "Asset whose underlying is being borrowed"
        }
      },
      "checkMembership(address,address)": {
        "params": {
          "account": "The address of the account to check",
          "cToken": "The cToken to check"
        },
        "returns": {
          "_0": "True if the account is in the asset, otherwise false."
        }
      },
      "claimComp(address)": {
        "params": {
          "holder": "The address to claim LHB for"
        }
      },
      "claimComp(address,address[])": {
        "params": {
          "cTokens": "The list of markets to claim LHB in",
          "holder": "The address to claim LHB for"
        }
      },
      "claimComp(address[],address[],bool,bool)": {
        "params": {
          "borrowers": "Whether or not to claim LHB earned by borrowing",
          "cTokens": "The list of markets to claim LHB in",
          "holders": "The addresses to claim LHB for",
          "suppliers": "Whether or not to claim LHB earned by supplying"
        }
      },
      "enterMarkets(address[])": {
        "params": {
          "cTokens": "The list of addresses of the cToken markets to be enabled"
        },
        "returns": {
          "_0": "Success indicator for whether each corresponding market was entered"
        }
      },
      "exitMarket(address)": {
        "details": "Sender must not have an outstanding borrow balance in the asset,  or be providing necessary collateral for an outstanding borrow.",
        "params": {
          "cTokenAddress": "The address of the asset to be removed"
        },
        "returns": {
          "_0": "Whether or not the account successfully exited the market"
        }
      },
      "getAccountLiquidity(address)": {
        "returns": {
          "_0": "(possible error code (semi-opaque), account liquidity in excess of collateral requirements,          account shortfall below collateral requirements)"
        }
      },
      "getAllMarkets()": {
        "details": "The automatic getter may be used to access an individual market.",
        "returns": {
          "_0": "The list of market addresses"
        }
      },
      "getAssetsIn(address)": {
        "params": {
          "account": "The address of the account to pull assets for"
        },
        "returns": {
          "_0": "A dynamic list with the assets the account has entered"
        }
      },
      "getCTokenAddress(address)": {
        "params": {
          "token": "The address of the token to be query"
        },
        "returns": {
          "_0": "The address of cToken"
        }
      },
      "getCompAddress()": {
        "returns": {
          "_0": "The address of LHB"
        }
      },
      "getHypotheticalAccountLiquidity(address,address,uint256,uint256)": {
        "params": {
          "account": "The account to determine liquidity for",
          "borrowAmount": "The amount of underlying to hypothetically borrow",
          "cTokenModify": "The market to hypothetically redeem/borrow in",
          "redeemTokens": "The number of tokens to hypothetically redeem"
        },
        "returns": {
          "_0": "(possible error code (semi-opaque), hypothetical account liquidity in excess of collateral requirements,          hypothetical account shortfall below collateral requirements)"
        }
      },
      "liquidateBorrowAllowed(address,address,address,address,uint256)": {
        "params": {
          "borrower": "The address of the borrower",
          "cTokenBorrowed": "Asset which was borrowed by the borrower",
          "cTokenCollateral": "Asset which was used as collateral and will be seized",
          "liquidator": "The address repaying the borrow and seizing the collateral",
          "repayAmount": "The amount of underlying being repaid"
        }
      },
      "liquidateBorrowVerify(address,address,address,address,uint256,uint256)": {
        "params": {
          "actualRepayAmount": "The amount of underlying being repaid",
          "borrower": "The address of the borrower",
          "cTokenBorrowed": "Asset which was borrowed by the borrower",
          "cTokenCollateral": "Asset which was used as collateral and will be seized",
          "liquidator": "The address repaying the borrow and seizing the collateral"
        }
      },
      "liquidateCalculateSeizeTokens(address,address,uint256)": {
        "details": "Used in liquidation (called in cToken.liquidateBorrowFresh)",
        "params": {
          "actualRepayAmount": "The amount of cTokenBorrowed underlying to convert into cTokenCollateral tokens",
          "cTokenBorrowed": "The address of the borrowed cToken",
          "cTokenCollateral": "The address of the collateral cToken"
        },
        "returns": {
          "_0": "(errorCode, number of cTokenCollateral tokens to be seized in a liquidation)"
        }
      },
      "mintAllowed(address,address,uint256)": {
        "params": {
          "cToken": "The market to verify the mint against",
          "mintAmount": "The amount of underlying being supplied to the market in exchange for tokens",
          "minter": "The account which would get the minted tokens"
        },
        "returns": {
          "_0": "0 if the mint is allowed, otherwise a semi-opaque error code (See ErrorReporter.sol)"
        }
      },
      "mintVerify(address,address,uint256,uint256)": {
        "params": {
          "actualMintAmount": "The amount of the underlying asset being minted",
          "cToken": "Asset being minted",
          "mintTokens": "The number of tokens being minted",
          "minter": "The address minting the tokens"
        }
      },
      "redeemAllowed(address,address,uint256)": {
        "params": {
          "cToken": "The market to verify the redeem against",
          "redeemTokens": "The number of cTokens to exchange for the underlying asset in the market",
          "redeemer": "The account which would redeem the tokens"
        },
        "returns": {
          "_0": "0 if the redeem is allowed, otherwise a semi-opaque error code (See ErrorReporter.sol)"
        }
      },
      "redeemVerify(address,address,uint256,uint256)": {
        "params": {
          "cToken": "Asset being redeemed",
          "redeemAmount": "The amount of the underlying asset being redeemed",
          "redeemTokens": "The number of tokens being redeemed",
          "redeemer": "The address redeeming the tokens"
        }
      },
      "repayBorrowAllowed(address,address,address,uint256)": {
        "params": {
          "borrower": "The account which would borrowed the asset",
          "cToken": "The market to verify the repay against",
          "payer": "The account which would repay the asset",
          "repayAmount": "The amount of the underlying asset the account would repay"
        },
        "returns": {
          "_0": "0 if the repay is allowed, otherwise a semi-opaque error code (See ErrorReporter.sol)"
        }
      },
      "repayBorrowVerify(address,address,address,uint256,uint256)": {
        "params": {
          "actualRepayAmount": "The amount of underlying being repaid",
          "borrower": "The address of the borrower",
          "cToken": "Asset being repaid",
          "payer": "The address repaying the borrow"
        }
      },
      "seizeAllowed(address,address,address,address,uint256)": {
        "params": {
          "borrower": "The address of the borrower",
          "cTokenBorrowed": "Asset which was borrowed by the borrower",
          "cTokenCollateral": "Asset which was used as collateral and will be seized",
          "liquidator": "The address repaying the borrow and seizing the collateral",
          "seizeTokens": "The number of collateral tokens to seize"
        }
      },
      "seizeVerify(address,address,address,address,uint256)": {
        "params": {
          "borrower": "The address of the borrower",
          "cTokenBorrowed": "Asset which was borrowed by the borrower",
          "cTokenCollateral": "Asset which was used as collateral and will be seized",
          "liquidator": "The address repaying the borrow and seizing the collateral",
          "seizeTokens": "The number of collateral tokens to seize"
        }
      },
      "transferAllowed(address,address,address,uint256)": {
        "params": {
          "cToken": "The market to verify the transfer against",
          "dst": "The account which receives the tokens",
          "src": "The account which sources the tokens",
          "transferTokens": "The number of cTokens to transfer"
        },
        "returns": {
          "_0": "0 if the transfer is allowed, otherwise a semi-opaque error code (See ErrorReporter.sol)"
        }
      },
      "transferVerify(address,address,address,uint256)": {
        "params": {
          "cToken": "Asset being transferred",
          "dst": "The account which receives the tokens",
          "src": "The account which sources the tokens",
          "transferTokens": "The number of cTokens to transfer"
        }
      }
    },
    "title": "Compound's Comptroller Contract",
    "version": 1
  },
  "userdoc": {
    "events": {
      "ActionPaused(address,string,bool)": {
        "notice": "Emitted when an action is paused on a market"
      },
      "ActionPaused(string,bool)": {
        "notice": "Emitted when an action is paused globally"
      },
      "CompGranted(address,uint256)": {
        "notice": "Emitted when LHB is granted by admin"
      },
      "CompSpeedUpdated(address,uint256)": {
        "notice": "Emitted when a new LHB speed is calculated for a market"
      },
      "DistributedBorrowerComp(address,address,uint256,uint256)": {
        "notice": "Emitted when LHB is distributed to a borrower"
      },
      "DistributedSupplierComp(address,address,uint256,uint256)": {
        "notice": "Emitted when LHB is distributed to a supplier"
      },
      "MarketComped(address,bool)": {
        "notice": "Emitted when market comped status is changed"
      },
      "MarketEntered(address,address)": {
        "notice": "Emitted when an account enters a market"
      },
      "MarketExited(address,address)": {
        "notice": "Emitted when an account exits a market"
      },
      "MarketListed(address)": {
        "notice": "Emitted when an admin supports a market"
      },
      "NewBorrowCap(address,uint256)": {
        "notice": "Emitted when borrow cap for a cToken is changed"
      },
      "NewBorrowCapGuardian(address,address)": {
        "notice": "Emitted when borrow cap guardian is changed"
      },
      "NewCloseFactor(uint256,uint256)": {
        "notice": "Emitted when close factor is changed by admin"
      },
      "NewCollateralFactor(address,uint256,uint256)": {
        "notice": "Emitted when a collateral factor is changed by admin"
      },
      "NewCompRate(uint256,uint256)": {
        "notice": "Emitted when LHB rate is changed"
      },
      "NewLiquidationIncentive(uint256,uint256)": {
        "notice": "Emitted when liquidation incentive is changed by admin"
      },
      "NewPauseGuardian(address,address)": {
        "notice": "Emitted when pause guardian is changed"
      },
      "NewPriceOracle(address,address)": {
        "notice": "Emitted when price oracle is changed"
      }
    },
    "kind": "user",
    "methods": {
      "_addCompMarkets(address[])": {
        "notice": "Add markets to compMarkets, allowing them to earn LHB in the flywheel"
      },
      "_dropCompMarket(address)": {
        "notice": "Remove a market from compMarkets, preventing it from earning LHB in the flywheel"
      },
      "_grantComp(address,uint256)": {
        "notice": "Transfer LHB to the recipient"
      },
      "_setBorrowCapGuardian(address)": {
        "notice": "Admin function to change the Borrow Cap Guardian"
      },
      "_setCloseFactor(uint256)": {
        "notice": "Sets the closeFactor used when liquidating borrows"
      },
      "_setCollateralFactor(address,uint256)": {
        "notice": "Sets the collateralFactor for a market"
      },
      "_setCompRate(uint256)": {
        "notice": "Set the amount of LHB distributed per block"
      },
      "_setLiquidationIncentive(uint256)": {
        "notice": "Sets liquidationIncentive"
      },
      "_setMarketBorrowCaps(address[],uint256[])": {
        "notice": "Set the given borrow caps for the given cToken markets. Borrowing that brings total borrows to or above borrow cap will revert."
      },
      "_setPauseGuardian(address)": {
        "notice": "Admin function to change the Pause Guardian"
      },
      "_setPriceOracle(address)": {
        "notice": "Sets a new price oracle for the comptroller"
      },
      "_supportMarket(address)": {
        "notice": "Add the market to the markets mapping and set it as listed"
      },
      "accountAssets(address,uint256)": {
        "notice": "Per-account mapping of \"assets you are in\", capped by maxAssets"
      },
      "admin()": {
        "notice": "Administrator for this contract"
      },
      "allMarkets(uint256)": {
        "notice": "A list of all markets"
      },
      "borrowAllowed(address,address,uint256)": {
        "notice": "Checks if the account should be allowed to borrow the underlying asset of the given market"
      },
      "borrowVerify(address,address,uint256)": {
        "notice": "Validates borrow and reverts on rejection. May emit logs."
      },
      "checkMembership(address,address)": {
        "notice": "Returns whether the given account is entered in the given asset"
      },
      "claimComp(address)": {
        "notice": "Claim all the LHB accrued by holder in all markets"
      },
      "claimComp(address,address[])": {
        "notice": "Claim all the LHB accrued by holder in the specified markets"
      },
      "claimComp(address[],address[],bool,bool)": {
        "notice": "Claim all LHB accrued by the holders"
      },
      "closeFactorMantissa()": {
        "notice": "Multiplier used to calculate the maximum repayAmount when liquidating a borrow"
      },
      "compAccrued(address)": {
        "notice": "The LHB accrued but not yet transferred to each user"
      },
      "compBorrowState(address)": {
        "notice": "The LHB market borrow state for each market"
      },
      "compBorrowerIndex(address,address)": {
        "notice": "The LHB borrow index for each market for each borrower as of the last time they accrued LHB"
      },
      "compClaimThreshold()": {
        "notice": "The threshold above which the flywheel transfers LHB, in wei"
      },
      "compInitialIndex()": {
        "notice": "The initial LHB index for a market"
      },
      "compRate()": {
        "notice": "The rate at which the flywheel distributes LHB, per block"
      },
      "compSpeeds(address)": {
        "notice": "The portion of compRate that each market currently receives"
      },
      "compSupplierIndex(address,address)": {
        "notice": "The LHB borrow index for each market for each supplier as of the last time they accrued LHB"
      },
      "compSupplyState(address)": {
        "notice": "The LHB market supply state for each market"
      },
      "comptrollerImplementation()": {
        "notice": "Active brains of Unitroller"
      },
      "enterMarkets(address[])": {
        "notice": "Add assets to be included in account liquidity calculation"
      },
      "exitMarket(address)": {
        "notice": "Removes asset from sender's account liquidity calculation"
      },
      "getAccountLiquidity(address)": {
        "notice": "Determine the current account liquidity wrt collateral requirements"
      },
      "getAllMarkets()": {
        "notice": "Return all of the markets"
      },
      "getAssetsIn(address)": {
        "notice": "Returns the assets an account has entered"
      },
      "getCTokenAddress(address)": {
        "notice": "Return the cToken address of the token"
      },
      "getCompAddress()": {
        "notice": "Return the address of the LHB token"
      },
      "getHypotheticalAccountLiquidity(address,address,uint256,uint256)": {
        "notice": "Determine what the account liquidity would be if the given amounts were redeemed/borrowed"
      },
      "isComptroller()": {
        "notice": "Indicator that this is a Comptroller contract (for inspection)"
      },
      "liquidateBorrowAllowed(address,address,address,address,uint256)": {
        "notice": "Checks if the liquidation should be allowed to occur"
      },
      "liquidateBorrowVerify(address,address,address,address,uint256,uint256)": {
        "notice": "Validates liquidateBorrow and reverts on rejection. May emit logs."
      },
      "liquidateCalculateSeizeTokens(address,address,uint256)": {
        "notice": "Calculate number of tokens of collateral asset to seize given an underlying amount"
      },
      "liquidationIncentiveMantissa()": {
        "notice": "Multiplier representing the discount on collateral that a liquidator receives"
      },
      "markets(address)": {
        "notice": "Official mapping of cTokens -> Market metadata"
      },
      "maxAssets()": {
        "notice": "Max number of assets a single account can participate in (borrow or use as collateral)"
      },
      "mintAllowed(address,address,uint256)": {
        "notice": "Checks if the account should be allowed to mint tokens in the given market"
      },
      "mintVerify(address,address,uint256,uint256)": {
        "notice": "Validates mint and reverts on rejection. May emit logs."
      },
      "oracle()": {
        "notice": "Oracle which gives the price of any given asset"
      },
      "pauseGuardian()": {
        "notice": "The Pause Guardian can pause certain actions as a safety mechanism.  Actions which allow users to remove their own assets cannot be paused.  Liquidation / seizing / transfer can only be paused globally, not by market."
      },
      "pendingAdmin()": {
        "notice": "Pending administrator for this contract"
      },
      "pendingComptrollerImplementation()": {
        "notice": "Pending brains of Unitroller"
      },
      "redeemAllowed(address,address,uint256)": {
        "notice": "Checks if the account should be allowed to redeem tokens in the given market"
      },
      "redeemVerify(address,address,uint256,uint256)": {
        "notice": "Validates redeem and reverts on rejection. May emit logs."
      },
      "refreshCompSpeeds()": {
        "notice": "Recalculate and update LHB speeds for all LHB markets"
      },
      "repayBorrowAllowed(address,address,address,uint256)": {
        "notice": "Checks if the account should be allowed to repay a borrow in the given market"
      },
      "repayBorrowVerify(address,address,address,uint256,uint256)": {
        "notice": "Validates repayBorrow and reverts on rejection. May emit logs."
      },
      "seizeAllowed(address,address,address,address,uint256)": {
        "notice": "Checks if the seizing of assets should be allowed to occur"
      },
      "seizeVerify(address,address,address,address,uint256)": {
        "notice": "Validates seize and reverts on rejection. May emit logs."
      },
      "transferAllowed(address,address,address,uint256)": {
        "notice": "Checks if the account should be allowed to transfer tokens in the given market"
      },
      "transferVerify(address,address,address,uint256)": {
        "notice": "Validates transfer and reverts on rejection. May emit logs."
      }
    },
    "version": 1
  },
  "storageLayout": {
    "storage": [
      {
        "astId": 11005,
        "contract": "contracts/compound/Comptroller.sol:Comptroller",
        "label": "admin",
        "offset": 0,
        "slot": "0",
        "type": "t_address"
      },
      {
        "astId": 11008,
        "contract": "contracts/compound/Comptroller.sol:Comptroller",
        "label": "pendingAdmin",
        "offset": 0,
        "slot": "1",
        "type": "t_address"
      },
      {
        "astId": 11011,
        "contract": "contracts/compound/Comptroller.sol:Comptroller",
        "label": "comptrollerImplementation",
        "offset": 0,
        "slot": "2",
        "type": "t_address"
      },
      {
        "astId": 11014,
        "contract": "contracts/compound/Comptroller.sol:Comptroller",
        "label": "pendingComptrollerImplementation",
        "offset": 0,
        "slot": "3",
        "type": "t_address"
      },
      {
        "astId": 11020,
        "contract": "contracts/compound/Comptroller.sol:Comptroller",
        "label": "oracle",
        "offset": 0,
        "slot": "4",
        "type": "t_contract(PriceOracle)15409"
      },
      {
        "astId": 11023,
        "contract": "contracts/compound/Comptroller.sol:Comptroller",
        "label": "closeFactorMantissa",
        "offset": 0,
        "slot": "5",
        "type": "t_uint256"
      },
      {
        "astId": 11026,
        "contract": "contracts/compound/Comptroller.sol:Comptroller",
        "label": "liquidationIncentiveMantissa",
        "offset": 0,
        "slot": "6",
        "type": "t_uint256"
      },
      {
        "astId": 11029,
        "contract": "contracts/compound/Comptroller.sol:Comptroller",
        "label": "maxAssets",
        "offset": 0,
        "slot": "7",
        "type": "t_uint256"
      },
      {
        "astId": 11035,
        "contract": "contracts/compound/Comptroller.sol:Comptroller",
        "label": "accountAssets",
        "offset": 0,
        "slot": "8",
        "type": "t_mapping(t_address,t_array(t_contract(CToken)6935)dyn_storage)"
      },
      {
        "astId": 11054,
        "contract": "contracts/compound/Comptroller.sol:Comptroller",
        "label": "markets",
        "offset": 0,
        "slot": "9",
        "type": "t_mapping(t_address,t_struct(Market)11049_storage)"
      },
      {
        "astId": 11057,
        "contract": "contracts/compound/Comptroller.sol:Comptroller",
        "label": "pauseGuardian",
        "offset": 0,
        "slot": "10",
        "type": "t_address"
      },
      {
        "astId": 11059,
        "contract": "contracts/compound/Comptroller.sol:Comptroller",
        "label": "_mintGuardianPaused",
        "offset": 20,
        "slot": "10",
        "type": "t_bool"
      },
      {
        "astId": 11061,
        "contract": "contracts/compound/Comptroller.sol:Comptroller",
        "label": "_borrowGuardianPaused",
        "offset": 21,
        "slot": "10",
        "type": "t_bool"
      },
      {
        "astId": 11063,
        "contract": "contracts/compound/Comptroller.sol:Comptroller",
        "label": "transferGuardianPaused",
        "offset": 22,
        "slot": "10",
        "type": "t_bool"
      },
      {
        "astId": 11065,
        "contract": "contracts/compound/Comptroller.sol:Comptroller",
        "label": "seizeGuardianPaused",
        "offset": 23,
        "slot": "10",
        "type": "t_bool"
      },
      {
        "astId": 11069,
        "contract": "contracts/compound/Comptroller.sol:Comptroller",
        "label": "mintGuardianPaused",
        "offset": 0,
        "slot": "11",
        "type": "t_mapping(t_address,t_bool)"
      },
      {
        "astId": 11073,
        "contract": "contracts/compound/Comptroller.sol:Comptroller",
        "label": "borrowGuardianPaused",
        "offset": 0,
        "slot": "12",
        "type": "t_mapping(t_address,t_bool)"
      },
      {
        "astId": 11085,
        "contract": "contracts/compound/Comptroller.sol:Comptroller",
        "label": "allMarkets",
        "offset": 0,
        "slot": "13",
        "type": "t_array(t_contract(CToken)6935)dyn_storage"
      },
      {
        "astId": 11088,
        "contract": "contracts/compound/Comptroller.sol:Comptroller",
        "label": "compRate",
        "offset": 0,
        "slot": "14",
        "type": "t_uint256"
      },
      {
        "astId": 11093,
        "contract": "contracts/compound/Comptroller.sol:Comptroller",
        "label": "compSpeeds",
        "offset": 0,
        "slot": "15",
        "type": "t_mapping(t_address,t_uint256)"
      },
      {
        "astId": 11098,
        "contract": "contracts/compound/Comptroller.sol:Comptroller",
        "label": "compSupplyState",
        "offset": 0,
        "slot": "16",
        "type": "t_mapping(t_address,t_struct(CompMarketState)11081_storage)"
      },
      {
        "astId": 11103,
        "contract": "contracts/compound/Comptroller.sol:Comptroller",
        "label": "compBorrowState",
        "offset": 0,
        "slot": "17",
        "type": "t_mapping(t_address,t_struct(CompMarketState)11081_storage)"
      },
      {
        "astId": 11110,
        "contract": "contracts/compound/Comptroller.sol:Comptroller",
        "label": "compSupplierIndex",
        "offset": 0,
        "slot": "18",
        "type": "t_mapping(t_address,t_mapping(t_address,t_uint256))"
      },
      {
        "astId": 11117,
        "contract": "contracts/compound/Comptroller.sol:Comptroller",
        "label": "compBorrowerIndex",
        "offset": 0,
        "slot": "19",
        "type": "t_mapping(t_address,t_mapping(t_address,t_uint256))"
      },
      {
        "astId": 11122,
        "contract": "contracts/compound/Comptroller.sol:Comptroller",
        "label": "compAccrued",
        "offset": 0,
        "slot": "20",
        "type": "t_mapping(t_address,t_uint256)"
      },
      {
        "astId": 11127,
        "contract": "contracts/compound/Comptroller.sol:Comptroller",
        "label": "borrowCapGuardian",
        "offset": 0,
        "slot": "21",
        "type": "t_address"
      },
      {
        "astId": 11131,
        "contract": "contracts/compound/Comptroller.sol:Comptroller",
        "label": "borrowCaps",
        "offset": 0,
        "slot": "22",
        "type": "t_mapping(t_address,t_uint256)"
      }
    ],
    "types": {
      "t_address": {
        "encoding": "inplace",
        "label": "address",
        "numberOfBytes": "20"
      },
      "t_array(t_contract(CToken)6935)dyn_storage": {
        "base": "t_contract(CToken)6935",
        "encoding": "dynamic_array",
        "label": "contract CToken[]",
        "numberOfBytes": "32"
      },
      "t_bool": {
        "encoding": "inplace",
        "label": "bool",
        "numberOfBytes": "1"
      },
      "t_contract(CToken)6935": {
        "encoding": "inplace",
        "label": "contract CToken",
        "numberOfBytes": "20"
      },
      "t_contract(PriceOracle)15409": {
        "encoding": "inplace",
        "label": "contract PriceOracle",
        "numberOfBytes": "20"
      },
      "t_mapping(t_address,t_array(t_contract(CToken)6935)dyn_storage)": {
        "encoding": "mapping",
        "key": "t_address",
        "label": "mapping(address => contract CToken[])",
        "numberOfBytes": "32",
        "value": "t_array(t_contract(CToken)6935)dyn_storage"
      },
      "t_mapping(t_address,t_bool)": {
        "encoding": "mapping",
        "key": "t_address",
        "label": "mapping(address => bool)",
        "numberOfBytes": "32",
        "value": "t_bool"
      },
      "t_mapping(t_address,t_mapping(t_address,t_uint256))": {
        "encoding": "mapping",
        "key": "t_address",
        "label": "mapping(address => mapping(address => uint256))",
        "numberOfBytes": "32",
        "value": "t_mapping(t_address,t_uint256)"
      },
      "t_mapping(t_address,t_struct(CompMarketState)11081_storage)": {
        "encoding": "mapping",
        "key": "t_address",
        "label": "mapping(address => struct ComptrollerV3Storage.CompMarketState)",
        "numberOfBytes": "32",
        "value": "t_struct(CompMarketState)11081_storage"
      },
      "t_mapping(t_address,t_struct(Market)11049_storage)": {
        "encoding": "mapping",
        "key": "t_address",
        "label": "mapping(address => struct ComptrollerV2Storage.Market)",
        "numberOfBytes": "32",
        "value": "t_struct(Market)11049_storage"
      },
      "t_mapping(t_address,t_uint256)": {
        "encoding": "mapping",
        "key": "t_address",
        "label": "mapping(address => uint256)",
        "numberOfBytes": "32",
        "value": "t_uint256"
      },
      "t_struct(CompMarketState)11081_storage": {
        "encoding": "inplace",
        "label": "struct ComptrollerV3Storage.CompMarketState",
        "members": [
          {
            "astId": 11078,
            "contract": "contracts/compound/Comptroller.sol:Comptroller",
            "label": "index",
            "offset": 0,
            "slot": "0",
            "type": "t_uint224"
          },
          {
            "astId": 11080,
            "contract": "contracts/compound/Comptroller.sol:Comptroller",
            "label": "block",
            "offset": 28,
            "slot": "0",
            "type": "t_uint32"
          }
        ],
        "numberOfBytes": "32"
      },
      "t_struct(Market)11049_storage": {
        "encoding": "inplace",
        "label": "struct ComptrollerV2Storage.Market",
        "members": [
          {
            "astId": 11040,
            "contract": "contracts/compound/Comptroller.sol:Comptroller",
            "label": "isListed",
            "offset": 0,
            "slot": "0",
            "type": "t_bool"
          },
          {
            "astId": 11042,
            "contract": "contracts/compound/Comptroller.sol:Comptroller",
            "label": "collateralFactorMantissa",
            "offset": 0,
            "slot": "1",
            "type": "t_uint256"
          },
          {
            "astId": 11046,
            "contract": "contracts/compound/Comptroller.sol:Comptroller",
            "label": "accountMembership",
            "offset": 0,
            "slot": "2",
            "type": "t_mapping(t_address,t_bool)"
          },
          {
            "astId": 11048,
            "contract": "contracts/compound/Comptroller.sol:Comptroller",
            "label": "isComped",
            "offset": 0,
            "slot": "3",
            "type": "t_bool"
          }
        ],
        "numberOfBytes": "128"
      },
      "t_uint224": {
        "encoding": "inplace",
        "label": "uint224",
        "numberOfBytes": "28"
      },
      "t_uint256": {
        "encoding": "inplace",
        "label": "uint256",
        "numberOfBytes": "32"
      },
      "t_uint32": {
        "encoding": "inplace",
        "label": "uint32",
        "numberOfBytes": "4"
      }
    }
  }
}