{
  "address": "0x91Ab9f3eC16F7bD50e71897723696a49e388ed34",
  "abi": [
    {
      "inputs": [],
      "stateMutability": "nonpayable",
      "type": "constructor"
    },
    {
      "anonymous": false,
      "inputs": [
        {
          "indexed": false,
          "internalType": "contract CToken",
          "name": "cToken",
          "type": "address"
        },
        {
          "indexed": false,
          "internalType": "string",
          "name": "action",
          "type": "string"
        },
        {
          "indexed": false,
          "internalType": "bool",
          "name": "pauseState",
          "type": "bool"
        }
      ],
      "name": "ActionPaused",
      "type": "event"
    },
    {
      "anonymous": false,
      "inputs": [
        {
          "indexed": false,
          "internalType": "string",
          "name": "action",
          "type": "string"
        },
        {
          "indexed": false,
          "internalType": "bool",
          "name": "pauseState",
          "type": "bool"
        }
      ],
      "name": "ActionPausedAll",
      "type": "event"
    },
    {
      "anonymous": false,
      "inputs": [
        {
          "indexed": false,
          "internalType": "address",
          "name": "recipient",
          "type": "address"
        },
        {
          "indexed": false,
          "internalType": "uint256",
          "name": "amount",
          "type": "uint256"
        }
      ],
      "name": "CompGranted",
      "type": "event"
    },
    {
      "anonymous": false,
      "inputs": [
        {
          "indexed": true,
          "internalType": "contract CToken",
          "name": "cToken",
          "type": "address"
        },
        {
          "indexed": false,
          "internalType": "uint256",
          "name": "newSpeed",
          "type": "uint256"
        }
      ],
      "name": "CompSpeedUpdated",
      "type": "event"
    },
    {
      "anonymous": false,
      "inputs": [
        {
          "indexed": true,
          "internalType": "contract CToken",
          "name": "cToken",
          "type": "address"
        },
        {
          "indexed": true,
          "internalType": "address",
          "name": "borrower",
          "type": "address"
        },
        {
          "indexed": false,
          "internalType": "uint256",
          "name": "compDelta",
          "type": "uint256"
        },
        {
          "indexed": false,
          "internalType": "uint256",
          "name": "compBorrowIndex",
          "type": "uint256"
        }
      ],
      "name": "DistributedBorrowerComp",
      "type": "event"
    },
    {
      "anonymous": false,
      "inputs": [
        {
          "indexed": true,
          "internalType": "contract CToken",
          "name": "cToken",
          "type": "address"
        },
        {
          "indexed": true,
          "internalType": "address",
          "name": "supplier",
          "type": "address"
        },
        {
          "indexed": false,
          "internalType": "uint256",
          "name": "compDelta",
          "type": "uint256"
        },
        {
          "indexed": false,
          "internalType": "uint256",
          "name": "compSupplyIndex",
          "type": "uint256"
        }
      ],
      "name": "DistributedSupplierComp",
      "type": "event"
    },
    {
      "anonymous": false,
      "inputs": [
        {
          "indexed": false,
          "internalType": "uint256",
          "name": "error",
          "type": "uint256"
        },
        {
          "indexed": false,
          "internalType": "uint256",
          "name": "info",
          "type": "uint256"
        },
        {
          "indexed": false,
          "internalType": "uint256",
          "name": "detail",
          "type": "uint256"
        }
      ],
      "name": "Failure",
      "type": "event"
    },
    {
      "anonymous": false,
      "inputs": [
        {
          "indexed": false,
          "internalType": "contract CToken",
          "name": "cToken",
          "type": "address"
        },
        {
          "indexed": false,
          "internalType": "bool",
          "name": "isComped",
          "type": "bool"
        }
      ],
      "name": "MarketComped",
      "type": "event"
    },
    {
      "anonymous": false,
      "inputs": [
        {
          "indexed": false,
          "internalType": "contract CToken",
          "name": "cToken",
          "type": "address"
        },
        {
          "indexed": false,
          "internalType": "address",
          "name": "account",
          "type": "address"
        }
      ],
      "name": "MarketEntered",
      "type": "event"
    },
    {
      "anonymous": false,
      "inputs": [
        {
          "indexed": false,
          "internalType": "contract CToken",
          "name": "cToken",
          "type": "address"
        },
        {
          "indexed": false,
          "internalType": "address",
          "name": "account",
          "type": "address"
        }
      ],
      "name": "MarketExited",
      "type": "event"
    },
    {
      "anonymous": false,
      "inputs": [
        {
          "indexed": false,
          "internalType": "contract CToken",
          "name": "cToken",
          "type": "address"
        }
      ],
      "name": "MarketListed",
      "type": "event"
    },
    {
      "anonymous": false,
      "inputs": [
        {
          "indexed": true,
          "internalType": "contract CToken",
          "name": "cToken",
          "type": "address"
        },
        {
          "indexed": false,
          "internalType": "uint256",
          "name": "newBorrowCap",
          "type": "uint256"
        }
      ],
      "name": "NewBorrowCap",
      "type": "event"
    },
    {
      "anonymous": false,
      "inputs": [
        {
          "indexed": false,
          "internalType": "address",
          "name": "oldBorrowCapGuardian",
          "type": "address"
        },
        {
          "indexed": false,
          "internalType": "address",
          "name": "newBorrowCapGuardian",
          "type": "address"
        }
      ],
      "name": "NewBorrowCapGuardian",
      "type": "event"
    },
    {
      "anonymous": false,
      "inputs": [
        {
          "indexed": false,
          "internalType": "uint256",
          "name": "oldCloseFactorMantissa",
          "type": "uint256"
        },
        {
          "indexed": false,
          "internalType": "uint256",
          "name": "newCloseFactorMantissa",
          "type": "uint256"
        }
      ],
      "name": "NewCloseFactor",
      "type": "event"
    },
    {
      "anonymous": false,
      "inputs": [
        {
          "indexed": false,
          "internalType": "contract CToken",
          "name": "cToken",
          "type": "address"
        },
        {
          "indexed": false,
          "internalType": "uint256",
          "name": "oldCollateralFactorMantissa",
          "type": "uint256"
        },
        {
          "indexed": false,
          "internalType": "uint256",
          "name": "newCollateralFactorMantissa",
          "type": "uint256"
        }
      ],
      "name": "NewCollateralFactor",
      "type": "event"
    },
    {
      "anonymous": false,
      "inputs": [
        {
          "indexed": false,
          "internalType": "uint256",
          "name": "oldCompRate",
          "type": "uint256"
        },
        {
          "indexed": false,
          "internalType": "uint256",
          "name": "newCompRate",
          "type": "uint256"
        }
      ],
      "name": "NewCompRate",
      "type": "event"
    },
    {
      "anonymous": false,
      "inputs": [
        {
          "indexed": false,
          "internalType": "uint256",
          "name": "oldLiquidationIncentiveMantissa",
          "type": "uint256"
        },
        {
          "indexed": false,
          "internalType": "uint256",
          "name": "newLiquidationIncentiveMantissa",
          "type": "uint256"
        }
      ],
      "name": "NewLiquidationIncentive",
      "type": "event"
    },
    {
      "anonymous": false,
      "inputs": [
        {
          "indexed": false,
          "internalType": "address",
          "name": "oldPauseGuardian",
          "type": "address"
        },
        {
          "indexed": false,
          "internalType": "address",
          "name": "newPauseGuardian",
          "type": "address"
        }
      ],
      "name": "NewPauseGuardian",
      "type": "event"
    },
    {
      "anonymous": false,
      "inputs": [
        {
          "indexed": false,
          "internalType": "contract PriceOracle",
          "name": "oldPriceOracle",
          "type": "address"
        },
        {
          "indexed": false,
          "internalType": "contract PriceOracle",
          "name": "newPriceOracle",
          "type": "address"
        }
      ],
      "name": "NewPriceOracle",
      "type": "event"
    },
    {
      "inputs": [
        {
          "internalType": "address[]",
          "name": "cTokens",
          "type": "address[]"
        }
      ],
      "name": "_addCompMarkets",
      "outputs": [],
      "stateMutability": "nonpayable",
      "type": "function"
    },
    {
      "inputs": [
        {
          "internalType": "contract Unitroller",
          "name": "unitroller",
          "type": "address"
        }
      ],
      "name": "_become",
      "outputs": [],
      "stateMutability": "nonpayable",
      "type": "function"
    },
    {
      "inputs": [],
      "name": "_borrowGuardianPaused",
      "outputs": [
        {
          "internalType": "bool",
          "name": "",
          "type": "bool"
        }
      ],
      "stateMutability": "view",
      "type": "function"
    },
    {
      "inputs": [
        {
          "internalType": "address",
          "name": "cToken",
          "type": "address"
        }
      ],
      "name": "_dropCompMarket",
      "outputs": [],
      "stateMutability": "nonpayable",
      "type": "function"
    },
    {
      "inputs": [
        {
          "internalType": "address",
          "name": "recipient",
          "type": "address"
        },
        {
          "internalType": "uint256",
          "name": "amount",
          "type": "uint256"
        }
      ],
      "name": "_grantComp",
      "outputs": [],
      "stateMutability": "nonpayable",
      "type": "function"
    },
    {
      "inputs": [],
      "name": "_mintGuardianPaused",
      "outputs": [
        {
          "internalType": "bool",
          "name": "",
          "type": "bool"
        }
      ],
      "stateMutability": "view",
      "type": "function"
    },
    {
      "inputs": [
        {
          "internalType": "address",
          "name": "newBorrowCapGuardian",
          "type": "address"
        }
      ],
      "name": "_setBorrowCapGuardian",
      "outputs": [],
      "stateMutability": "nonpayable",
      "type": "function"
    },
    {
      "inputs": [
        {
          "internalType": "contract CToken",
          "name": "cToken",
          "type": "address"
        },
        {
          "internalType": "bool",
          "name": "state",
          "type": "bool"
        }
      ],
      "name": "_setBorrowPaused",
      "outputs": [
        {
          "internalType": "bool",
          "name": "",
          "type": "bool"
        }
      ],
      "stateMutability": "nonpayable",
      "type": "function"
    },
    {
      "inputs": [
        {
          "internalType": "uint256",
          "name": "newCloseFactorMantissa",
          "type": "uint256"
        }
      ],
      "name": "_setCloseFactor",
      "outputs": [
        {
          "internalType": "uint256",
          "name": "",
          "type": "uint256"
        }
      ],
      "stateMutability": "nonpayable",
      "type": "function"
    },
    {
      "inputs": [
        {
          "internalType": "contract CToken",
          "name": "cToken",
          "type": "address"
        },
        {
          "internalType": "uint256",
          "name": "newCollateralFactorMantissa",
          "type": "uint256"
        }
      ],
      "name": "_setCollateralFactor",
      "outputs": [
        {
          "internalType": "uint256",
          "name": "",
          "type": "uint256"
        }
      ],
      "stateMutability": "nonpayable",
      "type": "function"
    },
    {
      "inputs": [
        {
          "internalType": "uint256",
          "name": "compRate_",
          "type": "uint256"
        }
      ],
      "name": "_setCompRate",
      "outputs": [],
      "stateMutability": "nonpayable",
      "type": "function"
    },
    {
      "inputs": [
        {
          "internalType": "uint256",
          "name": "newLiquidationIncentiveMantissa",
          "type": "uint256"
        }
      ],
      "name": "_setLiquidationIncentive",
      "outputs": [
        {
          "internalType": "uint256",
          "name": "",
          "type": "uint256"
        }
      ],
      "stateMutability": "nonpayable",
      "type": "function"
    },
    {
      "inputs": [
        {
          "internalType": "contract CToken[]",
          "name": "cTokens",
          "type": "address[]"
        },
        {
          "internalType": "uint256[]",
          "name": "newBorrowCaps",
          "type": "uint256[]"
        }
      ],
      "name": "_setMarketBorrowCaps",
      "outputs": [],
      "stateMutability": "nonpayable",
      "type": "function"
    },
    {
      "inputs": [
        {
          "internalType": "contract CToken",
          "name": "cToken",
          "type": "address"
        },
        {
          "internalType": "bool",
          "name": "state",
          "type": "bool"
        }
      ],
      "name": "_setMintPaused",
      "outputs": [
        {
          "internalType": "bool",
          "name": "",
          "type": "bool"
        }
      ],
      "stateMutability": "nonpayable",
      "type": "function"
    },
    {
      "inputs": [
        {
          "internalType": "address",
          "name": "newPauseGuardian",
          "type": "address"
        }
      ],
      "name": "_setPauseGuardian",
      "outputs": [
        {
          "internalType": "uint256",
          "name": "",
          "type": "uint256"
        }
      ],
      "stateMutability": "nonpayable",
      "type": "function"
    },
    {
      "inputs": [
        {
          "internalType": "contract PriceOracle",
          "name": "newOracle",
          "type": "address"
        }
      ],
      "name": "_setPriceOracle",
      "outputs": [
        {
          "internalType": "uint256",
          "name": "",
          "type": "uint256"
        }
      ],
      "stateMutability": "nonpayable",
      "type": "function"
    },
    {
      "inputs": [
        {
          "internalType": "bool",
          "name": "state",
          "type": "bool"
        }
      ],
      "name": "_setSeizePaused",
      "outputs": [
        {
          "internalType": "bool",
          "name": "",
          "type": "bool"
        }
      ],
      "stateMutability": "nonpayable",
      "type": "function"
    },
    {
      "inputs": [
        {
          "internalType": "bool",
          "name": "state",
          "type": "bool"
        }
      ],
      "name": "_setTransferPaused",
      "outputs": [
        {
          "internalType": "bool",
          "name": "",
          "type": "bool"
        }
      ],
      "stateMutability": "nonpayable",
      "type": "function"
    },
    {
      "inputs": [
        {
          "internalType": "address",
          "name": "cToken",
          "type": "address"
        }
      ],
      "name": "_supportMarket",
      "outputs": [
        {
          "internalType": "uint256",
          "name": "",
          "type": "uint256"
        }
      ],
      "stateMutability": "nonpayable",
      "type": "function"
    },
    {
      "inputs": [
        {
          "internalType": "address",
          "name": "",
          "type": "address"
        },
        {
          "internalType": "uint256",
          "name": "",
          "type": "uint256"
        }
      ],
      "name": "accountAssets",
      "outputs": [
        {
          "internalType": "contract CToken",
          "name": "",
          "type": "address"
        }
      ],
      "stateMutability": "view",
      "type": "function"
    },
    {
      "inputs": [],
      "name": "admin",
      "outputs": [
        {
          "internalType": "address",
          "name": "",
          "type": "address"
        }
      ],
      "stateMutability": "view",
      "type": "function"
    },
    {
      "inputs": [
        {
          "internalType": "uint256",
          "name": "",
          "type": "uint256"
        }
      ],
      "name": "allMarkets",
      "outputs": [
        {
          "internalType": "contract CToken",
          "name": "",
          "type": "address"
        }
      ],
      "stateMutability": "view",
      "type": "function"
    },
    {
      "inputs": [
        {
          "internalType": "address",
          "name": "cToken",
          "type": "address"
        },
        {
          "internalType": "address",
          "name": "borrower",
          "type": "address"
        },
        {
          "internalType": "uint256",
          "name": "borrowAmount",
          "type": "uint256"
        }
      ],
      "name": "borrowAllowed",
      "outputs": [
        {
          "internalType": "uint256",
          "name": "",
          "type": "uint256"
        }
      ],
      "stateMutability": "nonpayable",
      "type": "function"
    },
    {
      "inputs": [],
      "name": "borrowCapGuardian",
      "outputs": [
        {
          "internalType": "address",
          "name": "",
          "type": "address"
        }
      ],
      "stateMutability": "view",
      "type": "function"
    },
    {
      "inputs": [
        {
          "internalType": "address",
          "name": "",
          "type": "address"
        }
      ],
      "name": "borrowCaps",
      "outputs": [
        {
          "internalType": "uint256",
          "name": "",
          "type": "uint256"
        }
      ],
      "stateMutability": "view",
      "type": "function"
    },
    {
      "inputs": [
        {
          "internalType": "address",
          "name": "",
          "type": "address"
        }
      ],
      "name": "borrowGuardianPaused",
      "outputs": [
        {
          "internalType": "bool",
          "name": "",
          "type": "bool"
        }
      ],
      "stateMutability": "view",
      "type": "function"
    },
    {
      "inputs": [
        {
          "internalType": "address",
          "name": "cToken",
          "type": "address"
        },
        {
          "internalType": "address",
          "name": "borrower",
          "type": "address"
        },
        {
          "internalType": "uint256",
          "name": "borrowAmount",
          "type": "uint256"
        }
      ],
      "name": "borrowVerify",
      "outputs": [],
      "stateMutability": "nonpayable",
      "type": "function"
    },
    {
      "inputs": [
        {
          "internalType": "address",
          "name": "account",
          "type": "address"
        },
        {
          "internalType": "contract CToken",
          "name": "cToken",
          "type": "address"
        }
      ],
      "name": "checkMembership",
      "outputs": [
        {
          "internalType": "bool",
          "name": "",
          "type": "bool"
        }
      ],
      "stateMutability": "view",
      "type": "function"
    },
    {
      "inputs": [
        {
          "internalType": "address",
          "name": "holder",
          "type": "address"
        },
        {
          "internalType": "contract CToken[]",
          "name": "cTokens",
          "type": "address[]"
        }
      ],
      "name": "claimComp",
      "outputs": [],
      "stateMutability": "nonpayable",
      "type": "function"
    },
    {
      "inputs": [
        {
          "internalType": "address[]",
          "name": "holders",
          "type": "address[]"
        },
        {
          "internalType": "contract CToken[]",
          "name": "cTokens",
          "type": "address[]"
        },
        {
          "internalType": "bool",
          "name": "borrowers",
          "type": "bool"
        },
        {
          "internalType": "bool",
          "name": "suppliers",
          "type": "bool"
        }
      ],
      "name": "claimComp",
      "outputs": [],
      "stateMutability": "nonpayable",
      "type": "function"
    },
    {
      "inputs": [
        {
          "internalType": "address",
          "name": "holder",
          "type": "address"
        }
      ],
      "name": "claimComp",
      "outputs": [],
      "stateMutability": "nonpayable",
      "type": "function"
    },
    {
      "inputs": [],
      "name": "closeFactorMantissa",
      "outputs": [
        {
          "internalType": "uint256",
          "name": "",
          "type": "uint256"
        }
      ],
      "stateMutability": "view",
      "type": "function"
    },
    {
      "inputs": [
        {
          "internalType": "address",
          "name": "",
          "type": "address"
        }
      ],
      "name": "compAccrued",
      "outputs": [
        {
          "internalType": "uint256",
          "name": "",
          "type": "uint256"
        }
      ],
      "stateMutability": "view",
      "type": "function"
    },
    {
      "inputs": [
        {
          "internalType": "address",
          "name": "",
          "type": "address"
        }
      ],
      "name": "compBorrowState",
      "outputs": [
        {
          "internalType": "uint224",
          "name": "index",
          "type": "uint224"
        },
        {
          "internalType": "uint32",
          "name": "block",
          "type": "uint32"
        }
      ],
      "stateMutability": "view",
      "type": "function"
    },
    {
      "inputs": [
        {
          "internalType": "address",
          "name": "",
          "type": "address"
        },
        {
          "internalType": "address",
          "name": "",
          "type": "address"
        }
      ],
      "name": "compBorrowerIndex",
      "outputs": [
        {
          "internalType": "uint256",
          "name": "",
          "type": "uint256"
        }
      ],
      "stateMutability": "view",
      "type": "function"
    },
    {
      "inputs": [],
      "name": "compClaimThreshold",
      "outputs": [
        {
          "internalType": "uint256",
          "name": "",
          "type": "uint256"
        }
      ],
      "stateMutability": "view",
      "type": "function"
    },
    {
      "inputs": [],
      "name": "compInitialIndex",
      "outputs": [
        {
          "internalType": "uint224",
          "name": "",
          "type": "uint224"
        }
      ],
      "stateMutability": "view",
      "type": "function"
    },
    {
      "inputs": [],
      "name": "compRate",
      "outputs": [
        {
          "internalType": "uint256",
          "name": "",
          "type": "uint256"
        }
      ],
      "stateMutability": "view",
      "type": "function"
    },
    {
      "inputs": [
        {
          "internalType": "address",
          "name": "",
          "type": "address"
        }
      ],
      "name": "compSpeeds",
      "outputs": [
        {
          "internalType": "uint256",
          "name": "",
          "type": "uint256"
        }
      ],
      "stateMutability": "view",
      "type": "function"
    },
    {
      "inputs": [
        {
          "internalType": "address",
          "name": "",
          "type": "address"
        },
        {
          "internalType": "address",
          "name": "",
          "type": "address"
        }
      ],
      "name": "compSupplierIndex",
      "outputs": [
        {
          "internalType": "uint256",
          "name": "",
          "type": "uint256"
        }
      ],
      "stateMutability": "view",
      "type": "function"
    },
    {
      "inputs": [
        {
          "internalType": "address",
          "name": "",
          "type": "address"
        }
      ],
      "name": "compSupplyState",
      "outputs": [
        {
          "internalType": "uint224",
          "name": "index",
          "type": "uint224"
        },
        {
          "internalType": "uint32",
          "name": "block",
          "type": "uint32"
        }
      ],
      "stateMutability": "view",
      "type": "function"
    },
    {
      "inputs": [],
      "name": "comptrollerImplementation",
      "outputs": [
        {
          "internalType": "address",
          "name": "",
          "type": "address"
        }
      ],
      "stateMutability": "view",
      "type": "function"
    },
    {
      "inputs": [
        {
          "internalType": "address[]",
          "name": "cTokens",
          "type": "address[]"
        }
      ],
      "name": "enterMarkets",
      "outputs": [
        {
          "internalType": "uint256[]",
          "name": "",
          "type": "uint256[]"
        }
      ],
      "stateMutability": "nonpayable",
      "type": "function"
    },
    {
      "inputs": [
        {
          "internalType": "address",
          "name": "cTokenAddress",
          "type": "address"
        }
      ],
      "name": "exitMarket",
      "outputs": [
        {
          "internalType": "uint256",
          "name": "",
          "type": "uint256"
        }
      ],
      "stateMutability": "nonpayable",
      "type": "function"
    },
    {
      "inputs": [
        {
          "internalType": "address",
          "name": "account",
          "type": "address"
        }
      ],
      "name": "getAccountLiquidity",
      "outputs": [
        {
          "internalType": "uint256",
          "name": "",
          "type": "uint256"
        },
        {
          "internalType": "uint256",
          "name": "",
          "type": "uint256"
        },
        {
          "internalType": "uint256",
          "name": "",
          "type": "uint256"
        }
      ],
      "stateMutability": "view",
      "type": "function"
    },
    {
      "inputs": [],
      "name": "getAllMarkets",
      "outputs": [
        {
          "internalType": "contract CToken[]",
          "name": "",
          "type": "address[]"
        }
      ],
      "stateMutability": "view",
      "type": "function"
    },
    {
      "inputs": [
        {
          "internalType": "address",
          "name": "account",
          "type": "address"
        }
      ],
      "name": "getAssetsIn",
      "outputs": [
        {
          "internalType": "contract CToken[]",
          "name": "",
          "type": "address[]"
        }
      ],
      "stateMutability": "view",
      "type": "function"
    },
    {
      "inputs": [],
      "name": "getBlockNumber",
      "outputs": [
        {
          "internalType": "uint256",
          "name": "",
          "type": "uint256"
        }
      ],
      "stateMutability": "view",
      "type": "function"
    },
    {
      "inputs": [
        {
          "internalType": "address",
          "name": "token",
          "type": "address"
        }
      ],
      "name": "getCTokenAddress",
      "outputs": [
        {
          "internalType": "address",
          "name": "",
          "type": "address"
        }
      ],
      "stateMutability": "pure",
      "type": "function"
    },
    {
      "inputs": [],
      "name": "getCompAddress",
      "outputs": [
        {
          "internalType": "address",
          "name": "",
          "type": "address"
        }
      ],
      "stateMutability": "pure",
      "type": "function"
    },
    {
      "inputs": [
        {
          "internalType": "address",
          "name": "account",
          "type": "address"
        },
        {
          "internalType": "address",
          "name": "cTokenModify",
          "type": "address"
        },
        {
          "internalType": "uint256",
          "name": "redeemTokens",
          "type": "uint256"
        },
        {
          "internalType": "uint256",
          "name": "borrowAmount",
          "type": "uint256"
        }
      ],
      "name": "getHypotheticalAccountLiquidity",
      "outputs": [
        {
          "internalType": "uint256",
          "name": "",
          "type": "uint256"
        },
        {
          "internalType": "uint256",
          "name": "",
          "type": "uint256"
        },
        {
          "internalType": "uint256",
          "name": "",
          "type": "uint256"
        }
      ],
      "stateMutability": "view",
      "type": "function"
    },
    {
      "inputs": [],
      "name": "isComptroller",
      "outputs": [
        {
          "internalType": "bool",
          "name": "",
          "type": "bool"
        }
      ],
      "stateMutability": "view",
      "type": "function"
    },
    {
      "inputs": [
        {
          "internalType": "address",
          "name": "cTokenBorrowed",
          "type": "address"
        },
        {
          "internalType": "address",
          "name": "cTokenCollateral",
          "type": "address"
        },
        {
          "internalType": "address",
          "name": "liquidator",
          "type": "address"
        },
        {
          "internalType": "address",
          "name": "borrower",
          "type": "address"
        },
        {
          "internalType": "uint256",
          "name": "repayAmount",
          "type": "uint256"
        }
      ],
      "name": "liquidateBorrowAllowed",
      "outputs": [
        {
          "internalType": "uint256",
          "name": "",
          "type": "uint256"
        }
      ],
      "stateMutability": "view",
      "type": "function"
    },
    {
      "inputs": [
        {
          "internalType": "address",
          "name": "cTokenBorrowed",
          "type": "address"
        },
        {
          "internalType": "address",
          "name": "cTokenCollateral",
          "type": "address"
        },
        {
          "internalType": "address",
          "name": "liquidator",
          "type": "address"
        },
        {
          "internalType": "address",
          "name": "borrower",
          "type": "address"
        },
        {
          "internalType": "uint256",
          "name": "actualRepayAmount",
          "type": "uint256"
        },
        {
          "internalType": "uint256",
          "name": "seizeTokens",
          "type": "uint256"
        }
      ],
      "name": "liquidateBorrowVerify",
      "outputs": [],
      "stateMutability": "nonpayable",
      "type": "function"
    },
    {
      "inputs": [
        {
          "internalType": "address",
          "name": "cTokenBorrowed",
          "type": "address"
        },
        {
          "internalType": "address",
          "name": "cTokenCollateral",
          "type": "address"
        },
        {
          "internalType": "uint256",
          "name": "actualRepayAmount",
          "type": "uint256"
        }
      ],
      "name": "liquidateCalculateSeizeTokens",
      "outputs": [
        {
          "internalType": "uint256",
          "name": "",
          "type": "uint256"
        },
        {
          "internalType": "uint256",
          "name": "",
          "type": "uint256"
        }
      ],
      "stateMutability": "view",
      "type": "function"
    },
    {
      "inputs": [],
      "name": "liquidationIncentiveMantissa",
      "outputs": [
        {
          "internalType": "uint256",
          "name": "",
          "type": "uint256"
        }
      ],
      "stateMutability": "view",
      "type": "function"
    },
    {
      "inputs": [
        {
          "internalType": "address",
          "name": "",
          "type": "address"
        }
      ],
      "name": "markets",
      "outputs": [
        {
          "internalType": "bool",
          "name": "isListed",
          "type": "bool"
        },
        {
          "internalType": "uint256",
          "name": "collateralFactorMantissa",
          "type": "uint256"
        },
        {
          "internalType": "bool",
          "name": "isComped",
          "type": "bool"
        }
      ],
      "stateMutability": "view",
      "type": "function"
    },
    {
      "inputs": [],
      "name": "maxAssets",
      "outputs": [
        {
          "internalType": "uint256",
          "name": "",
          "type": "uint256"
        }
      ],
      "stateMutability": "view",
      "type": "function"
    },
    {
      "inputs": [
        {
          "internalType": "address",
          "name": "cToken",
          "type": "address"
        },
        {
          "internalType": "address",
          "name": "minter",
          "type": "address"
        },
        {
          "internalType": "uint256",
          "name": "mintAmount",
          "type": "uint256"
        }
      ],
      "name": "mintAllowed",
      "outputs": [
        {
          "internalType": "uint256",
          "name": "",
          "type": "uint256"
        }
      ],
      "stateMutability": "nonpayable",
      "type": "function"
    },
    {
      "inputs": [
        {
          "internalType": "address",
          "name": "",
          "type": "address"
        }
      ],
      "name": "mintGuardianPaused",
      "outputs": [
        {
          "internalType": "bool",
          "name": "",
          "type": "bool"
        }
      ],
      "stateMutability": "view",
      "type": "function"
    },
    {
      "inputs": [
        {
          "internalType": "address",
          "name": "cToken",
          "type": "address"
        },
        {
          "internalType": "address",
          "name": "minter",
          "type": "address"
        },
        {
          "internalType": "uint256",
          "name": "actualMintAmount",
          "type": "uint256"
        },
        {
          "internalType": "uint256",
          "name": "mintTokens",
          "type": "uint256"
        }
      ],
      "name": "mintVerify",
      "outputs": [],
      "stateMutability": "nonpayable",
      "type": "function"
    },
    {
      "inputs": [],
      "name": "oracle",
      "outputs": [
        {
          "internalType": "contract PriceOracle",
          "name": "",
          "type": "address"
        }
      ],
      "stateMutability": "view",
      "type": "function"
    },
    {
      "inputs": [],
      "name": "pauseGuardian",
      "outputs": [
        {
          "internalType": "address",
          "name": "",
          "type": "address"
        }
      ],
      "stateMutability": "view",
      "type": "function"
    },
    {
      "inputs": [],
      "name": "pendingAdmin",
      "outputs": [
        {
          "internalType": "address",
          "name": "",
          "type": "address"
        }
      ],
      "stateMutability": "view",
      "type": "function"
    },
    {
      "inputs": [],
      "name": "pendingComptrollerImplementation",
      "outputs": [
        {
          "internalType": "address",
          "name": "",
          "type": "address"
        }
      ],
      "stateMutability": "view",
      "type": "function"
    },
    {
      "inputs": [
        {
          "internalType": "address",
          "name": "cToken",
          "type": "address"
        },
        {
          "internalType": "address",
          "name": "redeemer",
          "type": "address"
        },
        {
          "internalType": "uint256",
          "name": "redeemTokens",
          "type": "uint256"
        }
      ],
      "name": "redeemAllowed",
      "outputs": [
        {
          "internalType": "uint256",
          "name": "",
          "type": "uint256"
        }
      ],
      "stateMutability": "nonpayable",
      "type": "function"
    },
    {
      "inputs": [
        {
          "internalType": "address",
          "name": "cToken",
          "type": "address"
        },
        {
          "internalType": "address",
          "name": "redeemer",
          "type": "address"
        },
        {
          "internalType": "uint256",
          "name": "redeemAmount",
          "type": "uint256"
        },
        {
          "internalType": "uint256",
          "name": "redeemTokens",
          "type": "uint256"
        }
      ],
      "name": "redeemVerify",
      "outputs": [],
      "stateMutability": "pure",
      "type": "function"
    },
    {
      "inputs": [],
      "name": "refreshCompSpeeds",
      "outputs": [],
      "stateMutability": "nonpayable",
      "type": "function"
    },
    {
      "inputs": [
        {
          "internalType": "address",
          "name": "cToken",
          "type": "address"
        },
        {
          "internalType": "address",
          "name": "payer",
          "type": "address"
        },
        {
          "internalType": "address",
          "name": "borrower",
          "type": "address"
        },
        {
          "internalType": "uint256",
          "name": "repayAmount",
          "type": "uint256"
        }
      ],
      "name": "repayBorrowAllowed",
      "outputs": [
        {
          "internalType": "uint256",
          "name": "",
          "type": "uint256"
        }
      ],
      "stateMutability": "nonpayable",
      "type": "function"
    },
    {
      "inputs": [
        {
          "internalType": "address",
          "name": "cToken",
          "type": "address"
        },
        {
          "internalType": "address",
          "name": "payer",
          "type": "address"
        },
        {
          "internalType": "address",
          "name": "borrower",
          "type": "address"
        },
        {
          "internalType": "uint256",
          "name": "actualRepayAmount",
          "type": "uint256"
        },
        {
          "internalType": "uint256",
          "name": "borrowerIndex",
          "type": "uint256"
        }
      ],
      "name": "repayBorrowVerify",
      "outputs": [],
      "stateMutability": "nonpayable",
      "type": "function"
    },
    {
      "inputs": [
        {
          "internalType": "address",
          "name": "cTokenCollateral",
          "type": "address"
        },
        {
          "internalType": "address",
          "name": "cTokenBorrowed",
          "type": "address"
        },
        {
          "internalType": "address",
          "name": "liquidator",
          "type": "address"
        },
        {
          "internalType": "address",
          "name": "borrower",
          "type": "address"
        },
        {
          "internalType": "uint256",
          "name": "seizeTokens",
          "type": "uint256"
        }
      ],
      "name": "seizeAllowed",
      "outputs": [
        {
          "internalType": "uint256",
          "name": "",
          "type": "uint256"
        }
      ],
      "stateMutability": "nonpayable",
      "type": "function"
    },
    {
      "inputs": [],
      "name": "seizeGuardianPaused",
      "outputs": [
        {
          "internalType": "bool",
          "name": "",
          "type": "bool"
        }
      ],
      "stateMutability": "view",
      "type": "function"
    },
    {
      "inputs": [
        {
          "internalType": "address",
          "name": "cTokenCollateral",
          "type": "address"
        },
        {
          "internalType": "address",
          "name": "cTokenBorrowed",
          "type": "address"
        },
        {
          "internalType": "address",
          "name": "liquidator",
          "type": "address"
        },
        {
          "internalType": "address",
          "name": "borrower",
          "type": "address"
        },
        {
          "internalType": "uint256",
          "name": "seizeTokens",
          "type": "uint256"
        }
      ],
      "name": "seizeVerify",
      "outputs": [],
      "stateMutability": "nonpayable",
      "type": "function"
    },
    {
      "inputs": [
        {
          "internalType": "address",
          "name": "cToken",
          "type": "address"
        },
        {
          "internalType": "address",
          "name": "src",
          "type": "address"
        },
        {
          "internalType": "address",
          "name": "dst",
          "type": "address"
        },
        {
          "internalType": "uint256",
          "name": "transferTokens",
          "type": "uint256"
        }
      ],
      "name": "transferAllowed",
      "outputs": [
        {
          "internalType": "uint256",
          "name": "",
          "type": "uint256"
        }
      ],
      "stateMutability": "nonpayable",
      "type": "function"
    },
    {
      "inputs": [],
      "name": "transferGuardianPaused",
      "outputs": [
        {
          "internalType": "bool",
          "name": "",
          "type": "bool"
        }
      ],
      "stateMutability": "view",
      "type": "function"
    },
    {
      "inputs": [
        {
          "internalType": "address",
          "name": "cToken",
          "type": "address"
        },
        {
          "internalType": "address",
          "name": "src",
          "type": "address"
        },
        {
          "internalType": "address",
          "name": "dst",
          "type": "address"
        },
        {
          "internalType": "uint256",
          "name": "transferTokens",
          "type": "uint256"
        }
      ],
      "name": "transferVerify",
      "outputs": [],
      "stateMutability": "nonpayable",
      "type": "function"
    }
  ],
  "transactionHash": "0xbdc775c845371ee31f3ef13c8f834eb72449f7b7e2e8307139195839712760a4",
  "args": [],
  "solcInputHash": "265f4fcef6d9407fde017e30d0f4ff90",
  "bytecode": "0x608060405234801561001057600080fd5b50600080546001600160a01b03191633179055615d1180620000336000396000f3fe608060405234801561001057600080fd5b50600436106105135760003560e01c80636b79c38d116102a1578063b21be7fd1161016b578063da3d454c116100e3578063e875544611610097578063eabe7d911161007c578063eabe7d9114611344578063ede4edd01461137a578063f851a440146113a057610513565b8063e875544614611316578063e9af02921461131e57610513565b8063dcfbc0c7116100c8578063dcfbc0c7146112da578063e4028eee146112e2578063e6653f3d1461130e57610513565b8063da3d454c14611278578063dce15449146112ae57610513565b8063c488847b1161013a578063cc7ebdc41161011f578063cc7ebdc414611169578063ce485c5e1461118f578063d02f73511461123257610513565b8063c488847b146110ec578063ca0af0431461113b57610513565b8063b21be7fd14610fd7578063bb82aa5e14611005578063bdcdc2581461100d578063c29982381461104957610513565b80638ebf636411610219578063a7f0e231116101cd578063abfceffc116101b2578063abfceffc14610f51578063ac0b0bb714610fc7578063b0772d0b14610fcf57610513565b8063a7f0e23114610f25578063aa90075414610f4957610513565b806394b2294b116101fe57806394b2294b14610eef5780639d1b5a0a14610ef7578063a76b3fda14610eff57610513565b80638ebf636414610ea2578063929fe9a114610ec157610513565b8063747026c91161027057806387f763031161025557806387f7630314610e2c5780638c57804e14610e345780638e8f294b14610e5a57610513565b8063747026c914610e1c5780637dc0d1d014610e2457610513565b80636b79c38d14610d3c5780636d154ea514610d8a5780636d35bf9114610db0578063731f0c2b14610df657610513565b806342cbb15c116103e257806352d84d1e1161035a5780635fc7e71e1161030e5780636810dfa6116102f35780636810dfa614610bb35780636a49111214610ce35780636a56947e14610d0057610513565b80635fc7e71e14610aab578063607ef6c114610af157610513565b80635c7786051161033f5780635c77860514610a295780635ec88c7914610a5f5780635f5af1aa14610a8557610513565b806352d84d1e146109e657806355ee1fe114610a0357610513565b80634d8e5037116103b15780634ef4c3e1116103965780634ef4c3e1146109575780634fd42e171461098d57806351dff989146109aa57610513565b80634d8e5037146108f55780634e79238f146108fd57610513565b806342cbb15c1461087357806347ef3b3b1461087b5780634a584432146108c75780634ada90af146108ed57610513565b80632678224711610490578063391957d7116104445780633bcf7ec1116104295780633bcf7ec1146108015780633c94786f1461082f57806341c728b91461083757610513565b8063391957d7146107b55780633aa729b4146107db57610513565b806327efe3cb1161047557806327efe3cb1461074d5780632d70db7814610779578063317b0b771461079857610513565b8063267822471461071f57806326c7bd931461072757610513565b80631d7b33d7116104e757806321af4569116104cc57806321af4569146106b757806324008a62146106db57806324a3d6221461071757610513565b80631d7b33d71461063d5780631ededc911461067557610513565b80627e3dd21461051857806318c882a5146105345780631c3db2e0146105625780631d504dc614610617575b600080fd5b6105206113a8565b604080519115158252519081900360200190f35b6105206004803603604081101561054a57600080fd5b506001600160a01b03813516906020013515156113ad565b6106156004803603604081101561057857600080fd5b6001600160a01b0382351691908101906040810160208201356401000000008111156105a357600080fd5b8201836020820111156105b557600080fd5b803590602001918460208302840111640100000000831117156105d757600080fd5b91908080602002602001604051908101604052809392919081815260200183836020028082843760009201919091525092955061156b945050505050565b005b6106156004803603602081101561062d57600080fd5b50356001600160a01b03166115cd565b6106636004803603602081101561065357600080fd5b50356001600160a01b0316611734565b60408051918252519081900360200190f35b610615600480360360a081101561068b57600080fd5b506001600160a01b03813581169160208101358216916040820135169060608101359060800135611746565b6106bf61174d565b604080516001600160a01b039092168252519081900360200190f35b610663600480360360808110156106f157600080fd5b506001600160a01b0381358116916020810135821691604082013516906060013561175c565b6106bf61181f565b6106bf61182e565b6106bf6004803603602081101561073d57600080fd5b50356001600160a01b031661183d565b6106156004803603604081101561076357600080fd5b506001600160a01b038135169060200135611858565b6105206004803603602081101561078f57600080fd5b5035151561195b565b610663600480360360208110156107ae57600080fd5b5035611acb565b610615600480360360208110156107cb57600080fd5b50356001600160a01b0316611b78565b610615600480360360208110156107f157600080fd5b50356001600160a01b0316611c24565b6105206004803603604081101561081757600080fd5b506001600160a01b0381351690602001351515611d55565b610520611f10565b6106156004803603608081101561084d57600080fd5b506001600160a01b03813581169160208101359091169060408101359060600135611f31565b610663611f37565b610615600480360360c081101561089157600080fd5b506001600160a01b0381358116916020810135821691604082013581169160608101359091169060808101359060a00135611f3b565b610663600480360360208110156108dd57600080fd5b50356001600160a01b0316611f43565b610663611f55565b610615611f5b565b6109396004803603608081101561091357600080fd5b506001600160a01b03813581169160208101359091169060408101359060600135611fa3565b60408051938452602084019290925282820152519081900360600190f35b6106636004803603606081101561096d57600080fd5b506001600160a01b03813581169160208101359091169060400135611fdd565b610663600480360360208110156109a357600080fd5b503561206a565b610615600480360360808110156109c057600080fd5b506001600160a01b038135811691602081013590911690604081013590606001356120da565b6106bf600480360360208110156109fc57600080fd5b503561213a565b61066360048036036020811015610a1957600080fd5b50356001600160a01b0316612164565b61061560048036036060811015610a3f57600080fd5b506001600160a01b038135811691602081013590911690604001356121e9565b61093960048036036020811015610a7557600080fd5b50356001600160a01b03166121ee565b61066360048036036020811015610a9b57600080fd5b50356001600160a01b0316612223565b610663600480360360a0811015610ac157600080fd5b506001600160a01b03813581169160208101358216916040820135811691606081013590911690608001356122a7565b61061560048036036040811015610b0757600080fd5b810190602081018135640100000000811115610b2257600080fd5b820183602082011115610b3457600080fd5b80359060200191846020830284011164010000000083111715610b5657600080fd5b919390929091602081019035640100000000811115610b7457600080fd5b820183602082011115610b8657600080fd5b80359060200191846020830284011164010000000083111715610ba857600080fd5b509092509050612403565b61061560048036036080811015610bc957600080fd5b810190602081018135640100000000811115610be457600080fd5b820183602082011115610bf657600080fd5b80359060200191846020830284011164010000000083111715610c1857600080fd5b9190808060200260200160405190810160405280939291908181526020018383602002808284376000920191909152509295949360208101935035915050640100000000811115610c6857600080fd5b820183602082011115610c7a57600080fd5b80359060200191846020830284011164010000000083111715610c9c57600080fd5b9190808060200260200160405190810160405280939291908181526020018383602002808284376000920191909152509295505050508035151591506020013515156125a3565b61061560048036036020811015610cf957600080fd5b503561274e565b61061560048036036080811015610d1657600080fd5b506001600160a01b03813581169160208101358216916040820135169060600135611f31565b610d6260048036036020811015610d5257600080fd5b50356001600160a01b03166127f2565b604080516001600160e01b03909316835263ffffffff90911660208301528051918290030190f35b61052060048036036020811015610da057600080fd5b50356001600160a01b031661281c565b610615600480360360a0811015610dc657600080fd5b506001600160a01b0381358116916020810135821691604082013581169160608101359091169060800135611746565b61052060048036036020811015610e0c57600080fd5b50356001600160a01b0316612831565b610663612846565b6106bf612851565b610520612860565b610d6260048036036020811015610e4a57600080fd5b50356001600160a01b0316612870565b610e8060048036036020811015610e7057600080fd5b50356001600160a01b031661289a565b6040805193151584526020840192909252151582820152519081900360600190f35b61052060048036036020811015610eb857600080fd5b503515156128c0565b61052060048036036040811015610ed757600080fd5b506001600160a01b0381358116916020013516612a30565b610663612a63565b6106bf612a69565b61066360048036036020811015610f1557600080fd5b50356001600160a01b0316612a81565b610f2d612b97565b604080516001600160e01b039092168252519081900360200190f35b610663612baa565b610f7760048036036020811015610f6757600080fd5b50356001600160a01b0316612bb0565b60408051602080825283518183015283519192839290830191858101910280838360005b83811015610fb3578181015183820152602001610f9b565b505050509050019250505060405180910390f35b610520612c26565b610f77612c36565b61066360048036036040811015610fed57600080fd5b506001600160a01b0381358116916020013516612c98565b6106bf612cb5565b6106636004803603608081101561102357600080fd5b506001600160a01b03813581169160208101358216916040820135169060600135612cc4565b610f776004803603602081101561105f57600080fd5b81019060208101813564010000000081111561107a57600080fd5b82018360208201111561108c57600080fd5b803590602001918460208302840111640100000000831117156110ae57600080fd5b919080806020026020016040519081016040528093929190818152602001838360200280828437600092019190915250929550612d63945050505050565b6111226004803603606081101561110257600080fd5b506001600160a01b03813581169160208101359091169060400135612e0e565b6040805192835260208301919091528051918290030190f35b6106636004803603604081101561115157600080fd5b506001600160a01b0381358116916020013516613046565b6106636004803603602081101561117f57600080fd5b50356001600160a01b0316613063565b610615600480360360208110156111a557600080fd5b8101906020810181356401000000008111156111c057600080fd5b8201836020820111156111d257600080fd5b803590602001918460208302840111640100000000831117156111f457600080fd5b919080806020026020016040519081016040528093929190818152602001838360200280828437600092019190915250929550613075945050505050565b610663600480360360a081101561124857600080fd5b506001600160a01b0381358116916020810135821691604082013581169160608101359091169060800135613107565b6106636004803603606081101561128e57600080fd5b506001600160a01b038135811691602081013590911690604001356132e6565b6106bf600480360360408110156112c457600080fd5b506001600160a01b0381351690602001356136e5565b6106bf61371d565b610663600480360360408110156112f857600080fd5b506001600160a01b03813516906020013561372c565b6105206138d9565b6106636138fb565b6106156004803603602081101561133457600080fd5b50356001600160a01b0316613901565b6106636004803603606081101561135a57600080fd5b506001600160a01b03813581169160208101359091169060400135613965565b6106636004803603602081101561139057600080fd5b50356001600160a01b03166139a2565b6106bf613cd2565b600181565b6001600160a01b03821660009081526009602052604081205460ff166114045760405162461bcd60e51b8152600401808060200182810382526028815260200180615bb56028913960400191505060405180910390fd5b600a546001600160a01b031633148061142757506000546001600160a01b031633145b6114625760405162461bcd60e51b8152600401808060200182810382526027815260200180615c0e6027913960400191505060405180910390fd5b6000546001600160a01b031633148061147d57506001821515145b6114ce576040805162461bcd60e51b815260206004820152601660248201527f6f6e6c792061646d696e2063616e20756e706175736500000000000000000000604482015290519081900360640190fd5b6001600160a01b0383166000818152600c6020908152604091829020805486151560ff19909116811790915582519384528383015260609083018190526006908301527f426f72726f7700000000000000000000000000000000000000000000000000006080830152517f71aec636243f9709bb0007ae15e9afb8150ab01716d75fd7573be5cc096e03b09181900360a00190a150805b92915050565b60408051600180825281830190925260009160208083019080368337019050509050828160008151811061159b57fe5b60200260200101906001600160a01b031690816001600160a01b0316815250506115c881836001806125a3565b505050565b806001600160a01b031663f851a4406040518163ffffffff1660e01b815260040160206040518083038186803b15801561160657600080fd5b505afa15801561161a573d6000803e3d6000fd5b505050506040513d602081101561163057600080fd5b50516001600160a01b031633146116785760405162461bcd60e51b8152600401808060200182810382526027815260200180615cb56027913960400191505060405180910390fd5b806001600160a01b031663c1e803346040518163ffffffff1660e01b8152600401602060405180830381600087803b1580156116b357600080fd5b505af11580156116c7573d6000803e3d6000fd5b505050506040513d60208110156116dd57600080fd5b505115611731576040805162461bcd60e51b815260206004820152601560248201527f6368616e6765206e6f7420617574686f72697a65640000000000000000000000604482015290519081900360640190fd5b50565b600f6020526000908152604090205481565b5050505050565b6015546001600160a01b031681565b6001600160a01b03841660009081526009602052604081205460ff1661178457506009611817565b60006040518060200160405280876001600160a01b031663aa5af0fd6040518163ffffffff1660e01b815260040160206040518083038186803b1580156117ca57600080fd5b505afa1580156117de573d6000803e3d6000fd5b505050506040513d60208110156117f457600080fd5b5051905290506118048682613ce1565b6118118685836000613f82565b60009150505b949350505050565b600a546001600160a01b031681565b6001546001600160a01b031681565b738f67854497218043e1f72908ffe38d0ed7f247215b919050565b61186061413f565b6118b1576040805162461bcd60e51b815260206004820152601860248201527f6f6e6c792061646d696e2063616e206772616e74204c48420000000000000000604482015290519081900360640190fd5b60006118bd8383614168565b90508015611912576040805162461bcd60e51b815260206004820152601a60248201527f696e73756666696369656e74204c484220666f72206772616e74000000000000604482015290519081900360640190fd5b604080516001600160a01b03851681526020810184905281517f98b2f82a3a07f223a0be64b3d0f47711c64dccd1feafb94aa28156b38cd9695c929181900390910190a1505050565b600a546000906001600160a01b031633148061198157506000546001600160a01b031633145b6119bc5760405162461bcd60e51b8152600401808060200182810382526027815260200180615c0e6027913960400191505060405180910390fd5b6000546001600160a01b03163314806119d757506001821515145b611a28576040805162461bcd60e51b815260206004820152601660248201527f6f6e6c792061646d696e2063616e20756e706175736500000000000000000000604482015290519081900360640190fd5b600a8054831515600160b81b81027fffffffffffffffff00ffffffffffffffffffffffffffffffffffffffffffffff909216919091179091556040805160208101929092528082526005828201527f5365697a650000000000000000000000000000000000000000000000000000006060830152517f797342570fa50baf859b305038db0aa554a1bc1a7e08ea609580e1b777e0acf69181900360800190a15090565b600080546001600160a01b03163314611b2b576040805162461bcd60e51b815260206004820152601f60248201527f6f6e6c792061646d696e2063616e2073657420636c6f736520666163746f7200604482015290519081900360640190fd5b6005805490839055604080518281526020810185905281517f3b9670cf975d26958e754b57098eaa2ac914d8d2a31b83257997b9f346110fd9929181900390910190a160005b9392505050565b6000546001600160a01b03163314611bc15760405162461bcd60e51b8152600401808060200182810382526026815260200180615c356026913960400191505060405180910390fd5b601580546001600160a01b038381166001600160a01b0319831681179093556040805191909216808252602082019390935281517feda98690e518e9a05f8ec6837663e188211b2da8f4906648b323f2c1d4434e29929181900390910190a15050565b6000546001600160a01b03163314611c83576040805162461bcd60e51b815260206004820152601e60248201527f6f6e6c792061646d696e2063616e2064726f70204c4842206d61726b65740000604482015290519081900360640190fd5b6001600160a01b0381166000908152600960205260409020600381015460ff161515600114611cf9576040805162461bcd60e51b815260206004820152601a60248201527f6d61726b6574206973206e6f742061204c4842206d61726b6574000000000000604482015290519081900360640190fd5b60038101805460ff19169055604080516001600160a01b03841681526000602082015281517f93c1f3e36ed71139f466a4ce8c9751790e2e33f5afb2df0dcfb3aeabe55d5aa2929181900390910190a1611d51614291565b5050565b6001600160a01b03821660009081526009602052604081205460ff16611dac5760405162461bcd60e51b8152600401808060200182810382526028815260200180615bb56028913960400191505060405180910390fd5b600a546001600160a01b0316331480611dcf57506000546001600160a01b031633145b611e0a5760405162461bcd60e51b8152600401808060200182810382526027815260200180615c0e6027913960400191505060405180910390fd5b6000546001600160a01b0316331480611e2557506001821515145b611e76576040805162461bcd60e51b815260206004820152601660248201527f6f6e6c792061646d696e2063616e20756e706175736500000000000000000000604482015290519081900360640190fd5b6001600160a01b0383166000818152600b6020908152604091829020805486151560ff19909116811790915582519384528383015260609083018190526004908301527f4d696e74000000000000000000000000000000000000000000000000000000006080830152517f71aec636243f9709bb0007ae15e9afb8150ab01716d75fd7573be5cc096e03b09181900360a00190a150919050565b600a5474010000000000000000000000000000000000000000900460ff1681565b50505050565b4390565b505050505050565b60166020526000908152604090205481565b60065481565b333214611f995760405162461bcd60e51b8152600401808060200182810382526031815260200180615bdd6031913960400191505060405180910390fd5b611fa1614291565b565b600080600080600080611fb88a8a8a8a614670565b925092509250826011811115611fca57fe5b95509093509150505b9450945094915050565b6001600160a01b0383166000908152600b602052604081205460ff161561204b576040805162461bcd60e51b815260206004820152600e60248201527f6d696e7420697320706175736564000000000000000000000000000000000000604482015290519081900360640190fd5b6120548461499a565b61206084846000614c31565b6000949350505050565b600080546001600160a01b03163314612090576120896001600b614dfc565b9050611853565b6006805490839055604080518281526020810185905281517faeba5a6c40a8ac138134bff1aaa65debf25971188a58804bad717f82f0ec1316929181900390910190a16000611b71565b801580156120e85750600082115b15611f31576040805162461bcd60e51b815260206004820152601160248201527f72656465656d546f6b656e73207a65726f000000000000000000000000000000604482015290519081900360640190fd5b600d818154811061214a57600080fd5b6000918252602090912001546001600160a01b0316905081565b600080546001600160a01b031633146121835761208960016010614dfc565b600480546001600160a01b038481166001600160a01b0319831681179093556040805191909216808252602082019390935281517fd52b2b9b7e9ee655fcb95d2e5b9e0c9f69e7ef2b8e9d2d0ea78402d576d22e22929181900390910190a16000611b71565b6115c8565b600080600080600080612205876000806000614670565b92509250925082601181111561221757fe5b97919650945092505050565b600080546001600160a01b031633146122425761208960016013614dfc565b600a80546001600160a01b038481166001600160a01b0319831617928390556040805192821680845293909116602083015280517f0613b6ee6a04f0d09f390e4d9318894b9f6ac7fd83897cd8d18896ba579c401e9281900390910190a16000611b71565b6001600160a01b03851660009081526009602052604081205460ff1615806122e857506001600160a01b03851660009081526009602052604090205460ff16155b156122f75760095b90506123fa565b60008061230385614e62565b9193509091506000905082601181111561231957fe5b146123335781601181111561232a57fe5b925050506123fa565b8061233f57600361232a565b6000886001600160a01b03166395dd9193876040518263ffffffff1660e01b815260040180826001600160a01b0316815260200191505060206040518083038186803b15801561238e57600080fd5b505afa1580156123a2573d6000803e3d6000fd5b505050506040513d60208110156123b857600080fd5b5051604080516020810190915260055481529091506000906123da9083614e82565b9050808611156123f15760119450505050506123fa565b60009450505050505b95945050505050565b6000546001600160a01b031633148061242657506015546001600160a01b031633145b6124615760405162461bcd60e51b8152600401808060200182810382526035815260200180615c5b6035913960400191505060405180910390fd5b8281811580159061247157508082145b6124c2576040805162461bcd60e51b815260206004820152600d60248201527f696e76616c696420696e70757400000000000000000000000000000000000000604482015290519081900360640190fd5b60005b8281101561259a578484828181106124d957fe5b90506020020135601660008989858181106124f057fe5b905060200201356001600160a01b03166001600160a01b03166001600160a01b031681526020019081526020016000208190555086868281811061253057fe5b905060200201356001600160a01b03166001600160a01b03167f6f1951b2aad10f3fc81b86d91105b413a5b3f847a34bbc5ce1904201b14438f686868481811061257657fe5b905060200201356040518082815260200191505060405180910390a26001016124c5565b50505050505050565b60005b83518110156117465760008482815181106125bd57fe5b6020908102919091018101516001600160a01b0381166000908152600990925260409091205490915060ff1661263a576040805162461bcd60e51b815260206004820152601560248201527f6d61726b6574206d757374206265206c69737465640000000000000000000000604482015290519081900360640190fd5b600184151514156126fc5760006040518060200160405280836001600160a01b031663aa5af0fd6040518163ffffffff1660e01b815260040160206040518083038186803b15801561268b57600080fd5b505afa15801561269f573d6000803e3d6000fd5b505050506040513d60208110156126b557600080fd5b5051905290506126c58282613ce1565b60005b87518110156126f9576126f1838983815181106126e157fe5b6020026020010151846001613f82565b6001016126c8565b50505b60018315151415612745576127108161499a565b60005b86518110156127435761273b8288838151811061272c57fe5b60200260200101516001614c31565b600101612713565b505b506001016125a6565b61275661413f565b6127a7576040805162461bcd60e51b815260206004820152601e60248201527f6f6e6c792061646d696e2063616e206368616e6765204c484220726174650000604482015290519081900360640190fd5b600e805490829055604080518281526020810184905281517fc227c9272633c3a307d9845bf2bc2509cefb20d655b5f3c1002d8e1e3f22c8b0929181900390910190a1611d51614291565b6010602052600090815260409020546001600160e01b03811690600160e01b900463ffffffff1682565b600c6020526000908152604090205460ff1681565b600b6020526000908152604090205460ff1681565b66038d7ea4c6800081565b6004546001600160a01b031681565b600a54600160b01b900460ff1681565b6011602052600090815260409020546001600160e01b03811690600160e01b900463ffffffff1682565b60096020526000908152604090208054600182015460039092015460ff91821692911683565b600a546000906001600160a01b03163314806128e657506000546001600160a01b031633145b6129215760405162461bcd60e51b8152600401808060200182810382526027815260200180615c0e6027913960400191505060405180910390fd5b6000546001600160a01b031633148061293c57506001821515145b61298d576040805162461bcd60e51b815260206004820152601660248201527f6f6e6c792061646d696e2063616e20756e706175736500000000000000000000604482015290519081900360640190fd5b600a8054831515600160b01b81027fffffffffffffffffff00ffffffffffffffffffffffffffffffffffffffffffff909216919091179091556040805160208101929092528082526008828201527f5472616e736665720000000000000000000000000000000000000000000000006060830152517f797342570fa50baf859b305038db0aa554a1bc1a7e08ea609580e1b777e0acf69181900360800190a15090565b6001600160a01b038082166000908152600960209081526040808320938616835260029093019052205460ff1692915050565b60075481565b738f67854497218043e1f72908ffe38d0ed7f2472190565b6001600160a01b03811660009081526009602052604081205460ff1615612aae57612089600a6011614dfc565b816001600160a01b031663fe9c44ae6040518163ffffffff1660e01b815260040160206040518083038186803b158015612ae757600080fd5b505afa158015612afb573d6000803e3d6000fd5b505050506040513d6020811015612b1157600080fd5b50506001600160a01b03821660009081526009602052604081208054600160ff1991821681178355600383018054909216909155810191909155612b5483614e9a565b604080516001600160a01b038516815290517fcf583bb0c569eb967f806b11601c4cb93c10310485c67add5f8362c2f212321f9181900360200190a16000611b71565b6ec097ce7bc90715b34b9f100000000081565b600e5481565b6001600160a01b0381166000908152600860209081526040808320805482518185028101850190935280835260609493830182828015612c1957602002820191906000526020600020905b81546001600160a01b03168152600190910190602001808311612bfb575b5093979650505050505050565b600a54600160b81b900460ff1681565b6060600d805480602002602001604051908101604052809291908181526020018280548015612c8e57602002820191906000526020600020905b81546001600160a01b03168152600190910190602001808311612c70575b5050505050905090565b601260209081526000928352604080842090915290825290205481565b6002546001600160a01b031681565b600a54600090600160b01b900460ff1615612d26576040805162461bcd60e51b815260206004820152601260248201527f7472616e73666572206973207061757365640000000000000000000000000000604482015290519081900360640190fd5b6000612d33868685614f81565b90508015612d42579050611817565b612d4b8661499a565b612d5786866000614c31565b61181186856000614c31565b805160609060008167ffffffffffffffff81118015612d8157600080fd5b50604051908082528060200260200182016040528015612dab578160200160208202803683370190505b50905060005b82811015612e06576000858281518110612dc757fe5b60200260200101519050612ddb813361502d565b6011811115612de657fe5b838381518110612df257fe5b602090810291909101015250600101612db1565b509392505050565b6000806000600460009054906101000a90046001600160a01b03166001600160a01b031663fc57d4df876040518263ffffffff1660e01b815260040180826001600160a01b0316815260200191505060206040518083038186803b158015612e7557600080fd5b505afa158015612e89573d6000803e3d6000fd5b505050506040513d6020811015612e9f57600080fd5b5051600480546040805163fc57d4df60e01b81526001600160a01b038a8116948201949094529051939450600093929091169163fc57d4df91602480820192602092909190829003018186803b158015612ef857600080fd5b505afa158015612f0c573d6000803e3d6000fd5b505050506040513d6020811015612f2257600080fd5b50519050811580612f31575080155b15612f4557600d600093509350505061303e565b6000866001600160a01b031663182df0f56040518163ffffffff1660e01b815260040160206040518083038186803b158015612f8057600080fd5b505afa158015612f94573d6000803e3d6000fd5b505050506040513d6020811015612faa57600080fd5b505190506000612fb8615b37565b612fc0615b37565b612fc8615b37565b612ff0604051806020016040528060065481525060405180602001604052808a815250615123565b9250613018604051806020016040528088815250604051806020016040528088815250615123565b91506130248383615162565b9050613030818b614e82565b600099509750505050505050505b935093915050565b601360209081526000928352604080842090915290825290205481565b60146020526000908152604090205481565b61307d61413f565b6130ce576040805162461bcd60e51b815260206004820152601d60248201527f6f6e6c792061646d696e2063616e20616464204c4842206d61726b6574000000604482015290519081900360640190fd5b60005b81518110156130fe576130f68282815181106130e957fe5b602002602001015161519e565b6001016130d1565b50611731614291565b600a54600090600160b81b900460ff1615613169576040805162461bcd60e51b815260206004820152600f60248201527f7365697a65206973207061757365640000000000000000000000000000000000604482015290519081900360640190fd5b6001600160a01b03861660009081526009602052604090205460ff1615806131aa57506001600160a01b03851660009081526009602052604090205460ff16155b156131b65760096122f0565b846001600160a01b0316635fe3b5676040518163ffffffff1660e01b815260040160206040518083038186803b1580156131ef57600080fd5b505afa158015613203573d6000803e3d6000fd5b505050506040513d602081101561321957600080fd5b5051604080517f5fe3b56700000000000000000000000000000000000000000000000000000000815290516001600160a01b0392831692891691635fe3b567916004808301926020929190829003018186803b15801561327857600080fd5b505afa15801561328c573d6000803e3d6000fd5b505050506040513d60208110156132a257600080fd5b50516001600160a01b0316146132b95760026122f0565b6132c28661499a565b6132ce86846000614c31565b6132da86856000614c31565b60009695505050505050565b6001600160a01b0383166000908152600c602052604081205460ff1615613354576040805162461bcd60e51b815260206004820152601060248201527f626f72726f772069732070617573656400000000000000000000000000000000604482015290519081900360640190fd5b6001600160a01b03841660009081526009602052604090205460ff1661337e5760095b9050611b71565b6001600160a01b038085166000908152600960209081526040808320938716835260029093019052205460ff1661347657336001600160a01b0385161461340c576040805162461bcd60e51b815260206004820152601560248201527f73656e646572206d7573742062652063546f6b656e0000000000000000000000604482015290519081900360640190fd5b6000613418338561502d565b9050600081601181111561342857fe5b146134415780601181111561343957fe5b915050611b71565b6001600160a01b038086166000908152600960209081526040808320938816835260029093019052205460ff1661347457fe5b505b600460009054906101000a90046001600160a01b03166001600160a01b031663fc57d4df856040518263ffffffff1660e01b815260040180826001600160a01b0316815260200191505060206040518083038186803b1580156134d857600080fd5b505afa1580156134ec573d6000803e3d6000fd5b505050506040513d602081101561350257600080fd5b505161350f57600d613377565b6001600160a01b03841660009081526016602052604090205480156135fc576000856001600160a01b03166347bd37186040518163ffffffff1660e01b815260040160206040518083038186803b15801561356957600080fd5b505afa15801561357d573d6000803e3d6000fd5b505050506040513d602081101561359357600080fd5b5051905060006135a382866154cb565b90508281106135f9576040805162461bcd60e51b815260206004820152601960248201527f6d61726b657420626f72726f7720636170207265616368656400000000000000604482015290519081900360640190fd5b50505b60008061360c8688600088614670565b9193509091506000905082601181111561362257fe5b1461363d5781601181111561363357fe5b9350505050611b71565b801561364a576004613633565b60006040518060200160405280896001600160a01b031663aa5af0fd6040518163ffffffff1660e01b815260040160206040518083038186803b15801561369057600080fd5b505afa1580156136a4573d6000803e3d6000fd5b505050506040513d60208110156136ba57600080fd5b5051905290506136ca8882613ce1565b6136d78888836000613f82565b600098975050505050505050565b6008602052816000526040600020818154811061370157600080fd5b6000918252602090912001546001600160a01b03169150829050565b6003546001600160a01b031681565b600080546001600160a01b031633146137525761374b60016006614dfc565b9050611565565b6001600160a01b0383166000908152600960205260409020805460ff166137875761377f60096007614dfc565b915050611565565b60408051602080820183528582528251908101909252670c7d713b49da00008252906137b3818361550d565b156137ce576137c460066008614dfc565b9350505050611565565b84158015906138685750600460009054906101000a90046001600160a01b03166001600160a01b031663fc57d4df876040518263ffffffff1660e01b815260040180826001600160a01b0316815260200191505060206040518083038186803b15801561383a57600080fd5b505afa15801561384e573d6000803e3d6000fd5b505050506040513d602081101561386457600080fd5b5051155b15613879576137c4600d6009614dfc565b60018301805490869055604080516001600160a01b03891681526020810183905280820188905290517f70483e6592cd5182d45ac970e05bc62cdcc90e9d8ef2c2dbe686cf383bcd7fc59181900360600190a16000979650505050505050565b600a547501000000000000000000000000000000000000000000900460ff1681565b60055481565b61173181600d80548060200260200160405190810160405280929190818152602001828054801561395b57602002820191906000526020600020905b81546001600160a01b0316815260019091019060200180831161393d575b505050505061156b565b600080613973858585614f81565b90508015613982579050611b71565b61398b8561499a565b61399785856000614c31565b600095945050505050565b6000808290506000806000836001600160a01b031663c37f68e2336040518263ffffffff1660e01b815260040180826001600160a01b0316815260200191505060806040518083038186803b1580156139fa57600080fd5b505afa158015613a0e573d6000803e3d6000fd5b505050506040513d6080811015613a2457600080fd5b508051602082015160409092015190945090925090508215613a775760405162461bcd60e51b8152600401808060200182810382526025815260200180615c906025913960400191505060405180910390fd5b8015613a9457613a89600c6002614dfc565b945050505050611853565b6000613aa1873385614f81565b90508015613ac257613ab6600e600383615514565b95505050505050611853565b6001600160a01b0385166000908152600960209081526040808320338452600281019092529091205460ff16613b015760009650505050505050611853565b3360009081526002820160209081526040808320805460ff191690556008825280832080548251818502810185019093528083529192909190830182828015613b7357602002820191906000526020600020905b81546001600160a01b03168152600190910190602001808311613b55575b5050835193945083925060009150505b82811015613bc857896001600160a01b0316848281518110613ba157fe5b60200260200101516001600160a01b03161415613bc057809150613bc8565b600101613b83565b50818110613bd257fe5b336000908152600860205260409020805481906000198101908110613bf357fe5b9060005260206000200160009054906101000a90046001600160a01b0316818381548110613c1d57fe5b9060005260206000200160006101000a8154816001600160a01b0302191690836001600160a01b0316021790555080805480613c5557fe5b6000828152602090819020820160001990810180546001600160a01b0319169055909101909155604080516001600160a01b038d168152339281019290925280517fe699a64c18b07ac5b7301aa273f36a2287239eb9501d81950672794afba29a0d9281900390910190a160009c9b505050505050505050505050565b6000546001600160a01b031681565b6001600160a01b0382166000908152601160209081526040808320600f9092528220549091613d0e611f37565b8354909150600090613d2e908390600160e01b900463ffffffff1661557a565b9050600081118015613d405750600083115b15613f16576000613db5876001600160a01b03166347bd37186040518163ffffffff1660e01b815260040160206040518083038186803b158015613d8357600080fd5b505afa158015613d97573d6000803e3d6000fd5b505050506040513d6020811015613dad57600080fd5b5051876155bc565b90506000613dc383866155da565b90506000808311613de35760405180602001604052806000815250613ded565b613ded828461561c565b604080516020810190915288546001600160e01b03168152909150600090613e159083615651565b90506040518060400160405280613e6583600001516040518060400160405280601a81526020017f6e657720696e6465782065786365656473203232342062697473000000000000815250615676565b6001600160e01b03168152602001613eb2886040518060400160405280601c81526020017f626c6f636b206e756d6265722065786365656473203332206269747300000000815250615710565b63ffffffff9081169091526001600160a01b038c166000908152601160209081526040909120835181549490920151909216600160e01b026001600160e01b039182166001600160e01b0319909416939093171691909117905550611f3b92505050565b8015611f3b57613f5b826040518060400160405280601c81526020017f626c6f636b206e756d6265722065786365656473203332206269747300000000815250615710565b845463ffffffff91909116600160e01b026001600160e01b03909116178455505050505050565b6001600160a01b0380851660008181526011602090815260408083208151808401835281546001600160e01b031681528251808501845295855260138452828520968a1680865287855292852080548752815193909552959092529091558151909291901561259a576000613ff78383615766565b9050600061407d896001600160a01b03166395dd91938a6040518263ffffffff1660e01b815260040180826001600160a01b0316815260200191505060206040518083038186803b15801561404b57600080fd5b505afa15801561405f573d6000803e3d6000fd5b505050506040513d602081101561407557600080fd5b5051886155bc565b9050600061408b828461578b565b6001600160a01b038a16600090815260146020526040812054919250906140b290836154cb565b90506140d38a828a6140cb5766038d7ea4c680006140ce565b60005b6157ba565b6001600160a01b03808c1660008181526014602090815260409182902094909455895181518781529485015280519193928f16927f1fc3ecc087d8d2d15e23d0032af5a47059c3892d003d8e139fdcb6bb327c99a6929081900390910190a35050505050505050505050565b600080546001600160a01b031633148061416357506002546001600160a01b031633145b905090565b600080614173612a69565b90506000816001600160a01b03166370a08231306040518263ffffffff1660e01b815260040180826001600160a01b0316815260200191505060206040518083038186803b1580156141c457600080fd5b505afa1580156141d8573d6000803e3d6000fd5b505050506040513d60208110156141ee57600080fd5b5051905080841161428857816001600160a01b031663a9059cbb86866040518363ffffffff1660e01b815260040180836001600160a01b0316815260200182815260200192505050602060405180830381600087803b15801561425057600080fd5b505af1158015614264573d6000803e3d6000fd5b505050506040513d602081101561427a57600080fd5b506000935061156592505050565b50919392505050565b6000600d8054806020026020016040519081016040528092919081815260200182805480156142e957602002820191906000526020600020905b81546001600160a01b031681526001909101906020018083116142cb575b5050505050905060005b81518110156143a757600082828151811061430a57fe5b6020026020010151905060006040518060200160405280836001600160a01b031663aa5af0fd6040518163ffffffff1660e01b815260040160206040518083038186803b15801561435a57600080fd5b505afa15801561436e573d6000803e3d6000fd5b505050506040513d602081101561438457600080fd5b5051905290506143938261499a565b61439d8282613ce1565b50506001016142f3565b5060408051602081019091526000808252825167ffffffffffffffff811180156143d057600080fd5b5060405190808252806020026020018201604052801561440a57816020015b6143f7615b37565b8152602001906001900390816143ef5790505b50905060005b83518110156145a757600084828151811061442757fe5b6020908102919091018101516001600160a01b0381166000908152600990925260409091206003015490915060ff161561459e5760408051602080820180845260045463fc57d4df60e01b9091526001600160a01b0385811660248501529351600094849392169163fc57d4df916044808601929190818703018186803b1580156144b157600080fd5b505afa1580156144c5573d6000803e3d6000fd5b505050506040513d60208110156144db57600080fd5b50519052604080517f47bd371800000000000000000000000000000000000000000000000000000000815290519192506000916145759184916001600160a01b038716916347bd3718916004808301926020929190829003018186803b15801561454457600080fd5b505afa158015614558573d6000803e3d6000fd5b505050506040513d602081101561456e57600080fd5b50516158fb565b90508085858151811061458457fe5b60200260200101819052506145998682615651565b955050505b50600101614410565b5060005b8351811015611f31576000600d82815481106145c357fe5b600091825260208220015485516001600160a01b0390911692506145e8576000614610565b614610600e5461460b8686815181106145fd57fe5b602002602001015188615162565b61591c565b6001600160a01b0383166000818152600f60209081526040918290208490558151848152915193945091927f2ab93f65628379309f36cb125e90d7c902454a545c4f8b8cb0794af75c24b807929181900390910190a250506001016145ab565b600080600061467d615b4a565b6001600160a01b0388166000908152600860209081526040808320805482518185028101850190935280835284938301828280156146e457602002820191906000526020600020905b81546001600160a01b031681526001909101906020018083116146c6575b5050505050905060005b815181101561495b57600082828151811061470557fe5b60200260200101519050806001600160a01b031663c37f68e28d6040518263ffffffff1660e01b815260040180826001600160a01b0316815260200191505060806040518083038186803b15801561475c57600080fd5b505afa158015614770573d6000803e3d6000fd5b505050506040513d608081101561478657600080fd5b508051602082015160408084015160609485015160808b01529389019390935291870191909152935083156147ca57600f6000809750975097505050505050611fd3565b60408051602080820183526001600160a01b0380851660008181526009845285902060010154845260c08a01939093528351808301855260808a0151815260e08a015260048054855163fc57d4df60e01b815291820194909452935192169263fc57d4df9260248083019392829003018186803b15801561484a57600080fd5b505afa15801561485e573d6000803e3d6000fd5b505050506040513d602081101561487457600080fd5b505160a0860181905261489657600d6000809750975097505050505050611fd3565b604080516020810190915260a0860151815261010086015260c085015160e08601516148d0916148c591615123565b866101000151615123565b6101208601819052604086015186516148ea929190615935565b855261010085015160608601516020870151614907929190615935565b60208601526001600160a01b03818116908c161415614952576149348561012001518b8760200151615935565b6020860181905261010086015161494c918b90615935565b60208601525b506001016146ee565b506020830151835111156149815750506020810151905160009450039150829050611fd3565b5050805160209091015160009450849350039050611fd3565b6001600160a01b0381166000908152601060209081526040808320600f90925282205490916149c7611f37565b83549091506000906149e7908390600160e01b900463ffffffff1661557a565b90506000811180156149f95750600083115b15614bc6576000856001600160a01b03166318160ddd6040518163ffffffff1660e01b815260040160206040518083038186803b158015614a3957600080fd5b505afa158015614a4d573d6000803e3d6000fd5b505050506040513d6020811015614a6357600080fd5b505190506000614a7383866155da565b90506000808311614a935760405180602001604052806000815250614a9d565b614a9d828461561c565b604080516020810190915288546001600160e01b03168152909150600090614ac59083615651565b90506040518060400160405280614b1583600001516040518060400160405280601a81526020017f6e657720696e6465782065786365656473203232342062697473000000000000815250615676565b6001600160e01b03168152602001614b62886040518060400160405280601c81526020017f626c6f636b206e756d6265722065786365656473203332206269747300000000815250615710565b63ffffffff9081169091526001600160a01b038b166000908152601060209081526040909120835181549490920151909216600160e01b026001600160e01b039182166001600160e01b031990941693909317169190911790555061174692505050565b801561174657614c0b826040518060400160405280601c81526020017f626c6f636b206e756d6265722065786365656473203332206269747300000000815250615710565b845463ffffffff91909116600160e01b026001600160e01b039091161784555050505050565b6001600160a01b0380841660008181526010602090815260408083208151808401835281546001600160e01b0316815282518085018452958552601284528285209689168086528785529285208054875281519390955295909252909155815190929190158015614ca25750815115155b15614cba576ec097ce7bc90715b34b9f100000000081525b6000614cc68383615766565b90506000876001600160a01b03166370a08231886040518263ffffffff1660e01b815260040180826001600160a01b0316815260200191505060206040518083038186803b158015614d1757600080fd5b505afa158015614d2b573d6000803e3d6000fd5b505050506040513d6020811015614d4157600080fd5b505190506000614d51828461578b565b6001600160a01b03891660009081526014602052604081205491925090614d7890836154cb565b9050614d9189828a6140cb5766038d7ea4c680006140ce565b6001600160a01b03808b1660008181526014602090815260409182902094909455895181518781529485015280519193928e16927f2caecd17d02f56fa897705dcc740da2d237c373f70686f4e0d9bd3bf0400ea7a929081900390910190a350505050505050505050565b60007f45b96fe442630264581b197e84bbada861235052c5a1aadfff9ea4e40a969aa0836011811115614e2b57fe5b836013811115614e3757fe5b604080519283526020830191909152600082820152519081900360600190a1826011811115611b7157fe5b6000806000614e75846000806000614670565b9250925092509193909250565b600080614e8f84846158fb565b905061181781615956565b60005b600d54811015614f2e57816001600160a01b0316600d8281548110614ebe57fe5b6000918252602090912001546001600160a01b03161415614f26576040805162461bcd60e51b815260206004820152601460248201527f6d61726b657420616c7265616479206164646564000000000000000000000000604482015290519081900360640190fd5b600101614e9d565b50600d80546001810182556000919091527fd7b6990105719101dabeb77144f2a3385c8033acd3af97e9423a695e81ad1eb50180546001600160a01b0319166001600160a01b0392909216919091179055565b6001600160a01b03831660009081526009602052604081205460ff16614fa8576009613377565b6001600160a01b038085166000908152600960209081526040808320938716835260029093019052205460ff16614fe0576000613377565b600080614ff08587866000614670565b9193509091506000905082601181111561500657fe5b146150205781601181111561501757fe5b92505050611b71565b80156132da576004615017565b6001600160a01b0382166000908152600960205260408120805460ff16615058576009915050611565565b6001600160a01b038316600090815260028201602052604090205460ff1615156001141561508a576000915050611565565b6001600160a01b0380841660008181526002840160209081526040808320805460ff19166001908117909155600883528184208054918201815584529282902090920180549489166001600160a01b031990951685179055815193845283019190915280517f3ab23ab0d51cccc0c3085aec51f99228625aa1a922b3a8ca89a26b0f2027a1a59281900390910190a15060009392505050565b61512b615b37565b6040518060200160405280670de0b6b3a7640000615151866000015186600001516155da565b8161515857fe5b0490529392505050565b61516a615b37565b604051806020016040528061519561518e8660000151670de0b6b3a76400006155da565b8551615965565b90529392505050565b6001600160a01b0381166000908152600960205260409020805460ff161515600114615211576040805162461bcd60e51b815260206004820152601860248201527f4c4842206d61726b6574206973206e6f74206c69737465640000000000000000604482015290519081900360640190fd5b600381015460ff161561526b576040805162461bcd60e51b815260206004820152601860248201527f4c4842206d61726b657420616c72656164792061646465640000000000000000604482015290519081900360640190fd5b60038101805460ff19166001908117909155604080516001600160a01b0385168152602081019290925280517f93c1f3e36ed71139f466a4ce8c9751790e2e33f5afb2df0dcfb3aeabe55d5aa29281900390910190a16001600160a01b0382166000908152601060205260409020546001600160e01b031615801561531357506001600160a01b038216600090815260106020526040902054600160e01b900463ffffffff16155b156153e25760405180604001604052806ec097ce7bc90715b34b9f10000000006001600160e01b0316815260200161538761534c611f37565b6040518060400160405280601c81526020017f626c6f636b206e756d6265722065786365656473203332206269747300000000815250615710565b63ffffffff9081169091526001600160a01b0384166000908152601060209081526040909120835181549490920151909216600160e01b026001600160e01b039182166001600160e01b031990941693909317169190911790555b6001600160a01b0382166000908152601160205260409020546001600160e01b031615801561543457506001600160a01b038216600090815260116020526040902054600160e01b900463ffffffff16155b15611d515760405180604001604052806ec097ce7bc90715b34b9f10000000006001600160e01b0316815260200161546d61534c611f37565b63ffffffff9081169091526001600160a01b0384166000908152601160209081526040909120835181549490920151909216600160e01b026001600160e01b039182166001600160e01b031990941693909317169190911790555050565b6000611b7183836040518060400160405280601181526020017f6164646974696f6e206f766572666c6f770000000000000000000000000000008152506159a7565b5190511090565b60007f45b96fe442630264581b197e84bbada861235052c5a1aadfff9ea4e40a969aa084601181111561554357fe5b84601381111561554f57fe5b604080519283526020830191909152818101859052519081900360600190a183601181111561181757fe5b6000611b7183836040518060400160405280601581526020017f7375627472616374696f6e20756e646572666c6f770000000000000000000000815250615a05565b6000611b716155d384670de0b6b3a76400006155da565b8351615965565b6000611b7183836040518060400160405280601781526020017f6d756c7469706c69636174696f6e206f766572666c6f77000000000000000000815250615a5f565b615624615b37565b604051806020016040528061519561564b866ec097ce7bc90715b34b9f10000000006155da565b85615965565b615659615b37565b6040518060200160405280615195856000015185600001516154cb565b600081600160e01b84106157085760405162461bcd60e51b81526004018080602001828103825283818151815260200191508051906020019080838360005b838110156156cd5781810151838201526020016156b5565b50505050905090810190601f1680156156fa5780820380516001836020036101000a031916815260200191505b509250505060405180910390fd5b509192915050565b60008164010000000084106157085760405162461bcd60e51b81526020600482018181528351602484015283519092839260449091019190850190808383600083156156cd5781810151838201526020016156b5565b61576e615b37565b60405180602001604052806151958560000151856000015161557a565b60006ec097ce7bc90715b34b9f10000000006157ab8484600001516155da565b816157b257fe5b049392505050565b60008183101580156157cc5750600083115b156158f35760006157db612a69565b90506000816001600160a01b03166370a08231306040518263ffffffff1660e01b815260040180826001600160a01b0316815260200191505060206040518083038186803b15801561582c57600080fd5b505afa158015615840573d6000803e3d6000fd5b505050506040513d602081101561585657600080fd5b505190508085116158f057816001600160a01b031663a9059cbb87876040518363ffffffff1660e01b815260040180836001600160a01b0316815260200182815260200192505050602060405180830381600087803b1580156158b857600080fd5b505af11580156158cc573d6000803e3d6000fd5b505050506040513d60208110156158e257600080fd5b5060009350611b7192505050565b50505b509092915050565b615903615b37565b60405180602001604052806151958560000151856155da565b6000670de0b6b3a76400006157ab8484600001516155da565b60008061594285856158fb565b90506123fa61595082615956565b846154cb565b51670de0b6b3a7640000900490565b6000611b7183836040518060400160405280600e81526020017f646976696465206279207a65726f000000000000000000000000000000000000815250615ad5565b600083830182858210156159fc5760405162461bcd60e51b81526020600482018181528351602484015283519092839260449091019190850190808383600083156156cd5781810151838201526020016156b5565b50949350505050565b60008184841115615a575760405162461bcd60e51b81526020600482018181528351602484015283519092839260449091019190850190808383600083156156cd5781810151838201526020016156b5565b505050900390565b6000831580615a6c575082155b15615a7957506000611b71565b83830283858281615a8657fe5b041483906159fc5760405162461bcd60e51b81526020600482018181528351602484015283519092839260449091019190850190808383600083156156cd5781810151838201526020016156b5565b60008183615b245760405162461bcd60e51b81526020600482018181528351602484015283519092839260449091019190850190808383600083156156cd5781810151838201526020016156b5565b50828481615b2e57fe5b04949350505050565b6040518060200160405280600081525090565b604051806101400160405280600081526020016000815260200160008152602001600081526020016000815260200160008152602001615b88615b37565b8152602001615b95615b37565b8152602001615ba2615b37565b8152602001615baf615b37565b90529056fe63616e6e6f742070617573652061206d61726b65742074686174206973206e6f74206c69737465646f6e6c792065787465726e616c6c79206f776e6564206163636f756e7473206d61792072656672657368207370656564736f6e6c7920706175736520677561726469616e20616e642061646d696e2063616e2070617573656f6e6c792061646d696e2063616e2073657420626f72726f772063617020677561726469616e6f6e6c792061646d696e206f7220626f72726f772063617020677561726469616e2063616e2073657420626f72726f772063617073657869744d61726b65743a206765744163636f756e74536e617073686f74206661696c65646f6e6c7920756e6974726f6c6c65722061646d696e2063616e206368616e676520627261696e73a2646970667358221220d5ba2eed142d23b014ca0c3dbf2a32a5a7925d4a03303833195c032f0430e6ea64736f6c63430007060033",
  "devdoc": {
    "author": "Compound",
    "kind": "dev",
    "methods": {
      "_addCompMarkets(address[])": {
        "params": {
          "cTokens": "The addresses of the markets to add"
        }
      },
      "_dropCompMarket(address)": {
        "params": {
          "cToken": "The address of the market to drop"
        }
      },
      "_grantComp(address,uint256)": {
        "details": "Note: If there is not enough LHB, we do not perform the transfer all.",
        "params": {
          "amount": "The amount of LHB to (possibly) transfer",
          "recipient": "The address of the recipient to transfer LHB to"
        }
      },
      "_setBorrowCapGuardian(address)": {
        "params": {
          "newBorrowCapGuardian": "The address of the new Borrow Cap Guardian"
        }
      },
      "_setCloseFactor(uint256)": {
        "details": "Admin function to set closeFactor",
        "params": {
          "newCloseFactorMantissa": "New close factor, scaled by 1e18"
        },
        "returns": {
          "_0": "uint 0=success, otherwise a failure"
        }
      },
      "_setCollateralFactor(address,uint256)": {
        "details": "Admin function to set per-market collateralFactor",
        "params": {
          "cToken": "The market to set the factor on",
          "newCollateralFactorMantissa": "The new collateral factor, scaled by 1e18"
        },
        "returns": {
          "_0": "uint 0=success, otherwise a failure. (See ErrorReporter for details)"
        }
      },
      "_setCompRate(uint256)": {
        "params": {
          "compRate_": "The amount of LHB wei per block to distribute"
        }
      },
      "_setLiquidationIncentive(uint256)": {
        "details": "Admin function to set liquidationIncentive",
        "params": {
          "newLiquidationIncentiveMantissa": "New liquidationIncentive scaled by 1e18"
        },
        "returns": {
          "_0": "uint 0=success, otherwise a failure. (See ErrorReporter for details)"
        }
      },
      "_setMarketBorrowCaps(address[],uint256[])": {
        "details": "Admin or borrowCapGuardian function to set the borrow caps. A borrow cap of 0 corresponds to unlimited borrowing.",
        "params": {
          "cTokens": "The addresses of the markets (tokens) to change the borrow caps for",
          "newBorrowCaps": "The new borrow cap values in underlying to be set. A value of 0 corresponds to unlimited borrowing."
        }
      },
      "_setPauseGuardian(address)": {
        "params": {
          "newPauseGuardian": "The address of the new Pause Guardian"
        },
        "returns": {
          "_0": "uint 0=success, otherwise a failure. (See enum Error for details)"
        }
      },
      "_setPriceOracle(address)": {
        "details": "Admin function to set a new price oracle",
        "returns": {
          "_0": "uint 0=success, otherwise a failure (see ErrorReporter.sol for details)"
        }
      },
      "_supportMarket(address)": {
        "details": "Admin function to set isListed and add support for the market",
        "params": {
          "cToken": "The address of the market (token) to list"
        },
        "returns": {
          "_0": "uint 0=success, otherwise a failure. (See enum Error for details)"
        }
      },
      "borrowAllowed(address,address,uint256)": {
        "params": {
          "borrowAmount": "The amount of underlying the account would borrow",
          "borrower": "The account which would borrow the asset",
          "cToken": "The market to verify the borrow against"
        },
        "returns": {
          "_0": "0 if the borrow is allowed, otherwise a semi-opaque error code (See ErrorReporter.sol)"
        }
      },
      "borrowVerify(address,address,uint256)": {
        "params": {
          "borrowAmount": "The amount of the underlying asset requested to borrow",
          "borrower": "The address borrowing the underlying",
          "cToken": "Asset whose underlying is being borrowed"
        }
      },
      "checkMembership(address,address)": {
        "params": {
          "account": "The address of the account to check",
          "cToken": "The cToken to check"
        },
        "returns": {
          "_0": "True if the account is in the asset, otherwise false."
        }
      },
      "claimComp(address)": {
        "params": {
          "holder": "The address to claim LHB for"
        }
      },
      "claimComp(address,address[])": {
        "params": {
          "cTokens": "The list of markets to claim LHB in",
          "holder": "The address to claim LHB for"
        }
      },
      "claimComp(address[],address[],bool,bool)": {
        "params": {
          "borrowers": "Whether or not to claim LHB earned by borrowing",
          "cTokens": "The list of markets to claim LHB in",
          "holders": "The addresses to claim LHB for",
          "suppliers": "Whether or not to claim LHB earned by supplying"
        }
      },
      "enterMarkets(address[])": {
        "params": {
          "cTokens": "The list of addresses of the cToken markets to be enabled"
        },
        "returns": {
          "_0": "Success indicator for whether each corresponding market was entered"
        }
      },
      "exitMarket(address)": {
        "details": "Sender must not have an outstanding borrow balance in the asset,  or be providing necessary collateral for an outstanding borrow.",
        "params": {
          "cTokenAddress": "The address of the asset to be removed"
        },
        "returns": {
          "_0": "Whether or not the account successfully exited the market"
        }
      },
      "getAccountLiquidity(address)": {
        "returns": {
          "_0": "(possible error code (semi-opaque), account liquidity in excess of collateral requirements,          account shortfall below collateral requirements)"
        }
      },
      "getAllMarkets()": {
        "details": "The automatic getter may be used to access an individual market.",
        "returns": {
          "_0": "The list of market addresses"
        }
      },
      "getAssetsIn(address)": {
        "params": {
          "account": "The address of the account to pull assets for"
        },
        "returns": {
          "_0": "A dynamic list with the assets the account has entered"
        }
      },
      "getCTokenAddress(address)": {
        "params": {
          "token": "The address of the token to be query"
        },
        "returns": {
          "_0": "The address of cToken"
        }
      },
      "getCompAddress()": {
        "returns": {
          "_0": "The address of LHB"
        }
      },
      "getHypotheticalAccountLiquidity(address,address,uint256,uint256)": {
        "params": {
          "account": "The account to determine liquidity for",
          "borrowAmount": "The amount of underlying to hypothetically borrow",
          "cTokenModify": "The market to hypothetically redeem/borrow in",
          "redeemTokens": "The number of tokens to hypothetically redeem"
        },
        "returns": {
          "_0": "(possible error code (semi-opaque), hypothetical account liquidity in excess of collateral requirements,          hypothetical account shortfall below collateral requirements)"
        }
      },
      "liquidateBorrowAllowed(address,address,address,address,uint256)": {
        "params": {
          "borrower": "The address of the borrower",
          "cTokenBorrowed": "Asset which was borrowed by the borrower",
          "cTokenCollateral": "Asset which was used as collateral and will be seized",
          "liquidator": "The address repaying the borrow and seizing the collateral",
          "repayAmount": "The amount of underlying being repaid"
        }
      },
      "liquidateBorrowVerify(address,address,address,address,uint256,uint256)": {
        "params": {
          "actualRepayAmount": "The amount of underlying being repaid",
          "borrower": "The address of the borrower",
          "cTokenBorrowed": "Asset which was borrowed by the borrower",
          "cTokenCollateral": "Asset which was used as collateral and will be seized",
          "liquidator": "The address repaying the borrow and seizing the collateral"
        }
      },
      "liquidateCalculateSeizeTokens(address,address,uint256)": {
        "details": "Used in liquidation (called in cToken.liquidateBorrowFresh)",
        "params": {
          "actualRepayAmount": "The amount of cTokenBorrowed underlying to convert into cTokenCollateral tokens",
          "cTokenBorrowed": "The address of the borrowed cToken",
          "cTokenCollateral": "The address of the collateral cToken"
        },
        "returns": {
          "_0": "(errorCode, number of cTokenCollateral tokens to be seized in a liquidation)"
        }
      },
      "mintAllowed(address,address,uint256)": {
        "params": {
          "cToken": "The market to verify the mint against",
          "mintAmount": "The amount of underlying being supplied to the market in exchange for tokens",
          "minter": "The account which would get the minted tokens"
        },
        "returns": {
          "_0": "0 if the mint is allowed, otherwise a semi-opaque error code (See ErrorReporter.sol)"
        }
      },
      "mintVerify(address,address,uint256,uint256)": {
        "params": {
          "actualMintAmount": "The amount of the underlying asset being minted",
          "cToken": "Asset being minted",
          "mintTokens": "The number of tokens being minted",
          "minter": "The address minting the tokens"
        }
      },
      "redeemAllowed(address,address,uint256)": {
        "params": {
          "cToken": "The market to verify the redeem against",
          "redeemTokens": "The number of cTokens to exchange for the underlying asset in the market",
          "redeemer": "The account which would redeem the tokens"
        },
        "returns": {
          "_0": "0 if the redeem is allowed, otherwise a semi-opaque error code (See ErrorReporter.sol)"
        }
      },
      "redeemVerify(address,address,uint256,uint256)": {
        "params": {
          "cToken": "Asset being redeemed",
          "redeemAmount": "The amount of the underlying asset being redeemed",
          "redeemTokens": "The number of tokens being redeemed",
          "redeemer": "The address redeeming the tokens"
        }
      },
      "repayBorrowAllowed(address,address,address,uint256)": {
        "params": {
          "borrower": "The account which would borrowed the asset",
          "cToken": "The market to verify the repay against",
          "payer": "The account which would repay the asset",
          "repayAmount": "The amount of the underlying asset the account would repay"
        },
        "returns": {
          "_0": "0 if the repay is allowed, otherwise a semi-opaque error code (See ErrorReporter.sol)"
        }
      },
      "repayBorrowVerify(address,address,address,uint256,uint256)": {
        "params": {
          "actualRepayAmount": "The amount of underlying being repaid",
          "borrower": "The address of the borrower",
          "cToken": "Asset being repaid",
          "payer": "The address repaying the borrow"
        }
      },
      "seizeAllowed(address,address,address,address,uint256)": {
        "params": {
          "borrower": "The address of the borrower",
          "cTokenBorrowed": "Asset which was borrowed by the borrower",
          "cTokenCollateral": "Asset which was used as collateral and will be seized",
          "liquidator": "The address repaying the borrow and seizing the collateral",
          "seizeTokens": "The number of collateral tokens to seize"
        }
      },
      "seizeVerify(address,address,address,address,uint256)": {
        "params": {
          "borrower": "The address of the borrower",
          "cTokenBorrowed": "Asset which was borrowed by the borrower",
          "cTokenCollateral": "Asset which was used as collateral and will be seized",
          "liquidator": "The address repaying the borrow and seizing the collateral",
          "seizeTokens": "The number of collateral tokens to seize"
        }
      },
      "transferAllowed(address,address,address,uint256)": {
        "params": {
          "cToken": "The market to verify the transfer against",
          "dst": "The account which receives the tokens",
          "src": "The account which sources the tokens",
          "transferTokens": "The number of cTokens to transfer"
        },
        "returns": {
          "_0": "0 if the transfer is allowed, otherwise a semi-opaque error code (See ErrorReporter.sol)"
        }
      },
      "transferVerify(address,address,address,uint256)": {
        "params": {
          "cToken": "Asset being transferred",
          "dst": "The account which receives the tokens",
          "src": "The account which sources the tokens",
          "transferTokens": "The number of cTokens to transfer"
        }
      }
    },
    "title": "Compound's Comptroller Contract",
    "version": 1
  },
  "userdoc": {
    "events": {
      "ActionPaused(address,string,bool)": {
        "notice": "Emitted when an action is paused on a market"
      },
      "ActionPausedAll(string,bool)": {
        "notice": "Emitted when an action is paused globally"
      },
      "CompGranted(address,uint256)": {
        "notice": "Emitted when LHB is granted by admin"
      },
      "CompSpeedUpdated(address,uint256)": {
        "notice": "Emitted when a new LHB speed is calculated for a market"
      },
      "DistributedBorrowerComp(address,address,uint256,uint256)": {
        "notice": "Emitted when LHB is distributed to a borrower"
      },
      "DistributedSupplierComp(address,address,uint256,uint256)": {
        "notice": "Emitted when LHB is distributed to a supplier"
      },
      "MarketComped(address,bool)": {
        "notice": "Emitted when market comped status is changed"
      },
      "MarketEntered(address,address)": {
        "notice": "Emitted when an account enters a market"
      },
      "MarketExited(address,address)": {
        "notice": "Emitted when an account exits a market"
      },
      "MarketListed(address)": {
        "notice": "Emitted when an admin supports a market"
      },
      "NewBorrowCap(address,uint256)": {
        "notice": "Emitted when borrow cap for a cToken is changed"
      },
      "NewBorrowCapGuardian(address,address)": {
        "notice": "Emitted when borrow cap guardian is changed"
      },
      "NewCloseFactor(uint256,uint256)": {
        "notice": "Emitted when close factor is changed by admin"
      },
      "NewCollateralFactor(address,uint256,uint256)": {
        "notice": "Emitted when a collateral factor is changed by admin"
      },
      "NewCompRate(uint256,uint256)": {
        "notice": "Emitted when LHB rate is changed"
      },
      "NewLiquidationIncentive(uint256,uint256)": {
        "notice": "Emitted when liquidation incentive is changed by admin"
      },
      "NewPauseGuardian(address,address)": {
        "notice": "Emitted when pause guardian is changed"
      },
      "NewPriceOracle(address,address)": {
        "notice": "Emitted when price oracle is changed"
      }
    },
    "kind": "user",
    "methods": {
      "_addCompMarkets(address[])": {
        "notice": "Add markets to compMarkets, allowing them to earn LHB in the flywheel"
      },
      "_dropCompMarket(address)": {
        "notice": "Remove a market from compMarkets, preventing it from earning LHB in the flywheel"
      },
      "_grantComp(address,uint256)": {
        "notice": "Transfer LHB to the recipient"
      },
      "_setBorrowCapGuardian(address)": {
        "notice": "Admin function to change the Borrow Cap Guardian"
      },
      "_setCloseFactor(uint256)": {
        "notice": "Sets the closeFactor used when liquidating borrows"
      },
      "_setCollateralFactor(address,uint256)": {
        "notice": "Sets the collateralFactor for a market"
      },
      "_setCompRate(uint256)": {
        "notice": "Set the amount of LHB distributed per block"
      },
      "_setLiquidationIncentive(uint256)": {
        "notice": "Sets liquidationIncentive"
      },
      "_setMarketBorrowCaps(address[],uint256[])": {
        "notice": "Set the given borrow caps for the given cToken markets. Borrowing that brings total borrows to or above borrow cap will revert."
      },
      "_setPauseGuardian(address)": {
        "notice": "Admin function to change the Pause Guardian"
      },
      "_setPriceOracle(address)": {
        "notice": "Sets a new price oracle for the comptroller"
      },
      "_supportMarket(address)": {
        "notice": "Add the market to the markets mapping and set it as listed"
      },
      "accountAssets(address,uint256)": {
        "notice": "Per-account mapping of \"assets you are in\", capped by maxAssets"
      },
      "admin()": {
        "notice": "Administrator for this contract"
      },
      "allMarkets(uint256)": {
        "notice": "A list of all markets"
      },
      "borrowAllowed(address,address,uint256)": {
        "notice": "Checks if the account should be allowed to borrow the underlying asset of the given market"
      },
      "borrowVerify(address,address,uint256)": {
        "notice": "Validates borrow and reverts on rejection. May emit logs."
      },
      "checkMembership(address,address)": {
        "notice": "Returns whether the given account is entered in the given asset"
      },
      "claimComp(address)": {
        "notice": "Claim all the LHB accrued by holder in all markets"
      },
      "claimComp(address,address[])": {
        "notice": "Claim all the LHB accrued by holder in the specified markets"
      },
      "claimComp(address[],address[],bool,bool)": {
        "notice": "Claim all LHB accrued by the holders"
      },
      "closeFactorMantissa()": {
        "notice": "Multiplier used to calculate the maximum repayAmount when liquidating a borrow"
      },
      "compAccrued(address)": {
        "notice": "The LHB accrued but not yet transferred to each user"
      },
      "compBorrowState(address)": {
        "notice": "The LHB market borrow state for each market"
      },
      "compBorrowerIndex(address,address)": {
        "notice": "The LHB borrow index for each market for each borrower as of the last time they accrued LHB"
      },
      "compClaimThreshold()": {
        "notice": "The threshold above which the flywheel transfers LHB, in wei"
      },
      "compInitialIndex()": {
        "notice": "The initial LHB index for a market"
      },
      "compRate()": {
        "notice": "The rate at which the flywheel distributes LHB, per block"
      },
      "compSpeeds(address)": {
        "notice": "The portion of compRate that each market currently receives"
      },
      "compSupplierIndex(address,address)": {
        "notice": "The LHB borrow index for each market for each supplier as of the last time they accrued LHB"
      },
      "compSupplyState(address)": {
        "notice": "The LHB market supply state for each market"
      },
      "comptrollerImplementation()": {
        "notice": "Active brains of Unitroller"
      },
      "enterMarkets(address[])": {
        "notice": "Add assets to be included in account liquidity calculation"
      },
      "exitMarket(address)": {
        "notice": "Removes asset from sender's account liquidity calculation"
      },
      "getAccountLiquidity(address)": {
        "notice": "Determine the current account liquidity wrt collateral requirements"
      },
      "getAllMarkets()": {
        "notice": "Return all of the markets"
      },
      "getAssetsIn(address)": {
        "notice": "Returns the assets an account has entered"
      },
      "getCTokenAddress(address)": {
        "notice": "Return the cToken address of the token, if cToken not exist, create it"
      },
      "getCompAddress()": {
        "notice": "Return the address of the LHB token"
      },
      "getHypotheticalAccountLiquidity(address,address,uint256,uint256)": {
        "notice": "Determine what the account liquidity would be if the given amounts were redeemed/borrowed"
      },
      "isComptroller()": {
        "notice": "Indicator that this is a Comptroller contract (for inspection)"
      },
      "liquidateBorrowAllowed(address,address,address,address,uint256)": {
        "notice": "Checks if the liquidation should be allowed to occur"
      },
      "liquidateBorrowVerify(address,address,address,address,uint256,uint256)": {
        "notice": "Validates liquidateBorrow and reverts on rejection. May emit logs."
      },
      "liquidateCalculateSeizeTokens(address,address,uint256)": {
        "notice": "Calculate number of tokens of collateral asset to seize given an underlying amount"
      },
      "liquidationIncentiveMantissa()": {
        "notice": "Multiplier representing the discount on collateral that a liquidator receives"
      },
      "markets(address)": {
        "notice": "Official mapping of cTokens -> Market metadata"
      },
      "maxAssets()": {
        "notice": "Max number of assets a single account can participate in (borrow or use as collateral)"
      },
      "mintAllowed(address,address,uint256)": {
        "notice": "Checks if the account should be allowed to mint tokens in the given market"
      },
      "mintVerify(address,address,uint256,uint256)": {
        "notice": "Validates mint and reverts on rejection. May emit logs."
      },
      "oracle()": {
        "notice": "Oracle which gives the price of any given asset"
      },
      "pauseGuardian()": {
        "notice": "The Pause Guardian can pause certain actions as a safety mechanism.  Actions which allow users to remove their own assets cannot be paused.  Liquidation / seizing / transfer can only be paused globally, not by market."
      },
      "pendingAdmin()": {
        "notice": "Pending administrator for this contract"
      },
      "pendingComptrollerImplementation()": {
        "notice": "Pending brains of Unitroller"
      },
      "redeemAllowed(address,address,uint256)": {
        "notice": "Checks if the account should be allowed to redeem tokens in the given market"
      },
      "redeemVerify(address,address,uint256,uint256)": {
        "notice": "Validates redeem and reverts on rejection. May emit logs."
      },
      "refreshCompSpeeds()": {
        "notice": "Recalculate and update LHB speeds for all LHB markets"
      },
      "repayBorrowAllowed(address,address,address,uint256)": {
        "notice": "Checks if the account should be allowed to repay a borrow in the given market"
      },
      "repayBorrowVerify(address,address,address,uint256,uint256)": {
        "notice": "Validates repayBorrow and reverts on rejection. May emit logs."
      },
      "seizeAllowed(address,address,address,address,uint256)": {
        "notice": "Checks if the seizing of assets should be allowed to occur"
      },
      "seizeVerify(address,address,address,address,uint256)": {
        "notice": "Validates seize and reverts on rejection. May emit logs."
      },
      "transferAllowed(address,address,address,uint256)": {
        "notice": "Checks if the account should be allowed to transfer tokens in the given market"
      },
      "transferVerify(address,address,address,uint256)": {
        "notice": "Validates transfer and reverts on rejection. May emit logs."
      }
    },
    "version": 1
  },
  "storageLayout": {
    "storage": [
      {
        "astId": 13599,
        "contract": "contracts/compound/Comptroller.sol:Comptroller",
        "label": "admin",
        "offset": 0,
        "slot": "0",
        "type": "t_address"
      },
      {
        "astId": 13602,
        "contract": "contracts/compound/Comptroller.sol:Comptroller",
        "label": "pendingAdmin",
        "offset": 0,
        "slot": "1",
        "type": "t_address"
      },
      {
        "astId": 13605,
        "contract": "contracts/compound/Comptroller.sol:Comptroller",
        "label": "comptrollerImplementation",
        "offset": 0,
        "slot": "2",
        "type": "t_address"
      },
      {
        "astId": 13608,
        "contract": "contracts/compound/Comptroller.sol:Comptroller",
        "label": "pendingComptrollerImplementation",
        "offset": 0,
        "slot": "3",
        "type": "t_address"
      },
      {
        "astId": 13614,
        "contract": "contracts/compound/Comptroller.sol:Comptroller",
        "label": "oracle",
        "offset": 0,
        "slot": "4",
        "type": "t_contract(PriceOracle)18395"
      },
      {
        "astId": 13617,
        "contract": "contracts/compound/Comptroller.sol:Comptroller",
        "label": "closeFactorMantissa",
        "offset": 0,
        "slot": "5",
        "type": "t_uint256"
      },
      {
        "astId": 13620,
        "contract": "contracts/compound/Comptroller.sol:Comptroller",
        "label": "liquidationIncentiveMantissa",
        "offset": 0,
        "slot": "6",
        "type": "t_uint256"
      },
      {
        "astId": 13623,
        "contract": "contracts/compound/Comptroller.sol:Comptroller",
        "label": "maxAssets",
        "offset": 0,
        "slot": "7",
        "type": "t_uint256"
      },
      {
        "astId": 13629,
        "contract": "contracts/compound/Comptroller.sol:Comptroller",
        "label": "accountAssets",
        "offset": 0,
        "slot": "8",
        "type": "t_mapping(t_address,t_array(t_contract(CToken)9551)dyn_storage)"
      },
      {
        "astId": 13648,
        "contract": "contracts/compound/Comptroller.sol:Comptroller",
        "label": "markets",
        "offset": 0,
        "slot": "9",
        "type": "t_mapping(t_address,t_struct(Market)13643_storage)"
      },
      {
        "astId": 13651,
        "contract": "contracts/compound/Comptroller.sol:Comptroller",
        "label": "pauseGuardian",
        "offset": 0,
        "slot": "10",
        "type": "t_address"
      },
      {
        "astId": 13653,
        "contract": "contracts/compound/Comptroller.sol:Comptroller",
        "label": "_mintGuardianPaused",
        "offset": 20,
        "slot": "10",
        "type": "t_bool"
      },
      {
        "astId": 13655,
        "contract": "contracts/compound/Comptroller.sol:Comptroller",
        "label": "_borrowGuardianPaused",
        "offset": 21,
        "slot": "10",
        "type": "t_bool"
      },
      {
        "astId": 13657,
        "contract": "contracts/compound/Comptroller.sol:Comptroller",
        "label": "transferGuardianPaused",
        "offset": 22,
        "slot": "10",
        "type": "t_bool"
      },
      {
        "astId": 13659,
        "contract": "contracts/compound/Comptroller.sol:Comptroller",
        "label": "seizeGuardianPaused",
        "offset": 23,
        "slot": "10",
        "type": "t_bool"
      },
      {
        "astId": 13663,
        "contract": "contracts/compound/Comptroller.sol:Comptroller",
        "label": "mintGuardianPaused",
        "offset": 0,
        "slot": "11",
        "type": "t_mapping(t_address,t_bool)"
      },
      {
        "astId": 13667,
        "contract": "contracts/compound/Comptroller.sol:Comptroller",
        "label": "borrowGuardianPaused",
        "offset": 0,
        "slot": "12",
        "type": "t_mapping(t_address,t_bool)"
      },
      {
        "astId": 13679,
        "contract": "contracts/compound/Comptroller.sol:Comptroller",
        "label": "allMarkets",
        "offset": 0,
        "slot": "13",
        "type": "t_array(t_contract(CToken)9551)dyn_storage"
      },
      {
        "astId": 13682,
        "contract": "contracts/compound/Comptroller.sol:Comptroller",
        "label": "compRate",
        "offset": 0,
        "slot": "14",
        "type": "t_uint256"
      },
      {
        "astId": 13687,
        "contract": "contracts/compound/Comptroller.sol:Comptroller",
        "label": "compSpeeds",
        "offset": 0,
        "slot": "15",
        "type": "t_mapping(t_address,t_uint256)"
      },
      {
        "astId": 13692,
        "contract": "contracts/compound/Comptroller.sol:Comptroller",
        "label": "compSupplyState",
        "offset": 0,
        "slot": "16",
        "type": "t_mapping(t_address,t_struct(CompMarketState)13675_storage)"
      },
      {
        "astId": 13697,
        "contract": "contracts/compound/Comptroller.sol:Comptroller",
        "label": "compBorrowState",
        "offset": 0,
        "slot": "17",
        "type": "t_mapping(t_address,t_struct(CompMarketState)13675_storage)"
      },
      {
        "astId": 13704,
        "contract": "contracts/compound/Comptroller.sol:Comptroller",
        "label": "compSupplierIndex",
        "offset": 0,
        "slot": "18",
        "type": "t_mapping(t_address,t_mapping(t_address,t_uint256))"
      },
      {
        "astId": 13711,
        "contract": "contracts/compound/Comptroller.sol:Comptroller",
        "label": "compBorrowerIndex",
        "offset": 0,
        "slot": "19",
        "type": "t_mapping(t_address,t_mapping(t_address,t_uint256))"
      },
      {
        "astId": 13716,
        "contract": "contracts/compound/Comptroller.sol:Comptroller",
        "label": "compAccrued",
        "offset": 0,
        "slot": "20",
        "type": "t_mapping(t_address,t_uint256)"
      },
      {
        "astId": 13721,
        "contract": "contracts/compound/Comptroller.sol:Comptroller",
        "label": "borrowCapGuardian",
        "offset": 0,
        "slot": "21",
        "type": "t_address"
      },
      {
        "astId": 13725,
        "contract": "contracts/compound/Comptroller.sol:Comptroller",
        "label": "borrowCaps",
        "offset": 0,
        "slot": "22",
        "type": "t_mapping(t_address,t_uint256)"
      }
    ],
    "types": {
      "t_address": {
        "encoding": "inplace",
        "label": "address",
        "numberOfBytes": "20"
      },
      "t_array(t_contract(CToken)9551)dyn_storage": {
        "base": "t_contract(CToken)9551",
        "encoding": "dynamic_array",
        "label": "contract CToken[]",
        "numberOfBytes": "32"
      },
      "t_bool": {
        "encoding": "inplace",
        "label": "bool",
        "numberOfBytes": "1"
      },
      "t_contract(CToken)9551": {
        "encoding": "inplace",
        "label": "contract CToken",
        "numberOfBytes": "20"
      },
      "t_contract(PriceOracle)18395": {
        "encoding": "inplace",
        "label": "contract PriceOracle",
        "numberOfBytes": "20"
      },
      "t_mapping(t_address,t_array(t_contract(CToken)9551)dyn_storage)": {
        "encoding": "mapping",
        "key": "t_address",
        "label": "mapping(address => contract CToken[])",
        "numberOfBytes": "32",
        "value": "t_array(t_contract(CToken)9551)dyn_storage"
      },
      "t_mapping(t_address,t_bool)": {
        "encoding": "mapping",
        "key": "t_address",
        "label": "mapping(address => bool)",
        "numberOfBytes": "32",
        "value": "t_bool"
      },
      "t_mapping(t_address,t_mapping(t_address,t_uint256))": {
        "encoding": "mapping",
        "key": "t_address",
        "label": "mapping(address => mapping(address => uint256))",
        "numberOfBytes": "32",
        "value": "t_mapping(t_address,t_uint256)"
      },
      "t_mapping(t_address,t_struct(CompMarketState)13675_storage)": {
        "encoding": "mapping",
        "key": "t_address",
        "label": "mapping(address => struct ComptrollerV3Storage.CompMarketState)",
        "numberOfBytes": "32",
        "value": "t_struct(CompMarketState)13675_storage"
      },
      "t_mapping(t_address,t_struct(Market)13643_storage)": {
        "encoding": "mapping",
        "key": "t_address",
        "label": "mapping(address => struct ComptrollerV2Storage.Market)",
        "numberOfBytes": "32",
        "value": "t_struct(Market)13643_storage"
      },
      "t_mapping(t_address,t_uint256)": {
        "encoding": "mapping",
        "key": "t_address",
        "label": "mapping(address => uint256)",
        "numberOfBytes": "32",
        "value": "t_uint256"
      },
      "t_struct(CompMarketState)13675_storage": {
        "encoding": "inplace",
        "label": "struct ComptrollerV3Storage.CompMarketState",
        "members": [
          {
            "astId": 13672,
            "contract": "contracts/compound/Comptroller.sol:Comptroller",
            "label": "index",
            "offset": 0,
            "slot": "0",
            "type": "t_uint224"
          },
          {
            "astId": 13674,
            "contract": "contracts/compound/Comptroller.sol:Comptroller",
            "label": "block",
            "offset": 28,
            "slot": "0",
            "type": "t_uint32"
          }
        ],
        "numberOfBytes": "32"
      },
      "t_struct(Market)13643_storage": {
        "encoding": "inplace",
        "label": "struct ComptrollerV2Storage.Market",
        "members": [
          {
            "astId": 13634,
            "contract": "contracts/compound/Comptroller.sol:Comptroller",
            "label": "isListed",
            "offset": 0,
            "slot": "0",
            "type": "t_bool"
          },
          {
            "astId": 13636,
            "contract": "contracts/compound/Comptroller.sol:Comptroller",
            "label": "collateralFactorMantissa",
            "offset": 0,
            "slot": "1",
            "type": "t_uint256"
          },
          {
            "astId": 13640,
            "contract": "contracts/compound/Comptroller.sol:Comptroller",
            "label": "accountMembership",
            "offset": 0,
            "slot": "2",
            "type": "t_mapping(t_address,t_bool)"
          },
          {
            "astId": 13642,
            "contract": "contracts/compound/Comptroller.sol:Comptroller",
            "label": "isComped",
            "offset": 0,
            "slot": "3",
            "type": "t_bool"
          }
        ],
        "numberOfBytes": "128"
      },
      "t_uint224": {
        "encoding": "inplace",
        "label": "uint224",
        "numberOfBytes": "28"
      },
      "t_uint256": {
        "encoding": "inplace",
        "label": "uint256",
        "numberOfBytes": "32"
      },
      "t_uint32": {
        "encoding": "inplace",
        "label": "uint32",
        "numberOfBytes": "4"
      }
    }
  }
}