{
  "address": "0xe1fC945d6B51dFd86153A5Ed64390411D0524cE9",
  "abi": [
    {
      "inputs": [],
      "payable": false,
      "stateMutability": "nonpayable",
      "type": "constructor"
    },
    {
      "anonymous": false,
      "inputs": [
        {
          "indexed": false,
          "internalType": "contract CToken",
          "name": "cToken",
          "type": "address"
        },
        {
          "indexed": false,
          "internalType": "string",
          "name": "action",
          "type": "string"
        },
        {
          "indexed": false,
          "internalType": "bool",
          "name": "pauseState",
          "type": "bool"
        }
      ],
      "name": "ActionPaused",
      "type": "event"
    },
    {
      "anonymous": false,
      "inputs": [
        {
          "indexed": false,
          "internalType": "string",
          "name": "action",
          "type": "string"
        },
        {
          "indexed": false,
          "internalType": "bool",
          "name": "pauseState",
          "type": "bool"
        }
      ],
      "name": "ActionPausedAll",
      "type": "event"
    },
    {
      "anonymous": false,
      "inputs": [
        {
          "indexed": false,
          "internalType": "address",
          "name": "recipient",
          "type": "address"
        },
        {
          "indexed": false,
          "internalType": "uint256",
          "name": "amount",
          "type": "uint256"
        }
      ],
      "name": "CompGranted",
      "type": "event"
    },
    {
      "anonymous": false,
      "inputs": [
        {
          "indexed": true,
          "internalType": "contract CToken",
          "name": "cToken",
          "type": "address"
        },
        {
          "indexed": false,
          "internalType": "uint256",
          "name": "newSpeed",
          "type": "uint256"
        }
      ],
      "name": "CompSpeedUpdated",
      "type": "event"
    },
    {
      "anonymous": false,
      "inputs": [
        {
          "indexed": true,
          "internalType": "contract CToken",
          "name": "cToken",
          "type": "address"
        },
        {
          "indexed": true,
          "internalType": "address",
          "name": "borrower",
          "type": "address"
        },
        {
          "indexed": false,
          "internalType": "uint256",
          "name": "compDelta",
          "type": "uint256"
        },
        {
          "indexed": false,
          "internalType": "uint256",
          "name": "compBorrowIndex",
          "type": "uint256"
        }
      ],
      "name": "DistributedBorrowerComp",
      "type": "event"
    },
    {
      "anonymous": false,
      "inputs": [
        {
          "indexed": true,
          "internalType": "contract CToken",
          "name": "cToken",
          "type": "address"
        },
        {
          "indexed": true,
          "internalType": "address",
          "name": "supplier",
          "type": "address"
        },
        {
          "indexed": false,
          "internalType": "uint256",
          "name": "compDelta",
          "type": "uint256"
        },
        {
          "indexed": false,
          "internalType": "uint256",
          "name": "compSupplyIndex",
          "type": "uint256"
        }
      ],
      "name": "DistributedSupplierComp",
      "type": "event"
    },
    {
      "anonymous": false,
      "inputs": [
        {
          "indexed": false,
          "internalType": "uint256",
          "name": "error",
          "type": "uint256"
        },
        {
          "indexed": false,
          "internalType": "uint256",
          "name": "info",
          "type": "uint256"
        },
        {
          "indexed": false,
          "internalType": "uint256",
          "name": "detail",
          "type": "uint256"
        }
      ],
      "name": "Failure",
      "type": "event"
    },
    {
      "anonymous": false,
      "inputs": [
        {
          "indexed": false,
          "internalType": "contract CToken",
          "name": "cToken",
          "type": "address"
        },
        {
          "indexed": false,
          "internalType": "bool",
          "name": "isComped",
          "type": "bool"
        }
      ],
      "name": "MarketComped",
      "type": "event"
    },
    {
      "anonymous": false,
      "inputs": [
        {
          "indexed": false,
          "internalType": "contract CToken",
          "name": "cToken",
          "type": "address"
        },
        {
          "indexed": false,
          "internalType": "address",
          "name": "account",
          "type": "address"
        }
      ],
      "name": "MarketEntered",
      "type": "event"
    },
    {
      "anonymous": false,
      "inputs": [
        {
          "indexed": false,
          "internalType": "contract CToken",
          "name": "cToken",
          "type": "address"
        },
        {
          "indexed": false,
          "internalType": "address",
          "name": "account",
          "type": "address"
        }
      ],
      "name": "MarketExited",
      "type": "event"
    },
    {
      "anonymous": false,
      "inputs": [
        {
          "indexed": false,
          "internalType": "contract CToken",
          "name": "cToken",
          "type": "address"
        }
      ],
      "name": "MarketListed",
      "type": "event"
    },
    {
      "anonymous": false,
      "inputs": [
        {
          "indexed": true,
          "internalType": "contract CToken",
          "name": "cToken",
          "type": "address"
        },
        {
          "indexed": false,
          "internalType": "uint256",
          "name": "newBorrowCap",
          "type": "uint256"
        }
      ],
      "name": "NewBorrowCap",
      "type": "event"
    },
    {
      "anonymous": false,
      "inputs": [
        {
          "indexed": false,
          "internalType": "address",
          "name": "oldBorrowCapGuardian",
          "type": "address"
        },
        {
          "indexed": false,
          "internalType": "address",
          "name": "newBorrowCapGuardian",
          "type": "address"
        }
      ],
      "name": "NewBorrowCapGuardian",
      "type": "event"
    },
    {
      "anonymous": false,
      "inputs": [
        {
          "indexed": false,
          "internalType": "uint256",
          "name": "oldCloseFactorMantissa",
          "type": "uint256"
        },
        {
          "indexed": false,
          "internalType": "uint256",
          "name": "newCloseFactorMantissa",
          "type": "uint256"
        }
      ],
      "name": "NewCloseFactor",
      "type": "event"
    },
    {
      "anonymous": false,
      "inputs": [
        {
          "indexed": false,
          "internalType": "contract CToken",
          "name": "cToken",
          "type": "address"
        },
        {
          "indexed": false,
          "internalType": "uint256",
          "name": "oldCollateralFactorMantissa",
          "type": "uint256"
        },
        {
          "indexed": false,
          "internalType": "uint256",
          "name": "newCollateralFactorMantissa",
          "type": "uint256"
        }
      ],
      "name": "NewCollateralFactor",
      "type": "event"
    },
    {
      "anonymous": false,
      "inputs": [
        {
          "indexed": false,
          "internalType": "uint256",
          "name": "oldCompRate",
          "type": "uint256"
        },
        {
          "indexed": false,
          "internalType": "uint256",
          "name": "newCompRate",
          "type": "uint256"
        }
      ],
      "name": "NewCompRate",
      "type": "event"
    },
    {
      "anonymous": false,
      "inputs": [
        {
          "indexed": false,
          "internalType": "uint256",
          "name": "oldLiquidationIncentiveMantissa",
          "type": "uint256"
        },
        {
          "indexed": false,
          "internalType": "uint256",
          "name": "newLiquidationIncentiveMantissa",
          "type": "uint256"
        }
      ],
      "name": "NewLiquidationIncentive",
      "type": "event"
    },
    {
      "anonymous": false,
      "inputs": [
        {
          "indexed": false,
          "internalType": "address",
          "name": "oldPauseGuardian",
          "type": "address"
        },
        {
          "indexed": false,
          "internalType": "address",
          "name": "newPauseGuardian",
          "type": "address"
        }
      ],
      "name": "NewPauseGuardian",
      "type": "event"
    },
    {
      "anonymous": false,
      "inputs": [
        {
          "indexed": false,
          "internalType": "contract PriceOracle",
          "name": "oldPriceOracle",
          "type": "address"
        },
        {
          "indexed": false,
          "internalType": "contract PriceOracle",
          "name": "newPriceOracle",
          "type": "address"
        }
      ],
      "name": "NewPriceOracle",
      "type": "event"
    },
    {
      "constant": false,
      "inputs": [
        {
          "internalType": "address[]",
          "name": "cTokens",
          "type": "address[]"
        }
      ],
      "name": "_addCompMarkets",
      "outputs": [],
      "payable": false,
      "stateMutability": "nonpayable",
      "type": "function"
    },
    {
      "constant": false,
      "inputs": [
        {
          "internalType": "contract Unitroller",
          "name": "unitroller",
          "type": "address"
        }
      ],
      "name": "_become",
      "outputs": [],
      "payable": false,
      "stateMutability": "nonpayable",
      "type": "function"
    },
    {
      "constant": true,
      "inputs": [],
      "name": "_borrowGuardianPaused",
      "outputs": [
        {
          "internalType": "bool",
          "name": "",
          "type": "bool"
        }
      ],
      "payable": false,
      "stateMutability": "view",
      "type": "function"
    },
    {
      "constant": false,
      "inputs": [
        {
          "internalType": "address",
          "name": "cToken",
          "type": "address"
        }
      ],
      "name": "_dropCompMarket",
      "outputs": [],
      "payable": false,
      "stateMutability": "nonpayable",
      "type": "function"
    },
    {
      "constant": false,
      "inputs": [
        {
          "internalType": "address",
          "name": "recipient",
          "type": "address"
        },
        {
          "internalType": "uint256",
          "name": "amount",
          "type": "uint256"
        }
      ],
      "name": "_grantComp",
      "outputs": [],
      "payable": false,
      "stateMutability": "nonpayable",
      "type": "function"
    },
    {
      "constant": true,
      "inputs": [],
      "name": "_mintGuardianPaused",
      "outputs": [
        {
          "internalType": "bool",
          "name": "",
          "type": "bool"
        }
      ],
      "payable": false,
      "stateMutability": "view",
      "type": "function"
    },
    {
      "constant": false,
      "inputs": [
        {
          "internalType": "address",
          "name": "newBorrowCapGuardian",
          "type": "address"
        }
      ],
      "name": "_setBorrowCapGuardian",
      "outputs": [],
      "payable": false,
      "stateMutability": "nonpayable",
      "type": "function"
    },
    {
      "constant": false,
      "inputs": [
        {
          "internalType": "contract CToken",
          "name": "cToken",
          "type": "address"
        },
        {
          "internalType": "bool",
          "name": "state",
          "type": "bool"
        }
      ],
      "name": "_setBorrowPaused",
      "outputs": [
        {
          "internalType": "bool",
          "name": "",
          "type": "bool"
        }
      ],
      "payable": false,
      "stateMutability": "nonpayable",
      "type": "function"
    },
    {
      "constant": false,
      "inputs": [
        {
          "internalType": "uint256",
          "name": "newCloseFactorMantissa",
          "type": "uint256"
        }
      ],
      "name": "_setCloseFactor",
      "outputs": [
        {
          "internalType": "uint256",
          "name": "",
          "type": "uint256"
        }
      ],
      "payable": false,
      "stateMutability": "nonpayable",
      "type": "function"
    },
    {
      "constant": false,
      "inputs": [
        {
          "internalType": "contract CToken",
          "name": "cToken",
          "type": "address"
        },
        {
          "internalType": "uint256",
          "name": "newCollateralFactorMantissa",
          "type": "uint256"
        }
      ],
      "name": "_setCollateralFactor",
      "outputs": [
        {
          "internalType": "uint256",
          "name": "",
          "type": "uint256"
        }
      ],
      "payable": false,
      "stateMutability": "nonpayable",
      "type": "function"
    },
    {
      "constant": false,
      "inputs": [
        {
          "internalType": "uint256",
          "name": "compRate_",
          "type": "uint256"
        }
      ],
      "name": "_setCompRate",
      "outputs": [],
      "payable": false,
      "stateMutability": "nonpayable",
      "type": "function"
    },
    {
      "constant": false,
      "inputs": [
        {
          "internalType": "uint256",
          "name": "newLiquidationIncentiveMantissa",
          "type": "uint256"
        }
      ],
      "name": "_setLiquidationIncentive",
      "outputs": [
        {
          "internalType": "uint256",
          "name": "",
          "type": "uint256"
        }
      ],
      "payable": false,
      "stateMutability": "nonpayable",
      "type": "function"
    },
    {
      "constant": false,
      "inputs": [
        {
          "internalType": "contract CToken[]",
          "name": "cTokens",
          "type": "address[]"
        },
        {
          "internalType": "uint256[]",
          "name": "newBorrowCaps",
          "type": "uint256[]"
        }
      ],
      "name": "_setMarketBorrowCaps",
      "outputs": [],
      "payable": false,
      "stateMutability": "nonpayable",
      "type": "function"
    },
    {
      "constant": false,
      "inputs": [
        {
          "internalType": "contract CToken",
          "name": "cToken",
          "type": "address"
        },
        {
          "internalType": "bool",
          "name": "state",
          "type": "bool"
        }
      ],
      "name": "_setMintPaused",
      "outputs": [
        {
          "internalType": "bool",
          "name": "",
          "type": "bool"
        }
      ],
      "payable": false,
      "stateMutability": "nonpayable",
      "type": "function"
    },
    {
      "constant": false,
      "inputs": [
        {
          "internalType": "address",
          "name": "newPauseGuardian",
          "type": "address"
        }
      ],
      "name": "_setPauseGuardian",
      "outputs": [
        {
          "internalType": "uint256",
          "name": "",
          "type": "uint256"
        }
      ],
      "payable": false,
      "stateMutability": "nonpayable",
      "type": "function"
    },
    {
      "constant": false,
      "inputs": [
        {
          "internalType": "contract PriceOracle",
          "name": "newOracle",
          "type": "address"
        }
      ],
      "name": "_setPriceOracle",
      "outputs": [
        {
          "internalType": "uint256",
          "name": "",
          "type": "uint256"
        }
      ],
      "payable": false,
      "stateMutability": "nonpayable",
      "type": "function"
    },
    {
      "constant": false,
      "inputs": [
        {
          "internalType": "bool",
          "name": "state",
          "type": "bool"
        }
      ],
      "name": "_setSeizePaused",
      "outputs": [
        {
          "internalType": "bool",
          "name": "",
          "type": "bool"
        }
      ],
      "payable": false,
      "stateMutability": "nonpayable",
      "type": "function"
    },
    {
      "constant": false,
      "inputs": [
        {
          "internalType": "bool",
          "name": "state",
          "type": "bool"
        }
      ],
      "name": "_setTransferPaused",
      "outputs": [
        {
          "internalType": "bool",
          "name": "",
          "type": "bool"
        }
      ],
      "payable": false,
      "stateMutability": "nonpayable",
      "type": "function"
    },
    {
      "constant": false,
      "inputs": [
        {
          "internalType": "address",
          "name": "cToken",
          "type": "address"
        }
      ],
      "name": "_supportMarket",
      "outputs": [
        {
          "internalType": "uint256",
          "name": "",
          "type": "uint256"
        }
      ],
      "payable": false,
      "stateMutability": "nonpayable",
      "type": "function"
    },
    {
      "constant": true,
      "inputs": [
        {
          "internalType": "address",
          "name": "",
          "type": "address"
        },
        {
          "internalType": "uint256",
          "name": "",
          "type": "uint256"
        }
      ],
      "name": "accountAssets",
      "outputs": [
        {
          "internalType": "contract CToken",
          "name": "",
          "type": "address"
        }
      ],
      "payable": false,
      "stateMutability": "view",
      "type": "function"
    },
    {
      "constant": true,
      "inputs": [],
      "name": "admin",
      "outputs": [
        {
          "internalType": "address",
          "name": "",
          "type": "address"
        }
      ],
      "payable": false,
      "stateMutability": "view",
      "type": "function"
    },
    {
      "constant": true,
      "inputs": [
        {
          "internalType": "uint256",
          "name": "",
          "type": "uint256"
        }
      ],
      "name": "allMarkets",
      "outputs": [
        {
          "internalType": "contract CToken",
          "name": "",
          "type": "address"
        }
      ],
      "payable": false,
      "stateMutability": "view",
      "type": "function"
    },
    {
      "constant": false,
      "inputs": [
        {
          "internalType": "address",
          "name": "cToken",
          "type": "address"
        },
        {
          "internalType": "address",
          "name": "borrower",
          "type": "address"
        },
        {
          "internalType": "uint256",
          "name": "borrowAmount",
          "type": "uint256"
        }
      ],
      "name": "borrowAllowed",
      "outputs": [
        {
          "internalType": "uint256",
          "name": "",
          "type": "uint256"
        }
      ],
      "payable": false,
      "stateMutability": "nonpayable",
      "type": "function"
    },
    {
      "constant": true,
      "inputs": [],
      "name": "borrowCapGuardian",
      "outputs": [
        {
          "internalType": "address",
          "name": "",
          "type": "address"
        }
      ],
      "payable": false,
      "stateMutability": "view",
      "type": "function"
    },
    {
      "constant": true,
      "inputs": [
        {
          "internalType": "address",
          "name": "",
          "type": "address"
        }
      ],
      "name": "borrowCaps",
      "outputs": [
        {
          "internalType": "uint256",
          "name": "",
          "type": "uint256"
        }
      ],
      "payable": false,
      "stateMutability": "view",
      "type": "function"
    },
    {
      "constant": true,
      "inputs": [
        {
          "internalType": "address",
          "name": "",
          "type": "address"
        }
      ],
      "name": "borrowGuardianPaused",
      "outputs": [
        {
          "internalType": "bool",
          "name": "",
          "type": "bool"
        }
      ],
      "payable": false,
      "stateMutability": "view",
      "type": "function"
    },
    {
      "constant": false,
      "inputs": [
        {
          "internalType": "address",
          "name": "cToken",
          "type": "address"
        },
        {
          "internalType": "address",
          "name": "borrower",
          "type": "address"
        },
        {
          "internalType": "uint256",
          "name": "borrowAmount",
          "type": "uint256"
        }
      ],
      "name": "borrowMarginAllowed",
      "outputs": [
        {
          "internalType": "uint256",
          "name": "",
          "type": "uint256"
        }
      ],
      "payable": false,
      "stateMutability": "nonpayable",
      "type": "function"
    },
    {
      "constant": false,
      "inputs": [
        {
          "internalType": "address",
          "name": "cToken",
          "type": "address"
        },
        {
          "internalType": "address",
          "name": "borrower",
          "type": "address"
        },
        {
          "internalType": "uint256",
          "name": "borrowAmount",
          "type": "uint256"
        }
      ],
      "name": "borrowVerify",
      "outputs": [],
      "payable": false,
      "stateMutability": "nonpayable",
      "type": "function"
    },
    {
      "constant": true,
      "inputs": [
        {
          "internalType": "address",
          "name": "account",
          "type": "address"
        },
        {
          "internalType": "contract CToken",
          "name": "cToken",
          "type": "address"
        }
      ],
      "name": "checkMembership",
      "outputs": [
        {
          "internalType": "bool",
          "name": "",
          "type": "bool"
        }
      ],
      "payable": false,
      "stateMutability": "view",
      "type": "function"
    },
    {
      "constant": false,
      "inputs": [
        {
          "internalType": "address",
          "name": "holder",
          "type": "address"
        },
        {
          "internalType": "contract CToken[]",
          "name": "cTokens",
          "type": "address[]"
        }
      ],
      "name": "claimComp",
      "outputs": [],
      "payable": false,
      "stateMutability": "nonpayable",
      "type": "function"
    },
    {
      "constant": false,
      "inputs": [
        {
          "internalType": "address[]",
          "name": "holders",
          "type": "address[]"
        },
        {
          "internalType": "contract CToken[]",
          "name": "cTokens",
          "type": "address[]"
        },
        {
          "internalType": "bool",
          "name": "borrowers",
          "type": "bool"
        },
        {
          "internalType": "bool",
          "name": "suppliers",
          "type": "bool"
        }
      ],
      "name": "claimComp",
      "outputs": [],
      "payable": false,
      "stateMutability": "nonpayable",
      "type": "function"
    },
    {
      "constant": false,
      "inputs": [
        {
          "internalType": "address",
          "name": "holder",
          "type": "address"
        }
      ],
      "name": "claimComp",
      "outputs": [],
      "payable": false,
      "stateMutability": "nonpayable",
      "type": "function"
    },
    {
      "constant": true,
      "inputs": [],
      "name": "closeFactorMantissa",
      "outputs": [
        {
          "internalType": "uint256",
          "name": "",
          "type": "uint256"
        }
      ],
      "payable": false,
      "stateMutability": "view",
      "type": "function"
    },
    {
      "constant": true,
      "inputs": [
        {
          "internalType": "address",
          "name": "",
          "type": "address"
        }
      ],
      "name": "compAccrued",
      "outputs": [
        {
          "internalType": "uint256",
          "name": "",
          "type": "uint256"
        }
      ],
      "payable": false,
      "stateMutability": "view",
      "type": "function"
    },
    {
      "constant": true,
      "inputs": [
        {
          "internalType": "address",
          "name": "",
          "type": "address"
        }
      ],
      "name": "compBorrowState",
      "outputs": [
        {
          "internalType": "uint224",
          "name": "index",
          "type": "uint224"
        },
        {
          "internalType": "uint32",
          "name": "block",
          "type": "uint32"
        }
      ],
      "payable": false,
      "stateMutability": "view",
      "type": "function"
    },
    {
      "constant": true,
      "inputs": [
        {
          "internalType": "address",
          "name": "",
          "type": "address"
        },
        {
          "internalType": "address",
          "name": "",
          "type": "address"
        }
      ],
      "name": "compBorrowerIndex",
      "outputs": [
        {
          "internalType": "uint256",
          "name": "",
          "type": "uint256"
        }
      ],
      "payable": false,
      "stateMutability": "view",
      "type": "function"
    },
    {
      "constant": true,
      "inputs": [],
      "name": "compClaimThreshold",
      "outputs": [
        {
          "internalType": "uint256",
          "name": "",
          "type": "uint256"
        }
      ],
      "payable": false,
      "stateMutability": "view",
      "type": "function"
    },
    {
      "constant": true,
      "inputs": [],
      "name": "compInitialIndex",
      "outputs": [
        {
          "internalType": "uint224",
          "name": "",
          "type": "uint224"
        }
      ],
      "payable": false,
      "stateMutability": "view",
      "type": "function"
    },
    {
      "constant": true,
      "inputs": [],
      "name": "compRate",
      "outputs": [
        {
          "internalType": "uint256",
          "name": "",
          "type": "uint256"
        }
      ],
      "payable": false,
      "stateMutability": "view",
      "type": "function"
    },
    {
      "constant": true,
      "inputs": [
        {
          "internalType": "address",
          "name": "",
          "type": "address"
        }
      ],
      "name": "compSpeeds",
      "outputs": [
        {
          "internalType": "uint256",
          "name": "",
          "type": "uint256"
        }
      ],
      "payable": false,
      "stateMutability": "view",
      "type": "function"
    },
    {
      "constant": true,
      "inputs": [
        {
          "internalType": "address",
          "name": "",
          "type": "address"
        },
        {
          "internalType": "address",
          "name": "",
          "type": "address"
        }
      ],
      "name": "compSupplierIndex",
      "outputs": [
        {
          "internalType": "uint256",
          "name": "",
          "type": "uint256"
        }
      ],
      "payable": false,
      "stateMutability": "view",
      "type": "function"
    },
    {
      "constant": true,
      "inputs": [
        {
          "internalType": "address",
          "name": "",
          "type": "address"
        }
      ],
      "name": "compSupplyState",
      "outputs": [
        {
          "internalType": "uint224",
          "name": "index",
          "type": "uint224"
        },
        {
          "internalType": "uint32",
          "name": "block",
          "type": "uint32"
        }
      ],
      "payable": false,
      "stateMutability": "view",
      "type": "function"
    },
    {
      "constant": true,
      "inputs": [],
      "name": "comptrollerImplementation",
      "outputs": [
        {
          "internalType": "address",
          "name": "",
          "type": "address"
        }
      ],
      "payable": false,
      "stateMutability": "view",
      "type": "function"
    },
    {
      "constant": false,
      "inputs": [
        {
          "internalType": "address[]",
          "name": "cTokens",
          "type": "address[]"
        }
      ],
      "name": "enterMarkets",
      "outputs": [
        {
          "internalType": "uint256[]",
          "name": "",
          "type": "uint256[]"
        }
      ],
      "payable": false,
      "stateMutability": "nonpayable",
      "type": "function"
    },
    {
      "constant": false,
      "inputs": [
        {
          "internalType": "address",
          "name": "cTokenAddress",
          "type": "address"
        }
      ],
      "name": "exitMarket",
      "outputs": [
        {
          "internalType": "uint256",
          "name": "",
          "type": "uint256"
        }
      ],
      "payable": false,
      "stateMutability": "nonpayable",
      "type": "function"
    },
    {
      "constant": true,
      "inputs": [
        {
          "internalType": "address",
          "name": "account",
          "type": "address"
        }
      ],
      "name": "getAccountLiquidity",
      "outputs": [
        {
          "internalType": "uint256",
          "name": "",
          "type": "uint256"
        },
        {
          "internalType": "uint256",
          "name": "",
          "type": "uint256"
        },
        {
          "internalType": "uint256",
          "name": "",
          "type": "uint256"
        }
      ],
      "payable": false,
      "stateMutability": "view",
      "type": "function"
    },
    {
      "constant": true,
      "inputs": [],
      "name": "getAllMarkets",
      "outputs": [
        {
          "internalType": "contract CToken[]",
          "name": "",
          "type": "address[]"
        }
      ],
      "payable": false,
      "stateMutability": "view",
      "type": "function"
    },
    {
      "constant": true,
      "inputs": [
        {
          "internalType": "address",
          "name": "account",
          "type": "address"
        }
      ],
      "name": "getAssetsIn",
      "outputs": [
        {
          "internalType": "contract CToken[]",
          "name": "",
          "type": "address[]"
        }
      ],
      "payable": false,
      "stateMutability": "view",
      "type": "function"
    },
    {
      "constant": true,
      "inputs": [],
      "name": "getBlockNumber",
      "outputs": [
        {
          "internalType": "uint256",
          "name": "",
          "type": "uint256"
        }
      ],
      "payable": false,
      "stateMutability": "view",
      "type": "function"
    },
    {
      "constant": true,
      "inputs": [
        {
          "internalType": "address",
          "name": "token",
          "type": "address"
        }
      ],
      "name": "getCTokenAddress",
      "outputs": [
        {
          "internalType": "address",
          "name": "",
          "type": "address"
        }
      ],
      "payable": false,
      "stateMutability": "view",
      "type": "function"
    },
    {
      "constant": true,
      "inputs": [],
      "name": "getCompAddress",
      "outputs": [
        {
          "internalType": "address",
          "name": "",
          "type": "address"
        }
      ],
      "payable": false,
      "stateMutability": "pure",
      "type": "function"
    },
    {
      "constant": true,
      "inputs": [
        {
          "internalType": "address",
          "name": "account",
          "type": "address"
        },
        {
          "internalType": "address",
          "name": "cTokenModify",
          "type": "address"
        },
        {
          "internalType": "uint256",
          "name": "redeemTokens",
          "type": "uint256"
        },
        {
          "internalType": "uint256",
          "name": "borrowAmount",
          "type": "uint256"
        }
      ],
      "name": "getHypotheticalAccountLiquidity",
      "outputs": [
        {
          "internalType": "uint256",
          "name": "",
          "type": "uint256"
        },
        {
          "internalType": "uint256",
          "name": "",
          "type": "uint256"
        },
        {
          "internalType": "uint256",
          "name": "",
          "type": "uint256"
        }
      ],
      "payable": false,
      "stateMutability": "view",
      "type": "function"
    },
    {
      "constant": true,
      "inputs": [],
      "name": "isComptroller",
      "outputs": [
        {
          "internalType": "bool",
          "name": "",
          "type": "bool"
        }
      ],
      "payable": false,
      "stateMutability": "view",
      "type": "function"
    },
    {
      "constant": false,
      "inputs": [
        {
          "internalType": "address",
          "name": "cTokenBorrowed",
          "type": "address"
        },
        {
          "internalType": "address",
          "name": "cTokenCollateral",
          "type": "address"
        },
        {
          "internalType": "address",
          "name": "liquidator",
          "type": "address"
        },
        {
          "internalType": "address",
          "name": "borrower",
          "type": "address"
        },
        {
          "internalType": "uint256",
          "name": "repayAmount",
          "type": "uint256"
        }
      ],
      "name": "liquidateBorrowAllowed",
      "outputs": [
        {
          "internalType": "uint256",
          "name": "",
          "type": "uint256"
        }
      ],
      "payable": false,
      "stateMutability": "nonpayable",
      "type": "function"
    },
    {
      "constant": false,
      "inputs": [
        {
          "internalType": "address",
          "name": "cTokenBorrowed",
          "type": "address"
        },
        {
          "internalType": "address",
          "name": "cTokenCollateral",
          "type": "address"
        },
        {
          "internalType": "address",
          "name": "liquidator",
          "type": "address"
        },
        {
          "internalType": "address",
          "name": "borrower",
          "type": "address"
        },
        {
          "internalType": "uint256",
          "name": "actualRepayAmount",
          "type": "uint256"
        },
        {
          "internalType": "uint256",
          "name": "seizeTokens",
          "type": "uint256"
        }
      ],
      "name": "liquidateBorrowVerify",
      "outputs": [],
      "payable": false,
      "stateMutability": "nonpayable",
      "type": "function"
    },
    {
      "constant": true,
      "inputs": [
        {
          "internalType": "address",
          "name": "cTokenBorrowed",
          "type": "address"
        },
        {
          "internalType": "address",
          "name": "cTokenCollateral",
          "type": "address"
        },
        {
          "internalType": "uint256",
          "name": "actualRepayAmount",
          "type": "uint256"
        }
      ],
      "name": "liquidateCalculateSeizeTokens",
      "outputs": [
        {
          "internalType": "uint256",
          "name": "",
          "type": "uint256"
        },
        {
          "internalType": "uint256",
          "name": "",
          "type": "uint256"
        }
      ],
      "payable": false,
      "stateMutability": "view",
      "type": "function"
    },
    {
      "constant": true,
      "inputs": [],
      "name": "liquidationIncentiveMantissa",
      "outputs": [
        {
          "internalType": "uint256",
          "name": "",
          "type": "uint256"
        }
      ],
      "payable": false,
      "stateMutability": "view",
      "type": "function"
    },
    {
      "constant": true,
      "inputs": [],
      "name": "marginLP",
      "outputs": [
        {
          "internalType": "address",
          "name": "",
          "type": "address"
        }
      ],
      "payable": false,
      "stateMutability": "view",
      "type": "function"
    },
    {
      "constant": true,
      "inputs": [],
      "name": "marginSwap",
      "outputs": [
        {
          "internalType": "address",
          "name": "",
          "type": "address"
        }
      ],
      "payable": false,
      "stateMutability": "view",
      "type": "function"
    },
    {
      "constant": true,
      "inputs": [
        {
          "internalType": "address",
          "name": "",
          "type": "address"
        }
      ],
      "name": "markets",
      "outputs": [
        {
          "internalType": "bool",
          "name": "isListed",
          "type": "bool"
        },
        {
          "internalType": "uint256",
          "name": "collateralFactorMantissa",
          "type": "uint256"
        },
        {
          "internalType": "bool",
          "name": "isComped",
          "type": "bool"
        }
      ],
      "payable": false,
      "stateMutability": "view",
      "type": "function"
    },
    {
      "constant": true,
      "inputs": [],
      "name": "maxAssets",
      "outputs": [
        {
          "internalType": "uint256",
          "name": "",
          "type": "uint256"
        }
      ],
      "payable": false,
      "stateMutability": "view",
      "type": "function"
    },
    {
      "constant": false,
      "inputs": [
        {
          "internalType": "address",
          "name": "cToken",
          "type": "address"
        },
        {
          "internalType": "address",
          "name": "minter",
          "type": "address"
        },
        {
          "internalType": "uint256",
          "name": "mintAmount",
          "type": "uint256"
        }
      ],
      "name": "mintAllowed",
      "outputs": [
        {
          "internalType": "uint256",
          "name": "",
          "type": "uint256"
        }
      ],
      "payable": false,
      "stateMutability": "nonpayable",
      "type": "function"
    },
    {
      "constant": true,
      "inputs": [
        {
          "internalType": "address",
          "name": "",
          "type": "address"
        }
      ],
      "name": "mintGuardianPaused",
      "outputs": [
        {
          "internalType": "bool",
          "name": "",
          "type": "bool"
        }
      ],
      "payable": false,
      "stateMutability": "view",
      "type": "function"
    },
    {
      "constant": false,
      "inputs": [
        {
          "internalType": "address",
          "name": "cToken",
          "type": "address"
        },
        {
          "internalType": "address",
          "name": "minter",
          "type": "address"
        },
        {
          "internalType": "uint256",
          "name": "actualMintAmount",
          "type": "uint256"
        },
        {
          "internalType": "uint256",
          "name": "mintTokens",
          "type": "uint256"
        }
      ],
      "name": "mintVerify",
      "outputs": [],
      "payable": false,
      "stateMutability": "nonpayable",
      "type": "function"
    },
    {
      "constant": true,
      "inputs": [],
      "name": "oracle",
      "outputs": [
        {
          "internalType": "contract PriceOracle",
          "name": "",
          "type": "address"
        }
      ],
      "payable": false,
      "stateMutability": "view",
      "type": "function"
    },
    {
      "constant": true,
      "inputs": [],
      "name": "pauseGuardian",
      "outputs": [
        {
          "internalType": "address",
          "name": "",
          "type": "address"
        }
      ],
      "payable": false,
      "stateMutability": "view",
      "type": "function"
    },
    {
      "constant": true,
      "inputs": [],
      "name": "pendingAdmin",
      "outputs": [
        {
          "internalType": "address",
          "name": "",
          "type": "address"
        }
      ],
      "payable": false,
      "stateMutability": "view",
      "type": "function"
    },
    {
      "constant": true,
      "inputs": [],
      "name": "pendingComptrollerImplementation",
      "outputs": [
        {
          "internalType": "address",
          "name": "",
          "type": "address"
        }
      ],
      "payable": false,
      "stateMutability": "view",
      "type": "function"
    },
    {
      "constant": false,
      "inputs": [
        {
          "internalType": "address",
          "name": "cToken",
          "type": "address"
        },
        {
          "internalType": "address",
          "name": "redeemer",
          "type": "address"
        },
        {
          "internalType": "uint256",
          "name": "redeemTokens",
          "type": "uint256"
        }
      ],
      "name": "redeemAllowed",
      "outputs": [
        {
          "internalType": "uint256",
          "name": "",
          "type": "uint256"
        }
      ],
      "payable": false,
      "stateMutability": "nonpayable",
      "type": "function"
    },
    {
      "constant": false,
      "inputs": [
        {
          "internalType": "address",
          "name": "cToken",
          "type": "address"
        },
        {
          "internalType": "address",
          "name": "redeemer",
          "type": "address"
        },
        {
          "internalType": "uint256",
          "name": "redeemAmount",
          "type": "uint256"
        },
        {
          "internalType": "uint256",
          "name": "redeemTokens",
          "type": "uint256"
        }
      ],
      "name": "redeemVerify",
      "outputs": [],
      "payable": false,
      "stateMutability": "nonpayable",
      "type": "function"
    },
    {
      "constant": false,
      "inputs": [],
      "name": "refreshCompSpeeds",
      "outputs": [],
      "payable": false,
      "stateMutability": "nonpayable",
      "type": "function"
    },
    {
      "constant": false,
      "inputs": [
        {
          "internalType": "address",
          "name": "cToken",
          "type": "address"
        },
        {
          "internalType": "address",
          "name": "payer",
          "type": "address"
        },
        {
          "internalType": "address",
          "name": "borrower",
          "type": "address"
        },
        {
          "internalType": "uint256",
          "name": "repayAmount",
          "type": "uint256"
        }
      ],
      "name": "repayBorrowAllowed",
      "outputs": [
        {
          "internalType": "uint256",
          "name": "",
          "type": "uint256"
        }
      ],
      "payable": false,
      "stateMutability": "nonpayable",
      "type": "function"
    },
    {
      "constant": false,
      "inputs": [
        {
          "internalType": "address",
          "name": "cToken",
          "type": "address"
        },
        {
          "internalType": "address",
          "name": "payer",
          "type": "address"
        },
        {
          "internalType": "address",
          "name": "borrower",
          "type": "address"
        },
        {
          "internalType": "uint256",
          "name": "actualRepayAmount",
          "type": "uint256"
        },
        {
          "internalType": "uint256",
          "name": "borrowerIndex",
          "type": "uint256"
        }
      ],
      "name": "repayBorrowVerify",
      "outputs": [],
      "payable": false,
      "stateMutability": "nonpayable",
      "type": "function"
    },
    {
      "constant": false,
      "inputs": [
        {
          "internalType": "address",
          "name": "cTokenCollateral",
          "type": "address"
        },
        {
          "internalType": "address",
          "name": "cTokenBorrowed",
          "type": "address"
        },
        {
          "internalType": "address",
          "name": "liquidator",
          "type": "address"
        },
        {
          "internalType": "address",
          "name": "borrower",
          "type": "address"
        },
        {
          "internalType": "uint256",
          "name": "seizeTokens",
          "type": "uint256"
        }
      ],
      "name": "seizeAllowed",
      "outputs": [
        {
          "internalType": "uint256",
          "name": "",
          "type": "uint256"
        }
      ],
      "payable": false,
      "stateMutability": "nonpayable",
      "type": "function"
    },
    {
      "constant": true,
      "inputs": [],
      "name": "seizeGuardianPaused",
      "outputs": [
        {
          "internalType": "bool",
          "name": "",
          "type": "bool"
        }
      ],
      "payable": false,
      "stateMutability": "view",
      "type": "function"
    },
    {
      "constant": false,
      "inputs": [
        {
          "internalType": "address",
          "name": "cTokenCollateral",
          "type": "address"
        },
        {
          "internalType": "address",
          "name": "cTokenBorrowed",
          "type": "address"
        },
        {
          "internalType": "address",
          "name": "liquidator",
          "type": "address"
        },
        {
          "internalType": "address",
          "name": "borrower",
          "type": "address"
        },
        {
          "internalType": "uint256",
          "name": "seizeTokens",
          "type": "uint256"
        }
      ],
      "name": "seizeVerify",
      "outputs": [],
      "payable": false,
      "stateMutability": "nonpayable",
      "type": "function"
    },
    {
      "constant": false,
      "inputs": [
        {
          "internalType": "address",
          "name": "cToken",
          "type": "address"
        },
        {
          "internalType": "address",
          "name": "src",
          "type": "address"
        },
        {
          "internalType": "address",
          "name": "dst",
          "type": "address"
        },
        {
          "internalType": "uint256",
          "name": "transferTokens",
          "type": "uint256"
        }
      ],
      "name": "transferAllowed",
      "outputs": [
        {
          "internalType": "uint256",
          "name": "",
          "type": "uint256"
        }
      ],
      "payable": false,
      "stateMutability": "nonpayable",
      "type": "function"
    },
    {
      "constant": true,
      "inputs": [],
      "name": "transferGuardianPaused",
      "outputs": [
        {
          "internalType": "bool",
          "name": "",
          "type": "bool"
        }
      ],
      "payable": false,
      "stateMutability": "view",
      "type": "function"
    },
    {
      "constant": false,
      "inputs": [
        {
          "internalType": "address",
          "name": "cToken",
          "type": "address"
        },
        {
          "internalType": "address",
          "name": "src",
          "type": "address"
        },
        {
          "internalType": "address",
          "name": "dst",
          "type": "address"
        },
        {
          "internalType": "uint256",
          "name": "transferTokens",
          "type": "uint256"
        }
      ],
      "name": "transferVerify",
      "outputs": [],
      "payable": false,
      "stateMutability": "nonpayable",
      "type": "function"
    }
  ],
  "transactionHash": "0x38d8259064ec859f4c6920234a4d78e49a3d7e8d2f92460e3a1f3fd6fba84aed",
  "args": [],
  "solcInputHash": "989d96dcca20f11b5ab3b139c040f57e",
  "bytecode": "0x608060405234801561001057600080fd5b50600080546001600160a01b03191633179055615f9480620000336000396000f3fe608060405234801561001057600080fd5b50600436106104745760003560e01c80636b79c38d11610257578063bb82aa5e11610146578063dce15449116100c3578063e875544611610087578063e8755446146112af578063e9af0292146112b7578063eabe7d91146112dd578063ede4edd014611313578063f851a4401461133957610474565b8063dce154491461123f578063dcfbc0c71461126b578063e250408514611273578063e4028eee1461127b578063e6653f3d146112a757610474565b8063cc7ebdc41161010a578063cc7ebdc4146110f4578063ce485c5e1461111a578063d02f7351146111bb578063d63b3d9714611201578063da3d454c1461120957610474565b8063bb82aa5e14610f92578063bdcdc25814610f9a578063c299823814610fd6578063c488847b14611077578063ca0af043146110c657610474565b8063929fe9a1116101d4578063aa90075411610198578063aa90075414610ed6578063abfceffc14610ede578063ac0b0bb714610f54578063b0772d0b14610f5c578063b21be7fd14610f6457610474565b8063929fe9a114610e4e57806394b2294b14610e7c5780639d1b5a0a14610e84578063a76b3fda14610e8c578063a7f0e23114610eb257610474565b80637dc0d1d01161021b5780637dc0d1d014610db157806387f7630314610db95780638c57804e14610dc15780638e8f294b14610de75780638ebf636414610e2f57610474565b80636b79c38d14610cc95780636d154ea514610d175780636d35bf9114610d3d578063731f0c2b14610d83578063747026c914610da957610474565b806341c728b91161037357806352d84d1e116102f05780635fc7e71e116102b45780635fc7e71e14610a40578063607ef6c114610a865780636810dfa614610b445780636a49111214610c705780636a56947e14610c8d57610474565b806352d84d1e1461097b57806355ee1fe1146109985780635c778605146109be5780635ec88c79146109f45780635f5af1aa14610a1a57610474565b80634d8e5037116103375780634d8e50371461088a5780634e79238f146108925780634ef4c3e1146108ec5780634fd42e171461092257806351dff9891461093f57610474565b806341c728b9146107cc57806342cbb15c1461080857806347ef3b3b146108105780634a5844321461085c5780634ada90af1461088257610474565b80632678224711610401578063317b0b77116103c5578063317b0b771461072d578063391957d71461074a5780633aa729b4146107705780633bcf7ec1146107965780633c94786f146107c457610474565b8063267822471461067e57806326c7bd931461068657806327efe3cb146106ac5780632d70db78146106d85780632eebb5d1146106f757610474565b80631d7b33d7116104485780631d7b33d71461059c5780631ededc91146105d457806321af45691461061657806324008a621461063a57806324a3d6221461067657610474565b80627e3dd21461047957806318c882a5146104955780631c3db2e0146104c35780631d504dc614610576575b600080fd5b610481611341565b604080519115158252519081900360200190f35b610481600480360360408110156104ab57600080fd5b506001600160a01b0381351690602001351515611346565b610574600480360360408110156104d957600080fd5b6001600160a01b038235169190810190604081016020820135600160201b81111561050357600080fd5b82018360208201111561051557600080fd5b803590602001918460208302840111600160201b8311171561053657600080fd5b9190808060200260200160405190810160405280939291908181526020018383602002808284376000920191909152509295506114e6945050505050565b005b6105746004803603602081101561058c57600080fd5b50356001600160a01b0316611548565b6105c2600480360360208110156105b257600080fd5b50356001600160a01b03166116a7565b60408051918252519081900360200190f35b610574600480360360a08110156105ea57600080fd5b506001600160a01b038135811691602081013582169160408201351690606081013590608001356116b9565b61061e6116c0565b604080516001600160a01b039092168252519081900360200190f35b6105c26004803603608081101561065057600080fd5b506001600160a01b038135811691602081013582169160408201351690606001356116cf565b61061e611798565b61061e6117a7565b61061e6004803603602081101561069c57600080fd5b50356001600160a01b03166117b6565b610574600480360360408110156106c257600080fd5b506001600160a01b0381351690602001356117d1565b610481600480360360208110156106ee57600080fd5b503515156118d4565b6105c26004803603606081101561070d57600080fd5b506001600160a01b03813581169160208101359091169060400135611a0a565b6105c26004803603602081101561074357600080fd5b5035611c1f565b6105746004803603602081101561076057600080fd5b50356001600160a01b0316611ccb565b6105746004803603602081101561078657600080fd5b50356001600160a01b0316611d77565b610481600480360360408110156107ac57600080fd5b506001600160a01b0381351690602001351515611ea8565b610481612043565b610574600480360360808110156107e257600080fd5b506001600160a01b03813581169160208101359091169060408101359060600135612053565b6105c2612059565b610574600480360360c081101561082657600080fd5b506001600160a01b0381358116916020810135821691604082013581169160608101359091169060808101359060a0013561205d565b6105c26004803603602081101561087257600080fd5b50356001600160a01b0316612065565b6105c2612077565b61057461207d565b6108ce600480360360808110156108a857600080fd5b506001600160a01b038135811691602081013590911690604081013590606001356120c5565b60408051938452602084019290925282820152519081900360600190f35b6105c26004803603606081101561090257600080fd5b506001600160a01b038135811691602081013590911690604001356120ff565b6105c26004803603602081101561093857600080fd5b503561217d565b6105746004803603608081101561095557600080fd5b506001600160a01b038135811691602081013590911690604081013590606001356121ed565b61061e6004803603602081101561099157600080fd5b5035612241565b6105c2600480360360208110156109ae57600080fd5b50356001600160a01b0316612268565b610574600480360360608110156109d457600080fd5b506001600160a01b038135811691602081013590911690604001356122ed565b6108ce60048036036020811015610a0a57600080fd5b50356001600160a01b03166122f2565b6105c260048036036020811015610a3057600080fd5b50356001600160a01b0316612327565b6105c2600480360360a0811015610a5657600080fd5b506001600160a01b03813581169160208101358216916040820135811691606081013590911690608001356123ab565b61057460048036036040811015610a9c57600080fd5b810190602081018135600160201b811115610ab657600080fd5b820183602082011115610ac857600080fd5b803590602001918460208302840111600160201b83111715610ae957600080fd5b919390929091602081019035600160201b811115610b0657600080fd5b820183602082011115610b1857600080fd5b803590602001918460208302840111600160201b83111715610b3957600080fd5b509092509050612510565b61057460048036036080811015610b5a57600080fd5b810190602081018135600160201b811115610b7457600080fd5b820183602082011115610b8657600080fd5b803590602001918460208302840111600160201b83111715610ba757600080fd5b9190808060200260200160405190810160405280939291908181526020018383602002808284376000920191909152509295949360208101935035915050600160201b811115610bf657600080fd5b820183602082011115610c0857600080fd5b803590602001918460208302840111600160201b83111715610c2957600080fd5b9190808060200260200160405190810160405280939291908181526020018383602002808284376000920191909152509295505050508035151591506020013515156126a0565b61057460048036036020811015610c8657600080fd5b5035612849565b61057460048036036080811015610ca357600080fd5b506001600160a01b03813581169160208101358216916040820135169060600135612053565b610cef60048036036020811015610cdf57600080fd5b50356001600160a01b03166128ed565b604080516001600160e01b03909316835263ffffffff90911660208301528051918290030190f35b61048160048036036020811015610d2d57600080fd5b50356001600160a01b0316612917565b610574600480360360a0811015610d5357600080fd5b506001600160a01b03813581169160208101358216916040820135811691606081013590911690608001356116b9565b61048160048036036020811015610d9957600080fd5b50356001600160a01b031661292c565b6105c2612941565b61061e61294c565b61048161295b565b610cef60048036036020811015610dd757600080fd5b50356001600160a01b031661296b565b610e0d60048036036020811015610dfd57600080fd5b50356001600160a01b0316612995565b6040805193151584526020840192909252151582820152519081900360600190f35b61048160048036036020811015610e4557600080fd5b503515156129bb565b61048160048036036040811015610e6457600080fd5b506001600160a01b0381358116916020013516612af4565b6105c2612b27565b61061e612b2d565b6105c260048036036020811015610ea257600080fd5b50356001600160a01b0316612b45565b610eba612c5b565b604080516001600160e01b039092168252519081900360200190f35b6105c2612c6e565b610f0460048036036020811015610ef457600080fd5b50356001600160a01b0316612c74565b60408051602080825283518183015283519192839290830191858101910280838360005b83811015610f40578181015183820152602001610f28565b505050509050019250505060405180910390f35b610481612cfd565b610f04612d0d565b6105c260048036036040811015610f7a57600080fd5b506001600160a01b0381358116916020013516612d6f565b61061e612d8c565b6105c260048036036080811015610fb057600080fd5b506001600160a01b03813581169160208101358216916040820135169060600135612d9b565b610f0460048036036020811015610fec57600080fd5b810190602081018135600160201b81111561100657600080fd5b82018360208201111561101857600080fd5b803590602001918460208302840111600160201b8311171561103957600080fd5b919080806020026020016040519081016040528093929190818152602001838360200280828437600092019190915250929550612e2f945050505050565b6110ad6004803603606081101561108d57600080fd5b506001600160a01b03813581169160208101359091169060400135612ec6565b6040805192835260208301919091528051918290030190f35b6105c2600480360360408110156110dc57600080fd5b506001600160a01b03813581169160200135166130ee565b6105c26004803603602081101561110a57600080fd5b50356001600160a01b031661310b565b6105746004803603602081101561113057600080fd5b810190602081018135600160201b81111561114a57600080fd5b82018360208201111561115c57600080fd5b803590602001918460208302840111600160201b8311171561117d57600080fd5b91908080602002602001604051908101604052809392919081815260200183836020028082843760009201919091525092955061311d945050505050565b6105c2600480360360a08110156111d157600080fd5b506001600160a01b03813581169160208101358216916040820135811691606081013590911690608001356131af565b61061e613367565b6105c26004803603606081101561121f57600080fd5b506001600160a01b03813581169160208101359091169060400135613376565b61061e6004803603604081101561125557600080fd5b506001600160a01b03813516906020013561374e565b61061e613783565b61061e613792565b6105c26004803603604081101561129157600080fd5b506001600160a01b0381351690602001356137a1565b610481613951565b6105c2613961565b610574600480360360208110156112cd57600080fd5b50356001600160a01b0316613967565b6105c2600480360360608110156112f357600080fd5b506001600160a01b038135811691602081013590911690604001356139cb565b6105c26004803603602081101561132957600080fd5b50356001600160a01b0316613a08565b61061e613d41565b600181565b6001600160a01b03821660009081526009602052604081205460ff1661139d5760405162461bcd60e51b8152600401808060200182810382526028815260200180615dea6028913960400191505060405180910390fd5b600a546001600160a01b03163314806113c057506000546001600160a01b031633145b6113fb5760405162461bcd60e51b8152600401808060200182810382526027815260200180615e436027913960400191505060405180910390fd5b6000546001600160a01b031633148061141657506001821515145b611460576040805162461bcd60e51b81526020600482015260166024820152756f6e6c792061646d696e2063616e20756e706175736560501b604482015290519081900360640190fd5b6001600160a01b0383166000818152600c6020908152604091829020805486151560ff199091168117909155825193845283830152606090830181905260069083015265426f72726f7760d01b6080830152517f71aec636243f9709bb0007ae15e9afb8150ab01716d75fd7573be5cc096e03b09181900360a00190a150805b92915050565b60408051600180825281830190925260609160208083019080388339019050509050828160008151811061151657fe5b60200260200101906001600160a01b031690816001600160a01b03168152505061154381836001806126a0565b505050565b806001600160a01b031663f851a4406040518163ffffffff1660e01b815260040160206040518083038186803b15801561158157600080fd5b505afa158015611595573d6000803e3d6000fd5b505050506040513d60208110156115ab57600080fd5b50516001600160a01b031633146115f35760405162461bcd60e51b8152600401808060200182810382526027815260200180615f396027913960400191505060405180910390fd5b806001600160a01b031663c1e803346040518163ffffffff1660e01b8152600401602060405180830381600087803b15801561162e57600080fd5b505af1158015611642573d6000803e3d6000fd5b505050506040513d602081101561165857600080fd5b5051156116a4576040805162461bcd60e51b815260206004820152601560248201527418da185b99d9481b9bdd08185d5d1a1bdc9a5e9959605a1b604482015290519081900360640190fd5b50565b600f6020526000908152604090205481565b5050505050565b6015546001600160a01b031681565b6001600160a01b03841660009081526009602052604081205460ff166116f757506009611790565b6116ff615d6c565b6040518060200160405280876001600160a01b031663aa5af0fd6040518163ffffffff1660e01b815260040160206040518083038186803b15801561174357600080fd5b505afa158015611757573d6000803e3d6000fd5b505050506040513d602081101561176d57600080fd5b50519052905061177d8682613d50565b61178a8685836000613fd8565b60009150505b949350505050565b600a546001600160a01b031681565b6001546001600160a01b031681565b738f67854497218043e1f72908ffe38d0ed7f247215b919050565b6117d96141c2565b61182a576040805162461bcd60e51b815260206004820152601860248201527f6f6e6c792061646d696e2063616e206772616e74204c48420000000000000000604482015290519081900360640190fd5b600061183683836141eb565b9050801561188b576040805162461bcd60e51b815260206004820152601a60248201527f696e73756666696369656e74204c484220666f72206772616e74000000000000604482015290519081900360640190fd5b604080516001600160a01b03851681526020810184905281517f98b2f82a3a07f223a0be64b3d0f47711c64dccd1feafb94aa28156b38cd9695c929181900390910190a1505050565b600a546000906001600160a01b03163314806118fa57506000546001600160a01b031633145b6119355760405162461bcd60e51b8152600401808060200182810382526027815260200180615e436027913960400191505060405180910390fd5b6000546001600160a01b031633148061195057506001821515145b61199a576040805162461bcd60e51b81526020600482015260166024820152756f6e6c792061646d696e2063616e20756e706175736560501b604482015290519081900360640190fd5b600a8054831515600160b81b810260ff60b81b1990921691909117909155604080516020810192909252808252600582820152645365697a6560d81b6060830152517f797342570fa50baf859b305038db0aa554a1bc1a7e08ea609580e1b777e0acf69181900360800190a15090565b6001600160a01b0383166000908152600c602052604081205460ff1615611a6b576040805162461bcd60e51b815260206004820152601060248201526f189bdc9c9bddc81a5cc81c185d5cd95960821b604482015290519081900360640190fd5b6001600160a01b03841660009081526009602052604090205460ff16611a955760095b9050611c18565b6001600160a01b0384166000908152601660205260409020548015611b7e576000856001600160a01b03166347bd37186040518163ffffffff1660e01b815260040160206040518083038186803b158015611aef57600080fd5b505afa158015611b03573d6000803e3d6000fd5b505050506040513d6020811015611b1957600080fd5b505190506000611b298286614318565b9050828110611b7b576040805162461bcd60e51b81526020600482015260196024820152781b585c9ad95d08189bdc9c9bddc818d85c081c995858da1959603a1b604482015290519081900360640190fd5b50505b611b86615d6c565b6040518060200160405280876001600160a01b031663aa5af0fd6040518163ffffffff1660e01b815260040160206040518083038186803b158015611bca57600080fd5b505afa158015611bde573d6000803e3d6000fd5b505050506040513d6020811015611bf457600080fd5b505190529050611c048682613d50565b611c118686836000613fd8565b6000925050505b9392505050565b600080546001600160a01b03163314611c7f576040805162461bcd60e51b815260206004820152601f60248201527f6f6e6c792061646d696e2063616e2073657420636c6f736520666163746f7200604482015290519081900360640190fd5b6005805490839055604080518281526020810185905281517f3b9670cf975d26958e754b57098eaa2ac914d8d2a31b83257997b9f346110fd9929181900390910190a160009392505050565b6000546001600160a01b03163314611d145760405162461bcd60e51b8152600401808060200182810382526026815260200180615e6a6026913960400191505060405180910390fd5b601580546001600160a01b038381166001600160a01b0319831681179093556040805191909216808252602082019390935281517feda98690e518e9a05f8ec6837663e188211b2da8f4906648b323f2c1d4434e29929181900390910190a15050565b6000546001600160a01b03163314611dd6576040805162461bcd60e51b815260206004820152601e60248201527f6f6e6c792061646d696e2063616e2064726f70204c4842206d61726b65740000604482015290519081900360640190fd5b6001600160a01b0381166000908152600960205260409020600381015460ff161515600114611e4c576040805162461bcd60e51b815260206004820152601a60248201527f6d61726b6574206973206e6f742061204c4842206d61726b6574000000000000604482015290519081900360640190fd5b60038101805460ff19169055604080516001600160a01b03841681526000602082015281517f93c1f3e36ed71139f466a4ce8c9751790e2e33f5afb2df0dcfb3aeabe55d5aa2929181900390910190a1611ea461434e565b5050565b6001600160a01b03821660009081526009602052604081205460ff16611eff5760405162461bcd60e51b8152600401808060200182810382526028815260200180615dea6028913960400191505060405180910390fd5b600a546001600160a01b0316331480611f2257506000546001600160a01b031633145b611f5d5760405162461bcd60e51b8152600401808060200182810382526027815260200180615e436027913960400191505060405180910390fd5b6000546001600160a01b0316331480611f7857506001821515145b611fc2576040805162461bcd60e51b81526020600482015260166024820152756f6e6c792061646d696e2063616e20756e706175736560501b604482015290519081900360640190fd5b6001600160a01b0383166000818152600b6020908152604091829020805486151560ff199091168117909155825193845283830152606090830181905260049083015263135a5b9d60e21b6080830152517f71aec636243f9709bb0007ae15e9afb8150ab01716d75fd7573be5cc096e03b09181900360a00190a150919050565b600a54600160a01b900460ff1681565b50505050565b4390565b505050505050565b60166020526000908152604090205481565b60065481565b3332146120bb5760405162461bcd60e51b8152600401808060200182810382526031815260200180615e126031913960400191505060405180910390fd5b6120c361434e565b565b6000806000806000806120da8a8a8a8a614713565b9250925092508260118111156120ec57fe5b95509093509150505b9450945094915050565b6001600160a01b0383166000908152600b602052604081205460ff161561215e576040805162461bcd60e51b815260206004820152600e60248201526d1b5a5b9d081a5cc81c185d5cd95960921b604482015290519081900360640190fd5b61216784614a4b565b61217384846000614cc9565b6000949350505050565b600080546001600160a01b031633146121a35761219c6001600b614ec1565b90506117cc565b6006805490839055604080518281526020810185905281517faeba5a6c40a8ac138134bff1aaa65debf25971188a58804bad717f82f0ec1316929181900390910190a16000611c18565b801580156121fb5750600082115b15612053576040805162461bcd60e51b815260206004820152601160248201527072656465656d546f6b656e73207a65726f60781b604482015290519081900360640190fd5b600d818154811061224e57fe5b6000918252602090912001546001600160a01b0316905081565b600080546001600160a01b031633146122875761219c60016010614ec1565b600480546001600160a01b038481166001600160a01b0319831681179093556040805191909216808252602082019390935281517fd52b2b9b7e9ee655fcb95d2e5b9e0c9f69e7ef2b8e9d2d0ea78402d576d22e22929181900390910190a16000611c18565b611543565b600080600080600080612309876000806000614713565b92509250925082601181111561231b57fe5b97919650945092505050565b600080546001600160a01b031633146123465761219c60016013614ec1565b600a80546001600160a01b038481166001600160a01b0319831617928390556040805192821680845293909116602083015280517f0613b6ee6a04f0d09f390e4d9318894b9f6ac7fd83897cd8d18896ba579c401e9281900390910190a16000611c18565b6001600160a01b03851660009081526009602052604081205460ff1615806123ec57506001600160a01b03851660009081526009602052604090205460ff16155b156123fb5760095b9050612507565b60008061240785614f27565b9193509091506000905082601181111561241d57fe5b146124375781601181111561242e57fe5b92505050612507565b8061244357600361242e565b6000886001600160a01b03166395dd9193876040518263ffffffff1660e01b815260040180826001600160a01b03166001600160a01b0316815260200191505060206040518083038186803b15801561249b57600080fd5b505afa1580156124af573d6000803e3d6000fd5b505050506040513d60208110156124c557600080fd5b5051604080516020810190915260055481529091506000906124e79083614f47565b9050808611156124fe576011945050505050612507565b60009450505050505b95945050505050565b6000546001600160a01b031633148061253357506015546001600160a01b031633145b61256e5760405162461bcd60e51b8152600401808060200182810382526035815260200180615ebf6035913960400191505060405180910390fd5b8281811580159061257e57508082145b6125bf576040805162461bcd60e51b815260206004820152600d60248201526c1a5b9d985b1a59081a5b9c1d5d609a1b604482015290519081900360640190fd5b60005b82811015612697578484828181106125d657fe5b90506020020135601660008989858181106125ed57fe5b905060200201356001600160a01b03166001600160a01b03166001600160a01b031681526020019081526020016000208190555086868281811061262d57fe5b905060200201356001600160a01b03166001600160a01b03167f6f1951b2aad10f3fc81b86d91105b413a5b3f847a34bbc5ce1904201b14438f686868481811061267357fe5b905060200201356040518082815260200191505060405180910390a26001016125c2565b50505050505050565b60005b83518110156116b95760008482815181106126ba57fe5b6020908102919091018101516001600160a01b0381166000908152600990925260409091205490915060ff1661272f576040805162461bcd60e51b81526020600482015260156024820152741b585c9ad95d081b5d5cdd081899481b1a5cdd1959605a1b604482015290519081900360640190fd5b600184151514156127f757612742615d6c565b6040518060200160405280836001600160a01b031663aa5af0fd6040518163ffffffff1660e01b815260040160206040518083038186803b15801561278657600080fd5b505afa15801561279a573d6000803e3d6000fd5b505050506040513d60208110156127b057600080fd5b5051905290506127c08282613d50565b60005b87518110156127f4576127ec838983815181106127dc57fe5b6020026020010151846001613fd8565b6001016127c3565b50505b600183151514156128405761280b81614a4b565b60005b865181101561283e576128368288838151811061282757fe5b60200260200101516001614cc9565b60010161280e565b505b506001016126a3565b6128516141c2565b6128a2576040805162461bcd60e51b815260206004820152601e60248201527f6f6e6c792061646d696e2063616e206368616e6765204c484220726174650000604482015290519081900360640190fd5b600e805490829055604080518281526020810184905281517fc227c9272633c3a307d9845bf2bc2509cefb20d655b5f3c1002d8e1e3f22c8b0929181900390910190a1611ea461434e565b6010602052600090815260409020546001600160e01b03811690600160e01b900463ffffffff1682565b600c6020526000908152604090205460ff1681565b600b6020526000908152604090205460ff1681565b66038d7ea4c6800081565b6004546001600160a01b031681565b600a54600160b01b900460ff1681565b6011602052600090815260409020546001600160e01b03811690600160e01b900463ffffffff1682565b60096020526000908152604090208054600182015460039092015460ff91821692911683565b600a546000906001600160a01b03163314806129e157506000546001600160a01b031633145b612a1c5760405162461bcd60e51b8152600401808060200182810382526027815260200180615e436027913960400191505060405180910390fd5b6000546001600160a01b0316331480612a3757506001821515145b612a81576040805162461bcd60e51b81526020600482015260166024820152756f6e6c792061646d696e2063616e20756e706175736560501b604482015290519081900360640190fd5b600a8054831515600160b01b810260ff60b01b1990921691909117909155604080516020810192909252808252600882820152672a3930b739b332b960c11b6060830152517f797342570fa50baf859b305038db0aa554a1bc1a7e08ea609580e1b777e0acf69181900360800190a15090565b6001600160a01b038082166000908152600960209081526040808320938616835260029093019052205460ff1692915050565b60075481565b738f67854497218043e1f72908ffe38d0ed7f2472190565b6001600160a01b03811660009081526009602052604081205460ff1615612b725761219c600a6011614ec1565b816001600160a01b031663fe9c44ae6040518163ffffffff1660e01b815260040160206040518083038186803b158015612bab57600080fd5b505afa158015612bbf573d6000803e3d6000fd5b505050506040513d6020811015612bd557600080fd5b50506001600160a01b03821660009081526009602052604081208054600160ff1991821681178355600383018054909216909155810191909155612c1883614f66565b604080516001600160a01b038516815290517fcf583bb0c569eb967f806b11601c4cb93c10310485c67add5f8362c2f212321f9181900360200190a16000611c18565b6ec097ce7bc90715b34b9f100000000081565b600e5481565b60608060086000846001600160a01b03166001600160a01b03168152602001908152602001600020805480602002602001604051908101604052809291908181526020018280548015612cf057602002820191906000526020600020905b81546001600160a01b03168152600190910190602001808311612cd2575b5093979650505050505050565b600a54600160b81b900460ff1681565b6060600d805480602002602001604051908101604052809291908181526020018280548015612d6557602002820191906000526020600020905b81546001600160a01b03168152600190910190602001808311612d47575b5050505050905090565b601260209081526000928352604080842090915290825290205481565b6002546001600160a01b031681565b600a54600090600160b01b900460ff1615612df2576040805162461bcd60e51b81526020600482015260126024820152711d1c985b9cd9995c881a5cc81c185d5cd95960721b604482015290519081900360640190fd5b6000612dff868685615044565b90508015612e0e579050611790565b612e1786614a4b565b612e2386866000614cc9565b61178a86856000614cc9565b6060600082519050606081604051908082528060200260200182016040528015612e63578160200160208202803883390190505b50905060005b82811015612ebe576000858281518110612e7f57fe5b60200260200101519050612e93813361514e565b6011811115612e9e57fe5b838381518110612eaa57fe5b602090810291909101015250600101612e69565b509392505050565b600480546040805163fc57d4df60e01b81526001600160a01b038781169482019490945290516000938493849391169163fc57d4df91602480820192602092909190829003018186803b158015612f1c57600080fd5b505afa158015612f30573d6000803e3d6000fd5b505050506040513d6020811015612f4657600080fd5b5051600480546040805163fc57d4df60e01b81526001600160a01b038a8116948201949094529051939450600093929091169163fc57d4df91602480820192602092909190829003018186803b158015612f9f57600080fd5b505afa158015612fb3573d6000803e3d6000fd5b505050506040513d6020811015612fc957600080fd5b50519050811580612fd8575080155b15612fed57600d9350600092506130e6915050565b6000866001600160a01b031663182df0f56040518163ffffffff1660e01b815260040160206040518083038186803b15801561302857600080fd5b505afa15801561303c573d6000803e3d6000fd5b505050506040513d602081101561305257600080fd5b505190506000613060615d6c565b613068615d6c565b613070615d6c565b613098604051806020016040528060065481525060405180602001604052808a815250615244565b92506130c0604051806020016040528088815250604051806020016040528088815250615244565b91506130cc8383615283565b90506130d8818b614f47565b600099509750505050505050505b935093915050565b601360209081526000928352604080842090915290825290205481565b60146020526000908152604090205481565b6131256141c2565b613176576040805162461bcd60e51b815260206004820152601d60248201527f6f6e6c792061646d696e2063616e20616464204c4842206d61726b6574000000604482015290519081900360640190fd5b60005b81518110156131a65761319e82828151811061319157fe5b60200260200101516152bf565b600101613179565b506116a461434e565b600a54600090600160b81b900460ff1615613203576040805162461bcd60e51b815260206004820152600f60248201526e1cd95a5e99481a5cc81c185d5cd959608a1b604482015290519081900360640190fd5b6001600160a01b03861660009081526009602052604090205460ff16158061324457506001600160a01b03851660009081526009602052604090205460ff16155b156132505760096123f4565b846001600160a01b0316635fe3b5676040518163ffffffff1660e01b815260040160206040518083038186803b15801561328957600080fd5b505afa15801561329d573d6000803e3d6000fd5b505050506040513d60208110156132b357600080fd5b505160408051635fe3b56760e01b815290516001600160a01b0392831692891691635fe3b567916004808301926020929190829003018186803b1580156132f957600080fd5b505afa15801561330d573d6000803e3d6000fd5b505050506040513d602081101561332357600080fd5b50516001600160a01b03161461333a5760026123f4565b61334386614a4b565b61334f86846000614cc9565b61335b86856000614cc9565b60009695505050505050565b6017546001600160a01b031681565b6001600160a01b0383166000908152600c602052604081205460ff16156133d7576040805162461bcd60e51b815260206004820152601060248201526f189bdc9c9bddc81a5cc81c185d5cd95960821b604482015290519081900360640190fd5b6001600160a01b03841660009081526009602052604090205460ff166133fe576009611a8e565b6001600160a01b038085166000908152600960209081526040808320938716835260029093019052205460ff166134ee57336001600160a01b03851614613484576040805162461bcd60e51b815260206004820152601560248201527439b2b73232b91036bab9ba1031329031aa37b5b2b760591b604482015290519081900360640190fd5b6000613490338561514e565b905060008160118111156134a057fe5b146134b9578060118111156134b157fe5b915050611c18565b6001600160a01b038086166000908152600960209081526040808320938816835260029093019052205460ff166134ec57fe5b505b600480546040805163fc57d4df60e01b81526001600160a01b03888116948201949094529051929091169163fc57d4df91602480820192602092909190829003018186803b15801561353f57600080fd5b505afa158015613553573d6000803e3d6000fd5b505050506040513d602081101561356957600080fd5b505161357657600d611a8e565b6001600160a01b038416600090815260166020526040902054801561365f576000856001600160a01b03166347bd37186040518163ffffffff1660e01b815260040160206040518083038186803b1580156135d057600080fd5b505afa1580156135e4573d6000803e3d6000fd5b505050506040513d60208110156135fa57600080fd5b50519050600061360a8286614318565b905082811061365c576040805162461bcd60e51b81526020600482015260196024820152781b585c9ad95d08189bdc9c9bddc818d85c081c995858da1959603a1b604482015290519081900360640190fd5b50505b60008061366f8688600088614713565b9193509091506000905082601181111561368557fe5b146136a05781601181111561369657fe5b9350505050611c18565b80156136ad576004613696565b6136b5615d6c565b6040518060200160405280896001600160a01b031663aa5af0fd6040518163ffffffff1660e01b815260040160206040518083038186803b1580156136f957600080fd5b505afa15801561370d573d6000803e3d6000fd5b505050506040513d602081101561372357600080fd5b5051905290506137338882613d50565b6137408888836000613fd8565b600098975050505050505050565b6008602052816000526040600020818154811061376757fe5b6000918252602090912001546001600160a01b03169150829050565b6003546001600160a01b031681565b6018546001600160a01b031681565b600080546001600160a01b031633146137c7576137c060016006614ec1565b90506114e0565b6001600160a01b0383166000908152600960205260409020805460ff166137fc576137f460096007614ec1565b9150506114e0565b613804615d6c565b50604080516020810190915283815261381b615d6c565b506040805160208101909152670c7d713b49da0000815261383c81836155da565b156138575761384d60066008614ec1565b93505050506114e0565b84158015906138e05750600480546040805163fc57d4df60e01b81526001600160a01b038a8116948201949094529051929091169163fc57d4df91602480820192602092909190829003018186803b1580156138b257600080fd5b505afa1580156138c6573d6000803e3d6000fd5b505050506040513d60208110156138dc57600080fd5b5051155b156138f15761384d600d6009614ec1565b60018301805490869055604080516001600160a01b03891681526020810183905280820188905290517f70483e6592cd5182d45ac970e05bc62cdcc90e9d8ef2c2dbe686cf383bcd7fc59181900360600190a16000979650505050505050565b600a54600160a81b900460ff1681565b60055481565b6116a481600d8054806020026020016040519081016040528092919081815260200182805480156139c157602002820191906000526020600020905b81546001600160a01b031681526001909101906020018083116139a3575b50505050506114e6565b6000806139d9858585615044565b905080156139e8579050611c18565b6139f185614a4b565b6139fd85856000614cc9565b600095945050505050565b6000808290506000806000836001600160a01b031663c37f68e2336040518263ffffffff1660e01b815260040180826001600160a01b03166001600160a01b0316815260200191505060806040518083038186803b158015613a6957600080fd5b505afa158015613a7d573d6000803e3d6000fd5b505050506040513d6080811015613a9357600080fd5b508051602082015160409092015190945090925090508215613ae65760405162461bcd60e51b8152600401808060200182810382526025815260200180615ef46025913960400191505060405180910390fd5b8015613b0357613af8600c6002614ec1565b9450505050506117cc565b6000613b10873385615044565b90508015613b3157613b25600e6003836155e1565b955050505050506117cc565b6001600160a01b0385166000908152600960209081526040808320338452600281019092529091205460ff16613b7057600096505050505050506117cc565b3360009081526002820160209081526040808320805460ff191690556008825291829020805483518184028101840190945280845260609392830182828015613be257602002820191906000526020600020905b81546001600160a01b03168152600190910190602001808311613bc4575b5050835193945083925060009150505b82811015613c3757896001600160a01b0316848281518110613c1057fe5b60200260200101516001600160a01b03161415613c2f57809150613c37565b600101613bf2565b50818110613c4157fe5b336000908152600860205260409020805481906000198101908110613c6257fe5b9060005260206000200160009054906101000a90046001600160a01b0316818381548110613c8c57fe5b9060005260206000200160006101000a8154816001600160a01b0302191690836001600160a01b0316021790555080805480613cc457fe5b6000828152602090819020820160001990810180546001600160a01b0319169055909101909155604080516001600160a01b038d168152339281019290925280517fe699a64c18b07ac5b7301aa273f36a2287239eb9501d81950672794afba29a0d9281900390910190a160009c9b505050505050505050505050565b6000546001600160a01b031681565b6001600160a01b0382166000908152601160209081526040808320600f9092528220549091613d7d612059565b8354909150600090613d9d908390600160e01b900463ffffffff16615647565b9050600081118015613daf5750600083115b15613f7e576000613e24876001600160a01b03166347bd37186040518163ffffffff1660e01b815260040160206040518083038186803b158015613df257600080fd5b505afa158015613e06573d6000803e3d6000fd5b505050506040513d6020811015613e1c57600080fd5b505187615681565b90506000613e32838661569f565b9050613e3c615d6c565b60008311613e595760405180602001604052806000815250613e63565b613e6382846156e1565b9050613e6d615d6c565b604080516020810190915288546001600160e01b03168152613e8f9083615716565b90506040518060400160405280613edf83600001516040518060400160405280601a81526020017f6e657720696e646578206578636565647320323234206269747300000000000081525061573b565b6001600160e01b03168152602001613f1a886040518060400160405280601c8152602001600080516020615f198339815191528152506157d5565b63ffffffff9081169091526001600160a01b038c166000908152601160209081526040909120835181549490920151909216600160e01b026001600160e01b039182166001600160e01b031990941693909317169190911790555061205d92505050565b801561205d57613fb1826040518060400160405280601c8152602001600080516020615f198339815191528152506157d5565b845463ffffffff91909116600160e01b026001600160e01b03909116178455505050505050565b6001600160a01b0384166000908152601160205260409020613ff8615d6c565b50604080516020810190915281546001600160e01b03168152614019615d6c565b5060408051602080820183526001600160a01b03808a16600090815260138352848120918a168082528284529481208054855286519590915291529190915580511561269757614067615d6c565b614071838361582a565b90506000614100896001600160a01b03166395dd91938a6040518263ffffffff1660e01b815260040180826001600160a01b03166001600160a01b0316815260200191505060206040518083038186803b1580156140ce57600080fd5b505afa1580156140e2573d6000803e3d6000fd5b505050506040513d60208110156140f857600080fd5b505188615681565b9050600061410e828461584f565b6001600160a01b038a16600090815260146020526040812054919250906141359083614318565b90506141568a828a61414e5766038d7ea4c68000614151565b60005b61587e565b6001600160a01b03808c1660008181526014602090815260409182902094909455895181518781529485015280519193928f16927f1fc3ecc087d8d2d15e23d0032af5a47059c3892d003d8e139fdcb6bb327c99a6929081900390910190a35050505050505050505050565b600080546001600160a01b03163314806141e657506002546001600160a01b031633145b905090565b6000806141f6612b2d565b604080516370a0823160e01b815230600482015290519192506000916001600160a01b038416916370a08231916024808301926020929190829003018186803b15801561424257600080fd5b505afa158015614256573d6000803e3d6000fd5b505050506040513d602081101561426c57600080fd5b5051905080841161430f57816001600160a01b031663a9059cbb86866040518363ffffffff1660e01b815260040180836001600160a01b03166001600160a01b0316815260200182815260200192505050602060405180830381600087803b1580156142d757600080fd5b505af11580156142eb573d6000803e3d6000fd5b505050506040513d602081101561430157600080fd5b50600093506114e092505050565b50919392505050565b6000611c188383604051806040016040528060118152602001706164646974696f6e206f766572666c6f7760781b8152506159c3565b6060600d8054806020026020016040519081016040528092919081815260200182805480156143a657602002820191906000526020600020905b81546001600160a01b03168152600190910190602001808311614388575b50939450600093505050505b815181101561446c5760008282815181106143c957fe5b602002602001015190506143db615d6c565b6040518060200160405280836001600160a01b031663aa5af0fd6040518163ffffffff1660e01b815260040160206040518083038186803b15801561441f57600080fd5b505afa158015614433573d6000803e3d6000fd5b505050506040513d602081101561444957600080fd5b50519052905061445882614a4b565b6144628282613d50565b50506001016143b2565b50614475615d6c565b604051806020016040528060008152509050606082516040519080825280602002602001820160405280156144c457816020015b6144b1615d6c565b8152602001906001900390816144a95790505b50905060005b835181101561464a5760008482815181106144e157fe5b6020908102919091018101516001600160a01b0381166000908152600990925260409091206003015490915060ff16156146415761451d615d6c565b60408051602080820180845260045463fc57d4df60e01b9091526001600160a01b03868116602485015293519293849391169163fc57d4df916044808601929190818703018186803b15801561457257600080fd5b505afa158015614586573d6000803e3d6000fd5b505050506040513d602081101561459c57600080fd5b5051905290506145aa615d6c565b61461882846001600160a01b03166347bd37186040518163ffffffff1660e01b815260040160206040518083038186803b1580156145e757600080fd5b505afa1580156145fb573d6000803e3d6000fd5b505050506040513d602081101561461157600080fd5b5051615a21565b90508085858151811061462757fe5b602002602001018190525061463c8682615716565b955050505b506001016144ca565b5060005b8351811015612053576000600d828154811061466657fe5b600091825260208220015485516001600160a01b03909116925061468b5760006146b3565b6146b3600e546146ae8686815181106146a057fe5b602002602001015188615283565b615a42565b6001600160a01b0383166000818152600f60209081526040918290208490558151848152915193945091927f2ab93f65628379309f36cb125e90d7c902454a545c4f8b8cb0794af75c24b807929181900390910190a2505060010161464e565b6000806000614720615d7f565b6001600160a01b0388166000908152600860209081526040808320805482518185028101850190935280835260609383018282801561478857602002820191906000526020600020905b81546001600160a01b0316815260019091019060200180831161476a575b50939450600093505050505b8151811015614a0c5760008282815181106147ab57fe5b60200260200101519050806001600160a01b031663c37f68e28d6040518263ffffffff1660e01b815260040180826001600160a01b03166001600160a01b0316815260200191505060806040518083038186803b15801561480b57600080fd5b505afa15801561481f573d6000803e3d6000fd5b505050506040513d608081101561483557600080fd5b508051602082015160408084015160609485015160808b015293890193909352918701919091529350831561487a5750600f9650600095508594506120f59350505050565b60408051602080820183526001600160a01b0380851660008181526009845285902060010154845260c08a01939093528351808301855260808a0151815260e08a015260048054855163fc57d4df60e01b815291820194909452935192169263fc57d4df9260248083019392829003018186803b1580156148fa57600080fd5b505afa15801561490e573d6000803e3d6000fd5b505050506040513d602081101561492457600080fd5b505160a086018190526149475750600d9650600095508594506120f59350505050565b604080516020810190915260a0860151815261010086015260c085015160e08601516149819161497691615244565b866101000151615244565b61012086018190526040860151865161499b929190615a5b565b8552610100850151606086015160208701516149b8929190615a5b565b60208601526001600160a01b03818116908c161415614a03576149e58561012001518b8760200151615a5b565b602086018190526101008601516149fd918b90615a5b565b60208601525b50600101614794565b50602083015183511115614a3257505060208101519051600094500391508290506120f5565b50508051602090910151600094508493500390506120f5565b6001600160a01b0381166000908152601060209081526040808320600f9092528220549091614a78612059565b8354909150600090614a98908390600160e01b900463ffffffff16615647565b9050600081118015614aaa5750600083115b15614c70576000856001600160a01b03166318160ddd6040518163ffffffff1660e01b815260040160206040518083038186803b158015614aea57600080fd5b505afa158015614afe573d6000803e3d6000fd5b505050506040513d6020811015614b1457600080fd5b505190506000614b24838661569f565b9050614b2e615d6c565b60008311614b4b5760405180602001604052806000815250614b55565b614b5582846156e1565b9050614b5f615d6c565b604080516020810190915288546001600160e01b03168152614b819083615716565b90506040518060400160405280614bd183600001516040518060400160405280601a81526020017f6e657720696e646578206578636565647320323234206269747300000000000081525061573b565b6001600160e01b03168152602001614c0c886040518060400160405280601c8152602001600080516020615f198339815191528152506157d5565b63ffffffff9081169091526001600160a01b038b166000908152601060209081526040909120835181549490920151909216600160e01b026001600160e01b039182166001600160e01b03199094169390931716919091179055506116b992505050565b80156116b957614ca3826040518060400160405280601c8152602001600080516020615f198339815191528152506157d5565b845463ffffffff91909116600160e01b026001600160e01b039091161784555050505050565b6001600160a01b0383166000908152601060205260409020614ce9615d6c565b50604080516020810190915281546001600160e01b03168152614d0a615d6c565b5060408051602080820183526001600160a01b03808916600090815260128352848120918916808252828452948120805485528651959091529152919091558051158015614d585750815115155b15614d70576ec097ce7bc90715b34b9f100000000081525b614d78615d6c565b614d82838361582a565b90506000876001600160a01b03166370a08231886040518263ffffffff1660e01b815260040180826001600160a01b03166001600160a01b0316815260200191505060206040518083038186803b158015614ddc57600080fd5b505afa158015614df0573d6000803e3d6000fd5b505050506040513d6020811015614e0657600080fd5b505190506000614e16828461584f565b6001600160a01b03891660009081526014602052604081205491925090614e3d9083614318565b9050614e5689828a61414e5766038d7ea4c68000614151565b6001600160a01b03808b1660008181526014602090815260409182902094909455895181518781529485015280519193928e16927f2caecd17d02f56fa897705dcc740da2d237c373f70686f4e0d9bd3bf0400ea7a929081900390910190a350505050505050505050565b60007f45b96fe442630264581b197e84bbada861235052c5a1aadfff9ea4e40a969aa0836011811115614ef057fe5b836013811115614efc57fe5b604080519283526020830191909152600082820152519081900360600190a1826011811115611c1857fe5b6000806000614f3a846000806000614713565b9250925092509193909250565b6000614f51615d6c565b614f5b8484615a21565b905061179081615a83565b60005b600d54811015614ff157816001600160a01b0316600d8281548110614f8a57fe5b6000918252602090912001546001600160a01b03161415614fe9576040805162461bcd60e51b81526020600482015260146024820152731b585c9ad95d08185b1c9958591e48185919195960621b604482015290519081900360640190fd5b600101614f69565b50600d80546001810182556000919091527fd7b6990105719101dabeb77144f2a3385c8033acd3af97e9423a695e81ad1eb50180546001600160a01b0319166001600160a01b0392909216919091179055565b6001600160a01b03831660009081526009602052604081205460ff1661509c576150956040518060400160405280601081526020016f1d1bdad95b881b9bdd081b1a5cdd195960821b815250615a92565b6009611a8e565b6001600160a01b038085166000908152600960209081526040808320938716835260029093019052205460ff166150d4576000611a8e565b6000806150e48587866000614713565b919350909150600090508260118111156150fa57fe5b146151415761512c6040518060600160405280602f8152602001615e90602f913983601181111561512757fe5b615b38565b81601181111561513857fe5b92505050611c18565b8015611c11576004615138565b6001600160a01b0382166000908152600960205260408120805460ff166151795760099150506114e0565b6001600160a01b038316600090815260028201602052604090205460ff161515600114156151ab5760009150506114e0565b6001600160a01b0380841660008181526002840160209081526040808320805460ff19166001908117909155600883528184208054918201815584529282902090920180549489166001600160a01b031990951685179055815193845283019190915280517f3ab23ab0d51cccc0c3085aec51f99228625aa1a922b3a8ca89a26b0f2027a1a59281900390910190a15060009392505050565b61524c615d6c565b6040518060200160405280670de0b6b3a76400006152728660000151866000015161569f565b8161527957fe5b0490529392505050565b61528b615d6c565b60405180602001604052806152b66152af8660000151670de0b6b3a764000061569f565b8551615be6565b90529392505050565b6001600160a01b0381166000908152600960205260409020805460ff161515600114615332576040805162461bcd60e51b815260206004820152601860248201527f4c4842206d61726b6574206973206e6f74206c69737465640000000000000000604482015290519081900360640190fd5b600381015460ff161561538c576040805162461bcd60e51b815260206004820152601860248201527f4c4842206d61726b657420616c72656164792061646465640000000000000000604482015290519081900360640190fd5b60038101805460ff19166001908117909155604080516001600160a01b0385168152602081019290925280517f93c1f3e36ed71139f466a4ce8c9751790e2e33f5afb2df0dcfb3aeabe55d5aa29281900390910190a16001600160a01b0382166000908152601060205260409020546001600160e01b031615801561543457506001600160a01b038216600090815260106020526040902054600160e01b900463ffffffff16155b156154f15760405180604001604052806ec097ce7bc90715b34b9f10000000006001600160e01b0316815260200161549661546d612059565b6040518060400160405280601c8152602001600080516020615f198339815191528152506157d5565b63ffffffff9081169091526001600160a01b0384166000908152601060209081526040909120835181549490920151909216600160e01b026001600160e01b039182166001600160e01b031990941693909317169190911790555b6001600160a01b0382166000908152601160205260409020546001600160e01b031615801561554357506001600160a01b038216600090815260116020526040902054600160e01b900463ffffffff16155b15611ea45760405180604001604052806ec097ce7bc90715b34b9f10000000006001600160e01b0316815260200161557c61546d612059565b63ffffffff9081169091526001600160a01b0384166000908152601160209081526040909120835181549490920151909216600160e01b026001600160e01b039182166001600160e01b031990941693909317169190911790555050565b5190511090565b60007f45b96fe442630264581b197e84bbada861235052c5a1aadfff9ea4e40a969aa084601181111561561057fe5b84601381111561561c57fe5b604080519283526020830191909152818101859052519081900360600190a183601181111561179057fe5b6000611c188383604051806040016040528060158152602001747375627472616374696f6e20756e646572666c6f7760581b815250615c19565b6000611c1861569884670de0b6b3a764000061569f565b8351615be6565b6000611c1883836040518060400160405280601781526020017f6d756c7469706c69636174696f6e206f766572666c6f77000000000000000000815250615c73565b6156e9615d6c565b60405180602001604052806152b6615710866ec097ce7bc90715b34b9f100000000061569f565b85615be6565b61571e615d6c565b60405180602001604052806152b685600001518560000151614318565b600081600160e01b84106157cd5760405162461bcd60e51b81526004018080602001828103825283818151815260200191508051906020019080838360005b8381101561579257818101518382015260200161577a565b50505050905090810190601f1680156157bf5780820380516001836020036101000a031916815260200191505b509250505060405180910390fd5b509192915050565b600081600160201b84106157cd5760405162461bcd60e51b815260206004820181815283516024840152835190928392604490910191908501908083836000831561579257818101518382015260200161577a565b615832615d6c565b60405180602001604052806152b685600001518560000151615647565b60006ec097ce7bc90715b34b9f100000000061586f84846000015161569f565b8161587657fe5b049392505050565b60008183101580156158905750600083115b156159bb57600061589f612b2d565b604080516370a0823160e01b815230600482015290519192506000916001600160a01b038416916370a08231916024808301926020929190829003018186803b1580156158eb57600080fd5b505afa1580156158ff573d6000803e3d6000fd5b505050506040513d602081101561591557600080fd5b505190508085116159b857816001600160a01b031663a9059cbb87876040518363ffffffff1660e01b815260040180836001600160a01b03166001600160a01b0316815260200182815260200192505050602060405180830381600087803b15801561598057600080fd5b505af1158015615994573d6000803e3d6000fd5b505050506040513d60208110156159aa57600080fd5b5060009350611c1892505050565b50505b509092915050565b60008383018285821015615a185760405162461bcd60e51b815260206004820181815283516024840152835190928392604490910191908501908083836000831561579257818101518382015260200161577a565b50949350505050565b615a29615d6c565b60405180602001604052806152b685600001518561569f565b6000670de0b6b3a764000061586f84846000015161569f565b6000615a65615d6c565b615a6f8585615a21565b9050612507615a7d82615a83565b84614318565b51670de0b6b3a7640000900490565b6116a4816040516024018080602001828103825283818151815260200191508051906020019080838360005b83811015615ad6578181015183820152602001615abe565b50505050905090810190601f168015615b035780820380516001836020036101000a031916815260200191505b5060408051601f198184030181529190526020810180516001600160e01b031663104c13eb60e21b1790529250615ce9915050565b611ea482826040516024018080602001838152602001828103825284818151815260200191508051906020019080838360005b83811015615b83578181015183820152602001615b6b565b50505050905090810190601f168015615bb05780820380516001836020036101000a031916815260200191505b5060408051601f198184030181529190526020810180516001600160e01b03166309710a9d60e41b1790529350615ce992505050565b6000611c1883836040518060400160405280600e81526020016d646976696465206279207a65726f60901b815250615d0a565b60008184841115615c6b5760405162461bcd60e51b815260206004820181815283516024840152835190928392604490910191908501908083836000831561579257818101518382015260200161577a565b505050900390565b6000831580615c80575082155b15615c8d57506000611c18565b83830283858281615c9a57fe5b04148390615a185760405162461bcd60e51b815260206004820181815283516024840152835190928392604490910191908501908083836000831561579257818101518382015260200161577a565b80516a636f6e736f6c652e6c6f67602083016000808483855afa5050505050565b60008183615d595760405162461bcd60e51b815260206004820181815283516024840152835190928392604490910191908501908083836000831561579257818101518382015260200161577a565b50828481615d6357fe5b04949350505050565b6040518060200160405280600081525090565b604051806101400160405280600081526020016000815260200160008152602001600081526020016000815260200160008152602001615dbd615d6c565b8152602001615dca615d6c565b8152602001615dd7615d6c565b8152602001615de4615d6c565b90529056fe63616e6e6f742070617573652061206d61726b65742074686174206973206e6f74206c69737465646f6e6c792065787465726e616c6c79206f776e6564206163636f756e7473206d61792072656672657368207370656564736f6e6c7920706175736520677561726469616e20616e642061646d696e2063616e2070617573656f6e6c792061646d696e2063616e2073657420626f72726f772063617020677561726469616e6765744879706f746865746963616c4163636f756e744c6971756964697479496e7465726e616c206661696c65643a6f6e6c792061646d696e206f7220626f72726f772063617020677561726469616e2063616e2073657420626f72726f772063617073657869744d61726b65743a206765744163636f756e74536e617073686f74206661696c6564626c6f636b206e756d62657220657863656564732033322062697473000000006f6e6c7920756e6974726f6c6c65722061646d696e2063616e206368616e676520627261696e73a265627a7a723158203cb0a90c322c0f333598595ce6cd7f0adad526cfb2fccbaecc8af59f64ce4f5f64736f6c63430005100032",
  "devdoc": {
    "author": "Compound",
    "methods": {
      "_addCompMarkets(address[])": {
        "params": {
          "cTokens": "The addresses of the markets to add"
        }
      },
      "_dropCompMarket(address)": {
        "params": {
          "cToken": "The address of the market to drop"
        }
      },
      "_grantComp(address,uint256)": {
        "details": "Note: If there is not enough LHB, we do not perform the transfer all.",
        "params": {
          "amount": "The amount of LHB to (possibly) transfer",
          "recipient": "The address of the recipient to transfer LHB to"
        }
      },
      "_setBorrowCapGuardian(address)": {
        "params": {
          "newBorrowCapGuardian": "The address of the new Borrow Cap Guardian"
        }
      },
      "_setCloseFactor(uint256)": {
        "details": "Admin function to set closeFactor",
        "params": {
          "newCloseFactorMantissa": "New close factor, scaled by 1e18"
        },
        "return": "uint 0=success, otherwise a failure"
      },
      "_setCollateralFactor(address,uint256)": {
        "details": "Admin function to set per-market collateralFactor",
        "params": {
          "cToken": "The market to set the factor on",
          "newCollateralFactorMantissa": "The new collateral factor, scaled by 1e18"
        },
        "return": "uint 0=success, otherwise a failure. (See ErrorReporter for details)"
      },
      "_setCompRate(uint256)": {
        "params": {
          "compRate_": "The amount of LHB wei per block to distribute"
        }
      },
      "_setLiquidationIncentive(uint256)": {
        "details": "Admin function to set liquidationIncentive",
        "params": {
          "newLiquidationIncentiveMantissa": "New liquidationIncentive scaled by 1e18"
        },
        "return": "uint 0=success, otherwise a failure. (See ErrorReporter for details)"
      },
      "_setMarketBorrowCaps(address[],uint256[])": {
        "details": "Admin or borrowCapGuardian function to set the borrow caps. A borrow cap of 0 corresponds to unlimited borrowing.",
        "params": {
          "cTokens": "The addresses of the markets (tokens) to change the borrow caps for",
          "newBorrowCaps": "The new borrow cap values in underlying to be set. A value of 0 corresponds to unlimited borrowing."
        }
      },
      "_setPauseGuardian(address)": {
        "params": {
          "newPauseGuardian": "The address of the new Pause Guardian"
        },
        "return": "uint 0=success, otherwise a failure. (See enum Error for details)"
      },
      "_setPriceOracle(address)": {
        "details": "Admin function to set a new price oracle",
        "return": "uint 0=success, otherwise a failure (see ErrorReporter.sol for details)"
      },
      "_supportMarket(address)": {
        "details": "Admin function to set isListed and add support for the market",
        "params": {
          "cToken": "The address of the market (token) to list"
        },
        "return": "uint 0=success, otherwise a failure. (See enum Error for details)"
      },
      "borrowAllowed(address,address,uint256)": {
        "params": {
          "borrowAmount": "The amount of underlying the account would borrow",
          "borrower": "The account which would borrow the asset",
          "cToken": "The market to verify the borrow against"
        },
        "return": "0 if the borrow is allowed, otherwise a semi-opaque error code (See ErrorReporter.sol)"
      },
      "borrowMarginAllowed(address,address,uint256)": {
        "params": {
          "borrowAmount": "The amount of underlying the account would borrow",
          "borrower": "The account which would borrow the asset",
          "cToken": "The market to verify the borrow against"
        },
        "return": "0 if the borrow is allowed, otherwise a semi-opaque error code (See ErrorReporter.sol)"
      },
      "borrowVerify(address,address,uint256)": {
        "params": {
          "borrowAmount": "The amount of the underlying asset requested to borrow",
          "borrower": "The address borrowing the underlying",
          "cToken": "Asset whose underlying is being borrowed"
        }
      },
      "checkMembership(address,address)": {
        "params": {
          "account": "The address of the account to check",
          "cToken": "The cToken to check"
        },
        "return": "True if the account is in the asset, otherwise false."
      },
      "claimComp(address)": {
        "params": {
          "holder": "The address to claim LHB for"
        }
      },
      "claimComp(address,address[])": {
        "params": {
          "cTokens": "The list of markets to claim LHB in",
          "holder": "The address to claim LHB for"
        }
      },
      "claimComp(address[],address[],bool,bool)": {
        "params": {
          "borrowers": "Whether or not to claim LHB earned by borrowing",
          "cTokens": "The list of markets to claim LHB in",
          "holders": "The addresses to claim LHB for",
          "suppliers": "Whether or not to claim LHB earned by supplying"
        }
      },
      "enterMarkets(address[])": {
        "params": {
          "cTokens": "The list of addresses of the cToken markets to be enabled"
        },
        "return": "Success indicator for whether each corresponding market was entered"
      },
      "exitMarket(address)": {
        "details": "Sender must not have an outstanding borrow balance in the asset, or be providing necessary collateral for an outstanding borrow.",
        "params": {
          "cTokenAddress": "The address of the asset to be removed"
        },
        "return": "Whether or not the account successfully exited the market"
      },
      "getAccountLiquidity(address)": {
        "return": "(possible error code (semi-opaque), account liquidity in excess of collateral requirements,         account shortfall below collateral requirements)"
      },
      "getAllMarkets()": {
        "details": "The automatic getter may be used to access an individual market.",
        "return": "The list of market addresses"
      },
      "getAssetsIn(address)": {
        "params": {
          "account": "The address of the account to pull assets for"
        },
        "return": "A dynamic list with the assets the account has entered"
      },
      "getCTokenAddress(address)": {
        "params": {
          "token": "The address of the token to be query"
        },
        "return": "The address of cToken"
      },
      "getCompAddress()": {
        "return": "The address of LHB"
      },
      "getHypotheticalAccountLiquidity(address,address,uint256,uint256)": {
        "params": {
          "account": "The account to determine liquidity for",
          "borrowAmount": "The amount of underlying to hypothetically borrow",
          "cTokenModify": "The market to hypothetically redeem/borrow in",
          "redeemTokens": "The number of tokens to hypothetically redeem"
        },
        "return": "(possible error code (semi-opaque), hypothetical account liquidity in excess of collateral requirements,         hypothetical account shortfall below collateral requirements)"
      },
      "liquidateBorrowAllowed(address,address,address,address,uint256)": {
        "params": {
          "borrower": "The address of the borrower",
          "cTokenBorrowed": "Asset which was borrowed by the borrower",
          "cTokenCollateral": "Asset which was used as collateral and will be seized",
          "liquidator": "The address repaying the borrow and seizing the collateral",
          "repayAmount": "The amount of underlying being repaid"
        }
      },
      "liquidateBorrowVerify(address,address,address,address,uint256,uint256)": {
        "params": {
          "actualRepayAmount": "The amount of underlying being repaid",
          "borrower": "The address of the borrower",
          "cTokenBorrowed": "Asset which was borrowed by the borrower",
          "cTokenCollateral": "Asset which was used as collateral and will be seized",
          "liquidator": "The address repaying the borrow and seizing the collateral"
        }
      },
      "liquidateCalculateSeizeTokens(address,address,uint256)": {
        "details": "Used in liquidation (called in cToken.liquidateBorrowFresh)",
        "params": {
          "actualRepayAmount": "The amount of cTokenBorrowed underlying to convert into cTokenCollateral tokens",
          "cTokenBorrowed": "The address of the borrowed cToken",
          "cTokenCollateral": "The address of the collateral cToken"
        },
        "return": "(errorCode, number of cTokenCollateral tokens to be seized in a liquidation)"
      },
      "mintAllowed(address,address,uint256)": {
        "params": {
          "cToken": "The market to verify the mint against",
          "mintAmount": "The amount of underlying being supplied to the market in exchange for tokens",
          "minter": "The account which would get the minted tokens"
        },
        "return": "0 if the mint is allowed, otherwise a semi-opaque error code (See ErrorReporter.sol)"
      },
      "mintVerify(address,address,uint256,uint256)": {
        "params": {
          "actualMintAmount": "The amount of the underlying asset being minted",
          "cToken": "Asset being minted",
          "mintTokens": "The number of tokens being minted",
          "minter": "The address minting the tokens"
        }
      },
      "redeemAllowed(address,address,uint256)": {
        "params": {
          "cToken": "The market to verify the redeem against",
          "redeemTokens": "The number of cTokens to exchange for the underlying asset in the market",
          "redeemer": "The account which would redeem the tokens"
        },
        "return": "0 if the redeem is allowed, otherwise a semi-opaque error code (See ErrorReporter.sol)"
      },
      "redeemVerify(address,address,uint256,uint256)": {
        "params": {
          "cToken": "Asset being redeemed",
          "redeemAmount": "The amount of the underlying asset being redeemed",
          "redeemTokens": "The number of tokens being redeemed",
          "redeemer": "The address redeeming the tokens"
        }
      },
      "repayBorrowAllowed(address,address,address,uint256)": {
        "params": {
          "borrower": "The account which would borrowed the asset",
          "cToken": "The market to verify the repay against",
          "payer": "The account which would repay the asset",
          "repayAmount": "The amount of the underlying asset the account would repay"
        },
        "return": "0 if the repay is allowed, otherwise a semi-opaque error code (See ErrorReporter.sol)"
      },
      "repayBorrowVerify(address,address,address,uint256,uint256)": {
        "params": {
          "actualRepayAmount": "The amount of underlying being repaid",
          "borrower": "The address of the borrower",
          "cToken": "Asset being repaid",
          "payer": "The address repaying the borrow"
        }
      },
      "seizeAllowed(address,address,address,address,uint256)": {
        "params": {
          "borrower": "The address of the borrower",
          "cTokenBorrowed": "Asset which was borrowed by the borrower",
          "cTokenCollateral": "Asset which was used as collateral and will be seized",
          "liquidator": "The address repaying the borrow and seizing the collateral",
          "seizeTokens": "The number of collateral tokens to seize"
        }
      },
      "seizeVerify(address,address,address,address,uint256)": {
        "params": {
          "borrower": "The address of the borrower",
          "cTokenBorrowed": "Asset which was borrowed by the borrower",
          "cTokenCollateral": "Asset which was used as collateral and will be seized",
          "liquidator": "The address repaying the borrow and seizing the collateral",
          "seizeTokens": "The number of collateral tokens to seize"
        }
      },
      "transferAllowed(address,address,address,uint256)": {
        "params": {
          "cToken": "The market to verify the transfer against",
          "dst": "The account which receives the tokens",
          "src": "The account which sources the tokens",
          "transferTokens": "The number of cTokens to transfer"
        },
        "return": "0 if the transfer is allowed, otherwise a semi-opaque error code (See ErrorReporter.sol)"
      },
      "transferVerify(address,address,address,uint256)": {
        "params": {
          "cToken": "Asset being transferred",
          "dst": "The account which receives the tokens",
          "src": "The account which sources the tokens",
          "transferTokens": "The number of cTokens to transfer"
        }
      }
    },
    "title": "Compound's Comptroller Contract"
  },
  "userdoc": {
    "methods": {
      "_addCompMarkets(address[])": {
        "notice": "Add markets to compMarkets, allowing them to earn LHB in the flywheel"
      },
      "_dropCompMarket(address)": {
        "notice": "Remove a market from compMarkets, preventing it from earning LHB in the flywheel"
      },
      "_grantComp(address,uint256)": {
        "notice": "Transfer LHB to the recipient"
      },
      "_setBorrowCapGuardian(address)": {
        "notice": "Admin function to change the Borrow Cap Guardian"
      },
      "_setCloseFactor(uint256)": {
        "notice": "Sets the closeFactor used when liquidating borrows"
      },
      "_setCollateralFactor(address,uint256)": {
        "notice": "Sets the collateralFactor for a market"
      },
      "_setCompRate(uint256)": {
        "notice": "Set the amount of LHB distributed per block"
      },
      "_setLiquidationIncentive(uint256)": {
        "notice": "Sets liquidationIncentive"
      },
      "_setMarketBorrowCaps(address[],uint256[])": {
        "notice": "Set the given borrow caps for the given cToken markets. Borrowing that brings total borrows to or above borrow cap will revert."
      },
      "_setPauseGuardian(address)": {
        "notice": "Admin function to change the Pause Guardian"
      },
      "_setPriceOracle(address)": {
        "notice": "Sets a new price oracle for the comptroller"
      },
      "_supportMarket(address)": {
        "notice": "Add the market to the markets mapping and set it as listed"
      },
      "borrowAllowed(address,address,uint256)": {
        "notice": "Checks if the account should be allowed to borrow the underlying asset of the given market"
      },
      "borrowMarginAllowed(address,address,uint256)": {
        "notice": "Checks if the account should be allowed to borrow the underlying asset of the given market"
      },
      "borrowVerify(address,address,uint256)": {
        "notice": "Validates borrow and reverts on rejection. May emit logs."
      },
      "checkMembership(address,address)": {
        "notice": "Returns whether the given account is entered in the given asset"
      },
      "claimComp(address)": {
        "notice": "Claim all the LHB accrued by holder in all markets"
      },
      "claimComp(address,address[])": {
        "notice": "Claim all the LHB accrued by holder in the specified markets"
      },
      "claimComp(address[],address[],bool,bool)": {
        "notice": "Claim all LHB accrued by the holders"
      },
      "enterMarkets(address[])": {
        "notice": "Add assets to be included in account liquidity calculation"
      },
      "exitMarket(address)": {
        "notice": "Removes asset from sender's account liquidity calculation"
      },
      "getAccountLiquidity(address)": {
        "notice": "Determine the current account liquidity wrt collateral requirements"
      },
      "getAllMarkets()": {
        "notice": "Return all of the markets"
      },
      "getAssetsIn(address)": {
        "notice": "Returns the assets an account has entered"
      },
      "getCTokenAddress(address)": {
        "notice": "Return the cToken address of the token, if cToken not exist, create it"
      },
      "getCompAddress()": {
        "notice": "Return the address of the LHB token"
      },
      "getHypotheticalAccountLiquidity(address,address,uint256,uint256)": {
        "notice": "Determine what the account liquidity would be if the given amounts were redeemed/borrowed"
      },
      "liquidateBorrowAllowed(address,address,address,address,uint256)": {
        "notice": "Checks if the liquidation should be allowed to occur"
      },
      "liquidateBorrowVerify(address,address,address,address,uint256,uint256)": {
        "notice": "Validates liquidateBorrow and reverts on rejection. May emit logs."
      },
      "liquidateCalculateSeizeTokens(address,address,uint256)": {
        "notice": "Calculate number of tokens of collateral asset to seize given an underlying amount"
      },
      "mintAllowed(address,address,uint256)": {
        "notice": "Checks if the account should be allowed to mint tokens in the given market"
      },
      "mintVerify(address,address,uint256,uint256)": {
        "notice": "Validates mint and reverts on rejection. May emit logs."
      },
      "redeemAllowed(address,address,uint256)": {
        "notice": "Checks if the account should be allowed to redeem tokens in the given market"
      },
      "redeemVerify(address,address,uint256,uint256)": {
        "notice": "Validates redeem and reverts on rejection. May emit logs."
      },
      "refreshCompSpeeds()": {
        "notice": "Recalculate and update LHB speeds for all LHB markets"
      },
      "repayBorrowAllowed(address,address,address,uint256)": {
        "notice": "Checks if the account should be allowed to repay a borrow in the given market"
      },
      "repayBorrowVerify(address,address,address,uint256,uint256)": {
        "notice": "Validates repayBorrow and reverts on rejection. May emit logs."
      },
      "seizeAllowed(address,address,address,address,uint256)": {
        "notice": "Checks if the seizing of assets should be allowed to occur"
      },
      "seizeVerify(address,address,address,address,uint256)": {
        "notice": "Validates seize and reverts on rejection. May emit logs."
      },
      "transferAllowed(address,address,address,uint256)": {
        "notice": "Checks if the account should be allowed to transfer tokens in the given market"
      },
      "transferVerify(address,address,address,uint256)": {
        "notice": "Validates transfer and reverts on rejection. May emit logs."
      }
    }
  },
  "storageLayout": {
    "storage": [
      {
        "astId": 15217,
        "contract": "contracts/compound/Comptroller.sol:Comptroller",
        "label": "admin",
        "offset": 0,
        "slot": "0",
        "type": "t_address"
      },
      {
        "astId": 15219,
        "contract": "contracts/compound/Comptroller.sol:Comptroller",
        "label": "pendingAdmin",
        "offset": 0,
        "slot": "1",
        "type": "t_address"
      },
      {
        "astId": 15221,
        "contract": "contracts/compound/Comptroller.sol:Comptroller",
        "label": "comptrollerImplementation",
        "offset": 0,
        "slot": "2",
        "type": "t_address"
      },
      {
        "astId": 15223,
        "contract": "contracts/compound/Comptroller.sol:Comptroller",
        "label": "pendingComptrollerImplementation",
        "offset": 0,
        "slot": "3",
        "type": "t_address"
      },
      {
        "astId": 15228,
        "contract": "contracts/compound/Comptroller.sol:Comptroller",
        "label": "oracle",
        "offset": 0,
        "slot": "4",
        "type": "t_contract(PriceOracle)19838"
      },
      {
        "astId": 15230,
        "contract": "contracts/compound/Comptroller.sol:Comptroller",
        "label": "closeFactorMantissa",
        "offset": 0,
        "slot": "5",
        "type": "t_uint256"
      },
      {
        "astId": 15232,
        "contract": "contracts/compound/Comptroller.sol:Comptroller",
        "label": "liquidationIncentiveMantissa",
        "offset": 0,
        "slot": "6",
        "type": "t_uint256"
      },
      {
        "astId": 15234,
        "contract": "contracts/compound/Comptroller.sol:Comptroller",
        "label": "maxAssets",
        "offset": 0,
        "slot": "7",
        "type": "t_uint256"
      },
      {
        "astId": 15239,
        "contract": "contracts/compound/Comptroller.sol:Comptroller",
        "label": "accountAssets",
        "offset": 0,
        "slot": "8",
        "type": "t_mapping(t_address,t_array(t_contract(CToken)11225)dyn_storage)"
      },
      {
        "astId": 15257,
        "contract": "contracts/compound/Comptroller.sol:Comptroller",
        "label": "markets",
        "offset": 0,
        "slot": "9",
        "type": "t_mapping(t_address,t_struct(Market)15253_storage)"
      },
      {
        "astId": 15259,
        "contract": "contracts/compound/Comptroller.sol:Comptroller",
        "label": "pauseGuardian",
        "offset": 0,
        "slot": "10",
        "type": "t_address"
      },
      {
        "astId": 15261,
        "contract": "contracts/compound/Comptroller.sol:Comptroller",
        "label": "_mintGuardianPaused",
        "offset": 20,
        "slot": "10",
        "type": "t_bool"
      },
      {
        "astId": 15263,
        "contract": "contracts/compound/Comptroller.sol:Comptroller",
        "label": "_borrowGuardianPaused",
        "offset": 21,
        "slot": "10",
        "type": "t_bool"
      },
      {
        "astId": 15265,
        "contract": "contracts/compound/Comptroller.sol:Comptroller",
        "label": "transferGuardianPaused",
        "offset": 22,
        "slot": "10",
        "type": "t_bool"
      },
      {
        "astId": 15267,
        "contract": "contracts/compound/Comptroller.sol:Comptroller",
        "label": "seizeGuardianPaused",
        "offset": 23,
        "slot": "10",
        "type": "t_bool"
      },
      {
        "astId": 15271,
        "contract": "contracts/compound/Comptroller.sol:Comptroller",
        "label": "mintGuardianPaused",
        "offset": 0,
        "slot": "11",
        "type": "t_mapping(t_address,t_bool)"
      },
      {
        "astId": 15275,
        "contract": "contracts/compound/Comptroller.sol:Comptroller",
        "label": "borrowGuardianPaused",
        "offset": 0,
        "slot": "12",
        "type": "t_mapping(t_address,t_bool)"
      },
      {
        "astId": 15286,
        "contract": "contracts/compound/Comptroller.sol:Comptroller",
        "label": "allMarkets",
        "offset": 0,
        "slot": "13",
        "type": "t_array(t_contract(CToken)11225)dyn_storage"
      },
      {
        "astId": 15288,
        "contract": "contracts/compound/Comptroller.sol:Comptroller",
        "label": "compRate",
        "offset": 0,
        "slot": "14",
        "type": "t_uint256"
      },
      {
        "astId": 15292,
        "contract": "contracts/compound/Comptroller.sol:Comptroller",
        "label": "compSpeeds",
        "offset": 0,
        "slot": "15",
        "type": "t_mapping(t_address,t_uint256)"
      },
      {
        "astId": 15296,
        "contract": "contracts/compound/Comptroller.sol:Comptroller",
        "label": "compSupplyState",
        "offset": 0,
        "slot": "16",
        "type": "t_mapping(t_address,t_struct(CompMarketState)15283_storage)"
      },
      {
        "astId": 15300,
        "contract": "contracts/compound/Comptroller.sol:Comptroller",
        "label": "compBorrowState",
        "offset": 0,
        "slot": "17",
        "type": "t_mapping(t_address,t_struct(CompMarketState)15283_storage)"
      },
      {
        "astId": 15306,
        "contract": "contracts/compound/Comptroller.sol:Comptroller",
        "label": "compSupplierIndex",
        "offset": 0,
        "slot": "18",
        "type": "t_mapping(t_address,t_mapping(t_address,t_uint256))"
      },
      {
        "astId": 15312,
        "contract": "contracts/compound/Comptroller.sol:Comptroller",
        "label": "compBorrowerIndex",
        "offset": 0,
        "slot": "19",
        "type": "t_mapping(t_address,t_mapping(t_address,t_uint256))"
      },
      {
        "astId": 15316,
        "contract": "contracts/compound/Comptroller.sol:Comptroller",
        "label": "compAccrued",
        "offset": 0,
        "slot": "20",
        "type": "t_mapping(t_address,t_uint256)"
      },
      {
        "astId": 15321,
        "contract": "contracts/compound/Comptroller.sol:Comptroller",
        "label": "borrowCapGuardian",
        "offset": 0,
        "slot": "21",
        "type": "t_address"
      },
      {
        "astId": 15325,
        "contract": "contracts/compound/Comptroller.sol:Comptroller",
        "label": "borrowCaps",
        "offset": 0,
        "slot": "22",
        "type": "t_mapping(t_address,t_uint256)"
      },
      {
        "astId": 15330,
        "contract": "contracts/compound/Comptroller.sol:Comptroller",
        "label": "marginLP",
        "offset": 0,
        "slot": "23",
        "type": "t_address"
      },
      {
        "astId": 15332,
        "contract": "contracts/compound/Comptroller.sol:Comptroller",
        "label": "marginSwap",
        "offset": 0,
        "slot": "24",
        "type": "t_address"
      }
    ],
    "types": {
      "t_address": {
        "encoding": "inplace",
        "label": "address",
        "numberOfBytes": "20"
      },
      "t_array(t_contract(CToken)11225)dyn_storage": {
        "base": "t_contract(CToken)11225",
        "encoding": "dynamic_array",
        "label": "contract CToken[]",
        "numberOfBytes": "32"
      },
      "t_bool": {
        "encoding": "inplace",
        "label": "bool",
        "numberOfBytes": "1"
      },
      "t_contract(CToken)11225": {
        "encoding": "inplace",
        "label": "contract CToken",
        "numberOfBytes": "20"
      },
      "t_contract(PriceOracle)19838": {
        "encoding": "inplace",
        "label": "contract PriceOracle",
        "numberOfBytes": "20"
      },
      "t_mapping(t_address,t_array(t_contract(CToken)11225)dyn_storage)": {
        "encoding": "mapping",
        "key": "t_address",
        "label": "mapping(address => contract CToken[])",
        "numberOfBytes": "32",
        "value": "t_array(t_contract(CToken)11225)dyn_storage"
      },
      "t_mapping(t_address,t_bool)": {
        "encoding": "mapping",
        "key": "t_address",
        "label": "mapping(address => bool)",
        "numberOfBytes": "32",
        "value": "t_bool"
      },
      "t_mapping(t_address,t_mapping(t_address,t_uint256))": {
        "encoding": "mapping",
        "key": "t_address",
        "label": "mapping(address => mapping(address => uint256))",
        "numberOfBytes": "32",
        "value": "t_mapping(t_address,t_uint256)"
      },
      "t_mapping(t_address,t_struct(CompMarketState)15283_storage)": {
        "encoding": "mapping",
        "key": "t_address",
        "label": "mapping(address => struct ComptrollerV3Storage.CompMarketState)",
        "numberOfBytes": "32",
        "value": "t_struct(CompMarketState)15283_storage"
      },
      "t_mapping(t_address,t_struct(Market)15253_storage)": {
        "encoding": "mapping",
        "key": "t_address",
        "label": "mapping(address => struct ComptrollerV2Storage.Market)",
        "numberOfBytes": "32",
        "value": "t_struct(Market)15253_storage"
      },
      "t_mapping(t_address,t_uint256)": {
        "encoding": "mapping",
        "key": "t_address",
        "label": "mapping(address => uint256)",
        "numberOfBytes": "32",
        "value": "t_uint256"
      },
      "t_struct(CompMarketState)15283_storage": {
        "encoding": "inplace",
        "label": "struct ComptrollerV3Storage.CompMarketState",
        "members": [
          {
            "astId": 15280,
            "contract": "contracts/compound/Comptroller.sol:Comptroller",
            "label": "index",
            "offset": 0,
            "slot": "0",
            "type": "t_uint224"
          },
          {
            "astId": 15282,
            "contract": "contracts/compound/Comptroller.sol:Comptroller",
            "label": "block",
            "offset": 28,
            "slot": "0",
            "type": "t_uint32"
          }
        ],
        "numberOfBytes": "32"
      },
      "t_struct(Market)15253_storage": {
        "encoding": "inplace",
        "label": "struct ComptrollerV2Storage.Market",
        "members": [
          {
            "astId": 15244,
            "contract": "contracts/compound/Comptroller.sol:Comptroller",
            "label": "isListed",
            "offset": 0,
            "slot": "0",
            "type": "t_bool"
          },
          {
            "astId": 15246,
            "contract": "contracts/compound/Comptroller.sol:Comptroller",
            "label": "collateralFactorMantissa",
            "offset": 0,
            "slot": "1",
            "type": "t_uint256"
          },
          {
            "astId": 15250,
            "contract": "contracts/compound/Comptroller.sol:Comptroller",
            "label": "accountMembership",
            "offset": 0,
            "slot": "2",
            "type": "t_mapping(t_address,t_bool)"
          },
          {
            "astId": 15252,
            "contract": "contracts/compound/Comptroller.sol:Comptroller",
            "label": "isComped",
            "offset": 0,
            "slot": "3",
            "type": "t_bool"
          }
        ],
        "numberOfBytes": "128"
      },
      "t_uint224": {
        "encoding": "inplace",
        "label": "uint224",
        "numberOfBytes": "28"
      },
      "t_uint256": {
        "encoding": "inplace",
        "label": "uint256",
        "numberOfBytes": "32"
      },
      "t_uint32": {
        "encoding": "inplace",
        "label": "uint32",
        "numberOfBytes": "4"
      }
    }
  }
}