{
  "address": "0x8C4E44B33d83d3312Fe41766f30b837816583F42",
  "abi": [
    {
      "inputs": [],
      "stateMutability": "nonpayable",
      "type": "constructor"
    },
    {
      "anonymous": false,
      "inputs": [
        {
          "indexed": false,
          "internalType": "string",
          "name": "action",
          "type": "string"
        },
        {
          "indexed": false,
          "internalType": "bool",
          "name": "pauseState",
          "type": "bool"
        }
      ],
      "name": "ActionPaused",
      "type": "event"
    },
    {
      "anonymous": false,
      "inputs": [
        {
          "indexed": false,
          "internalType": "contract CToken",
          "name": "cToken",
          "type": "address"
        },
        {
          "indexed": false,
          "internalType": "string",
          "name": "action",
          "type": "string"
        },
        {
          "indexed": false,
          "internalType": "bool",
          "name": "pauseState",
          "type": "bool"
        }
      ],
      "name": "ActionPaused",
      "type": "event"
    },
    {
      "anonymous": false,
      "inputs": [
        {
          "indexed": false,
          "internalType": "address",
          "name": "recipient",
          "type": "address"
        },
        {
          "indexed": false,
          "internalType": "uint256",
          "name": "amount",
          "type": "uint256"
        }
      ],
      "name": "CompGranted",
      "type": "event"
    },
    {
      "anonymous": false,
      "inputs": [
        {
          "indexed": true,
          "internalType": "contract CToken",
          "name": "cToken",
          "type": "address"
        },
        {
          "indexed": false,
          "internalType": "uint256",
          "name": "newSpeed",
          "type": "uint256"
        }
      ],
      "name": "CompSpeedUpdated",
      "type": "event"
    },
    {
      "anonymous": false,
      "inputs": [
        {
          "indexed": true,
          "internalType": "contract CToken",
          "name": "cToken",
          "type": "address"
        },
        {
          "indexed": true,
          "internalType": "address",
          "name": "borrower",
          "type": "address"
        },
        {
          "indexed": false,
          "internalType": "uint256",
          "name": "compDelta",
          "type": "uint256"
        },
        {
          "indexed": false,
          "internalType": "uint256",
          "name": "compBorrowIndex",
          "type": "uint256"
        }
      ],
      "name": "DistributedBorrowerComp",
      "type": "event"
    },
    {
      "anonymous": false,
      "inputs": [
        {
          "indexed": true,
          "internalType": "contract CToken",
          "name": "cToken",
          "type": "address"
        },
        {
          "indexed": true,
          "internalType": "address",
          "name": "supplier",
          "type": "address"
        },
        {
          "indexed": false,
          "internalType": "uint256",
          "name": "compDelta",
          "type": "uint256"
        },
        {
          "indexed": false,
          "internalType": "uint256",
          "name": "compSupplyIndex",
          "type": "uint256"
        }
      ],
      "name": "DistributedSupplierComp",
      "type": "event"
    },
    {
      "anonymous": false,
      "inputs": [
        {
          "indexed": false,
          "internalType": "uint256",
          "name": "error",
          "type": "uint256"
        },
        {
          "indexed": false,
          "internalType": "uint256",
          "name": "info",
          "type": "uint256"
        },
        {
          "indexed": false,
          "internalType": "uint256",
          "name": "detail",
          "type": "uint256"
        }
      ],
      "name": "Failure",
      "type": "event"
    },
    {
      "anonymous": false,
      "inputs": [
        {
          "indexed": false,
          "internalType": "contract CToken",
          "name": "cToken",
          "type": "address"
        },
        {
          "indexed": false,
          "internalType": "bool",
          "name": "isComped",
          "type": "bool"
        }
      ],
      "name": "MarketComped",
      "type": "event"
    },
    {
      "anonymous": false,
      "inputs": [
        {
          "indexed": false,
          "internalType": "contract CToken",
          "name": "cToken",
          "type": "address"
        },
        {
          "indexed": false,
          "internalType": "address",
          "name": "account",
          "type": "address"
        }
      ],
      "name": "MarketEntered",
      "type": "event"
    },
    {
      "anonymous": false,
      "inputs": [
        {
          "indexed": false,
          "internalType": "contract CToken",
          "name": "cToken",
          "type": "address"
        },
        {
          "indexed": false,
          "internalType": "address",
          "name": "account",
          "type": "address"
        }
      ],
      "name": "MarketExited",
      "type": "event"
    },
    {
      "anonymous": false,
      "inputs": [
        {
          "indexed": false,
          "internalType": "contract CToken",
          "name": "cToken",
          "type": "address"
        }
      ],
      "name": "MarketListed",
      "type": "event"
    },
    {
      "anonymous": false,
      "inputs": [
        {
          "indexed": true,
          "internalType": "contract CToken",
          "name": "cToken",
          "type": "address"
        },
        {
          "indexed": false,
          "internalType": "uint256",
          "name": "newBorrowCap",
          "type": "uint256"
        }
      ],
      "name": "NewBorrowCap",
      "type": "event"
    },
    {
      "anonymous": false,
      "inputs": [
        {
          "indexed": false,
          "internalType": "address",
          "name": "oldBorrowCapGuardian",
          "type": "address"
        },
        {
          "indexed": false,
          "internalType": "address",
          "name": "newBorrowCapGuardian",
          "type": "address"
        }
      ],
      "name": "NewBorrowCapGuardian",
      "type": "event"
    },
    {
      "anonymous": false,
      "inputs": [
        {
          "indexed": false,
          "internalType": "uint256",
          "name": "oldCloseFactorMantissa",
          "type": "uint256"
        },
        {
          "indexed": false,
          "internalType": "uint256",
          "name": "newCloseFactorMantissa",
          "type": "uint256"
        }
      ],
      "name": "NewCloseFactor",
      "type": "event"
    },
    {
      "anonymous": false,
      "inputs": [
        {
          "indexed": false,
          "internalType": "contract CToken",
          "name": "cToken",
          "type": "address"
        },
        {
          "indexed": false,
          "internalType": "uint256",
          "name": "oldCollateralFactorMantissa",
          "type": "uint256"
        },
        {
          "indexed": false,
          "internalType": "uint256",
          "name": "newCollateralFactorMantissa",
          "type": "uint256"
        }
      ],
      "name": "NewCollateralFactor",
      "type": "event"
    },
    {
      "anonymous": false,
      "inputs": [
        {
          "indexed": false,
          "internalType": "uint256",
          "name": "oldCompRate",
          "type": "uint256"
        },
        {
          "indexed": false,
          "internalType": "uint256",
          "name": "newCompRate",
          "type": "uint256"
        }
      ],
      "name": "NewCompRate",
      "type": "event"
    },
    {
      "anonymous": false,
      "inputs": [
        {
          "indexed": false,
          "internalType": "uint256",
          "name": "oldLiquidationIncentiveMantissa",
          "type": "uint256"
        },
        {
          "indexed": false,
          "internalType": "uint256",
          "name": "newLiquidationIncentiveMantissa",
          "type": "uint256"
        }
      ],
      "name": "NewLiquidationIncentive",
      "type": "event"
    },
    {
      "anonymous": false,
      "inputs": [
        {
          "indexed": false,
          "internalType": "address",
          "name": "oldPauseGuardian",
          "type": "address"
        },
        {
          "indexed": false,
          "internalType": "address",
          "name": "newPauseGuardian",
          "type": "address"
        }
      ],
      "name": "NewPauseGuardian",
      "type": "event"
    },
    {
      "anonymous": false,
      "inputs": [
        {
          "indexed": false,
          "internalType": "contract PriceOracle",
          "name": "oldPriceOracle",
          "type": "address"
        },
        {
          "indexed": false,
          "internalType": "contract PriceOracle",
          "name": "newPriceOracle",
          "type": "address"
        }
      ],
      "name": "NewPriceOracle",
      "type": "event"
    },
    {
      "inputs": [
        {
          "internalType": "address[]",
          "name": "cTokens",
          "type": "address[]"
        }
      ],
      "name": "_addCompMarkets",
      "outputs": [],
      "stateMutability": "nonpayable",
      "type": "function"
    },
    {
      "inputs": [
        {
          "internalType": "contract Unitroller",
          "name": "unitroller",
          "type": "address"
        }
      ],
      "name": "_become",
      "outputs": [],
      "stateMutability": "nonpayable",
      "type": "function"
    },
    {
      "inputs": [],
      "name": "_borrowGuardianPaused",
      "outputs": [
        {
          "internalType": "bool",
          "name": "",
          "type": "bool"
        }
      ],
      "stateMutability": "view",
      "type": "function"
    },
    {
      "inputs": [
        {
          "internalType": "address",
          "name": "cToken",
          "type": "address"
        }
      ],
      "name": "_dropCompMarket",
      "outputs": [],
      "stateMutability": "nonpayable",
      "type": "function"
    },
    {
      "inputs": [
        {
          "internalType": "address",
          "name": "recipient",
          "type": "address"
        },
        {
          "internalType": "uint256",
          "name": "amount",
          "type": "uint256"
        }
      ],
      "name": "_grantComp",
      "outputs": [],
      "stateMutability": "nonpayable",
      "type": "function"
    },
    {
      "inputs": [],
      "name": "_mintGuardianPaused",
      "outputs": [
        {
          "internalType": "bool",
          "name": "",
          "type": "bool"
        }
      ],
      "stateMutability": "view",
      "type": "function"
    },
    {
      "inputs": [
        {
          "internalType": "address",
          "name": "newBorrowCapGuardian",
          "type": "address"
        }
      ],
      "name": "_setBorrowCapGuardian",
      "outputs": [],
      "stateMutability": "nonpayable",
      "type": "function"
    },
    {
      "inputs": [
        {
          "internalType": "contract CToken",
          "name": "cToken",
          "type": "address"
        },
        {
          "internalType": "bool",
          "name": "state",
          "type": "bool"
        }
      ],
      "name": "_setBorrowPaused",
      "outputs": [
        {
          "internalType": "bool",
          "name": "",
          "type": "bool"
        }
      ],
      "stateMutability": "nonpayable",
      "type": "function"
    },
    {
      "inputs": [
        {
          "internalType": "uint256",
          "name": "newCloseFactorMantissa",
          "type": "uint256"
        }
      ],
      "name": "_setCloseFactor",
      "outputs": [
        {
          "internalType": "uint256",
          "name": "",
          "type": "uint256"
        }
      ],
      "stateMutability": "nonpayable",
      "type": "function"
    },
    {
      "inputs": [
        {
          "internalType": "contract CToken",
          "name": "cToken",
          "type": "address"
        },
        {
          "internalType": "uint256",
          "name": "newCollateralFactorMantissa",
          "type": "uint256"
        }
      ],
      "name": "_setCollateralFactor",
      "outputs": [
        {
          "internalType": "uint256",
          "name": "",
          "type": "uint256"
        }
      ],
      "stateMutability": "nonpayable",
      "type": "function"
    },
    {
      "inputs": [
        {
          "internalType": "uint256",
          "name": "compRate_",
          "type": "uint256"
        }
      ],
      "name": "_setCompRate",
      "outputs": [],
      "stateMutability": "nonpayable",
      "type": "function"
    },
    {
      "inputs": [
        {
          "internalType": "uint256",
          "name": "newLiquidationIncentiveMantissa",
          "type": "uint256"
        }
      ],
      "name": "_setLiquidationIncentive",
      "outputs": [
        {
          "internalType": "uint256",
          "name": "",
          "type": "uint256"
        }
      ],
      "stateMutability": "nonpayable",
      "type": "function"
    },
    {
      "inputs": [
        {
          "internalType": "contract CToken[]",
          "name": "cTokens",
          "type": "address[]"
        },
        {
          "internalType": "uint256[]",
          "name": "newBorrowCaps",
          "type": "uint256[]"
        }
      ],
      "name": "_setMarketBorrowCaps",
      "outputs": [],
      "stateMutability": "nonpayable",
      "type": "function"
    },
    {
      "inputs": [
        {
          "internalType": "contract CToken",
          "name": "cToken",
          "type": "address"
        },
        {
          "internalType": "bool",
          "name": "state",
          "type": "bool"
        }
      ],
      "name": "_setMintPaused",
      "outputs": [
        {
          "internalType": "bool",
          "name": "",
          "type": "bool"
        }
      ],
      "stateMutability": "nonpayable",
      "type": "function"
    },
    {
      "inputs": [
        {
          "internalType": "address",
          "name": "newPauseGuardian",
          "type": "address"
        }
      ],
      "name": "_setPauseGuardian",
      "outputs": [
        {
          "internalType": "uint256",
          "name": "",
          "type": "uint256"
        }
      ],
      "stateMutability": "nonpayable",
      "type": "function"
    },
    {
      "inputs": [
        {
          "internalType": "contract PriceOracle",
          "name": "newOracle",
          "type": "address"
        }
      ],
      "name": "_setPriceOracle",
      "outputs": [
        {
          "internalType": "uint256",
          "name": "",
          "type": "uint256"
        }
      ],
      "stateMutability": "nonpayable",
      "type": "function"
    },
    {
      "inputs": [
        {
          "internalType": "bool",
          "name": "state",
          "type": "bool"
        }
      ],
      "name": "_setSeizePaused",
      "outputs": [
        {
          "internalType": "bool",
          "name": "",
          "type": "bool"
        }
      ],
      "stateMutability": "nonpayable",
      "type": "function"
    },
    {
      "inputs": [
        {
          "internalType": "bool",
          "name": "state",
          "type": "bool"
        }
      ],
      "name": "_setTransferPaused",
      "outputs": [
        {
          "internalType": "bool",
          "name": "",
          "type": "bool"
        }
      ],
      "stateMutability": "nonpayable",
      "type": "function"
    },
    {
      "inputs": [
        {
          "internalType": "contract CToken",
          "name": "cToken",
          "type": "address"
        }
      ],
      "name": "_supportMarket",
      "outputs": [
        {
          "internalType": "uint256",
          "name": "",
          "type": "uint256"
        }
      ],
      "stateMutability": "nonpayable",
      "type": "function"
    },
    {
      "inputs": [
        {
          "internalType": "address",
          "name": "",
          "type": "address"
        },
        {
          "internalType": "uint256",
          "name": "",
          "type": "uint256"
        }
      ],
      "name": "accountAssets",
      "outputs": [
        {
          "internalType": "contract CToken",
          "name": "",
          "type": "address"
        }
      ],
      "stateMutability": "view",
      "type": "function"
    },
    {
      "inputs": [],
      "name": "admin",
      "outputs": [
        {
          "internalType": "address",
          "name": "",
          "type": "address"
        }
      ],
      "stateMutability": "view",
      "type": "function"
    },
    {
      "inputs": [
        {
          "internalType": "uint256",
          "name": "",
          "type": "uint256"
        }
      ],
      "name": "allMarkets",
      "outputs": [
        {
          "internalType": "contract CToken",
          "name": "",
          "type": "address"
        }
      ],
      "stateMutability": "view",
      "type": "function"
    },
    {
      "inputs": [
        {
          "internalType": "address",
          "name": "cToken",
          "type": "address"
        },
        {
          "internalType": "address",
          "name": "borrower",
          "type": "address"
        },
        {
          "internalType": "uint256",
          "name": "borrowAmount",
          "type": "uint256"
        }
      ],
      "name": "borrowAllowed",
      "outputs": [
        {
          "internalType": "uint256",
          "name": "",
          "type": "uint256"
        }
      ],
      "stateMutability": "nonpayable",
      "type": "function"
    },
    {
      "inputs": [],
      "name": "borrowCapGuardian",
      "outputs": [
        {
          "internalType": "address",
          "name": "",
          "type": "address"
        }
      ],
      "stateMutability": "view",
      "type": "function"
    },
    {
      "inputs": [
        {
          "internalType": "address",
          "name": "",
          "type": "address"
        }
      ],
      "name": "borrowCaps",
      "outputs": [
        {
          "internalType": "uint256",
          "name": "",
          "type": "uint256"
        }
      ],
      "stateMutability": "view",
      "type": "function"
    },
    {
      "inputs": [
        {
          "internalType": "address",
          "name": "",
          "type": "address"
        }
      ],
      "name": "borrowGuardianPaused",
      "outputs": [
        {
          "internalType": "bool",
          "name": "",
          "type": "bool"
        }
      ],
      "stateMutability": "view",
      "type": "function"
    },
    {
      "inputs": [
        {
          "internalType": "address",
          "name": "cToken",
          "type": "address"
        },
        {
          "internalType": "address",
          "name": "borrower",
          "type": "address"
        },
        {
          "internalType": "uint256",
          "name": "borrowAmount",
          "type": "uint256"
        }
      ],
      "name": "borrowVerify",
      "outputs": [],
      "stateMutability": "nonpayable",
      "type": "function"
    },
    {
      "inputs": [
        {
          "internalType": "address",
          "name": "account",
          "type": "address"
        },
        {
          "internalType": "contract CToken",
          "name": "cToken",
          "type": "address"
        }
      ],
      "name": "checkMembership",
      "outputs": [
        {
          "internalType": "bool",
          "name": "",
          "type": "bool"
        }
      ],
      "stateMutability": "view",
      "type": "function"
    },
    {
      "inputs": [
        {
          "internalType": "address",
          "name": "holder",
          "type": "address"
        },
        {
          "internalType": "contract CToken[]",
          "name": "cTokens",
          "type": "address[]"
        }
      ],
      "name": "claimComp",
      "outputs": [],
      "stateMutability": "nonpayable",
      "type": "function"
    },
    {
      "inputs": [
        {
          "internalType": "address[]",
          "name": "holders",
          "type": "address[]"
        },
        {
          "internalType": "contract CToken[]",
          "name": "cTokens",
          "type": "address[]"
        },
        {
          "internalType": "bool",
          "name": "borrowers",
          "type": "bool"
        },
        {
          "internalType": "bool",
          "name": "suppliers",
          "type": "bool"
        }
      ],
      "name": "claimComp",
      "outputs": [],
      "stateMutability": "nonpayable",
      "type": "function"
    },
    {
      "inputs": [
        {
          "internalType": "address",
          "name": "holder",
          "type": "address"
        }
      ],
      "name": "claimComp",
      "outputs": [],
      "stateMutability": "nonpayable",
      "type": "function"
    },
    {
      "inputs": [],
      "name": "closeFactorMantissa",
      "outputs": [
        {
          "internalType": "uint256",
          "name": "",
          "type": "uint256"
        }
      ],
      "stateMutability": "view",
      "type": "function"
    },
    {
      "inputs": [
        {
          "internalType": "address",
          "name": "",
          "type": "address"
        }
      ],
      "name": "compAccrued",
      "outputs": [
        {
          "internalType": "uint256",
          "name": "",
          "type": "uint256"
        }
      ],
      "stateMutability": "view",
      "type": "function"
    },
    {
      "inputs": [
        {
          "internalType": "address",
          "name": "",
          "type": "address"
        }
      ],
      "name": "compBorrowState",
      "outputs": [
        {
          "internalType": "uint224",
          "name": "index",
          "type": "uint224"
        },
        {
          "internalType": "uint32",
          "name": "block",
          "type": "uint32"
        }
      ],
      "stateMutability": "view",
      "type": "function"
    },
    {
      "inputs": [
        {
          "internalType": "address",
          "name": "",
          "type": "address"
        },
        {
          "internalType": "address",
          "name": "",
          "type": "address"
        }
      ],
      "name": "compBorrowerIndex",
      "outputs": [
        {
          "internalType": "uint256",
          "name": "",
          "type": "uint256"
        }
      ],
      "stateMutability": "view",
      "type": "function"
    },
    {
      "inputs": [],
      "name": "compClaimThreshold",
      "outputs": [
        {
          "internalType": "uint256",
          "name": "",
          "type": "uint256"
        }
      ],
      "stateMutability": "view",
      "type": "function"
    },
    {
      "inputs": [],
      "name": "compInitialIndex",
      "outputs": [
        {
          "internalType": "uint224",
          "name": "",
          "type": "uint224"
        }
      ],
      "stateMutability": "view",
      "type": "function"
    },
    {
      "inputs": [],
      "name": "compRate",
      "outputs": [
        {
          "internalType": "uint256",
          "name": "",
          "type": "uint256"
        }
      ],
      "stateMutability": "view",
      "type": "function"
    },
    {
      "inputs": [
        {
          "internalType": "address",
          "name": "",
          "type": "address"
        }
      ],
      "name": "compSpeeds",
      "outputs": [
        {
          "internalType": "uint256",
          "name": "",
          "type": "uint256"
        }
      ],
      "stateMutability": "view",
      "type": "function"
    },
    {
      "inputs": [
        {
          "internalType": "address",
          "name": "",
          "type": "address"
        },
        {
          "internalType": "address",
          "name": "",
          "type": "address"
        }
      ],
      "name": "compSupplierIndex",
      "outputs": [
        {
          "internalType": "uint256",
          "name": "",
          "type": "uint256"
        }
      ],
      "stateMutability": "view",
      "type": "function"
    },
    {
      "inputs": [
        {
          "internalType": "address",
          "name": "",
          "type": "address"
        }
      ],
      "name": "compSupplyState",
      "outputs": [
        {
          "internalType": "uint224",
          "name": "index",
          "type": "uint224"
        },
        {
          "internalType": "uint32",
          "name": "block",
          "type": "uint32"
        }
      ],
      "stateMutability": "view",
      "type": "function"
    },
    {
      "inputs": [],
      "name": "comptrollerImplementation",
      "outputs": [
        {
          "internalType": "address",
          "name": "",
          "type": "address"
        }
      ],
      "stateMutability": "view",
      "type": "function"
    },
    {
      "inputs": [
        {
          "internalType": "address[]",
          "name": "cTokens",
          "type": "address[]"
        }
      ],
      "name": "enterMarkets",
      "outputs": [
        {
          "internalType": "uint256[]",
          "name": "",
          "type": "uint256[]"
        }
      ],
      "stateMutability": "nonpayable",
      "type": "function"
    },
    {
      "inputs": [
        {
          "internalType": "address",
          "name": "cTokenAddress",
          "type": "address"
        }
      ],
      "name": "exitMarket",
      "outputs": [
        {
          "internalType": "uint256",
          "name": "",
          "type": "uint256"
        }
      ],
      "stateMutability": "nonpayable",
      "type": "function"
    },
    {
      "inputs": [
        {
          "internalType": "address",
          "name": "account",
          "type": "address"
        }
      ],
      "name": "getAccountLiquidity",
      "outputs": [
        {
          "internalType": "uint256",
          "name": "",
          "type": "uint256"
        },
        {
          "internalType": "uint256",
          "name": "",
          "type": "uint256"
        },
        {
          "internalType": "uint256",
          "name": "",
          "type": "uint256"
        }
      ],
      "stateMutability": "view",
      "type": "function"
    },
    {
      "inputs": [],
      "name": "getAllMarkets",
      "outputs": [
        {
          "internalType": "contract CToken[]",
          "name": "",
          "type": "address[]"
        }
      ],
      "stateMutability": "view",
      "type": "function"
    },
    {
      "inputs": [
        {
          "internalType": "address",
          "name": "account",
          "type": "address"
        }
      ],
      "name": "getAssetsIn",
      "outputs": [
        {
          "internalType": "contract CToken[]",
          "name": "",
          "type": "address[]"
        }
      ],
      "stateMutability": "view",
      "type": "function"
    },
    {
      "inputs": [],
      "name": "getBlockNumber",
      "outputs": [
        {
          "internalType": "uint256",
          "name": "",
          "type": "uint256"
        }
      ],
      "stateMutability": "view",
      "type": "function"
    },
    {
      "inputs": [],
      "name": "getCompAddress",
      "outputs": [
        {
          "internalType": "address",
          "name": "",
          "type": "address"
        }
      ],
      "stateMutability": "pure",
      "type": "function"
    },
    {
      "inputs": [
        {
          "internalType": "address",
          "name": "account",
          "type": "address"
        },
        {
          "internalType": "address",
          "name": "cTokenModify",
          "type": "address"
        },
        {
          "internalType": "uint256",
          "name": "redeemTokens",
          "type": "uint256"
        },
        {
          "internalType": "uint256",
          "name": "borrowAmount",
          "type": "uint256"
        }
      ],
      "name": "getHypotheticalAccountLiquidity",
      "outputs": [
        {
          "internalType": "uint256",
          "name": "",
          "type": "uint256"
        },
        {
          "internalType": "uint256",
          "name": "",
          "type": "uint256"
        },
        {
          "internalType": "uint256",
          "name": "",
          "type": "uint256"
        }
      ],
      "stateMutability": "view",
      "type": "function"
    },
    {
      "inputs": [],
      "name": "isComptroller",
      "outputs": [
        {
          "internalType": "bool",
          "name": "",
          "type": "bool"
        }
      ],
      "stateMutability": "view",
      "type": "function"
    },
    {
      "inputs": [
        {
          "internalType": "address",
          "name": "cTokenBorrowed",
          "type": "address"
        },
        {
          "internalType": "address",
          "name": "cTokenCollateral",
          "type": "address"
        },
        {
          "internalType": "address",
          "name": "liquidator",
          "type": "address"
        },
        {
          "internalType": "address",
          "name": "borrower",
          "type": "address"
        },
        {
          "internalType": "uint256",
          "name": "repayAmount",
          "type": "uint256"
        }
      ],
      "name": "liquidateBorrowAllowed",
      "outputs": [
        {
          "internalType": "uint256",
          "name": "",
          "type": "uint256"
        }
      ],
      "stateMutability": "view",
      "type": "function"
    },
    {
      "inputs": [
        {
          "internalType": "address",
          "name": "cTokenBorrowed",
          "type": "address"
        },
        {
          "internalType": "address",
          "name": "cTokenCollateral",
          "type": "address"
        },
        {
          "internalType": "address",
          "name": "liquidator",
          "type": "address"
        },
        {
          "internalType": "address",
          "name": "borrower",
          "type": "address"
        },
        {
          "internalType": "uint256",
          "name": "actualRepayAmount",
          "type": "uint256"
        },
        {
          "internalType": "uint256",
          "name": "seizeTokens",
          "type": "uint256"
        }
      ],
      "name": "liquidateBorrowVerify",
      "outputs": [],
      "stateMutability": "nonpayable",
      "type": "function"
    },
    {
      "inputs": [
        {
          "internalType": "address",
          "name": "cTokenBorrowed",
          "type": "address"
        },
        {
          "internalType": "address",
          "name": "cTokenCollateral",
          "type": "address"
        },
        {
          "internalType": "uint256",
          "name": "actualRepayAmount",
          "type": "uint256"
        }
      ],
      "name": "liquidateCalculateSeizeTokens",
      "outputs": [
        {
          "internalType": "uint256",
          "name": "",
          "type": "uint256"
        },
        {
          "internalType": "uint256",
          "name": "",
          "type": "uint256"
        }
      ],
      "stateMutability": "view",
      "type": "function"
    },
    {
      "inputs": [],
      "name": "liquidationIncentiveMantissa",
      "outputs": [
        {
          "internalType": "uint256",
          "name": "",
          "type": "uint256"
        }
      ],
      "stateMutability": "view",
      "type": "function"
    },
    {
      "inputs": [
        {
          "internalType": "address",
          "name": "",
          "type": "address"
        }
      ],
      "name": "markets",
      "outputs": [
        {
          "internalType": "bool",
          "name": "isListed",
          "type": "bool"
        },
        {
          "internalType": "uint256",
          "name": "collateralFactorMantissa",
          "type": "uint256"
        },
        {
          "internalType": "bool",
          "name": "isComped",
          "type": "bool"
        }
      ],
      "stateMutability": "view",
      "type": "function"
    },
    {
      "inputs": [],
      "name": "maxAssets",
      "outputs": [
        {
          "internalType": "uint256",
          "name": "",
          "type": "uint256"
        }
      ],
      "stateMutability": "view",
      "type": "function"
    },
    {
      "inputs": [
        {
          "internalType": "address",
          "name": "cToken",
          "type": "address"
        },
        {
          "internalType": "address",
          "name": "minter",
          "type": "address"
        },
        {
          "internalType": "uint256",
          "name": "mintAmount",
          "type": "uint256"
        }
      ],
      "name": "mintAllowed",
      "outputs": [
        {
          "internalType": "uint256",
          "name": "",
          "type": "uint256"
        }
      ],
      "stateMutability": "nonpayable",
      "type": "function"
    },
    {
      "inputs": [
        {
          "internalType": "address",
          "name": "",
          "type": "address"
        }
      ],
      "name": "mintGuardianPaused",
      "outputs": [
        {
          "internalType": "bool",
          "name": "",
          "type": "bool"
        }
      ],
      "stateMutability": "view",
      "type": "function"
    },
    {
      "inputs": [
        {
          "internalType": "address",
          "name": "cToken",
          "type": "address"
        },
        {
          "internalType": "address",
          "name": "minter",
          "type": "address"
        },
        {
          "internalType": "uint256",
          "name": "actualMintAmount",
          "type": "uint256"
        },
        {
          "internalType": "uint256",
          "name": "mintTokens",
          "type": "uint256"
        }
      ],
      "name": "mintVerify",
      "outputs": [],
      "stateMutability": "nonpayable",
      "type": "function"
    },
    {
      "inputs": [],
      "name": "oracle",
      "outputs": [
        {
          "internalType": "contract PriceOracle",
          "name": "",
          "type": "address"
        }
      ],
      "stateMutability": "view",
      "type": "function"
    },
    {
      "inputs": [],
      "name": "pauseGuardian",
      "outputs": [
        {
          "internalType": "address",
          "name": "",
          "type": "address"
        }
      ],
      "stateMutability": "view",
      "type": "function"
    },
    {
      "inputs": [],
      "name": "pendingAdmin",
      "outputs": [
        {
          "internalType": "address",
          "name": "",
          "type": "address"
        }
      ],
      "stateMutability": "view",
      "type": "function"
    },
    {
      "inputs": [],
      "name": "pendingComptrollerImplementation",
      "outputs": [
        {
          "internalType": "address",
          "name": "",
          "type": "address"
        }
      ],
      "stateMutability": "view",
      "type": "function"
    },
    {
      "inputs": [
        {
          "internalType": "address",
          "name": "cToken",
          "type": "address"
        },
        {
          "internalType": "address",
          "name": "redeemer",
          "type": "address"
        },
        {
          "internalType": "uint256",
          "name": "redeemTokens",
          "type": "uint256"
        }
      ],
      "name": "redeemAllowed",
      "outputs": [
        {
          "internalType": "uint256",
          "name": "",
          "type": "uint256"
        }
      ],
      "stateMutability": "nonpayable",
      "type": "function"
    },
    {
      "inputs": [
        {
          "internalType": "address",
          "name": "cToken",
          "type": "address"
        },
        {
          "internalType": "address",
          "name": "redeemer",
          "type": "address"
        },
        {
          "internalType": "uint256",
          "name": "redeemAmount",
          "type": "uint256"
        },
        {
          "internalType": "uint256",
          "name": "redeemTokens",
          "type": "uint256"
        }
      ],
      "name": "redeemVerify",
      "outputs": [],
      "stateMutability": "pure",
      "type": "function"
    },
    {
      "inputs": [],
      "name": "refreshCompSpeeds",
      "outputs": [],
      "stateMutability": "nonpayable",
      "type": "function"
    },
    {
      "inputs": [
        {
          "internalType": "address",
          "name": "cToken",
          "type": "address"
        },
        {
          "internalType": "address",
          "name": "payer",
          "type": "address"
        },
        {
          "internalType": "address",
          "name": "borrower",
          "type": "address"
        },
        {
          "internalType": "uint256",
          "name": "repayAmount",
          "type": "uint256"
        }
      ],
      "name": "repayBorrowAllowed",
      "outputs": [
        {
          "internalType": "uint256",
          "name": "",
          "type": "uint256"
        }
      ],
      "stateMutability": "nonpayable",
      "type": "function"
    },
    {
      "inputs": [
        {
          "internalType": "address",
          "name": "cToken",
          "type": "address"
        },
        {
          "internalType": "address",
          "name": "payer",
          "type": "address"
        },
        {
          "internalType": "address",
          "name": "borrower",
          "type": "address"
        },
        {
          "internalType": "uint256",
          "name": "actualRepayAmount",
          "type": "uint256"
        },
        {
          "internalType": "uint256",
          "name": "borrowerIndex",
          "type": "uint256"
        }
      ],
      "name": "repayBorrowVerify",
      "outputs": [],
      "stateMutability": "nonpayable",
      "type": "function"
    },
    {
      "inputs": [
        {
          "internalType": "address",
          "name": "cTokenCollateral",
          "type": "address"
        },
        {
          "internalType": "address",
          "name": "cTokenBorrowed",
          "type": "address"
        },
        {
          "internalType": "address",
          "name": "liquidator",
          "type": "address"
        },
        {
          "internalType": "address",
          "name": "borrower",
          "type": "address"
        },
        {
          "internalType": "uint256",
          "name": "seizeTokens",
          "type": "uint256"
        }
      ],
      "name": "seizeAllowed",
      "outputs": [
        {
          "internalType": "uint256",
          "name": "",
          "type": "uint256"
        }
      ],
      "stateMutability": "nonpayable",
      "type": "function"
    },
    {
      "inputs": [],
      "name": "seizeGuardianPaused",
      "outputs": [
        {
          "internalType": "bool",
          "name": "",
          "type": "bool"
        }
      ],
      "stateMutability": "view",
      "type": "function"
    },
    {
      "inputs": [
        {
          "internalType": "address",
          "name": "cTokenCollateral",
          "type": "address"
        },
        {
          "internalType": "address",
          "name": "cTokenBorrowed",
          "type": "address"
        },
        {
          "internalType": "address",
          "name": "liquidator",
          "type": "address"
        },
        {
          "internalType": "address",
          "name": "borrower",
          "type": "address"
        },
        {
          "internalType": "uint256",
          "name": "seizeTokens",
          "type": "uint256"
        }
      ],
      "name": "seizeVerify",
      "outputs": [],
      "stateMutability": "nonpayable",
      "type": "function"
    },
    {
      "inputs": [
        {
          "internalType": "address",
          "name": "cToken",
          "type": "address"
        },
        {
          "internalType": "address",
          "name": "src",
          "type": "address"
        },
        {
          "internalType": "address",
          "name": "dst",
          "type": "address"
        },
        {
          "internalType": "uint256",
          "name": "transferTokens",
          "type": "uint256"
        }
      ],
      "name": "transferAllowed",
      "outputs": [
        {
          "internalType": "uint256",
          "name": "",
          "type": "uint256"
        }
      ],
      "stateMutability": "nonpayable",
      "type": "function"
    },
    {
      "inputs": [],
      "name": "transferGuardianPaused",
      "outputs": [
        {
          "internalType": "bool",
          "name": "",
          "type": "bool"
        }
      ],
      "stateMutability": "view",
      "type": "function"
    },
    {
      "inputs": [
        {
          "internalType": "address",
          "name": "cToken",
          "type": "address"
        },
        {
          "internalType": "address",
          "name": "src",
          "type": "address"
        },
        {
          "internalType": "address",
          "name": "dst",
          "type": "address"
        },
        {
          "internalType": "uint256",
          "name": "transferTokens",
          "type": "uint256"
        }
      ],
      "name": "transferVerify",
      "outputs": [],
      "stateMutability": "nonpayable",
      "type": "function"
    }
  ],
  "transactionHash": "0xdc5bd38ce50b91137ac74f0ad091e631904f61b38fb2ec3131a92cf674aded96",
  "args": [],
  "solcInputHash": "087d4cb688a1e1d02c763275192bd9d0",
  "bytecode": "0x608060405234801561001057600080fd5b50600080546001600160a01b03191633179055615cff80620000336000396000f3fe608060405234801561001057600080fd5b50600436106104f85760003560e01c80636b79c38d116102a1578063b21be7fd1161016b578063da3d454c116100e3578063e875544611610097578063eabe7d911161007c578063eabe7d9114611303578063ede4edd014611339578063f851a4401461135f576104f8565b8063e8755446146112d5578063e9af0292146112dd576104f8565b8063dcfbc0c7116100c8578063dcfbc0c714611299578063e4028eee146112a1578063e6653f3d146112cd576104f8565b8063da3d454c14611237578063dce154491461126d576104f8565b8063c488847b1161013a578063cc7ebdc41161011f578063cc7ebdc414611128578063ce485c5e1461114e578063d02f7351146111f1576104f8565b8063c488847b146110ab578063ca0af043146110fa576104f8565b8063b21be7fd14610f96578063bb82aa5e14610fc4578063bdcdc25814610fcc578063c299823814611008576104f8565b80638ebf636411610219578063a7f0e231116101cd578063abfceffc116101b2578063abfceffc14610f10578063ac0b0bb714610f86578063b0772d0b14610f8e576104f8565b8063a7f0e23114610ee4578063aa90075414610f08576104f8565b806394b2294b116101fe57806394b2294b14610eae5780639d1b5a0a14610eb6578063a76b3fda14610ebe576104f8565b80638ebf636414610e61578063929fe9a114610e80576104f8565b8063747026c91161027057806387f763031161025557806387f7630314610deb5780638c57804e14610df35780638e8f294b14610e19576104f8565b8063747026c914610ddb5780637dc0d1d014610de3576104f8565b80636b79c38d14610cfb5780636d154ea514610d495780636d35bf9114610d6f578063731f0c2b14610db5576104f8565b806342cbb15c116103e257806352d84d1e1161035a5780635fc7e71e1161030e5780636810dfa6116102f35780636810dfa614610b725780636a49111214610ca25780636a56947e14610cbf576104f8565b80635fc7e71e14610a6a578063607ef6c114610ab0576104f8565b80635c7786051161033f5780635c778605146109e85780635ec88c7914610a1e5780635f5af1aa14610a44576104f8565b806352d84d1e146109a557806355ee1fe1146109c2576104f8565b80634d8e5037116103b15780634ef4c3e1116103965780634ef4c3e1146109165780634fd42e171461094c57806351dff98914610969576104f8565b80634d8e5037146108b45780634e79238f146108bc576104f8565b806342cbb15c1461083257806347ef3b3b1461083a5780634a584432146108865780634ada90af146108ac576104f8565b80632678224711610475578063391957d7116104445780633bcf7ec1116104295780633bcf7ec1146107c05780633c94786f146107ee57806341c728b9146107f6576104f8565b8063391957d7146107745780633aa729b41461079a576104f8565b8063267822471461070457806327efe3cb1461070c5780632d70db7814610738578063317b0b7714610757576104f8565b80631d7b33d7116104cc57806321af4569116104b157806321af45691461069c57806324008a62146106c057806324a3d622146106fc576104f8565b80631d7b33d7146106225780631ededc911461065a576104f8565b80627e3dd2146104fd57806318c882a5146105195780631c3db2e0146105475780631d504dc6146105fc575b600080fd5b610505611367565b604080519115158252519081900360200190f35b6105056004803603604081101561052f57600080fd5b506001600160a01b038135169060200135151561136c565b6105fa6004803603604081101561055d57600080fd5b6001600160a01b03823516919081019060408101602082013564010000000081111561058857600080fd5b82018360208201111561059a57600080fd5b803590602001918460208302840111640100000000831117156105bc57600080fd5b91908080602002602001604051908101604052809392919081815260200183836020028082843760009201919091525092955061152a945050505050565b005b6105fa6004803603602081101561061257600080fd5b50356001600160a01b031661158c565b6106486004803603602081101561063857600080fd5b50356001600160a01b03166116f3565b60408051918252519081900360200190f35b6105fa600480360360a081101561067057600080fd5b506001600160a01b03813581169160208101358216916040820135169060608101359060800135611705565b6106a461170c565b604080516001600160a01b039092168252519081900360200190f35b610648600480360360808110156106d657600080fd5b506001600160a01b0381358116916020810135821691604082013516906060013561171b565b6106a46117de565b6106a46117ed565b6105fa6004803603604081101561072257600080fd5b506001600160a01b0381351690602001356117fc565b6105056004803603602081101561074e57600080fd5b503515156118ff565b6106486004803603602081101561076d57600080fd5b5035611a73565b6105fa6004803603602081101561078a57600080fd5b50356001600160a01b0316611b20565b6105fa600480360360208110156107b057600080fd5b50356001600160a01b0316611bcc565b610505600480360360408110156107d657600080fd5b506001600160a01b0381351690602001351515611cfd565b610505611eb8565b6105fa6004803603608081101561080c57600080fd5b506001600160a01b03813581169160208101359091169060408101359060600135611ed9565b610648611edf565b6105fa600480360360c081101561085057600080fd5b506001600160a01b0381358116916020810135821691604082013581169160608101359091169060808101359060a00135611ee3565b6106486004803603602081101561089c57600080fd5b50356001600160a01b0316611eeb565b610648611efd565b6105fa611f03565b6108f8600480360360808110156108d257600080fd5b506001600160a01b03813581169160208101359091169060408101359060600135611f4b565b60408051938452602084019290925282820152519081900360600190f35b6106486004803603606081101561092c57600080fd5b506001600160a01b03813581169160208101359091169060400135611f85565b6106486004803603602081101561096257600080fd5b503561203c565b6105fa6004803603608081101561097f57600080fd5b506001600160a01b038135811691602081013590911690604081013590606001356120ac565b6106a4600480360360208110156109bb57600080fd5b503561210c565b610648600480360360208110156109d857600080fd5b50356001600160a01b0316612136565b6105fa600480360360608110156109fe57600080fd5b506001600160a01b038135811691602081013590911690604001356121bb565b6108f860048036036020811015610a3457600080fd5b50356001600160a01b03166121c0565b61064860048036036020811015610a5a57600080fd5b50356001600160a01b03166121f5565b610648600480360360a0811015610a8057600080fd5b506001600160a01b0381358116916020810135821691604082013581169160608101359091169060800135612279565b6105fa60048036036040811015610ac657600080fd5b810190602081018135640100000000811115610ae157600080fd5b820183602082011115610af357600080fd5b80359060200191846020830284011164010000000083111715610b1557600080fd5b919390929091602081019035640100000000811115610b3357600080fd5b820183602082011115610b4557600080fd5b80359060200191846020830284011164010000000083111715610b6757600080fd5b5090925090506123d5565b6105fa60048036036080811015610b8857600080fd5b810190602081018135640100000000811115610ba357600080fd5b820183602082011115610bb557600080fd5b80359060200191846020830284011164010000000083111715610bd757600080fd5b9190808060200260200160405190810160405280939291908181526020018383602002808284376000920191909152509295949360208101935035915050640100000000811115610c2757600080fd5b820183602082011115610c3957600080fd5b80359060200191846020830284011164010000000083111715610c5b57600080fd5b919080806020026020016040519081016040528093929190818152602001838360200280828437600092019190915250929550505050803515159150602001351515612575565b6105fa60048036036020811015610cb857600080fd5b5035612720565b6105fa60048036036080811015610cd557600080fd5b506001600160a01b03813581169160208101358216916040820135169060600135611ed9565b610d2160048036036020811015610d1157600080fd5b50356001600160a01b03166127c4565b604080516001600160e01b03909316835263ffffffff90911660208301528051918290030190f35b61050560048036036020811015610d5f57600080fd5b50356001600160a01b03166127ee565b6105fa600480360360a0811015610d8557600080fd5b506001600160a01b0381358116916020810135821691604082013581169160608101359091169060800135611705565b61050560048036036020811015610dcb57600080fd5b50356001600160a01b0316612803565b610648612818565b6106a4612823565b610505612832565b610d2160048036036020811015610e0957600080fd5b50356001600160a01b0316612842565b610e3f60048036036020811015610e2f57600080fd5b50356001600160a01b031661286c565b6040805193151584526020840192909252151582820152519081900360600190f35b61050560048036036020811015610e7757600080fd5b50351515612892565b61050560048036036040811015610e9657600080fd5b506001600160a01b0381358116916020013516612a02565b610648612a35565b6106a4612a3b565b61064860048036036020811015610ed457600080fd5b50356001600160a01b0316612a53565b610eec612b88565b604080516001600160e01b039092168252519081900360200190f35b610648612b9b565b610f3660048036036020811015610f2657600080fd5b50356001600160a01b0316612ba1565b60408051602080825283518183015283519192839290830191858101910280838360005b83811015610f72578181015183820152602001610f5a565b505050509050019250505060405180910390f35b610505612c17565b610f36612c27565b61064860048036036040811015610fac57600080fd5b506001600160a01b0381358116916020013516612c89565b6106a4612ca6565b61064860048036036080811015610fe257600080fd5b506001600160a01b03813581169160208101358216916040820135169060600135612cb5565b610f366004803603602081101561101e57600080fd5b81019060208101813564010000000081111561103957600080fd5b82018360208201111561104b57600080fd5b8035906020019184602083028401116401000000008311171561106d57600080fd5b919080806020026020016040519081016040528093929190818152602001838360200280828437600092019190915250929550612d54945050505050565b6110e1600480360360608110156110c157600080fd5b506001600160a01b03813581169160208101359091169060400135612dff565b6040805192835260208301919091528051918290030190f35b6106486004803603604081101561111057600080fd5b506001600160a01b0381358116916020013516613037565b6106486004803603602081101561113e57600080fd5b50356001600160a01b0316613054565b6105fa6004803603602081101561116457600080fd5b81019060208101813564010000000081111561117f57600080fd5b82018360208201111561119157600080fd5b803590602001918460208302840111640100000000831117156111b357600080fd5b919080806020026020016040519081016040528093929190818152602001838360200280828437600092019190915250929550613066945050505050565b610648600480360360a081101561120757600080fd5b506001600160a01b03813581169160208101358216916040820135811691606081013590911690608001356130f8565b6106486004803603606081101561124d57600080fd5b506001600160a01b038135811691602081013590911690604001356132d7565b6106a46004803603604081101561128357600080fd5b506001600160a01b0381351690602001356136d3565b6106a461370b565b610648600480360360408110156112b757600080fd5b506001600160a01b03813516906020013561371a565b6105056138c7565b6106486138e9565b6105fa600480360360208110156112f357600080fd5b50356001600160a01b03166138ef565b6106486004803603606081101561131957600080fd5b506001600160a01b03813581169160208101359091169060400135613953565b6106486004803603602081101561134f57600080fd5b50356001600160a01b0316613990565b6106a4613cc0565b600181565b6001600160a01b03821660009081526009602052604081205460ff166113c35760405162461bcd60e51b8152600401808060200182810382526028815260200180615ba36028913960400191505060405180910390fd5b600a546001600160a01b03163314806113e657506000546001600160a01b031633145b6114215760405162461bcd60e51b8152600401808060200182810382526027815260200180615bfc6027913960400191505060405180910390fd5b6000546001600160a01b031633148061143c57506001821515145b61148d576040805162461bcd60e51b815260206004820152601660248201527f6f6e6c792061646d696e2063616e20756e706175736500000000000000000000604482015290519081900360640190fd5b6001600160a01b0383166000818152600c6020908152604091829020805486151560ff19909116811790915582519384528383015260609083018190526006908301527f426f72726f7700000000000000000000000000000000000000000000000000006080830152517f71aec636243f9709bb0007ae15e9afb8150ab01716d75fd7573be5cc096e03b09181900360a00190a150805b92915050565b60408051600180825281830190925260009160208083019080368337019050509050828160008151811061155a57fe5b60200260200101906001600160a01b031690816001600160a01b0316815250506115878183600180612575565b505050565b806001600160a01b031663f851a4406040518163ffffffff1660e01b815260040160206040518083038186803b1580156115c557600080fd5b505afa1580156115d9573d6000803e3d6000fd5b505050506040513d60208110156115ef57600080fd5b50516001600160a01b031633146116375760405162461bcd60e51b8152600401808060200182810382526027815260200180615ca36027913960400191505060405180910390fd5b806001600160a01b031663c1e803346040518163ffffffff1660e01b8152600401602060405180830381600087803b15801561167257600080fd5b505af1158015611686573d6000803e3d6000fd5b505050506040513d602081101561169c57600080fd5b5051156116f0576040805162461bcd60e51b815260206004820152601560248201527f6368616e6765206e6f7420617574686f72697a65640000000000000000000000604482015290519081900360640190fd5b50565b600f6020526000908152604090205481565b5050505050565b6015546001600160a01b031681565b6001600160a01b03841660009081526009602052604081205460ff16611743575060096117d6565b60006040518060200160405280876001600160a01b031663aa5af0fd6040518163ffffffff1660e01b815260040160206040518083038186803b15801561178957600080fd5b505afa15801561179d573d6000803e3d6000fd5b505050506040513d60208110156117b357600080fd5b5051905290506117c38682613ccf565b6117d08685836000613f70565b60009150505b949350505050565b600a546001600160a01b031681565b6001546001600160a01b031681565b61180461412d565b611855576040805162461bcd60e51b815260206004820152601860248201527f6f6e6c792061646d696e2063616e206772616e74204c48420000000000000000604482015290519081900360640190fd5b60006118618383614156565b905080156118b6576040805162461bcd60e51b815260206004820152601a60248201527f696e73756666696369656e74204c484220666f72206772616e74000000000000604482015290519081900360640190fd5b604080516001600160a01b03851681526020810184905281517f98b2f82a3a07f223a0be64b3d0f47711c64dccd1feafb94aa28156b38cd9695c929181900390910190a1505050565b600a546000906001600160a01b031633148061192557506000546001600160a01b031633145b6119605760405162461bcd60e51b8152600401808060200182810382526027815260200180615bfc6027913960400191505060405180910390fd5b6000546001600160a01b031633148061197b57506001821515145b6119cc576040805162461bcd60e51b815260206004820152601660248201527f6f6e6c792061646d696e2063616e20756e706175736500000000000000000000604482015290519081900360640190fd5b600a8054831515600160b81b81027fffffffffffffffff00ffffffffffffffffffffffffffffffffffffffffffffff909216919091179091556040805160208101929092528082526005828201527f5365697a650000000000000000000000000000000000000000000000000000006060830152517fef159d9a32b2472e32b098f954f3ce62d232939f1c207070b584df1814de2de09181900360800190a150805b919050565b600080546001600160a01b03163314611ad3576040805162461bcd60e51b815260206004820152601f60248201527f6f6e6c792061646d696e2063616e2073657420636c6f736520666163746f7200604482015290519081900360640190fd5b6005805490839055604080518281526020810185905281517f3b9670cf975d26958e754b57098eaa2ac914d8d2a31b83257997b9f346110fd9929181900390910190a160005b9392505050565b6000546001600160a01b03163314611b695760405162461bcd60e51b8152600401808060200182810382526026815260200180615c236026913960400191505060405180910390fd5b601580546001600160a01b038381166001600160a01b0319831681179093556040805191909216808252602082019390935281517feda98690e518e9a05f8ec6837663e188211b2da8f4906648b323f2c1d4434e29929181900390910190a15050565b6000546001600160a01b03163314611c2b576040805162461bcd60e51b815260206004820152601e60248201527f6f6e6c792061646d696e2063616e2064726f70204c4842206d61726b65740000604482015290519081900360640190fd5b6001600160a01b0381166000908152600960205260409020600381015460ff161515600114611ca1576040805162461bcd60e51b815260206004820152601a60248201527f6d61726b6574206973206e6f742061204c4842206d61726b6574000000000000604482015290519081900360640190fd5b60038101805460ff19169055604080516001600160a01b03841681526000602082015281517f93c1f3e36ed71139f466a4ce8c9751790e2e33f5afb2df0dcfb3aeabe55d5aa2929181900390910190a1611cf961427f565b5050565b6001600160a01b03821660009081526009602052604081205460ff16611d545760405162461bcd60e51b8152600401808060200182810382526028815260200180615ba36028913960400191505060405180910390fd5b600a546001600160a01b0316331480611d7757506000546001600160a01b031633145b611db25760405162461bcd60e51b8152600401808060200182810382526027815260200180615bfc6027913960400191505060405180910390fd5b6000546001600160a01b0316331480611dcd57506001821515145b611e1e576040805162461bcd60e51b815260206004820152601660248201527f6f6e6c792061646d696e2063616e20756e706175736500000000000000000000604482015290519081900360640190fd5b6001600160a01b0383166000818152600b6020908152604091829020805486151560ff19909116811790915582519384528383015260609083018190526004908301527f4d696e74000000000000000000000000000000000000000000000000000000006080830152517f71aec636243f9709bb0007ae15e9afb8150ab01716d75fd7573be5cc096e03b09181900360a00190a150919050565b600a5474010000000000000000000000000000000000000000900460ff1681565b50505050565b4390565b505050505050565b60166020526000908152604090205481565b60065481565b333214611f415760405162461bcd60e51b8152600401808060200182810382526031815260200180615bcb6031913960400191505060405180910390fd5b611f4961427f565b565b600080600080600080611f608a8a8a8a61465e565b925092509250826011811115611f7257fe5b95509093509150505b9450945094915050565b6001600160a01b0383166000908152600b602052604081205460ff1615611ff3576040805162461bcd60e51b815260206004820152600e60248201527f6d696e7420697320706175736564000000000000000000000000000000000000604482015290519081900360640190fd5b6001600160a01b03841660009081526009602052604090205460ff1661201d5760095b9050611b19565b61202684614988565b61203284846000614c1f565b6000949350505050565b600080546001600160a01b031633146120625761205b6001600b614dea565b9050611a6e565b6006805490839055604080518281526020810185905281517faeba5a6c40a8ac138134bff1aaa65debf25971188a58804bad717f82f0ec1316929181900390910190a16000611b19565b801580156120ba5750600082115b15611ed9576040805162461bcd60e51b815260206004820152601160248201527f72656465656d546f6b656e73207a65726f000000000000000000000000000000604482015290519081900360640190fd5b600d818154811061211c57600080fd5b6000918252602090912001546001600160a01b0316905081565b600080546001600160a01b031633146121555761205b60016010614dea565b600480546001600160a01b038481166001600160a01b0319831681179093556040805191909216808252602082019390935281517fd52b2b9b7e9ee655fcb95d2e5b9e0c9f69e7ef2b8e9d2d0ea78402d576d22e22929181900390910190a16000611b19565b611587565b6000806000806000806121d787600080600061465e565b9250925092508260118111156121e957fe5b97919650945092505050565b600080546001600160a01b031633146122145761205b60016013614dea565b600a80546001600160a01b038481166001600160a01b0319831617928390556040805192821680845293909116602083015280517f0613b6ee6a04f0d09f390e4d9318894b9f6ac7fd83897cd8d18896ba579c401e9281900390910190a16000611b19565b6001600160a01b03851660009081526009602052604081205460ff1615806122ba57506001600160a01b03851660009081526009602052604090205460ff16155b156122c95760095b90506123cc565b6000806122d585614e50565b919350909150600090508260118111156122eb57fe5b14612305578160118111156122fc57fe5b925050506123cc565b806123115760036122fc565b6000886001600160a01b03166395dd9193876040518263ffffffff1660e01b815260040180826001600160a01b0316815260200191505060206040518083038186803b15801561236057600080fd5b505afa158015612374573d6000803e3d6000fd5b505050506040513d602081101561238a57600080fd5b5051604080516020810190915260055481529091506000906123ac9083614e70565b9050808611156123c35760119450505050506123cc565b60009450505050505b95945050505050565b6000546001600160a01b03163314806123f857506015546001600160a01b031633145b6124335760405162461bcd60e51b8152600401808060200182810382526035815260200180615c496035913960400191505060405180910390fd5b8281811580159061244357508082145b612494576040805162461bcd60e51b815260206004820152600d60248201527f696e76616c696420696e70757400000000000000000000000000000000000000604482015290519081900360640190fd5b60005b8281101561256c578484828181106124ab57fe5b90506020020135601660008989858181106124c257fe5b905060200201356001600160a01b03166001600160a01b03166001600160a01b031681526020019081526020016000208190555086868281811061250257fe5b905060200201356001600160a01b03166001600160a01b03167f6f1951b2aad10f3fc81b86d91105b413a5b3f847a34bbc5ce1904201b14438f686868481811061254857fe5b905060200201356040518082815260200191505060405180910390a2600101612497565b50505050505050565b60005b835181101561170557600084828151811061258f57fe5b6020908102919091018101516001600160a01b0381166000908152600990925260409091205490915060ff1661260c576040805162461bcd60e51b815260206004820152601560248201527f6d61726b6574206d757374206265206c69737465640000000000000000000000604482015290519081900360640190fd5b600184151514156126ce5760006040518060200160405280836001600160a01b031663aa5af0fd6040518163ffffffff1660e01b815260040160206040518083038186803b15801561265d57600080fd5b505afa158015612671573d6000803e3d6000fd5b505050506040513d602081101561268757600080fd5b5051905290506126978282613ccf565b60005b87518110156126cb576126c3838983815181106126b357fe5b6020026020010151846001613f70565b60010161269a565b50505b60018315151415612717576126e281614988565b60005b86518110156127155761270d828883815181106126fe57fe5b60200260200101516001614c1f565b6001016126e5565b505b50600101612578565b61272861412d565b612779576040805162461bcd60e51b815260206004820152601e60248201527f6f6e6c792061646d696e2063616e206368616e6765204c484220726174650000604482015290519081900360640190fd5b600e805490829055604080518281526020810184905281517fc227c9272633c3a307d9845bf2bc2509cefb20d655b5f3c1002d8e1e3f22c8b0929181900390910190a1611cf961427f565b6010602052600090815260409020546001600160e01b03811690600160e01b900463ffffffff1682565b600c6020526000908152604090205460ff1681565b600b6020526000908152604090205460ff1681565b66038d7ea4c6800081565b6004546001600160a01b031681565b600a54600160b01b900460ff1681565b6011602052600090815260409020546001600160e01b03811690600160e01b900463ffffffff1682565b60096020526000908152604090208054600182015460039092015460ff91821692911683565b600a546000906001600160a01b03163314806128b857506000546001600160a01b031633145b6128f35760405162461bcd60e51b8152600401808060200182810382526027815260200180615bfc6027913960400191505060405180910390fd5b6000546001600160a01b031633148061290e57506001821515145b61295f576040805162461bcd60e51b815260206004820152601660248201527f6f6e6c792061646d696e2063616e20756e706175736500000000000000000000604482015290519081900360640190fd5b600a8054831515600160b01b81027fffffffffffffffffff00ffffffffffffffffffffffffffffffffffffffffffff909216919091179091556040805160208101929092528082526008828201527f5472616e736665720000000000000000000000000000000000000000000000006060830152517fef159d9a32b2472e32b098f954f3ce62d232939f1c207070b584df1814de2de09181900360800190a15090565b6001600160a01b038082166000908152600960209081526040808320938616835260029093019052205460ff1692915050565b60075481565b738f67854497218043e1f72908ffe38d0ed7f2472190565b600080546001600160a01b03163314612a725761205b60016012614dea565b6001600160a01b03821660009081526009602052604090205460ff1615612a9f5761205b600a6011614dea565b816001600160a01b031663fe9c44ae6040518163ffffffff1660e01b815260040160206040518083038186803b158015612ad857600080fd5b505afa158015612aec573d6000803e3d6000fd5b505050506040513d6020811015612b0257600080fd5b50506001600160a01b03821660009081526009602052604081208054600160ff1991821681178355600383018054909216909155810191909155612b4583614e88565b604080516001600160a01b038516815290517fcf583bb0c569eb967f806b11601c4cb93c10310485c67add5f8362c2f212321f9181900360200190a16000611b19565b6ec097ce7bc90715b34b9f100000000081565b600e5481565b6001600160a01b0381166000908152600860209081526040808320805482518185028101850190935280835260609493830182828015612c0a57602002820191906000526020600020905b81546001600160a01b03168152600190910190602001808311612bec575b5093979650505050505050565b600a54600160b81b900460ff1681565b6060600d805480602002602001604051908101604052809291908181526020018280548015612c7f57602002820191906000526020600020905b81546001600160a01b03168152600190910190602001808311612c61575b5050505050905090565b601260209081526000928352604080842090915290825290205481565b6002546001600160a01b031681565b600a54600090600160b01b900460ff1615612d17576040805162461bcd60e51b815260206004820152601260248201527f7472616e73666572206973207061757365640000000000000000000000000000604482015290519081900360640190fd5b6000612d24868685614f6f565b90508015612d335790506117d6565b612d3c86614988565b612d4886866000614c1f565b6117d086856000614c1f565b805160609060008167ffffffffffffffff81118015612d7257600080fd5b50604051908082528060200260200182016040528015612d9c578160200160208202803683370190505b50905060005b82811015612df7576000858281518110612db857fe5b60200260200101519050612dcc813361501b565b6011811115612dd757fe5b838381518110612de357fe5b602090810291909101015250600101612da2565b509392505050565b6000806000600460009054906101000a90046001600160a01b03166001600160a01b031663fc57d4df876040518263ffffffff1660e01b815260040180826001600160a01b0316815260200191505060206040518083038186803b158015612e6657600080fd5b505afa158015612e7a573d6000803e3d6000fd5b505050506040513d6020811015612e9057600080fd5b5051600480546040805163fc57d4df60e01b81526001600160a01b038a8116948201949094529051939450600093929091169163fc57d4df91602480820192602092909190829003018186803b158015612ee957600080fd5b505afa158015612efd573d6000803e3d6000fd5b505050506040513d6020811015612f1357600080fd5b50519050811580612f22575080155b15612f3657600d600093509350505061302f565b6000866001600160a01b031663182df0f56040518163ffffffff1660e01b815260040160206040518083038186803b158015612f7157600080fd5b505afa158015612f85573d6000803e3d6000fd5b505050506040513d6020811015612f9b57600080fd5b505190506000612fa9615b25565b612fb1615b25565b612fb9615b25565b612fe1604051806020016040528060065481525060405180602001604052808a815250615111565b9250613009604051806020016040528088815250604051806020016040528088815250615111565b91506130158383615150565b9050613021818b614e70565b600099509750505050505050505b935093915050565b601360209081526000928352604080842090915290825290205481565b60146020526000908152604090205481565b61306e61412d565b6130bf576040805162461bcd60e51b815260206004820152601d60248201527f6f6e6c792061646d696e2063616e20616464204c4842206d61726b6574000000604482015290519081900360640190fd5b60005b81518110156130ef576130e78282815181106130da57fe5b602002602001015161518c565b6001016130c2565b506116f061427f565b600a54600090600160b81b900460ff161561315a576040805162461bcd60e51b815260206004820152600f60248201527f7365697a65206973207061757365640000000000000000000000000000000000604482015290519081900360640190fd5b6001600160a01b03861660009081526009602052604090205460ff16158061319b57506001600160a01b03851660009081526009602052604090205460ff16155b156131a75760096122c2565b846001600160a01b0316635fe3b5676040518163ffffffff1660e01b815260040160206040518083038186803b1580156131e057600080fd5b505afa1580156131f4573d6000803e3d6000fd5b505050506040513d602081101561320a57600080fd5b5051604080517f5fe3b56700000000000000000000000000000000000000000000000000000000815290516001600160a01b0392831692891691635fe3b567916004808301926020929190829003018186803b15801561326957600080fd5b505afa15801561327d573d6000803e3d6000fd5b505050506040513d602081101561329357600080fd5b50516001600160a01b0316146132aa5760026122c2565b6132b386614988565b6132bf86846000614c1f565b6132cb86856000614c1f565b60009695505050505050565b6001600160a01b0383166000908152600c602052604081205460ff1615613345576040805162461bcd60e51b815260206004820152601060248201527f626f72726f772069732070617573656400000000000000000000000000000000604482015290519081900360640190fd5b6001600160a01b03841660009081526009602052604090205460ff1661336c576009612016565b6001600160a01b038085166000908152600960209081526040808320938716835260029093019052205460ff1661346457336001600160a01b038516146133fa576040805162461bcd60e51b815260206004820152601560248201527f73656e646572206d7573742062652063546f6b656e0000000000000000000000604482015290519081900360640190fd5b6000613406338561501b565b9050600081601181111561341657fe5b1461342f5780601181111561342757fe5b915050611b19565b6001600160a01b038086166000908152600960209081526040808320938816835260029093019052205460ff1661346257fe5b505b600460009054906101000a90046001600160a01b03166001600160a01b031663fc57d4df856040518263ffffffff1660e01b815260040180826001600160a01b0316815260200191505060206040518083038186803b1580156134c657600080fd5b505afa1580156134da573d6000803e3d6000fd5b505050506040513d60208110156134f057600080fd5b50516134fd57600d612016565b6001600160a01b03841660009081526016602052604090205480156135ea576000856001600160a01b03166347bd37186040518163ffffffff1660e01b815260040160206040518083038186803b15801561355757600080fd5b505afa15801561356b573d6000803e3d6000fd5b505050506040513d602081101561358157600080fd5b50519050600061359182866154b9565b90508281106135e7576040805162461bcd60e51b815260206004820152601960248201527f6d61726b657420626f72726f7720636170207265616368656400000000000000604482015290519081900360640190fd5b50505b6000806135fa868860008861465e565b9193509091506000905082601181111561361057fe5b1461362b5781601181111561362157fe5b9350505050611b19565b8015613638576004613621565b60006040518060200160405280896001600160a01b031663aa5af0fd6040518163ffffffff1660e01b815260040160206040518083038186803b15801561367e57600080fd5b505afa158015613692573d6000803e3d6000fd5b505050506040513d60208110156136a857600080fd5b5051905290506136b88882613ccf565b6136c58888836000613f70565b600098975050505050505050565b600860205281600052604060002081815481106136ef57600080fd5b6000918252602090912001546001600160a01b03169150829050565b6003546001600160a01b031681565b600080546001600160a01b031633146137405761373960016006614dea565b9050611524565b6001600160a01b0383166000908152600960205260409020805460ff166137755761376d60096007614dea565b915050611524565b60408051602080820183528582528251908101909252670c7d713b49da00008252906137a181836154fb565b156137bc576137b260066008614dea565b9350505050611524565b84158015906138565750600460009054906101000a90046001600160a01b03166001600160a01b031663fc57d4df876040518263ffffffff1660e01b815260040180826001600160a01b0316815260200191505060206040518083038186803b15801561382857600080fd5b505afa15801561383c573d6000803e3d6000fd5b505050506040513d602081101561385257600080fd5b5051155b15613867576137b2600d6009614dea565b60018301805490869055604080516001600160a01b03891681526020810183905280820188905290517f70483e6592cd5182d45ac970e05bc62cdcc90e9d8ef2c2dbe686cf383bcd7fc59181900360600190a16000979650505050505050565b600a547501000000000000000000000000000000000000000000900460ff1681565b60055481565b6116f081600d80548060200260200160405190810160405280929190818152602001828054801561394957602002820191906000526020600020905b81546001600160a01b0316815260019091019060200180831161392b575b505050505061152a565b600080613961858585614f6f565b90508015613970579050611b19565b61397985614988565b61398585856000614c1f565b600095945050505050565b6000808290506000806000836001600160a01b031663c37f68e2336040518263ffffffff1660e01b815260040180826001600160a01b0316815260200191505060806040518083038186803b1580156139e857600080fd5b505afa1580156139fc573d6000803e3d6000fd5b505050506040513d6080811015613a1257600080fd5b508051602082015160409092015190945090925090508215613a655760405162461bcd60e51b8152600401808060200182810382526025815260200180615c7e6025913960400191505060405180910390fd5b8015613a8257613a77600c6002614dea565b945050505050611a6e565b6000613a8f873385614f6f565b90508015613ab057613aa4600e600383615502565b95505050505050611a6e565b6001600160a01b0385166000908152600960209081526040808320338452600281019092529091205460ff16613aef5760009650505050505050611a6e565b3360009081526002820160209081526040808320805460ff191690556008825280832080548251818502810185019093528083529192909190830182828015613b6157602002820191906000526020600020905b81546001600160a01b03168152600190910190602001808311613b43575b5050835193945083925060009150505b82811015613bb657896001600160a01b0316848281518110613b8f57fe5b60200260200101516001600160a01b03161415613bae57809150613bb6565b600101613b71565b50818110613bc057fe5b336000908152600860205260409020805481906000198101908110613be157fe5b9060005260206000200160009054906101000a90046001600160a01b0316818381548110613c0b57fe5b9060005260206000200160006101000a8154816001600160a01b0302191690836001600160a01b0316021790555080805480613c4357fe5b6000828152602090819020820160001990810180546001600160a01b0319169055909101909155604080516001600160a01b038d168152339281019290925280517fe699a64c18b07ac5b7301aa273f36a2287239eb9501d81950672794afba29a0d9281900390910190a160009c9b505050505050505050505050565b6000546001600160a01b031681565b6001600160a01b0382166000908152601160209081526040808320600f9092528220549091613cfc611edf565b8354909150600090613d1c908390600160e01b900463ffffffff16615568565b9050600081118015613d2e5750600083115b15613f04576000613da3876001600160a01b03166347bd37186040518163ffffffff1660e01b815260040160206040518083038186803b158015613d7157600080fd5b505afa158015613d85573d6000803e3d6000fd5b505050506040513d6020811015613d9b57600080fd5b5051876155aa565b90506000613db183866155c8565b90506000808311613dd15760405180602001604052806000815250613ddb565b613ddb828461560a565b604080516020810190915288546001600160e01b03168152909150600090613e03908361563f565b90506040518060400160405280613e5383600001516040518060400160405280601a81526020017f6e657720696e6465782065786365656473203232342062697473000000000000815250615664565b6001600160e01b03168152602001613ea0886040518060400160405280601c81526020017f626c6f636b206e756d62657220657863656564732033322062697473000000008152506156fe565b63ffffffff9081169091526001600160a01b038c166000908152601160209081526040909120835181549490920151909216600160e01b026001600160e01b039182166001600160e01b0319909416939093171691909117905550611ee392505050565b8015611ee357613f49826040518060400160405280601c81526020017f626c6f636b206e756d62657220657863656564732033322062697473000000008152506156fe565b845463ffffffff91909116600160e01b026001600160e01b03909116178455505050505050565b6001600160a01b0380851660008181526011602090815260408083208151808401835281546001600160e01b031681528251808501845295855260138452828520968a1680865287855292852080548752815193909552959092529091558151909291901561256c576000613fe58383615754565b9050600061406b896001600160a01b03166395dd91938a6040518263ffffffff1660e01b815260040180826001600160a01b0316815260200191505060206040518083038186803b15801561403957600080fd5b505afa15801561404d573d6000803e3d6000fd5b505050506040513d602081101561406357600080fd5b5051886155aa565b905060006140798284615779565b6001600160a01b038a16600090815260146020526040812054919250906140a090836154b9565b90506140c18a828a6140b95766038d7ea4c680006140bc565b60005b6157a8565b6001600160a01b03808c1660008181526014602090815260409182902094909455895181518781529485015280519193928f16927f1fc3ecc087d8d2d15e23d0032af5a47059c3892d003d8e139fdcb6bb327c99a6929081900390910190a35050505050505050505050565b600080546001600160a01b031633148061415157506002546001600160a01b031633145b905090565b600080614161612a3b565b90506000816001600160a01b03166370a08231306040518263ffffffff1660e01b815260040180826001600160a01b0316815260200191505060206040518083038186803b1580156141b257600080fd5b505afa1580156141c6573d6000803e3d6000fd5b505050506040513d60208110156141dc57600080fd5b5051905080841161427657816001600160a01b031663a9059cbb86866040518363ffffffff1660e01b815260040180836001600160a01b0316815260200182815260200192505050602060405180830381600087803b15801561423e57600080fd5b505af1158015614252573d6000803e3d6000fd5b505050506040513d602081101561426857600080fd5b506000935061152492505050565b50919392505050565b6000600d8054806020026020016040519081016040528092919081815260200182805480156142d757602002820191906000526020600020905b81546001600160a01b031681526001909101906020018083116142b9575b5050505050905060005b81518110156143955760008282815181106142f857fe5b6020026020010151905060006040518060200160405280836001600160a01b031663aa5af0fd6040518163ffffffff1660e01b815260040160206040518083038186803b15801561434857600080fd5b505afa15801561435c573d6000803e3d6000fd5b505050506040513d602081101561437257600080fd5b50519052905061438182614988565b61438b8282613ccf565b50506001016142e1565b5060408051602081019091526000808252825167ffffffffffffffff811180156143be57600080fd5b506040519080825280602002602001820160405280156143f857816020015b6143e5615b25565b8152602001906001900390816143dd5790505b50905060005b835181101561459557600084828151811061441557fe5b6020908102919091018101516001600160a01b0381166000908152600990925260409091206003015490915060ff161561458c5760408051602080820180845260045463fc57d4df60e01b9091526001600160a01b0385811660248501529351600094849392169163fc57d4df916044808601929190818703018186803b15801561449f57600080fd5b505afa1580156144b3573d6000803e3d6000fd5b505050506040513d60208110156144c957600080fd5b50519052604080517f47bd371800000000000000000000000000000000000000000000000000000000815290519192506000916145639184916001600160a01b038716916347bd3718916004808301926020929190829003018186803b15801561453257600080fd5b505afa158015614546573d6000803e3d6000fd5b505050506040513d602081101561455c57600080fd5b50516158e9565b90508085858151811061457257fe5b6020026020010181905250614587868261563f565b955050505b506001016143fe565b5060005b8351811015611ed9576000600d82815481106145b157fe5b600091825260208220015485516001600160a01b0390911692506145d65760006145fe565b6145fe600e546145f98686815181106145eb57fe5b602002602001015188615150565b61590a565b6001600160a01b0383166000818152600f60209081526040918290208490558151848152915193945091927f2ab93f65628379309f36cb125e90d7c902454a545c4f8b8cb0794af75c24b807929181900390910190a25050600101614599565b600080600061466b615b38565b6001600160a01b0388166000908152600860209081526040808320805482518185028101850190935280835284938301828280156146d257602002820191906000526020600020905b81546001600160a01b031681526001909101906020018083116146b4575b5050505050905060005b81518110156149495760008282815181106146f357fe5b60200260200101519050806001600160a01b031663c37f68e28d6040518263ffffffff1660e01b815260040180826001600160a01b0316815260200191505060806040518083038186803b15801561474a57600080fd5b505afa15801561475e573d6000803e3d6000fd5b505050506040513d608081101561477457600080fd5b508051602082015160408084015160609485015160808b01529389019390935291870191909152935083156147b857600f6000809750975097505050505050611f7b565b60408051602080820183526001600160a01b0380851660008181526009845285902060010154845260c08a01939093528351808301855260808a0151815260e08a015260048054855163fc57d4df60e01b815291820194909452935192169263fc57d4df9260248083019392829003018186803b15801561483857600080fd5b505afa15801561484c573d6000803e3d6000fd5b505050506040513d602081101561486257600080fd5b505160a0860181905261488457600d6000809750975097505050505050611f7b565b604080516020810190915260a0860151815261010086015260c085015160e08601516148be916148b391615111565b866101000151615111565b6101208601819052604086015186516148d8929190615923565b8552610100850151606086015160208701516148f5929190615923565b60208601526001600160a01b03818116908c161415614940576149228561012001518b8760200151615923565b6020860181905261010086015161493a918b90615923565b60208601525b506001016146dc565b5060208301518351111561496f5750506020810151905160009450039150829050611f7b565b5050805160209091015160009450849350039050611f7b565b6001600160a01b0381166000908152601060209081526040808320600f90925282205490916149b5611edf565b83549091506000906149d5908390600160e01b900463ffffffff16615568565b90506000811180156149e75750600083115b15614bb4576000856001600160a01b03166318160ddd6040518163ffffffff1660e01b815260040160206040518083038186803b158015614a2757600080fd5b505afa158015614a3b573d6000803e3d6000fd5b505050506040513d6020811015614a5157600080fd5b505190506000614a6183866155c8565b90506000808311614a815760405180602001604052806000815250614a8b565b614a8b828461560a565b604080516020810190915288546001600160e01b03168152909150600090614ab3908361563f565b90506040518060400160405280614b0383600001516040518060400160405280601a81526020017f6e657720696e6465782065786365656473203232342062697473000000000000815250615664565b6001600160e01b03168152602001614b50886040518060400160405280601c81526020017f626c6f636b206e756d62657220657863656564732033322062697473000000008152506156fe565b63ffffffff9081169091526001600160a01b038b166000908152601060209081526040909120835181549490920151909216600160e01b026001600160e01b039182166001600160e01b031990941693909317169190911790555061170592505050565b801561170557614bf9826040518060400160405280601c81526020017f626c6f636b206e756d62657220657863656564732033322062697473000000008152506156fe565b845463ffffffff91909116600160e01b026001600160e01b039091161784555050505050565b6001600160a01b0380841660008181526010602090815260408083208151808401835281546001600160e01b0316815282518085018452958552601284528285209689168086528785529285208054875281519390955295909252909155815190929190158015614c905750815115155b15614ca8576ec097ce7bc90715b34b9f100000000081525b6000614cb48383615754565b90506000876001600160a01b03166370a08231886040518263ffffffff1660e01b815260040180826001600160a01b0316815260200191505060206040518083038186803b158015614d0557600080fd5b505afa158015614d19573d6000803e3d6000fd5b505050506040513d6020811015614d2f57600080fd5b505190506000614d3f8284615779565b6001600160a01b03891660009081526014602052604081205491925090614d6690836154b9565b9050614d7f89828a6140b95766038d7ea4c680006140bc565b6001600160a01b03808b1660008181526014602090815260409182902094909455895181518781529485015280519193928e16927f2caecd17d02f56fa897705dcc740da2d237c373f70686f4e0d9bd3bf0400ea7a929081900390910190a350505050505050505050565b60007f45b96fe442630264581b197e84bbada861235052c5a1aadfff9ea4e40a969aa0836011811115614e1957fe5b836013811115614e2557fe5b604080519283526020830191909152600082820152519081900360600190a1826011811115611b1957fe5b6000806000614e6384600080600061465e565b9250925092509193909250565b600080614e7d84846158e9565b90506117d681615944565b60005b600d54811015614f1c57816001600160a01b0316600d8281548110614eac57fe5b6000918252602090912001546001600160a01b03161415614f14576040805162461bcd60e51b815260206004820152601460248201527f6d61726b657420616c7265616479206164646564000000000000000000000000604482015290519081900360640190fd5b600101614e8b565b50600d80546001810182556000919091527fd7b6990105719101dabeb77144f2a3385c8033acd3af97e9423a695e81ad1eb50180546001600160a01b0319166001600160a01b0392909216919091179055565b6001600160a01b03831660009081526009602052604081205460ff16614f96576009612016565b6001600160a01b038085166000908152600960209081526040808320938716835260029093019052205460ff16614fce576000612016565b600080614fde858786600061465e565b91935090915060009050826011811115614ff457fe5b1461500e5781601181111561500557fe5b92505050611b19565b80156132cb576004615005565b6001600160a01b0382166000908152600960205260408120805460ff16615046576009915050611524565b6001600160a01b038316600090815260028201602052604090205460ff16151560011415615078576000915050611524565b6001600160a01b0380841660008181526002840160209081526040808320805460ff19166001908117909155600883528184208054918201815584529282902090920180549489166001600160a01b031990951685179055815193845283019190915280517f3ab23ab0d51cccc0c3085aec51f99228625aa1a922b3a8ca89a26b0f2027a1a59281900390910190a15060009392505050565b615119615b25565b6040518060200160405280670de0b6b3a764000061513f866000015186600001516155c8565b8161514657fe5b0490529392505050565b615158615b25565b604051806020016040528061518361517c8660000151670de0b6b3a76400006155c8565b8551615953565b90529392505050565b6001600160a01b0381166000908152600960205260409020805460ff1615156001146151ff576040805162461bcd60e51b815260206004820152601860248201527f4c4842206d61726b6574206973206e6f74206c69737465640000000000000000604482015290519081900360640190fd5b600381015460ff1615615259576040805162461bcd60e51b815260206004820152601860248201527f4c4842206d61726b657420616c72656164792061646465640000000000000000604482015290519081900360640190fd5b60038101805460ff19166001908117909155604080516001600160a01b0385168152602081019290925280517f93c1f3e36ed71139f466a4ce8c9751790e2e33f5afb2df0dcfb3aeabe55d5aa29281900390910190a16001600160a01b0382166000908152601060205260409020546001600160e01b031615801561530157506001600160a01b038216600090815260106020526040902054600160e01b900463ffffffff16155b156153d05760405180604001604052806ec097ce7bc90715b34b9f10000000006001600160e01b0316815260200161537561533a611edf565b6040518060400160405280601c81526020017f626c6f636b206e756d62657220657863656564732033322062697473000000008152506156fe565b63ffffffff9081169091526001600160a01b0384166000908152601060209081526040909120835181549490920151909216600160e01b026001600160e01b039182166001600160e01b031990941693909317169190911790555b6001600160a01b0382166000908152601160205260409020546001600160e01b031615801561542257506001600160a01b038216600090815260116020526040902054600160e01b900463ffffffff16155b15611cf95760405180604001604052806ec097ce7bc90715b34b9f10000000006001600160e01b0316815260200161545b61533a611edf565b63ffffffff9081169091526001600160a01b0384166000908152601160209081526040909120835181549490920151909216600160e01b026001600160e01b039182166001600160e01b031990941693909317169190911790555050565b6000611b1983836040518060400160405280601181526020017f6164646974696f6e206f766572666c6f77000000000000000000000000000000815250615995565b5190511090565b60007f45b96fe442630264581b197e84bbada861235052c5a1aadfff9ea4e40a969aa084601181111561553157fe5b84601381111561553d57fe5b604080519283526020830191909152818101859052519081900360600190a18360118111156117d657fe5b6000611b1983836040518060400160405280601581526020017f7375627472616374696f6e20756e646572666c6f7700000000000000000000008152506159f3565b6000611b196155c184670de0b6b3a76400006155c8565b8351615953565b6000611b1983836040518060400160405280601781526020017f6d756c7469706c69636174696f6e206f766572666c6f77000000000000000000815250615a4d565b615612615b25565b6040518060200160405280615183615639866ec097ce7bc90715b34b9f10000000006155c8565b85615953565b615647615b25565b6040518060200160405280615183856000015185600001516154b9565b600081600160e01b84106156f65760405162461bcd60e51b81526004018080602001828103825283818151815260200191508051906020019080838360005b838110156156bb5781810151838201526020016156a3565b50505050905090810190601f1680156156e85780820380516001836020036101000a031916815260200191505b509250505060405180910390fd5b509192915050565b60008164010000000084106156f65760405162461bcd60e51b81526020600482018181528351602484015283519092839260449091019190850190808383600083156156bb5781810151838201526020016156a3565b61575c615b25565b604051806020016040528061518385600001518560000151615568565b60006ec097ce7bc90715b34b9f10000000006157998484600001516155c8565b816157a057fe5b049392505050565b60008183101580156157ba5750600083115b156158e15760006157c9612a3b565b90506000816001600160a01b03166370a08231306040518263ffffffff1660e01b815260040180826001600160a01b0316815260200191505060206040518083038186803b15801561581a57600080fd5b505afa15801561582e573d6000803e3d6000fd5b505050506040513d602081101561584457600080fd5b505190508085116158de57816001600160a01b031663a9059cbb87876040518363ffffffff1660e01b815260040180836001600160a01b0316815260200182815260200192505050602060405180830381600087803b1580156158a657600080fd5b505af11580156158ba573d6000803e3d6000fd5b505050506040513d60208110156158d057600080fd5b5060009350611b1992505050565b50505b509092915050565b6158f1615b25565b60405180602001604052806151838560000151856155c8565b6000670de0b6b3a76400006157998484600001516155c8565b60008061593085856158e9565b90506123cc61593e82615944565b846154b9565b51670de0b6b3a7640000900490565b6000611b1983836040518060400160405280600e81526020017f646976696465206279207a65726f000000000000000000000000000000000000815250615ac3565b600083830182858210156159ea5760405162461bcd60e51b81526020600482018181528351602484015283519092839260449091019190850190808383600083156156bb5781810151838201526020016156a3565b50949350505050565b60008184841115615a455760405162461bcd60e51b81526020600482018181528351602484015283519092839260449091019190850190808383600083156156bb5781810151838201526020016156a3565b505050900390565b6000831580615a5a575082155b15615a6757506000611b19565b83830283858281615a7457fe5b041483906159ea5760405162461bcd60e51b81526020600482018181528351602484015283519092839260449091019190850190808383600083156156bb5781810151838201526020016156a3565b60008183615b125760405162461bcd60e51b81526020600482018181528351602484015283519092839260449091019190850190808383600083156156bb5781810151838201526020016156a3565b50828481615b1c57fe5b04949350505050565b6040518060200160405280600081525090565b604051806101400160405280600081526020016000815260200160008152602001600081526020016000815260200160008152602001615b76615b25565b8152602001615b83615b25565b8152602001615b90615b25565b8152602001615b9d615b25565b90529056fe63616e6e6f742070617573652061206d61726b65742074686174206973206e6f74206c69737465646f6e6c792065787465726e616c6c79206f776e6564206163636f756e7473206d61792072656672657368207370656564736f6e6c7920706175736520677561726469616e20616e642061646d696e2063616e2070617573656f6e6c792061646d696e2063616e2073657420626f72726f772063617020677561726469616e6f6e6c792061646d696e206f7220626f72726f772063617020677561726469616e2063616e2073657420626f72726f772063617073657869744d61726b65743a206765744163636f756e74536e617073686f74206661696c65646f6e6c7920756e6974726f6c6c65722061646d696e2063616e206368616e676520627261696e73a2646970667358221220e116be05081db4a5d6307ad49c76b6071149d0f7a9c28debd45f8ce6f2fa3e2664736f6c63430007060033",
  "devdoc": {
    "author": "Compound",
    "kind": "dev",
    "methods": {
      "_addCompMarkets(address[])": {
        "params": {
          "cTokens": "The addresses of the markets to add"
        }
      },
      "_dropCompMarket(address)": {
        "params": {
          "cToken": "The address of the market to drop"
        }
      },
      "_grantComp(address,uint256)": {
        "details": "Note: If there is not enough LHB, we do not perform the transfer all.",
        "params": {
          "amount": "The amount of LHB to (possibly) transfer",
          "recipient": "The address of the recipient to transfer LHB to"
        }
      },
      "_setBorrowCapGuardian(address)": {
        "params": {
          "newBorrowCapGuardian": "The address of the new Borrow Cap Guardian"
        }
      },
      "_setCloseFactor(uint256)": {
        "details": "Admin function to set closeFactor",
        "params": {
          "newCloseFactorMantissa": "New close factor, scaled by 1e18"
        },
        "returns": {
          "_0": "uint 0=success, otherwise a failure"
        }
      },
      "_setCollateralFactor(address,uint256)": {
        "details": "Admin function to set per-market collateralFactor",
        "params": {
          "cToken": "The market to set the factor on",
          "newCollateralFactorMantissa": "The new collateral factor, scaled by 1e18"
        },
        "returns": {
          "_0": "uint 0=success, otherwise a failure. (See ErrorReporter for details)"
        }
      },
      "_setCompRate(uint256)": {
        "params": {
          "compRate_": "The amount of LHB wei per block to distribute"
        }
      },
      "_setLiquidationIncentive(uint256)": {
        "details": "Admin function to set liquidationIncentive",
        "params": {
          "newLiquidationIncentiveMantissa": "New liquidationIncentive scaled by 1e18"
        },
        "returns": {
          "_0": "uint 0=success, otherwise a failure. (See ErrorReporter for details)"
        }
      },
      "_setMarketBorrowCaps(address[],uint256[])": {
        "details": "Admin or borrowCapGuardian function to set the borrow caps. A borrow cap of 0 corresponds to unlimited borrowing.",
        "params": {
          "cTokens": "The addresses of the markets (tokens) to change the borrow caps for",
          "newBorrowCaps": "The new borrow cap values in underlying to be set. A value of 0 corresponds to unlimited borrowing."
        }
      },
      "_setPauseGuardian(address)": {
        "params": {
          "newPauseGuardian": "The address of the new Pause Guardian"
        },
        "returns": {
          "_0": "uint 0=success, otherwise a failure. (See enum Error for details)"
        }
      },
      "_setPriceOracle(address)": {
        "details": "Admin function to set a new price oracle",
        "returns": {
          "_0": "uint 0=success, otherwise a failure (see ErrorReporter.sol for details)"
        }
      },
      "_supportMarket(address)": {
        "details": "Admin function to set isListed and add support for the market",
        "params": {
          "cToken": "The address of the market (token) to list"
        },
        "returns": {
          "_0": "uint 0=success, otherwise a failure. (See enum Error for details)"
        }
      },
      "borrowAllowed(address,address,uint256)": {
        "params": {
          "borrowAmount": "The amount of underlying the account would borrow",
          "borrower": "The account which would borrow the asset",
          "cToken": "The market to verify the borrow against"
        },
        "returns": {
          "_0": "0 if the borrow is allowed, otherwise a semi-opaque error code (See ErrorReporter.sol)"
        }
      },
      "borrowVerify(address,address,uint256)": {
        "params": {
          "borrowAmount": "The amount of the underlying asset requested to borrow",
          "borrower": "The address borrowing the underlying",
          "cToken": "Asset whose underlying is being borrowed"
        }
      },
      "checkMembership(address,address)": {
        "params": {
          "account": "The address of the account to check",
          "cToken": "The cToken to check"
        },
        "returns": {
          "_0": "True if the account is in the asset, otherwise false."
        }
      },
      "claimComp(address)": {
        "params": {
          "holder": "The address to claim LHB for"
        }
      },
      "claimComp(address,address[])": {
        "params": {
          "cTokens": "The list of markets to claim LHB in",
          "holder": "The address to claim LHB for"
        }
      },
      "claimComp(address[],address[],bool,bool)": {
        "params": {
          "borrowers": "Whether or not to claim LHB earned by borrowing",
          "cTokens": "The list of markets to claim LHB in",
          "holders": "The addresses to claim LHB for",
          "suppliers": "Whether or not to claim LHB earned by supplying"
        }
      },
      "enterMarkets(address[])": {
        "params": {
          "cTokens": "The list of addresses of the cToken markets to be enabled"
        },
        "returns": {
          "_0": "Success indicator for whether each corresponding market was entered"
        }
      },
      "exitMarket(address)": {
        "details": "Sender must not have an outstanding borrow balance in the asset,  or be providing necessary collateral for an outstanding borrow.",
        "params": {
          "cTokenAddress": "The address of the asset to be removed"
        },
        "returns": {
          "_0": "Whether or not the account successfully exited the market"
        }
      },
      "getAccountLiquidity(address)": {
        "returns": {
          "_0": "(possible error code (semi-opaque), account liquidity in excess of collateral requirements,          account shortfall below collateral requirements)"
        }
      },
      "getAllMarkets()": {
        "details": "The automatic getter may be used to access an individual market.",
        "returns": {
          "_0": "The list of market addresses"
        }
      },
      "getAssetsIn(address)": {
        "params": {
          "account": "The address of the account to pull assets for"
        },
        "returns": {
          "_0": "A dynamic list with the assets the account has entered"
        }
      },
      "getCompAddress()": {
        "returns": {
          "_0": "The address of LHB"
        }
      },
      "getHypotheticalAccountLiquidity(address,address,uint256,uint256)": {
        "params": {
          "account": "The account to determine liquidity for",
          "borrowAmount": "The amount of underlying to hypothetically borrow",
          "cTokenModify": "The market to hypothetically redeem/borrow in",
          "redeemTokens": "The number of tokens to hypothetically redeem"
        },
        "returns": {
          "_0": "(possible error code (semi-opaque), hypothetical account liquidity in excess of collateral requirements,          hypothetical account shortfall below collateral requirements)"
        }
      },
      "liquidateBorrowAllowed(address,address,address,address,uint256)": {
        "params": {
          "borrower": "The address of the borrower",
          "cTokenBorrowed": "Asset which was borrowed by the borrower",
          "cTokenCollateral": "Asset which was used as collateral and will be seized",
          "liquidator": "The address repaying the borrow and seizing the collateral",
          "repayAmount": "The amount of underlying being repaid"
        }
      },
      "liquidateBorrowVerify(address,address,address,address,uint256,uint256)": {
        "params": {
          "actualRepayAmount": "The amount of underlying being repaid",
          "borrower": "The address of the borrower",
          "cTokenBorrowed": "Asset which was borrowed by the borrower",
          "cTokenCollateral": "Asset which was used as collateral and will be seized",
          "liquidator": "The address repaying the borrow and seizing the collateral"
        }
      },
      "liquidateCalculateSeizeTokens(address,address,uint256)": {
        "details": "Used in liquidation (called in cToken.liquidateBorrowFresh)",
        "params": {
          "actualRepayAmount": "The amount of cTokenBorrowed underlying to convert into cTokenCollateral tokens",
          "cTokenBorrowed": "The address of the borrowed cToken",
          "cTokenCollateral": "The address of the collateral cToken"
        },
        "returns": {
          "_0": "(errorCode, number of cTokenCollateral tokens to be seized in a liquidation)"
        }
      },
      "mintAllowed(address,address,uint256)": {
        "params": {
          "cToken": "The market to verify the mint against",
          "mintAmount": "The amount of underlying being supplied to the market in exchange for tokens",
          "minter": "The account which would get the minted tokens"
        },
        "returns": {
          "_0": "0 if the mint is allowed, otherwise a semi-opaque error code (See ErrorReporter.sol)"
        }
      },
      "mintVerify(address,address,uint256,uint256)": {
        "params": {
          "actualMintAmount": "The amount of the underlying asset being minted",
          "cToken": "Asset being minted",
          "mintTokens": "The number of tokens being minted",
          "minter": "The address minting the tokens"
        }
      },
      "redeemAllowed(address,address,uint256)": {
        "params": {
          "cToken": "The market to verify the redeem against",
          "redeemTokens": "The number of cTokens to exchange for the underlying asset in the market",
          "redeemer": "The account which would redeem the tokens"
        },
        "returns": {
          "_0": "0 if the redeem is allowed, otherwise a semi-opaque error code (See ErrorReporter.sol)"
        }
      },
      "redeemVerify(address,address,uint256,uint256)": {
        "params": {
          "cToken": "Asset being redeemed",
          "redeemAmount": "The amount of the underlying asset being redeemed",
          "redeemTokens": "The number of tokens being redeemed",
          "redeemer": "The address redeeming the tokens"
        }
      },
      "repayBorrowAllowed(address,address,address,uint256)": {
        "params": {
          "borrower": "The account which would borrowed the asset",
          "cToken": "The market to verify the repay against",
          "payer": "The account which would repay the asset",
          "repayAmount": "The amount of the underlying asset the account would repay"
        },
        "returns": {
          "_0": "0 if the repay is allowed, otherwise a semi-opaque error code (See ErrorReporter.sol)"
        }
      },
      "repayBorrowVerify(address,address,address,uint256,uint256)": {
        "params": {
          "actualRepayAmount": "The amount of underlying being repaid",
          "borrower": "The address of the borrower",
          "cToken": "Asset being repaid",
          "payer": "The address repaying the borrow"
        }
      },
      "seizeAllowed(address,address,address,address,uint256)": {
        "params": {
          "borrower": "The address of the borrower",
          "cTokenBorrowed": "Asset which was borrowed by the borrower",
          "cTokenCollateral": "Asset which was used as collateral and will be seized",
          "liquidator": "The address repaying the borrow and seizing the collateral",
          "seizeTokens": "The number of collateral tokens to seize"
        }
      },
      "seizeVerify(address,address,address,address,uint256)": {
        "params": {
          "borrower": "The address of the borrower",
          "cTokenBorrowed": "Asset which was borrowed by the borrower",
          "cTokenCollateral": "Asset which was used as collateral and will be seized",
          "liquidator": "The address repaying the borrow and seizing the collateral",
          "seizeTokens": "The number of collateral tokens to seize"
        }
      },
      "transferAllowed(address,address,address,uint256)": {
        "params": {
          "cToken": "The market to verify the transfer against",
          "dst": "The account which receives the tokens",
          "src": "The account which sources the tokens",
          "transferTokens": "The number of cTokens to transfer"
        },
        "returns": {
          "_0": "0 if the transfer is allowed, otherwise a semi-opaque error code (See ErrorReporter.sol)"
        }
      },
      "transferVerify(address,address,address,uint256)": {
        "params": {
          "cToken": "Asset being transferred",
          "dst": "The account which receives the tokens",
          "src": "The account which sources the tokens",
          "transferTokens": "The number of cTokens to transfer"
        }
      }
    },
    "title": "Compound's Comptroller Contract",
    "version": 1
  },
  "userdoc": {
    "events": {
      "ActionPaused(address,string,bool)": {
        "notice": "Emitted when an action is paused on a market"
      },
      "ActionPaused(string,bool)": {
        "notice": "Emitted when an action is paused globally"
      },
      "CompGranted(address,uint256)": {
        "notice": "Emitted when LHB is granted by admin"
      },
      "CompSpeedUpdated(address,uint256)": {
        "notice": "Emitted when a new LHB speed is calculated for a market"
      },
      "DistributedBorrowerComp(address,address,uint256,uint256)": {
        "notice": "Emitted when LHB is distributed to a borrower"
      },
      "DistributedSupplierComp(address,address,uint256,uint256)": {
        "notice": "Emitted when LHB is distributed to a supplier"
      },
      "MarketComped(address,bool)": {
        "notice": "Emitted when market comped status is changed"
      },
      "MarketEntered(address,address)": {
        "notice": "Emitted when an account enters a market"
      },
      "MarketExited(address,address)": {
        "notice": "Emitted when an account exits a market"
      },
      "MarketListed(address)": {
        "notice": "Emitted when an admin supports a market"
      },
      "NewBorrowCap(address,uint256)": {
        "notice": "Emitted when borrow cap for a cToken is changed"
      },
      "NewBorrowCapGuardian(address,address)": {
        "notice": "Emitted when borrow cap guardian is changed"
      },
      "NewCloseFactor(uint256,uint256)": {
        "notice": "Emitted when close factor is changed by admin"
      },
      "NewCollateralFactor(address,uint256,uint256)": {
        "notice": "Emitted when a collateral factor is changed by admin"
      },
      "NewCompRate(uint256,uint256)": {
        "notice": "Emitted when LHB rate is changed"
      },
      "NewLiquidationIncentive(uint256,uint256)": {
        "notice": "Emitted when liquidation incentive is changed by admin"
      },
      "NewPauseGuardian(address,address)": {
        "notice": "Emitted when pause guardian is changed"
      },
      "NewPriceOracle(address,address)": {
        "notice": "Emitted when price oracle is changed"
      }
    },
    "kind": "user",
    "methods": {
      "_addCompMarkets(address[])": {
        "notice": "Add markets to compMarkets, allowing them to earn LHB in the flywheel"
      },
      "_dropCompMarket(address)": {
        "notice": "Remove a market from compMarkets, preventing it from earning LHB in the flywheel"
      },
      "_grantComp(address,uint256)": {
        "notice": "Transfer LHB to the recipient"
      },
      "_setBorrowCapGuardian(address)": {
        "notice": "Admin function to change the Borrow Cap Guardian"
      },
      "_setCloseFactor(uint256)": {
        "notice": "Sets the closeFactor used when liquidating borrows"
      },
      "_setCollateralFactor(address,uint256)": {
        "notice": "Sets the collateralFactor for a market"
      },
      "_setCompRate(uint256)": {
        "notice": "Set the amount of LHB distributed per block"
      },
      "_setLiquidationIncentive(uint256)": {
        "notice": "Sets liquidationIncentive"
      },
      "_setMarketBorrowCaps(address[],uint256[])": {
        "notice": "Set the given borrow caps for the given cToken markets. Borrowing that brings total borrows to or above borrow cap will revert."
      },
      "_setPauseGuardian(address)": {
        "notice": "Admin function to change the Pause Guardian"
      },
      "_setPriceOracle(address)": {
        "notice": "Sets a new price oracle for the comptroller"
      },
      "_supportMarket(address)": {
        "notice": "Add the market to the markets mapping and set it as listed"
      },
      "accountAssets(address,uint256)": {
        "notice": "Per-account mapping of \"assets you are in\", capped by maxAssets"
      },
      "admin()": {
        "notice": "Administrator for this contract"
      },
      "allMarkets(uint256)": {
        "notice": "A list of all markets"
      },
      "borrowAllowed(address,address,uint256)": {
        "notice": "Checks if the account should be allowed to borrow the underlying asset of the given market"
      },
      "borrowVerify(address,address,uint256)": {
        "notice": "Validates borrow and reverts on rejection. May emit logs."
      },
      "checkMembership(address,address)": {
        "notice": "Returns whether the given account is entered in the given asset"
      },
      "claimComp(address)": {
        "notice": "Claim all the LHB accrued by holder in all markets"
      },
      "claimComp(address,address[])": {
        "notice": "Claim all the LHB accrued by holder in the specified markets"
      },
      "claimComp(address[],address[],bool,bool)": {
        "notice": "Claim all LHB accrued by the holders"
      },
      "closeFactorMantissa()": {
        "notice": "Multiplier used to calculate the maximum repayAmount when liquidating a borrow"
      },
      "compAccrued(address)": {
        "notice": "The LHB accrued but not yet transferred to each user"
      },
      "compBorrowState(address)": {
        "notice": "The LHB market borrow state for each market"
      },
      "compBorrowerIndex(address,address)": {
        "notice": "The LHB borrow index for each market for each borrower as of the last time they accrued LHB"
      },
      "compClaimThreshold()": {
        "notice": "The threshold above which the flywheel transfers LHB, in wei"
      },
      "compInitialIndex()": {
        "notice": "The initial LHB index for a market"
      },
      "compRate()": {
        "notice": "The rate at which the flywheel distributes LHB, per block"
      },
      "compSpeeds(address)": {
        "notice": "The portion of compRate that each market currently receives"
      },
      "compSupplierIndex(address,address)": {
        "notice": "The LHB borrow index for each market for each supplier as of the last time they accrued LHB"
      },
      "compSupplyState(address)": {
        "notice": "The LHB market supply state for each market"
      },
      "comptrollerImplementation()": {
        "notice": "Active brains of Unitroller"
      },
      "enterMarkets(address[])": {
        "notice": "Add assets to be included in account liquidity calculation"
      },
      "exitMarket(address)": {
        "notice": "Removes asset from sender's account liquidity calculation"
      },
      "getAccountLiquidity(address)": {
        "notice": "Determine the current account liquidity wrt collateral requirements"
      },
      "getAllMarkets()": {
        "notice": "Return all of the markets"
      },
      "getAssetsIn(address)": {
        "notice": "Returns the assets an account has entered"
      },
      "getCompAddress()": {
        "notice": "Return the address of the LHB token"
      },
      "getHypotheticalAccountLiquidity(address,address,uint256,uint256)": {
        "notice": "Determine what the account liquidity would be if the given amounts were redeemed/borrowed"
      },
      "isComptroller()": {
        "notice": "Indicator that this is a Comptroller contract (for inspection)"
      },
      "liquidateBorrowAllowed(address,address,address,address,uint256)": {
        "notice": "Checks if the liquidation should be allowed to occur"
      },
      "liquidateBorrowVerify(address,address,address,address,uint256,uint256)": {
        "notice": "Validates liquidateBorrow and reverts on rejection. May emit logs."
      },
      "liquidateCalculateSeizeTokens(address,address,uint256)": {
        "notice": "Calculate number of tokens of collateral asset to seize given an underlying amount"
      },
      "liquidationIncentiveMantissa()": {
        "notice": "Multiplier representing the discount on collateral that a liquidator receives"
      },
      "markets(address)": {
        "notice": "Official mapping of cTokens -> Market metadata"
      },
      "maxAssets()": {
        "notice": "Max number of assets a single account can participate in (borrow or use as collateral)"
      },
      "mintAllowed(address,address,uint256)": {
        "notice": "Checks if the account should be allowed to mint tokens in the given market"
      },
      "mintVerify(address,address,uint256,uint256)": {
        "notice": "Validates mint and reverts on rejection. May emit logs."
      },
      "oracle()": {
        "notice": "Oracle which gives the price of any given asset"
      },
      "pauseGuardian()": {
        "notice": "The Pause Guardian can pause certain actions as a safety mechanism.  Actions which allow users to remove their own assets cannot be paused.  Liquidation / seizing / transfer can only be paused globally, not by market."
      },
      "pendingAdmin()": {
        "notice": "Pending administrator for this contract"
      },
      "pendingComptrollerImplementation()": {
        "notice": "Pending brains of Unitroller"
      },
      "redeemAllowed(address,address,uint256)": {
        "notice": "Checks if the account should be allowed to redeem tokens in the given market"
      },
      "redeemVerify(address,address,uint256,uint256)": {
        "notice": "Validates redeem and reverts on rejection. May emit logs."
      },
      "refreshCompSpeeds()": {
        "notice": "Recalculate and update LHB speeds for all LHB markets"
      },
      "repayBorrowAllowed(address,address,address,uint256)": {
        "notice": "Checks if the account should be allowed to repay a borrow in the given market"
      },
      "repayBorrowVerify(address,address,address,uint256,uint256)": {
        "notice": "Validates repayBorrow and reverts on rejection. May emit logs."
      },
      "seizeAllowed(address,address,address,address,uint256)": {
        "notice": "Checks if the seizing of assets should be allowed to occur"
      },
      "seizeVerify(address,address,address,address,uint256)": {
        "notice": "Validates seize and reverts on rejection. May emit logs."
      },
      "transferAllowed(address,address,address,uint256)": {
        "notice": "Checks if the account should be allowed to transfer tokens in the given market"
      },
      "transferVerify(address,address,address,uint256)": {
        "notice": "Validates transfer and reverts on rejection. May emit logs."
      }
    },
    "version": 1
  },
  "storageLayout": {
    "storage": [
      {
        "astId": 10490,
        "contract": "contracts/compound/Comptroller.sol:Comptroller",
        "label": "admin",
        "offset": 0,
        "slot": "0",
        "type": "t_address"
      },
      {
        "astId": 10493,
        "contract": "contracts/compound/Comptroller.sol:Comptroller",
        "label": "pendingAdmin",
        "offset": 0,
        "slot": "1",
        "type": "t_address"
      },
      {
        "astId": 10496,
        "contract": "contracts/compound/Comptroller.sol:Comptroller",
        "label": "comptrollerImplementation",
        "offset": 0,
        "slot": "2",
        "type": "t_address"
      },
      {
        "astId": 10499,
        "contract": "contracts/compound/Comptroller.sol:Comptroller",
        "label": "pendingComptrollerImplementation",
        "offset": 0,
        "slot": "3",
        "type": "t_address"
      },
      {
        "astId": 10505,
        "contract": "contracts/compound/Comptroller.sol:Comptroller",
        "label": "oracle",
        "offset": 0,
        "slot": "4",
        "type": "t_contract(PriceOracle)14928"
      },
      {
        "astId": 10508,
        "contract": "contracts/compound/Comptroller.sol:Comptroller",
        "label": "closeFactorMantissa",
        "offset": 0,
        "slot": "5",
        "type": "t_uint256"
      },
      {
        "astId": 10511,
        "contract": "contracts/compound/Comptroller.sol:Comptroller",
        "label": "liquidationIncentiveMantissa",
        "offset": 0,
        "slot": "6",
        "type": "t_uint256"
      },
      {
        "astId": 10514,
        "contract": "contracts/compound/Comptroller.sol:Comptroller",
        "label": "maxAssets",
        "offset": 0,
        "slot": "7",
        "type": "t_uint256"
      },
      {
        "astId": 10520,
        "contract": "contracts/compound/Comptroller.sol:Comptroller",
        "label": "accountAssets",
        "offset": 0,
        "slot": "8",
        "type": "t_mapping(t_address,t_array(t_contract(CToken)5736)dyn_storage)"
      },
      {
        "astId": 10539,
        "contract": "contracts/compound/Comptroller.sol:Comptroller",
        "label": "markets",
        "offset": 0,
        "slot": "9",
        "type": "t_mapping(t_address,t_struct(Market)10534_storage)"
      },
      {
        "astId": 10542,
        "contract": "contracts/compound/Comptroller.sol:Comptroller",
        "label": "pauseGuardian",
        "offset": 0,
        "slot": "10",
        "type": "t_address"
      },
      {
        "astId": 10544,
        "contract": "contracts/compound/Comptroller.sol:Comptroller",
        "label": "_mintGuardianPaused",
        "offset": 20,
        "slot": "10",
        "type": "t_bool"
      },
      {
        "astId": 10546,
        "contract": "contracts/compound/Comptroller.sol:Comptroller",
        "label": "_borrowGuardianPaused",
        "offset": 21,
        "slot": "10",
        "type": "t_bool"
      },
      {
        "astId": 10548,
        "contract": "contracts/compound/Comptroller.sol:Comptroller",
        "label": "transferGuardianPaused",
        "offset": 22,
        "slot": "10",
        "type": "t_bool"
      },
      {
        "astId": 10550,
        "contract": "contracts/compound/Comptroller.sol:Comptroller",
        "label": "seizeGuardianPaused",
        "offset": 23,
        "slot": "10",
        "type": "t_bool"
      },
      {
        "astId": 10554,
        "contract": "contracts/compound/Comptroller.sol:Comptroller",
        "label": "mintGuardianPaused",
        "offset": 0,
        "slot": "11",
        "type": "t_mapping(t_address,t_bool)"
      },
      {
        "astId": 10558,
        "contract": "contracts/compound/Comptroller.sol:Comptroller",
        "label": "borrowGuardianPaused",
        "offset": 0,
        "slot": "12",
        "type": "t_mapping(t_address,t_bool)"
      },
      {
        "astId": 10570,
        "contract": "contracts/compound/Comptroller.sol:Comptroller",
        "label": "allMarkets",
        "offset": 0,
        "slot": "13",
        "type": "t_array(t_contract(CToken)5736)dyn_storage"
      },
      {
        "astId": 10573,
        "contract": "contracts/compound/Comptroller.sol:Comptroller",
        "label": "compRate",
        "offset": 0,
        "slot": "14",
        "type": "t_uint256"
      },
      {
        "astId": 10578,
        "contract": "contracts/compound/Comptroller.sol:Comptroller",
        "label": "compSpeeds",
        "offset": 0,
        "slot": "15",
        "type": "t_mapping(t_address,t_uint256)"
      },
      {
        "astId": 10583,
        "contract": "contracts/compound/Comptroller.sol:Comptroller",
        "label": "compSupplyState",
        "offset": 0,
        "slot": "16",
        "type": "t_mapping(t_address,t_struct(CompMarketState)10566_storage)"
      },
      {
        "astId": 10588,
        "contract": "contracts/compound/Comptroller.sol:Comptroller",
        "label": "compBorrowState",
        "offset": 0,
        "slot": "17",
        "type": "t_mapping(t_address,t_struct(CompMarketState)10566_storage)"
      },
      {
        "astId": 10595,
        "contract": "contracts/compound/Comptroller.sol:Comptroller",
        "label": "compSupplierIndex",
        "offset": 0,
        "slot": "18",
        "type": "t_mapping(t_address,t_mapping(t_address,t_uint256))"
      },
      {
        "astId": 10602,
        "contract": "contracts/compound/Comptroller.sol:Comptroller",
        "label": "compBorrowerIndex",
        "offset": 0,
        "slot": "19",
        "type": "t_mapping(t_address,t_mapping(t_address,t_uint256))"
      },
      {
        "astId": 10607,
        "contract": "contracts/compound/Comptroller.sol:Comptroller",
        "label": "compAccrued",
        "offset": 0,
        "slot": "20",
        "type": "t_mapping(t_address,t_uint256)"
      },
      {
        "astId": 10612,
        "contract": "contracts/compound/Comptroller.sol:Comptroller",
        "label": "borrowCapGuardian",
        "offset": 0,
        "slot": "21",
        "type": "t_address"
      },
      {
        "astId": 10616,
        "contract": "contracts/compound/Comptroller.sol:Comptroller",
        "label": "borrowCaps",
        "offset": 0,
        "slot": "22",
        "type": "t_mapping(t_address,t_uint256)"
      }
    ],
    "types": {
      "t_address": {
        "encoding": "inplace",
        "label": "address",
        "numberOfBytes": "20"
      },
      "t_array(t_contract(CToken)5736)dyn_storage": {
        "base": "t_contract(CToken)5736",
        "encoding": "dynamic_array",
        "label": "contract CToken[]",
        "numberOfBytes": "32"
      },
      "t_bool": {
        "encoding": "inplace",
        "label": "bool",
        "numberOfBytes": "1"
      },
      "t_contract(CToken)5736": {
        "encoding": "inplace",
        "label": "contract CToken",
        "numberOfBytes": "20"
      },
      "t_contract(PriceOracle)14928": {
        "encoding": "inplace",
        "label": "contract PriceOracle",
        "numberOfBytes": "20"
      },
      "t_mapping(t_address,t_array(t_contract(CToken)5736)dyn_storage)": {
        "encoding": "mapping",
        "key": "t_address",
        "label": "mapping(address => contract CToken[])",
        "numberOfBytes": "32",
        "value": "t_array(t_contract(CToken)5736)dyn_storage"
      },
      "t_mapping(t_address,t_bool)": {
        "encoding": "mapping",
        "key": "t_address",
        "label": "mapping(address => bool)",
        "numberOfBytes": "32",
        "value": "t_bool"
      },
      "t_mapping(t_address,t_mapping(t_address,t_uint256))": {
        "encoding": "mapping",
        "key": "t_address",
        "label": "mapping(address => mapping(address => uint256))",
        "numberOfBytes": "32",
        "value": "t_mapping(t_address,t_uint256)"
      },
      "t_mapping(t_address,t_struct(CompMarketState)10566_storage)": {
        "encoding": "mapping",
        "key": "t_address",
        "label": "mapping(address => struct ComptrollerV3Storage.CompMarketState)",
        "numberOfBytes": "32",
        "value": "t_struct(CompMarketState)10566_storage"
      },
      "t_mapping(t_address,t_struct(Market)10534_storage)": {
        "encoding": "mapping",
        "key": "t_address",
        "label": "mapping(address => struct ComptrollerV2Storage.Market)",
        "numberOfBytes": "32",
        "value": "t_struct(Market)10534_storage"
      },
      "t_mapping(t_address,t_uint256)": {
        "encoding": "mapping",
        "key": "t_address",
        "label": "mapping(address => uint256)",
        "numberOfBytes": "32",
        "value": "t_uint256"
      },
      "t_struct(CompMarketState)10566_storage": {
        "encoding": "inplace",
        "label": "struct ComptrollerV3Storage.CompMarketState",
        "members": [
          {
            "astId": 10563,
            "contract": "contracts/compound/Comptroller.sol:Comptroller",
            "label": "index",
            "offset": 0,
            "slot": "0",
            "type": "t_uint224"
          },
          {
            "astId": 10565,
            "contract": "contracts/compound/Comptroller.sol:Comptroller",
            "label": "block",
            "offset": 28,
            "slot": "0",
            "type": "t_uint32"
          }
        ],
        "numberOfBytes": "32"
      },
      "t_struct(Market)10534_storage": {
        "encoding": "inplace",
        "label": "struct ComptrollerV2Storage.Market",
        "members": [
          {
            "astId": 10525,
            "contract": "contracts/compound/Comptroller.sol:Comptroller",
            "label": "isListed",
            "offset": 0,
            "slot": "0",
            "type": "t_bool"
          },
          {
            "astId": 10527,
            "contract": "contracts/compound/Comptroller.sol:Comptroller",
            "label": "collateralFactorMantissa",
            "offset": 0,
            "slot": "1",
            "type": "t_uint256"
          },
          {
            "astId": 10531,
            "contract": "contracts/compound/Comptroller.sol:Comptroller",
            "label": "accountMembership",
            "offset": 0,
            "slot": "2",
            "type": "t_mapping(t_address,t_bool)"
          },
          {
            "astId": 10533,
            "contract": "contracts/compound/Comptroller.sol:Comptroller",
            "label": "isComped",
            "offset": 0,
            "slot": "3",
            "type": "t_bool"
          }
        ],
        "numberOfBytes": "128"
      },
      "t_uint224": {
        "encoding": "inplace",
        "label": "uint224",
        "numberOfBytes": "28"
      },
      "t_uint256": {
        "encoding": "inplace",
        "label": "uint256",
        "numberOfBytes": "32"
      },
      "t_uint32": {
        "encoding": "inplace",
        "label": "uint32",
        "numberOfBytes": "4"
      }
    }
  }
}