{
  "address": "0xeC6cbd588D087821Ec43b2A7456D86ED28a6743d",
  "abi": [
    {
      "inputs": [
        {
          "internalType": "address",
          "name": "_ctokenFacotry",
          "type": "address"
        },
        {
          "internalType": "address",
          "name": "_anchorToken",
          "type": "address"
        }
      ],
      "payable": false,
      "stateMutability": "nonpayable",
      "type": "constructor"
    },
    {
      "anonymous": false,
      "inputs": [
        {
          "indexed": true,
          "internalType": "address",
          "name": "previousOwner",
          "type": "address"
        },
        {
          "indexed": true,
          "internalType": "address",
          "name": "newOwner",
          "type": "address"
        }
      ],
      "name": "OwnershipTransferred",
      "type": "event"
    },
    {
      "anonymous": false,
      "inputs": [
        {
          "indexed": true,
          "internalType": "address",
          "name": "token0",
          "type": "address"
        },
        {
          "indexed": true,
          "internalType": "address",
          "name": "token1",
          "type": "address"
        },
        {
          "indexed": false,
          "internalType": "address",
          "name": "pair",
          "type": "address"
        },
        {
          "indexed": false,
          "internalType": "uint256",
          "name": "",
          "type": "uint256"
        }
      ],
      "name": "PairCreated",
      "type": "event"
    },
    {
      "constant": true,
      "inputs": [
        {
          "internalType": "uint256",
          "name": "",
          "type": "uint256"
        }
      ],
      "name": "allPairs",
      "outputs": [
        {
          "internalType": "address",
          "name": "",
          "type": "address"
        }
      ],
      "payable": false,
      "stateMutability": "view",
      "type": "function"
    },
    {
      "constant": true,
      "inputs": [],
      "name": "allPairsLength",
      "outputs": [
        {
          "internalType": "uint256",
          "name": "",
          "type": "uint256"
        }
      ],
      "payable": false,
      "stateMutability": "view",
      "type": "function"
    },
    {
      "constant": true,
      "inputs": [],
      "name": "anchorToken",
      "outputs": [
        {
          "internalType": "address",
          "name": "",
          "type": "address"
        }
      ],
      "payable": false,
      "stateMutability": "view",
      "type": "function"
    },
    {
      "constant": false,
      "inputs": [
        {
          "internalType": "address",
          "name": "tokenA",
          "type": "address"
        },
        {
          "internalType": "address",
          "name": "tokenB",
          "type": "address"
        }
      ],
      "name": "createPair",
      "outputs": [
        {
          "internalType": "address",
          "name": "pair",
          "type": "address"
        }
      ],
      "payable": false,
      "stateMutability": "nonpayable",
      "type": "function"
    },
    {
      "constant": true,
      "inputs": [
        {
          "internalType": "address",
          "name": "",
          "type": "address"
        }
      ],
      "name": "feeRateOf",
      "outputs": [
        {
          "internalType": "uint256",
          "name": "",
          "type": "uint256"
        }
      ],
      "payable": false,
      "stateMutability": "view",
      "type": "function"
    },
    {
      "constant": true,
      "inputs": [],
      "name": "feeTo",
      "outputs": [
        {
          "internalType": "address",
          "name": "",
          "type": "address"
        }
      ],
      "payable": false,
      "stateMutability": "view",
      "type": "function"
    },
    {
      "constant": true,
      "inputs": [
        {
          "internalType": "uint256",
          "name": "amountOut",
          "type": "uint256"
        },
        {
          "internalType": "uint256",
          "name": "reserveIn",
          "type": "uint256"
        },
        {
          "internalType": "uint256",
          "name": "reserveOut",
          "type": "uint256"
        }
      ],
      "name": "getAmountIn",
      "outputs": [
        {
          "internalType": "uint256",
          "name": "amountIn",
          "type": "uint256"
        }
      ],
      "payable": false,
      "stateMutability": "view",
      "type": "function"
    },
    {
      "constant": true,
      "inputs": [
        {
          "internalType": "uint256",
          "name": "amountOut",
          "type": "uint256"
        },
        {
          "internalType": "uint256",
          "name": "reserveIn",
          "type": "uint256"
        },
        {
          "internalType": "uint256",
          "name": "reserveOut",
          "type": "uint256"
        },
        {
          "internalType": "uint256",
          "name": "feeRate",
          "type": "uint256"
        }
      ],
      "name": "getAmountInFeeRate",
      "outputs": [
        {
          "internalType": "uint256",
          "name": "amountIn",
          "type": "uint256"
        }
      ],
      "payable": false,
      "stateMutability": "pure",
      "type": "function"
    },
    {
      "constant": true,
      "inputs": [
        {
          "internalType": "uint256",
          "name": "amountIn",
          "type": "uint256"
        },
        {
          "internalType": "uint256",
          "name": "reserveIn",
          "type": "uint256"
        },
        {
          "internalType": "uint256",
          "name": "reserveOut",
          "type": "uint256"
        }
      ],
      "name": "getAmountOut",
      "outputs": [
        {
          "internalType": "uint256",
          "name": "amountOut",
          "type": "uint256"
        }
      ],
      "payable": false,
      "stateMutability": "view",
      "type": "function"
    },
    {
      "constant": true,
      "inputs": [
        {
          "internalType": "uint256",
          "name": "amountIn",
          "type": "uint256"
        },
        {
          "internalType": "uint256",
          "name": "reserveIn",
          "type": "uint256"
        },
        {
          "internalType": "uint256",
          "name": "reserveOut",
          "type": "uint256"
        },
        {
          "internalType": "uint256",
          "name": "feeRate",
          "type": "uint256"
        }
      ],
      "name": "getAmountOutFeeRate",
      "outputs": [
        {
          "internalType": "uint256",
          "name": "amountOut",
          "type": "uint256"
        }
      ],
      "payable": false,
      "stateMutability": "pure",
      "type": "function"
    },
    {
      "constant": true,
      "inputs": [
        {
          "internalType": "uint256",
          "name": "amountIn",
          "type": "uint256"
        },
        {
          "internalType": "uint256",
          "name": "reserveIn",
          "type": "uint256"
        },
        {
          "internalType": "uint256",
          "name": "reserveOut",
          "type": "uint256"
        },
        {
          "internalType": "uint256",
          "name": "feeRate",
          "type": "uint256"
        }
      ],
      "name": "getAmountOutFeeRateAnchorToken",
      "outputs": [
        {
          "internalType": "uint256",
          "name": "amountOut",
          "type": "uint256"
        }
      ],
      "payable": false,
      "stateMutability": "pure",
      "type": "function"
    },
    {
      "constant": true,
      "inputs": [
        {
          "internalType": "uint256",
          "name": "amountOut",
          "type": "uint256"
        },
        {
          "internalType": "address[]",
          "name": "path",
          "type": "address[]"
        }
      ],
      "name": "getAmountsIn",
      "outputs": [
        {
          "internalType": "uint256[]",
          "name": "amounts",
          "type": "uint256[]"
        }
      ],
      "payable": false,
      "stateMutability": "view",
      "type": "function"
    },
    {
      "constant": true,
      "inputs": [
        {
          "internalType": "uint256",
          "name": "amountIn",
          "type": "uint256"
        },
        {
          "internalType": "address[]",
          "name": "path",
          "type": "address[]"
        }
      ],
      "name": "getAmountsOut",
      "outputs": [
        {
          "internalType": "uint256[]",
          "name": "amounts",
          "type": "uint256[]"
        }
      ],
      "payable": false,
      "stateMutability": "view",
      "type": "function"
    },
    {
      "constant": true,
      "inputs": [
        {
          "internalType": "address",
          "name": "",
          "type": "address"
        },
        {
          "internalType": "address",
          "name": "",
          "type": "address"
        }
      ],
      "name": "getPair",
      "outputs": [
        {
          "internalType": "address",
          "name": "",
          "type": "address"
        }
      ],
      "payable": false,
      "stateMutability": "view",
      "type": "function"
    },
    {
      "constant": true,
      "inputs": [
        {
          "internalType": "address",
          "name": "tokenA",
          "type": "address"
        },
        {
          "internalType": "address",
          "name": "tokenB",
          "type": "address"
        }
      ],
      "name": "getReserves",
      "outputs": [
        {
          "internalType": "uint256",
          "name": "reserveA",
          "type": "uint256"
        },
        {
          "internalType": "uint256",
          "name": "reserveB",
          "type": "uint256"
        }
      ],
      "payable": false,
      "stateMutability": "view",
      "type": "function"
    },
    {
      "constant": true,
      "inputs": [
        {
          "internalType": "address",
          "name": "tokenA",
          "type": "address"
        },
        {
          "internalType": "address",
          "name": "tokenB",
          "type": "address"
        }
      ],
      "name": "getReservesFeeRate",
      "outputs": [
        {
          "internalType": "uint256",
          "name": "reserveA",
          "type": "uint256"
        },
        {
          "internalType": "uint256",
          "name": "reserveB",
          "type": "uint256"
        },
        {
          "internalType": "uint256",
          "name": "feeRate",
          "type": "uint256"
        },
        {
          "internalType": "bool",
          "name": "outAnchorToken",
          "type": "bool"
        }
      ],
      "payable": false,
      "stateMutability": "view",
      "type": "function"
    },
    {
      "constant": true,
      "inputs": [],
      "name": "initCodeHash",
      "outputs": [
        {
          "internalType": "bytes32",
          "name": "",
          "type": "bytes32"
        }
      ],
      "payable": false,
      "stateMutability": "view",
      "type": "function"
    },
    {
      "constant": true,
      "inputs": [],
      "name": "isOwner",
      "outputs": [
        {
          "internalType": "bool",
          "name": "",
          "type": "bool"
        }
      ],
      "payable": false,
      "stateMutability": "view",
      "type": "function"
    },
    {
      "constant": true,
      "inputs": [],
      "name": "lErc20DelegatorFactory",
      "outputs": [
        {
          "internalType": "contract LErc20DelegatorInterface",
          "name": "",
          "type": "address"
        }
      ],
      "payable": false,
      "stateMutability": "view",
      "type": "function"
    },
    {
      "constant": true,
      "inputs": [],
      "name": "lpFeeRate",
      "outputs": [
        {
          "internalType": "uint256",
          "name": "",
          "type": "uint256"
        }
      ],
      "payable": false,
      "stateMutability": "view",
      "type": "function"
    },
    {
      "constant": true,
      "inputs": [],
      "name": "owner",
      "outputs": [
        {
          "internalType": "address",
          "name": "",
          "type": "address"
        }
      ],
      "payable": false,
      "stateMutability": "view",
      "type": "function"
    },
    {
      "constant": true,
      "inputs": [
        {
          "internalType": "address",
          "name": "tokenA",
          "type": "address"
        },
        {
          "internalType": "address",
          "name": "tokenB",
          "type": "address"
        }
      ],
      "name": "pairFor",
      "outputs": [
        {
          "internalType": "address",
          "name": "pair",
          "type": "address"
        }
      ],
      "payable": false,
      "stateMutability": "view",
      "type": "function"
    },
    {
      "constant": true,
      "inputs": [
        {
          "internalType": "uint256",
          "name": "amountA",
          "type": "uint256"
        },
        {
          "internalType": "uint256",
          "name": "reserveA",
          "type": "uint256"
        },
        {
          "internalType": "uint256",
          "name": "reserveB",
          "type": "uint256"
        }
      ],
      "name": "quote",
      "outputs": [
        {
          "internalType": "uint256",
          "name": "amountB",
          "type": "uint256"
        }
      ],
      "payable": false,
      "stateMutability": "pure",
      "type": "function"
    },
    {
      "constant": false,
      "inputs": [],
      "name": "renounceOwnership",
      "outputs": [],
      "payable": false,
      "stateMutability": "nonpayable",
      "type": "function"
    },
    {
      "constant": true,
      "inputs": [],
      "name": "router",
      "outputs": [
        {
          "internalType": "address",
          "name": "",
          "type": "address"
        }
      ],
      "payable": false,
      "stateMutability": "view",
      "type": "function"
    },
    {
      "constant": false,
      "inputs": [
        {
          "internalType": "address",
          "name": "_token",
          "type": "address"
        }
      ],
      "name": "setAnchorToken",
      "outputs": [],
      "payable": false,
      "stateMutability": "nonpayable",
      "type": "function"
    },
    {
      "constant": false,
      "inputs": [
        {
          "internalType": "address",
          "name": "_feeTo",
          "type": "address"
        }
      ],
      "name": "setFeeTo",
      "outputs": [],
      "payable": false,
      "stateMutability": "nonpayable",
      "type": "function"
    },
    {
      "constant": false,
      "inputs": [
        {
          "internalType": "uint256",
          "name": "_rate",
          "type": "uint256"
        }
      ],
      "name": "setFeeToRate",
      "outputs": [],
      "payable": false,
      "stateMutability": "nonpayable",
      "type": "function"
    },
    {
      "constant": false,
      "inputs": [
        {
          "internalType": "address",
          "name": "pair",
          "type": "address"
        },
        {
          "internalType": "uint256",
          "name": "feeRate",
          "type": "uint256"
        }
      ],
      "name": "setPairFeeRate",
      "outputs": [],
      "payable": false,
      "stateMutability": "nonpayable",
      "type": "function"
    },
    {
      "constant": false,
      "inputs": [
        {
          "internalType": "address",
          "name": "_router",
          "type": "address"
        }
      ],
      "name": "setRouter",
      "outputs": [],
      "payable": false,
      "stateMutability": "nonpayable",
      "type": "function"
    },
    {
      "constant": false,
      "inputs": [
        {
          "internalType": "address",
          "name": "user",
          "type": "address"
        },
        {
          "internalType": "uint256",
          "name": "feeRate",
          "type": "uint256"
        }
      ],
      "name": "setUserFeeRate",
      "outputs": [],
      "payable": false,
      "stateMutability": "nonpayable",
      "type": "function"
    },
    {
      "constant": true,
      "inputs": [
        {
          "internalType": "address",
          "name": "tokenA",
          "type": "address"
        },
        {
          "internalType": "address",
          "name": "tokenB",
          "type": "address"
        }
      ],
      "name": "sortTokens",
      "outputs": [
        {
          "internalType": "address",
          "name": "token0",
          "type": "address"
        },
        {
          "internalType": "address",
          "name": "token1",
          "type": "address"
        }
      ],
      "payable": false,
      "stateMutability": "pure",
      "type": "function"
    },
    {
      "constant": false,
      "inputs": [
        {
          "internalType": "address",
          "name": "newOwner",
          "type": "address"
        }
      ],
      "name": "transferOwnership",
      "outputs": [],
      "payable": false,
      "stateMutability": "nonpayable",
      "type": "function"
    }
  ],
  "transactionHash": "0xde08f684c874d42683083be1a062d4c719ff5063fd3776d56bf3c0edbdf25745",
  "args": [
    "0xC65d5ea738F466FEb518b6079732C7b03eE04CF0",
    "0x04F535663110A392A6504839BEeD34E019FdB4E0"
  ],
  "solcInputHash": "872b30688de79eba2719c72a7b94bd81",
  "bytecode": "0x608060405260006002553480156200001657600080fd5b506040516200976d3803806200976d833981810160405260408110156200003c57600080fd5b50805160209091015160006200005a6001600160e01b03620001d316565b600080546001600160a01b0319166001600160a01b0383169081178255604051929350917f8be0079c531659141344cd1fd0a4f28419497f9722a3daafe3b4186f6b6457e0908290a350600680546001600160a01b0319166001600160a01b038416179055604051620000d060208201620001d7565b6020820181038252601f19601f820116604052506040516020018082805190602001908083835b60208310620001185780518252601f199092019160209182019101620000f7565b51815160209384036101000a60001901801990921691161790526040805192909401828103601f1901835290935280519201919091206005555050600380546001600160a01b0319166001600160a01b0384811691909117918290551615159050620001cb576040805162461bcd60e51b815260206004820152601a60248201527f63546f6b656e206f6620616e63686f72546f6b656e2069732030000000000000604482015290519081900360640190fd5b5050620001e5565b3390565b6138c78062005ea683390190565b615cb180620001f56000396000f3fe608060405234801561001057600080fd5b50600436106101fb5760003560e01c806396ed28f91161011a578063d779e270116100ad578063f2fde38b1161007c578063f2fde38b14610759578063f46901ed1461077f578063f5b9848d146107a5578063f887ea40146107ad578063fd51b0b4146107b5576101fb565b8063d779e270146106f5578063db4c545e1461071b578063e1c4c96614610723578063e6a439051461072b576101fb565b8063c9c65396116100e9578063c9c65396146105aa578063d06ca61f146105d8578063d14641d214610682578063d52bb6f4146106ae576101fb565b806396ed28f914610510578063ad615dec1461053e578063b5e4aa7214610567578063c0d7865514610584576101fb565b80634219547711610192578063715018a611610161578063715018a6146104bb57806385f8c259146104c35780638da5cb5b146104ec5780638f32d59b146104f4576101fb565b80634219547714610428578063544caa5614610430578063574f2ba3146104845780636e2b0fa71461048c576101fb565b80631f00ca74116101ce5780631f00ca74146102ab5780632f167f05146103a557806332175e85146103cd57806332d1b8d2146103f9576101fb565b8063017e7e5814610200578063054d50d4146102245780630b64aa631461025f5780631e3dd18b1461028e575b600080fd5b61020861080b565b604080516001600160a01b039092168252519081900360200190f35b61024d6004803603606081101561023a57600080fd5b508035906020810135906040013561081a565b60408051918252519081900360200190f35b61024d6004803603608081101561027557600080fd5b508035906020810135906040810135906060013561090a565b610208600480360360208110156102a457600080fd5b5035610a63565b610355600480360360408110156102c157600080fd5b813591908101906040810160208201356401000000008111156102e357600080fd5b8201836020820111156102f557600080fd5b8035906020019184602083028401116401000000008311171561031757600080fd5b919080806020026020016040519081016040528093929190818152602001838360200280828437600092019190915250929550610a8a945050505050565b60408051602080825283518183015283519192839290830191858101910280838360005b83811015610391578181015183820152602001610379565b505050509050019250505060405180910390f35b6103cb600480360360208110156103bb57600080fd5b50356001600160a01b0316610bc1565b005b6103cb600480360360408110156103e357600080fd5b506001600160a01b038135169060200135610c2a565b61024d6004803603608081101561040f57600080fd5b5080359060208101359060408101359060600135610c8d565b610208610d75565b61045e6004803603604081101561044657600080fd5b506001600160a01b0381358116916020013516610d84565b604080516001600160a01b03938416815291909216602082015281519081900390910190f35b61024d610e74565b61024d600480360360808110156104a257600080fd5b5080359060208101359060408101359060600135610e7a565b6103cb610f62565b61024d600480360360608110156104d957600080fd5b5080359060208101359060400135610ff3565b6102086110ca565b6104fc6110d9565b604080519115158252519081900360200190f35b6102086004803603604081101561052657600080fd5b506001600160a01b03813581169160200135166110fd565b61024d6004803603606081101561055457600080fd5b5080359060208101359060400135611127565b6103cb6004803603602081101561057d57600080fd5b50356111e9565b6103cb6004803603602081101561059a57600080fd5b50356001600160a01b0316611286565b610208600480360360408110156105c057600080fd5b506001600160a01b03813581169160200135166112ef565b610355600480360360408110156105ee57600080fd5b8135919081019060408101602082013564010000000081111561061057600080fd5b82018360208201111561062257600080fd5b8035906020019184602083028401116401000000008311171561064457600080fd5b9190808060200260200160405190810160405280939291908181526020018383602002808284376000920191909152509295506117e8945050505050565b6103cb6004803603604081101561069857600080fd5b506001600160a01b038135169060200135611958565b6106dc600480360360408110156106c457600080fd5b506001600160a01b0381358116916020013516611a57565b6040805192835260208301919091528051918290030190f35b61024d6004803603602081101561070b57600080fd5b50356001600160a01b0316611b1c565b61024d611b2e565b610208611b34565b6102086004803603604081101561074157600080fd5b506001600160a01b0381358116916020013516611b43565b6103cb6004803603602081101561076f57600080fd5b50356001600160a01b0316611b69565b6103cb6004803603602081101561079557600080fd5b50356001600160a01b0316611bbc565b61024d611c25565b610208611c2b565b6107e3600480360360408110156107cb57600080fd5b506001600160a01b0381358116916020013516611c3a565b6040805194855260208501939093528383019190915215156060830152519081900360800190f35b6001546001600160a01b031681565b600080841161085a5760405162461bcd60e51b8152600401808060200182810382526026815260200180615ba56026913960400191505060405180910390fd5b60008311801561086a5750600082115b6108a55760405162461bcd60e51b8152600401808060200182810382526023815260200180615c5a6023913960400191505060405180910390fd5b60006108b9856103e563ffffffff611dbc16565b905060006108cd828563ffffffff611dbc16565b905060006108f3836108e7886103e863ffffffff611dbc16565b9063ffffffff611e1e16565b90508082816108fe57fe5b04979650505050505050565b600080851161094a5760405162461bcd60e51b8152600401808060200182810382526026815260200180615ba56026913960400191505060405180910390fd5b60008411801561095a5750600083115b6109955760405162461bcd60e51b8152600401808060200182810382526023815260200180615c5a6023913960400191505060405180910390fd5b60006109ac8661271085900363ffffffff611dbc16565b90506000816109c38861271063ffffffff611dbc16565b03905060006109de826108e78961271063ffffffff611dbc16565b6109ee838863ffffffff611dbc16565b816109f557fe5b049586900360001901959050610a0d82612710611e78565b909603956000610a23848863ffffffff611dbc16565b90506000610a49612710610a3d8b8d63ffffffff611e1e16565b9063ffffffff611dbc16565b9050808281610a5457fe5b049a9950505050505050505050565b60098181548110610a7057fe5b6000918252602090912001546001600160a01b0316905081565b6060600282511015610adf576040805162461bcd60e51b81526020600482015260196024820152780a6eec2e08cc2c6e8dee4f27440929cac82989288bea082a89603b1b604482015290519081900360640190fd5b8151604051908082528060200260200182016040528015610b0a578160200160208202803883390190505b5090508281600183510381518110610b1e57fe5b60209081029190910101528151600019015b8015610bba576000806000610b6e866001860381518110610b4d57fe5b6020026020010151878681518110610b6157fe5b6020026020010151611c3a565b50925092509250610b94858581518110610b8457fe5b6020026020010151848484610c8d565b856001860381518110610ba357fe5b602090810291909101015250505060001901610b30565b5092915050565b610bc96110d9565b610c08576040805162461bcd60e51b81526020600482018190526024820152600080516020615c3a833981519152604482015290519081900360640190fd5b600380546001600160a01b0319166001600160a01b0392909216919091179055565b610c326110d9565b610c71576040805162461bcd60e51b81526020600482018190526024820152600080516020615c3a833981519152604482015290519081900360640190fd5b6001600160a01b03909116600090815260076020526040902055565b6000808511610ccd5760405162461bcd60e51b8152600401808060200182810382526027815260200180615bcb6027913960400191505060405180910390fd5b600084118015610cdd5750600083115b610d185760405162461bcd60e51b8152600401808060200182810382526023815260200180615c5a6023913960400191505060405180910390fd5b6000610d30612710610a3d878963ffffffff611dbc16565b90506000610d4d612710859003610a3d878a63ffffffff611eba16565b9050610d6a6001828481610d5d57fe5b049063ffffffff611e1e16565b979650505050505050565b6006546001600160a01b031681565b600080826001600160a01b0316846001600160a01b03161415610dee576040805162461bcd60e51b815260206004820181905260248201527f53776170466163746f72793a204944454e544943414c5f414444524553534553604482015290519081900360640190fd5b826001600160a01b0316846001600160a01b031610610e0e578284610e11565b83835b90925090506001600160a01b038216610e6d576040805162461bcd60e51b815260206004820152601960248201527853776170466163746f72793a205a45524f5f4144445245535360381b604482015290519081900360640190fd5b9250929050565b60095490565b6000808511610eba5760405162461bcd60e51b8152600401808060200182810382526026815260200180615ba56026913960400191505060405180910390fd5b600084118015610eca5750600083115b610f055760405162461bcd60e51b8152600401808060200182810382526023815260200180615c5a6023913960400191505060405180910390fd5b6000610f1c8661271085900363ffffffff611dbc16565b90506000610f30828663ffffffff611dbc16565b90506000610f4a836108e78961271063ffffffff611dbc16565b9050808281610f5557fe5b0498975050505050505050565b610f6a6110d9565b610fa9576040805162461bcd60e51b81526020600482018190526024820152600080516020615c3a833981519152604482015290519081900360640190fd5b600080546040516001600160a01b03909116907f8be0079c531659141344cd1fd0a4f28419497f9722a3daafe3b4186f6b6457e0908390a3600080546001600160a01b0319169055565b60008084116110335760405162461bcd60e51b8152600401808060200182810382526027815260200180615bcb6027913960400191505060405180910390fd5b6000831180156110435750600082115b61107e5760405162461bcd60e51b8152600401808060200182810382526023815260200180615c5a6023913960400191505060405180910390fd5b60006110966103e8610a3d868863ffffffff611dbc16565b905060006110b06103e5610a3d868963ffffffff611eba16565b90506110c06001828481610d5d57fe5b9695505050505050565b6000546001600160a01b031690565b600080546001600160a01b03166110ee611efc565b6001600160a01b031614905090565b6001600160a01b039182166000908152600860209081526040808320938516835292905220541690565b600080841161117d576040805162461bcd60e51b815260206004820181905260248201527f53776170466163746f72793a20494e53554646494349454e545f414d4f554e54604482015290519081900360640190fd5b60008311801561118d5750600082115b6111c85760405162461bcd60e51b8152600401808060200182810382526023815260200180615c5a6023913960400191505060405180910390fd5b826111d9858463ffffffff611dbc16565b816111e057fe5b04949350505050565b6111f16110d9565b611230576040805162461bcd60e51b81526020600482018190526024820152600080516020615c3a833981519152604482015290519081900360640190fd5b6000811161126f5760405162461bcd60e51b8152600401808060200182810382526027815260200180615bf26027913960400191505060405180910390fd5b61128081600163ffffffff611eba16565b60025550565b61128e6110d9565b6112cd576040805162461bcd60e51b81526020600482018190526024820152600080516020615c3a833981519152604482015290519081900360640190fd5b600480546001600160a01b0319166001600160a01b0392909216919091179055565b6000816001600160a01b0316836001600160a01b03161415611358576040805162461bcd60e51b815260206004820181905260248201527f53776170466163746f72793a204944454e544943414c5f414444524553534553604482015290519081900360640190fd5b600080836001600160a01b0316856001600160a01b03161061137b57838561137e565b84845b90925090506001600160a01b0382166113da576040805162461bcd60e51b815260206004820152601960248201527853776170466163746f72793a205a45524f5f4144445245535360381b604482015290519081900360640190fd5b6001600160a01b03828116600090815260086020908152604080832085851684529091529020541615611454576040805162461bcd60e51b815260206004820152601860248201527f53776170466163746f72793a20504149525f4558495354530000000000000000604482015290519081900360640190fd5b6000806114618484611f00565b91509150606060405180602001611477906122aa565b6020820181038252601f19601f8201166040525090506000858560405160200180836001600160a01b03166001600160a01b031660601b8152601401826001600160a01b03166001600160a01b031660601b815260140192505050604051602081830303815290604052805190602001209050808251602084016000f560408051637c643b2f60e11b81526001600160a01b03898116600483015288811660248301528781166044830152868116606483015291519299509089169163f8c8765e9160848082019260009290919082900301818387803b15801561155a57600080fd5b505af115801561156e573d6000803e3d6000fd5b505050508660086000886001600160a01b03166001600160a01b031681526020019081526020016000206000876001600160a01b03166001600160a01b0316815260200190815260200160002060006101000a8154816001600160a01b0302191690836001600160a01b031602179055508660086000876001600160a01b03166001600160a01b031681526020019081526020016000206000886001600160a01b03166001600160a01b0316815260200190815260200160002060006101000a8154816001600160a01b0302191690836001600160a01b031602179055508660086000866001600160a01b03166001600160a01b031681526020019081526020016000206000856001600160a01b03166001600160a01b0316815260200190815260200160002060006101000a8154816001600160a01b0302191690836001600160a01b031602179055508660086000856001600160a01b03166001600160a01b031681526020019081526020016000206000866001600160a01b03166001600160a01b0316815260200190815260200160002060006101000a8154816001600160a01b0302191690836001600160a01b0316021790555060098790806001815401808255809150509060018203906000526020600020016000909192909190916101000a8154816001600160a01b0302191690836001600160a01b0316021790555050846001600160a01b0316866001600160a01b03167f0d3648bd0f6ba80134a33ba9275ac585d9d315f0ad8355cddefde31afa28d0e98960098054905060405180836001600160a01b03166001600160a01b031681526020018281526020019250505060405180910390a350505050505092915050565b606060028251101561183d576040805162461bcd60e51b81526020600482015260196024820152780a6eec2e08cc2c6e8dee4f27440929cac82989288bea082a89603b1b604482015290519081900360640190fd5b8151604051908082528060200260200182016040528015611868578160200160208202803883390190505b509050828160008151811061187957fe5b60200260200101818152505060005b6001835103811015610bba576000806000806118c08786815181106118a957fe5b6020026020010151888760010181518110610b6157fe5b9350935093509350801561190d576118ed8686815181106118dd57fe5b602002602001015185858561090a565b8686600101815181106118fc57fe5b602002602001018181525050611948565b61192c86868151811061191c57fe5b6020026020010151858585610e7a565b86866001018151811061193b57fe5b6020026020010181815250505b5050600190920191506118889050565b6119606110d9565b61199f576040805162461bcd60e51b81526020600482018190526024820152600080516020615c3a833981519152604482015290519081900360640190fd5b60c88111156119f5576040805162461bcd60e51b815260206004820152601d60248201527f53776170466163746f72793a206665655261746520746f6f2068696768000000604482015290519081900360640190fd5b816001600160a01b0316637b84fda5826040518263ffffffff1660e01b815260040180828152602001915050600060405180830381600087803b158015611a3b57600080fd5b505af1158015611a4f573d6000803e3d6000fd5b505050505050565b6000806000611a668585610d84565b509050600080611a7687876110fd565b6001600160a01b0316630902f1ac6040518163ffffffff1660e01b815260040160606040518083038186803b158015611aae57600080fd5b505afa158015611ac2573d6000803e3d6000fd5b505050506040513d6060811015611ad857600080fd5b5080516020909101516001600160701b0391821693501690506001600160a01b0387811690841614611b0b578082611b0e565b81815b909890975095505050505050565b60076020526000908152604090205481565b60055481565b6003546001600160a01b031681565b60086020908152600092835260408084209091529082529020546001600160a01b031681565b611b716110d9565b611bb0576040805162461bcd60e51b81526020600482018190526024820152600080516020615c3a833981519152604482015290519081900360640190fd5b611bb98161210e565b50565b611bc46110d9565b611c03576040805162461bcd60e51b81526020600482018190526024820152600080516020615c3a833981519152604482015290519081900360640190fd5b600180546001600160a01b0319166001600160a01b0392909216919091179055565b60025481565b6004546001600160a01b031681565b6000806000806000611c4c8787610d84565b5090506000611c5b88886110fd565b9050600080826001600160a01b0316630902f1ac6040518163ffffffff1660e01b815260040160606040518083038186803b158015611c9957600080fd5b505afa158015611cad573d6000803e3d6000fd5b505050506040513d6060811015611cc357600080fd5b5080516020918201516040805163978bbdb960e01b815290516001600160701b0393841696509290911693506001600160a01b0386169263978bbdb992600480840193829003018186803b158015611d1a57600080fd5b505afa158015611d2e573d6000803e3d6000fd5b505050506040513d6020811015611d4457600080fd5b505195506001600160a01b038a811690851614611d71576003546001600160a01b038b8116911614611d83565b6003546001600160a01b038a81169116145b9450836001600160a01b03168a6001600160a01b031614611da5578082611da8565b81815b909b909a5095985093965093945050505050565b600082611dcb57506000611e18565b82820282848281611dd857fe5b0414611e155760405162461bcd60e51b8152600401808060200182810382526021815260200180615c196021913960400191505060405180910390fd5b90505b92915050565b600082820183811015611e15576040805162461bcd60e51b815260206004820152601b60248201527f536166654d6174683a206164646974696f6e206f766572666c6f770000000000604482015290519081900360640190fd5b6000611e1583836040518060400160405280601a81526020017f536166654d6174683a206469766973696f6e206279207a65726f0000000000008152506121ae565b6000611e1583836040518060400160405280601e81526020017f536166654d6174683a207375627472616374696f6e206f766572666c6f770000815250612250565b3390565b600654604080516326c7bd9360e01b81526001600160a01b0385811660048301529151600093849316916326c7bd9391602480830192602092919082900301818787803b158015611f5057600080fd5b505af1158015611f64573d6000803e3d6000fd5b505050506040513d6020811015611f7a57600080fd5b505191506001600160a01b038216611fd4576040805162461bcd60e51b8152602060048201526018602482015277053776170466163746f72793a2063546f6b656e20697320360441b604482015290519081900360640190fd5b600654604080516326c7bd9360e01b81526001600160a01b038681166004830152915191909216916326c7bd939160248083019260209291908290030181600087803b15801561202357600080fd5b505af1158015612037573d6000803e3d6000fd5b505050506040513d602081101561204d57600080fd5b505190506001600160a01b0381166120a7576040805162461bcd60e51b8152602060048201526018602482015277053776170466163746f72793a2063546f6b656e20697320360441b604482015290519081900360640190fd5b806001600160a01b0316826001600160a01b03161415610e6d576040805162461bcd60e51b815260206004820152601760248201527f53776170466163746f72793a204475702063546f6b656e000000000000000000604482015290519081900360640190fd5b6001600160a01b0381166121535760405162461bcd60e51b8152600401808060200182810382526026815260200180615b7f6026913960400191505060405180910390fd5b600080546040516001600160a01b03808516939216917f8be0079c531659141344cd1fd0a4f28419497f9722a3daafe3b4186f6b6457e091a3600080546001600160a01b0319166001600160a01b0392909216919091179055565b6000818361223a5760405162461bcd60e51b81526004018080602001828103825283818151815260200191508051906020019080838360005b838110156121ff5781810151838201526020016121e7565b50505050905090810190601f16801561222c5780820380516001836020036101000a031916815260200191505b509250505060405180910390fd5b50600083858161224657fe5b0495945050505050565b600081848411156122a25760405162461bcd60e51b81526020600482018181528351602484015283519092839260449091019190850190808383600083156121ff5781810151838201526020016121e7565b505050900390565b6138c7806122b88339019056fe6080604052601e600655610320600c556c0c9f2c9cd04674edea40000000601b556001601f5534801561003157600080fd5b506040514690806052613875823960408051918290036052018220828201825260088352672628102a37b5b2b760c11b6020938401528151808301835260018152603160f81b908401528151808401919091527fc285f7cfebd35a59cb5c0c032add67fdc80dcde2f8127cb94e4b49a72469ed02818301527fc89efdaa54c0f20c7adf612882df0950f5a951637e0307cdcb4c672f298b8bc6606082015260808101949094523060a0808601919091528151808603909101815260c09094019052825192019190912060115550600080546001600160a01b031916331790556137568061011f6000396000f3fe608060405234801561001057600080fd5b50600436106103425760003560e01c806370a08231116101b8578063bc25cf7711610104578063d939fa8a116100a2578063f5b9848d1161007c578063f5b9848d1461093c578063f8c8765e14610944578063fcee45f414610982578063fff6cae91461099f57610342565b8063d939fa8a146108fe578063dd62ed3e14610906578063e12ed13c1461093457610342565b8063ca6158cb116100de578063ca6158cb14610895578063d21220a71461089d578063d2890a01146108a5578063d505accf146108ad57610342565b8063bc25cf771461085f578063be61dbe614610885578063c45a01551461088d57610342565b806395d89b4111610171578063a9059cbb1161014b578063a9059cbb146107f7578063ad9b802414610823578063b54b88c31461084f578063ba9a7a561461085757610342565b806395d89b41146107df578063978bbdb9146107e75780639ec5a894146107ef57610342565b806370a08231146107275780637464fc3d1461074d5780637b84fda5146107555780637ecebe001461077257806389afcb4414610798578063948023ab146107d757610342565b806330adf81f116102925780634a8393f3116102305780635a76f25e1161020a5780635a76f25e146106cb5780635a86bb2e146106d35780636a627842146106db5780636dbf2f7f1461070157610342565b80634a8393f31461069e5780635909c0d5146106bb5780635a3d5493146106c357610342565b80633644e5151161026c5780633644e5151461064d5780634354d01e14610655578063443cb4bc1461065d578063496cf3e41461068157610342565b806330adf81f146105da578063313ce567146105e257806335cea2881461060057610342565b80630aa2f420116102ff57806317560715116102d9578063175607151461058c57806318160ddd146105945780631df4ccfc1461059c57806323b872dd146105a457610342565b80630aa2f4201461050a5780630dfe16811461052457806314afd79e1461054857610342565b8063022c0d9f146103475780630442a865146103d557806306fdde031461040d5780630902f1ac1461048a57806309047bdd146104c2578063095ea7b3146104de575b600080fd5b6103d36004803603608081101561035d57600080fd5b8135916020810135916001600160a01b03604083013516919081019060808101606082013564010000000081111561039457600080fd5b8201836020820111156103a657600080fd5b803590602001918460018302840111640100000000831117156103c857600080fd5b5090925090506109a7565b005b6103d3600480360360808110156103eb57600080fd5b508035906020810135906001600160a01b036040820135169060600135610f6f565b61041561146c565b6040805160208082528351818301528351919283929083019185019080838360005b8381101561044f578181015183820152602001610437565b50505050905090810190601f16801561047c5780820380516001836020036101000a031916815260200191505b509250505060405180910390f35b610492611490565b604080516001600160701b03948516815292909316602083015263ffffffff168183015290519081900360600190f35b6104ca6114b7565b604080519115158252519081900360200190f35b6104ca600480360360408110156104f457600080fd5b506001600160a01b0381351690602001356114c7565b6105126114de565b60408051918252519081900360200190f35b61052c6114e4565b604080516001600160a01b039092168252519081900360200190f35b61056e6004803603602081101561055e57600080fd5b50356001600160a01b03166114f3565b60408051938452602084019290925282820152519081900360600190f35b610512611514565b61051261151a565b610512611520565b6104ca600480360360608110156105ba57600080fd5b506001600160a01b03813581169160208101359091169060400135611526565b6105126115c0565b6105ea6115e4565b6040805160ff9092168252519081900360200190f35b61061d6004803603602081101561061657600080fd5b50356115e9565b604080516001600160a01b0390951685526020850193909352838301919091526060830152519081900360800190f35b61051261161a565b610512611620565b610665611626565b604080516001600160701b039092168252519081900360200190f35b6103d36004803603602081101561069757600080fd5b5035611635565b61061d600480360360208110156106b457600080fd5b5035611691565b6105126116c2565b6105126116c8565b6106656116ce565b6105126116e4565b610512600480360360208110156106f157600080fd5b50356001600160a01b03166116ea565b6105126004803603602081101561071757600080fd5b50356001600160a01b03166119ec565b6105126004803603602081101561073d57600080fd5b50356001600160a01b0316611a3f565b610512611a51565b6103d36004803603602081101561076b57600080fd5b5035611a57565b6105126004803603602081101561078857600080fd5b50356001600160a01b0316611afc565b6107be600480360360208110156107ae57600080fd5b50356001600160a01b0316611b0e565b6040805192835260208301919091528051918290030190f35b61052c611fe1565b610415611ff0565b61051261200f565b610512612015565b6104ca6004803603604081101561080d57600080fd5b506001600160a01b03813516906020013561201b565b6105126004803603604081101561083957600080fd5b506001600160a01b038135169060200135612028565b610512612112565b610512612118565b6103d36004803603602081101561087557600080fd5b50356001600160a01b031661211e565b61051261228d565b61052c612293565b6105126122a2565b61052c6122a8565b6105126122b7565b6103d3600480360360e08110156108c357600080fd5b506001600160a01b03813581169160208101359091169060408101359060608101359060ff6080820135169060a08101359060c001356122bd565b61052c6124ba565b6105126004803603604081101561091c57600080fd5b506001600160a01b03813581169160200135166124c9565b6105126124e6565b6105126124ec565b6103d36004803603608081101561095a57600080fd5b506001600160a01b0381358116916020810135821691604082013581169160600135166124f2565b6105126004803603602081101561099857600080fd5b5035612601565b6103d361261e565b601f546001146109f3576040805162461bcd60e51b8152602060048201526012602482015271111950985b9ad4ddd85c0e881313d0d2d15160721b604482015290519081900360640190fd5b6000601f5584151580610a065750600084115b610a415760405162461bcd60e51b81526004018080602001828103825260268152602001806136676026913960400191505060405180910390fd5b600080610a4c611490565b5091509150816001600160701b031687108015610a715750806001600160701b031686105b610aac5760405162461bcd60e51b815260040180806020018281038252602281526020018061368d6022913960400191505060405180910390fd5b60035460045460009182916001600160a01b03918216919081169089168214801590610aea5750806001600160a01b0316896001600160a01b031614155b610b34576040805162461bcd60e51b8152602060048201526016602482015275446542616e6b537761703a20494e56414c49445f544f60501b604482015290519081900360640190fd5b8a15610b4557610b45828a8d612781565b8915610b5657610b56818a8c612781565b8615610c1157886001600160a01b031663226dc882338d8d8c8c6040518663ffffffff1660e01b815260040180866001600160a01b03166001600160a01b03168152602001858152602001848152602001806020018281038252848482818152602001925080828437600081840152601f19601f8201169050808301925050509650505050505050600060405180830381600087803b158015610bf857600080fd5b505af1158015610c0c573d6000803e3d6000fd5b505050505b604080516370a0823160e01b815230600482015290516001600160a01b038416916370a08231916024808301926020929190829003018186803b158015610c5757600080fd5b505afa158015610c6b573d6000803e3d6000fd5b505050506040513d6020811015610c8157600080fd5b5051604080516370a0823160e01b815230600482015290519195506001600160a01b038316916370a0823191602480820192602092909190829003018186803b158015610ccd57600080fd5b505afa158015610ce1573d6000803e3d6000fd5b505050506040513d6020811015610cf757600080fd5b5051925060009150506001600160701b0385168a90038311610d1a576000610d29565b89856001600160701b03160383035b9050600089856001600160701b0316038311610d46576000610d55565b89856001600160701b03160383035b90506000821180610d665750600081115b610da15760405162461bcd60e51b81526004018080602001828103825260258152602001806136426025913960400191505060405180910390fd5b6000610dd9610dbb6006548561291390919063ffffffff16565b610dcd8761271063ffffffff61291316565b9063ffffffff61297316565b90506000610df5610dbb6006548561291390919063ffffffff16565b9050610e376040518060400160405280601b81526020017f616d6f756e7430496e3a20256420616d6f756e7431496e3a202564000000000081525085856129b5565b610e776040518060400160405280601781526020017f62616c616e636541646a75737465643a2025642020256400000000000000000081525083836129b5565b610ea76305f5e100610e9b6001600160701b038b8116908b1663ffffffff61291316565b9063ffffffff61291316565b610eb7838363ffffffff61291316565b1015610efb576040805162461bcd60e51b815260206004820152600e60248201526d446542616e6b537761703a204b3160901b604482015290519081900360640190fd5b5050610f0984848888612a70565b60408051838152602081018390528082018d9052606081018c905290516001600160a01b038b169133917fd78ad95fa46c994b6551d0da85fc275fe613ce37657fb8d5e3d130840159d8229181900360800190a350506001601f55505050505050505050565b601f54600114610fbb576040805162461bcd60e51b8152602060048201526012602482015271111950985b9ad4ddd85c0e881313d0d2d15160721b604482015290519081900360640190fd5b6000601f81905554604080516303e21fa960e61b815290516001600160a01b039092169163f887ea4091600480820192602092909190829003018186803b15801561100557600080fd5b505afa158015611019573d6000803e3d6000fd5b505050506040513d602081101561102f57600080fd5b50516001600160a01b0316331461108d576040805162461bcd60e51b815260206004820152601760248201527f446542616e6b537761703a20726f75746572206f6e6c79000000000000000000604482015290519081900360640190fd5b801561109c5761109c81612c2d565b60008411806110ab5750600083115b6110e65760405162461bcd60e51b81526004018080602001828103825260268152602001806136676026913960400191505060405180910390fd5b6000806110f1611490565b5091509150816001600160701b0316861080156111165750806001600160701b031685105b6111515760405162461bcd60e51b815260040180806020018281038252602281526020018061368d6022913960400191505060405180910390fd5b60035460045460009182916001600160a01b0391821691908116908816821480159061118f5750806001600160a01b0316886001600160a01b031614155b6111d9576040805162461bcd60e51b8152602060048201526016602482015275446542616e6b537761703a20494e56414c49445f544f60501b604482015290519081900360640190fd5b89156111ea576111ea82898c612781565b88156111fb576111fb81898b612781565b604080516370a0823160e01b815230600482015290516001600160a01b038416916370a08231916024808301926020929190829003018186803b15801561124157600080fd5b505afa158015611255573d6000803e3d6000fd5b505050506040513d602081101561126b57600080fd5b5051604080516370a0823160e01b815230600482015290519195506001600160a01b038316916370a0823191602480820192602092909190829003018186803b1580156112b757600080fd5b505afa1580156112cb573d6000803e3d6000fd5b505050506040513d60208110156112e157600080fd5b5051925060009150506001600160701b0385168990038311611304576000611313565b88856001600160701b03160383035b9050600088856001600160701b031603831161133057600061133f565b88856001600160701b03160383035b905060008211806113505750600081115b61138b5760405162461bcd60e51b81526004018080602001828103825260258152602001806136426025913960400191505060405180910390fd5b6113a76001600160701b0387811690871663ffffffff61291316565b6113b7858563ffffffff61291316565b10156113fb576040805162461bcd60e51b815260206004820152600e60248201526d2232a130b735a9bbb0b81d10259960911b604482015290519081900360640190fd5b61140784848888612a70565b60408051838152602081018390528082018c9052606081018b905290516001600160a01b038a169133917fd78ad95fa46c994b6551d0da85fc275fe613ce37657fb8d5e3d130840159d8229181900360800190a350506001601f555050505050505050565b604051806040016040528060088152602001672628102a37b5b2b760c11b81525081565b6005546007546001600160701b0380831693600160701b909304169163ffffffff90911690565b600554600160e01b900460ff1681565b60006114d4338484612e2f565b5060015b92915050565b601b5481565b6001546001600160a01b031681565b60156020526000908152604090208054600182015460029092015490919083565b601a5481565b60105481565b60185481565b6001600160a01b0383166000908152601460209081526040808320338452909152812054600019146115ab576001600160a01b0384166000908152601460209081526040808320338452909152902054611586908363ffffffff61297316565b6001600160a01b03851660009081526014602090815260408083203384529091529020555b6115b6848484612e91565b5060019392505050565b7f6e71edae12b1b97f4d1f60370fef10105fa2faae0126114a169c64845d6126c981565b601281565b601d6020526000908152604090208054600182015460028301546003909301546001600160a01b0390921692909184565b60115481565b600e5481565b6005546001600160701b031681565b6000546001600160a01b0316331461168c576040805162461bcd60e51b81526020600482015260156024820152742232a130b735a9bbb0b81d102327a92124a22222a760591b604482015290519081900360640190fd5b600855565b601e6020526000908152604090208054600182015460028301546003909301546001600160a01b0390921692909184565b60095481565b600a5481565b600554600160701b90046001600160701b031681565b600c5481565b6000601f54600114611738576040805162461bcd60e51b8152602060048201526012602482015271111950985b9ad4ddd85c0e881313d0d2d15160721b604482015290519081900360640190fd5b6000601f81905580611748611490565b50600354604080516370a0823160e01b815230600482015290519395509193506000926001600160a01b03909116916370a08231916024808301926020929190829003018186803b15801561179c57600080fd5b505afa1580156117b0573d6000803e3d6000fd5b505050506040513d60208110156117c657600080fd5b505160048054604080516370a0823160e01b81523093810193909352519293506000926001600160a01b03909116916370a08231916024808301926020929190829003018186803b15801561181a57600080fd5b505afa15801561182e573d6000803e3d6000fd5b505050506040513d602081101561184457600080fd5b505190506000611863836001600160701b03871663ffffffff61297316565b90506000611880836001600160701b03871663ffffffff61297316565b9050600061188e8787612f4b565b601054909150806118cb576118b76103e8610dcd6118b2878763ffffffff61291316565b6130a0565b98506118c660006103e86130f1565b61191a565b6119176001600160701b0389166118e8868463ffffffff61291316565b816118ef57fe5b046001600160701b03891661190a868563ffffffff61291316565b8161191157fe5b046131fc565b98505b600089116119595760405162461bcd60e51b81526004018080602001828103825260298152602001806136af6029913960400191505060405180910390fd5b6119638a8a6130f1565b61196f86868a8a612a70565b811561199f5760055461199b906001600160701b0380821691600160701b90041663ffffffff61291316565b600b555b6040805185815260208101859052815133927f4c209b5fc8ad50758f13e2e1088ba56a560dff690a1c6fef26394f4c03821c4f928290030190a250506001601f5550949695505050505050565b60006119f6613620565b50506001600160a01b038116600090815260156020908152604091829020825160608101845281548082526001830154938201939093526002909101549201919091525b919050565b60136020526000908152604090205481565b600b5481565b6000546001600160a01b03163314611aae576040805162461bcd60e51b81526020600482015260156024820152742232a130b735a9bbb0b81d102327a92124a22222a760591b604482015290519081900360640190fd5b60c8811115611af7576040805162461bcd60e51b815260206004820152601060248201526f0cccacaa4c2e8ca40e8dede40d0d2ced60831b604482015290519081900360640190fd5b600655565b60126020526000908152604090205481565b600080601f54600114611b5d576040805162461bcd60e51b8152602060048201526012602482015271111950985b9ad4ddd85c0e881313d0d2d15160721b604482015290519081900360640190fd5b6000601f81905580611b6d611490565b5060035460048054604080516370a0823160e01b81523093810193909352519496509294506001600160a01b0391821693919092169160009184916370a08231916024808301926020929190829003018186803b158015611bcd57600080fd5b505afa158015611be1573d6000803e3d6000fd5b505050506040513d6020811015611bf757600080fd5b5051604080516370a0823160e01b815230600482015290519192506000916001600160a01b038516916370a08231916024808301926020929190829003018186803b158015611c4557600080fd5b505afa158015611c59573d6000803e3d6000fd5b505050506040513d6020811015611c6f57600080fd5b5051306000908152601360205260409020549091506001600160a01b038a811690861614801590611cb25750836001600160a01b03168a6001600160a01b031614155b8015611d4257506000809054906101000a90046001600160a01b03166001600160a01b031663f887ea406040518163ffffffff1660e01b815260040160206040518083038186803b158015611d0657600080fd5b505afa158015611d1a573d6000803e3d6000fd5b505050506040513d6020811015611d3057600080fd5b50516001600160a01b038b8116911614155b15611daa576001600160a01b038a16600090815260156020526040902054811115611daa576040805162461bcd60e51b815260206004820152601360248201527237b7363c9037bbb732b91031b0b710313ab93760691b604482015290519081900360640190fd5b6000611db68888612f4b565b60105490915080611dcd848763ffffffff61291316565b81611dd457fe5b049a5080611de8848663ffffffff61291316565b81611def57fe5b04995060008b118015611e02575060008a115b611e3d5760405162461bcd60e51b81526004018080602001828103825260298152602001806136d86029913960400191505060405180910390fd5b611e473084613213565b611e52878d8d612781565b611e5d868d8c612781565b604080516370a0823160e01b815230600482015290516001600160a01b038916916370a08231916024808301926020929190829003018186803b158015611ea357600080fd5b505afa158015611eb7573d6000803e3d6000fd5b505050506040513d6020811015611ecd57600080fd5b5051604080516370a0823160e01b815230600482015290519196506001600160a01b038816916370a0823191602480820192602092909190829003018186803b158015611f1957600080fd5b505afa158015611f2d573d6000803e3d6000fd5b505050506040513d6020811015611f4357600080fd5b50519350611f5385858b8b612a70565b8115611f8357600554611f7f906001600160701b0380821691600160701b90041663ffffffff61291316565b600b555b604080518c8152602081018c905281516001600160a01b038f169233927fdccd412f0b1252819cb1fd330b93224ca42612892bb3f4f789976e6d81936496929081900390910190a35050505050505050506001601f81905550915091565b6003546001600160a01b031681565b60405180604001604052806003815260200162088caf60eb1b81525081565b60065481565b60175481565b60006114d4338484612e91565b6003546000906001600160a01b0384811691161480159061205757506004546001600160a01b03848116911614155b8061206b57506005546001600160701b0316155b806120865750600554600160701b90046001600160701b0316155b15612093575060006114d8565b6003546001600160a01b03848116911614156120e8576005546120e1906001600160701b03808216916120d591600160701b909104168563ffffffff61291316565b9063ffffffff61340a16565b90506114d8565b6005546120e1906001600160701b03600160701b82048116916120d591168563ffffffff61291316565b600d5481565b6103e881565b601f5460011461216a576040805162461bcd60e51b8152602060048201526012602482015271111950985b9ad4ddd85c0e881313d0d2d15160721b604482015290519081900360640190fd5b6000601f5560035460048054600554604080516370a0823160e01b81523094810194909452516001600160a01b03948516949092169261221c9285928792612217926001600160701b039092169185916370a08231916024808301926020929190829003018186803b1580156121df57600080fd5b505afa1580156121f3573d6000803e3d6000fd5b505050506040513d602081101561220957600080fd5b50519063ffffffff61297316565b612781565b600554604080516370a0823160e01b81523060048201529051612283928492879261221792600160701b90046001600160701b0316916001600160a01b038616916370a0823191602480820192602092909190829003018186803b1580156121df57600080fd5b50506001601f5550565b600f5481565b6000546001600160a01b031681565b601c5481565b6002546001600160a01b031681565b60165481565b42841015612302576040805162461bcd60e51b815260206004820152600d60248201526c14ddd85c0e8811561412549151609a1b604482015290519081900360640190fd5b6011546001600160a01b0380891660008181526012602090815260408083208054600180820190925582517f6e71edae12b1b97f4d1f60370fef10105fa2faae0126114a169c64845d6126c98186015280840196909652958d166060860152608085018c905260a085019590955260c08085018b90528151808603909101815260e08501825280519083012061190160f01b6101008601526101028501969096526101228085019690965280518085039096018652610142840180825286519683019690962095839052610162840180825286905260ff89166101828501526101a284018890526101c28401879052519193926101e280820193601f1981019281900390910190855afa15801561241d573d6000803e3d6000fd5b5050604051601f1901519150506001600160a01b038116158015906124535750886001600160a01b0316816001600160a01b0316145b6124a4576040805162461bcd60e51b815260206004820152601760248201527f537761703a20494e56414c49445f5349474e4154555245000000000000000000604482015290519081900360640190fd5b6124af898989612e2f565b505050505050505050565b6004546001600160a01b031681565b601460209081526000928352604080842090915290825290205481565b60195481565b60085481565b6000546001600160a01b03163314612549576040805162461bcd60e51b81526020600482015260156024820152742232a130b735a9bbb0b81d102327a92124a22222a760591b604482015290519081900360640190fd5b600180546001600160a01b03199081166001600160a01b0387811691909117909255600280548216868416179055600380548216858416179055600480549091168383161781556000546040805163f5b9848d60e01b81529051919093169263f5b9848d9281810192602092909190829003018186803b1580156125cc57600080fd5b505afa1580156125e0573d6000803e3d6000fd5b505050506040513d60208110156125f657600080fd5b505160085550505050565b60006114d86127106120d56006548561291390919063ffffffff16565b601f5460011461266a576040805162461bcd60e51b8152602060048201526012602482015271111950985b9ad4ddd85c0e881313d0d2d15160721b604482015290519081900360640190fd5b6000601f55600154604080516370a0823160e01b8152306004820152905161277a926001600160a01b0316916370a08231916024808301926020929190829003018186803b1580156126bb57600080fd5b505afa1580156126cf573d6000803e3d6000fd5b505050506040513d60208110156126e557600080fd5b5051600254604080516370a0823160e01b815230600482015290516001600160a01b03909216916370a0823191602480820192602092909190829003018186803b15801561273257600080fd5b505afa158015612746573d6000803e3d6000fd5b505050506040513d602081101561275c57600080fd5b50516005546001600160701b0380821691600160701b900416612a70565b6001601f55565b604080518082018252601981527f7472616e7366657228616464726573732c75696e74323536290000000000000060209182015281516001600160a01b0385811660248301526044808301869052845180840390910181526064909201845291810180516001600160e01b031663a9059cbb60e01b1781529251815160009460609489169392918291908083835b6020831061282e5780518252601f19909201916020918201910161280f565b6001836020036101000a0380198251168184511680821785525050505050509050019150506000604051808303816000865af19150503d8060008114612890576040519150601f19603f3d011682016040523d82523d6000602084013e612895565b606091505b50915091508180156128c35750805115806128c357508080602001905160208110156128c057600080fd5b50515b61290c576040805162461bcd60e51b815260206004820152601560248201527414ddd85c0e881514905394d1915497d19052531151605a1b604482015290519081900360640190fd5b5050505050565b600082612922575060006114d8565b8282028284828161292f57fe5b041461296c5760405162461bcd60e51b81526004018080602001828103825260218152602001806137016021913960400191505060405180910390fd5b9392505050565b600061296c83836040518060400160405280601e81526020017f536166654d6174683a207375627472616374696f6e206f766572666c6f77000081525061344c565b612a6b8383836040516024018080602001848152602001838152602001828103825285818151815260200191508051906020019080838360005b83811015612a075781810151838201526020016129ef565b50505050905090810190601f168015612a345780820380516001836020036101000a031916815260200191505b5060408051601f198184030181529190526020810180516001600160e01b031663969cdd0360e01b17905294506134e39350505050565b505050565b6001600160701b038411801590612a8e57506001600160701b038311155b612ad6576040805162461bcd60e51b8152602060048201526014602482015273446542616e6b537761703a204f564552464c4f5760601b604482015290519081900360640190fd5b60075463ffffffff428116918116820390811615801590612aff57506001600160701b03841615155b8015612b1357506001600160701b03831615155b15612b84578063ffffffff16612b4185612b2c86613504565b6001600160e01b03169063ffffffff61351616565b600980546001600160e01b03929092169290920201905563ffffffff8116612b6c84612b2c87613504565b600a80546001600160e01b0392909216929092020190555b600580546dffffffffffffffffffffffffffff19166001600160701b03888116919091176dffffffffffffffffffffffffffff60701b1916600160701b888316810291909117928390556007805463ffffffff191663ffffffff871617905560408051848416815291909304909116602082015281517f1c411e9a96e071241c2f21f7726b17ae89e3cab4c78be50e062b03a9fffbbad1929181900390910190a1505050505050565b436019541415612c4457601a805482019055612e2c565b601a5415612e2257600143036019541415612df15760008060009054906101000a90046001600160a01b03166001600160a01b031663f887ea406040518163ffffffff1660e01b815260040160206040518083038186803b158015612ca857600080fd5b505afa158015612cbc573d6000803e3d6000fd5b505050506040513d6020811015612cd257600080fd5b50516040805163226981cb60e21b815290519192506000916001600160a01b038416916389a6072c916004808301926020929190829003018186803b158015612d1a57600080fd5b505afa158015612d2e573d6000803e3d6000fd5b505050506040513d6020811015612d4457600080fd5b505160195460408051632a7edd8f60e21b81526004810192909252519192506000916001600160a01b0385169163a9fb763c916024808301926020929190829003018186803b158015612d9657600080fd5b505afa158015612daa573d6000803e3d6000fd5b505050506040513d6020811015612dc057600080fd5b5051601a54909150612ddf9083906120d590849063ffffffff61291316565b60178054909101905550612e22915050565b60006064601954430381612e0157fe5b04600101905080601a5481612e1257fe5b048201601a555043601955612e2c565b43601955601a8190555b50565b6001600160a01b03808416600081815260146020908152604080832094871680845294825291829020859055815185815291517f8c5be1e5ebec7d5bd14f71427d1e84f3dd0314c0f7b2291e5b200ac8c7c3b9259281900390910190a3505050565b6001600160a01b038316600090815260136020526040902054612eba908263ffffffff61297316565b6001600160a01b038085166000908152601360205260408082209390935590841681522054612eef908263ffffffff61353b16565b6001600160a01b0380841660008181526013602090815260409182902094909455805185815290519193928716927fddf252ad1be2c89b69c2b068fc378daa952ba7f163c4a11628f55a4df523b3ef92918290030190a3505050565b6000805460408051622fcfcb60e31b8152905183926001600160a01b03169163017e7e58916004808301926020929190829003018186803b158015612f8f57600080fd5b505afa158015612fa3573d6000803e3d6000fd5b505050506040513d6020811015612fb957600080fd5b5051600b546001600160a01b03821615801594509192509061308c578015613087576000612ffc6118b26001600160701b0388811690881663ffffffff61291316565b90506000613009836130a0565b905080821115613084576000613037613028848463ffffffff61297316565b6010549063ffffffff61291316565b90506000613060836130546008548761291390919063ffffffff16565b9063ffffffff61353b16565b9050600081838161306d57fe5b04905080156130805761308087826130f1565b5050505b50505b613098565b8015613098576000600b555b505092915050565b600060038211156130e3575080600160028204015b818110156130dd578091506002818285816130cc57fe5b0401816130d557fe5b0490506130b5565b50611a3a565b8115611a3a57506001919050565b6130f9613595565b6001600160a01b038216600090815260156020526040902080546131385781815560165461312e90839063ffffffff61291316565b6002820155613164565b6016805482546001840180549282029092019091558301808355905461315e9190612913565b60028201555b601054613177908363ffffffff61353b16565b6010556001600160a01b0383166000908152601360205260409020546131a3908363ffffffff61353b16565b6001600160a01b03841660008181526013602090815260408083209490945583518681529351929391927fddf252ad1be2c89b69c2b068fc378daa952ba7f163c4a11628f55a4df523b3ef9281900390910190a3505050565b60008183111561320c578161296c565b5090919050565b61321b613595565b6001600160a01b038216600090815260156020526040902060028101546001820154825460165402010380156133525760008060009054906101000a90046001600160a01b03166001600160a01b031663f887ea406040518163ffffffff1660e01b815260040160206040518083038186803b15801561329a57600080fd5b505afa1580156132ae573d6000803e3d6000fd5b505050506040513d60208110156132c457600080fd5b50516040805163f7c618c160e01b815290516001600160a01b039092169163f7c618c191600480820192602092909190829003018186803b15801561330857600080fd5b505afa15801561331c573d6000803e3d6000fd5b505050506040513d602081101561333257600080fd5b505190506001600160a01b0381161561335057613350818684612781565b505b815483900380835560006001840181905560165490910260028401556001600160a01b038516815260136020526040902054613394908463ffffffff61297316565b6001600160a01b0385166000908152601360205260409020556010546133c0908463ffffffff61297316565b6010556040805184815290516000916001600160a01b038716917fddf252ad1be2c89b69c2b068fc378daa952ba7f163c4a11628f55a4df523b3ef9181900360200190a350505050565b600061296c83836040518060400160405280601a81526020017f536166654d6174683a206469766973696f6e206279207a65726f0000000000008152506135bb565b600081848411156134db5760405162461bcd60e51b81526004018080602001828103825283818151815260200191508051906020019080838360005b838110156134a0578181015183820152602001613488565b50505050905090810190601f1680156134cd5780820380516001836020036101000a031916815260200191505b509250505060405180910390fd5b505050900390565b80516a636f6e736f6c652e6c6f67602083016000808483855afa5050505050565b6001600160701b0316600160701b0290565b60006001600160701b0382166001600160e01b0384168161353357fe5b049392505050565b60008282018381101561296c576040805162461bcd60e51b815260206004820152601b60248201527f536166654d6174683a206164646974696f6e206f766572666c6f770000000000604482015290519081900360640190fd5b61359f6000612c2d565b601054156135b957601054601754816135b457fe5b046016555b565b6000818361360a5760405162461bcd60e51b81526020600482018181528351602484015283519092839260449091019190850190808383600083156134a0578181015183820152602001613488565b50600083858161361657fe5b0495945050505050565b6040518060600160405280600081526020016000815260200160008152509056fe446542616e6b537761703a20494e53554646494349454e545f494e5055545f414d4f554e54446542616e6b537761703a20494e53554646494349454e545f4f55545055545f414d4f554e54446542616e6b537761703a20494e53554646494349454e545f4c4951554944495459446542616e6b537761703a20494e53554646494349454e545f4c49515549444954595f4d494e544544446542616e6b537761703a20494e53554646494349454e545f4c49515549444954595f4255524e4544536166654d6174683a206d756c7469706c69636174696f6e206f766572666c6f77a265627a7a72315820ce8595980383e6dfc97aeffd78aa33c25faba91ae78f1b35e307e9a7dd88c63264736f6c63430005100032454950373132446f6d61696e28737472696e67206e616d652c737472696e672076657273696f6e2c75696e7432353620636861696e49642c6164647265737320766572696679696e67436f6e7472616374294f776e61626c653a206e6577206f776e657220697320746865207a65726f206164647265737353776170466163746f72793a20494e53554646494349454e545f494e5055545f414d4f554e5453776170466163746f72793a20494e53554646494349454e545f4f55545055545f414d4f554e54446542616e6b53776170466163746f72793a204645455f544f5f524154455f4f564552464c4f57536166654d6174683a206d756c7469706c69636174696f6e206f766572666c6f774f776e61626c653a2063616c6c6572206973206e6f7420746865206f776e657253776170466163746f72793a20494e53554646494349454e545f4c4951554944495459a265627a7a72315820fc794ad8f4810b0de0f729da1408507e7e0d981b3796bf39341d005bd994743f64736f6c634300051000326080604052601e600655610320600c556c0c9f2c9cd04674edea40000000601b556001601f5534801561003157600080fd5b506040514690806052613875823960408051918290036052018220828201825260088352672628102a37b5b2b760c11b6020938401528151808301835260018152603160f81b908401528151808401919091527fc285f7cfebd35a59cb5c0c032add67fdc80dcde2f8127cb94e4b49a72469ed02818301527fc89efdaa54c0f20c7adf612882df0950f5a951637e0307cdcb4c672f298b8bc6606082015260808101949094523060a0808601919091528151808603909101815260c09094019052825192019190912060115550600080546001600160a01b031916331790556137568061011f6000396000f3fe608060405234801561001057600080fd5b50600436106103425760003560e01c806370a08231116101b8578063bc25cf7711610104578063d939fa8a116100a2578063f5b9848d1161007c578063f5b9848d1461093c578063f8c8765e14610944578063fcee45f414610982578063fff6cae91461099f57610342565b8063d939fa8a146108fe578063dd62ed3e14610906578063e12ed13c1461093457610342565b8063ca6158cb116100de578063ca6158cb14610895578063d21220a71461089d578063d2890a01146108a5578063d505accf146108ad57610342565b8063bc25cf771461085f578063be61dbe614610885578063c45a01551461088d57610342565b806395d89b4111610171578063a9059cbb1161014b578063a9059cbb146107f7578063ad9b802414610823578063b54b88c31461084f578063ba9a7a561461085757610342565b806395d89b41146107df578063978bbdb9146107e75780639ec5a894146107ef57610342565b806370a08231146107275780637464fc3d1461074d5780637b84fda5146107555780637ecebe001461077257806389afcb4414610798578063948023ab146107d757610342565b806330adf81f116102925780634a8393f3116102305780635a76f25e1161020a5780635a76f25e146106cb5780635a86bb2e146106d35780636a627842146106db5780636dbf2f7f1461070157610342565b80634a8393f31461069e5780635909c0d5146106bb5780635a3d5493146106c357610342565b80633644e5151161026c5780633644e5151461064d5780634354d01e14610655578063443cb4bc1461065d578063496cf3e41461068157610342565b806330adf81f146105da578063313ce567146105e257806335cea2881461060057610342565b80630aa2f420116102ff57806317560715116102d9578063175607151461058c57806318160ddd146105945780631df4ccfc1461059c57806323b872dd146105a457610342565b80630aa2f4201461050a5780630dfe16811461052457806314afd79e1461054857610342565b8063022c0d9f146103475780630442a865146103d557806306fdde031461040d5780630902f1ac1461048a57806309047bdd146104c2578063095ea7b3146104de575b600080fd5b6103d36004803603608081101561035d57600080fd5b8135916020810135916001600160a01b03604083013516919081019060808101606082013564010000000081111561039457600080fd5b8201836020820111156103a657600080fd5b803590602001918460018302840111640100000000831117156103c857600080fd5b5090925090506109a7565b005b6103d3600480360360808110156103eb57600080fd5b508035906020810135906001600160a01b036040820135169060600135610f6f565b61041561146c565b6040805160208082528351818301528351919283929083019185019080838360005b8381101561044f578181015183820152602001610437565b50505050905090810190601f16801561047c5780820380516001836020036101000a031916815260200191505b509250505060405180910390f35b610492611490565b604080516001600160701b03948516815292909316602083015263ffffffff168183015290519081900360600190f35b6104ca6114b7565b604080519115158252519081900360200190f35b6104ca600480360360408110156104f457600080fd5b506001600160a01b0381351690602001356114c7565b6105126114de565b60408051918252519081900360200190f35b61052c6114e4565b604080516001600160a01b039092168252519081900360200190f35b61056e6004803603602081101561055e57600080fd5b50356001600160a01b03166114f3565b60408051938452602084019290925282820152519081900360600190f35b610512611514565b61051261151a565b610512611520565b6104ca600480360360608110156105ba57600080fd5b506001600160a01b03813581169160208101359091169060400135611526565b6105126115c0565b6105ea6115e4565b6040805160ff9092168252519081900360200190f35b61061d6004803603602081101561061657600080fd5b50356115e9565b604080516001600160a01b0390951685526020850193909352838301919091526060830152519081900360800190f35b61051261161a565b610512611620565b610665611626565b604080516001600160701b039092168252519081900360200190f35b6103d36004803603602081101561069757600080fd5b5035611635565b61061d600480360360208110156106b457600080fd5b5035611691565b6105126116c2565b6105126116c8565b6106656116ce565b6105126116e4565b610512600480360360208110156106f157600080fd5b50356001600160a01b03166116ea565b6105126004803603602081101561071757600080fd5b50356001600160a01b03166119ec565b6105126004803603602081101561073d57600080fd5b50356001600160a01b0316611a3f565b610512611a51565b6103d36004803603602081101561076b57600080fd5b5035611a57565b6105126004803603602081101561078857600080fd5b50356001600160a01b0316611afc565b6107be600480360360208110156107ae57600080fd5b50356001600160a01b0316611b0e565b6040805192835260208301919091528051918290030190f35b61052c611fe1565b610415611ff0565b61051261200f565b610512612015565b6104ca6004803603604081101561080d57600080fd5b506001600160a01b03813516906020013561201b565b6105126004803603604081101561083957600080fd5b506001600160a01b038135169060200135612028565b610512612112565b610512612118565b6103d36004803603602081101561087557600080fd5b50356001600160a01b031661211e565b61051261228d565b61052c612293565b6105126122a2565b61052c6122a8565b6105126122b7565b6103d3600480360360e08110156108c357600080fd5b506001600160a01b03813581169160208101359091169060408101359060608101359060ff6080820135169060a08101359060c001356122bd565b61052c6124ba565b6105126004803603604081101561091c57600080fd5b506001600160a01b03813581169160200135166124c9565b6105126124e6565b6105126124ec565b6103d36004803603608081101561095a57600080fd5b506001600160a01b0381358116916020810135821691604082013581169160600135166124f2565b6105126004803603602081101561099857600080fd5b5035612601565b6103d361261e565b601f546001146109f3576040805162461bcd60e51b8152602060048201526012602482015271111950985b9ad4ddd85c0e881313d0d2d15160721b604482015290519081900360640190fd5b6000601f5584151580610a065750600084115b610a415760405162461bcd60e51b81526004018080602001828103825260268152602001806136676026913960400191505060405180910390fd5b600080610a4c611490565b5091509150816001600160701b031687108015610a715750806001600160701b031686105b610aac5760405162461bcd60e51b815260040180806020018281038252602281526020018061368d6022913960400191505060405180910390fd5b60035460045460009182916001600160a01b03918216919081169089168214801590610aea5750806001600160a01b0316896001600160a01b031614155b610b34576040805162461bcd60e51b8152602060048201526016602482015275446542616e6b537761703a20494e56414c49445f544f60501b604482015290519081900360640190fd5b8a15610b4557610b45828a8d612781565b8915610b5657610b56818a8c612781565b8615610c1157886001600160a01b031663226dc882338d8d8c8c6040518663ffffffff1660e01b815260040180866001600160a01b03166001600160a01b03168152602001858152602001848152602001806020018281038252848482818152602001925080828437600081840152601f19601f8201169050808301925050509650505050505050600060405180830381600087803b158015610bf857600080fd5b505af1158015610c0c573d6000803e3d6000fd5b505050505b604080516370a0823160e01b815230600482015290516001600160a01b038416916370a08231916024808301926020929190829003018186803b158015610c5757600080fd5b505afa158015610c6b573d6000803e3d6000fd5b505050506040513d6020811015610c8157600080fd5b5051604080516370a0823160e01b815230600482015290519195506001600160a01b038316916370a0823191602480820192602092909190829003018186803b158015610ccd57600080fd5b505afa158015610ce1573d6000803e3d6000fd5b505050506040513d6020811015610cf757600080fd5b5051925060009150506001600160701b0385168a90038311610d1a576000610d29565b89856001600160701b03160383035b9050600089856001600160701b0316038311610d46576000610d55565b89856001600160701b03160383035b90506000821180610d665750600081115b610da15760405162461bcd60e51b81526004018080602001828103825260258152602001806136426025913960400191505060405180910390fd5b6000610dd9610dbb6006548561291390919063ffffffff16565b610dcd8761271063ffffffff61291316565b9063ffffffff61297316565b90506000610df5610dbb6006548561291390919063ffffffff16565b9050610e376040518060400160405280601b81526020017f616d6f756e7430496e3a20256420616d6f756e7431496e3a202564000000000081525085856129b5565b610e776040518060400160405280601781526020017f62616c616e636541646a75737465643a2025642020256400000000000000000081525083836129b5565b610ea76305f5e100610e9b6001600160701b038b8116908b1663ffffffff61291316565b9063ffffffff61291316565b610eb7838363ffffffff61291316565b1015610efb576040805162461bcd60e51b815260206004820152600e60248201526d446542616e6b537761703a204b3160901b604482015290519081900360640190fd5b5050610f0984848888612a70565b60408051838152602081018390528082018d9052606081018c905290516001600160a01b038b169133917fd78ad95fa46c994b6551d0da85fc275fe613ce37657fb8d5e3d130840159d8229181900360800190a350506001601f55505050505050505050565b601f54600114610fbb576040805162461bcd60e51b8152602060048201526012602482015271111950985b9ad4ddd85c0e881313d0d2d15160721b604482015290519081900360640190fd5b6000601f81905554604080516303e21fa960e61b815290516001600160a01b039092169163f887ea4091600480820192602092909190829003018186803b15801561100557600080fd5b505afa158015611019573d6000803e3d6000fd5b505050506040513d602081101561102f57600080fd5b50516001600160a01b0316331461108d576040805162461bcd60e51b815260206004820152601760248201527f446542616e6b537761703a20726f75746572206f6e6c79000000000000000000604482015290519081900360640190fd5b801561109c5761109c81612c2d565b60008411806110ab5750600083115b6110e65760405162461bcd60e51b81526004018080602001828103825260268152602001806136676026913960400191505060405180910390fd5b6000806110f1611490565b5091509150816001600160701b0316861080156111165750806001600160701b031685105b6111515760405162461bcd60e51b815260040180806020018281038252602281526020018061368d6022913960400191505060405180910390fd5b60035460045460009182916001600160a01b0391821691908116908816821480159061118f5750806001600160a01b0316886001600160a01b031614155b6111d9576040805162461bcd60e51b8152602060048201526016602482015275446542616e6b537761703a20494e56414c49445f544f60501b604482015290519081900360640190fd5b89156111ea576111ea82898c612781565b88156111fb576111fb81898b612781565b604080516370a0823160e01b815230600482015290516001600160a01b038416916370a08231916024808301926020929190829003018186803b15801561124157600080fd5b505afa158015611255573d6000803e3d6000fd5b505050506040513d602081101561126b57600080fd5b5051604080516370a0823160e01b815230600482015290519195506001600160a01b038316916370a0823191602480820192602092909190829003018186803b1580156112b757600080fd5b505afa1580156112cb573d6000803e3d6000fd5b505050506040513d60208110156112e157600080fd5b5051925060009150506001600160701b0385168990038311611304576000611313565b88856001600160701b03160383035b9050600088856001600160701b031603831161133057600061133f565b88856001600160701b03160383035b905060008211806113505750600081115b61138b5760405162461bcd60e51b81526004018080602001828103825260258152602001806136426025913960400191505060405180910390fd5b6113a76001600160701b0387811690871663ffffffff61291316565b6113b7858563ffffffff61291316565b10156113fb576040805162461bcd60e51b815260206004820152600e60248201526d2232a130b735a9bbb0b81d10259960911b604482015290519081900360640190fd5b61140784848888612a70565b60408051838152602081018390528082018c9052606081018b905290516001600160a01b038a169133917fd78ad95fa46c994b6551d0da85fc275fe613ce37657fb8d5e3d130840159d8229181900360800190a350506001601f555050505050505050565b604051806040016040528060088152602001672628102a37b5b2b760c11b81525081565b6005546007546001600160701b0380831693600160701b909304169163ffffffff90911690565b600554600160e01b900460ff1681565b60006114d4338484612e2f565b5060015b92915050565b601b5481565b6001546001600160a01b031681565b60156020526000908152604090208054600182015460029092015490919083565b601a5481565b60105481565b60185481565b6001600160a01b0383166000908152601460209081526040808320338452909152812054600019146115ab576001600160a01b0384166000908152601460209081526040808320338452909152902054611586908363ffffffff61297316565b6001600160a01b03851660009081526014602090815260408083203384529091529020555b6115b6848484612e91565b5060019392505050565b7f6e71edae12b1b97f4d1f60370fef10105fa2faae0126114a169c64845d6126c981565b601281565b601d6020526000908152604090208054600182015460028301546003909301546001600160a01b0390921692909184565b60115481565b600e5481565b6005546001600160701b031681565b6000546001600160a01b0316331461168c576040805162461bcd60e51b81526020600482015260156024820152742232a130b735a9bbb0b81d102327a92124a22222a760591b604482015290519081900360640190fd5b600855565b601e6020526000908152604090208054600182015460028301546003909301546001600160a01b0390921692909184565b60095481565b600a5481565b600554600160701b90046001600160701b031681565b600c5481565b6000601f54600114611738576040805162461bcd60e51b8152602060048201526012602482015271111950985b9ad4ddd85c0e881313d0d2d15160721b604482015290519081900360640190fd5b6000601f81905580611748611490565b50600354604080516370a0823160e01b815230600482015290519395509193506000926001600160a01b03909116916370a08231916024808301926020929190829003018186803b15801561179c57600080fd5b505afa1580156117b0573d6000803e3d6000fd5b505050506040513d60208110156117c657600080fd5b505160048054604080516370a0823160e01b81523093810193909352519293506000926001600160a01b03909116916370a08231916024808301926020929190829003018186803b15801561181a57600080fd5b505afa15801561182e573d6000803e3d6000fd5b505050506040513d602081101561184457600080fd5b505190506000611863836001600160701b03871663ffffffff61297316565b90506000611880836001600160701b03871663ffffffff61297316565b9050600061188e8787612f4b565b601054909150806118cb576118b76103e8610dcd6118b2878763ffffffff61291316565b6130a0565b98506118c660006103e86130f1565b61191a565b6119176001600160701b0389166118e8868463ffffffff61291316565b816118ef57fe5b046001600160701b03891661190a868563ffffffff61291316565b8161191157fe5b046131fc565b98505b600089116119595760405162461bcd60e51b81526004018080602001828103825260298152602001806136af6029913960400191505060405180910390fd5b6119638a8a6130f1565b61196f86868a8a612a70565b811561199f5760055461199b906001600160701b0380821691600160701b90041663ffffffff61291316565b600b555b6040805185815260208101859052815133927f4c209b5fc8ad50758f13e2e1088ba56a560dff690a1c6fef26394f4c03821c4f928290030190a250506001601f5550949695505050505050565b60006119f6613620565b50506001600160a01b038116600090815260156020908152604091829020825160608101845281548082526001830154938201939093526002909101549201919091525b919050565b60136020526000908152604090205481565b600b5481565b6000546001600160a01b03163314611aae576040805162461bcd60e51b81526020600482015260156024820152742232a130b735a9bbb0b81d102327a92124a22222a760591b604482015290519081900360640190fd5b60c8811115611af7576040805162461bcd60e51b815260206004820152601060248201526f0cccacaa4c2e8ca40e8dede40d0d2ced60831b604482015290519081900360640190fd5b600655565b60126020526000908152604090205481565b600080601f54600114611b5d576040805162461bcd60e51b8152602060048201526012602482015271111950985b9ad4ddd85c0e881313d0d2d15160721b604482015290519081900360640190fd5b6000601f81905580611b6d611490565b5060035460048054604080516370a0823160e01b81523093810193909352519496509294506001600160a01b0391821693919092169160009184916370a08231916024808301926020929190829003018186803b158015611bcd57600080fd5b505afa158015611be1573d6000803e3d6000fd5b505050506040513d6020811015611bf757600080fd5b5051604080516370a0823160e01b815230600482015290519192506000916001600160a01b038516916370a08231916024808301926020929190829003018186803b158015611c4557600080fd5b505afa158015611c59573d6000803e3d6000fd5b505050506040513d6020811015611c6f57600080fd5b5051306000908152601360205260409020549091506001600160a01b038a811690861614801590611cb25750836001600160a01b03168a6001600160a01b031614155b8015611d4257506000809054906101000a90046001600160a01b03166001600160a01b031663f887ea406040518163ffffffff1660e01b815260040160206040518083038186803b158015611d0657600080fd5b505afa158015611d1a573d6000803e3d6000fd5b505050506040513d6020811015611d3057600080fd5b50516001600160a01b038b8116911614155b15611daa576001600160a01b038a16600090815260156020526040902054811115611daa576040805162461bcd60e51b815260206004820152601360248201527237b7363c9037bbb732b91031b0b710313ab93760691b604482015290519081900360640190fd5b6000611db68888612f4b565b60105490915080611dcd848763ffffffff61291316565b81611dd457fe5b049a5080611de8848663ffffffff61291316565b81611def57fe5b04995060008b118015611e02575060008a115b611e3d5760405162461bcd60e51b81526004018080602001828103825260298152602001806136d86029913960400191505060405180910390fd5b611e473084613213565b611e52878d8d612781565b611e5d868d8c612781565b604080516370a0823160e01b815230600482015290516001600160a01b038916916370a08231916024808301926020929190829003018186803b158015611ea357600080fd5b505afa158015611eb7573d6000803e3d6000fd5b505050506040513d6020811015611ecd57600080fd5b5051604080516370a0823160e01b815230600482015290519196506001600160a01b038816916370a0823191602480820192602092909190829003018186803b158015611f1957600080fd5b505afa158015611f2d573d6000803e3d6000fd5b505050506040513d6020811015611f4357600080fd5b50519350611f5385858b8b612a70565b8115611f8357600554611f7f906001600160701b0380821691600160701b90041663ffffffff61291316565b600b555b604080518c8152602081018c905281516001600160a01b038f169233927fdccd412f0b1252819cb1fd330b93224ca42612892bb3f4f789976e6d81936496929081900390910190a35050505050505050506001601f81905550915091565b6003546001600160a01b031681565b60405180604001604052806003815260200162088caf60eb1b81525081565b60065481565b60175481565b60006114d4338484612e91565b6003546000906001600160a01b0384811691161480159061205757506004546001600160a01b03848116911614155b8061206b57506005546001600160701b0316155b806120865750600554600160701b90046001600160701b0316155b15612093575060006114d8565b6003546001600160a01b03848116911614156120e8576005546120e1906001600160701b03808216916120d591600160701b909104168563ffffffff61291316565b9063ffffffff61340a16565b90506114d8565b6005546120e1906001600160701b03600160701b82048116916120d591168563ffffffff61291316565b600d5481565b6103e881565b601f5460011461216a576040805162461bcd60e51b8152602060048201526012602482015271111950985b9ad4ddd85c0e881313d0d2d15160721b604482015290519081900360640190fd5b6000601f5560035460048054600554604080516370a0823160e01b81523094810194909452516001600160a01b03948516949092169261221c9285928792612217926001600160701b039092169185916370a08231916024808301926020929190829003018186803b1580156121df57600080fd5b505afa1580156121f3573d6000803e3d6000fd5b505050506040513d602081101561220957600080fd5b50519063ffffffff61297316565b612781565b600554604080516370a0823160e01b81523060048201529051612283928492879261221792600160701b90046001600160701b0316916001600160a01b038616916370a0823191602480820192602092909190829003018186803b1580156121df57600080fd5b50506001601f5550565b600f5481565b6000546001600160a01b031681565b601c5481565b6002546001600160a01b031681565b60165481565b42841015612302576040805162461bcd60e51b815260206004820152600d60248201526c14ddd85c0e8811561412549151609a1b604482015290519081900360640190fd5b6011546001600160a01b0380891660008181526012602090815260408083208054600180820190925582517f6e71edae12b1b97f4d1f60370fef10105fa2faae0126114a169c64845d6126c98186015280840196909652958d166060860152608085018c905260a085019590955260c08085018b90528151808603909101815260e08501825280519083012061190160f01b6101008601526101028501969096526101228085019690965280518085039096018652610142840180825286519683019690962095839052610162840180825286905260ff89166101828501526101a284018890526101c28401879052519193926101e280820193601f1981019281900390910190855afa15801561241d573d6000803e3d6000fd5b5050604051601f1901519150506001600160a01b038116158015906124535750886001600160a01b0316816001600160a01b0316145b6124a4576040805162461bcd60e51b815260206004820152601760248201527f537761703a20494e56414c49445f5349474e4154555245000000000000000000604482015290519081900360640190fd5b6124af898989612e2f565b505050505050505050565b6004546001600160a01b031681565b601460209081526000928352604080842090915290825290205481565b60195481565b60085481565b6000546001600160a01b03163314612549576040805162461bcd60e51b81526020600482015260156024820152742232a130b735a9bbb0b81d102327a92124a22222a760591b604482015290519081900360640190fd5b600180546001600160a01b03199081166001600160a01b0387811691909117909255600280548216868416179055600380548216858416179055600480549091168383161781556000546040805163f5b9848d60e01b81529051919093169263f5b9848d9281810192602092909190829003018186803b1580156125cc57600080fd5b505afa1580156125e0573d6000803e3d6000fd5b505050506040513d60208110156125f657600080fd5b505160085550505050565b60006114d86127106120d56006548561291390919063ffffffff16565b601f5460011461266a576040805162461bcd60e51b8152602060048201526012602482015271111950985b9ad4ddd85c0e881313d0d2d15160721b604482015290519081900360640190fd5b6000601f55600154604080516370a0823160e01b8152306004820152905161277a926001600160a01b0316916370a08231916024808301926020929190829003018186803b1580156126bb57600080fd5b505afa1580156126cf573d6000803e3d6000fd5b505050506040513d60208110156126e557600080fd5b5051600254604080516370a0823160e01b815230600482015290516001600160a01b03909216916370a0823191602480820192602092909190829003018186803b15801561273257600080fd5b505afa158015612746573d6000803e3d6000fd5b505050506040513d602081101561275c57600080fd5b50516005546001600160701b0380821691600160701b900416612a70565b6001601f55565b604080518082018252601981527f7472616e7366657228616464726573732c75696e74323536290000000000000060209182015281516001600160a01b0385811660248301526044808301869052845180840390910181526064909201845291810180516001600160e01b031663a9059cbb60e01b1781529251815160009460609489169392918291908083835b6020831061282e5780518252601f19909201916020918201910161280f565b6001836020036101000a0380198251168184511680821785525050505050509050019150506000604051808303816000865af19150503d8060008114612890576040519150601f19603f3d011682016040523d82523d6000602084013e612895565b606091505b50915091508180156128c35750805115806128c357508080602001905160208110156128c057600080fd5b50515b61290c576040805162461bcd60e51b815260206004820152601560248201527414ddd85c0e881514905394d1915497d19052531151605a1b604482015290519081900360640190fd5b5050505050565b600082612922575060006114d8565b8282028284828161292f57fe5b041461296c5760405162461bcd60e51b81526004018080602001828103825260218152602001806137016021913960400191505060405180910390fd5b9392505050565b600061296c83836040518060400160405280601e81526020017f536166654d6174683a207375627472616374696f6e206f766572666c6f77000081525061344c565b612a6b8383836040516024018080602001848152602001838152602001828103825285818151815260200191508051906020019080838360005b83811015612a075781810151838201526020016129ef565b50505050905090810190601f168015612a345780820380516001836020036101000a031916815260200191505b5060408051601f198184030181529190526020810180516001600160e01b031663969cdd0360e01b17905294506134e39350505050565b505050565b6001600160701b038411801590612a8e57506001600160701b038311155b612ad6576040805162461bcd60e51b8152602060048201526014602482015273446542616e6b537761703a204f564552464c4f5760601b604482015290519081900360640190fd5b60075463ffffffff428116918116820390811615801590612aff57506001600160701b03841615155b8015612b1357506001600160701b03831615155b15612b84578063ffffffff16612b4185612b2c86613504565b6001600160e01b03169063ffffffff61351616565b600980546001600160e01b03929092169290920201905563ffffffff8116612b6c84612b2c87613504565b600a80546001600160e01b0392909216929092020190555b600580546dffffffffffffffffffffffffffff19166001600160701b03888116919091176dffffffffffffffffffffffffffff60701b1916600160701b888316810291909117928390556007805463ffffffff191663ffffffff871617905560408051848416815291909304909116602082015281517f1c411e9a96e071241c2f21f7726b17ae89e3cab4c78be50e062b03a9fffbbad1929181900390910190a1505050505050565b436019541415612c4457601a805482019055612e2c565b601a5415612e2257600143036019541415612df15760008060009054906101000a90046001600160a01b03166001600160a01b031663f887ea406040518163ffffffff1660e01b815260040160206040518083038186803b158015612ca857600080fd5b505afa158015612cbc573d6000803e3d6000fd5b505050506040513d6020811015612cd257600080fd5b50516040805163226981cb60e21b815290519192506000916001600160a01b038416916389a6072c916004808301926020929190829003018186803b158015612d1a57600080fd5b505afa158015612d2e573d6000803e3d6000fd5b505050506040513d6020811015612d4457600080fd5b505160195460408051632a7edd8f60e21b81526004810192909252519192506000916001600160a01b0385169163a9fb763c916024808301926020929190829003018186803b158015612d9657600080fd5b505afa158015612daa573d6000803e3d6000fd5b505050506040513d6020811015612dc057600080fd5b5051601a54909150612ddf9083906120d590849063ffffffff61291316565b60178054909101905550612e22915050565b60006064601954430381612e0157fe5b04600101905080601a5481612e1257fe5b048201601a555043601955612e2c565b43601955601a8190555b50565b6001600160a01b03808416600081815260146020908152604080832094871680845294825291829020859055815185815291517f8c5be1e5ebec7d5bd14f71427d1e84f3dd0314c0f7b2291e5b200ac8c7c3b9259281900390910190a3505050565b6001600160a01b038316600090815260136020526040902054612eba908263ffffffff61297316565b6001600160a01b038085166000908152601360205260408082209390935590841681522054612eef908263ffffffff61353b16565b6001600160a01b0380841660008181526013602090815260409182902094909455805185815290519193928716927fddf252ad1be2c89b69c2b068fc378daa952ba7f163c4a11628f55a4df523b3ef92918290030190a3505050565b6000805460408051622fcfcb60e31b8152905183926001600160a01b03169163017e7e58916004808301926020929190829003018186803b158015612f8f57600080fd5b505afa158015612fa3573d6000803e3d6000fd5b505050506040513d6020811015612fb957600080fd5b5051600b546001600160a01b03821615801594509192509061308c578015613087576000612ffc6118b26001600160701b0388811690881663ffffffff61291316565b90506000613009836130a0565b905080821115613084576000613037613028848463ffffffff61297316565b6010549063ffffffff61291316565b90506000613060836130546008548761291390919063ffffffff16565b9063ffffffff61353b16565b9050600081838161306d57fe5b04905080156130805761308087826130f1565b5050505b50505b613098565b8015613098576000600b555b505092915050565b600060038211156130e3575080600160028204015b818110156130dd578091506002818285816130cc57fe5b0401816130d557fe5b0490506130b5565b50611a3a565b8115611a3a57506001919050565b6130f9613595565b6001600160a01b038216600090815260156020526040902080546131385781815560165461312e90839063ffffffff61291316565b6002820155613164565b6016805482546001840180549282029092019091558301808355905461315e9190612913565b60028201555b601054613177908363ffffffff61353b16565b6010556001600160a01b0383166000908152601360205260409020546131a3908363ffffffff61353b16565b6001600160a01b03841660008181526013602090815260408083209490945583518681529351929391927fddf252ad1be2c89b69c2b068fc378daa952ba7f163c4a11628f55a4df523b3ef9281900390910190a3505050565b60008183111561320c578161296c565b5090919050565b61321b613595565b6001600160a01b038216600090815260156020526040902060028101546001820154825460165402010380156133525760008060009054906101000a90046001600160a01b03166001600160a01b031663f887ea406040518163ffffffff1660e01b815260040160206040518083038186803b15801561329a57600080fd5b505afa1580156132ae573d6000803e3d6000fd5b505050506040513d60208110156132c457600080fd5b50516040805163f7c618c160e01b815290516001600160a01b039092169163f7c618c191600480820192602092909190829003018186803b15801561330857600080fd5b505afa15801561331c573d6000803e3d6000fd5b505050506040513d602081101561333257600080fd5b505190506001600160a01b0381161561335057613350818684612781565b505b815483900380835560006001840181905560165490910260028401556001600160a01b038516815260136020526040902054613394908463ffffffff61297316565b6001600160a01b0385166000908152601360205260409020556010546133c0908463ffffffff61297316565b6010556040805184815290516000916001600160a01b038716917fddf252ad1be2c89b69c2b068fc378daa952ba7f163c4a11628f55a4df523b3ef9181900360200190a350505050565b600061296c83836040518060400160405280601a81526020017f536166654d6174683a206469766973696f6e206279207a65726f0000000000008152506135bb565b600081848411156134db5760405162461bcd60e51b81526004018080602001828103825283818151815260200191508051906020019080838360005b838110156134a0578181015183820152602001613488565b50505050905090810190601f1680156134cd5780820380516001836020036101000a031916815260200191505b509250505060405180910390fd5b505050900390565b80516a636f6e736f6c652e6c6f67602083016000808483855afa5050505050565b6001600160701b0316600160701b0290565b60006001600160701b0382166001600160e01b0384168161353357fe5b049392505050565b60008282018381101561296c576040805162461bcd60e51b815260206004820152601b60248201527f536166654d6174683a206164646974696f6e206f766572666c6f770000000000604482015290519081900360640190fd5b61359f6000612c2d565b601054156135b957601054601754816135b457fe5b046016555b565b6000818361360a5760405162461bcd60e51b81526020600482018181528351602484015283519092839260449091019190850190808383600083156134a0578181015183820152602001613488565b50600083858161361657fe5b0495945050505050565b6040518060600160405280600081526020016000815260200160008152509056fe446542616e6b537761703a20494e53554646494349454e545f494e5055545f414d4f554e54446542616e6b537761703a20494e53554646494349454e545f4f55545055545f414d4f554e54446542616e6b537761703a20494e53554646494349454e545f4c4951554944495459446542616e6b537761703a20494e53554646494349454e545f4c49515549444954595f4d494e544544446542616e6b537761703a20494e53554646494349454e545f4c49515549444954595f4255524e4544536166654d6174683a206d756c7469706c69636174696f6e206f766572666c6f77a265627a7a72315820ce8595980383e6dfc97aeffd78aa33c25faba91ae78f1b35e307e9a7dd88c63264736f6c63430005100032454950373132446f6d61696e28737472696e67206e616d652c737472696e672076657273696f6e2c75696e7432353620636861696e49642c6164647265737320766572696679696e67436f6e747261637429",
  "devdoc": {
    "methods": {
      "isOwner()": {
        "details": "Returns true if the caller is the current owner."
      },
      "owner()": {
        "details": "Returns the address of the current owner."
      },
      "renounceOwnership()": {
        "details": "Leaves the contract without owner. It will not be possible to call `onlyOwner` functions anymore. Can only be called by the current owner.     * NOTE: Renouncing ownership will leave the contract without an owner, thereby removing any functionality that is only available to the owner."
      },
      "transferOwnership(address)": {
        "details": "Transfers ownership of the contract to a new account (`newOwner`). Can only be called by the current owner."
      }
    }
  },
  "userdoc": {
    "methods": {}
  },
  "storageLayout": {
    "storage": [
      {
        "astId": 220,
        "contract": "contracts/swap/heco/Factory.sol:DeBankFactory",
        "label": "_owner",
        "offset": 0,
        "slot": "0",
        "type": "t_address"
      },
      {
        "astId": 27205,
        "contract": "contracts/swap/heco/Factory.sol:DeBankFactory",
        "label": "feeTo",
        "offset": 0,
        "slot": "1",
        "type": "t_address"
      },
      {
        "astId": 27208,
        "contract": "contracts/swap/heco/Factory.sol:DeBankFactory",
        "label": "lpFeeRate",
        "offset": 0,
        "slot": "2",
        "type": "t_uint256"
      },
      {
        "astId": 27210,
        "contract": "contracts/swap/heco/Factory.sol:DeBankFactory",
        "label": "anchorToken",
        "offset": 0,
        "slot": "3",
        "type": "t_address"
      },
      {
        "astId": 27212,
        "contract": "contracts/swap/heco/Factory.sol:DeBankFactory",
        "label": "router",
        "offset": 0,
        "slot": "4",
        "type": "t_address"
      },
      {
        "astId": 27214,
        "contract": "contracts/swap/heco/Factory.sol:DeBankFactory",
        "label": "initCodeHash",
        "offset": 0,
        "slot": "5",
        "type": "t_bytes32"
      },
      {
        "astId": 27216,
        "contract": "contracts/swap/heco/Factory.sol:DeBankFactory",
        "label": "lErc20DelegatorFactory",
        "offset": 0,
        "slot": "6",
        "type": "t_contract(LErc20DelegatorInterface)39718"
      },
      {
        "astId": 27220,
        "contract": "contracts/swap/heco/Factory.sol:DeBankFactory",
        "label": "feeRateOf",
        "offset": 0,
        "slot": "7",
        "type": "t_mapping(t_address,t_uint256)"
      },
      {
        "astId": 27226,
        "contract": "contracts/swap/heco/Factory.sol:DeBankFactory",
        "label": "getPair",
        "offset": 0,
        "slot": "8",
        "type": "t_mapping(t_address,t_mapping(t_address,t_address))"
      },
      {
        "astId": 27229,
        "contract": "contracts/swap/heco/Factory.sol:DeBankFactory",
        "label": "allPairs",
        "offset": 0,
        "slot": "9",
        "type": "t_array(t_address)dyn_storage"
      }
    ],
    "types": {
      "t_address": {
        "encoding": "inplace",
        "label": "address",
        "numberOfBytes": "20"
      },
      "t_array(t_address)dyn_storage": {
        "base": "t_address",
        "encoding": "dynamic_array",
        "label": "address[]",
        "numberOfBytes": "32"
      },
      "t_bytes32": {
        "encoding": "inplace",
        "label": "bytes32",
        "numberOfBytes": "32"
      },
      "t_contract(LErc20DelegatorInterface)39718": {
        "encoding": "inplace",
        "label": "contract LErc20DelegatorInterface",
        "numberOfBytes": "20"
      },
      "t_mapping(t_address,t_address)": {
        "encoding": "mapping",
        "key": "t_address",
        "label": "mapping(address => address)",
        "numberOfBytes": "32",
        "value": "t_address"
      },
      "t_mapping(t_address,t_mapping(t_address,t_address))": {
        "encoding": "mapping",
        "key": "t_address",
        "label": "mapping(address => mapping(address => address))",
        "numberOfBytes": "32",
        "value": "t_mapping(t_address,t_address)"
      },
      "t_mapping(t_address,t_uint256)": {
        "encoding": "mapping",
        "key": "t_address",
        "label": "mapping(address => uint256)",
        "numberOfBytes": "32",
        "value": "t_uint256"
      },
      "t_uint256": {
        "encoding": "inplace",
        "label": "uint256",
        "numberOfBytes": "32"
      }
    }
  }
}