{
  "address": "0xe1AD4142582af95A8Adb2739A026310E2F8D0173",
  "abi": [
    {
      "inputs": [
        {
          "internalType": "address",
          "name": "_factory",
          "type": "address"
        },
        {
          "internalType": "address",
          "name": "_WHT",
          "type": "address"
        },
        {
          "internalType": "address",
          "name": "_cWHT",
          "type": "address"
        },
        {
          "internalType": "uint256",
          "name": "_startBlock",
          "type": "uint256"
        }
      ],
      "payable": false,
      "stateMutability": "nonpayable",
      "type": "constructor"
    },
    {
      "anonymous": false,
      "inputs": [
        {
          "indexed": true,
          "internalType": "address",
          "name": "previousOwner",
          "type": "address"
        },
        {
          "indexed": true,
          "internalType": "address",
          "name": "newOwner",
          "type": "address"
        }
      ],
      "name": "OwnershipTransferred",
      "type": "event"
    },
    {
      "payable": true,
      "stateMutability": "payable",
      "type": "fallback"
    },
    {
      "constant": true,
      "inputs": [],
      "name": "WHT",
      "outputs": [
        {
          "internalType": "address",
          "name": "",
          "type": "address"
        }
      ],
      "payable": false,
      "stateMutability": "view",
      "type": "function"
    },
    {
      "constant": false,
      "inputs": [
        {
          "internalType": "address",
          "name": "tokenA",
          "type": "address"
        },
        {
          "internalType": "address",
          "name": "tokenB",
          "type": "address"
        },
        {
          "internalType": "uint256",
          "name": "amountADesired",
          "type": "uint256"
        },
        {
          "internalType": "uint256",
          "name": "amountBDesired",
          "type": "uint256"
        },
        {
          "internalType": "uint256",
          "name": "amountAMin",
          "type": "uint256"
        },
        {
          "internalType": "uint256",
          "name": "amountBMin",
          "type": "uint256"
        },
        {
          "internalType": "address",
          "name": "to",
          "type": "address"
        },
        {
          "internalType": "uint256",
          "name": "deadline",
          "type": "uint256"
        }
      ],
      "name": "addLiquidity",
      "outputs": [
        {
          "internalType": "uint256",
          "name": "amountA",
          "type": "uint256"
        },
        {
          "internalType": "uint256",
          "name": "amountB",
          "type": "uint256"
        },
        {
          "internalType": "uint256",
          "name": "liquidity",
          "type": "uint256"
        }
      ],
      "payable": false,
      "stateMutability": "nonpayable",
      "type": "function"
    },
    {
      "constant": false,
      "inputs": [
        {
          "internalType": "address",
          "name": "token",
          "type": "address"
        },
        {
          "internalType": "uint256",
          "name": "amountTokenDesired",
          "type": "uint256"
        },
        {
          "internalType": "uint256",
          "name": "amountTokenMin",
          "type": "uint256"
        },
        {
          "internalType": "uint256",
          "name": "amountETHMin",
          "type": "uint256"
        },
        {
          "internalType": "address",
          "name": "to",
          "type": "address"
        },
        {
          "internalType": "uint256",
          "name": "deadline",
          "type": "uint256"
        }
      ],
      "name": "addLiquidityETHUnderlying",
      "outputs": [
        {
          "internalType": "uint256",
          "name": "amountToken",
          "type": "uint256"
        },
        {
          "internalType": "uint256",
          "name": "amountETH",
          "type": "uint256"
        },
        {
          "internalType": "uint256",
          "name": "liquidity",
          "type": "uint256"
        }
      ],
      "payable": true,
      "stateMutability": "payable",
      "type": "function"
    },
    {
      "constant": false,
      "inputs": [
        {
          "internalType": "address",
          "name": "tokenA",
          "type": "address"
        },
        {
          "internalType": "address",
          "name": "tokenB",
          "type": "address"
        },
        {
          "internalType": "uint256",
          "name": "amountADesired",
          "type": "uint256"
        },
        {
          "internalType": "uint256",
          "name": "amountBDesired",
          "type": "uint256"
        },
        {
          "internalType": "uint256",
          "name": "amountAMin",
          "type": "uint256"
        },
        {
          "internalType": "uint256",
          "name": "amountBMin",
          "type": "uint256"
        },
        {
          "internalType": "address",
          "name": "to",
          "type": "address"
        },
        {
          "internalType": "uint256",
          "name": "deadline",
          "type": "uint256"
        }
      ],
      "name": "addLiquidityUnderlying",
      "outputs": [
        {
          "internalType": "uint256",
          "name": "amountA",
          "type": "uint256"
        },
        {
          "internalType": "uint256",
          "name": "amountB",
          "type": "uint256"
        },
        {
          "internalType": "uint256",
          "name": "liquidity",
          "type": "uint256"
        }
      ],
      "payable": false,
      "stateMutability": "nonpayable",
      "type": "function"
    },
    {
      "constant": false,
      "inputs": [
        {
          "internalType": "address",
          "name": "token",
          "type": "address"
        }
      ],
      "name": "addQuoteToken",
      "outputs": [],
      "payable": false,
      "stateMutability": "nonpayable",
      "type": "function"
    },
    {
      "constant": true,
      "inputs": [],
      "name": "allPairFee",
      "outputs": [
        {
          "internalType": "uint256",
          "name": "",
          "type": "uint256"
        }
      ],
      "payable": false,
      "stateMutability": "view",
      "type": "function"
    },
    {
      "constant": true,
      "inputs": [],
      "name": "allPairFeeLastBlock",
      "outputs": [
        {
          "internalType": "uint256",
          "name": "",
          "type": "uint256"
        }
      ],
      "payable": false,
      "stateMutability": "view",
      "type": "function"
    },
    {
      "constant": true,
      "inputs": [],
      "name": "cWHT",
      "outputs": [
        {
          "internalType": "address",
          "name": "",
          "type": "address"
        }
      ],
      "payable": false,
      "stateMutability": "view",
      "type": "function"
    },
    {
      "constant": true,
      "inputs": [],
      "name": "currentBlock",
      "outputs": [
        {
          "internalType": "uint256",
          "name": "",
          "type": "uint256"
        }
      ],
      "payable": false,
      "stateMutability": "view",
      "type": "function"
    },
    {
      "constant": true,
      "inputs": [],
      "name": "factory",
      "outputs": [
        {
          "internalType": "address",
          "name": "",
          "type": "address"
        }
      ],
      "payable": false,
      "stateMutability": "view",
      "type": "function"
    },
    {
      "constant": true,
      "inputs": [],
      "name": "feeAlloc",
      "outputs": [
        {
          "internalType": "uint256",
          "name": "",
          "type": "uint256"
        }
      ],
      "payable": false,
      "stateMutability": "view",
      "type": "function"
    },
    {
      "constant": true,
      "inputs": [
        {
          "internalType": "uint256",
          "name": "amountOut",
          "type": "uint256"
        },
        {
          "internalType": "uint256",
          "name": "reserveIn",
          "type": "uint256"
        },
        {
          "internalType": "uint256",
          "name": "reserveOut",
          "type": "uint256"
        }
      ],
      "name": "getAmountIn",
      "outputs": [
        {
          "internalType": "uint256",
          "name": "amountIn",
          "type": "uint256"
        }
      ],
      "payable": false,
      "stateMutability": "view",
      "type": "function"
    },
    {
      "constant": true,
      "inputs": [
        {
          "internalType": "uint256",
          "name": "amountIn",
          "type": "uint256"
        },
        {
          "internalType": "uint256",
          "name": "reserveIn",
          "type": "uint256"
        },
        {
          "internalType": "uint256",
          "name": "reserveOut",
          "type": "uint256"
        }
      ],
      "name": "getAmountOut",
      "outputs": [
        {
          "internalType": "uint256",
          "name": "amountOut",
          "type": "uint256"
        }
      ],
      "payable": false,
      "stateMutability": "view",
      "type": "function"
    },
    {
      "constant": true,
      "inputs": [
        {
          "internalType": "uint256",
          "name": "amountOut",
          "type": "uint256"
        },
        {
          "internalType": "address[]",
          "name": "path",
          "type": "address[]"
        }
      ],
      "name": "getAmountsIn",
      "outputs": [
        {
          "internalType": "uint256[]",
          "name": "amounts",
          "type": "uint256[]"
        }
      ],
      "payable": false,
      "stateMutability": "view",
      "type": "function"
    },
    {
      "constant": true,
      "inputs": [
        {
          "internalType": "uint256",
          "name": "amountIn",
          "type": "uint256"
        },
        {
          "internalType": "address[]",
          "name": "path",
          "type": "address[]"
        }
      ],
      "name": "getAmountsOut",
      "outputs": [
        {
          "internalType": "uint256[]",
          "name": "amounts",
          "type": "uint256[]"
        }
      ],
      "payable": false,
      "stateMutability": "view",
      "type": "function"
    },
    {
      "constant": true,
      "inputs": [
        {
          "internalType": "uint256",
          "name": "_lastRewardBlock",
          "type": "uint256"
        }
      ],
      "name": "getBlockRewards",
      "outputs": [
        {
          "internalType": "uint256",
          "name": "",
          "type": "uint256"
        }
      ],
      "payable": false,
      "stateMutability": "view",
      "type": "function"
    },
    {
      "constant": true,
      "inputs": [],
      "name": "halvingPeriod",
      "outputs": [
        {
          "internalType": "uint256",
          "name": "",
          "type": "uint256"
        }
      ],
      "payable": false,
      "stateMutability": "view",
      "type": "function"
    },
    {
      "constant": true,
      "inputs": [],
      "name": "isOwner",
      "outputs": [
        {
          "internalType": "bool",
          "name": "",
          "type": "bool"
        }
      ],
      "payable": false,
      "stateMutability": "view",
      "type": "function"
    },
    {
      "constant": true,
      "inputs": [],
      "name": "lpPerBlock",
      "outputs": [
        {
          "internalType": "uint256",
          "name": "",
          "type": "uint256"
        }
      ],
      "payable": false,
      "stateMutability": "view",
      "type": "function"
    },
    {
      "constant": true,
      "inputs": [],
      "name": "owner",
      "outputs": [
        {
          "internalType": "address",
          "name": "",
          "type": "address"
        }
      ],
      "payable": false,
      "stateMutability": "view",
      "type": "function"
    },
    {
      "constant": true,
      "inputs": [
        {
          "internalType": "address",
          "name": "tokenA",
          "type": "address"
        },
        {
          "internalType": "address",
          "name": "tokenB",
          "type": "address"
        }
      ],
      "name": "pairFor",
      "outputs": [
        {
          "internalType": "address",
          "name": "pair",
          "type": "address"
        }
      ],
      "payable": false,
      "stateMutability": "view",
      "type": "function"
    },
    {
      "constant": true,
      "inputs": [
        {
          "internalType": "uint256",
          "name": "blockNumber",
          "type": "uint256"
        }
      ],
      "name": "phase",
      "outputs": [
        {
          "internalType": "uint256",
          "name": "",
          "type": "uint256"
        }
      ],
      "payable": false,
      "stateMutability": "view",
      "type": "function"
    },
    {
      "constant": true,
      "inputs": [
        {
          "internalType": "uint256",
          "name": "amountA",
          "type": "uint256"
        },
        {
          "internalType": "uint256",
          "name": "reserveA",
          "type": "uint256"
        },
        {
          "internalType": "uint256",
          "name": "reserveB",
          "type": "uint256"
        }
      ],
      "name": "quote",
      "outputs": [
        {
          "internalType": "uint256",
          "name": "amountB",
          "type": "uint256"
        }
      ],
      "payable": false,
      "stateMutability": "view",
      "type": "function"
    },
    {
      "constant": true,
      "inputs": [
        {
          "internalType": "uint256",
          "name": "",
          "type": "uint256"
        }
      ],
      "name": "quoteTokens",
      "outputs": [
        {
          "internalType": "address",
          "name": "",
          "type": "address"
        }
      ],
      "payable": false,
      "stateMutability": "view",
      "type": "function"
    },
    {
      "constant": false,
      "inputs": [
        {
          "internalType": "address",
          "name": "ctokenA",
          "type": "address"
        },
        {
          "internalType": "address",
          "name": "ctokenB",
          "type": "address"
        },
        {
          "internalType": "uint256",
          "name": "liquidity",
          "type": "uint256"
        },
        {
          "internalType": "uint256",
          "name": "amountAMin",
          "type": "uint256"
        },
        {
          "internalType": "uint256",
          "name": "amountBMin",
          "type": "uint256"
        },
        {
          "internalType": "address",
          "name": "to",
          "type": "address"
        },
        {
          "internalType": "uint256",
          "name": "deadline",
          "type": "uint256"
        }
      ],
      "name": "removeLiquidity",
      "outputs": [
        {
          "internalType": "uint256",
          "name": "amountA",
          "type": "uint256"
        },
        {
          "internalType": "uint256",
          "name": "amountB",
          "type": "uint256"
        }
      ],
      "payable": false,
      "stateMutability": "nonpayable",
      "type": "function"
    },
    {
      "constant": false,
      "inputs": [
        {
          "internalType": "address",
          "name": "token",
          "type": "address"
        },
        {
          "internalType": "uint256",
          "name": "liquidity",
          "type": "uint256"
        },
        {
          "internalType": "uint256",
          "name": "amountTokenMin",
          "type": "uint256"
        },
        {
          "internalType": "uint256",
          "name": "amountETHMin",
          "type": "uint256"
        },
        {
          "internalType": "address",
          "name": "to",
          "type": "address"
        },
        {
          "internalType": "uint256",
          "name": "deadline",
          "type": "uint256"
        }
      ],
      "name": "removeLiquidityETHUnderlying",
      "outputs": [
        {
          "internalType": "uint256",
          "name": "amountToken",
          "type": "uint256"
        },
        {
          "internalType": "uint256",
          "name": "amountETH",
          "type": "uint256"
        }
      ],
      "payable": false,
      "stateMutability": "nonpayable",
      "type": "function"
    },
    {
      "constant": false,
      "inputs": [
        {
          "internalType": "address",
          "name": "token",
          "type": "address"
        },
        {
          "internalType": "uint256",
          "name": "liquidity",
          "type": "uint256"
        },
        {
          "internalType": "uint256",
          "name": "amountTokenMin",
          "type": "uint256"
        },
        {
          "internalType": "uint256",
          "name": "amountETHMin",
          "type": "uint256"
        },
        {
          "internalType": "address",
          "name": "to",
          "type": "address"
        },
        {
          "internalType": "uint256",
          "name": "deadline",
          "type": "uint256"
        },
        {
          "internalType": "bool",
          "name": "approveMax",
          "type": "bool"
        },
        {
          "internalType": "uint8",
          "name": "v",
          "type": "uint8"
        },
        {
          "internalType": "bytes32",
          "name": "r",
          "type": "bytes32"
        },
        {
          "internalType": "bytes32",
          "name": "s",
          "type": "bytes32"
        }
      ],
      "name": "removeLiquidityETHUnderlyingWithPermit",
      "outputs": [
        {
          "internalType": "uint256",
          "name": "amountToken",
          "type": "uint256"
        },
        {
          "internalType": "uint256",
          "name": "amountETH",
          "type": "uint256"
        }
      ],
      "payable": false,
      "stateMutability": "nonpayable",
      "type": "function"
    },
    {
      "constant": false,
      "inputs": [
        {
          "internalType": "address",
          "name": "tokenA",
          "type": "address"
        },
        {
          "internalType": "address",
          "name": "tokenB",
          "type": "address"
        },
        {
          "internalType": "uint256",
          "name": "liquidity",
          "type": "uint256"
        },
        {
          "internalType": "uint256",
          "name": "amountAMin",
          "type": "uint256"
        },
        {
          "internalType": "uint256",
          "name": "amountBMin",
          "type": "uint256"
        },
        {
          "internalType": "address",
          "name": "to",
          "type": "address"
        },
        {
          "internalType": "uint256",
          "name": "deadline",
          "type": "uint256"
        }
      ],
      "name": "removeLiquidityUnderlying",
      "outputs": [
        {
          "internalType": "uint256",
          "name": "amountA",
          "type": "uint256"
        },
        {
          "internalType": "uint256",
          "name": "amountB",
          "type": "uint256"
        }
      ],
      "payable": false,
      "stateMutability": "nonpayable",
      "type": "function"
    },
    {
      "constant": false,
      "inputs": [
        {
          "internalType": "address",
          "name": "tokenA",
          "type": "address"
        },
        {
          "internalType": "address",
          "name": "tokenB",
          "type": "address"
        },
        {
          "internalType": "uint256",
          "name": "liquidity",
          "type": "uint256"
        },
        {
          "internalType": "uint256",
          "name": "amountAMin",
          "type": "uint256"
        },
        {
          "internalType": "uint256",
          "name": "amountBMin",
          "type": "uint256"
        },
        {
          "internalType": "address",
          "name": "to",
          "type": "address"
        },
        {
          "internalType": "uint256",
          "name": "deadline",
          "type": "uint256"
        },
        {
          "internalType": "bool",
          "name": "approveMax",
          "type": "bool"
        },
        {
          "internalType": "uint8",
          "name": "v",
          "type": "uint8"
        },
        {
          "internalType": "bytes32",
          "name": "r",
          "type": "bytes32"
        },
        {
          "internalType": "bytes32",
          "name": "s",
          "type": "bytes32"
        }
      ],
      "name": "removeLiquidityWithPermit",
      "outputs": [
        {
          "internalType": "uint256",
          "name": "amountA",
          "type": "uint256"
        },
        {
          "internalType": "uint256",
          "name": "amountB",
          "type": "uint256"
        }
      ],
      "payable": false,
      "stateMutability": "nonpayable",
      "type": "function"
    },
    {
      "constant": false,
      "inputs": [],
      "name": "renounceOwnership",
      "outputs": [],
      "payable": false,
      "stateMutability": "nonpayable",
      "type": "function"
    },
    {
      "constant": false,
      "inputs": [
        {
          "internalType": "address[]",
          "name": "tokens",
          "type": "address[]"
        }
      ],
      "name": "resetQuoteTokens",
      "outputs": [],
      "payable": false,
      "stateMutability": "nonpayable",
      "type": "function"
    },
    {
      "constant": true,
      "inputs": [
        {
          "internalType": "uint256",
          "name": "blockNumber",
          "type": "uint256"
        }
      ],
      "name": "reward",
      "outputs": [
        {
          "internalType": "uint256",
          "name": "",
          "type": "uint256"
        }
      ],
      "payable": false,
      "stateMutability": "view",
      "type": "function"
    },
    {
      "constant": true,
      "inputs": [],
      "name": "rewardToken",
      "outputs": [
        {
          "internalType": "address",
          "name": "",
          "type": "address"
        }
      ],
      "payable": false,
      "stateMutability": "view",
      "type": "function"
    },
    {
      "constant": false,
      "inputs": [
        {
          "internalType": "address",
          "name": "_swapMininng",
          "type": "address"
        }
      ],
      "name": "setSwapMining",
      "outputs": [],
      "payable": false,
      "stateMutability": "nonpayable",
      "type": "function"
    },
    {
      "constant": true,
      "inputs": [],
      "name": "startBlock",
      "outputs": [
        {
          "internalType": "uint256",
          "name": "",
          "type": "uint256"
        }
      ],
      "payable": false,
      "stateMutability": "view",
      "type": "function"
    },
    {
      "constant": false,
      "inputs": [
        {
          "internalType": "uint256",
          "name": "amountOut",
          "type": "uint256"
        },
        {
          "internalType": "address[]",
          "name": "path",
          "type": "address[]"
        },
        {
          "internalType": "address",
          "name": "to",
          "type": "address"
        },
        {
          "internalType": "uint256",
          "name": "deadline",
          "type": "uint256"
        }
      ],
      "name": "swapETHForExactTokensUnderlying",
      "outputs": [
        {
          "internalType": "uint256[]",
          "name": "amounts",
          "type": "uint256[]"
        }
      ],
      "payable": true,
      "stateMutability": "payable",
      "type": "function"
    },
    {
      "constant": false,
      "inputs": [
        {
          "internalType": "uint256",
          "name": "amountOutMin",
          "type": "uint256"
        },
        {
          "internalType": "address[]",
          "name": "path",
          "type": "address[]"
        },
        {
          "internalType": "address",
          "name": "to",
          "type": "address"
        },
        {
          "internalType": "uint256",
          "name": "deadline",
          "type": "uint256"
        }
      ],
      "name": "swapExactETHForTokensUnderlying",
      "outputs": [
        {
          "internalType": "uint256[]",
          "name": "amounts",
          "type": "uint256[]"
        }
      ],
      "payable": true,
      "stateMutability": "payable",
      "type": "function"
    },
    {
      "constant": false,
      "inputs": [
        {
          "internalType": "uint256",
          "name": "amountIn",
          "type": "uint256"
        },
        {
          "internalType": "uint256",
          "name": "amountOutMin",
          "type": "uint256"
        },
        {
          "internalType": "address[]",
          "name": "path",
          "type": "address[]"
        },
        {
          "internalType": "address",
          "name": "to",
          "type": "address"
        },
        {
          "internalType": "uint256",
          "name": "deadline",
          "type": "uint256"
        }
      ],
      "name": "swapExactTokensForETHUnderlying",
      "outputs": [
        {
          "internalType": "uint256[]",
          "name": "amounts",
          "type": "uint256[]"
        }
      ],
      "payable": false,
      "stateMutability": "nonpayable",
      "type": "function"
    },
    {
      "constant": false,
      "inputs": [
        {
          "internalType": "uint256",
          "name": "amountIn",
          "type": "uint256"
        },
        {
          "internalType": "uint256",
          "name": "amountOutMin",
          "type": "uint256"
        },
        {
          "internalType": "address[]",
          "name": "cpath",
          "type": "address[]"
        },
        {
          "internalType": "address",
          "name": "to",
          "type": "address"
        },
        {
          "internalType": "uint256",
          "name": "deadline",
          "type": "uint256"
        }
      ],
      "name": "swapExactTokensForTokens",
      "outputs": [
        {
          "internalType": "uint256[]",
          "name": "amounts",
          "type": "uint256[]"
        }
      ],
      "payable": false,
      "stateMutability": "nonpayable",
      "type": "function"
    },
    {
      "constant": false,
      "inputs": [
        {
          "internalType": "uint256",
          "name": "amountIn",
          "type": "uint256"
        },
        {
          "internalType": "uint256",
          "name": "amountOutMin",
          "type": "uint256"
        },
        {
          "internalType": "address[]",
          "name": "path",
          "type": "address[]"
        },
        {
          "internalType": "address",
          "name": "to",
          "type": "address"
        },
        {
          "internalType": "uint256",
          "name": "deadline",
          "type": "uint256"
        }
      ],
      "name": "swapExactTokensForTokensUnderlying",
      "outputs": [
        {
          "internalType": "uint256[]",
          "name": "amounts",
          "type": "uint256[]"
        }
      ],
      "payable": false,
      "stateMutability": "nonpayable",
      "type": "function"
    },
    {
      "constant": true,
      "inputs": [],
      "name": "swapMining",
      "outputs": [
        {
          "internalType": "address",
          "name": "",
          "type": "address"
        }
      ],
      "payable": false,
      "stateMutability": "view",
      "type": "function"
    },
    {
      "constant": false,
      "inputs": [
        {
          "internalType": "uint256",
          "name": "amountOut",
          "type": "uint256"
        },
        {
          "internalType": "uint256",
          "name": "amountInMax",
          "type": "uint256"
        },
        {
          "internalType": "address[]",
          "name": "path",
          "type": "address[]"
        },
        {
          "internalType": "address",
          "name": "to",
          "type": "address"
        },
        {
          "internalType": "uint256",
          "name": "deadline",
          "type": "uint256"
        }
      ],
      "name": "swapTokensForExactETHUnderlying",
      "outputs": [
        {
          "internalType": "uint256[]",
          "name": "amounts",
          "type": "uint256[]"
        }
      ],
      "payable": false,
      "stateMutability": "nonpayable",
      "type": "function"
    },
    {
      "constant": false,
      "inputs": [
        {
          "internalType": "uint256",
          "name": "amountOut",
          "type": "uint256"
        },
        {
          "internalType": "uint256",
          "name": "amountInMax",
          "type": "uint256"
        },
        {
          "internalType": "address[]",
          "name": "cpath",
          "type": "address[]"
        },
        {
          "internalType": "address",
          "name": "to",
          "type": "address"
        },
        {
          "internalType": "uint256",
          "name": "deadline",
          "type": "uint256"
        }
      ],
      "name": "swapTokensForExactTokens",
      "outputs": [
        {
          "internalType": "uint256[]",
          "name": "amounts",
          "type": "uint256[]"
        }
      ],
      "payable": false,
      "stateMutability": "nonpayable",
      "type": "function"
    },
    {
      "constant": false,
      "inputs": [
        {
          "internalType": "uint256",
          "name": "amountOut",
          "type": "uint256"
        },
        {
          "internalType": "uint256",
          "name": "amountInMax",
          "type": "uint256"
        },
        {
          "internalType": "address[]",
          "name": "path",
          "type": "address[]"
        },
        {
          "internalType": "address",
          "name": "to",
          "type": "address"
        },
        {
          "internalType": "uint256",
          "name": "deadline",
          "type": "uint256"
        }
      ],
      "name": "swapTokensForExactTokensUnderlying",
      "outputs": [
        {
          "internalType": "uint256[]",
          "name": "amounts",
          "type": "uint256[]"
        }
      ],
      "payable": false,
      "stateMutability": "nonpayable",
      "type": "function"
    },
    {
      "constant": true,
      "inputs": [],
      "name": "traderPerBlock",
      "outputs": [
        {
          "internalType": "uint256",
          "name": "",
          "type": "uint256"
        }
      ],
      "payable": false,
      "stateMutability": "view",
      "type": "function"
    },
    {
      "constant": false,
      "inputs": [
        {
          "internalType": "address",
          "name": "newOwner",
          "type": "address"
        }
      ],
      "name": "transferOwnership",
      "outputs": [],
      "payable": false,
      "stateMutability": "nonpayable",
      "type": "function"
    }
  ],
  "transactionHash": "0x4d62fb8d66d0bc51604971b5613d56ce11797a7d41f4c6d8277a23010f78e048",
  "args": [
    "0xE4b2704895fbD5668f73Aa2C2517270c423aB730",
    "0x7aF326B6351C8A9b8fb8CD205CBe11d4Ac5FA836",
    "0x0551A42d8FCD25cC67d5feD73607B0923467703E",
    0
  ],
  "solcInputHash": "921321d50e0308ea7452d6a93069e1c0",
  "bytecode": "0x608060405262503340600c553480156200001857600080fd5b5060405162005dcd38038062005dcd833981810160405260808110156200003e57600080fd5b508051602082015160408301516060909301519192909160006200006a6001600160e01b03620001d216565b600080546001600160a01b0319166001600160a01b0383169081178255604051929350917f8be0079c531659141344cd1fd0a4f28419497f9722a3daafe3b4186f6b6457e0908290a350600180546001600160a01b038087166001600160a01b031992831681179093556002805487831690841617905560058054918616919092161790556008829055604080516370e264b360e11b815290516004929163e1c4c96691818501916020919081900386018186803b1580156200012c57600080fd5b505afa15801562000141573d6000803e3d6000fd5b505050506040513d60208110156200015857600080fd5b505181546001808201845560009384526020842090910180546001600160a01b03199081166001600160a01b03948516179091556004805492830181559093527f8a35acfbc15ff81a39ae7d344fd709f28e8600b4aa8c65c6b64bfe7fe36bd19b01805490921694169390931790925550620001d6915050565b3390565b615be780620001e66000396000f3fe60806040526004361061027d5760003560e01c806385f8c2591161014f578063bbee6c29116100c1578063e8e337001161007a578063e8e3370014610f02578063ee41be8e14610f64578063efd06f2e14610fe8578063f2fde38b1461102e578063f7c618c114611061578063fa900088146110765761027d565b8063bbee6c2914610ccf578063c45a015514610d53578063c5746a6e14610d68578063d06ca61f14610dc5578063dbdfc62514610e7a578063e12ed13c14610eed5761027d565b80638f32d59b116101135780638f32d59b14610b9957806396ed28f914610bc2578063a9fb763c14610bfd578063ad615dec14610c27578063af06ca8f14610c5d578063baa2abde14610c725761027d565b806385f8c25914610a0d5780638803dbee14610a4357806389a6072c14610ad95780638da5cb5b14610aee5780638e750db914610b035761027d565b80634cc94ba1116101f35780635a3e251f116101ac5780635a3e251f146108e15780635cb48592146108f6578063715018a61461090b57806378b8d735146109205780637e87ffe8146109ce5780637f3709a3146109e35761027d565b80634cc94ba1146107bc5780634e5eda11146107d15780634f887183146107e65780635710207c14610819578063575815111461082e57806358956d41146108615761027d565b80631f00ca74116102455780631f00ca74146105025780632195995c146105b75780632c9115c71461063557806338ed17391461067b5780633eabf55f1461071157806348cd4cb1146107a75761027d565b80630520b290146102a8578063054d50d41461038e578063135f8aa7146103d657806314e5207b146104005780631da81f621461046c575b6002546001600160a01b03163314806102a057506005546001600160a01b031633145b6102a657fe5b005b3480156102b457600080fd5b5061033e600480360360a08110156102cb57600080fd5b813591602081013591810190606081016040820135600160201b8111156102f157600080fd5b82018360208201111561030357600080fd5b803590602001918460208302840111600160201b8311171561032457600080fd5b91935091506001600160a01b03813516906020013561108b565b60408051602080825283518183015283519192839290830191858101910280838360005b8381101561037a578181015183820152602001610362565b505050509050019250505060405180910390f35b34801561039a57600080fd5b506103c4600480360360608110156103b157600080fd5b50803590602081013590604001356111a2565b60408051918252519081900360200190f35b3480156103e257600080fd5b506103c4600480360360208110156103f957600080fd5b5035611230565b34801561040c57600080fd5b50610453600480360360c081101561042357600080fd5b506001600160a01b0381358116916020810135916040820135916060810135916080820135169060a00135611297565b6040805192835260208301919091528051918290030190f35b34801561047857600080fd5b5061033e600480360360a081101561048f57600080fd5b813591602081013591810190606081016040820135600160201b8111156104b557600080fd5b8201836020820111156104c757600080fd5b803590602001918460208302840111600160201b831117156104e857600080fd5b91935091506001600160a01b0381351690602001356113c1565b34801561050e57600080fd5b5061033e6004803603604081101561052557600080fd5b81359190810190604081016020820135600160201b81111561054657600080fd5b82018360208201111561055857600080fd5b803590602001918460208302840111600160201b8311171561057957600080fd5b91908080602002602001604051908101604052809392919081815260200183836020028082843760009201919091525092955061144d945050505050565b3480156105c357600080fd5b5061045360048036036101608110156105db57600080fd5b506001600160a01b038135811691602081013582169160408201359160608101359160808201359160a08101359091169060c08101359060e081013515159060ff61010082013516906101208101359061014001356115ac565b34801561064157600080fd5b5061065f6004803603602081101561065857600080fd5b5035611685565b604080516001600160a01b039092168252519081900360200190f35b34801561068757600080fd5b5061033e600480360360a081101561069e57600080fd5b813591602081013591810190606081016040820135600160201b8111156106c457600080fd5b8201836020820111156106d657600080fd5b803590602001918460208302840111600160201b831117156106f757600080fd5b91935091506001600160a01b0381351690602001356116ac565b34801561071d57600080fd5b5061033e600480360360a081101561073457600080fd5b813591602081013591810190606081016040820135600160201b81111561075a57600080fd5b82018360208201111561076c57600080fd5b803590602001918460208302840111600160201b8311171561078d57600080fd5b91935091506001600160a01b038135169060200135611969565b3480156107b357600080fd5b506103c46119f5565b3480156107c857600080fd5b506103c46119fb565b3480156107dd57600080fd5b5061065f611a01565b3480156107f257600080fd5b506102a66004803603602081101561080957600080fd5b50356001600160a01b0316611a10565b34801561082557600080fd5b5061065f611a79565b34801561083a57600080fd5b506102a66004803603602081101561085157600080fd5b50356001600160a01b0316611a88565b34801561086d57600080fd5b506108c3600480360361010081101561088557600080fd5b506001600160a01b038135811691602081013582169160408201359160608101359160808201359160a08101359160c0820135169060e00135611b21565b60408051938452602084019290925282820152519081900360600190f35b3480156108ed57600080fd5b506103c4611d40565b34801561090257600080fd5b5061065f611d46565b34801561091757600080fd5b506102a6611d55565b34801561092c57600080fd5b506102a66004803603602081101561094357600080fd5b810190602081018135600160201b81111561095d57600080fd5b82018360208201111561096f57600080fd5b803590602001918460208302840111600160201b8311171561099057600080fd5b919080806020026020016040519081016040528093929190818152602001838360200280828437600092019190915250929550611de6945050505050565b3480156109da57600080fd5b506103c4611ed3565b3480156109ef57600080fd5b506103c460048036036020811015610a0657600080fd5b5035611ed9565b348015610a1957600080fd5b506103c460048036036060811015610a3057600080fd5b5080359060208101359060400135611fa7565b348015610a4f57600080fd5b5061033e600480360360a0811015610a6657600080fd5b813591602081013591810190606081016040820135600160201b811115610a8c57600080fd5b820183602082011115610a9e57600080fd5b803590602001918460208302840111600160201b83111715610abf57600080fd5b91935091506001600160a01b038135169060200135612001565b348015610ae557600080fd5b506103c461224d565b348015610afa57600080fd5b5061065f612253565b348015610b0f57600080fd5b5061033e600480360360a0811015610b2657600080fd5b813591602081013591810190606081016040820135600160201b811115610b4c57600080fd5b820183602082011115610b5e57600080fd5b803590602001918460208302840111600160201b83111715610b7f57600080fd5b91935091506001600160a01b038135169060200135612262565b348015610ba557600080fd5b50610bae61236d565b604080519115158252519081900360200190f35b348015610bce57600080fd5b5061065f60048036036040811015610be557600080fd5b506001600160a01b0381358116916020013516612391565b348015610c0957600080fd5b506103c460048036036020811015610c2057600080fd5b503561241d565b348015610c3357600080fd5b506103c460048036036060811015610c4a57600080fd5b5080359060208101359060400135612464565b348015610c6957600080fd5b506103c46124be565b348015610c7e57600080fd5b50610453600480360360e0811015610c9557600080fd5b506001600160a01b038135811691602081013582169160408201359160608101359160808201359160a08101359091169060c001356124c4565b61033e60048036036080811015610ce557600080fd5b81359190810190604081016020820135600160201b811115610d0657600080fd5b820183602082011115610d1857600080fd5b803590602001918460208302840111600160201b83111715610d3957600080fd5b91935091506001600160a01b0381351690602001356127a1565b348015610d5f57600080fd5b5061065f6128b2565b348015610d7457600080fd5b50610453600480360360e0811015610d8b57600080fd5b506001600160a01b038135811691602081013582169160408201359160608101359160808201359160a08101359091169060c001356128c1565b348015610dd157600080fd5b5061033e60048036036040811015610de857600080fd5b81359190810190604081016020820135600160201b811115610e0957600080fd5b820183602082011115610e1b57600080fd5b803590602001918460208302840111600160201b83111715610e3c57600080fd5b919080806020026020016040519081016040528093929190818152602001838360200280828437600092019190915250929550612cca945050505050565b348015610e8657600080fd5b506104536004803603610140811015610e9e57600080fd5b506001600160a01b0381358116916020810135916040820135916060810135916080820135169060a08101359060c081013515159060ff60e08201351690610100810135906101200135612d32565b348015610ef957600080fd5b506103c4612e14565b348015610f0e57600080fd5b506108c36004803603610100811015610f2657600080fd5b506001600160a01b038135811691602081013582169160408201359160608101359160808201359160a08101359160c0820135169060e00135612e1a565b61033e60048036036080811015610f7a57600080fd5b81359190810190604081016020820135600160201b811115610f9b57600080fd5b820183602082011115610fad57600080fd5b803590602001918460208302840111600160201b83111715610fce57600080fd5b91935091506001600160a01b038135169060200135612f39565b6108c3600480360360c0811015610ffe57600080fd5b506001600160a01b0381358116916020810135916040820135916060810135916080820135169060a0013561303f565b34801561103a57600080fd5b506102a66004803603602081101561105157600080fd5b50356001600160a01b0316613252565b34801561106d57600080fd5b5061065f6132a5565b34801561108257600080fd5b506103c46132b4565b606081428110156110d5576040805162461bcd60e51b815260206004820152600f60248201526e149bdd5d195c8e8811561412549151608a1b604482015290519081900360640190fd5b6002546001600160a01b0316868660001981018181106110f157fe5b905060200201356001600160a01b03166001600160a01b031614611153576040805162461bcd60e51b81526020600482015260146024820152730a4deeae8cae47440929cac82989288bea082a8960631b604482015290519081900360640190fd5b611196888888888080602002602001604051908101604052809392919081815260200183836020028082843760009201829052508b93508a9250905060016132ba565b98975050505050505050565b60015460408051630153543560e21b815260048101869052602481018590526044810184905290516000926001600160a01b03169163054d50d4916064808301926020929190829003018186803b1580156111fc57600080fd5b505afa158015611210573d6000803e3d6000fd5b505050506040513d602081101561122657600080fd5b5051949350505050565b6000600c546000141561124557506000611292565b60085482111561128e57611287600c5461127b600161126f600854876136d790919063ffffffff16565b9063ffffffff6136d716565b9063ffffffff61371916565b9050611292565b5060005b919050565b60008082428110156112e2576040805162461bcd60e51b815260206004820152600f60248201526e149bdd5d195c8e8811561412549151608a1b604482015290519081900360640190fd5b6112ea615a02565b6112f38a61375b565b6001600160a01b0316610180820181905261130d90613848565b6080820152600554611327906001600160a01b0316613848565b60c0820152608081015160009061133f908a906139a7565b90506000611351898460c001516139a7565b6101808401516005549192506000918291611379916001600160a01b03168f8787308f6124c4565b610180870151919350915061138e90836139c4565b975061139b8e8b8a613b36565b6113a481613ca0565b96506113b08a88613e1b565b505050505050965096945050505050565b6060814281101561140b576040805162461bcd60e51b815260206004820152600f60248201526e149bdd5d195c8e8811561412549151608a1b604482015290519081900360640190fd5b611196888888888080602002602001604051908101604052809392919081815260200183836020028082843760009201829052508b93508a92509050806132ba565b600154604080516307c0329d60e21b815260048101858152602482019283528451604483015284516060946001600160a01b031693631f00ca749388938893909291606401906020808601910280838360005b838110156114b85781810151838201526020016114a0565b50505050905001935050505060006040518083038186803b1580156114dc57600080fd5b505afa1580156114f0573d6000803e3d6000fd5b505050506040513d6000823e601f3d908101601f19168201604052602081101561151957600080fd5b8101908080516040519392919084600160201b82111561153857600080fd5b90830190602082018581111561154d57600080fd5b82518660208202830111600160201b8211171561156957600080fd5b82525081516020918201928201910280838360005b8381101561159657818101518382015260200161157e565b5050505090500160405250505090505b92915050565b60008060006115bb8e8e612391565b90506000876115ca578c6115ce565b6000195b6040805163d505accf60e01b815233600482015230602482015260448101839052606481018c905260ff8a16608482015260a4810189905260c4810188905290519192506001600160a01b0384169163d505accf9160e48082019260009290919082900301818387803b15801561164457600080fd5b505af1158015611658573d6000803e3d6000fd5b5050505061166b8f8f8f8f8f8f8f6124c4565b809450819550505050509b509b9950505050505050505050565b6004818154811061169257fe5b6000918252602090912001546001600160a01b0316905081565b606081428110156116f6576040805162461bcd60e51b815260206004820152600f60248201526e149bdd5d195c8e8811561412549151608a1b604482015290519081900360640190fd5b6060611734878780806020026020016040519081016040528093929190818152602001838360200280828437600092019190915250613f1392505050565b6001546040805163d06ca61f60e01b8152600481018d8152602482019283528451604483015284519495506001600160a01b039093169363d06ca61f938e93879391929091606401906020808601910280838360005b838110156117a257818101518382015260200161178a565b50505050905001935050505060006040518083038186803b1580156117c657600080fd5b505afa1580156117da573d6000803e3d6000fd5b505050506040513d6000823e601f3d908101601f19168201604052602081101561180357600080fd5b8101908080516040519392919084600160201b82111561182257600080fd5b90830190602082018581111561183757600080fd5b82518660208202830111600160201b8211171561185357600080fd5b82525081516020918201928201910280838360005b83811015611880578181015183820152602001611868565b50505050905001604052505050925087836001855103815181106118a057fe5b602002602001015110156118e55760405162461bcd60e51b8152600401808060200182810382526022815260200180615b4a6022913960400191505060405180910390fd5b611952878760008181106118f557fe5b905060200201356001600160a01b0316336119388460008151811061191657fe5b60200260200101518560018151811061192b57fe5b6020026020010151612391565b8660008151811061194557fe5b6020026020010151613f9f565b61195d8382876140fc565b50509695505050505050565b606081428110156119b3576040805162461bcd60e51b815260206004820152600f60248201526e149bdd5d195c8e8811561412549151608a1b604482015290519081900360640190fd5b611196888888888080602002602001604051908101604052809392919081815260200183836020028082843760009201829052508b93508a9250905080614618565b60085481565b60065481565b6003546001600160a01b031681565b611a1861236d565b611a57576040805162461bcd60e51b81526020600482018190526024820152600080516020615b05833981519152604482015290519081900360640190fd5b600380546001600160a01b0319166001600160a01b0392909216919091179055565b6005546001600160a01b031681565b611a9061236d565b611acf576040805162461bcd60e51b81526020600482018190526024820152600080516020615b05833981519152604482015290519081900360640190fd5b600480546001810182556000919091527f8a35acfbc15ff81a39ae7d344fd709f28e8600b4aa8c65c6b64bfe7fe36bd19b0180546001600160a01b0319166001600160a01b0392909216919091179055565b60008060008342811015611b6e576040805162461bcd60e51b815260206004820152600f60248201526e149bdd5d195c8e8811561412549151608a1b604482015290519081900360640190fd5b611b76615a02565b611b7f8d61375b565b6001600160a01b0316610180820152611b978c61375b565b6001600160a01b03166101a0820152610180810151611bb590613848565b60808201526101a0810151611bc990613848565b60a08201526080810151611bde908c906139a7565b815260a0810151611bf0908b906139a7565b60208201526080810151611c05908a906139a7565b604082015260a0810151611c1a9089906139a7565b606082018190526101808201516101a0830151835160208501516040860151611c429561495a565b61010083015260e08201526000611c598e8e612391565b9050611c6d8260e001518360800151614d08565b9550611c828261010001518360a00151614d08565b9450611c958e8361018001518389614d1b565b611ca68d836101a001518388614d1b565b806001600160a01b0316636a627842896040518263ffffffff1660e01b815260040180826001600160a01b03166001600160a01b03168152602001915050602060405180830381600087803b158015611cfe57600080fd5b505af1158015611d12573d6000803e3d6000fd5b505050506040513d6020811015611d2857600080fd5b5051959e949d50949b50929950505050505050505050565b600c5481565b6002546001600160a01b031681565b611d5d61236d565b611d9c576040805162461bcd60e51b81526020600482018190526024820152600080516020615b05833981519152604482015290519081900360640190fd5b600080546040516001600160a01b03909116907f8be0079c531659141344cd1fd0a4f28419497f9722a3daafe3b4186f6b6457e0908390a3600080546001600160a01b0319169055565b611dee61236d565b611e2d576040805162461bcd60e51b81526020600482018190526024820152600080516020615b05833981519152604482015290519081900360640190fd5b60005b600454811015611e6f576004805480611e4557fe5b600082815260209020810160001990810180546001600160a01b0319169055019055600101611e30565b5060005b8151811015611ecf576004828281518110611e8a57fe5b60209081029190910181015182546001808201855560009485529290932090920180546001600160a01b0319166001600160a01b039093169290921790915501611e73565b5050565b600e5481565b60008080611ee684611230565b90506000611ef343611230565b90505b80821015611f7257600854600c54600190930192600091611f2e91611f2290869063ffffffff614eeb16565b9063ffffffff614f4416565b9050611f68611f5b611f3f8361241d565b611f4f848a63ffffffff6136d716565b9063ffffffff614eeb16565b859063ffffffff614f4416565b9095509250611ef6565b611f9e611f91611f814361241d565b611f4f438963ffffffff6136d716565b849063ffffffff614f4416565b95945050505050565b600154604080516385f8c25960e01b815260048101869052602481018590526044810184905290516000926001600160a01b0316916385f8c259916064808301926020929190829003018186803b1580156111fc57600080fd5b6060814281101561204b576040805162461bcd60e51b815260206004820152600f60248201526e149bdd5d195c8e8811561412549151608a1b604482015290519081900360640190fd5b6060612089878780806020026020016040519081016040528093929190818152602001838360200280828437600092019190915250613f1392505050565b600154604080516307c0329d60e21b8152600481018d8152602482019283528451604483015284519495506001600160a01b0390931693631f00ca74938e93879391929091606401906020808601910280838360005b838110156120f75781810151838201526020016120df565b50505050905001935050505060006040518083038186803b15801561211b57600080fd5b505afa15801561212f573d6000803e3d6000fd5b505050506040513d6000823e601f3d908101601f19168201604052602081101561215857600080fd5b8101908080516040519392919084600160201b82111561217757600080fd5b90830190602082018581111561218c57600080fd5b82518660208202830111600160201b821117156121a857600080fd5b82525081516020918201928201910280838360005b838110156121d55781810151838201526020016121bd565b50505050905001604052505050925087836000815181106121f257fe5b602002602001015111156118e5576040805162461bcd60e51b815260206004820152601e60248201527f526f757465723a204558434553534956455f494e5055545f414d4f554e540000604482015290519081900360640190fd5b60075481565b6000546001600160a01b031690565b606081428110156122ac576040805162461bcd60e51b815260206004820152600f60248201526e149bdd5d195c8e8811561412549151608a1b604482015290519081900360640190fd5b6002546001600160a01b0316868660001981018181106122c857fe5b905060200201356001600160a01b03166001600160a01b03161461232a576040805162461bcd60e51b81526020600482015260146024820152730a4deeae8cae47440929cac82989288bea082a8960631b604482015290519081900360640190fd5b611196888888888080602002602001604051908101604052809392919081815260200183836020028082843760009201829052508b93508a925090506001614618565b600080546001600160a01b0316612382614f9e565b6001600160a01b031614905090565b6001546040805163e6a4390560e01b81526001600160a01b03858116600483015284811660248301529151600093929092169163e6a4390591604480820192602092909190829003018186803b1580156123ea57600080fd5b505afa1580156123fe573d6000803e3d6000fd5b505050506040513d602081101561241457600080fd5b50519392505050565b600d546000906001600160a01b031661243857506000611292565b600061244383611230565b905061245d8160020a600a5461371990919063ffffffff16565b9392505050565b60015460408051632b58577b60e21b815260048101869052602481018590526044810184905290516000926001600160a01b03169163ad615dec916064808301926020929190829003018186803b1580156111fc57600080fd5b600b5481565b600080824281101561250f576040805162461bcd60e51b815260206004820152600f60248201526e149bdd5d195c8e8811561412549151608a1b604482015290519081900360640190fd5b600061251b8b8b612391565b604080516323b872dd60e01b81523360048201526001600160a01b03831660248201819052604482018d9052915192935090916323b872dd916064808201926020929091908290030181600087803b15801561257657600080fd5b505af115801561258a573d6000803e3d6000fd5b505050506040513d60208110156125a057600080fd5b50506040805163226bf2d160e21b81526001600160a01b03888116600483015282516000938493928616926389afcb44926024808301939282900301818787803b1580156125ed57600080fd5b505af1158015612601573d6000803e3d6000fd5b505050506040513d604081101561261757600080fd5b508051602090910151909250905060006126308e614fa2565b9050600061263d8e614fa2565b60015460408051632a26552b60e11b81526001600160a01b0386811660048301528085166024830152825194955060009493169263544caa5692604480840193919291829003018186803b15801561269457600080fd5b505afa1580156126a8573d6000803e3d6000fd5b505050506040513d60408110156126be57600080fd5b505190506001600160a01b03838116908216146126dc5783856126df565b84845b90995097508c891015612739576040805162461bcd60e51b815260206004820152601d60248201527f526f757465723a20494e53554646494349454e545f415f414d4f554e54000000604482015290519081900360640190fd5b8b88101561278e576040805162461bcd60e51b815260206004820152601d60248201527f526f757465723a20494e53554646494349454e545f425f414d4f554e54000000604482015290519081900360640190fd5b5050505050505097509795505050505050565b606081428110156127eb576040805162461bcd60e51b815260206004820152600f60248201526e149bdd5d195c8e8811561412549151608a1b604482015290519081900360640190fd5b6002546001600160a01b0316868660008161280257fe5b905060200201356001600160a01b03166001600160a01b031614612864576040805162461bcd60e51b81526020600482015260146024820152730a4deeae8cae47440929cac82989288bea082a8960631b604482015290519081900360640190fd5b6128a7873488888080602002602001604051908101604052809392919081815260200183836020028082843760009201829052508b93508a9250600191506132ba565b979650505050505050565b6001546001600160a01b031681565b600080824281101561290c576040805162461bcd60e51b815260206004820152600f60248201526e149bdd5d195c8e8811561412549151608a1b604482015290519081900360640190fd5b60006129188b8b612391565b905088816001600160a01b0316636dbf2f7f886040518263ffffffff1660e01b815260040180826001600160a01b03166001600160a01b0316815260200191505060206040518083038186803b15801561297157600080fd5b505afa158015612985573d6000803e3d6000fd5b505050506040513d602081101561299b57600080fd5b505110156129f0576040805162461bcd60e51b815260206004820152601760248201527f6e6f74206f776e6572206f72206e6f7420656e6f756768000000000000000000604482015290519081900360640190fd5b604080516323b872dd60e01b81523360048201526001600160a01b03831660248201819052604482018c905291516323b872dd916064808201926020929091908290030181600087803b158015612a4657600080fd5b505af1158015612a5a573d6000803e3d6000fd5b505050506040513d6020811015612a7057600080fd5b50612a7b9050615a02565b6001600160a01b03808d166101408301528b81166101608301526040805163226bf2d160e21b815230600482015281516000938493908716926389afcb44926024808301939282900301818787803b158015612ad657600080fd5b505af1158015612aea573d6000803e3d6000fd5b505050506040513d6040811015612b0057600080fd5b50805160209091015160015461014086015161016087015160408051632a26552b60e11b81526001600160a01b03938416600482015291831660248301528051959750939550600094919092169263544caa569260448082019391829003018186803b158015612b6f57600080fd5b505afa158015612b83573d6000803e3d6000fd5b505050506040513d6040811015612b9957600080fd5b505190506001600160a01b038f811690821614612bb7578183612bba565b82825b61010086015260e085015250612be09150612bd690508d61375b565b8260e001516139c4565b9450612bf9612bee8c61375b565b8261010001516139c4565b9350612c068c8887613b36565b612c118b8886613b36565b88851015612c66576040805162461bcd60e51b815260206004820152601d60248201527f526f757465723a20494e53554646494349454e545f415f414d4f554e54000000604482015290519081900360640190fd5b87841015612cbb576040805162461bcd60e51b815260206004820152601d60248201527f526f757465723a20494e53554646494349454e545f425f414d4f554e54000000604482015290519081900360640190fd5b50505097509795505050505050565b6001546040805163d06ca61f60e01b815260048101858152602482019283528451604483015284516060946001600160a01b03169363d06ca61f93889388939092916064019060208086019102808383600083156114b85781810151838201526020016114a0565b60025460009081908190612d50908e906001600160a01b0316612391565b9050600087612d5f578c612d63565b6000195b6040805163d505accf60e01b815233600482015230602482015260448101839052606481018c905260ff8a16608482015260a4810189905260c4810188905290519192506001600160a01b0384169163d505accf9160e48082019260009290919082900301818387803b158015612dd957600080fd5b505af1158015612ded573d6000803e3d6000fd5b50505050612dff8e8e8e8e8e8e611297565b909f909e509c50505050505050505050505050565b60095481565b60008060008342811015612e67576040805162461bcd60e51b815260206004820152600f60248201526e149bdd5d195c8e8811561412549151608a1b604482015290519081900360640190fd5b612e758c8c8c8c8c8c61495a565b90945092506000612e868d8d612391565b9050612e948d338388613f9f565b612ea08c338387613f9f565b806001600160a01b0316636a627842886040518263ffffffff1660e01b815260040180826001600160a01b03166001600160a01b03168152602001915050602060405180830381600087803b158015612ef857600080fd5b505af1158015612f0c573d6000803e3d6000fd5b505050506040513d6020811015612f2257600080fd5b5051949d939c50939a509198505050505050505050565b60608142811015612f83576040805162461bcd60e51b815260206004820152600f60248201526e149bdd5d195c8e8811561412549151608a1b604482015290519081900360640190fd5b6002546001600160a01b03168686600081612f9a57fe5b905060200201356001600160a01b03166001600160a01b031614612ffc576040805162461bcd60e51b81526020600482015260146024820152730a4deeae8cae47440929cac82989288bea082a8960631b604482015290519081900360640190fd5b6128a7348888888080602002602001604051908101604052809392919081815260200183836020028082843760009201829052508b93508a925060019150614618565b6000806000834281101561308c576040805162461bcd60e51b815260206004820152600f60248201526e149bdd5d195c8e8811561412549151608a1b604482015290519081900360640190fd5b60006130978b61375b565b90506130a1615a02565b6130aa82613848565b60808201526005546130c4906001600160a01b0316613848565b60a082015260808101516130d9908c906139a7565b815260a08101516130eb9034906139a7565b60208201526080810151613100908b906139a7565b604082015260a0810151613115908a906139a7565b6060820181905260055482516020840151604085015160009485946131499489946001600160a01b0390921693909261495a565b91509150600061316e8f600260009054906101000a90046001600160a01b0316612391565b905061317e838560800151614d08565b985061318e828560a00151614d08565b975061319c8f86838c614d1b565b6131a6818961505d565b806001600160a01b0316636a6278428c6040518263ffffffff1660e01b815260040180826001600160a01b03166001600160a01b03168152602001915050602060405180830381600087803b1580156131fe57600080fd5b505af1158015613212573d6000803e3d6000fd5b505050506040513d602081101561322857600080fd5b50519650348810156132405761324033893403613e1b565b50505050505096509650969350505050565b61325a61236d565b613299576040805162461bcd60e51b81526020600482018190526024820152600080516020615b05833981519152604482015290519081900360640190fd5b6132a281615170565b50565b600d546001600160a01b031681565b600a5481565b60608342811015613304576040805162461bcd60e51b815260206004820152600f60248201526e149bdd5d195c8e8811561412549151608a1b604482015290519081900360640190fd5b606061330f88615210565b9050613319615a95565b6133368260008151811061332957fe5b6020026020010151613848565b8152815161334990839060009061332957fe5b6020820181905260009061335e908d906139a7565b90506060600160009054906101000a90046001600160a01b03166001600160a01b0316631f00ca74838d6040518363ffffffff1660e01b81526004018083815260200180602001828103825283818151815260200191508051906020019060200280838360005b838110156133dd5781810151838201526020016133c5565b50505050905001935050505060006040518083038186803b15801561340157600080fd5b505afa158015613415573d6000803e3d6000fd5b505050506040513d6000823e601f3d908101601f19168201604052602081101561343e57600080fd5b8101908080516040519392919084600160201b82111561345d57600080fd5b90830190602082018581111561347257600080fd5b82518660208202830111600160201b8211171561348e57600080fd5b82525081516020918201928201910280838360005b838110156134bb5781810151838201526020016134a3565b5050505090500160405250505090506134ec816000815181106134da57fe5b60200260200101518460000151614d08565b604084018190528c1015613547576040805162461bcd60e51b815260206004820152601e60248201527f526f757465723a204558434553534956455f494e5055545f414d4f554e540000604482015290519081900360640190fd5b87156135845761357f6135758c60008151811061356057fe5b60200260200101518d60018151811061192b57fe5b846040015161505d565b6135e0565b6135e08b60008151811061359457fe5b6020026020010151856000815181106135a957fe5b60200260200101516135d68e6000815181106135c157fe5b60200260200101518f60018151811061192b57fe5b8660400151614d1b565b6135eb818c8c6140fc565b8a5160001901871561361a576136148b83838151811061360757fe5b6020026020010151615295565b50613661565b61365f85828151811061362957fe5b60200260200101518d838151811061363d57fe5b60200260200101518d85858151811061365257fe5b60200260200101516152b3565b505b8b5160405190808252806020026020018201604052801561368c578160200160208202803883390190505b5096508360400151876000815181106136a157fe5b6020026020010181815250508d8782815181106136ba57fe5b602002602001018181525050505050505050979650505050505050565b600061245d83836040518060400160405280601e81526020017f536166654d6174683a207375627472616374696f6e206f766572666c6f7700008152506152dc565b600061245d83836040518060400160405280601a81526020017f536166654d6174683a206469766973696f6e206279207a65726f000000000000815250615373565b60015460408051634219547760e01b815290516000926001600160a01b0316916342195477916004808301926020929190829003018186803b1580156137a057600080fd5b505afa1580156137b4573d6000803e3d6000fd5b505050506040513d60208110156137ca57600080fd5b50516040805163714bca1f60e11b81526001600160a01b0385811660048301529151919092169163e297943e916024808301926020929190829003018186803b15801561381657600080fd5b505afa15801561382a573d6000803e3d6000fd5b505050506040513d602081101561384057600080fd5b505192915050565b600080826001600160a01b031663182df0f56040518163ffffffff1660e01b815260040160206040518083038186803b15801561388457600080fd5b505afa158015613898573d6000803e3d6000fd5b505050506040513d60208110156138ae57600080fd5b505160408051630ae9d70b60e41b815290519192506000916001600160a01b0386169163ae9d70b0916004808301926020929190829003018186803b1580156138f657600080fd5b505afa15801561390a573d6000803e3d6000fd5b505050506040513d602081101561392057600080fd5b505160408051636c540baf60e01b815290519192506000916001600160a01b03871691636c540baf916004808301926020929190829003018186803b15801561396857600080fd5b505afa15801561397c573d6000803e3d6000fd5b505050506040513d602081101561399257600080fd5b50514303918302919091029091019392505050565b60008183670de0b6b3a764000002816139bc57fe5b049392505050565b604080516370a0823160e01b8152306004820152905160009182916001600160a01b038616916370a08231916024808301926020929190829003018186803b158015613a0f57600080fd5b505afa158015613a23573d6000803e3d6000fd5b505050506040513d6020811015613a3957600080fd5b50516040805163db006a7560e01b81526004810186905290519192506001600160a01b0386169163db006a75916024808201926020929091908290030181600087803b158015613a8857600080fd5b505af1158015613a9c573d6000803e3d6000fd5b505050506040513d6020811015613ab257600080fd5b5050604080516370a0823160e01b815230600482015290516000916001600160a01b038716916370a0823191602480820192602092909190829003018186803b158015613afe57600080fd5b505afa158015613b12573d6000803e3d6000fd5b505050506040513d6020811015613b2857600080fd5b505191909103949350505050565b604080516001600160a01b038481166024830152604480830185905283518084039091018152606490920183526020820180516001600160e01b031663a9059cbb60e01b178152925182516000946060949389169392918291908083835b60208310613bb35780518252601f199092019160209182019101613b94565b6001836020036101000a0380198251168184511680821785525050505050509050019150506000604051808303816000865af19150503d8060008114613c15576040519150601f19603f3d011682016040523d82523d6000602084013e613c1a565b606091505b5091509150818015613c48575080511580613c485750808060200190516020811015613c4557600080fd5b50515b613c99576040805162461bcd60e51b815260206004820152601f60248201527f5472616e7366657248656c7065723a205452414e534645525f4641494c454400604482015290519081900360640190fd5b5050505050565b600554604080516370a0823160e01b8152306004820152905160009283926001600160a01b03909116916370a0823191602480820192602092909190829003018186803b158015613cf057600080fd5b505afa158015613d04573d6000803e3d6000fd5b505050506040513d6020811015613d1a57600080fd5b50516005546040805163db006a7560e01b81526004810187905290519293506001600160a01b039091169163db006a75916024808201926020929091908290030181600087803b158015613d6d57600080fd5b505af1158015613d81573d6000803e3d6000fd5b505050506040513d6020811015613d9757600080fd5b5050600554604080516370a0823160e01b815230600482015290516000926001600160a01b0316916370a08231916024808301926020929190829003018186803b158015613de457600080fd5b505afa158015613df8573d6000803e3d6000fd5b505050506040513d6020811015613e0e57600080fd5b5051919091039392505050565b604080516000808252602082019092526001600160a01b0384169083906040518082805190602001908083835b60208310613e675780518252601f199092019160209182019101613e48565b6001836020036101000a03801982511681845116808217855250505050505090500191505060006040518083038185875af1925050503d8060008114613ec9576040519150601f19603f3d011682016040523d82523d6000602084013e613ece565b606091505b5050905080613f0e5760405162461bcd60e51b8152600401808060200182810382526023815260200180615b6c6023913960400191505060405180910390fd5b505050565b6060808251604051908082528060200260200182016040528015613f41578160200160208202803883390190505b50905060005b8351811015613f9857613f6c848281518110613f5f57fe5b6020026020010151614fa2565b828281518110613f7857fe5b6001600160a01b0390921660209283029190910190910152600101613f47565b5092915050565b604080516001600160a01b0385811660248301528481166044830152606480830185905283518084039091018152608490920183526020820180516001600160e01b03166323b872dd60e01b17815292518251600094606094938a169392918291908083835b602083106140245780518252601f199092019160209182019101614005565b6001836020036101000a0380198251168184511680821785525050505050509050019150506000604051808303816000865af19150503d8060008114614086576040519150601f19603f3d011682016040523d82523d6000602084013e61408b565b606091505b50915091508180156140b95750805115806140b957508080602001905160208110156140b657600080fd5b50515b6140f45760405162461bcd60e51b8152600401808060200182810382526024815260200180615b8f6024913960400191505060405180910390fd5b505050505050565b600154604080516370e264b360e11b815290516000926001600160a01b03169163e1c4c966916004808301926020929190829003018186803b15801561414157600080fd5b505afa158015614155573d6000803e3d6000fd5b505050506040513d602081101561416b57600080fd5b5051905060005b6001845103811015613c995760008085838151811061418d57fe5b60200260200101518684600101815181106141a457fe5b602090810291909101015160015460408051632a26552b60e11b81526001600160a01b03808616600483015280851660248301528251959750939550600094939092169263544caa56926044808201939291829003018186803b15801561420a57600080fd5b505afa15801561421e573d6000803e3d6000fd5b505050506040513d604081101561423457600080fd5b505160015488519192506000916001600160a01b039091169063e6a43905908a908890811061425f57fe5b60200260200101518a886001018151811061427657fe5b60200260200101516040518363ffffffff1660e01b815260040180836001600160a01b03166001600160a01b03168152602001826001600160a01b03166001600160a01b031681526020019250505060206040518083038186803b1580156142dd57600080fd5b505afa1580156142f1573d6000803e3d6000fd5b505050506040513d602081101561430757600080fd5b505189519091506000908a906001880190811061432057fe5b60209081029190910101516003549091506001600160a01b0316156143d0576003546040805163152cf14360e31b81523360048201526001600160a01b0388811660248301528781166044830152606482018590529151919092169163a9678a189160848083019260209291908290030181600087803b1580156143a357600080fd5b505af11580156143b7573d6000803e3d6000fd5b505050506040513d60208110156143cd57600080fd5b50505b600080846001600160a01b0316876001600160a01b0316146143f4578260006143f8565b6000835b91509150600060028c5103891061440f578a614422565b614422878d8b6002018151811061192b57fe5b9050600e54600114156144e457600061443c89878d6153d8565b9050801561444d5761444d816158af565b6144578989612391565b6001600160a01b0316630442a865858585856040518563ffffffff1660e01b815260040180858152602001848152602001836001600160a01b03166001600160a01b03168152602001828152602001945050505050600060405180830381600087803b1580156144c657600080fd5b505af11580156144da573d6000803e3d6000fd5b5050505050614604565b6144ee8888612391565b6001600160a01b031663022c0d9f84848460006040519080825280601f01601f19166020018201604052801561452b576020820181803883390190505b506040518563ffffffff1660e01b815260040180858152602001848152602001836001600160a01b03166001600160a01b0316815260200180602001828103825283818151815260200191508051906020019080838360005b8381101561459c578181015183820152602001614584565b50505050905090810190601f1680156145c95780820380516001836020036101000a031916815260200191505b5095505050505050600060405180830381600087803b1580156145eb57600080fd5b505af11580156145ff573d6000803e3d6000fd5b505050505b505060019096019550614172945050505050565b60608342811015614662576040805162461bcd60e51b815260206004820152600f60248201526e149bdd5d195c8e8811561412549151608a1b604482015290519081900360640190fd5b606061466d88615210565b9050614677615a95565b8a8160400181815250506146918260008151811061332957fe5b815281516146a490839060009061332957fe5b602082015280516000906146b9908d906139a7565b90506060600160009054906101000a90046001600160a01b03166001600160a01b031663d06ca61f838d6040518363ffffffff1660e01b81526004018083815260200180602001828103825283818151815260200191508051906020019060200280838360005b83811015614738578181015183820152602001614720565b50505050905001935050505060006040518083038186803b15801561475c57600080fd5b505afa158015614770573d6000803e3d6000fd5b505050506040513d6000823e601f3d908101601f19168201604052602081101561479957600080fd5b8101908080516040519392919084600160201b8211156147b857600080fd5b9083019060208201858111156147cd57600080fd5b82518660208202830111600160201b821117156147e957600080fd5b82525081516020918201928201910280838360005b838110156148165781810151838201526020016147fe565b50505050905001604052505050905061484a8160018351038151811061483857fe5b60200260200101518460200151614d08565b606084018190528c111561488f5760405162461bcd60e51b8152600401808060200182810382526022815260200180615b4a6022913960400191505060405180910390fd5b87156148b3576148ae6148a88c60008151811061356057fe5b8e61505d565b6148c3565b6148c38b60008151811061359457fe5b6148ce818c8c6140fc565b8a516000190187156148f0576148ea8b83838151811061360757fe5b50614901565b6148ff85828151811061362957fe5b505b8b5160405190808252806020026020018201604052801561492c578160200160208202803883390190505b5096508d8760008151811061493d57fe5b60200260200101818152505083606001518782815181106136ba57fe5b6001546040805163e6a4390560e01b81526001600160a01b038981166004830152888116602483015291516000938493849391169163e6a4390591604480820192602092909190829003018186803b1580156149b557600080fd5b505afa1580156149c9573d6000803e3d6000fd5b505050506040513d60208110156149df57600080fd5b50516001600160a01b03161415614a7457600154604080516364e329cb60e11b81526001600160a01b038b811660048301528a811660248301529151919092169163c9c653969160448083019260209291908290030181600087803b158015614a4757600080fd5b505af1158015614a5b573d6000803e3d6000fd5b505050506040513d6020811015614a7157600080fd5b50505b6001546040805163354aedbd60e21b81526001600160a01b038b811660048301528a811660248301528251600094859492169263d52bb6f4926044808301939192829003018186803b158015614ac957600080fd5b505afa158015614add573d6000803e3d6000fd5b505050506040513d6040811015614af357600080fd5b508051602090910151909250905081158015614b0d575080155b15614b1d57879350869250614cfb565b60015460408051632b58577b60e21b8152600481018b9052602481018590526044810184905290516000926001600160a01b03169163ad615dec916064808301926020929190829003018186803b158015614b7757600080fd5b505afa158015614b8b573d6000803e3d6000fd5b505050506040513d6020811015614ba157600080fd5b50519050878111614c0c5785811015614c01576040805162461bcd60e51b815260206004820152601d60248201527f526f757465723a20494e53554646494349454e545f425f414d4f554e54000000604482015290519081900360640190fd5b889450925082614cf9565b60015460408051632b58577b60e21b8152600481018b9052602481018590526044810186905290516000926001600160a01b03169163ad615dec916064808301926020929190829003018186803b158015614c6657600080fd5b505afa158015614c7a573d6000803e3d6000fd5b505050506040513d6020811015614c9057600080fd5b5051905089811115614c9e57fe5b87811015614cf3576040805162461bcd60e51b815260206004820152601d60248201527f526f757465723a20494e53554646494349454e545f415f414d4f554e54000000604482015290519081900360640190fd5b94508793505b505b5050965096945050505050565b6000670de0b6b3a76400008383026139bc565b614d2784333084613f9f565b604080516370a0823160e01b815230600482015290516000916001600160a01b038616916370a0823191602480820192602092909190829003018186803b158015614d7157600080fd5b505afa158015614d85573d6000803e3d6000fd5b505050506040513d6020811015614d9b57600080fd5b50516040805163140e25ad60e31b81526004810185905290519192506000916001600160a01b0387169163a0712d6891602480830192602092919082900301818787803b158015614deb57600080fd5b505af1158015614dff573d6000803e3d6000fd5b505050506040513d6020811015614e1557600080fd5b505190508015614e5a576040805162461bcd60e51b815260206004820152600b60248201526a1b5a5b9d0819985a5b195960aa1b604482015290519081900360640190fd5b604080516370a0823160e01b815230600482015290516000916001600160a01b038816916370a0823191602480820192602092909190829003018186803b158015614ea457600080fd5b505afa158015614eb8573d6000803e3d6000fd5b505050506040513d6020811015614ece57600080fd5b50519050828103614ee187308884613f9f565b5050505050505050565b600082614efa575060006115a6565b82820282848281614f0757fe5b041461245d5760405162461bcd60e51b8152600401808060200182810382526021815260200180615ae46021913960400191505060405180910390fd5b60008282018381101561245d576040805162461bcd60e51b815260206004820152601b60248201527f536166654d6174683a206164646974696f6e206f766572666c6f770000000000604482015290519081900360640190fd5b3390565b60015460408051634219547760e01b815290516000926001600160a01b0316916342195477916004808301926020929190829003018186803b158015614fe757600080fd5b505afa158015614ffb573d6000803e3d6000fd5b505050506040513d602081101561501157600080fd5b50516040805163b8d7b66960e01b81526001600160a01b0385811660048301529151919092169163b8d7b669916024808301926020929190829003018186803b15801561381657600080fd5b600554604080516370a0823160e01b815230600482015290516000926001600160a01b0316916370a08231916024808301926020929190829003018186803b1580156150a857600080fd5b505afa1580156150bc573d6000803e3d6000fd5b505050506040513d60208110156150d257600080fd5b5051600554604080516370a0823160e01b815230600482015290519293506000926001600160a01b03909216916370a0823191602480820192602092909190829003018186803b15801561512557600080fd5b505afa158015615139573d6000803e3d6000fd5b505050506040513d602081101561514f57600080fd5b505160055490915082820390613c99906001600160a01b0316308784613f9f565b6001600160a01b0381166151b55760405162461bcd60e51b8152600401808060200182810382526026815260200180615abe6026913960400191505060405180910390fd5b600080546040516001600160a01b03808516939216917f8be0079c531659141344cd1fd0a4f28419497f9722a3daafe3b4186f6b6457e091a3600080546001600160a01b0319166001600160a01b0392909216919091179055565b606080825160405190808252806020026020018201604052801561523e578160200160208202803883390190505b50905060005b8351811015613f985761526984828151811061525c57fe5b602002602001015161375b565b82828151811061527557fe5b6001600160a01b0390921660209283029190910190910152600101615244565b6000806152a183613ca0565b90508015613f9857613f988482613e1b565b6000806152c086846139c4565b905080156152d3576152d3858583613b36565b50949350505050565b6000818484111561536b5760405162461bcd60e51b81526004018080602001828103825283818151815260200191508051906020019080838360005b83811015615330578181015183820152602001615318565b50505050905090810190601f16801561535d5780820380516001836020036101000a031916815260200191505b509250505060405180910390fd5b505050900390565b600081836153c25760405162461bcd60e51b8152602060048201818152835160248401528351909283926044909101919085019080838360008315615330578181015183820152602001615318565b5060008385816153ce57fe5b0495945050505050565b600080600160009054906101000a90046001600160a01b03166001600160a01b031663017e7e586040518163ffffffff1660e01b815260040160206040518083038186803b15801561542957600080fd5b505afa15801561543d573d6000803e3d6000fd5b505050506040513d602081101561545357600080fd5b505190506001600160a01b0381166154a2576040805162461bcd60e51b815260206004820152600d60248201526c666565546f206973207a65726f60981b604482015290519081900360640190fd5b60006154ad8661375b565b6001600160a01b03166370a08231866040518263ffffffff1660e01b815260040180826001600160a01b03166001600160a01b0316815260200191505060206040518083038186803b15801561550257600080fd5b505afa158015615516573d6000803e3d6000fd5b505050506040513d602081101561552c57600080fd5b505160408051633f3b917d60e21b81526004810183905290519192506000916001600160a01b0388169163fcee45f4916024808301926020929190829003018186803b15801561557b57600080fd5b505afa15801561558f573d6000803e3d6000fd5b505050506040513d60208110156155a557600080fd5b505190506001600160a01b0387811690861614156155c5578093506158a5565b60005b6004548110156158a3576000600482815481106155e157fe5b60009182526020808320909101546001546040805163e6a4390560e01b81526001600160a01b038f81166004830152938416602482018190529151919650919092169263e6a4390592604480840193829003018186803b15801561564457600080fd5b505afa158015615658573d6000803e3d6000fd5b505050506040513d602081101561566e57600080fd5b505190506001600160a01b0381161561589957876001600160a01b0316826001600160a01b0316141561572a576040805163a9059cbb60e01b81526001600160a01b0383166004820181905260248201879052915163a9059cbb916044808201926020929091908290030181600087803b1580156156eb57600080fd5b505af11580156156ff573d6000803e3d6000fd5b505050506040513d602081101561571557600080fd5b5061572390508185886158d4565b9650615892565b6001546040805163e6a4390560e01b81526001600160a01b0385811660048301528b811660248301529151600093929092169163e6a4390591604480820192602092909190829003018186803b15801561578357600080fd5b505afa158015615797573d6000803e3d6000fd5b505050506040513d60208110156157ad57600080fd5b505190506001600160a01b0381166157f65760405162461bcd60e51b8152600401808060200182810382526025815260200180615b256025913960400191505060405180910390fd5b6040805163a9059cbb60e01b81526001600160a01b0384166004820181905260248201889052915163a9059cbb916044808201926020929091908290030181600087803b15801561584657600080fd5b505af115801561585a573d6000803e3d6000fd5b505050506040513d602081101561587057600080fd5b50600090506158808387846158d4565b905061588d82828a6158d4565b985050505b50506158a3565b50506001016155c8565b505b5050509392505050565b4360095414156158c65760068054820190556132a2565b600680546007555543600955565b6000806000856001600160a01b0316630902f1ac6040518163ffffffff1660e01b815260040160606040518083038186803b15801561591257600080fd5b505afa158015615926573d6000803e3d6000fd5b505050506040513d606081101561593c57600080fd5b5080516020909101516dffffffffffffffffffffffffffff918216935016905061597f61596f838763ffffffff614f4416565b61127b878463ffffffff614eeb16565b60408051630442a86560e01b8152600060048201819052602482018490526001600160a01b03888116604484015260648301859052925193965091891692630442a8659260848084019391929182900301818387803b1580156159e157600080fd5b505af11580156159f5573d6000803e3d6000fd5b5050505050509392505050565b604051806101c001604052806000815260200160008152602001600081526020016000815260200160008152602001600081526020016000815260200160008152602001600081526020016000815260200160006001600160a01b0316815260200160006001600160a01b0316815260200160006001600160a01b0316815260200160006001600160a01b031681525090565b604051806080016040528060008152602001600081526020016000815260200160008152509056fe4f776e61626c653a206e6577206f776e657220697320746865207a65726f2061646472657373536166654d6174683a206d756c7469706c69636174696f6e206f766572666c6f774f776e61626c653a2063616c6c6572206973206e6f7420746865206f776e657271756f746520636f696e20686173206e6f207061697220746f20616e63686f72546f6b656e526f757465723a20494e53554646494349454e545f4f55545055545f414d4f554e545472616e7366657248656c7065723a204554485f5452414e534645525f4641494c45445472616e7366657248656c7065723a205452414e534645525f46524f4d5f4641494c4544a265627a7a723158209c3fcaa548ae86ad1f1223d21b484eae63f05ea0c268997ad576ac8b4759a3a064736f6c63430005100032",
  "devdoc": {
    "methods": {
      "isOwner()": {
        "details": "Returns true if the caller is the current owner."
      },
      "owner()": {
        "details": "Returns the address of the current owner."
      },
      "renounceOwnership()": {
        "details": "Leaves the contract without owner. It will not be possible to call `onlyOwner` functions anymore. Can only be called by the current owner.     * NOTE: Renouncing ownership will leave the contract without an owner, thereby removing any functionality that is only available to the owner."
      },
      "transferOwnership(address)": {
        "details": "Transfers ownership of the contract to a new account (`newOwner`). Can only be called by the current owner."
      }
    }
  },
  "userdoc": {
    "methods": {}
  },
  "storageLayout": {
    "storage": [
      {
        "astId": 289,
        "contract": "contracts/swap/heco/Router.sol:DeBankRouter",
        "label": "_owner",
        "offset": 0,
        "slot": "0",
        "type": "t_address"
      },
      {
        "astId": 35154,
        "contract": "contracts/swap/heco/Router.sol:DeBankRouter",
        "label": "factory",
        "offset": 0,
        "slot": "1",
        "type": "t_address"
      },
      {
        "astId": 35156,
        "contract": "contracts/swap/heco/Router.sol:DeBankRouter",
        "label": "WHT",
        "offset": 0,
        "slot": "2",
        "type": "t_address"
      },
      {
        "astId": 35158,
        "contract": "contracts/swap/heco/Router.sol:DeBankRouter",
        "label": "swapMining",
        "offset": 0,
        "slot": "3",
        "type": "t_address"
      },
      {
        "astId": 35161,
        "contract": "contracts/swap/heco/Router.sol:DeBankRouter",
        "label": "quoteTokens",
        "offset": 0,
        "slot": "4",
        "type": "t_array(t_address)dyn_storage"
      },
      {
        "astId": 35163,
        "contract": "contracts/swap/heco/Router.sol:DeBankRouter",
        "label": "cWHT",
        "offset": 0,
        "slot": "5",
        "type": "t_address"
      },
      {
        "astId": 35165,
        "contract": "contracts/swap/heco/Router.sol:DeBankRouter",
        "label": "allPairFee",
        "offset": 0,
        "slot": "6",
        "type": "t_uint256"
      },
      {
        "astId": 35167,
        "contract": "contracts/swap/heco/Router.sol:DeBankRouter",
        "label": "allPairFeeLastBlock",
        "offset": 0,
        "slot": "7",
        "type": "t_uint256"
      },
      {
        "astId": 35169,
        "contract": "contracts/swap/heco/Router.sol:DeBankRouter",
        "label": "startBlock",
        "offset": 0,
        "slot": "8",
        "type": "t_uint256"
      },
      {
        "astId": 35171,
        "contract": "contracts/swap/heco/Router.sol:DeBankRouter",
        "label": "currentBlock",
        "offset": 0,
        "slot": "9",
        "type": "t_uint256"
      },
      {
        "astId": 35173,
        "contract": "contracts/swap/heco/Router.sol:DeBankRouter",
        "label": "lpPerBlock",
        "offset": 0,
        "slot": "10",
        "type": "t_uint256"
      },
      {
        "astId": 35175,
        "contract": "contracts/swap/heco/Router.sol:DeBankRouter",
        "label": "traderPerBlock",
        "offset": 0,
        "slot": "11",
        "type": "t_uint256"
      },
      {
        "astId": 35178,
        "contract": "contracts/swap/heco/Router.sol:DeBankRouter",
        "label": "halvingPeriod",
        "offset": 0,
        "slot": "12",
        "type": "t_uint256"
      },
      {
        "astId": 35180,
        "contract": "contracts/swap/heco/Router.sol:DeBankRouter",
        "label": "rewardToken",
        "offset": 0,
        "slot": "13",
        "type": "t_address"
      },
      {
        "astId": 35182,
        "contract": "contracts/swap/heco/Router.sol:DeBankRouter",
        "label": "feeAlloc",
        "offset": 0,
        "slot": "14",
        "type": "t_uint256"
      }
    ],
    "types": {
      "t_address": {
        "encoding": "inplace",
        "label": "address",
        "numberOfBytes": "20"
      },
      "t_array(t_address)dyn_storage": {
        "base": "t_address",
        "encoding": "dynamic_array",
        "label": "address[]",
        "numberOfBytes": "32"
      },
      "t_uint256": {
        "encoding": "inplace",
        "label": "uint256",
        "numberOfBytes": "32"
      }
    }
  }
}