{
  "address": "0x0826d36cecA6240B6A894796C3c3F90030CE6fB8",
  "abi": [
    {
      "inputs": [
        {
          "internalType": "address",
          "name": "_factory",
          "type": "address"
        },
        {
          "internalType": "address",
          "name": "_wht",
          "type": "address"
        },
        {
          "internalType": "address",
          "name": "_cwht",
          "type": "address"
        },
        {
          "internalType": "uint256",
          "name": "_startBlock",
          "type": "uint256"
        }
      ],
      "payable": false,
      "stateMutability": "nonpayable",
      "type": "constructor"
    },
    {
      "anonymous": false,
      "inputs": [
        {
          "indexed": true,
          "internalType": "address",
          "name": "previousOwner",
          "type": "address"
        },
        {
          "indexed": true,
          "internalType": "address",
          "name": "newOwner",
          "type": "address"
        }
      ],
      "name": "OwnershipTransferred",
      "type": "event"
    },
    {
      "payable": true,
      "stateMutability": "payable",
      "type": "fallback"
    },
    {
      "constant": true,
      "inputs": [],
      "name": "WHT",
      "outputs": [
        {
          "internalType": "address",
          "name": "",
          "type": "address"
        }
      ],
      "payable": false,
      "stateMutability": "view",
      "type": "function"
    },
    {
      "constant": false,
      "inputs": [
        {
          "internalType": "address",
          "name": "tokenA",
          "type": "address"
        },
        {
          "internalType": "address",
          "name": "tokenB",
          "type": "address"
        },
        {
          "internalType": "uint256",
          "name": "amountADesired",
          "type": "uint256"
        },
        {
          "internalType": "uint256",
          "name": "amountBDesired",
          "type": "uint256"
        },
        {
          "internalType": "uint256",
          "name": "amountAMin",
          "type": "uint256"
        },
        {
          "internalType": "uint256",
          "name": "amountBMin",
          "type": "uint256"
        },
        {
          "internalType": "address",
          "name": "to",
          "type": "address"
        },
        {
          "internalType": "uint256",
          "name": "deadline",
          "type": "uint256"
        }
      ],
      "name": "addLiquidity",
      "outputs": [
        {
          "internalType": "uint256",
          "name": "amountA",
          "type": "uint256"
        },
        {
          "internalType": "uint256",
          "name": "amountB",
          "type": "uint256"
        },
        {
          "internalType": "uint256",
          "name": "liquidity",
          "type": "uint256"
        }
      ],
      "payable": false,
      "stateMutability": "nonpayable",
      "type": "function"
    },
    {
      "constant": false,
      "inputs": [
        {
          "internalType": "address",
          "name": "token",
          "type": "address"
        },
        {
          "internalType": "uint256",
          "name": "amountTokenDesired",
          "type": "uint256"
        },
        {
          "internalType": "uint256",
          "name": "amountTokenMin",
          "type": "uint256"
        },
        {
          "internalType": "uint256",
          "name": "amountETHMin",
          "type": "uint256"
        },
        {
          "internalType": "address",
          "name": "to",
          "type": "address"
        },
        {
          "internalType": "uint256",
          "name": "deadline",
          "type": "uint256"
        }
      ],
      "name": "addLiquidityETHUnderlying",
      "outputs": [
        {
          "internalType": "uint256",
          "name": "amountToken",
          "type": "uint256"
        },
        {
          "internalType": "uint256",
          "name": "amountETH",
          "type": "uint256"
        },
        {
          "internalType": "uint256",
          "name": "liquidity",
          "type": "uint256"
        }
      ],
      "payable": true,
      "stateMutability": "payable",
      "type": "function"
    },
    {
      "constant": false,
      "inputs": [
        {
          "internalType": "address",
          "name": "tokenA",
          "type": "address"
        },
        {
          "internalType": "address",
          "name": "tokenB",
          "type": "address"
        },
        {
          "internalType": "uint256",
          "name": "amountADesired",
          "type": "uint256"
        },
        {
          "internalType": "uint256",
          "name": "amountBDesired",
          "type": "uint256"
        },
        {
          "internalType": "uint256",
          "name": "amountAMin",
          "type": "uint256"
        },
        {
          "internalType": "uint256",
          "name": "amountBMin",
          "type": "uint256"
        },
        {
          "internalType": "address",
          "name": "to",
          "type": "address"
        },
        {
          "internalType": "uint256",
          "name": "deadline",
          "type": "uint256"
        }
      ],
      "name": "addLiquidityUnderlying",
      "outputs": [
        {
          "internalType": "uint256",
          "name": "amountA",
          "type": "uint256"
        },
        {
          "internalType": "uint256",
          "name": "amountB",
          "type": "uint256"
        },
        {
          "internalType": "uint256",
          "name": "liquidity",
          "type": "uint256"
        }
      ],
      "payable": false,
      "stateMutability": "nonpayable",
      "type": "function"
    },
    {
      "constant": false,
      "inputs": [
        {
          "internalType": "address",
          "name": "token",
          "type": "address"
        }
      ],
      "name": "addQuoteToken",
      "outputs": [],
      "payable": false,
      "stateMutability": "nonpayable",
      "type": "function"
    },
    {
      "constant": false,
      "inputs": [
        {
          "internalType": "address",
          "name": "token",
          "type": "address"
        },
        {
          "internalType": "address",
          "name": "to",
          "type": "address"
        },
        {
          "internalType": "uint256",
          "name": "amt",
          "type": "uint256"
        }
      ],
      "name": "adminTransfer",
      "outputs": [],
      "payable": false,
      "stateMutability": "nonpayable",
      "type": "function"
    },
    {
      "constant": true,
      "inputs": [],
      "name": "allPairFee",
      "outputs": [
        {
          "internalType": "uint256",
          "name": "",
          "type": "uint256"
        }
      ],
      "payable": false,
      "stateMutability": "view",
      "type": "function"
    },
    {
      "constant": true,
      "inputs": [],
      "name": "allPairFeeLastBlock",
      "outputs": [
        {
          "internalType": "uint256",
          "name": "",
          "type": "uint256"
        }
      ],
      "payable": false,
      "stateMutability": "view",
      "type": "function"
    },
    {
      "constant": true,
      "inputs": [],
      "name": "cWHT",
      "outputs": [
        {
          "internalType": "address",
          "name": "",
          "type": "address"
        }
      ],
      "payable": false,
      "stateMutability": "view",
      "type": "function"
    },
    {
      "constant": true,
      "inputs": [],
      "name": "currentBlock",
      "outputs": [
        {
          "internalType": "uint256",
          "name": "",
          "type": "uint256"
        }
      ],
      "payable": false,
      "stateMutability": "view",
      "type": "function"
    },
    {
      "constant": true,
      "inputs": [],
      "name": "factory",
      "outputs": [
        {
          "internalType": "address",
          "name": "",
          "type": "address"
        }
      ],
      "payable": false,
      "stateMutability": "view",
      "type": "function"
    },
    {
      "constant": true,
      "inputs": [],
      "name": "feeAlloc",
      "outputs": [
        {
          "internalType": "uint256",
          "name": "",
          "type": "uint256"
        }
      ],
      "payable": false,
      "stateMutability": "view",
      "type": "function"
    },
    {
      "constant": true,
      "inputs": [
        {
          "internalType": "uint256",
          "name": "amountOut",
          "type": "uint256"
        },
        {
          "internalType": "uint256",
          "name": "reserveIn",
          "type": "uint256"
        },
        {
          "internalType": "uint256",
          "name": "reserveOut",
          "type": "uint256"
        }
      ],
      "name": "getAmountIn",
      "outputs": [
        {
          "internalType": "uint256",
          "name": "amountIn",
          "type": "uint256"
        }
      ],
      "payable": false,
      "stateMutability": "view",
      "type": "function"
    },
    {
      "constant": true,
      "inputs": [
        {
          "internalType": "uint256",
          "name": "amountIn",
          "type": "uint256"
        },
        {
          "internalType": "uint256",
          "name": "reserveIn",
          "type": "uint256"
        },
        {
          "internalType": "uint256",
          "name": "reserveOut",
          "type": "uint256"
        }
      ],
      "name": "getAmountOut",
      "outputs": [
        {
          "internalType": "uint256",
          "name": "amountOut",
          "type": "uint256"
        }
      ],
      "payable": false,
      "stateMutability": "view",
      "type": "function"
    },
    {
      "constant": true,
      "inputs": [
        {
          "internalType": "uint256",
          "name": "amountOut",
          "type": "uint256"
        },
        {
          "internalType": "address[]",
          "name": "path",
          "type": "address[]"
        }
      ],
      "name": "getAmountsIn",
      "outputs": [
        {
          "internalType": "uint256[]",
          "name": "amounts",
          "type": "uint256[]"
        }
      ],
      "payable": false,
      "stateMutability": "view",
      "type": "function"
    },
    {
      "constant": true,
      "inputs": [
        {
          "internalType": "uint256",
          "name": "amountIn",
          "type": "uint256"
        },
        {
          "internalType": "address[]",
          "name": "path",
          "type": "address[]"
        }
      ],
      "name": "getAmountsOut",
      "outputs": [
        {
          "internalType": "uint256[]",
          "name": "amounts",
          "type": "uint256[]"
        }
      ],
      "payable": false,
      "stateMutability": "view",
      "type": "function"
    },
    {
      "constant": true,
      "inputs": [
        {
          "internalType": "uint256",
          "name": "_lastRewardBlock",
          "type": "uint256"
        }
      ],
      "name": "getBlockRewards",
      "outputs": [
        {
          "internalType": "uint256",
          "name": "",
          "type": "uint256"
        }
      ],
      "payable": false,
      "stateMutability": "view",
      "type": "function"
    },
    {
      "constant": true,
      "inputs": [],
      "name": "halvingPeriod",
      "outputs": [
        {
          "internalType": "uint256",
          "name": "",
          "type": "uint256"
        }
      ],
      "payable": false,
      "stateMutability": "view",
      "type": "function"
    },
    {
      "constant": true,
      "inputs": [],
      "name": "isOwner",
      "outputs": [
        {
          "internalType": "bool",
          "name": "",
          "type": "bool"
        }
      ],
      "payable": false,
      "stateMutability": "view",
      "type": "function"
    },
    {
      "constant": true,
      "inputs": [],
      "name": "lpPerBlock",
      "outputs": [
        {
          "internalType": "uint256",
          "name": "",
          "type": "uint256"
        }
      ],
      "payable": false,
      "stateMutability": "view",
      "type": "function"
    },
    {
      "constant": true,
      "inputs": [],
      "name": "owner",
      "outputs": [
        {
          "internalType": "address",
          "name": "",
          "type": "address"
        }
      ],
      "payable": false,
      "stateMutability": "view",
      "type": "function"
    },
    {
      "constant": true,
      "inputs": [
        {
          "internalType": "address",
          "name": "tokenA",
          "type": "address"
        },
        {
          "internalType": "address",
          "name": "tokenB",
          "type": "address"
        }
      ],
      "name": "pairFor",
      "outputs": [
        {
          "internalType": "address",
          "name": "pair",
          "type": "address"
        }
      ],
      "payable": false,
      "stateMutability": "view",
      "type": "function"
    },
    {
      "constant": true,
      "inputs": [
        {
          "internalType": "uint256",
          "name": "blockNumber",
          "type": "uint256"
        }
      ],
      "name": "phase",
      "outputs": [
        {
          "internalType": "uint256",
          "name": "",
          "type": "uint256"
        }
      ],
      "payable": false,
      "stateMutability": "view",
      "type": "function"
    },
    {
      "constant": true,
      "inputs": [
        {
          "internalType": "uint256",
          "name": "amountA",
          "type": "uint256"
        },
        {
          "internalType": "uint256",
          "name": "reserveA",
          "type": "uint256"
        },
        {
          "internalType": "uint256",
          "name": "reserveB",
          "type": "uint256"
        }
      ],
      "name": "quote",
      "outputs": [
        {
          "internalType": "uint256",
          "name": "amountB",
          "type": "uint256"
        }
      ],
      "payable": false,
      "stateMutability": "view",
      "type": "function"
    },
    {
      "constant": true,
      "inputs": [
        {
          "internalType": "uint256",
          "name": "",
          "type": "uint256"
        }
      ],
      "name": "quoteTokens",
      "outputs": [
        {
          "internalType": "address",
          "name": "",
          "type": "address"
        }
      ],
      "payable": false,
      "stateMutability": "view",
      "type": "function"
    },
    {
      "constant": false,
      "inputs": [
        {
          "internalType": "address",
          "name": "ctokenA",
          "type": "address"
        },
        {
          "internalType": "address",
          "name": "ctokenB",
          "type": "address"
        },
        {
          "internalType": "uint256",
          "name": "liquidity",
          "type": "uint256"
        },
        {
          "internalType": "uint256",
          "name": "amountAMin",
          "type": "uint256"
        },
        {
          "internalType": "uint256",
          "name": "amountBMin",
          "type": "uint256"
        },
        {
          "internalType": "address",
          "name": "to",
          "type": "address"
        },
        {
          "internalType": "uint256",
          "name": "deadline",
          "type": "uint256"
        }
      ],
      "name": "removeLiquidity",
      "outputs": [
        {
          "internalType": "uint256",
          "name": "amountA",
          "type": "uint256"
        },
        {
          "internalType": "uint256",
          "name": "amountB",
          "type": "uint256"
        }
      ],
      "payable": false,
      "stateMutability": "nonpayable",
      "type": "function"
    },
    {
      "constant": false,
      "inputs": [
        {
          "internalType": "address",
          "name": "token",
          "type": "address"
        },
        {
          "internalType": "uint256",
          "name": "liquidity",
          "type": "uint256"
        },
        {
          "internalType": "uint256",
          "name": "amountTokenMin",
          "type": "uint256"
        },
        {
          "internalType": "uint256",
          "name": "amountETHMin",
          "type": "uint256"
        },
        {
          "internalType": "address",
          "name": "to",
          "type": "address"
        },
        {
          "internalType": "uint256",
          "name": "deadline",
          "type": "uint256"
        }
      ],
      "name": "removeLiquidityETHUnderlying",
      "outputs": [
        {
          "internalType": "uint256",
          "name": "amountToken",
          "type": "uint256"
        },
        {
          "internalType": "uint256",
          "name": "amountETH",
          "type": "uint256"
        }
      ],
      "payable": false,
      "stateMutability": "nonpayable",
      "type": "function"
    },
    {
      "constant": false,
      "inputs": [
        {
          "internalType": "address",
          "name": "token",
          "type": "address"
        },
        {
          "internalType": "uint256",
          "name": "liquidity",
          "type": "uint256"
        },
        {
          "internalType": "uint256",
          "name": "amountTokenMin",
          "type": "uint256"
        },
        {
          "internalType": "uint256",
          "name": "amountETHMin",
          "type": "uint256"
        },
        {
          "internalType": "address",
          "name": "to",
          "type": "address"
        },
        {
          "internalType": "uint256",
          "name": "deadline",
          "type": "uint256"
        },
        {
          "internalType": "bool",
          "name": "approveMax",
          "type": "bool"
        },
        {
          "internalType": "uint8",
          "name": "v",
          "type": "uint8"
        },
        {
          "internalType": "bytes32",
          "name": "r",
          "type": "bytes32"
        },
        {
          "internalType": "bytes32",
          "name": "s",
          "type": "bytes32"
        }
      ],
      "name": "removeLiquidityETHUnderlyingWithPermit",
      "outputs": [
        {
          "internalType": "uint256",
          "name": "amountToken",
          "type": "uint256"
        },
        {
          "internalType": "uint256",
          "name": "amountETH",
          "type": "uint256"
        }
      ],
      "payable": false,
      "stateMutability": "nonpayable",
      "type": "function"
    },
    {
      "constant": false,
      "inputs": [
        {
          "internalType": "address",
          "name": "tokenA",
          "type": "address"
        },
        {
          "internalType": "address",
          "name": "tokenB",
          "type": "address"
        },
        {
          "internalType": "uint256",
          "name": "liquidity",
          "type": "uint256"
        },
        {
          "internalType": "uint256",
          "name": "amountAMin",
          "type": "uint256"
        },
        {
          "internalType": "uint256",
          "name": "amountBMin",
          "type": "uint256"
        },
        {
          "internalType": "address",
          "name": "to",
          "type": "address"
        },
        {
          "internalType": "uint256",
          "name": "deadline",
          "type": "uint256"
        }
      ],
      "name": "removeLiquidityUnderlying",
      "outputs": [
        {
          "internalType": "uint256",
          "name": "amountA",
          "type": "uint256"
        },
        {
          "internalType": "uint256",
          "name": "amountB",
          "type": "uint256"
        }
      ],
      "payable": false,
      "stateMutability": "nonpayable",
      "type": "function"
    },
    {
      "constant": false,
      "inputs": [
        {
          "internalType": "address",
          "name": "tokenA",
          "type": "address"
        },
        {
          "internalType": "address",
          "name": "tokenB",
          "type": "address"
        },
        {
          "internalType": "uint256",
          "name": "liquidity",
          "type": "uint256"
        },
        {
          "internalType": "uint256",
          "name": "amountAMin",
          "type": "uint256"
        },
        {
          "internalType": "uint256",
          "name": "amountBMin",
          "type": "uint256"
        },
        {
          "internalType": "address",
          "name": "to",
          "type": "address"
        },
        {
          "internalType": "uint256",
          "name": "deadline",
          "type": "uint256"
        },
        {
          "internalType": "bool",
          "name": "approveMax",
          "type": "bool"
        },
        {
          "internalType": "uint8",
          "name": "v",
          "type": "uint8"
        },
        {
          "internalType": "bytes32",
          "name": "r",
          "type": "bytes32"
        },
        {
          "internalType": "bytes32",
          "name": "s",
          "type": "bytes32"
        }
      ],
      "name": "removeLiquidityWithPermit",
      "outputs": [
        {
          "internalType": "uint256",
          "name": "amountA",
          "type": "uint256"
        },
        {
          "internalType": "uint256",
          "name": "amountB",
          "type": "uint256"
        }
      ],
      "payable": false,
      "stateMutability": "nonpayable",
      "type": "function"
    },
    {
      "constant": false,
      "inputs": [],
      "name": "renounceOwnership",
      "outputs": [],
      "payable": false,
      "stateMutability": "nonpayable",
      "type": "function"
    },
    {
      "constant": false,
      "inputs": [
        {
          "internalType": "address[]",
          "name": "tokens",
          "type": "address[]"
        }
      ],
      "name": "resetQuoteTokens",
      "outputs": [],
      "payable": false,
      "stateMutability": "nonpayable",
      "type": "function"
    },
    {
      "constant": true,
      "inputs": [
        {
          "internalType": "uint256",
          "name": "blockNumber",
          "type": "uint256"
        }
      ],
      "name": "reward",
      "outputs": [
        {
          "internalType": "uint256",
          "name": "",
          "type": "uint256"
        }
      ],
      "payable": false,
      "stateMutability": "view",
      "type": "function"
    },
    {
      "constant": true,
      "inputs": [],
      "name": "rewardToken",
      "outputs": [
        {
          "internalType": "address",
          "name": "",
          "type": "address"
        }
      ],
      "payable": false,
      "stateMutability": "view",
      "type": "function"
    },
    {
      "constant": false,
      "inputs": [
        {
          "internalType": "address",
          "name": "_swapMininng",
          "type": "address"
        }
      ],
      "name": "setSwapMining",
      "outputs": [],
      "payable": false,
      "stateMutability": "nonpayable",
      "type": "function"
    },
    {
      "constant": true,
      "inputs": [],
      "name": "startBlock",
      "outputs": [
        {
          "internalType": "uint256",
          "name": "",
          "type": "uint256"
        }
      ],
      "payable": false,
      "stateMutability": "view",
      "type": "function"
    },
    {
      "constant": false,
      "inputs": [
        {
          "internalType": "uint256",
          "name": "amountOut",
          "type": "uint256"
        },
        {
          "internalType": "address[]",
          "name": "path",
          "type": "address[]"
        },
        {
          "internalType": "address",
          "name": "to",
          "type": "address"
        },
        {
          "internalType": "uint256",
          "name": "deadline",
          "type": "uint256"
        }
      ],
      "name": "swapETHForExactTokensUnderlying",
      "outputs": [
        {
          "internalType": "uint256[]",
          "name": "amounts",
          "type": "uint256[]"
        }
      ],
      "payable": true,
      "stateMutability": "payable",
      "type": "function"
    },
    {
      "constant": false,
      "inputs": [
        {
          "internalType": "uint256",
          "name": "amountOutMin",
          "type": "uint256"
        },
        {
          "internalType": "address[]",
          "name": "path",
          "type": "address[]"
        },
        {
          "internalType": "address",
          "name": "to",
          "type": "address"
        },
        {
          "internalType": "uint256",
          "name": "deadline",
          "type": "uint256"
        }
      ],
      "name": "swapExactETHForTokensUnderlying",
      "outputs": [
        {
          "internalType": "uint256[]",
          "name": "amounts",
          "type": "uint256[]"
        }
      ],
      "payable": true,
      "stateMutability": "payable",
      "type": "function"
    },
    {
      "constant": false,
      "inputs": [
        {
          "internalType": "uint256",
          "name": "amountIn",
          "type": "uint256"
        },
        {
          "internalType": "uint256",
          "name": "amountOutMin",
          "type": "uint256"
        },
        {
          "internalType": "address[]",
          "name": "path",
          "type": "address[]"
        },
        {
          "internalType": "address",
          "name": "to",
          "type": "address"
        },
        {
          "internalType": "uint256",
          "name": "deadline",
          "type": "uint256"
        }
      ],
      "name": "swapExactTokensForETHUnderlying",
      "outputs": [
        {
          "internalType": "uint256[]",
          "name": "amounts",
          "type": "uint256[]"
        }
      ],
      "payable": false,
      "stateMutability": "nonpayable",
      "type": "function"
    },
    {
      "constant": false,
      "inputs": [
        {
          "internalType": "uint256",
          "name": "amountIn",
          "type": "uint256"
        },
        {
          "internalType": "uint256",
          "name": "amountOutMin",
          "type": "uint256"
        },
        {
          "internalType": "address[]",
          "name": "cpath",
          "type": "address[]"
        },
        {
          "internalType": "address",
          "name": "to",
          "type": "address"
        },
        {
          "internalType": "uint256",
          "name": "deadline",
          "type": "uint256"
        }
      ],
      "name": "swapExactTokensForTokens",
      "outputs": [
        {
          "internalType": "uint256[]",
          "name": "amounts",
          "type": "uint256[]"
        }
      ],
      "payable": false,
      "stateMutability": "nonpayable",
      "type": "function"
    },
    {
      "constant": false,
      "inputs": [
        {
          "internalType": "uint256",
          "name": "amountIn",
          "type": "uint256"
        },
        {
          "internalType": "uint256",
          "name": "amountOutMin",
          "type": "uint256"
        },
        {
          "internalType": "address[]",
          "name": "path",
          "type": "address[]"
        },
        {
          "internalType": "address",
          "name": "to",
          "type": "address"
        },
        {
          "internalType": "uint256",
          "name": "deadline",
          "type": "uint256"
        }
      ],
      "name": "swapExactTokensForTokensUnderlying",
      "outputs": [
        {
          "internalType": "uint256[]",
          "name": "amounts",
          "type": "uint256[]"
        }
      ],
      "payable": false,
      "stateMutability": "nonpayable",
      "type": "function"
    },
    {
      "constant": true,
      "inputs": [],
      "name": "swapMining",
      "outputs": [
        {
          "internalType": "address",
          "name": "",
          "type": "address"
        }
      ],
      "payable": false,
      "stateMutability": "view",
      "type": "function"
    },
    {
      "constant": false,
      "inputs": [
        {
          "internalType": "uint256",
          "name": "amountOut",
          "type": "uint256"
        },
        {
          "internalType": "uint256",
          "name": "amountInMax",
          "type": "uint256"
        },
        {
          "internalType": "address[]",
          "name": "path",
          "type": "address[]"
        },
        {
          "internalType": "address",
          "name": "to",
          "type": "address"
        },
        {
          "internalType": "uint256",
          "name": "deadline",
          "type": "uint256"
        }
      ],
      "name": "swapTokensForExactETHUnderlying",
      "outputs": [
        {
          "internalType": "uint256[]",
          "name": "amounts",
          "type": "uint256[]"
        }
      ],
      "payable": false,
      "stateMutability": "nonpayable",
      "type": "function"
    },
    {
      "constant": false,
      "inputs": [
        {
          "internalType": "uint256",
          "name": "amountOut",
          "type": "uint256"
        },
        {
          "internalType": "uint256",
          "name": "amountInMax",
          "type": "uint256"
        },
        {
          "internalType": "address[]",
          "name": "cpath",
          "type": "address[]"
        },
        {
          "internalType": "address",
          "name": "to",
          "type": "address"
        },
        {
          "internalType": "uint256",
          "name": "deadline",
          "type": "uint256"
        }
      ],
      "name": "swapTokensForExactTokens",
      "outputs": [
        {
          "internalType": "uint256[]",
          "name": "amounts",
          "type": "uint256[]"
        }
      ],
      "payable": false,
      "stateMutability": "nonpayable",
      "type": "function"
    },
    {
      "constant": false,
      "inputs": [
        {
          "internalType": "uint256",
          "name": "amountOut",
          "type": "uint256"
        },
        {
          "internalType": "uint256",
          "name": "amountInMax",
          "type": "uint256"
        },
        {
          "internalType": "address[]",
          "name": "path",
          "type": "address[]"
        },
        {
          "internalType": "address",
          "name": "to",
          "type": "address"
        },
        {
          "internalType": "uint256",
          "name": "deadline",
          "type": "uint256"
        }
      ],
      "name": "swapTokensForExactTokensUnderlying",
      "outputs": [
        {
          "internalType": "uint256[]",
          "name": "amounts",
          "type": "uint256[]"
        }
      ],
      "payable": false,
      "stateMutability": "nonpayable",
      "type": "function"
    },
    {
      "constant": true,
      "inputs": [],
      "name": "traderPerBlock",
      "outputs": [
        {
          "internalType": "uint256",
          "name": "",
          "type": "uint256"
        }
      ],
      "payable": false,
      "stateMutability": "view",
      "type": "function"
    },
    {
      "constant": false,
      "inputs": [
        {
          "internalType": "address",
          "name": "newOwner",
          "type": "address"
        }
      ],
      "name": "transferOwnership",
      "outputs": [],
      "payable": false,
      "stateMutability": "nonpayable",
      "type": "function"
    }
  ],
  "transactionHash": "0xf4f49f2bd03e6b3bbed77cdb00a833a3b5ce807cb297f8422953f4a8e96f194c",
  "args": [
    "0xeC6cbd588D087821Ec43b2A7456D86ED28a6743d",
    "0x7aF326B6351C8A9b8fb8CD205CBe11d4Ac5FA836",
    "0x602aE5101A5AA53659b8E307842B214887069d69",
    0
  ],
  "solcInputHash": "3389b8ccc6702db21560f446ce99e258",
  "bytecode": "0x608060405262503340600c553480156200001857600080fd5b50604051620061c2380380620061c2833981810160405260808110156200003e57600080fd5b508051602082015160408301516060909301519192909160006200006a6001600160e01b03620001d216565b600080546001600160a01b0319166001600160a01b0383169081178255604051929350917f8be0079c531659141344cd1fd0a4f28419497f9722a3daafe3b4186f6b6457e0908290a350600180546001600160a01b038087166001600160a01b031992831681179093556002805487831690841617905560058054918616919092161790556008829055604080516370e264b360e11b815290516004929163e1c4c96691818501916020919081900386018186803b1580156200012c57600080fd5b505afa15801562000141573d6000803e3d6000fd5b505050506040513d60208110156200015857600080fd5b505181546001808201845560009384526020842090910180546001600160a01b03199081166001600160a01b03948516179091556004805492830181559093527f8a35acfbc15ff81a39ae7d344fd709f28e8600b4aa8c65c6b64bfe7fe36bd19b01805490921693169290921790915550620001d6915050565b3390565b615fdc80620001e66000396000f3fe6080604052600436106102885760003560e01c806385f8c2591161015a578063c45a0155116100c1578063e8e337001161007a578063e8e3370014610f50578063ee41be8e14610fb2578063efd06f2e14611036578063f2fde38b1461107c578063f7c618c1146110af578063fa900088146110c457610288565b8063c45a015514610d5e578063c5746a6e14610d73578063d06ca61f14610dd0578063da72c1e814610e85578063dbdfc62514610ec8578063e12ed13c14610f3b57610288565b806396ed28f91161011357806396ed28f914610bcd578063a9fb763c14610c08578063ad615dec14610c32578063af06ca8f14610c68578063baa2abde14610c7d578063bbee6c2914610cda57610288565b806385f8c25914610a185780638803dbee14610a4e57806389a6072c14610ae45780638da5cb5b14610af95780638e750db914610b0e5780638f32d59b14610ba457610288565b80634cc94ba1116101fe5780635a3e251f116101b75780635a3e251f146108ec5780635cb4859214610901578063715018a61461091657806378b8d7351461092b5780637e87ffe8146109d95780637f3709a3146109ee57610288565b80634cc94ba1146107c75780634e5eda11146107dc5780634f887183146107f15780635710207c14610824578063575815111461083957806358956d411461086c57610288565b80631f00ca74116102505780631f00ca741461050d5780632195995c146105c25780632c9115c71461064057806338ed1739146106865780633eabf55f1461071c57806348cd4cb1146107b257610288565b80630520b290146102b3578063054d50d414610399578063135f8aa7146103e157806314e5207b1461040b5780631da81f6214610477575b6002546001600160a01b03163314806102ab57506005546001600160a01b031633145b6102b157fe5b005b3480156102bf57600080fd5b50610349600480360360a08110156102d657600080fd5b813591602081013591810190606081016040820135600160201b8111156102fc57600080fd5b82018360208201111561030e57600080fd5b803590602001918460208302840111600160201b8311171561032f57600080fd5b91935091506001600160a01b0381351690602001356110d9565b60408051602080825283518183015283519192839290830191858101910280838360005b8381101561038557818101518382015260200161036d565b505050509050019250505060405180910390f35b3480156103a557600080fd5b506103cf600480360360608110156103bc57600080fd5b50803590602081013590604001356111ec565b60408051918252519081900360200190f35b3480156103ed57600080fd5b506103cf6004803603602081101561040457600080fd5b503561127a565b34801561041757600080fd5b5061045e600480360360c081101561042e57600080fd5b506001600160a01b0381358116916020810135916040820135916060810135916080820135169060a001356112e1565b6040805192835260208301919091528051918290030190f35b34801561048357600080fd5b50610349600480360360a081101561049a57600080fd5b813591602081013591810190606081016040820135600160201b8111156104c057600080fd5b8201836020820111156104d257600080fd5b803590602001918460208302840111600160201b831117156104f357600080fd5b91935091506001600160a01b0381351690602001356113f5565b34801561051957600080fd5b506103496004803603604081101561053057600080fd5b81359190810190604081016020820135600160201b81111561055157600080fd5b82018360208201111561056357600080fd5b803590602001918460208302840111600160201b8311171561058457600080fd5b91908080602002602001604051908101604052809392919081815260200183836020028082843760009201919091525092955061147d945050505050565b3480156105ce57600080fd5b5061045e60048036036101608110156105e657600080fd5b506001600160a01b038135811691602081013582169160408201359160608101359160808201359160a08101359091169060c08101359060e081013515159060ff61010082013516906101208101359061014001356115dc565b34801561064c57600080fd5b5061066a6004803603602081101561066357600080fd5b50356116b5565b604080516001600160a01b039092168252519081900360200190f35b34801561069257600080fd5b50610349600480360360a08110156106a957600080fd5b813591602081013591810190606081016040820135600160201b8111156106cf57600080fd5b8201836020820111156106e157600080fd5b803590602001918460208302840111600160201b8311171561070257600080fd5b91935091506001600160a01b0381351690602001356116dc565b34801561072857600080fd5b50610349600480360360a081101561073f57600080fd5b813591602081013591810190606081016040820135600160201b81111561076557600080fd5b82018360208201111561077757600080fd5b803590602001918460208302840111600160201b8311171561079857600080fd5b91935091506001600160a01b038135169060200135611995565b3480156107be57600080fd5b506103cf611a1d565b3480156107d357600080fd5b506103cf611a23565b3480156107e857600080fd5b5061066a611a29565b3480156107fd57600080fd5b506102b16004803603602081101561081457600080fd5b50356001600160a01b0316611a38565b34801561083057600080fd5b5061066a611aa1565b34801561084557600080fd5b506102b16004803603602081101561085c57600080fd5b50356001600160a01b0316611ab0565b34801561087857600080fd5b506108ce600480360361010081101561089057600080fd5b506001600160a01b038135811691602081013582169160408201359160608101359160808201359160a08101359160c0820135169060e00135611b49565b60408051938452602084019290925282820152519081900360600190f35b3480156108f857600080fd5b506103cf611d64565b34801561090d57600080fd5b5061066a611d6a565b34801561092257600080fd5b506102b1611d79565b34801561093757600080fd5b506102b16004803603602081101561094e57600080fd5b810190602081018135600160201b81111561096857600080fd5b82018360208201111561097a57600080fd5b803590602001918460208302840111600160201b8311171561099b57600080fd5b919080806020026020016040519081016040528093929190818152602001838360200280828437600092019190915250929550611e0a945050505050565b3480156109e557600080fd5b506103cf611ef7565b3480156109fa57600080fd5b506103cf60048036036020811015610a1157600080fd5b5035611efd565b348015610a2457600080fd5b506103cf60048036036060811015610a3b57600080fd5b5080359060208101359060400135611fcb565b348015610a5a57600080fd5b50610349600480360360a0811015610a7157600080fd5b813591602081013591810190606081016040820135600160201b811115610a9757600080fd5b820183602082011115610aa957600080fd5b803590602001918460208302840111600160201b83111715610aca57600080fd5b91935091506001600160a01b038135169060200135612025565b348015610af057600080fd5b506103cf61226d565b348015610b0557600080fd5b5061066a612273565b348015610b1a57600080fd5b50610349600480360360a0811015610b3157600080fd5b813591602081013591810190606081016040820135600160201b811115610b5757600080fd5b820183602082011115610b6957600080fd5b803590602001918460208302840111600160201b83111715610b8a57600080fd5b91935091506001600160a01b038135169060200135612282565b348015610bb057600080fd5b50610bb9612389565b604080519115158252519081900360200190f35b348015610bd957600080fd5b5061066a60048036036040811015610bf057600080fd5b506001600160a01b03813581169160200135166123ad565b348015610c1457600080fd5b506103cf60048036036020811015610c2b57600080fd5b5035612439565b348015610c3e57600080fd5b506103cf60048036036060811015610c5557600080fd5b5080359060208101359060400135612480565b348015610c7457600080fd5b506103cf6124da565b348015610c8957600080fd5b5061045e600480360360e0811015610ca057600080fd5b506001600160a01b038135811691602081013582169160408201359160608101359160808201359160a08101359091169060c001356124e0565b61034960048036036080811015610cf057600080fd5b81359190810190604081016020820135600160201b811115610d1157600080fd5b820183602082011115610d2357600080fd5b803590602001918460208302840111600160201b83111715610d4457600080fd5b91935091506001600160a01b03813516906020013561278d565b348015610d6a57600080fd5b5061066a61289a565b348015610d7f57600080fd5b5061045e600480360360e0811015610d9657600080fd5b506001600160a01b038135811691602081013582169160408201359160608101359160808201359160a08101359091169060c001356128a9565b348015610ddc57600080fd5b5061034960048036036040811015610df357600080fd5b81359190810190604081016020820135600160201b811115610e1457600080fd5b820183602082011115610e2657600080fd5b803590602001918460208302840111600160201b83111715610e4757600080fd5b919080806020026020016040519081016040528093929190818152602001838360200280828437600092019190915250929550612c70945050505050565b348015610e9157600080fd5b506102b160048036036060811015610ea857600080fd5b506001600160a01b03813581169160208101359091169060400135612cd8565b348015610ed457600080fd5b5061045e6004803603610140811015610eec57600080fd5b506001600160a01b0381358116916020810135916040820135916060810135916080820135169060a08101359060c081013515159060ff60e08201351690610100810135906101200135612d4d565b348015610f4757600080fd5b506103cf612e2f565b348015610f5c57600080fd5b506108ce6004803603610100811015610f7457600080fd5b506001600160a01b038135811691602081013582169160408201359160608101359160808201359160a08101359160c0820135169060e00135612e35565b61034960048036036080811015610fc857600080fd5b81359190810190604081016020820135600160201b811115610fe957600080fd5b820183602082011115610ffb57600080fd5b803590602001918460208302840111600160201b8311171561101c57600080fd5b91935091506001600160a01b038135169060200135612f50565b6108ce600480360360c081101561104c57600080fd5b506001600160a01b0381358116916020810135916040820135916060810135916080820135169060a00135613052565b34801561108857600080fd5b506102b16004803603602081101561109f57600080fd5b50356001600160a01b0316613261565b3480156110bb57600080fd5b5061066a6132b4565b3480156110d057600080fd5b506103cf6132c3565b6060814281101561111f576040805162461bcd60e51b81526020600482015260156024820152600080516020615ed7833981519152604482015290519081900360640190fd5b6002546001600160a01b03168686600019810181811061113b57fe5b905060200201356001600160a01b03166001600160a01b03161461119d576040805162461bcd60e51b81526020600482015260146024820152730a4deeae8cae47440929cac82989288bea082a8960631b604482015290519081900360640190fd5b6111e0888888888080602002602001604051908101604052809392919081815260200183836020028082843760009201829052508b93508a9250905060016132c9565b98975050505050505050565b60015460408051630153543560e21b815260048101869052602481018590526044810184905290516000926001600160a01b03169163054d50d4916064808301926020929190829003018186803b15801561124657600080fd5b505afa15801561125a573d6000803e3d6000fd5b505050506040513d602081101561127057600080fd5b5051949350505050565b6000600c546000141561128f575060006112dc565b6008548211156112d8576112d1600c546112c560016112b96008548761370290919063ffffffff16565b9063ffffffff61370216565b9063ffffffff61374416565b90506112dc565b5060005b919050565b6000808242811015611328576040805162461bcd60e51b81526020600482015260156024820152600080516020615ed7833981519152604482015290519081900360640190fd5b611330615ce5565b6113398a613786565b6001600160a01b0316610180820181905261135390613873565b608082015260055461136d906001600160a01b0316613873565b60c08201526080810151600090611385908a906139d2565b90506000611397898460c001516139d2565b61018084015160055491925060009182916113bf916001600160a01b03168f8787308f6124e0565b61018087015191935091506113d6908f8c856139f0565b97506113e28a82613a11565b9650505050505050965096945050505050565b6060814281101561143b576040805162461bcd60e51b81526020600482015260156024820152600080516020615ed7833981519152604482015290519081900360640190fd5b6111e0888888888080602002602001604051908101604052809392919081815260200183836020028082843760009201829052508b93508a92509050806132c9565b600154604080516307c0329d60e21b815260048101858152602482019283528451604483015284516060946001600160a01b031693631f00ca749388938893909291606401906020808601910280838360005b838110156114e85781810151838201526020016114d0565b50505050905001935050505060006040518083038186803b15801561150c57600080fd5b505afa158015611520573d6000803e3d6000fd5b505050506040513d6000823e601f3d908101601f19168201604052602081101561154957600080fd5b8101908080516040519392919084600160201b82111561156857600080fd5b90830190602082018581111561157d57600080fd5b82518660208202830111600160201b8211171561159957600080fd5b82525081516020918201928201910280838360005b838110156115c65781810151838201526020016115ae565b5050505090500160405250505090505b92915050565b60008060006115eb8e8e6123ad565b90506000876115fa578c6115fe565b6000195b6040805163d505accf60e01b815233600482015230602482015260448101839052606481018c905260ff8a16608482015260a4810189905260c4810188905290519192506001600160a01b0384169163d505accf9160e48082019260009290919082900301818387803b15801561167457600080fd5b505af1158015611688573d6000803e3d6000fd5b5050505061169b8f8f8f8f8f8f8f6124e0565b809450819550505050509b509b9950505050505050505050565b600481815481106116c257fe5b6000918252602090912001546001600160a01b0316905081565b60608142811015611722576040805162461bcd60e51b81526020600482015260156024820152600080516020615ed7833981519152604482015290519081900360640190fd5b6060611760878780806020026020016040519081016040528093929190818152602001838360200280828437600092019190915250613a2f92505050565b6001546040805163d06ca61f60e01b8152600481018d8152602482019283528451604483015284519495506001600160a01b039093169363d06ca61f938e93879391929091606401906020808601910280838360005b838110156117ce5781810151838201526020016117b6565b50505050905001935050505060006040518083038186803b1580156117f257600080fd5b505afa158015611806573d6000803e3d6000fd5b505050506040513d6000823e601f3d908101601f19168201604052602081101561182f57600080fd5b8101908080516040519392919084600160201b82111561184e57600080fd5b90830190602082018581111561186357600080fd5b82518660208202830111600160201b8211171561187f57600080fd5b82525081516020918201928201910280838360005b838110156118ac578181015183820152602001611894565b50505050905001604052505050925087836001855103815181106118cc57fe5b602002602001015110156119115760405162461bcd60e51b8152600401808060200182810382526022815260200180615f1c6022913960400191505060405180910390fd5b61197e8787600081811061192157fe5b905060200201356001600160a01b0316336119648460008151811061194257fe5b60200260200101518560018151811061195757fe5b60200260200101516123ad565b8660008151811061197157fe5b6020026020010151613abb565b611989838287613c18565b50509695505050505050565b606081428110156119db576040805162461bcd60e51b81526020600482015260156024820152600080516020615ed7833981519152604482015290519081900360640190fd5b6111e0888888888080602002602001604051908101604052809392919081815260200183836020028082843760009201829052508b93508a925090508061413b565b60085481565b60065481565b6003546001600160a01b031681565b611a40612389565b611a7f576040805162461bcd60e51b81526020600482018190526024820152600080516020615e87833981519152604482015290519081900360640190fd5b600380546001600160a01b0319166001600160a01b0392909216919091179055565b6005546001600160a01b031681565b611ab8612389565b611af7576040805162461bcd60e51b81526020600482018190526024820152600080516020615e87833981519152604482015290519081900360640190fd5b600480546001810182556000919091527f8a35acfbc15ff81a39ae7d344fd709f28e8600b4aa8c65c6b64bfe7fe36bd19b0180546001600160a01b0319166001600160a01b0392909216919091179055565b60008060008342811015611b92576040805162461bcd60e51b81526020600482015260156024820152600080516020615ed7833981519152604482015290519081900360640190fd5b611b9a615ce5565b611ba38d614479565b6001600160a01b0316610180820152611bbb8c614479565b6001600160a01b03166101a0820152610180810151611bd990613873565b60808201526101a0810151611bed90613873565b60a08201526080810151611c02908c906139d2565b815260a0810151611c14908b906139d2565b60208201526080810151611c29908a906139d2565b604082015260a0810151611c3e9089906139d2565b606082018190526101808201516101a0830151835160208501516040860151611c669561454a565b61010083015260e08201526000611c7d8e8e6123ad565b9050611c918260e0015183608001516148e9565b9550611ca68261010001518360a001516148e9565b9450611cb98e8361018001518389614907565b611cca8d836101a001518388614907565b806001600160a01b0316636a627842896040518263ffffffff1660e01b815260040180826001600160a01b03166001600160a01b03168152602001915050602060405180830381600087803b158015611d2257600080fd5b505af1158015611d36573d6000803e3d6000fd5b505050506040513d6020811015611d4c57600080fd5b5051959e949d50949b50929950505050505050505050565b600c5481565b6002546001600160a01b031681565b611d81612389565b611dc0576040805162461bcd60e51b81526020600482018190526024820152600080516020615e87833981519152604482015290519081900360640190fd5b600080546040516001600160a01b03909116907f8be0079c531659141344cd1fd0a4f28419497f9722a3daafe3b4186f6b6457e0908390a3600080546001600160a01b0319169055565b611e12612389565b611e51576040805162461bcd60e51b81526020600482018190526024820152600080516020615e87833981519152604482015290519081900360640190fd5b60005b600454811015611e93576004805480611e6957fe5b600082815260209020810160001990810180546001600160a01b0319169055019055600101611e54565b5060005b8151811015611ef3576004828281518110611eae57fe5b60209081029190910181015182546001808201855560009485529290932090920180546001600160a01b0319166001600160a01b039093169290921790915501611e97565b5050565b600e5481565b60008080611f0a8461127a565b90506000611f174361127a565b90505b80821015611f9657600854600c54600190930192600091611f5291611f4690869063ffffffff614bd816565b9063ffffffff614c3116565b9050611f8c611f7f611f6383612439565b611f73848a63ffffffff61370216565b9063ffffffff614bd816565b859063ffffffff614c3116565b9095509250611f1a565b611fc2611fb5611fa543612439565b611f73438963ffffffff61370216565b849063ffffffff614c3116565b95945050505050565b600154604080516385f8c25960e01b815260048101869052602481018590526044810184905290516000926001600160a01b0316916385f8c259916064808301926020929190829003018186803b15801561124657600080fd5b6060814281101561206b576040805162461bcd60e51b81526020600482015260156024820152600080516020615ed7833981519152604482015290519081900360640190fd5b60606120a9878780806020026020016040519081016040528093929190818152602001838360200280828437600092019190915250613a2f92505050565b600154604080516307c0329d60e21b8152600481018d8152602482019283528451604483015284519495506001600160a01b0390931693631f00ca74938e93879391929091606401906020808601910280838360005b838110156121175781810151838201526020016120ff565b50505050905001935050505060006040518083038186803b15801561213b57600080fd5b505afa15801561214f573d6000803e3d6000fd5b505050506040513d6000823e601f3d908101601f19168201604052602081101561217857600080fd5b8101908080516040519392919084600160201b82111561219757600080fd5b9083019060208201858111156121ac57600080fd5b82518660208202830111600160201b821117156121c857600080fd5b82525081516020918201928201910280838360005b838110156121f55781810151838201526020016121dd565b505050509050016040525050509250878360008151811061221257fe5b60200260200101511115611911576040805162461bcd60e51b815260206004820152601e60248201527f526f757465723a204558434553534956455f494e5055545f414d4f554e540000604482015290519081900360640190fd5b60075481565b6000546001600160a01b031690565b606081428110156122c8576040805162461bcd60e51b81526020600482015260156024820152600080516020615ed7833981519152604482015290519081900360640190fd5b6002546001600160a01b0316868660001981018181106122e457fe5b905060200201356001600160a01b03166001600160a01b031614612346576040805162461bcd60e51b81526020600482015260146024820152730a4deeae8cae47440929cac82989288bea082a8960631b604482015290519081900360640190fd5b6111e0888888888080602002602001604051908101604052809392919081815260200183836020028082843760009201829052508b93508a92509050600161413b565b600080546001600160a01b031661239e614c8b565b6001600160a01b031614905090565b6001546040805163e6a4390560e01b81526001600160a01b03858116600483015284811660248301529151600093929092169163e6a4390591604480820192602092909190829003018186803b15801561240657600080fd5b505afa15801561241a573d6000803e3d6000fd5b505050506040513d602081101561243057600080fd5b50519392505050565b600d546000906001600160a01b0316612454575060006112dc565b600061245f8361127a565b90506124798160020a600a5461374490919063ffffffff16565b9392505050565b60015460408051632b58577b60e21b815260048101869052602481018590526044810184905290516000926001600160a01b03169163ad615dec916064808301926020929190829003018186803b15801561124657600080fd5b600b5481565b6000808242811015612527576040805162461bcd60e51b81526020600482015260156024820152600080516020615ed7833981519152604482015290519081900360640190fd5b60006125338b8b6123ad565b604080516323b872dd60e01b81523360048201526001600160a01b03831660248201819052604482018d9052915192935090916323b872dd916064808201926020929091908290030181600087803b15801561258e57600080fd5b505af11580156125a2573d6000803e3d6000fd5b505050506040513d60208110156125b857600080fd5b50506040805163226bf2d160e21b81526001600160a01b03888116600483015282516000938493928616926389afcb44926024808301939282900301818787803b15801561260557600080fd5b505af1158015612619573d6000803e3d6000fd5b505050506040513d604081101561262f57600080fd5b508051602090910151909250905060006126488e614c8f565b905060006126558e614c8f565b60015460408051632a26552b60e11b81526001600160a01b0386811660048301528085166024830152825194955060009493169263544caa5692604480840193919291829003018186803b1580156126ac57600080fd5b505afa1580156126c0573d6000803e3d6000fd5b505050506040513d60408110156126d657600080fd5b505190506001600160a01b03838116908216146126f45783856126f7565b84845b90995097508c89101561273b5760405162461bcd60e51b8152600401808060200182810382526026815260200180615dea6026913960400191505060405180910390fd5b8b88101561277a5760405162461bcd60e51b8152600401808060200182810382526026815260200180615dc46026913960400191505060405180910390fd5b5050505050505097509795505050505050565b606081428110156127d3576040805162461bcd60e51b81526020600482015260156024820152600080516020615ed7833981519152604482015290519081900360640190fd5b6002546001600160a01b031686866000816127ea57fe5b905060200201356001600160a01b03166001600160a01b03161461284c576040805162461bcd60e51b81526020600482015260146024820152730a4deeae8cae47440929cac82989288bea082a8960631b604482015290519081900360640190fd5b61288f873488888080602002602001604051908101604052809392919081815260200183836020028082843760009201829052508b93508a9250600191506132c9565b979650505050505050565b6001546001600160a01b031681565b60008082428110156128f0576040805162461bcd60e51b81526020600482015260156024820152600080516020615ed7833981519152604482015290519081900360640190fd5b60006128fc8b8b6123ad565b905088816001600160a01b0316636dbf2f7f886040518263ffffffff1660e01b815260040180826001600160a01b03166001600160a01b0316815260200191505060206040518083038186803b15801561295557600080fd5b505afa158015612969573d6000803e3d6000fd5b505050506040513d602081101561297f57600080fd5b505110156129d4576040805162461bcd60e51b815260206004820152601760248201527f6e6f74206f776e6572206f72206e6f7420656e6f756768000000000000000000604482015290519081900360640190fd5b604080516323b872dd60e01b81523360048201526001600160a01b03831660248201819052604482018c905291516323b872dd916064808201926020929091908290030181600087803b158015612a2a57600080fd5b505af1158015612a3e573d6000803e3d6000fd5b505050506040513d6020811015612a5457600080fd5b50612a5f9050615ce5565b6001600160a01b03808d166101408301528b81166101608301526040805163226bf2d160e21b815230600482015281516000938493908716926389afcb44926024808301939282900301818787803b158015612aba57600080fd5b505af1158015612ace573d6000803e3d6000fd5b505050506040513d6040811015612ae457600080fd5b50805160209091015160015461014086015161016087015160408051632a26552b60e11b81526001600160a01b03938416600482015291831660248301528051959750939550600094919092169263544caa569260448082019391829003018186803b158015612b5357600080fd5b505afa158015612b67573d6000803e3d6000fd5b505050506040513d6040811015612b7d57600080fd5b505190506001600160a01b038f811690821614612b9b578183612b9e565b82825b61010086015260e085015250612bc69150612bba90508d613786565b8d898460e001516139f0565b9450612be1612bd48c613786565b8c898461010001516139f0565b935088851015612c225760405162461bcd60e51b8152600401808060200182810382526030815260200180615e366030913960400191505060405180910390fd5b87841015612c615760405162461bcd60e51b8152600401808060200182810382526030815260200180615ea76030913960400191505060405180910390fd5b50505097509795505050505050565b6001546040805163d06ca61f60e01b815260048101858152602482019283528451604483015284516060946001600160a01b03169363d06ca61f93889388939092916064019060208086019102808383600083156114e85781810151838201526020016114d0565b612ce0612389565b612d1f576040805162461bcd60e51b81526020600482018190526024820152600080516020615e87833981519152604482015290519081900360640190fd5b6001600160a01b038316612d3c57612d378282614d4a565b612d48565b612d4883308484613abb565b505050565b60025460009081908190612d6b908e906001600160a01b03166123ad565b9050600087612d7a578c612d7e565b6000195b6040805163d505accf60e01b815233600482015230602482015260448101839052606481018c905260ff8a16608482015260a4810189905260c4810188905290519192506001600160a01b0384169163d505accf9160e48082019260009290919082900301818387803b158015612df457600080fd5b505af1158015612e08573d6000803e3d6000fd5b50505050612e1a8e8e8e8e8e8e6112e1565b909f909e509c50505050505050505050505050565b60095481565b60008060008342811015612e7e576040805162461bcd60e51b81526020600482015260156024820152600080516020615ed7833981519152604482015290519081900360640190fd5b612e8c8c8c8c8c8c8c61454a565b90945092506000612e9d8d8d6123ad565b9050612eab8d338388613abb565b612eb78c338387613abb565b806001600160a01b0316636a627842886040518263ffffffff1660e01b815260040180826001600160a01b03166001600160a01b03168152602001915050602060405180830381600087803b158015612f0f57600080fd5b505af1158015612f23573d6000803e3d6000fd5b505050506040513d6020811015612f3957600080fd5b5051949d939c50939a509198505050505050505050565b60608142811015612f96576040805162461bcd60e51b81526020600482015260156024820152600080516020615ed7833981519152604482015290519081900360640190fd5b6002546001600160a01b03168686600081612fad57fe5b905060200201356001600160a01b03166001600160a01b03161461300f576040805162461bcd60e51b81526020600482015260146024820152730a4deeae8cae47440929cac82989288bea082a8960631b604482015290519081900360640190fd5b61288f348888888080602002602001604051908101604052809392919081815260200183836020028082843760009201829052508b93508a92506001915061413b565b6000806000834281101561309b576040805162461bcd60e51b81526020600482015260156024820152600080516020615ed7833981519152604482015290519081900360640190fd5b60006130a68b614479565b90506130b0615ce5565b6130b982613873565b60808201526005546130d3906001600160a01b0316613873565b60a082015260808101516130e8908c906139d2565b815260a08101516130fa9034906139d2565b6020820152608081015161310f908b906139d2565b604082015260a0810151613124908a906139d2565b6060820181905260055482516020840151604085015160009485946131589489946001600160a01b0390921693909261454a565b91509150600061317d8f600260009054906101000a90046001600160a01b03166123ad565b905061318d8385608001516148e9565b985061319d828560a001516148e9565b97506131ab8f86838c614907565b6131b58189614e3d565b806001600160a01b0316636a6278428c6040518263ffffffff1660e01b815260040180826001600160a01b03166001600160a01b03168152602001915050602060405180830381600087803b15801561320d57600080fd5b505af1158015613221573d6000803e3d6000fd5b505050506040513d602081101561323757600080fd5b505196503488101561324f5761324f33893403614d4a565b50505050505096509650969350505050565b613269612389565b6132a8576040805162461bcd60e51b81526020600482018190526024820152600080516020615e87833981519152604482015290519081900360640190fd5b6132b181614fb0565b50565b600d546001600160a01b031681565b600a5481565b6060834281101561330f576040805162461bcd60e51b81526020600482015260156024820152600080516020615ed7833981519152604482015290519081900360640190fd5b606061331a88615050565b9050613324615d78565b6133418260008151811061333457fe5b6020026020010151613873565b81528851825161335c91849160001990910190811061333457fe5b60208201819052600090613371908d906139d2565b90506060600160009054906101000a90046001600160a01b03166001600160a01b0316631f00ca74838d6040518363ffffffff1660e01b81526004018083815260200180602001828103825283818151815260200191508051906020019060200280838360005b838110156133f05781810151838201526020016133d8565b50505050905001935050505060006040518083038186803b15801561341457600080fd5b505afa158015613428573d6000803e3d6000fd5b505050506040513d6000823e601f3d908101601f19168201604052602081101561345157600080fd5b8101908080516040519392919084600160201b82111561347057600080fd5b90830190602082018581111561348557600080fd5b82518660208202830111600160201b821117156134a157600080fd5b82525081516020918201928201910280838360005b838110156134ce5781810151838201526020016134b6565b5050505090500160405250505090506134ff816000815181106134ed57fe5b602002602001015184600001516148e9565b6040840181905261351790600163ffffffff614c3116565b604084018190528c1015613572576040805162461bcd60e51b815260206004820152601e60248201527f526f757465723a204558434553534956455f494e5055545f414d4f554e540000604482015290519081900360640190fd5b87156135af576135aa6135a08c60008151811061358b57fe5b60200260200101518d60018151811061195757fe5b8460400151614e3d565b61360b565b61360b8b6000815181106135bf57fe5b6020026020010151856000815181106135d457fe5b60200260200101516136018e6000815181106135ec57fe5b60200260200101518f60018151811061195757fe5b8660400151614907565b613616818c30613c18565b8a516000190187156136455761363f8b83838151811061363257fe5b6020026020010151613a11565b5061368c565b61368a85828151811061365457fe5b60200260200101518d838151811061366857fe5b60200260200101518d85858151811061367d57fe5b60200260200101516139f0565b505b8b516040519080825280602002602001820160405280156136b7578160200160208202803883390190505b5096508360400151876000815181106136cc57fe5b6020026020010181815250508d8782815181106136e557fe5b602002602001018181525050505050505050979650505050505050565b600061247983836040518060400160405280601e81526020017f536166654d6174683a207375627472616374696f6e206f766572666c6f7700008152506150d5565b600061247983836040518060400160405280601a81526020017f536166654d6174683a206469766973696f6e206279207a65726f00000000000081525061516c565b60015460408051634219547760e01b815290516000926001600160a01b0316916342195477916004808301926020929190829003018186803b1580156137cb57600080fd5b505afa1580156137df573d6000803e3d6000fd5b505050506040513d60208110156137f557600080fd5b50516040805163714bca1f60e11b81526001600160a01b0385811660048301529151919092169163e297943e916024808301926020929190829003018186803b15801561384157600080fd5b505afa158015613855573d6000803e3d6000fd5b505050506040513d602081101561386b57600080fd5b505192915050565b600080826001600160a01b031663182df0f56040518163ffffffff1660e01b815260040160206040518083038186803b1580156138af57600080fd5b505afa1580156138c3573d6000803e3d6000fd5b505050506040513d60208110156138d957600080fd5b505160408051630ae9d70b60e41b815290519192506000916001600160a01b0386169163ae9d70b0916004808301926020929190829003018186803b15801561392157600080fd5b505afa158015613935573d6000803e3d6000fd5b505050506040513d602081101561394b57600080fd5b505160408051636c540baf60e01b815290519192506000916001600160a01b03871691636c540baf916004808301926020929190829003018186803b15801561399357600080fd5b505afa1580156139a7573d6000803e3d6000fd5b505050506040513d60208110156139bd57600080fd5b50514303918302919091029091019392505050565b6000612479826112c585670de0b6b3a764000063ffffffff614bd816565b6000806139fe8686856151d1565b90508015611fc257611fc285858361538f565b600080613a1d836154f2565b90508015612479576124798482614d4a565b6060808251604051908082528060200260200182016040528015613a5d578160200160208202803883390190505b50905060005b8351811015613ab457613a88848281518110613a7b57fe5b6020026020010151614c8f565b828281518110613a9457fe5b6001600160a01b0390921660209283029190910190910152600101613a63565b5092915050565b604080516001600160a01b0385811660248301528481166044830152606480830185905283518084039091018152608490920183526020820180516001600160e01b03166323b872dd60e01b17815292518251600094606094938a169392918291908083835b60208310613b405780518252601f199092019160209182019101613b21565b6001836020036101000a0380198251168184511680821785525050505050509050019150506000604051808303816000865af19150503d8060008114613ba2576040519150601f19603f3d011682016040523d82523d6000602084013e613ba7565b606091505b5091509150818015613bd5575080511580613bd55750808060200190516020811015613bd257600080fd5b50515b613c105760405162461bcd60e51b8152600401808060200182810382526024815260200180615f616024913960400191505060405180910390fd5b505050505050565b600154604080516370e264b360e11b815290516000926001600160a01b03169163e1c4c966916004808301926020929190829003018186803b158015613c5d57600080fd5b505afa158015613c71573d6000803e3d6000fd5b505050506040513d6020811015613c8757600080fd5b5051905060005b600184510381101561413457600080858381518110613ca957fe5b6020026020010151868460010181518110613cc057fe5b602090810291909101015160015460408051632a26552b60e11b81526001600160a01b03808616600483015280851660248301528251959750939550600094939092169263544caa56926044808201939291829003018186803b158015613d2657600080fd5b505afa158015613d3a573d6000803e3d6000fd5b505050506040513d6040811015613d5057600080fd5b505160015488519192506000916001600160a01b039091169063e6a43905908a9088908110613d7b57fe5b60200260200101518a8860010181518110613d9257fe5b60200260200101516040518363ffffffff1660e01b815260040180836001600160a01b03166001600160a01b03168152602001826001600160a01b03166001600160a01b031681526020019250505060206040518083038186803b158015613df957600080fd5b505afa158015613e0d573d6000803e3d6000fd5b505050506040513d6020811015613e2357600080fd5b505189519091506000908a9060018801908110613e3c57fe5b60209081029190910101516003549091506001600160a01b031615613eec576003546040805163152cf14360e31b81523360048201526001600160a01b0388811660248301528781166044830152606482018590529151919092169163a9678a189160848083019260209291908290030181600087803b158015613ebf57600080fd5b505af1158015613ed3573d6000803e3d6000fd5b505050506040513d6020811015613ee957600080fd5b50505b600080846001600160a01b0316876001600160a01b031614613f1057826000613f14565b6000835b91509150600060028c51038910613f2b578a613f3e565b613f3e878d8b6002018151811061195757fe5b9050600e5460011415614000576000613f5889878d6156bb565b90508015613f6957613f6981615b92565b613f7389896123ad565b6001600160a01b0316630442a865858585856040518563ffffffff1660e01b815260040180858152602001848152602001836001600160a01b03166001600160a01b03168152602001828152602001945050505050600060405180830381600087803b158015613fe257600080fd5b505af1158015613ff6573d6000803e3d6000fd5b5050505050614120565b61400a88886123ad565b6001600160a01b031663022c0d9f84848460006040519080825280601f01601f191660200182016040528015614047576020820181803883390190505b506040518563ffffffff1660e01b815260040180858152602001848152602001836001600160a01b03166001600160a01b0316815260200180602001828103825283818151815260200191508051906020019080838360005b838110156140b85781810151838201526020016140a0565b50505050905090810190601f1680156140e55780820380516001836020036101000a031916815260200191505b5095505050505050600060405180830381600087803b15801561410757600080fd5b505af115801561411b573d6000803e3d6000fd5b505050505b505060019096019550613c8e945050505050565b5050505050565b60608342811015614181576040805162461bcd60e51b81526020600482015260156024820152600080516020615ed7833981519152604482015290519081900360640190fd5b606061418c88615050565b9050614196615d78565b8a8160400181815250506141b08260008151811061333457fe5b815281516141c390839060009061333457fe5b602082015280516000906141d8908d906139d2565b90506060600160009054906101000a90046001600160a01b03166001600160a01b031663d06ca61f838d6040518363ffffffff1660e01b81526004018083815260200180602001828103825283818151815260200191508051906020019060200280838360005b8381101561425757818101518382015260200161423f565b50505050905001935050505060006040518083038186803b15801561427b57600080fd5b505afa15801561428f573d6000803e3d6000fd5b505050506040513d6000823e601f3d908101601f1916820160405260208110156142b857600080fd5b8101908080516040519392919084600160201b8211156142d757600080fd5b9083019060208201858111156142ec57600080fd5b82518660208202830111600160201b8211171561430857600080fd5b82525081516020918201928201910280838360005b8381101561433557818101518382015260200161431d565b5050505090500160405250505090506143698160018351038151811061435757fe5b602002602001015184602001516148e9565b606084018190528c11156143ae5760405162461bcd60e51b8152600401808060200182810382526022815260200180615f1c6022913960400191505060405180910390fd5b87156143d2576143cd6143c78c60008151811061358b57fe5b8e614e3d565b6143e2565b6143e28b6000815181106135bf57fe5b6143ed818c30613c18565b8a5160001901871561440f576144098b83838151811061363257fe5b50614420565b61441e85828151811061365457fe5b505b8b5160405190808252806020026020018201604052801561444b578160200160208202803883390190505b5096508d8760008151811061445c57fe5b60200260200101818152505083606001518782815181106136e557fe5b60015460408051634219547760e01b815290516000926001600160a01b0316916342195477916004808301926020929190829003018186803b1580156144be57600080fd5b505afa1580156144d2573d6000803e3d6000fd5b505050506040513d60208110156144e857600080fd5b5051604080516326c7bd9360e01b81526001600160a01b038581166004830152915191909216916326c7bd939160248083019260209291908290030181600087803b15801561453657600080fd5b505af1158015613855573d6000803e3d6000fd5b600080600061455889614c8f565b9050600061456589614c8f565b6001546040805163e6a4390560e01b81526001600160a01b03868116600483015284811660248301529151939450600093919092169163e6a43905916044808301926020929190829003018186803b1580156145c057600080fd5b505afa1580156145d4573d6000803e3d6000fd5b505050506040513d60208110156145ea57600080fd5b50516001600160a01b0316141561467f57600154604080516364e329cb60e11b81526001600160a01b03858116600483015284811660248301529151919092169163c9c653969160448083019260209291908290030181600087803b15801561465257600080fd5b505af1158015614666573d6000803e3d6000fd5b505050506040513d602081101561467c57600080fd5b50505b6001546040805163354aedbd60e21b81526001600160a01b03858116600483015284811660248301528251600094859492169263d52bb6f4926044808301939192829003018186803b1580156146d457600080fd5b505afa1580156146e8573d6000803e3d6000fd5b505050506040513d60408110156146fe57600080fd5b508051602090910151909250905081158015614718575080155b15614728578995508894506148da565b60015460408051632b58577b60e21b8152600481018d9052602481018590526044810184905290516000926001600160a01b03169163ad615dec916064808301926020929190829003018186803b15801561478257600080fd5b505afa158015614796573d6000803e3d6000fd5b505050506040513d60208110156147ac57600080fd5b5051905089811161480157878110156147f65760405162461bcd60e51b8152600401808060200182810382526023815260200180615da16023913960400191505060405180910390fd5b8a96509450846148d8565b60015460408051632b58577b60e21b8152600481018d9052602481018590526044810186905290516000926001600160a01b03169163ad615dec916064808301926020929190829003018186803b15801561485b57600080fd5b505afa15801561486f573d6000803e3d6000fd5b505050506040513d602081101561488557600080fd5b505190508b81111561489357fe5b898110156148d25760405162461bcd60e51b8152600401808060200182810382526023815260200180615f856023913960400191505060405180910390fd5b96508995505b505b50505050965096945050505050565b6000612479670de0b6b3a76400006112c5858563ffffffff614bd816565b61491384333084613abb565b604080516370a0823160e01b815230600482015290516000916001600160a01b038616916370a0823191602480820192602092909190829003018186803b15801561495d57600080fd5b505afa158015614971573d6000803e3d6000fd5b505050506040513d602081101561498757600080fd5b50516040805163095ea7b360e01b81526001600160a01b0387811660048301526024820186905291519293509087169163095ea7b3916044808201926020929091908290030181600087803b1580156149df57600080fd5b505af11580156149f3573d6000803e3d6000fd5b505050506040513d6020811015614a0957600080fd5b50506040805163140e25ad60e31b81526004810184905290516000916001600160a01b0387169163a0712d689160248082019260209290919082900301818787803b158015614a5757600080fd5b505af1158015614a6b573d6000803e3d6000fd5b505050506040513d6020811015614a8157600080fd5b50516040805163095ea7b360e01b81526001600160a01b0388166004820181905260006024830181905292519394509263095ea7b392604480840193602093929083900390910190829087803b158015614ada57600080fd5b505af1158015614aee573d6000803e3d6000fd5b505050506040513d6020811015614b0457600080fd5b50508015614b47576040805162461bcd60e51b815260206004820152600b60248201526a1b5a5b9d0819985a5b195960aa1b604482015290519081900360640190fd5b604080516370a0823160e01b815230600482015290516000916001600160a01b038816916370a0823191602480820192602092909190829003018186803b158015614b9157600080fd5b505afa158015614ba5573d6000803e3d6000fd5b505050506040513d6020811015614bbb57600080fd5b50519050828103614bce87308884613abb565b5050505050505050565b600082614be7575060006115d6565b82820282848281614bf457fe5b04146124795760405162461bcd60e51b8152600401808060200182810382526021815260200180615e666021913960400191505060405180910390fd5b600082820183811015612479576040805162461bcd60e51b815260206004820152601b60248201527f536166654d6174683a206164646974696f6e206f766572666c6f770000000000604482015290519081900360640190fd5b3390565b60015460408051634219547760e01b815290516000926001600160a01b0316916342195477916004808301926020929190829003018186803b158015614cd457600080fd5b505afa158015614ce8573d6000803e3d6000fd5b505050506040513d6020811015614cfe57600080fd5b50516040805163b8d7b66960e01b81526001600160a01b0385811660048301529151919092169163b8d7b669916024808301926020929190829003018186803b15801561384157600080fd5b604080516000808252602082019092526001600160a01b0384169083906040518082805190602001908083835b60208310614d965780518252601f199092019160209182019101614d77565b6001836020036101000a03801982511681845116808217855250505050505090500191505060006040518083038185875af1925050503d8060008114614df8576040519150601f19603f3d011682016040523d82523d6000602084013e614dfd565b606091505b5050905080612d485760405162461bcd60e51b8152600401808060200182810382526023815260200180615f3e6023913960400191505060405180910390fd5b600554604080516370a0823160e01b815230600482015290516000926001600160a01b0316916370a08231916024808301926020929190829003018186803b158015614e8857600080fd5b505afa158015614e9c573d6000803e3d6000fd5b505050506040513d6020811015614eb257600080fd5b505160055460408051631249c58b60e01b815290519293506001600160a01b0390911691631249c58b918591600480830192600092919082900301818588803b158015614efe57600080fd5b505af1158015614f12573d6000803e3d6000fd5b5050600554604080516370a0823160e01b81523060048201529051600095506001600160a01b0390921693506370a082319250602480820192602092909190829003018186803b158015614f6557600080fd5b505afa158015614f79573d6000803e3d6000fd5b505050506040513d6020811015614f8f57600080fd5b505160055490915082820390614134906001600160a01b0316308784613abb565b6001600160a01b038116614ff55760405162461bcd60e51b8152600401808060200182810382526026815260200180615e106026913960400191505060405180910390fd5b600080546040516001600160a01b03808516939216917f8be0079c531659141344cd1fd0a4f28419497f9722a3daafe3b4186f6b6457e091a3600080546001600160a01b0319166001600160a01b0392909216919091179055565b606080825160405190808252806020026020018201604052801561507e578160200160208202803883390190505b50905060005b8351811015613ab4576150a984828151811061509c57fe5b6020026020010151613786565b8282815181106150b557fe5b6001600160a01b0390921660209283029190910190910152600101615084565b600081848411156151645760405162461bcd60e51b81526004018080602001828103825283818151815260200191508051906020019080838360005b83811015615129578181015183820152602001615111565b50505050905090810190601f1680156151565780820380516001836020036101000a031916815260200191505b509250505060405180910390fd5b505050900390565b600081836151bb5760405162461bcd60e51b8152602060048201818152835160248401528351909283926044909101919085019080838360008315615129578181015183820152602001615111565b5060008385816151c757fe5b0495945050505050565b604080516370a0823160e01b8152306004820152905160009182916001600160a01b038616916370a08231916024808301926020929190829003018186803b15801561521c57600080fd5b505afa158015615230573d6000803e3d6000fd5b505050506040513d602081101561524657600080fd5b50516040805163db006a7560e01b81526004810186905290519192506000916001600160a01b0388169163db006a7591602480830192602092919082900301818787803b15801561529657600080fd5b505af11580156152aa573d6000803e3d6000fd5b505050506040513d60208110156152c057600080fd5b505190508015615307576040805162461bcd60e51b815260206004820152600d60248201526c1c995919595b4819985a5b1959609a1b604482015290519081900360640190fd5b604080516370a0823160e01b815230600482015290516000916001600160a01b038816916370a0823191602480820192602092909190829003018186803b15801561535157600080fd5b505afa158015615365573d6000803e3d6000fd5b505050506040513d602081101561537b57600080fd5b5051905061288f818463ffffffff61370216565b604080516001600160a01b038481166024830152604480830185905283518084039091018152606490920183526020820180516001600160e01b031663a9059cbb60e01b178152925182516000946060949389169392918291908083835b6020831061540c5780518252601f1990920191602091820191016153ed565b6001836020036101000a0380198251168184511680821785525050505050509050019150506000604051808303816000865af19150503d806000811461546e576040519150601f19603f3d011682016040523d82523d6000602084013e615473565b606091505b50915091508180156154a15750805115806154a1575080806020019051602081101561549e57600080fd5b50515b614134576040805162461bcd60e51b815260206004820152601f60248201527f5472616e7366657248656c7065723a205452414e534645525f4641494c454400604482015290519081900360640190fd5b600254604080516370a0823160e01b8152306004820152905160009283926001600160a01b03909116916370a0823191602480820192602092909190829003018186803b15801561554257600080fd5b505afa158015615556573d6000803e3d6000fd5b505050506040513d602081101561556c57600080fd5b50516005546040805163db006a7560e01b81526004810187905290519293506000926001600160a01b039092169163db006a759160248082019260209290919082900301818787803b1580156155c157600080fd5b505af11580156155d5573d6000803e3d6000fd5b505050506040513d60208110156155eb57600080fd5b505190508015615632576040805162461bcd60e51b815260206004820152600d60248201526c1c995919595b4819985a5b1959609a1b604482015290519081900360640190fd5b600254604080516370a0823160e01b815230600482015290516000926001600160a01b0316916370a08231916024808301926020929190829003018186803b15801561567d57600080fd5b505afa158015615691573d6000803e3d6000fd5b505050506040513d60208110156156a757600080fd5b50519050611fc2818463ffffffff61370216565b600080600160009054906101000a90046001600160a01b03166001600160a01b031663017e7e586040518163ffffffff1660e01b815260040160206040518083038186803b15801561570c57600080fd5b505afa158015615720573d6000803e3d6000fd5b505050506040513d602081101561573657600080fd5b505190506001600160a01b038116615785576040805162461bcd60e51b815260206004820152600d60248201526c666565546f206973207a65726f60981b604482015290519081900360640190fd5b600061579086613786565b6001600160a01b03166370a08231866040518263ffffffff1660e01b815260040180826001600160a01b03166001600160a01b0316815260200191505060206040518083038186803b1580156157e557600080fd5b505afa1580156157f9573d6000803e3d6000fd5b505050506040513d602081101561580f57600080fd5b505160408051633f3b917d60e21b81526004810183905290519192506000916001600160a01b0388169163fcee45f4916024808301926020929190829003018186803b15801561585e57600080fd5b505afa158015615872573d6000803e3d6000fd5b505050506040513d602081101561588857600080fd5b505190506001600160a01b0387811690861614156158a857809350615b88565b60005b600454811015615b86576000600482815481106158c457fe5b60009182526020808320909101546001546040805163e6a4390560e01b81526001600160a01b038f81166004830152938416602482018190529151919650919092169263e6a4390592604480840193829003018186803b15801561592757600080fd5b505afa15801561593b573d6000803e3d6000fd5b505050506040513d602081101561595157600080fd5b505190506001600160a01b03811615615b7c57876001600160a01b0316826001600160a01b03161415615a0d576040805163a9059cbb60e01b81526001600160a01b0383166004820181905260248201879052915163a9059cbb916044808201926020929091908290030181600087803b1580156159ce57600080fd5b505af11580156159e2573d6000803e3d6000fd5b505050506040513d60208110156159f857600080fd5b50615a069050818588615bb7565b9650615b75565b6001546040805163e6a4390560e01b81526001600160a01b0385811660048301528b811660248301529151600093929092169163e6a4390591604480820192602092909190829003018186803b158015615a6657600080fd5b505afa158015615a7a573d6000803e3d6000fd5b505050506040513d6020811015615a9057600080fd5b505190506001600160a01b038116615ad95760405162461bcd60e51b8152600401808060200182810382526025815260200180615ef76025913960400191505060405180910390fd5b6040805163a9059cbb60e01b81526001600160a01b0384166004820181905260248201889052915163a9059cbb916044808201926020929091908290030181600087803b158015615b2957600080fd5b505af1158015615b3d573d6000803e3d6000fd5b505050506040513d6020811015615b5357600080fd5b5060009050615b63838784615bb7565b9050615b7082828a615bb7565b985050505b5050615b86565b50506001016158ab565b505b5050509392505050565b436009541415615ba95760068054820190556132b1565b600680546007555543600955565b6000806000856001600160a01b0316630902f1ac6040518163ffffffff1660e01b815260040160606040518083038186803b158015615bf557600080fd5b505afa158015615c09573d6000803e3d6000fd5b505050506040513d6060811015615c1f57600080fd5b5080516020909101516dffffffffffffffffffffffffffff9182169350169050615c62615c52838763ffffffff614c3116565b6112c5878463ffffffff614bd816565b60408051630442a86560e01b8152600060048201819052602482018490526001600160a01b03888116604484015260648301859052925193965091891692630442a8659260848084019391929182900301818387803b158015615cc457600080fd5b505af1158015615cd8573d6000803e3d6000fd5b5050505050509392505050565b604051806101c001604052806000815260200160008152602001600081526020016000815260200160008152602001600081526020016000815260200160008152602001600081526020016000815260200160006001600160a01b0316815260200160006001600160a01b0316815260200160006001600160a01b0316815260200160006001600160a01b031681525090565b604051806080016040528060008152602001600081526020016000815260200160008152509056fe4164644c69717569646974793a20494e53554646494349454e545f425f414d4f554e5452656d6f76654c69717569646974793a20494e53554646494349454e545f425f414d4f554e5452656d6f76654c69717569646974793a20494e53554646494349454e545f415f414d4f554e544f776e61626c653a206e6577206f776e657220697320746865207a65726f206164647265737352656d6f76654c6971756964697479556e6465726c79696e673a20494e53554646494349454e545f415f414d4f554e54536166654d6174683a206d756c7469706c69636174696f6e206f766572666c6f774f776e61626c653a2063616c6c6572206973206e6f7420746865206f776e657252656d6f76654c6971756964697479556e6465726c79696e673a20494e53554646494349454e545f425f414d4f554e54446542616e6b526f757465723a2045585049524544000000000000000000000071756f746520636f696e20686173206e6f207061697220746f20616e63686f72546f6b656e526f757465723a20494e53554646494349454e545f4f55545055545f414d4f554e545472616e7366657248656c7065723a204554485f5452414e534645525f4641494c45445472616e7366657248656c7065723a205452414e534645525f46524f4d5f4641494c45444164644c69717569646974793a20494e53554646494349454e545f415f414d4f554e54a265627a7a7231582057c5ab152d93af639664ada97474298d61004b32ca8b1269f912f2e5d7c1391364736f6c63430005100032",
  "devdoc": {
    "methods": {
      "isOwner()": {
        "details": "Returns true if the caller is the current owner."
      },
      "owner()": {
        "details": "Returns the address of the current owner."
      },
      "renounceOwnership()": {
        "details": "Leaves the contract without owner. It will not be possible to call `onlyOwner` functions anymore. Can only be called by the current owner.     * NOTE: Renouncing ownership will leave the contract without an owner, thereby removing any functionality that is only available to the owner."
      },
      "transferOwnership(address)": {
        "details": "Transfers ownership of the contract to a new account (`newOwner`). Can only be called by the current owner."
      }
    }
  },
  "userdoc": {
    "methods": {}
  },
  "storageLayout": {
    "storage": [
      {
        "astId": 220,
        "contract": "contracts/swap/heco/Router.sol:DeBankRouter",
        "label": "_owner",
        "offset": 0,
        "slot": "0",
        "type": "t_address"
      },
      {
        "astId": 33625,
        "contract": "contracts/swap/heco/Router.sol:DeBankRouter",
        "label": "factory",
        "offset": 0,
        "slot": "1",
        "type": "t_address"
      },
      {
        "astId": 33627,
        "contract": "contracts/swap/heco/Router.sol:DeBankRouter",
        "label": "WHT",
        "offset": 0,
        "slot": "2",
        "type": "t_address"
      },
      {
        "astId": 33629,
        "contract": "contracts/swap/heco/Router.sol:DeBankRouter",
        "label": "swapMining",
        "offset": 0,
        "slot": "3",
        "type": "t_address"
      },
      {
        "astId": 33632,
        "contract": "contracts/swap/heco/Router.sol:DeBankRouter",
        "label": "quoteTokens",
        "offset": 0,
        "slot": "4",
        "type": "t_array(t_address)dyn_storage"
      },
      {
        "astId": 33634,
        "contract": "contracts/swap/heco/Router.sol:DeBankRouter",
        "label": "cWHT",
        "offset": 0,
        "slot": "5",
        "type": "t_address"
      },
      {
        "astId": 33636,
        "contract": "contracts/swap/heco/Router.sol:DeBankRouter",
        "label": "allPairFee",
        "offset": 0,
        "slot": "6",
        "type": "t_uint256"
      },
      {
        "astId": 33638,
        "contract": "contracts/swap/heco/Router.sol:DeBankRouter",
        "label": "allPairFeeLastBlock",
        "offset": 0,
        "slot": "7",
        "type": "t_uint256"
      },
      {
        "astId": 33640,
        "contract": "contracts/swap/heco/Router.sol:DeBankRouter",
        "label": "startBlock",
        "offset": 0,
        "slot": "8",
        "type": "t_uint256"
      },
      {
        "astId": 33642,
        "contract": "contracts/swap/heco/Router.sol:DeBankRouter",
        "label": "currentBlock",
        "offset": 0,
        "slot": "9",
        "type": "t_uint256"
      },
      {
        "astId": 33644,
        "contract": "contracts/swap/heco/Router.sol:DeBankRouter",
        "label": "lpPerBlock",
        "offset": 0,
        "slot": "10",
        "type": "t_uint256"
      },
      {
        "astId": 33646,
        "contract": "contracts/swap/heco/Router.sol:DeBankRouter",
        "label": "traderPerBlock",
        "offset": 0,
        "slot": "11",
        "type": "t_uint256"
      },
      {
        "astId": 33649,
        "contract": "contracts/swap/heco/Router.sol:DeBankRouter",
        "label": "halvingPeriod",
        "offset": 0,
        "slot": "12",
        "type": "t_uint256"
      },
      {
        "astId": 33651,
        "contract": "contracts/swap/heco/Router.sol:DeBankRouter",
        "label": "rewardToken",
        "offset": 0,
        "slot": "13",
        "type": "t_address"
      },
      {
        "astId": 33653,
        "contract": "contracts/swap/heco/Router.sol:DeBankRouter",
        "label": "feeAlloc",
        "offset": 0,
        "slot": "14",
        "type": "t_uint256"
      }
    ],
    "types": {
      "t_address": {
        "encoding": "inplace",
        "label": "address",
        "numberOfBytes": "20"
      },
      "t_array(t_address)dyn_storage": {
        "base": "t_address",
        "encoding": "dynamic_array",
        "label": "address[]",
        "numberOfBytes": "32"
      },
      "t_uint256": {
        "encoding": "inplace",
        "label": "uint256",
        "numberOfBytes": "32"
      }
    }
  }
}