{
  "address": "0xb18911609A5b9C7abDc7DBdA585Ae83F01ced0C5",
  "abi": [
    {
      "inputs": [
        {
          "internalType": "address",
          "name": "_factory",
          "type": "address"
        },
        {
          "internalType": "address",
          "name": "_wht",
          "type": "address"
        },
        {
          "internalType": "address",
          "name": "_cwht",
          "type": "address"
        },
        {
          "internalType": "address",
          "name": "_ctokenFactory",
          "type": "address"
        }
      ],
      "payable": false,
      "stateMutability": "nonpayable",
      "type": "constructor"
    },
    {
      "anonymous": false,
      "inputs": [
        {
          "indexed": true,
          "internalType": "address",
          "name": "previousOwner",
          "type": "address"
        },
        {
          "indexed": true,
          "internalType": "address",
          "name": "newOwner",
          "type": "address"
        }
      ],
      "name": "OwnershipTransferred",
      "type": "event"
    },
    {
      "payable": true,
      "stateMutability": "payable",
      "type": "fallback"
    },
    {
      "constant": true,
      "inputs": [],
      "name": "WHT",
      "outputs": [
        {
          "internalType": "address",
          "name": "",
          "type": "address"
        }
      ],
      "payable": false,
      "stateMutability": "view",
      "type": "function"
    },
    {
      "constant": false,
      "inputs": [
        {
          "internalType": "address",
          "name": "tokenA",
          "type": "address"
        },
        {
          "internalType": "address",
          "name": "tokenB",
          "type": "address"
        },
        {
          "internalType": "uint256",
          "name": "amountADesired",
          "type": "uint256"
        },
        {
          "internalType": "uint256",
          "name": "amountBDesired",
          "type": "uint256"
        },
        {
          "internalType": "uint256",
          "name": "amountAMin",
          "type": "uint256"
        },
        {
          "internalType": "uint256",
          "name": "amountBMin",
          "type": "uint256"
        },
        {
          "internalType": "address",
          "name": "to",
          "type": "address"
        },
        {
          "internalType": "uint256",
          "name": "deadline",
          "type": "uint256"
        }
      ],
      "name": "addLiquidity",
      "outputs": [
        {
          "internalType": "uint256",
          "name": "amountA",
          "type": "uint256"
        },
        {
          "internalType": "uint256",
          "name": "amountB",
          "type": "uint256"
        },
        {
          "internalType": "uint256",
          "name": "liquidityAmt",
          "type": "uint256"
        }
      ],
      "payable": false,
      "stateMutability": "nonpayable",
      "type": "function"
    },
    {
      "constant": false,
      "inputs": [
        {
          "internalType": "address",
          "name": "token",
          "type": "address"
        },
        {
          "internalType": "uint256",
          "name": "amountTokenDesired",
          "type": "uint256"
        },
        {
          "internalType": "uint256",
          "name": "amountTokenMin",
          "type": "uint256"
        },
        {
          "internalType": "uint256",
          "name": "amountETHMin",
          "type": "uint256"
        },
        {
          "internalType": "address",
          "name": "to",
          "type": "address"
        },
        {
          "internalType": "uint256",
          "name": "deadline",
          "type": "uint256"
        }
      ],
      "name": "addLiquidityETHUnderlying",
      "outputs": [
        {
          "internalType": "uint256",
          "name": "amountToken",
          "type": "uint256"
        },
        {
          "internalType": "uint256",
          "name": "amountETH",
          "type": "uint256"
        },
        {
          "internalType": "uint256",
          "name": "liquidity",
          "type": "uint256"
        }
      ],
      "payable": true,
      "stateMutability": "payable",
      "type": "function"
    },
    {
      "constant": false,
      "inputs": [
        {
          "internalType": "address",
          "name": "tokenA",
          "type": "address"
        },
        {
          "internalType": "address",
          "name": "tokenB",
          "type": "address"
        },
        {
          "internalType": "uint256",
          "name": "amountADesired",
          "type": "uint256"
        },
        {
          "internalType": "uint256",
          "name": "amountBDesired",
          "type": "uint256"
        },
        {
          "internalType": "uint256",
          "name": "amountAMin",
          "type": "uint256"
        },
        {
          "internalType": "uint256",
          "name": "amountBMin",
          "type": "uint256"
        },
        {
          "internalType": "address",
          "name": "to",
          "type": "address"
        },
        {
          "internalType": "uint256",
          "name": "deadline",
          "type": "uint256"
        }
      ],
      "name": "addLiquidityUnderlying",
      "outputs": [
        {
          "internalType": "uint256",
          "name": "amountA",
          "type": "uint256"
        },
        {
          "internalType": "uint256",
          "name": "amountB",
          "type": "uint256"
        },
        {
          "internalType": "uint256",
          "name": "liquidity",
          "type": "uint256"
        }
      ],
      "payable": false,
      "stateMutability": "nonpayable",
      "type": "function"
    },
    {
      "constant": false,
      "inputs": [
        {
          "internalType": "address",
          "name": "token",
          "type": "address"
        }
      ],
      "name": "addQuoteToken",
      "outputs": [],
      "payable": false,
      "stateMutability": "nonpayable",
      "type": "function"
    },
    {
      "constant": false,
      "inputs": [
        {
          "internalType": "address",
          "name": "token",
          "type": "address"
        },
        {
          "internalType": "address",
          "name": "to",
          "type": "address"
        },
        {
          "internalType": "uint256",
          "name": "amt",
          "type": "uint256"
        }
      ],
      "name": "adminTransfer",
      "outputs": [],
      "payable": false,
      "stateMutability": "nonpayable",
      "type": "function"
    },
    {
      "constant": true,
      "inputs": [],
      "name": "allPairFee",
      "outputs": [
        {
          "internalType": "uint256",
          "name": "",
          "type": "uint256"
        }
      ],
      "payable": false,
      "stateMutability": "view",
      "type": "function"
    },
    {
      "constant": true,
      "inputs": [],
      "name": "allPairFeeLastBlock",
      "outputs": [
        {
          "internalType": "uint256",
          "name": "",
          "type": "uint256"
        }
      ],
      "payable": false,
      "stateMutability": "view",
      "type": "function"
    },
    {
      "constant": true,
      "inputs": [],
      "name": "cWHT",
      "outputs": [
        {
          "internalType": "address",
          "name": "",
          "type": "address"
        }
      ],
      "payable": false,
      "stateMutability": "view",
      "type": "function"
    },
    {
      "constant": true,
      "inputs": [],
      "name": "ctokenFactory",
      "outputs": [
        {
          "internalType": "contract LErc20DelegatorInterface",
          "name": "",
          "type": "address"
        }
      ],
      "payable": false,
      "stateMutability": "view",
      "type": "function"
    },
    {
      "constant": true,
      "inputs": [],
      "name": "currentBlock",
      "outputs": [
        {
          "internalType": "uint256",
          "name": "",
          "type": "uint256"
        }
      ],
      "payable": false,
      "stateMutability": "view",
      "type": "function"
    },
    {
      "constant": true,
      "inputs": [],
      "name": "factory",
      "outputs": [
        {
          "internalType": "address",
          "name": "",
          "type": "address"
        }
      ],
      "payable": false,
      "stateMutability": "view",
      "type": "function"
    },
    {
      "constant": true,
      "inputs": [],
      "name": "feeAlloc",
      "outputs": [
        {
          "internalType": "uint256",
          "name": "",
          "type": "uint256"
        }
      ],
      "payable": false,
      "stateMutability": "view",
      "type": "function"
    },
    {
      "constant": true,
      "inputs": [
        {
          "internalType": "uint256",
          "name": "amountOut",
          "type": "uint256"
        },
        {
          "internalType": "address[]",
          "name": "path",
          "type": "address[]"
        },
        {
          "internalType": "address",
          "name": "to",
          "type": "address"
        }
      ],
      "name": "getAmountsIn",
      "outputs": [
        {
          "internalType": "uint256[]",
          "name": "amounts",
          "type": "uint256[]"
        }
      ],
      "payable": false,
      "stateMutability": "view",
      "type": "function"
    },
    {
      "constant": true,
      "inputs": [
        {
          "internalType": "uint256",
          "name": "amountIn",
          "type": "uint256"
        },
        {
          "internalType": "address[]",
          "name": "path",
          "type": "address[]"
        },
        {
          "internalType": "address",
          "name": "to",
          "type": "address"
        }
      ],
      "name": "getAmountsOut",
      "outputs": [
        {
          "internalType": "uint256[]",
          "name": "amounts",
          "type": "uint256[]"
        }
      ],
      "payable": false,
      "stateMutability": "view",
      "type": "function"
    },
    {
      "constant": true,
      "inputs": [],
      "name": "isOwner",
      "outputs": [
        {
          "internalType": "bool",
          "name": "",
          "type": "bool"
        }
      ],
      "payable": false,
      "stateMutability": "view",
      "type": "function"
    },
    {
      "constant": true,
      "inputs": [],
      "name": "lpPerBlock",
      "outputs": [
        {
          "internalType": "uint256",
          "name": "",
          "type": "uint256"
        }
      ],
      "payable": false,
      "stateMutability": "view",
      "type": "function"
    },
    {
      "constant": true,
      "inputs": [],
      "name": "owner",
      "outputs": [
        {
          "internalType": "address",
          "name": "",
          "type": "address"
        }
      ],
      "payable": false,
      "stateMutability": "view",
      "type": "function"
    },
    {
      "constant": true,
      "inputs": [
        {
          "internalType": "address",
          "name": "tokenA",
          "type": "address"
        },
        {
          "internalType": "address",
          "name": "tokenB",
          "type": "address"
        }
      ],
      "name": "pairFor",
      "outputs": [
        {
          "internalType": "address",
          "name": "pair",
          "type": "address"
        }
      ],
      "payable": false,
      "stateMutability": "view",
      "type": "function"
    },
    {
      "constant": true,
      "inputs": [
        {
          "internalType": "uint256",
          "name": "amountA",
          "type": "uint256"
        },
        {
          "internalType": "uint256",
          "name": "reserveA",
          "type": "uint256"
        },
        {
          "internalType": "uint256",
          "name": "reserveB",
          "type": "uint256"
        }
      ],
      "name": "quote",
      "outputs": [
        {
          "internalType": "uint256",
          "name": "amountB",
          "type": "uint256"
        }
      ],
      "payable": false,
      "stateMutability": "view",
      "type": "function"
    },
    {
      "constant": true,
      "inputs": [
        {
          "internalType": "uint256",
          "name": "",
          "type": "uint256"
        }
      ],
      "name": "quoteTokens",
      "outputs": [
        {
          "internalType": "address",
          "name": "",
          "type": "address"
        }
      ],
      "payable": false,
      "stateMutability": "view",
      "type": "function"
    },
    {
      "constant": false,
      "inputs": [
        {
          "internalType": "address",
          "name": "ctokenA",
          "type": "address"
        },
        {
          "internalType": "address",
          "name": "ctokenB",
          "type": "address"
        },
        {
          "internalType": "uint256",
          "name": "liquidity",
          "type": "uint256"
        },
        {
          "internalType": "uint256",
          "name": "amountAMin",
          "type": "uint256"
        },
        {
          "internalType": "uint256",
          "name": "amountBMin",
          "type": "uint256"
        },
        {
          "internalType": "address",
          "name": "to",
          "type": "address"
        },
        {
          "internalType": "uint256",
          "name": "deadline",
          "type": "uint256"
        }
      ],
      "name": "removeLiquidity",
      "outputs": [
        {
          "internalType": "uint256",
          "name": "amountA",
          "type": "uint256"
        },
        {
          "internalType": "uint256",
          "name": "amountB",
          "type": "uint256"
        }
      ],
      "payable": false,
      "stateMutability": "nonpayable",
      "type": "function"
    },
    {
      "constant": false,
      "inputs": [
        {
          "internalType": "address",
          "name": "token",
          "type": "address"
        },
        {
          "internalType": "uint256",
          "name": "liquidity",
          "type": "uint256"
        },
        {
          "internalType": "uint256",
          "name": "amountTokenMin",
          "type": "uint256"
        },
        {
          "internalType": "uint256",
          "name": "amountETHMin",
          "type": "uint256"
        },
        {
          "internalType": "address",
          "name": "to",
          "type": "address"
        },
        {
          "internalType": "uint256",
          "name": "deadline",
          "type": "uint256"
        }
      ],
      "name": "removeLiquidityETHUnderlying",
      "outputs": [
        {
          "internalType": "uint256",
          "name": "amountToken",
          "type": "uint256"
        },
        {
          "internalType": "uint256",
          "name": "amountETH",
          "type": "uint256"
        }
      ],
      "payable": false,
      "stateMutability": "nonpayable",
      "type": "function"
    },
    {
      "constant": false,
      "inputs": [
        {
          "internalType": "address",
          "name": "token",
          "type": "address"
        },
        {
          "internalType": "uint256",
          "name": "liquidity",
          "type": "uint256"
        },
        {
          "internalType": "uint256",
          "name": "amountTokenMin",
          "type": "uint256"
        },
        {
          "internalType": "uint256",
          "name": "amountETHMin",
          "type": "uint256"
        },
        {
          "internalType": "address",
          "name": "to",
          "type": "address"
        },
        {
          "internalType": "uint256",
          "name": "deadline",
          "type": "uint256"
        },
        {
          "internalType": "bool",
          "name": "approveMax",
          "type": "bool"
        },
        {
          "internalType": "uint8",
          "name": "v",
          "type": "uint8"
        },
        {
          "internalType": "bytes32",
          "name": "r",
          "type": "bytes32"
        },
        {
          "internalType": "bytes32",
          "name": "s",
          "type": "bytes32"
        }
      ],
      "name": "removeLiquidityETHUnderlyingWithPermit",
      "outputs": [
        {
          "internalType": "uint256",
          "name": "amountToken",
          "type": "uint256"
        },
        {
          "internalType": "uint256",
          "name": "amountETH",
          "type": "uint256"
        }
      ],
      "payable": false,
      "stateMutability": "nonpayable",
      "type": "function"
    },
    {
      "constant": false,
      "inputs": [
        {
          "internalType": "address",
          "name": "tokenA",
          "type": "address"
        },
        {
          "internalType": "address",
          "name": "tokenB",
          "type": "address"
        },
        {
          "internalType": "uint256",
          "name": "liquidity",
          "type": "uint256"
        },
        {
          "internalType": "uint256",
          "name": "amountAMin",
          "type": "uint256"
        },
        {
          "internalType": "uint256",
          "name": "amountBMin",
          "type": "uint256"
        },
        {
          "internalType": "address",
          "name": "to",
          "type": "address"
        },
        {
          "internalType": "uint256",
          "name": "deadline",
          "type": "uint256"
        }
      ],
      "name": "removeLiquidityUnderlying",
      "outputs": [
        {
          "internalType": "uint256",
          "name": "amountA",
          "type": "uint256"
        },
        {
          "internalType": "uint256",
          "name": "amountB",
          "type": "uint256"
        }
      ],
      "payable": false,
      "stateMutability": "nonpayable",
      "type": "function"
    },
    {
      "constant": false,
      "inputs": [
        {
          "internalType": "address",
          "name": "tokenA",
          "type": "address"
        },
        {
          "internalType": "address",
          "name": "tokenB",
          "type": "address"
        },
        {
          "internalType": "uint256",
          "name": "liquidity",
          "type": "uint256"
        },
        {
          "internalType": "uint256",
          "name": "amountAMin",
          "type": "uint256"
        },
        {
          "internalType": "uint256",
          "name": "amountBMin",
          "type": "uint256"
        },
        {
          "internalType": "address",
          "name": "to",
          "type": "address"
        },
        {
          "internalType": "uint256",
          "name": "deadline",
          "type": "uint256"
        },
        {
          "internalType": "bool",
          "name": "approveMax",
          "type": "bool"
        },
        {
          "internalType": "uint8",
          "name": "v",
          "type": "uint8"
        },
        {
          "internalType": "bytes32",
          "name": "r",
          "type": "bytes32"
        },
        {
          "internalType": "bytes32",
          "name": "s",
          "type": "bytes32"
        }
      ],
      "name": "removeLiquidityWithPermit",
      "outputs": [
        {
          "internalType": "uint256",
          "name": "amountA",
          "type": "uint256"
        },
        {
          "internalType": "uint256",
          "name": "amountB",
          "type": "uint256"
        }
      ],
      "payable": false,
      "stateMutability": "nonpayable",
      "type": "function"
    },
    {
      "constant": false,
      "inputs": [],
      "name": "renounceOwnership",
      "outputs": [],
      "payable": false,
      "stateMutability": "nonpayable",
      "type": "function"
    },
    {
      "constant": false,
      "inputs": [
        {
          "internalType": "address[]",
          "name": "tokens",
          "type": "address[]"
        }
      ],
      "name": "resetQuoteTokens",
      "outputs": [],
      "payable": false,
      "stateMutability": "nonpayable",
      "type": "function"
    },
    {
      "constant": true,
      "inputs": [
        {
          "internalType": "uint256",
          "name": "blockNumber",
          "type": "uint256"
        }
      ],
      "name": "reward",
      "outputs": [
        {
          "internalType": "uint256",
          "name": "",
          "type": "uint256"
        }
      ],
      "payable": false,
      "stateMutability": "view",
      "type": "function"
    },
    {
      "constant": true,
      "inputs": [],
      "name": "rewardToken",
      "outputs": [
        {
          "internalType": "address",
          "name": "",
          "type": "address"
        }
      ],
      "payable": false,
      "stateMutability": "view",
      "type": "function"
    },
    {
      "constant": false,
      "inputs": [
        {
          "internalType": "uint256",
          "name": "_feeAlloc",
          "type": "uint256"
        }
      ],
      "name": "setFeeAlloc",
      "outputs": [],
      "payable": false,
      "stateMutability": "nonpayable",
      "type": "function"
    },
    {
      "constant": false,
      "inputs": [
        {
          "internalType": "address",
          "name": "_reword",
          "type": "address"
        }
      ],
      "name": "setRewardToken",
      "outputs": [],
      "payable": false,
      "stateMutability": "nonpayable",
      "type": "function"
    },
    {
      "constant": false,
      "inputs": [
        {
          "internalType": "address",
          "name": "_swapMininng",
          "type": "address"
        }
      ],
      "name": "setSwapMining",
      "outputs": [],
      "payable": false,
      "stateMutability": "nonpayable",
      "type": "function"
    },
    {
      "constant": false,
      "inputs": [
        {
          "internalType": "uint256",
          "name": "amountOut",
          "type": "uint256"
        },
        {
          "internalType": "address[]",
          "name": "path",
          "type": "address[]"
        },
        {
          "internalType": "address",
          "name": "to",
          "type": "address"
        },
        {
          "internalType": "uint256",
          "name": "deadline",
          "type": "uint256"
        }
      ],
      "name": "swapETHForExactTokensUnderlying",
      "outputs": [
        {
          "internalType": "uint256[]",
          "name": "amounts",
          "type": "uint256[]"
        }
      ],
      "payable": true,
      "stateMutability": "payable",
      "type": "function"
    },
    {
      "constant": false,
      "inputs": [
        {
          "internalType": "uint256",
          "name": "amountOutMin",
          "type": "uint256"
        },
        {
          "internalType": "address[]",
          "name": "path",
          "type": "address[]"
        },
        {
          "internalType": "address",
          "name": "to",
          "type": "address"
        },
        {
          "internalType": "uint256",
          "name": "deadline",
          "type": "uint256"
        }
      ],
      "name": "swapExactETHForTokensUnderlying",
      "outputs": [
        {
          "internalType": "uint256[]",
          "name": "amounts",
          "type": "uint256[]"
        }
      ],
      "payable": true,
      "stateMutability": "payable",
      "type": "function"
    },
    {
      "constant": false,
      "inputs": [
        {
          "internalType": "uint256",
          "name": "amountIn",
          "type": "uint256"
        },
        {
          "internalType": "uint256",
          "name": "amountOutMin",
          "type": "uint256"
        },
        {
          "internalType": "address[]",
          "name": "path",
          "type": "address[]"
        },
        {
          "internalType": "address",
          "name": "to",
          "type": "address"
        },
        {
          "internalType": "uint256",
          "name": "deadline",
          "type": "uint256"
        }
      ],
      "name": "swapExactTokensForETHUnderlying",
      "outputs": [
        {
          "internalType": "uint256[]",
          "name": "amounts",
          "type": "uint256[]"
        }
      ],
      "payable": false,
      "stateMutability": "nonpayable",
      "type": "function"
    },
    {
      "constant": false,
      "inputs": [
        {
          "internalType": "uint256",
          "name": "amountIn",
          "type": "uint256"
        },
        {
          "internalType": "uint256",
          "name": "amountOutMin",
          "type": "uint256"
        },
        {
          "internalType": "address[]",
          "name": "cpath",
          "type": "address[]"
        },
        {
          "internalType": "address",
          "name": "to",
          "type": "address"
        },
        {
          "internalType": "uint256",
          "name": "deadline",
          "type": "uint256"
        }
      ],
      "name": "swapExactTokensForTokens",
      "outputs": [
        {
          "internalType": "uint256[]",
          "name": "amounts",
          "type": "uint256[]"
        }
      ],
      "payable": false,
      "stateMutability": "nonpayable",
      "type": "function"
    },
    {
      "constant": false,
      "inputs": [
        {
          "internalType": "uint256",
          "name": "amountIn",
          "type": "uint256"
        },
        {
          "internalType": "uint256",
          "name": "amountOutMin",
          "type": "uint256"
        },
        {
          "internalType": "address[]",
          "name": "path",
          "type": "address[]"
        },
        {
          "internalType": "address",
          "name": "to",
          "type": "address"
        },
        {
          "internalType": "uint256",
          "name": "deadline",
          "type": "uint256"
        }
      ],
      "name": "swapExactTokensForTokensUnderlying",
      "outputs": [
        {
          "internalType": "uint256[]",
          "name": "amounts",
          "type": "uint256[]"
        }
      ],
      "payable": false,
      "stateMutability": "nonpayable",
      "type": "function"
    },
    {
      "constant": true,
      "inputs": [],
      "name": "swapMining",
      "outputs": [
        {
          "internalType": "address",
          "name": "",
          "type": "address"
        }
      ],
      "payable": false,
      "stateMutability": "view",
      "type": "function"
    },
    {
      "constant": false,
      "inputs": [
        {
          "internalType": "uint256",
          "name": "amountOut",
          "type": "uint256"
        },
        {
          "internalType": "uint256",
          "name": "amountInMax",
          "type": "uint256"
        },
        {
          "internalType": "address[]",
          "name": "path",
          "type": "address[]"
        },
        {
          "internalType": "address",
          "name": "to",
          "type": "address"
        },
        {
          "internalType": "uint256",
          "name": "deadline",
          "type": "uint256"
        }
      ],
      "name": "swapTokensForExactETHUnderlying",
      "outputs": [
        {
          "internalType": "uint256[]",
          "name": "amounts",
          "type": "uint256[]"
        }
      ],
      "payable": false,
      "stateMutability": "nonpayable",
      "type": "function"
    },
    {
      "constant": false,
      "inputs": [
        {
          "internalType": "uint256",
          "name": "amountOut",
          "type": "uint256"
        },
        {
          "internalType": "uint256",
          "name": "amountInMax",
          "type": "uint256"
        },
        {
          "internalType": "address[]",
          "name": "cpath",
          "type": "address[]"
        },
        {
          "internalType": "address",
          "name": "to",
          "type": "address"
        },
        {
          "internalType": "uint256",
          "name": "deadline",
          "type": "uint256"
        }
      ],
      "name": "swapTokensForExactTokens",
      "outputs": [
        {
          "internalType": "uint256[]",
          "name": "amounts",
          "type": "uint256[]"
        }
      ],
      "payable": false,
      "stateMutability": "nonpayable",
      "type": "function"
    },
    {
      "constant": false,
      "inputs": [
        {
          "internalType": "uint256",
          "name": "amountOut",
          "type": "uint256"
        },
        {
          "internalType": "uint256",
          "name": "amountInMax",
          "type": "uint256"
        },
        {
          "internalType": "address[]",
          "name": "path",
          "type": "address[]"
        },
        {
          "internalType": "address",
          "name": "to",
          "type": "address"
        },
        {
          "internalType": "uint256",
          "name": "deadline",
          "type": "uint256"
        }
      ],
      "name": "swapTokensForExactTokensUnderlying",
      "outputs": [
        {
          "internalType": "uint256[]",
          "name": "amounts",
          "type": "uint256[]"
        }
      ],
      "payable": false,
      "stateMutability": "nonpayable",
      "type": "function"
    },
    {
      "constant": false,
      "inputs": [
        {
          "internalType": "address",
          "name": "newOwner",
          "type": "address"
        }
      ],
      "name": "transferOwnership",
      "outputs": [],
      "payable": false,
      "stateMutability": "nonpayable",
      "type": "function"
    }
  ],
  "transactionHash": "0xcce5ea6aa47da48b405610e54feb271fdef300b2aec3c7a44cd98f162f4ae3c8",
  "args": [
    "0x3182528c58c54DE504cE45B21c15e47f73d58F09",
    "0x7aF326B6351C8A9b8fb8CD205CBe11d4Ac5FA836",
    "0x042f1249297EF180f33d166828AC43e401E0FecA",
    "0xF4CfC260cA8F68f3069FbEc534afbA21E0903b4b"
  ],
  "solcInputHash": "eccf3790feafd2df3fa7b3bb772f7588",
  "bytecode": "0x60806040523480156200001157600080fd5b5060405162005c8038038062005c80833981810160405260808110156200003757600080fd5b50805160208201516040830151606090930151919290916000620000636001600160e01b03620001da16565b600080546001600160a01b0319166001600160a01b0383169081178255604051929350917f8be0079c531659141344cd1fd0a4f28419497f9722a3daafe3b4186f6b6457e0908290a350600180546001600160a01b03199081166001600160a01b038781169182179093556002805483168785161790556004805483168685161781556006805490931693851693909317909155604080516370e264b360e11b8152905160059363e1c4c96692808201926020929091829003018186803b1580156200012e57600080fd5b505afa15801562000143573d6000803e3d6000fd5b505050506040513d60208110156200015a57600080fd5b505181546001808201845560009384526020842090910180546001600160a01b03199081166001600160a01b03948516179091556002546005805493840181559094527f036b6384b5eca791c62761152d0c79bb0604c104a5fb6f4eb0703f3154bb3db0909101805493909216921691909117905550620001de92505050565b3390565b615a9280620001ee6000396000f3fe60806040526004361061025c5760003560e01c80638aee812711610144578063c5746a6e116100b6578063e8e337001161007a578063e8e3370014610ead578063ee41be8e14610f0f578063efd06f2e14610f93578063f2fde38b14610fd9578063f7c618c11461100c578063fa900088146110215761025c565b8063c5746a6e14610cc5578063d2b364c614610d22578063da72c1e814610de2578063dbdfc62514610e25578063e12ed13c14610e985761025c565b8063a9fb763c11610108578063a9fb763c14610b45578063ad615dec14610b6f578063baa2abde14610ba5578063bbee6c2914610c02578063c08c2c2514610c86578063c45a015514610cb05761025c565b80638aee812714610a035780638da5cb5b14610a365780638e750db914610a4b5780638f32d59b14610ae157806396ed28f914610b0a5761025c565b80634e5eda11116101dd5780635cb48592116101a15780635cb485921461086b578063715018a61461088057806378b8d735146108955780637e87ffe8146109435780638803dbee1461095857806389a6072c146109ee5761025c565b80634e5eda111461075b5780634f887183146107705780635710207c146107a357806357581511146107b857806358956d41146107eb5761025c565b806325c9e2761161022457806325c9e276146105ad5780632c9115c7146105de57806338ed1739146106085780633eabf55f1461069e5780634cc94ba1146107345761025c565b80630520b290146102875780630c49bd131461036d57806314e5207b1461042d5780631da81f62146104995780632195995c1461052f575b6002546001600160a01b031633148061027f57506004546001600160a01b031633145b61028557fe5b005b34801561029357600080fd5b5061031d600480360360a08110156102aa57600080fd5b813591602081013591810190606081016040820135600160201b8111156102d057600080fd5b8201836020820111156102e257600080fd5b803590602001918460208302840111600160201b8311171561030357600080fd5b91935091506001600160a01b038135169060200135611036565b60408051602080825283518183015283519192839290830191858101910280838360005b83811015610359578181015183820152602001610341565b505050509050019250505060405180910390f35b34801561037957600080fd5b5061031d6004803603606081101561039057600080fd5b81359190810190604081016020820135600160201b8111156103b157600080fd5b8201836020820111156103c357600080fd5b803590602001918460208302840111600160201b831117156103e457600080fd5b919080806020026020016040519081016040528093929190818152602001838360200280828437600092019190915250929550505090356001600160a01b031691506111499050565b34801561043957600080fd5b50610480600480360360c081101561045057600080fd5b506001600160a01b0381358116916020810135916040820135916060810135916080820135169060a001356112b3565b6040805192835260208301919091528051918290030190f35b3480156104a557600080fd5b5061031d600480360360a08110156104bc57600080fd5b813591602081013591810190606081016040820135600160201b8111156104e257600080fd5b8201836020820111156104f457600080fd5b803590602001918460208302840111600160201b8311171561051557600080fd5b91935091506001600160a01b0381351690602001356113c7565b34801561053b57600080fd5b50610480600480360361016081101561055357600080fd5b506001600160a01b038135811691602081013582169160408201359160608101359160808201359160a08101359091169060c08101359060e081013515159060ff610100820135169061012081013590610140013561144f565b3480156105b957600080fd5b506105c2611528565b604080516001600160a01b039092168252519081900360200190f35b3480156105ea57600080fd5b506105c26004803603602081101561060157600080fd5b5035611537565b34801561061457600080fd5b5061031d600480360360a081101561062b57600080fd5b813591602081013591810190606081016040820135600160201b81111561065157600080fd5b82018360208201111561066357600080fd5b803590602001918460208302840111600160201b8311171561068457600080fd5b91935091506001600160a01b03813516906020013561155e565b3480156106aa57600080fd5b5061031d600480360360a08110156106c157600080fd5b813591602081013591810190606081016040820135600160201b8111156106e757600080fd5b8201836020820111156106f957600080fd5b803590602001918460208302840111600160201b8311171561071a57600080fd5b91935091506001600160a01b038135169060200135611821565b34801561074057600080fd5b506107496118a9565b60408051918252519081900360200190f35b34801561076757600080fd5b506105c26118af565b34801561077c57600080fd5b506102856004803603602081101561079357600080fd5b50356001600160a01b03166118be565b3480156107af57600080fd5b506105c2611927565b3480156107c457600080fd5b50610285600480360360208110156107db57600080fd5b50356001600160a01b0316611936565b3480156107f757600080fd5b5061084d600480360361010081101561080f57600080fd5b506001600160a01b038135811691602081013582169160408201359160608101359160808201359160a08101359160c0820135169060e001356119cf565b60408051938452602084019290925282820152519081900360600190f35b34801561087757600080fd5b506105c2611be3565b34801561088c57600080fd5b50610285611bf2565b3480156108a157600080fd5b50610285600480360360208110156108b857600080fd5b810190602081018135600160201b8111156108d257600080fd5b8201836020820111156108e457600080fd5b803590602001918460208302840111600160201b8311171561090557600080fd5b919080806020026020016040519081016040528093929190818152602001838360200280828437600092019190915250929550611c83945050505050565b34801561094f57600080fd5b50610749611d70565b34801561096457600080fd5b5061031d600480360360a081101561097b57600080fd5b813591602081013591810190606081016040820135600160201b8111156109a157600080fd5b8201836020820111156109b357600080fd5b803590602001918460208302840111600160201b831117156109d457600080fd5b91935091506001600160a01b038135169060200135611d76565b3480156109fa57600080fd5b50610749611fc8565b348015610a0f57600080fd5b5061028560048036036020811015610a2657600080fd5b50356001600160a01b0316611fce565b348015610a4257600080fd5b506105c2612037565b348015610a5757600080fd5b5061031d600480360360a0811015610a6e57600080fd5b813591602081013591810190606081016040820135600160201b811115610a9457600080fd5b820183602082011115610aa657600080fd5b803590602001918460208302840111600160201b83111715610ac757600080fd5b91935091506001600160a01b038135169060200135612046565b348015610aed57600080fd5b50610af661214d565b604080519115158252519081900360200190f35b348015610b1657600080fd5b506105c260048036036040811015610b2d57600080fd5b506001600160a01b0381358116916020013516612171565b348015610b5157600080fd5b5061074960048036036020811015610b6857600080fd5b50356121fd565b348015610b7b57600080fd5b5061074960048036036060811015610b9257600080fd5b50803590602081013590604001356122a5565b348015610bb157600080fd5b50610480600480360360e0811015610bc857600080fd5b506001600160a01b038135811691602081013582169160408201359160608101359160808201359160a08101359091169060c00135612333565b61031d60048036036080811015610c1857600080fd5b81359190810190604081016020820135600160201b811115610c3957600080fd5b820183602082011115610c4b57600080fd5b803590602001918460208302840111600160201b83111715610c6c57600080fd5b91935091506001600160a01b0381351690602001356125e0565b348015610c9257600080fd5b5061028560048036036020811015610ca957600080fd5b50356126ed565b348015610cbc57600080fd5b506105c2612790565b348015610cd157600080fd5b50610480600480360360e0811015610ce857600080fd5b506001600160a01b038135811691602081013582169160408201359160608101359160808201359160a08101359091169060c0013561279f565b348015610d2e57600080fd5b5061031d60048036036060811015610d4557600080fd5b81359190810190604081016020820135600160201b811115610d6657600080fd5b820183602082011115610d7857600080fd5b803590602001918460208302840111600160201b83111715610d9957600080fd5b919080806020026020016040519081016040528093929190818152602001838360200280828437600092019190915250929550505090356001600160a01b03169150612a939050565b348015610dee57600080fd5b5061028560048036036060811015610e0557600080fd5b506001600160a01b03813581169160208101359091169060400135612b05565b348015610e3157600080fd5b506104806004803603610140811015610e4957600080fd5b506001600160a01b0381358116916020810135916040820135916060810135916080820135169060a08101359060c081013515159060ff60e08201351690610100810135906101200135612b7a565b348015610ea457600080fd5b50610749612c5c565b348015610eb957600080fd5b5061084d6004803603610100811015610ed157600080fd5b506001600160a01b038135811691602081013582169160408201359160608101359160808201359160a08101359160c0820135169060e00135612c62565b61031d60048036036080811015610f2557600080fd5b81359190810190604081016020820135600160201b811115610f4657600080fd5b820183602082011115610f5857600080fd5b803590602001918460208302840111600160201b83111715610f7957600080fd5b91935091506001600160a01b038135169060200135612d48565b61084d600480360360c0811015610fa957600080fd5b506001600160a01b0381358116916020810135916040820135916060810135916080820135169060a00135612e4a565b348015610fe557600080fd5b5061028560048036036020811015610ffc57600080fd5b50356001600160a01b0316613065565b34801561101857600080fd5b506105c26130b8565b34801561102d57600080fd5b506107496130c7565b6060814281101561107c576040805162461bcd60e51b8152602060048201526015602482015260008051602061598d833981519152604482015290519081900360640190fd5b6002546001600160a01b03168686600019810181811061109857fe5b905060200201356001600160a01b03166001600160a01b0316146110fa576040805162461bcd60e51b81526020600482015260146024820152730a4deeae8cae47440929cac82989288bea082a8960631b604482015290519081900360640190fd5b61113d888888888080602002602001604051908101604052809392919081815260200183836020028082843760009201829052508b93508a9250905060016130cd565b98975050505050505050565b600154604051630c49bd1360e01b8152600481018581526001600160a01b03848116604484015260606024840181815287516064860152875191959290921693630c49bd1393899389938993608401906020808701910280838360005b838110156111be5781810151838201526020016111a6565b5050505090500194505050505060006040518083038186803b1580156111e357600080fd5b505afa1580156111f7573d6000803e3d6000fd5b505050506040513d6000823e601f3d908101601f19168201604052602081101561122057600080fd5b8101908080516040519392919084600160201b82111561123f57600080fd5b90830190602082018581111561125457600080fd5b82518660208202830111600160201b8211171561127057600080fd5b82525081516020918201928201910280838360005b8381101561129d578181015183820152602001611285565b5050505090500160405250505090509392505050565b60008082428110156112fa576040805162461bcd60e51b8152602060048201526015602482015260008051602061598d833981519152604482015290519081900360640190fd5b61130261579b565b61130b8a613520565b6001600160a01b03166101808201819052611325906135ee565b608082015260045461133f906001600160a01b03166135ee565b60c08201526080810151600090611357908a9061376b565b90506000611369898460c0015161376b565b6101808401516004549192506000918291611391916001600160a01b03168f8787308f612333565b61018087015191935091506113a8908f8c8561379e565b97506113b48a826137c8565b9650505050505050965096945050505050565b6060814281101561140d576040805162461bcd60e51b8152602060048201526015602482015260008051602061598d833981519152604482015290519081900360640190fd5b61113d888888888080602002602001604051908101604052809392919081815260200183836020028082843760009201829052508b93508a92509050806130cd565b600080600061145e8e8e612171565b905060008761146d578c611471565b6000195b6040805163d505accf60e01b815233600482015230602482015260448101839052606481018c905260ff8a16608482015260a4810189905260c4810188905290519192506001600160a01b0384169163d505accf9160e48082019260009290919082900301818387803b1580156114e757600080fd5b505af11580156114fb573d6000803e3d6000fd5b5050505061150e8f8f8f8f8f8f8f612333565b809450819550505050509b509b9950505050505050505050565b6006546001600160a01b031681565b6005818154811061154457fe5b6000918252602090912001546001600160a01b0316905081565b606081428110156115a4576040805162461bcd60e51b8152602060048201526015602482015260008051602061598d833981519152604482015290519081900360640190fd5b60606115e28787808060200260200160405190810160405280939291908181526020018383602002808284376000920191909152506137e692505050565b600154604051636959b26360e11b8152600481018c81526001600160a01b03898116604484015260606024840190815285516064850152855195965093169363d2b364c6938e9387938c93909291608401906020808701910280838360005b83811015611659578181015183820152602001611641565b5050505090500194505050505060006040518083038186803b15801561167e57600080fd5b505afa158015611692573d6000803e3d6000fd5b505050506040513d6000823e601f3d908101601f1916820160405260208110156116bb57600080fd5b8101908080516040519392919084600160201b8211156116da57600080fd5b9083019060208201858111156116ef57600080fd5b82518660208202830111600160201b8211171561170b57600080fd5b82525081516020918201928201910280838360005b83811015611738578181015183820152602001611720565b505050509050016040525050509250878360018551038151811061175857fe5b6020026020010151101561179d5760405162461bcd60e51b81526004018080602001828103825260228152602001806159d26022913960400191505060405180910390fd5b61180a878760008181106117ad57fe5b905060200201356001600160a01b0316336117f0846000815181106117ce57fe5b6020026020010151856001815181106117e357fe5b6020026020010151612171565b866000815181106117fd57fe5b6020026020010151613872565b6118158382876139cf565b50509695505050505050565b60608142811015611867576040805162461bcd60e51b8152602060048201526015602482015260008051602061598d833981519152604482015290519081900360640190fd5b61113d888888888080602002602001604051908101604052809392919081815260200183836020028082843760009201829052508b93508a9250905080613eee565b60075481565b6003546001600160a01b031681565b6118c661214d565b611905576040805162461bcd60e51b8152602060048201819052602482015260008051602061593d833981519152604482015290519081900360640190fd5b600380546001600160a01b0319166001600160a01b0392909216919091179055565b6004546001600160a01b031681565b61193e61214d565b61197d576040805162461bcd60e51b8152602060048201819052602482015260008051602061593d833981519152604482015290519081900360640190fd5b600580546001810182556000919091527f036b6384b5eca791c62761152d0c79bb0604c104a5fb6f4eb0703f3154bb3db00180546001600160a01b0319166001600160a01b0392909216919091179055565b60008060008342811015611a18576040805162461bcd60e51b8152602060048201526015602482015260008051602061598d833981519152604482015290519081900360640190fd5b611a2061579b565b611a298d614246565b6001600160a01b0316610180820152611a418c614246565b6001600160a01b039081166101a08301528d81166101408301528c16610160820152610180810151611a72906135ee565b60808201526101a0810151611a86906135ee565b60a08201526080810151611a9b908c9061376b565b815260a0810151611aad908b9061376b565b60208201526080810151611ac2908a9061376b565b604082015260a0810151611ad790899061376b565b6060820152611ae581614321565b61010083015260e08201526000611afc8e8e612171565b9050611b108260e0015183608001516146e8565b9550611b258261010001518360a001516146e8565b9450611b388e8361018001518389614706565b611b498d836101a001518388614706565b806001600160a01b0316636a627842896040518263ffffffff1660e01b815260040180826001600160a01b03166001600160a01b03168152602001915050602060405180830381600087803b158015611ba157600080fd5b505af1158015611bb5573d6000803e3d6000fd5b505050506040513d6020811015611bcb57600080fd5b5051959e949d50949b50929950505050505050505050565b6002546001600160a01b031681565b611bfa61214d565b611c39576040805162461bcd60e51b8152602060048201819052602482015260008051602061593d833981519152604482015290519081900360640190fd5b600080546040516001600160a01b03909116907f8be0079c531659141344cd1fd0a4f28419497f9722a3daafe3b4186f6b6457e0908390a3600080546001600160a01b0319169055565b611c8b61214d565b611cca576040805162461bcd60e51b8152602060048201819052602482015260008051602061593d833981519152604482015290519081900360640190fd5b60005b600554811015611d0c576005805480611ce257fe5b600082815260209020810160001990810180546001600160a01b0319169055019055600101611ccd565b5060005b8151811015611d6c576005828281518110611d2757fe5b60209081029190910181015182546001808201855560009485529290932090920180546001600160a01b0319166001600160a01b039093169290921790915501611d10565b5050565b600c5481565b60608142811015611dbc576040805162461bcd60e51b8152602060048201526015602482015260008051602061598d833981519152604482015290519081900360640190fd5b6060611dfa8787808060200260200160405190810160405280939291908181526020018383602002808284376000920191909152506137e692505050565b600154604051630c49bd1360e01b8152600481018c81526001600160a01b038981166044840152606060248401908152855160648501528551959650931693630c49bd13938e9387938c93909291608401906020808701910280838360005b83811015611e71578181015183820152602001611e59565b5050505090500194505050505060006040518083038186803b158015611e9657600080fd5b505afa158015611eaa573d6000803e3d6000fd5b505050506040513d6000823e601f3d908101601f191682016040526020811015611ed357600080fd5b8101908080516040519392919084600160201b821115611ef257600080fd5b908301906020820185811115611f0757600080fd5b82518660208202830111600160201b82111715611f2357600080fd5b82525081516020918201928201910280838360005b83811015611f50578181015183820152602001611f38565b5050505090500160405250505092508783600081518110611f6d57fe5b6020026020010151111561179d576040805162461bcd60e51b815260206004820152601e60248201527f526f757465723a204558434553534956455f494e5055545f414d4f554e540000604482015290519081900360640190fd5b60085481565b611fd661214d565b612015576040805162461bcd60e51b8152602060048201819052602482015260008051602061593d833981519152604482015290519081900360640190fd5b600b80546001600160a01b0319166001600160a01b0392909216919091179055565b6000546001600160a01b031690565b6060814281101561208c576040805162461bcd60e51b8152602060048201526015602482015260008051602061598d833981519152604482015290519081900360640190fd5b6002546001600160a01b0316868660001981018181106120a857fe5b905060200201356001600160a01b03166001600160a01b03161461210a576040805162461bcd60e51b81526020600482015260146024820152730a4deeae8cae47440929cac82989288bea082a8960631b604482015290519081900360640190fd5b61113d888888888080602002602001604051908101604052809392919081815260200183836020028082843760009201829052508b93508a925090506001613eee565b600080546001600160a01b03166121626148ed565b6001600160a01b031614905090565b6001546040805163e6a4390560e01b81526001600160a01b03858116600483015284811660248301529151600093929092169163e6a4390591604480820192602092909190829003018186803b1580156121ca57600080fd5b505afa1580156121de573d6000803e3d6000fd5b505050506040513d60208110156121f457600080fd5b50519392505050565b600b546000906001600160a01b031615806122185750600c54155b15612225575060006122a0565b600b5460408051632a7edd8f60e21b81526004810185905290516001600160a01b039092169163a9fb763c91602480820192602092909190829003018186803b15801561227157600080fd5b505afa158015612285573d6000803e3d6000fd5b505050506040513d602081101561229b57600080fd5b505190505b919050565b60015460408051632b58577b60e21b815260048101869052602481018590526044810184905290516000926001600160a01b03169163ad615dec916064808301926020929190829003018186803b1580156122ff57600080fd5b505afa158015612313573d6000803e3d6000fd5b505050506040513d602081101561232957600080fd5b5051949350505050565b600080824281101561237a576040805162461bcd60e51b8152602060048201526015602482015260008051602061598d833981519152604482015290519081900360640190fd5b60006123868b8b612171565b604080516323b872dd60e01b81523360048201526001600160a01b03831660248201819052604482018d9052915192935090916323b872dd916064808201926020929091908290030181600087803b1580156123e157600080fd5b505af11580156123f5573d6000803e3d6000fd5b505050506040513d602081101561240b57600080fd5b50506040805163226bf2d160e21b81526001600160a01b03888116600483015282516000938493928616926389afcb44926024808301939282900301818787803b15801561245857600080fd5b505af115801561246c573d6000803e3d6000fd5b505050506040513d604081101561248257600080fd5b5080516020909101519092509050600061249b8e6148f1565b905060006124a88e6148f1565b60015460408051632a26552b60e11b81526001600160a01b0386811660048301528085166024830152825194955060009493169263544caa5692604480840193919291829003018186803b1580156124ff57600080fd5b505afa158015612513573d6000803e3d6000fd5b505050506040513d604081101561252957600080fd5b505190506001600160a01b038381169082161461254757838561254a565b84845b90995097508c89101561258e5760405162461bcd60e51b81526004018080602001828103825260268152602001806158a06026913960400191505060405180910390fd5b8b8810156125cd5760405162461bcd60e51b815260040180806020018281038252602681526020018061587a6026913960400191505060405180910390fd5b5050505050505097509795505050505050565b60608142811015612626576040805162461bcd60e51b8152602060048201526015602482015260008051602061598d833981519152604482015290519081900360640190fd5b6002546001600160a01b0316868660008161263d57fe5b905060200201356001600160a01b03166001600160a01b03161461269f576040805162461bcd60e51b81526020600482015260146024820152730a4deeae8cae47440929cac82989288bea082a8960631b604482015290519081900360640190fd5b6126e2873488888080602002602001604051908101604052809392919081815260200183836020028082843760009201829052508b93508a9250600191506130cd565b979650505050505050565b6126f561214d565b612734576040805162461bcd60e51b8152602060048201819052602482015260008051602061593d833981519152604482015290519081900360640190fd5b8015806127415750806001145b61278b576040805162461bcd60e51b8152602060048201526016602482015275696e76616c696420706172616d20666565416c6c6f6360501b604482015290519081900360640190fd5b600c55565b6001546001600160a01b031681565b60008082428110156127e6576040805162461bcd60e51b8152602060048201526015602482015260008051602061598d833981519152604482015290519081900360640190fd5b60006127f28b8b612171565b604080516323b872dd60e01b81523360048201526001600160a01b03831660248201819052604482018d9052915192935090916323b872dd916064808201926020929091908290030181600087803b15801561284d57600080fd5b505af1158015612861573d6000803e3d6000fd5b505050506040513d602081101561287757600080fd5b50612882905061579b565b6001600160a01b03808d166101408301528b81166101608301526040805163226bf2d160e21b815230600482015281516000938493908716926389afcb44926024808301939282900301818787803b1580156128dd57600080fd5b505af11580156128f1573d6000803e3d6000fd5b505050506040513d604081101561290757600080fd5b50805160209091015160015461014086015161016087015160408051632a26552b60e11b81526001600160a01b03938416600482015291831660248301528051959750939550600094919092169263544caa569260448082019391829003018186803b15801561297657600080fd5b505afa15801561298a573d6000803e3d6000fd5b505050506040513d60408110156129a057600080fd5b505190506001600160a01b038f8116908216146129be5781836129c1565b82825b61010086015260e0850152506129e991506129dd90508d613520565b8d898460e0015161379e565b9450612a046129f78c613520565b8c8984610100015161379e565b935088851015612a455760405162461bcd60e51b81526004018080602001828103825260308152602001806158ec6030913960400191505060405180910390fd5b87841015612a845760405162461bcd60e51b815260040180806020018281038252603081526020018061595d6030913960400191505060405180910390fd5b50505097509795505050505050565b600154604051636959b26360e11b8152600481018581526001600160a01b0384811660448401526060602484018181528751606486015287519195929092169363d2b364c6938993899389936084019060208681019102808383600083156111be5781810151838201526020016111a6565b612b0d61214d565b612b4c576040805162461bcd60e51b8152602060048201819052602482015260008051602061593d833981519152604482015290519081900360640190fd5b6001600160a01b038316612b6957612b6482826149be565b612b75565b612b7583308484613872565b505050565b60025460009081908190612b98908e906001600160a01b0316612171565b9050600087612ba7578c612bab565b6000195b6040805163d505accf60e01b815233600482015230602482015260448101839052606481018c905260ff8a16608482015260a4810189905260c4810188905290519192506001600160a01b0384169163d505accf9160e48082019260009290919082900301818387803b158015612c2157600080fd5b505af1158015612c35573d6000803e3d6000fd5b50505050612c478e8e8e8e8e8e6112b3565b909f909e509c50505050505050505050505050565b60095481565b60008060008342811015612cab576040805162461bcd60e51b8152602060048201526015602482015260008051602061598d833981519152604482015290519081900360640190fd5b612cb361579b565b8a8152602081018a905260408101899052606081018890526001600160a01b03808e166101808301528c166101a0820152612ced8d6148f1565b6001600160a01b0316610140820152612d058c6148f1565b6001600160a01b0316610160820152612d1d81614321565b90955093506000612d2e8e8e612171565b9050612d3c8e338389613872565b611b498d338388613872565b60608142811015612d8e576040805162461bcd60e51b8152602060048201526015602482015260008051602061598d833981519152604482015290519081900360640190fd5b6002546001600160a01b03168686600081612da557fe5b905060200201356001600160a01b03166001600160a01b031614612e07576040805162461bcd60e51b81526020600482015260146024820152730a4deeae8cae47440929cac82989288bea082a8960631b604482015290519081900360640190fd5b6126e2348888888080602002602001604051908101604052809392919081815260200183836020028082843760009201829052508b93508a925060019150613eee565b60008060008342811015612e93576040805162461bcd60e51b8152602060048201526015602482015260008051602061598d833981519152604482015290519081900360640190fd5b6000612e9e8b614246565b9050612ea861579b565b612eb1826135ee565b6080820152600454612ecb906001600160a01b03166135ee565b60a08201526080810151612ee0908c9061376b565b815260a0810151612ef290349061376b565b60208201526080810151612f07908b9061376b565b604082015260a0810151612f1c908a9061376b565b60608201526001600160a01b0380831661018083015260045481166101a08301528c811661014083015260025416610160820152600080612f5c83614321565b915091506000612f818f600260009054906101000a90046001600160a01b0316612171565b9050612f918385608001516146e8565b9850612fa1828560a001516146e8565b9750612faf8f86838c614706565b612fb98189614ab1565b806001600160a01b0316636a6278428c6040518263ffffffff1660e01b815260040180826001600160a01b03166001600160a01b03168152602001915050602060405180830381600087803b15801561301157600080fd5b505af1158015613025573d6000803e3d6000fd5b505050506040513d602081101561303b57600080fd5b505196503488101561305357613053338934036149be565b50505050505096509650969350505050565b61306d61214d565b6130ac576040805162461bcd60e51b8152602060048201819052602482015260008051602061593d833981519152604482015290519081900360640190fd5b6130b581614bb8565b50565b600b546001600160a01b031681565b600a5481565b60608342811015613113576040805162461bcd60e51b8152602060048201526015602482015260008051602061598d833981519152604482015290519081900360640190fd5b606061311e88614c58565b905061312861582e565b6131458260008151811061313857fe5b60200260200101516135ee565b81528851825161316091849160001990910190811061313857fe5b60208201819052600090613175908d9061376b565b90506060600160009054906101000a90046001600160a01b03166001600160a01b0316630c49bd13838d8d6040518463ffffffff1660e01b81526004018084815260200180602001836001600160a01b03166001600160a01b03168152602001828103825284818151815260200191508051906020019060200280838360005b8381101561320d5781810151838201526020016131f5565b5050505090500194505050505060006040518083038186803b15801561323257600080fd5b505afa158015613246573d6000803e3d6000fd5b505050506040513d6000823e601f3d908101601f19168201604052602081101561326f57600080fd5b8101908080516040519392919084600160201b82111561328e57600080fd5b9083019060208201858111156132a357600080fd5b82518660208202830111600160201b821117156132bf57600080fd5b82525081516020918201928201910280838360005b838110156132ec5781810151838201526020016132d4565b50505050905001604052505050905061331d8160008151811061330b57fe5b602002602001015184600001516146e8565b6040840181905261333590600163ffffffff614cdd16565b604084018190528c1015613390576040805162461bcd60e51b815260206004820152601e60248201527f526f757465723a204558434553534956455f494e5055545f414d4f554e540000604482015290519081900360640190fd5b87156133cd576133c86133be8c6000815181106133a957fe5b60200260200101518d6001815181106117e357fe5b8460400151614ab1565b613429565b6134298b6000815181106133dd57fe5b6020026020010151856000815181106133f257fe5b602002602001015161341f8e60008151811061340a57fe5b60200260200101518f6001815181106117e357fe5b8660400151614706565b613434818c306139cf565b8a516000190187156134635761345d8b83838151811061345057fe5b60200260200101516137c8565b506134aa565b6134a885828151811061347257fe5b60200260200101518d838151811061348657fe5b60200260200101518d85858151811061349b57fe5b602002602001015161379e565b505b8b516040519080825280602002602001820160405280156134d5578160200160208202803883390190505b5096508360400151876000815181106134ea57fe5b6020026020010181815250508d87828151811061350357fe5b602002602001018181525050505050505050979650505050505050565b6006546040805163714bca1f60e11b81526001600160a01b0384811660048301529151600093929092169163e297943e91602480820192602092909190829003018186803b15801561357157600080fd5b505afa158015613585573d6000803e3d6000fd5b505050506040513d602081101561359b57600080fd5b505190506001600160a01b0381166122a0576040805162461bcd60e51b815260206004820152601160248201527019d95d08195d1bdad95b8819985a5b1959607a1b604482015290519081900360640190fd5b600080826001600160a01b031663182df0f56040518163ffffffff1660e01b815260040160206040518083038186803b15801561362a57600080fd5b505afa15801561363e573d6000803e3d6000fd5b505050506040513d602081101561365457600080fd5b505160408051630ae9d70b60e41b815290519192506000916001600160a01b0386169163ae9d70b0916004808301926020929190829003018186803b15801561369c57600080fd5b505afa1580156136b0573d6000803e3d6000fd5b505050506040513d60208110156136c657600080fd5b505160408051636c540baf60e01b815290519192506000916001600160a01b03871691636c540baf916004808301926020929190829003018186803b15801561370e57600080fd5b505afa158015613722573d6000803e3d6000fd5b505050506040513d602081101561373857600080fd5b5051905061375f43829003613753858563ffffffff614d3716565b9063ffffffff614d3716565b90920192505050919050565b60006137958261378985670de0b6b3a764000063ffffffff614d3716565b9063ffffffff614d9016565b90505b92915050565b6000806137ac868685614dd2565b905080156137bf576137bf858583614e98565b95945050505050565b6000806137d483614ffb565b905080156137955761379584826149be565b6060808251604051908082528060200260200182016040528015613814578160200160208202803883390190505b50905060005b835181101561386b5761383f84828151811061383257fe5b60200260200101516148f1565b82828151811061384b57fe5b6001600160a01b039092166020928302919091019091015260010161381a565b5092915050565b604080516001600160a01b0385811660248301528481166044830152606480830185905283518084039091018152608490920183526020820180516001600160e01b03166323b872dd60e01b17815292518251600094606094938a169392918291908083835b602083106138f75780518252601f1990920191602091820191016138d8565b6001836020036101000a0380198251168184511680821785525050505050509050019150506000604051808303816000865af19150503d8060008114613959576040519150601f19603f3d011682016040523d82523d6000602084013e61395e565b606091505b509150915081801561398c57508051158061398c575080806020019051602081101561398957600080fd5b50515b6139c75760405162461bcd60e51b8152600401808060200182810382526024815260200180615a176024913960400191505060405180910390fd5b505050505050565b600154604080516370e264b360e11b815290516000926001600160a01b03169163e1c4c966916004808301926020929190829003018186803b158015613a1457600080fd5b505afa158015613a28573d6000803e3d6000fd5b505050506040513d6020811015613a3e57600080fd5b5051905060005b6001845103811015613ee757600080858381518110613a6057fe5b6020026020010151868460010181518110613a7757fe5b602090810291909101015160015460408051632a26552b60e11b81526001600160a01b03808616600483015280851660248301528251959750939550600094939092169263544caa56926044808201939291829003018186803b158015613add57600080fd5b505afa158015613af1573d6000803e3d6000fd5b505050506040513d6040811015613b0757600080fd5b505160015488519192506000916001600160a01b039091169063e6a43905908a9088908110613b3257fe5b60200260200101518a8860010181518110613b4957fe5b60200260200101516040518363ffffffff1660e01b815260040180836001600160a01b03166001600160a01b03168152602001826001600160a01b03166001600160a01b031681526020019250505060206040518083038186803b158015613bb057600080fd5b505afa158015613bc4573d6000803e3d6000fd5b505050506040513d6020811015613bda57600080fd5b505189519091506000908a9060018801908110613bf357fe5b60200260200101519050600080846001600160a01b0316876001600160a01b031614613c2157826000613c25565b6000835b91509150600060028c51038910613c3c578a613c4f565b613c4f878d8b600201815181106117e357fe5b9050600c5460011415613db3576000613c6989878d6150cf565b90508015613c7a57613c7a816155a6565b6003546001600160a01b031615613d1c576003546040805163152cf14360e31b81523360048201526001600160a01b038c811660248301528b81166044830152606482018590529151919092169163a9678a189160848083019260209291908290030181600087803b158015613cef57600080fd5b505af1158015613d03573d6000803e3d6000fd5b505050506040513d6020811015613d1957600080fd5b50505b613d268989612171565b6001600160a01b0316630442a865858585856040518563ffffffff1660e01b815260040180858152602001848152602001836001600160a01b03166001600160a01b03168152602001828152602001945050505050600060405180830381600087803b158015613d9557600080fd5b505af1158015613da9573d6000803e3d6000fd5b5050505050613ed3565b613dbd8888612171565b6001600160a01b031663022c0d9f84848460006040519080825280601f01601f191660200182016040528015613dfa576020820181803883390190505b506040518563ffffffff1660e01b815260040180858152602001848152602001836001600160a01b03166001600160a01b0316815260200180602001828103825283818151815260200191508051906020019080838360005b83811015613e6b578181015183820152602001613e53565b50505050905090810190601f168015613e985780820380516001836020036101000a031916815260200191505b5095505050505050600060405180830381600087803b158015613eba57600080fd5b505af1158015613ece573d6000803e3d6000fd5b505050505b505060019096019550613a45945050505050565b5050505050565b60608342811015613f34576040805162461bcd60e51b8152602060048201526015602482015260008051602061598d833981519152604482015290519081900360640190fd5b6060613f3f88614c58565b9050613f4961582e565b8a816040018181525050613f638260008151811061313857fe5b81528151613f7690839060009061313857fe5b60208201528051600090613f8b908d9061376b565b90506060600160009054906101000a90046001600160a01b03166001600160a01b031663d2b364c6838d8d6040518463ffffffff1660e01b81526004018084815260200180602001836001600160a01b03166001600160a01b03168152602001828103825284818151815260200191508051906020019060200280838360005b8381101561402357818101518382015260200161400b565b5050505090500194505050505060006040518083038186803b15801561404857600080fd5b505afa15801561405c573d6000803e3d6000fd5b505050506040513d6000823e601f3d908101601f19168201604052602081101561408557600080fd5b8101908080516040519392919084600160201b8211156140a457600080fd5b9083019060208201858111156140b957600080fd5b82518660208202830111600160201b821117156140d557600080fd5b82525081516020918201928201910280838360005b838110156141025781810151838201526020016140ea565b5050505090500160405250505090506141368160018351038151811061412457fe5b602002602001015184602001516146e8565b606084018190528c111561417b5760405162461bcd60e51b81526004018080602001828103825260228152602001806159d26022913960400191505060405180910390fd5b871561419f5761419a6141948c6000815181106133a957fe5b8e614ab1565b6141af565b6141af8b6000815181106133dd57fe5b6141ba818c306139cf565b8a516000190187156141dc576141d68b83838151811061345057fe5b506141ed565b6141eb85828151811061347257fe5b505b8b51604051908082528060200260200182016040528015614218578160200160208202803883390190505b5096508d8760008151811061422957fe5b602002602001018181525050836060015187828151811061350357fe5b600654604080516326c7bd9360e01b81526001600160a01b038481166004830152915160009392909216916326c7bd939160248082019260209290919082900301818787803b15801561429857600080fd5b505af11580156142ac573d6000803e3d6000fd5b505050506040513d60208110156142c257600080fd5b505190506001600160a01b0381166122a0576040805162461bcd60e51b815260206004820152601b60248201527f676574206f72206372656174652065746f6b656e206661696c65640000000000604482015290519081900360640190fd5b6101808101516101a0820151825160208085015160408087015160608801516101408901516101608a0151600154855163e6a4390560e01b81526001600160a01b0380851660048301528084166024830152965160009c8d9c909b909a9099988d94169263e6a439059260448083019392829003018186803b1580156143a657600080fd5b505afa1580156143ba573d6000803e3d6000fd5b505050506040513d60208110156143d057600080fd5b50516001600160a01b0316141561447557600154604080516304da8eeb60e41b81526001600160a01b03858116600483015284811660248301528b811660448301528a8116606483015291519190921691634da8eeb09160848083019260209291908290030181600087803b15801561444857600080fd5b505af115801561445c573d6000803e3d6000fd5b505050506040513d602081101561447257600080fd5b50505b6001546040805163354aedbd60e21b81526001600160a01b03858116600483015284811660248301528251600094859492169263d52bb6f4926044808301939192829003018186803b1580156144ca57600080fd5b505afa1580156144de573d6000803e3d6000fd5b505050506040513d60408110156144f457600080fd5b50805160209091015190925090508115801561450e575080155b15614522578787809c50819d5050506146d9565b60015460408051632b58577b60e21b8152600481018b9052602481018590526044810184905290516000926001600160a01b03169163ad615dec916064808301926020929190829003018186803b15801561457c57600080fd5b505afa158015614590573d6000803e3d6000fd5b505050506040513d60208110156145a657600080fd5b505190508781116145fe57858110156145f05760405162461bcd60e51b81526004018080602001828103825260238152602001806158576023913960400191505060405180910390fd5b979b509699508a968a6146d7565b60015460408051632b58577b60e21b8152600481018b9052602481018590526044810186905290516000926001600160a01b03169163ad615dec916064808301926020929190829003018186803b15801561465857600080fd5b505afa15801561466c573d6000803e3d6000fd5b505050506040513d602081101561468257600080fd5b505190508981111561469057fe5b878110156146cf5760405162461bcd60e51b8152600401808060200182810382526023815260200180615a3b6023913960400191505060405180910390fd5b9c50969a508a965b505b50505050505050505050915091565b6000613795670de0b6b3a7640000613789858563ffffffff614d3716565b61471284333084613872565b836001600160a01b031663095ea7b384836040518363ffffffff1660e01b815260040180836001600160a01b03166001600160a01b0316815260200182815260200192505050602060405180830381600087803b15801561477257600080fd5b505af1158015614786573d6000803e3d6000fd5b505050506040513d602081101561479c57600080fd5b50506040805163140e25ad60e31b815260048101839052815160009283926001600160a01b0388169263a0712d689260248084019391929182900301818787803b1580156147e957600080fd5b505af11580156147fd573d6000803e3d6000fd5b505050506040513d604081101561481357600080fd5b5080516020918201516040805163095ea7b360e01b81526001600160a01b038a16600482018190526000602483018190529251949750929550919363095ea7b393604480850194929391928390030190829087803b15801561487457600080fd5b505af1158015614888573d6000803e3d6000fd5b505050506040513d602081101561489e57600080fd5b505081156148e1576040805162461bcd60e51b815260206004820152600b60248201526a1b5a5b9d0819985a5b195960aa1b604482015290519081900360640190fd5b6139c785308684613872565b3390565b6006546040805163b8d7b66960e01b81526001600160a01b0384811660048301529151600093929092169163b8d7b66991602480820192602092909190829003018186803b15801561494257600080fd5b505afa158015614956573d6000803e3d6000fd5b505050506040513d602081101561496c57600080fd5b505190506001600160a01b0381166122a0576040805162461bcd60e51b815260206004820152601060248201526f19d95d081d1bdad95b8819985a5b195960821b604482015290519081900360640190fd5b604080516000808252602082019092526001600160a01b0384169083906040518082805190602001908083835b60208310614a0a5780518252601f1990920191602091820191016149eb565b6001836020036101000a03801982511681845116808217855250505050505090500191505060006040518083038185875af1925050503d8060008114614a6c576040519150601f19603f3d011682016040523d82523d6000602084013e614a71565b606091505b5050905080612b755760405162461bcd60e51b81526004018080602001828103825260238152602001806159f46023913960400191505060405180910390fd5b6004805460408051631249c58b60e01b815281516001600160a01b0390931693631249c58b9386938383019390929082900301818588803b158015614af557600080fd5b505af1158015614b09573d6000803e3d6000fd5b50505050506040513d6040811015614b2057600080fd5b505060048054604080516370a0823160e01b81523093810193909352516000926001600160a01b03909216916370a08231916024808301926020929190829003018186803b158015614b7157600080fd5b505afa158015614b85573d6000803e3d6000fd5b505050506040513d6020811015614b9b57600080fd5b5051600454909150612b75906001600160a01b0316308584613872565b6001600160a01b038116614bfd5760405162461bcd60e51b81526004018080602001828103825260268152602001806158c66026913960400191505060405180910390fd5b600080546040516001600160a01b03808516939216917f8be0079c531659141344cd1fd0a4f28419497f9722a3daafe3b4186f6b6457e091a3600080546001600160a01b0319166001600160a01b0392909216919091179055565b6060808251604051908082528060200260200182016040528015614c86578160200160208202803883390190505b50905060005b835181101561386b57614cb1848281518110614ca457fe5b6020026020010151613520565b828281518110614cbd57fe5b6001600160a01b0390921660209283029190910190910152600101614c8c565b600082820183811015613795576040805162461bcd60e51b815260206004820152601b60248201527f536166654d6174683a206164646974696f6e206f766572666c6f770000000000604482015290519081900360640190fd5b600082614d4657506000613798565b82820282848281614d5357fe5b04146137955760405162461bcd60e51b815260040180806020018281038252602181526020018061591c6021913960400191505060405180910390fd5b600061379583836040518060400160405280601a81526020017f536166654d6174683a206469766973696f6e206279207a65726f0000000000008152506155cb565b6000806000856001600160a01b031663db006a75856040518263ffffffff1660e01b815260040180828152602001915050606060405180830381600087803b158015614e1d57600080fd5b505af1158015614e31573d6000803e3d6000fd5b505050506040513d6060811015614e4757600080fd5b508051602090910151909250905081156137bf576040805162461bcd60e51b815260206004820152600d60248201526c1c995919595b4819985a5b1959609a1b604482015290519081900360640190fd5b604080516001600160a01b038481166024830152604480830185905283518084039091018152606490920183526020820180516001600160e01b031663a9059cbb60e01b178152925182516000946060949389169392918291908083835b60208310614f155780518252601f199092019160209182019101614ef6565b6001836020036101000a0380198251168184511680821785525050505050509050019150506000604051808303816000865af19150503d8060008114614f77576040519150601f19603f3d011682016040523d82523d6000602084013e614f7c565b606091505b5091509150818015614faa575080511580614faa5750808060200190516020811015614fa757600080fd5b50515b613ee7576040805162461bcd60e51b815260206004820152601f60248201527f5472616e7366657248656c7065723a205452414e534645525f4641494c454400604482015290519081900360640190fd5b600480546040805163db006a7560e01b815292830184905251600092839283926001600160a01b039091169163db006a7591602480830192606092919082900301818787803b15801561504d57600080fd5b505af1158015615061573d6000803e3d6000fd5b505050506040513d606081101561507757600080fd5b508051602090910151909250905081156150c8576040805162461bcd60e51b815260206004820152600d60248201526c1c995919595b4819985a5b1959609a1b604482015290519081900360640190fd5b9392505050565b600080600160009054906101000a90046001600160a01b03166001600160a01b031663017e7e586040518163ffffffff1660e01b815260040160206040518083038186803b15801561512057600080fd5b505afa158015615134573d6000803e3d6000fd5b505050506040513d602081101561514a57600080fd5b505190506001600160a01b038116615199576040805162461bcd60e51b815260206004820152600d60248201526c666565546f206973207a65726f60981b604482015290519081900360640190fd5b60006151a486613520565b6001600160a01b03166370a08231866040518263ffffffff1660e01b815260040180826001600160a01b03166001600160a01b0316815260200191505060206040518083038186803b1580156151f957600080fd5b505afa15801561520d573d6000803e3d6000fd5b505050506040513d602081101561522357600080fd5b505160408051633f3b917d60e21b81526004810183905290519192506000916001600160a01b0388169163fcee45f4916024808301926020929190829003018186803b15801561527257600080fd5b505afa158015615286573d6000803e3d6000fd5b505050506040513d602081101561529c57600080fd5b505190506001600160a01b0387811690861614156152bc5780935061559c565b60005b60055481101561559a576000600582815481106152d857fe5b60009182526020808320909101546001546040805163e6a4390560e01b81526001600160a01b038f81166004830152938416602482018190529151919650919092169263e6a4390592604480840193829003018186803b15801561533b57600080fd5b505afa15801561534f573d6000803e3d6000fd5b505050506040513d602081101561536557600080fd5b505190506001600160a01b0381161561559057876001600160a01b0316826001600160a01b03161415615421576040805163a9059cbb60e01b81526001600160a01b0383166004820181905260248201879052915163a9059cbb916044808201926020929091908290030181600087803b1580156153e257600080fd5b505af11580156153f6573d6000803e3d6000fd5b505050506040513d602081101561540c57600080fd5b5061541a905081858861566d565b9650615589565b6001546040805163e6a4390560e01b81526001600160a01b0385811660048301528b811660248301529151600093929092169163e6a4390591604480820192602092909190829003018186803b15801561547a57600080fd5b505afa15801561548e573d6000803e3d6000fd5b505050506040513d60208110156154a457600080fd5b505190506001600160a01b0381166154ed5760405162461bcd60e51b81526004018080602001828103825260258152602001806159ad6025913960400191505060405180910390fd5b6040805163a9059cbb60e01b81526001600160a01b0384166004820181905260248201889052915163a9059cbb916044808201926020929091908290030181600087803b15801561553d57600080fd5b505af1158015615551573d6000803e3d6000fd5b505050506040513d602081101561556757600080fd5b506000905061557783878461566d565b905061558482828a61566d565b985050505b505061559a565b50506001016152bf565b505b5050509392505050565b4360095414156155bd5760078054820190556130b5565b600780546008555543600955565b600081836156575760405162461bcd60e51b81526004018080602001828103825283818151815260200191508051906020019080838360005b8381101561561c578181015183820152602001615604565b50505050905090810190601f1680156156495780820380516001836020036101000a031916815260200191505b509250505060405180910390fd5b50600083858161566357fe5b0495945050505050565b6000806000856001600160a01b0316630902f1ac6040518163ffffffff1660e01b815260040160606040518083038186803b1580156156ab57600080fd5b505afa1580156156bf573d6000803e3d6000fd5b505050506040513d60608110156156d557600080fd5b5080516020909101516dffffffffffffffffffffffffffff9182169350169050615718615708838763ffffffff614cdd16565b613789878463ffffffff614d3716565b60408051630442a86560e01b8152600060048201819052602482018490526001600160a01b03888116604484015260648301859052925193965091891692630442a8659260848084019391929182900301818387803b15801561577a57600080fd5b505af115801561578e573d6000803e3d6000fd5b5050505050509392505050565b604051806101c001604052806000815260200160008152602001600081526020016000815260200160008152602001600081526020016000815260200160008152602001600081526020016000815260200160006001600160a01b0316815260200160006001600160a01b0316815260200160006001600160a01b0316815260200160006001600160a01b031681525090565b604051806080016040528060008152602001600081526020016000815260200160008152509056fe4164644c69717569646974793a20494e53554646494349454e545f425f414d4f554e5452656d6f76654c69717569646974793a20494e53554646494349454e545f425f414d4f554e5452656d6f76654c69717569646974793a20494e53554646494349454e545f415f414d4f554e544f776e61626c653a206e6577206f776e657220697320746865207a65726f206164647265737352656d6f76654c6971756964697479556e6465726c79696e673a20494e53554646494349454e545f415f414d4f554e54536166654d6174683a206d756c7469706c69636174696f6e206f766572666c6f774f776e61626c653a2063616c6c6572206973206e6f7420746865206f776e657252656d6f76654c6971756964697479556e6465726c79696e673a20494e53554646494349454e545f425f414d4f554e54446542616e6b526f757465723a2045585049524544000000000000000000000071756f746520636f696e20686173206e6f207061697220746f20616e63686f72546f6b656e526f757465723a20494e53554646494349454e545f4f55545055545f414d4f554e545472616e7366657248656c7065723a204554485f5452414e534645525f4641494c45445472616e7366657248656c7065723a205452414e534645525f46524f4d5f4641494c45444164644c69717569646974793a20494e53554646494349454e545f415f414d4f554e54a265627a7a7231582055b8807a033b15b8c753b95a6f39fac5155f0f41f0595f78c84856b52e25e64164736f6c63430005100032",
  "devdoc": {
    "methods": {
      "isOwner()": {
        "details": "Returns true if the caller is the current owner."
      },
      "owner()": {
        "details": "Returns the address of the current owner."
      },
      "renounceOwnership()": {
        "details": "Leaves the contract without owner. It will not be possible to call `onlyOwner` functions anymore. Can only be called by the current owner.     * NOTE: Renouncing ownership will leave the contract without an owner, thereby removing any functionality that is only available to the owner."
      },
      "transferOwnership(address)": {
        "details": "Transfers ownership of the contract to a new account (`newOwner`). Can only be called by the current owner."
      }
    }
  },
  "userdoc": {
    "methods": {}
  },
  "storageLayout": {
    "storage": [
      {
        "astId": 220,
        "contract": "contracts/swap/heco/Router.sol:DeBankRouter",
        "label": "_owner",
        "offset": 0,
        "slot": "0",
        "type": "t_address"
      },
      {
        "astId": 39600,
        "contract": "contracts/swap/heco/Router.sol:DeBankRouter",
        "label": "factory",
        "offset": 0,
        "slot": "1",
        "type": "t_address"
      },
      {
        "astId": 39602,
        "contract": "contracts/swap/heco/Router.sol:DeBankRouter",
        "label": "WHT",
        "offset": 0,
        "slot": "2",
        "type": "t_address"
      },
      {
        "astId": 39604,
        "contract": "contracts/swap/heco/Router.sol:DeBankRouter",
        "label": "swapMining",
        "offset": 0,
        "slot": "3",
        "type": "t_address"
      },
      {
        "astId": 39606,
        "contract": "contracts/swap/heco/Router.sol:DeBankRouter",
        "label": "cWHT",
        "offset": 0,
        "slot": "4",
        "type": "t_address"
      },
      {
        "astId": 39609,
        "contract": "contracts/swap/heco/Router.sol:DeBankRouter",
        "label": "quoteTokens",
        "offset": 0,
        "slot": "5",
        "type": "t_array(t_address)dyn_storage"
      },
      {
        "astId": 39611,
        "contract": "contracts/swap/heco/Router.sol:DeBankRouter",
        "label": "ctokenFactory",
        "offset": 0,
        "slot": "6",
        "type": "t_contract(LErc20DelegatorInterface)45111"
      },
      {
        "astId": 39613,
        "contract": "contracts/swap/heco/Router.sol:DeBankRouter",
        "label": "allPairFee",
        "offset": 0,
        "slot": "7",
        "type": "t_uint256"
      },
      {
        "astId": 39615,
        "contract": "contracts/swap/heco/Router.sol:DeBankRouter",
        "label": "allPairFeeLastBlock",
        "offset": 0,
        "slot": "8",
        "type": "t_uint256"
      },
      {
        "astId": 39617,
        "contract": "contracts/swap/heco/Router.sol:DeBankRouter",
        "label": "currentBlock",
        "offset": 0,
        "slot": "9",
        "type": "t_uint256"
      },
      {
        "astId": 39619,
        "contract": "contracts/swap/heco/Router.sol:DeBankRouter",
        "label": "lpPerBlock",
        "offset": 0,
        "slot": "10",
        "type": "t_uint256"
      },
      {
        "astId": 39621,
        "contract": "contracts/swap/heco/Router.sol:DeBankRouter",
        "label": "rewardToken",
        "offset": 0,
        "slot": "11",
        "type": "t_address"
      },
      {
        "astId": 39623,
        "contract": "contracts/swap/heco/Router.sol:DeBankRouter",
        "label": "feeAlloc",
        "offset": 0,
        "slot": "12",
        "type": "t_uint256"
      }
    ],
    "types": {
      "t_address": {
        "encoding": "inplace",
        "label": "address",
        "numberOfBytes": "20"
      },
      "t_array(t_address)dyn_storage": {
        "base": "t_address",
        "encoding": "dynamic_array",
        "label": "address[]",
        "numberOfBytes": "32"
      },
      "t_contract(LErc20DelegatorInterface)45111": {
        "encoding": "inplace",
        "label": "contract LErc20DelegatorInterface",
        "numberOfBytes": "20"
      },
      "t_uint256": {
        "encoding": "inplace",
        "label": "uint256",
        "numberOfBytes": "32"
      }
    }
  }
}