{
  "address": "0xfC89A943dF84274Ab41e32e92fEF0163e7CDa2f8",
  "abi": [
    {
      "inputs": [
        {
          "internalType": "address",
          "name": "_factory",
          "type": "address"
        },
        {
          "internalType": "address",
          "name": "_wht",
          "type": "address"
        },
        {
          "internalType": "address",
          "name": "_cwht",
          "type": "address"
        },
        {
          "internalType": "address",
          "name": "_ctokenFactory",
          "type": "address"
        }
      ],
      "payable": false,
      "stateMutability": "nonpayable",
      "type": "constructor"
    },
    {
      "anonymous": false,
      "inputs": [
        {
          "indexed": true,
          "internalType": "address",
          "name": "previousOwner",
          "type": "address"
        },
        {
          "indexed": true,
          "internalType": "address",
          "name": "newOwner",
          "type": "address"
        }
      ],
      "name": "OwnershipTransferred",
      "type": "event"
    },
    {
      "payable": true,
      "stateMutability": "payable",
      "type": "fallback"
    },
    {
      "constant": true,
      "inputs": [],
      "name": "WHT",
      "outputs": [
        {
          "internalType": "address",
          "name": "",
          "type": "address"
        }
      ],
      "payable": false,
      "stateMutability": "view",
      "type": "function"
    },
    {
      "constant": false,
      "inputs": [
        {
          "internalType": "address",
          "name": "tokenA",
          "type": "address"
        },
        {
          "internalType": "address",
          "name": "tokenB",
          "type": "address"
        },
        {
          "internalType": "uint256",
          "name": "amountADesired",
          "type": "uint256"
        },
        {
          "internalType": "uint256",
          "name": "amountBDesired",
          "type": "uint256"
        },
        {
          "internalType": "uint256",
          "name": "amountAMin",
          "type": "uint256"
        },
        {
          "internalType": "uint256",
          "name": "amountBMin",
          "type": "uint256"
        },
        {
          "internalType": "address",
          "name": "to",
          "type": "address"
        },
        {
          "internalType": "uint256",
          "name": "deadline",
          "type": "uint256"
        }
      ],
      "name": "addLiquidity",
      "outputs": [
        {
          "internalType": "uint256",
          "name": "amountA",
          "type": "uint256"
        },
        {
          "internalType": "uint256",
          "name": "amountB",
          "type": "uint256"
        },
        {
          "internalType": "uint256",
          "name": "liquidityAmt",
          "type": "uint256"
        }
      ],
      "payable": false,
      "stateMutability": "nonpayable",
      "type": "function"
    },
    {
      "constant": false,
      "inputs": [
        {
          "internalType": "address",
          "name": "token",
          "type": "address"
        },
        {
          "internalType": "uint256",
          "name": "amountTokenDesired",
          "type": "uint256"
        },
        {
          "internalType": "uint256",
          "name": "amountTokenMin",
          "type": "uint256"
        },
        {
          "internalType": "uint256",
          "name": "amountETHMin",
          "type": "uint256"
        },
        {
          "internalType": "address",
          "name": "to",
          "type": "address"
        },
        {
          "internalType": "uint256",
          "name": "deadline",
          "type": "uint256"
        }
      ],
      "name": "addLiquidityETHUnderlying",
      "outputs": [
        {
          "internalType": "uint256",
          "name": "amountToken",
          "type": "uint256"
        },
        {
          "internalType": "uint256",
          "name": "amountETH",
          "type": "uint256"
        },
        {
          "internalType": "uint256",
          "name": "liquidity",
          "type": "uint256"
        }
      ],
      "payable": true,
      "stateMutability": "payable",
      "type": "function"
    },
    {
      "constant": false,
      "inputs": [
        {
          "internalType": "address",
          "name": "tokenA",
          "type": "address"
        },
        {
          "internalType": "address",
          "name": "tokenB",
          "type": "address"
        },
        {
          "internalType": "uint256",
          "name": "amountADesired",
          "type": "uint256"
        },
        {
          "internalType": "uint256",
          "name": "amountBDesired",
          "type": "uint256"
        },
        {
          "internalType": "uint256",
          "name": "amountAMin",
          "type": "uint256"
        },
        {
          "internalType": "uint256",
          "name": "amountBMin",
          "type": "uint256"
        },
        {
          "internalType": "address",
          "name": "to",
          "type": "address"
        },
        {
          "internalType": "uint256",
          "name": "deadline",
          "type": "uint256"
        }
      ],
      "name": "addLiquidityUnderlying",
      "outputs": [
        {
          "internalType": "uint256",
          "name": "amountA",
          "type": "uint256"
        },
        {
          "internalType": "uint256",
          "name": "amountB",
          "type": "uint256"
        },
        {
          "internalType": "uint256",
          "name": "liquidity",
          "type": "uint256"
        }
      ],
      "payable": false,
      "stateMutability": "nonpayable",
      "type": "function"
    },
    {
      "constant": false,
      "inputs": [
        {
          "internalType": "address",
          "name": "token",
          "type": "address"
        }
      ],
      "name": "addQuoteToken",
      "outputs": [],
      "payable": false,
      "stateMutability": "nonpayable",
      "type": "function"
    },
    {
      "constant": false,
      "inputs": [
        {
          "internalType": "address",
          "name": "token",
          "type": "address"
        },
        {
          "internalType": "address",
          "name": "to",
          "type": "address"
        },
        {
          "internalType": "uint256",
          "name": "amt",
          "type": "uint256"
        }
      ],
      "name": "adminTransfer",
      "outputs": [],
      "payable": false,
      "stateMutability": "nonpayable",
      "type": "function"
    },
    {
      "constant": true,
      "inputs": [],
      "name": "cWHT",
      "outputs": [
        {
          "internalType": "address",
          "name": "",
          "type": "address"
        }
      ],
      "payable": false,
      "stateMutability": "view",
      "type": "function"
    },
    {
      "constant": true,
      "inputs": [],
      "name": "ctokenFactory",
      "outputs": [
        {
          "internalType": "contract LErc20DelegatorInterface",
          "name": "",
          "type": "address"
        }
      ],
      "payable": false,
      "stateMutability": "view",
      "type": "function"
    },
    {
      "constant": true,
      "inputs": [],
      "name": "ebePerBlock",
      "outputs": [
        {
          "internalType": "uint256",
          "name": "",
          "type": "uint256"
        }
      ],
      "payable": false,
      "stateMutability": "view",
      "type": "function"
    },
    {
      "constant": true,
      "inputs": [],
      "name": "ebeRewards",
      "outputs": [
        {
          "internalType": "uint256",
          "name": "",
          "type": "uint256"
        }
      ],
      "payable": false,
      "stateMutability": "view",
      "type": "function"
    },
    {
      "constant": true,
      "inputs": [],
      "name": "factory",
      "outputs": [
        {
          "internalType": "address",
          "name": "",
          "type": "address"
        }
      ],
      "payable": false,
      "stateMutability": "view",
      "type": "function"
    },
    {
      "constant": true,
      "inputs": [],
      "name": "feeAlloc",
      "outputs": [
        {
          "internalType": "uint256",
          "name": "",
          "type": "uint256"
        }
      ],
      "payable": false,
      "stateMutability": "view",
      "type": "function"
    },
    {
      "constant": true,
      "inputs": [
        {
          "internalType": "uint256",
          "name": "amountOut",
          "type": "uint256"
        },
        {
          "internalType": "address[]",
          "name": "path",
          "type": "address[]"
        },
        {
          "internalType": "address",
          "name": "to",
          "type": "address"
        }
      ],
      "name": "getAmountsIn",
      "outputs": [
        {
          "internalType": "uint256[]",
          "name": "amounts",
          "type": "uint256[]"
        }
      ],
      "payable": false,
      "stateMutability": "view",
      "type": "function"
    },
    {
      "constant": true,
      "inputs": [
        {
          "internalType": "uint256",
          "name": "amountIn",
          "type": "uint256"
        },
        {
          "internalType": "address[]",
          "name": "path",
          "type": "address[]"
        },
        {
          "internalType": "address",
          "name": "to",
          "type": "address"
        }
      ],
      "name": "getAmountsOut",
      "outputs": [
        {
          "internalType": "uint256[]",
          "name": "amounts",
          "type": "uint256[]"
        }
      ],
      "payable": false,
      "stateMutability": "view",
      "type": "function"
    },
    {
      "constant": true,
      "inputs": [],
      "name": "isOwner",
      "outputs": [
        {
          "internalType": "bool",
          "name": "",
          "type": "bool"
        }
      ],
      "payable": false,
      "stateMutability": "view",
      "type": "function"
    },
    {
      "constant": false,
      "inputs": [
        {
          "internalType": "address",
          "name": "token0",
          "type": "address"
        },
        {
          "internalType": "address",
          "name": "token1",
          "type": "address"
        },
        {
          "internalType": "uint256",
          "name": "_amount",
          "type": "uint256"
        }
      ],
      "name": "mintEBEToken",
      "outputs": [
        {
          "internalType": "uint256",
          "name": "",
          "type": "uint256"
        }
      ],
      "payable": false,
      "stateMutability": "nonpayable",
      "type": "function"
    },
    {
      "constant": true,
      "inputs": [],
      "name": "owner",
      "outputs": [
        {
          "internalType": "address",
          "name": "",
          "type": "address"
        }
      ],
      "payable": false,
      "stateMutability": "view",
      "type": "function"
    },
    {
      "constant": true,
      "inputs": [
        {
          "internalType": "address",
          "name": "tokenA",
          "type": "address"
        },
        {
          "internalType": "address",
          "name": "tokenB",
          "type": "address"
        }
      ],
      "name": "pairFor",
      "outputs": [
        {
          "internalType": "address",
          "name": "pair",
          "type": "address"
        }
      ],
      "payable": false,
      "stateMutability": "view",
      "type": "function"
    },
    {
      "constant": true,
      "inputs": [],
      "name": "pendingEBE",
      "outputs": [
        {
          "internalType": "uint256",
          "name": "",
          "type": "uint256"
        }
      ],
      "payable": false,
      "stateMutability": "view",
      "type": "function"
    },
    {
      "constant": true,
      "inputs": [
        {
          "internalType": "uint256",
          "name": "amountA",
          "type": "uint256"
        },
        {
          "internalType": "uint256",
          "name": "reserveA",
          "type": "uint256"
        },
        {
          "internalType": "uint256",
          "name": "reserveB",
          "type": "uint256"
        }
      ],
      "name": "quote",
      "outputs": [
        {
          "internalType": "uint256",
          "name": "amountB",
          "type": "uint256"
        }
      ],
      "payable": false,
      "stateMutability": "view",
      "type": "function"
    },
    {
      "constant": true,
      "inputs": [
        {
          "internalType": "uint256",
          "name": "",
          "type": "uint256"
        }
      ],
      "name": "quoteTokens",
      "outputs": [
        {
          "internalType": "address",
          "name": "",
          "type": "address"
        }
      ],
      "payable": false,
      "stateMutability": "view",
      "type": "function"
    },
    {
      "constant": false,
      "inputs": [
        {
          "internalType": "address",
          "name": "ctokenA",
          "type": "address"
        },
        {
          "internalType": "address",
          "name": "ctokenB",
          "type": "address"
        },
        {
          "internalType": "uint256",
          "name": "liquidity",
          "type": "uint256"
        },
        {
          "internalType": "uint256",
          "name": "amountAMin",
          "type": "uint256"
        },
        {
          "internalType": "uint256",
          "name": "amountBMin",
          "type": "uint256"
        },
        {
          "internalType": "address",
          "name": "to",
          "type": "address"
        },
        {
          "internalType": "uint256",
          "name": "deadline",
          "type": "uint256"
        }
      ],
      "name": "removeLiquidity",
      "outputs": [
        {
          "internalType": "uint256",
          "name": "amountA",
          "type": "uint256"
        },
        {
          "internalType": "uint256",
          "name": "amountB",
          "type": "uint256"
        }
      ],
      "payable": false,
      "stateMutability": "nonpayable",
      "type": "function"
    },
    {
      "constant": false,
      "inputs": [
        {
          "internalType": "address",
          "name": "token",
          "type": "address"
        },
        {
          "internalType": "uint256",
          "name": "liquidity",
          "type": "uint256"
        },
        {
          "internalType": "uint256",
          "name": "amountTokenMin",
          "type": "uint256"
        },
        {
          "internalType": "uint256",
          "name": "amountETHMin",
          "type": "uint256"
        },
        {
          "internalType": "address",
          "name": "to",
          "type": "address"
        },
        {
          "internalType": "uint256",
          "name": "deadline",
          "type": "uint256"
        }
      ],
      "name": "removeLiquidityETHUnderlying",
      "outputs": [
        {
          "internalType": "uint256",
          "name": "amountToken",
          "type": "uint256"
        },
        {
          "internalType": "uint256",
          "name": "amountETH",
          "type": "uint256"
        }
      ],
      "payable": false,
      "stateMutability": "nonpayable",
      "type": "function"
    },
    {
      "constant": false,
      "inputs": [
        {
          "internalType": "address",
          "name": "token",
          "type": "address"
        },
        {
          "internalType": "uint256",
          "name": "liquidity",
          "type": "uint256"
        },
        {
          "internalType": "uint256",
          "name": "amountTokenMin",
          "type": "uint256"
        },
        {
          "internalType": "uint256",
          "name": "amountETHMin",
          "type": "uint256"
        },
        {
          "internalType": "address",
          "name": "to",
          "type": "address"
        },
        {
          "internalType": "uint256",
          "name": "deadline",
          "type": "uint256"
        },
        {
          "internalType": "bool",
          "name": "approveMax",
          "type": "bool"
        },
        {
          "internalType": "uint8",
          "name": "v",
          "type": "uint8"
        },
        {
          "internalType": "bytes32",
          "name": "r",
          "type": "bytes32"
        },
        {
          "internalType": "bytes32",
          "name": "s",
          "type": "bytes32"
        }
      ],
      "name": "removeLiquidityETHUnderlyingWithPermit",
      "outputs": [
        {
          "internalType": "uint256",
          "name": "amountToken",
          "type": "uint256"
        },
        {
          "internalType": "uint256",
          "name": "amountETH",
          "type": "uint256"
        }
      ],
      "payable": false,
      "stateMutability": "nonpayable",
      "type": "function"
    },
    {
      "constant": false,
      "inputs": [
        {
          "internalType": "address",
          "name": "tokenA",
          "type": "address"
        },
        {
          "internalType": "address",
          "name": "tokenB",
          "type": "address"
        },
        {
          "internalType": "uint256",
          "name": "liquidity",
          "type": "uint256"
        },
        {
          "internalType": "uint256",
          "name": "amountAMin",
          "type": "uint256"
        },
        {
          "internalType": "uint256",
          "name": "amountBMin",
          "type": "uint256"
        },
        {
          "internalType": "address",
          "name": "to",
          "type": "address"
        },
        {
          "internalType": "uint256",
          "name": "deadline",
          "type": "uint256"
        }
      ],
      "name": "removeLiquidityUnderlying",
      "outputs": [
        {
          "internalType": "uint256",
          "name": "amountA",
          "type": "uint256"
        },
        {
          "internalType": "uint256",
          "name": "amountB",
          "type": "uint256"
        }
      ],
      "payable": false,
      "stateMutability": "nonpayable",
      "type": "function"
    },
    {
      "constant": false,
      "inputs": [
        {
          "internalType": "address",
          "name": "tokenA",
          "type": "address"
        },
        {
          "internalType": "address",
          "name": "tokenB",
          "type": "address"
        },
        {
          "internalType": "uint256",
          "name": "liquidity",
          "type": "uint256"
        },
        {
          "internalType": "uint256",
          "name": "amountAMin",
          "type": "uint256"
        },
        {
          "internalType": "uint256",
          "name": "amountBMin",
          "type": "uint256"
        },
        {
          "internalType": "address",
          "name": "to",
          "type": "address"
        },
        {
          "internalType": "uint256",
          "name": "deadline",
          "type": "uint256"
        },
        {
          "internalType": "bool",
          "name": "approveMax",
          "type": "bool"
        },
        {
          "internalType": "uint8",
          "name": "v",
          "type": "uint8"
        },
        {
          "internalType": "bytes32",
          "name": "r",
          "type": "bytes32"
        },
        {
          "internalType": "bytes32",
          "name": "s",
          "type": "bytes32"
        }
      ],
      "name": "removeLiquidityWithPermit",
      "outputs": [
        {
          "internalType": "uint256",
          "name": "amountA",
          "type": "uint256"
        },
        {
          "internalType": "uint256",
          "name": "amountB",
          "type": "uint256"
        }
      ],
      "payable": false,
      "stateMutability": "nonpayable",
      "type": "function"
    },
    {
      "constant": false,
      "inputs": [],
      "name": "renounceOwnership",
      "outputs": [],
      "payable": false,
      "stateMutability": "nonpayable",
      "type": "function"
    },
    {
      "constant": false,
      "inputs": [
        {
          "internalType": "address[]",
          "name": "tokens",
          "type": "address[]"
        }
      ],
      "name": "resetQuoteTokens",
      "outputs": [],
      "payable": false,
      "stateMutability": "nonpayable",
      "type": "function"
    },
    {
      "constant": true,
      "inputs": [
        {
          "internalType": "uint256",
          "name": "blockNumber",
          "type": "uint256"
        }
      ],
      "name": "reward",
      "outputs": [
        {
          "internalType": "uint256",
          "name": "",
          "type": "uint256"
        }
      ],
      "payable": false,
      "stateMutability": "view",
      "type": "function"
    },
    {
      "constant": true,
      "inputs": [],
      "name": "rewardToken",
      "outputs": [
        {
          "internalType": "address",
          "name": "",
          "type": "address"
        }
      ],
      "payable": false,
      "stateMutability": "view",
      "type": "function"
    },
    {
      "constant": false,
      "inputs": [
        {
          "internalType": "address",
          "name": "_ctokenFactory",
          "type": "address"
        }
      ],
      "name": "setCtokenFactory",
      "outputs": [],
      "payable": false,
      "stateMutability": "nonpayable",
      "type": "function"
    },
    {
      "constant": false,
      "inputs": [
        {
          "internalType": "uint256",
          "name": "_ebePerBlock",
          "type": "uint256"
        }
      ],
      "name": "setEbePerBlock",
      "outputs": [],
      "payable": false,
      "stateMutability": "nonpayable",
      "type": "function"
    },
    {
      "constant": false,
      "inputs": [
        {
          "internalType": "uint256",
          "name": "_feeAlloc",
          "type": "uint256"
        }
      ],
      "name": "setFeeAlloc",
      "outputs": [],
      "payable": false,
      "stateMutability": "nonpayable",
      "type": "function"
    },
    {
      "constant": false,
      "inputs": [
        {
          "internalType": "address",
          "name": "_reword",
          "type": "address"
        }
      ],
      "name": "setRewardToken",
      "outputs": [],
      "payable": false,
      "stateMutability": "nonpayable",
      "type": "function"
    },
    {
      "constant": false,
      "inputs": [
        {
          "internalType": "address",
          "name": "_swapMininng",
          "type": "address"
        }
      ],
      "name": "setSwapMining",
      "outputs": [],
      "payable": false,
      "stateMutability": "nonpayable",
      "type": "function"
    },
    {
      "constant": false,
      "inputs": [
        {
          "internalType": "uint256",
          "name": "amountOutMin",
          "type": "uint256"
        },
        {
          "internalType": "address[]",
          "name": "path",
          "type": "address[]"
        },
        {
          "internalType": "address",
          "name": "to",
          "type": "address"
        },
        {
          "internalType": "uint256",
          "name": "deadline",
          "type": "uint256"
        }
      ],
      "name": "swapExactETHForTokensUnderlying",
      "outputs": [
        {
          "internalType": "uint256[]",
          "name": "amounts",
          "type": "uint256[]"
        }
      ],
      "payable": true,
      "stateMutability": "payable",
      "type": "function"
    },
    {
      "constant": false,
      "inputs": [
        {
          "internalType": "uint256",
          "name": "amountIn",
          "type": "uint256"
        },
        {
          "internalType": "uint256",
          "name": "amountOutMin",
          "type": "uint256"
        },
        {
          "internalType": "address[]",
          "name": "path",
          "type": "address[]"
        },
        {
          "internalType": "address",
          "name": "to",
          "type": "address"
        },
        {
          "internalType": "uint256",
          "name": "deadline",
          "type": "uint256"
        }
      ],
      "name": "swapExactTokensForETHUnderlying",
      "outputs": [
        {
          "internalType": "uint256[]",
          "name": "amounts",
          "type": "uint256[]"
        }
      ],
      "payable": false,
      "stateMutability": "nonpayable",
      "type": "function"
    },
    {
      "constant": false,
      "inputs": [
        {
          "internalType": "uint256",
          "name": "amountIn",
          "type": "uint256"
        },
        {
          "internalType": "uint256",
          "name": "amountOutMin",
          "type": "uint256"
        },
        {
          "internalType": "address[]",
          "name": "cpath",
          "type": "address[]"
        },
        {
          "internalType": "address",
          "name": "to",
          "type": "address"
        },
        {
          "internalType": "uint256",
          "name": "deadline",
          "type": "uint256"
        }
      ],
      "name": "swapExactTokensForTokens",
      "outputs": [
        {
          "internalType": "uint256[]",
          "name": "amounts",
          "type": "uint256[]"
        },
        {
          "internalType": "uint256",
          "name": "fee",
          "type": "uint256"
        }
      ],
      "payable": false,
      "stateMutability": "nonpayable",
      "type": "function"
    },
    {
      "constant": false,
      "inputs": [
        {
          "internalType": "uint256",
          "name": "amountIn",
          "type": "uint256"
        },
        {
          "internalType": "uint256",
          "name": "amountOutMin",
          "type": "uint256"
        },
        {
          "internalType": "address[]",
          "name": "path",
          "type": "address[]"
        },
        {
          "internalType": "address",
          "name": "to",
          "type": "address"
        },
        {
          "internalType": "uint256",
          "name": "deadline",
          "type": "uint256"
        }
      ],
      "name": "swapExactTokensForTokensUnderlying",
      "outputs": [
        {
          "internalType": "uint256[]",
          "name": "amounts",
          "type": "uint256[]"
        }
      ],
      "payable": false,
      "stateMutability": "nonpayable",
      "type": "function"
    },
    {
      "constant": true,
      "inputs": [],
      "name": "swapFeeCurrent",
      "outputs": [
        {
          "internalType": "uint256",
          "name": "",
          "type": "uint256"
        }
      ],
      "payable": false,
      "stateMutability": "view",
      "type": "function"
    },
    {
      "constant": true,
      "inputs": [],
      "name": "swapFeeLastBlock",
      "outputs": [
        {
          "internalType": "uint256",
          "name": "",
          "type": "uint256"
        }
      ],
      "payable": false,
      "stateMutability": "view",
      "type": "function"
    },
    {
      "constant": true,
      "inputs": [],
      "name": "swapFeeTotal",
      "outputs": [
        {
          "internalType": "uint256",
          "name": "",
          "type": "uint256"
        }
      ],
      "payable": false,
      "stateMutability": "view",
      "type": "function"
    },
    {
      "constant": true,
      "inputs": [],
      "name": "swapMining",
      "outputs": [
        {
          "internalType": "address",
          "name": "",
          "type": "address"
        }
      ],
      "payable": false,
      "stateMutability": "view",
      "type": "function"
    },
    {
      "constant": false,
      "inputs": [
        {
          "internalType": "uint256",
          "name": "amountOut",
          "type": "uint256"
        },
        {
          "internalType": "uint256",
          "name": "amountInMax",
          "type": "uint256"
        },
        {
          "internalType": "address[]",
          "name": "cpath",
          "type": "address[]"
        },
        {
          "internalType": "address",
          "name": "to",
          "type": "address"
        },
        {
          "internalType": "uint256",
          "name": "deadline",
          "type": "uint256"
        }
      ],
      "name": "swapTokensForExactTokens",
      "outputs": [
        {
          "internalType": "uint256[]",
          "name": "amounts",
          "type": "uint256[]"
        },
        {
          "internalType": "uint256",
          "name": "fee",
          "type": "uint256"
        }
      ],
      "payable": false,
      "stateMutability": "nonpayable",
      "type": "function"
    },
    {
      "constant": false,
      "inputs": [
        {
          "internalType": "address",
          "name": "newOwner",
          "type": "address"
        }
      ],
      "name": "transferOwnership",
      "outputs": [],
      "payable": false,
      "stateMutability": "nonpayable",
      "type": "function"
    }
  ],
  "transactionHash": "0x564fbf1552053022899194794da8c84991d259d61100989ef86066fbc848d05c",
  "args": [
    "0x527c0DBC2bAf38F109dbeAa9e78B4219123A860C",
    "0x7aF326B6351C8A9b8fb8CD205CBe11d4Ac5FA836",
    "0x042f1249297EF180f33d166828AC43e401E0FecA",
    "0xF4CfC260cA8F68f3069FbEc534afbA21E0903b4b"
  ],
  "solcInputHash": "7e17b17fad12869706ed8d66be5234ad",
  "bytecode": "0x60806040523480156200001157600080fd5b506040516200614138038062006141833981810160405260808110156200003757600080fd5b50805160208201516040830151606090930151919290916000620000636001600160e01b03620001da16565b600080546001600160a01b0319166001600160a01b0383169081178255604051929350917f8be0079c531659141344cd1fd0a4f28419497f9722a3daafe3b4186f6b6457e0908290a350600180546001600160a01b03199081166001600160a01b038781169182179093556002805483168785161790556004805483168685161781556006805490931693851693909317909155604080516370e264b360e11b8152905160059363e1c4c96692808201926020929091829003018186803b1580156200012e57600080fd5b505afa15801562000143573d6000803e3d6000fd5b505050506040513d60208110156200015a57600080fd5b505181546001808201845560009384526020842090910180546001600160a01b03199081166001600160a01b03948516179091556002546005805493840181559094527f036b6384b5eca791c62761152d0c79bb0604c104a5fb6f4eb0703f3154bb3db0909101805493909216921691909117905550620001de92505050565b3390565b615f5380620001ee6000396000f3fe6080604052600436106102725760003560e01c80638aee81271161014f578063c5746a6e116100c1578063e8e337001161007a578063e8e3370014610e38578063ee41be8e14610e9a578063efd06f2e14610f1e578063f1844a2514610f64578063f2fde38b14610f79578063f7c618c114610fac57610272565b8063c5746a6e14610c3b578063d2b364c614610c98578063d408ee2d14610d58578063d73701a914610d6d578063da72c1e814610d82578063dbdfc62514610dc557610272565b806396ed28f91161011357806396ed28f914610b04578063a9fb763c14610b3f578063ad615dec14610b69578063baa2abde14610b9f578063c08c2c2514610bfc578063c45a015514610c2657610272565b80638aee8127146109ca5780638da5cb5b146109fd5780638e750db914610a125780638f32d59b14610aa857806396705cc714610ad157610272565b80635710207c116101e857806366f9e64b116101ac57806366f9e64b1461081d578063715018a61461084757806378b8d7351461085c5780637e87ffe81461090a57806387a249571461091f5780638803dbee1461093457610272565b80635710207c1461072b578063575815111461074057806358956d41146107735780635cb48592146107f35780635f73ea331461080857610272565b80632c9115c71161023a5780632c9115c7146104ef57806338ed1739146105195780633e527d0e1461060a5780633eabf55f1461064d5780634e5eda11146106e35780634f887183146106f857610272565b80630c49bd131461029d5780630f497420146103ad57806314e5207b146103d45780632195995c1461044057806325c9e276146104be575b6002546001600160a01b031633148061029557506004546001600160a01b031633145b61029b57fe5b005b3480156102a957600080fd5b5061035d600480360360608110156102c057600080fd5b81359190810190604081016020820135600160201b8111156102e157600080fd5b8201836020820111156102f357600080fd5b803590602001918460208302840111600160201b8311171561031457600080fd5b919080806020026020016040519081016040528093929190818152602001838360200280828437600092019190915250929550505090356001600160a01b03169150610fc19050565b60408051602080825283518183015283519192839290830191858101910280838360005b83811015610399578181015183820152602001610381565b505050509050019250505060405180910390f35b3480156103b957600080fd5b506103c261112c565b60408051918252519081900360200190f35b3480156103e057600080fd5b50610427600480360360c08110156103f757600080fd5b506001600160a01b0381358116916020810135916040820135916060810135916080820135169060a00135611132565b6040805192835260208301919091528051918290030190f35b34801561044c57600080fd5b50610427600480360361016081101561046457600080fd5b506001600160a01b038135811691602081013582169160408201359160608101359160808201359160a08101359091169060c08101359060e081013515159060ff6101008201351690610120810135906101400135611246565b3480156104ca57600080fd5b506104d361131f565b604080516001600160a01b039092168252519081900360200190f35b3480156104fb57600080fd5b506104d36004803603602081101561051257600080fd5b503561132e565b34801561052557600080fd5b506105af600480360360a081101561053c57600080fd5b813591602081013591810190606081016040820135600160201b81111561056257600080fd5b82018360208201111561057457600080fd5b803590602001918460208302840111600160201b8311171561059557600080fd5b91935091506001600160a01b038135169060200135611355565b6040518080602001838152602001828103825284818151815260200191508051906020019060200280838360005b838110156105f55781810151838201526020016105dd565b50505050905001935050505060405180910390f35b34801561061657600080fd5b506103c26004803603606081101561062d57600080fd5b506001600160a01b03813581169160208101359091169060400135611665565b34801561065957600080fd5b5061035d600480360360a081101561067057600080fd5b813591602081013591810190606081016040820135600160201b81111561069657600080fd5b8201836020820111156106a857600080fd5b803590602001918460208302840111600160201b831117156106c957600080fd5b91935091506001600160a01b038135169060200135611955565b3480156106ef57600080fd5b506104d36119e9565b34801561070457600080fd5b5061029b6004803603602081101561071b57600080fd5b50356001600160a01b03166119f8565b34801561073757600080fd5b506104d3611a61565b34801561074c57600080fd5b5061029b6004803603602081101561076357600080fd5b50356001600160a01b0316611a70565b34801561077f57600080fd5b506107d5600480360361010081101561079757600080fd5b506001600160a01b038135811691602081013582169160408201359160608101359160808201359160a08101359160c0820135169060e00135611b09565b60408051938452602084019290925282820152519081900360600190f35b3480156107ff57600080fd5b506104d3611d1d565b34801561081457600080fd5b506103c2611d2c565b34801561082957600080fd5b5061029b6004803603602081101561084057600080fd5b5035611dd3565b34801561085357600080fd5b5061029b611e1f565b34801561086857600080fd5b5061029b6004803603602081101561087f57600080fd5b810190602081018135600160201b81111561089957600080fd5b8201836020820111156108ab57600080fd5b803590602001918460208302840111600160201b831117156108cc57600080fd5b919080806020026020016040519081016040528093929190818152602001838360200280828437600092019190915250929550611eb0945050505050565b34801561091657600080fd5b506103c2611f9d565b34801561092b57600080fd5b506103c2611fa3565b34801561094057600080fd5b506105af600480360360a081101561095757600080fd5b813591602081013591810190606081016040820135600160201b81111561097d57600080fd5b82018360208201111561098f57600080fd5b803590602001918460208302840111600160201b831117156109b057600080fd5b91935091506001600160a01b038135169060200135611fa9565b3480156109d657600080fd5b5061029b600480360360208110156109ed57600080fd5b50356001600160a01b0316612243565b348015610a0957600080fd5b506104d36122ac565b348015610a1e57600080fd5b5061035d600480360360a0811015610a3557600080fd5b813591602081013591810190606081016040820135600160201b811115610a5b57600080fd5b820183602082011115610a6d57600080fd5b803590602001918460208302840111600160201b83111715610a8e57600080fd5b91935091506001600160a01b0381351690602001356122bb565b348015610ab457600080fd5b50610abd6123c2565b604080519115158252519081900360200190f35b348015610add57600080fd5b5061029b60048036036020811015610af457600080fd5b50356001600160a01b03166123e6565b348015610b1057600080fd5b506104d360048036036040811015610b2757600080fd5b506001600160a01b038135811691602001351661244f565b348015610b4b57600080fd5b506103c260048036036020811015610b6257600080fd5b50356124db565b348015610b7557600080fd5b506103c260048036036060811015610b8c57600080fd5b508035906020810135906040013561258d565b348015610bab57600080fd5b50610427600480360360e0811015610bc257600080fd5b506001600160a01b038135811691602081013582169160408201359160608101359160808201359160a08101359091169060c0013561261b565b348015610c0857600080fd5b5061029b60048036036020811015610c1f57600080fd5b50356128c8565b348015610c3257600080fd5b506104d361296b565b348015610c4757600080fd5b50610427600480360360e0811015610c5e57600080fd5b506001600160a01b038135811691602081013582169160408201359160608101359160808201359160a08101359091169060c0013561297a565b348015610ca457600080fd5b5061035d60048036036060811015610cbb57600080fd5b81359190810190604081016020820135600160201b811115610cdc57600080fd5b820183602082011115610cee57600080fd5b803590602001918460208302840111600160201b83111715610d0f57600080fd5b919080806020026020016040519081016040528093929190818152602001838360200280828437600092019190915250929550505090356001600160a01b03169150612c6e9050565b348015610d6457600080fd5b506103c2612ce0565b348015610d7957600080fd5b506103c2612ce6565b348015610d8e57600080fd5b5061029b60048036036060811015610da557600080fd5b506001600160a01b03813581169160208101359091169060400135612cec565b348015610dd157600080fd5b506104276004803603610140811015610de957600080fd5b506001600160a01b0381358116916020810135916040820135916060810135916080820135169060a08101359060c081013515159060ff60e08201351690610100810135906101200135612d61565b348015610e4457600080fd5b506107d56004803603610100811015610e5c57600080fd5b506001600160a01b038135811691602081013582169160408201359160608101359160808201359160a08101359160c0820135169060e00135612e43565b61035d60048036036080811015610eb057600080fd5b81359190810190604081016020820135600160201b811115610ed157600080fd5b820183602082011115610ee357600080fd5b803590602001918460208302840111600160201b83111715610f0457600080fd5b91935091506001600160a01b038135169060200135612f29565b6107d5600480360360c0811015610f3457600080fd5b506001600160a01b0381358116916020810135916040820135916060810135916080820135169060a00135613036565b348015610f7057600080fd5b506103c2613251565b348015610f8557600080fd5b5061029b60048036036020811015610f9c57600080fd5b50356001600160a01b0316613257565b348015610fb857600080fd5b506104d36132aa565b600154604051630c49bd1360e01b8152600481018581526001600160a01b03848116604484015260606024840181815287516064860152875191959290921693630c49bd1393899389938993608401906020808701910280838360005b8381101561103657818101518382015260200161101e565b5050505090500194505050505060006040518083038186803b15801561105b57600080fd5b505afa15801561106f573d6000803e3d6000fd5b505050506040513d6000823e601f3d908101601f19168201604052602081101561109857600080fd5b8101908080516040519392919084600160201b8211156110b757600080fd5b9083019060208201858111156110cc57600080fd5b82518660208202830111600160201b821117156110e857600080fd5b82525081516020918201928201910280838360005b838110156111155781810151838201526020016110fd565b5050505090500160405250505090505b9392505050565b600a5481565b6000808242811015611179576040805162461bcd60e51b81526020600482015260156024820152600080516020615e4e833981519152604482015290519081900360640190fd5b611181615c27565b61118a8a6132b9565b6001600160a01b031661018082018190526111a490613387565b60808201526004546111be906001600160a01b0316613387565b60c082015260808101516000906111d6908a90613504565b905060006111e8898460c00151613504565b6101808401516004549192506000918291611210916001600160a01b03168f8787308f61261b565b6101808701519193509150611227908f8c8561352b565b97506112338a82613554565b9650505050505050965096945050505050565b60008060006112558e8e61244f565b9050600087611264578c611268565b6000195b6040805163d505accf60e01b815233600482015230602482015260448101839052606481018c905260ff8a16608482015260a4810189905260c4810188905290519192506001600160a01b0384169163d505accf9160e48082019260009290919082900301818387803b1580156112de57600080fd5b505af11580156112f2573d6000803e3d6000fd5b505050506113058f8f8f8f8f8f8f61261b565b809450819550505050509b509b9950505050505050505050565b6006546001600160a01b031681565b6005818154811061133b57fe5b6000918252602090912001546001600160a01b0316905081565b60606000824281101561139d576040805162461bcd60e51b81526020600482015260156024820152600080516020615e4e833981519152604482015290519081900360640190fd5b60606113db88888080602002602001604051908101604052809392919081815260200183836020028082843760009201919091525061357292505050565b600154604051636959b26360e11b8152600481018d81526001600160a01b038a8116604484015260606024840190815285516064850152855195965093169363d2b364c6938f9387938d93909291608401906020808701910280838360005b8381101561145257818101518382015260200161143a565b5050505090500194505050505060006040518083038186803b15801561147757600080fd5b505afa15801561148b573d6000803e3d6000fd5b505050506040513d6000823e601f3d908101601f1916820160405260208110156114b457600080fd5b8101908080516040519392919084600160201b8211156114d357600080fd5b9083019060208201858111156114e857600080fd5b82518660208202830111600160201b8211171561150457600080fd5b82525081516020918201928201910280838360005b83811015611531578181015183820152602001611519565b505050509050016040525050509350888460018651038151811061155157fe5b602002602001015110156115965760405162461bcd60e51b8152600401808060200182810382526022815260200180615e936022913960400191505060405180910390fd5b600d5461161a5761160a888860008181106115ad57fe5b905060200201356001600160a01b0316336115f0846000815181106115ce57fe5b6020026020010151856001815181106115e357fe5b602002602001015161244f565b876000815181106115fd57fe5b60200260200101516135fe565b61161584828861375b565b611658565b6116498888600081811061162a57fe5b905060200201356001600160a01b03163330876000815181106115fd57fe5b6116548a82886139cf565b9350505b5050965096945050505050565b6007546000906001600160a01b031615806116805750600d54155b1561168d57506000611125565b6000611699858561244f565b9050336001600160a01b038216146116e9576040805162461bcd60e51b815260206004820152600e60248201526d1c185a5c881b9bdd08195c5d585b60921b604482015290519081900360640190fd5b43600a54101561180257600754600c54600a5460408051631bba3daf60e01b815260048101939093526024830191909152516000926001600160a01b031691631bba3daf916044808301926020929190829003018186803b15801561174d57600080fd5b505afa158015611761573d6000803e3d6000fd5b505050506040513d602081101561177757600080fd5b5051600754604080516340c10f1960e01b81523060048201526024810184905290519293506001600160a01b03909116916340c10f19916044808201926020929091908290030181600087803b1580156117d057600080fd5b505af11580156117e4573d6000803e3d6000fd5b505050506040513d60208110156117fa57600080fd5b505043600a55505b82611811576000915050611125565b600754604080516370a0823160e01b815230600482015290516000926001600160a01b0316916370a08231916024808301926020929190829003018186803b15801561185c57600080fd5b505afa158015611870573d6000803e3d6000fd5b505050506040513d602081101561188657600080fd5b50516009549091508411611949576009546000906118ba906118ae878563ffffffff613df616565b9063ffffffff613e4f16565b6007546040805163a9059cbb60e01b81526001600160a01b03878116600483015260248201859052915193945091169163a9059cbb916044808201926020929091908290030181600087803b15801561191257600080fd5b505af1158015611926573d6000803e3d6000fd5b505050506040513d602081101561193c57600080fd5b5090935061112592505050565b50600095945050505050565b6060814281101561199b576040805162461bcd60e51b81526020600482015260156024820152600080516020615e4e833981519152604482015290519081900360640190fd5b6119dd888888888080602002602001604051908101604052809392919081815260200183836020028082843760009201829052508b93508a9250905080613e91565b98975050505050505050565b6003546001600160a01b031681565b611a006123c2565b611a3f576040805162461bcd60e51b81526020600482018190526024820152600080516020615dfe833981519152604482015290519081900360640190fd5b600380546001600160a01b0319166001600160a01b0392909216919091179055565b6004546001600160a01b031681565b611a786123c2565b611ab7576040805162461bcd60e51b81526020600482018190526024820152600080516020615dfe833981519152604482015290519081900360640190fd5b600580546001810182556000919091527f036b6384b5eca791c62761152d0c79bb0604c104a5fb6f4eb0703f3154bb3db00180546001600160a01b0319166001600160a01b0392909216919091179055565b60008060008342811015611b52576040805162461bcd60e51b81526020600482015260156024820152600080516020615e4e833981519152604482015290519081900360640190fd5b611b5a615c27565b611b638d6142f4565b6001600160a01b0316610180820152611b7b8c6142f4565b6001600160a01b039081166101a08301528d81166101408301528c16610160820152610180810151611bac90613387565b60808201526101a0810151611bc090613387565b60a08201526080810151611bd5908c90613504565b815260a0810151611be7908b90613504565b60208201526080810151611bfc908a90613504565b604082015260a0810151611c11908990613504565b6060820152611c1f816143cf565b61010083015260e08201526000611c368e8e61244f565b9050611c4a8260e001518360800151614796565b9550611c5f8261010001518360a00151614796565b9450611c728e83610180015183896147b4565b611c838d836101a0015183886147b4565b806001600160a01b0316636a627842896040518263ffffffff1660e01b815260040180826001600160a01b03166001600160a01b03168152602001915050602060405180830381600087803b158015611cdb57600080fd5b505af1158015611cef573d6000803e3d6000fd5b505050506040513d6020811015611d0557600080fd5b5051959e949d50949b50929950505050505050505050565b6002546001600160a01b031681565b6007546000906001600160a01b0316611d4757506000611dd0565b600754600c54600a5460408051631bba3daf60e01b815260048101939093526024830191909152516001600160a01b0390921691631bba3daf91604480820192602092909190829003018186803b158015611da157600080fd5b505afa158015611db5573d6000803e3d6000fd5b505050506040513d6020811015611dcb57600080fd5b505190505b90565b611ddb6123c2565b611e1a576040805162461bcd60e51b81526020600482018190526024820152600080516020615dfe833981519152604482015290519081900360640190fd5b600c55565b611e276123c2565b611e66576040805162461bcd60e51b81526020600482018190526024820152600080516020615dfe833981519152604482015290519081900360640190fd5b600080546040516001600160a01b03909116907f8be0079c531659141344cd1fd0a4f28419497f9722a3daafe3b4186f6b6457e0908390a3600080546001600160a01b0319169055565b611eb86123c2565b611ef7576040805162461bcd60e51b81526020600482018190526024820152600080516020615dfe833981519152604482015290519081900360640190fd5b60005b600554811015611f39576005805480611f0f57fe5b600082815260209020810160001990810180546001600160a01b0319169055019055600101611efa565b5060005b8151811015611f99576005828281518110611f5457fe5b60209081029190910181015182546001808201855560009485529290932090920180546001600160a01b0319166001600160a01b039093169290921790915501611f3d565b5050565b600d5481565b600b5481565b606060008242811015611ff1576040805162461bcd60e51b81526020600482015260156024820152600080516020615e4e833981519152604482015290519081900360640190fd5b606061202f88888080602002602001604051908101604052809392919081815260200183836020028082843760009201919091525061357292505050565b600154604051630c49bd1360e01b8152600481018d81526001600160a01b038a81166044840152606060248401908152855160648501528551959650931693630c49bd13938f9387938d93909291608401906020808701910280838360005b838110156120a657818101518382015260200161208e565b5050505090500194505050505060006040518083038186803b1580156120cb57600080fd5b505afa1580156120df573d6000803e3d6000fd5b505050506040513d6000823e601f3d908101601f19168201604052602081101561210857600080fd5b8101908080516040519392919084600160201b82111561212757600080fd5b90830190602082018581111561213c57600080fd5b82518660208202830111600160201b8211171561215857600080fd5b82525081516020918201928201910280838360005b8381101561218557818101518382015260200161216d565b50505050905001604052505050935088846000815181106121a257fe5b602002602001015111156121fd576040805162461bcd60e51b815260206004820152601e60248201527f526f757465723a204558434553534956455f494e5055545f414d4f554e540000604482015290519081900360640190fd5b600d546122145761160a888860008181106115ad57fe5b6122248888600081811061162a57fe5b6116548460008151811061223457fe5b602002602001015182886139cf565b61224b6123c2565b61228a576040805162461bcd60e51b81526020600482018190526024820152600080516020615dfe833981519152604482015290519081900360640190fd5b600780546001600160a01b0319166001600160a01b0392909216919091179055565b6000546001600160a01b031690565b60608142811015612301576040805162461bcd60e51b81526020600482015260156024820152600080516020615e4e833981519152604482015290519081900360640190fd5b6002546001600160a01b03168686600019810181811061231d57fe5b905060200201356001600160a01b03166001600160a01b03161461237f576040805162461bcd60e51b81526020600482015260146024820152730a4deeae8cae47440929cac82989288bea082a8960631b604482015290519081900360640190fd5b6119dd888888888080602002602001604051908101604052809392919081815260200183836020028082843760009201829052508b93508a925090506001613e91565b600080546001600160a01b03166123d76149ab565b6001600160a01b031614905090565b6123ee6123c2565b61242d576040805162461bcd60e51b81526020600482018190526024820152600080516020615dfe833981519152604482015290519081900360640190fd5b600680546001600160a01b0319166001600160a01b0392909216919091179055565b6001546040805163e6a4390560e01b81526001600160a01b03858116600483015284811660248301529151600093929092169163e6a4390591604480820192602092909190829003018186803b1580156124a857600080fd5b505afa1580156124bc573d6000803e3d6000fd5b505050506040513d60208110156124d257600080fd5b50519392505050565b6007546000906001600160a01b031615806124f65750600d54155b1561250357506000612588565b600754600c546040805163a4fa8d5760e01b8152600481019290925260248201859052516001600160a01b039092169163a4fa8d5791604480820192602092909190829003018186803b15801561255957600080fd5b505afa15801561256d573d6000803e3d6000fd5b505050506040513d602081101561258357600080fd5b505190505b919050565b60015460408051632b58577b60e21b815260048101869052602481018590526044810184905290516000926001600160a01b03169163ad615dec916064808301926020929190829003018186803b1580156125e757600080fd5b505afa1580156125fb573d6000803e3d6000fd5b505050506040513d602081101561261157600080fd5b5051949350505050565b6000808242811015612662576040805162461bcd60e51b81526020600482015260156024820152600080516020615e4e833981519152604482015290519081900360640190fd5b600061266e8b8b61244f565b604080516323b872dd60e01b81523360048201526001600160a01b03831660248201819052604482018d9052915192935090916323b872dd916064808201926020929091908290030181600087803b1580156126c957600080fd5b505af11580156126dd573d6000803e3d6000fd5b505050506040513d60208110156126f357600080fd5b50506040805163226bf2d160e21b81526001600160a01b03888116600483015282516000938493928616926389afcb44926024808301939282900301818787803b15801561274057600080fd5b505af1158015612754573d6000803e3d6000fd5b505050506040513d604081101561276a57600080fd5b508051602090910151909250905060006127838e6149af565b905060006127908e6149af565b60015460408051632a26552b60e11b81526001600160a01b0386811660048301528085166024830152825194955060009493169263544caa5692604480840193919291829003018186803b1580156127e757600080fd5b505afa1580156127fb573d6000803e3d6000fd5b505050506040513d604081101561281157600080fd5b505190506001600160a01b038381169082161461282f578385612832565b84845b90995097508c8910156128765760405162461bcd60e51b8152600401808060200182810382526026815260200180615d616026913960400191505060405180910390fd5b8b8810156128b55760405162461bcd60e51b8152600401808060200182810382526026815260200180615d3b6026913960400191505060405180910390fd5b5050505050505097509795505050505050565b6128d06123c2565b61290f576040805162461bcd60e51b81526020600482018190526024820152600080516020615dfe833981519152604482015290519081900360640190fd5b80158061291c5750806001145b612966576040805162461bcd60e51b8152602060048201526016602482015275696e76616c696420706172616d20666565416c6c6f6360501b604482015290519081900360640190fd5b600d55565b6001546001600160a01b031681565b60008082428110156129c1576040805162461bcd60e51b81526020600482015260156024820152600080516020615e4e833981519152604482015290519081900360640190fd5b60006129cd8b8b61244f565b604080516323b872dd60e01b81523360048201526001600160a01b03831660248201819052604482018d9052915192935090916323b872dd916064808201926020929091908290030181600087803b158015612a2857600080fd5b505af1158015612a3c573d6000803e3d6000fd5b505050506040513d6020811015612a5257600080fd5b50612a5d9050615c27565b6001600160a01b03808d166101408301528b81166101608301526040805163226bf2d160e21b815230600482015281516000938493908716926389afcb44926024808301939282900301818787803b158015612ab857600080fd5b505af1158015612acc573d6000803e3d6000fd5b505050506040513d6040811015612ae257600080fd5b50805160209091015160015461014086015161016087015160408051632a26552b60e11b81526001600160a01b03938416600482015291831660248301528051959750939550600094919092169263544caa569260448082019391829003018186803b158015612b5157600080fd5b505afa158015612b65573d6000803e3d6000fd5b505050506040513d6040811015612b7b57600080fd5b505190506001600160a01b038f811690821614612b99578183612b9c565b82825b61010086015260e085015250612bc49150612bb890508d6132b9565b8d898460e0015161352b565b9450612bdf612bd28c6132b9565b8c8984610100015161352b565b935088851015612c205760405162461bcd60e51b8152600401808060200182810382526030815260200180615dad6030913960400191505060405180910390fd5b87841015612c5f5760405162461bcd60e51b8152600401808060200182810382526030815260200180615e1e6030913960400191505060405180910390fd5b50505097509795505050505050565b600154604051636959b26360e11b8152600481018581526001600160a01b0384811660448401526060602484018181528751606486015287519195929092169363d2b364c69389938993899360840190602086810191028083836000831561103657818101518382015260200161101e565b60085481565b60095481565b612cf46123c2565b612d33576040805162461bcd60e51b81526020600482018190526024820152600080516020615dfe833981519152604482015290519081900360640190fd5b6001600160a01b038316612d5057612d4b8282614a7c565b612d5c565b612d5c833084846135fe565b505050565b60025460009081908190612d7f908e906001600160a01b031661244f565b9050600087612d8e578c612d92565b6000195b6040805163d505accf60e01b815233600482015230602482015260448101839052606481018c905260ff8a16608482015260a4810189905260c4810188905290519192506001600160a01b0384169163d505accf9160e48082019260009290919082900301818387803b158015612e0857600080fd5b505af1158015612e1c573d6000803e3d6000fd5b50505050612e2e8e8e8e8e8e8e611132565b909f909e509c50505050505050505050505050565b60008060008342811015612e8c576040805162461bcd60e51b81526020600482015260156024820152600080516020615e4e833981519152604482015290519081900360640190fd5b612e94615c27565b8a8152602081018a905260408101899052606081018890526001600160a01b03808e166101808301528c166101a0820152612ece8d6149af565b6001600160a01b0316610140820152612ee68c6149af565b6001600160a01b0316610160820152612efe816143cf565b90955093506000612f0f8e8e61244f565b9050612f1d8e3383896135fe565b611c838d3383886135fe565b60608142811015612f6f576040805162461bcd60e51b81526020600482015260156024820152600080516020615e4e833981519152604482015290519081900360640190fd5b6002546001600160a01b03168686600081612f8657fe5b905060200201356001600160a01b03166001600160a01b031614612fe8576040805162461bcd60e51b81526020600482015260146024820152730a4deeae8cae47440929cac82989288bea082a8960631b604482015290519081900360640190fd5b61302b348888888080602002602001604051908101604052809392919081815260200183836020028082843760009201829052508b93508a925060019150613e91565b979650505050505050565b6000806000834281101561307f576040805162461bcd60e51b81526020600482015260156024820152600080516020615e4e833981519152604482015290519081900360640190fd5b600061308a8b6142f4565b9050613094615c27565b61309d82613387565b60808201526004546130b7906001600160a01b0316613387565b60a082015260808101516130cc908c90613504565b815260a08101516130de903490613504565b602082015260808101516130f3908b90613504565b604082015260a0810151613108908a90613504565b60608201526001600160a01b0380831661018083015260045481166101a08301528c811661014083015260025416610160820152600080613148836143cf565b91509150600061316d8f600260009054906101000a90046001600160a01b031661244f565b905061317d838560800151614796565b985061318d828560a00151614796565b975061319b8f86838c6147b4565b6131a58189614b6f565b806001600160a01b0316636a6278428c6040518263ffffffff1660e01b815260040180826001600160a01b03166001600160a01b03168152602001915050602060405180830381600087803b1580156131fd57600080fd5b505af1158015613211573d6000803e3d6000fd5b505050506040513d602081101561322757600080fd5b505196503488101561323f5761323f33893403614a7c565b50505050505096509650969350505050565b600c5481565b61325f6123c2565b61329e576040805162461bcd60e51b81526020600482018190526024820152600080516020615dfe833981519152604482015290519081900360640190fd5b6132a781614c57565b50565b6007546001600160a01b031681565b6006546040805163714bca1f60e11b81526001600160a01b0384811660048301529151600093929092169163e297943e91602480820192602092909190829003018186803b15801561330a57600080fd5b505afa15801561331e573d6000803e3d6000fd5b505050506040513d602081101561333457600080fd5b505190506001600160a01b038116612588576040805162461bcd60e51b815260206004820152601160248201527019d95d08195d1bdad95b8819985a5b1959607a1b604482015290519081900360640190fd5b600080826001600160a01b031663182df0f56040518163ffffffff1660e01b815260040160206040518083038186803b1580156133c357600080fd5b505afa1580156133d7573d6000803e3d6000fd5b505050506040513d60208110156133ed57600080fd5b505160408051630ae9d70b60e41b815290519192506000916001600160a01b0386169163ae9d70b0916004808301926020929190829003018186803b15801561343557600080fd5b505afa158015613449573d6000803e3d6000fd5b505050506040513d602081101561345f57600080fd5b505160408051636c540baf60e01b815290519192506000916001600160a01b03871691636c540baf916004808301926020929190829003018186803b1580156134a757600080fd5b505afa1580156134bb573d6000803e3d6000fd5b505050506040513d60208110156134d157600080fd5b505190506134f8438290036134ec858563ffffffff613df616565b9063ffffffff613df616565b90920192505050919050565b6000613522826118ae85670de0b6b3a764000063ffffffff613df616565b90505b92915050565b6000806135388684614cf7565b9050801561354b5761354b858583614dc5565b95945050505050565b60008061356083614f2f565b90508015613522576135228482614a7c565b60608082516040519080825280602002602001820160405280156135a0578160200160208202803883390190505b50905060005b83518110156135f7576135cb8482815181106135be57fe5b60200260200101516149af565b8282815181106135d757fe5b6001600160a01b03909216602092830291909101909101526001016135a6565b5092915050565b604080516001600160a01b0385811660248301528481166044830152606480830185905283518084039091018152608490920183526020820180516001600160e01b03166323b872dd60e01b17815292518251600094606094938a169392918291908083835b602083106136835780518252601f199092019160209182019101613664565b6001836020036101000a0380198251168184511680821785525050505050509050019150506000604051808303816000865af19150503d80600081146136e5576040519150601f19603f3d011682016040523d82523d6000602084013e6136ea565b606091505b5091509150818015613718575080511580613718575080806020019051602081101561371557600080fd5b50515b6137535760405162461bcd60e51b8152600401808060200182810382526024815260200180615ed86024913960400191505060405180910390fd5b505050505050565b60005b60018351038110156139c95760008084838151811061377957fe5b602002602001015185846001018151811061379057fe5b602090810291909101015160015460408051632a26552b60e11b81526001600160a01b03808616600483015280851660248301528251959750939550600094939092169263544caa56926044808201939291829003018186803b1580156137f657600080fd5b505afa15801561380a573d6000803e3d6000fd5b505050506040513d604081101561382057600080fd5b5051875190915060009088906001870190811061383957fe5b60200260200101519050600080836001600160a01b0316866001600160a01b0316146138675782600061386b565b6000835b91509150600060028a510388106138825788613895565b613895868b8a600201815181106115e357fe5b90506138a1878761244f565b6001600160a01b031663022c0d9f84848460006040519080825280601f01601f1916602001820160405280156138de576020820181803883390190505b506040518563ffffffff1660e01b815260040180858152602001848152602001836001600160a01b03166001600160a01b0316815260200180602001828103825283818151815260200191508051906020019080838360005b8381101561394f578181015183820152602001613937565b50505050905090810190601f16801561397c5780820380516001836020036101000a031916815260200191505b5095505050505050600060405180830381600087803b15801561399e57600080fd5b505af11580156139b2573d6000803e3d6000fd5b50506001909901985061375e975050505050505050565b50505050565b6000806139da615cba565b600160009054906101000a90046001600160a01b03166001600160a01b031663017e7e586040518163ffffffff1660e01b815260040160206040518083038186803b158015613a2857600080fd5b505afa158015613a3c573d6000803e3d6000fd5b505050506040513d6020811015613a5257600080fd5b50516001600160a01b031660808201819052613aa5576040805162461bcd60e51b815260206004820152600d60248201526c199959551bc81b9bdd081cd95d609a1b604482015290519081900360640190fd5b600160009054906101000a90046001600160a01b03166001600160a01b031663e1c4c9666040518163ffffffff1660e01b815260040160206040518083038186803b158015613af357600080fd5b505afa158015613b07573d6000803e3d6000fd5b505050506040513d6020811015613b1d57600080fd5b50516001600160a01b0390811660a083015260015460408051630d779e2760e41b815287841660048201529051919092169163d779e270916024808301926020929190829003018186803b158015613b7457600080fd5b505afa158015613b88573d6000803e3d6000fd5b505050506040513d6020811015613b9e57600080fd5b50518152856000805b6001885103811015613cfe57878181518110613bbf57fe5b6020908102919091018101516001600160a01b0316908501819052613be3906132b9565b6001600160a01b039081166040860152600154895191169063e6a43905908a9084908110613c0d57fe5b60200260200101518a8460010181518110613c2457fe5b60200260200101516040518363ffffffff1660e01b815260040180836001600160a01b03166001600160a01b03168152602001826001600160a01b03166001600160a01b031681526020019250505060206040518083038186803b158015613c8b57600080fd5b505afa158015613c9f573d6000803e3d6000fd5b505050506040513d6020811015613cb557600080fd5b50516001600160a01b031660608501528751600090600119018210613cda5787613cdc565b305b9050613ce9858583614ffc565b90975095860195879450925050600101613ba7565b506003546001600160a01b031615613ddc5760035487516001600160a01b039091169063a9678a189033908a90600090613d3457fe5b60200260200101518a600181518110613d4957fe5b602090810291909101810151604080516001600160e01b031960e088901b1681526001600160a01b039586166004820152938516602485015293166044830152606482018990529151608480830193928290030181600087803b158015613daf57600080fd5b505af1158015613dc3573d6000803e3d6000fd5b505050506040513d6020811015613dd957600080fd5b50505b8315613deb57613deb8461515e565b505050935093915050565b600082613e0557506000613525565b82820282848281613e1257fe5b04146135225760405162461bcd60e51b8152600401808060200182810382526021815260200180615ddd6021913960400191505060405180910390fd5b600061352283836040518060400160405280601a81526020017f536166654d6174683a206469766973696f6e206279207a65726f000000000000815250615171565b60608342811015613ed7576040805162461bcd60e51b81526020600482015260156024820152600080516020615e4e833981519152604482015290519081900360640190fd5b6060613ee288615213565b90506000600d5460001415613f1d57613f1689600081518110613f0157fe5b60200260200101518a6001815181106115e357fe5b9050613f20565b50305b8515613f3557613f30818c614b6f565b613f69565b613f6989600081518110613f4557fe5b602002602001015183600081518110613f5a57fe5b6020026020010151838e6147b4565b613f71615cef565b8b816040018181525050613f9883600081518110613f8b57fe5b6020026020010151613387565b81528251613fab908490600090613f8b57fe5b60208201528051600090613fc0908e90613504565b90506000600d54600014156141d1576060600160009054906101000a90046001600160a01b03166001600160a01b031663d2b364c6848f8f6040518463ffffffff1660e01b81526004018084815260200180602001836001600160a01b03166001600160a01b03168152602001828103825284818151815260200191508051906020019060200280838360005b8381101561406557818101518382015260200161404d565b5050505090500194505050505060006040518083038186803b15801561408a57600080fd5b505afa15801561409e573d6000803e3d6000fd5b505050506040513d6000823e601f3d908101601f1916820160405260208110156140c757600080fd5b8101908080516040519392919084600160201b8211156140e657600080fd5b9083019060208201858111156140fb57600080fd5b82518660208202830111600160201b8211171561411757600080fd5b82525081516020918201928201910280838360005b8381101561414457818101518382015260200161412c565b5050505090500160405250505090508060018251038151811061416357fe5b6020026020010151915061417b828560200151614796565b606085018190528e11156141c05760405162461bcd60e51b8152600401808060200182810382526022815260200180615e936022913960400191505060405180910390fd5b6141cb818e3061375b565b50614224565b6141dc828d306139cf565b50809150508c836060015110156142245760405162461bcd60e51b8152600401808060200182810382526022815260200180615e936022913960400191505060405180910390fd5b8b516000190188156142405761423a8c83613554565b50614274565b61427286828151811061424f57fe5b60200260200101518e838151811061426357fe5b60200260200101518e8561352b565b505b8c5160405190808252806020026020018201604052801561429f578160200160208202803883390190505b5097508e886000815181106142b057fe5b6020026020010181815250506142ca828560200151614796565b8882815181106142d657fe5b60200260200101818152505050505050505050979650505050505050565b600654604080516326c7bd9360e01b81526001600160a01b038481166004830152915160009392909216916326c7bd939160248082019260209290919082900301818787803b15801561434657600080fd5b505af115801561435a573d6000803e3d6000fd5b505050506040513d602081101561437057600080fd5b505190506001600160a01b038116612588576040805162461bcd60e51b815260206004820152601b60248201527f676574206f72206372656174652065746f6b656e206661696c65640000000000604482015290519081900360640190fd5b6101808101516101a0820151825160208085015160408087015160608801516101408901516101608a0151600154855163e6a4390560e01b81526001600160a01b0380851660048301528084166024830152965160009c8d9c909b909a9099988d94169263e6a439059260448083019392829003018186803b15801561445457600080fd5b505afa158015614468573d6000803e3d6000fd5b505050506040513d602081101561447e57600080fd5b50516001600160a01b0316141561452357600154604080516304da8eeb60e41b81526001600160a01b03858116600483015284811660248301528b811660448301528a8116606483015291519190921691634da8eeb09160848083019260209291908290030181600087803b1580156144f657600080fd5b505af115801561450a573d6000803e3d6000fd5b505050506040513d602081101561452057600080fd5b50505b6001546040805163354aedbd60e21b81526001600160a01b03858116600483015284811660248301528251600094859492169263d52bb6f4926044808301939192829003018186803b15801561457857600080fd5b505afa15801561458c573d6000803e3d6000fd5b505050506040513d60408110156145a257600080fd5b5080516020909101519092509050811580156145bc575080155b156145d0578787809c50819d505050614787565b60015460408051632b58577b60e21b8152600481018b9052602481018590526044810184905290516000926001600160a01b03169163ad615dec916064808301926020929190829003018186803b15801561462a57600080fd5b505afa15801561463e573d6000803e3d6000fd5b505050506040513d602081101561465457600080fd5b505190508781116146ac578581101561469e5760405162461bcd60e51b8152600401808060200182810382526023815260200180615d186023913960400191505060405180910390fd5b979b509699508a968a614785565b60015460408051632b58577b60e21b8152600481018b9052602481018590526044810186905290516000926001600160a01b03169163ad615dec916064808301926020929190829003018186803b15801561470657600080fd5b505afa15801561471a573d6000803e3d6000fd5b505050506040513d602081101561473057600080fd5b505190508981111561473e57fe5b8781101561477d5760405162461bcd60e51b8152600401808060200182810382526023815260200180615efc6023913960400191505060405180910390fd5b9c50969a508a965b505b50505050505050505050915091565b6000613522670de0b6b3a76400006118ae858563ffffffff613df616565b6147c0843330846135fe565b836001600160a01b031663095ea7b384836040518363ffffffff1660e01b815260040180836001600160a01b03166001600160a01b0316815260200182815260200192505050602060405180830381600087803b15801561482057600080fd5b505af1158015614834573d6000803e3d6000fd5b505050506040513d602081101561484a57600080fd5b50506040805163140e25ad60e31b815260048101839052815160009283926001600160a01b0388169263a0712d689260248084019391929182900301818787803b15801561489757600080fd5b505af11580156148ab573d6000803e3d6000fd5b505050506040513d60408110156148c157600080fd5b5080516020918201516040805163095ea7b360e01b81526001600160a01b038a16600482018190526000602483018190529251949750929550919363095ea7b393604480850194929391928390030190829087803b15801561492257600080fd5b505af1158015614936573d6000803e3d6000fd5b505050506040513d602081101561494c57600080fd5b5050811561498f576040805162461bcd60e51b815260206004820152600b60248201526a1b5a5b9d0819985a5b195960aa1b604482015290519081900360640190fd5b306001600160a01b0385161461375357613753853086846135fe565b3390565b6006546040805163b8d7b66960e01b81526001600160a01b0384811660048301529151600093929092169163b8d7b66991602480820192602092909190829003018186803b158015614a0057600080fd5b505afa158015614a14573d6000803e3d6000fd5b505050506040513d6020811015614a2a57600080fd5b505190506001600160a01b038116612588576040805162461bcd60e51b815260206004820152601060248201526f19d95d081d1bdad95b8819985a5b195960821b604482015290519081900360640190fd5b604080516000808252602082019092526001600160a01b0384169083906040518082805190602001908083835b60208310614ac85780518252601f199092019160209182019101614aa9565b6001836020036101000a03801982511681845116808217855250505050505090500191505060006040518083038185875af1925050503d8060008114614b2a576040519150601f19603f3d011682016040523d82523d6000602084013e614b2f565b606091505b5050905080612d5c5760405162461bcd60e51b8152600401808060200182810382526023815260200180615eb56023913960400191505060405180910390fd5b6004805460408051631249c58b60e01b8152815160009485946001600160a01b031693631249c58b93889381840193909182900301818588803b158015614bb557600080fd5b505af1158015614bc9573d6000803e3d6000fd5b50505050506040513d6040811015614be057600080fd5b50805160209091015190925090508115614c2f576040805162461bcd60e51b815260206004820152600b60248201526a1b5a5b9d0819985a5b195960aa1b604482015290519081900360640190fd5b306001600160a01b038516146139c9576004546139c9906001600160a01b03163086846135fe565b6001600160a01b038116614c9c5760405162461bcd60e51b8152600401808060200182810382526026815260200180615d876026913960400191505060405180910390fd5b600080546040516001600160a01b03808516939216917f8be0079c531659141344cd1fd0a4f28419497f9722a3daafe3b4186f6b6457e091a3600080546001600160a01b0319166001600160a01b0392909216919091179055565b6000806000846001600160a01b031663db006a75856040518263ffffffff1660e01b815260040180828152602001915050606060405180830381600087803b158015614d4257600080fd5b505af1158015614d56573d6000803e3d6000fd5b505050506040513d6060811015614d6c57600080fd5b50805160209091015190925090508115614dbd576040805162461bcd60e51b815260206004820152600d60248201526c1c995919595b4819985a5b1959609a1b604482015290519081900360640190fd5b949350505050565b604080516001600160a01b038481166024830152604480830185905283518084039091018152606490920183526020820180516001600160e01b031663a9059cbb60e01b178152925182516000946060949389169392918291908083835b60208310614e425780518252601f199092019160209182019101614e23565b6001836020036101000a0380198251168184511680821785525050505050509050019150506000604051808303816000865af19150503d8060008114614ea4576040519150601f19603f3d011682016040523d82523d6000602084013e614ea9565b606091505b5091509150818015614ed7575080511580614ed75750808060200190516020811015614ed457600080fd5b50515b614f28576040805162461bcd60e51b815260206004820152601f60248201527f5472616e7366657248656c7065723a205452414e534645525f4641494c454400604482015290519081900360640190fd5b5050505050565b600480546040805163db006a7560e01b815292830184905251600092839283926001600160a01b039091169163db006a7591602480830192606092919082900301818787803b158015614f8157600080fd5b505af1158015614f95573d6000803e3d6000fd5b505050506040513d6060811015614fab57600080fd5b50805160209091015190925090508115611125576040805162461bcd60e51b815260206004820152600d60248201526c1c995919595b4819985a5b1959609a1b604482015290519081900360640190fd5b60208301516060840151600091829182806150178989615298565b909250905061502c888363ffffffff61577b16565b9750600080600061503e87878d6157bd565b9250925092508b604001516001600160a01b031663a9059cbb878d6040518363ffffffff1660e01b815260040180836001600160a01b03166001600160a01b0316815260200182815260200192505050602060405180830381600087803b1580156150a857600080fd5b505af11580156150bc573d6000803e3d6000fd5b505050506040513d60208110156150d257600080fd5b505060408051630442a86560e01b815260048101859052602481018490526001600160a01b038c8116604483015260648201879052915191881691630442a8659160848082019260009290919082900301818387803b15801561513457600080fd5b505af1158015615148573d6000803e3d6000fd5b50929e959d50949b505050505050505050505050565b6008805482019055600980549091019055565b600081836151fd5760405162461bcd60e51b81526004018080602001828103825283818151815260200191508051906020019080838360005b838110156151c25781810151838201526020016151aa565b50505050905090810190601f1680156151ef5780820380516001836020036101000a031916815260200191505b509250505060405180910390fd5b50600083858161520957fe5b0495945050505050565b6060808251604051908082528060200260200182016040528015615241578160200160208202803883390190505b50905060005b83518110156135f75761526c84828151811061525f57fe5b60200260200101516132b9565b82828151811061527857fe5b6001600160a01b0390921660209283029190910190910152600101615247565b81516060830151602084015160a0850151608086015160009485949093909290918461533557836001600160a01b031663fcee45f4896040518263ffffffff1660e01b81526004018082815260200191505060206040518083038186803b15801561530257600080fd5b505afa158015615316573d6000803e3d6000fd5b505050506040513d602081101561532c57600080fd5b505196506153b3565b836001600160a01b031663d250185c89600188036040518363ffffffff1660e01b8152600401808381526020018281526020019250505060206040518083038186803b15801561538457600080fd5b505afa158015615398573d6000803e3d6000fd5b505050506040513d60208110156153ae57600080fd5b505196505b816001600160a01b0316836001600160a01b031614156154665786955088604001516001600160a01b031663a9059cbb82886040518363ffffffff1660e01b815260040180836001600160a01b03166001600160a01b0316815260200182815260200192505050602060405180830381600087803b15801561543457600080fd5b505af1158015615448573d6000803e3d6000fd5b505050506040513d602081101561545e57600080fd5b5061576f9050565b604089015160005b60055481101561576c5760006005828154811061548757fe5b60009182526020808320909101546001546040805163e6a4390560e01b81526001600160a01b038c81166004830152938416602482018190529151919650919092169263e6a4390592604480840193829003018186803b1580156154ea57600080fd5b505afa1580156154fe573d6000803e3d6000fd5b505050506040513d602081101561551457600080fd5b505190506001600160a01b0381161561576257856001600160a01b0316826001600160a01b031614156155e157836001600160a01b031663a9059cbb828d6040518363ffffffff1660e01b815260040180836001600160a01b03166001600160a01b0316815260200182815260200192505050602060405180830381600087803b1580156155a157600080fd5b505af11580156155b5573d6000803e3d6000fd5b505050506040513d60208110156155cb57600080fd5b506155da905087828d88615922565b995061575b565b6001546040805163e6a4390560e01b81526001600160a01b03858116600483015289811660248301529151600093929092169163e6a4390591604480820192602092909190829003018186803b15801561563a57600080fd5b505afa15801561564e573d6000803e3d6000fd5b505050506040513d602081101561566457600080fd5b505190506001600160a01b0381166156ad5760405162461bcd60e51b8152600401808060200182810382526025815260200180615e6e6025913960400191505060405180910390fd5b846001600160a01b031663a9059cbb838e6040518363ffffffff1660e01b815260040180836001600160a01b03166001600160a01b0316815260200182815260200192505050602060405180830381600087803b15801561570d57600080fd5b505af1158015615721573d6000803e3d6000fd5b505050506040513d602081101561573757600080fd5b506000905061574889848f85615922565b90506157568483838a615922565b9b5050505b505061576c565b505060010161546e565b50505b50505050509250929050565b600061352283836040518060400160405280601e81526020017f536166654d6174683a207375627472616374696f6e206f766572666c6f770000815250615b73565b600080600080856001600160a01b0316630dfe16816040518163ffffffff1660e01b815260040160206040518083038186803b1580156157fc57600080fd5b505afa158015615810573d6000803e3d6000fd5b505050506040513d602081101561582657600080fd5b505160408051630240bc6b60e21b8152905191925060009182916001600160a01b038a1691630902f1ac91600480820192606092909190829003018186803b15801561587157600080fd5b505afa158015615885573d6000803e3d6000fd5b505050506040513d606081101561589b57600080fd5b5080516020909101516001600160701b0391821693501690506001600160a01b0389811690841614156158f157600095508187016158df888363ffffffff613df616565b816158e657fe5b049450849350615916565b60009450808701615908888463ffffffff613df616565b8161590f57fe5b0495508593505b50505093509350939050565b6000806000856001600160a01b0316630902f1ac6040518163ffffffff1660e01b815260040160606040518083038186803b15801561596057600080fd5b505afa158015615974573d6000803e3d6000fd5b505050506040513d606081101561598a57600080fd5b50805160209182015160408051630dfe168160e01b815290516001600160701b0393841696509290911693506000926001600160a01b038a1692630dfe1681926004808201939291829003018186803b1580156159e657600080fd5b505afa1580156159fa573d6000803e3d6000fd5b505050506040513d6020811015615a1057600080fd5b505190506001600160a01b038881169082161415615aca57615a4b615a3b848863ffffffff615bcd16565b6118ae888563ffffffff613df616565b60408051630442a86560e01b8152600060048201819052602482018490526001600160a01b038981166044840152606483018290529251939750918a1692630442a8659260848084019391929182900301818387803b158015615aad57600080fd5b505af1158015615ac1573d6000803e3d6000fd5b50505050615b68565b615aed615add838863ffffffff615bcd16565b6118ae888663ffffffff613df616565b60408051630442a86560e01b8152600481018390526000602482018190526001600160a01b038981166044840152606483018290529251939750918a1692630442a8659260848084019391929182900301818387803b158015615b4f57600080fd5b505af1158015615b63573d6000803e3d6000fd5b505050505b505050949350505050565b60008184841115615bc55760405162461bcd60e51b81526020600482018181528351602484015283519092839260449091019190850190808383600083156151c25781810151838201526020016151aa565b505050900390565b600082820183811015613522576040805162461bcd60e51b815260206004820152601b60248201527f536166654d6174683a206164646974696f6e206f766572666c6f770000000000604482015290519081900360640190fd5b604051806101c001604052806000815260200160008152602001600081526020016000815260200160008152602001600081526020016000815260200160008152602001600081526020016000815260200160006001600160a01b0316815260200160006001600160a01b0316815260200160006001600160a01b0316815260200160006001600160a01b031681525090565b6040805160c081018252600080825260208201819052918101829052606081018290526080810182905260a081019190915290565b604051806080016040528060008152602001600081526020016000815260200160008152509056fe4164644c69717569646974793a20494e53554646494349454e545f425f414d4f554e5452656d6f76654c69717569646974793a20494e53554646494349454e545f425f414d4f554e5452656d6f76654c69717569646974793a20494e53554646494349454e545f415f414d4f554e544f776e61626c653a206e6577206f776e657220697320746865207a65726f206164647265737352656d6f76654c6971756964697479556e6465726c79696e673a20494e53554646494349454e545f415f414d4f554e54536166654d6174683a206d756c7469706c69636174696f6e206f766572666c6f774f776e61626c653a2063616c6c6572206973206e6f7420746865206f776e657252656d6f76654c6971756964697479556e6465726c79696e673a20494e53554646494349454e545f425f414d4f554e54446542616e6b526f757465723a2045585049524544000000000000000000000071756f746520636f696e20686173206e6f207061697220746f20616e63686f72546f6b656e526f757465723a20494e53554646494349454e545f4f55545055545f414d4f554e545472616e7366657248656c7065723a204554485f5452414e534645525f4641494c45445472616e7366657248656c7065723a205452414e534645525f46524f4d5f4641494c45444164644c69717569646974793a20494e53554646494349454e545f415f414d4f554e54a265627a7a723158200fd4ebcd608d12fea9fabba5262224b9529c12691ed7236969dbc2daa59fd9e664736f6c63430005100032",
  "devdoc": {
    "methods": {
      "isOwner()": {
        "details": "Returns true if the caller is the current owner."
      },
      "owner()": {
        "details": "Returns the address of the current owner."
      },
      "renounceOwnership()": {
        "details": "Leaves the contract without owner. It will not be possible to call `onlyOwner` functions anymore. Can only be called by the current owner.     * NOTE: Renouncing ownership will leave the contract without an owner, thereby removing any functionality that is only available to the owner."
      },
      "transferOwnership(address)": {
        "details": "Transfers ownership of the contract to a new account (`newOwner`). Can only be called by the current owner."
      }
    }
  },
  "userdoc": {
    "methods": {}
  },
  "storageLayout": {
    "storage": [
      {
        "astId": 220,
        "contract": "contracts/swap/heco/Router.sol:DeBankRouter",
        "label": "_owner",
        "offset": 0,
        "slot": "0",
        "type": "t_address"
      },
      {
        "astId": 39534,
        "contract": "contracts/swap/heco/Router.sol:DeBankRouter",
        "label": "factory",
        "offset": 0,
        "slot": "1",
        "type": "t_address"
      },
      {
        "astId": 39536,
        "contract": "contracts/swap/heco/Router.sol:DeBankRouter",
        "label": "WHT",
        "offset": 0,
        "slot": "2",
        "type": "t_address"
      },
      {
        "astId": 39538,
        "contract": "contracts/swap/heco/Router.sol:DeBankRouter",
        "label": "swapMining",
        "offset": 0,
        "slot": "3",
        "type": "t_address"
      },
      {
        "astId": 39540,
        "contract": "contracts/swap/heco/Router.sol:DeBankRouter",
        "label": "cWHT",
        "offset": 0,
        "slot": "4",
        "type": "t_address"
      },
      {
        "astId": 39543,
        "contract": "contracts/swap/heco/Router.sol:DeBankRouter",
        "label": "quoteTokens",
        "offset": 0,
        "slot": "5",
        "type": "t_array(t_address)dyn_storage"
      },
      {
        "astId": 39545,
        "contract": "contracts/swap/heco/Router.sol:DeBankRouter",
        "label": "ctokenFactory",
        "offset": 0,
        "slot": "6",
        "type": "t_contract(LErc20DelegatorInterface)45217"
      },
      {
        "astId": 39547,
        "contract": "contracts/swap/heco/Router.sol:DeBankRouter",
        "label": "rewardToken",
        "offset": 0,
        "slot": "7",
        "type": "t_address"
      },
      {
        "astId": 39549,
        "contract": "contracts/swap/heco/Router.sol:DeBankRouter",
        "label": "swapFeeTotal",
        "offset": 0,
        "slot": "8",
        "type": "t_uint256"
      },
      {
        "astId": 39551,
        "contract": "contracts/swap/heco/Router.sol:DeBankRouter",
        "label": "swapFeeCurrent",
        "offset": 0,
        "slot": "9",
        "type": "t_uint256"
      },
      {
        "astId": 39553,
        "contract": "contracts/swap/heco/Router.sol:DeBankRouter",
        "label": "swapFeeLastBlock",
        "offset": 0,
        "slot": "10",
        "type": "t_uint256"
      },
      {
        "astId": 39555,
        "contract": "contracts/swap/heco/Router.sol:DeBankRouter",
        "label": "ebeRewards",
        "offset": 0,
        "slot": "11",
        "type": "t_uint256"
      },
      {
        "astId": 39557,
        "contract": "contracts/swap/heco/Router.sol:DeBankRouter",
        "label": "ebePerBlock",
        "offset": 0,
        "slot": "12",
        "type": "t_uint256"
      },
      {
        "astId": 39559,
        "contract": "contracts/swap/heco/Router.sol:DeBankRouter",
        "label": "feeAlloc",
        "offset": 0,
        "slot": "13",
        "type": "t_uint256"
      }
    ],
    "types": {
      "t_address": {
        "encoding": "inplace",
        "label": "address",
        "numberOfBytes": "20"
      },
      "t_array(t_address)dyn_storage": {
        "base": "t_address",
        "encoding": "dynamic_array",
        "label": "address[]",
        "numberOfBytes": "32"
      },
      "t_contract(LErc20DelegatorInterface)45217": {
        "encoding": "inplace",
        "label": "contract LErc20DelegatorInterface",
        "numberOfBytes": "20"
      },
      "t_uint256": {
        "encoding": "inplace",
        "label": "uint256",
        "numberOfBytes": "32"
      }
    }
  }
}