{
  "address": "0x57e8557340B931f2D1eADCF6F87384e1fD0CE0Fd",
  "abi": [
    {
      "inputs": [
        {
          "internalType": "address",
          "name": "_factory",
          "type": "address"
        },
        {
          "internalType": "address",
          "name": "_WHT",
          "type": "address"
        },
        {
          "internalType": "address",
          "name": "_cWHT",
          "type": "address"
        },
        {
          "internalType": "uint256",
          "name": "_startBlock",
          "type": "uint256"
        }
      ],
      "payable": false,
      "stateMutability": "nonpayable",
      "type": "constructor"
    },
    {
      "anonymous": false,
      "inputs": [
        {
          "indexed": true,
          "internalType": "address",
          "name": "previousOwner",
          "type": "address"
        },
        {
          "indexed": true,
          "internalType": "address",
          "name": "newOwner",
          "type": "address"
        }
      ],
      "name": "OwnershipTransferred",
      "type": "event"
    },
    {
      "payable": true,
      "stateMutability": "payable",
      "type": "fallback"
    },
    {
      "constant": true,
      "inputs": [],
      "name": "WHT",
      "outputs": [
        {
          "internalType": "address",
          "name": "",
          "type": "address"
        }
      ],
      "payable": false,
      "stateMutability": "view",
      "type": "function"
    },
    {
      "constant": false,
      "inputs": [
        {
          "internalType": "address",
          "name": "tokenA",
          "type": "address"
        },
        {
          "internalType": "address",
          "name": "tokenB",
          "type": "address"
        },
        {
          "internalType": "uint256",
          "name": "amountADesired",
          "type": "uint256"
        },
        {
          "internalType": "uint256",
          "name": "amountBDesired",
          "type": "uint256"
        },
        {
          "internalType": "uint256",
          "name": "amountAMin",
          "type": "uint256"
        },
        {
          "internalType": "uint256",
          "name": "amountBMin",
          "type": "uint256"
        },
        {
          "internalType": "address",
          "name": "to",
          "type": "address"
        },
        {
          "internalType": "uint256",
          "name": "deadline",
          "type": "uint256"
        }
      ],
      "name": "addLiquidity",
      "outputs": [
        {
          "internalType": "uint256",
          "name": "amountA",
          "type": "uint256"
        },
        {
          "internalType": "uint256",
          "name": "amountB",
          "type": "uint256"
        },
        {
          "internalType": "uint256",
          "name": "liquidity",
          "type": "uint256"
        }
      ],
      "payable": false,
      "stateMutability": "nonpayable",
      "type": "function"
    },
    {
      "constant": false,
      "inputs": [
        {
          "internalType": "address",
          "name": "token",
          "type": "address"
        },
        {
          "internalType": "uint256",
          "name": "amountTokenDesired",
          "type": "uint256"
        },
        {
          "internalType": "uint256",
          "name": "amountTokenMin",
          "type": "uint256"
        },
        {
          "internalType": "uint256",
          "name": "amountETHMin",
          "type": "uint256"
        },
        {
          "internalType": "address",
          "name": "to",
          "type": "address"
        },
        {
          "internalType": "uint256",
          "name": "deadline",
          "type": "uint256"
        }
      ],
      "name": "addLiquidityETHUnderlying",
      "outputs": [
        {
          "internalType": "uint256",
          "name": "amountToken",
          "type": "uint256"
        },
        {
          "internalType": "uint256",
          "name": "amountETH",
          "type": "uint256"
        },
        {
          "internalType": "uint256",
          "name": "liquidity",
          "type": "uint256"
        }
      ],
      "payable": true,
      "stateMutability": "payable",
      "type": "function"
    },
    {
      "constant": false,
      "inputs": [
        {
          "internalType": "address",
          "name": "tokenA",
          "type": "address"
        },
        {
          "internalType": "address",
          "name": "tokenB",
          "type": "address"
        },
        {
          "internalType": "uint256",
          "name": "amountADesired",
          "type": "uint256"
        },
        {
          "internalType": "uint256",
          "name": "amountBDesired",
          "type": "uint256"
        },
        {
          "internalType": "uint256",
          "name": "amountAMin",
          "type": "uint256"
        },
        {
          "internalType": "uint256",
          "name": "amountBMin",
          "type": "uint256"
        },
        {
          "internalType": "address",
          "name": "to",
          "type": "address"
        },
        {
          "internalType": "uint256",
          "name": "deadline",
          "type": "uint256"
        }
      ],
      "name": "addLiquidityUnderlying",
      "outputs": [
        {
          "internalType": "uint256",
          "name": "amountA",
          "type": "uint256"
        },
        {
          "internalType": "uint256",
          "name": "amountB",
          "type": "uint256"
        },
        {
          "internalType": "uint256",
          "name": "liquidity",
          "type": "uint256"
        }
      ],
      "payable": false,
      "stateMutability": "nonpayable",
      "type": "function"
    },
    {
      "constant": false,
      "inputs": [
        {
          "internalType": "address",
          "name": "token",
          "type": "address"
        }
      ],
      "name": "addQuoteToken",
      "outputs": [],
      "payable": false,
      "stateMutability": "nonpayable",
      "type": "function"
    },
    {
      "constant": true,
      "inputs": [],
      "name": "allPairFee",
      "outputs": [
        {
          "internalType": "uint256",
          "name": "",
          "type": "uint256"
        }
      ],
      "payable": false,
      "stateMutability": "view",
      "type": "function"
    },
    {
      "constant": true,
      "inputs": [],
      "name": "allPairFeeLastBlock",
      "outputs": [
        {
          "internalType": "uint256",
          "name": "",
          "type": "uint256"
        }
      ],
      "payable": false,
      "stateMutability": "view",
      "type": "function"
    },
    {
      "constant": true,
      "inputs": [],
      "name": "cWHT",
      "outputs": [
        {
          "internalType": "address",
          "name": "",
          "type": "address"
        }
      ],
      "payable": false,
      "stateMutability": "view",
      "type": "function"
    },
    {
      "constant": true,
      "inputs": [],
      "name": "currentBlock",
      "outputs": [
        {
          "internalType": "uint256",
          "name": "",
          "type": "uint256"
        }
      ],
      "payable": false,
      "stateMutability": "view",
      "type": "function"
    },
    {
      "constant": true,
      "inputs": [],
      "name": "factory",
      "outputs": [
        {
          "internalType": "address",
          "name": "",
          "type": "address"
        }
      ],
      "payable": false,
      "stateMutability": "view",
      "type": "function"
    },
    {
      "constant": true,
      "inputs": [],
      "name": "feeAlloc",
      "outputs": [
        {
          "internalType": "uint256",
          "name": "",
          "type": "uint256"
        }
      ],
      "payable": false,
      "stateMutability": "view",
      "type": "function"
    },
    {
      "constant": true,
      "inputs": [
        {
          "internalType": "uint256",
          "name": "amountOut",
          "type": "uint256"
        },
        {
          "internalType": "uint256",
          "name": "reserveIn",
          "type": "uint256"
        },
        {
          "internalType": "uint256",
          "name": "reserveOut",
          "type": "uint256"
        }
      ],
      "name": "getAmountIn",
      "outputs": [
        {
          "internalType": "uint256",
          "name": "amountIn",
          "type": "uint256"
        }
      ],
      "payable": false,
      "stateMutability": "view",
      "type": "function"
    },
    {
      "constant": true,
      "inputs": [
        {
          "internalType": "uint256",
          "name": "amountIn",
          "type": "uint256"
        },
        {
          "internalType": "uint256",
          "name": "reserveIn",
          "type": "uint256"
        },
        {
          "internalType": "uint256",
          "name": "reserveOut",
          "type": "uint256"
        }
      ],
      "name": "getAmountOut",
      "outputs": [
        {
          "internalType": "uint256",
          "name": "amountOut",
          "type": "uint256"
        }
      ],
      "payable": false,
      "stateMutability": "view",
      "type": "function"
    },
    {
      "constant": true,
      "inputs": [
        {
          "internalType": "uint256",
          "name": "amountOut",
          "type": "uint256"
        },
        {
          "internalType": "address[]",
          "name": "path",
          "type": "address[]"
        }
      ],
      "name": "getAmountsIn",
      "outputs": [
        {
          "internalType": "uint256[]",
          "name": "amounts",
          "type": "uint256[]"
        }
      ],
      "payable": false,
      "stateMutability": "view",
      "type": "function"
    },
    {
      "constant": true,
      "inputs": [
        {
          "internalType": "uint256",
          "name": "amountIn",
          "type": "uint256"
        },
        {
          "internalType": "address[]",
          "name": "path",
          "type": "address[]"
        }
      ],
      "name": "getAmountsOut",
      "outputs": [
        {
          "internalType": "uint256[]",
          "name": "amounts",
          "type": "uint256[]"
        }
      ],
      "payable": false,
      "stateMutability": "view",
      "type": "function"
    },
    {
      "constant": true,
      "inputs": [
        {
          "internalType": "uint256",
          "name": "_lastRewardBlock",
          "type": "uint256"
        }
      ],
      "name": "getBlockRewards",
      "outputs": [
        {
          "internalType": "uint256",
          "name": "",
          "type": "uint256"
        }
      ],
      "payable": false,
      "stateMutability": "view",
      "type": "function"
    },
    {
      "constant": true,
      "inputs": [],
      "name": "halvingPeriod",
      "outputs": [
        {
          "internalType": "uint256",
          "name": "",
          "type": "uint256"
        }
      ],
      "payable": false,
      "stateMutability": "view",
      "type": "function"
    },
    {
      "constant": true,
      "inputs": [],
      "name": "isOwner",
      "outputs": [
        {
          "internalType": "bool",
          "name": "",
          "type": "bool"
        }
      ],
      "payable": false,
      "stateMutability": "view",
      "type": "function"
    },
    {
      "constant": true,
      "inputs": [],
      "name": "lpPerBlock",
      "outputs": [
        {
          "internalType": "uint256",
          "name": "",
          "type": "uint256"
        }
      ],
      "payable": false,
      "stateMutability": "view",
      "type": "function"
    },
    {
      "constant": true,
      "inputs": [],
      "name": "owner",
      "outputs": [
        {
          "internalType": "address",
          "name": "",
          "type": "address"
        }
      ],
      "payable": false,
      "stateMutability": "view",
      "type": "function"
    },
    {
      "constant": true,
      "inputs": [
        {
          "internalType": "address",
          "name": "tokenA",
          "type": "address"
        },
        {
          "internalType": "address",
          "name": "tokenB",
          "type": "address"
        }
      ],
      "name": "pairFor",
      "outputs": [
        {
          "internalType": "address",
          "name": "pair",
          "type": "address"
        }
      ],
      "payable": false,
      "stateMutability": "view",
      "type": "function"
    },
    {
      "constant": true,
      "inputs": [
        {
          "internalType": "uint256",
          "name": "blockNumber",
          "type": "uint256"
        }
      ],
      "name": "phase",
      "outputs": [
        {
          "internalType": "uint256",
          "name": "",
          "type": "uint256"
        }
      ],
      "payable": false,
      "stateMutability": "view",
      "type": "function"
    },
    {
      "constant": true,
      "inputs": [
        {
          "internalType": "uint256",
          "name": "amountA",
          "type": "uint256"
        },
        {
          "internalType": "uint256",
          "name": "reserveA",
          "type": "uint256"
        },
        {
          "internalType": "uint256",
          "name": "reserveB",
          "type": "uint256"
        }
      ],
      "name": "quote",
      "outputs": [
        {
          "internalType": "uint256",
          "name": "amountB",
          "type": "uint256"
        }
      ],
      "payable": false,
      "stateMutability": "view",
      "type": "function"
    },
    {
      "constant": true,
      "inputs": [
        {
          "internalType": "uint256",
          "name": "",
          "type": "uint256"
        }
      ],
      "name": "quoteTokens",
      "outputs": [
        {
          "internalType": "address",
          "name": "",
          "type": "address"
        }
      ],
      "payable": false,
      "stateMutability": "view",
      "type": "function"
    },
    {
      "constant": false,
      "inputs": [
        {
          "internalType": "address",
          "name": "ctokenA",
          "type": "address"
        },
        {
          "internalType": "address",
          "name": "ctokenB",
          "type": "address"
        },
        {
          "internalType": "uint256",
          "name": "liquidity",
          "type": "uint256"
        },
        {
          "internalType": "uint256",
          "name": "amountAMin",
          "type": "uint256"
        },
        {
          "internalType": "uint256",
          "name": "amountBMin",
          "type": "uint256"
        },
        {
          "internalType": "address",
          "name": "to",
          "type": "address"
        },
        {
          "internalType": "uint256",
          "name": "deadline",
          "type": "uint256"
        }
      ],
      "name": "removeLiquidity",
      "outputs": [
        {
          "internalType": "uint256",
          "name": "amountA",
          "type": "uint256"
        },
        {
          "internalType": "uint256",
          "name": "amountB",
          "type": "uint256"
        }
      ],
      "payable": false,
      "stateMutability": "nonpayable",
      "type": "function"
    },
    {
      "constant": false,
      "inputs": [
        {
          "internalType": "address",
          "name": "token",
          "type": "address"
        },
        {
          "internalType": "uint256",
          "name": "liquidity",
          "type": "uint256"
        },
        {
          "internalType": "uint256",
          "name": "amountTokenMin",
          "type": "uint256"
        },
        {
          "internalType": "uint256",
          "name": "amountETHMin",
          "type": "uint256"
        },
        {
          "internalType": "address",
          "name": "to",
          "type": "address"
        },
        {
          "internalType": "uint256",
          "name": "deadline",
          "type": "uint256"
        }
      ],
      "name": "removeLiquidityETHUnderlying",
      "outputs": [
        {
          "internalType": "uint256",
          "name": "amountToken",
          "type": "uint256"
        },
        {
          "internalType": "uint256",
          "name": "amountETH",
          "type": "uint256"
        }
      ],
      "payable": false,
      "stateMutability": "nonpayable",
      "type": "function"
    },
    {
      "constant": false,
      "inputs": [
        {
          "internalType": "address",
          "name": "token",
          "type": "address"
        },
        {
          "internalType": "uint256",
          "name": "liquidity",
          "type": "uint256"
        },
        {
          "internalType": "uint256",
          "name": "amountTokenMin",
          "type": "uint256"
        },
        {
          "internalType": "uint256",
          "name": "amountETHMin",
          "type": "uint256"
        },
        {
          "internalType": "address",
          "name": "to",
          "type": "address"
        },
        {
          "internalType": "uint256",
          "name": "deadline",
          "type": "uint256"
        },
        {
          "internalType": "bool",
          "name": "approveMax",
          "type": "bool"
        },
        {
          "internalType": "uint8",
          "name": "v",
          "type": "uint8"
        },
        {
          "internalType": "bytes32",
          "name": "r",
          "type": "bytes32"
        },
        {
          "internalType": "bytes32",
          "name": "s",
          "type": "bytes32"
        }
      ],
      "name": "removeLiquidityETHUnderlyingWithPermit",
      "outputs": [
        {
          "internalType": "uint256",
          "name": "amountToken",
          "type": "uint256"
        },
        {
          "internalType": "uint256",
          "name": "amountETH",
          "type": "uint256"
        }
      ],
      "payable": false,
      "stateMutability": "nonpayable",
      "type": "function"
    },
    {
      "constant": false,
      "inputs": [
        {
          "internalType": "address",
          "name": "tokenA",
          "type": "address"
        },
        {
          "internalType": "address",
          "name": "tokenB",
          "type": "address"
        },
        {
          "internalType": "uint256",
          "name": "liquidity",
          "type": "uint256"
        },
        {
          "internalType": "uint256",
          "name": "amountAMin",
          "type": "uint256"
        },
        {
          "internalType": "uint256",
          "name": "amountBMin",
          "type": "uint256"
        },
        {
          "internalType": "address",
          "name": "to",
          "type": "address"
        },
        {
          "internalType": "uint256",
          "name": "deadline",
          "type": "uint256"
        }
      ],
      "name": "removeLiquidityUnderlying",
      "outputs": [
        {
          "internalType": "uint256",
          "name": "amountA",
          "type": "uint256"
        },
        {
          "internalType": "uint256",
          "name": "amountB",
          "type": "uint256"
        }
      ],
      "payable": false,
      "stateMutability": "nonpayable",
      "type": "function"
    },
    {
      "constant": false,
      "inputs": [
        {
          "internalType": "address",
          "name": "tokenA",
          "type": "address"
        },
        {
          "internalType": "address",
          "name": "tokenB",
          "type": "address"
        },
        {
          "internalType": "uint256",
          "name": "liquidity",
          "type": "uint256"
        },
        {
          "internalType": "uint256",
          "name": "amountAMin",
          "type": "uint256"
        },
        {
          "internalType": "uint256",
          "name": "amountBMin",
          "type": "uint256"
        },
        {
          "internalType": "address",
          "name": "to",
          "type": "address"
        },
        {
          "internalType": "uint256",
          "name": "deadline",
          "type": "uint256"
        },
        {
          "internalType": "bool",
          "name": "approveMax",
          "type": "bool"
        },
        {
          "internalType": "uint8",
          "name": "v",
          "type": "uint8"
        },
        {
          "internalType": "bytes32",
          "name": "r",
          "type": "bytes32"
        },
        {
          "internalType": "bytes32",
          "name": "s",
          "type": "bytes32"
        }
      ],
      "name": "removeLiquidityWithPermit",
      "outputs": [
        {
          "internalType": "uint256",
          "name": "amountA",
          "type": "uint256"
        },
        {
          "internalType": "uint256",
          "name": "amountB",
          "type": "uint256"
        }
      ],
      "payable": false,
      "stateMutability": "nonpayable",
      "type": "function"
    },
    {
      "constant": false,
      "inputs": [],
      "name": "renounceOwnership",
      "outputs": [],
      "payable": false,
      "stateMutability": "nonpayable",
      "type": "function"
    },
    {
      "constant": false,
      "inputs": [
        {
          "internalType": "address[]",
          "name": "tokens",
          "type": "address[]"
        }
      ],
      "name": "resetQuoteTokens",
      "outputs": [],
      "payable": false,
      "stateMutability": "nonpayable",
      "type": "function"
    },
    {
      "constant": true,
      "inputs": [
        {
          "internalType": "uint256",
          "name": "blockNumber",
          "type": "uint256"
        }
      ],
      "name": "reward",
      "outputs": [
        {
          "internalType": "uint256",
          "name": "",
          "type": "uint256"
        }
      ],
      "payable": false,
      "stateMutability": "view",
      "type": "function"
    },
    {
      "constant": true,
      "inputs": [],
      "name": "rewardToken",
      "outputs": [
        {
          "internalType": "address",
          "name": "",
          "type": "address"
        }
      ],
      "payable": false,
      "stateMutability": "view",
      "type": "function"
    },
    {
      "constant": false,
      "inputs": [
        {
          "internalType": "address",
          "name": "_swapMininng",
          "type": "address"
        }
      ],
      "name": "setSwapMining",
      "outputs": [],
      "payable": false,
      "stateMutability": "nonpayable",
      "type": "function"
    },
    {
      "constant": true,
      "inputs": [],
      "name": "startBlock",
      "outputs": [
        {
          "internalType": "uint256",
          "name": "",
          "type": "uint256"
        }
      ],
      "payable": false,
      "stateMutability": "view",
      "type": "function"
    },
    {
      "constant": false,
      "inputs": [
        {
          "internalType": "uint256",
          "name": "amountOut",
          "type": "uint256"
        },
        {
          "internalType": "address[]",
          "name": "path",
          "type": "address[]"
        },
        {
          "internalType": "address",
          "name": "to",
          "type": "address"
        },
        {
          "internalType": "uint256",
          "name": "deadline",
          "type": "uint256"
        }
      ],
      "name": "swapETHForExactTokensUnderlying",
      "outputs": [
        {
          "internalType": "uint256[]",
          "name": "amounts",
          "type": "uint256[]"
        }
      ],
      "payable": true,
      "stateMutability": "payable",
      "type": "function"
    },
    {
      "constant": false,
      "inputs": [
        {
          "internalType": "uint256",
          "name": "amountOutMin",
          "type": "uint256"
        },
        {
          "internalType": "address[]",
          "name": "path",
          "type": "address[]"
        },
        {
          "internalType": "address",
          "name": "to",
          "type": "address"
        },
        {
          "internalType": "uint256",
          "name": "deadline",
          "type": "uint256"
        }
      ],
      "name": "swapExactETHForTokensUnderlying",
      "outputs": [
        {
          "internalType": "uint256[]",
          "name": "amounts",
          "type": "uint256[]"
        }
      ],
      "payable": true,
      "stateMutability": "payable",
      "type": "function"
    },
    {
      "constant": false,
      "inputs": [
        {
          "internalType": "uint256",
          "name": "amountIn",
          "type": "uint256"
        },
        {
          "internalType": "uint256",
          "name": "amountOutMin",
          "type": "uint256"
        },
        {
          "internalType": "address[]",
          "name": "path",
          "type": "address[]"
        },
        {
          "internalType": "address",
          "name": "to",
          "type": "address"
        },
        {
          "internalType": "uint256",
          "name": "deadline",
          "type": "uint256"
        }
      ],
      "name": "swapExactTokensForETHUnderlying",
      "outputs": [
        {
          "internalType": "uint256[]",
          "name": "amounts",
          "type": "uint256[]"
        }
      ],
      "payable": false,
      "stateMutability": "nonpayable",
      "type": "function"
    },
    {
      "constant": false,
      "inputs": [
        {
          "internalType": "uint256",
          "name": "amountIn",
          "type": "uint256"
        },
        {
          "internalType": "uint256",
          "name": "amountOutMin",
          "type": "uint256"
        },
        {
          "internalType": "address[]",
          "name": "cpath",
          "type": "address[]"
        },
        {
          "internalType": "address",
          "name": "to",
          "type": "address"
        },
        {
          "internalType": "uint256",
          "name": "deadline",
          "type": "uint256"
        }
      ],
      "name": "swapExactTokensForTokens",
      "outputs": [
        {
          "internalType": "uint256[]",
          "name": "amounts",
          "type": "uint256[]"
        }
      ],
      "payable": false,
      "stateMutability": "nonpayable",
      "type": "function"
    },
    {
      "constant": false,
      "inputs": [
        {
          "internalType": "uint256",
          "name": "amountIn",
          "type": "uint256"
        },
        {
          "internalType": "uint256",
          "name": "amountOutMin",
          "type": "uint256"
        },
        {
          "internalType": "address[]",
          "name": "path",
          "type": "address[]"
        },
        {
          "internalType": "address",
          "name": "to",
          "type": "address"
        },
        {
          "internalType": "uint256",
          "name": "deadline",
          "type": "uint256"
        }
      ],
      "name": "swapExactTokensForTokensUnderlying",
      "outputs": [
        {
          "internalType": "uint256[]",
          "name": "amounts",
          "type": "uint256[]"
        }
      ],
      "payable": false,
      "stateMutability": "nonpayable",
      "type": "function"
    },
    {
      "constant": true,
      "inputs": [],
      "name": "swapMining",
      "outputs": [
        {
          "internalType": "address",
          "name": "",
          "type": "address"
        }
      ],
      "payable": false,
      "stateMutability": "view",
      "type": "function"
    },
    {
      "constant": false,
      "inputs": [
        {
          "internalType": "uint256",
          "name": "amountOut",
          "type": "uint256"
        },
        {
          "internalType": "uint256",
          "name": "amountInMax",
          "type": "uint256"
        },
        {
          "internalType": "address[]",
          "name": "path",
          "type": "address[]"
        },
        {
          "internalType": "address",
          "name": "to",
          "type": "address"
        },
        {
          "internalType": "uint256",
          "name": "deadline",
          "type": "uint256"
        }
      ],
      "name": "swapTokensForExactETHUnderlying",
      "outputs": [
        {
          "internalType": "uint256[]",
          "name": "amounts",
          "type": "uint256[]"
        }
      ],
      "payable": false,
      "stateMutability": "nonpayable",
      "type": "function"
    },
    {
      "constant": false,
      "inputs": [
        {
          "internalType": "uint256",
          "name": "amountOut",
          "type": "uint256"
        },
        {
          "internalType": "uint256",
          "name": "amountInMax",
          "type": "uint256"
        },
        {
          "internalType": "address[]",
          "name": "cpath",
          "type": "address[]"
        },
        {
          "internalType": "address",
          "name": "to",
          "type": "address"
        },
        {
          "internalType": "uint256",
          "name": "deadline",
          "type": "uint256"
        }
      ],
      "name": "swapTokensForExactTokens",
      "outputs": [
        {
          "internalType": "uint256[]",
          "name": "amounts",
          "type": "uint256[]"
        }
      ],
      "payable": false,
      "stateMutability": "nonpayable",
      "type": "function"
    },
    {
      "constant": false,
      "inputs": [
        {
          "internalType": "uint256",
          "name": "amountOut",
          "type": "uint256"
        },
        {
          "internalType": "uint256",
          "name": "amountInMax",
          "type": "uint256"
        },
        {
          "internalType": "address[]",
          "name": "path",
          "type": "address[]"
        },
        {
          "internalType": "address",
          "name": "to",
          "type": "address"
        },
        {
          "internalType": "uint256",
          "name": "deadline",
          "type": "uint256"
        }
      ],
      "name": "swapTokensForExactTokensUnderlying",
      "outputs": [
        {
          "internalType": "uint256[]",
          "name": "amounts",
          "type": "uint256[]"
        }
      ],
      "payable": false,
      "stateMutability": "nonpayable",
      "type": "function"
    },
    {
      "constant": true,
      "inputs": [],
      "name": "traderPerBlock",
      "outputs": [
        {
          "internalType": "uint256",
          "name": "",
          "type": "uint256"
        }
      ],
      "payable": false,
      "stateMutability": "view",
      "type": "function"
    },
    {
      "constant": false,
      "inputs": [
        {
          "internalType": "address",
          "name": "newOwner",
          "type": "address"
        }
      ],
      "name": "transferOwnership",
      "outputs": [],
      "payable": false,
      "stateMutability": "nonpayable",
      "type": "function"
    }
  ],
  "transactionHash": "0xeed1c9726e0e080fababb31a542da26ec0f0691ef51bb19b5e937de6843f38bd",
  "args": [
    "0xa755fa7f92a1f3b824E8D169d6527E85BA4fB9c3",
    "0x7aF326B6351C8A9b8fb8CD205CBe11d4Ac5FA836",
    "0x08eB884Fd62079E2D8D963A8FC811EA20E7DeAAa",
    0
  ],
  "solcInputHash": "ac4724f08e6e32123d4d07ddadbd5e50",
  "bytecode": "0x608060405262503340600c553480156200001857600080fd5b506040516200605338038062006053833981810160405260808110156200003e57600080fd5b508051602082015160408301516060909301519192909160006200006a6001600160e01b03620001d216565b600080546001600160a01b0319166001600160a01b0383169081178255604051929350917f8be0079c531659141344cd1fd0a4f28419497f9722a3daafe3b4186f6b6457e0908290a350600180546001600160a01b038087166001600160a01b031992831681179093556002805487831690841617905560058054918616919092161790556008829055604080516370e264b360e11b815290516004929163e1c4c96691818501916020919081900386018186803b1580156200012c57600080fd5b505afa15801562000141573d6000803e3d6000fd5b505050506040513d60208110156200015857600080fd5b505181546001808201845560009384526020842090910180546001600160a01b03199081166001600160a01b03948516179091556004805492830181559093527f8a35acfbc15ff81a39ae7d344fd709f28e8600b4aa8c65c6b64bfe7fe36bd19b01805490921694169390931790925550620001d6915050565b3390565b615e6d80620001e66000396000f3fe60806040526004361061027d5760003560e01c806385f8c2591161014f578063bbee6c29116100c1578063e8e337001161007a578063e8e3370014610f02578063ee41be8e14610f64578063efd06f2e14610fe8578063f2fde38b1461102e578063f7c618c114611061578063fa900088146110765761027d565b8063bbee6c2914610ccf578063c45a015514610d53578063c5746a6e14610d68578063d06ca61f14610dc5578063dbdfc62514610e7a578063e12ed13c14610eed5761027d565b80638f32d59b116101135780638f32d59b14610b9957806396ed28f914610bc2578063a9fb763c14610bfd578063ad615dec14610c27578063af06ca8f14610c5d578063baa2abde14610c725761027d565b806385f8c25914610a0d5780638803dbee14610a4357806389a6072c14610ad95780638da5cb5b14610aee5780638e750db914610b035761027d565b80634cc94ba1116101f35780635a3e251f116101ac5780635a3e251f146108e15780635cb48592146108f6578063715018a61461090b57806378b8d735146109205780637e87ffe8146109ce5780637f3709a3146109e35761027d565b80634cc94ba1146107bc5780634e5eda11146107d15780634f887183146107e65780635710207c14610819578063575815111461082e57806358956d41146108615761027d565b80631f00ca74116102455780631f00ca74146105025780632195995c146105b75780632c9115c71461063557806338ed17391461067b5780633eabf55f1461071157806348cd4cb1146107a75761027d565b80630520b290146102a8578063054d50d41461038e578063135f8aa7146103d657806314e5207b146104005780631da81f621461046c575b6002546001600160a01b03163314806102a057506005546001600160a01b031633145b6102a657fe5b005b3480156102b457600080fd5b5061033e600480360360a08110156102cb57600080fd5b813591602081013591810190606081016040820135600160201b8111156102f157600080fd5b82018360208201111561030357600080fd5b803590602001918460208302840111600160201b8311171561032457600080fd5b91935091506001600160a01b03813516906020013561108b565b60408051602080825283518183015283519192839290830191858101910280838360005b8381101561037a578181015183820152602001610362565b505050509050019250505060405180910390f35b34801561039a57600080fd5b506103c4600480360360608110156103b157600080fd5b50803590602081013590604001356111a2565b60408051918252519081900360200190f35b3480156103e257600080fd5b506103c4600480360360208110156103f957600080fd5b5035611230565b34801561040c57600080fd5b50610453600480360360c081101561042357600080fd5b506001600160a01b0381358116916020810135916040820135916060810135916080820135169060a00135611297565b6040805192835260208301919091528051918290030190f35b34801561047857600080fd5b5061033e600480360360a081101561048f57600080fd5b813591602081013591810190606081016040820135600160201b8111156104b557600080fd5b8201836020820111156104c757600080fd5b803590602001918460208302840111600160201b831117156104e857600080fd5b91935091506001600160a01b0381351690602001356113af565b34801561050e57600080fd5b5061033e6004803603604081101561052557600080fd5b81359190810190604081016020820135600160201b81111561054657600080fd5b82018360208201111561055857600080fd5b803590602001918460208302840111600160201b8311171561057957600080fd5b91908080602002602001604051908101604052809392919081815260200183836020028082843760009201919091525092955061143b945050505050565b3480156105c357600080fd5b5061045360048036036101608110156105db57600080fd5b506001600160a01b038135811691602081013582169160408201359160608101359160808201359160a08101359091169060c08101359060e081013515159060ff610100820135169061012081013590610140013561159a565b34801561064157600080fd5b5061065f6004803603602081101561065857600080fd5b5035611673565b604080516001600160a01b039092168252519081900360200190f35b34801561068757600080fd5b5061033e600480360360a081101561069e57600080fd5b813591602081013591810190606081016040820135600160201b8111156106c457600080fd5b8201836020820111156106d657600080fd5b803590602001918460208302840111600160201b831117156106f757600080fd5b91935091506001600160a01b03813516906020013561169a565b34801561071d57600080fd5b5061033e600480360360a081101561073457600080fd5b813591602081013591810190606081016040820135600160201b81111561075a57600080fd5b82018360208201111561076c57600080fd5b803590602001918460208302840111600160201b8311171561078d57600080fd5b91935091506001600160a01b038135169060200135611957565b3480156107b357600080fd5b506103c46119e3565b3480156107c857600080fd5b506103c46119e9565b3480156107dd57600080fd5b5061065f6119ef565b3480156107f257600080fd5b506102a66004803603602081101561080957600080fd5b50356001600160a01b03166119fe565b34801561082557600080fd5b5061065f611a67565b34801561083a57600080fd5b506102a66004803603602081101561085157600080fd5b50356001600160a01b0316611a76565b34801561086d57600080fd5b506108c3600480360361010081101561088557600080fd5b506001600160a01b038135811691602081013582169160408201359160608101359160808201359160a08101359160c0820135169060e00135611b0f565b60408051938452602084019290925282820152519081900360600190f35b3480156108ed57600080fd5b506103c4611d2e565b34801561090257600080fd5b5061065f611d34565b34801561091757600080fd5b506102a6611d43565b34801561092c57600080fd5b506102a66004803603602081101561094357600080fd5b810190602081018135600160201b81111561095d57600080fd5b82018360208201111561096f57600080fd5b803590602001918460208302840111600160201b8311171561099057600080fd5b919080806020026020016040519081016040528093929190818152602001838360200280828437600092019190915250929550611dd4945050505050565b3480156109da57600080fd5b506103c4611ec1565b3480156109ef57600080fd5b506103c460048036036020811015610a0657600080fd5b5035611ec7565b348015610a1957600080fd5b506103c460048036036060811015610a3057600080fd5b5080359060208101359060400135611f95565b348015610a4f57600080fd5b5061033e600480360360a0811015610a6657600080fd5b813591602081013591810190606081016040820135600160201b811115610a8c57600080fd5b820183602082011115610a9e57600080fd5b803590602001918460208302840111600160201b83111715610abf57600080fd5b91935091506001600160a01b038135169060200135611fef565b348015610ae557600080fd5b506103c461223b565b348015610afa57600080fd5b5061065f612241565b348015610b0f57600080fd5b5061033e600480360360a0811015610b2657600080fd5b813591602081013591810190606081016040820135600160201b811115610b4c57600080fd5b820183602082011115610b5e57600080fd5b803590602001918460208302840111600160201b83111715610b7f57600080fd5b91935091506001600160a01b038135169060200135612250565b348015610ba557600080fd5b50610bae61235b565b604080519115158252519081900360200190f35b348015610bce57600080fd5b5061065f60048036036040811015610be557600080fd5b506001600160a01b038135811691602001351661237f565b348015610c0957600080fd5b506103c460048036036020811015610c2057600080fd5b503561240b565b348015610c3357600080fd5b506103c460048036036060811015610c4a57600080fd5b5080359060208101359060400135612452565b348015610c6957600080fd5b506103c46124ac565b348015610c7e57600080fd5b50610453600480360360e0811015610c9557600080fd5b506001600160a01b038135811691602081013582169160408201359160608101359160808201359160a08101359091169060c001356124b2565b61033e60048036036080811015610ce557600080fd5b81359190810190604081016020820135600160201b811115610d0657600080fd5b820183602082011115610d1857600080fd5b803590602001918460208302840111600160201b83111715610d3957600080fd5b91935091506001600160a01b038135169060200135612763565b348015610d5f57600080fd5b5061065f612874565b348015610d7457600080fd5b50610453600480360360e0811015610d8b57600080fd5b506001600160a01b038135811691602081013582169160408201359160608101359160808201359160a08101359091169060c00135612883565b348015610dd157600080fd5b5061033e60048036036040811015610de857600080fd5b81359190810190604081016020820135600160201b811115610e0957600080fd5b820183602082011115610e1b57600080fd5b803590602001918460208302840111600160201b83111715610e3c57600080fd5b919080806020026020016040519081016040528093929190818152602001838360200280828437600092019190915250929550612c4e945050505050565b348015610e8657600080fd5b506104536004803603610140811015610e9e57600080fd5b506001600160a01b0381358116916020810135916040820135916060810135916080820135169060a08101359060c081013515159060ff60e08201351690610100810135906101200135612cb6565b348015610ef957600080fd5b506103c4612d98565b348015610f0e57600080fd5b506108c36004803603610100811015610f2657600080fd5b506001600160a01b038135811691602081013582169160408201359160608101359160808201359160a08101359160c0820135169060e00135612d9e565b61033e60048036036080811015610f7a57600080fd5b81359190810190604081016020820135600160201b811115610f9b57600080fd5b820183602082011115610fad57600080fd5b803590602001918460208302840111600160201b83111715610fce57600080fd5b91935091506001600160a01b038135169060200135612ebd565b6108c3600480360360c0811015610ffe57600080fd5b506001600160a01b0381358116916020810135916040820135916060810135916080820135169060a00135612fc3565b34801561103a57600080fd5b506102a66004803603602081101561105157600080fd5b50356001600160a01b03166131d6565b34801561106d57600080fd5b5061065f613229565b34801561108257600080fd5b506103c4613238565b606081428110156110d5576040805162461bcd60e51b815260206004820152600f60248201526e149bdd5d195c8e8811561412549151608a1b604482015290519081900360640190fd5b6002546001600160a01b0316868660001981018181106110f157fe5b905060200201356001600160a01b03166001600160a01b031614611153576040805162461bcd60e51b81526020600482015260146024820152730a4deeae8cae47440929cac82989288bea082a8960631b604482015290519081900360640190fd5b611196888888888080602002602001604051908101604052809392919081815260200183836020028082843760009201829052508b93508a92509050600161323e565b98975050505050505050565b60015460408051630153543560e21b815260048101869052602481018590526044810184905290516000926001600160a01b03169163054d50d4916064808301926020929190829003018186803b1580156111fc57600080fd5b505afa158015611210573d6000803e3d6000fd5b505050506040513d602081101561122657600080fd5b5051949350505050565b6000600c546000141561124557506000611292565b60085482111561128e57611287600c5461127b600161126f6008548761367b90919063ffffffff16565b9063ffffffff61367b16565b9063ffffffff6136bd16565b9050611292565b5060005b919050565b60008082428110156112e2576040805162461bcd60e51b815260206004820152600f60248201526e149bdd5d195c8e8811561412549151608a1b604482015290519081900360640190fd5b6112ea615b96565b6112f38a6136ff565b6001600160a01b0316610180820181905261130d906137ec565b6080820152600554611327906001600160a01b03166137ec565b60c0820152608081015160009061133f908a9061394b565b90506000611351898460c0015161394b565b6101808401516005549192506000918291611379916001600160a01b03168f8787308f6124b2565b6101808701519193509150611390908f8c85613969565b975061139c8a8261398a565b9650505050505050965096945050505050565b606081428110156113f9576040805162461bcd60e51b815260206004820152600f60248201526e149bdd5d195c8e8811561412549151608a1b604482015290519081900360640190fd5b611196888888888080602002602001604051908101604052809392919081815260200183836020028082843760009201829052508b93508a925090508061323e565b600154604080516307c0329d60e21b815260048101858152602482019283528451604483015284516060946001600160a01b031693631f00ca749388938893909291606401906020808601910280838360005b838110156114a657818101518382015260200161148e565b50505050905001935050505060006040518083038186803b1580156114ca57600080fd5b505afa1580156114de573d6000803e3d6000fd5b505050506040513d6000823e601f3d908101601f19168201604052602081101561150757600080fd5b8101908080516040519392919084600160201b82111561152657600080fd5b90830190602082018581111561153b57600080fd5b82518660208202830111600160201b8211171561155757600080fd5b82525081516020918201928201910280838360005b8381101561158457818101518382015260200161156c565b5050505090500160405250505090505b92915050565b60008060006115a98e8e61237f565b90506000876115b8578c6115bc565b6000195b6040805163d505accf60e01b815233600482015230602482015260448101839052606481018c905260ff8a16608482015260a4810189905260c4810188905290519192506001600160a01b0384169163d505accf9160e48082019260009290919082900301818387803b15801561163257600080fd5b505af1158015611646573d6000803e3d6000fd5b505050506116598f8f8f8f8f8f8f6124b2565b809450819550505050509b509b9950505050505050505050565b6004818154811061168057fe5b6000918252602090912001546001600160a01b0316905081565b606081428110156116e4576040805162461bcd60e51b815260206004820152600f60248201526e149bdd5d195c8e8811561412549151608a1b604482015290519081900360640190fd5b60606117228787808060200260200160405190810160405280939291908181526020018383602002808284376000920191909152506139a892505050565b6001546040805163d06ca61f60e01b8152600481018d8152602482019283528451604483015284519495506001600160a01b039093169363d06ca61f938e93879391929091606401906020808601910280838360005b83811015611790578181015183820152602001611778565b50505050905001935050505060006040518083038186803b1580156117b457600080fd5b505afa1580156117c8573d6000803e3d6000fd5b505050506040513d6000823e601f3d908101601f1916820160405260208110156117f157600080fd5b8101908080516040519392919084600160201b82111561181057600080fd5b90830190602082018581111561182557600080fd5b82518660208202830111600160201b8211171561184157600080fd5b82525081516020918201928201910280838360005b8381101561186e578181015183820152602001611856565b505050509050016040525050509250878360018551038151811061188e57fe5b602002602001015110156118d35760405162461bcd60e51b8152600401808060200182810382526022815260200180615dad6022913960400191505060405180910390fd5b611940878760008181106118e357fe5b905060200201356001600160a01b0316336119268460008151811061190457fe5b60200260200101518560018151811061191957fe5b602002602001015161237f565b8660008151811061193357fe5b6020026020010151613a34565b61194b838287613b91565b50509695505050505050565b606081428110156119a1576040805162461bcd60e51b815260206004820152600f60248201526e149bdd5d195c8e8811561412549151608a1b604482015290519081900360640190fd5b611196888888888080602002602001604051908101604052809392919081815260200183836020028082843760009201829052508b93508a92509050806140b4565b60085481565b60065481565b6003546001600160a01b031681565b611a0661235b565b611a45576040805162461bcd60e51b81526020600482018190526024820152600080516020615d38833981519152604482015290519081900360640190fd5b600380546001600160a01b0319166001600160a01b0392909216919091179055565b6005546001600160a01b031681565b611a7e61235b565b611abd576040805162461bcd60e51b81526020600482018190526024820152600080516020615d38833981519152604482015290519081900360640190fd5b600480546001810182556000919091527f8a35acfbc15ff81a39ae7d344fd709f28e8600b4aa8c65c6b64bfe7fe36bd19b0180546001600160a01b0319166001600160a01b0392909216919091179055565b60008060008342811015611b5c576040805162461bcd60e51b815260206004820152600f60248201526e149bdd5d195c8e8811561412549151608a1b604482015290519081900360640190fd5b611b64615b96565b611b6d8d6136ff565b6001600160a01b0316610180820152611b858c6136ff565b6001600160a01b03166101a0820152610180810151611ba3906137ec565b60808201526101a0810151611bb7906137ec565b60a08201526080810151611bcc908c9061394b565b815260a0810151611bde908b9061394b565b60208201526080810151611bf3908a9061394b565b604082015260a0810151611c0890899061394b565b606082018190526101808201516101a0830151835160208501516040860151611c30956143f6565b61010083015260e08201526000611c478e8e61237f565b9050611c5b8260e001518360800151614795565b9550611c708261010001518360a00151614795565b9450611c838e83610180015183896147b3565b611c948d836101a0015183886147b3565b806001600160a01b0316636a627842896040518263ffffffff1660e01b815260040180826001600160a01b03166001600160a01b03168152602001915050602060405180830381600087803b158015611cec57600080fd5b505af1158015611d00573d6000803e3d6000fd5b505050506040513d6020811015611d1657600080fd5b5051959e949d50949b50929950505050505050505050565b600c5481565b6002546001600160a01b031681565b611d4b61235b565b611d8a576040805162461bcd60e51b81526020600482018190526024820152600080516020615d38833981519152604482015290519081900360640190fd5b600080546040516001600160a01b03909116907f8be0079c531659141344cd1fd0a4f28419497f9722a3daafe3b4186f6b6457e0908390a3600080546001600160a01b0319169055565b611ddc61235b565b611e1b576040805162461bcd60e51b81526020600482018190526024820152600080516020615d38833981519152604482015290519081900360640190fd5b60005b600454811015611e5d576004805480611e3357fe5b600082815260209020810160001990810180546001600160a01b0319169055019055600101611e1e565b5060005b8151811015611ebd576004828281518110611e7857fe5b60209081029190910181015182546001808201855560009485529290932090920180546001600160a01b0319166001600160a01b039093169290921790915501611e61565b5050565b600e5481565b60008080611ed484611230565b90506000611ee143611230565b90505b80821015611f6057600854600c54600190930192600091611f1c91611f1090869063ffffffff614a8416565b9063ffffffff614add16565b9050611f56611f49611f2d8361240b565b611f3d848a63ffffffff61367b16565b9063ffffffff614a8416565b859063ffffffff614add16565b9095509250611ee4565b611f8c611f7f611f6f4361240b565b611f3d438963ffffffff61367b16565b849063ffffffff614add16565b95945050505050565b600154604080516385f8c25960e01b815260048101869052602481018590526044810184905290516000926001600160a01b0316916385f8c259916064808301926020929190829003018186803b1580156111fc57600080fd5b60608142811015612039576040805162461bcd60e51b815260206004820152600f60248201526e149bdd5d195c8e8811561412549151608a1b604482015290519081900360640190fd5b60606120778787808060200260200160405190810160405280939291908181526020018383602002808284376000920191909152506139a892505050565b600154604080516307c0329d60e21b8152600481018d8152602482019283528451604483015284519495506001600160a01b0390931693631f00ca74938e93879391929091606401906020808601910280838360005b838110156120e55781810151838201526020016120cd565b50505050905001935050505060006040518083038186803b15801561210957600080fd5b505afa15801561211d573d6000803e3d6000fd5b505050506040513d6000823e601f3d908101601f19168201604052602081101561214657600080fd5b8101908080516040519392919084600160201b82111561216557600080fd5b90830190602082018581111561217a57600080fd5b82518660208202830111600160201b8211171561219657600080fd5b82525081516020918201928201910280838360005b838110156121c35781810151838201526020016121ab565b50505050905001604052505050925087836000815181106121e057fe5b602002602001015111156118d3576040805162461bcd60e51b815260206004820152601e60248201527f526f757465723a204558434553534956455f494e5055545f414d4f554e540000604482015290519081900360640190fd5b60075481565b6000546001600160a01b031690565b6060814281101561229a576040805162461bcd60e51b815260206004820152600f60248201526e149bdd5d195c8e8811561412549151608a1b604482015290519081900360640190fd5b6002546001600160a01b0316868660001981018181106122b657fe5b905060200201356001600160a01b03166001600160a01b031614612318576040805162461bcd60e51b81526020600482015260146024820152730a4deeae8cae47440929cac82989288bea082a8960631b604482015290519081900360640190fd5b611196888888888080602002602001604051908101604052809392919081815260200183836020028082843760009201829052508b93508a9250905060016140b4565b600080546001600160a01b0316612370614b37565b6001600160a01b031614905090565b6001546040805163e6a4390560e01b81526001600160a01b03858116600483015284811660248301529151600093929092169163e6a4390591604480820192602092909190829003018186803b1580156123d857600080fd5b505afa1580156123ec573d6000803e3d6000fd5b505050506040513d602081101561240257600080fd5b50519392505050565b600d546000906001600160a01b031661242657506000611292565b600061243183611230565b905061244b8160020a600a546136bd90919063ffffffff16565b9392505050565b60015460408051632b58577b60e21b815260048101869052602481018590526044810184905290516000926001600160a01b03169163ad615dec916064808301926020929190829003018186803b1580156111fc57600080fd5b600b5481565b60008082428110156124fd576040805162461bcd60e51b815260206004820152600f60248201526e149bdd5d195c8e8811561412549151608a1b604482015290519081900360640190fd5b60006125098b8b61237f565b604080516323b872dd60e01b81523360048201526001600160a01b03831660248201819052604482018d9052915192935090916323b872dd916064808201926020929091908290030181600087803b15801561256457600080fd5b505af1158015612578573d6000803e3d6000fd5b505050506040513d602081101561258e57600080fd5b50506040805163226bf2d160e21b81526001600160a01b03888116600483015282516000938493928616926389afcb44926024808301939282900301818787803b1580156125db57600080fd5b505af11580156125ef573d6000803e3d6000fd5b505050506040513d604081101561260557600080fd5b5080516020909101519092509050600061261e8e614b3b565b9050600061262b8e614b3b565b60015460408051632a26552b60e11b81526001600160a01b0386811660048301528085166024830152825194955060009493169263544caa5692604480840193919291829003018186803b15801561268257600080fd5b505afa158015612696573d6000803e3d6000fd5b505050506040513d60408110156126ac57600080fd5b505190506001600160a01b03838116908216146126ca5783856126cd565b84845b90995097508c8910156127115760405162461bcd60e51b8152600401808060200182810382526026815260200180615c9b6026913960400191505060405180910390fd5b8b8810156127505760405162461bcd60e51b8152600401808060200182810382526026815260200180615c756026913960400191505060405180910390fd5b5050505050505097509795505050505050565b606081428110156127ad576040805162461bcd60e51b815260206004820152600f60248201526e149bdd5d195c8e8811561412549151608a1b604482015290519081900360640190fd5b6002546001600160a01b031686866000816127c457fe5b905060200201356001600160a01b03166001600160a01b031614612826576040805162461bcd60e51b81526020600482015260146024820152730a4deeae8cae47440929cac82989288bea082a8960631b604482015290519081900360640190fd5b612869873488888080602002602001604051908101604052809392919081815260200183836020028082843760009201829052508b93508a92506001915061323e565b979650505050505050565b6001546001600160a01b031681565b60008082428110156128ce576040805162461bcd60e51b815260206004820152600f60248201526e149bdd5d195c8e8811561412549151608a1b604482015290519081900360640190fd5b60006128da8b8b61237f565b905088816001600160a01b0316636dbf2f7f886040518263ffffffff1660e01b815260040180826001600160a01b03166001600160a01b0316815260200191505060206040518083038186803b15801561293357600080fd5b505afa158015612947573d6000803e3d6000fd5b505050506040513d602081101561295d57600080fd5b505110156129b2576040805162461bcd60e51b815260206004820152601760248201527f6e6f74206f776e6572206f72206e6f7420656e6f756768000000000000000000604482015290519081900360640190fd5b604080516323b872dd60e01b81523360048201526001600160a01b03831660248201819052604482018c905291516323b872dd916064808201926020929091908290030181600087803b158015612a0857600080fd5b505af1158015612a1c573d6000803e3d6000fd5b505050506040513d6020811015612a3257600080fd5b50612a3d9050615b96565b6001600160a01b03808d166101408301528b81166101608301526040805163226bf2d160e21b815230600482015281516000938493908716926389afcb44926024808301939282900301818787803b158015612a9857600080fd5b505af1158015612aac573d6000803e3d6000fd5b505050506040513d6040811015612ac257600080fd5b50805160209091015160015461014086015161016087015160408051632a26552b60e11b81526001600160a01b03938416600482015291831660248301528051959750939550600094919092169263544caa569260448082019391829003018186803b158015612b3157600080fd5b505afa158015612b45573d6000803e3d6000fd5b505050506040513d6040811015612b5b57600080fd5b505190506001600160a01b038f811690821614612b79578183612b7c565b82825b61010086015260e085015250612ba49150612b9890508d6136ff565b8d898460e00151613969565b9450612bbf612bb28c6136ff565b8c89846101000151613969565b935088851015612c005760405162461bcd60e51b8152600401808060200182810382526030815260200180615ce76030913960400191505060405180910390fd5b87841015612c3f5760405162461bcd60e51b8152600401808060200182810382526030815260200180615d586030913960400191505060405180910390fd5b50505097509795505050505050565b6001546040805163d06ca61f60e01b815260048101858152602482019283528451604483015284516060946001600160a01b03169363d06ca61f93889388939092916064019060208086019102808383600083156114a657818101518382015260200161148e565b60025460009081908190612cd4908e906001600160a01b031661237f565b9050600087612ce3578c612ce7565b6000195b6040805163d505accf60e01b815233600482015230602482015260448101839052606481018c905260ff8a16608482015260a4810189905260c4810188905290519192506001600160a01b0384169163d505accf9160e48082019260009290919082900301818387803b158015612d5d57600080fd5b505af1158015612d71573d6000803e3d6000fd5b50505050612d838e8e8e8e8e8e611297565b909f909e509c50505050505050505050505050565b60095481565b60008060008342811015612deb576040805162461bcd60e51b815260206004820152600f60248201526e149bdd5d195c8e8811561412549151608a1b604482015290519081900360640190fd5b612df98c8c8c8c8c8c6143f6565b90945092506000612e0a8d8d61237f565b9050612e188d338388613a34565b612e248c338387613a34565b806001600160a01b0316636a627842886040518263ffffffff1660e01b815260040180826001600160a01b03166001600160a01b03168152602001915050602060405180830381600087803b158015612e7c57600080fd5b505af1158015612e90573d6000803e3d6000fd5b505050506040513d6020811015612ea657600080fd5b5051949d939c50939a509198505050505050505050565b60608142811015612f07576040805162461bcd60e51b815260206004820152600f60248201526e149bdd5d195c8e8811561412549151608a1b604482015290519081900360640190fd5b6002546001600160a01b03168686600081612f1e57fe5b905060200201356001600160a01b03166001600160a01b031614612f80576040805162461bcd60e51b81526020600482015260146024820152730a4deeae8cae47440929cac82989288bea082a8960631b604482015290519081900360640190fd5b612869348888888080602002602001604051908101604052809392919081815260200183836020028082843760009201829052508b93508a9250600191506140b4565b60008060008342811015613010576040805162461bcd60e51b815260206004820152600f60248201526e149bdd5d195c8e8811561412549151608a1b604482015290519081900360640190fd5b600061301b8b6136ff565b9050613025615b96565b61302e826137ec565b6080820152600554613048906001600160a01b03166137ec565b60a0820152608081015161305d908c9061394b565b815260a081015161306f90349061394b565b60208201526080810151613084908b9061394b565b604082015260a0810151613099908a9061394b565b6060820181905260055482516020840151604085015160009485946130cd9489946001600160a01b039092169390926143f6565b9150915060006130f28f600260009054906101000a90046001600160a01b031661237f565b9050613102838560800151614795565b9850613112828560a00151614795565b97506131208f86838c6147b3565b61312a8189614bf6565b806001600160a01b0316636a6278428c6040518263ffffffff1660e01b815260040180826001600160a01b03166001600160a01b03168152602001915050602060405180830381600087803b15801561318257600080fd5b505af1158015613196573d6000803e3d6000fd5b505050506040513d60208110156131ac57600080fd5b50519650348810156131c4576131c433893403614d69565b50505050505096509650969350505050565b6131de61235b565b61321d576040805162461bcd60e51b81526020600482018190526024820152600080516020615d38833981519152604482015290519081900360640190fd5b61322681614e61565b50565b600d546001600160a01b031681565b600a5481565b60608342811015613288576040805162461bcd60e51b815260206004820152600f60248201526e149bdd5d195c8e8811561412549151608a1b604482015290519081900360640190fd5b606061329388614f01565b905061329d615c29565b6132ba826000815181106132ad57fe5b60200260200101516137ec565b8152885182516132d59184916000199091019081106132ad57fe5b602082018190526000906132ea908d9061394b565b90506060600160009054906101000a90046001600160a01b03166001600160a01b0316631f00ca74838d6040518363ffffffff1660e01b81526004018083815260200180602001828103825283818151815260200191508051906020019060200280838360005b83811015613369578181015183820152602001613351565b50505050905001935050505060006040518083038186803b15801561338d57600080fd5b505afa1580156133a1573d6000803e3d6000fd5b505050506040513d6000823e601f3d908101601f1916820160405260208110156133ca57600080fd5b8101908080516040519392919084600160201b8211156133e957600080fd5b9083019060208201858111156133fe57600080fd5b82518660208202830111600160201b8211171561341a57600080fd5b82525081516020918201928201910280838360005b8381101561344757818101518382015260200161342f565b5050505090500160405250505090506134788160008151811061346657fe5b60200260200101518460000151614795565b6040840181905261349090600163ffffffff614add16565b604084018190528c10156134eb576040805162461bcd60e51b815260206004820152601e60248201527f526f757465723a204558434553534956455f494e5055545f414d4f554e540000604482015290519081900360640190fd5b8715613528576135236135198c60008151811061350457fe5b60200260200101518d60018151811061191957fe5b8460400151614bf6565b613584565b6135848b60008151811061353857fe5b60200260200101518560008151811061354d57fe5b602002602001015161357a8e60008151811061356557fe5b60200260200101518f60018151811061191957fe5b86604001516147b3565b61358f818c30613b91565b8a516000190187156135be576135b88b8383815181106135ab57fe5b602002602001015161398a565b50613605565b6136038582815181106135cd57fe5b60200260200101518d83815181106135e157fe5b60200260200101518d8585815181106135f657fe5b6020026020010151613969565b505b8b51604051908082528060200260200182016040528015613630578160200160208202803883390190505b50965083604001518760008151811061364557fe5b6020026020010181815250508d87828151811061365e57fe5b602002602001018181525050505050505050979650505050505050565b600061244b83836040518060400160405280601e81526020017f536166654d6174683a207375627472616374696f6e206f766572666c6f770000815250614f86565b600061244b83836040518060400160405280601a81526020017f536166654d6174683a206469766973696f6e206279207a65726f00000000000081525061501d565b60015460408051634219547760e01b815290516000926001600160a01b0316916342195477916004808301926020929190829003018186803b15801561374457600080fd5b505afa158015613758573d6000803e3d6000fd5b505050506040513d602081101561376e57600080fd5b50516040805163714bca1f60e11b81526001600160a01b0385811660048301529151919092169163e297943e916024808301926020929190829003018186803b1580156137ba57600080fd5b505afa1580156137ce573d6000803e3d6000fd5b505050506040513d60208110156137e457600080fd5b505192915050565b600080826001600160a01b031663182df0f56040518163ffffffff1660e01b815260040160206040518083038186803b15801561382857600080fd5b505afa15801561383c573d6000803e3d6000fd5b505050506040513d602081101561385257600080fd5b505160408051630ae9d70b60e41b815290519192506000916001600160a01b0386169163ae9d70b0916004808301926020929190829003018186803b15801561389a57600080fd5b505afa1580156138ae573d6000803e3d6000fd5b505050506040513d60208110156138c457600080fd5b505160408051636c540baf60e01b815290519192506000916001600160a01b03871691636c540baf916004808301926020929190829003018186803b15801561390c57600080fd5b505afa158015613920573d6000803e3d6000fd5b505050506040513d602081101561393657600080fd5b50514303918302919091029091019392505050565b600061244b8261127b85670de0b6b3a764000063ffffffff614a8416565b600080613977868685615082565b90508015611f8c57611f8c858583615240565b600080613996836153a3565b9050801561244b5761244b8482614d69565b60608082516040519080825280602002602001820160405280156139d6578160200160208202803883390190505b50905060005b8351811015613a2d57613a018482815181106139f457fe5b6020026020010151614b3b565b828281518110613a0d57fe5b6001600160a01b03909216602092830291909101909101526001016139dc565b5092915050565b604080516001600160a01b0385811660248301528481166044830152606480830185905283518084039091018152608490920183526020820180516001600160e01b03166323b872dd60e01b17815292518251600094606094938a169392918291908083835b60208310613ab95780518252601f199092019160209182019101613a9a565b6001836020036101000a0380198251168184511680821785525050505050509050019150506000604051808303816000865af19150503d8060008114613b1b576040519150601f19603f3d011682016040523d82523d6000602084013e613b20565b606091505b5091509150818015613b4e575080511580613b4e5750808060200190516020811015613b4b57600080fd5b50515b613b895760405162461bcd60e51b8152600401808060200182810382526024815260200180615df26024913960400191505060405180910390fd5b505050505050565b600154604080516370e264b360e11b815290516000926001600160a01b03169163e1c4c966916004808301926020929190829003018186803b158015613bd657600080fd5b505afa158015613bea573d6000803e3d6000fd5b505050506040513d6020811015613c0057600080fd5b5051905060005b60018451038110156140ad57600080858381518110613c2257fe5b6020026020010151868460010181518110613c3957fe5b602090810291909101015160015460408051632a26552b60e11b81526001600160a01b03808616600483015280851660248301528251959750939550600094939092169263544caa56926044808201939291829003018186803b158015613c9f57600080fd5b505afa158015613cb3573d6000803e3d6000fd5b505050506040513d6040811015613cc957600080fd5b505160015488519192506000916001600160a01b039091169063e6a43905908a9088908110613cf457fe5b60200260200101518a8860010181518110613d0b57fe5b60200260200101516040518363ffffffff1660e01b815260040180836001600160a01b03166001600160a01b03168152602001826001600160a01b03166001600160a01b031681526020019250505060206040518083038186803b158015613d7257600080fd5b505afa158015613d86573d6000803e3d6000fd5b505050506040513d6020811015613d9c57600080fd5b505189519091506000908a9060018801908110613db557fe5b60209081029190910101516003549091506001600160a01b031615613e65576003546040805163152cf14360e31b81523360048201526001600160a01b0388811660248301528781166044830152606482018590529151919092169163a9678a189160848083019260209291908290030181600087803b158015613e3857600080fd5b505af1158015613e4c573d6000803e3d6000fd5b505050506040513d6020811015613e6257600080fd5b50505b600080846001600160a01b0316876001600160a01b031614613e8957826000613e8d565b6000835b91509150600060028c51038910613ea4578a613eb7565b613eb7878d8b6002018151811061191957fe5b9050600e5460011415613f79576000613ed189878d61556c565b90508015613ee257613ee281615a43565b613eec898961237f565b6001600160a01b0316630442a865858585856040518563ffffffff1660e01b815260040180858152602001848152602001836001600160a01b03166001600160a01b03168152602001828152602001945050505050600060405180830381600087803b158015613f5b57600080fd5b505af1158015613f6f573d6000803e3d6000fd5b5050505050614099565b613f83888861237f565b6001600160a01b031663022c0d9f84848460006040519080825280601f01601f191660200182016040528015613fc0576020820181803883390190505b506040518563ffffffff1660e01b815260040180858152602001848152602001836001600160a01b03166001600160a01b0316815260200180602001828103825283818151815260200191508051906020019080838360005b83811015614031578181015183820152602001614019565b50505050905090810190601f16801561405e5780820380516001836020036101000a031916815260200191505b5095505050505050600060405180830381600087803b15801561408057600080fd5b505af1158015614094573d6000803e3d6000fd5b505050505b505060019096019550613c07945050505050565b5050505050565b606083428110156140fe576040805162461bcd60e51b815260206004820152600f60248201526e149bdd5d195c8e8811561412549151608a1b604482015290519081900360640190fd5b606061410988614f01565b9050614113615c29565b8a81604001818152505061412d826000815181106132ad57fe5b815281516141409083906000906132ad57fe5b60208201528051600090614155908d9061394b565b90506060600160009054906101000a90046001600160a01b03166001600160a01b031663d06ca61f838d6040518363ffffffff1660e01b81526004018083815260200180602001828103825283818151815260200191508051906020019060200280838360005b838110156141d45781810151838201526020016141bc565b50505050905001935050505060006040518083038186803b1580156141f857600080fd5b505afa15801561420c573d6000803e3d6000fd5b505050506040513d6000823e601f3d908101601f19168201604052602081101561423557600080fd5b8101908080516040519392919084600160201b82111561425457600080fd5b90830190602082018581111561426957600080fd5b82518660208202830111600160201b8211171561428557600080fd5b82525081516020918201928201910280838360005b838110156142b257818101518382015260200161429a565b5050505090500160405250505090506142e6816001835103815181106142d457fe5b60200260200101518460200151614795565b606084018190528c111561432b5760405162461bcd60e51b8152600401808060200182810382526022815260200180615dad6022913960400191505060405180910390fd5b871561434f5761434a6143448c60008151811061350457fe5b8e614bf6565b61435f565b61435f8b60008151811061353857fe5b61436a818c30613b91565b8a5160001901871561438c576143868b8383815181106135ab57fe5b5061439d565b61439b8582815181106135cd57fe5b505b8b516040519080825280602002602001820160405280156143c8578160200160208202803883390190505b5096508d876000815181106143d957fe5b602002602001018181525050836060015187828151811061365e57fe5b600080600061440489614b3b565b9050600061441189614b3b565b6001546040805163e6a4390560e01b81526001600160a01b03868116600483015284811660248301529151939450600093919092169163e6a43905916044808301926020929190829003018186803b15801561446c57600080fd5b505afa158015614480573d6000803e3d6000fd5b505050506040513d602081101561449657600080fd5b50516001600160a01b0316141561452b57600154604080516364e329cb60e11b81526001600160a01b03858116600483015284811660248301529151919092169163c9c653969160448083019260209291908290030181600087803b1580156144fe57600080fd5b505af1158015614512573d6000803e3d6000fd5b505050506040513d602081101561452857600080fd5b50505b6001546040805163354aedbd60e21b81526001600160a01b03858116600483015284811660248301528251600094859492169263d52bb6f4926044808301939192829003018186803b15801561458057600080fd5b505afa158015614594573d6000803e3d6000fd5b505050506040513d60408110156145aa57600080fd5b5080516020909101519092509050811580156145c4575080155b156145d457899550889450614786565b60015460408051632b58577b60e21b8152600481018d9052602481018590526044810184905290516000926001600160a01b03169163ad615dec916064808301926020929190829003018186803b15801561462e57600080fd5b505afa158015614642573d6000803e3d6000fd5b505050506040513d602081101561465857600080fd5b505190508981116146ad57878110156146a25760405162461bcd60e51b8152600401808060200182810382526023815260200180615c526023913960400191505060405180910390fd5b8a9650945084614784565b60015460408051632b58577b60e21b8152600481018d9052602481018590526044810186905290516000926001600160a01b03169163ad615dec916064808301926020929190829003018186803b15801561470757600080fd5b505afa15801561471b573d6000803e3d6000fd5b505050506040513d602081101561473157600080fd5b505190508b81111561473f57fe5b8981101561477e5760405162461bcd60e51b8152600401808060200182810382526023815260200180615e166023913960400191505060405180910390fd5b96508995505b505b50505050965096945050505050565b600061244b670de0b6b3a764000061127b858563ffffffff614a8416565b6147bf84333084613a34565b604080516370a0823160e01b815230600482015290516000916001600160a01b038616916370a0823191602480820192602092909190829003018186803b15801561480957600080fd5b505afa15801561481d573d6000803e3d6000fd5b505050506040513d602081101561483357600080fd5b50516040805163095ea7b360e01b81526001600160a01b0387811660048301526024820186905291519293509087169163095ea7b3916044808201926020929091908290030181600087803b15801561488b57600080fd5b505af115801561489f573d6000803e3d6000fd5b505050506040513d60208110156148b557600080fd5b50506040805163140e25ad60e31b81526004810184905290516000916001600160a01b0387169163a0712d689160248082019260209290919082900301818787803b15801561490357600080fd5b505af1158015614917573d6000803e3d6000fd5b505050506040513d602081101561492d57600080fd5b50516040805163095ea7b360e01b81526001600160a01b0388166004820181905260006024830181905292519394509263095ea7b392604480840193602093929083900390910190829087803b15801561498657600080fd5b505af115801561499a573d6000803e3d6000fd5b505050506040513d60208110156149b057600080fd5b505080156149f3576040805162461bcd60e51b815260206004820152600b60248201526a1b5a5b9d0819985a5b195960aa1b604482015290519081900360640190fd5b604080516370a0823160e01b815230600482015290516000916001600160a01b038816916370a0823191602480820192602092909190829003018186803b158015614a3d57600080fd5b505afa158015614a51573d6000803e3d6000fd5b505050506040513d6020811015614a6757600080fd5b50519050828103614a7a87308884613a34565b5050505050505050565b600082614a9357506000611594565b82820282848281614aa057fe5b041461244b5760405162461bcd60e51b8152600401808060200182810382526021815260200180615d176021913960400191505060405180910390fd5b60008282018381101561244b576040805162461bcd60e51b815260206004820152601b60248201527f536166654d6174683a206164646974696f6e206f766572666c6f770000000000604482015290519081900360640190fd5b3390565b60015460408051634219547760e01b815290516000926001600160a01b0316916342195477916004808301926020929190829003018186803b158015614b8057600080fd5b505afa158015614b94573d6000803e3d6000fd5b505050506040513d6020811015614baa57600080fd5b50516040805163b8d7b66960e01b81526001600160a01b0385811660048301529151919092169163b8d7b669916024808301926020929190829003018186803b1580156137ba57600080fd5b600554604080516370a0823160e01b815230600482015290516000926001600160a01b0316916370a08231916024808301926020929190829003018186803b158015614c4157600080fd5b505afa158015614c55573d6000803e3d6000fd5b505050506040513d6020811015614c6b57600080fd5b505160055460408051631249c58b60e01b815290519293506001600160a01b0390911691631249c58b918591600480830192600092919082900301818588803b158015614cb757600080fd5b505af1158015614ccb573d6000803e3d6000fd5b5050600554604080516370a0823160e01b81523060048201529051600095506001600160a01b0390921693506370a082319250602480820192602092909190829003018186803b158015614d1e57600080fd5b505afa158015614d32573d6000803e3d6000fd5b505050506040513d6020811015614d4857600080fd5b5051600554909150828203906140ad906001600160a01b0316308784613a34565b604080516000808252602082019092526001600160a01b0384169083906040518082805190602001908083835b60208310614db55780518252601f199092019160209182019101614d96565b6001836020036101000a03801982511681845116808217855250505050505090500191505060006040518083038185875af1925050503d8060008114614e17576040519150601f19603f3d011682016040523d82523d6000602084013e614e1c565b606091505b5050905080614e5c5760405162461bcd60e51b8152600401808060200182810382526023815260200180615dcf6023913960400191505060405180910390fd5b505050565b6001600160a01b038116614ea65760405162461bcd60e51b8152600401808060200182810382526026815260200180615cc16026913960400191505060405180910390fd5b600080546040516001600160a01b03808516939216917f8be0079c531659141344cd1fd0a4f28419497f9722a3daafe3b4186f6b6457e091a3600080546001600160a01b0319166001600160a01b0392909216919091179055565b6060808251604051908082528060200260200182016040528015614f2f578160200160208202803883390190505b50905060005b8351811015613a2d57614f5a848281518110614f4d57fe5b60200260200101516136ff565b828281518110614f6657fe5b6001600160a01b0390921660209283029190910190910152600101614f35565b600081848411156150155760405162461bcd60e51b81526004018080602001828103825283818151815260200191508051906020019080838360005b83811015614fda578181015183820152602001614fc2565b50505050905090810190601f1680156150075780820380516001836020036101000a031916815260200191505b509250505060405180910390fd5b505050900390565b6000818361506c5760405162461bcd60e51b8152602060048201818152835160248401528351909283926044909101919085019080838360008315614fda578181015183820152602001614fc2565b50600083858161507857fe5b0495945050505050565b604080516370a0823160e01b8152306004820152905160009182916001600160a01b038616916370a08231916024808301926020929190829003018186803b1580156150cd57600080fd5b505afa1580156150e1573d6000803e3d6000fd5b505050506040513d60208110156150f757600080fd5b50516040805163db006a7560e01b81526004810186905290519192506000916001600160a01b0388169163db006a7591602480830192602092919082900301818787803b15801561514757600080fd5b505af115801561515b573d6000803e3d6000fd5b505050506040513d602081101561517157600080fd5b5051905080156151b8576040805162461bcd60e51b815260206004820152600d60248201526c1c995919595b4819985a5b1959609a1b604482015290519081900360640190fd5b604080516370a0823160e01b815230600482015290516000916001600160a01b038816916370a0823191602480820192602092909190829003018186803b15801561520257600080fd5b505afa158015615216573d6000803e3d6000fd5b505050506040513d602081101561522c57600080fd5b50519050612869818463ffffffff61367b16565b604080516001600160a01b038481166024830152604480830185905283518084039091018152606490920183526020820180516001600160e01b031663a9059cbb60e01b178152925182516000946060949389169392918291908083835b602083106152bd5780518252601f19909201916020918201910161529e565b6001836020036101000a0380198251168184511680821785525050505050509050019150506000604051808303816000865af19150503d806000811461531f576040519150601f19603f3d011682016040523d82523d6000602084013e615324565b606091505b5091509150818015615352575080511580615352575080806020019051602081101561534f57600080fd5b50515b6140ad576040805162461bcd60e51b815260206004820152601f60248201527f5472616e7366657248656c7065723a205452414e534645525f4641494c454400604482015290519081900360640190fd5b600254604080516370a0823160e01b8152306004820152905160009283926001600160a01b03909116916370a0823191602480820192602092909190829003018186803b1580156153f357600080fd5b505afa158015615407573d6000803e3d6000fd5b505050506040513d602081101561541d57600080fd5b50516005546040805163db006a7560e01b81526004810187905290519293506000926001600160a01b039092169163db006a759160248082019260209290919082900301818787803b15801561547257600080fd5b505af1158015615486573d6000803e3d6000fd5b505050506040513d602081101561549c57600080fd5b5051905080156154e3576040805162461bcd60e51b815260206004820152600d60248201526c1c995919595b4819985a5b1959609a1b604482015290519081900360640190fd5b600254604080516370a0823160e01b815230600482015290516000926001600160a01b0316916370a08231916024808301926020929190829003018186803b15801561552e57600080fd5b505afa158015615542573d6000803e3d6000fd5b505050506040513d602081101561555857600080fd5b50519050611f8c818463ffffffff61367b16565b600080600160009054906101000a90046001600160a01b03166001600160a01b031663017e7e586040518163ffffffff1660e01b815260040160206040518083038186803b1580156155bd57600080fd5b505afa1580156155d1573d6000803e3d6000fd5b505050506040513d60208110156155e757600080fd5b505190506001600160a01b038116615636576040805162461bcd60e51b815260206004820152600d60248201526c666565546f206973207a65726f60981b604482015290519081900360640190fd5b6000615641866136ff565b6001600160a01b03166370a08231866040518263ffffffff1660e01b815260040180826001600160a01b03166001600160a01b0316815260200191505060206040518083038186803b15801561569657600080fd5b505afa1580156156aa573d6000803e3d6000fd5b505050506040513d60208110156156c057600080fd5b505160408051633f3b917d60e21b81526004810183905290519192506000916001600160a01b0388169163fcee45f4916024808301926020929190829003018186803b15801561570f57600080fd5b505afa158015615723573d6000803e3d6000fd5b505050506040513d602081101561573957600080fd5b505190506001600160a01b03878116908616141561575957809350615a39565b60005b600454811015615a375760006004828154811061577557fe5b60009182526020808320909101546001546040805163e6a4390560e01b81526001600160a01b038f81166004830152938416602482018190529151919650919092169263e6a4390592604480840193829003018186803b1580156157d857600080fd5b505afa1580156157ec573d6000803e3d6000fd5b505050506040513d602081101561580257600080fd5b505190506001600160a01b03811615615a2d57876001600160a01b0316826001600160a01b031614156158be576040805163a9059cbb60e01b81526001600160a01b0383166004820181905260248201879052915163a9059cbb916044808201926020929091908290030181600087803b15801561587f57600080fd5b505af1158015615893573d6000803e3d6000fd5b505050506040513d60208110156158a957600080fd5b506158b79050818588615a68565b9650615a26565b6001546040805163e6a4390560e01b81526001600160a01b0385811660048301528b811660248301529151600093929092169163e6a4390591604480820192602092909190829003018186803b15801561591757600080fd5b505afa15801561592b573d6000803e3d6000fd5b505050506040513d602081101561594157600080fd5b505190506001600160a01b03811661598a5760405162461bcd60e51b8152600401808060200182810382526025815260200180615d886025913960400191505060405180910390fd5b6040805163a9059cbb60e01b81526001600160a01b0384166004820181905260248201889052915163a9059cbb916044808201926020929091908290030181600087803b1580156159da57600080fd5b505af11580156159ee573d6000803e3d6000fd5b505050506040513d6020811015615a0457600080fd5b5060009050615a14838784615a68565b9050615a2182828a615a68565b985050505b5050615a37565b505060010161575c565b505b5050509392505050565b436009541415615a5a576006805482019055613226565b600680546007555543600955565b6000806000856001600160a01b0316630902f1ac6040518163ffffffff1660e01b815260040160606040518083038186803b158015615aa657600080fd5b505afa158015615aba573d6000803e3d6000fd5b505050506040513d6060811015615ad057600080fd5b5080516020909101516dffffffffffffffffffffffffffff9182169350169050615b13615b03838763ffffffff614add16565b61127b878463ffffffff614a8416565b60408051630442a86560e01b8152600060048201819052602482018490526001600160a01b03888116604484015260648301859052925193965091891692630442a8659260848084019391929182900301818387803b158015615b7557600080fd5b505af1158015615b89573d6000803e3d6000fd5b5050505050509392505050565b604051806101c001604052806000815260200160008152602001600081526020016000815260200160008152602001600081526020016000815260200160008152602001600081526020016000815260200160006001600160a01b0316815260200160006001600160a01b0316815260200160006001600160a01b0316815260200160006001600160a01b031681525090565b604051806080016040528060008152602001600081526020016000815260200160008152509056fe4164644c69717569646974793a20494e53554646494349454e545f425f414d4f554e5452656d6f76654c69717569646974793a20494e53554646494349454e545f425f414d4f554e5452656d6f76654c69717569646974793a20494e53554646494349454e545f415f414d4f554e544f776e61626c653a206e6577206f776e657220697320746865207a65726f206164647265737352656d6f76654c6971756964697479556e6465726c79696e673a20494e53554646494349454e545f415f414d4f554e54536166654d6174683a206d756c7469706c69636174696f6e206f766572666c6f774f776e61626c653a2063616c6c6572206973206e6f7420746865206f776e657252656d6f76654c6971756964697479556e6465726c79696e673a20494e53554646494349454e545f425f414d4f554e5471756f746520636f696e20686173206e6f207061697220746f20616e63686f72546f6b656e526f757465723a20494e53554646494349454e545f4f55545055545f414d4f554e545472616e7366657248656c7065723a204554485f5452414e534645525f4641494c45445472616e7366657248656c7065723a205452414e534645525f46524f4d5f4641494c45444164644c69717569646974793a20494e53554646494349454e545f415f414d4f554e54a265627a7a7231582080adcd7a05d7eefbf80fc879a6466db93c8fca049d08e63ba25daabaa3ef696764736f6c63430005100032",
  "devdoc": {
    "methods": {
      "isOwner()": {
        "details": "Returns true if the caller is the current owner."
      },
      "owner()": {
        "details": "Returns the address of the current owner."
      },
      "renounceOwnership()": {
        "details": "Leaves the contract without owner. It will not be possible to call `onlyOwner` functions anymore. Can only be called by the current owner.     * NOTE: Renouncing ownership will leave the contract without an owner, thereby removing any functionality that is only available to the owner."
      },
      "transferOwnership(address)": {
        "details": "Transfers ownership of the contract to a new account (`newOwner`). Can only be called by the current owner."
      }
    }
  },
  "userdoc": {
    "methods": {}
  },
  "storageLayout": {
    "storage": [
      {
        "astId": 220,
        "contract": "contracts/swap/heco/Router.sol:DeBankRouter",
        "label": "_owner",
        "offset": 0,
        "slot": "0",
        "type": "t_address"
      },
      {
        "astId": 29617,
        "contract": "contracts/swap/heco/Router.sol:DeBankRouter",
        "label": "factory",
        "offset": 0,
        "slot": "1",
        "type": "t_address"
      },
      {
        "astId": 29619,
        "contract": "contracts/swap/heco/Router.sol:DeBankRouter",
        "label": "WHT",
        "offset": 0,
        "slot": "2",
        "type": "t_address"
      },
      {
        "astId": 29621,
        "contract": "contracts/swap/heco/Router.sol:DeBankRouter",
        "label": "swapMining",
        "offset": 0,
        "slot": "3",
        "type": "t_address"
      },
      {
        "astId": 29624,
        "contract": "contracts/swap/heco/Router.sol:DeBankRouter",
        "label": "quoteTokens",
        "offset": 0,
        "slot": "4",
        "type": "t_array(t_address)dyn_storage"
      },
      {
        "astId": 29626,
        "contract": "contracts/swap/heco/Router.sol:DeBankRouter",
        "label": "cWHT",
        "offset": 0,
        "slot": "5",
        "type": "t_address"
      },
      {
        "astId": 29628,
        "contract": "contracts/swap/heco/Router.sol:DeBankRouter",
        "label": "allPairFee",
        "offset": 0,
        "slot": "6",
        "type": "t_uint256"
      },
      {
        "astId": 29630,
        "contract": "contracts/swap/heco/Router.sol:DeBankRouter",
        "label": "allPairFeeLastBlock",
        "offset": 0,
        "slot": "7",
        "type": "t_uint256"
      },
      {
        "astId": 29632,
        "contract": "contracts/swap/heco/Router.sol:DeBankRouter",
        "label": "startBlock",
        "offset": 0,
        "slot": "8",
        "type": "t_uint256"
      },
      {
        "astId": 29634,
        "contract": "contracts/swap/heco/Router.sol:DeBankRouter",
        "label": "currentBlock",
        "offset": 0,
        "slot": "9",
        "type": "t_uint256"
      },
      {
        "astId": 29636,
        "contract": "contracts/swap/heco/Router.sol:DeBankRouter",
        "label": "lpPerBlock",
        "offset": 0,
        "slot": "10",
        "type": "t_uint256"
      },
      {
        "astId": 29638,
        "contract": "contracts/swap/heco/Router.sol:DeBankRouter",
        "label": "traderPerBlock",
        "offset": 0,
        "slot": "11",
        "type": "t_uint256"
      },
      {
        "astId": 29641,
        "contract": "contracts/swap/heco/Router.sol:DeBankRouter",
        "label": "halvingPeriod",
        "offset": 0,
        "slot": "12",
        "type": "t_uint256"
      },
      {
        "astId": 29643,
        "contract": "contracts/swap/heco/Router.sol:DeBankRouter",
        "label": "rewardToken",
        "offset": 0,
        "slot": "13",
        "type": "t_address"
      },
      {
        "astId": 29645,
        "contract": "contracts/swap/heco/Router.sol:DeBankRouter",
        "label": "feeAlloc",
        "offset": 0,
        "slot": "14",
        "type": "t_uint256"
      }
    ],
    "types": {
      "t_address": {
        "encoding": "inplace",
        "label": "address",
        "numberOfBytes": "20"
      },
      "t_array(t_address)dyn_storage": {
        "base": "t_address",
        "encoding": "dynamic_array",
        "label": "address[]",
        "numberOfBytes": "32"
      },
      "t_uint256": {
        "encoding": "inplace",
        "label": "uint256",
        "numberOfBytes": "32"
      }
    }
  }
}