{
  "address": "0xB8124973f103a05317ae19c542b464dd03cd43ac",
  "abi": [
    {
      "inputs": [
        {
          "internalType": "address",
          "name": "_anchorToken",
          "type": "address"
        }
      ],
      "payable": false,
      "stateMutability": "nonpayable",
      "type": "constructor"
    },
    {
      "anonymous": false,
      "inputs": [
        {
          "indexed": true,
          "internalType": "address",
          "name": "previousOwner",
          "type": "address"
        },
        {
          "indexed": true,
          "internalType": "address",
          "name": "newOwner",
          "type": "address"
        }
      ],
      "name": "OwnershipTransferred",
      "type": "event"
    },
    {
      "anonymous": false,
      "inputs": [
        {
          "indexed": true,
          "internalType": "address",
          "name": "token0",
          "type": "address"
        },
        {
          "indexed": true,
          "internalType": "address",
          "name": "token1",
          "type": "address"
        },
        {
          "indexed": false,
          "internalType": "address",
          "name": "pair",
          "type": "address"
        },
        {
          "indexed": false,
          "internalType": "uint256",
          "name": "",
          "type": "uint256"
        }
      ],
      "name": "PairCreated",
      "type": "event"
    },
    {
      "constant": true,
      "inputs": [
        {
          "internalType": "uint256",
          "name": "",
          "type": "uint256"
        }
      ],
      "name": "allPairs",
      "outputs": [
        {
          "internalType": "address",
          "name": "",
          "type": "address"
        }
      ],
      "payable": false,
      "stateMutability": "view",
      "type": "function"
    },
    {
      "constant": true,
      "inputs": [],
      "name": "allPairsLength",
      "outputs": [
        {
          "internalType": "uint256",
          "name": "",
          "type": "uint256"
        }
      ],
      "payable": false,
      "stateMutability": "view",
      "type": "function"
    },
    {
      "constant": true,
      "inputs": [],
      "name": "anchorToken",
      "outputs": [
        {
          "internalType": "address",
          "name": "",
          "type": "address"
        }
      ],
      "payable": false,
      "stateMutability": "view",
      "type": "function"
    },
    {
      "constant": true,
      "inputs": [],
      "name": "compAddr",
      "outputs": [
        {
          "internalType": "address",
          "name": "",
          "type": "address"
        }
      ],
      "payable": false,
      "stateMutability": "view",
      "type": "function"
    },
    {
      "constant": false,
      "inputs": [
        {
          "internalType": "address",
          "name": "tokenA",
          "type": "address"
        },
        {
          "internalType": "address",
          "name": "tokenB",
          "type": "address"
        },
        {
          "internalType": "address",
          "name": "ctoken0",
          "type": "address"
        },
        {
          "internalType": "address",
          "name": "ctoken1",
          "type": "address"
        }
      ],
      "name": "createPair",
      "outputs": [
        {
          "internalType": "address",
          "name": "pair",
          "type": "address"
        }
      ],
      "payable": false,
      "stateMutability": "nonpayable",
      "type": "function"
    },
    {
      "constant": true,
      "inputs": [
        {
          "internalType": "address",
          "name": "",
          "type": "address"
        }
      ],
      "name": "feeRateOf",
      "outputs": [
        {
          "internalType": "uint256",
          "name": "",
          "type": "uint256"
        }
      ],
      "payable": false,
      "stateMutability": "view",
      "type": "function"
    },
    {
      "constant": true,
      "inputs": [],
      "name": "feeTo",
      "outputs": [
        {
          "internalType": "address",
          "name": "",
          "type": "address"
        }
      ],
      "payable": false,
      "stateMutability": "view",
      "type": "function"
    },
    {
      "constant": true,
      "inputs": [
        {
          "internalType": "uint256",
          "name": "amountOut",
          "type": "uint256"
        },
        {
          "internalType": "uint256",
          "name": "reserveIn",
          "type": "uint256"
        },
        {
          "internalType": "uint256",
          "name": "reserveOut",
          "type": "uint256"
        },
        {
          "internalType": "uint256",
          "name": "feeRate",
          "type": "uint256"
        }
      ],
      "name": "getAmountInFeeRate",
      "outputs": [
        {
          "internalType": "uint256",
          "name": "amountIn",
          "type": "uint256"
        }
      ],
      "payable": false,
      "stateMutability": "pure",
      "type": "function"
    },
    {
      "constant": true,
      "inputs": [
        {
          "internalType": "uint256",
          "name": "amountIn",
          "type": "uint256"
        },
        {
          "internalType": "uint256",
          "name": "reserveIn",
          "type": "uint256"
        },
        {
          "internalType": "uint256",
          "name": "reserveOut",
          "type": "uint256"
        },
        {
          "internalType": "uint256",
          "name": "feeRate",
          "type": "uint256"
        }
      ],
      "name": "getAmountOutFeeRate",
      "outputs": [
        {
          "internalType": "uint256",
          "name": "amountOut",
          "type": "uint256"
        }
      ],
      "payable": false,
      "stateMutability": "pure",
      "type": "function"
    },
    {
      "constant": true,
      "inputs": [
        {
          "internalType": "uint256",
          "name": "amountIn",
          "type": "uint256"
        },
        {
          "internalType": "uint256",
          "name": "reserveIn",
          "type": "uint256"
        },
        {
          "internalType": "uint256",
          "name": "reserveOut",
          "type": "uint256"
        },
        {
          "internalType": "uint256",
          "name": "feeRate",
          "type": "uint256"
        }
      ],
      "name": "getAmountOutFeeRateAnchorToken",
      "outputs": [
        {
          "internalType": "uint256",
          "name": "amountOut",
          "type": "uint256"
        }
      ],
      "payable": false,
      "stateMutability": "pure",
      "type": "function"
    },
    {
      "constant": true,
      "inputs": [
        {
          "internalType": "uint256",
          "name": "amountOut",
          "type": "uint256"
        },
        {
          "internalType": "address[]",
          "name": "path",
          "type": "address[]"
        },
        {
          "internalType": "address",
          "name": "to",
          "type": "address"
        }
      ],
      "name": "getAmountsIn",
      "outputs": [
        {
          "internalType": "uint256[]",
          "name": "amounts",
          "type": "uint256[]"
        }
      ],
      "payable": false,
      "stateMutability": "view",
      "type": "function"
    },
    {
      "constant": true,
      "inputs": [
        {
          "internalType": "uint256",
          "name": "amountIn",
          "type": "uint256"
        },
        {
          "internalType": "address[]",
          "name": "path",
          "type": "address[]"
        },
        {
          "internalType": "address",
          "name": "to",
          "type": "address"
        }
      ],
      "name": "getAmountsOut",
      "outputs": [
        {
          "internalType": "uint256[]",
          "name": "amounts",
          "type": "uint256[]"
        }
      ],
      "payable": false,
      "stateMutability": "view",
      "type": "function"
    },
    {
      "constant": true,
      "inputs": [
        {
          "internalType": "address",
          "name": "",
          "type": "address"
        },
        {
          "internalType": "address",
          "name": "",
          "type": "address"
        }
      ],
      "name": "getPair",
      "outputs": [
        {
          "internalType": "address",
          "name": "",
          "type": "address"
        }
      ],
      "payable": false,
      "stateMutability": "view",
      "type": "function"
    },
    {
      "constant": true,
      "inputs": [
        {
          "internalType": "address",
          "name": "tokenA",
          "type": "address"
        },
        {
          "internalType": "address",
          "name": "tokenB",
          "type": "address"
        }
      ],
      "name": "getReserves",
      "outputs": [
        {
          "internalType": "uint256",
          "name": "reserveA",
          "type": "uint256"
        },
        {
          "internalType": "uint256",
          "name": "reserveB",
          "type": "uint256"
        }
      ],
      "payable": false,
      "stateMutability": "view",
      "type": "function"
    },
    {
      "constant": true,
      "inputs": [
        {
          "internalType": "address",
          "name": "tokenA",
          "type": "address"
        },
        {
          "internalType": "address",
          "name": "tokenB",
          "type": "address"
        },
        {
          "internalType": "address",
          "name": "to",
          "type": "address"
        }
      ],
      "name": "getReservesFeeRate",
      "outputs": [
        {
          "internalType": "uint256",
          "name": "reserveA",
          "type": "uint256"
        },
        {
          "internalType": "uint256",
          "name": "reserveB",
          "type": "uint256"
        },
        {
          "internalType": "uint256",
          "name": "feeRate",
          "type": "uint256"
        },
        {
          "internalType": "bool",
          "name": "outAnchorToken",
          "type": "bool"
        }
      ],
      "payable": false,
      "stateMutability": "view",
      "type": "function"
    },
    {
      "constant": true,
      "inputs": [],
      "name": "initCodeHash",
      "outputs": [
        {
          "internalType": "bytes32",
          "name": "",
          "type": "bytes32"
        }
      ],
      "payable": false,
      "stateMutability": "view",
      "type": "function"
    },
    {
      "constant": true,
      "inputs": [],
      "name": "isOwner",
      "outputs": [
        {
          "internalType": "bool",
          "name": "",
          "type": "bool"
        }
      ],
      "payable": false,
      "stateMutability": "view",
      "type": "function"
    },
    {
      "constant": true,
      "inputs": [],
      "name": "lpFeeRate",
      "outputs": [
        {
          "internalType": "uint256",
          "name": "",
          "type": "uint256"
        }
      ],
      "payable": false,
      "stateMutability": "view",
      "type": "function"
    },
    {
      "constant": true,
      "inputs": [],
      "name": "owner",
      "outputs": [
        {
          "internalType": "address",
          "name": "",
          "type": "address"
        }
      ],
      "payable": false,
      "stateMutability": "view",
      "type": "function"
    },
    {
      "constant": true,
      "inputs": [
        {
          "internalType": "address",
          "name": "tokenA",
          "type": "address"
        },
        {
          "internalType": "address",
          "name": "tokenB",
          "type": "address"
        }
      ],
      "name": "pairFor",
      "outputs": [
        {
          "internalType": "address",
          "name": "pair",
          "type": "address"
        }
      ],
      "payable": false,
      "stateMutability": "view",
      "type": "function"
    },
    {
      "constant": true,
      "inputs": [
        {
          "internalType": "uint256",
          "name": "amountA",
          "type": "uint256"
        },
        {
          "internalType": "uint256",
          "name": "reserveA",
          "type": "uint256"
        },
        {
          "internalType": "uint256",
          "name": "reserveB",
          "type": "uint256"
        }
      ],
      "name": "quote",
      "outputs": [
        {
          "internalType": "uint256",
          "name": "amountB",
          "type": "uint256"
        }
      ],
      "payable": false,
      "stateMutability": "pure",
      "type": "function"
    },
    {
      "constant": false,
      "inputs": [],
      "name": "renounceOwnership",
      "outputs": [],
      "payable": false,
      "stateMutability": "nonpayable",
      "type": "function"
    },
    {
      "constant": true,
      "inputs": [],
      "name": "router",
      "outputs": [
        {
          "internalType": "address",
          "name": "",
          "type": "address"
        }
      ],
      "payable": false,
      "stateMutability": "view",
      "type": "function"
    },
    {
      "constant": false,
      "inputs": [
        {
          "internalType": "address",
          "name": "_token",
          "type": "address"
        }
      ],
      "name": "setAnchorToken",
      "outputs": [],
      "payable": false,
      "stateMutability": "nonpayable",
      "type": "function"
    },
    {
      "constant": false,
      "inputs": [
        {
          "internalType": "address",
          "name": "_feeTo",
          "type": "address"
        }
      ],
      "name": "setFeeTo",
      "outputs": [],
      "payable": false,
      "stateMutability": "nonpayable",
      "type": "function"
    },
    {
      "constant": false,
      "inputs": [
        {
          "internalType": "uint256",
          "name": "_rate",
          "type": "uint256"
        }
      ],
      "name": "setFeeToRate",
      "outputs": [],
      "payable": false,
      "stateMutability": "nonpayable",
      "type": "function"
    },
    {
      "constant": false,
      "inputs": [
        {
          "internalType": "address",
          "name": "pair",
          "type": "address"
        },
        {
          "internalType": "uint256",
          "name": "feeRate",
          "type": "uint256"
        }
      ],
      "name": "setPairFeeRate",
      "outputs": [],
      "payable": false,
      "stateMutability": "nonpayable",
      "type": "function"
    },
    {
      "constant": false,
      "inputs": [
        {
          "internalType": "address",
          "name": "_router",
          "type": "address"
        }
      ],
      "name": "setRouter",
      "outputs": [],
      "payable": false,
      "stateMutability": "nonpayable",
      "type": "function"
    },
    {
      "constant": false,
      "inputs": [
        {
          "internalType": "address",
          "name": "user",
          "type": "address"
        },
        {
          "internalType": "uint256",
          "name": "feeRate",
          "type": "uint256"
        }
      ],
      "name": "setUserFeeRate",
      "outputs": [],
      "payable": false,
      "stateMutability": "nonpayable",
      "type": "function"
    },
    {
      "constant": true,
      "inputs": [
        {
          "internalType": "address",
          "name": "tokenA",
          "type": "address"
        },
        {
          "internalType": "address",
          "name": "tokenB",
          "type": "address"
        }
      ],
      "name": "sortTokens",
      "outputs": [
        {
          "internalType": "address",
          "name": "token0",
          "type": "address"
        },
        {
          "internalType": "address",
          "name": "token1",
          "type": "address"
        }
      ],
      "payable": false,
      "stateMutability": "pure",
      "type": "function"
    },
    {
      "constant": false,
      "inputs": [
        {
          "internalType": "address",
          "name": "newOwner",
          "type": "address"
        }
      ],
      "name": "transferOwnership",
      "outputs": [],
      "payable": false,
      "stateMutability": "nonpayable",
      "type": "function"
    }
  ],
  "transactionHash": "0xcc186a23c591adcf0853bf5b6bc2523c3b9f519582299d47443ad280f8d5352c",
  "args": [
    "0x04F535663110A392A6504839BEeD34E019FdB4E0"
  ],
  "solcInputHash": "82e4681e6b289fe1aa0873e789428594",
  "bytecode": "0x608060405260006002553480156200001657600080fd5b506040516200993938038062009939833981810160405260208110156200003c57600080fd5b50516000620000536001600160e01b03620001b016565b600080546001600160a01b0319166001600160a01b0383169081178255604051929350917f8be0079c531659141344cd1fd0a4f28419497f9722a3daafe3b4186f6b6457e0908290a350604051620000ae60208201620001b4565b6020820181038252601f19601f820116604052506040516020018082805190602001908083835b60208310620000f65780518252601f199092019160209182019101620000d5565b51815160209384036101000a60001901801990921691161790526040805192909401828103601f1901835290935280519201919091206005555050600380546001600160a01b0319166001600160a01b0384811691909117918290551615159050620001a9576040805162461bcd60e51b815260206004820152601a60248201527f65546f6b656e206f6620616e63686f72546f6b656e2069732030000000000000604482015290519081900360640190fd5b50620001c2565b3390565b613b238062005e1683390190565b615c4480620001d26000396000f3fe608060405234801561001057600080fd5b50600436106101e55760003560e01c80638f32d59b1161010f578063d779e270116100a2578063f2fde38b11610071578063f2fde38b14610777578063f46901ed1461079d578063f5b9848d146107c3578063f887ea40146107cb576101e5565b8063d779e27014610713578063db4c545e14610739578063e1c4c96614610741578063e6a4390514610749576101e5565b8063c0d78655116100de578063c0d78655146105c5578063d14641d2146105eb578063d2b364c614610617578063d52bb6f4146106cc576101e5565b80638f32d59b1461053557806396ed28f914610551578063ad615dec1461057f578063b5e4aa72146105a8576101e5565b806332d1b8d2116101875780636e2b0fa7116101565780636e2b0fa714610496578063715018a6146104c55780637f33ffc3146104cd5780638da5cb5b1461052d576101e5565b806332d1b8d2146103cd5780634da8eeb0146103fc578063544caa561461043a578063574f2ba31461048e576101e5565b8063197a1569116101c3578063197a1569146103545780631e3dd18b1461035c5780632f167f051461037957806332175e85146103a1576101e5565b8063017e7e58146101ea5780630b64aa631461020e5780630c49bd131461024f575b600080fd5b6101f26107d3565b604080516001600160a01b039092168252519081900360200190f35b61023d6004803603608081101561022457600080fd5b50803590602081013590604081013590606001356107e2565b60408051918252519081900360200190f35b6103046004803603606081101561026557600080fd5b8135919081019060408101602082013564010000000081111561028757600080fd5b82018360208201111561029957600080fd5b803590602001918460208302840111640100000000831117156102bb57600080fd5b919080806020026020016040519081016040528093929190818152602001838360200280828437600092019190915250929550505090356001600160a01b031691506109479050565b60408051602080825283518183015283519192839290830191858101910280838360005b83811015610340578181015183820152602001610328565b505050509050019250505060405180910390f35b6101f2610a80565b6101f26004803603602081101561037257600080fd5b5035610a8f565b61039f6004803603602081101561038f57600080fd5b50356001600160a01b0316610ab6565b005b61039f600480360360408110156103b757600080fd5b506001600160a01b038135169060200135610b1f565b61023d600480360360808110156103e357600080fd5b5080359060208101359060408101359060600135610b88565b6101f26004803603608081101561041257600080fd5b506001600160a01b038135811691602081013582169160408201358116916060013516610c70565b6104686004803603604081101561045057600080fd5b506001600160a01b038135811691602001351661114b565b604080516001600160a01b03938416815291909216602082015281519081900390910190f35b61023d61123b565b61023d600480360360808110156104ac57600080fd5b5080359060208101359060408101359060600135611241565b61039f611329565b610505600480360360608110156104e357600080fd5b506001600160a01b0381358116916020810135821691604090910135166113ba565b6040805194855260208501939093528383019190915215156060830152519081900360800190f35b6101f26115ed565b61053d6115fc565b604080519115158252519081900360200190f35b6101f26004803603604081101561056757600080fd5b506001600160a01b0381358116916020013516611620565b61023d6004803603606081101561059557600080fd5b508035906020810135906040013561164a565b61039f600480360360208110156105be57600080fd5b503561170c565b61039f600480360360208110156105db57600080fd5b50356001600160a01b03166117a9565b61039f6004803603604081101561060157600080fd5b506001600160a01b038135169060200135611812565b6103046004803603606081101561062d57600080fd5b8135919081019060408101602082013564010000000081111561064f57600080fd5b82018360208201111561066157600080fd5b8035906020019184602083028401116401000000008311171561068357600080fd5b919080806020026020016040519081016040528093929190818152602001838360200280828437600092019190915250929550505090356001600160a01b031691506118fb9050565b6106fa600480360360408110156106e257600080fd5b506001600160a01b0381358116916020013516611a79565b6040805192835260208301919091528051918290030190f35b61023d6004803603602081101561072957600080fd5b50356001600160a01b0316611bc0565b61023d611bd2565b6101f2611bd8565b6101f26004803603604081101561075f57600080fd5b506001600160a01b0381358116916020013516611be7565b61039f6004803603602081101561078d57600080fd5b50356001600160a01b0316611c0d565b61039f600480360360208110156107b357600080fd5b50356001600160a01b0316611c60565b61023d611cc9565b6101f2611ccf565b6001546001600160a01b031681565b60008085116108225760405162461bcd60e51b8152600401808060200182810382526026815260200180615b156026913960400191505060405180910390fd5b6000841180156108325750600083115b61086d5760405162461bcd60e51b8152600401808060200182810382526023815260200180615bed6023913960400191505060405180910390fd5b60006108848661271085900363ffffffff611cde16565b905060008161089b8861271063ffffffff611cde16565b03905060006108c2826108b68961271063ffffffff611cde16565b9063ffffffff611d4016565b6108d2838863ffffffff611cde16565b816108d957fe5b0495869003600019019590506108f182612710611d9a565b909603956000610907848863ffffffff611cde16565b9050600061092d6127106109218b8d63ffffffff611d4016565b9063ffffffff611cde16565b905080828161093857fe5b049a9950505050505050505050565b606060028351101561099c576040805162461bcd60e51b81526020600482015260196024820152780a6eec2e08cc2c6e8dee4f27440929cac82989288bea082a89603b1b604482015290519081900360640190fd5b82516040519080825280602002602001820160405280156109c7578160200160208202803883390190505b50905083816001835103815181106109db57fe5b60209081029190910101528251600019015b8015610a78576000806000610a2c876001860381518110610a0a57fe5b6020026020010151888681518110610a1e57fe5b6020026020010151886113ba565b50925092509250610a52858581518110610a4257fe5b6020026020010151848484610b88565b856001860381518110610a6157fe5b6020908102919091010152505050600019016109ed565b509392505050565b6006546001600160a01b031681565b60098181548110610a9c57fe5b6000918252602090912001546001600160a01b0316905081565b610abe6115fc565b610afd576040805162461bcd60e51b81526020600482018190526024820152600080516020615bcd833981519152604482015290519081900360640190fd5b600380546001600160a01b0319166001600160a01b0392909216919091179055565b610b276115fc565b610b66576040805162461bcd60e51b81526020600482018190526024820152600080516020615bcd833981519152604482015290519081900360640190fd5b6001600160a01b03909116600090815260076020526040902060019091019055565b6000808511610bc85760405162461bcd60e51b8152600401808060200182810382526027815260200180615b3b6027913960400191505060405180910390fd5b600084118015610bd85750600083115b610c135760405162461bcd60e51b8152600401808060200182810382526023815260200180615bed6023913960400191505060405180910390fd5b6000610c2b612710610921878963ffffffff611cde16565b90506000610c48612710859003610921878a63ffffffff611ddc16565b9050610c656001828481610c5857fe5b049063ffffffff611d4016565b979650505050505050565b6000836001600160a01b0316856001600160a01b03161415610cd9576040805162461bcd60e51b815260206004820181905260248201527f53776170466163746f72793a204944454e544943414c5f414444524553534553604482015290519081900360640190fd5b84846001600160a01b038082169083161115610cf757509192915083855b6001600160a01b038216610d4e576040805162461bcd60e51b815260206004820152601960248201527853776170466163746f72793a205a45524f5f4144445245535360381b604482015290519081900360640190fd5b6001600160a01b03828116600090815260086020908152604080832085851684529091529020541615610dc8576040805162461bcd60e51b815260206004820152601860248201527f53776170466163746f72793a20504149525f4558495354530000000000000000604482015290519081900360640190fd5b606060405180602001610dda90611fbe565b6020820181038252601f19601f8201166040525090506000838360405160200180836001600160a01b03166001600160a01b031660601b8152601401826001600160a01b03166001600160a01b031660601b815260140192505050604051602081830303815290604052805190602001209050808251602084016000f560408051637c643b2f60e11b81526001600160a01b03878116600483015286811660248301528a81166044830152898116606483015291519297509087169163f8c8765e9160848082019260009290919082900301818387803b158015610ebd57600080fd5b505af1158015610ed1573d6000803e3d6000fd5b505050508460086000866001600160a01b03166001600160a01b031681526020019081526020016000206000856001600160a01b03166001600160a01b0316815260200190815260200160002060006101000a8154816001600160a01b0302191690836001600160a01b031602179055508460086000856001600160a01b03166001600160a01b031681526020019081526020016000206000866001600160a01b03166001600160a01b0316815260200190815260200160002060006101000a8154816001600160a01b0302191690836001600160a01b031602179055508460086000896001600160a01b03166001600160a01b031681526020019081526020016000206000886001600160a01b03166001600160a01b0316815260200190815260200160002060006101000a8154816001600160a01b0302191690836001600160a01b031602179055508460086000886001600160a01b03166001600160a01b031681526020019081526020016000206000896001600160a01b03166001600160a01b0316815260200190815260200160002060006101000a8154816001600160a01b0302191690836001600160a01b0316021790555060098590806001815401808255809150509060018203906000526020600020016000909192909190916101000a8154816001600160a01b0302191690836001600160a01b0316021790555050826001600160a01b0316846001600160a01b03167f0d3648bd0f6ba80134a33ba9275ac585d9d315f0ad8355cddefde31afa28d0e98760098054905060405180836001600160a01b03166001600160a01b031681526020018281526020019250505060405180910390a350505050949350505050565b600080826001600160a01b0316846001600160a01b031614156111b5576040805162461bcd60e51b815260206004820181905260248201527f53776170466163746f72793a204944454e544943414c5f414444524553534553604482015290519081900360640190fd5b826001600160a01b0316846001600160a01b0316106111d55782846111d8565b83835b90925090506001600160a01b038216611234576040805162461bcd60e51b815260206004820152601960248201527853776170466163746f72793a205a45524f5f4144445245535360381b604482015290519081900360640190fd5b9250929050565b60095490565b60008085116112815760405162461bcd60e51b8152600401808060200182810382526026815260200180615b156026913960400191505060405180910390fd5b6000841180156112915750600083115b6112cc5760405162461bcd60e51b8152600401808060200182810382526023815260200180615bed6023913960400191505060405180910390fd5b60006112e38661271085900363ffffffff611cde16565b905060006112f7828663ffffffff611cde16565b90506000611311836108b68961271063ffffffff611cde16565b905080828161131c57fe5b0498975050505050505050565b6113316115fc565b611370576040805162461bcd60e51b81526020600482018190526024820152600080516020615bcd833981519152604482015290519081900360640190fd5b600080546040516001600160a01b03909116907f8be0079c531659141344cd1fd0a4f28419497f9722a3daafe3b4186f6b6457e0908390a3600080546001600160a01b0319169055565b60008060008060006113cc888861114b565b509050806001600160a01b0316886001600160a01b031614806114005750806001600160a01b0316876001600160a01b0316145b611451576040805162461bcd60e51b815260206004820181905260248201527f706172616d2073686f756c6420626520746f6b656e206e6f742065746f6b656e604482015290519081900360640190fd5b600061145d8989611620565b9050600080826001600160a01b0316630902f1ac6040518163ffffffff1660e01b815260040160606040518083038186803b15801561149b57600080fd5b505afa1580156114af573d6000803e3d6000fd5b505050506040513d60608110156114c557600080fd5b5080516020918201516001600160a01b038c166000908152600790935260409092205497506001600160701b0390811693501690508561156b57826001600160a01b031663978bbdb96040518163ffffffff1660e01b815260040160206040518083038186803b15801561153857600080fd5b505afa15801561154c573d6000803e3d6000fd5b505050506040513d602081101561156257600080fd5b50519550611572565b6001860395505b836001600160a01b03168b6001600160a01b0316146115a1576003546001600160a01b038c81169116146115b3565b6003546001600160a01b038b81169116145b9450836001600160a01b03168b6001600160a01b0316146115d55780826115d8565b81815b80985081995050505050505093509350935093565b6000546001600160a01b031690565b600080546001600160a01b0316611611611e1e565b6001600160a01b031614905090565b6001600160a01b039182166000908152600860209081526040808320938516835292905220541690565b60008084116116a0576040805162461bcd60e51b815260206004820181905260248201527f53776170466163746f72793a20494e53554646494349454e545f414d4f554e54604482015290519081900360640190fd5b6000831180156116b05750600082115b6116eb5760405162461bcd60e51b8152600401808060200182810382526023815260200180615bed6023913960400191505060405180910390fd5b826116fc858463ffffffff611cde16565b8161170357fe5b04949350505050565b6117146115fc565b611753576040805162461bcd60e51b81526020600482018190526024820152600080516020615bcd833981519152604482015290519081900360640190fd5b600081116117925760405162461bcd60e51b8152600401808060200182810382526027815260200180615b856027913960400191505060405180910390fd5b6117a381600163ffffffff611ddc16565b60025550565b6117b16115fc565b6117f0576040805162461bcd60e51b81526020600482018190526024820152600080516020615bcd833981519152604482015290519081900360640190fd5b600480546001600160a01b0319166001600160a01b0392909216919091179055565b61181a6115fc565b611859576040805162461bcd60e51b81526020600482018190526024820152600080516020615bcd833981519152604482015290519081900360640190fd5b60c88111156118995760405162461bcd60e51b8152600401808060200182810382526023815260200180615b626023913960400191505060405180910390fd5b816001600160a01b0316637b84fda5826040518263ffffffff1660e01b815260040180828152602001915050600060405180830381600087803b1580156118df57600080fd5b505af11580156118f3573d6000803e3d6000fd5b505050505050565b6060600283511015611950576040805162461bcd60e51b81526020600482015260196024820152780a6eec2e08cc2c6e8dee4f27440929cac82989288bea082a89603b1b604482015290519081900360640190fd5b825160405190808252806020026020018201604052801561197b578160200160208202803883390190505b509050838160008151811061198c57fe5b60200260200101818152505060005b6001845103811015610a78576000806000806119e18886815181106119bc57fe5b60200260200101518987600101815181106119d357fe5b6020026020010151896113ba565b93509350935093508015611a2e57611a0e8686815181106119fe57fe5b60200260200101518585856107e2565b868660010181518110611a1d57fe5b602002602001018181525050611a69565b611a4d868681518110611a3d57fe5b6020026020010151858585611241565b868660010181518110611a5c57fe5b6020026020010181815250505b50506001909201915061199b9050565b6000806000611a88858561114b565b509050806001600160a01b0316856001600160a01b03161480611abc5750806001600160a01b0316846001600160a01b0316145b611b0d576040805162461bcd60e51b815260206004820181905260248201527f706172616d2073686f756c6420626520746f6b656e206e6f742065746f6b656e604482015290519081900360640190fd5b600080611b1a8787611620565b6001600160a01b0316630902f1ac6040518163ffffffff1660e01b815260040160606040518083038186803b158015611b5257600080fd5b505afa158015611b66573d6000803e3d6000fd5b505050506040513d6060811015611b7c57600080fd5b5080516020909101516001600160701b0391821693501690506001600160a01b0387811690841614611baf578082611bb2565b81815b909890975095505050505050565b60076020526000908152604090205481565b60055481565b6003546001600160a01b031681565b60086020908152600092835260408084209091529082529020546001600160a01b031681565b611c156115fc565b611c54576040805162461bcd60e51b81526020600482018190526024820152600080516020615bcd833981519152604482015290519081900360640190fd5b611c5d81611e22565b50565b611c686115fc565b611ca7576040805162461bcd60e51b81526020600482018190526024820152600080516020615bcd833981519152604482015290519081900360640190fd5b600180546001600160a01b0319166001600160a01b0392909216919091179055565b60025481565b6004546001600160a01b031681565b600082611ced57506000611d3a565b82820282848281611cfa57fe5b0414611d375760405162461bcd60e51b8152600401808060200182810382526021815260200180615bac6021913960400191505060405180910390fd5b90505b92915050565b600082820183811015611d37576040805162461bcd60e51b815260206004820152601b60248201527f536166654d6174683a206164646974696f6e206f766572666c6f770000000000604482015290519081900360640190fd5b6000611d3783836040518060400160405280601a81526020017f536166654d6174683a206469766973696f6e206279207a65726f000000000000815250611ec2565b6000611d3783836040518060400160405280601e81526020017f536166654d6174683a207375627472616374696f6e206f766572666c6f770000815250611f64565b3390565b6001600160a01b038116611e675760405162461bcd60e51b8152600401808060200182810382526026815260200180615aef6026913960400191505060405180910390fd5b600080546040516001600160a01b03808516939216917f8be0079c531659141344cd1fd0a4f28419497f9722a3daafe3b4186f6b6457e091a3600080546001600160a01b0319166001600160a01b0392909216919091179055565b60008183611f4e5760405162461bcd60e51b81526004018080602001828103825283818151815260200191508051906020019080838360005b83811015611f13578181015183820152602001611efb565b50505050905090810190601f168015611f405780820380516001836020036101000a031916815260200191505b509250505060405180910390fd5b506000838581611f5a57fe5b0495945050505050565b60008184841115611fb65760405162461bcd60e51b8152602060048201818152835160248401528351909283926044909101919085019080838360008315611f13578181015183820152602001611efb565b505050900390565b613b2380611fcc8339019056fe6080604052601e6006556001601a5534801561001a57600080fd5b506040514690806052613ad1823960408051918290036052018220828201825260088352672628102a37b5b2b760c11b6020938401528151808301835260018152603160f81b908401528151808401919091527fc285f7cfebd35a59cb5c0c032add67fdc80dcde2f8127cb94e4b49a72469ed02818301527fc89efdaa54c0f20c7adf612882df0950f5a951637e0307cdcb4c672f298b8bc6606082015260808101949094523060a0808601919091528151808603909101815260c090940190528251920191909120600d5550600080546001600160a01b031916331790556139c9806101086000396000f3fe608060405234801561001057600080fd5b50600436106102955760003560e01c80637d5106e211610167578063d21220a7116100ce578063e5b2aab011610087578063e5b2aab0146107cf578063f4a70bd2146107d7578063f5b9848d146107df578063f8c8765e146107e7578063fcee45f414610825578063fff6cae91461084257610295565b8063d21220a714610730578063d2890a0114610738578063d505accf14610740578063d939fa8a14610791578063dd62ed3e14610799578063e12ed13c146107c757610295565b8063a9059cbb11610120578063a9059cbb1461069a578063ad9b8024146106c6578063ba9a7a56146106f2578063bc25cf77146106fa578063bc9c5c6a14610720578063c45a01551461072857610295565b80637d5106e2146106155780637ecebe001461061d57806389afcb4414610643578063948023ab1461068257806395d89b411461068a578063978bbdb91461069257610295565b806330adf81f1161020b5780635a3d5493116101c45780635a3d5493146105945780635a76f25e1461059c5780636a627842146105a457806370a08231146105ca5780637464fc3d146105f05780637b84fda5146105f857610295565b806330adf81f1461051d578063313ce567146105255780633644e51514610543578063443cb4bc1461054b578063496cf3e41461056f5780635909c0d51461058c57610295565b80630dfe16811161025d5780630dfe1681146104555780631183f8721461047957806317560715146104bd57806318160ddd146104d75780631df4ccfc146104df57806323b872dd146104e757610295565b8063022c0d9f1461029a5780630442a8651461032857806306fdde03146103605780630902f1ac146103dd578063095ea7b314610415575b600080fd5b610326600480360360808110156102b057600080fd5b8135916020810135916001600160a01b0360408301351691908101906080810160608201356401000000008111156102e757600080fd5b8201836020820111156102f957600080fd5b8035906020019184600183028401116401000000008311171561031b57600080fd5b50909250905061084a565b005b6103266004803603608081101561033e57600080fd5b508035906020810135906001600160a01b036040820135169060600135610d92565b61036861128f565b6040805160208082528351818301528351919283929083019185019080838360005b838110156103a257818101518382015260200161038a565b50505050905090810190601f1680156103cf5780820380516001836020036101000a031916815260200191505b509250505060405180910390f35b6103e56112b3565b604080516001600160701b03948516815292909316602083015263ffffffff168183015290519081900360600190f35b6104416004803603604081101561042b57600080fd5b506001600160a01b0381351690602001356112da565b604080519115158252519081900360200190f35b61045d6112f1565b604080516001600160a01b039092168252519081900360200190f35b61049f6004803603602081101561048f57600080fd5b50356001600160a01b0316611300565b60408051938452602084019290925282820152519081900360600190f35b6104c5611321565b60408051918252519081900360200190f35b6104c5611327565b6104c561132d565b610441600480360360608110156104fd57600080fd5b506001600160a01b03813581169160208101359091169060400135611333565b6104c56113cd565b61052d6113f1565b6040805160ff9092168252519081900360200190f35b6104c56113f6565b6105536113fc565b604080516001600160701b039092168252519081900360200190f35b6103266004803603602081101561058557600080fd5b503561140b565b6104c5611467565b6104c561146d565b610553611473565b6104c5600480360360208110156105ba57600080fd5b50356001600160a01b0316611489565b6104c5600480360360208110156105e057600080fd5b50356001600160a01b031661178b565b6104c561179d565b6103266004803603602081101561060e57600080fd5b50356117a3565b6104c5611848565b6104c56004803603602081101561063357600080fd5b50356001600160a01b031661184e565b6106696004803603602081101561065957600080fd5b50356001600160a01b0316611860565b6040805192835260208301919091528051918290030190f35b61045d611c1b565b610368611c2a565b6104c5611c49565b610441600480360360408110156106b057600080fd5b506001600160a01b038135169060200135611c4f565b6104c5600480360360408110156106dc57600080fd5b506001600160a01b038135169060200135611c5c565b6104c5611d46565b6103266004803603602081101561071057600080fd5b50356001600160a01b0316611d4c565b6104c5611ebb565b61045d611ec1565b61045d611ed0565b6104c5611edf565b610326600480360360e081101561075657600080fd5b506001600160a01b03813581169160208101359091169060408101359060608101359060ff6080820135169060a08101359060c00135611ee5565b61045d6120e2565b6104c5600480360360408110156107af57600080fd5b506001600160a01b03813581169160200135166120f1565b6104c561210e565b6104c5612114565b6104c561211a565b6104c5612120565b610326600480360360808110156107fd57600080fd5b506001600160a01b038135811691602081013582169160408201358116916060013516612126565b6104c56004803603602081101561083b57600080fd5b5035612235565b61032661225a565b601a54600114610896576040805162461bcd60e51b8152602060048201526012602482015271111950985b9ad4ddd85c0e881313d0d2d15160721b604482015290519081900360640190fd5b6000601a55841515806108a95750600084115b6108e45760405162461bcd60e51b81526004018080602001828103825260268152602001806138da6026913960400191505060405180910390fd5b6000806108ef6112b3565b5091509150816001600160701b0316871080156109145750806001600160701b031686105b61094f5760405162461bcd60e51b81526004018080602001828103825260228152602001806139006022913960400191505060405180910390fd5b60035460045460009182916001600160a01b0391821691908116908916821480159061098d5750806001600160a01b0316896001600160a01b031614155b6109d7576040805162461bcd60e51b8152602060048201526016602482015275446542616e6b537761703a20494e56414c49445f544f60501b604482015290519081900360640190fd5b8a156109e8576109e8828a8d6123bd565b89156109f9576109f9818a8c6123bd565b8615610ab457886001600160a01b031663226dc882338d8d8c8c6040518663ffffffff1660e01b815260040180866001600160a01b03166001600160a01b03168152602001858152602001848152602001806020018281038252848482818152602001925080828437600081840152601f19601f8201169050808301925050509650505050505050600060405180830381600087803b158015610a9b57600080fd5b505af1158015610aaf573d6000803e3d6000fd5b505050505b604080516370a0823160e01b815230600482015290516001600160a01b038416916370a08231916024808301926020929190829003018186803b158015610afa57600080fd5b505afa158015610b0e573d6000803e3d6000fd5b505050506040513d6020811015610b2457600080fd5b5051604080516370a0823160e01b815230600482015290519195506001600160a01b038316916370a0823191602480820192602092909190829003018186803b158015610b7057600080fd5b505afa158015610b84573d6000803e3d6000fd5b505050506040513d6020811015610b9a57600080fd5b5051925060009150506001600160701b0385168a90038311610bbd576000610bcc565b89856001600160701b03160383035b9050600089856001600160701b0316038311610be9576000610bf8565b89856001600160701b03160383035b90506000821180610c095750600081115b610c445760405162461bcd60e51b81526004018080602001828103825260258152602001806138b56025913960400191505060405180910390fd5b6000610c7c610c5e6006548561254f90919063ffffffff16565b610c708761271063ffffffff61254f16565b9063ffffffff6125af16565b90506000610c98610c5e6006548561254f90919063ffffffff16565b9050610cca6305f5e100610cbe6001600160701b038b8116908b1663ffffffff61254f16565b9063ffffffff61254f16565b610cda838363ffffffff61254f16565b1015610d1e576040805162461bcd60e51b815260206004820152600e60248201526d446542616e6b537761703a204b3160901b604482015290519081900360640190fd5b5050610d2c848488886125f1565b60408051838152602081018390528082018d9052606081018c905290516001600160a01b038b169133917fd78ad95fa46c994b6551d0da85fc275fe613ce37657fb8d5e3d130840159d8229181900360800190a350506001601a55505050505050505050565b601a54600114610dde576040805162461bcd60e51b8152602060048201526012602482015271111950985b9ad4ddd85c0e881313d0d2d15160721b604482015290519081900360640190fd5b6000601a81905554604080516303e21fa960e61b815290516001600160a01b039092169163f887ea4091600480820192602092909190829003018186803b158015610e2857600080fd5b505afa158015610e3c573d6000803e3d6000fd5b505050506040513d6020811015610e5257600080fd5b50516001600160a01b03163314610eb0576040805162461bcd60e51b815260206004820152601760248201527f446542616e6b537761703a20726f75746572206f6e6c79000000000000000000604482015290519081900360640190fd5b8015610ebf57610ebf816127ae565b6000841180610ece5750600083115b610f095760405162461bcd60e51b81526004018080602001828103825260268152602001806138da6026913960400191505060405180910390fd5b600080610f146112b3565b5091509150816001600160701b031686108015610f395750806001600160701b031685105b610f745760405162461bcd60e51b81526004018080602001828103825260228152602001806139006022913960400191505060405180910390fd5b60035460045460009182916001600160a01b03918216919081169088168214801590610fb25750806001600160a01b0316886001600160a01b031614155b610ffc576040805162461bcd60e51b8152602060048201526016602482015275446542616e6b537761703a20494e56414c49445f544f60501b604482015290519081900360640190fd5b891561100d5761100d82898c6123bd565b881561101e5761101e81898b6123bd565b604080516370a0823160e01b815230600482015290516001600160a01b038416916370a08231916024808301926020929190829003018186803b15801561106457600080fd5b505afa158015611078573d6000803e3d6000fd5b505050506040513d602081101561108e57600080fd5b5051604080516370a0823160e01b815230600482015290519195506001600160a01b038316916370a0823191602480820192602092909190829003018186803b1580156110da57600080fd5b505afa1580156110ee573d6000803e3d6000fd5b505050506040513d602081101561110457600080fd5b5051925060009150506001600160701b0385168990038311611127576000611136565b88856001600160701b03160383035b9050600088856001600160701b0316038311611153576000611162565b88856001600160701b03160383035b905060008211806111735750600081115b6111ae5760405162461bcd60e51b81526004018080602001828103825260258152602001806138b56025913960400191505060405180910390fd5b6111ca6001600160701b0387811690871663ffffffff61254f16565b6111da858563ffffffff61254f16565b101561121e576040805162461bcd60e51b815260206004820152600e60248201526d2232a130b735a9bbb0b81d10259960911b604482015290519081900360640190fd5b61122a848488886125f1565b60408051838152602081018390528082018c9052606081018b905290516001600160a01b038a169133917fd78ad95fa46c994b6551d0da85fc275fe613ce37657fb8d5e3d130840159d8229181900360800190a350506001601a555050505050505050565b604051806040016040528060088152602001672628102a37b5b2b760c11b81525081565b6005546007546001600160701b0380831693600160701b909304169163ffffffff90911690565b60006112e73384846129cb565b5060015b92915050565b6001546001600160a01b031681565b60116020526000908152604090208054600182015460029092015490919083565b60155481565b600c5481565b60135481565b6001600160a01b0383166000908152601060209081526040808320338452909152812054600019146113b8576001600160a01b0384166000908152601060209081526040808320338452909152902054611393908363ffffffff6125af16565b6001600160a01b03851660009081526010602090815260408083203384529091529020555b6113c3848484612a2d565b5060019392505050565b7f6e71edae12b1b97f4d1f60370fef10105fa2faae0126114a169c64845d6126c981565b601281565b600d5481565b6005546001600160701b031681565b6000546001600160a01b03163314611462576040805162461bcd60e51b81526020600482015260156024820152742232a130b735a9bbb0b81d102327a92124a22222a760591b604482015290519081900360640190fd5b600855565b60095481565b600a5481565b600554600160701b90046001600160701b031681565b6000601a546001146114d7576040805162461bcd60e51b8152602060048201526012602482015271111950985b9ad4ddd85c0e881313d0d2d15160721b604482015290519081900360640190fd5b6000601a819055806114e76112b3565b50600354604080516370a0823160e01b815230600482015290519395509193506000926001600160a01b03909116916370a08231916024808301926020929190829003018186803b15801561153b57600080fd5b505afa15801561154f573d6000803e3d6000fd5b505050506040513d602081101561156557600080fd5b505160048054604080516370a0823160e01b81523093810193909352519293506000926001600160a01b03909116916370a08231916024808301926020929190829003018186803b1580156115b957600080fd5b505afa1580156115cd573d6000803e3d6000fd5b505050506040513d60208110156115e357600080fd5b505190506000611602836001600160701b03871663ffffffff6125af16565b9050600061161f836001600160701b03871663ffffffff6125af16565b9050600061162d8787612b3d565b600c549091508061166a576116566103e8610c70611651878763ffffffff61254f16565b612c92565b985061166560006103e8612ce3565b6116b9565b6116b66001600160701b038916611687868463ffffffff61254f16565b8161168e57fe5b046001600160701b0389166116a9868563ffffffff61254f16565b816116b057fe5b04612e1b565b98505b600089116116f85760405162461bcd60e51b81526004018080602001828103825260298152602001806139226029913960400191505060405180910390fd5b6117028a8a612ce3565b61170e86868a8a6125f1565b811561173e5760055461173a906001600160701b0380821691600160701b90041663ffffffff61254f16565b600b555b6040805185815260208101859052815133927f4c209b5fc8ad50758f13e2e1088ba56a560dff690a1c6fef26394f4c03821c4f928290030190a250506001601a5550949695505050505050565b600f6020526000908152604090205481565b600b5481565b6000546001600160a01b031633146117fa576040805162461bcd60e51b81526020600482015260156024820152742232a130b735a9bbb0b81d102327a92124a22222a760591b604482015290519081900360640190fd5b60c8811115611843576040805162461bcd60e51b815260206004820152601060248201526f0cccacaa4c2e8ca40e8dede40d0d2ced60831b604482015290519081900360640190fd5b600655565b60195481565b600e6020526000908152604090205481565b600080601a546001146118af576040805162461bcd60e51b8152602060048201526012602482015271111950985b9ad4ddd85c0e881313d0d2d15160721b604482015290519081900360640190fd5b6000601a819055806118bf6112b3565b5060035460048054604080516370a0823160e01b81523093810193909352519496509294506001600160a01b0391821693919092169160009184916370a08231916024808301926020929190829003018186803b15801561191f57600080fd5b505afa158015611933573d6000803e3d6000fd5b505050506040513d602081101561194957600080fd5b5051604080516370a0823160e01b815230600482015290519192506000916001600160a01b038516916370a08231916024808301926020929190829003018186803b15801561199757600080fd5b505afa1580156119ab573d6000803e3d6000fd5b505050506040513d60208110156119c157600080fd5b5051306000908152600f60205260408120549192506119e08888612b3d565b600c54909150806119f7848763ffffffff61254f16565b816119fe57fe5b049a5080611a12848663ffffffff61254f16565b81611a1957fe5b04995060008b118015611a2c575060008a115b611a675760405162461bcd60e51b815260040180806020018281038252602981526020018061394b6029913960400191505060405180910390fd5b611a6f612e32565b611a77612e3e565b611a813084612ebb565b611a8c878d8d6123bd565b611a97868d8c6123bd565b604080516370a0823160e01b815230600482015290516001600160a01b038916916370a08231916024808301926020929190829003018186803b158015611add57600080fd5b505afa158015611af1573d6000803e3d6000fd5b505050506040513d6020811015611b0757600080fd5b5051604080516370a0823160e01b815230600482015290519196506001600160a01b038816916370a0823191602480820192602092909190829003018186803b158015611b5357600080fd5b505afa158015611b67573d6000803e3d6000fd5b505050506040513d6020811015611b7d57600080fd5b50519350611b8d85858b8b6125f1565b8115611bbd57600554611bb9906001600160701b0380821691600160701b90041663ffffffff61254f16565b600b555b604080518c8152602081018c905281516001600160a01b038f169233927fdccd412f0b1252819cb1fd330b93224ca42612892bb3f4f789976e6d81936496929081900390910190a35050505050505050506001601a81905550915091565b6003546001600160a01b031681565b60405180604001604052806003815260200162088caf60eb1b81525081565b60065481565b60006112e7338484612a2d565b6003546000906001600160a01b03848116911614801590611c8b57506004546001600160a01b03848116911614155b80611c9f57506005546001600160701b0316155b80611cba5750600554600160701b90046001600160701b0316155b15611cc7575060006112eb565b6003546001600160a01b0384811691161415611d1c57600554611d15906001600160701b0380821691611d0991600160701b909104168563ffffffff61254f16565b9063ffffffff612f6416565b90506112eb565b600554611d15906001600160701b03600160701b8204811691611d0991168563ffffffff61254f16565b6103e881565b601a54600114611d98576040805162461bcd60e51b8152602060048201526012602482015271111950985b9ad4ddd85c0e881313d0d2d15160721b604482015290519081900360640190fd5b6000601a5560035460048054600554604080516370a0823160e01b81523094810194909452516001600160a01b039485169490921692611e4a9285928792611e45926001600160701b039092169185916370a08231916024808301926020929190829003018186803b158015611e0d57600080fd5b505afa158015611e21573d6000803e3d6000fd5b505050506040513d6020811015611e3757600080fd5b50519063ffffffff6125af16565b6123bd565b600554604080516370a0823160e01b81523060048201529051611eb19284928792611e4592600160701b90046001600160701b0316916001600160a01b038616916370a0823191602480820192602092909190829003018186803b158015611e0d57600080fd5b50506001601a5550565b60165481565b6000546001600160a01b031681565b6002546001600160a01b031681565b60125481565b42841015611f2a576040805162461bcd60e51b815260206004820152600d60248201526c14ddd85c0e8811561412549151609a1b604482015290519081900360640190fd5b600d546001600160a01b038089166000818152600e602090815260408083208054600180820190925582517f6e71edae12b1b97f4d1f60370fef10105fa2faae0126114a169c64845d6126c98186015280840196909652958d166060860152608085018c905260a085019590955260c08085018b90528151808603909101815260e08501825280519083012061190160f01b6101008601526101028501969096526101228085019690965280518085039096018652610142840180825286519683019690962095839052610162840180825286905260ff89166101828501526101a284018890526101c28401879052519193926101e280820193601f1981019281900390910190855afa158015612045573d6000803e3d6000fd5b5050604051601f1901519150506001600160a01b0381161580159061207b5750886001600160a01b0316816001600160a01b0316145b6120cc576040805162461bcd60e51b815260206004820152601760248201527f537761703a20494e56414c49445f5349474e4154555245000000000000000000604482015290519081900360640190fd5b6120d78989896129cb565b505050505050505050565b6004546001600160a01b031681565b601060209081526000928352604080842090915290825290205481565b60145481565b60175481565b60185481565b60085481565b6000546001600160a01b0316331461217d576040805162461bcd60e51b81526020600482015260156024820152742232a130b735a9bbb0b81d102327a92124a22222a760591b604482015290519081900360640190fd5b600180546001600160a01b03199081166001600160a01b0387811691909117909255600280548216868416179055600380548216858416179055600480549091168383161781556000546040805163f5b9848d60e01b81529051919093169263f5b9848d9281810192602092909190829003018186803b15801561220057600080fd5b505afa158015612214573d6000803e3d6000fd5b505050506040513d602081101561222a57600080fd5b505160085550505050565b6000612252612710611d096006548561254f90919063ffffffff16565b90505b919050565b601a546001146122a6576040805162461bcd60e51b8152602060048201526012602482015271111950985b9ad4ddd85c0e881313d0d2d15160721b604482015290519081900360640190fd5b6000601a55600154604080516370a0823160e01b815230600482015290516123b6926001600160a01b0316916370a08231916024808301926020929190829003018186803b1580156122f757600080fd5b505afa15801561230b573d6000803e3d6000fd5b505050506040513d602081101561232157600080fd5b5051600254604080516370a0823160e01b815230600482015290516001600160a01b03909216916370a0823191602480820192602092909190829003018186803b15801561236e57600080fd5b505afa158015612382573d6000803e3d6000fd5b505050506040513d602081101561239857600080fd5b50516005546001600160701b0380821691600160701b9004166125f1565b6001601a55565b604080518082018252601981527f7472616e7366657228616464726573732c75696e74323536290000000000000060209182015281516001600160a01b0385811660248301526044808301869052845180840390910181526064909201845291810180516001600160e01b031663a9059cbb60e01b1781529251815160009460609489169392918291908083835b6020831061246a5780518252601f19909201916020918201910161244b565b6001836020036101000a0380198251168184511680821785525050505050509050019150506000604051808303816000865af19150503d80600081146124cc576040519150601f19603f3d011682016040523d82523d6000602084013e6124d1565b606091505b50915091508180156124ff5750805115806124ff57508080602001905160208110156124fc57600080fd5b50515b612548576040805162461bcd60e51b815260206004820152601560248201527414ddd85c0e881514905394d1915497d19052531151605a1b604482015290519081900360640190fd5b5050505050565b60008261255e575060006112eb565b8282028284828161256b57fe5b04146125a85760405162461bcd60e51b81526004018080602001828103825260218152602001806139746021913960400191505060405180910390fd5b9392505050565b60006125a883836040518060400160405280601e81526020017f536166654d6174683a207375627472616374696f6e206f766572666c6f770000815250612fa6565b6001600160701b03841180159061260f57506001600160701b038311155b612657576040805162461bcd60e51b8152602060048201526014602482015273446542616e6b537761703a204f564552464c4f5760601b604482015290519081900360640190fd5b60075463ffffffff42811691811682039081161580159061268057506001600160701b03841615155b801561269457506001600160701b03831615155b15612705578063ffffffff166126c2856126ad8661303d565b6001600160e01b03169063ffffffff61304f16565b600980546001600160e01b03929092169290920201905563ffffffff81166126ed846126ad8761303d565b600a80546001600160e01b0392909216929092020190555b600580546dffffffffffffffffffffffffffff19166001600160701b03888116919091176dffffffffffffffffffffffffffff60701b1916600160701b888316810291909117928390556007805463ffffffff191663ffffffff871617905560408051848416815291909304909116602082015281517f1c411e9a96e071241c2f21f7726b17ae89e3cab4c78be50e062b03a9fffbbad1929181900390910190a1505050505050565b4360145414156127d3576015546127cb908263ffffffff61307416565b6015556129c8565b601554156129be576001430360145414156129ad5760008060009054906101000a90046001600160a01b03166001600160a01b031663f887ea406040518163ffffffff1660e01b815260040160206040518083038186803b15801561283757600080fd5b505afa15801561284b573d6000803e3d6000fd5b505050506040513d602081101561286157600080fd5b50516040805163226981cb60e21b815290519192506000916001600160a01b038416916389a6072c916004808301926020929190829003018186803b1580156128a957600080fd5b505afa1580156128bd573d6000803e3d6000fd5b505050506040513d60208110156128d357600080fd5b505160145460408051632a7edd8f60e21b81526004810192909252519192506000916001600160a01b0385169163a9fb763c916024808301926020929190829003018186803b15801561292557600080fd5b505afa158015612939573d6000803e3d6000fd5b505050506040513d602081101561294f57600080fd5b5051600c54909150156129a557600061297783611d096015548561254f90919063ffffffff16565b90506129a0612991600c5483612f6490919063ffffffff16565b6012549063ffffffff61307416565b601255505b5050506129be565b6015805482019055436014556129c8565b4360145560158190555b50565b6001600160a01b03808416600081815260106020908152604080832094871680845294825291829020859055815185815291517f8c5be1e5ebec7d5bd14f71427d1e84f3dd0314c0f7b2291e5b200ac8c7c3b9259281900390910190a3505050565b6001600160a01b0383166000908152600f6020526040902054612a56908263ffffffff6125af16565b6001600160a01b038085166000908152600f60205260408082209390935590841681522054612a8b908263ffffffff61307416565b6001600160a01b0383166000908152600f6020526040902055612aad836130ce565b158015612ac05750612abe826130ce565b155b15612aed57612acd612e32565b612ad5612e3e565b612ae1838260006130d4565b612aed828260016130d4565b816001600160a01b0316836001600160a01b03167fddf252ad1be2c89b69c2b068fc378daa952ba7f163c4a11628f55a4df523b3ef836040518082815260200191505060405180910390a3505050565b6000805460408051622fcfcb60e31b8152905183926001600160a01b03169163017e7e58916004808301926020929190829003018186803b158015612b8157600080fd5b505afa158015612b95573d6000803e3d6000fd5b505050506040513d6020811015612bab57600080fd5b5051600b546001600160a01b038216158015945091925090612c7e578015612c79576000612bee6116516001600160701b0388811690881663ffffffff61254f16565b90506000612bfb83612c92565b905080821115612c76576000612c29612c1a848463ffffffff6125af16565b600c549063ffffffff61254f16565b90506000612c5283612c466008548761254f90919063ffffffff16565b9063ffffffff61307416565b90506000818381612c5f57fe5b0490508015612c7257612c728782612ce3565b5050505b50505b612c8a565b8015612c8a576000600b555b505092915050565b60006003821115612cd5575080600160028204015b81811015612ccf57809150600281828581612cbe57fe5b040181612cc757fe5b049050612ca7565b50612255565b811561225557506001919050565b612ceb612e32565b612cf3612e3e565b6001600160a01b0382166000908152601160205260408120805460165460125492939192612d269163ffffffff61307416565b905081612d4a57838355612d40848263ffffffff61254f16565b6002840155612d81565b612d5a828263ffffffff61254f16565b6001840180549091019055825484018355612d7b828263ffffffff61254f16565b60028401555b600c54612d94908563ffffffff61307416565b600c556001600160a01b0385166000908152600f6020526040902054612dc0908563ffffffff61307416565b6001600160a01b0386166000818152600f602090815260408083209490945583518881529351929391927fddf252ad1be2c89b69c2b068fc378daa952ba7f163c4a11628f55a4df523b3ef9281900390910190a35050505050565b600081831115612e2b57816125a8565b5090919050565b612e3c60006127ae565b565b436018541415612e4d57612e3c565b6000612e5761328c565b9050601754811115612eb2576000612e7a601754836125af90919063ffffffff16565b600c5490915015612eb057612eac612e9d600c5483612f6490919063ffffffff16565b6016549063ffffffff61307416565b6016555b505b60175543601855565b6001600160a01b0382166000908152600f6020526040902054612ee4908263ffffffff6125af16565b6001600160a01b0383166000908152600f6020526040902055600c54612f10908263ffffffff6125af16565b600c55612f1f828260006130d4565b6040805182815290516000916001600160a01b038516917fddf252ad1be2c89b69c2b068fc378daa952ba7f163c4a11628f55a4df523b3ef9181900360200190a35050565b60006125a883836040518060400160405280601a81526020017f536166654d6174683a206469766973696f6e206279207a65726f0000000000008152506134f1565b600081848411156130355760405162461bcd60e51b81526004018080602001828103825283818151815260200191508051906020019080838360005b83811015612ffa578181015183820152602001612fe2565b50505050905090810190601f1680156130275780820380516001836020036101000a031916815260200191505b509250505060405180910390fd5b505050900390565b6001600160701b0316600160701b0290565b60006001600160701b0382166001600160e01b0384168161306c57fe5b049392505050565b6000828201838110156125a8576040805162461bcd60e51b815260206004820152601b60248201527f536166654d6174683a206164646974696f6e206f766572666c6f770000000000604482015290519081900360640190fd5b50600090565b6001600160a01b0383166000908152601160205260409020601654601254825491019080156132335760006131228460020154610c708660010154612c46868861254f90919063ffffffff16565b905080156132315760008060009054906101000a90046001600160a01b03166001600160a01b031663f887ea406040518163ffffffff1660e01b815260040160206040518083038186803b15801561317957600080fd5b505afa15801561318d573d6000803e3d6000fd5b505050506040513d60208110156131a357600080fd5b50516040805163f7c618c160e01b815290516001600160a01b039092169163f7c618c191600480820192602092909190829003018186803b1580156131e757600080fd5b505afa1580156131fb573d6000803e3d6000fd5b505050506040513d602081101561321157600080fd5b505190506001600160a01b0381161561322f5761322f818984613556565b505b505b60008461324f5761324a828763ffffffff6125af16565b61325f565b61325f828763ffffffff61307416565b80855560006001860155905061327b838263ffffffff61254f16565b846002018190555050505050505050565b60008054604080516303e21fa960e61b8152905183926001600160a01b03169163f887ea40916004808301926020929190829003018186803b1580156132d157600080fd5b505afa1580156132e5573d6000803e3d6000fd5b505050506040513d60208110156132fb57600080fd5b50516040805163f7c618c160e01b815290516001600160a01b039092169163f7c618c191600480820192602092909190829003018186803b15801561333f57600080fd5b505afa158015613353573d6000803e3d6000fd5b505050506040513d602081101561336957600080fd5b505190506001600160a01b0381166133855760009150506134ee565b60008060009054906101000a90046001600160a01b03166001600160a01b031663197a15696040518163ffffffff1660e01b815260040160206040518083038186803b1580156133d457600080fd5b505afa1580156133e8573d6000803e3d6000fd5b505050506040513d60208110156133fe57600080fd5b50516040805163331faf7160e21b815230600482015290519192506001600160a01b0383169163cc7ebdc491602480820192602092909190829003018186803b15801561344a57600080fd5b505afa15801561345e573d6000803e3d6000fd5b505050506040513d602081101561347457600080fd5b5051604080516370a0823160e01b815230600482015290516001600160a01b038516916370a08231916024808301926020929190829003018186803b1580156134bc57600080fd5b505afa1580156134d0573d6000803e3d6000fd5b505050506040513d60208110156134e657600080fd5b505101925050505b90565b600081836135405760405162461bcd60e51b8152602060048201818152835160248401528351909283926044909101919085019080838360008315612ffa578181015183820152602001612fe2565b50600083858161354c57fe5b0495945050505050565b60006135606135bb565b9050818110156135a457613572613716565b61357a6135bb565b9050818110156135a45761359d81610c708460195461307490919063ffffffff16565b6019559050805b81156135b5576135b58484846123bd565b50505050565b60008054604080516303e21fa960e61b8152905183926001600160a01b03169163f887ea40916004808301926020929190829003018186803b15801561360057600080fd5b505afa158015613614573d6000803e3d6000fd5b505050506040513d602081101561362a57600080fd5b50516040805163f7c618c160e01b815290516001600160a01b039092169163f7c618c191600480820192602092909190829003018186803b15801561366e57600080fd5b505afa158015613682573d6000803e3d6000fd5b505050506040513d602081101561369857600080fd5b5051604080516370a0823160e01b815230600482015290519192506001600160a01b038316916370a0823191602480820192602092909190829003018186803b1580156136e457600080fd5b505afa1580156136f8573d6000803e3d6000fd5b505050506040513d602081101561370e57600080fd5b505191505090565b60008060009054906101000a90046001600160a01b03166001600160a01b031663197a15696040518163ffffffff1660e01b815260040160206040518083038186803b15801561376557600080fd5b505afa158015613779573d6000803e3d6000fd5b505050506040513d602081101561378f57600080fd5b5051604080516002808252606080830184529394509091602083019080388339505060035482519293506001600160a01b0316918391506000906137cf57fe5b6001600160a01b0392831660209182029290920101526004548251911690829060019081106137fa57fe5b6001600160a01b039283166020918202929092018101919091526040805162e1ed9760e51b815230600482018181526024830193845286516044840152865195881695631c3db2e095929488949293909260640191858201910280838360005b8381101561387257818101518382015260200161385a565b505050509050019350505050600060405180830381600087803b15801561389857600080fd5b505af11580156138ac573d6000803e3d6000fd5b50505050505056fe446542616e6b537761703a20494e53554646494349454e545f494e5055545f414d4f554e54446542616e6b537761703a20494e53554646494349454e545f4f55545055545f414d4f554e54446542616e6b537761703a20494e53554646494349454e545f4c4951554944495459446542616e6b537761703a20494e53554646494349454e545f4c49515549444954595f4d494e544544446542616e6b537761703a20494e53554646494349454e545f4c49515549444954595f4255524e4544536166654d6174683a206d756c7469706c69636174696f6e206f766572666c6f77a265627a7a723158204eafa1473e287248f4c6087d85f602ba7ff7b037739abfdbabb9457d49238f0b64736f6c63430005100032454950373132446f6d61696e28737472696e67206e616d652c737472696e672076657273696f6e2c75696e7432353620636861696e49642c6164647265737320766572696679696e67436f6e7472616374294f776e61626c653a206e6577206f776e657220697320746865207a65726f206164647265737353776170466163746f72793a20494e53554646494349454e545f494e5055545f414d4f554e5453776170466163746f72793a20494e53554646494349454e545f4f55545055545f414d4f554e54446542616e6b53776170466163746f72793a206665655261746520746f6f2068696768446542616e6b53776170466163746f72793a204645455f544f5f524154455f4f564552464c4f57536166654d6174683a206d756c7469706c69636174696f6e206f766572666c6f774f776e61626c653a2063616c6c6572206973206e6f7420746865206f776e657253776170466163746f72793a20494e53554646494349454e545f4c4951554944495459a265627a7a7231582039a44b7220a104a3c35f9522257c329244824361b9c13175f3f941efd8797af364736f6c634300051000326080604052601e6006556001601a5534801561001a57600080fd5b506040514690806052613ad1823960408051918290036052018220828201825260088352672628102a37b5b2b760c11b6020938401528151808301835260018152603160f81b908401528151808401919091527fc285f7cfebd35a59cb5c0c032add67fdc80dcde2f8127cb94e4b49a72469ed02818301527fc89efdaa54c0f20c7adf612882df0950f5a951637e0307cdcb4c672f298b8bc6606082015260808101949094523060a0808601919091528151808603909101815260c090940190528251920191909120600d5550600080546001600160a01b031916331790556139c9806101086000396000f3fe608060405234801561001057600080fd5b50600436106102955760003560e01c80637d5106e211610167578063d21220a7116100ce578063e5b2aab011610087578063e5b2aab0146107cf578063f4a70bd2146107d7578063f5b9848d146107df578063f8c8765e146107e7578063fcee45f414610825578063fff6cae91461084257610295565b8063d21220a714610730578063d2890a0114610738578063d505accf14610740578063d939fa8a14610791578063dd62ed3e14610799578063e12ed13c146107c757610295565b8063a9059cbb11610120578063a9059cbb1461069a578063ad9b8024146106c6578063ba9a7a56146106f2578063bc25cf77146106fa578063bc9c5c6a14610720578063c45a01551461072857610295565b80637d5106e2146106155780637ecebe001461061d57806389afcb4414610643578063948023ab1461068257806395d89b411461068a578063978bbdb91461069257610295565b806330adf81f1161020b5780635a3d5493116101c45780635a3d5493146105945780635a76f25e1461059c5780636a627842146105a457806370a08231146105ca5780637464fc3d146105f05780637b84fda5146105f857610295565b806330adf81f1461051d578063313ce567146105255780633644e51514610543578063443cb4bc1461054b578063496cf3e41461056f5780635909c0d51461058c57610295565b80630dfe16811161025d5780630dfe1681146104555780631183f8721461047957806317560715146104bd57806318160ddd146104d75780631df4ccfc146104df57806323b872dd146104e757610295565b8063022c0d9f1461029a5780630442a8651461032857806306fdde03146103605780630902f1ac146103dd578063095ea7b314610415575b600080fd5b610326600480360360808110156102b057600080fd5b8135916020810135916001600160a01b0360408301351691908101906080810160608201356401000000008111156102e757600080fd5b8201836020820111156102f957600080fd5b8035906020019184600183028401116401000000008311171561031b57600080fd5b50909250905061084a565b005b6103266004803603608081101561033e57600080fd5b508035906020810135906001600160a01b036040820135169060600135610d92565b61036861128f565b6040805160208082528351818301528351919283929083019185019080838360005b838110156103a257818101518382015260200161038a565b50505050905090810190601f1680156103cf5780820380516001836020036101000a031916815260200191505b509250505060405180910390f35b6103e56112b3565b604080516001600160701b03948516815292909316602083015263ffffffff168183015290519081900360600190f35b6104416004803603604081101561042b57600080fd5b506001600160a01b0381351690602001356112da565b604080519115158252519081900360200190f35b61045d6112f1565b604080516001600160a01b039092168252519081900360200190f35b61049f6004803603602081101561048f57600080fd5b50356001600160a01b0316611300565b60408051938452602084019290925282820152519081900360600190f35b6104c5611321565b60408051918252519081900360200190f35b6104c5611327565b6104c561132d565b610441600480360360608110156104fd57600080fd5b506001600160a01b03813581169160208101359091169060400135611333565b6104c56113cd565b61052d6113f1565b6040805160ff9092168252519081900360200190f35b6104c56113f6565b6105536113fc565b604080516001600160701b039092168252519081900360200190f35b6103266004803603602081101561058557600080fd5b503561140b565b6104c5611467565b6104c561146d565b610553611473565b6104c5600480360360208110156105ba57600080fd5b50356001600160a01b0316611489565b6104c5600480360360208110156105e057600080fd5b50356001600160a01b031661178b565b6104c561179d565b6103266004803603602081101561060e57600080fd5b50356117a3565b6104c5611848565b6104c56004803603602081101561063357600080fd5b50356001600160a01b031661184e565b6106696004803603602081101561065957600080fd5b50356001600160a01b0316611860565b6040805192835260208301919091528051918290030190f35b61045d611c1b565b610368611c2a565b6104c5611c49565b610441600480360360408110156106b057600080fd5b506001600160a01b038135169060200135611c4f565b6104c5600480360360408110156106dc57600080fd5b506001600160a01b038135169060200135611c5c565b6104c5611d46565b6103266004803603602081101561071057600080fd5b50356001600160a01b0316611d4c565b6104c5611ebb565b61045d611ec1565b61045d611ed0565b6104c5611edf565b610326600480360360e081101561075657600080fd5b506001600160a01b03813581169160208101359091169060408101359060608101359060ff6080820135169060a08101359060c00135611ee5565b61045d6120e2565b6104c5600480360360408110156107af57600080fd5b506001600160a01b03813581169160200135166120f1565b6104c561210e565b6104c5612114565b6104c561211a565b6104c5612120565b610326600480360360808110156107fd57600080fd5b506001600160a01b038135811691602081013582169160408201358116916060013516612126565b6104c56004803603602081101561083b57600080fd5b5035612235565b61032661225a565b601a54600114610896576040805162461bcd60e51b8152602060048201526012602482015271111950985b9ad4ddd85c0e881313d0d2d15160721b604482015290519081900360640190fd5b6000601a55841515806108a95750600084115b6108e45760405162461bcd60e51b81526004018080602001828103825260268152602001806138da6026913960400191505060405180910390fd5b6000806108ef6112b3565b5091509150816001600160701b0316871080156109145750806001600160701b031686105b61094f5760405162461bcd60e51b81526004018080602001828103825260228152602001806139006022913960400191505060405180910390fd5b60035460045460009182916001600160a01b0391821691908116908916821480159061098d5750806001600160a01b0316896001600160a01b031614155b6109d7576040805162461bcd60e51b8152602060048201526016602482015275446542616e6b537761703a20494e56414c49445f544f60501b604482015290519081900360640190fd5b8a156109e8576109e8828a8d6123bd565b89156109f9576109f9818a8c6123bd565b8615610ab457886001600160a01b031663226dc882338d8d8c8c6040518663ffffffff1660e01b815260040180866001600160a01b03166001600160a01b03168152602001858152602001848152602001806020018281038252848482818152602001925080828437600081840152601f19601f8201169050808301925050509650505050505050600060405180830381600087803b158015610a9b57600080fd5b505af1158015610aaf573d6000803e3d6000fd5b505050505b604080516370a0823160e01b815230600482015290516001600160a01b038416916370a08231916024808301926020929190829003018186803b158015610afa57600080fd5b505afa158015610b0e573d6000803e3d6000fd5b505050506040513d6020811015610b2457600080fd5b5051604080516370a0823160e01b815230600482015290519195506001600160a01b038316916370a0823191602480820192602092909190829003018186803b158015610b7057600080fd5b505afa158015610b84573d6000803e3d6000fd5b505050506040513d6020811015610b9a57600080fd5b5051925060009150506001600160701b0385168a90038311610bbd576000610bcc565b89856001600160701b03160383035b9050600089856001600160701b0316038311610be9576000610bf8565b89856001600160701b03160383035b90506000821180610c095750600081115b610c445760405162461bcd60e51b81526004018080602001828103825260258152602001806138b56025913960400191505060405180910390fd5b6000610c7c610c5e6006548561254f90919063ffffffff16565b610c708761271063ffffffff61254f16565b9063ffffffff6125af16565b90506000610c98610c5e6006548561254f90919063ffffffff16565b9050610cca6305f5e100610cbe6001600160701b038b8116908b1663ffffffff61254f16565b9063ffffffff61254f16565b610cda838363ffffffff61254f16565b1015610d1e576040805162461bcd60e51b815260206004820152600e60248201526d446542616e6b537761703a204b3160901b604482015290519081900360640190fd5b5050610d2c848488886125f1565b60408051838152602081018390528082018d9052606081018c905290516001600160a01b038b169133917fd78ad95fa46c994b6551d0da85fc275fe613ce37657fb8d5e3d130840159d8229181900360800190a350506001601a55505050505050505050565b601a54600114610dde576040805162461bcd60e51b8152602060048201526012602482015271111950985b9ad4ddd85c0e881313d0d2d15160721b604482015290519081900360640190fd5b6000601a81905554604080516303e21fa960e61b815290516001600160a01b039092169163f887ea4091600480820192602092909190829003018186803b158015610e2857600080fd5b505afa158015610e3c573d6000803e3d6000fd5b505050506040513d6020811015610e5257600080fd5b50516001600160a01b03163314610eb0576040805162461bcd60e51b815260206004820152601760248201527f446542616e6b537761703a20726f75746572206f6e6c79000000000000000000604482015290519081900360640190fd5b8015610ebf57610ebf816127ae565b6000841180610ece5750600083115b610f095760405162461bcd60e51b81526004018080602001828103825260268152602001806138da6026913960400191505060405180910390fd5b600080610f146112b3565b5091509150816001600160701b031686108015610f395750806001600160701b031685105b610f745760405162461bcd60e51b81526004018080602001828103825260228152602001806139006022913960400191505060405180910390fd5b60035460045460009182916001600160a01b03918216919081169088168214801590610fb25750806001600160a01b0316886001600160a01b031614155b610ffc576040805162461bcd60e51b8152602060048201526016602482015275446542616e6b537761703a20494e56414c49445f544f60501b604482015290519081900360640190fd5b891561100d5761100d82898c6123bd565b881561101e5761101e81898b6123bd565b604080516370a0823160e01b815230600482015290516001600160a01b038416916370a08231916024808301926020929190829003018186803b15801561106457600080fd5b505afa158015611078573d6000803e3d6000fd5b505050506040513d602081101561108e57600080fd5b5051604080516370a0823160e01b815230600482015290519195506001600160a01b038316916370a0823191602480820192602092909190829003018186803b1580156110da57600080fd5b505afa1580156110ee573d6000803e3d6000fd5b505050506040513d602081101561110457600080fd5b5051925060009150506001600160701b0385168990038311611127576000611136565b88856001600160701b03160383035b9050600088856001600160701b0316038311611153576000611162565b88856001600160701b03160383035b905060008211806111735750600081115b6111ae5760405162461bcd60e51b81526004018080602001828103825260258152602001806138b56025913960400191505060405180910390fd5b6111ca6001600160701b0387811690871663ffffffff61254f16565b6111da858563ffffffff61254f16565b101561121e576040805162461bcd60e51b815260206004820152600e60248201526d2232a130b735a9bbb0b81d10259960911b604482015290519081900360640190fd5b61122a848488886125f1565b60408051838152602081018390528082018c9052606081018b905290516001600160a01b038a169133917fd78ad95fa46c994b6551d0da85fc275fe613ce37657fb8d5e3d130840159d8229181900360800190a350506001601a555050505050505050565b604051806040016040528060088152602001672628102a37b5b2b760c11b81525081565b6005546007546001600160701b0380831693600160701b909304169163ffffffff90911690565b60006112e73384846129cb565b5060015b92915050565b6001546001600160a01b031681565b60116020526000908152604090208054600182015460029092015490919083565b60155481565b600c5481565b60135481565b6001600160a01b0383166000908152601060209081526040808320338452909152812054600019146113b8576001600160a01b0384166000908152601060209081526040808320338452909152902054611393908363ffffffff6125af16565b6001600160a01b03851660009081526010602090815260408083203384529091529020555b6113c3848484612a2d565b5060019392505050565b7f6e71edae12b1b97f4d1f60370fef10105fa2faae0126114a169c64845d6126c981565b601281565b600d5481565b6005546001600160701b031681565b6000546001600160a01b03163314611462576040805162461bcd60e51b81526020600482015260156024820152742232a130b735a9bbb0b81d102327a92124a22222a760591b604482015290519081900360640190fd5b600855565b60095481565b600a5481565b600554600160701b90046001600160701b031681565b6000601a546001146114d7576040805162461bcd60e51b8152602060048201526012602482015271111950985b9ad4ddd85c0e881313d0d2d15160721b604482015290519081900360640190fd5b6000601a819055806114e76112b3565b50600354604080516370a0823160e01b815230600482015290519395509193506000926001600160a01b03909116916370a08231916024808301926020929190829003018186803b15801561153b57600080fd5b505afa15801561154f573d6000803e3d6000fd5b505050506040513d602081101561156557600080fd5b505160048054604080516370a0823160e01b81523093810193909352519293506000926001600160a01b03909116916370a08231916024808301926020929190829003018186803b1580156115b957600080fd5b505afa1580156115cd573d6000803e3d6000fd5b505050506040513d60208110156115e357600080fd5b505190506000611602836001600160701b03871663ffffffff6125af16565b9050600061161f836001600160701b03871663ffffffff6125af16565b9050600061162d8787612b3d565b600c549091508061166a576116566103e8610c70611651878763ffffffff61254f16565b612c92565b985061166560006103e8612ce3565b6116b9565b6116b66001600160701b038916611687868463ffffffff61254f16565b8161168e57fe5b046001600160701b0389166116a9868563ffffffff61254f16565b816116b057fe5b04612e1b565b98505b600089116116f85760405162461bcd60e51b81526004018080602001828103825260298152602001806139226029913960400191505060405180910390fd5b6117028a8a612ce3565b61170e86868a8a6125f1565b811561173e5760055461173a906001600160701b0380821691600160701b90041663ffffffff61254f16565b600b555b6040805185815260208101859052815133927f4c209b5fc8ad50758f13e2e1088ba56a560dff690a1c6fef26394f4c03821c4f928290030190a250506001601a5550949695505050505050565b600f6020526000908152604090205481565b600b5481565b6000546001600160a01b031633146117fa576040805162461bcd60e51b81526020600482015260156024820152742232a130b735a9bbb0b81d102327a92124a22222a760591b604482015290519081900360640190fd5b60c8811115611843576040805162461bcd60e51b815260206004820152601060248201526f0cccacaa4c2e8ca40e8dede40d0d2ced60831b604482015290519081900360640190fd5b600655565b60195481565b600e6020526000908152604090205481565b600080601a546001146118af576040805162461bcd60e51b8152602060048201526012602482015271111950985b9ad4ddd85c0e881313d0d2d15160721b604482015290519081900360640190fd5b6000601a819055806118bf6112b3565b5060035460048054604080516370a0823160e01b81523093810193909352519496509294506001600160a01b0391821693919092169160009184916370a08231916024808301926020929190829003018186803b15801561191f57600080fd5b505afa158015611933573d6000803e3d6000fd5b505050506040513d602081101561194957600080fd5b5051604080516370a0823160e01b815230600482015290519192506000916001600160a01b038516916370a08231916024808301926020929190829003018186803b15801561199757600080fd5b505afa1580156119ab573d6000803e3d6000fd5b505050506040513d60208110156119c157600080fd5b5051306000908152600f60205260408120549192506119e08888612b3d565b600c54909150806119f7848763ffffffff61254f16565b816119fe57fe5b049a5080611a12848663ffffffff61254f16565b81611a1957fe5b04995060008b118015611a2c575060008a115b611a675760405162461bcd60e51b815260040180806020018281038252602981526020018061394b6029913960400191505060405180910390fd5b611a6f612e32565b611a77612e3e565b611a813084612ebb565b611a8c878d8d6123bd565b611a97868d8c6123bd565b604080516370a0823160e01b815230600482015290516001600160a01b038916916370a08231916024808301926020929190829003018186803b158015611add57600080fd5b505afa158015611af1573d6000803e3d6000fd5b505050506040513d6020811015611b0757600080fd5b5051604080516370a0823160e01b815230600482015290519196506001600160a01b038816916370a0823191602480820192602092909190829003018186803b158015611b5357600080fd5b505afa158015611b67573d6000803e3d6000fd5b505050506040513d6020811015611b7d57600080fd5b50519350611b8d85858b8b6125f1565b8115611bbd57600554611bb9906001600160701b0380821691600160701b90041663ffffffff61254f16565b600b555b604080518c8152602081018c905281516001600160a01b038f169233927fdccd412f0b1252819cb1fd330b93224ca42612892bb3f4f789976e6d81936496929081900390910190a35050505050505050506001601a81905550915091565b6003546001600160a01b031681565b60405180604001604052806003815260200162088caf60eb1b81525081565b60065481565b60006112e7338484612a2d565b6003546000906001600160a01b03848116911614801590611c8b57506004546001600160a01b03848116911614155b80611c9f57506005546001600160701b0316155b80611cba5750600554600160701b90046001600160701b0316155b15611cc7575060006112eb565b6003546001600160a01b0384811691161415611d1c57600554611d15906001600160701b0380821691611d0991600160701b909104168563ffffffff61254f16565b9063ffffffff612f6416565b90506112eb565b600554611d15906001600160701b03600160701b8204811691611d0991168563ffffffff61254f16565b6103e881565b601a54600114611d98576040805162461bcd60e51b8152602060048201526012602482015271111950985b9ad4ddd85c0e881313d0d2d15160721b604482015290519081900360640190fd5b6000601a5560035460048054600554604080516370a0823160e01b81523094810194909452516001600160a01b039485169490921692611e4a9285928792611e45926001600160701b039092169185916370a08231916024808301926020929190829003018186803b158015611e0d57600080fd5b505afa158015611e21573d6000803e3d6000fd5b505050506040513d6020811015611e3757600080fd5b50519063ffffffff6125af16565b6123bd565b600554604080516370a0823160e01b81523060048201529051611eb19284928792611e4592600160701b90046001600160701b0316916001600160a01b038616916370a0823191602480820192602092909190829003018186803b158015611e0d57600080fd5b50506001601a5550565b60165481565b6000546001600160a01b031681565b6002546001600160a01b031681565b60125481565b42841015611f2a576040805162461bcd60e51b815260206004820152600d60248201526c14ddd85c0e8811561412549151609a1b604482015290519081900360640190fd5b600d546001600160a01b038089166000818152600e602090815260408083208054600180820190925582517f6e71edae12b1b97f4d1f60370fef10105fa2faae0126114a169c64845d6126c98186015280840196909652958d166060860152608085018c905260a085019590955260c08085018b90528151808603909101815260e08501825280519083012061190160f01b6101008601526101028501969096526101228085019690965280518085039096018652610142840180825286519683019690962095839052610162840180825286905260ff89166101828501526101a284018890526101c28401879052519193926101e280820193601f1981019281900390910190855afa158015612045573d6000803e3d6000fd5b5050604051601f1901519150506001600160a01b0381161580159061207b5750886001600160a01b0316816001600160a01b0316145b6120cc576040805162461bcd60e51b815260206004820152601760248201527f537761703a20494e56414c49445f5349474e4154555245000000000000000000604482015290519081900360640190fd5b6120d78989896129cb565b505050505050505050565b6004546001600160a01b031681565b601060209081526000928352604080842090915290825290205481565b60145481565b60175481565b60185481565b60085481565b6000546001600160a01b0316331461217d576040805162461bcd60e51b81526020600482015260156024820152742232a130b735a9bbb0b81d102327a92124a22222a760591b604482015290519081900360640190fd5b600180546001600160a01b03199081166001600160a01b0387811691909117909255600280548216868416179055600380548216858416179055600480549091168383161781556000546040805163f5b9848d60e01b81529051919093169263f5b9848d9281810192602092909190829003018186803b15801561220057600080fd5b505afa158015612214573d6000803e3d6000fd5b505050506040513d602081101561222a57600080fd5b505160085550505050565b6000612252612710611d096006548561254f90919063ffffffff16565b90505b919050565b601a546001146122a6576040805162461bcd60e51b8152602060048201526012602482015271111950985b9ad4ddd85c0e881313d0d2d15160721b604482015290519081900360640190fd5b6000601a55600154604080516370a0823160e01b815230600482015290516123b6926001600160a01b0316916370a08231916024808301926020929190829003018186803b1580156122f757600080fd5b505afa15801561230b573d6000803e3d6000fd5b505050506040513d602081101561232157600080fd5b5051600254604080516370a0823160e01b815230600482015290516001600160a01b03909216916370a0823191602480820192602092909190829003018186803b15801561236e57600080fd5b505afa158015612382573d6000803e3d6000fd5b505050506040513d602081101561239857600080fd5b50516005546001600160701b0380821691600160701b9004166125f1565b6001601a55565b604080518082018252601981527f7472616e7366657228616464726573732c75696e74323536290000000000000060209182015281516001600160a01b0385811660248301526044808301869052845180840390910181526064909201845291810180516001600160e01b031663a9059cbb60e01b1781529251815160009460609489169392918291908083835b6020831061246a5780518252601f19909201916020918201910161244b565b6001836020036101000a0380198251168184511680821785525050505050509050019150506000604051808303816000865af19150503d80600081146124cc576040519150601f19603f3d011682016040523d82523d6000602084013e6124d1565b606091505b50915091508180156124ff5750805115806124ff57508080602001905160208110156124fc57600080fd5b50515b612548576040805162461bcd60e51b815260206004820152601560248201527414ddd85c0e881514905394d1915497d19052531151605a1b604482015290519081900360640190fd5b5050505050565b60008261255e575060006112eb565b8282028284828161256b57fe5b04146125a85760405162461bcd60e51b81526004018080602001828103825260218152602001806139746021913960400191505060405180910390fd5b9392505050565b60006125a883836040518060400160405280601e81526020017f536166654d6174683a207375627472616374696f6e206f766572666c6f770000815250612fa6565b6001600160701b03841180159061260f57506001600160701b038311155b612657576040805162461bcd60e51b8152602060048201526014602482015273446542616e6b537761703a204f564552464c4f5760601b604482015290519081900360640190fd5b60075463ffffffff42811691811682039081161580159061268057506001600160701b03841615155b801561269457506001600160701b03831615155b15612705578063ffffffff166126c2856126ad8661303d565b6001600160e01b03169063ffffffff61304f16565b600980546001600160e01b03929092169290920201905563ffffffff81166126ed846126ad8761303d565b600a80546001600160e01b0392909216929092020190555b600580546dffffffffffffffffffffffffffff19166001600160701b03888116919091176dffffffffffffffffffffffffffff60701b1916600160701b888316810291909117928390556007805463ffffffff191663ffffffff871617905560408051848416815291909304909116602082015281517f1c411e9a96e071241c2f21f7726b17ae89e3cab4c78be50e062b03a9fffbbad1929181900390910190a1505050505050565b4360145414156127d3576015546127cb908263ffffffff61307416565b6015556129c8565b601554156129be576001430360145414156129ad5760008060009054906101000a90046001600160a01b03166001600160a01b031663f887ea406040518163ffffffff1660e01b815260040160206040518083038186803b15801561283757600080fd5b505afa15801561284b573d6000803e3d6000fd5b505050506040513d602081101561286157600080fd5b50516040805163226981cb60e21b815290519192506000916001600160a01b038416916389a6072c916004808301926020929190829003018186803b1580156128a957600080fd5b505afa1580156128bd573d6000803e3d6000fd5b505050506040513d60208110156128d357600080fd5b505160145460408051632a7edd8f60e21b81526004810192909252519192506000916001600160a01b0385169163a9fb763c916024808301926020929190829003018186803b15801561292557600080fd5b505afa158015612939573d6000803e3d6000fd5b505050506040513d602081101561294f57600080fd5b5051600c54909150156129a557600061297783611d096015548561254f90919063ffffffff16565b90506129a0612991600c5483612f6490919063ffffffff16565b6012549063ffffffff61307416565b601255505b5050506129be565b6015805482019055436014556129c8565b4360145560158190555b50565b6001600160a01b03808416600081815260106020908152604080832094871680845294825291829020859055815185815291517f8c5be1e5ebec7d5bd14f71427d1e84f3dd0314c0f7b2291e5b200ac8c7c3b9259281900390910190a3505050565b6001600160a01b0383166000908152600f6020526040902054612a56908263ffffffff6125af16565b6001600160a01b038085166000908152600f60205260408082209390935590841681522054612a8b908263ffffffff61307416565b6001600160a01b0383166000908152600f6020526040902055612aad836130ce565b158015612ac05750612abe826130ce565b155b15612aed57612acd612e32565b612ad5612e3e565b612ae1838260006130d4565b612aed828260016130d4565b816001600160a01b0316836001600160a01b03167fddf252ad1be2c89b69c2b068fc378daa952ba7f163c4a11628f55a4df523b3ef836040518082815260200191505060405180910390a3505050565b6000805460408051622fcfcb60e31b8152905183926001600160a01b03169163017e7e58916004808301926020929190829003018186803b158015612b8157600080fd5b505afa158015612b95573d6000803e3d6000fd5b505050506040513d6020811015612bab57600080fd5b5051600b546001600160a01b038216158015945091925090612c7e578015612c79576000612bee6116516001600160701b0388811690881663ffffffff61254f16565b90506000612bfb83612c92565b905080821115612c76576000612c29612c1a848463ffffffff6125af16565b600c549063ffffffff61254f16565b90506000612c5283612c466008548761254f90919063ffffffff16565b9063ffffffff61307416565b90506000818381612c5f57fe5b0490508015612c7257612c728782612ce3565b5050505b50505b612c8a565b8015612c8a576000600b555b505092915050565b60006003821115612cd5575080600160028204015b81811015612ccf57809150600281828581612cbe57fe5b040181612cc757fe5b049050612ca7565b50612255565b811561225557506001919050565b612ceb612e32565b612cf3612e3e565b6001600160a01b0382166000908152601160205260408120805460165460125492939192612d269163ffffffff61307416565b905081612d4a57838355612d40848263ffffffff61254f16565b6002840155612d81565b612d5a828263ffffffff61254f16565b6001840180549091019055825484018355612d7b828263ffffffff61254f16565b60028401555b600c54612d94908563ffffffff61307416565b600c556001600160a01b0385166000908152600f6020526040902054612dc0908563ffffffff61307416565b6001600160a01b0386166000818152600f602090815260408083209490945583518881529351929391927fddf252ad1be2c89b69c2b068fc378daa952ba7f163c4a11628f55a4df523b3ef9281900390910190a35050505050565b600081831115612e2b57816125a8565b5090919050565b612e3c60006127ae565b565b436018541415612e4d57612e3c565b6000612e5761328c565b9050601754811115612eb2576000612e7a601754836125af90919063ffffffff16565b600c5490915015612eb057612eac612e9d600c5483612f6490919063ffffffff16565b6016549063ffffffff61307416565b6016555b505b60175543601855565b6001600160a01b0382166000908152600f6020526040902054612ee4908263ffffffff6125af16565b6001600160a01b0383166000908152600f6020526040902055600c54612f10908263ffffffff6125af16565b600c55612f1f828260006130d4565b6040805182815290516000916001600160a01b038516917fddf252ad1be2c89b69c2b068fc378daa952ba7f163c4a11628f55a4df523b3ef9181900360200190a35050565b60006125a883836040518060400160405280601a81526020017f536166654d6174683a206469766973696f6e206279207a65726f0000000000008152506134f1565b600081848411156130355760405162461bcd60e51b81526004018080602001828103825283818151815260200191508051906020019080838360005b83811015612ffa578181015183820152602001612fe2565b50505050905090810190601f1680156130275780820380516001836020036101000a031916815260200191505b509250505060405180910390fd5b505050900390565b6001600160701b0316600160701b0290565b60006001600160701b0382166001600160e01b0384168161306c57fe5b049392505050565b6000828201838110156125a8576040805162461bcd60e51b815260206004820152601b60248201527f536166654d6174683a206164646974696f6e206f766572666c6f770000000000604482015290519081900360640190fd5b50600090565b6001600160a01b0383166000908152601160205260409020601654601254825491019080156132335760006131228460020154610c708660010154612c46868861254f90919063ffffffff16565b905080156132315760008060009054906101000a90046001600160a01b03166001600160a01b031663f887ea406040518163ffffffff1660e01b815260040160206040518083038186803b15801561317957600080fd5b505afa15801561318d573d6000803e3d6000fd5b505050506040513d60208110156131a357600080fd5b50516040805163f7c618c160e01b815290516001600160a01b039092169163f7c618c191600480820192602092909190829003018186803b1580156131e757600080fd5b505afa1580156131fb573d6000803e3d6000fd5b505050506040513d602081101561321157600080fd5b505190506001600160a01b0381161561322f5761322f818984613556565b505b505b60008461324f5761324a828763ffffffff6125af16565b61325f565b61325f828763ffffffff61307416565b80855560006001860155905061327b838263ffffffff61254f16565b846002018190555050505050505050565b60008054604080516303e21fa960e61b8152905183926001600160a01b03169163f887ea40916004808301926020929190829003018186803b1580156132d157600080fd5b505afa1580156132e5573d6000803e3d6000fd5b505050506040513d60208110156132fb57600080fd5b50516040805163f7c618c160e01b815290516001600160a01b039092169163f7c618c191600480820192602092909190829003018186803b15801561333f57600080fd5b505afa158015613353573d6000803e3d6000fd5b505050506040513d602081101561336957600080fd5b505190506001600160a01b0381166133855760009150506134ee565b60008060009054906101000a90046001600160a01b03166001600160a01b031663197a15696040518163ffffffff1660e01b815260040160206040518083038186803b1580156133d457600080fd5b505afa1580156133e8573d6000803e3d6000fd5b505050506040513d60208110156133fe57600080fd5b50516040805163331faf7160e21b815230600482015290519192506001600160a01b0383169163cc7ebdc491602480820192602092909190829003018186803b15801561344a57600080fd5b505afa15801561345e573d6000803e3d6000fd5b505050506040513d602081101561347457600080fd5b5051604080516370a0823160e01b815230600482015290516001600160a01b038516916370a08231916024808301926020929190829003018186803b1580156134bc57600080fd5b505afa1580156134d0573d6000803e3d6000fd5b505050506040513d60208110156134e657600080fd5b505101925050505b90565b600081836135405760405162461bcd60e51b8152602060048201818152835160248401528351909283926044909101919085019080838360008315612ffa578181015183820152602001612fe2565b50600083858161354c57fe5b0495945050505050565b60006135606135bb565b9050818110156135a457613572613716565b61357a6135bb565b9050818110156135a45761359d81610c708460195461307490919063ffffffff16565b6019559050805b81156135b5576135b58484846123bd565b50505050565b60008054604080516303e21fa960e61b8152905183926001600160a01b03169163f887ea40916004808301926020929190829003018186803b15801561360057600080fd5b505afa158015613614573d6000803e3d6000fd5b505050506040513d602081101561362a57600080fd5b50516040805163f7c618c160e01b815290516001600160a01b039092169163f7c618c191600480820192602092909190829003018186803b15801561366e57600080fd5b505afa158015613682573d6000803e3d6000fd5b505050506040513d602081101561369857600080fd5b5051604080516370a0823160e01b815230600482015290519192506001600160a01b038316916370a0823191602480820192602092909190829003018186803b1580156136e457600080fd5b505afa1580156136f8573d6000803e3d6000fd5b505050506040513d602081101561370e57600080fd5b505191505090565b60008060009054906101000a90046001600160a01b03166001600160a01b031663197a15696040518163ffffffff1660e01b815260040160206040518083038186803b15801561376557600080fd5b505afa158015613779573d6000803e3d6000fd5b505050506040513d602081101561378f57600080fd5b5051604080516002808252606080830184529394509091602083019080388339505060035482519293506001600160a01b0316918391506000906137cf57fe5b6001600160a01b0392831660209182029290920101526004548251911690829060019081106137fa57fe5b6001600160a01b039283166020918202929092018101919091526040805162e1ed9760e51b815230600482018181526024830193845286516044840152865195881695631c3db2e095929488949293909260640191858201910280838360005b8381101561387257818101518382015260200161385a565b505050509050019350505050600060405180830381600087803b15801561389857600080fd5b505af11580156138ac573d6000803e3d6000fd5b50505050505056fe446542616e6b537761703a20494e53554646494349454e545f494e5055545f414d4f554e54446542616e6b537761703a20494e53554646494349454e545f4f55545055545f414d4f554e54446542616e6b537761703a20494e53554646494349454e545f4c4951554944495459446542616e6b537761703a20494e53554646494349454e545f4c49515549444954595f4d494e544544446542616e6b537761703a20494e53554646494349454e545f4c49515549444954595f4255524e4544536166654d6174683a206d756c7469706c69636174696f6e206f766572666c6f77a265627a7a723158204eafa1473e287248f4c6087d85f602ba7ff7b037739abfdbabb9457d49238f0b64736f6c63430005100032454950373132446f6d61696e28737472696e67206e616d652c737472696e672076657273696f6e2c75696e7432353620636861696e49642c6164647265737320766572696679696e67436f6e747261637429",
  "devdoc": {
    "methods": {
      "isOwner()": {
        "details": "Returns true if the caller is the current owner."
      },
      "owner()": {
        "details": "Returns the address of the current owner."
      },
      "renounceOwnership()": {
        "details": "Leaves the contract without owner. It will not be possible to call `onlyOwner` functions anymore. Can only be called by the current owner.     * NOTE: Renouncing ownership will leave the contract without an owner, thereby removing any functionality that is only available to the owner."
      },
      "transferOwnership(address)": {
        "details": "Transfers ownership of the contract to a new account (`newOwner`). Can only be called by the current owner."
      }
    }
  },
  "userdoc": {
    "methods": {}
  },
  "storageLayout": {
    "storage": [
      {
        "astId": 220,
        "contract": "contracts/swap/heco/Factory.sol:DeBankFactory",
        "label": "_owner",
        "offset": 0,
        "slot": "0",
        "type": "t_address"
      },
      {
        "astId": 27885,
        "contract": "contracts/swap/heco/Factory.sol:DeBankFactory",
        "label": "feeTo",
        "offset": 0,
        "slot": "1",
        "type": "t_address"
      },
      {
        "astId": 27888,
        "contract": "contracts/swap/heco/Factory.sol:DeBankFactory",
        "label": "lpFeeRate",
        "offset": 0,
        "slot": "2",
        "type": "t_uint256"
      },
      {
        "astId": 27890,
        "contract": "contracts/swap/heco/Factory.sol:DeBankFactory",
        "label": "anchorToken",
        "offset": 0,
        "slot": "3",
        "type": "t_address"
      },
      {
        "astId": 27892,
        "contract": "contracts/swap/heco/Factory.sol:DeBankFactory",
        "label": "router",
        "offset": 0,
        "slot": "4",
        "type": "t_address"
      },
      {
        "astId": 27894,
        "contract": "contracts/swap/heco/Factory.sol:DeBankFactory",
        "label": "initCodeHash",
        "offset": 0,
        "slot": "5",
        "type": "t_bytes32"
      },
      {
        "astId": 27896,
        "contract": "contracts/swap/heco/Factory.sol:DeBankFactory",
        "label": "compAddr",
        "offset": 0,
        "slot": "6",
        "type": "t_address"
      },
      {
        "astId": 27900,
        "contract": "contracts/swap/heco/Factory.sol:DeBankFactory",
        "label": "feeRateOf",
        "offset": 0,
        "slot": "7",
        "type": "t_mapping(t_address,t_uint256)"
      },
      {
        "astId": 27906,
        "contract": "contracts/swap/heco/Factory.sol:DeBankFactory",
        "label": "getPair",
        "offset": 0,
        "slot": "8",
        "type": "t_mapping(t_address,t_mapping(t_address,t_address))"
      },
      {
        "astId": 27909,
        "contract": "contracts/swap/heco/Factory.sol:DeBankFactory",
        "label": "allPairs",
        "offset": 0,
        "slot": "9",
        "type": "t_array(t_address)dyn_storage"
      }
    ],
    "types": {
      "t_address": {
        "encoding": "inplace",
        "label": "address",
        "numberOfBytes": "20"
      },
      "t_array(t_address)dyn_storage": {
        "base": "t_address",
        "encoding": "dynamic_array",
        "label": "address[]",
        "numberOfBytes": "32"
      },
      "t_bytes32": {
        "encoding": "inplace",
        "label": "bytes32",
        "numberOfBytes": "32"
      },
      "t_mapping(t_address,t_address)": {
        "encoding": "mapping",
        "key": "t_address",
        "label": "mapping(address => address)",
        "numberOfBytes": "32",
        "value": "t_address"
      },
      "t_mapping(t_address,t_mapping(t_address,t_address))": {
        "encoding": "mapping",
        "key": "t_address",
        "label": "mapping(address => mapping(address => address))",
        "numberOfBytes": "32",
        "value": "t_mapping(t_address,t_address)"
      },
      "t_mapping(t_address,t_uint256)": {
        "encoding": "mapping",
        "key": "t_address",
        "label": "mapping(address => uint256)",
        "numberOfBytes": "32",
        "value": "t_uint256"
      },
      "t_uint256": {
        "encoding": "inplace",
        "label": "uint256",
        "numberOfBytes": "32"
      }
    }
  }
}