{
  "address": "0xfb1A388c9762f954Ff7D50f2B2327c2089305462",
  "abi": [
    {
      "inputs": [],
      "payable": false,
      "stateMutability": "nonpayable",
      "type": "constructor"
    },
    {
      "anonymous": false,
      "inputs": [
        {
          "indexed": true,
          "internalType": "address",
          "name": "owner",
          "type": "address"
        },
        {
          "indexed": true,
          "internalType": "address",
          "name": "spender",
          "type": "address"
        },
        {
          "indexed": false,
          "internalType": "uint256",
          "name": "value",
          "type": "uint256"
        }
      ],
      "name": "Approval",
      "type": "event"
    },
    {
      "anonymous": false,
      "inputs": [
        {
          "indexed": true,
          "internalType": "address",
          "name": "previousOwner",
          "type": "address"
        },
        {
          "indexed": true,
          "internalType": "address",
          "name": "newOwner",
          "type": "address"
        }
      ],
      "name": "OwnershipTransferred",
      "type": "event"
    },
    {
      "anonymous": false,
      "inputs": [
        {
          "indexed": true,
          "internalType": "address",
          "name": "from",
          "type": "address"
        },
        {
          "indexed": true,
          "internalType": "address",
          "name": "to",
          "type": "address"
        },
        {
          "indexed": false,
          "internalType": "uint256",
          "name": "value",
          "type": "uint256"
        }
      ],
      "name": "Transfer",
      "type": "event"
    },
    {
      "constant": true,
      "inputs": [
        {
          "internalType": "address",
          "name": "owner",
          "type": "address"
        },
        {
          "internalType": "address",
          "name": "spender",
          "type": "address"
        }
      ],
      "name": "allowance",
      "outputs": [
        {
          "internalType": "uint256",
          "name": "",
          "type": "uint256"
        }
      ],
      "payable": false,
      "stateMutability": "view",
      "type": "function"
    },
    {
      "constant": false,
      "inputs": [
        {
          "internalType": "address",
          "name": "spender",
          "type": "address"
        },
        {
          "internalType": "uint256",
          "name": "amount",
          "type": "uint256"
        }
      ],
      "name": "approve",
      "outputs": [
        {
          "internalType": "bool",
          "name": "",
          "type": "bool"
        }
      ],
      "payable": false,
      "stateMutability": "nonpayable",
      "type": "function"
    },
    {
      "constant": true,
      "inputs": [
        {
          "internalType": "address",
          "name": "account",
          "type": "address"
        }
      ],
      "name": "balanceOf",
      "outputs": [
        {
          "internalType": "uint256",
          "name": "",
          "type": "uint256"
        }
      ],
      "payable": false,
      "stateMutability": "view",
      "type": "function"
    },
    {
      "constant": true,
      "inputs": [],
      "name": "decimals",
      "outputs": [
        {
          "internalType": "uint8",
          "name": "",
          "type": "uint8"
        }
      ],
      "payable": false,
      "stateMutability": "view",
      "type": "function"
    },
    {
      "constant": false,
      "inputs": [
        {
          "internalType": "address",
          "name": "spender",
          "type": "address"
        },
        {
          "internalType": "uint256",
          "name": "subtractedValue",
          "type": "uint256"
        }
      ],
      "name": "decreaseAllowance",
      "outputs": [
        {
          "internalType": "bool",
          "name": "",
          "type": "bool"
        }
      ],
      "payable": false,
      "stateMutability": "nonpayable",
      "type": "function"
    },
    {
      "constant": true,
      "inputs": [
        {
          "internalType": "uint256",
          "name": "ebePerBlock",
          "type": "uint256"
        },
        {
          "internalType": "uint256",
          "name": "_lastRewardBlock",
          "type": "uint256"
        }
      ],
      "name": "getEbeReward",
      "outputs": [
        {
          "internalType": "uint256",
          "name": "",
          "type": "uint256"
        }
      ],
      "payable": false,
      "stateMutability": "view",
      "type": "function"
    },
    {
      "constant": true,
      "inputs": [],
      "name": "halvingPeriod",
      "outputs": [
        {
          "internalType": "uint256",
          "name": "",
          "type": "uint256"
        }
      ],
      "payable": false,
      "stateMutability": "view",
      "type": "function"
    },
    {
      "constant": false,
      "inputs": [
        {
          "internalType": "address",
          "name": "spender",
          "type": "address"
        },
        {
          "internalType": "uint256",
          "name": "addedValue",
          "type": "uint256"
        }
      ],
      "name": "increaseAllowance",
      "outputs": [
        {
          "internalType": "bool",
          "name": "",
          "type": "bool"
        }
      ],
      "payable": false,
      "stateMutability": "nonpayable",
      "type": "function"
    },
    {
      "constant": true,
      "inputs": [],
      "name": "isOwner",
      "outputs": [
        {
          "internalType": "bool",
          "name": "",
          "type": "bool"
        }
      ],
      "payable": false,
      "stateMutability": "view",
      "type": "function"
    },
    {
      "constant": false,
      "inputs": [
        {
          "internalType": "address",
          "name": "_to",
          "type": "address"
        },
        {
          "internalType": "uint256",
          "name": "_amount",
          "type": "uint256"
        }
      ],
      "name": "mint",
      "outputs": [
        {
          "internalType": "bool",
          "name": "",
          "type": "bool"
        }
      ],
      "payable": false,
      "stateMutability": "nonpayable",
      "type": "function"
    },
    {
      "constant": true,
      "inputs": [
        {
          "internalType": "address",
          "name": "",
          "type": "address"
        }
      ],
      "name": "minters",
      "outputs": [
        {
          "internalType": "bool",
          "name": "",
          "type": "bool"
        }
      ],
      "payable": false,
      "stateMutability": "view",
      "type": "function"
    },
    {
      "constant": true,
      "inputs": [],
      "name": "name",
      "outputs": [
        {
          "internalType": "string",
          "name": "",
          "type": "string"
        }
      ],
      "payable": false,
      "stateMutability": "view",
      "type": "function"
    },
    {
      "constant": true,
      "inputs": [],
      "name": "owner",
      "outputs": [
        {
          "internalType": "address",
          "name": "",
          "type": "address"
        }
      ],
      "payable": false,
      "stateMutability": "view",
      "type": "function"
    },
    {
      "constant": true,
      "inputs": [
        {
          "internalType": "uint256",
          "name": "blockNumber",
          "type": "uint256"
        }
      ],
      "name": "phase",
      "outputs": [
        {
          "internalType": "uint256",
          "name": "",
          "type": "uint256"
        }
      ],
      "payable": false,
      "stateMutability": "view",
      "type": "function"
    },
    {
      "constant": true,
      "inputs": [],
      "name": "phase",
      "outputs": [
        {
          "internalType": "uint256",
          "name": "",
          "type": "uint256"
        }
      ],
      "payable": false,
      "stateMutability": "view",
      "type": "function"
    },
    {
      "constant": false,
      "inputs": [],
      "name": "renounceOwnership",
      "outputs": [],
      "payable": false,
      "stateMutability": "nonpayable",
      "type": "function"
    },
    {
      "constant": true,
      "inputs": [
        {
          "internalType": "uint256",
          "name": "ebePerBlock",
          "type": "uint256"
        },
        {
          "internalType": "uint256",
          "name": "blockNumber",
          "type": "uint256"
        }
      ],
      "name": "reward",
      "outputs": [
        {
          "internalType": "uint256",
          "name": "",
          "type": "uint256"
        }
      ],
      "payable": false,
      "stateMutability": "view",
      "type": "function"
    },
    {
      "constant": true,
      "inputs": [
        {
          "internalType": "uint256",
          "name": "ebePerBlock",
          "type": "uint256"
        }
      ],
      "name": "reward",
      "outputs": [
        {
          "internalType": "uint256",
          "name": "",
          "type": "uint256"
        }
      ],
      "payable": false,
      "stateMutability": "view",
      "type": "function"
    },
    {
      "constant": false,
      "inputs": [
        {
          "internalType": "uint256",
          "name": "_block",
          "type": "uint256"
        }
      ],
      "name": "setHalvingPeriod",
      "outputs": [],
      "payable": false,
      "stateMutability": "nonpayable",
      "type": "function"
    },
    {
      "constant": false,
      "inputs": [
        {
          "internalType": "address",
          "name": "_newMinter",
          "type": "address"
        }
      ],
      "name": "setMinter",
      "outputs": [],
      "payable": false,
      "stateMutability": "nonpayable",
      "type": "function"
    },
    {
      "constant": false,
      "inputs": [
        {
          "internalType": "uint256",
          "name": "start",
          "type": "uint256"
        }
      ],
      "name": "setStartBlock",
      "outputs": [],
      "payable": false,
      "stateMutability": "nonpayable",
      "type": "function"
    },
    {
      "constant": true,
      "inputs": [],
      "name": "startBlock",
      "outputs": [
        {
          "internalType": "uint256",
          "name": "",
          "type": "uint256"
        }
      ],
      "payable": false,
      "stateMutability": "view",
      "type": "function"
    },
    {
      "constant": true,
      "inputs": [],
      "name": "symbol",
      "outputs": [
        {
          "internalType": "string",
          "name": "",
          "type": "string"
        }
      ],
      "payable": false,
      "stateMutability": "view",
      "type": "function"
    },
    {
      "constant": true,
      "inputs": [],
      "name": "totalSupply",
      "outputs": [
        {
          "internalType": "uint256",
          "name": "",
          "type": "uint256"
        }
      ],
      "payable": false,
      "stateMutability": "view",
      "type": "function"
    },
    {
      "constant": false,
      "inputs": [
        {
          "internalType": "address",
          "name": "recipient",
          "type": "address"
        },
        {
          "internalType": "uint256",
          "name": "amount",
          "type": "uint256"
        }
      ],
      "name": "transfer",
      "outputs": [
        {
          "internalType": "bool",
          "name": "",
          "type": "bool"
        }
      ],
      "payable": false,
      "stateMutability": "nonpayable",
      "type": "function"
    },
    {
      "constant": false,
      "inputs": [
        {
          "internalType": "address",
          "name": "sender",
          "type": "address"
        },
        {
          "internalType": "address",
          "name": "recipient",
          "type": "address"
        },
        {
          "internalType": "uint256",
          "name": "amount",
          "type": "uint256"
        }
      ],
      "name": "transferFrom",
      "outputs": [
        {
          "internalType": "bool",
          "name": "",
          "type": "bool"
        }
      ],
      "payable": false,
      "stateMutability": "nonpayable",
      "type": "function"
    },
    {
      "constant": false,
      "inputs": [
        {
          "internalType": "address",
          "name": "newOwner",
          "type": "address"
        }
      ],
      "name": "transferOwnership",
      "outputs": [],
      "payable": false,
      "stateMutability": "nonpayable",
      "type": "function"
    }
  ],
  "transactionHash": "0xa7e23bd8c27a7a5396db858a67b84ff7b0d223c5dd594325506b4a67a28ed7e3",
  "args": [],
  "solcInputHash": "3830b5e682f7bdd3efed1ea23eba8446",
  "bytecode": "0x6080604052625033406009553480156200001857600080fd5b5060006200002e6001600160e01b03620000ef16565b600380546001600160a01b0319166001600160a01b038316908117909155604051919250906000907f8be0079c531659141344cd1fd0a4f28419497f9722a3daafe3b4186f6b6457e0908290a3506040805180820190915260098082526822a122902a37b5b2b760b91b6020909201918252620000ae91600491620000f4565b506040805180820190915260038082526245424560e81b6020909201918252620000db91600591620000f4565b506006805460ff1916601217905562000196565b335b90565b828054600181600116156101000203166002900490600052602060002090601f016020900481019282601f106200013757805160ff191683800117855562000167565b8280016001018555821562000167579182015b82811115620001675782518255916020019190600101906200014a565b506200017592915062000179565b5090565b620000f191905b8082111562000175576000815560010162000180565b61149c80620001a66000396000f3fe608060405234801561001057600080fd5b50600436106101a95760003560e01c80638da5cb5b116100f9578063b1c9fe6e11610097578063f2fde38b11610071578063f2fde38b146104d0578063f35e4a6e146104f6578063f46eccc414610513578063fca3b5aa14610539576101a9565b8063b1c9fe6e1461047d578063b5ec5c9914610485578063dd62ed3e146104a2576101a9565b8063a457c2d7116100d3578063a457c2d7146103e5578063a4fa8d5714610411578063a9059cbb14610434578063a9fb763c14610460576101a9565b80638da5cb5b146103b15780638f32d59b146103d557806395d89b41146103dd576101a9565b8063313ce5671161016657806348cd4cb11161014057806348cd4cb1146103715780635a3e251f1461037957806370a0823114610381578063715018a6146103a7576101a9565b8063313ce567146102fb578063395093511461031957806340c10f1914610345576101a9565b806306fdde03146101ae578063095ea7b31461022b578063135f8aa71461026b57806318160ddd1461029a5780631bba3daf146102a257806323b872dd146102c5575b600080fd5b6101b661055f565b6040805160208082528351818301528351919283929083019185019080838360005b838110156101f05781810151838201526020016101d8565b50505050905090810190601f16801561021d5780820380516001836020036101000a031916815260200191505b509250505060405180910390f35b6102576004803603604081101561024157600080fd5b506001600160a01b0381351690602001356105ed565b604080519115158252519081900360200190f35b6102886004803603602081101561028157600080fd5b503561060b565b60408051918252519081900360200190f35b610288610672565b610288600480360360408110156102b857600080fd5b5080359060200135610678565b610257600480360360608110156102db57600080fd5b506001600160a01b03813581169160208101359091169060400135610788565b610303610815565b6040805160ff9092168252519081900360200190f35b6102576004803603604081101561032f57600080fd5b506001600160a01b03813516906020013561081e565b6102576004803603604081101561035b57600080fd5b506001600160a01b038135169060200135610872565b6102886108db565b6102886108e1565b6102886004803603602081101561039757600080fd5b50356001600160a01b03166108e7565b6103af610902565b005b6103b96109a5565b604080516001600160a01b039092168252519081900360200190f35b6102576109b4565b6101b66109da565b610257600480360360408110156103fb57600080fd5b506001600160a01b038135169060200135610a35565b6102886004803603604081101561042757600080fd5b5080359060200135610aa3565b6102576004803603604081101561044a57600080fd5b506001600160a01b038135169060200135610acd565b6102886004803603602081101561047657600080fd5b5035610ae1565b610288610aed565b6103af6004803603602081101561049b57600080fd5b5035610afd565b610288600480360360408110156104b857600080fd5b506001600160a01b0381358116916020013516610b61565b6103af600480360360208110156104e657600080fd5b50356001600160a01b0316610b8c565b6103af6004803603602081101561050c57600080fd5b5035610bf1565b6102576004803603602081101561052957600080fd5b50356001600160a01b0316610c4f565b6103af6004803603602081101561054f57600080fd5b50356001600160a01b0316610c64565b6004805460408051602060026001851615610100026000190190941693909304601f810184900484028201840190925281815292918301828280156105e55780601f106105ba576101008083540402835291602001916105e5565b820191906000526020600020905b8154815290600101906020018083116105c857829003601f168201915b505050505081565b60006106016105fa610cd5565b8484610cd9565b5060015b92915050565b6000600954600014156106205750600061066d565b60085482111561066957610662600954610656600161064a60085487610dc590919063ffffffff16565b9063ffffffff610dc516565b9063ffffffff610e0e16565b905061066d565b5060005b919050565b60025490565b6000438211156106b95760405162461bcd60e51b81526004018080602001828103825260338152602001806114106033913960400191505060405180910390fd5b6000806106c58461060b565b905060006106d24361060b565b90505b808210156107525760085460095460019093019260009161070d9161070190869063ffffffff610e5016565b9063ffffffff610ea916565b905061074861073b61071f8984610aa3565b61072f848a63ffffffff610dc516565b9063ffffffff610e5016565b859063ffffffff610ea916565b90955092506106d5565b61077e61077161076143610ae1565b61072f438963ffffffff610dc516565b849063ffffffff610ea916565b9695505050505050565b6000610795848484610f03565b61080b846107a1610cd5565b6108068560405180606001604052806028815260200161139f602891396001600160a01b038a166000908152600160205260408120906107df610cd5565b6001600160a01b03168152602081019190915260400160002054919063ffffffff61105f16565b610cd9565b5060019392505050565b60065460ff1681565b600061060161082b610cd5565b84610806856001600061083c610cd5565b6001600160a01b03908116825260208083019390935260409182016000908120918c16815292529020549063ffffffff610ea916565b3360009081526007602052604081205460ff166108d1576040805162461bcd60e51b815260206004820152601860248201527731b0b63632b91034b9903737ba103a34329036b4b73a32b960411b604482015290519081900360640190fd5b61060183836110f6565b60085481565b60095481565b6001600160a01b031660009081526020819052604090205490565b61090a6109b4565b61095b576040805162461bcd60e51b815260206004820181905260248201527f4f776e61626c653a2063616c6c6572206973206e6f7420746865206f776e6572604482015290519081900360640190fd5b6003546040516000916001600160a01b0316907f8be0079c531659141344cd1fd0a4f28419497f9722a3daafe3b4186f6b6457e0908390a3600380546001600160a01b0319169055565b6003546001600160a01b031690565b6003546000906001600160a01b03166109cb610cd5565b6001600160a01b031614905090565b6005805460408051602060026001851615610100026000190190941693909304601f810184900484028201840190925281815292918301828280156105e55780601f106105ba576101008083540402835291602001916105e5565b6000610601610a42610cd5565b84610806856040518060600160405280602581526020016114436025913960016000610a6c610cd5565b6001600160a01b03908116825260208083019390935260409182016000908120918d1681529252902054919063ffffffff61105f16565b600080610aaf8361060b565b9050610ac584600283900a63ffffffff610e0e16565b949350505050565b6000610601610ada610cd5565b8484610f03565b60006106058243610aa3565b6000610af84361060b565b905090565b3360009081526007602052604090205460ff16610b5c576040805162461bcd60e51b815260206004820152601860248201527731b0b63632b91034b9903737ba103a34329036b4b73a32b960411b604482015290519081900360640190fd5b600955565b6001600160a01b03918216600090815260016020908152604080832093909416825291909152205490565b610b946109b4565b610be5576040805162461bcd60e51b815260206004820181905260248201527f4f776e61626c653a2063616c6c6572206973206e6f7420746865206f776e6572604482015290519081900360640190fd5b610bee816111e6565b50565b610bf96109b4565b610c4a576040805162461bcd60e51b815260206004820181905260248201527f4f776e61626c653a2063616c6c6572206973206e6f7420746865206f776e6572604482015290519081900360640190fd5b600855565b60076020526000908152604090205460ff1681565b6001600160a01b038116610cb1576040805162461bcd60e51b815260206004820152600f60248201526e6973207a65726f206164647265737360881b604482015290519081900360640190fd5b6001600160a01b03166000908152600760205260409020805460ff19166001179055565b3390565b6001600160a01b038316610d1e5760405162461bcd60e51b81526004018080602001828103825260248152602001806113ec6024913960400191505060405180910390fd5b6001600160a01b038216610d635760405162461bcd60e51b81526004018080602001828103825260228152602001806113366022913960400191505060405180910390fd5b6001600160a01b03808416600081815260016020908152604080832094871680845294825291829020859055815185815291517f8c5be1e5ebec7d5bd14f71427d1e84f3dd0314c0f7b2291e5b200ac8c7c3b9259281900390910190a3505050565b6000610e0783836040518060400160405280601e81526020017f536166654d6174683a207375627472616374696f6e206f766572666c6f77000081525061105f565b9392505050565b6000610e0783836040518060400160405280601a81526020017f536166654d6174683a206469766973696f6e206279207a65726f000000000000815250611287565b600082610e5f57506000610605565b82820282848281610e6c57fe5b0414610e075760405162461bcd60e51b815260040180806020018281038252602181526020018061137e6021913960400191505060405180910390fd5b600082820183811015610e07576040805162461bcd60e51b815260206004820152601b60248201527f536166654d6174683a206164646974696f6e206f766572666c6f770000000000604482015290519081900360640190fd5b6001600160a01b038316610f485760405162461bcd60e51b81526004018080602001828103825260258152602001806113c76025913960400191505060405180910390fd5b6001600160a01b038216610f8d5760405162461bcd60e51b81526004018080602001828103825260238152602001806112ed6023913960400191505060405180910390fd5b610fd081604051806060016040528060268152602001611358602691396001600160a01b038616600090815260208190526040902054919063ffffffff61105f16565b6001600160a01b038085166000908152602081905260408082209390935590841681522054611005908263ffffffff610ea916565b6001600160a01b038084166000818152602081815260409182902094909455805185815290519193928716927fddf252ad1be2c89b69c2b068fc378daa952ba7f163c4a11628f55a4df523b3ef92918290030190a3505050565b600081848411156110ee5760405162461bcd60e51b81526004018080602001828103825283818151815260200191508051906020019080838360005b838110156110b357818101518382015260200161109b565b50505050905090810190601f1680156110e05780820380516001836020036101000a031916815260200191505b509250505060405180910390fd5b505050900390565b6001600160a01b038216611151576040805162461bcd60e51b815260206004820152601f60248201527f45524332303a206d696e7420746f20746865207a65726f206164647265737300604482015290519081900360640190fd5b600254611164908263ffffffff610ea916565b6002556001600160a01b038216600090815260208190526040902054611190908263ffffffff610ea916565b6001600160a01b0383166000818152602081815260408083209490945583518581529351929391927fddf252ad1be2c89b69c2b068fc378daa952ba7f163c4a11628f55a4df523b3ef9281900390910190a35050565b6001600160a01b03811661122b5760405162461bcd60e51b81526004018080602001828103825260268152602001806113106026913960400191505060405180910390fd5b6003546040516001600160a01b038084169216907f8be0079c531659141344cd1fd0a4f28419497f9722a3daafe3b4186f6b6457e090600090a3600380546001600160a01b0319166001600160a01b0392909216919091179055565b600081836112d65760405162461bcd60e51b81526020600482018181528351602484015283519092839260449091019190850190808383600083156110b357818101518382015260200161109b565b5060008385816112e257fe5b049594505050505056fe45524332303a207472616e7366657220746f20746865207a65726f20616464726573734f776e61626c653a206e6577206f776e657220697320746865207a65726f206164647265737345524332303a20617070726f766520746f20746865207a65726f206164647265737345524332303a207472616e7366657220616d6f756e7420657863656564732062616c616e6365536166654d6174683a206d756c7469706c69636174696f6e206f766572666c6f7745524332303a207472616e7366657220616d6f756e74206578636565647320616c6c6f77616e636545524332303a207472616e736665722066726f6d20746865207a65726f206164647265737345524332303a20617070726f76652066726f6d20746865207a65726f2061646472657373454245546f6b656e3a206d757374206c6974746c65207468616e207468652063757272656e7420626c6f636b206e756d62657245524332303a2064656372656173656420616c6c6f77616e63652062656c6f77207a65726fa265627a7a723158202d4917a9e3ca627423d63dfcd1d830d49fca12518439ca2e0bcdb583fd8a8cbd64736f6c63430005100032",
  "devdoc": {
    "methods": {
      "allowance(address,address)": {
        "details": "See {IERC20-allowance}."
      },
      "approve(address,uint256)": {
        "details": "See {IERC20-approve}.     * Requirements:     * - `spender` cannot be the zero address."
      },
      "balanceOf(address)": {
        "details": "See {IERC20-balanceOf}."
      },
      "decreaseAllowance(address,uint256)": {
        "details": "Atomically decreases the allowance granted to `spender` by the caller.     * This is an alternative to {approve} that can be used as a mitigation for problems described in {IERC20-approve}.     * Emits an {Approval} event indicating the updated allowance.     * Requirements:     * - `spender` cannot be the zero address. - `spender` must have allowance for the caller of at least `subtractedValue`."
      },
      "increaseAllowance(address,uint256)": {
        "details": "Atomically increases the allowance granted to `spender` by the caller.     * This is an alternative to {approve} that can be used as a mitigation for problems described in {IERC20-approve}.     * Emits an {Approval} event indicating the updated allowance.     * Requirements:     * - `spender` cannot be the zero address."
      },
      "isOwner()": {
        "details": "Returns true if the caller is the current owner."
      },
      "owner()": {
        "details": "Returns the address of the current owner."
      },
      "renounceOwnership()": {
        "details": "Leaves the contract without owner. It will not be possible to call `onlyOwner` functions anymore. Can only be called by the current owner.     * NOTE: Renouncing ownership will leave the contract without an owner, thereby removing any functionality that is only available to the owner."
      },
      "totalSupply()": {
        "details": "See {IERC20-totalSupply}."
      },
      "transfer(address,uint256)": {
        "details": "See {IERC20-transfer}.     * Requirements:     * - `recipient` cannot be the zero address. - the caller must have a balance of at least `amount`."
      },
      "transferFrom(address,address,uint256)": {
        "details": "See {IERC20-transferFrom}.     * Emits an {Approval} event indicating the updated allowance. This is not required by the EIP. See the note at the beginning of {ERC20};     * Requirements: - `sender` and `recipient` cannot be the zero address. - `sender` must have a balance of at least `amount`. - the caller must have allowance for `sender`'s tokens of at least `amount`."
      },
      "transferOwnership(address)": {
        "details": "Transfers ownership of the contract to a new account (`newOwner`). Can only be called by the current owner."
      }
    }
  },
  "userdoc": {
    "methods": {}
  },
  "storageLayout": {
    "storage": [
      {
        "astId": 347,
        "contract": "contracts/ebe/EBEToken.sol:EBEToken",
        "label": "_balances",
        "offset": 0,
        "slot": "0",
        "type": "t_mapping(t_address,t_uint256)"
      },
      {
        "astId": 353,
        "contract": "contracts/ebe/EBEToken.sol:EBEToken",
        "label": "_allowances",
        "offset": 0,
        "slot": "1",
        "type": "t_mapping(t_address,t_mapping(t_address,t_uint256))"
      },
      {
        "astId": 355,
        "contract": "contracts/ebe/EBEToken.sol:EBEToken",
        "label": "_totalSupply",
        "offset": 0,
        "slot": "2",
        "type": "t_uint256"
      },
      {
        "astId": 220,
        "contract": "contracts/ebe/EBEToken.sol:EBEToken",
        "label": "_owner",
        "offset": 0,
        "slot": "3",
        "type": "t_address"
      },
      {
        "astId": 32297,
        "contract": "contracts/ebe/EBEToken.sol:EBEToken",
        "label": "name",
        "offset": 0,
        "slot": "4",
        "type": "t_string_storage"
      },
      {
        "astId": 32299,
        "contract": "contracts/ebe/EBEToken.sol:EBEToken",
        "label": "symbol",
        "offset": 0,
        "slot": "5",
        "type": "t_string_storage"
      },
      {
        "astId": 32301,
        "contract": "contracts/ebe/EBEToken.sol:EBEToken",
        "label": "decimals",
        "offset": 0,
        "slot": "6",
        "type": "t_uint8"
      },
      {
        "astId": 32305,
        "contract": "contracts/ebe/EBEToken.sol:EBEToken",
        "label": "minters",
        "offset": 0,
        "slot": "7",
        "type": "t_mapping(t_address,t_bool)"
      },
      {
        "astId": 32307,
        "contract": "contracts/ebe/EBEToken.sol:EBEToken",
        "label": "startBlock",
        "offset": 0,
        "slot": "8",
        "type": "t_uint256"
      },
      {
        "astId": 32310,
        "contract": "contracts/ebe/EBEToken.sol:EBEToken",
        "label": "halvingPeriod",
        "offset": 0,
        "slot": "9",
        "type": "t_uint256"
      }
    ],
    "types": {
      "t_address": {
        "encoding": "inplace",
        "label": "address",
        "numberOfBytes": "20"
      },
      "t_bool": {
        "encoding": "inplace",
        "label": "bool",
        "numberOfBytes": "1"
      },
      "t_mapping(t_address,t_bool)": {
        "encoding": "mapping",
        "key": "t_address",
        "label": "mapping(address => bool)",
        "numberOfBytes": "32",
        "value": "t_bool"
      },
      "t_mapping(t_address,t_mapping(t_address,t_uint256))": {
        "encoding": "mapping",
        "key": "t_address",
        "label": "mapping(address => mapping(address => uint256))",
        "numberOfBytes": "32",
        "value": "t_mapping(t_address,t_uint256)"
      },
      "t_mapping(t_address,t_uint256)": {
        "encoding": "mapping",
        "key": "t_address",
        "label": "mapping(address => uint256)",
        "numberOfBytes": "32",
        "value": "t_uint256"
      },
      "t_string_storage": {
        "encoding": "bytes",
        "label": "string",
        "numberOfBytes": "32"
      },
      "t_uint256": {
        "encoding": "inplace",
        "label": "uint256",
        "numberOfBytes": "32"
      },
      "t_uint8": {
        "encoding": "inplace",
        "label": "uint8",
        "numberOfBytes": "1"
      }
    }
  }
}