{
  "address": "0x0390155850994cC4BA3B0cc2CdB48aF64A8e00DB",
  "abi": [
    {
      "inputs": [],
      "name": "EXCHANGE_CURVE",
      "outputs": [
        {
          "internalType": "uint256",
          "name": "",
          "type": "uint256"
        }
      ],
      "stateMutability": "view",
      "type": "function"
    },
    {
      "inputs": [],
      "name": "EXCHANGE_EBANK_EX",
      "outputs": [
        {
          "internalType": "uint256",
          "name": "",
          "type": "uint256"
        }
      ],
      "stateMutability": "view",
      "type": "function"
    },
    {
      "inputs": [],
      "name": "EXCHANGE_UNISWAP_V2",
      "outputs": [
        {
          "internalType": "uint256",
          "name": "",
          "type": "uint256"
        }
      ],
      "stateMutability": "view",
      "type": "function"
    },
    {
      "inputs": [],
      "name": "EXCHANGE_UNISWAP_V3",
      "outputs": [
        {
          "internalType": "uint256",
          "name": "",
          "type": "uint256"
        }
      ],
      "stateMutability": "view",
      "type": "function"
    },
    {
      "inputs": [],
      "name": "MAX_COMPLEX_LEVEL",
      "outputs": [
        {
          "internalType": "uint256",
          "name": "",
          "type": "uint256"
        }
      ],
      "stateMutability": "view",
      "type": "function"
    },
    {
      "inputs": [],
      "name": "SWAP_EBANK_CTOKENS_CTOKENS",
      "outputs": [
        {
          "internalType": "uint256",
          "name": "",
          "type": "uint256"
        }
      ],
      "stateMutability": "view",
      "type": "function"
    },
    {
      "inputs": [],
      "name": "SWAP_EBANK_ETH_TOKENS",
      "outputs": [
        {
          "internalType": "uint256",
          "name": "",
          "type": "uint256"
        }
      ],
      "stateMutability": "view",
      "type": "function"
    },
    {
      "inputs": [],
      "name": "SWAP_EBANK_TOKENS_ETH",
      "outputs": [
        {
          "internalType": "uint256",
          "name": "",
          "type": "uint256"
        }
      ],
      "stateMutability": "view",
      "type": "function"
    },
    {
      "inputs": [],
      "name": "SWAP_EBANK_TOKENS_TOKENS",
      "outputs": [
        {
          "internalType": "uint256",
          "name": "",
          "type": "uint256"
        }
      ],
      "stateMutability": "view",
      "type": "function"
    },
    {
      "inputs": [
        {
          "internalType": "address",
          "name": "aToken",
          "type": "address"
        }
      ],
      "name": "aaveDepositToken",
      "outputs": [],
      "stateMutability": "pure",
      "type": "function"
    },
    {
      "inputs": [
        {
          "internalType": "address",
          "name": "aToken",
          "type": "address"
        },
        {
          "internalType": "uint256",
          "name": "amt",
          "type": "uint256"
        }
      ],
      "name": "aaveWithdrawToken",
      "outputs": [],
      "stateMutability": "pure",
      "type": "function"
    },
    {
      "inputs": [
        {
          "internalType": "address",
          "name": "tokenIn",
          "type": "address"
        },
        {
          "internalType": "address",
          "name": "tokenOut",
          "type": "address"
        },
        {
          "internalType": "address[]",
          "name": "midTokens",
          "type": "address[]"
        },
        {
          "internalType": "uint256",
          "name": "complexLevel",
          "type": "uint256"
        }
      ],
      "name": "allPaths",
      "outputs": [
        {
          "internalType": "address[][]",
          "name": "paths",
          "type": "address[][]"
        }
      ],
      "stateMutability": "pure",
      "type": "function"
    },
    {
      "inputs": [
        {
          "internalType": "contract ICToken",
          "name": "ctoken",
          "type": "ICToken"
        }
      ],
      "name": "calcCTokenExchangeRate",
      "outputs": [
        {
          "internalType": "uint256",
          "name": "",
          "type": "uint256"
        }
      ],
      "stateMutability": "view",
      "type": "function"
    },
    {
      "inputs": [
        {
          "components": [
            {
              "internalType": "uint256",
              "name": "exFlag",
              "type": "uint256"
            },
            {
              "internalType": "address",
              "name": "contractAddr",
              "type": "address"
            }
          ],
          "internalType": "struct DataTypes.Exchange",
          "name": "ex",
          "type": "tuple"
        },
        {
          "internalType": "address[]",
          "name": "path",
          "type": "address[]"
        },
        {
          "internalType": "uint256[]",
          "name": "amts",
          "type": "uint256[]"
        },
        {
          "internalType": "address",
          "name": "to",
          "type": "address"
        }
      ],
      "name": "calcDistributes",
      "outputs": [
        {
          "internalType": "uint256[]",
          "name": "distributes",
          "type": "uint256[]"
        }
      ],
      "stateMutability": "view",
      "type": "function"
    },
    {
      "inputs": [
        {
          "internalType": "address",
          "name": "ctoken",
          "type": "address"
        },
        {
          "internalType": "uint256[]",
          "name": "amounts",
          "type": "uint256[]"
        },
        {
          "internalType": "uint256",
          "name": "parts",
          "type": "uint256"
        }
      ],
      "name": "convertCompoundCtokenMinted",
      "outputs": [
        {
          "internalType": "uint256[]",
          "name": "",
          "type": "uint256[]"
        }
      ],
      "stateMutability": "view",
      "type": "function"
    },
    {
      "inputs": [
        {
          "internalType": "address",
          "name": "ctoken",
          "type": "address"
        },
        {
          "internalType": "uint256[]",
          "name": "cAmounts",
          "type": "uint256[]"
        },
        {
          "internalType": "uint256",
          "name": "parts",
          "type": "uint256"
        }
      ],
      "name": "convertCompoundTokenRedeemed",
      "outputs": [
        {
          "internalType": "uint256[]",
          "name": "",
          "type": "uint256[]"
        }
      ],
      "stateMutability": "view",
      "type": "function"
    },
    {
      "inputs": [
        {
          "internalType": "address",
          "name": "addr",
          "type": "address"
        },
        {
          "internalType": "uint256",
          "name": "i",
          "type": "uint256"
        },
        {
          "internalType": "uint256",
          "name": "j",
          "type": "uint256"
        },
        {
          "internalType": "uint256",
          "name": "dx",
          "type": "uint256"
        }
      ],
      "name": "curveSwap",
      "outputs": [
        {
          "internalType": "uint256",
          "name": "",
          "type": "uint256"
        }
      ],
      "stateMutability": "view",
      "type": "function"
    },
    {
      "inputs": [
        {
          "internalType": "address",
          "name": "router",
          "type": "address"
        },
        {
          "internalType": "address[]",
          "name": "path",
          "type": "address[]"
        },
        {
          "internalType": "uint256",
          "name": "amountIn",
          "type": "uint256"
        },
        {
          "internalType": "address",
          "name": "to",
          "type": "address"
        }
      ],
      "name": "ebankSwap",
      "outputs": [
        {
          "internalType": "uint256",
          "name": "",
          "type": "uint256"
        }
      ],
      "stateMutability": "view",
      "type": "function"
    },
    {
      "inputs": [
        {
          "internalType": "uint256",
          "name": "flag",
          "type": "uint256"
        },
        {
          "internalType": "uint256",
          "name": "midTokens",
          "type": "uint256"
        },
        {
          "internalType": "uint256",
          "name": "complexLevel",
          "type": "uint256"
        }
      ],
      "name": "getExchangeRoutes",
      "outputs": [
        {
          "internalType": "uint256",
          "name": "",
          "type": "uint256"
        }
      ],
      "stateMutability": "pure",
      "type": "function"
    },
    {
      "inputs": [
        {
          "internalType": "address",
          "name": "router",
          "type": "address"
        },
        {
          "internalType": "address[]",
          "name": "path",
          "type": "address[]"
        }
      ],
      "name": "getReserves",
      "outputs": [
        {
          "internalType": "uint256[][]",
          "name": "reserves",
          "type": "uint256[][]"
        }
      ],
      "stateMutability": "view",
      "type": "function"
    },
    {
      "inputs": [
        {
          "internalType": "uint256",
          "name": "flag",
          "type": "uint256"
        }
      ],
      "name": "isEBankExchange",
      "outputs": [
        {
          "internalType": "bool",
          "name": "",
          "type": "bool"
        }
      ],
      "stateMutability": "pure",
      "type": "function"
    },
    {
      "inputs": [
        {
          "internalType": "uint256",
          "name": "flag",
          "type": "uint256"
        }
      ],
      "name": "isUniswapLikeExchange",
      "outputs": [
        {
          "internalType": "bool",
          "name": "",
          "type": "bool"
        }
      ],
      "stateMutability": "pure",
      "type": "function"
    },
    {
      "inputs": [
        {
          "internalType": "address",
          "name": "router",
          "type": "address"
        },
        {
          "internalType": "address[]",
          "name": "path",
          "type": "address[]"
        },
        {
          "internalType": "uint256[]",
          "name": "amountIns",
          "type": "uint256[]"
        }
      ],
      "name": "uniswapLikeSwap",
      "outputs": [
        {
          "internalType": "uint256[]",
          "name": "amountOuts",
          "type": "uint256[]"
        }
      ],
      "stateMutability": "view",
      "type": "function"
    }
  ],
  "transactionHash": "0x0138ec422d1742d07d3f8a4465d8ffc27d0045fa400dafdee7d8ed4c2a79f888",
  "args": [],
  "solcInputHash": "bddb41bb9088066bf2db791dc851356b",
  "bytecode": "0x61276d610026600b82828239805160001a60731461001957fe5b30600052607381538281f3fe73000000000000000000000000000000000000000030146080604052600436106101ce5760003560e01c80637ccea13911610103578063baef8529116100a1578063d45314401161007b578063d4531440146103a3578063edc4593c146103c3578063f38ff874146103d6578063fa32784b146101d3576101ce565b8063baef8529146102dd578063c21eedc3146101d3578063cb8b387714610390576101ce565b80638e06405c116100dd5780638e06405c1461033557806392327f3f1461035557806392c71f4e1461035d578063a076618314610370576101ce565b80637ccea139146102f8578063852c8cc11461031a57806388db6b761461032d576101ce565b8063515a96151161017057806363edc65a1161014a57806363edc65a146102b757806365f93459146102ca5780636d682539146102dd5780637bba8b05146102e5576101ce565b8063515a96151461026457806355c469e11461027757806358d0dd2914610297576101ce565b806329675db9116101ac57806329675db9146101d35780634c1a86b6146102115780634c5f70041461023157806350ef7c0914610251576101ce565b806311e6dbae146101d35780631e426684146101d3578063275f5396146101f1575b600080fd5b6101db6103e9565b6040516101e891906126b7565b60405180910390f35b6102046101ff3660046120df565b6103ee565b6040516101e89190612541565b61022461021f366004612366565b61073d565b6040516101e891906125a7565b81801561023d57600080fd5b506101db61024c36600461203f565b610759565b6101db61025f3660046121a0565b610849565b6101db61027236600461228c565b610c72565b61028a6102853660046122c6565b610d17565b6040516101e89190612594565b8180156102a357600080fd5b506101db6102b2366004612261565b610df2565b6101db6102c5366004612396565b610f92565b61028a6102d836600461220a565b610fbe565b6101db61107f565b61028a6102f336600461220a565b611084565b81801561030457600080fd5b50610318610313366004612261565b61111f565b005b61031861032836600461203f565b61119a565b6101db61119d565b81801561034157600080fd5b506101db610350366004612261565b6111a2565b6101db611202565b6101db61036b36600461203f565b611207565b61038361037e366004612077565b6113a2565b6040516101e891906124b2565b61028a61039e36600461212d565b61149f565b8180156103af57600080fd5b506103186103be366004612261565b611958565b6102246103d1366004612366565b6119f6565b6103186103e4366004612261565b611a1f565b600181565b80516060908067ffffffffffffffff8111801561040a57600080fd5b5060405190808252806020026020018201604052801561043e57816020015b60608152602001906001900390816104295790505b5091506000846001600160a01b031663c45a01556040518163ffffffff1660e01b815260040160206040518083038186803b15801561047c57600080fd5b505afa158015610490573d6000803e3d6000fd5b505050506040513d601f19601f820116820180604052508101906104b4919061205b565b905060005b60018303811015610734576000826001600160a01b031663e6a439058784815181106104e157fe5b60200260200101518885600101815181106104f857fe5b60200260200101516040518363ffffffff1660e01b815260040161051d929190612475565b60206040518083038186803b15801561053557600080fd5b505afa158015610549573d6000803e3d6000fd5b505050506040513d601f19601f8201168201806040525081019061056d919061205b565b6040805160028082526060808301845293945090916020830190803683370190505090506001600160a01b0382166105be57808684815181106105ac57fe5b6020026020010181905250505061072c565b8683815181106105ca57fe5b60200260200101516001600160a01b03166370a08231836040518263ffffffff1660e01b81526004016105fd9190612461565b60206040518083038186803b15801561061557600080fd5b505afa158015610629573d6000803e3d6000fd5b505050506040513d601f19601f8201168201806040525081019061064d919061237e565b8160008151811061065a57fe5b60200260200101818152505086836001018151811061067557fe5b60200260200101516001600160a01b03166370a08231836040518263ffffffff1660e01b81526004016106a89190612461565b60206040518083038186803b1580156106c057600080fd5b505afa1580156106d4573d6000803e3d6000fd5b505050506040513d601f19601f820116820180604052508101906106f8919061237e565b8160018151811061070557fe5b6020026020010181815250508086848151811061071e57fe5b602002602001018190525050505b6001016104b9565b50505092915050565b6000600382141561075057506001610754565b5060005b919050565b6000816001600160a01b031663d0e30db06040518163ffffffff1660e01b8152600401600060405180830381600087803b15801561079657600080fd5b505af11580156107aa573d6000803e3d6000fd5b50506040517f70a082310000000000000000000000000000000000000000000000000000000081526001600160a01b03851692506370a0823191506107f3903090600401612461565b60206040518083038186803b15801561080b57600080fd5b505afa15801561081f573d6000803e3d6000fd5b505050506040513d601f19601f82011682018060405250810190610843919061237e565b92915050565b600080856001600160a01b031663c45a01556040518163ffffffff1660e01b815260040160206040518083038186803b15801561088557600080fd5b505afa158015610899573d6000803e3d6000fd5b505050506040513d601f19601f820116820180604052508101906108bd919061205b565b90506060855167ffffffffffffffff811180156108d957600080fd5b50604051908082528060200260200182016040528015610903578160200160208202803683370190505b509050848160008151811061091457fe5b60200260200101818152505060005b6001875103811015610c4c576000836001600160a01b031663e6a4390589848151811061094c57fe5b60200260200101518a856001018151811061096357fe5b60200260200101516040518363ffffffff1660e01b8152600401610988929190612475565b60206040518083038186803b1580156109a057600080fd5b505afa1580156109b4573d6000803e3d6000fd5b505050506040513d601f19601f820116820180604052508101906109d8919061205b565b90506001600160a01b0381166109f5576000945050505050610c6a565b600080600080876001600160a01b0316637f33ffc38d8881518110610a1657fe5b60200260200101518e8960010181518110610a2d57fe5b60200260200101518d6040518463ffffffff1660e01b8152600401610a549392919061248f565b60806040518083038186803b158015610a6c57600080fd5b505afa158015610a80573d6000803e3d6000fd5b505050506040513d601f19601f82011682018060405250810190610aa491906123ee565b93509350935093508360001480610ab9575082155b15610acf57600098505050505050505050610c6a565b8015610b8a57876001600160a01b0316630b64aa63888881518110610af057fe5b60200260200101518686866040518563ffffffff1660e01b8152600401610b1a94939291906126c0565b60206040518083038186803b158015610b3257600080fd5b505afa158015610b46573d6000803e3d6000fd5b505050506040513d601f19601f82011682018060405250810190610b6a919061237e565b878760010181518110610b7957fe5b602002602001018181525050610c3b565b876001600160a01b0316636e2b0fa7888881518110610ba557fe5b60200260200101518686866040518563ffffffff1660e01b8152600401610bcf94939291906126c0565b60206040518083038186803b158015610be757600080fd5b505afa158015610bfb573d6000803e3d6000fd5b505050506040513d601f19601f82011682018060405250810190610c1f919061237e565b878760010181518110610c2e57fe5b6020026020010181815250505b505060019093019250610923915050565b5080600182510381518110610c5d57fe5b6020026020010151925050505b949350505050565b6040517f5e0d443f0000000000000000000000000000000000000000000000000000000081526000906001600160a01b03861690635e0d443f90610cbe908790879087906004016125b2565b60206040518083038186803b158015610cd657600080fd5b505afa158015610cea573d6000803e3d6000fd5b505050506040513d601f19601f82011682018060405250810190610d0e919061237e565b95945050505050565b83516020850151606091906001821480610d315750600282145b15610d4857610d4181878761149f565b9250610de8565b6003821415610de857845160010167ffffffffffffffff81118015610d6c57600080fd5b50604051908082528060200260200182016040528015610d96578160200160208202803683370190505b50925060005b8551811015610de657610dc48288888481518110610db657fe5b602002602001015188610849565b848260010181518110610dd357fe5b6020908102919091010152600101610d9c565b505b5050949350505050565b600080836001600160a01b03166370a08231306040518263ffffffff1660e01b8152600401610e219190612461565b60206040518083038186803b158015610e3957600080fd5b505afa158015610e4d573d6000803e3d6000fd5b505050506040513d601f19601f82011682018060405250810190610e71919061237e565b6040517fa0712d680000000000000000000000000000000000000000000000000000000081529091506001600160a01b0385169063a0712d6890610eb99086906004016126b7565b602060405180830381600087803b158015610ed357600080fd5b505af1158015610ee7573d6000803e3d6000fd5b505050506040513d601f19601f82011682018060405250810190610f0b919061237e565b50610c6a81856001600160a01b03166370a08231306040518263ffffffff1660e01b8152600401610f3c9190612461565b60206040518083038186803b158015610f5457600080fd5b505afa158015610f68573d6000803e3d6000fd5b505050506040513d601f19601f82011682018060405250810190610f8c919061237e565b90611a23565b6000610f9d846119f6565b15610fb357610fac8383611a65565b9050610fb7565b5060015b9392505050565b60606000610fcb85611207565b905060608367ffffffffffffffff81118015610fe657600080fd5b50604051908082528060200260200182016040528015611010578160200160208202803683370190505b50905060005b848110156110755761105683611050670de0b6b3a764000089858151811061103a57fe5b6020026020010151611abf90919063ffffffff16565b90611b02565b82828151811061106257fe5b6020908102919091010152600101611016565b5095945050505050565b600381565b6060600061109185611207565b905060608367ffffffffffffffff811180156110ac57600080fd5b506040519080825280602002602001820160405280156110d6578160200160208202803683370190505b50905060005b8481101561107557611100670de0b6b3a76400006110508589858151811061103a57fe5b82828151811061110c57fe5b60209081029190910101526001016110dc565b6040517f2e1a7d4d0000000000000000000000000000000000000000000000000000000081526001600160a01b03831690632e1a7d4d906111649084906004016126b7565b600060405180830381600087803b15801561117e57600080fd5b505af1158015611192573d6000803e3d6000fd5b505050505050565b50565b600481565b6000826001600160a01b031663d0e30db0836040518263ffffffff1660e01b81526004016000604051808303818588803b1580156111df57600080fd5b505af11580156111f3573d6000803e3d6000fd5b5050505050610fb78383610df2565b600281565b600080826001600160a01b031663182df0f56040518163ffffffff1660e01b815260040160206040518083038186803b15801561124357600080fd5b505afa158015611257573d6000803e3d6000fd5b505050506040513d601f19601f8201168201806040525081019061127b919061237e565b90506000836001600160a01b031663ae9d70b06040518163ffffffff1660e01b815260040160206040518083038186803b1580156112b857600080fd5b505afa1580156112cc573d6000803e3d6000fd5b505050506040513d601f19601f820116820180604052508101906112f0919061237e565b90506000846001600160a01b0316636c540baf6040518163ffffffff1660e01b815260040160206040518083038186803b15801561132d57600080fd5b505afa158015611341573d6000803e3d6000fd5b505050506040513d601f19601f82011682018060405250810190611365919061237e565b905060006113734383611a23565b9050600061138b826113858787611abf565b90611abf565b90506113978582611b44565b979650505050505050565b815160609060038311156113b557600392505b8083106113c0578092505b60006113cc8285611a65565b905060008167ffffffffffffffff811180156113e757600080fd5b5060405190808252806020026020018201604052801561141b57816020015b60608152602001906001900390816114065790505b506040805160018082528183019092529195506060919060208083019080368337019050509050888160008151811061145057fe5b60200260200101906001600160a01b031690816001600160a01b03168152505060005b868111611492576114888684838c8c87611b69565b9250600101611473565b5050505050949350505050565b8151606090818167ffffffffffffffff811180156114bc57600080fd5b506040519080825280602002602001820160405280156114e6578160200160208202803683370190505b509050835160010167ffffffffffffffff8111801561150457600080fd5b5060405190808252806020026020018201604052801561152e578160200160208202803683370190505b5092506000866001600160a01b031663c45a01556040518163ffffffff1660e01b815260040160206040518083038186803b15801561156c57600080fd5b505afa158015611580573d6000803e3d6000fd5b505050506040513d601f19601f820116820180604052508101906115a4919061205b565b905060005b6001840381101561181b576000826001600160a01b031663e6a439058984815181106115d157fe5b60200260200101518a85600101815181106115e857fe5b60200260200101516040518363ffffffff1660e01b815260040161160d929190612475565b60206040518083038186803b15801561162557600080fd5b505afa158015611639573d6000803e3d6000fd5b505050506040513d601f19601f8201168201806040525081019061165d919061205b565b90506001600160a01b038116611677575050505050610fb7565b87828151811061168357fe5b60200260200101516001600160a01b03166370a08231826040518263ffffffff1660e01b81526004016116b69190612461565b60206040518083038186803b1580156116ce57600080fd5b505afa1580156116e2573d6000803e3d6000fd5b505050506040513d601f19601f82011682018060405250810190611706919061237e565b84838151811061171257fe5b60200260200101818152505087826001018151811061172d57fe5b60200260200101516001600160a01b03166370a08231826040518263ffffffff1660e01b81526004016117609190612461565b60206040518083038186803b15801561177857600080fd5b505afa15801561178c573d6000803e3d6000fd5b505050506040513d601f19601f820116820180604052508101906117b0919061237e565b8483600101815181106117bf57fe5b6020026020010181815250508382815181106117d757fe5b60200260200101516000148061180357508382600101815181106117f757fe5b60200260200101516000145b15611812575050505050610fb7565b506001016115a9565b5060608367ffffffffffffffff8111801561183557600080fd5b5060405190808252806020026020018201604052801561185f578160200160208202803683370190505b50905060005b865181101561194c5786818151811061187a57fe5b60200260200101518260008151811061188f57fe5b60200260200101818152505060005b60018603811015611912576118f08582815181106118b857fe5b60200260200101518683600101815181106118cf57fe5b60200260200101518584815181106118e357fe5b6020026020010151611e6e565b8382600101815181106118ff57fe5b602090810291909101015260010161189e565b5081600186038151811061192257fe5b602002602001015186826001018151811061193957fe5b6020908102919091010152600101611865565b50505050509392505050565b6040517fdb006a750000000000000000000000000000000000000000000000000000000081526001600160a01b0383169063db006a759061199d9084906004016126b7565b606060405180830381600087803b1580156119b757600080fd5b505af11580156119cb573d6000803e3d6000fd5b505050506040513d601f19601f820116820180604052508101906119ef91906123c1565b5050505050565b60006001821480611a075750600282145b80611a125750600382145b1561075057506001610754565b5050565b6000610fb783836040518060400160405280601e81526020017f536166654d6174683a207375627472616374696f6e206f766572666c6f770000815250611eb1565b600060016003831115611a7757600392505b838310611a82578392505b60015b838111611ab757600160005b82811015611aa9578087039190910290600101611a91565b509190910190600101611a85565b509392505050565b600082611ace57506000610843565b82820282848281611adb57fe5b0414610fb75760405162461bcd60e51b8152600401611af99061265a565b60405180910390fd5b6000610fb783836040518060400160405280601a81526020017f536166654d6174683a206469766973696f6e206279207a65726f000000000000815250611edd565b600082820183811015610fb75760405162461bcd60e51b8152600401611af990612623565b600084611c5c576060825160010167ffffffffffffffff81118015611b8d57600080fd5b50604051908082528060200260200182016040528015611bb7578160200160208202803683370190505b50905060005b8351811015611c0657838181518110611bd257fe5b6020026020010151828281518110611be657fe5b6001600160a01b0390921660209283029190910190910152600101611bbd565b508481600183510381518110611c1857fe5b60200260200101906001600160a01b031690816001600160a01b03168152505080888881518110611c4557fe5b602002602001018190525086600101915050611e64565b60005b8351811015611e5f576060835160010167ffffffffffffffff81118015611c8557600080fd5b50604051908082528060200260200182016040528015611caf578160200160208202803683370190505b50905060005b8451811015611cfe57848181518110611cca57fe5b6020026020010151828281518110611cde57fe5b6001600160a01b0390921660209283029190910190910152600101611cb5565b506000858381518110611d0d57fe5b602002602001015190508082600184510381518110611d2857fe5b60200260200101906001600160a01b031690816001600160a01b0316815250506000805b8751811015611d8b576000888281518110611d6357fe5b60200260200101519050611d778582611f14565b611d82576001909201915b50600101611d4c565b5060608167ffffffffffffffff81118015611da557600080fd5b50604051908082528060200260200182016040528015611dcf578160200160208202803683370190505b5090506000805b8951811015611e3a5760008a8281518110611ded57fe5b60200260200101519050611e018782611f14565b611e315780848481518110611e1257fe5b6001600160a01b03909216602092830291909101909101526001909201915b50600101611dd6565b50611e4c8d8d60018e038d868a611b69565b9b505060019094019350611c5f92505050565b508590505b9695505050505050565b600081611e7d57506000610fb7565b610c6a611ea1611e8f846103e5611abf565b611e9b876103e8611abf565b90611b44565b6110506103e56113858688611abf565b60008184841115611ed55760405162461bcd60e51b8152600401611af991906125d0565b505050900390565b60008183611efe5760405162461bcd60e51b8152600401611af991906125d0565b506000838581611f0a57fe5b0495945050505050565b6000805b8351811015611f6057838181518110611f2d57fe5b60200260200101516001600160a01b0316836001600160a01b03161415611f58576001915050610843565b600101611f18565b5060009392505050565b600082601f830112611f7a578081fd5b8135611f8d611f8882612702565b6126db565b818152915060208083019084810181840286018201871015611fae57600080fd5b60005b84811015611fd6578135611fc481612722565b84529282019290820190600101611fb1565b505050505092915050565b600082601f830112611ff1578081fd5b8135611fff611f8882612702565b81815291506020808301908481018184028601820187101561202057600080fd5b60005b84811015611fd657813584529282019290820190600101612023565b600060208284031215612050578081fd5b8135610fb781612722565b60006020828403121561206c578081fd5b8151610fb781612722565b6000806000806080858703121561208c578283fd5b843561209781612722565b935060208501356120a781612722565b9250604085013567ffffffffffffffff8111156120c2578283fd5b6120ce87828801611f6a565b949793965093946060013593505050565b600080604083850312156120f1578182fd5b82356120fc81612722565b9150602083013567ffffffffffffffff811115612117578182fd5b61212385828601611f6a565b9150509250929050565b600080600060608486031215612141578283fd5b833561214c81612722565b9250602084013567ffffffffffffffff80821115612168578384fd5b61217487838801611f6a565b93506040860135915080821115612189578283fd5b5061219686828701611fe1565b9150509250925092565b600080600080608085870312156121b5578384fd5b84356121c081612722565b9350602085013567ffffffffffffffff8111156121db578384fd5b6121e787828801611f6a565b9350506040850135915060608501356121ff81612722565b939692955090935050565b60008060006060848603121561221e578283fd5b833561222981612722565b9250602084013567ffffffffffffffff811115612244578283fd5b61225086828701611fe1565b925050604084013590509250925092565b60008060408385031215612273578182fd5b823561227e81612722565b946020939093013593505050565b600080600080608085870312156122a1578384fd5b84356122ac81612722565b966020860135965060408601359560600135945092505050565b60008060008084860360a08112156122dc578283fd5b60408112156122e9578283fd5b506122f460406126db565b85358152602086013561230681612722565b60208201529350604085013567ffffffffffffffff80821115612327578384fd5b61233388838901611f6a565b94506060870135915080821115612348578384fd5b5061235587828801611fe1565b92505060808501356121ff81612722565b600060208284031215612377578081fd5b5035919050565b60006020828403121561238f578081fd5b5051919050565b6000806000606084860312156123aa578081fd5b505081359360208301359350604090920135919050565b6000806000606084860312156123d5578081fd5b8351925060208401519150604084015190509250925092565b60008060008060808587031215612403578182fd5b845193506020850151925060408501519150606085015180151581146121ff578182fd5b6000815180845260208085019450808401835b838110156124565781518752958201959082019060010161243a565b509495945050505050565b6001600160a01b0391909116815260200190565b6001600160a01b0392831681529116602082015260400190565b6001600160a01b0393841681529183166020830152909116604082015260600190565b6000602080830181845280855180835260408601915060408482028701019250838701855b8281101561253457878503603f19018452815180518087529087019087870190895b8181101561251e5783516001600160a01b0316835292890192918901916001016124f9565b50909650505092850192908501906001016124d7565b5092979650505050505050565b6000602080830181845280855180835260408601915060408482028701019250838701855b8281101561253457603f19888603018452612582858351612427565b94509285019290850190600101612566565b600060208252610fb76020830184612427565b901515815260200190565b600f93840b81529190920b6020820152604081019190915260600190565b6000602080835283518082850152825b818110156125fc578581018301518582016040015282016125e0565b8181111561260d5783604083870101525b50601f01601f1916929092016040019392505050565b6020808252601b908201527f536166654d6174683a206164646974696f6e206f766572666c6f770000000000604082015260600190565b60208082526021908201527f536166654d6174683a206d756c7469706c69636174696f6e206f766572666c6f60408201527f7700000000000000000000000000000000000000000000000000000000000000606082015260800190565b90815260200190565b93845260208401929092526040830152606082015260800190565b60405181810167ffffffffffffffff811182821017156126fa57600080fd5b604052919050565b600067ffffffffffffffff821115612718578081fd5b5060209081020190565b6001600160a01b038116811461119a57600080fdfea264697066735822122007c7d95a4b5b00f25efaa2be88317b03a533d0d44e45a45ac896b64ebc2bbbba64736f6c634300060c0033",
  "devdoc": {
    "author": "ebankex",
    "details": "Exchanges are used for aggressive swap within multi swap exchanges.*",
    "kind": "dev",
    "methods": {
      "aaveDepositToken(address)": {
        "details": "aave deposit token"
      },
      "aaveWithdrawToken(address,uint256)": {
        "details": "withdraw aave token"
      },
      "calcCTokenExchangeRate(ICToken)": {
        "details": " ctoken  exchange rate"
      },
      "calcDistributes(DataTypes.Exchange,address[],uint256[],address)": {
        "details": "calcDistributes calc swap exchange"
      },
      "compoundMintETH(address,uint256)": {
        "details": "compund mint ETH"
      },
      "compoundRedeemCToken(address,uint256)": {
        "details": "compoundRedeemCToken redeem compound token",
        "params": {
          "amount": "amount to redeem",
          "ctoken": "compund token"
        }
      },
      "convertCompoundCtokenMinted(address,uint256[],uint256)": {
        "details": " token  mint  ctoken"
      },
      "convertCompoundTokenRedeemed(address,uint256[],uint256)": {
        "details": " ctoken  redeem  token"
      },
      "curveSwap(address,uint256,uint256,uint256)": {
        "details": "swap stable coin in curve"
      },
      "ebankSwap(address,address[],uint256,address)": {
        "details": "ebank exchange"
      }
    },
    "title": "Exchanges library  mint ",
    "version": 1
  },
  "userdoc": {
    "kind": "user",
    "methods": {},
    "notice": "Provides data types and functions to perform step swap calculations",
    "version": 1
  },
  "storageLayout": {
    "storage": [],
    "types": null
  }
}