{
  "address": "0x71B01154717678BD2380b6B96273F3f8CB06C7A9",
  "abi": [
    {
      "inputs": [
        {
          "internalType": "address",
          "name": "_implementation",
          "type": "address"
        },
        {
          "internalType": "address",
          "name": "comptroller_",
          "type": "address"
        },
        {
          "internalType": "address",
          "name": "intersetRateModel",
          "type": "address"
        }
      ],
      "payable": false,
      "stateMutability": "nonpayable",
      "type": "constructor"
    },
    {
      "anonymous": false,
      "inputs": [
        {
          "indexed": false,
          "internalType": "address",
          "name": "token",
          "type": "address"
        },
        {
          "indexed": false,
          "internalType": "address",
          "name": "delegator",
          "type": "address"
        }
      ],
      "name": "NewDelegator",
      "type": "event"
    },
    {
      "constant": false,
      "inputs": [
        {
          "internalType": "address",
          "name": "token",
          "type": "address"
        },
        {
          "internalType": "address",
          "name": "cToken",
          "type": "address"
        }
      ],
      "name": "addNewCToken",
      "outputs": [
        {
          "internalType": "uint256",
          "name": "",
          "type": "uint256"
        }
      ],
      "payable": false,
      "stateMutability": "nonpayable",
      "type": "function"
    },
    {
      "constant": true,
      "inputs": [
        {
          "internalType": "address",
          "name": "",
          "type": "address"
        }
      ],
      "name": "cTokenKeyMapping",
      "outputs": [
        {
          "internalType": "address",
          "name": "",
          "type": "address"
        }
      ],
      "payable": false,
      "stateMutability": "view",
      "type": "function"
    },
    {
      "constant": true,
      "inputs": [],
      "name": "comptroller",
      "outputs": [
        {
          "internalType": "contract ComptrollerInterface",
          "name": "",
          "type": "address"
        }
      ],
      "payable": false,
      "stateMutability": "view",
      "type": "function"
    },
    {
      "constant": true,
      "inputs": [],
      "name": "decimals_",
      "outputs": [
        {
          "internalType": "uint8",
          "name": "",
          "type": "uint8"
        }
      ],
      "payable": false,
      "stateMutability": "view",
      "type": "function"
    },
    {
      "constant": false,
      "inputs": [
        {
          "internalType": "address",
          "name": "underlying_",
          "type": "address"
        },
        {
          "internalType": "contract ComptrollerInterface",
          "name": "comptroller_",
          "type": "address"
        },
        {
          "internalType": "contract InterestRateModel",
          "name": "interestRateModel_",
          "type": "address"
        },
        {
          "internalType": "uint256",
          "name": "initialExchangeRateMantissa_",
          "type": "uint256"
        },
        {
          "internalType": "string",
          "name": "name_",
          "type": "string"
        },
        {
          "internalType": "string",
          "name": "symbol_",
          "type": "string"
        },
        {
          "internalType": "uint8",
          "name": "decimals_",
          "type": "uint8"
        },
        {
          "internalType": "address payable",
          "name": "admin_",
          "type": "address"
        },
        {
          "internalType": "address",
          "name": "implementation_",
          "type": "address"
        },
        {
          "internalType": "bytes",
          "name": "becomeImplementationData",
          "type": "bytes"
        }
      ],
      "name": "delegateToInitialize",
      "outputs": [],
      "payable": false,
      "stateMutability": "nonpayable",
      "type": "function"
    },
    {
      "constant": false,
      "inputs": [
        {
          "internalType": "address",
          "name": "token",
          "type": "address"
        }
      ],
      "name": "getCTokenAddress",
      "outputs": [
        {
          "internalType": "address",
          "name": "cToken",
          "type": "address"
        }
      ],
      "payable": false,
      "stateMutability": "nonpayable",
      "type": "function"
    },
    {
      "constant": true,
      "inputs": [
        {
          "internalType": "address",
          "name": "token",
          "type": "address"
        }
      ],
      "name": "getCTokenAddressPure",
      "outputs": [
        {
          "internalType": "address",
          "name": "",
          "type": "address"
        }
      ],
      "payable": false,
      "stateMutability": "view",
      "type": "function"
    },
    {
      "constant": true,
      "inputs": [
        {
          "internalType": "address",
          "name": "cToken",
          "type": "address"
        }
      ],
      "name": "getTokenAddress",
      "outputs": [
        {
          "internalType": "address",
          "name": "",
          "type": "address"
        }
      ],
      "payable": false,
      "stateMutability": "view",
      "type": "function"
    },
    {
      "constant": true,
      "inputs": [],
      "name": "initCodeHash",
      "outputs": [
        {
          "internalType": "bytes32",
          "name": "",
          "type": "bytes32"
        }
      ],
      "payable": false,
      "stateMutability": "view",
      "type": "function"
    },
    {
      "constant": true,
      "inputs": [],
      "name": "interestRateModel_",
      "outputs": [
        {
          "internalType": "contract InterestRateModel",
          "name": "",
          "type": "address"
        }
      ],
      "payable": false,
      "stateMutability": "view",
      "type": "function"
    },
    {
      "constant": false,
      "inputs": [
        {
          "internalType": "address",
          "name": "token_",
          "type": "address"
        }
      ],
      "name": "newDelegator",
      "outputs": [
        {
          "internalType": "address",
          "name": "delegator",
          "type": "address"
        }
      ],
      "payable": false,
      "stateMutability": "nonpayable",
      "type": "function"
    },
    {
      "constant": true,
      "inputs": [
        {
          "internalType": "string",
          "name": "_a",
          "type": "string"
        },
        {
          "internalType": "string",
          "name": "_b",
          "type": "string"
        }
      ],
      "name": "strConcat",
      "outputs": [
        {
          "internalType": "string",
          "name": "",
          "type": "string"
        }
      ],
      "payable": false,
      "stateMutability": "view",
      "type": "function"
    },
    {
      "constant": true,
      "inputs": [
        {
          "internalType": "address",
          "name": "",
          "type": "address"
        }
      ],
      "name": "tokenKeyMapping",
      "outputs": [
        {
          "internalType": "address",
          "name": "",
          "type": "address"
        }
      ],
      "payable": false,
      "stateMutability": "view",
      "type": "function"
    }
  ],
  "transactionHash": "0x05e98ffecd13ee369d15891a29c58a0ff17533bfd6c6e1d18bc1caf8c8e18e5d",
  "args": [
    "0x9A054dfC0ddD3242a2DCD952Cb8E2FB29E438b14",
    "0xEe7ba884DB799A9eBAa59A0147a67425bE7f504F",
    "0x713e4f086A0D024460Bb2A0De4594A3d0b0FfaDF"
  ],
  "solcInputHash": "93a3accbeec1c295fa552b97c8505597",
  "bytecode": "0x60806040526801158e460913d0000060035560048054601260ff1990911617610100600160a81b0319167478a3970a965d347ad83c8350ab49ebfa62ac2dc50017905534801561004e57600080fd5b50604051613dae380380613dae8339818101604052606081101561007157600080fd5b50805160208083015160409384015160048054610100600160a81b0319163361010002179055600180546001600160a01b03199081166001600160a01b03808616919091179092556005805482168388161790556002805490911691831691909117905593519293909290916100e8908201610177565b6020820181038252601f19601f820116604052506040516020018082805190602001908083835b6020831061012e5780518252601f19909201916020918201910161010f565b6001836020036101000a03801982511681845116808217855250505050505090500191505060405160208183030381529060405280519060200120600081905550505050610184565b6116a88061270683390190565b612573806101936000396000f3fe608060405234801561001057600080fd5b50600436106100ce5760003560e01c8063bf4b8c091161008c578063f5f5277511610066578063f5f52775146103da578063f6b6cc9d14610400578063f785ef7214610426578063ff74927b14610444576100ce565b8063bf4b8c0914610386578063db4c545e146103ac578063e297943e146103b4576100ce565b8062e68651146100d35780630456e3ae1461011357806326c7bd93146101375780634ea7ba691461015d5780635fe3b56714610358578063b8d7b66914610360575b600080fd5b610101600480360360408110156100e957600080fd5b506001600160a01b03813581169160200135166105e2565b60408051918252519081900360200190f35b61011b6106ac565b604080516001600160a01b039092168252519081900360200190f35b61011b6004803603602081101561014d57600080fd5b50356001600160a01b03166106bb565b610356600480360361014081101561017457600080fd5b6001600160a01b03823581169260208101358216926040820135909216916060820135919081019060a081016080820135600160201b8111156101b657600080fd5b8201836020820111156101c857600080fd5b803590602001918460018302840111600160201b831117156101e957600080fd5b91908080601f0160208091040260200160405190810160405280939291908181526020018383808284376000920191909152509295949360208101935035915050600160201b81111561023b57600080fd5b82018360208201111561024d57600080fd5b803590602001918460018302840111600160201b8311171561026e57600080fd5b91908080601f016020809104026020016040519081016040528093929190818152602001838380828437600092019190915250929560ff853516956001600160a01b036020870135811696604081013590911695509193509150608081019060600135600160201b8111156102e257600080fd5b8201836020820111156102f457600080fd5b803590602001918460018302840111600160201b8311171561031557600080fd5b91908080601f0160208091040260200160405190810160405280939291908181526020018383808284376000920191909152509295506106ec945050505050565b005b61011b6106f8565b61011b6004803603602081101561037657600080fd5b50356001600160a01b0316610707565b61011b6004803603602081101561039c57600080fd5b50356001600160a01b0316610725565b610101610d2f565b61011b600480360360208110156103ca57600080fd5b50356001600160a01b0316610d35565b61011b600480360360208110156103f057600080fd5b50356001600160a01b0316610d53565b61011b6004803603602081101561041657600080fd5b50356001600160a01b0316610d6e565b61042e610d89565b6040805160ff9092168252519081900360200190f35b61056d6004803603604081101561045a57600080fd5b810190602081018135600160201b81111561047457600080fd5b82018360208201111561048657600080fd5b803590602001918460018302840111600160201b831117156104a757600080fd5b91908080601f0160208091040260200160405190810160405280939291908181526020018383808284376000920191909152509295949360208101935035915050600160201b8111156104f957600080fd5b82018360208201111561050b57600080fd5b803590602001918460018302840111600160201b8311171561052c57600080fd5b91908080601f016020809104026020016040519081016040528093929190818152602001838380828437600092019190915250929550610d92945050505050565b6040805160208082528351818301528351919283929083019185019080838360005b838110156105a757818101518382015260200161058f565b50505050905090810190601f1680156105d45780820380516001836020036101000a031916815260200191505b509250505060405180910390f35b600154604080516353b59fed60e11b81526001600160a01b0384811660048301529151600093929092169163a76b3fda9160248082019260209290919082900301818787803b15801561063457600080fd5b505af1158015610648573d6000803e3d6000fd5b505050506040513d602081101561065e57600080fd5b50506001600160a01b0392831660008181526007602090815260408083208054979096166001600160a01b031997881681179096559482526008905292909220805490931690911790915590565b6002546001600160a01b031681565b6001600160a01b0380821660009081526007602052604090205416806106e7576106e482610725565b90505b919050565b50505050505050505050565b6001546001600160a01b031681565b6001600160a01b039081166000908152600860205260409020541690565b60006001600160a01b038216610771576040805162461bcd60e51b815260206004820152600c60248201526b5a45524f5f4144445245535360a01b604482015290519081900360640190fd5b60606040518060200161078390610e89565b6020820181038252601f19601f82011660405250905060008360405160200180826001600160a01b03166001600160a01b031660601b8152601401915050604051602081830303815290604052805190602001209050808251602084016000f592506000849050836001600160a01b0316634ea7ba6986600160009054906101000a90046001600160a01b0316600260009054906101000a90046001600160a01b031660035461096f604051806040016040528060018152602001606560f81b815250886001600160a01b03166306fdde036040518163ffffffff1660e01b815260040160006040518083038186803b15801561087f57600080fd5b505afa158015610893573d6000803e3d6000fd5b505050506040513d6000823e601f3d908101601f1916820160405260208110156108bc57600080fd5b8101908080516040519392919084600160201b8211156108db57600080fd5b9083019060208201858111156108f057600080fd5b8251600160201b81118282018810171561090957600080fd5b82525081516020918201929091019080838360005b8381101561093657818101518382015260200161091e565b50505050905090810190601f1680156109635780820380516001836020036101000a031916815260200191505b50604052505050610d92565b6109c5604051806040016040528060018152602001606560f81b815250896001600160a01b03166395d89b416040518163ffffffff1660e01b815260040160006040518083038186803b15801561087f57600080fd5b600480546005546040516001600160e01b031960e08c901b1681526001600160a01b038a8116948201948552898116602483015288811660448301526064820188905260ff841660c48301819052610100909404811660e48301819052921661010482018190526101406084830190815287516101448401528751949593949193600693909260a48201916101248101916101649091019060208c019080838360005b83811015610a80578181015183820152602001610a68565b50505050905090810190601f168015610aad5780820380516001836020036101000a031916815260200191505b5084810383528951815289516020918201918b019080838360005b83811015610ae0578181015183820152602001610ac8565b50505050905090810190601f168015610b0d5780820380516001836020036101000a031916815260200191505b50848103825285546002600019610100600184161502019091160480825260209091019086908015610b805780601f10610b5557610100808354040283529160200191610b80565b820191906000526020600020905b815481529060010190602001808311610b6357829003601f168201915b50509d5050505050505050505050505050600060405180830381600087803b158015610bab57600080fd5b505af1158015610bbf573d6000803e3d6000fd5b50505050610bcd85856105e2565b50600154604080518082018252601781527f5f737570706f72744d61726b657428616464726573732900000000000000000060209182015281516001600160a01b03888116602480840191909152845180840390910181526044909201845291810180516001600160e01b03166353b59fed60e11b178152925181519290941693909290918291908083835b60208310610c785780518252601f199092019160209182019101610c59565b6001836020036101000a0380198251168184511680821785525050505050509050019150506000604051808303816000865af19150503d8060008114610cda576040519150601f19603f3d011682016040523d82523d6000602084013e610cdf565b606091505b5050604080516001600160a01b0380891682528716602082015281517fe0be553bc4b60ab2401743efd789355e794b45be2c29f9e5f709210fe2c0f01b93509081900390910190a1505050919050565b60005481565b6001600160a01b039081166000908152600760205260409020541690565b6008602052600090815260409020546001600160a01b031681565b6007602052600090815260409020546001600160a01b031681565b60045460ff1681565b6060808390506060839050606081518351016040519080825280601f01601f191660200182016040528015610dce576020820181803883390190505b509050806000805b8551811015610e2757858181518110610deb57fe5b602001015160f81c60f81b838380600101945081518110610e0857fe5b60200101906001600160f81b031916908160001a905350600101610dd6565b5060005b8451811015610e7c57848181518110610e4057fe5b602001015160f81c60f81b838380600101945081518110610e5d57fe5b60200101906001600160f81b031916908160001a905350600101610e2b565b5091979650505050505050565b6116a880610e978339019056fe608060405234801561001057600080fd5b50611688806100206000396000f3fe60806040526004361061031a5760003560e01c806370a08231116101ab578063bc49e0a3116100f7578063f2b3abbd11610095578063f851a4401161006f578063f851a44014610bda578063f8f9da2814610583578063fca7820b146104ea578063fe9c44ae14610bef5761031a565b8063f2b3abbd1461053b578063f3fdb15a14610b82578063f5e3c46214610b975761031a565b8063c5ebeaec116100d1578063c5ebeaec146104ea578063db006a75146104ea578063dd62ed3e14610b47578063e9c714f214610a775761031a565b8063bc49e0a3146105db578063bd6d894d14610a77578063c37f68e214610aee5761031a565b8063a0712d6811610164578063aa5af0fd1161013e578063aa5af0fd14610ab6578063ae9d70b014610583578063b2a02ff114610acb578063b71d1a0c1461053b5761031a565b8063a0712d68146104ea578063a6afed9514610a77578063a9059cbb1461049d5761031a565b806370a0823114610a4457806373acee9814610a77578063852a12e3146104ea5780638f840ddd14610a8c57806395d89b4114610aa157806395dd919314610a445761031a565b80633b1d21a21161026a5780634ea7ba69116102235780635fe3b567116101fd5780635fe3b56714610a05578063601a0bf1146104ea5780636c540baf14610a1a5780636f307dc314610a2f5761031a565b80634ea7ba6914610720578063555bcc40146109285780635c60da1b146109f05761031a565b80633b1d21a2146105835780633e941010146104ea57806340cf3480146105db5780634487152f1461065a5780634576b5db1461053b57806347bd37181461070b5761031a565b806318160ddd116102d75780632608f818116102b15780632608f818146105db57806326782247146105fe578063313ce5671461062f5780633af9e6691461053b5761031a565b806318160ddd1461056e578063182df0f51461058357806323b872dd146105985761031a565b806306fdde03146103625780630933c1ed146103ec578063095ea7b31461049d5780630e752702146104ea578063173b99041461052657806317bfdfbc1461053b575b34156103575760405162461bcd60e51b81526004018080602001828103825260378152602001806115e46037913960400191505060405180910390fd5b61035f610c04565b50005b34801561036e57600080fd5b50610377610c8c565b6040805160208082528351818301528351919283929083019185019080838360005b838110156103b1578181015183820152602001610399565b50505050905090810190601f1680156103de5780820380516001836020036101000a031916815260200191505b509250505060405180910390f35b3480156103f857600080fd5b506103776004803603602081101561040f57600080fd5b810190602081018135600160201b81111561042957600080fd5b82018360208201111561043b57600080fd5b803590602001918460018302840111600160201b8311171561045c57600080fd5b91908080601f016020809104026020016040519081016040528093929190818152602001838380828437600092019190915250929550610d19945050505050565b3480156104a957600080fd5b506104d6600480360360408110156104c057600080fd5b506001600160a01b038135169060200135610d38565b604080519115158252519081900360200190f35b3480156104f657600080fd5b506105146004803603602081101561050d57600080fd5b5035610d49565b60408051918252519081900360200190f35b34801561053257600080fd5b50610514610d59565b34801561054757600080fd5b506105146004803603602081101561055e57600080fd5b50356001600160a01b0316610d49565b34801561057a57600080fd5b50610514610d5f565b34801561058f57600080fd5b50610514610d65565b3480156105a457600080fd5b506104d6600480360360608110156105bb57600080fd5b506001600160a01b03813581169160208101359091169060400135610d73565b3480156105e757600080fd5b50610514600480360360408110156104c057600080fd5b34801561060a57600080fd5b50610613610d85565b604080516001600160a01b039092168252519081900360200190f35b34801561063b57600080fd5b50610644610d94565b6040805160ff9092168252519081900360200190f35b34801561066657600080fd5b506103776004803603602081101561067d57600080fd5b810190602081018135600160201b81111561069757600080fd5b8201836020820111156106a957600080fd5b803590602001918460018302840111600160201b831117156106ca57600080fd5b91908080601f016020809104026020016040519081016040528093929190818152602001838380828437600092019190915250929550610d9d945050505050565b34801561071757600080fd5b50610514610fbc565b34801561072c57600080fd5b50610926600480360361014081101561074457600080fd5b6001600160a01b03823581169260208101358216926040820135909216916060820135919081019060a081016080820135600160201b81111561078657600080fd5b82018360208201111561079857600080fd5b803590602001918460018302840111600160201b831117156107b957600080fd5b91908080601f0160208091040260200160405190810160405280939291908181526020018383808284376000920191909152509295949360208101935035915050600160201b81111561080b57600080fd5b82018360208201111561081d57600080fd5b803590602001918460018302840111600160201b8311171561083e57600080fd5b91908080601f016020809104026020016040519081016040528093929190818152602001838380828437600092019190915250929560ff853516956001600160a01b036020870135811696604081013590911695509193509150608081019060600135600160201b8111156108b257600080fd5b8201836020820111156108c457600080fd5b803590602001918460018302840111600160201b831117156108e557600080fd5b91908080601f016020809104026020016040519081016040528093929190818152602001838380828437600092019190915250929550610fc2945050505050565b005b34801561093457600080fd5b506109266004803603606081101561094b57600080fd5b6001600160a01b03823516916020810135151591810190606081016040820135600160201b81111561097c57600080fd5b82018360208201111561098e57600080fd5b803590602001918460018302840111600160201b831117156109af57600080fd5b91908080601f01602080910402602001604051908101604052809392919081815260200183838082843760009201919091525092955061116b945050505050565b3480156109fc57600080fd5b5061061361130e565b348015610a1157600080fd5b5061061361131d565b348015610a2657600080fd5b5061051461132c565b348015610a3b57600080fd5b50610613611332565b348015610a5057600080fd5b5061051460048036036020811015610a6757600080fd5b50356001600160a01b0316611341565b348015610a8357600080fd5b5061051461134b565b348015610a9857600080fd5b50610514611355565b348015610aad57600080fd5b5061037761135b565b348015610ac257600080fd5b506105146113b3565b348015610ad757600080fd5b50610514600480360360608110156105bb57600080fd5b348015610afa57600080fd5b50610b2160048036036020811015610b1157600080fd5b50356001600160a01b03166113b9565b604080519485526020850193909352838301919091526060830152519081900360800190f35b348015610b5357600080fd5b5061051460048036036040811015610b6a57600080fd5b506001600160a01b03813581169160200135166113cf565b348015610b8e57600080fd5b506106136113d9565b348015610ba357600080fd5b5061051460048036036060811015610bba57600080fd5b506001600160a01b03813581169160208101359160409091013516610d73565b348015610be657600080fd5b506106136113e8565b348015610bfb57600080fd5b506104d66113fc565b6014546040516060916000916001600160a01b0390911690829036908083838082843760405192019450600093509091505080830381855af49150503d8060008114610c6c576040519150601f19603f3d011682016040523d82523d6000602084013e610c71565b606091505b505090506040513d6000823e818015610c88573d82f35b3d82fd5b60018054604080516020600284861615610100026000190190941693909304601f81018490048402820184019092528181529291830182828015610d115780601f10610ce657610100808354040283529160200191610d11565b820191906000526020600020905b815481529060010190602001808311610cf457829003601f168201915b505050505081565b601454606090610d32906001600160a01b031683611401565b92915050565b6000610d42610c04565b5092915050565b6000610d53610c04565b50919050565b60085481565b600d5481565b6000610d6f6114c3565b5090565b6000610d7d610c04565b509392505050565b6004546001600160a01b031681565b60035460ff1681565b606060006060306001600160a01b0316846040516024018080602001828103825283818151815260200191508051906020019080838360005b83811015610dee578181015183820152602001610dd6565b50505050905090810190601f168015610e1b5780820380516001836020036101000a031916815260200191505b5060408051601f198184030181529181526020820180516001600160e01b0316630933c1ed60e01b178152905182519295509350839250908083835b60208310610e765780518252601f199092019160209182019101610e57565b6001836020036101000a038019825116818451168082178552505050505050905001915050600060405180830381855afa9150503d8060008114610ed6576040519150601f19603f3d011682016040523d82523d6000602084013e610edb565b606091505b50915091506000821415610ef0573d60208201fd5b808060200190516020811015610f0557600080fd5b8101908080516040519392919084600160201b821115610f2457600080fd5b908301906020820185811115610f3957600080fd5b8251600160201b811182820188101715610f5257600080fd5b82525081516020918201929091019080838360005b83811015610f7f578181015183820152602001610f67565b50505050905090810190601f168015610fac5780820380516001836020036101000a031916815260200191505b5060405250505092505050919050565b600b5481565b60038054610100600160a81b03191633610100021790556040516001600160a01b038b8116602483019081528b82166044840152908a1660648301526084820189905260ff861660e483015260e060a483019081528851610104840152885161112d9386938f938f938f938f938f938f938f9360c481019161012490910190602088019080838360005b8381101561106457818101518382015260200161104c565b50505050905090810190601f1680156110915780820380516001836020036101000a031916815260200191505b50838103825285518152855160209182019187019080838360005b838110156110c45781810151838201526020016110ac565b50505050905090810190601f1680156110f15780820380516001836020036101000a031916815260200191505b5060408051601f198184030181529190526020810180516001600160e01b0316631a31d46560e01b179052995061140198505050505050505050565b5061113a8260008361116b565b5050600380546001600160a01b0390921661010002610100600160a81b031990921691909117905550505050505050565b60035461010090046001600160a01b031633146111b95760405162461bcd60e51b815260040180806020018281038252603981526020018061161b6039913960400191505060405180910390fd5b81156111f3576040805160048152602481019091526020810180516001600160e01b031663153ab50560e01b1790526111f190610d19565b505b601480546001600160a01b038581166001600160a01b031983161790925560405160206024820181815285516044840152855194909316936112bf938693909283926064909201919085019080838360005b8381101561125d578181015183820152602001611245565b50505050905090810190601f16801561128a5780820380516001836020036101000a031916815260200191505b5060408051601f198184030181529190526020810180516001600160e01b0316630adccee560e31b1790529250610d19915050565b50601454604080516001600160a01b038085168252909216602083015280517fd604de94d45953f9138079ec1b82d533cb2160c906d1076d1f7ed54befbca97a9281900390910190a150505050565b6014546001600160a01b031681565b6005546001600160a01b031681565b60095481565b6013546001600160a01b031681565b6000610d536114c3565b6000610d6f610c04565b600c5481565b6002805460408051602060018416156101000260001901909316849004601f81018490048402820184019092528181529291830182828015610d115780601f10610ce657610100808354040283529160200191610d11565b600a5481565b6000806000806113c76114c3565b509193509193565b6000610d426114c3565b6006546001600160a01b031681565b60035461010090046001600160a01b031681565b600181565b606060006060846001600160a01b0316846040518082805190602001908083835b602083106114415780518252601f199092019160209182019101611422565b6001836020036101000a038019825116818451168082178552505050505050905001915050600060405180830381855af49150503d80600081146114a1576040519150601f19603f3d011682016040523d82523d6000602084013e6114a6565b606091505b509150915060008214156114bb573d60208201fd5b949350505050565b60606000306001600160a01b03166000366040516024018080602001828103825284848281815260200192508082843760008382015260408051601f909201601f1990811690940182810390940182529283526020810180516001600160e01b0316630933c1ed60e01b17815292518151919750955085945091925081905083835b602083106115645780518252601f199092019160209182019101611545565b6001836020036101000a038019825116818451168082178552505050505050905001915050600060405180830381855afa9150503d80600081146115c4576040519150601f19603f3d011682016040523d82523d6000602084013e6115c9565b606091505b505090506040513d6000823e818015610c88573d60408301f3fe4c457263323044656c656761746f723a66616c6c6261636b3a2063616e6e6f742073656e642076616c756520746f2066616c6c6261636b43457263323044656c656761746f723a3a5f736574496d706c656d656e746174696f6e3a2043616c6c6572206d7573742062652061646d696ea265627a7a7231582032bb9d49db1e4f68f704bae703c88f0bd00da69381a546fe8b1d70f256e09dc364736f6c63430005100032a265627a7a72315820abb82b4eedec2c34b4293b8085ac6e7f99b54d010ee7fb3346412e63ef42287664736f6c63430005100032608060405234801561001057600080fd5b50611688806100206000396000f3fe60806040526004361061031a5760003560e01c806370a08231116101ab578063bc49e0a3116100f7578063f2b3abbd11610095578063f851a4401161006f578063f851a44014610bda578063f8f9da2814610583578063fca7820b146104ea578063fe9c44ae14610bef5761031a565b8063f2b3abbd1461053b578063f3fdb15a14610b82578063f5e3c46214610b975761031a565b8063c5ebeaec116100d1578063c5ebeaec146104ea578063db006a75146104ea578063dd62ed3e14610b47578063e9c714f214610a775761031a565b8063bc49e0a3146105db578063bd6d894d14610a77578063c37f68e214610aee5761031a565b8063a0712d6811610164578063aa5af0fd1161013e578063aa5af0fd14610ab6578063ae9d70b014610583578063b2a02ff114610acb578063b71d1a0c1461053b5761031a565b8063a0712d68146104ea578063a6afed9514610a77578063a9059cbb1461049d5761031a565b806370a0823114610a4457806373acee9814610a77578063852a12e3146104ea5780638f840ddd14610a8c57806395d89b4114610aa157806395dd919314610a445761031a565b80633b1d21a21161026a5780634ea7ba69116102235780635fe3b567116101fd5780635fe3b56714610a05578063601a0bf1146104ea5780636c540baf14610a1a5780636f307dc314610a2f5761031a565b80634ea7ba6914610720578063555bcc40146109285780635c60da1b146109f05761031a565b80633b1d21a2146105835780633e941010146104ea57806340cf3480146105db5780634487152f1461065a5780634576b5db1461053b57806347bd37181461070b5761031a565b806318160ddd116102d75780632608f818116102b15780632608f818146105db57806326782247146105fe578063313ce5671461062f5780633af9e6691461053b5761031a565b806318160ddd1461056e578063182df0f51461058357806323b872dd146105985761031a565b806306fdde03146103625780630933c1ed146103ec578063095ea7b31461049d5780630e752702146104ea578063173b99041461052657806317bfdfbc1461053b575b34156103575760405162461bcd60e51b81526004018080602001828103825260378152602001806115e46037913960400191505060405180910390fd5b61035f610c04565b50005b34801561036e57600080fd5b50610377610c8c565b6040805160208082528351818301528351919283929083019185019080838360005b838110156103b1578181015183820152602001610399565b50505050905090810190601f1680156103de5780820380516001836020036101000a031916815260200191505b509250505060405180910390f35b3480156103f857600080fd5b506103776004803603602081101561040f57600080fd5b810190602081018135600160201b81111561042957600080fd5b82018360208201111561043b57600080fd5b803590602001918460018302840111600160201b8311171561045c57600080fd5b91908080601f016020809104026020016040519081016040528093929190818152602001838380828437600092019190915250929550610d19945050505050565b3480156104a957600080fd5b506104d6600480360360408110156104c057600080fd5b506001600160a01b038135169060200135610d38565b604080519115158252519081900360200190f35b3480156104f657600080fd5b506105146004803603602081101561050d57600080fd5b5035610d49565b60408051918252519081900360200190f35b34801561053257600080fd5b50610514610d59565b34801561054757600080fd5b506105146004803603602081101561055e57600080fd5b50356001600160a01b0316610d49565b34801561057a57600080fd5b50610514610d5f565b34801561058f57600080fd5b50610514610d65565b3480156105a457600080fd5b506104d6600480360360608110156105bb57600080fd5b506001600160a01b03813581169160208101359091169060400135610d73565b3480156105e757600080fd5b50610514600480360360408110156104c057600080fd5b34801561060a57600080fd5b50610613610d85565b604080516001600160a01b039092168252519081900360200190f35b34801561063b57600080fd5b50610644610d94565b6040805160ff9092168252519081900360200190f35b34801561066657600080fd5b506103776004803603602081101561067d57600080fd5b810190602081018135600160201b81111561069757600080fd5b8201836020820111156106a957600080fd5b803590602001918460018302840111600160201b831117156106ca57600080fd5b91908080601f016020809104026020016040519081016040528093929190818152602001838380828437600092019190915250929550610d9d945050505050565b34801561071757600080fd5b50610514610fbc565b34801561072c57600080fd5b50610926600480360361014081101561074457600080fd5b6001600160a01b03823581169260208101358216926040820135909216916060820135919081019060a081016080820135600160201b81111561078657600080fd5b82018360208201111561079857600080fd5b803590602001918460018302840111600160201b831117156107b957600080fd5b91908080601f0160208091040260200160405190810160405280939291908181526020018383808284376000920191909152509295949360208101935035915050600160201b81111561080b57600080fd5b82018360208201111561081d57600080fd5b803590602001918460018302840111600160201b8311171561083e57600080fd5b91908080601f016020809104026020016040519081016040528093929190818152602001838380828437600092019190915250929560ff853516956001600160a01b036020870135811696604081013590911695509193509150608081019060600135600160201b8111156108b257600080fd5b8201836020820111156108c457600080fd5b803590602001918460018302840111600160201b831117156108e557600080fd5b91908080601f016020809104026020016040519081016040528093929190818152602001838380828437600092019190915250929550610fc2945050505050565b005b34801561093457600080fd5b506109266004803603606081101561094b57600080fd5b6001600160a01b03823516916020810135151591810190606081016040820135600160201b81111561097c57600080fd5b82018360208201111561098e57600080fd5b803590602001918460018302840111600160201b831117156109af57600080fd5b91908080601f01602080910402602001604051908101604052809392919081815260200183838082843760009201919091525092955061116b945050505050565b3480156109fc57600080fd5b5061061361130e565b348015610a1157600080fd5b5061061361131d565b348015610a2657600080fd5b5061051461132c565b348015610a3b57600080fd5b50610613611332565b348015610a5057600080fd5b5061051460048036036020811015610a6757600080fd5b50356001600160a01b0316611341565b348015610a8357600080fd5b5061051461134b565b348015610a9857600080fd5b50610514611355565b348015610aad57600080fd5b5061037761135b565b348015610ac257600080fd5b506105146113b3565b348015610ad757600080fd5b50610514600480360360608110156105bb57600080fd5b348015610afa57600080fd5b50610b2160048036036020811015610b1157600080fd5b50356001600160a01b03166113b9565b604080519485526020850193909352838301919091526060830152519081900360800190f35b348015610b5357600080fd5b5061051460048036036040811015610b6a57600080fd5b506001600160a01b03813581169160200135166113cf565b348015610b8e57600080fd5b506106136113d9565b348015610ba357600080fd5b5061051460048036036060811015610bba57600080fd5b506001600160a01b03813581169160208101359160409091013516610d73565b348015610be657600080fd5b506106136113e8565b348015610bfb57600080fd5b506104d66113fc565b6014546040516060916000916001600160a01b0390911690829036908083838082843760405192019450600093509091505080830381855af49150503d8060008114610c6c576040519150601f19603f3d011682016040523d82523d6000602084013e610c71565b606091505b505090506040513d6000823e818015610c88573d82f35b3d82fd5b60018054604080516020600284861615610100026000190190941693909304601f81018490048402820184019092528181529291830182828015610d115780601f10610ce657610100808354040283529160200191610d11565b820191906000526020600020905b815481529060010190602001808311610cf457829003601f168201915b505050505081565b601454606090610d32906001600160a01b031683611401565b92915050565b6000610d42610c04565b5092915050565b6000610d53610c04565b50919050565b60085481565b600d5481565b6000610d6f6114c3565b5090565b6000610d7d610c04565b509392505050565b6004546001600160a01b031681565b60035460ff1681565b606060006060306001600160a01b0316846040516024018080602001828103825283818151815260200191508051906020019080838360005b83811015610dee578181015183820152602001610dd6565b50505050905090810190601f168015610e1b5780820380516001836020036101000a031916815260200191505b5060408051601f198184030181529181526020820180516001600160e01b0316630933c1ed60e01b178152905182519295509350839250908083835b60208310610e765780518252601f199092019160209182019101610e57565b6001836020036101000a038019825116818451168082178552505050505050905001915050600060405180830381855afa9150503d8060008114610ed6576040519150601f19603f3d011682016040523d82523d6000602084013e610edb565b606091505b50915091506000821415610ef0573d60208201fd5b808060200190516020811015610f0557600080fd5b8101908080516040519392919084600160201b821115610f2457600080fd5b908301906020820185811115610f3957600080fd5b8251600160201b811182820188101715610f5257600080fd5b82525081516020918201929091019080838360005b83811015610f7f578181015183820152602001610f67565b50505050905090810190601f168015610fac5780820380516001836020036101000a031916815260200191505b5060405250505092505050919050565b600b5481565b60038054610100600160a81b03191633610100021790556040516001600160a01b038b8116602483019081528b82166044840152908a1660648301526084820189905260ff861660e483015260e060a483019081528851610104840152885161112d9386938f938f938f938f938f938f938f9360c481019161012490910190602088019080838360005b8381101561106457818101518382015260200161104c565b50505050905090810190601f1680156110915780820380516001836020036101000a031916815260200191505b50838103825285518152855160209182019187019080838360005b838110156110c45781810151838201526020016110ac565b50505050905090810190601f1680156110f15780820380516001836020036101000a031916815260200191505b5060408051601f198184030181529190526020810180516001600160e01b0316631a31d46560e01b179052995061140198505050505050505050565b5061113a8260008361116b565b5050600380546001600160a01b0390921661010002610100600160a81b031990921691909117905550505050505050565b60035461010090046001600160a01b031633146111b95760405162461bcd60e51b815260040180806020018281038252603981526020018061161b6039913960400191505060405180910390fd5b81156111f3576040805160048152602481019091526020810180516001600160e01b031663153ab50560e01b1790526111f190610d19565b505b601480546001600160a01b038581166001600160a01b031983161790925560405160206024820181815285516044840152855194909316936112bf938693909283926064909201919085019080838360005b8381101561125d578181015183820152602001611245565b50505050905090810190601f16801561128a5780820380516001836020036101000a031916815260200191505b5060408051601f198184030181529190526020810180516001600160e01b0316630adccee560e31b1790529250610d19915050565b50601454604080516001600160a01b038085168252909216602083015280517fd604de94d45953f9138079ec1b82d533cb2160c906d1076d1f7ed54befbca97a9281900390910190a150505050565b6014546001600160a01b031681565b6005546001600160a01b031681565b60095481565b6013546001600160a01b031681565b6000610d536114c3565b6000610d6f610c04565b600c5481565b6002805460408051602060018416156101000260001901909316849004601f81018490048402820184019092528181529291830182828015610d115780601f10610ce657610100808354040283529160200191610d11565b600a5481565b6000806000806113c76114c3565b509193509193565b6000610d426114c3565b6006546001600160a01b031681565b60035461010090046001600160a01b031681565b600181565b606060006060846001600160a01b0316846040518082805190602001908083835b602083106114415780518252601f199092019160209182019101611422565b6001836020036101000a038019825116818451168082178552505050505050905001915050600060405180830381855af49150503d80600081146114a1576040519150601f19603f3d011682016040523d82523d6000602084013e6114a6565b606091505b509150915060008214156114bb573d60208201fd5b949350505050565b60606000306001600160a01b03166000366040516024018080602001828103825284848281815260200192508082843760008382015260408051601f909201601f1990811690940182810390940182529283526020810180516001600160e01b0316630933c1ed60e01b17815292518151919750955085945091925081905083835b602083106115645780518252601f199092019160209182019101611545565b6001836020036101000a038019825116818451168082178552505050505050905001915050600060405180830381855afa9150503d80600081146115c4576040519150601f19603f3d011682016040523d82523d6000602084013e6115c9565b606091505b505090506040513d6000823e818015610c88573d60408301f3fe4c457263323044656c656761746f723a66616c6c6261636b3a2063616e6e6f742073656e642076616c756520746f2066616c6c6261636b43457263323044656c656761746f723a3a5f736574496d706c656d656e746174696f6e3a2043616c6c6572206d7573742062652061646d696ea265627a7a7231582032bb9d49db1e4f68f704bae703c88f0bd00da69381a546fe8b1d70f256e09dc364736f6c63430005100032",
  "devdoc": {
    "methods": {}
  },
  "userdoc": {
    "methods": {
      "constructor": "Construct"
    }
  },
  "storageLayout": {
    "storage": [
      {
        "astId": 19031,
        "contract": "contracts/compound/LErc20DelegatorFactory.sol:LErc20DelegatorFactory",
        "label": "initCodeHash",
        "offset": 0,
        "slot": "0",
        "type": "t_bytes32"
      },
      {
        "astId": 19076,
        "contract": "contracts/compound/LErc20DelegatorFactory.sol:LErc20DelegatorFactory",
        "label": "comptroller",
        "offset": 0,
        "slot": "1",
        "type": "t_contract(ComptrollerInterface)1621"
      },
      {
        "astId": 19078,
        "contract": "contracts/compound/LErc20DelegatorFactory.sol:LErc20DelegatorFactory",
        "label": "interestRateModel_",
        "offset": 0,
        "slot": "2",
        "type": "t_contract(InterestRateModel)3203"
      },
      {
        "astId": 19081,
        "contract": "contracts/compound/LErc20DelegatorFactory.sol:LErc20DelegatorFactory",
        "label": "initialExchangeRateMantissa_",
        "offset": 0,
        "slot": "3",
        "type": "t_uint256"
      },
      {
        "astId": 19084,
        "contract": "contracts/compound/LErc20DelegatorFactory.sol:LErc20DelegatorFactory",
        "label": "decimals_",
        "offset": 0,
        "slot": "4",
        "type": "t_uint8"
      },
      {
        "astId": 19087,
        "contract": "contracts/compound/LErc20DelegatorFactory.sol:LErc20DelegatorFactory",
        "label": "admin_",
        "offset": 1,
        "slot": "4",
        "type": "t_address_payable"
      },
      {
        "astId": 19089,
        "contract": "contracts/compound/LErc20DelegatorFactory.sol:LErc20DelegatorFactory",
        "label": "implementation_",
        "offset": 0,
        "slot": "5",
        "type": "t_address"
      },
      {
        "astId": 19091,
        "contract": "contracts/compound/LErc20DelegatorFactory.sol:LErc20DelegatorFactory",
        "label": "becomeImplementationData",
        "offset": 0,
        "slot": "6",
        "type": "t_bytes_storage"
      },
      {
        "astId": 19095,
        "contract": "contracts/compound/LErc20DelegatorFactory.sol:LErc20DelegatorFactory",
        "label": "tokenKeyMapping",
        "offset": 0,
        "slot": "7",
        "type": "t_mapping(t_address,t_address)"
      },
      {
        "astId": 19099,
        "contract": "contracts/compound/LErc20DelegatorFactory.sol:LErc20DelegatorFactory",
        "label": "cTokenKeyMapping",
        "offset": 0,
        "slot": "8",
        "type": "t_mapping(t_address,t_address)"
      }
    ],
    "types": {
      "t_address": {
        "encoding": "inplace",
        "label": "address",
        "numberOfBytes": "20"
      },
      "t_address_payable": {
        "encoding": "inplace",
        "label": "address payable",
        "numberOfBytes": "20"
      },
      "t_bytes32": {
        "encoding": "inplace",
        "label": "bytes32",
        "numberOfBytes": "32"
      },
      "t_bytes_storage": {
        "encoding": "bytes",
        "label": "bytes",
        "numberOfBytes": "32"
      },
      "t_contract(ComptrollerInterface)1621": {
        "encoding": "inplace",
        "label": "contract ComptrollerInterface",
        "numberOfBytes": "20"
      },
      "t_contract(InterestRateModel)3203": {
        "encoding": "inplace",
        "label": "contract InterestRateModel",
        "numberOfBytes": "20"
      },
      "t_mapping(t_address,t_address)": {
        "encoding": "mapping",
        "key": "t_address",
        "label": "mapping(address => address)",
        "numberOfBytes": "32",
        "value": "t_address"
      },
      "t_uint256": {
        "encoding": "inplace",
        "label": "uint256",
        "numberOfBytes": "32"
      },
      "t_uint8": {
        "encoding": "inplace",
        "label": "uint8",
        "numberOfBytes": "1"
      }
    }
  }
}