{
  "address": "0x239e86183BA1E358cD9DF781217aD8932A1d4515",
  "abi": [
    {
      "inputs": [
        {
          "internalType": "address",
          "name": "_implementation",
          "type": "address"
        },
        {
          "internalType": "address",
          "name": "comptroller_",
          "type": "address"
        },
        {
          "internalType": "address",
          "name": "intersetRateModel",
          "type": "address"
        }
      ],
      "stateMutability": "nonpayable",
      "type": "constructor"
    },
    {
      "anonymous": false,
      "inputs": [
        {
          "indexed": false,
          "internalType": "address",
          "name": "token",
          "type": "address"
        },
        {
          "indexed": false,
          "internalType": "address",
          "name": "delegator",
          "type": "address"
        }
      ],
      "name": "NewDelegator",
      "type": "event"
    },
    {
      "inputs": [
        {
          "internalType": "address",
          "name": "",
          "type": "address"
        }
      ],
      "name": "cTokenKeyMapping",
      "outputs": [
        {
          "internalType": "address",
          "name": "",
          "type": "address"
        }
      ],
      "stateMutability": "view",
      "type": "function"
    },
    {
      "inputs": [],
      "name": "comptroller",
      "outputs": [
        {
          "internalType": "contract ComptrollerInterface",
          "name": "",
          "type": "address"
        }
      ],
      "stateMutability": "view",
      "type": "function"
    },
    {
      "inputs": [],
      "name": "decimals_",
      "outputs": [
        {
          "internalType": "uint8",
          "name": "",
          "type": "uint8"
        }
      ],
      "stateMutability": "view",
      "type": "function"
    },
    {
      "inputs": [
        {
          "internalType": "address",
          "name": "underlying_",
          "type": "address"
        },
        {
          "internalType": "contract ComptrollerInterface",
          "name": "comptroller_",
          "type": "address"
        },
        {
          "internalType": "contract InterestRateModel",
          "name": "interestRateModel_",
          "type": "address"
        },
        {
          "internalType": "uint256",
          "name": "initialExchangeRateMantissa_",
          "type": "uint256"
        },
        {
          "internalType": "string",
          "name": "name_",
          "type": "string"
        },
        {
          "internalType": "string",
          "name": "symbol_",
          "type": "string"
        },
        {
          "internalType": "uint8",
          "name": "decimals_",
          "type": "uint8"
        },
        {
          "internalType": "address payable",
          "name": "admin_",
          "type": "address"
        },
        {
          "internalType": "address",
          "name": "implementation_",
          "type": "address"
        },
        {
          "internalType": "bytes",
          "name": "becomeImplementationData",
          "type": "bytes"
        }
      ],
      "name": "delegateToInitialize",
      "outputs": [],
      "stateMutability": "nonpayable",
      "type": "function"
    },
    {
      "inputs": [
        {
          "internalType": "address",
          "name": "token",
          "type": "address"
        }
      ],
      "name": "getCTokenAddress",
      "outputs": [
        {
          "internalType": "address",
          "name": "cToken",
          "type": "address"
        }
      ],
      "stateMutability": "nonpayable",
      "type": "function"
    },
    {
      "inputs": [
        {
          "internalType": "address",
          "name": "cToken",
          "type": "address"
        }
      ],
      "name": "getCTokenAddressPure",
      "outputs": [
        {
          "internalType": "address",
          "name": "",
          "type": "address"
        }
      ],
      "stateMutability": "view",
      "type": "function"
    },
    {
      "inputs": [
        {
          "internalType": "address",
          "name": "cToken",
          "type": "address"
        }
      ],
      "name": "getTokenAddress",
      "outputs": [
        {
          "internalType": "address",
          "name": "",
          "type": "address"
        }
      ],
      "stateMutability": "view",
      "type": "function"
    },
    {
      "inputs": [],
      "name": "interestRateModel_",
      "outputs": [
        {
          "internalType": "contract InterestRateModel",
          "name": "",
          "type": "address"
        }
      ],
      "stateMutability": "view",
      "type": "function"
    },
    {
      "inputs": [
        {
          "internalType": "address",
          "name": "token_",
          "type": "address"
        }
      ],
      "name": "newDelegator",
      "outputs": [
        {
          "internalType": "address",
          "name": "delegator",
          "type": "address"
        }
      ],
      "stateMutability": "nonpayable",
      "type": "function"
    },
    {
      "inputs": [
        {
          "internalType": "string",
          "name": "_a",
          "type": "string"
        },
        {
          "internalType": "string",
          "name": "_b",
          "type": "string"
        }
      ],
      "name": "strConcat",
      "outputs": [
        {
          "internalType": "string",
          "name": "",
          "type": "string"
        }
      ],
      "stateMutability": "view",
      "type": "function"
    },
    {
      "inputs": [
        {
          "internalType": "address",
          "name": "",
          "type": "address"
        }
      ],
      "name": "tokenKeyMapping",
      "outputs": [
        {
          "internalType": "address",
          "name": "",
          "type": "address"
        }
      ],
      "stateMutability": "view",
      "type": "function"
    }
  ],
  "transactionHash": "0xdc5192bcb8d29550196a1d4fad1357bfc2509877310d1534af78858b5de15e36",
  "args": [
    "0xE2D8D7c9BE75dd8b85CD307cf9Dd24863710E6E6",
    "0x169c20F83450AA6a968b235a61C99d602ff35B7A",
    "0x0B70Cc86Ce21828d498b4D00BF132f0e00202A67"
  ],
  "solcInputHash": "a5e0b08ce33faee681452387fda41910",
  "bytecode": "0x60806040526a084595161401484a00000060025560038054601260ff1990911617610100600160a81b0319167478a3970a965d347ad83c8350ab49ebfa62ac2dc50017905534801561005057600080fd5b5060405161293e38038061293e8339818101604052606081101561007357600080fd5b508051602082015160409092015160038054610100600160a81b0319163361010002179055600080546001600160a01b03199081166001600160a01b039586161782556004805482169486169490941790935560018054909316939091169290921790556128579081906100e790396000f3fe608060405234801561001057600080fd5b50600436106100c95760003560e01c8063bf4b8c0911610081578063f6b6cc9d1161005b578063f6b6cc9d146103b9578063f785ef72146103df578063ff74927b146103fd576100c9565b8063bf4b8c0914610347578063e297943e1461036d578063f5f5277514610393576100c9565b80634ea7ba69116100b25780634ea7ba69146101185780635fe3b56714610319578063b8d7b66914610321576100c9565b80630456e3ae146100ce57806326c7bd93146100f2575b600080fd5b6100d661059f565b604080516001600160a01b039092168252519081900360200190f35b6100d66004803603602081101561010857600080fd5b50356001600160a01b03166105ae565b610317600480360361014081101561012f57600080fd5b6001600160a01b03823581169260208101358216926040820135909216916060820135919081019060a08101608082013564010000000081111561017257600080fd5b82018360208201111561018457600080fd5b803590602001918460018302840111640100000000831117156101a657600080fd5b91908080601f01602080910402602001604051908101604052809392919081815260200183838082843760009201919091525092959493602081019350359150506401000000008111156101f957600080fd5b82018360208201111561020b57600080fd5b8035906020019184600183028401116401000000008311171561022d57600080fd5b91908080601f016020809104026020016040519081016040528093929190818152602001838380828437600092019190915250929560ff853516956001600160a01b0360208701358116966040810135909116955091935091506080810190606001356401000000008111156102a257600080fd5b8201836020820111156102b457600080fd5b803590602001918460018302840111640100000000831117156102d657600080fd5b91908080601f01602080910402602001604051908101604052809392919081815260200183838082843760009201919091525092955061061e945050505050565b005b6100d661062a565b6100d66004803603602081101561033757600080fd5b50356001600160a01b0316610639565b6100d66004803603602081101561035d57600080fd5b50356001600160a01b0316610657565b6100d66004803603602081101561038357600080fd5b50356001600160a01b0316610cf5565b6100d6600480360360208110156103a957600080fd5b50356001600160a01b0316610d13565b6100d6600480360360208110156103cf57600080fd5b50356001600160a01b0316610d2e565b6103e7610d49565b6040805160ff9092168252519081900360200190f35b61052a6004803603604081101561041357600080fd5b81019060208101813564010000000081111561042e57600080fd5b82018360208201111561044057600080fd5b8035906020019184600183028401116401000000008311171561046257600080fd5b91908080601f01602080910402602001604051908101604052809392919081815260200183838082843760009201919091525092959493602081019350359150506401000000008111156104b557600080fd5b8201836020820111156104c757600080fd5b803590602001918460018302840111640100000000831117156104e957600080fd5b91908080601f016020809104026020016040519081016040528093929190818152602001838380828437600092019190915250929550610d52945050505050565b6040805160208082528351818301528351919283929083019185019080838360005b8381101561056457818101518382015260200161054c565b50505050905090810190601f1680156105915780820380516001836020036101000a031916815260200191505b509250505060405180910390f35b6001546001600160a01b031681565b6001600160a01b0380821660009081526006602052604090205416806106195761060d6040518060400160405280601c81526020017f63746f6b656e206e6f742065786973742c206372656174652069743a0000000081525083610e8d565b61061682610657565b90505b919050565b50505050505050505050565b6000546001600160a01b031681565b6001600160a01b039081166000908152600760205260409020541690565b60006001600160a01b0382166106ce57604080517f08c379a000000000000000000000000000000000000000000000000000000000815260206004820152600c60248201527f5a45524f5f414444524553530000000000000000000000000000000000000000604482015290519081900360640190fd5b6000604051806020016106e090611040565b601f1982820381018352601f9091011660408181526bffffffffffffffffffffffff19606087901b16602083810191909152815180840360140181526034909301909152815191012090915061073581610f61565b808251602084016000f592506107806040518060400160405280600a81526020017f64656c656761746f723a0000000000000000000000000000000000000000000081525084610e8d565b6000849050836001600160a01b0316634ea7ba698660008054906101000a90046001600160a01b0316600160009054906101000a90046001600160a01b031660025461090a604051806040016040528060018152602001601360fa1b815250886001600160a01b03166306fdde036040518163ffffffff1660e01b815260040160006040518083038186803b15801561081857600080fd5b505afa15801561082c573d6000803e3d6000fd5b505050506040513d6000823e601f3d908101601f19168201604052602081101561085557600080fd5b810190808051604051939291908464010000000082111561087557600080fd5b90830190602082018581111561088a57600080fd5b82516401000000008111828201881017156108a457600080fd5b82525081516020918201929091019080838360005b838110156108d15781810151838201526020016108b9565b50505050905090810190601f1680156108fe5780820380516001836020036101000a031916815260200191505b50604052505050610d52565b610960604051806040016040528060018152602001601360fa1b815250896001600160a01b03166395d89b416040518163ffffffff1660e01b815260040160006040518083038186803b15801561081857600080fd5b600354600480546040517fffffffff0000000000000000000000000000000000000000000000000000000060e08c901b1681526001600160a01b038a8116938201938452898116602483015288811660448301526064820188905260ff851660c48301819052610100909504811660e483018190529216610104820181905261014060848301908152875161014484015287519394919360059360a4810191610124820191610164019060208c019080838360005b83811015610a2d578181015183820152602001610a15565b50505050905090810190601f168015610a5a5780820380516001836020036101000a031916815260200191505b5084810383528951815289516020918201918b019080838360005b83811015610a8d578181015183820152602001610a75565b50505050905090810190601f168015610aba5780820380516001836020036101000a031916815260200191505b50848103825285546002600019610100600184161502019091160480825260209091019086908015610b2d5780601f10610b0257610100808354040283529160200191610b2d565b820191906000526020600020905b815481529060010190602001808311610b1057829003601f168201915b50509d5050505050505050505050505050600060405180830381600087803b158015610b5857600080fd5b505af1158015610b6c573d6000803e3d6000fd5b50505050610b7a8585610fbe565b50600054604080518082018252601781527f5f737570706f72744d61726b657428616464726573732900000000000000000060209182015281516001600160a01b03888116602480840191909152845180840390910181526044909201845291810180516001600160e01b03167fa76b3fda00000000000000000000000000000000000000000000000000000000178152925181519290941693909290918291908083835b60208310610c3e5780518252601f199092019160209182019101610c1f565b6001836020036101000a0380198251168184511680821785525050505050509050019150506000604051808303816000865af19150503d8060008114610ca0576040519150601f19603f3d011682016040523d82523d6000602084013e610ca5565b606091505b5050604080516001600160a01b0380891682528716602082015281517fe0be553bc4b60ab2401743efd789355e794b45be2c29f9e5f709210fe2c0f01b93509081900390910190a1505050919050565b6001600160a01b039081166000908152600660205260409020541690565b6007602052600090815260409020546001600160a01b031681565b6006602052600090815260409020546001600160a01b031681565b60035460ff1681565b80518251606091849184916000910167ffffffffffffffff81118015610d7757600080fd5b506040519080825280601f01601f191660200182016040528015610da2576020820181803683370190505b509050806000805b8551811015610e1357858181518110610dbf57fe5b602001015160f81c60f81b838380600101945081518110610ddc57fe5b60200101907effffffffffffffffffffffffffffffffffffffffffffffffffffffffffffff1916908160001a905350600101610daa565b5060005b8451811015610e8057848181518110610e2c57fe5b602001015160f81c60f81b838380600101945081518110610e4957fe5b60200101907effffffffffffffffffffffffffffffffffffffffffffffffffffffffffffff1916908160001a905350600101610e17565b5091979650505050505050565b610f5d82826040516024018080602001836001600160a01b03168152602001828103825284818151815260200191508051906020019080838360005b83811015610ee1578181015183820152602001610ec9565b50505050905090810190601f168015610f0e5780820380516001836020036101000a031916815260200191505b5060408051601f198184030181529190526020810180516001600160e01b03167f319af33300000000000000000000000000000000000000000000000000000000179052935061101f92505050565b5050565b6040805160248082018490528251808303909101815260449091019091526020810180516001600160e01b03167f27b7cf8500000000000000000000000000000000000000000000000000000000179052610fbb9061101f565b50565b6001600160a01b0391821660008181526006602090815260408083208054969095167fffffffffffffffffffffffff000000000000000000000000000000000000000096871681179095559382526007905291822080549093161790915590565b80516a636f6e736f6c652e6c6f67602083016000808483855afa5050505050565b6117d48061104e8339019056fe608060405234801561001057600080fd5b506117b4806100206000396000f3fe6080604052600436106103385760003560e01c806370a08231116101b0578063bd6d894d116100ec578063f2b3abbd11610095578063f851a4401161006f578063f851a44014610c46578063f8f9da28146105e7578063fca7820b1461054e578063fe9c44ae14610c5b5761037c565b8063f2b3abbd1461059f578063f3fdb15a14610bee578063f5e3c46214610c035761037c565b8063db006a75116100c6578063db006a751461054e578063dd62ed3e14610bb3578063e9c714f214610ae35761037c565b8063bd6d894d14610ae3578063c37f68e214610b5a578063c5ebeaec1461054e5761037c565b8063a0712d6811610159578063aa5af0fd11610133578063aa5af0fd14610b22578063ae9d70b0146105e7578063b2a02ff114610b37578063b71d1a0c1461059f5761037c565b8063a0712d681461054e578063a6afed9514610ae3578063a9059cbb146105015761037c565b80638f840ddd1161018a5780638f840ddd14610af857806395d89b4114610b0d57806395dd919314610ab05761037c565b806370a0823114610ab057806373acee9814610ae3578063852a12e31461054e5761037c565b80633af9e6691161027f5780634ea7ba69116102285780635fe3b567116102025780635fe3b56714610a71578063601a0bf11461054e5780636c540baf14610a865780636f307dc314610a9b5761037c565b80634ea7ba6914610786578063555bcc40146109925780635c60da1b14610a5c5761037c565b80634487152f116102595780634487152f146106be5780634576b5db1461059f57806347bd3718146107715761037c565b80633af9e6691461059f5780633b1d21a2146105e75780633e9410101461054e5761037c565b806318160ddd116102e15780632608f818116102bb5780632608f8181461063f5780632678224714610662578063313ce567146106935761037c565b806318160ddd146105d2578063182df0f5146105e757806323b872dd146105fc5761037c565b80630e752702116103125780630e7527021461054e578063173b99041461058a57806317bfdfbc1461059f5761037c565b806306fdde03146103c45780630933c1ed1461044e578063095ea7b3146105015761037c565b3661037c57341561037a5760405162461bcd60e51b81526004018080602001828103825260358152602001806117116035913960400191505060405180910390fd5b005b34156103b95760405162461bcd60e51b81526004018080602001828103825260378152602001806116da6037913960400191505060405180910390fd5b6103c1610c70565b50005b3480156103d057600080fd5b506103d9610cf8565b6040805160208082528351818301528351919283929083019185019080838360005b838110156104135781810151838201526020016103fb565b50505050905090810190601f1680156104405780820380516001836020036101000a031916815260200191505b509250505060405180910390f35b34801561045a57600080fd5b506103d96004803603602081101561047157600080fd5b81019060208101813564010000000081111561048c57600080fd5b82018360208201111561049e57600080fd5b803590602001918460018302840111640100000000831117156104c057600080fd5b91908080601f016020809104026020016040519081016040528093929190818152602001838380828437600092019190915250929550610d85945050505050565b34801561050d57600080fd5b5061053a6004803603604081101561052457600080fd5b506001600160a01b038135169060200135610da4565b604080519115158252519081900360200190f35b34801561055a57600080fd5b506105786004803603602081101561057157600080fd5b5035610db5565b60408051918252519081900360200190f35b34801561059657600080fd5b50610578610dc5565b3480156105ab57600080fd5b50610578600480360360208110156105c257600080fd5b50356001600160a01b0316610db5565b3480156105de57600080fd5b50610578610dcb565b3480156105f357600080fd5b50610578610dd1565b34801561060857600080fd5b5061053a6004803603606081101561061f57600080fd5b506001600160a01b03813581169160208101359091169060400135610ddf565b34801561064b57600080fd5b506105786004803603604081101561052457600080fd5b34801561066e57600080fd5b50610677610df1565b604080516001600160a01b039092168252519081900360200190f35b34801561069f57600080fd5b506106a8610e00565b6040805160ff9092168252519081900360200190f35b3480156106ca57600080fd5b506103d9600480360360208110156106e157600080fd5b8101906020810181356401000000008111156106fc57600080fd5b82018360208201111561070e57600080fd5b8035906020019184600183028401116401000000008311171561073057600080fd5b91908080601f016020809104026020016040519081016040528093929190818152602001838380828437600092019190915250929550610e09945050505050565b34801561077d57600080fd5b50610578611029565b34801561079257600080fd5b5061037a60048036036101408110156107aa57600080fd5b6001600160a01b03823581169260208101358216926040820135909216916060820135919081019060a0810160808201356401000000008111156107ed57600080fd5b8201836020820111156107ff57600080fd5b8035906020019184600183028401116401000000008311171561082157600080fd5b91908080601f016020809104026020016040519081016040528093929190818152602001838380828437600092019190915250929594936020810193503591505064010000000081111561087457600080fd5b82018360208201111561088657600080fd5b803590602001918460018302840111640100000000831117156108a857600080fd5b91908080601f016020809104026020016040519081016040528093929190818152602001838380828437600092019190915250929560ff853516956001600160a01b03602087013581169660408101359091169550919350915060808101906060013564010000000081111561091d57600080fd5b82018360208201111561092f57600080fd5b8035906020019184600183028401116401000000008311171561095157600080fd5b91908080601f01602080910402602001604051908101604052809392919081815260200183838082843760009201919091525092955061102f945050505050565b34801561099e57600080fd5b5061037a600480360360608110156109b557600080fd5b6001600160a01b038235169160208101351515918101906060810160408201356401000000008111156109e757600080fd5b8201836020820111156109f957600080fd5b80359060200191846001830284011164010000000083111715610a1b57600080fd5b91908080601f016020809104026020016040519081016040528093929190818152602001838380828437600092019190915250929550611218945050505050565b348015610a6857600080fd5b50610677611405565b348015610a7d57600080fd5b50610677611414565b348015610a9257600080fd5b50610578611423565b348015610aa757600080fd5b50610677611429565b348015610abc57600080fd5b5061057860048036036020811015610ad357600080fd5b50356001600160a01b0316611438565b348015610aef57600080fd5b50610578611442565b348015610b0457600080fd5b5061057861144c565b348015610b1957600080fd5b506103d9611452565b348015610b2e57600080fd5b506105786114aa565b348015610b4357600080fd5b506105786004803603606081101561061f57600080fd5b348015610b6657600080fd5b50610b8d60048036036020811015610b7d57600080fd5b50356001600160a01b03166114b0565b604080519485526020850193909352838301919091526060830152519081900360800190f35b348015610bbf57600080fd5b5061057860048036036040811015610bd657600080fd5b506001600160a01b03813581169160200135166114c6565b348015610bfa57600080fd5b506106776114d0565b348015610c0f57600080fd5b5061057860048036036060811015610c2657600080fd5b506001600160a01b03813581169160208101359160409091013516610ddf565b348015610c5257600080fd5b506106776114df565b348015610c6757600080fd5b5061053a6114f3565b6012546040516060916000916001600160a01b0390911690829036908083838082843760405192019450600093509091505080830381855af49150503d8060008114610cd8576040519150601f19603f3d011682016040523d82523d6000602084013e610cdd565b606091505b505090506040513d6000823e818015610cf4573d82f35b3d82fd5b60018054604080516020600284861615610100026000190190941693909304601f81018490048402820184019092528181529291830182828015610d7d5780601f10610d5257610100808354040283529160200191610d7d565b820191906000526020600020905b815481529060010190602001808311610d6057829003601f168201915b505050505081565b601254606090610d9e906001600160a01b0316836114f8565b92915050565b6000610dae610c70565b5092915050565b6000610dbf610c70565b50919050565b60085481565b600d5481565b6000610ddb6115b9565b5090565b6000610de9610c70565b509392505050565b6004546001600160a01b031681565b60035460ff1681565b6060600080306001600160a01b0316846040516024018080602001828103825283818151815260200191508051906020019080838360005b83811015610e59578181015183820152602001610e41565b50505050905090810190601f168015610e865780820380516001836020036101000a031916815260200191505b5060408051601f198184030181529181526020820180516001600160e01b0316630933c1ed60e01b178152905182519295509350839250908083835b60208310610ee15780518252601f199092019160209182019101610ec2565b6001836020036101000a038019825116818451168082178552505050505050905001915050600060405180830381855afa9150503d8060008114610f41576040519150601f19603f3d011682016040523d82523d6000602084013e610f46565b606091505b50915091506000821415610f5b573d60208201fd5b808060200190516020811015610f7057600080fd5b8101908080516040519392919084640100000000821115610f9057600080fd5b908301906020820185811115610fa557600080fd5b8251640100000000811182820188101715610fbf57600080fd5b82525081516020918201929091019080838360005b83811015610fec578181015183820152602001610fd4565b50505050905090810190601f1680156110195780820380516001836020036101000a031916815260200191505b5060405250505092505050919050565b600b5481565b33600360016101000a8154816001600160a01b0302191690836001600160a01b031602179055506111c3828b8b8b8b8b8b8b60405160240180886001600160a01b03168152602001876001600160a01b03168152602001866001600160a01b0316815260200185815260200180602001806020018460ff168152602001838103835286818151815260200191508051906020019080838360005b838110156110e15781810151838201526020016110c9565b50505050905090810190601f16801561110e5780820380516001836020036101000a031916815260200191505b50838103825285518152855160209182019187019080838360005b83811015611141578181015183820152602001611129565b50505050905090810190601f16801561116e5780820380516001836020036101000a031916815260200191505b5060408051601f198184030181529190526020810180516001600160e01b03167f1a31d4650000000000000000000000000000000000000000000000000000000017905299506114f898505050505050505050565b506111d082600083611218565b5050600380546001600160a01b03909216610100027fffffffffffffffffffffff0000000000000000000000000000000000000000ff90921691909117905550505050505050565b60035461010090046001600160a01b031633146112665760405162461bcd60e51b81526004018080602001828103825260398152602001806117466039913960400191505060405180910390fd5b81156112b9576040805160048152602481019091526020810180516001600160e01b03167f153ab505000000000000000000000000000000000000000000000000000000001790526112b790610d85565b505b601280546001600160a01b038581167fffffffffffffffffffffffff000000000000000000000000000000000000000083161790925560405160206024820181815285516044840152855194909316936113b6938693909283926064909201919085019080838360005b8381101561133b578181015183820152602001611323565b50505050905090810190601f1680156113685780820380516001836020036101000a031916815260200191505b5060408051601f198184030181529190526020810180516001600160e01b03167f56e67728000000000000000000000000000000000000000000000000000000001790529250610d85915050565b50601254604080516001600160a01b038085168252909216602083015280517fd604de94d45953f9138079ec1b82d533cb2160c906d1076d1f7ed54befbca97a9281900390910190a150505050565b6012546001600160a01b031681565b6005546001600160a01b031681565b60095481565b6011546001600160a01b031681565b6000610dbf6115b9565b6000610ddb610c70565b600c5481565b6002805460408051602060018416156101000260001901909316849004601f81018490048402820184019092528181529291830182828015610d7d5780601f10610d5257610100808354040283529160200191610d7d565b600a5481565b6000806000806114be6115b9565b509193509193565b6000610dae6115b9565b6006546001600160a01b031681565b60035461010090046001600160a01b031681565b600181565b6060600080846001600160a01b0316846040518082805190602001908083835b602083106115375780518252601f199092019160209182019101611518565b6001836020036101000a038019825116818451168082178552505050505050905001915050600060405180830381855af49150503d8060008114611597576040519150601f19603f3d011682016040523d82523d6000602084013e61159c565b606091505b509150915060008214156115b1573d60208201fd5b949350505050565b60606000306001600160a01b03166000366040516024018080602001828103825284848281815260200192508082843760008382015260408051601f909201601f1990811690940182810390940182529283526020810180516001600160e01b0316630933c1ed60e01b17815292518151919750955085945091925081905083835b6020831061165a5780518252601f19909201916020918201910161163b565b6001836020036101000a038019825116818451168082178552505050505050905001915050600060405180830381855afa9150503d80600081146116ba576040519150601f19603f3d011682016040523d82523d6000602084013e6116bf565b606091505b505090506040513d6000823e818015610cf4573d60408301f3fe4c457263323044656c656761746f723a66616c6c6261636b3a2063616e6e6f742073656e642076616c756520746f2066616c6c6261636b4c457263323044656c656761746f723a726563656976653a2063616e6e6f742073656e642076616c756520746f207265636569766543457263323044656c656761746f723a3a5f736574496d706c656d656e746174696f6e3a2043616c6c6572206d7573742062652061646d696ea26469706673582212204e9fe37f4d86b43d3657a5da7819e7369c4b530f1a876d1e005e91ad27a434db64736f6c63430007060033a26469706673582212205d11407db8c1391b6b4eae43115fbad2702b142788756561db49b92cba5d40d364736f6c63430007060033",
  "devdoc": {
    "kind": "dev",
    "methods": {},
    "version": 1
  },
  "userdoc": {
    "kind": "user",
    "methods": {
      "constructor": {
        "notice": "Construct"
      }
    },
    "version": 1
  },
  "storageLayout": {
    "storage": [
      {
        "astId": 16975,
        "contract": "contracts/compound/LErc20DelegatorFactory.sol:LErc20DelegatorFactory",
        "label": "comptroller",
        "offset": 0,
        "slot": "0",
        "type": "t_contract(ComptrollerInterface)2782"
      },
      {
        "astId": 16977,
        "contract": "contracts/compound/LErc20DelegatorFactory.sol:LErc20DelegatorFactory",
        "label": "interestRateModel_",
        "offset": 0,
        "slot": "1",
        "type": "t_contract(InterestRateModel)3224"
      },
      {
        "astId": 16980,
        "contract": "contracts/compound/LErc20DelegatorFactory.sol:LErc20DelegatorFactory",
        "label": "initialExchangeRateMantissa_",
        "offset": 0,
        "slot": "2",
        "type": "t_uint256"
      },
      {
        "astId": 16983,
        "contract": "contracts/compound/LErc20DelegatorFactory.sol:LErc20DelegatorFactory",
        "label": "decimals_",
        "offset": 0,
        "slot": "3",
        "type": "t_uint8"
      },
      {
        "astId": 16986,
        "contract": "contracts/compound/LErc20DelegatorFactory.sol:LErc20DelegatorFactory",
        "label": "admin_",
        "offset": 1,
        "slot": "3",
        "type": "t_address_payable"
      },
      {
        "astId": 16988,
        "contract": "contracts/compound/LErc20DelegatorFactory.sol:LErc20DelegatorFactory",
        "label": "implementation_",
        "offset": 0,
        "slot": "4",
        "type": "t_address"
      },
      {
        "astId": 16990,
        "contract": "contracts/compound/LErc20DelegatorFactory.sol:LErc20DelegatorFactory",
        "label": "becomeImplementationData",
        "offset": 0,
        "slot": "5",
        "type": "t_bytes_storage"
      },
      {
        "astId": 16994,
        "contract": "contracts/compound/LErc20DelegatorFactory.sol:LErc20DelegatorFactory",
        "label": "tokenKeyMapping",
        "offset": 0,
        "slot": "6",
        "type": "t_mapping(t_address,t_address)"
      },
      {
        "astId": 16998,
        "contract": "contracts/compound/LErc20DelegatorFactory.sol:LErc20DelegatorFactory",
        "label": "cTokenKeyMapping",
        "offset": 0,
        "slot": "7",
        "type": "t_mapping(t_address,t_address)"
      }
    ],
    "types": {
      "t_address": {
        "encoding": "inplace",
        "label": "address",
        "numberOfBytes": "20"
      },
      "t_address_payable": {
        "encoding": "inplace",
        "label": "address payable",
        "numberOfBytes": "20"
      },
      "t_bytes_storage": {
        "encoding": "bytes",
        "label": "bytes",
        "numberOfBytes": "32"
      },
      "t_contract(ComptrollerInterface)2782": {
        "encoding": "inplace",
        "label": "contract ComptrollerInterface",
        "numberOfBytes": "20"
      },
      "t_contract(InterestRateModel)3224": {
        "encoding": "inplace",
        "label": "contract InterestRateModel",
        "numberOfBytes": "20"
      },
      "t_mapping(t_address,t_address)": {
        "encoding": "mapping",
        "key": "t_address",
        "label": "mapping(address => address)",
        "numberOfBytes": "32",
        "value": "t_address"
      },
      "t_uint256": {
        "encoding": "inplace",
        "label": "uint256",
        "numberOfBytes": "32"
      },
      "t_uint8": {
        "encoding": "inplace",
        "label": "uint8",
        "numberOfBytes": "1"
      }
    }
  }
}