{
  "address": "0x04C95aD982e21E24E8b96b00453325502CcfC10f",
  "abi": [
    {
      "inputs": [],
      "payable": false,
      "stateMutability": "nonpayable",
      "type": "constructor"
    },
    {
      "anonymous": false,
      "inputs": [
        {
          "indexed": false,
          "internalType": "uint256",
          "name": "cashPrior",
          "type": "uint256"
        },
        {
          "indexed": false,
          "internalType": "uint256",
          "name": "interestAccumulated",
          "type": "uint256"
        },
        {
          "indexed": false,
          "internalType": "uint256",
          "name": "borrowIndex",
          "type": "uint256"
        },
        {
          "indexed": false,
          "internalType": "uint256",
          "name": "totalBorrows",
          "type": "uint256"
        }
      ],
      "name": "AccrueInterest",
      "type": "event"
    },
    {
      "anonymous": false,
      "inputs": [
        {
          "indexed": true,
          "internalType": "address",
          "name": "owner",
          "type": "address"
        },
        {
          "indexed": true,
          "internalType": "address",
          "name": "spender",
          "type": "address"
        },
        {
          "indexed": false,
          "internalType": "uint256",
          "name": "amount",
          "type": "uint256"
        }
      ],
      "name": "Approval",
      "type": "event"
    },
    {
      "anonymous": false,
      "inputs": [
        {
          "indexed": false,
          "internalType": "address",
          "name": "borrower",
          "type": "address"
        },
        {
          "indexed": false,
          "internalType": "uint256",
          "name": "borrowAmount",
          "type": "uint256"
        },
        {
          "indexed": false,
          "internalType": "uint256",
          "name": "accountBorrows",
          "type": "uint256"
        },
        {
          "indexed": false,
          "internalType": "uint256",
          "name": "totalBorrows",
          "type": "uint256"
        }
      ],
      "name": "Borrow",
      "type": "event"
    },
    {
      "anonymous": false,
      "inputs": [
        {
          "indexed": false,
          "internalType": "uint256",
          "name": "error",
          "type": "uint256"
        },
        {
          "indexed": false,
          "internalType": "uint256",
          "name": "info",
          "type": "uint256"
        },
        {
          "indexed": false,
          "internalType": "uint256",
          "name": "detail",
          "type": "uint256"
        }
      ],
      "name": "Failure",
      "type": "event"
    },
    {
      "anonymous": false,
      "inputs": [
        {
          "indexed": false,
          "internalType": "address",
          "name": "liquidator",
          "type": "address"
        },
        {
          "indexed": false,
          "internalType": "address",
          "name": "borrower",
          "type": "address"
        },
        {
          "indexed": false,
          "internalType": "uint256",
          "name": "repayAmount",
          "type": "uint256"
        },
        {
          "indexed": false,
          "internalType": "address",
          "name": "cTokenCollateral",
          "type": "address"
        },
        {
          "indexed": false,
          "internalType": "uint256",
          "name": "seizeTokens",
          "type": "uint256"
        }
      ],
      "name": "LiquidateBorrow",
      "type": "event"
    },
    {
      "anonymous": false,
      "inputs": [
        {
          "indexed": false,
          "internalType": "address",
          "name": "minter",
          "type": "address"
        },
        {
          "indexed": false,
          "internalType": "uint256",
          "name": "mintAmount",
          "type": "uint256"
        },
        {
          "indexed": false,
          "internalType": "uint256",
          "name": "mintTokens",
          "type": "uint256"
        }
      ],
      "name": "Mint",
      "type": "event"
    },
    {
      "anonymous": false,
      "inputs": [
        {
          "indexed": false,
          "internalType": "address",
          "name": "oldAdmin",
          "type": "address"
        },
        {
          "indexed": false,
          "internalType": "address",
          "name": "newAdmin",
          "type": "address"
        }
      ],
      "name": "NewAdmin",
      "type": "event"
    },
    {
      "anonymous": false,
      "inputs": [
        {
          "indexed": false,
          "internalType": "contract ComptrollerInterface",
          "name": "oldComptroller",
          "type": "address"
        },
        {
          "indexed": false,
          "internalType": "contract ComptrollerInterface",
          "name": "newComptroller",
          "type": "address"
        }
      ],
      "name": "NewComptroller",
      "type": "event"
    },
    {
      "anonymous": false,
      "inputs": [
        {
          "indexed": false,
          "internalType": "contract InterestRateModel",
          "name": "oldInterestRateModel",
          "type": "address"
        },
        {
          "indexed": false,
          "internalType": "contract InterestRateModel",
          "name": "newInterestRateModel",
          "type": "address"
        }
      ],
      "name": "NewMarketInterestRateModel",
      "type": "event"
    },
    {
      "anonymous": false,
      "inputs": [
        {
          "indexed": false,
          "internalType": "address",
          "name": "oldPendingAdmin",
          "type": "address"
        },
        {
          "indexed": false,
          "internalType": "address",
          "name": "newPendingAdmin",
          "type": "address"
        }
      ],
      "name": "NewPendingAdmin",
      "type": "event"
    },
    {
      "anonymous": false,
      "inputs": [
        {
          "indexed": false,
          "internalType": "uint256",
          "name": "oldReserveFactorMantissa",
          "type": "uint256"
        },
        {
          "indexed": false,
          "internalType": "uint256",
          "name": "newReserveFactorMantissa",
          "type": "uint256"
        }
      ],
      "name": "NewReserveFactor",
      "type": "event"
    },
    {
      "anonymous": false,
      "inputs": [
        {
          "indexed": false,
          "internalType": "address",
          "name": "redeemer",
          "type": "address"
        },
        {
          "indexed": false,
          "internalType": "uint256",
          "name": "redeemAmount",
          "type": "uint256"
        },
        {
          "indexed": false,
          "internalType": "uint256",
          "name": "redeemTokens",
          "type": "uint256"
        }
      ],
      "name": "Redeem",
      "type": "event"
    },
    {
      "anonymous": false,
      "inputs": [
        {
          "indexed": false,
          "internalType": "address",
          "name": "payer",
          "type": "address"
        },
        {
          "indexed": false,
          "internalType": "address",
          "name": "borrower",
          "type": "address"
        },
        {
          "indexed": false,
          "internalType": "uint256",
          "name": "repayAmount",
          "type": "uint256"
        },
        {
          "indexed": false,
          "internalType": "uint256",
          "name": "accountBorrows",
          "type": "uint256"
        },
        {
          "indexed": false,
          "internalType": "uint256",
          "name": "totalBorrows",
          "type": "uint256"
        }
      ],
      "name": "RepayBorrow",
      "type": "event"
    },
    {
      "anonymous": false,
      "inputs": [
        {
          "indexed": false,
          "internalType": "address",
          "name": "benefactor",
          "type": "address"
        },
        {
          "indexed": false,
          "internalType": "uint256",
          "name": "addAmount",
          "type": "uint256"
        },
        {
          "indexed": false,
          "internalType": "uint256",
          "name": "newTotalReserves",
          "type": "uint256"
        }
      ],
      "name": "ReservesAdded",
      "type": "event"
    },
    {
      "anonymous": false,
      "inputs": [
        {
          "indexed": false,
          "internalType": "address",
          "name": "admin",
          "type": "address"
        },
        {
          "indexed": false,
          "internalType": "uint256",
          "name": "reduceAmount",
          "type": "uint256"
        },
        {
          "indexed": false,
          "internalType": "uint256",
          "name": "newTotalReserves",
          "type": "uint256"
        }
      ],
      "name": "ReservesReduced",
      "type": "event"
    },
    {
      "anonymous": false,
      "inputs": [
        {
          "indexed": true,
          "internalType": "address",
          "name": "from",
          "type": "address"
        },
        {
          "indexed": true,
          "internalType": "address",
          "name": "to",
          "type": "address"
        },
        {
          "indexed": false,
          "internalType": "uint256",
          "name": "amount",
          "type": "uint256"
        }
      ],
      "name": "Transfer",
      "type": "event"
    },
    {
      "constant": false,
      "inputs": [],
      "name": "_acceptAdmin",
      "outputs": [
        {
          "internalType": "uint256",
          "name": "",
          "type": "uint256"
        }
      ],
      "payable": false,
      "stateMutability": "nonpayable",
      "type": "function"
    },
    {
      "constant": false,
      "inputs": [
        {
          "internalType": "uint256",
          "name": "addAmount",
          "type": "uint256"
        }
      ],
      "name": "_addReserves",
      "outputs": [
        {
          "internalType": "uint256",
          "name": "",
          "type": "uint256"
        }
      ],
      "payable": false,
      "stateMutability": "nonpayable",
      "type": "function"
    },
    {
      "constant": false,
      "inputs": [
        {
          "internalType": "bytes",
          "name": "data",
          "type": "bytes"
        }
      ],
      "name": "_becomeImplementation",
      "outputs": [],
      "payable": false,
      "stateMutability": "nonpayable",
      "type": "function"
    },
    {
      "constant": false,
      "inputs": [
        {
          "internalType": "uint256",
          "name": "reduceAmount",
          "type": "uint256"
        }
      ],
      "name": "_reduceReserves",
      "outputs": [
        {
          "internalType": "uint256",
          "name": "",
          "type": "uint256"
        }
      ],
      "payable": false,
      "stateMutability": "nonpayable",
      "type": "function"
    },
    {
      "constant": false,
      "inputs": [],
      "name": "_resignImplementation",
      "outputs": [],
      "payable": false,
      "stateMutability": "nonpayable",
      "type": "function"
    },
    {
      "constant": false,
      "inputs": [
        {
          "internalType": "contract ComptrollerInterface",
          "name": "newComptroller",
          "type": "address"
        }
      ],
      "name": "_setComptroller",
      "outputs": [
        {
          "internalType": "uint256",
          "name": "",
          "type": "uint256"
        }
      ],
      "payable": false,
      "stateMutability": "nonpayable",
      "type": "function"
    },
    {
      "constant": false,
      "inputs": [
        {
          "internalType": "contract InterestRateModel",
          "name": "newInterestRateModel",
          "type": "address"
        }
      ],
      "name": "_setInterestRateModel",
      "outputs": [
        {
          "internalType": "uint256",
          "name": "",
          "type": "uint256"
        }
      ],
      "payable": false,
      "stateMutability": "nonpayable",
      "type": "function"
    },
    {
      "constant": false,
      "inputs": [
        {
          "internalType": "address payable",
          "name": "newPendingAdmin",
          "type": "address"
        }
      ],
      "name": "_setPendingAdmin",
      "outputs": [
        {
          "internalType": "uint256",
          "name": "",
          "type": "uint256"
        }
      ],
      "payable": false,
      "stateMutability": "nonpayable",
      "type": "function"
    },
    {
      "constant": false,
      "inputs": [
        {
          "internalType": "uint256",
          "name": "newReserveFactorMantissa",
          "type": "uint256"
        }
      ],
      "name": "_setReserveFactor",
      "outputs": [
        {
          "internalType": "uint256",
          "name": "",
          "type": "uint256"
        }
      ],
      "payable": false,
      "stateMutability": "nonpayable",
      "type": "function"
    },
    {
      "constant": true,
      "inputs": [],
      "name": "accrualBlockNumber",
      "outputs": [
        {
          "internalType": "uint256",
          "name": "",
          "type": "uint256"
        }
      ],
      "payable": false,
      "stateMutability": "view",
      "type": "function"
    },
    {
      "constant": false,
      "inputs": [],
      "name": "accrueInterest",
      "outputs": [
        {
          "internalType": "uint256",
          "name": "",
          "type": "uint256"
        }
      ],
      "payable": false,
      "stateMutability": "nonpayable",
      "type": "function"
    },
    {
      "constant": true,
      "inputs": [],
      "name": "admin",
      "outputs": [
        {
          "internalType": "address payable",
          "name": "",
          "type": "address"
        }
      ],
      "payable": false,
      "stateMutability": "view",
      "type": "function"
    },
    {
      "constant": true,
      "inputs": [
        {
          "internalType": "address",
          "name": "owner",
          "type": "address"
        },
        {
          "internalType": "address",
          "name": "spender",
          "type": "address"
        }
      ],
      "name": "allowance",
      "outputs": [
        {
          "internalType": "uint256",
          "name": "",
          "type": "uint256"
        }
      ],
      "payable": false,
      "stateMutability": "view",
      "type": "function"
    },
    {
      "constant": false,
      "inputs": [
        {
          "internalType": "address",
          "name": "spender",
          "type": "address"
        },
        {
          "internalType": "uint256",
          "name": "amount",
          "type": "uint256"
        }
      ],
      "name": "approve",
      "outputs": [
        {
          "internalType": "bool",
          "name": "",
          "type": "bool"
        }
      ],
      "payable": false,
      "stateMutability": "nonpayable",
      "type": "function"
    },
    {
      "constant": true,
      "inputs": [
        {
          "internalType": "address",
          "name": "owner",
          "type": "address"
        }
      ],
      "name": "balanceOf",
      "outputs": [
        {
          "internalType": "uint256",
          "name": "",
          "type": "uint256"
        }
      ],
      "payable": false,
      "stateMutability": "view",
      "type": "function"
    },
    {
      "constant": false,
      "inputs": [
        {
          "internalType": "address",
          "name": "owner",
          "type": "address"
        }
      ],
      "name": "balanceOfUnderlying",
      "outputs": [
        {
          "internalType": "uint256",
          "name": "",
          "type": "uint256"
        }
      ],
      "payable": false,
      "stateMutability": "nonpayable",
      "type": "function"
    },
    {
      "constant": false,
      "inputs": [
        {
          "internalType": "uint256",
          "name": "borrowAmount",
          "type": "uint256"
        }
      ],
      "name": "borrow",
      "outputs": [
        {
          "internalType": "uint256",
          "name": "",
          "type": "uint256"
        }
      ],
      "payable": false,
      "stateMutability": "nonpayable",
      "type": "function"
    },
    {
      "constant": false,
      "inputs": [
        {
          "internalType": "address",
          "name": "account",
          "type": "address"
        }
      ],
      "name": "borrowBalanceCurrent",
      "outputs": [
        {
          "internalType": "uint256",
          "name": "",
          "type": "uint256"
        }
      ],
      "payable": false,
      "stateMutability": "nonpayable",
      "type": "function"
    },
    {
      "constant": true,
      "inputs": [
        {
          "internalType": "address",
          "name": "account",
          "type": "address"
        }
      ],
      "name": "borrowBalanceStored",
      "outputs": [
        {
          "internalType": "uint256",
          "name": "",
          "type": "uint256"
        }
      ],
      "payable": false,
      "stateMutability": "view",
      "type": "function"
    },
    {
      "constant": true,
      "inputs": [],
      "name": "borrowIndex",
      "outputs": [
        {
          "internalType": "uint256",
          "name": "",
          "type": "uint256"
        }
      ],
      "payable": false,
      "stateMutability": "view",
      "type": "function"
    },
    {
      "constant": false,
      "inputs": [
        {
          "internalType": "address",
          "name": "borrower",
          "type": "address"
        },
        {
          "internalType": "uint256",
          "name": "borrowAmount",
          "type": "uint256"
        }
      ],
      "name": "borrowLPMargin",
      "outputs": [
        {
          "internalType": "uint256",
          "name": "",
          "type": "uint256"
        }
      ],
      "payable": false,
      "stateMutability": "nonpayable",
      "type": "function"
    },
    {
      "constant": true,
      "inputs": [],
      "name": "borrowRatePerBlock",
      "outputs": [
        {
          "internalType": "uint256",
          "name": "",
          "type": "uint256"
        }
      ],
      "payable": false,
      "stateMutability": "view",
      "type": "function"
    },
    {
      "constant": false,
      "inputs": [
        {
          "internalType": "address",
          "name": "borrower",
          "type": "address"
        },
        {
          "internalType": "uint256",
          "name": "borrowAmount",
          "type": "uint256"
        }
      ],
      "name": "borrowSwapMargin",
      "outputs": [
        {
          "internalType": "uint256",
          "name": "",
          "type": "uint256"
        }
      ],
      "payable": false,
      "stateMutability": "nonpayable",
      "type": "function"
    },
    {
      "constant": true,
      "inputs": [],
      "name": "comptroller",
      "outputs": [
        {
          "internalType": "contract ComptrollerInterface",
          "name": "",
          "type": "address"
        }
      ],
      "payable": false,
      "stateMutability": "view",
      "type": "function"
    },
    {
      "constant": true,
      "inputs": [],
      "name": "decimals",
      "outputs": [
        {
          "internalType": "uint8",
          "name": "",
          "type": "uint8"
        }
      ],
      "payable": false,
      "stateMutability": "view",
      "type": "function"
    },
    {
      "constant": false,
      "inputs": [],
      "name": "exchangeRateCurrent",
      "outputs": [
        {
          "internalType": "uint256",
          "name": "",
          "type": "uint256"
        }
      ],
      "payable": false,
      "stateMutability": "nonpayable",
      "type": "function"
    },
    {
      "constant": true,
      "inputs": [],
      "name": "exchangeRateStored",
      "outputs": [
        {
          "internalType": "uint256",
          "name": "",
          "type": "uint256"
        }
      ],
      "payable": false,
      "stateMutability": "view",
      "type": "function"
    },
    {
      "constant": true,
      "inputs": [
        {
          "internalType": "address",
          "name": "account",
          "type": "address"
        }
      ],
      "name": "getAccountSnapshot",
      "outputs": [
        {
          "internalType": "uint256",
          "name": "",
          "type": "uint256"
        },
        {
          "internalType": "uint256",
          "name": "",
          "type": "uint256"
        },
        {
          "internalType": "uint256",
          "name": "",
          "type": "uint256"
        },
        {
          "internalType": "uint256",
          "name": "",
          "type": "uint256"
        }
      ],
      "payable": false,
      "stateMutability": "view",
      "type": "function"
    },
    {
      "constant": true,
      "inputs": [],
      "name": "getCash",
      "outputs": [
        {
          "internalType": "uint256",
          "name": "",
          "type": "uint256"
        }
      ],
      "payable": false,
      "stateMutability": "view",
      "type": "function"
    },
    {
      "constant": true,
      "inputs": [],
      "name": "implementation",
      "outputs": [
        {
          "internalType": "address",
          "name": "",
          "type": "address"
        }
      ],
      "payable": false,
      "stateMutability": "view",
      "type": "function"
    },
    {
      "constant": false,
      "inputs": [
        {
          "internalType": "address",
          "name": "underlying_",
          "type": "address"
        },
        {
          "internalType": "contract ComptrollerInterface",
          "name": "comptroller_",
          "type": "address"
        },
        {
          "internalType": "contract InterestRateModel",
          "name": "interestRateModel_",
          "type": "address"
        },
        {
          "internalType": "uint256",
          "name": "initialExchangeRateMantissa_",
          "type": "uint256"
        },
        {
          "internalType": "string",
          "name": "name_",
          "type": "string"
        },
        {
          "internalType": "string",
          "name": "symbol_",
          "type": "string"
        },
        {
          "internalType": "uint8",
          "name": "decimals_",
          "type": "uint8"
        }
      ],
      "name": "initialize",
      "outputs": [],
      "payable": false,
      "stateMutability": "nonpayable",
      "type": "function"
    },
    {
      "constant": false,
      "inputs": [
        {
          "internalType": "contract ComptrollerInterface",
          "name": "comptroller_",
          "type": "address"
        },
        {
          "internalType": "contract InterestRateModel",
          "name": "interestRateModel_",
          "type": "address"
        },
        {
          "internalType": "uint256",
          "name": "initialExchangeRateMantissa_",
          "type": "uint256"
        },
        {
          "internalType": "string",
          "name": "name_",
          "type": "string"
        },
        {
          "internalType": "string",
          "name": "symbol_",
          "type": "string"
        },
        {
          "internalType": "uint8",
          "name": "decimals_",
          "type": "uint8"
        }
      ],
      "name": "initialize",
      "outputs": [],
      "payable": false,
      "stateMutability": "nonpayable",
      "type": "function"
    },
    {
      "constant": true,
      "inputs": [],
      "name": "interestRateModel",
      "outputs": [
        {
          "internalType": "contract InterestRateModel",
          "name": "",
          "type": "address"
        }
      ],
      "payable": false,
      "stateMutability": "view",
      "type": "function"
    },
    {
      "constant": true,
      "inputs": [],
      "name": "isCToken",
      "outputs": [
        {
          "internalType": "bool",
          "name": "",
          "type": "bool"
        }
      ],
      "payable": false,
      "stateMutability": "view",
      "type": "function"
    },
    {
      "constant": false,
      "inputs": [
        {
          "internalType": "address",
          "name": "borrower",
          "type": "address"
        },
        {
          "internalType": "uint256",
          "name": "repayAmount",
          "type": "uint256"
        },
        {
          "internalType": "contract CTokenInterface",
          "name": "cTokenCollateral",
          "type": "address"
        }
      ],
      "name": "liquidateBorrow",
      "outputs": [
        {
          "internalType": "uint256",
          "name": "",
          "type": "uint256"
        }
      ],
      "payable": false,
      "stateMutability": "nonpayable",
      "type": "function"
    },
    {
      "constant": false,
      "inputs": [
        {
          "internalType": "uint256",
          "name": "mintAmount",
          "type": "uint256"
        }
      ],
      "name": "mint",
      "outputs": [
        {
          "internalType": "uint256",
          "name": "",
          "type": "uint256"
        }
      ],
      "payable": false,
      "stateMutability": "nonpayable",
      "type": "function"
    },
    {
      "constant": true,
      "inputs": [],
      "name": "name",
      "outputs": [
        {
          "internalType": "string",
          "name": "",
          "type": "string"
        }
      ],
      "payable": false,
      "stateMutability": "view",
      "type": "function"
    },
    {
      "constant": true,
      "inputs": [],
      "name": "pendingAdmin",
      "outputs": [
        {
          "internalType": "address payable",
          "name": "",
          "type": "address"
        }
      ],
      "payable": false,
      "stateMutability": "view",
      "type": "function"
    },
    {
      "constant": false,
      "inputs": [
        {
          "internalType": "uint256",
          "name": "redeemTokens",
          "type": "uint256"
        }
      ],
      "name": "redeem",
      "outputs": [
        {
          "internalType": "uint256",
          "name": "",
          "type": "uint256"
        }
      ],
      "payable": false,
      "stateMutability": "nonpayable",
      "type": "function"
    },
    {
      "constant": false,
      "inputs": [
        {
          "internalType": "uint256",
          "name": "redeemAmount",
          "type": "uint256"
        }
      ],
      "name": "redeemUnderlying",
      "outputs": [
        {
          "internalType": "uint256",
          "name": "",
          "type": "uint256"
        }
      ],
      "payable": false,
      "stateMutability": "nonpayable",
      "type": "function"
    },
    {
      "constant": false,
      "inputs": [
        {
          "internalType": "uint256",
          "name": "repayAmount",
          "type": "uint256"
        }
      ],
      "name": "repayBorrow",
      "outputs": [
        {
          "internalType": "uint256",
          "name": "",
          "type": "uint256"
        }
      ],
      "payable": false,
      "stateMutability": "nonpayable",
      "type": "function"
    },
    {
      "constant": false,
      "inputs": [
        {
          "internalType": "address",
          "name": "borrower",
          "type": "address"
        },
        {
          "internalType": "uint256",
          "name": "repayAmount",
          "type": "uint256"
        }
      ],
      "name": "repayBorrowBehalf",
      "outputs": [
        {
          "internalType": "uint256",
          "name": "",
          "type": "uint256"
        }
      ],
      "payable": false,
      "stateMutability": "nonpayable",
      "type": "function"
    },
    {
      "constant": true,
      "inputs": [],
      "name": "reserveFactorMantissa",
      "outputs": [
        {
          "internalType": "uint256",
          "name": "",
          "type": "uint256"
        }
      ],
      "payable": false,
      "stateMutability": "view",
      "type": "function"
    },
    {
      "constant": false,
      "inputs": [
        {
          "internalType": "address",
          "name": "liquidator",
          "type": "address"
        },
        {
          "internalType": "address",
          "name": "borrower",
          "type": "address"
        },
        {
          "internalType": "uint256",
          "name": "seizeTokens",
          "type": "uint256"
        }
      ],
      "name": "seize",
      "outputs": [
        {
          "internalType": "uint256",
          "name": "",
          "type": "uint256"
        }
      ],
      "payable": false,
      "stateMutability": "nonpayable",
      "type": "function"
    },
    {
      "constant": true,
      "inputs": [],
      "name": "supplyRatePerBlock",
      "outputs": [
        {
          "internalType": "uint256",
          "name": "",
          "type": "uint256"
        }
      ],
      "payable": false,
      "stateMutability": "view",
      "type": "function"
    },
    {
      "constant": true,
      "inputs": [],
      "name": "symbol",
      "outputs": [
        {
          "internalType": "string",
          "name": "",
          "type": "string"
        }
      ],
      "payable": false,
      "stateMutability": "view",
      "type": "function"
    },
    {
      "constant": true,
      "inputs": [],
      "name": "totalBorrows",
      "outputs": [
        {
          "internalType": "uint256",
          "name": "",
          "type": "uint256"
        }
      ],
      "payable": false,
      "stateMutability": "view",
      "type": "function"
    },
    {
      "constant": false,
      "inputs": [],
      "name": "totalBorrowsCurrent",
      "outputs": [
        {
          "internalType": "uint256",
          "name": "",
          "type": "uint256"
        }
      ],
      "payable": false,
      "stateMutability": "nonpayable",
      "type": "function"
    },
    {
      "constant": true,
      "inputs": [],
      "name": "totalReserves",
      "outputs": [
        {
          "internalType": "uint256",
          "name": "",
          "type": "uint256"
        }
      ],
      "payable": false,
      "stateMutability": "view",
      "type": "function"
    },
    {
      "constant": true,
      "inputs": [],
      "name": "totalSupply",
      "outputs": [
        {
          "internalType": "uint256",
          "name": "",
          "type": "uint256"
        }
      ],
      "payable": false,
      "stateMutability": "view",
      "type": "function"
    },
    {
      "constant": false,
      "inputs": [
        {
          "internalType": "address",
          "name": "dst",
          "type": "address"
        },
        {
          "internalType": "uint256",
          "name": "amount",
          "type": "uint256"
        }
      ],
      "name": "transfer",
      "outputs": [
        {
          "internalType": "bool",
          "name": "",
          "type": "bool"
        }
      ],
      "payable": false,
      "stateMutability": "nonpayable",
      "type": "function"
    },
    {
      "constant": false,
      "inputs": [
        {
          "internalType": "address",
          "name": "src",
          "type": "address"
        },
        {
          "internalType": "address",
          "name": "dst",
          "type": "address"
        },
        {
          "internalType": "uint256",
          "name": "amount",
          "type": "uint256"
        }
      ],
      "name": "transferFrom",
      "outputs": [
        {
          "internalType": "bool",
          "name": "",
          "type": "bool"
        }
      ],
      "payable": false,
      "stateMutability": "nonpayable",
      "type": "function"
    },
    {
      "constant": true,
      "inputs": [],
      "name": "underlying",
      "outputs": [
        {
          "internalType": "address",
          "name": "",
          "type": "address"
        }
      ],
      "payable": false,
      "stateMutability": "view",
      "type": "function"
    }
  ],
  "transactionHash": "0x7ef3f1e83f427f0904c541865f8ebeedd137689d88ca50a88e9f68a65ea251fa",
  "args": [],
  "solcInputHash": "8c9b6a7d996b415e220bbf0bd412ecd2",
  "bytecode": "0x608060405234801561001057600080fd5b50615b4e80620000216000396000f3fe608060405234801561001057600080fd5b50600436106103275760003560e01c806373acee98116101b8578063bc49e0a311610104578063f2b3abbd116100a2578063f851a4401161007c578063f851a44014610b94578063f8f9da2814610b9c578063fca7820b14610ba4578063fe9c44ae14610bc157610327565b8063f2b3abbd14610b30578063f3fdb15a14610b56578063f5e3c46214610b5e57610327565b8063c5ebeaec116100de578063c5ebeaec14610ac0578063db006a7514610add578063dd62ed3e14610afa578063e9c714f214610b2857610327565b8063bc49e0a3146106a5578063bd6d894d14610a6c578063c37f68e214610a7457610327565b8063a0712d6811610171578063aa5af0fd1161014b578063aa5af0fd14610a00578063ae9d70b014610a08578063b2a02ff114610a10578063b71d1a0c14610a4657610327565b8063a0712d68146109af578063a6afed95146109cc578063a9059cbb146109d457610327565b806373acee9814610806578063852a12e31461080e5780638f840ddd1461082b57806395d89b411461083357806395dd91931461083b57806399d8c1b41461086157610327565b80633af9e6691161027757806356e6772811610230578063601a0bf11161020a578063601a0bf1146107b35780636c540baf146107d05780636f307dc3146107d857806370a08231146107e057610327565b806356e67728146106ff5780635c60da1b146107a35780635fe3b567146107ab57610327565b80633af9e6691461065a5780633b1d21a2146106805780633e9410101461068857806340cf3480146106a55780634576b5db146106d157806347bd3718146106f757610327565b806318160ddd116102e457806323b872dd116102be57806323b872dd146105b65780632608f818146105ec5780632678224714610618578063313ce5671461063c57610327565b806318160ddd14610450578063182df0f5146104585780631a31d4651461046057610327565b806306fdde031461032c578063095ea7b3146103a95780630e752702146103e9578063153ab50514610418578063173b99041461042257806317bfdfbc1461042a575b600080fd5b610334610bc9565b6040805160208082528351818301528351919283929083019185019080838360005b8381101561036e578181015183820152602001610356565b50505050905090810190601f16801561039b5780820380516001836020036101000a031916815260200191505b509250505060405180910390f35b6103d5600480360360408110156103bf57600080fd5b506001600160a01b038135169060200135610c56565b604080519115158252519081900360200190f35b610406600480360360208110156103ff57600080fd5b5035610cc3565b60408051918252519081900360200190f35b610420610cd9565b005b610406610d29565b6104066004803603602081101561044057600080fd5b50356001600160a01b0316610d2f565b610406610def565b610406610df5565b610420600480360360e081101561047657600080fd5b6001600160a01b03823581169260208101358216926040820135909216916060820135919081019060a081016080820135600160201b8111156104b857600080fd5b8201836020820111156104ca57600080fd5b803590602001918460018302840111600160201b831117156104eb57600080fd5b91908080601f0160208091040260200160405190810160405280939291908181526020018383808284376000920191909152509295949360208101935035915050600160201b81111561053d57600080fd5b82018360208201111561054f57600080fd5b803590602001918460018302840111600160201b8311171561057057600080fd5b91908080601f0160208091040260200160405190810160405280939291908181526020018383808284376000920191909152509295505050903560ff169150610e589050565b6103d5600480360360608110156105cc57600080fd5b506001600160a01b03813581169160208101359091169060400135610ef7565b6104066004803603604081101561060257600080fd5b506001600160a01b038135169060200135610f69565b610620610f7f565b604080516001600160a01b039092168252519081900360200190f35b610644610f8e565b6040805160ff9092168252519081900360200190f35b6104066004803603602081101561067057600080fd5b50356001600160a01b0316610f97565b61040661104d565b6104066004803603602081101561069e57600080fd5b503561105c565b610406600480360360408110156106bb57600080fd5b506001600160a01b038135169060200135611067565b610406600480360360208110156106e757600080fd5b50356001600160a01b031661106f565b6104066111c4565b6104206004803603602081101561071557600080fd5b810190602081018135600160201b81111561072f57600080fd5b82018360208201111561074157600080fd5b803590602001918460018302840111600160201b8311171561076257600080fd5b91908080601f0160208091040260200160405190810160405280939291908181526020018383808284376000920191909152509295506111ca945050505050565b61062061121b565b61062061122a565b610406600480360360208110156107c957600080fd5b5035611239565b6104066112d4565b6106206112da565b610406600480360360208110156107f657600080fd5b50356001600160a01b03166112e9565b610406611304565b6104066004803603602081101561082457600080fd5b50356113ba565b6104066113c5565b6103346113cb565b6104066004803603602081101561085157600080fd5b50356001600160a01b0316611423565b610420600480360360c081101561087757600080fd5b6001600160a01b03823581169260208101359091169160408201359190810190608081016060820135600160201b8111156108b157600080fd5b8201836020820111156108c357600080fd5b803590602001918460018302840111600160201b831117156108e457600080fd5b91908080601f0160208091040260200160405190810160405280939291908181526020018383808284376000920191909152509295949360208101935035915050600160201b81111561093657600080fd5b82018360208201111561094857600080fd5b803590602001918460018302840111600160201b8311171561096957600080fd5b91908080601f0160208091040260200160405190810160405280939291908181526020018383808284376000920191909152509295505050903560ff1691506114809050565b610406600480360360208110156109c557600080fd5b5035611667565b610406611673565b6103d5600480360360408110156109ea57600080fd5b506001600160a01b0381351690602001356119cb565b610406611a3c565b610406611a42565b61040660048036036060811015610a2657600080fd5b506001600160a01b03813581169160208101359091169060400135611ae1565b61040660048036036020811015610a5c57600080fd5b50356001600160a01b0316611b52565b610406611bde565b610a9a60048036036020811015610a8a57600080fd5b50356001600160a01b0316611c9a565b604080519485526020850193909352838301919091526060830152519081900360800190f35b61040660048036036020811015610ad657600080fd5b5035611d2f565b61040660048036036020811015610af357600080fd5b5035611d3a565b61040660048036036040811015610b1057600080fd5b506001600160a01b0381358116916020013516611d45565b610406611d70565b61040660048036036020811015610b4657600080fd5b50356001600160a01b0316611e73565b610620611ead565b61040660048036036060811015610b7457600080fd5b506001600160a01b03813581169160208101359160409091013516611ebc565b610620611ed4565b610406611ee8565b61040660048036036020811015610bba57600080fd5b5035611f4c565b6103d5611fca565b60018054604080516020600284861615610100026000190190941693909304601f81018490048402820184019092528181529291830182828015610c4e5780601f10610c2357610100808354040283529160200191610c4e565b820191906000526020600020905b815481529060010190602001808311610c3157829003601f168201915b505050505081565b336000818152600f602090815260408083206001600160a01b03871680855290835281842086905581518681529151939493909284927f8c5be1e5ebec7d5bd14f71427d1e84f3dd0314c0f7b2291e5b200ac8c7c3b925929081900390910190a360019150505b92915050565b600080610ccf83611fcf565b509150505b919050565b60035461010090046001600160a01b03163314610d275760405162461bcd60e51b815260040180806020018281038252602d8152602001806157c3602d913960400191505060405180910390fd5b565b60085481565b6000805460ff16610d74576040805162461bcd60e51b815260206004820152600a6024820152691c994b595b9d195c995960b21b604482015290519081900360640190fd5b6000805460ff19168155610d86611673565b14610dd1576040805162461bcd60e51b81526020600482015260166024820152751858d8dc9d59481a5b9d195c995cdd0819985a5b195960521b604482015290519081900360640190fd5b610dda82611423565b90505b6000805460ff19166001179055919050565b600d5481565b6000806000610e02612078565b90925090506000826003811115610e1557fe5b14610e515760405162461bcd60e51b8152600401808060200182810382526035815260200180615a386035913960400191505060405180910390fd5b9150505b90565b610e66868686868686611480565b601380546001600160a01b0319166001600160a01b038981169190911791829055604080516318160ddd60e01b8152905192909116916318160ddd91600480820192602092909190829003018186803b158015610ec257600080fd5b505afa158015610ed6573d6000803e3d6000fd5b505050506040513d6020811015610eec57600080fd5b505050505050505050565b6000805460ff16610f3c576040805162461bcd60e51b815260206004820152600a6024820152691c994b595b9d195c995960b21b604482015290519081900360640190fd5b6000805460ff19168155610f52338686866121bb565b1490506000805460ff191660011790559392505050565b600080610f7684846124bd565b50949350505050565b6004546001600160a01b031681565b60035460ff1681565b6000610fa161557b565b6040518060200160405280610fb4611bde565b90526001600160a01b0384166000908152600e6020526040812054919250908190610fe0908490612568565b90925090506000826003811115610ff357fe5b14611045576040805162461bcd60e51b815260206004820152601f60248201527f62616c616e636520636f756c64206e6f742062652063616c63756c6174656400604482015290519081900360640190fd5b949350505050565b60006110576125bc565b905090565b6000610cbd8261263c565b600092915050565b60035460009061010090046001600160a01b0316331461109c576110956001603f6126d0565b9050610cd4565b60055460408051623f1ee960e11b815290516001600160a01b0392831692851691627e3dd2916004808301926020929190829003018186803b1580156110e157600080fd5b505afa1580156110f5573d6000803e3d6000fd5b505050506040513d602081101561110b57600080fd5b505161115e576040805162461bcd60e51b815260206004820152601c60248201527f6d61726b6572206d6574686f642072657475726e65642066616c736500000000604482015290519081900360640190fd5b600580546001600160a01b0319166001600160a01b03858116918217909255604080519284168352602083019190915280517f7ac369dbd14fa5ea3f473ed67cc9d598964a77501540ba6751eb0b3decf5870d9281900390910190a160005b9392505050565b600b5481565b60035461010090046001600160a01b031633146112185760405162461bcd60e51b815260040180806020018281038252602d815260200180615aed602d913960400191505060405180910390fd5b50565b6014546001600160a01b031681565b6005546001600160a01b031681565b6000805460ff1661127e576040805162461bcd60e51b815260206004820152600a6024820152691c994b595b9d195c995960b21b604482015290519081900360640190fd5b6000805460ff19168155611290611673565b905080156112b6576112ae8160108111156112a757fe5b60306126d0565b915050610ddd565b6112bf83612736565b9150506000805460ff19166001179055919050565b60095481565b6013546001600160a01b031681565b6001600160a01b03166000908152600e602052604090205490565b6000805460ff16611349576040805162461bcd60e51b815260206004820152600a6024820152691c994b595b9d195c995960b21b604482015290519081900360640190fd5b6000805460ff1916815561135b611673565b146113a6576040805162461bcd60e51b81526020600482015260166024820152751858d8dc9d59481a5b9d195c995cdd0819985a5b195960521b604482015290519081900360640190fd5b50600b546000805460ff1916600117905590565b6000610cbd82612869565b600c5481565b6002805460408051602060018416156101000260001901909316849004601f81018490048402820184019092528181529291830182828015610c4e5780601f10610c2357610100808354040283529160200191610c4e565b6000806000611431846128ea565b9092509050600082600381111561144457fe5b146111bd5760405162461bcd60e51b81526004018080602001828103825260378152602001806158566037913960400191505060405180910390fd5b60035461010090046001600160a01b031633146114ce5760405162461bcd60e51b81526004018080602001828103825260248152602001806156fe6024913960400191505060405180910390fd5b6009541580156114de5750600a54155b6115195760405162461bcd60e51b81526004018080602001828103825260238152602001806157226023913960400191505060405180910390fd5b60078490558361155a5760405162461bcd60e51b81526004018080602001828103825260308152602001806157456030913960400191505060405180910390fd5b60006115658761106f565b905080156115ba576040805162461bcd60e51b815260206004820152601a60248201527f73657474696e6720636f6d7074726f6c6c6572206661696c6564000000000000604482015290519081900360640190fd5b6115c261299e565b600955670de0b6b3a7640000600a556115da866129a2565b905080156116195760405162461bcd60e51b81526004018080602001828103825260228152602001806157756022913960400191505060405180910390fd5b835161162c90600190602087019061558e565b50825161164090600290602086019061558e565b50506003805460ff90921660ff199283161790556000805490911660011790555050505050565b600080610ccf83612b17565b60008061167e61299e565b6009549091508082141561169757600092505050610e55565b60006116a16125bc565b600b54600c54600a54600654604080516315f2405360e01b815260048101879052602481018690526044810185905290519596509394929391926000926001600160a01b03909216916315f24053916064808301926020929190829003018186803b15801561170f57600080fd5b505afa158015611723573d6000803e3d6000fd5b505050506040513d602081101561173957600080fd5b5051905065048c27395000811115611798576040805162461bcd60e51b815260206004820152601c60248201527f626f72726f772072617465206973206162737572646c79206869676800000000604482015290519081900360640190fd5b6000806117a58989612b98565b909250905060008260038111156117b857fe5b1461180a576040805162461bcd60e51b815260206004820152601f60248201527f636f756c64206e6f742063616c63756c61746520626c6f636b2064656c746100604482015290519081900360640190fd5b61181261557b565b60008060008061183060405180602001604052808a81525087612bbb565b9097509450600087600381111561184357fe5b14611875576118606009600689600381111561185b57fe5b612c23565b9e505050505050505050505050505050610e55565b61187f858c612568565b9097509350600087600381111561189257fe5b146118aa576118606009600189600381111561185b57fe5b6118b4848c612c89565b909750925060008760038111156118c757fe5b146118df576118606009600489600381111561185b57fe5b6118fa6040518060200160405280600854815250858c612caf565b9097509150600087600381111561190d57fe5b14611925576118606009600589600381111561185b57fe5b611930858a8b612caf565b9097509050600087600381111561194357fe5b1461195b576118606009600389600381111561185b57fe5b60098e9055600a819055600b839055600c829055604080518d8152602081018690528082018390526060810185905290517f4dec04e750ca11537cabcd8a9eab06494de08da3735bc8871cd41250e190bc049181900360800190a160009e50505050505050505050505050505090565b6000805460ff16611a10576040805162461bcd60e51b815260206004820152600a6024820152691c994b595b9d195c995960b21b604482015290519081900360640190fd5b6000805460ff19168155611a26333386866121bb565b1490506000805460ff1916600117905592915050565b600a5481565b6006546000906001600160a01b031663b8168816611a5e6125bc565b600b54600c546008546040518563ffffffff1660e01b81526004018085815260200184815260200183815260200182815260200194505050505060206040518083038186803b158015611ab057600080fd5b505afa158015611ac4573d6000803e3d6000fd5b505050506040513d6020811015611ada57600080fd5b5051905090565b6000805460ff16611b26576040805162461bcd60e51b815260206004820152600a6024820152691c994b595b9d195c995960b21b604482015290519081900360640190fd5b6000805460ff19169055611b3c33858585612d0b565b90506000805460ff191660011790559392505050565b60035460009061010090046001600160a01b03163314611b7857611095600160456126d0565b600480546001600160a01b038481166001600160a01b0319831681179093556040805191909216808252602082019390935281517fca4f2f25d0898edd99413412fb94012f9e54ec8142f9b093e7720646a95b16a9929181900390910190a160006111bd565b6000805460ff16611c23576040805162461bcd60e51b815260206004820152600a6024820152691c994b595b9d195c995960b21b604482015290519081900360640190fd5b6000805460ff19168155611c35611673565b14611c80576040805162461bcd60e51b81526020600482015260166024820152751858d8dc9d59481a5b9d195c995cdd0819985a5b195960521b604482015290519081900360640190fd5b611c88610df5565b90506000805460ff1916600117905590565b6001600160a01b0381166000908152600e6020526040812054819081908190818080611cc5896128ea565b935090506000816003811115611cd757fe5b14611cf55760095b975060009650869550859450611d289350505050565b611cfd612078565b925090506000816003811115611d0f57fe5b14611d1b576009611cdf565b5060009650919450925090505b9193509193565b6000610cbd82612f71565b6000610cbd82612ff0565b6001600160a01b039182166000908152600f6020908152604080832093909416825291909152205490565b6004546000906001600160a01b031633141580611d8b575033155b15611da357611d9c600160006126d0565b9050610e55565b60038054600480546001600160a01b03818116610100818102610100600160a81b0319871617968790556001600160a01b031990931690935560408051948390048216808652929095041660208401528351909391927ff9ffabca9c8276e99321725bcb43fb076a6c66a54b7f21c4e8146d8519b417dc92908290030190a1600454604080516001600160a01b038085168252909216602083015280517fca4f2f25d0898edd99413412fb94012f9e54ec8142f9b093e7720646a95b16a99281900390910190a160009250505090565b600080611e7e611673565b90508015611ea457611e9c816010811115611e9557fe5b60406126d0565b915050610cd4565b6111bd836129a2565b6006546001600160a01b031681565b600080611eca85858561306a565b5095945050505050565b60035461010090046001600160a01b031681565b6006546000906001600160a01b03166315f24053611f046125bc565b600b54600c546040518463ffffffff1660e01b815260040180848152602001838152602001828152602001935050505060206040518083038186803b158015611ab057600080fd5b6000805460ff16611f91576040805162461bcd60e51b815260206004820152600a6024820152691c994b595b9d195c995960b21b604482015290519081900360640190fd5b6000805460ff19168155611fa3611673565b90508015611fc1576112ae816010811115611fba57fe5b60466126d0565b6112bf8361319c565b600181565b60008054819060ff16612016576040805162461bcd60e51b815260206004820152600a6024820152691c994b595b9d195c995960b21b604482015290519081900360640190fd5b6000805460ff19168155612028611673565b905080156120535761204681601081111561203f57fe5b60366126d0565b9250600091506120649050565b61205e333386613244565b92509250505b6000805460ff191660011790559092909150565b60008061209d604051806060016040528060268152602001615a126026913930613629565b600d54806120f4576120e66040518060400160405280601f81526020017f696e697469616c45786368616e6765526174654d616e74697373613a202564008152506007546136e4565b5050600754600091506121b7565b60006120fe6125bc565b9050600061210a61557b565b600061211b84600b54600c54613792565b93509050600081600381111561212d57fe5b14612142579550600094506121b79350505050565b61214c83866137d0565b92509050600081600381111561215e57fe5b14612173579550600094506121b79350505050565b6121966040518060600160405280602c8152602001615797602c913983516136e4565b6121a684600b54600c5488613880565b50516000955093506121b792505050565b9091565b60006121f16040518060400160405280601081526020016f3a3930b739b332b91031ba37b5b2b71d60811b8152508686866138dc565b6000612200565b915050611045565b836001600160a01b0316856001600160a01b03161415612226576121f86002604b6126d0565b60006001600160a01b038781169087161415612245575060001961226d565b506001600160a01b038086166000908152600f60209081526040808320938a16835292905220545b60008060008061227d8589612b98565b9094509250600084600381111561229057fe5b146122ae576122a16009604b6126d0565b9650505050505050611045565b6001600160a01b038a166000908152600e60205260409020546122d49086908a90613a51565b6001600160a01b038a166000908152600e60205260409020546122f79089612b98565b9094509150600084600381111561230a57fe5b1461231b576122a16009604c6126d0565b6001600160a01b0389166000908152600e602052604090205461233e9089612c89565b9094509050600084600381111561235157fe5b14612362576122a16009604d6126d0565b6001600160a01b03808b166000908152600e6020526040808220859055918b1681522081905560001985146123ba576001600160a01b03808b166000908152600f60209081526040808320938f168352929052208390555b886001600160a01b03168a6001600160a01b031660008051602061598e8339815191528a6040518082815260200191505060405180910390a36005546040805163352b4a3f60e11b81523060048201526001600160a01b038d811660248301528c81166044830152606482018c905291519190921691636a56947e91608480830192600092919082900301818387803b15801561245657600080fd5b505af115801561246a573d6000803e3d6000fd5b505050506124ac6040518060400160405280601781526020017f7472616e736665722063746f6b656e20737563636573730000000000000000008152506139ab565b5060009a9950505050505050505050565b60008054819060ff16612504576040805162461bcd60e51b815260206004820152600a6024820152691c994b595b9d195c995960b21b604482015290519081900360640190fd5b6000805460ff19168155612516611673565b905080156125415761253481601081111561252d57fe5b60356126d0565b9250600091506125529050565b61254c338686613244565b92509250505b6000805460ff1916600117905590939092509050565b600080600061257561557b565b61257f8686612bbb565b9092509050600082600381111561259257fe5b146125a357509150600090506125b5565b60006125ae82613aa5565b9350935050505b9250929050565b601354604080516370a0823160e01b815230600482015290516000926001600160a01b03169182916370a0823191602480820192602092909190829003018186803b15801561260a57600080fd5b505afa15801561261e573d6000803e3d6000fd5b505050506040513d602081101561263457600080fd5b505191505090565b6000805460ff16612681576040805162461bcd60e51b815260206004820152600a6024820152691c994b595b9d195c995960b21b604482015290519081900360640190fd5b6000805460ff19168155612693611673565b905080156126b1576112ae8160108111156126aa57fe5b604e6126d0565b6126ba83613ab4565b509150506000805460ff19166001179055919050565b60007f45b96fe442630264581b197e84bbada861235052c5a1aadfff9ea4e40a969aa08360108111156126ff57fe5b83605081111561270b57fe5b604080519283526020830191909152600082820152519081900360600190a18260108111156111bd57fe5b600354600090819061010090046001600160a01b0316331461275e57611e9c600160316126d0565b61276661299e565b6009541461277a57611e9c600a60336126d0565b826127836125bc565b101561279557611e9c600e60326126d0565b600c548311156127ab57611e9c600260346126d0565b50600c54828103908111156127f15760405162461bcd60e51b8152600401808060200182810382526024815260200180615ac96024913960400191505060405180910390fd5b600c8190556003546128119061010090046001600160a01b031684613b9c565b600354604080516101009092046001600160a01b0316825260208201859052818101839052517f3bad0c59cf2f06e7314077049f48a93578cd16f5ef92329f1dab1420a99c177e916060908290030190a160006111bd565b6000805460ff166128ae576040805162461bcd60e51b815260206004820152600a6024820152691c994b595b9d195c995960b21b604482015290519081900360640190fd5b6000805460ff191681556128c0611673565b905080156128de576112ae8160108111156128d757fe5b60276126d0565b6112bf33600085613c8d565b6001600160a01b03811660009081526010602052604081208054829182918291829161292157506000945084935061299992505050565b6129318160000154600a5461429b565b9094509250600084600381111561294457fe5b14612959575091935060009250612999915050565b6129678382600101546142da565b9094509150600084600381111561297a57fe5b1461298f575091935060009250612999915050565b5060009450925050505b915091565b4390565b600354600090819061010090046001600160a01b031633146129ca57611e9c600160426126d0565b6129d261299e565b600954146129e657611e9c600a60416126d0565b600660009054906101000a90046001600160a01b03169050826001600160a01b0316632191f92a6040518163ffffffff1660e01b815260040160206040518083038186803b158015612a3757600080fd5b505afa158015612a4b573d6000803e3d6000fd5b505050506040513d6020811015612a6157600080fd5b5051612ab4576040805162461bcd60e51b815260206004820152601c60248201527f6d61726b6572206d6574686f642072657475726e65642066616c736500000000604482015290519081900360640190fd5b600680546001600160a01b0319166001600160a01b03858116918217909255604080519284168352602083019190915280517fedffc32e068c7c95dfd4bdfd5c4d939a084d6b11c4199eac8436ed234d72f9269281900390910190a160006111bd565b60008054819060ff16612b5e576040805162461bcd60e51b815260206004820152600a6024820152691c994b595b9d195c995960b21b604482015290519081900360640190fd5b6000805460ff19168155612b70611673565b90508015612b8e57612046816010811115612b8757fe5b601e6126d0565b61205e3385614305565b600080838311612baf5750600090508183036125b5565b506003905060006125b5565b6000612bc561557b565b600080612bd686600001518661429b565b90925090506000826003811115612be957fe5b14612c08575060408051602081019091526000815290925090506125b5565b60408051602081019091529081526000969095509350505050565b60007f45b96fe442630264581b197e84bbada861235052c5a1aadfff9ea4e40a969aa0846010811115612c5257fe5b846050811115612c5e57fe5b604080519283526020830191909152818101859052519081900360600190a183601081111561104557fe5b600080838301848110612ca1576000925090506125b5565b5060029150600090506125b5565b6000806000612cbc61557b565b612cc68787612bbb565b90925090506000826003811115612cd957fe5b14612cea5750915060009050612d03565b612cfc612cf682613aa5565b86612c89565b9350935050505b935093915050565b6005546040805163d02f735160e01b81523060048201526001600160a01b038781166024830152868116604483015285811660648301526084820185905291516000938493169163d02f73519160a480830192602092919082900301818787803b158015612d7857600080fd5b505af1158015612d8c573d6000803e3d6000fd5b505050506040513d6020811015612da257600080fd5b505190508015612db9576121f86003601b83612c23565b846001600160a01b0316846001600160a01b03161415612ddf576121f86006601c6126d0565b6001600160a01b0384166000908152600e602052604081205481908190612e069087612b98565b90935091506000836003811115612e1957fe5b14612e3c57612e316009601a85600381111561185b57fe5b945050505050611045565b6001600160a01b0388166000908152600e6020526040902054612e5f9087612c89565b90935090506000836003811115612e7257fe5b14612e8a57612e316009601985600381111561185b57fe5b6001600160a01b038088166000818152600e60209081526040808320879055938c168083529184902085905583518a81529351919360008051602061598e833981519152929081900390910190a360055460408051636d35bf9160e01b81523060048201526001600160a01b038c811660248301528b811660448301528a81166064830152608482018a905291519190921691636d35bf919160a480830192600092919082900301818387803b158015612f4357600080fd5b505af1158015612f57573d6000803e3d6000fd5b5060009250612f64915050565b9998505050505050505050565b6000805460ff16612fb6576040805162461bcd60e51b815260206004820152600a6024820152691c994b595b9d195c995960b21b604482015290519081900360640190fd5b6000805460ff19168155612fc8611673565b90508015612fe6576112ae816010811115612fdf57fe5b60086126d0565b6112bf33846147c6565b6000805460ff16613035576040805162461bcd60e51b815260206004820152600a6024820152691c994b595b9d195c995960b21b604482015290519081900360640190fd5b6000805460ff19168155613047611673565b9050801561305e576112ae8160108111156128d757fe5b6112bf33846000613c8d565b60008054819060ff166130b1576040805162461bcd60e51b815260206004820152600a6024820152691c994b595b9d195c995960b21b604482015290519081900360640190fd5b6000805460ff191681556130c3611673565b905080156130ee576130e18160108111156130da57fe5b600f6126d0565b9250600091506131859050565b836001600160a01b031663a6afed956040518163ffffffff1660e01b8152600401602060405180830381600087803b15801561312957600080fd5b505af115801561313d573d6000803e3d6000fd5b505050506040513d602081101561315357600080fd5b505190508015613173576130e181601081111561316c57fe5b60106126d0565b61317f33878787614ad4565b92509250505b6000805460ff191660011790559094909350915050565b60035460009061010090046001600160a01b031633146131c257611095600160476126d0565b6131ca61299e565b600954146131de57611095600a60486126d0565b670de0b6b3a76400008211156131fa57611095600260496126d0565b6008805490839055604080518281526020810185905281517faaa68312e2ea9d50e16af5068410ab56e1a1fd06037b1a35664812c30f821460929181900390910190a160006111bd565b60055460408051631200453160e11b81523060048201526001600160a01b0386811660248301528581166044830152606482018590529151600093849384939116916324008a629160848082019260209290919082900301818787803b1580156132ad57600080fd5b505af11580156132c1573d6000803e3d6000fd5b505050506040513d60208110156132d757600080fd5b5051905080156132fb576132ee6003603883612c23565b925060009150612d039050565b61330361299e565b60095414613317576132ee600a60396126d0565b61331f61560c565b6001600160a01b0386166000908152601060205260409020600101546060820152613349866128ea565b608083018190526020830182600381111561336057fe5b600381111561336b57fe5b905250600090508160200151600381111561338257fe5b146133ac5761339e600960378360200151600381111561185b57fe5b935060009250612d03915050565b6000198514156133c557608081015160408201526133cd565b604081018590525b6133db878260400151615057565b60e0820181905260808201516133f091612b98565b60a083018190526020830182600381111561340757fe5b600381111561341257fe5b905250600090508160200151600381111561342957fe5b146134655760405162461bcd60e51b815260040180806020018281038252603a81526020018061588d603a913960400191505060405180910390fd5b613475600b548260e00151612b98565b60c083018190526020830182600381111561348c57fe5b600381111561349757fe5b90525060009050816020015160038111156134ae57fe5b146134ea5760405162461bcd60e51b81526004018080602001828103825260318152602001806159ae6031913960400191505060405180910390fd5b60a080820180516001600160a01b03808a16600081815260106020908152604091829020948555600a5460019095019490945560c0870151600b81905560e088015195518251948f16855294840192909252828101949094526060820192909252608081019190915290517f1a2a22cb034d26d1854bdc6666a5b91fe25efbbb5dcad3b0355478d6f5c362a1929181900390910190a160055460e0820151606083015160408051631ededc9160e01b81523060048201526001600160a01b038c811660248301528b8116604483015260648201949094526084810192909252519190921691631ededc919160a480830192600092919082900301818387803b1580156135f557600080fd5b505af1158015613609573d6000803e3d6000fd5b5060009250613616915050565b8160e00151935093505050935093915050565b604080516001600160a01b0383166044820152602481019182528351606482015283516136e09285928592829160840190602086019080838360005b8381101561367d578181015183820152602001613665565b50505050905090810190601f1680156136aa5780820380516001836020036101000a031916815260200191505b5060408051601f198184030181529190526020810180516001600160e01b031663319af33360e01b179052935061537092505050565b5050565b6136e082826040516024018080602001838152602001828103825284818151815260200191508051906020019080838360005b8381101561372f578181015183820152602001613717565b50505050905090810190601f16801561375c5780820380516001836020036101000a031916815260200191505b5060408051601f198184030181529190526020810180516001600160e01b03166309710a9d60e41b179052935061537092505050565b6000806000806137a28787612c89565b909250905060008260038111156137b557fe5b146137c65750915060009050612d03565b612cfc8186612b98565b60006137da61557b565b6000806137ef86670de0b6b3a764000061429b565b9092509050600082600381111561380257fe5b14613821575060408051602081019091526000815290925090506125b5565b60008061382e83886142da565b9092509050600082600381111561384157fe5b14613863575060408051602081019091526000815290945092506125b5915050565b604080516020810190915290815260009890975095505050505050565b6040805160248101869052604481018590526064810184905260848082018490528251808303909101815260a49091019091526020810180516001600160e01b0316632e50569f60e11b1790526138d690615370565b50505050565b6040516001600160a01b038085166044830152808416606483015282166084820152608060248201908152855160a483015285516138d692879287928792879291829160c40190602088019080838360005b8381101561394657818101518382015260200161392e565b50505050905090810190601f1680156139735780820380516001836020036101000a031916815260200191505b5060408051601f198184030181529190526020810180516001600160e01b03166376c7947b60e11b1790529550615370945050505050565b611218816040516024018080602001828103825283818151815260200191508051906020019080838360005b838110156139ef5781810151838201526020016139d7565b50505050905090810190601f168015613a1c5780820380516001836020036101000a031916815260200191505b5060408051601f198184030181529190526020810180516001600160e01b031663104c13eb60e21b1790529250615370915050565b60408051602481018590526044810184905260648082018490528251808303909101815260849091019091526020810180516001600160e01b03166339e0829d60e21b179052613aa090615370565b505050565b51670de0b6b3a7640000900490565b600080600080613ac261299e565b60095414613ae157613ad6600a604f6126d0565b935091506129999050565b613aeb3386615057565b905080600c54019150600c54821015613b4b576040805162461bcd60e51b815260206004820181905260248201527f61646420726573657276657320756e6578706563746564206f766572666c6f77604482015290519081900360640190fd5b600c829055604080513381526020810183905280820184905290517fa91e67c5ea634cd43a12c5a482724b03de01e85ca68702a53d0c2f45cb7c1dc59181900360600190a160009350915050915091565b6013546040805163a9059cbb60e01b81526001600160a01b0385811660048301526024820185905291519190921691829163a9059cbb9160448082019260009290919082900301818387803b158015613bf457600080fd5b505af1158015613c08573d6000803e3d6000fd5b5050505060003d60008114613c245760208114613c2e57600080fd5b6000199150613c3a565b60206000803e60005191505b50806138d6576040805162461bcd60e51b815260206004820152601960248201527f544f4b454e5f5452414e534645525f4f55545f4641494c454400000000000000604482015290519081900360640190fd5b6000821580613c9a575081155b613cd55760405162461bcd60e51b8152600401808060200182810382526034815260200180615a956034913960400191505060405180910390fd5b613cdd615652565b613ce5612078565b6040830181905260208301826003811115613cfc57fe5b6003811115613d0757fe5b9052506000905081602001516003811115613d1e57fe5b14613d6357613d446040518060600160405280602e81526020016158c7602e91396139ab565b613d5b6009602b8360200151600381111561185b57fe5b9150506111bd565b8315613e05576060810184905260408051602081018252908201518152613d8a9085612568565b6080830181905260208301826003811115613da157fe5b6003811115613dac57fe5b9052506000905081602001516003811115613dc357fe5b14613e0057613de9604051806060016040528060258152602001615969602591396139ab565b613d5b600960298360200151600381111561185b57fe5b613e9f565b613e218360405180602001604052808460400151815250615391565b6060830181905260208301826003811115613e3857fe5b6003811115613e4357fe5b9052506000905081602001516003811115613e5a57fe5b14613e9757613e806040518060600160405280602a81526020016156d4602a91396139ab565b613d5b6009602a8360200151600381111561185b57fe5b608081018390525b60055460608201516040805163eabe7d9160e01b81523060048201526001600160a01b03898116602483015260448201939093529051600093929092169163eabe7d919160648082019260209290919082900301818787803b158015613f0457600080fd5b505af1158015613f18573d6000803e3d6000fd5b505050506040513d6020811015613f2e57600080fd5b505190508015613f8c57613f766040518060400160405280601f81526020017f72656465656d46726573683a2072656465656d206e6f7420616c6c6f776564008152506139ab565b613f836003602883612c23565b925050506111bd565b613f9461299e565b60095414613fe657613fda6040518060400160405280601d81526020017f72656465656d46726573683a204d41524b45545f4e4f545f46524553480000008152506139ab565b613f83600a602c6126d0565b613ff6600d548360600151612b98565b60a084018190526020840182600381111561400d57fe5b600381111561401857fe5b905250600090508260200151600381111561402f57fe5b146140745761405d6040518060600160405280603b815260200161581b603b9139600d5484606001516153a8565b613f836009602e8460200151600381111561185b57fe5b6001600160a01b0386166000908152600e6020526040902054606083015161409c9190612b98565b60c08401819052602084018260038111156140b357fe5b60038111156140be57fe5b90525060009050826020015160038111156140d557fe5b14614130576141196040518060800160405280604781526020016158f5604791396001600160a01b0388166000908152600e602052604090205460608501516153a8565b613f836009602d8460200151600381111561185b57fe5b816080015161413d6125bc565b101561414f57613f83600e602f6126d0565b61415d868360800151613b9c565b60a0820151600d5560c08201516001600160a01b0387166000818152600e602090815260409182902093909355606085015181519081529051309360008051602061598e833981519152928290030190a36080820151606080840151604080516001600160a01b038b168152602081019490945283810191909152517fe5b754fb1abb7f01b499791d0b820ae3b6af3424ac1c59768edb53f4ec31a9299281900390910190a160055460808301516060840151604080516351dff98960e01b81523060048201526001600160a01b038b81166024830152604482019490945260648101929092525191909216916351dff98991608480830192600092919082900301818387803b15801561427057600080fd5b505af1158015614284573d6000803e3d6000fd5b5060009250614291915050565b9695505050505050565b600080836142ae575060009050806125b5565b838302838582816142bb57fe5b04146142cf575060029150600090506125b5565b6000925090506125b5565b600080826142ee57506001905060006125b5565b60008385816142f957fe5b04915091509250929050565b60055460408051634ef4c3e160e01b81523060048201526001600160a01b03858116602483015260448201859052915160009384938493911691634ef4c3e19160648082019260209290919082900301818787803b15801561436657600080fd5b505af115801561437a573d6000803e3d6000fd5b505050506040513d602081101561439057600080fd5b5051905080156143e6576143cc604051806040016040528060118152602001701d1bdad95b881b9bdd08185b1b1bddd959607a1b8152506139ab565b6143d96003601f83612c23565b9250600091506125b59050565b6143ee61299e565b60095414614402576143d9600a60226126d0565b61440a615652565b614412612078565b604083018190526020830182600381111561442957fe5b600381111561443457fe5b905250600090508160200151600381111561444b57fe5b1461447557614467600960218360200151600381111561185b57fe5b9350600092506125b5915050565b61447f8686615057565b60c08201819052604080516020810182529083015181526144a09190615391565b60608301819052602083018260038111156144b757fe5b60038111156144c257fe5b81525050506144f76040518060600160405280602d815260200161593c602d91398260c001518360400151846060015161545e565b60008160200151600381111561450957fe5b1461455b576040805162461bcd60e51b815260206004820181905260248201527f4d494e545f45584348414e47455f43414c43554c4154494f4e5f4641494c4544604482015290519081900360640190fd5b61456b600d548260600151612c89565b608083018190526020830182600381111561458257fe5b600381111561458d57fe5b90525060009050816020015160038111156145a457fe5b146145e05760405162461bcd60e51b8152600401808060200182810382526028815260200180615a6d6028913960400191505060405180910390fd5b6001600160a01b0386166000908152600e602052604090205460608201516146089190612c89565b60a083018190526020830182600381111561461f57fe5b600381111561462a57fe5b905250600090508160200151600381111561464157fe5b1461467d5760405162461bcd60e51b815260040180806020018281038252602b8152602001806157f0602b913960400191505060405180910390fd5b6080810151600d5560a08101516001600160a01b0387166000818152600e60209081526040918290209390935560c084015160608086015183519485529484019190915282820193909352517f4c209b5fc8ad50758f13e2e1088ba56a560dff690a1c6fef26394f4c03821c4f929181900390910190a1606081015160408051918252516001600160a01b03881691309160008051602061598e8339815191529181900360200190a360055460c08201516060830151604080516341c728b960e01b81523060048201526001600160a01b038b81166024830152604482019490945260648101929092525191909216916341c728b991608480830192600092919082900301818387803b15801561479357600080fd5b505af11580156147a7573d6000803e3d6000fd5b50600092506147b4915050565b8160c001519350935050509250929050565b6005546040805163368f515360e21b81523060048201526001600160a01b0385811660248301526044820185905291516000938493169163da3d454c91606480830192602092919082900301818787803b15801561482357600080fd5b505af1158015614837573d6000803e3d6000fd5b505050506040513d602081101561484d57600080fd5b50519050801561486c576148646003600e83612c23565b915050610cbd565b61487461299e565b6009541461488757614864600a806126d0565b826148906125bc565b10156148a257614864600e60096126d0565b6148aa615690565b6148b3856128ea565b60208301819052828260038111156148c757fe5b60038111156148d257fe5b90525060009050815160038111156148e657fe5b1461490b57614902600960078360000151600381111561185b57fe5b92505050610cbd565b614919816020015185612c89565b604083018190528282600381111561492d57fe5b600381111561493857fe5b905250600090508151600381111561494c57fe5b14614968576149026009600c8360000151600381111561185b57fe5b614974600b5485612c89565b606083018190528282600381111561498857fe5b600381111561499357fe5b90525060009050815160038111156149a757fe5b146149c3576149026009600b8360000151600381111561185b57fe5b6149cd8585613b9c565b604080820180516001600160a01b03881660008181526010602090815290859020928355600a54600190930192909255606080860151600b81905593518551928352928201899052818501929092529081019190915290517f13ed6866d4e1ee6da46f845c46d7e54120883d75c5ea9a2dacc1c4ca8984ab809181900360800190a160055460408051635c77860560e01b81523060048201526001600160a01b0388811660248301526044820188905291519190921691635c77860591606480830192600092919082900301818387803b158015614aaa57600080fd5b505af1158015614abe573d6000803e3d6000fd5b5060009250614acb915050565b95945050505050565b60055460408051632fe3f38f60e11b81523060048201526001600160a01b0384811660248301528781166044830152868116606483015260848201869052915160009384938493911691635fc7e71e9160a48082019260209290919082900301818787803b158015614b4557600080fd5b505af1158015614b59573d6000803e3d6000fd5b505050506040513d6020811015614b6f57600080fd5b505190508015614b9357614b866003601283612c23565b92506000915061504e9050565b614b9b61299e565b60095414614baf57614b86600a60166126d0565b614bb761299e565b846001600160a01b0316636c540baf6040518163ffffffff1660e01b815260040160206040518083038186803b158015614bf057600080fd5b505afa158015614c04573d6000803e3d6000fd5b505050506040513d6020811015614c1a57600080fd5b505114614c2d57614b86600a60116126d0565b866001600160a01b0316866001600160a01b03161415614c5357614b86600660176126d0565b84614c6457614b86600760156126d0565b600019851415614c7a57614b86600760146126d0565b600080614c88898989613244565b90925090508115614cb857614ca9826010811115614ca257fe5b60186126d0565b94506000935061504e92505050565b6005546040805163c488847b60e01b81523060048201526001600160a01b038981166024830152604482018590528251600094859492169263c488847b926064808301939192829003018186803b158015614d1257600080fd5b505afa158015614d26573d6000803e3d6000fd5b505050506040513d6040811015614d3c57600080fd5b50805160209091015190925090508115614d875760405162461bcd60e51b81526004018080602001828103825260338152602001806159df6033913960400191505060405180910390fd5b80886001600160a01b03166370a082318c6040518263ffffffff1660e01b815260040180826001600160a01b03166001600160a01b0316815260200191505060206040518083038186803b158015614dde57600080fd5b505afa158015614df2573d6000803e3d6000fd5b505050506040513d6020811015614e0857600080fd5b50511015614e5d576040805162461bcd60e51b815260206004820152601860248201527f4c49515549444154455f5345495a455f544f4f5f4d5543480000000000000000604482015290519081900360640190fd5b60006001600160a01b038916301415614e8357614e7c308d8d85612d0b565b9050614f0d565b6040805163b2a02ff160e01b81526001600160a01b038e811660048301528d81166024830152604482018590529151918b169163b2a02ff1916064808201926020929091908290030181600087803b158015614ede57600080fd5b505af1158015614ef2573d6000803e3d6000fd5b505050506040513d6020811015614f0857600080fd5b505190505b8015614f57576040805162461bcd60e51b81526020600482015260146024820152731d1bdad95b881cd95a5e9d5c994819985a5b195960621b604482015290519081900360640190fd5b604080516001600160a01b03808f168252808e1660208301528183018790528b1660608201526080810184905290517f298637f684da70674f26509b10f07ec2fbc77a335ab1e7d6215a4b2484d8bb529181900360a00190a1600554604080516347ef3b3b60e01b81523060048201526001600160a01b038c811660248301528f811660448301528e811660648301526084820188905260a48201869052915191909216916347ef3b3b9160c480830192600092919082900301818387803b15801561502257600080fd5b505af1158015615036573d6000803e3d6000fd5b5060009250615043915050565b975092955050505050505b94509492505050565b601354604080516370a0823160e01b815230600482015290516000926001600160a01b031691839183916370a08231916024808301926020929190829003018186803b1580156150a657600080fd5b505afa1580156150ba573d6000803e3d6000fd5b505050506040513d60208110156150d057600080fd5b505160408051808201909152600e81526d3130b630b731b2a132b337b9329d60911b602082015290915061510490826136e4565b61512e6040518060400160405280600881526020016739b832b73232b91d60c11b81525030613629565b61515560405180604001604052806005815260200164333937b69d60d91b81525086613629565b604080518082018252600a81526930b63637bbb0b731b29d60b11b6020808301919091526001600160a01b0388166000908152600f825283812030825290915291909120546151a491906136e4565b604080516323b872dd60e01b81526001600160a01b038781166004830152306024830152604482018790529151918416916323b872dd9160648082019260009290919082900301818387803b1580156151fc57600080fd5b505af1158015615210573d6000803e3d6000fd5b5050505060003d6000811461522c576020811461523657600080fd5b6000199150615242565b60206000803e60005191505b5080615295576040805162461bcd60e51b815260206004820152601860248201527f544f4b454e5f5452414e534645525f494e5f4641494c45440000000000000000604482015290519081900360640190fd5b601354604080516370a0823160e01b815230600482015290516000926001600160a01b0316916370a08231916024808301926020929190829003018186803b1580156152e057600080fd5b505afa1580156152f4573d6000803e3d6000fd5b505050506040513d602081101561530a57600080fd5b5051905082811015615363576040805162461bcd60e51b815260206004820152601a60248201527f544f4b454e5f5452414e534645525f494e5f4f564552464c4f57000000000000604482015290519081900360640190fd5b9190910395945050505050565b80516a636f6e736f6c652e6c6f67602083016000808483855afa5050505050565b600080600061539e61557b565b61257f868661551c565b613aa08383836040516024018080602001848152602001838152602001828103825285818151815260200191508051906020019080838360005b838110156153fa5781810151838201526020016153e2565b50505050905090810190601f1680156154275780820380516001836020036101000a031916815260200191505b5060408051601f198184030181529190526020810180516001600160e01b031663969cdd0360e01b17905294506153709350505050565b6138d6848484846040516024018080602001858152602001848152602001838152602001828103825286818151815260200191508051906020019080838360005b838110156154b757818101518382015260200161549f565b50505050905090810190601f1680156154e45780820380516001836020036101000a031916815260200191505b5060408051601f198184030181529190526020810180516001600160e01b03166304772b3360e11b1790529550615370945050505050565b600061552661557b565b60008061553b670de0b6b3a76400008761429b565b9092509050600082600381111561554e57fe5b1461556d575060408051602081019091526000815290925090506125b5565b6125ae8186600001516137d0565b6040518060200160405280600081525090565b828054600181600116156101000203166002900490600052602060002090601f016020900481019282601f106155cf57805160ff19168380011785556155fc565b828001600101855582156155fc579182015b828111156155fc5782518255916020019190600101906155e1565b506156089291506156b9565b5090565b6040805161010081019091528060008152602001600081526020016000815260200160008152602001600081526020016000815260200160008152602001600081525090565b6040805160e0810190915280600081526020016000815260200160008152602001600081526020016000815260200160008152602001600081525090565b604080516080810190915280600081526020016000815260200160008152602001600081525090565b610e5591905b8082111561560857600081556001016156bf56fe72656465656d46726573683a206469765363616c617242794578705472756e63617465206661696c65646f6e6c792061646d696e206d617920696e697469616c697a6520746865206d61726b65746d61726b6574206d6179206f6e6c7920626520696e697469616c697a6564206f6e6365696e697469616c2065786368616e67652072617465206d7573742062652067726561746572207468616e207a65726f2e73657474696e6720696e7465726573742072617465206d6f64656c206661696c656465786368616e67655261746553746f726564496e7465726e616c3a2065786368616e6765526174653a2025646f6e6c79207468652061646d696e206d61792063616c6c205f72657369676e496d706c656d656e746174696f6e4d494e545f4e45575f4143434f554e545f42414c414e43455f43414c43554c4154494f4e5f4641494c454472656465656d46726573683a2073756255496e74206661696c65643a20746f74616c537570706c793d25642072656465656d546f6b656e733d2564626f72726f7742616c616e636553746f7265643a20626f72726f7742616c616e636553746f726564496e7465726e616c206661696c656452455041595f424f52524f575f4e45575f4143434f554e545f424f52524f575f42414c414e43455f43414c43554c4154494f4e5f4641494c454472656465656d46726573683a2065786368616e67655261746553746f726564496e7465726e616c206661696c656472656465656d46726573683a2073756255496e74206661696c65643a206163636f756e74546f6b656e735b72656465656d65725d3d25642072656465656d546f6b656e733d25646d696e74416f756e743a2025642065786368616e6765526174653a202564206d696e74546f6b656e733a20256472656465656d46726573683a206d756c5363616c61725472756e63617465206661696c6564ddf252ad1be2c89b69c2b068fc378daa952ba7f163c4a11628f55a4df523b3ef52455041595f424f52524f575f4e45575f544f54414c5f42414c414e43455f43414c43554c4154494f4e5f4641494c45444c49515549444154455f434f4d5054524f4c4c45525f43414c43554c4154455f414d4f554e545f5345495a455f4641494c454465786368616e67655261746553746f726564496e7465726e616c20616464726573733a20257365786368616e67655261746553746f7265643a2065786368616e67655261746553746f726564496e7465726e616c206661696c65644d494e545f4e45575f544f54414c5f535550504c595f43414c43554c4154494f4e5f4641494c45446f6e65206f662072656465656d546f6b656e73496e206f722072656465656d416d6f756e74496e206d757374206265207a65726f72656475636520726573657276657320756e657870656374656420756e646572666c6f776f6e6c79207468652061646d696e206d61792063616c6c205f6265636f6d65496d706c656d656e746174696f6ea265627a7a72315820a969f81dadd8fb0da319e6321ef51987e8b50d677bf4e18cdbbb1bbcfb82ff2464736f6c63430005100032",
  "devdoc": {
    "author": "Compound",
    "methods": {
      "_acceptAdmin()": {
        "details": "Admin function for pending admin to accept role and update admin",
        "return": "uint 0=success, otherwise a failure (see ErrorReporter.sol for details)"
      },
      "_addReserves(uint256)": {
        "params": {
          "addAmount": "The amount fo underlying token to add as reserves"
        },
        "return": "uint 0=success, otherwise a failure (see ErrorReporter.sol for details)"
      },
      "_becomeImplementation(bytes)": {
        "params": {
          "data": "The encoded bytes data for any initialization"
        }
      },
      "_reduceReserves(uint256)": {
        "params": {
          "reduceAmount": "Amount of reduction to reserves"
        },
        "return": "uint 0=success, otherwise a failure (see ErrorReporter.sol for details)"
      },
      "_setComptroller(address)": {
        "details": "Admin function to set a new comptroller",
        "return": "uint 0=success, otherwise a failure (see ErrorReporter.sol for details)"
      },
      "_setInterestRateModel(address)": {
        "details": "Admin function to accrue interest and update the interest rate model",
        "params": {
          "newInterestRateModel": "the new interest rate model to use"
        },
        "return": "uint 0=success, otherwise a failure (see ErrorReporter.sol for details)"
      },
      "_setPendingAdmin(address)": {
        "details": "Admin function to begin change of admin. The newPendingAdmin must call `_acceptAdmin` to finalize the transfer.",
        "params": {
          "newPendingAdmin": "New pending admin."
        },
        "return": "uint 0=success, otherwise a failure (see ErrorReporter.sol for details)"
      },
      "_setReserveFactor(uint256)": {
        "details": "Admin function to accrue interest and set a new reserve factor",
        "return": "uint 0=success, otherwise a failure (see ErrorReporter.sol for details)"
      },
      "accrueInterest()": {
        "details": "This calculates interest accrued from the last checkpointed block  up to the current block and writes new checkpoint to storage.   "
      },
      "allowance(address,address)": {
        "params": {
          "owner": "The address of the account which owns the tokens to be spent",
          "spender": "The address of the account which may transfer tokens"
        },
        "return": "The number of tokens allowed to be spent (-1 means infinite)"
      },
      "approve(address,uint256)": {
        "details": "This will overwrite the approval amount for `spender` and is subject to issues noted [here](https://eips.ethereum.org/EIPS/eip-20#approve)",
        "params": {
          "amount": "The number of tokens that are approved (-1 means infinite)",
          "spender": "The address of the account which may transfer tokens"
        },
        "return": "Whether or not the approval succeeded"
      },
      "balanceOf(address)": {
        "params": {
          "owner": "The address of the account to query"
        },
        "return": "The number of tokens owned by `owner`"
      },
      "balanceOfUnderlying(address)": {
        "details": "This also accrues interest in a transaction",
        "params": {
          "owner": "The address of the account to query"
        },
        "return": "The amount of underlying owned by `owner`"
      },
      "borrow(uint256)": {
        "params": {
          "borrowAmount": "The amount of the underlying asset to borrow"
        },
        "return": "uint 0=success, otherwise a failure (see ErrorReporter.sol for details)"
      },
      "borrowBalanceCurrent(address)": {
        "params": {
          "account": "The address whose balance should be calculated after updating borrowIndex"
        },
        "return": "The calculated balance"
      },
      "borrowBalanceStored(address)": {
        "params": {
          "account": "The address whose balance should be calculated"
        },
        "return": "The calculated balance"
      },
      "borrowLPMargin(address,uint256)": {
        "params": {
          "borrowAmount": ""
        }
      },
      "borrowRatePerBlock()": {
        "return": "The borrow interest rate per block, scaled by 1e18"
      },
      "borrowSwapMargin(address,uint256)": {
        "params": {
          "borrowAmount": ""
        }
      },
      "exchangeRateCurrent()": {
        "return": "Calculated exchange rate scaled by 1e18"
      },
      "exchangeRateStored()": {
        "details": "This function does not accrue interest before calculating the exchange rate",
        "return": "Calculated exchange rate scaled by 1e18"
      },
      "getAccountSnapshot(address)": {
        "details": "This is used by comptroller to more efficiently perform liquidity checks.",
        "params": {
          "account": "Address of the account to snapshot"
        },
        "return": "(possible error, token balance, borrow balance, exchange rate mantissa)"
      },
      "getCash()": {
        "return": "The quantity of underlying asset owned by this contract"
      },
      "initialize(address,address,address,uint256,string,string,uint8)": {
        "params": {
          "comptroller_": "The address of the Comptroller",
          "decimals_": "ERC-20 decimal precision of this token",
          "initialExchangeRateMantissa_": "The initial exchange rate, scaled by 1e18",
          "interestRateModel_": "The address of the interest rate model",
          "name_": "ERC-20 name of this token",
          "symbol_": "ERC-20 symbol of this token",
          "underlying_": "The address of the underlying asset"
        }
      },
      "initialize(address,address,uint256,string,string,uint8)": {
        "params": {
          "comptroller_": "The address of the Comptroller",
          "decimals_": "EIP-20 decimal precision of this token",
          "initialExchangeRateMantissa_": "The initial exchange rate, scaled by 1e18",
          "interestRateModel_": "The address of the interest rate model",
          "name_": "EIP-20 name of this token",
          "symbol_": "EIP-20 symbol of this token"
        }
      },
      "liquidateBorrow(address,uint256,address)": {
        "params": {
          "borrower": "The borrower of this cToken to be liquidated",
          "cTokenCollateral": "The market in which to seize collateral from the borrower",
          "repayAmount": "The amount of the underlying borrowed asset to repay"
        },
        "return": "uint 0=success, otherwise a failure (see ErrorReporter.sol for details)"
      },
      "mint(uint256)": {
        "details": "Accrues interest whether or not the operation succeeds, unless reverted",
        "params": {
          "mintAmount": "The amount of the underlying asset to supply"
        },
        "return": "uint 0=success, otherwise a failure (see ErrorReporter.sol for details)"
      },
      "redeem(uint256)": {
        "details": "Accrues interest whether or not the operation succeeds, unless reverted",
        "params": {
          "redeemTokens": "The number of cTokens to redeem into underlying"
        },
        "return": "uint 0=success, otherwise a failure (see ErrorReporter.sol for details)"
      },
      "redeemUnderlying(uint256)": {
        "details": "Accrues interest whether or not the operation succeeds, unless reverted",
        "params": {
          "redeemAmount": "The amount of underlying to redeem"
        },
        "return": "uint 0=success, otherwise a failure (see ErrorReporter.sol for details)"
      },
      "repayBorrow(uint256)": {
        "params": {
          "repayAmount": "The amount to repay"
        },
        "return": "uint 0=success, otherwise a failure (see ErrorReporter.sol for details)"
      },
      "repayBorrowBehalf(address,uint256)": {
        "params": {
          "borrower": "the account with the debt being payed off",
          "repayAmount": "The amount to repay"
        },
        "return": "uint 0=success, otherwise a failure (see ErrorReporter.sol for details)"
      },
      "seize(address,address,uint256)": {
        "details": "Will fail unless called by another cToken during the process of liquidation. Its absolutely critical to use msg.sender as the borrowed cToken and not a parameter.",
        "params": {
          "borrower": "The account having collateral seized",
          "liquidator": "The account receiving seized collateral",
          "seizeTokens": "The number of cTokens to seize"
        },
        "return": "uint 0=success, otherwise a failure (see ErrorReporter.sol for details)"
      },
      "supplyRatePerBlock()": {
        "return": "The supply interest rate per block, scaled by 1e18"
      },
      "totalBorrowsCurrent()": {
        "return": "The total borrows with interest"
      },
      "transfer(address,uint256)": {
        "params": {
          "amount": "The number of tokens to transfer",
          "dst": "The address of the destination account"
        },
        "return": "Whether or not the transfer succeeded"
      },
      "transferFrom(address,address,uint256)": {
        "params": {
          "amount": "The number of tokens to transfer",
          "dst": "The address of the destination account",
          "src": "The address of the source account"
        },
        "return": "Whether or not the transfer succeeded"
      }
    },
    "title": "Compound's CErc20Delegate Contract"
  },
  "userdoc": {
    "methods": {
      "_acceptAdmin()": {
        "notice": "Accepts transfer of admin rights. msg.sender must be pendingAdmin"
      },
      "_addReserves(uint256)": {
        "notice": "The sender adds to reserves."
      },
      "_becomeImplementation(bytes)": {
        "notice": "Called by the delegator on a delegate to initialize it for duty"
      },
      "_reduceReserves(uint256)": {
        "notice": "Accrues interest and reduces reserves by transferring to admin"
      },
      "_resignImplementation()": {
        "notice": "Called by the delegator on a delegate to forfeit its responsibility"
      },
      "_setComptroller(address)": {
        "notice": "Sets a new comptroller for the market"
      },
      "_setInterestRateModel(address)": {
        "notice": "accrues interest and updates the interest rate model using _setInterestRateModelFresh"
      },
      "_setPendingAdmin(address)": {
        "notice": "Begins transfer of admin rights. The newPendingAdmin must call `_acceptAdmin` to finalize the transfer."
      },
      "_setReserveFactor(uint256)": {
        "notice": "accrues interest and sets a new reserve factor for the protocol using _setReserveFactorFresh"
      },
      "accrueInterest()": {
        "notice": "Applies accrued interest to total borrows and reserves"
      },
      "allowance(address,address)": {
        "notice": "Get the current allowance from `owner` for `spender`"
      },
      "approve(address,uint256)": {
        "notice": "Approve `spender` to transfer up to `amount` from `src`"
      },
      "balanceOf(address)": {
        "notice": "Get the token balance of the `owner`"
      },
      "balanceOfUnderlying(address)": {
        "notice": "Get the underlying balance of the `owner`"
      },
      "borrow(uint256)": {
        "notice": "Sender borrows assets from the protocol to their own address"
      },
      "borrowBalanceCurrent(address)": {
        "notice": "Accrue interest to updated borrowIndex and then calculate account's borrow balance using the updated borrowIndex"
      },
      "borrowBalanceStored(address)": {
        "notice": "Return the borrow balance of account based on stored data"
      },
      "borrowLPMargin(address,uint256)": {
        "notice": ",  margin ,  margin           marignLP "
      },
      "borrowRatePerBlock()": {
        "notice": "Returns the current per-block borrow interest rate for this cToken"
      },
      "borrowSwapMargin(address,uint256)": {
        "notice": "swap ,  margin ,  margin           marignSWAP "
      },
      "constructor": "Construct an empty delegate",
      "exchangeRateCurrent()": {
        "notice": "Accrue interest then return the up-to-date exchange rate"
      },
      "exchangeRateStored()": {
        "notice": "Calculates the exchange rate from the underlying to the CToken"
      },
      "getAccountSnapshot(address)": {
        "notice": "Get a snapshot of the account's balances, and the cached exchange rate"
      },
      "getCash()": {
        "notice": "Get cash balance of this cToken in the underlying asset"
      },
      "initialize(address,address,address,uint256,string,string,uint8)": {
        "notice": "Initialize the new money market"
      },
      "initialize(address,address,uint256,string,string,uint8)": {
        "notice": "Initialize the money market"
      },
      "liquidateBorrow(address,uint256,address)": {
        "notice": "The sender liquidates the borrowers collateral. The collateral seized is transferred to the liquidator."
      },
      "mint(uint256)": {
        "notice": "Sender supplies assets into the market and receives cTokens in exchange"
      },
      "redeem(uint256)": {
        "notice": "Sender redeems cTokens in exchange for the underlying asset"
      },
      "redeemUnderlying(uint256)": {
        "notice": "Sender redeems cTokens in exchange for a specified amount of underlying asset"
      },
      "repayBorrow(uint256)": {
        "notice": "Sender repays their own borrow"
      },
      "repayBorrowBehalf(address,uint256)": {
        "notice": "Sender repays a borrow belonging to borrower"
      },
      "seize(address,address,uint256)": {
        "notice": "Transfers collateral tokens (this market) to the liquidator."
      },
      "supplyRatePerBlock()": {
        "notice": "Returns the current per-block supply interest rate for this cToken"
      },
      "totalBorrowsCurrent()": {
        "notice": "Returns the current total borrows plus accrued interest"
      },
      "transfer(address,uint256)": {
        "notice": "Transfer `amount` tokens from `msg.sender` to `dst`"
      },
      "transferFrom(address,address,uint256)": {
        "notice": "Transfer `amount` tokens from `src` to `dst`"
      }
    },
    "notice": "CTokens which wrap an EIP-20 underlying and are delegated to"
  },
  "storageLayout": {
    "storage": [
      {
        "astId": 985,
        "contract": "contracts/compound/LErc20Delegate.sol:LErc20Delegate",
        "label": "_notEntered",
        "offset": 0,
        "slot": "0",
        "type": "t_bool"
      },
      {
        "astId": 987,
        "contract": "contracts/compound/LErc20Delegate.sol:LErc20Delegate",
        "label": "name",
        "offset": 0,
        "slot": "1",
        "type": "t_string_storage"
      },
      {
        "astId": 989,
        "contract": "contracts/compound/LErc20Delegate.sol:LErc20Delegate",
        "label": "symbol",
        "offset": 0,
        "slot": "2",
        "type": "t_string_storage"
      },
      {
        "astId": 991,
        "contract": "contracts/compound/LErc20Delegate.sol:LErc20Delegate",
        "label": "decimals",
        "offset": 0,
        "slot": "3",
        "type": "t_uint8"
      },
      {
        "astId": 999,
        "contract": "contracts/compound/LErc20Delegate.sol:LErc20Delegate",
        "label": "admin",
        "offset": 1,
        "slot": "3",
        "type": "t_address_payable"
      },
      {
        "astId": 1001,
        "contract": "contracts/compound/LErc20Delegate.sol:LErc20Delegate",
        "label": "pendingAdmin",
        "offset": 0,
        "slot": "4",
        "type": "t_address_payable"
      },
      {
        "astId": 1003,
        "contract": "contracts/compound/LErc20Delegate.sol:LErc20Delegate",
        "label": "comptroller",
        "offset": 0,
        "slot": "5",
        "type": "t_contract(ComptrollerInterface)1690"
      },
      {
        "astId": 1005,
        "contract": "contracts/compound/LErc20Delegate.sol:LErc20Delegate",
        "label": "interestRateModel",
        "offset": 0,
        "slot": "6",
        "type": "t_contract(InterestRateModel)2481"
      },
      {
        "astId": 1007,
        "contract": "contracts/compound/LErc20Delegate.sol:LErc20Delegate",
        "label": "initialExchangeRateMantissa",
        "offset": 0,
        "slot": "7",
        "type": "t_uint256"
      },
      {
        "astId": 1009,
        "contract": "contracts/compound/LErc20Delegate.sol:LErc20Delegate",
        "label": "reserveFactorMantissa",
        "offset": 0,
        "slot": "8",
        "type": "t_uint256"
      },
      {
        "astId": 1011,
        "contract": "contracts/compound/LErc20Delegate.sol:LErc20Delegate",
        "label": "accrualBlockNumber",
        "offset": 0,
        "slot": "9",
        "type": "t_uint256"
      },
      {
        "astId": 1013,
        "contract": "contracts/compound/LErc20Delegate.sol:LErc20Delegate",
        "label": "borrowIndex",
        "offset": 0,
        "slot": "10",
        "type": "t_uint256"
      },
      {
        "astId": 1015,
        "contract": "contracts/compound/LErc20Delegate.sol:LErc20Delegate",
        "label": "totalBorrows",
        "offset": 0,
        "slot": "11",
        "type": "t_uint256"
      },
      {
        "astId": 1017,
        "contract": "contracts/compound/LErc20Delegate.sol:LErc20Delegate",
        "label": "totalReserves",
        "offset": 0,
        "slot": "12",
        "type": "t_uint256"
      },
      {
        "astId": 1019,
        "contract": "contracts/compound/LErc20Delegate.sol:LErc20Delegate",
        "label": "totalSupply",
        "offset": 0,
        "slot": "13",
        "type": "t_uint256"
      },
      {
        "astId": 1023,
        "contract": "contracts/compound/LErc20Delegate.sol:LErc20Delegate",
        "label": "accountTokens",
        "offset": 0,
        "slot": "14",
        "type": "t_mapping(t_address,t_uint256)"
      },
      {
        "astId": 1029,
        "contract": "contracts/compound/LErc20Delegate.sol:LErc20Delegate",
        "label": "transferAllowances",
        "offset": 0,
        "slot": "15",
        "type": "t_mapping(t_address,t_mapping(t_address,t_uint256))"
      },
      {
        "astId": 1038,
        "contract": "contracts/compound/LErc20Delegate.sol:LErc20Delegate",
        "label": "accountBorrows",
        "offset": 0,
        "slot": "16",
        "type": "t_mapping(t_address,t_struct(BorrowSnapshot)1034_storage)"
      },
      {
        "astId": 1042,
        "contract": "contracts/compound/LErc20Delegate.sol:LErc20Delegate",
        "label": "lpMarginBorrows",
        "offset": 0,
        "slot": "17",
        "type": "t_mapping(t_uint256,t_struct(BorrowSnapshot)1034_storage)"
      },
      {
        "astId": 1046,
        "contract": "contracts/compound/LErc20Delegate.sol:LErc20Delegate",
        "label": "swapMarginBorrows",
        "offset": 0,
        "slot": "18",
        "type": "t_mapping(t_uint256,t_struct(BorrowSnapshot)1034_storage)"
      },
      {
        "astId": 1342,
        "contract": "contracts/compound/LErc20Delegate.sol:LErc20Delegate",
        "label": "underlying",
        "offset": 0,
        "slot": "19",
        "type": "t_address"
      },
      {
        "astId": 1428,
        "contract": "contracts/compound/LErc20Delegate.sol:LErc20Delegate",
        "label": "implementation",
        "offset": 0,
        "slot": "20",
        "type": "t_address"
      }
    ],
    "types": {
      "t_address": {
        "encoding": "inplace",
        "label": "address",
        "numberOfBytes": "20"
      },
      "t_address_payable": {
        "encoding": "inplace",
        "label": "address payable",
        "numberOfBytes": "20"
      },
      "t_bool": {
        "encoding": "inplace",
        "label": "bool",
        "numberOfBytes": "1"
      },
      "t_contract(ComptrollerInterface)1690": {
        "encoding": "inplace",
        "label": "contract ComptrollerInterface",
        "numberOfBytes": "20"
      },
      "t_contract(InterestRateModel)2481": {
        "encoding": "inplace",
        "label": "contract InterestRateModel",
        "numberOfBytes": "20"
      },
      "t_mapping(t_address,t_mapping(t_address,t_uint256))": {
        "encoding": "mapping",
        "key": "t_address",
        "label": "mapping(address => mapping(address => uint256))",
        "numberOfBytes": "32",
        "value": "t_mapping(t_address,t_uint256)"
      },
      "t_mapping(t_address,t_struct(BorrowSnapshot)1034_storage)": {
        "encoding": "mapping",
        "key": "t_address",
        "label": "mapping(address => struct CTokenStorage.BorrowSnapshot)",
        "numberOfBytes": "32",
        "value": "t_struct(BorrowSnapshot)1034_storage"
      },
      "t_mapping(t_address,t_uint256)": {
        "encoding": "mapping",
        "key": "t_address",
        "label": "mapping(address => uint256)",
        "numberOfBytes": "32",
        "value": "t_uint256"
      },
      "t_mapping(t_uint256,t_struct(BorrowSnapshot)1034_storage)": {
        "encoding": "mapping",
        "key": "t_uint256",
        "label": "mapping(uint256 => struct CTokenStorage.BorrowSnapshot)",
        "numberOfBytes": "32",
        "value": "t_struct(BorrowSnapshot)1034_storage"
      },
      "t_string_storage": {
        "encoding": "bytes",
        "label": "string",
        "numberOfBytes": "32"
      },
      "t_struct(BorrowSnapshot)1034_storage": {
        "encoding": "inplace",
        "label": "struct CTokenStorage.BorrowSnapshot",
        "members": [
          {
            "astId": 1031,
            "contract": "contracts/compound/LErc20Delegate.sol:LErc20Delegate",
            "label": "principal",
            "offset": 0,
            "slot": "0",
            "type": "t_uint256"
          },
          {
            "astId": 1033,
            "contract": "contracts/compound/LErc20Delegate.sol:LErc20Delegate",
            "label": "interestIndex",
            "offset": 0,
            "slot": "1",
            "type": "t_uint256"
          }
        ],
        "numberOfBytes": "64"
      },
      "t_uint256": {
        "encoding": "inplace",
        "label": "uint256",
        "numberOfBytes": "32"
      },
      "t_uint8": {
        "encoding": "inplace",
        "label": "uint8",
        "numberOfBytes": "1"
      }
    }
  }
}