{
  "address": "0x0551A42d8FCD25cC67d5feD73607B0923467703E",
  "abi": [
    {
      "inputs": [
        {
          "internalType": "contract ComptrollerInterface",
          "name": "comptroller_",
          "type": "address"
        },
        {
          "internalType": "contract InterestRateModel",
          "name": "interestRateModel_",
          "type": "address"
        },
        {
          "internalType": "uint256",
          "name": "initialExchangeRateMantissa_",
          "type": "uint256"
        },
        {
          "internalType": "string",
          "name": "name_",
          "type": "string"
        },
        {
          "internalType": "string",
          "name": "symbol_",
          "type": "string"
        },
        {
          "internalType": "uint8",
          "name": "decimals_",
          "type": "uint8"
        },
        {
          "internalType": "address payable",
          "name": "admin_",
          "type": "address"
        }
      ],
      "payable": false,
      "stateMutability": "nonpayable",
      "type": "constructor"
    },
    {
      "anonymous": false,
      "inputs": [
        {
          "indexed": false,
          "internalType": "uint256",
          "name": "cashPrior",
          "type": "uint256"
        },
        {
          "indexed": false,
          "internalType": "uint256",
          "name": "interestAccumulated",
          "type": "uint256"
        },
        {
          "indexed": false,
          "internalType": "uint256",
          "name": "borrowIndex",
          "type": "uint256"
        },
        {
          "indexed": false,
          "internalType": "uint256",
          "name": "totalBorrows",
          "type": "uint256"
        }
      ],
      "name": "AccrueInterest",
      "type": "event"
    },
    {
      "anonymous": false,
      "inputs": [
        {
          "indexed": true,
          "internalType": "address",
          "name": "owner",
          "type": "address"
        },
        {
          "indexed": true,
          "internalType": "address",
          "name": "spender",
          "type": "address"
        },
        {
          "indexed": false,
          "internalType": "uint256",
          "name": "amount",
          "type": "uint256"
        }
      ],
      "name": "Approval",
      "type": "event"
    },
    {
      "anonymous": false,
      "inputs": [
        {
          "indexed": false,
          "internalType": "address",
          "name": "borrower",
          "type": "address"
        },
        {
          "indexed": false,
          "internalType": "uint256",
          "name": "borrowAmount",
          "type": "uint256"
        },
        {
          "indexed": false,
          "internalType": "uint256",
          "name": "accountBorrows",
          "type": "uint256"
        },
        {
          "indexed": false,
          "internalType": "uint256",
          "name": "totalBorrows",
          "type": "uint256"
        }
      ],
      "name": "Borrow",
      "type": "event"
    },
    {
      "anonymous": false,
      "inputs": [
        {
          "indexed": false,
          "internalType": "uint256",
          "name": "error",
          "type": "uint256"
        },
        {
          "indexed": false,
          "internalType": "uint256",
          "name": "info",
          "type": "uint256"
        },
        {
          "indexed": false,
          "internalType": "uint256",
          "name": "detail",
          "type": "uint256"
        }
      ],
      "name": "Failure",
      "type": "event"
    },
    {
      "anonymous": false,
      "inputs": [
        {
          "indexed": false,
          "internalType": "address",
          "name": "liquidator",
          "type": "address"
        },
        {
          "indexed": false,
          "internalType": "address",
          "name": "borrower",
          "type": "address"
        },
        {
          "indexed": false,
          "internalType": "uint256",
          "name": "repayAmount",
          "type": "uint256"
        },
        {
          "indexed": false,
          "internalType": "address",
          "name": "cTokenCollateral",
          "type": "address"
        },
        {
          "indexed": false,
          "internalType": "uint256",
          "name": "seizeTokens",
          "type": "uint256"
        }
      ],
      "name": "LiquidateBorrow",
      "type": "event"
    },
    {
      "anonymous": false,
      "inputs": [
        {
          "indexed": false,
          "internalType": "address",
          "name": "minter",
          "type": "address"
        },
        {
          "indexed": false,
          "internalType": "uint256",
          "name": "mintAmount",
          "type": "uint256"
        },
        {
          "indexed": false,
          "internalType": "uint256",
          "name": "mintTokens",
          "type": "uint256"
        }
      ],
      "name": "Mint",
      "type": "event"
    },
    {
      "anonymous": false,
      "inputs": [
        {
          "indexed": false,
          "internalType": "address",
          "name": "oldAdmin",
          "type": "address"
        },
        {
          "indexed": false,
          "internalType": "address",
          "name": "newAdmin",
          "type": "address"
        }
      ],
      "name": "NewAdmin",
      "type": "event"
    },
    {
      "anonymous": false,
      "inputs": [
        {
          "indexed": false,
          "internalType": "contract ComptrollerInterface",
          "name": "oldComptroller",
          "type": "address"
        },
        {
          "indexed": false,
          "internalType": "contract ComptrollerInterface",
          "name": "newComptroller",
          "type": "address"
        }
      ],
      "name": "NewComptroller",
      "type": "event"
    },
    {
      "anonymous": false,
      "inputs": [
        {
          "indexed": false,
          "internalType": "contract InterestRateModel",
          "name": "oldInterestRateModel",
          "type": "address"
        },
        {
          "indexed": false,
          "internalType": "contract InterestRateModel",
          "name": "newInterestRateModel",
          "type": "address"
        }
      ],
      "name": "NewMarketInterestRateModel",
      "type": "event"
    },
    {
      "anonymous": false,
      "inputs": [
        {
          "indexed": false,
          "internalType": "address",
          "name": "oldPendingAdmin",
          "type": "address"
        },
        {
          "indexed": false,
          "internalType": "address",
          "name": "newPendingAdmin",
          "type": "address"
        }
      ],
      "name": "NewPendingAdmin",
      "type": "event"
    },
    {
      "anonymous": false,
      "inputs": [
        {
          "indexed": false,
          "internalType": "uint256",
          "name": "oldReserveFactorMantissa",
          "type": "uint256"
        },
        {
          "indexed": false,
          "internalType": "uint256",
          "name": "newReserveFactorMantissa",
          "type": "uint256"
        }
      ],
      "name": "NewReserveFactor",
      "type": "event"
    },
    {
      "anonymous": false,
      "inputs": [
        {
          "indexed": false,
          "internalType": "address",
          "name": "redeemer",
          "type": "address"
        },
        {
          "indexed": false,
          "internalType": "uint256",
          "name": "redeemAmount",
          "type": "uint256"
        },
        {
          "indexed": false,
          "internalType": "uint256",
          "name": "redeemTokens",
          "type": "uint256"
        }
      ],
      "name": "Redeem",
      "type": "event"
    },
    {
      "anonymous": false,
      "inputs": [
        {
          "indexed": false,
          "internalType": "address",
          "name": "payer",
          "type": "address"
        },
        {
          "indexed": false,
          "internalType": "address",
          "name": "borrower",
          "type": "address"
        },
        {
          "indexed": false,
          "internalType": "uint256",
          "name": "repayAmount",
          "type": "uint256"
        },
        {
          "indexed": false,
          "internalType": "uint256",
          "name": "accountBorrows",
          "type": "uint256"
        },
        {
          "indexed": false,
          "internalType": "uint256",
          "name": "totalBorrows",
          "type": "uint256"
        }
      ],
      "name": "RepayBorrow",
      "type": "event"
    },
    {
      "anonymous": false,
      "inputs": [
        {
          "indexed": false,
          "internalType": "address",
          "name": "benefactor",
          "type": "address"
        },
        {
          "indexed": false,
          "internalType": "uint256",
          "name": "addAmount",
          "type": "uint256"
        },
        {
          "indexed": false,
          "internalType": "uint256",
          "name": "newTotalReserves",
          "type": "uint256"
        }
      ],
      "name": "ReservesAdded",
      "type": "event"
    },
    {
      "anonymous": false,
      "inputs": [
        {
          "indexed": false,
          "internalType": "address",
          "name": "admin",
          "type": "address"
        },
        {
          "indexed": false,
          "internalType": "uint256",
          "name": "reduceAmount",
          "type": "uint256"
        },
        {
          "indexed": false,
          "internalType": "uint256",
          "name": "newTotalReserves",
          "type": "uint256"
        }
      ],
      "name": "ReservesReduced",
      "type": "event"
    },
    {
      "anonymous": false,
      "inputs": [
        {
          "indexed": true,
          "internalType": "address",
          "name": "from",
          "type": "address"
        },
        {
          "indexed": true,
          "internalType": "address",
          "name": "to",
          "type": "address"
        },
        {
          "indexed": false,
          "internalType": "uint256",
          "name": "amount",
          "type": "uint256"
        }
      ],
      "name": "Transfer",
      "type": "event"
    },
    {
      "payable": true,
      "stateMutability": "payable",
      "type": "fallback"
    },
    {
      "constant": false,
      "inputs": [],
      "name": "_acceptAdmin",
      "outputs": [
        {
          "internalType": "uint256",
          "name": "",
          "type": "uint256"
        }
      ],
      "payable": false,
      "stateMutability": "nonpayable",
      "type": "function"
    },
    {
      "constant": false,
      "inputs": [
        {
          "internalType": "uint256",
          "name": "reduceAmount",
          "type": "uint256"
        }
      ],
      "name": "_reduceReserves",
      "outputs": [
        {
          "internalType": "uint256",
          "name": "",
          "type": "uint256"
        }
      ],
      "payable": false,
      "stateMutability": "nonpayable",
      "type": "function"
    },
    {
      "constant": false,
      "inputs": [
        {
          "internalType": "contract ComptrollerInterface",
          "name": "newComptroller",
          "type": "address"
        }
      ],
      "name": "_setComptroller",
      "outputs": [
        {
          "internalType": "uint256",
          "name": "",
          "type": "uint256"
        }
      ],
      "payable": false,
      "stateMutability": "nonpayable",
      "type": "function"
    },
    {
      "constant": false,
      "inputs": [
        {
          "internalType": "contract InterestRateModel",
          "name": "newInterestRateModel",
          "type": "address"
        }
      ],
      "name": "_setInterestRateModel",
      "outputs": [
        {
          "internalType": "uint256",
          "name": "",
          "type": "uint256"
        }
      ],
      "payable": false,
      "stateMutability": "nonpayable",
      "type": "function"
    },
    {
      "constant": false,
      "inputs": [
        {
          "internalType": "address payable",
          "name": "newPendingAdmin",
          "type": "address"
        }
      ],
      "name": "_setPendingAdmin",
      "outputs": [
        {
          "internalType": "uint256",
          "name": "",
          "type": "uint256"
        }
      ],
      "payable": false,
      "stateMutability": "nonpayable",
      "type": "function"
    },
    {
      "constant": false,
      "inputs": [
        {
          "internalType": "uint256",
          "name": "newReserveFactorMantissa",
          "type": "uint256"
        }
      ],
      "name": "_setReserveFactor",
      "outputs": [
        {
          "internalType": "uint256",
          "name": "",
          "type": "uint256"
        }
      ],
      "payable": false,
      "stateMutability": "nonpayable",
      "type": "function"
    },
    {
      "constant": true,
      "inputs": [],
      "name": "accrualBlockNumber",
      "outputs": [
        {
          "internalType": "uint256",
          "name": "",
          "type": "uint256"
        }
      ],
      "payable": false,
      "stateMutability": "view",
      "type": "function"
    },
    {
      "constant": false,
      "inputs": [],
      "name": "accrueInterest",
      "outputs": [
        {
          "internalType": "uint256",
          "name": "",
          "type": "uint256"
        }
      ],
      "payable": false,
      "stateMutability": "nonpayable",
      "type": "function"
    },
    {
      "constant": true,
      "inputs": [],
      "name": "admin",
      "outputs": [
        {
          "internalType": "address payable",
          "name": "",
          "type": "address"
        }
      ],
      "payable": false,
      "stateMutability": "view",
      "type": "function"
    },
    {
      "constant": true,
      "inputs": [
        {
          "internalType": "address",
          "name": "owner",
          "type": "address"
        },
        {
          "internalType": "address",
          "name": "spender",
          "type": "address"
        }
      ],
      "name": "allowance",
      "outputs": [
        {
          "internalType": "uint256",
          "name": "",
          "type": "uint256"
        }
      ],
      "payable": false,
      "stateMutability": "view",
      "type": "function"
    },
    {
      "constant": false,
      "inputs": [
        {
          "internalType": "address",
          "name": "spender",
          "type": "address"
        },
        {
          "internalType": "uint256",
          "name": "amount",
          "type": "uint256"
        }
      ],
      "name": "approve",
      "outputs": [
        {
          "internalType": "bool",
          "name": "",
          "type": "bool"
        }
      ],
      "payable": false,
      "stateMutability": "nonpayable",
      "type": "function"
    },
    {
      "constant": true,
      "inputs": [
        {
          "internalType": "address",
          "name": "owner",
          "type": "address"
        }
      ],
      "name": "balanceOf",
      "outputs": [
        {
          "internalType": "uint256",
          "name": "",
          "type": "uint256"
        }
      ],
      "payable": false,
      "stateMutability": "view",
      "type": "function"
    },
    {
      "constant": false,
      "inputs": [
        {
          "internalType": "address",
          "name": "owner",
          "type": "address"
        }
      ],
      "name": "balanceOfUnderlying",
      "outputs": [
        {
          "internalType": "uint256",
          "name": "",
          "type": "uint256"
        }
      ],
      "payable": false,
      "stateMutability": "nonpayable",
      "type": "function"
    },
    {
      "constant": false,
      "inputs": [
        {
          "internalType": "uint256",
          "name": "borrowAmount",
          "type": "uint256"
        }
      ],
      "name": "borrow",
      "outputs": [
        {
          "internalType": "uint256",
          "name": "",
          "type": "uint256"
        }
      ],
      "payable": false,
      "stateMutability": "nonpayable",
      "type": "function"
    },
    {
      "constant": false,
      "inputs": [
        {
          "internalType": "address",
          "name": "account",
          "type": "address"
        }
      ],
      "name": "borrowBalanceCurrent",
      "outputs": [
        {
          "internalType": "uint256",
          "name": "",
          "type": "uint256"
        }
      ],
      "payable": false,
      "stateMutability": "nonpayable",
      "type": "function"
    },
    {
      "constant": true,
      "inputs": [
        {
          "internalType": "address",
          "name": "account",
          "type": "address"
        }
      ],
      "name": "borrowBalanceStored",
      "outputs": [
        {
          "internalType": "uint256",
          "name": "",
          "type": "uint256"
        }
      ],
      "payable": false,
      "stateMutability": "view",
      "type": "function"
    },
    {
      "constant": true,
      "inputs": [],
      "name": "borrowIndex",
      "outputs": [
        {
          "internalType": "uint256",
          "name": "",
          "type": "uint256"
        }
      ],
      "payable": false,
      "stateMutability": "view",
      "type": "function"
    },
    {
      "constant": true,
      "inputs": [],
      "name": "borrowRatePerBlock",
      "outputs": [
        {
          "internalType": "uint256",
          "name": "",
          "type": "uint256"
        }
      ],
      "payable": false,
      "stateMutability": "view",
      "type": "function"
    },
    {
      "constant": true,
      "inputs": [],
      "name": "comptroller",
      "outputs": [
        {
          "internalType": "contract ComptrollerInterface",
          "name": "",
          "type": "address"
        }
      ],
      "payable": false,
      "stateMutability": "view",
      "type": "function"
    },
    {
      "constant": true,
      "inputs": [],
      "name": "decimals",
      "outputs": [
        {
          "internalType": "uint8",
          "name": "",
          "type": "uint8"
        }
      ],
      "payable": false,
      "stateMutability": "view",
      "type": "function"
    },
    {
      "constant": false,
      "inputs": [],
      "name": "exchangeRateCurrent",
      "outputs": [
        {
          "internalType": "uint256",
          "name": "",
          "type": "uint256"
        }
      ],
      "payable": false,
      "stateMutability": "nonpayable",
      "type": "function"
    },
    {
      "constant": true,
      "inputs": [],
      "name": "exchangeRateStored",
      "outputs": [
        {
          "internalType": "uint256",
          "name": "",
          "type": "uint256"
        }
      ],
      "payable": false,
      "stateMutability": "view",
      "type": "function"
    },
    {
      "constant": true,
      "inputs": [
        {
          "internalType": "address",
          "name": "account",
          "type": "address"
        }
      ],
      "name": "getAccountSnapshot",
      "outputs": [
        {
          "internalType": "uint256",
          "name": "",
          "type": "uint256"
        },
        {
          "internalType": "uint256",
          "name": "",
          "type": "uint256"
        },
        {
          "internalType": "uint256",
          "name": "",
          "type": "uint256"
        },
        {
          "internalType": "uint256",
          "name": "",
          "type": "uint256"
        }
      ],
      "payable": false,
      "stateMutability": "view",
      "type": "function"
    },
    {
      "constant": true,
      "inputs": [],
      "name": "getCash",
      "outputs": [
        {
          "internalType": "uint256",
          "name": "",
          "type": "uint256"
        }
      ],
      "payable": false,
      "stateMutability": "view",
      "type": "function"
    },
    {
      "constant": false,
      "inputs": [
        {
          "internalType": "contract ComptrollerInterface",
          "name": "comptroller_",
          "type": "address"
        },
        {
          "internalType": "contract InterestRateModel",
          "name": "interestRateModel_",
          "type": "address"
        },
        {
          "internalType": "uint256",
          "name": "initialExchangeRateMantissa_",
          "type": "uint256"
        },
        {
          "internalType": "string",
          "name": "name_",
          "type": "string"
        },
        {
          "internalType": "string",
          "name": "symbol_",
          "type": "string"
        },
        {
          "internalType": "uint8",
          "name": "decimals_",
          "type": "uint8"
        }
      ],
      "name": "initialize",
      "outputs": [],
      "payable": false,
      "stateMutability": "nonpayable",
      "type": "function"
    },
    {
      "constant": true,
      "inputs": [],
      "name": "interestRateModel",
      "outputs": [
        {
          "internalType": "contract InterestRateModel",
          "name": "",
          "type": "address"
        }
      ],
      "payable": false,
      "stateMutability": "view",
      "type": "function"
    },
    {
      "constant": true,
      "inputs": [],
      "name": "isCToken",
      "outputs": [
        {
          "internalType": "bool",
          "name": "",
          "type": "bool"
        }
      ],
      "payable": false,
      "stateMutability": "view",
      "type": "function"
    },
    {
      "constant": false,
      "inputs": [
        {
          "internalType": "address",
          "name": "borrower",
          "type": "address"
        },
        {
          "internalType": "contract CToken",
          "name": "cTokenCollateral",
          "type": "address"
        }
      ],
      "name": "liquidateBorrow",
      "outputs": [],
      "payable": true,
      "stateMutability": "payable",
      "type": "function"
    },
    {
      "constant": false,
      "inputs": [],
      "name": "mint",
      "outputs": [],
      "payable": true,
      "stateMutability": "payable",
      "type": "function"
    },
    {
      "constant": true,
      "inputs": [],
      "name": "name",
      "outputs": [
        {
          "internalType": "string",
          "name": "",
          "type": "string"
        }
      ],
      "payable": false,
      "stateMutability": "view",
      "type": "function"
    },
    {
      "constant": true,
      "inputs": [],
      "name": "pendingAdmin",
      "outputs": [
        {
          "internalType": "address payable",
          "name": "",
          "type": "address"
        }
      ],
      "payable": false,
      "stateMutability": "view",
      "type": "function"
    },
    {
      "constant": false,
      "inputs": [
        {
          "internalType": "uint256",
          "name": "redeemTokens",
          "type": "uint256"
        }
      ],
      "name": "redeem",
      "outputs": [
        {
          "internalType": "uint256",
          "name": "",
          "type": "uint256"
        }
      ],
      "payable": false,
      "stateMutability": "nonpayable",
      "type": "function"
    },
    {
      "constant": false,
      "inputs": [
        {
          "internalType": "uint256",
          "name": "redeemAmount",
          "type": "uint256"
        }
      ],
      "name": "redeemUnderlying",
      "outputs": [
        {
          "internalType": "uint256",
          "name": "",
          "type": "uint256"
        }
      ],
      "payable": false,
      "stateMutability": "nonpayable",
      "type": "function"
    },
    {
      "constant": false,
      "inputs": [],
      "name": "repayBorrow",
      "outputs": [],
      "payable": true,
      "stateMutability": "payable",
      "type": "function"
    },
    {
      "constant": false,
      "inputs": [
        {
          "internalType": "address",
          "name": "borrower",
          "type": "address"
        }
      ],
      "name": "repayBorrowBehalf",
      "outputs": [],
      "payable": true,
      "stateMutability": "payable",
      "type": "function"
    },
    {
      "constant": true,
      "inputs": [],
      "name": "reserveFactorMantissa",
      "outputs": [
        {
          "internalType": "uint256",
          "name": "",
          "type": "uint256"
        }
      ],
      "payable": false,
      "stateMutability": "view",
      "type": "function"
    },
    {
      "constant": false,
      "inputs": [
        {
          "internalType": "address",
          "name": "liquidator",
          "type": "address"
        },
        {
          "internalType": "address",
          "name": "borrower",
          "type": "address"
        },
        {
          "internalType": "uint256",
          "name": "seizeTokens",
          "type": "uint256"
        }
      ],
      "name": "seize",
      "outputs": [
        {
          "internalType": "uint256",
          "name": "",
          "type": "uint256"
        }
      ],
      "payable": false,
      "stateMutability": "nonpayable",
      "type": "function"
    },
    {
      "constant": true,
      "inputs": [],
      "name": "supplyRatePerBlock",
      "outputs": [
        {
          "internalType": "uint256",
          "name": "",
          "type": "uint256"
        }
      ],
      "payable": false,
      "stateMutability": "view",
      "type": "function"
    },
    {
      "constant": true,
      "inputs": [],
      "name": "symbol",
      "outputs": [
        {
          "internalType": "string",
          "name": "",
          "type": "string"
        }
      ],
      "payable": false,
      "stateMutability": "view",
      "type": "function"
    },
    {
      "constant": true,
      "inputs": [],
      "name": "totalBorrows",
      "outputs": [
        {
          "internalType": "uint256",
          "name": "",
          "type": "uint256"
        }
      ],
      "payable": false,
      "stateMutability": "view",
      "type": "function"
    },
    {
      "constant": false,
      "inputs": [],
      "name": "totalBorrowsCurrent",
      "outputs": [
        {
          "internalType": "uint256",
          "name": "",
          "type": "uint256"
        }
      ],
      "payable": false,
      "stateMutability": "nonpayable",
      "type": "function"
    },
    {
      "constant": true,
      "inputs": [],
      "name": "totalReserves",
      "outputs": [
        {
          "internalType": "uint256",
          "name": "",
          "type": "uint256"
        }
      ],
      "payable": false,
      "stateMutability": "view",
      "type": "function"
    },
    {
      "constant": true,
      "inputs": [],
      "name": "totalSupply",
      "outputs": [
        {
          "internalType": "uint256",
          "name": "",
          "type": "uint256"
        }
      ],
      "payable": false,
      "stateMutability": "view",
      "type": "function"
    },
    {
      "constant": false,
      "inputs": [
        {
          "internalType": "address",
          "name": "dst",
          "type": "address"
        },
        {
          "internalType": "uint256",
          "name": "amount",
          "type": "uint256"
        }
      ],
      "name": "transfer",
      "outputs": [
        {
          "internalType": "bool",
          "name": "",
          "type": "bool"
        }
      ],
      "payable": false,
      "stateMutability": "nonpayable",
      "type": "function"
    },
    {
      "constant": false,
      "inputs": [
        {
          "internalType": "address",
          "name": "src",
          "type": "address"
        },
        {
          "internalType": "address",
          "name": "dst",
          "type": "address"
        },
        {
          "internalType": "uint256",
          "name": "amount",
          "type": "uint256"
        }
      ],
      "name": "transferFrom",
      "outputs": [
        {
          "internalType": "bool",
          "name": "",
          "type": "bool"
        }
      ],
      "payable": false,
      "stateMutability": "nonpayable",
      "type": "function"
    }
  ],
  "transactionHash": "0xaf2e377e28f7816a43a9e8c1528c09af887a3462fcc51868fe9602496223b6cb",
  "args": [
    "0x1D52AB58B603c4549a7648ff81E9F7D8c80cD728",
    "0x713e4f086A0D024460Bb2A0De4594A3d0b0FfaDF",
    "15000000000000000000",
    "WHT",
    "WHT",
    18,
    "0x49d531908840FDDaC744543d57CB21B91c3D9094"
  ],
  "solcInputHash": "d82c26361e43ad8ef6fb54ba2a0bf4d3",
  "bytecode": "0x60806040523480156200001157600080fd5b5060405162005f4738038062005f47833981810160405260e08110156200003757600080fd5b8151602083015160408085015160608601805192519496939591949391820192846401000000008211156200006b57600080fd5b9083019060208201858111156200008157600080fd5b82516401000000008111828201881017156200009c57600080fd5b82525081516020918201929091019080838360005b83811015620000cb578181015183820152602001620000b1565b50505050905090810190601f168015620000f95780820380516001836020036101000a031916815260200191505b50604052602001805160405193929190846401000000008211156200011d57600080fd5b9083019060208201858111156200013357600080fd5b82516401000000008111828201881017156200014e57600080fd5b82525081516020918201929091019080838360005b838110156200017d57818101518382015260200162000163565b50505050905090810190601f168015620001ab5780820380516001836020036101000a031916815260200191505b506040908152602082015191015160038054610100600160a81b03191633610100021790559092509050620001e587878787878762000218565b600380546001600160a01b0390921661010002610100600160a81b03199092169190911790555062000853945050505050565b60035461010090046001600160a01b03163314620002685760405162461bcd60e51b815260040180806020018281038252602481526020018062005eae6024913960400191505060405180910390fd5b600954158015620002795750600a54155b620002b65760405162461bcd60e51b815260040180806020018281038252602381526020018062005ed26023913960400191505060405180910390fd5b600784905583620002f95760405162461bcd60e51b815260040180806020018281038252603081526020018062005ef56030913960400191505060405180910390fd5b60006200030f876001600160e01b036200042e16565b9050801562000365576040805162461bcd60e51b815260206004820152601a60248201527f73657474696e6720636f6d7074726f6c6c6572206661696c6564000000000000604482015290519081900360640190fd5b620003786001600160e01b036200059616565b600955670de0b6b3a7640000600a556200039b866001600160e01b036200059b16565b90508015620003dc5760405162461bcd60e51b815260040180806020018281038252602281526020018062005f256022913960400191505060405180910390fd5b8351620003f1906001906020870190620007b1565b50825162000407906002906020860190620007b1565b50506003805460ff90921660ff199283161790556000805490911660011790555050505050565b60035460009061010090046001600160a01b031633146200046857620004606001603f6001600160e01b036200074116565b905062000591565b60055460408051623f1ee960e11b815290516001600160a01b0392831692851691627e3dd2916004808301926020929190829003018186803b158015620004ae57600080fd5b505afa158015620004c3573d6000803e3d6000fd5b505050506040513d6020811015620004da57600080fd5b50516200052e576040805162461bcd60e51b815260206004820152601c60248201527f6d61726b6572206d6574686f642072657475726e65642066616c736500000000604482015290519081900360640190fd5b600580546001600160a01b0319166001600160a01b03858116918217909255604080519284168352602083019190915280517f7ac369dbd14fa5ea3f473ed67cc9d598964a77501540ba6751eb0b3decf5870d9281900390910190a160005b9150505b919050565b435b90565b600354600090819061010090046001600160a01b03163314620005d857620005cf600160426001600160e01b036200074116565b91505062000591565b620005eb6001600160e01b036200059616565b600954146200060b57620005cf600a60416001600160e01b036200074116565b600660009054906101000a90046001600160a01b03169050826001600160a01b0316632191f92a6040518163ffffffff1660e01b815260040160206040518083038186803b1580156200065d57600080fd5b505afa15801562000672573d6000803e3d6000fd5b505050506040513d60208110156200068957600080fd5b5051620006dd576040805162461bcd60e51b815260206004820152601c60248201527f6d61726b6572206d6574686f642072657475726e65642066616c736500000000604482015290519081900360640190fd5b600680546001600160a01b0319166001600160a01b03858116918217909255604080519284168352602083019190915280517fedffc32e068c7c95dfd4bdfd5c4d939a084d6b11c4199eac8436ed234d72f9269281900390910190a160006200058d565b60007f45b96fe442630264581b197e84bbada861235052c5a1aadfff9ea4e40a969aa08360108111156200077157fe5b8360508111156200077e57fe5b604080519283526020830191909152600082820152519081900360600190a1826010811115620007aa57fe5b9392505050565b828054600181600116156101000203166002900490600052602060002090601f016020900481019282601f10620007f457805160ff191683800117855562000824565b8280016001018555821562000824579182015b828111156200082457825182559160200191906001019062000807565b506200083292915062000836565b5090565b6200059891905b808211156200083257600081556001016200083d565b61564b80620008636000396000f3fe6080604052600436106102725760003560e01c806395d89b411161014f578063c37f68e2116100c1578063f2b3abbd1161007a578063f2b3abbd14610a22578063f3fdb15a14610a55578063f851a44014610a6a578063f8f9da2814610a7f578063fca7820b14610a94578063fe9c44ae14610abe57610272565b8063c37f68e2146108ff578063c5ebeaec14610958578063db006a7514610982578063dd62ed3e146109ac578063e5974619146109e7578063e9c714f214610a0d57610272565b8063aa5af0fd11610113578063aa5af0fd1461081c578063aae40a2a14610831578063ae9d70b01461085f578063b2a02ff114610874578063b71d1a0c146108b7578063bd6d894d146108ea57610272565b806395d89b411461062757806395dd91931461063c57806399d8c1b41461066f578063a6afed95146107ce578063a9059cbb146107e357610272565b80633b1d21a2116101e8578063601a0bf1116101ac578063601a0bf1146105615780636c540baf1461058b57806370a08231146105a057806373acee98146105d3578063852a12e3146105e85780638f840ddd1461061257610272565b80633b1d21a2146104e75780634576b5db146104fc57806347bd37181461052f5780634e4d9fea146105445780635fe3b5671461054c57610272565b806318160ddd1161023a57806318160ddd146103eb578063182df0f51461040057806323b872dd146104155780632678224714610458578063313ce567146104895780633af9e669146104b457610272565b806306fdde03146102b0578063095ea7b31461033a5780631249c58b14610387578063173b99041461039157806317bfdfbc146103b8575b600061027d34610ad3565b5090506102ad816040518060400160405280600b81526020016a1b5a5b9d0819985a5b195960aa1b815250610b7b565b50005b3480156102bc57600080fd5b506102c5610d7b565b6040805160208082528351818301528351919283929083019185019080838360005b838110156102ff5781810151838201526020016102e7565b50505050905090810190601f16801561032c5780820380516001836020036101000a031916815260200191505b509250505060405180910390f35b34801561034657600080fd5b506103736004803603604081101561035d57600080fd5b506001600160a01b038135169060200135610e08565b604080519115158252519081900360200190f35b61038f610e75565b005b34801561039d57600080fd5b506103a6610eb3565b60408051918252519081900360200190f35b3480156103c457600080fd5b506103a6600480360360208110156103db57600080fd5b50356001600160a01b0316610eb9565b3480156103f757600080fd5b506103a6610f79565b34801561040c57600080fd5b506103a6610f7f565b34801561042157600080fd5b506103736004803603606081101561043857600080fd5b506001600160a01b03813581169160208101359091169060400135610fe2565b34801561046457600080fd5b5061046d611054565b604080516001600160a01b039092168252519081900360200190f35b34801561049557600080fd5b5061049e611063565b6040805160ff9092168252519081900360200190f35b3480156104c057600080fd5b506103a6600480360360208110156104d757600080fd5b50356001600160a01b031661106c565b3480156104f357600080fd5b506103a6611124565b34801561050857600080fd5b506103a66004803603602081101561051f57600080fd5b50356001600160a01b0316611133565b34801561053b57600080fd5b506103a6611288565b61038f61128e565b34801561055857600080fd5b5061046d6112d0565b34801561056d57600080fd5b506103a66004803603602081101561058457600080fd5b50356112df565b34801561059757600080fd5b506103a661137a565b3480156105ac57600080fd5b506103a6600480360360208110156105c357600080fd5b50356001600160a01b0316611380565b3480156105df57600080fd5b506103a661139b565b3480156105f457600080fd5b506103a66004803603602081101561060b57600080fd5b5035611451565b34801561061e57600080fd5b506103a661145c565b34801561063357600080fd5b506102c5611462565b34801561064857600080fd5b506103a66004803603602081101561065f57600080fd5b50356001600160a01b03166114ba565b34801561067b57600080fd5b5061038f600480360360c081101561069257600080fd5b6001600160a01b038235811692602081013590911691604082013591908101906080810160608201356401000000008111156106cd57600080fd5b8201836020820111156106df57600080fd5b8035906020019184600183028401116401000000008311171561070157600080fd5b91908080601f016020809104026020016040519081016040528093929190818152602001838380828437600092019190915250929594936020810193503591505064010000000081111561075457600080fd5b82018360208201111561076657600080fd5b8035906020019184600183028401116401000000008311171561078857600080fd5b91908080601f0160208091040260200160405190810160405280939291908181526020018383808284376000920191909152509295505050903560ff1691506115179050565b3480156107da57600080fd5b506103a66116fe565b3480156107ef57600080fd5b506103736004803603604081101561080657600080fd5b506001600160a01b038135169060200135611a56565b34801561082857600080fd5b506103a6611ac7565b61038f6004803603604081101561084757600080fd5b506001600160a01b0381358116916020013516611acd565b34801561086b57600080fd5b506103a6611b1a565b34801561088057600080fd5b506103a66004803603606081101561089757600080fd5b506001600160a01b03813581169160208101359091169060400135611bb9565b3480156108c357600080fd5b506103a6600480360360208110156108da57600080fd5b50356001600160a01b0316611c2a565b3480156108f657600080fd5b506103a6611cb6565b34801561090b57600080fd5b506109326004803603602081101561092257600080fd5b50356001600160a01b0316611d72565b604080519485526020850193909352838301919091526060830152519081900360800190f35b34801561096457600080fd5b506103a66004803603602081101561097b57600080fd5b5035611e07565b34801561098e57600080fd5b506103a6600480360360208110156109a557600080fd5b5035611e12565b3480156109b857600080fd5b506103a6600480360360408110156109cf57600080fd5b506001600160a01b0381358116916020013516611e1d565b61038f600480360360208110156109fd57600080fd5b50356001600160a01b0316611e48565b348015610a1957600080fd5b506103a6611e96565b348015610a2e57600080fd5b506103a660048036036020811015610a4557600080fd5b50356001600160a01b0316611f99565b348015610a6157600080fd5b5061046d611fd3565b348015610a7657600080fd5b5061046d611fe2565b348015610a8b57600080fd5b506103a6611ff6565b348015610aa057600080fd5b506103a660048036036020811015610ab757600080fd5b503561205a565b348015610aca57600080fd5b506103736120d8565b60008054819060ff16610b1a576040805162461bcd60e51b815260206004820152600a6024820152691c994b595b9d195c995960b21b604482015290519081900360640190fd5b6000805460ff19168155610b2c6116fe565b90508015610b5757610b4a816010811115610b4357fe5b601e6120dd565b925060009150610b679050565b610b613385612143565b92509250505b6000805460ff191660011790559092909150565b81610b8557610d77565b606081516005016040519080825280601f01601f191660200182016040528015610bb6576020820181803883390190505b50905060005b8251811015610c0757828181518110610bd157fe5b602001015160f81c60f81b828281518110610be857fe5b60200101906001600160f81b031916908160001a905350600101610bbc565b8151600160fd1b90839083908110610c1b57fe5b60200101906001600160f81b031916908160001a905350602860f81b828260010181518110610c4657fe5b60200101906001600160f81b031916908160001a905350600a840460300160f81b828260020181518110610c7657fe5b60200101906001600160f81b031916908160001a905350600a840660300160f81b828260030181518110610ca657fe5b60200101906001600160f81b031916908160001a905350602960f81b828260040181518110610cd157fe5b60200101906001600160f81b031916908160001a905350818415610d735760405162461bcd60e51b81526004018080602001828103825283818151815260200191508051906020019080838360005b83811015610d38578181015183820152602001610d20565b50505050905090810190601f168015610d655780820380516001836020036101000a031916815260200191505b509250505060405180910390fd5b5050505b5050565b60018054604080516020600284861615610100026000190190941693909304601f81018490048402820184019092528181529291830182828015610e005780601f10610dd557610100808354040283529160200191610e00565b820191906000526020600020905b815481529060010190602001808311610de357829003601f168201915b505050505081565b336000818152600f602090815260408083206001600160a01b03871680855290835281842086905581518681529151939493909284927f8c5be1e5ebec7d5bd14f71427d1e84f3dd0314c0f7b2291e5b200ac8c7c3b925929081900390910190a360019150505b92915050565b6000610e8034610ad3565b509050610eb0816040518060400160405280600b81526020016a1b5a5b9d0819985a5b195960aa1b815250610b7b565b50565b60085481565b6000805460ff16610efe576040805162461bcd60e51b815260206004820152600a6024820152691c994b595b9d195c995960b21b604482015290519081900360640190fd5b6000805460ff19168155610f106116fe565b14610f5b576040805162461bcd60e51b81526020600482015260166024820152751858d8dc9d59481a5b9d195c995cdd0819985a5b195960521b604482015290519081900360640190fd5b610f64826114ba565b90505b6000805460ff19166001179055919050565b600d5481565b6000806000610f8c612605565b90925090506000826003811115610f9f57fe5b14610fdb5760405162461bcd60e51b81526004018080602001828103825260358152602001806155626035913960400191505060405180910390fd5b9150505b90565b6000805460ff16611027576040805162461bcd60e51b815260206004820152600a6024820152691c994b595b9d195c995960b21b604482015290519081900360640190fd5b6000805460ff1916815561103d33868686612748565b1490506000805460ff191660011790559392505050565b6004546001600160a01b031681565b60035460ff1681565b60006110766150d2565b6040518060200160405280611089611cb6565b90526001600160a01b0384166000908152600e60205260408120549192509081906110b5908490612a4c565b909250905060008260038111156110c857fe5b1461111a576040805162461bcd60e51b815260206004820152601f60248201527f62616c616e636520636f756c64206e6f742062652063616c63756c6174656400604482015290519081900360640190fd5b925050505b919050565b600061112e612a9f565b905090565b60035460009061010090046001600160a01b03163314611160576111596001603f6120dd565b905061111f565b60055460408051623f1ee960e11b815290516001600160a01b0392831692851691627e3dd2916004808301926020929190829003018186803b1580156111a557600080fd5b505afa1580156111b9573d6000803e3d6000fd5b505050506040513d60208110156111cf57600080fd5b5051611222576040805162461bcd60e51b815260206004820152601c60248201527f6d61726b6572206d6574686f642072657475726e65642066616c736500000000604482015290519081900360640190fd5b600580546001600160a01b0319166001600160a01b03858116918217909255604080519284168352602083019190915280517f7ac369dbd14fa5ea3f473ed67cc9d598964a77501540ba6751eb0b3decf5870d9281900390910190a160005b9392505050565b600b5481565b600061129934612acb565b509050610eb081604051806040016040528060128152602001711c995c185e509bdc9c9bddc819985a5b195960721b815250610b7b565b6005546001600160a01b031681565b6000805460ff16611324576040805162461bcd60e51b815260206004820152600a6024820152691c994b595b9d195c995960b21b604482015290519081900360640190fd5b6000805460ff191681556113366116fe565b9050801561135c5761135481601081111561134d57fe5b60306120dd565b915050610f67565b61136583612b4d565b9150506000805460ff19166001179055919050565b60095481565b6001600160a01b03166000908152600e602052604090205490565b6000805460ff166113e0576040805162461bcd60e51b815260206004820152600a6024820152691c994b595b9d195c995960b21b604482015290519081900360640190fd5b6000805460ff191681556113f26116fe565b1461143d576040805162461bcd60e51b81526020600482015260166024820152751858d8dc9d59481a5b9d195c995cdd0819985a5b195960521b604482015290519081900360640190fd5b50600b546000805460ff1916600117905590565b6000610e6f82612c80565b600c5481565b6002805460408051602060018416156101000260001901909316849004601f81018490048402820184019092528181529291830182828015610e005780601f10610dd557610100808354040283529160200191610e00565b60008060006114c884612d01565b909250905060008260038111156114db57fe5b146112815760405162461bcd60e51b81526004018080602001828103825260378152602001806153806037913960400191505060405180910390fd5b60035461010090046001600160a01b031633146115655760405162461bcd60e51b81526004018080602001828103825260248152602001806152556024913960400191505060405180910390fd5b6009541580156115755750600a54155b6115b05760405162461bcd60e51b81526004018080602001828103825260238152602001806152796023913960400191505060405180910390fd5b6007849055836115f15760405162461bcd60e51b815260040180806020018281038252603081526020018061529c6030913960400191505060405180910390fd5b60006115fc87611133565b90508015611651576040805162461bcd60e51b815260206004820152601a60248201527f73657474696e6720636f6d7074726f6c6c6572206661696c6564000000000000604482015290519081900360640190fd5b611659612db5565b600955670de0b6b3a7640000600a5561167186612db9565b905080156116b05760405162461bcd60e51b81526004018080602001828103825260228152602001806152cc6022913960400191505060405180910390fd5b83516116c39060019060208701906150e5565b5082516116d79060029060208601906150e5565b50506003805460ff90921660ff199283161790556000805490911660011790555050505050565b600080611709612db5565b6009549091508082141561172257600092505050610fdf565b600061172c612a9f565b600b54600c54600a54600654604080516315f2405360e01b815260048101879052602481018690526044810185905290519596509394929391926000926001600160a01b03909216916315f24053916064808301926020929190829003018186803b15801561179a57600080fd5b505afa1580156117ae573d6000803e3d6000fd5b505050506040513d60208110156117c457600080fd5b5051905065048c27395000811115611823576040805162461bcd60e51b815260206004820152601c60248201527f626f72726f772072617465206973206162737572646c79206869676800000000604482015290519081900360640190fd5b6000806118308989612f2e565b9092509050600082600381111561184357fe5b14611895576040805162461bcd60e51b815260206004820152601f60248201527f636f756c64206e6f742063616c63756c61746520626c6f636b2064656c746100604482015290519081900360640190fd5b61189d6150d2565b6000806000806118bb60405180602001604052808a81525087612f51565b909750945060008760038111156118ce57fe5b14611900576118eb600960068960038111156118e657fe5b612fb9565b9e505050505050505050505050505050610fdf565b61190a858c612a4c565b9097509350600087600381111561191d57fe5b14611935576118eb600960018960038111156118e657fe5b61193f848c61301f565b9097509250600087600381111561195257fe5b1461196a576118eb600960048960038111156118e657fe5b6119856040518060200160405280600854815250858c613045565b9097509150600087600381111561199857fe5b146119b0576118eb600960058960038111156118e657fe5b6119bb858a8b613045565b909750905060008760038111156119ce57fe5b146119e6576118eb600960038960038111156118e657fe5b60098e9055600a819055600b839055600c829055604080518d8152602081018690528082018390526060810185905290517f4dec04e750ca11537cabcd8a9eab06494de08da3735bc8871cd41250e190bc049181900360800190a160009e50505050505050505050505050505090565b6000805460ff16611a9b576040805162461bcd60e51b815260206004820152600a6024820152691c994b595b9d195c995960b21b604482015290519081900360640190fd5b6000805460ff19168155611ab133338686612748565b1490506000805460ff1916600117905592915050565b600a5481565b6000611ada8334846130a1565b509050611b1581604051806040016040528060168152602001751b1a5c5d5a59185d19509bdc9c9bddc819985a5b195960521b815250610b7b565b505050565b6006546000906001600160a01b031663b8168816611b36612a9f565b600b54600c546008546040518563ffffffff1660e01b81526004018085815260200184815260200183815260200182815260200194505050505060206040518083038186803b158015611b8857600080fd5b505afa158015611b9c573d6000803e3d6000fd5b505050506040513d6020811015611bb257600080fd5b5051905090565b6000805460ff16611bfe576040805162461bcd60e51b815260206004820152600a6024820152691c994b595b9d195c995960b21b604482015290519081900360640190fd5b6000805460ff19169055611c14338585856131d3565b90506000805460ff191660011790559392505050565b60035460009061010090046001600160a01b03163314611c5057611159600160456120dd565b600480546001600160a01b038481166001600160a01b0319831681179093556040805191909216808252602082019390935281517fca4f2f25d0898edd99413412fb94012f9e54ec8142f9b093e7720646a95b16a9929181900390910190a16000611281565b6000805460ff16611cfb576040805162461bcd60e51b815260206004820152600a6024820152691c994b595b9d195c995960b21b604482015290519081900360640190fd5b6000805460ff19168155611d0d6116fe565b14611d58576040805162461bcd60e51b81526020600482015260166024820152751858d8dc9d59481a5b9d195c995cdd0819985a5b195960521b604482015290519081900360640190fd5b611d60610f7f565b90506000805460ff1916600117905590565b6001600160a01b0381166000908152600e6020526040812054819081908190818080611d9d89612d01565b935090506000816003811115611daf57fe5b14611dcd5760095b975060009650869550859450611e009350505050565b611dd5612605565b925090506000816003811115611de757fe5b14611df3576009611db7565b5060009650919450925090505b9193509193565b6000610e6f82613439565b6000610e6f826134b8565b6001600160a01b039182166000908152600f6020908152604080832093909416825291909152205490565b6000611e548234613532565b509050610d77816040518060400160405280601881526020017f7265706179426f72726f77426568616c66206661696c65640000000000000000815250610b7b565b6004546000906001600160a01b031633141580611eb1575033155b15611ec957611ec2600160006120dd565b9050610fdf565b60038054600480546001600160a01b03818116610100818102610100600160a81b0319871617968790556001600160a01b031990931690935560408051948390048216808652929095041660208401528351909391927ff9ffabca9c8276e99321725bcb43fb076a6c66a54b7f21c4e8146d8519b417dc92908290030190a1600454604080516001600160a01b038085168252909216602083015280517fca4f2f25d0898edd99413412fb94012f9e54ec8142f9b093e7720646a95b16a99281900390910190a160009250505090565b600080611fa46116fe565b90508015611fca57611fc2816010811115611fbb57fe5b60406120dd565b91505061111f565b61128183612db9565b6006546001600160a01b031681565b60035461010090046001600160a01b031681565b6006546000906001600160a01b03166315f24053612012612a9f565b600b54600c546040518463ffffffff1660e01b815260040180848152602001838152602001828152602001935050505060206040518083038186803b158015611b8857600080fd5b6000805460ff1661209f576040805162461bcd60e51b815260206004820152600a6024820152691c994b595b9d195c995960b21b604482015290519081900360640190fd5b6000805460ff191681556120b16116fe565b905080156120cf576113548160108111156120c857fe5b60466120dd565b611365836135dd565b600181565b60007f45b96fe442630264581b197e84bbada861235052c5a1aadfff9ea4e40a969aa083601081111561210c57fe5b83605081111561211857fe5b604080519283526020830191909152600082820152519081900360600190a182601081111561128157fe5b60055460408051634ef4c3e160e01b81523060048201526001600160a01b03858116602483015260448201859052915160009384938493911691634ef4c3e19160648082019260209290919082900301818787803b1580156121a457600080fd5b505af11580156121b8573d6000803e3d6000fd5b505050506040513d60208110156121ce57600080fd5b5051905080156122245761220a604051806040016040528060118152602001701d1bdad95b881b9bdd08185b1b1bddd959607a1b815250613685565b6122176003601f83612fb9565b9250600091506125fe9050565b61222c612db5565b6009541461224057612217600a60226120dd565b612248615163565b612250612605565b604083018190526020830182600381111561226757fe5b600381111561227257fe5b905250600090508160200151600381111561228957fe5b146122b3576122a560096021836020015160038111156118e657fe5b9350600092506125fe915050565b6122bd868661372b565b60c08201819052604080516020810182529083015181526122de91906137c7565b60608301819052602083018260038111156122f557fe5b600381111561230057fe5b81525050506123356040518060600160405280602d8152602001615466602d91398260c00151836040015184606001516137de565b60008160200151600381111561234757fe5b14612399576040805162461bcd60e51b815260206004820181905260248201527f4d494e545f45584348414e47455f43414c43554c4154494f4e5f4641494c4544604482015290519081900360640190fd5b6123a9600d54826060015161301f565b60808301819052602083018260038111156123c057fe5b60038111156123cb57fe5b90525060009050816020015160038111156123e257fe5b1461241e5760405162461bcd60e51b81526004018080602001828103825260288152602001806155976028913960400191505060405180910390fd5b6001600160a01b0386166000908152600e60205260409020546060820151612446919061301f565b60a083018190526020830182600381111561245d57fe5b600381111561246857fe5b905250600090508160200151600381111561247f57fe5b146124bb5760405162461bcd60e51b815260040180806020018281038252602b81526020018061531a602b913960400191505060405180910390fd5b6080810151600d5560a08101516001600160a01b0387166000818152600e60209081526040918290209390935560c084015160608086015183519485529484019190915282820193909352517f4c209b5fc8ad50758f13e2e1088ba56a560dff690a1c6fef26394f4c03821c4f929181900390910190a1606081015160408051918252516001600160a01b0388169130916000805160206154b88339815191529181900360200190a360055460c08201516060830151604080516341c728b960e01b81523060048201526001600160a01b038b81166024830152604482019490945260648101929092525191909216916341c728b991608480830192600092919082900301818387803b1580156125d157600080fd5b505af11580156125e5573d6000803e3d6000fd5b50600092506125f2915050565b8160c001519350935050505b9250929050565b60008061262a60405180606001604052806026815260200161553c60269139306138a2565b600d5480612681576126736040518060400160405280601f81526020017f696e697469616c45786368616e6765526174654d616e74697373613a20256400815250600754613959565b505060075460009150612744565b600061268b612a9f565b905060006126976150d2565b60006126a884600b54600c54613a07565b9350905060008160038111156126ba57fe5b146126cf579550600094506127449350505050565b6126d98386613a45565b9250905060008160038111156126eb57fe5b14612700579550600094506127449350505050565b6127236040518060600160405280602c81526020016152ee602c91398351613959565b61273384600b54600c5488613af5565b505160009550935061274492505050565b9091565b600061277e6040518060400160405280601081526020016f3a3930b739b332b91031ba37b5b2b71d60811b815250868686613b4b565b600061278d565b915050612a44565b836001600160a01b0316856001600160a01b031614156127b3576127856002604b6120dd565b60006001600160a01b0387811690871614156127d257506000196127fa565b506001600160a01b038086166000908152600f60209081526040808320938a16835292905220545b60008060008061280a8589612f2e565b9094509250600084600381111561281d57fe5b1461283b5761282e6009604b6120dd565b9650505050505050612a44565b6001600160a01b038a166000908152600e60205260409020546128619086908a90613c1a565b6001600160a01b038a166000908152600e60205260409020546128849089612f2e565b9094509150600084600381111561289757fe5b146128a85761282e6009604c6120dd565b6001600160a01b0389166000908152600e60205260409020546128cb908961301f565b909450905060008460038111156128de57fe5b146128ef5761282e6009604d6120dd565b6001600160a01b03808b166000908152600e6020526040808220859055918b168152208190556000198514612947576001600160a01b03808b166000908152600f60209081526040808320938f168352929052208390555b886001600160a01b03168a6001600160a01b03166000805160206154b88339815191528a6040518082815260200191505060405180910390a36005546040805163352b4a3f60e11b81523060048201526001600160a01b038d811660248301528c81166044830152606482018c905291519190921691636a56947e91608480830192600092919082900301818387803b1580156129e357600080fd5b505af11580156129f7573d6000803e3d6000fd5b50505050612a396040518060400160405280601781526020017f7472616e736665722063746f6b656e2073756363657373000000000000000000815250613685565b600096505050505050505b949350505050565b6000806000612a596150d2565b612a638686612f51565b90925090506000826003811115612a7657fe5b14612a8757509150600090506125fe565b6000612a9282613c69565b9350935050509250929050565b6000806000612aae4734612f2e565b90925090506000826003811115612ac157fe5b14610fdb57600080fd5b60008054819060ff16612b12576040805162461bcd60e51b815260206004820152600a6024820152691c994b595b9d195c995960b21b604482015290519081900360640190fd5b6000805460ff19168155612b246116fe565b90508015612b4257610b4a816010811115612b3b57fe5b60366120dd565b610b61333386613c78565b600354600090819061010090046001600160a01b03163314612b7557611fc2600160316120dd565b612b7d612db5565b60095414612b9157611fc2600a60336120dd565b82612b9a612a9f565b1015612bac57611fc2600e60326120dd565b600c54831115612bc257611fc2600260346120dd565b50600c5482810390811115612c085760405162461bcd60e51b81526004018080602001828103825260248152602001806155f36024913960400191505060405180910390fd5b600c819055600354612c289061010090046001600160a01b03168461405d565b600354604080516101009092046001600160a01b0316825260208201859052818101839052517f3bad0c59cf2f06e7314077049f48a93578cd16f5ef92329f1dab1420a99c177e916060908290030190a16000611281565b6000805460ff16612cc5576040805162461bcd60e51b815260206004820152600a6024820152691c994b595b9d195c995960b21b604482015290519081900360640190fd5b6000805460ff19168155612cd76116fe565b90508015612cf557611354816010811115612cee57fe5b60276120dd565b61136533600085614093565b6001600160a01b038116600090815260106020526040812080548291829182918291612d38575060009450849350612db092505050565b612d488160000154600a546146a1565b90945092506000846003811115612d5b57fe5b14612d70575091935060009250612db0915050565b612d7e8382600101546146e0565b90945091506000846003811115612d9157fe5b14612da6575091935060009250612db0915050565b5060009450925050505b915091565b4390565b600354600090819061010090046001600160a01b03163314612de157611fc2600160426120dd565b612de9612db5565b60095414612dfd57611fc2600a60416120dd565b600660009054906101000a90046001600160a01b03169050826001600160a01b0316632191f92a6040518163ffffffff1660e01b815260040160206040518083038186803b158015612e4e57600080fd5b505afa158015612e62573d6000803e3d6000fd5b505050506040513d6020811015612e7857600080fd5b5051612ecb576040805162461bcd60e51b815260206004820152601c60248201527f6d61726b6572206d6574686f642072657475726e65642066616c736500000000604482015290519081900360640190fd5b600680546001600160a01b0319166001600160a01b03858116918217909255604080519284168352602083019190915280517fedffc32e068c7c95dfd4bdfd5c4d939a084d6b11c4199eac8436ed234d72f9269281900390910190a16000611281565b600080838311612f455750600090508183036125fe565b506003905060006125fe565b6000612f5b6150d2565b600080612f6c8660000151866146a1565b90925090506000826003811115612f7f57fe5b14612f9e575060408051602081019091526000815290925090506125fe565b60408051602081019091529081526000969095509350505050565b60007f45b96fe442630264581b197e84bbada861235052c5a1aadfff9ea4e40a969aa0846010811115612fe857fe5b846050811115612ff457fe5b604080519283526020830191909152818101859052519081900360600190a1836010811115612a4457fe5b600080838301848110613037576000925090506125fe565b5060029150600090506125fe565b60008060006130526150d2565b61305c8787612f51565b9092509050600082600381111561306f57fe5b146130805750915060009050613099565b61309261308c82613c69565b8661301f565b9350935050505b935093915050565b60008054819060ff166130e8576040805162461bcd60e51b815260206004820152600a6024820152691c994b595b9d195c995960b21b604482015290519081900360640190fd5b6000805460ff191681556130fa6116fe565b905080156131255761311881601081111561311157fe5b600f6120dd565b9250600091506131bc9050565b836001600160a01b031663a6afed956040518163ffffffff1660e01b8152600401602060405180830381600087803b15801561316057600080fd5b505af1158015613174573d6000803e3d6000fd5b505050506040513d602081101561318a57600080fd5b5051905080156131aa576131188160108111156131a357fe5b60106120dd565b6131b63387878761470b565b92509250505b6000805460ff191660011790559094909350915050565b6005546040805163d02f735160e01b81523060048201526001600160a01b038781166024830152868116604483015285811660648301526084820185905291516000938493169163d02f73519160a480830192602092919082900301818787803b15801561324057600080fd5b505af1158015613254573d6000803e3d6000fd5b505050506040513d602081101561326a57600080fd5b505190508015613281576127856003601b83612fb9565b846001600160a01b0316846001600160a01b031614156132a7576127856006601c6120dd565b6001600160a01b0384166000908152600e6020526040812054819081906132ce9087612f2e565b909350915060008360038111156132e157fe5b14613304576132f96009601a8560038111156118e657fe5b945050505050612a44565b6001600160a01b0388166000908152600e6020526040902054613327908761301f565b9093509050600083600381111561333a57fe5b14613352576132f9600960198560038111156118e657fe5b6001600160a01b038088166000818152600e60209081526040808320879055938c168083529184902085905583518a8152935191936000805160206154b8833981519152929081900390910190a360055460408051636d35bf9160e01b81523060048201526001600160a01b038c811660248301528b811660448301528a81166064830152608482018a905291519190921691636d35bf919160a480830192600092919082900301818387803b15801561340b57600080fd5b505af115801561341f573d6000803e3d6000fd5b506000925061342c915050565b9998505050505050505050565b6000805460ff1661347e576040805162461bcd60e51b815260206004820152600a6024820152691c994b595b9d195c995960b21b604482015290519081900360640190fd5b6000805460ff191681556134906116fe565b905080156134ae576113548160108111156134a757fe5b60086120dd565b6113653384614c8e565b6000805460ff166134fd576040805162461bcd60e51b815260206004820152600a6024820152691c994b595b9d195c995960b21b604482015290519081900360640190fd5b6000805460ff1916815561350f6116fe565b9050801561352657611354816010811115612cee57fe5b61136533846000614093565b60008054819060ff16613579576040805162461bcd60e51b815260206004820152600a6024820152691c994b595b9d195c995960b21b604482015290519081900360640190fd5b6000805460ff1916815561358b6116fe565b905080156135b6576135a98160108111156135a257fe5b60356120dd565b9250600091506135c79050565b6135c1338686613c78565b92509250505b6000805460ff1916600117905590939092509050565b60035460009061010090046001600160a01b0316331461360357611159600160476120dd565b61360b612db5565b6009541461361f57611159600a60486120dd565b670de0b6b3a764000082111561363b57611159600260496120dd565b6008805490839055604080518281526020810185905281517faaa68312e2ea9d50e16af5068410ab56e1a1fd06037b1a35664812c30f821460929181900390910190a16000611281565b610eb0816040516024018080602001828103825283818151815260200191508051906020019080838360005b838110156136c95781810151838201526020016136b1565b50505050905090810190601f1680156136f65780820380516001836020036101000a031916815260200191505b5060408051601f198184030181529190526020810180516001600160e01b031663104c13eb60e21b1790529250614f9c915050565b6000336001600160a01b0384161461377c576040805162461bcd60e51b815260206004820152600f60248201526e0e6cadcc8cae440dad2e6dac2e8c6d608b1b604482015290519081900360640190fd5b8134146137c1576040805162461bcd60e51b815260206004820152600e60248201526d0ecc2d8eaca40dad2e6dac2e8c6d60931b604482015290519081900360640190fd5b50919050565b60008060006137d46150d2565b612a638686614fbd565b61389c848484846040516024018080602001858152602001848152602001838152602001828103825286818151815260200191508051906020019080838360005b8381101561383757818101518382015260200161381f565b50505050905090810190601f1680156138645780820380516001836020036101000a031916815260200191505b5060408051601f198184030181529190526020810180516001600160e01b03166304772b3360e11b1790529550614f9c945050505050565b50505050565b604080516001600160a01b038316604482015260248101918252835160648201528351610d779285928592829160840190602086019080838360005b838110156138f65781810151838201526020016138de565b50505050905090810190601f1680156139235780820380516001836020036101000a031916815260200191505b5060408051601f198184030181529190526020810180516001600160e01b031663319af33360e01b1790529350614f9c92505050565b610d7782826040516024018080602001838152602001828103825284818151815260200191508051906020019080838360005b838110156139a457818101518382015260200161398c565b50505050905090810190601f1680156139d15780820380516001836020036101000a031916815260200191505b5060408051601f198184030181529190526020810180516001600160e01b03166309710a9d60e41b1790529350614f9c92505050565b600080600080613a17878761301f565b90925090506000826003811115613a2a57fe5b14613a3b5750915060009050613099565b6130928186612f2e565b6000613a4f6150d2565b600080613a6486670de0b6b3a76400006146a1565b90925090506000826003811115613a7757fe5b14613a96575060408051602081019091526000815290925090506125fe565b600080613aa383886146e0565b90925090506000826003811115613ab657fe5b14613ad8575060408051602081019091526000815290945092506125fe915050565b604080516020810190915290815260009890975095505050505050565b6040805160248101869052604481018590526064810184905260848082018490528251808303909101815260a49091019091526020810180516001600160e01b0316632e50569f60e11b17905261389c90614f9c565b6040516001600160a01b038085166044830152808416606483015282166084820152608060248201908152855160a4830152855161389c92879287928792879291829160c40190602088019080838360005b83811015613bb5578181015183820152602001613b9d565b50505050905090810190601f168015613be25780820380516001836020036101000a031916815260200191505b5060408051601f198184030181529190526020810180516001600160e01b03166376c7947b60e11b1790529550614f9c945050505050565b60408051602481018590526044810184905260648082018490528251808303909101815260849091019091526020810180516001600160e01b03166339e0829d60e21b179052611b1590614f9c565b51670de0b6b3a7640000900490565b60055460408051631200453160e11b81523060048201526001600160a01b0386811660248301528581166044830152606482018590529151600093849384939116916324008a629160848082019260209290919082900301818787803b158015613ce157600080fd5b505af1158015613cf5573d6000803e3d6000fd5b505050506040513d6020811015613d0b57600080fd5b505190508015613d2f57613d226003603883612fb9565b9250600091506130999050565b613d37612db5565b60095414613d4b57613d22600a60396120dd565b613d536151a1565b6001600160a01b0386166000908152601060205260409020600101546060820152613d7d86612d01565b6080830181905260208301826003811115613d9457fe5b6003811115613d9f57fe5b9052506000905081602001516003811115613db657fe5b14613de057613dd260096037836020015160038111156118e657fe5b935060009250613099915050565b600019851415613df95760808101516040820152613e01565b604081018590525b613e0f87826040015161372b565b60e082018190526080820151613e2491612f2e565b60a0830181905260208301826003811115613e3b57fe5b6003811115613e4657fe5b9052506000905081602001516003811115613e5d57fe5b14613e995760405162461bcd60e51b815260040180806020018281038252603a8152602001806153b7603a913960400191505060405180910390fd5b613ea9600b548260e00151612f2e565b60c0830181905260208301826003811115613ec057fe5b6003811115613ecb57fe5b9052506000905081602001516003811115613ee257fe5b14613f1e5760405162461bcd60e51b81526004018080602001828103825260318152602001806154d86031913960400191505060405180910390fd5b60a080820180516001600160a01b03808a16600081815260106020908152604091829020948555600a5460019095019490945560c0870151600b81905560e088015195518251948f16855294840192909252828101949094526060820192909252608081019190915290517f1a2a22cb034d26d1854bdc6666a5b91fe25efbbb5dcad3b0355478d6f5c362a1929181900390910190a160055460e0820151606083015160408051631ededc9160e01b81523060048201526001600160a01b038c811660248301528b8116604483015260648201949094526084810192909252519190921691631ededc919160a480830192600092919082900301818387803b15801561402957600080fd5b505af115801561403d573d6000803e3d6000fd5b506000925061404a915050565b8160e00151935093505050935093915050565b6040516001600160a01b0383169082156108fc029083906000818181858888f19350505050158015611b15573d6000803e3d6000fd5b60008215806140a0575081155b6140db5760405162461bcd60e51b81526004018080602001828103825260348152602001806155bf6034913960400191505060405180910390fd5b6140e3615163565b6140eb612605565b604083018190526020830182600381111561410257fe5b600381111561410d57fe5b905250600090508160200151600381111561412457fe5b146141695761414a6040518060600160405280602e81526020016153f1602e9139613685565b6141616009602b836020015160038111156118e657fe5b915050611281565b831561420b5760608101849052604080516020810182529082015181526141909085612a4c565b60808301819052602083018260038111156141a757fe5b60038111156141b257fe5b90525060009050816020015160038111156141c957fe5b14614206576141ef60405180606001604052806025815260200161549360259139613685565b61416160096029836020015160038111156118e657fe5b6142a5565b61422783604051806020016040528084604001518152506137c7565b606083018190526020830182600381111561423e57fe5b600381111561424957fe5b905250600090508160200151600381111561426057fe5b1461429d576142866040518060600160405280602a815260200161522b602a9139613685565b6141616009602a836020015160038111156118e657fe5b608081018390525b60055460608201516040805163eabe7d9160e01b81523060048201526001600160a01b03898116602483015260448201939093529051600093929092169163eabe7d919160648082019260209290919082900301818787803b15801561430a57600080fd5b505af115801561431e573d6000803e3d6000fd5b505050506040513d602081101561433457600080fd5b5051905080156143925761437c6040518060400160405280601f81526020017f72656465656d46726573683a2072656465656d206e6f7420616c6c6f77656400815250613685565b6143896003602883612fb9565b92505050611281565b61439a612db5565b600954146143ec576143e06040518060400160405280601d81526020017f72656465656d46726573683a204d41524b45545f4e4f545f4652455348000000815250613685565b614389600a602c6120dd565b6143fc600d548360600151612f2e565b60a084018190526020840182600381111561441357fe5b600381111561441e57fe5b905250600090508260200151600381111561443557fe5b1461447a576144636040518060600160405280603b8152602001615345603b9139600d54846060015161501c565b6143896009602e846020015160038111156118e657fe5b6001600160a01b0386166000908152600e602052604090205460608301516144a29190612f2e565b60c08401819052602084018260038111156144b957fe5b60038111156144c457fe5b90525060009050826020015160038111156144db57fe5b146145365761451f60405180608001604052806047815260200161541f604791396001600160a01b0388166000908152600e6020526040902054606085015161501c565b6143896009602d846020015160038111156118e657fe5b8160800151614543612a9f565b101561455557614389600e602f6120dd565b61456386836080015161405d565b60a0820151600d5560c08201516001600160a01b0387166000818152600e60209081526040918290209390935560608501518151908152905130936000805160206154b8833981519152928290030190a36080820151606080840151604080516001600160a01b038b168152602081019490945283810191909152517fe5b754fb1abb7f01b499791d0b820ae3b6af3424ac1c59768edb53f4ec31a9299281900390910190a160055460808301516060840151604080516351dff98960e01b81523060048201526001600160a01b038b81166024830152604482019490945260648101929092525191909216916351dff98991608480830192600092919082900301818387803b15801561467657600080fd5b505af115801561468a573d6000803e3d6000fd5b5060009250614697915050565b9695505050505050565b600080836146b4575060009050806125fe565b838302838582816146c157fe5b04146146d5575060029150600090506125fe565b6000925090506125fe565b600080826146f457506001905060006125fe565b60008385816146ff57fe5b04915091509250929050565b60055460408051632fe3f38f60e11b81523060048201526001600160a01b0384811660248301528781166044830152868116606483015260848201869052915160009384938493911691635fc7e71e9160a48082019260209290919082900301818787803b15801561477c57600080fd5b505af1158015614790573d6000803e3d6000fd5b505050506040513d60208110156147a657600080fd5b5051905080156147ca576147bd6003601283612fb9565b925060009150614c859050565b6147d2612db5565b600954146147e6576147bd600a60166120dd565b6147ee612db5565b846001600160a01b0316636c540baf6040518163ffffffff1660e01b815260040160206040518083038186803b15801561482757600080fd5b505afa15801561483b573d6000803e3d6000fd5b505050506040513d602081101561485157600080fd5b505114614864576147bd600a60116120dd565b866001600160a01b0316866001600160a01b0316141561488a576147bd600660176120dd565b8461489b576147bd600760156120dd565b6000198514156148b1576147bd600760146120dd565b6000806148bf898989613c78565b909250905081156148ef576148e08260108111156148d957fe5b60186120dd565b945060009350614c8592505050565b6005546040805163c488847b60e01b81523060048201526001600160a01b038981166024830152604482018590528251600094859492169263c488847b926064808301939192829003018186803b15801561494957600080fd5b505afa15801561495d573d6000803e3d6000fd5b505050506040513d604081101561497357600080fd5b508051602090910151909250905081156149be5760405162461bcd60e51b81526004018080602001828103825260338152602001806155096033913960400191505060405180910390fd5b80886001600160a01b03166370a082318c6040518263ffffffff1660e01b815260040180826001600160a01b03166001600160a01b0316815260200191505060206040518083038186803b158015614a1557600080fd5b505afa158015614a29573d6000803e3d6000fd5b505050506040513d6020811015614a3f57600080fd5b50511015614a94576040805162461bcd60e51b815260206004820152601860248201527f4c49515549444154455f5345495a455f544f4f5f4d5543480000000000000000604482015290519081900360640190fd5b60006001600160a01b038916301415614aba57614ab3308d8d856131d3565b9050614b44565b6040805163b2a02ff160e01b81526001600160a01b038e811660048301528d81166024830152604482018590529151918b169163b2a02ff1916064808201926020929091908290030181600087803b158015614b1557600080fd5b505af1158015614b29573d6000803e3d6000fd5b505050506040513d6020811015614b3f57600080fd5b505190505b8015614b8e576040805162461bcd60e51b81526020600482015260146024820152731d1bdad95b881cd95a5e9d5c994819985a5b195960621b604482015290519081900360640190fd5b604080516001600160a01b03808f168252808e1660208301528183018790528b1660608201526080810184905290517f298637f684da70674f26509b10f07ec2fbc77a335ab1e7d6215a4b2484d8bb529181900360a00190a1600554604080516347ef3b3b60e01b81523060048201526001600160a01b038c811660248301528f811660448301528e811660648301526084820188905260a48201869052915191909216916347ef3b3b9160c480830192600092919082900301818387803b158015614c5957600080fd5b505af1158015614c6d573d6000803e3d6000fd5b5060009250614c7a915050565b975092955050505050505b94509492505050565b6005546040805163368f515360e21b81523060048201526001600160a01b0385811660248301526044820185905291516000938493169163da3d454c91606480830192602092919082900301818787803b158015614ceb57600080fd5b505af1158015614cff573d6000803e3d6000fd5b505050506040513d6020811015614d1557600080fd5b505190508015614d3457614d2c6003600e83612fb9565b915050610e6f565b614d3c612db5565b60095414614d4f57614d2c600a806120dd565b82614d58612a9f565b1015614d6a57614d2c600e60096120dd565b614d726151e7565b614d7b85612d01565b6020830181905282826003811115614d8f57fe5b6003811115614d9a57fe5b9052506000905081516003811115614dae57fe5b14614dd357614dca60096007836000015160038111156118e657fe5b92505050610e6f565b614de181602001518561301f565b6040830181905282826003811115614df557fe5b6003811115614e0057fe5b9052506000905081516003811115614e1457fe5b14614e3057614dca6009600c836000015160038111156118e657fe5b614e3c600b548561301f565b6060830181905282826003811115614e5057fe5b6003811115614e5b57fe5b9052506000905081516003811115614e6f57fe5b14614e8b57614dca6009600b836000015160038111156118e657fe5b614e95858561405d565b604080820180516001600160a01b03881660008181526010602090815290859020928355600a54600190930192909255606080860151600b81905593518551928352928201899052818501929092529081019190915290517f13ed6866d4e1ee6da46f845c46d7e54120883d75c5ea9a2dacc1c4ca8984ab809181900360800190a160055460408051635c77860560e01b81523060048201526001600160a01b0388811660248301526044820188905291519190921691635c77860591606480830192600092919082900301818387803b158015614f7257600080fd5b505af1158015614f86573d6000803e3d6000fd5b5060009250614f93915050565b95945050505050565b80516a636f6e736f6c652e6c6f67602083016000808483855afa5050505050565b6000614fc76150d2565b600080614fdc670de0b6b3a7640000876146a1565b90925090506000826003811115614fef57fe5b1461500e575060408051602081019091526000815290925090506125fe565b612a92818660000151613a45565b611b158383836040516024018080602001848152602001838152602001828103825285818151815260200191508051906020019080838360005b8381101561506e578181015183820152602001615056565b50505050905090810190601f16801561509b5780820380516001836020036101000a031916815260200191505b5060408051601f198184030181529190526020810180516001600160e01b031663969cdd0360e01b1790529450614f9c9350505050565b6040518060200160405280600081525090565b828054600181600116156101000203166002900490600052602060002090601f016020900481019282601f1061512657805160ff1916838001178555615153565b82800160010185558215615153579182015b82811115615153578251825591602001919060010190615138565b5061515f929150615210565b5090565b6040805160e0810190915280600081526020016000815260200160008152602001600081526020016000815260200160008152602001600081525090565b6040805161010081019091528060008152602001600081526020016000815260200160008152602001600081526020016000815260200160008152602001600081525090565b604080516080810190915280600081526020016000815260200160008152602001600081525090565b610fdf91905b8082111561515f576000815560010161521656fe72656465656d46726573683a206469765363616c617242794578705472756e63617465206661696c65646f6e6c792061646d696e206d617920696e697469616c697a6520746865206d61726b65746d61726b6574206d6179206f6e6c7920626520696e697469616c697a6564206f6e6365696e697469616c2065786368616e67652072617465206d7573742062652067726561746572207468616e207a65726f2e73657474696e6720696e7465726573742072617465206d6f64656c206661696c656465786368616e67655261746553746f726564496e7465726e616c3a2065786368616e6765526174653a2025644d494e545f4e45575f4143434f554e545f42414c414e43455f43414c43554c4154494f4e5f4641494c454472656465656d46726573683a2073756255496e74206661696c65643a20746f74616c537570706c793d25642072656465656d546f6b656e733d2564626f72726f7742616c616e636553746f7265643a20626f72726f7742616c616e636553746f726564496e7465726e616c206661696c656452455041595f424f52524f575f4e45575f4143434f554e545f424f52524f575f42414c414e43455f43414c43554c4154494f4e5f4641494c454472656465656d46726573683a2065786368616e67655261746553746f726564496e7465726e616c206661696c656472656465656d46726573683a2073756255496e74206661696c65643a206163636f756e74546f6b656e735b72656465656d65725d3d25642072656465656d546f6b656e733d25646d696e74416f756e743a2025642065786368616e6765526174653a202564206d696e74546f6b656e733a20256472656465656d46726573683a206d756c5363616c61725472756e63617465206661696c6564ddf252ad1be2c89b69c2b068fc378daa952ba7f163c4a11628f55a4df523b3ef52455041595f424f52524f575f4e45575f544f54414c5f42414c414e43455f43414c43554c4154494f4e5f4641494c45444c49515549444154455f434f4d5054524f4c4c45525f43414c43554c4154455f414d4f554e545f5345495a455f4641494c454465786368616e67655261746553746f726564496e7465726e616c20616464726573733a20257365786368616e67655261746553746f7265643a2065786368616e67655261746553746f726564496e7465726e616c206661696c65644d494e545f4e45575f544f54414c5f535550504c595f43414c43554c4154494f4e5f4641494c45446f6e65206f662072656465656d546f6b656e73496e206f722072656465656d416d6f756e74496e206d757374206265207a65726f72656475636520726573657276657320756e657870656374656420756e646572666c6f77a265627a7a723158208340af59f6f4553d23335c34da117aaba1d011e3b39558f7002ac8d8466eb73464736f6c634300051000326f6e6c792061646d696e206d617920696e697469616c697a6520746865206d61726b65746d61726b6574206d6179206f6e6c7920626520696e697469616c697a6564206f6e6365696e697469616c2065786368616e67652072617465206d7573742062652067726561746572207468616e207a65726f2e73657474696e6720696e7465726573742072617465206d6f64656c206661696c6564",
  "devdoc": {
    "author": "LendHub",
    "methods": {
      "_acceptAdmin()": {
        "details": "Admin function for pending admin to accept role and update admin",
        "return": "uint 0=success, otherwise a failure (see ErrorReporter.sol for details)"
      },
      "_reduceReserves(uint256)": {
        "params": {
          "reduceAmount": "Amount of reduction to reserves"
        },
        "return": "uint 0=success, otherwise a failure (see ErrorReporter.sol for details)"
      },
      "_setComptroller(address)": {
        "details": "Admin function to set a new comptroller",
        "return": "uint 0=success, otherwise a failure (see ErrorReporter.sol for details)"
      },
      "_setInterestRateModel(address)": {
        "details": "Admin function to accrue interest and update the interest rate model",
        "params": {
          "newInterestRateModel": "the new interest rate model to use"
        },
        "return": "uint 0=success, otherwise a failure (see ErrorReporter.sol for details)"
      },
      "_setPendingAdmin(address)": {
        "details": "Admin function to begin change of admin. The newPendingAdmin must call `_acceptAdmin` to finalize the transfer.",
        "params": {
          "newPendingAdmin": "New pending admin."
        },
        "return": "uint 0=success, otherwise a failure (see ErrorReporter.sol for details)"
      },
      "_setReserveFactor(uint256)": {
        "details": "Admin function to accrue interest and set a new reserve factor",
        "return": "uint 0=success, otherwise a failure (see ErrorReporter.sol for details)"
      },
      "accrueInterest()": {
        "details": "This calculates interest accrued from the last checkpointed block  up to the current block and writes new checkpoint to storage.   "
      },
      "allowance(address,address)": {
        "params": {
          "owner": "The address of the account which owns the tokens to be spent",
          "spender": "The address of the account which may transfer tokens"
        },
        "return": "The number of tokens allowed to be spent (-1 means infinite)"
      },
      "approve(address,uint256)": {
        "details": "This will overwrite the approval amount for `spender` and is subject to issues noted [here](https://eips.ethereum.org/EIPS/eip-20#approve)",
        "params": {
          "amount": "The number of tokens that are approved (-1 means infinite)",
          "spender": "The address of the account which may transfer tokens"
        },
        "return": "Whether or not the approval succeeded"
      },
      "balanceOf(address)": {
        "params": {
          "owner": "The address of the account to query"
        },
        "return": "The number of tokens owned by `owner`"
      },
      "balanceOfUnderlying(address)": {
        "details": "This also accrues interest in a transaction",
        "params": {
          "owner": "The address of the account to query"
        },
        "return": "The amount of underlying owned by `owner`"
      },
      "borrow(uint256)": {
        "params": {
          "borrowAmount": "The amount of the underlying asset to borrow"
        },
        "return": "uint 0=success, otherwise a failure (see ErrorReporter.sol for details)"
      },
      "borrowBalanceCurrent(address)": {
        "params": {
          "account": "The address whose balance should be calculated after updating borrowIndex"
        },
        "return": "The calculated balance"
      },
      "borrowBalanceStored(address)": {
        "params": {
          "account": "The address whose balance should be calculated"
        },
        "return": "The calculated balance"
      },
      "borrowRatePerBlock()": {
        "return": "The borrow interest rate per block, scaled by 1e18"
      },
      "constructor": {
        "params": {
          "admin_": "Address of the administrator of this token",
          "comptroller_": "The address of the Comptroller",
          "decimals_": "ERC-20 decimal precision of this token",
          "initialExchangeRateMantissa_": "The initial exchange rate, scaled by 1e18",
          "interestRateModel_": "The address of the interest rate model",
          "name_": "ERC-20 name of this token",
          "symbol_": "ERC-20 symbol of this token"
        }
      },
      "exchangeRateCurrent()": {
        "return": "Calculated exchange rate scaled by 1e18"
      },
      "exchangeRateStored()": {
        "details": "This function does not accrue interest before calculating the exchange rate",
        "return": "Calculated exchange rate scaled by 1e18"
      },
      "getAccountSnapshot(address)": {
        "details": "This is used by comptroller to more efficiently perform liquidity checks.",
        "params": {
          "account": "Address of the account to snapshot"
        },
        "return": "(possible error, token balance, borrow balance, exchange rate mantissa)"
      },
      "getCash()": {
        "return": "The quantity of underlying asset owned by this contract"
      },
      "initialize(address,address,uint256,string,string,uint8)": {
        "params": {
          "comptroller_": "The address of the Comptroller",
          "decimals_": "EIP-20 decimal precision of this token",
          "initialExchangeRateMantissa_": "The initial exchange rate, scaled by 1e18",
          "interestRateModel_": "The address of the interest rate model",
          "name_": "EIP-20 name of this token",
          "symbol_": "EIP-20 symbol of this token"
        }
      },
      "liquidateBorrow(address,address)": {
        "details": "Reverts upon any failure",
        "params": {
          "borrower": "The borrower of this cToken to be liquidated",
          "cTokenCollateral": "The market in which to seize collateral from the borrower"
        }
      },
      "mint()": {
        "details": "Reverts upon any failure"
      },
      "redeem(uint256)": {
        "details": "Accrues interest whether or not the operation succeeds, unless reverted",
        "params": {
          "redeemTokens": "The number of cTokens to redeem into underlying"
        },
        "return": "uint 0=success, otherwise a failure (see ErrorReporter.sol for details)"
      },
      "redeemUnderlying(uint256)": {
        "details": "Accrues interest whether or not the operation succeeds, unless reverted",
        "params": {
          "redeemAmount": "The amount of underlying to redeem"
        },
        "return": "uint 0=success, otherwise a failure (see ErrorReporter.sol for details)"
      },
      "repayBorrow()": {
        "details": "Reverts upon any failure"
      },
      "repayBorrowBehalf(address)": {
        "details": "Reverts upon any failure",
        "params": {
          "borrower": "the account with the debt being payed off"
        }
      },
      "seize(address,address,uint256)": {
        "details": "Will fail unless called by another cToken during the process of liquidation. Its absolutely critical to use msg.sender as the borrowed cToken and not a parameter.",
        "params": {
          "borrower": "The account having collateral seized",
          "liquidator": "The account receiving seized collateral",
          "seizeTokens": "The number of cTokens to seize"
        },
        "return": "uint 0=success, otherwise a failure (see ErrorReporter.sol for details)"
      },
      "supplyRatePerBlock()": {
        "return": "The supply interest rate per block, scaled by 1e18"
      },
      "totalBorrowsCurrent()": {
        "return": "The total borrows with interest"
      },
      "transfer(address,uint256)": {
        "params": {
          "amount": "The number of tokens to transfer",
          "dst": "The address of the destination account"
        },
        "return": "Whether or not the transfer succeeded"
      },
      "transferFrom(address,address,uint256)": {
        "params": {
          "amount": "The number of tokens to transfer",
          "dst": "The address of the destination account",
          "src": "The address of the source account"
        },
        "return": "Whether or not the transfer succeeded"
      }
    },
    "title": "LendHub's LHT Contract"
  },
  "userdoc": {
    "methods": {
      "_acceptAdmin()": {
        "notice": "Accepts transfer of admin rights. msg.sender must be pendingAdmin"
      },
      "_reduceReserves(uint256)": {
        "notice": "Accrues interest and reduces reserves by transferring to admin"
      },
      "_setComptroller(address)": {
        "notice": "Sets a new comptroller for the market"
      },
      "_setInterestRateModel(address)": {
        "notice": "accrues interest and updates the interest rate model using _setInterestRateModelFresh"
      },
      "_setPendingAdmin(address)": {
        "notice": "Begins transfer of admin rights. The newPendingAdmin must call `_acceptAdmin` to finalize the transfer."
      },
      "_setReserveFactor(uint256)": {
        "notice": "accrues interest and sets a new reserve factor for the protocol using _setReserveFactorFresh"
      },
      "accrueInterest()": {
        "notice": "Applies accrued interest to total borrows and reserves"
      },
      "allowance(address,address)": {
        "notice": "Get the current allowance from `owner` for `spender`"
      },
      "approve(address,uint256)": {
        "notice": "Approve `spender` to transfer up to `amount` from `src`"
      },
      "balanceOf(address)": {
        "notice": "Get the token balance of the `owner`"
      },
      "balanceOfUnderlying(address)": {
        "notice": "Get the underlying balance of the `owner`"
      },
      "borrow(uint256)": {
        "notice": "Sender borrows assets from the protocol to their own address"
      },
      "borrowBalanceCurrent(address)": {
        "notice": "Accrue interest to updated borrowIndex and then calculate account's borrow balance using the updated borrowIndex"
      },
      "borrowBalanceStored(address)": {
        "notice": "Return the borrow balance of account based on stored data"
      },
      "borrowRatePerBlock()": {
        "notice": "Returns the current per-block borrow interest rate for this cToken"
      },
      "constructor": "Construct a new CEther money market",
      "exchangeRateCurrent()": {
        "notice": "Accrue interest then return the up-to-date exchange rate"
      },
      "exchangeRateStored()": {
        "notice": "Calculates the exchange rate from the underlying to the CToken"
      },
      "getAccountSnapshot(address)": {
        "notice": "Get a snapshot of the account's balances, and the cached exchange rate"
      },
      "getCash()": {
        "notice": "Get cash balance of this cToken in the underlying asset"
      },
      "initialize(address,address,uint256,string,string,uint8)": {
        "notice": "Initialize the money market"
      },
      "liquidateBorrow(address,address)": {
        "notice": "The sender liquidates the borrowers collateral. The collateral seized is transferred to the liquidator."
      },
      "mint()": {
        "notice": "Sender supplies assets into the market and receives cTokens in exchange"
      },
      "redeem(uint256)": {
        "notice": "Sender redeems cTokens in exchange for the underlying asset"
      },
      "redeemUnderlying(uint256)": {
        "notice": "Sender redeems cTokens in exchange for a specified amount of underlying asset"
      },
      "repayBorrow()": {
        "notice": "Sender repays their own borrow"
      },
      "repayBorrowBehalf(address)": {
        "notice": "Sender repays a borrow belonging to borrower"
      },
      "seize(address,address,uint256)": {
        "notice": "Transfers collateral tokens (this market) to the liquidator."
      },
      "supplyRatePerBlock()": {
        "notice": "Returns the current per-block supply interest rate for this cToken"
      },
      "totalBorrowsCurrent()": {
        "notice": "Returns the current total borrows plus accrued interest"
      },
      "transfer(address,uint256)": {
        "notice": "Transfer `amount` tokens from `msg.sender` to `dst`"
      },
      "transferFrom(address,address,uint256)": {
        "notice": "Transfer `amount` tokens from `src` to `dst`"
      }
    },
    "notice": "CToken which wraps HT"
  },
  "storageLayout": {
    "storage": [
      {
        "astId": 985,
        "contract": "contracts/compound/LHT.sol:LHT",
        "label": "_notEntered",
        "offset": 0,
        "slot": "0",
        "type": "t_bool"
      },
      {
        "astId": 987,
        "contract": "contracts/compound/LHT.sol:LHT",
        "label": "name",
        "offset": 0,
        "slot": "1",
        "type": "t_string_storage"
      },
      {
        "astId": 989,
        "contract": "contracts/compound/LHT.sol:LHT",
        "label": "symbol",
        "offset": 0,
        "slot": "2",
        "type": "t_string_storage"
      },
      {
        "astId": 991,
        "contract": "contracts/compound/LHT.sol:LHT",
        "label": "decimals",
        "offset": 0,
        "slot": "3",
        "type": "t_uint8"
      },
      {
        "astId": 999,
        "contract": "contracts/compound/LHT.sol:LHT",
        "label": "admin",
        "offset": 1,
        "slot": "3",
        "type": "t_address_payable"
      },
      {
        "astId": 1001,
        "contract": "contracts/compound/LHT.sol:LHT",
        "label": "pendingAdmin",
        "offset": 0,
        "slot": "4",
        "type": "t_address_payable"
      },
      {
        "astId": 1003,
        "contract": "contracts/compound/LHT.sol:LHT",
        "label": "comptroller",
        "offset": 0,
        "slot": "5",
        "type": "t_contract(ComptrollerInterface)1690"
      },
      {
        "astId": 1005,
        "contract": "contracts/compound/LHT.sol:LHT",
        "label": "interestRateModel",
        "offset": 0,
        "slot": "6",
        "type": "t_contract(InterestRateModel)2481"
      },
      {
        "astId": 1007,
        "contract": "contracts/compound/LHT.sol:LHT",
        "label": "initialExchangeRateMantissa",
        "offset": 0,
        "slot": "7",
        "type": "t_uint256"
      },
      {
        "astId": 1009,
        "contract": "contracts/compound/LHT.sol:LHT",
        "label": "reserveFactorMantissa",
        "offset": 0,
        "slot": "8",
        "type": "t_uint256"
      },
      {
        "astId": 1011,
        "contract": "contracts/compound/LHT.sol:LHT",
        "label": "accrualBlockNumber",
        "offset": 0,
        "slot": "9",
        "type": "t_uint256"
      },
      {
        "astId": 1013,
        "contract": "contracts/compound/LHT.sol:LHT",
        "label": "borrowIndex",
        "offset": 0,
        "slot": "10",
        "type": "t_uint256"
      },
      {
        "astId": 1015,
        "contract": "contracts/compound/LHT.sol:LHT",
        "label": "totalBorrows",
        "offset": 0,
        "slot": "11",
        "type": "t_uint256"
      },
      {
        "astId": 1017,
        "contract": "contracts/compound/LHT.sol:LHT",
        "label": "totalReserves",
        "offset": 0,
        "slot": "12",
        "type": "t_uint256"
      },
      {
        "astId": 1019,
        "contract": "contracts/compound/LHT.sol:LHT",
        "label": "totalSupply",
        "offset": 0,
        "slot": "13",
        "type": "t_uint256"
      },
      {
        "astId": 1023,
        "contract": "contracts/compound/LHT.sol:LHT",
        "label": "accountTokens",
        "offset": 0,
        "slot": "14",
        "type": "t_mapping(t_address,t_uint256)"
      },
      {
        "astId": 1029,
        "contract": "contracts/compound/LHT.sol:LHT",
        "label": "transferAllowances",
        "offset": 0,
        "slot": "15",
        "type": "t_mapping(t_address,t_mapping(t_address,t_uint256))"
      },
      {
        "astId": 1038,
        "contract": "contracts/compound/LHT.sol:LHT",
        "label": "accountBorrows",
        "offset": 0,
        "slot": "16",
        "type": "t_mapping(t_address,t_struct(BorrowSnapshot)1034_storage)"
      },
      {
        "astId": 1042,
        "contract": "contracts/compound/LHT.sol:LHT",
        "label": "lpMarginBorrows",
        "offset": 0,
        "slot": "17",
        "type": "t_mapping(t_uint256,t_struct(BorrowSnapshot)1034_storage)"
      },
      {
        "astId": 1046,
        "contract": "contracts/compound/LHT.sol:LHT",
        "label": "swapMarginBorrows",
        "offset": 0,
        "slot": "18",
        "type": "t_mapping(t_uint256,t_struct(BorrowSnapshot)1034_storage)"
      }
    ],
    "types": {
      "t_address": {
        "encoding": "inplace",
        "label": "address",
        "numberOfBytes": "20"
      },
      "t_address_payable": {
        "encoding": "inplace",
        "label": "address payable",
        "numberOfBytes": "20"
      },
      "t_bool": {
        "encoding": "inplace",
        "label": "bool",
        "numberOfBytes": "1"
      },
      "t_contract(ComptrollerInterface)1690": {
        "encoding": "inplace",
        "label": "contract ComptrollerInterface",
        "numberOfBytes": "20"
      },
      "t_contract(InterestRateModel)2481": {
        "encoding": "inplace",
        "label": "contract InterestRateModel",
        "numberOfBytes": "20"
      },
      "t_mapping(t_address,t_mapping(t_address,t_uint256))": {
        "encoding": "mapping",
        "key": "t_address",
        "label": "mapping(address => mapping(address => uint256))",
        "numberOfBytes": "32",
        "value": "t_mapping(t_address,t_uint256)"
      },
      "t_mapping(t_address,t_struct(BorrowSnapshot)1034_storage)": {
        "encoding": "mapping",
        "key": "t_address",
        "label": "mapping(address => struct CTokenStorage.BorrowSnapshot)",
        "numberOfBytes": "32",
        "value": "t_struct(BorrowSnapshot)1034_storage"
      },
      "t_mapping(t_address,t_uint256)": {
        "encoding": "mapping",
        "key": "t_address",
        "label": "mapping(address => uint256)",
        "numberOfBytes": "32",
        "value": "t_uint256"
      },
      "t_mapping(t_uint256,t_struct(BorrowSnapshot)1034_storage)": {
        "encoding": "mapping",
        "key": "t_uint256",
        "label": "mapping(uint256 => struct CTokenStorage.BorrowSnapshot)",
        "numberOfBytes": "32",
        "value": "t_struct(BorrowSnapshot)1034_storage"
      },
      "t_string_storage": {
        "encoding": "bytes",
        "label": "string",
        "numberOfBytes": "32"
      },
      "t_struct(BorrowSnapshot)1034_storage": {
        "encoding": "inplace",
        "label": "struct CTokenStorage.BorrowSnapshot",
        "members": [
          {
            "astId": 1031,
            "contract": "contracts/compound/LHT.sol:LHT",
            "label": "principal",
            "offset": 0,
            "slot": "0",
            "type": "t_uint256"
          },
          {
            "astId": 1033,
            "contract": "contracts/compound/LHT.sol:LHT",
            "label": "interestIndex",
            "offset": 0,
            "slot": "1",
            "type": "t_uint256"
          }
        ],
        "numberOfBytes": "64"
      },
      "t_uint256": {
        "encoding": "inplace",
        "label": "uint256",
        "numberOfBytes": "32"
      },
      "t_uint8": {
        "encoding": "inplace",
        "label": "uint8",
        "numberOfBytes": "1"
      }
    }
  }
}