{
  "address": "0xE6bAb8701d48Fe85Ec5B8a0FCe45AF98b1442965",
  "abi": [
    {
      "inputs": [
        {
          "internalType": "address",
          "name": "_feeToSetter",
          "type": "address"
        }
      ],
      "stateMutability": "nonpayable",
      "type": "constructor"
    },
    {
      "anonymous": false,
      "inputs": [
        {
          "indexed": true,
          "internalType": "address",
          "name": "token0",
          "type": "address"
        },
        {
          "indexed": true,
          "internalType": "address",
          "name": "token1",
          "type": "address"
        },
        {
          "indexed": false,
          "internalType": "address",
          "name": "pair",
          "type": "address"
        },
        {
          "indexed": false,
          "internalType": "uint256",
          "name": "",
          "type": "uint256"
        }
      ],
      "name": "PairCreated",
      "type": "event"
    },
    {
      "inputs": [
        {
          "internalType": "uint256",
          "name": "",
          "type": "uint256"
        }
      ],
      "name": "allPairs",
      "outputs": [
        {
          "internalType": "address",
          "name": "",
          "type": "address"
        }
      ],
      "stateMutability": "view",
      "type": "function"
    },
    {
      "inputs": [],
      "name": "allPairsLength",
      "outputs": [
        {
          "internalType": "uint256",
          "name": "",
          "type": "uint256"
        }
      ],
      "stateMutability": "view",
      "type": "function"
    },
    {
      "inputs": [
        {
          "internalType": "address",
          "name": "tokenA",
          "type": "address"
        },
        {
          "internalType": "address",
          "name": "tokenB",
          "type": "address"
        }
      ],
      "name": "createPair",
      "outputs": [
        {
          "internalType": "address",
          "name": "pair",
          "type": "address"
        }
      ],
      "stateMutability": "nonpayable",
      "type": "function"
    },
    {
      "inputs": [],
      "name": "feeTo",
      "outputs": [
        {
          "internalType": "address",
          "name": "",
          "type": "address"
        }
      ],
      "stateMutability": "view",
      "type": "function"
    },
    {
      "inputs": [],
      "name": "feeToRate",
      "outputs": [
        {
          "internalType": "uint256",
          "name": "",
          "type": "uint256"
        }
      ],
      "stateMutability": "view",
      "type": "function"
    },
    {
      "inputs": [],
      "name": "feeToSetter",
      "outputs": [
        {
          "internalType": "address",
          "name": "",
          "type": "address"
        }
      ],
      "stateMutability": "view",
      "type": "function"
    },
    {
      "inputs": [
        {
          "internalType": "uint256",
          "name": "amountOut",
          "type": "uint256"
        },
        {
          "internalType": "uint256",
          "name": "reserveIn",
          "type": "uint256"
        },
        {
          "internalType": "uint256",
          "name": "reserveOut",
          "type": "uint256"
        }
      ],
      "name": "getAmountIn",
      "outputs": [
        {
          "internalType": "uint256",
          "name": "amountIn",
          "type": "uint256"
        }
      ],
      "stateMutability": "pure",
      "type": "function"
    },
    {
      "inputs": [
        {
          "internalType": "uint256",
          "name": "amountIn",
          "type": "uint256"
        },
        {
          "internalType": "uint256",
          "name": "reserveIn",
          "type": "uint256"
        },
        {
          "internalType": "uint256",
          "name": "reserveOut",
          "type": "uint256"
        }
      ],
      "name": "getAmountOut",
      "outputs": [
        {
          "internalType": "uint256",
          "name": "amountOut",
          "type": "uint256"
        }
      ],
      "stateMutability": "pure",
      "type": "function"
    },
    {
      "inputs": [
        {
          "internalType": "uint256",
          "name": "amountOut",
          "type": "uint256"
        },
        {
          "internalType": "address[]",
          "name": "path",
          "type": "address[]"
        }
      ],
      "name": "getAmountsIn",
      "outputs": [
        {
          "internalType": "uint256[]",
          "name": "amounts",
          "type": "uint256[]"
        }
      ],
      "stateMutability": "view",
      "type": "function"
    },
    {
      "inputs": [
        {
          "internalType": "uint256",
          "name": "amountIn",
          "type": "uint256"
        },
        {
          "internalType": "address[]",
          "name": "path",
          "type": "address[]"
        }
      ],
      "name": "getAmountsOut",
      "outputs": [
        {
          "internalType": "uint256[]",
          "name": "amounts",
          "type": "uint256[]"
        }
      ],
      "stateMutability": "view",
      "type": "function"
    },
    {
      "inputs": [
        {
          "internalType": "address",
          "name": "",
          "type": "address"
        },
        {
          "internalType": "address",
          "name": "",
          "type": "address"
        }
      ],
      "name": "getPair",
      "outputs": [
        {
          "internalType": "address",
          "name": "",
          "type": "address"
        }
      ],
      "stateMutability": "view",
      "type": "function"
    },
    {
      "inputs": [
        {
          "internalType": "address",
          "name": "tokenA",
          "type": "address"
        },
        {
          "internalType": "address",
          "name": "tokenB",
          "type": "address"
        }
      ],
      "name": "getReserves",
      "outputs": [
        {
          "internalType": "uint256",
          "name": "reserveA",
          "type": "uint256"
        },
        {
          "internalType": "uint256",
          "name": "reserveB",
          "type": "uint256"
        }
      ],
      "stateMutability": "view",
      "type": "function"
    },
    {
      "inputs": [],
      "name": "initCodeHash",
      "outputs": [
        {
          "internalType": "bytes32",
          "name": "",
          "type": "bytes32"
        }
      ],
      "stateMutability": "view",
      "type": "function"
    },
    {
      "inputs": [
        {
          "internalType": "address",
          "name": "tokenA",
          "type": "address"
        },
        {
          "internalType": "address",
          "name": "tokenB",
          "type": "address"
        }
      ],
      "name": "pairFor",
      "outputs": [
        {
          "internalType": "address",
          "name": "pair",
          "type": "address"
        }
      ],
      "stateMutability": "view",
      "type": "function"
    },
    {
      "inputs": [
        {
          "internalType": "uint256",
          "name": "amountA",
          "type": "uint256"
        },
        {
          "internalType": "uint256",
          "name": "reserveA",
          "type": "uint256"
        },
        {
          "internalType": "uint256",
          "name": "reserveB",
          "type": "uint256"
        }
      ],
      "name": "quote",
      "outputs": [
        {
          "internalType": "uint256",
          "name": "amountB",
          "type": "uint256"
        }
      ],
      "stateMutability": "pure",
      "type": "function"
    },
    {
      "inputs": [
        {
          "internalType": "address",
          "name": "_feeTo",
          "type": "address"
        }
      ],
      "name": "setFeeTo",
      "outputs": [],
      "stateMutability": "nonpayable",
      "type": "function"
    },
    {
      "inputs": [
        {
          "internalType": "uint256",
          "name": "_rate",
          "type": "uint256"
        }
      ],
      "name": "setFeeToRate",
      "outputs": [],
      "stateMutability": "nonpayable",
      "type": "function"
    },
    {
      "inputs": [
        {
          "internalType": "address",
          "name": "_feeToSetter",
          "type": "address"
        }
      ],
      "name": "setFeeToSetter",
      "outputs": [],
      "stateMutability": "nonpayable",
      "type": "function"
    },
    {
      "inputs": [
        {
          "internalType": "address",
          "name": "tokenA",
          "type": "address"
        },
        {
          "internalType": "address",
          "name": "tokenB",
          "type": "address"
        }
      ],
      "name": "sortTokens",
      "outputs": [
        {
          "internalType": "address",
          "name": "token0",
          "type": "address"
        },
        {
          "internalType": "address",
          "name": "token1",
          "type": "address"
        }
      ],
      "stateMutability": "pure",
      "type": "function"
    }
  ],
  "transactionHash": "0xb01cf181e125c532fc9a27c5efd8e50699787599fd571678800f22be44a51880",
  "args": [
    "0x49d531908840FDDaC744543d57CB21B91c3D9094"
  ],
  "solcInputHash": "dfd64d30f12fe9bd178922f11592f29c",
  "bytecode": "0x608060405234801561001057600080fd5b50604051620063c5380380620063c58339818101604052602081101561003557600080fd5b5051600180546001600160a01b0319166001600160a01b038316179055604051610061602082016100ee565b6020820181038252601f19601f820116604052506040516020018082805190602001908083835b602083106100a75780518252601f199092019160209182019101610088565b6001836020036101000a03801982511681845116808217855250505050505090500191505060405160208183030381529060405280519060200120600381905550506100fc565b6126ad8062003d1883390190565b613c0c806200010c6000396000f3fe608060405234801561001057600080fd5b50600436106101515760003560e01c8063a2e74af6116100cd578063d52bb6f411610081578063deba86e311610066578063deba86e314610525578063e6a439051461052d578063f46901ed1461055b57610151565b8063d52bb6f4146104d6578063db4c545e1461051d57610151565b8063b5e4aa72116100b2578063b5e4aa72146103e1578063c9c65396146103fe578063d06ca61f1461042c57610151565b8063a2e74af614610390578063ad615dec146103b857610151565b80631f00ca7411610124578063574f2ba311610109578063574f2ba31461033157806385f8c2591461033957806396ed28f91461036257610151565b80631f00ca74146101da578063544caa56146102d457610151565b8063017e7e5814610156578063054d50d41461017a578063094b7415146101b55780631e3dd18b146101bd575b600080fd5b61015e610581565b604080516001600160a01b039092168252519081900360200190f35b6101a36004803603606081101561019057600080fd5b5080359060208101359060400135610590565b60408051918252519081900360200190f35b61015e610668565b61015e600480360360208110156101d357600080fd5b5035610677565b610284600480360360408110156101f057600080fd5b8135919081019060408101602082013564010000000081111561021257600080fd5b82018360208201111561022457600080fd5b8035906020019184602083028401116401000000008311171561024657600080fd5b9190808060200260200160405190810160405280939291908181526020018383602002808284376000920191909152509295506106a1945050505050565b60408051602080825283518183015283519192839290830191858101910280838360005b838110156102c05781810151838201526020016102a8565b505050509050019250505060405180910390f35b610302600480360360408110156102ea57600080fd5b506001600160a01b03813581169160200135166107ec565b60405180836001600160a01b03168152602001826001600160a01b031681526020019250505060405180910390f35b6101a36108e0565b6101a36004803603606081101561034f57600080fd5b50803590602081013590604001356108e6565b61015e6004803603604081101561037857600080fd5b506001600160a01b03813581169160200135166109be565b6103b6600480360360208110156103a657600080fd5b50356001600160a01b0316610a6b565b005b6101a3600480360360608110156103ce57600080fd5b5080359060208101359060400135610b3e565b6103b6600480360360208110156103f757600080fd5b5035610bfa565b61015e6004803603604081101561041457600080fd5b506001600160a01b0381358116916020013516610ca9565b6102846004803603604081101561044257600080fd5b8135919081019060408101602082013564010000000081111561046457600080fd5b82018360208201111561047657600080fd5b8035906020019184602083028401116401000000008311171561049857600080fd5b919080806020026020016040519081016040528093929190818152602001838360200280828437600092019190915250929550610fe8945050505050565b610504600480360360408110156104ec57600080fd5b506001600160a01b038135811691602001351661111e565b6040805192835260208301919091528051918290030190f35b6101a36111ea565b6101a36111f0565b61015e6004803603604081101561054357600080fd5b506001600160a01b03813581169160200135166111f6565b6103b66004803603602081101561057157600080fd5b50356001600160a01b031661121c565b6000546001600160a01b031681565b60008084116105d05760405162461bcd60e51b8152600401808060200182810382526026815260200180613af56026913960400191505060405180910390fd5b6000831180156105e05750600082115b61061b5760405162461bcd60e51b8152600401808060200182810382526023815260200180613bb46023913960400191505060405180910390fd5b6000610629856103e56112aa565b9050600061063782856112aa565b905060006106518361064b886103e86112aa565b9061130c565b905080828161065c57fe5b04979650505050505050565b6001546001600160a01b031681565b6005818154811061068757600080fd5b6000918252602090912001546001600160a01b0316905081565b60606002825110156106fa576040805162461bcd60e51b815260206004820152601960248201527f53776170466163746f72793a20494e56414c49445f5041544800000000000000604482015290519081900360640190fd5b815167ffffffffffffffff8111801561071257600080fd5b5060405190808252806020026020018201604052801561073c578160200160208202803683370190505b509050828160018351038151811061075057fe5b60209081029190910101528151600019015b80156107e55760008061079e85600185038151811061077d57fe5b602002602001015186858151811061079157fe5b602002602001015161111e565b915091506107c08484815181106107b157fe5b602002602001015183836108e6565b8460018503815181106107cf57fe5b6020908102919091010152505060001901610762565b5092915050565b600080826001600160a01b0316846001600160a01b03161415610856576040805162461bcd60e51b815260206004820181905260248201527f53776170466163746f72793a204944454e544943414c5f414444524553534553604482015290519081900360640190fd5b826001600160a01b0316846001600160a01b031610610876578284610879565b83835b90925090506001600160a01b0382166108d9576040805162461bcd60e51b815260206004820152601960248201527f53776170466163746f72793a205a45524f5f4144445245535300000000000000604482015290519081900360640190fd5b9250929050565b60055490565b60008084116109265760405162461bcd60e51b8152600401808060200182810382526027815260200180613b1b6027913960400191505060405180910390fd5b6000831180156109365750600082115b6109715760405162461bcd60e51b8152600401808060200182810382526023815260200180613bb46023913960400191505060405180910390fd5b60006109896103e861098386886112aa565b906112aa565b9050600061099d6103e56109838689611366565b90506109b460018284816109ad57fe5b049061130c565b9695505050505050565b60008060006109cd85856107ec565b604080516bffffffffffffffffffffffff19606094851b811660208084019190915293851b166034820152815160288183030181526048820183528051908401206003547fff0000000000000000000000000000000000000000000000000000000000000060688401523090951b6069830152607d820152609d808201949094528151808203909401845260bd019052815191012095945050505050565b6001546001600160a01b03163314610aca576040805162461bcd60e51b815260206004820152601660248201527f53776170466163746f72793a20464f5242494444454e00000000000000000000604482015290519081900360640190fd5b6001600160a01b038116610b0f5760405162461bcd60e51b815260040180806020018281038252602c815260200180613b42602c913960400191505060405180910390fd5b6001805473ffffffffffffffffffffffffffffffffffffffff19166001600160a01b0392909216919091179055565b6000808411610b94576040805162461bcd60e51b815260206004820181905260248201527f53776170466163746f72793a20494e53554646494349454e545f414d4f554e54604482015290519081900360640190fd5b600083118015610ba45750600082115b610bdf5760405162461bcd60e51b8152600401808060200182810382526023815260200180613bb46023913960400191505060405180910390fd5b82610bea85846112aa565b81610bf157fe5b04949350505050565b6001546001600160a01b03163314610c59576040805162461bcd60e51b815260206004820152601660248201527f53776170466163746f72793a20464f5242494444454e00000000000000000000604482015290519081900360640190fd5b60008111610c985760405162461bcd60e51b8152600401808060200182810382526025815260200180613b8f6025913960400191505060405180910390fd5b610ca3816001611366565b60025550565b6000816001600160a01b0316836001600160a01b03161415610d12576040805162461bcd60e51b815260206004820181905260248201527f53776170466163746f72793a204944454e544943414c5f414444524553534553604482015290519081900360640190fd5b600080836001600160a01b0316856001600160a01b031610610d35578385610d38565b84845b90925090506001600160a01b038216610d98576040805162461bcd60e51b815260206004820152601960248201527f53776170466163746f72793a205a45524f5f4144445245535300000000000000604482015290519081900360640190fd5b6001600160a01b03828116600090815260046020908152604080832085851684529091529020541615610e12576040805162461bcd60e51b815260206004820152601860248201527f53776170466163746f72793a20504149525f4558495354530000000000000000604482015290519081900360640190fd5b600060405180602001610e249061143a565b6020820181038252601f19601f8201166040525090506000838360405160200180836001600160a01b031660601b8152601401826001600160a01b031660601b815260140192505050604051602081830303815290604052805190602001209050808251602084016000f59450846001600160a01b031663485cc95585856040518363ffffffff1660e01b815260040180836001600160a01b03168152602001826001600160a01b0316815260200192505050600060405180830381600087803b158015610ef157600080fd5b505af1158015610f05573d6000803e3d6000fd5b505050506001600160a01b0384811660008181526004602081815260408084208987168086529083528185208054978d1673ffffffffffffffffffffffffffffffffffffffff1998891681179091559383528185208686528352818520805488168517905560058054600181018255958190527f036b6384b5eca791c62761152d0c79bb0604c104a5fb6f4eb0703f3154bb3db090950180549097168417909655925483519283529082015281517f0d3648bd0f6ba80134a33ba9275ac585d9d315f0ad8355cddefde31afa28d0e9929181900390910190a35050505092915050565b6060600282511015611041576040805162461bcd60e51b815260206004820152601960248201527f53776170466163746f72793a20494e56414c49445f5041544800000000000000604482015290519081900360640190fd5b815167ffffffffffffffff8111801561105957600080fd5b50604051908082528060200260200182016040528015611083578160200160208202803683370190505b509050828160008151811061109457fe5b60200260200101818152505060005b60018351038110156107e5576000806110d88584815181106110c157fe5b602002602001015186856001018151811061079157fe5b915091506110fa8484815181106110eb57fe5b60200260200101518383610590565b84846001018151811061110957fe5b602090810291909101015250506001016110a3565b600080600061112d85856107ec565b50905060008061113d87876109be565b6001600160a01b0316630902f1ac6040518163ffffffff1660e01b815260040160606040518083038186803b15801561117557600080fd5b505afa158015611189573d6000803e3d6000fd5b505050506040513d606081101561119f57600080fd5b5080516020909101516dffffffffffffffffffffffffffff91821693501690506001600160a01b03878116908416146111d95780826111dc565b81815b909890975095505050505050565b60035481565b60025481565b60046020908152600092835260408084209091529082529020546001600160a01b031681565b6001546001600160a01b0316331461127b576040805162461bcd60e51b815260206004820152601660248201527f53776170466163746f72793a20464f5242494444454e00000000000000000000604482015290519081900360640190fd5b6000805473ffffffffffffffffffffffffffffffffffffffff19166001600160a01b0392909216919091179055565b6000826112b957506000611306565b828202828482816112c657fe5b04146113035760405162461bcd60e51b8152600401808060200182810382526021815260200180613b6e6021913960400191505060405180910390fd5b90505b92915050565b600082820183811015611303576040805162461bcd60e51b815260206004820152601b60248201527f536166654d6174683a206164646974696f6e206f766572666c6f770000000000604482015290519081900360640190fd5b600061130383836040518060400160405280601e81526020017f536166654d6174683a207375627472616374696f6e206f766572666c6f770000815250600081848411156114325760405162461bcd60e51b81526004018080602001828103825283818151815260200191508051906020019080838360005b838110156113f75781810151838201526020016113df565b50505050905090810190601f1680156114245780820380516001836020036101000a031916815260200191505b509250505060405180910390fd5b505050900390565b6126ad806114488339019056fe60806040526001600a5534801561001557600080fd5b50604080518082018252600e8082526d2429bbb0b8102628102a37b5b2b760911b6020928301528251808401845260018152603160f81b9083015282517f8b73c3c69bb8fe3d512ecc4cf759cc79239f7b179b0ffacaa9a75d522b39400f818401527f87dad95daa867d5e0494900019e929bdf17f889d19a25c4156e2329f51c7c345818501527fc89efdaa54c0f20c7adf612882df0950f5a951637e0307cdcb4c672f298b8bc660608201524660808201523060a0808301919091528451808303909101815260c0909101909352825192909101919091209055600080546001600160a01b0319163317905561259c806101116000396000f3fe608060405234801561001057600080fd5b50600436106101da5760003560e01c80637464fc3d11610104578063ba9a7a56116100a2578063d505accf11610071578063d505accf146105a1578063d939fa8a146105f2578063dd62ed3e146105fa578063fff6cae914610628576101da565b8063ba9a7a5614610563578063bc25cf771461056b578063c45a015514610591578063d21220a714610599576101da565b8063948023ab116100de578063948023ab146104fb57806395d89b4114610503578063a9059cbb1461050b578063ad9b802414610537576101da565b80637464fc3d1461048e5780637ecebe001461049657806389afcb44146104bc576101da565b806330adf81f1161017c5780635909c0d51161014b5780635909c0d5146104325780635a3d54931461043a5780636a6278421461044257806370a0823114610468576101da565b806330adf81f146103d6578063313ce567146103de5780633644e515146103fc578063485cc95514610404576101da565b8063095ea7b3116101b8578063095ea7b3146103225780630dfe16811461036257806318160ddd1461038657806323b872dd146103a0576101da565b8063022c0d9f146101df57806306fdde031461026d5780630902f1ac146102ea575b600080fd5b61026b600480360360808110156101f557600080fd5b8135916020810135916001600160a01b03604083013516919081019060808101606082013564010000000081111561022c57600080fd5b82018360208201111561023e57600080fd5b8035906020019184600183028401116401000000008311171561026057600080fd5b509092509050610630565b005b610275610b92565b6040805160208082528351818301528351919283929083019185019080838360005b838110156102af578181015183820152602001610297565b50505050905090810190601f1680156102dc5780820380516001836020036101000a031916815260200191505b509250505060405180910390f35b6102f2610bcb565b604080516001600160701b03948516815292909316602083015263ffffffff168183015290519081900360600190f35b61034e6004803603604081101561033857600080fd5b506001600160a01b038135169060200135610bf5565b604080519115158252519081900360200190f35b61036a610c0c565b604080516001600160a01b039092168252519081900360200190f35b61038e610c1b565b60408051918252519081900360200190f35b61034e600480360360608110156103b657600080fd5b506001600160a01b03813581169160208101359091169060400135610c21565b61038e610cb5565b6103e6610cd9565b6040805160ff9092168252519081900360200190f35b61038e610cde565b61026b6004803603604081101561041a57600080fd5b506001600160a01b0381358116916020013516610ce4565b61038e610d89565b61038e610d8f565b61038e6004803603602081101561045857600080fd5b50356001600160a01b0316610d95565b61038e6004803603602081101561047e57600080fd5b50356001600160a01b0316611070565b61038e611082565b61038e600480360360208110156104ac57600080fd5b50356001600160a01b0316611088565b6104e2600480360360208110156104d257600080fd5b50356001600160a01b031661109a565b6040805192835260208301919091528051918290030190f35b61036a61142d565b61027561143c565b61034e6004803603604081101561052157600080fd5b506001600160a01b038135169060200135611475565b61038e6004803603604081101561054d57600080fd5b506001600160a01b038135169060200135611482565b61038e61155a565b61026b6004803603602081101561058157600080fd5b50356001600160a01b0316611560565b61036a6116d1565b61036a6116e0565b61026b600480360360e08110156105b757600080fd5b506001600160a01b03813581169160208101359091169060408101359060608101359060ff6080820135169060a08101359060c001356116ef565b61036a611917565b61038e6004803603604081101561061057600080fd5b506001600160a01b0381358116916020013516611926565b61026b611943565b600a5460011461067a576040805162461bcd60e51b815260206004820152601060248201526f1359195e14ddd85c0e881313d0d2d15160821b604482015290519081900360640190fd5b6000600a558415158061068d5750600084115b6106de576040805162461bcd60e51b815260206004820181905260248201527f537761703a20494e53554646494349454e545f4f55545055545f414d4f554e54604482015290519081900360640190fd5b6000806106e9610bcb565b5091509150816001600160701b03168710801561070e5750806001600160701b031686105b61075f576040805162461bcd60e51b815260206004820152601c60248201527f537761703a20494e53554646494349454e545f4c495155494449545900000000604482015290519081900360640190fd5b60015460025460009182916001600160a01b0391821691908116908916821480159061079d5750806001600160a01b0316896001600160a01b031614155b6107ee576040805162461bcd60e51b815260206004820152601060248201527f537761703a20494e56414c49445f544f00000000000000000000000000000000604482015290519081900360640190fd5b8a156107ff576107ff828a8d611aa4565b891561081057610810818a8c611aa4565b86156108c257886001600160a01b031663226dc882338d8d8c8c6040518663ffffffff1660e01b815260040180866001600160a01b03168152602001858152602001848152602001806020018281038252848482818152602001925080828437600081840152601f19601f8201169050808301925050509650505050505050600060405180830381600087803b1580156108a957600080fd5b505af11580156108bd573d6000803e3d6000fd5b505050505b604080516370a0823160e01b815230600482015290516001600160a01b038416916370a08231916024808301926020929190829003018186803b15801561090857600080fd5b505afa15801561091c573d6000803e3d6000fd5b505050506040513d602081101561093257600080fd5b5051604080516370a0823160e01b815230600482015290519195506001600160a01b038316916370a0823191602480820192602092909190829003018186803b15801561097e57600080fd5b505afa158015610992573d6000803e3d6000fd5b505050506040513d60208110156109a857600080fd5b5051925060009150506001600160701b0385168a900383116109cb5760006109da565b89856001600160701b03160383035b9050600089856001600160701b03160383116109f7576000610a06565b89856001600160701b03160383035b90506000821180610a175750600081115b610a68576040805162461bcd60e51b815260206004820152601f60248201527f537761703a20494e53554646494349454e545f494e5055545f414d4f554e5400604482015290519081900360640190fd5b6000610a8a610a78846003611c56565b610a84876103e8611c56565b90611cb6565b90506000610a9c610a78846003611c56565b9050610ac1620f4240610abb6001600160701b038b8116908b16611c56565b90611c56565b610acb8383611c56565b1015610b1e576040805162461bcd60e51b815260206004820152600760248201527f537761703a204b00000000000000000000000000000000000000000000000000604482015290519081900360640190fd5b5050610b2c84848888611cf8565b60408051838152602081018390528082018d9052606081018c905290516001600160a01b038b169133917fd78ad95fa46c994b6551d0da85fc275fe613ce37657fb8d5e3d130840159d8229181900360800190a350506001600a55505050505050505050565b6040518060400160405280600e81526020017f4853776170204c5020546f6b656e00000000000000000000000000000000000081525081565b6003546001600160701b0380821692600160701b830490911691600160e01b900463ffffffff1690565b6000610c02338484611ecf565b5060015b92915050565b6001546001600160a01b031681565b600b5481565b6001600160a01b0383166000908152600d6020908152604080832033845290915281205460001914610ca0576001600160a01b0384166000908152600d60209081526040808320338452909152902054610c7b9083611cb6565b6001600160a01b0385166000908152600d602090815260408083203384529091529020555b610cab848484611f31565b5060019392505050565b7f6e71edae12b1b97f4d1f60370fef10105fa2faae0126114a169c64845d6126c981565b601281565b600e5481565b6000546001600160a01b03163314610d43576040805162461bcd60e51b815260206004820152601360248201527f4d646578537761703a20464f5242494444454e00000000000000000000000000604482015290519081900360640190fd5b600180546001600160a01b039384167fffffffffffffffffffffffff00000000000000000000000000000000000000009182161790915560028054929093169116179055565b60075481565b60085481565b6000600a54600114610de1576040805162461bcd60e51b815260206004820152601060248201526f1359195e14ddd85c0e881313d0d2d15160821b604482015290519081900360640190fd5b6000600a81905580610df1610bcb565b50600154604080516370a0823160e01b815230600482015290519395509193506000926001600160a01b03909116916370a08231916024808301926020929190829003018186803b158015610e4557600080fd5b505afa158015610e59573d6000803e3d6000fd5b505050506040513d6020811015610e6f57600080fd5b5051600254604080516370a0823160e01b815230600482015290519293506000926001600160a01b03909216916370a0823191602480820192602092909190829003018186803b158015610ec257600080fd5b505afa158015610ed6573d6000803e3d6000fd5b505050506040513d6020811015610eec57600080fd5b505190506000610f05836001600160701b038716611cb6565b90506000610f1c836001600160701b038716611cb6565b90506000610f2a8787611fdf565b600b5490915080610f6157610f4d6103e8610a84610f488787611c56565b6121a3565b9850610f5c60006103e86121f5565b610fa4565b610fa16001600160701b038916610f788684611c56565b81610f7f57fe5b046001600160701b038916610f948685611c56565b81610f9b57fe5b04612280565b98505b60008911610fe35760405162461bcd60e51b81526004018080602001828103825260278152602001806125406027913960400191505060405180910390fd5b610fed8a8a6121f5565b610ff986868a8a611cf8565b81156110235760035461101f906001600160701b0380821691600160701b900416611c56565b6009555b6040805185815260208101859052815133927f4c209b5fc8ad50758f13e2e1088ba56a560dff690a1c6fef26394f4c03821c4f928290030190a250506001600a5550949695505050505050565b600c6020526000908152604090205481565b60095481565b600f6020526000908152604090205481565b600080600a546001146110e7576040805162461bcd60e51b815260206004820152601060248201526f1359195e14ddd85c0e881313d0d2d15160821b604482015290519081900360640190fd5b6000600a819055806110f7610bcb565b50600154600254604080516370a0823160e01b815230600482015290519496509294506001600160a01b039182169391169160009184916370a08231916024808301926020929190829003018186803b15801561115357600080fd5b505afa158015611167573d6000803e3d6000fd5b505050506040513d602081101561117d57600080fd5b5051604080516370a0823160e01b815230600482015290519192506000916001600160a01b038516916370a08231916024808301926020929190829003018186803b1580156111cb57600080fd5b505afa1580156111df573d6000803e3d6000fd5b505050506040513d60208110156111f557600080fd5b5051306000908152600c60205260408120549192506112148888611fdf565b600b54909150806112258487611c56565b8161122c57fe5b049a508061123a8486611c56565b8161124157fe5b04995060008b118015611254575060008a115b61128f5760405162461bcd60e51b81526004018080602001828103825260278152602001806124f86027913960400191505060405180910390fd5b6112993084612297565b6112a4878d8d611aa4565b6112af868d8c611aa4565b604080516370a0823160e01b815230600482015290516001600160a01b038916916370a08231916024808301926020929190829003018186803b1580156112f557600080fd5b505afa158015611309573d6000803e3d6000fd5b505050506040513d602081101561131f57600080fd5b5051604080516370a0823160e01b815230600482015290519196506001600160a01b038816916370a0823191602480820192602092909190829003018186803b15801561136b57600080fd5b505afa15801561137f573d6000803e3d6000fd5b505050506040513d602081101561139557600080fd5b505193506113a585858b8b611cf8565b81156113cf576003546113cb906001600160701b0380821691600160701b900416611c56565b6009555b604080518c8152602081018c905281516001600160a01b038f169233927fdccd412f0b1252819cb1fd330b93224ca42612892bb3f4f789976e6d81936496929081900390910190a35050505050505050506001600a81905550915091565b6004546001600160a01b031681565b6040518060400160405280600481526020017f484d44580000000000000000000000000000000000000000000000000000000081525081565b6000610c02338484611f31565b6001546000906001600160a01b038481169116148015906114b157506002546001600160a01b03848116911614155b806114c557506003546001600160701b0316155b806114e05750600354600160701b90046001600160701b0316155b156114ed57506000610c06565b6001546001600160a01b03848116911614156115365760035461152f906001600160701b038082169161152991600160701b9091041685611c56565b90612328565b9050610c06565b60035461152f906001600160701b03600160701b8204811691611529911685611c56565b6103e881565b600a546001146115aa576040805162461bcd60e51b815260206004820152601060248201526f1359195e14ddd85c0e881313d0d2d15160821b604482015290519081900360640190fd5b6000600a55600154600254600354604080516370a0823160e01b815230600482015290516001600160a01b039485169490931692611653928592879261164e926001600160701b03169185916370a0823191602480820192602092909190829003018186803b15801561161c57600080fd5b505afa158015611630573d6000803e3d6000fd5b505050506040513d602081101561164657600080fd5b505190611cb6565b611aa4565b6116c7818461164e6003600e9054906101000a90046001600160701b03166001600160701b0316856001600160a01b03166370a08231306040518263ffffffff1660e01b815260040180826001600160a01b0316815260200191505060206040518083038186803b15801561161c57600080fd5b50506001600a5550565b6000546001600160a01b031681565b6002546001600160a01b031681565b42841015611744576040805162461bcd60e51b815260206004820152600d60248201527f537761703a204558504952454400000000000000000000000000000000000000604482015290519081900360640190fd5b600e546001600160a01b038089166000818152600f602090815260408083208054600180820190925582517f6e71edae12b1b97f4d1f60370fef10105fa2faae0126114a169c64845d6126c98186015280840196909652958d166060860152608085018c905260a085019590955260c08085018b90528151808603909101815260e0850182528051908301207f19010000000000000000000000000000000000000000000000000000000000006101008601526101028501969096526101228085019690965280518085039096018652610142840180825286519683019690962095839052610162840180825286905260ff89166101828501526101a284018890526101c28401879052519193926101e280820193601f1981019281900390910190855afa15801561187a573d6000803e3d6000fd5b5050604051601f1901519150506001600160a01b038116158015906118b05750886001600160a01b0316816001600160a01b0316145b611901576040805162461bcd60e51b815260206004820152601760248201527f537761703a20494e56414c49445f5349474e4154555245000000000000000000604482015290519081900360640190fd5b61190c898989611ecf565b505050505050505050565b6005546001600160a01b031681565b600d60209081526000928352604080842090915290825290205481565b600a5460011461198d576040805162461bcd60e51b815260206004820152601060248201526f1359195e14ddd85c0e881313d0d2d15160821b604482015290519081900360640190fd5b6000600a55600154604080516370a0823160e01b81523060048201529051611a9d926001600160a01b0316916370a08231916024808301926020929190829003018186803b1580156119de57600080fd5b505afa1580156119f2573d6000803e3d6000fd5b505050506040513d6020811015611a0857600080fd5b5051600254604080516370a0823160e01b815230600482015290516001600160a01b03909216916370a0823191602480820192602092909190829003018186803b158015611a5557600080fd5b505afa158015611a69573d6000803e3d6000fd5b505050506040513d6020811015611a7f57600080fd5b50516003546001600160701b0380821691600160701b900416611cf8565b6001600a55565b604080518082018252601981527f7472616e7366657228616464726573732c75696e74323536290000000000000060209182015281516001600160a01b0385811660248301526044808301869052845180840390910181526064909201845291810180516001600160e01b03167fa9059cbb0000000000000000000000000000000000000000000000000000000017815292518151600094859489169392918291908083835b60208310611b695780518252601f199092019160209182019101611b4a565b6001836020036101000a0380198251168184511680821785525050505050509050019150506000604051808303816000865af19150503d8060008114611bcb576040519150601f19603f3d011682016040523d82523d6000602084013e611bd0565b606091505b5091509150818015611bfe575080511580611bfe5750808060200190516020811015611bfb57600080fd5b50515b611c4f576040805162461bcd60e51b815260206004820152601560248201527f537761703a205452414e534645525f4641494c45440000000000000000000000604482015290519081900360640190fd5b5050505050565b600082611c6557506000610c06565b82820282848281611c7257fe5b0414611caf5760405162461bcd60e51b815260040180806020018281038252602181526020018061251f6021913960400191505060405180910390fd5b9392505050565b6000611caf83836040518060400160405280601e81526020017f536166654d6174683a207375627472616374696f6e206f766572666c6f77000081525061236a565b6001600160701b038411801590611d1657506001600160701b038311155b611d67576040805162461bcd60e51b815260206004820152601260248201527f4d646578537761703a204f564552464c4f570000000000000000000000000000604482015290519081900360640190fd5b60035463ffffffff42811691600160e01b90048116820390811615801590611d9757506001600160701b03841615155b8015611dab57506001600160701b03831615155b15611e16578063ffffffff16611dd385611dc486612401565b6001600160e01b031690612413565b600780546001600160e01b03929092169290920201905563ffffffff8116611dfe84611dc487612401565b600880546001600160e01b0392909216929092020190555b600380546dffffffffffffffffffffffffffff19166001600160701b03888116919091177fffffffff0000000000000000000000000000ffffffffffffffffffffffffffff16600160701b8883168102919091176001600160e01b0316600160e01b63ffffffff871602179283905560408051848416815291909304909116602082015281517f1c411e9a96e071241c2f21f7726b17ae89e3cab4c78be50e062b03a9fffbbad1929181900390910190a1505050505050565b6001600160a01b038084166000818152600d6020908152604080832094871680845294825291829020859055815185815291517f8c5be1e5ebec7d5bd14f71427d1e84f3dd0314c0f7b2291e5b200ac8c7c3b9259281900390910190a3505050565b6001600160a01b0383166000908152600c6020526040902054611f549082611cb6565b6001600160a01b038085166000908152600c60205260408082209390935590841681522054611f839082612438565b6001600160a01b038084166000818152600c602090815260409182902094909455805185815290519193928716927fddf252ad1be2c89b69c2b068fc378daa952ba7f163c4a11628f55a4df523b3ef92918290030190a3505050565b60008054604080517f017e7e58000000000000000000000000000000000000000000000000000000008152905183926001600160a01b03169163017e7e58916004808301926020929190829003018186803b15801561203d57600080fd5b505afa158015612051573d6000803e3d6000fd5b505050506040513d602081101561206757600080fd5b50516009546001600160a01b03821615801594509192509061218f57801561218a5760006120a4610f486001600160701b03888116908816611c56565b905060006120b1836121a3565b9050808211156121875760006120d36120ca8484611cb6565b600b5490611c56565b905060006121638361215d60008054906101000a90046001600160a01b03166001600160a01b031663deba86e36040518163ffffffff1660e01b815260040160206040518083038186803b15801561212a57600080fd5b505afa15801561213e573d6000803e3d6000fd5b505050506040513d602081101561215457600080fd5b50518790611c56565b90612438565b9050600081838161217057fe5b04905080156121835761218387826121f5565b5050505b50505b61219b565b801561219b5760006009555b505092915050565b600060038211156121e6575080600160028204015b818110156121e0578091506002818285816121cf57fe5b0401816121d857fe5b0490506121b8565b506121f0565b81156121f0575060015b919050565b600b546122029082612438565b600b556001600160a01b0382166000908152600c60205260409020546122289082612438565b6001600160a01b0383166000818152600c602090815260408083209490945583518581529351929391927fddf252ad1be2c89b69c2b068fc378daa952ba7f163c4a11628f55a4df523b3ef9281900390910190a35050565b6000818311156122905781611caf565b5090919050565b6001600160a01b0382166000908152600c60205260409020546122ba9082611cb6565b6001600160a01b0383166000908152600c6020526040902055600b546122e09082611cb6565b600b556040805182815290516000916001600160a01b038516917fddf252ad1be2c89b69c2b068fc378daa952ba7f163c4a11628f55a4df523b3ef9181900360200190a35050565b6000611caf83836040518060400160405280601a81526020017f536166654d6174683a206469766973696f6e206279207a65726f000000000000815250612492565b600081848411156123f95760405162461bcd60e51b81526004018080602001828103825283818151815260200191508051906020019080838360005b838110156123be5781810151838201526020016123a6565b50505050905090810190601f1680156123eb5780820380516001836020036101000a031916815260200191505b509250505060405180910390fd5b505050900390565b6001600160701b0316600160701b0290565b60006001600160701b0382166001600160e01b0384168161243057fe5b049392505050565b600082820183811015611caf576040805162461bcd60e51b815260206004820152601b60248201527f536166654d6174683a206164646974696f6e206f766572666c6f770000000000604482015290519081900360640190fd5b600081836124e15760405162461bcd60e51b81526020600482018181528351602484015283519092839260449091019190850190808383600083156123be5781810151838201526020016123a6565b5060008385816124ed57fe5b049594505050505056fe4d646578537761703a20494e53554646494349454e545f4c49515549444954595f4255524e4544536166654d6174683a206d756c7469706c69636174696f6e206f766572666c6f774d646578537761703a20494e53554646494349454e545f4c49515549444954595f4d494e544544a2646970667358221220cb1e7113db6055d2d842c276659ea25beaa1a2de9db8c1efb81b7aa8c62f905464736f6c6343000706003353776170466163746f72793a20494e53554646494349454e545f494e5055545f414d4f554e5453776170466163746f72793a20494e53554646494349454e545f4f55545055545f414d4f554e544d64657853776170466163746f72793a20466565546f536574746572206973207a65726f2061646472657373536166654d6174683a206d756c7469706c69636174696f6e206f766572666c6f774d64657853776170466163746f72793a204645455f544f5f524154455f4f564552464c4f5753776170466163746f72793a20494e53554646494349454e545f4c4951554944495459a2646970667358221220c23fa14978c840b7c02e65074ac995a0e2c2b3959c7a7726eac6e1ccc81c4d7264736f6c6343000706003360806040526001600a5534801561001557600080fd5b50604080518082018252600e8082526d2429bbb0b8102628102a37b5b2b760911b6020928301528251808401845260018152603160f81b9083015282517f8b73c3c69bb8fe3d512ecc4cf759cc79239f7b179b0ffacaa9a75d522b39400f818401527f87dad95daa867d5e0494900019e929bdf17f889d19a25c4156e2329f51c7c345818501527fc89efdaa54c0f20c7adf612882df0950f5a951637e0307cdcb4c672f298b8bc660608201524660808201523060a0808301919091528451808303909101815260c0909101909352825192909101919091209055600080546001600160a01b0319163317905561259c806101116000396000f3fe608060405234801561001057600080fd5b50600436106101da5760003560e01c80637464fc3d11610104578063ba9a7a56116100a2578063d505accf11610071578063d505accf146105a1578063d939fa8a146105f2578063dd62ed3e146105fa578063fff6cae914610628576101da565b8063ba9a7a5614610563578063bc25cf771461056b578063c45a015514610591578063d21220a714610599576101da565b8063948023ab116100de578063948023ab146104fb57806395d89b4114610503578063a9059cbb1461050b578063ad9b802414610537576101da565b80637464fc3d1461048e5780637ecebe001461049657806389afcb44146104bc576101da565b806330adf81f1161017c5780635909c0d51161014b5780635909c0d5146104325780635a3d54931461043a5780636a6278421461044257806370a0823114610468576101da565b806330adf81f146103d6578063313ce567146103de5780633644e515146103fc578063485cc95514610404576101da565b8063095ea7b3116101b8578063095ea7b3146103225780630dfe16811461036257806318160ddd1461038657806323b872dd146103a0576101da565b8063022c0d9f146101df57806306fdde031461026d5780630902f1ac146102ea575b600080fd5b61026b600480360360808110156101f557600080fd5b8135916020810135916001600160a01b03604083013516919081019060808101606082013564010000000081111561022c57600080fd5b82018360208201111561023e57600080fd5b8035906020019184600183028401116401000000008311171561026057600080fd5b509092509050610630565b005b610275610b92565b6040805160208082528351818301528351919283929083019185019080838360005b838110156102af578181015183820152602001610297565b50505050905090810190601f1680156102dc5780820380516001836020036101000a031916815260200191505b509250505060405180910390f35b6102f2610bcb565b604080516001600160701b03948516815292909316602083015263ffffffff168183015290519081900360600190f35b61034e6004803603604081101561033857600080fd5b506001600160a01b038135169060200135610bf5565b604080519115158252519081900360200190f35b61036a610c0c565b604080516001600160a01b039092168252519081900360200190f35b61038e610c1b565b60408051918252519081900360200190f35b61034e600480360360608110156103b657600080fd5b506001600160a01b03813581169160208101359091169060400135610c21565b61038e610cb5565b6103e6610cd9565b6040805160ff9092168252519081900360200190f35b61038e610cde565b61026b6004803603604081101561041a57600080fd5b506001600160a01b0381358116916020013516610ce4565b61038e610d89565b61038e610d8f565b61038e6004803603602081101561045857600080fd5b50356001600160a01b0316610d95565b61038e6004803603602081101561047e57600080fd5b50356001600160a01b0316611070565b61038e611082565b61038e600480360360208110156104ac57600080fd5b50356001600160a01b0316611088565b6104e2600480360360208110156104d257600080fd5b50356001600160a01b031661109a565b6040805192835260208301919091528051918290030190f35b61036a61142d565b61027561143c565b61034e6004803603604081101561052157600080fd5b506001600160a01b038135169060200135611475565b61038e6004803603604081101561054d57600080fd5b506001600160a01b038135169060200135611482565b61038e61155a565b61026b6004803603602081101561058157600080fd5b50356001600160a01b0316611560565b61036a6116d1565b61036a6116e0565b61026b600480360360e08110156105b757600080fd5b506001600160a01b03813581169160208101359091169060408101359060608101359060ff6080820135169060a08101359060c001356116ef565b61036a611917565b61038e6004803603604081101561061057600080fd5b506001600160a01b0381358116916020013516611926565b61026b611943565b600a5460011461067a576040805162461bcd60e51b815260206004820152601060248201526f1359195e14ddd85c0e881313d0d2d15160821b604482015290519081900360640190fd5b6000600a558415158061068d5750600084115b6106de576040805162461bcd60e51b815260206004820181905260248201527f537761703a20494e53554646494349454e545f4f55545055545f414d4f554e54604482015290519081900360640190fd5b6000806106e9610bcb565b5091509150816001600160701b03168710801561070e5750806001600160701b031686105b61075f576040805162461bcd60e51b815260206004820152601c60248201527f537761703a20494e53554646494349454e545f4c495155494449545900000000604482015290519081900360640190fd5b60015460025460009182916001600160a01b0391821691908116908916821480159061079d5750806001600160a01b0316896001600160a01b031614155b6107ee576040805162461bcd60e51b815260206004820152601060248201527f537761703a20494e56414c49445f544f00000000000000000000000000000000604482015290519081900360640190fd5b8a156107ff576107ff828a8d611aa4565b891561081057610810818a8c611aa4565b86156108c257886001600160a01b031663226dc882338d8d8c8c6040518663ffffffff1660e01b815260040180866001600160a01b03168152602001858152602001848152602001806020018281038252848482818152602001925080828437600081840152601f19601f8201169050808301925050509650505050505050600060405180830381600087803b1580156108a957600080fd5b505af11580156108bd573d6000803e3d6000fd5b505050505b604080516370a0823160e01b815230600482015290516001600160a01b038416916370a08231916024808301926020929190829003018186803b15801561090857600080fd5b505afa15801561091c573d6000803e3d6000fd5b505050506040513d602081101561093257600080fd5b5051604080516370a0823160e01b815230600482015290519195506001600160a01b038316916370a0823191602480820192602092909190829003018186803b15801561097e57600080fd5b505afa158015610992573d6000803e3d6000fd5b505050506040513d60208110156109a857600080fd5b5051925060009150506001600160701b0385168a900383116109cb5760006109da565b89856001600160701b03160383035b9050600089856001600160701b03160383116109f7576000610a06565b89856001600160701b03160383035b90506000821180610a175750600081115b610a68576040805162461bcd60e51b815260206004820152601f60248201527f537761703a20494e53554646494349454e545f494e5055545f414d4f554e5400604482015290519081900360640190fd5b6000610a8a610a78846003611c56565b610a84876103e8611c56565b90611cb6565b90506000610a9c610a78846003611c56565b9050610ac1620f4240610abb6001600160701b038b8116908b16611c56565b90611c56565b610acb8383611c56565b1015610b1e576040805162461bcd60e51b815260206004820152600760248201527f537761703a204b00000000000000000000000000000000000000000000000000604482015290519081900360640190fd5b5050610b2c84848888611cf8565b60408051838152602081018390528082018d9052606081018c905290516001600160a01b038b169133917fd78ad95fa46c994b6551d0da85fc275fe613ce37657fb8d5e3d130840159d8229181900360800190a350506001600a55505050505050505050565b6040518060400160405280600e81526020017f4853776170204c5020546f6b656e00000000000000000000000000000000000081525081565b6003546001600160701b0380821692600160701b830490911691600160e01b900463ffffffff1690565b6000610c02338484611ecf565b5060015b92915050565b6001546001600160a01b031681565b600b5481565b6001600160a01b0383166000908152600d6020908152604080832033845290915281205460001914610ca0576001600160a01b0384166000908152600d60209081526040808320338452909152902054610c7b9083611cb6565b6001600160a01b0385166000908152600d602090815260408083203384529091529020555b610cab848484611f31565b5060019392505050565b7f6e71edae12b1b97f4d1f60370fef10105fa2faae0126114a169c64845d6126c981565b601281565b600e5481565b6000546001600160a01b03163314610d43576040805162461bcd60e51b815260206004820152601360248201527f4d646578537761703a20464f5242494444454e00000000000000000000000000604482015290519081900360640190fd5b600180546001600160a01b039384167fffffffffffffffffffffffff00000000000000000000000000000000000000009182161790915560028054929093169116179055565b60075481565b60085481565b6000600a54600114610de1576040805162461bcd60e51b815260206004820152601060248201526f1359195e14ddd85c0e881313d0d2d15160821b604482015290519081900360640190fd5b6000600a81905580610df1610bcb565b50600154604080516370a0823160e01b815230600482015290519395509193506000926001600160a01b03909116916370a08231916024808301926020929190829003018186803b158015610e4557600080fd5b505afa158015610e59573d6000803e3d6000fd5b505050506040513d6020811015610e6f57600080fd5b5051600254604080516370a0823160e01b815230600482015290519293506000926001600160a01b03909216916370a0823191602480820192602092909190829003018186803b158015610ec257600080fd5b505afa158015610ed6573d6000803e3d6000fd5b505050506040513d6020811015610eec57600080fd5b505190506000610f05836001600160701b038716611cb6565b90506000610f1c836001600160701b038716611cb6565b90506000610f2a8787611fdf565b600b5490915080610f6157610f4d6103e8610a84610f488787611c56565b6121a3565b9850610f5c60006103e86121f5565b610fa4565b610fa16001600160701b038916610f788684611c56565b81610f7f57fe5b046001600160701b038916610f948685611c56565b81610f9b57fe5b04612280565b98505b60008911610fe35760405162461bcd60e51b81526004018080602001828103825260278152602001806125406027913960400191505060405180910390fd5b610fed8a8a6121f5565b610ff986868a8a611cf8565b81156110235760035461101f906001600160701b0380821691600160701b900416611c56565b6009555b6040805185815260208101859052815133927f4c209b5fc8ad50758f13e2e1088ba56a560dff690a1c6fef26394f4c03821c4f928290030190a250506001600a5550949695505050505050565b600c6020526000908152604090205481565b60095481565b600f6020526000908152604090205481565b600080600a546001146110e7576040805162461bcd60e51b815260206004820152601060248201526f1359195e14ddd85c0e881313d0d2d15160821b604482015290519081900360640190fd5b6000600a819055806110f7610bcb565b50600154600254604080516370a0823160e01b815230600482015290519496509294506001600160a01b039182169391169160009184916370a08231916024808301926020929190829003018186803b15801561115357600080fd5b505afa158015611167573d6000803e3d6000fd5b505050506040513d602081101561117d57600080fd5b5051604080516370a0823160e01b815230600482015290519192506000916001600160a01b038516916370a08231916024808301926020929190829003018186803b1580156111cb57600080fd5b505afa1580156111df573d6000803e3d6000fd5b505050506040513d60208110156111f557600080fd5b5051306000908152600c60205260408120549192506112148888611fdf565b600b54909150806112258487611c56565b8161122c57fe5b049a508061123a8486611c56565b8161124157fe5b04995060008b118015611254575060008a115b61128f5760405162461bcd60e51b81526004018080602001828103825260278152602001806124f86027913960400191505060405180910390fd5b6112993084612297565b6112a4878d8d611aa4565b6112af868d8c611aa4565b604080516370a0823160e01b815230600482015290516001600160a01b038916916370a08231916024808301926020929190829003018186803b1580156112f557600080fd5b505afa158015611309573d6000803e3d6000fd5b505050506040513d602081101561131f57600080fd5b5051604080516370a0823160e01b815230600482015290519196506001600160a01b038816916370a0823191602480820192602092909190829003018186803b15801561136b57600080fd5b505afa15801561137f573d6000803e3d6000fd5b505050506040513d602081101561139557600080fd5b505193506113a585858b8b611cf8565b81156113cf576003546113cb906001600160701b0380821691600160701b900416611c56565b6009555b604080518c8152602081018c905281516001600160a01b038f169233927fdccd412f0b1252819cb1fd330b93224ca42612892bb3f4f789976e6d81936496929081900390910190a35050505050505050506001600a81905550915091565b6004546001600160a01b031681565b6040518060400160405280600481526020017f484d44580000000000000000000000000000000000000000000000000000000081525081565b6000610c02338484611f31565b6001546000906001600160a01b038481169116148015906114b157506002546001600160a01b03848116911614155b806114c557506003546001600160701b0316155b806114e05750600354600160701b90046001600160701b0316155b156114ed57506000610c06565b6001546001600160a01b03848116911614156115365760035461152f906001600160701b038082169161152991600160701b9091041685611c56565b90612328565b9050610c06565b60035461152f906001600160701b03600160701b8204811691611529911685611c56565b6103e881565b600a546001146115aa576040805162461bcd60e51b815260206004820152601060248201526f1359195e14ddd85c0e881313d0d2d15160821b604482015290519081900360640190fd5b6000600a55600154600254600354604080516370a0823160e01b815230600482015290516001600160a01b039485169490931692611653928592879261164e926001600160701b03169185916370a0823191602480820192602092909190829003018186803b15801561161c57600080fd5b505afa158015611630573d6000803e3d6000fd5b505050506040513d602081101561164657600080fd5b505190611cb6565b611aa4565b6116c7818461164e6003600e9054906101000a90046001600160701b03166001600160701b0316856001600160a01b03166370a08231306040518263ffffffff1660e01b815260040180826001600160a01b0316815260200191505060206040518083038186803b15801561161c57600080fd5b50506001600a5550565b6000546001600160a01b031681565b6002546001600160a01b031681565b42841015611744576040805162461bcd60e51b815260206004820152600d60248201527f537761703a204558504952454400000000000000000000000000000000000000604482015290519081900360640190fd5b600e546001600160a01b038089166000818152600f602090815260408083208054600180820190925582517f6e71edae12b1b97f4d1f60370fef10105fa2faae0126114a169c64845d6126c98186015280840196909652958d166060860152608085018c905260a085019590955260c08085018b90528151808603909101815260e0850182528051908301207f19010000000000000000000000000000000000000000000000000000000000006101008601526101028501969096526101228085019690965280518085039096018652610142840180825286519683019690962095839052610162840180825286905260ff89166101828501526101a284018890526101c28401879052519193926101e280820193601f1981019281900390910190855afa15801561187a573d6000803e3d6000fd5b5050604051601f1901519150506001600160a01b038116158015906118b05750886001600160a01b0316816001600160a01b0316145b611901576040805162461bcd60e51b815260206004820152601760248201527f537761703a20494e56414c49445f5349474e4154555245000000000000000000604482015290519081900360640190fd5b61190c898989611ecf565b505050505050505050565b6005546001600160a01b031681565b600d60209081526000928352604080842090915290825290205481565b600a5460011461198d576040805162461bcd60e51b815260206004820152601060248201526f1359195e14ddd85c0e881313d0d2d15160821b604482015290519081900360640190fd5b6000600a55600154604080516370a0823160e01b81523060048201529051611a9d926001600160a01b0316916370a08231916024808301926020929190829003018186803b1580156119de57600080fd5b505afa1580156119f2573d6000803e3d6000fd5b505050506040513d6020811015611a0857600080fd5b5051600254604080516370a0823160e01b815230600482015290516001600160a01b03909216916370a0823191602480820192602092909190829003018186803b158015611a5557600080fd5b505afa158015611a69573d6000803e3d6000fd5b505050506040513d6020811015611a7f57600080fd5b50516003546001600160701b0380821691600160701b900416611cf8565b6001600a55565b604080518082018252601981527f7472616e7366657228616464726573732c75696e74323536290000000000000060209182015281516001600160a01b0385811660248301526044808301869052845180840390910181526064909201845291810180516001600160e01b03167fa9059cbb0000000000000000000000000000000000000000000000000000000017815292518151600094859489169392918291908083835b60208310611b695780518252601f199092019160209182019101611b4a565b6001836020036101000a0380198251168184511680821785525050505050509050019150506000604051808303816000865af19150503d8060008114611bcb576040519150601f19603f3d011682016040523d82523d6000602084013e611bd0565b606091505b5091509150818015611bfe575080511580611bfe5750808060200190516020811015611bfb57600080fd5b50515b611c4f576040805162461bcd60e51b815260206004820152601560248201527f537761703a205452414e534645525f4641494c45440000000000000000000000604482015290519081900360640190fd5b5050505050565b600082611c6557506000610c06565b82820282848281611c7257fe5b0414611caf5760405162461bcd60e51b815260040180806020018281038252602181526020018061251f6021913960400191505060405180910390fd5b9392505050565b6000611caf83836040518060400160405280601e81526020017f536166654d6174683a207375627472616374696f6e206f766572666c6f77000081525061236a565b6001600160701b038411801590611d1657506001600160701b038311155b611d67576040805162461bcd60e51b815260206004820152601260248201527f4d646578537761703a204f564552464c4f570000000000000000000000000000604482015290519081900360640190fd5b60035463ffffffff42811691600160e01b90048116820390811615801590611d9757506001600160701b03841615155b8015611dab57506001600160701b03831615155b15611e16578063ffffffff16611dd385611dc486612401565b6001600160e01b031690612413565b600780546001600160e01b03929092169290920201905563ffffffff8116611dfe84611dc487612401565b600880546001600160e01b0392909216929092020190555b600380546dffffffffffffffffffffffffffff19166001600160701b03888116919091177fffffffff0000000000000000000000000000ffffffffffffffffffffffffffff16600160701b8883168102919091176001600160e01b0316600160e01b63ffffffff871602179283905560408051848416815291909304909116602082015281517f1c411e9a96e071241c2f21f7726b17ae89e3cab4c78be50e062b03a9fffbbad1929181900390910190a1505050505050565b6001600160a01b038084166000818152600d6020908152604080832094871680845294825291829020859055815185815291517f8c5be1e5ebec7d5bd14f71427d1e84f3dd0314c0f7b2291e5b200ac8c7c3b9259281900390910190a3505050565b6001600160a01b0383166000908152600c6020526040902054611f549082611cb6565b6001600160a01b038085166000908152600c60205260408082209390935590841681522054611f839082612438565b6001600160a01b038084166000818152600c602090815260409182902094909455805185815290519193928716927fddf252ad1be2c89b69c2b068fc378daa952ba7f163c4a11628f55a4df523b3ef92918290030190a3505050565b60008054604080517f017e7e58000000000000000000000000000000000000000000000000000000008152905183926001600160a01b03169163017e7e58916004808301926020929190829003018186803b15801561203d57600080fd5b505afa158015612051573d6000803e3d6000fd5b505050506040513d602081101561206757600080fd5b50516009546001600160a01b03821615801594509192509061218f57801561218a5760006120a4610f486001600160701b03888116908816611c56565b905060006120b1836121a3565b9050808211156121875760006120d36120ca8484611cb6565b600b5490611c56565b905060006121638361215d60008054906101000a90046001600160a01b03166001600160a01b031663deba86e36040518163ffffffff1660e01b815260040160206040518083038186803b15801561212a57600080fd5b505afa15801561213e573d6000803e3d6000fd5b505050506040513d602081101561215457600080fd5b50518790611c56565b90612438565b9050600081838161217057fe5b04905080156121835761218387826121f5565b5050505b50505b61219b565b801561219b5760006009555b505092915050565b600060038211156121e6575080600160028204015b818110156121e0578091506002818285816121cf57fe5b0401816121d857fe5b0490506121b8565b506121f0565b81156121f0575060015b919050565b600b546122029082612438565b600b556001600160a01b0382166000908152600c60205260409020546122289082612438565b6001600160a01b0383166000818152600c602090815260408083209490945583518581529351929391927fddf252ad1be2c89b69c2b068fc378daa952ba7f163c4a11628f55a4df523b3ef9281900390910190a35050565b6000818311156122905781611caf565b5090919050565b6001600160a01b0382166000908152600c60205260409020546122ba9082611cb6565b6001600160a01b0383166000908152600c6020526040902055600b546122e09082611cb6565b600b556040805182815290516000916001600160a01b038516917fddf252ad1be2c89b69c2b068fc378daa952ba7f163c4a11628f55a4df523b3ef9181900360200190a35050565b6000611caf83836040518060400160405280601a81526020017f536166654d6174683a206469766973696f6e206279207a65726f000000000000815250612492565b600081848411156123f95760405162461bcd60e51b81526004018080602001828103825283818151815260200191508051906020019080838360005b838110156123be5781810151838201526020016123a6565b50505050905090810190601f1680156123eb5780820380516001836020036101000a031916815260200191505b509250505060405180910390fd5b505050900390565b6001600160701b0316600160701b0290565b60006001600160701b0382166001600160e01b0384168161243057fe5b049392505050565b600082820183811015611caf576040805162461bcd60e51b815260206004820152601b60248201527f536166654d6174683a206164646974696f6e206f766572666c6f770000000000604482015290519081900360640190fd5b600081836124e15760405162461bcd60e51b81526020600482018181528351602484015283519092839260449091019190850190808383600083156123be5781810151838201526020016123a6565b5060008385816124ed57fe5b049594505050505056fe4d646578537761703a20494e53554646494349454e545f4c49515549444954595f4255524e4544536166654d6174683a206d756c7469706c69636174696f6e206f766572666c6f774d646578537761703a20494e53554646494349454e545f4c49515549444954595f4d494e544544a2646970667358221220cb1e7113db6055d2d842c276659ea25beaa1a2de9db8c1efb81b7aa8c62f905464736f6c63430007060033",
  "devdoc": {
    "kind": "dev",
    "methods": {},
    "version": 1
  },
  "userdoc": {
    "kind": "user",
    "methods": {},
    "version": 1
  },
  "storageLayout": {
    "storage": [
      {
        "astId": 25011,
        "contract": "contracts/swap/heco/Factory.sol:MdexFactory",
        "label": "feeTo",
        "offset": 0,
        "slot": "0",
        "type": "t_address"
      },
      {
        "astId": 25014,
        "contract": "contracts/swap/heco/Factory.sol:MdexFactory",
        "label": "feeToSetter",
        "offset": 0,
        "slot": "1",
        "type": "t_address"
      },
      {
        "astId": 25017,
        "contract": "contracts/swap/heco/Factory.sol:MdexFactory",
        "label": "feeToRate",
        "offset": 0,
        "slot": "2",
        "type": "t_uint256"
      },
      {
        "astId": 25019,
        "contract": "contracts/swap/heco/Factory.sol:MdexFactory",
        "label": "initCodeHash",
        "offset": 0,
        "slot": "3",
        "type": "t_bytes32"
      },
      {
        "astId": 25026,
        "contract": "contracts/swap/heco/Factory.sol:MdexFactory",
        "label": "getPair",
        "offset": 0,
        "slot": "4",
        "type": "t_mapping(t_address,t_mapping(t_address,t_address))"
      },
      {
        "astId": 25030,
        "contract": "contracts/swap/heco/Factory.sol:MdexFactory",
        "label": "allPairs",
        "offset": 0,
        "slot": "5",
        "type": "t_array(t_address)dyn_storage"
      }
    ],
    "types": {
      "t_address": {
        "encoding": "inplace",
        "label": "address",
        "numberOfBytes": "20"
      },
      "t_array(t_address)dyn_storage": {
        "base": "t_address",
        "encoding": "dynamic_array",
        "label": "address[]",
        "numberOfBytes": "32"
      },
      "t_bytes32": {
        "encoding": "inplace",
        "label": "bytes32",
        "numberOfBytes": "32"
      },
      "t_mapping(t_address,t_address)": {
        "encoding": "mapping",
        "key": "t_address",
        "label": "mapping(address => address)",
        "numberOfBytes": "32",
        "value": "t_address"
      },
      "t_mapping(t_address,t_mapping(t_address,t_address))": {
        "encoding": "mapping",
        "key": "t_address",
        "label": "mapping(address => mapping(address => address))",
        "numberOfBytes": "32",
        "value": "t_mapping(t_address,t_address)"
      },
      "t_uint256": {
        "encoding": "inplace",
        "label": "uint256",
        "numberOfBytes": "32"
      }
    }
  }
}