{
  "address": "0xAFae2ac364f281268ee000b81B067cE379e82112",
  "abi": [
    {
      "inputs": [
        {
          "internalType": "address",
          "name": "_feeToSetter",
          "type": "address"
        },
        {
          "internalType": "address",
          "name": "_comptroller",
          "type": "address"
        }
      ],
      "stateMutability": "nonpayable",
      "type": "constructor"
    },
    {
      "anonymous": false,
      "inputs": [
        {
          "indexed": true,
          "internalType": "address",
          "name": "token0",
          "type": "address"
        },
        {
          "indexed": true,
          "internalType": "address",
          "name": "token1",
          "type": "address"
        },
        {
          "indexed": false,
          "internalType": "address",
          "name": "pair",
          "type": "address"
        },
        {
          "indexed": false,
          "internalType": "uint256",
          "name": "",
          "type": "uint256"
        }
      ],
      "name": "PairCreated",
      "type": "event"
    },
    {
      "inputs": [
        {
          "internalType": "uint256",
          "name": "",
          "type": "uint256"
        }
      ],
      "name": "allPairs",
      "outputs": [
        {
          "internalType": "address",
          "name": "",
          "type": "address"
        }
      ],
      "stateMutability": "view",
      "type": "function"
    },
    {
      "inputs": [],
      "name": "allPairsLength",
      "outputs": [
        {
          "internalType": "uint256",
          "name": "",
          "type": "uint256"
        }
      ],
      "stateMutability": "view",
      "type": "function"
    },
    {
      "inputs": [],
      "name": "comptroller",
      "outputs": [
        {
          "internalType": "contract ComptrollerInterface",
          "name": "",
          "type": "address"
        }
      ],
      "stateMutability": "view",
      "type": "function"
    },
    {
      "inputs": [
        {
          "internalType": "address",
          "name": "tokenA",
          "type": "address"
        },
        {
          "internalType": "address",
          "name": "tokenB",
          "type": "address"
        }
      ],
      "name": "createPair",
      "outputs": [
        {
          "internalType": "address",
          "name": "pair",
          "type": "address"
        }
      ],
      "stateMutability": "nonpayable",
      "type": "function"
    },
    {
      "inputs": [],
      "name": "feeTo",
      "outputs": [
        {
          "internalType": "address",
          "name": "",
          "type": "address"
        }
      ],
      "stateMutability": "view",
      "type": "function"
    },
    {
      "inputs": [],
      "name": "feeToRate",
      "outputs": [
        {
          "internalType": "uint256",
          "name": "",
          "type": "uint256"
        }
      ],
      "stateMutability": "view",
      "type": "function"
    },
    {
      "inputs": [],
      "name": "feeToSetter",
      "outputs": [
        {
          "internalType": "address",
          "name": "",
          "type": "address"
        }
      ],
      "stateMutability": "view",
      "type": "function"
    },
    {
      "inputs": [
        {
          "internalType": "uint256",
          "name": "amountOut",
          "type": "uint256"
        },
        {
          "internalType": "uint256",
          "name": "reserveIn",
          "type": "uint256"
        },
        {
          "internalType": "uint256",
          "name": "reserveOut",
          "type": "uint256"
        }
      ],
      "name": "getAmountIn",
      "outputs": [
        {
          "internalType": "uint256",
          "name": "amountIn",
          "type": "uint256"
        }
      ],
      "stateMutability": "pure",
      "type": "function"
    },
    {
      "inputs": [
        {
          "internalType": "uint256",
          "name": "amountIn",
          "type": "uint256"
        },
        {
          "internalType": "uint256",
          "name": "reserveIn",
          "type": "uint256"
        },
        {
          "internalType": "uint256",
          "name": "reserveOut",
          "type": "uint256"
        }
      ],
      "name": "getAmountOut",
      "outputs": [
        {
          "internalType": "uint256",
          "name": "amountOut",
          "type": "uint256"
        }
      ],
      "stateMutability": "pure",
      "type": "function"
    },
    {
      "inputs": [
        {
          "internalType": "uint256",
          "name": "amountOut",
          "type": "uint256"
        },
        {
          "internalType": "address[]",
          "name": "path",
          "type": "address[]"
        }
      ],
      "name": "getAmountsIn",
      "outputs": [
        {
          "internalType": "uint256[]",
          "name": "amounts",
          "type": "uint256[]"
        }
      ],
      "stateMutability": "view",
      "type": "function"
    },
    {
      "inputs": [
        {
          "internalType": "uint256",
          "name": "amountIn",
          "type": "uint256"
        },
        {
          "internalType": "address[]",
          "name": "path",
          "type": "address[]"
        }
      ],
      "name": "getAmountsOut",
      "outputs": [
        {
          "internalType": "uint256[]",
          "name": "amounts",
          "type": "uint256[]"
        }
      ],
      "stateMutability": "view",
      "type": "function"
    },
    {
      "inputs": [
        {
          "internalType": "address",
          "name": "",
          "type": "address"
        },
        {
          "internalType": "address",
          "name": "",
          "type": "address"
        }
      ],
      "name": "getPair",
      "outputs": [
        {
          "internalType": "address",
          "name": "",
          "type": "address"
        }
      ],
      "stateMutability": "view",
      "type": "function"
    },
    {
      "inputs": [
        {
          "internalType": "address",
          "name": "tokenA",
          "type": "address"
        },
        {
          "internalType": "address",
          "name": "tokenB",
          "type": "address"
        }
      ],
      "name": "getReserves",
      "outputs": [
        {
          "internalType": "uint256",
          "name": "reserveA",
          "type": "uint256"
        },
        {
          "internalType": "uint256",
          "name": "reserveB",
          "type": "uint256"
        }
      ],
      "stateMutability": "view",
      "type": "function"
    },
    {
      "inputs": [],
      "name": "initCodeHash",
      "outputs": [
        {
          "internalType": "bytes32",
          "name": "",
          "type": "bytes32"
        }
      ],
      "stateMutability": "view",
      "type": "function"
    },
    {
      "inputs": [
        {
          "internalType": "address",
          "name": "tokenA",
          "type": "address"
        },
        {
          "internalType": "address",
          "name": "tokenB",
          "type": "address"
        }
      ],
      "name": "pairFor",
      "outputs": [
        {
          "internalType": "address",
          "name": "pair",
          "type": "address"
        }
      ],
      "stateMutability": "view",
      "type": "function"
    },
    {
      "inputs": [
        {
          "internalType": "uint256",
          "name": "amountA",
          "type": "uint256"
        },
        {
          "internalType": "uint256",
          "name": "reserveA",
          "type": "uint256"
        },
        {
          "internalType": "uint256",
          "name": "reserveB",
          "type": "uint256"
        }
      ],
      "name": "quote",
      "outputs": [
        {
          "internalType": "uint256",
          "name": "amountB",
          "type": "uint256"
        }
      ],
      "stateMutability": "pure",
      "type": "function"
    },
    {
      "inputs": [
        {
          "internalType": "address",
          "name": "_feeTo",
          "type": "address"
        }
      ],
      "name": "setFeeTo",
      "outputs": [],
      "stateMutability": "nonpayable",
      "type": "function"
    },
    {
      "inputs": [
        {
          "internalType": "uint256",
          "name": "_rate",
          "type": "uint256"
        }
      ],
      "name": "setFeeToRate",
      "outputs": [],
      "stateMutability": "nonpayable",
      "type": "function"
    },
    {
      "inputs": [
        {
          "internalType": "address",
          "name": "_feeToSetter",
          "type": "address"
        }
      ],
      "name": "setFeeToSetter",
      "outputs": [],
      "stateMutability": "nonpayable",
      "type": "function"
    },
    {
      "inputs": [
        {
          "internalType": "address",
          "name": "tokenA",
          "type": "address"
        },
        {
          "internalType": "address",
          "name": "tokenB",
          "type": "address"
        }
      ],
      "name": "sortTokens",
      "outputs": [
        {
          "internalType": "address",
          "name": "token0",
          "type": "address"
        },
        {
          "internalType": "address",
          "name": "token1",
          "type": "address"
        }
      ],
      "stateMutability": "pure",
      "type": "function"
    }
  ],
  "transactionHash": "0x556d22f97174c358b62cc9bdc993be08f2794658d57b4133f51c381b4181fd72",
  "args": [
    "0x49d531908840FDDaC744543d57CB21B91c3D9094",
    "0x93ccAEA48e76B672D82F8e19c49d6eD59a621aA8"
  ],
  "solcInputHash": "1e67a5903a1c0d559885880473465e48",
  "bytecode": "0x608060405234801561001057600080fd5b5060405162009125380380620091258339818101604052604081101561003557600080fd5b508051602091820151600180546001600160a01b038085166001600160a01b0319928316179092556004805492841692909116919091179055604051919290919061008190820161010f565b6020820181038252601f19601f820116604052506040516020018082805190602001908083835b602083106100c75780518252601f1990920191602091820191016100a8565b6001836020036101000a03801982511681845116808217855250505050505090500191505060405160208183030381529060405280519060200120600381905550505061011d565b613b6580620055c083390190565b615493806200012d6000396000f3fe608060405234801561001057600080fd5b506004361061016c5760003560e01c8063a2e74af6116100cd578063d52bb6f411610081578063deba86e311610066578063deba86e314610548578063e6a4390514610550578063f46901ed1461057e5761016c565b8063d52bb6f4146104f9578063db4c545e146105405761016c565b8063b5e4aa72116100b2578063b5e4aa7214610404578063c9c6539614610421578063d06ca61f1461044f5761016c565b8063a2e74af6146103b3578063ad615dec146103db5761016c565b8063544caa56116101245780635fe3b567116101095780635fe3b5671461035457806385f8c2591461035c57806396ed28f9146103855761016c565b8063544caa56146102ef578063574f2ba31461034c5761016c565b8063094b741511610155578063094b7415146101d05780631e3dd18b146101d85780631f00ca74146101f55761016c565b8063017e7e5814610171578063054d50d414610195575b600080fd5b6101796105a4565b604080516001600160a01b039092168252519081900360200190f35b6101be600480360360608110156101ab57600080fd5b50803590602081013590604001356105b3565b60408051918252519081900360200190f35b61017961068b565b610179600480360360208110156101ee57600080fd5b503561069a565b61029f6004803603604081101561020b57600080fd5b8135919081019060408101602082013564010000000081111561022d57600080fd5b82018360208201111561023f57600080fd5b8035906020019184602083028401116401000000008311171561026157600080fd5b9190808060200260200160405190810160405280939291908181526020018383602002808284376000920191909152509295506106c4945050505050565b60408051602080825283518183015283519192839290830191858101910280838360005b838110156102db5781810151838201526020016102c3565b505050509050019250505060405180910390f35b61031d6004803603604081101561030557600080fd5b506001600160a01b038135811691602001351661080f565b60405180836001600160a01b03168152602001826001600160a01b031681526020019250505060405180910390f35b6101be610903565b610179610909565b6101be6004803603606081101561037257600080fd5b5080359060208101359060400135610918565b6101796004803603604081101561039b57600080fd5b506001600160a01b03813581169160200135166109f0565b6103d9600480360360208110156103c957600080fd5b50356001600160a01b0316610aa9565b005b6101be600480360360608110156103f157600080fd5b5080359060208101359060400135610b7c565b6103d96004803603602081101561041a57600080fd5b5035610c38565b6101796004803603604081101561043757600080fd5b506001600160a01b0381358116916020013516610ce7565b61029f6004803603604081101561046557600080fd5b8135919081019060408101602082013564010000000081111561048757600080fd5b82018360208201111561049957600080fd5b803590602001918460208302840111640100000000831117156104bb57600080fd5b919080806020026020016040519081016040528093929190818152602001838360200280828437600092019190915250929550611160945050505050565b6105276004803603604081101561050f57600080fd5b506001600160a01b0381358116916020013516611296565b6040805192835260208301919091528051918290030190f35b6101be611362565b6101be611368565b6101796004803603604081101561056657600080fd5b506001600160a01b038135811691602001351661136e565b6103d96004803603602081101561059457600080fd5b50356001600160a01b0316611394565b6000546001600160a01b031681565b60008084116105f35760405162461bcd60e51b815260040180806020018281038252602681526020018061537c6026913960400191505060405180910390fd5b6000831180156106035750600082115b61063e5760405162461bcd60e51b815260040180806020018281038252602381526020018061543b6023913960400191505060405180910390fd5b600061064c856103e5611422565b9050600061065a8285611422565b905060006106748361066e886103e8611422565b90611484565b905080828161067f57fe5b04979650505050505050565b6001546001600160a01b031681565b600681815481106106aa57600080fd5b6000918252602090912001546001600160a01b0316905081565b606060028251101561071d576040805162461bcd60e51b815260206004820152601960248201527f53776170466163746f72793a20494e56414c49445f5041544800000000000000604482015290519081900360640190fd5b815167ffffffffffffffff8111801561073557600080fd5b5060405190808252806020026020018201604052801561075f578160200160208202803683370190505b509050828160018351038151811061077357fe5b60209081029190910101528151600019015b8015610808576000806107c18560018503815181106107a057fe5b60200260200101518685815181106107b457fe5b6020026020010151611296565b915091506107e38484815181106107d457fe5b60200260200101518383610918565b8460018503815181106107f257fe5b6020908102919091010152505060001901610785565b5092915050565b600080826001600160a01b0316846001600160a01b03161415610879576040805162461bcd60e51b815260206004820181905260248201527f53776170466163746f72793a204944454e544943414c5f414444524553534553604482015290519081900360640190fd5b826001600160a01b0316846001600160a01b03161061089957828461089c565b83835b90925090506001600160a01b0382166108fc576040805162461bcd60e51b815260206004820152601960248201527f53776170466163746f72793a205a45524f5f4144445245535300000000000000604482015290519081900360640190fd5b9250929050565b60065490565b6004546001600160a01b031681565b60008084116109585760405162461bcd60e51b81526004018080602001828103825260278152602001806153a26027913960400191505060405180910390fd5b6000831180156109685750600082115b6109a35760405162461bcd60e51b815260040180806020018281038252602381526020018061543b6023913960400191505060405180910390fd5b60006109bb6103e86109b58688611422565b90611422565b905060006109cf6103e56109b586896114de565b90506109e660018284816109df57fe5b0490611484565b9695505050505050565b60006109fc8383611520565b5050600080610a0b858561080f565b604080516bffffffffffffffffffffffff19606094851b811660208084019190915293851b166034820152815160288183030181526048820183528051908401206003547fff0000000000000000000000000000000000000000000000000000000000000060688401523090951b6069830152607d820152609d808201949094528151808203909401845260bd019052815191012095945050505050565b6001546001600160a01b03163314610b08576040805162461bcd60e51b815260206004820152601660248201527f53776170466163746f72793a20464f5242494444454e00000000000000000000604482015290519081900360640190fd5b6001600160a01b038116610b4d5760405162461bcd60e51b815260040180806020018281038252602c8152602001806153c9602c913960400191505060405180910390fd5b6001805473ffffffffffffffffffffffffffffffffffffffff19166001600160a01b0392909216919091179055565b6000808411610bd2576040805162461bcd60e51b815260206004820181905260248201527f53776170466163746f72793a20494e53554646494349454e545f414d4f554e54604482015290519081900360640190fd5b600083118015610be25750600082115b610c1d5760405162461bcd60e51b815260040180806020018281038252602381526020018061543b6023913960400191505060405180910390fd5b82610c288584611422565b81610c2f57fe5b04949350505050565b6001546001600160a01b03163314610c97576040805162461bcd60e51b815260206004820152601660248201527f53776170466163746f72793a20464f5242494444454e00000000000000000000604482015290519081900360640190fd5b60008111610cd65760405162461bcd60e51b81526004018080602001828103825260258152602001806154166025913960400191505060405180910390fd5b610ce18160016114de565b60025550565b6000816001600160a01b0316836001600160a01b03161415610d50576040805162461bcd60e51b815260206004820181905260248201527f53776170466163746f72793a204944454e544943414c5f414444524553534553604482015290519081900360640190fd5b600080836001600160a01b0316856001600160a01b031610610d73578385610d76565b84845b90925090506001600160a01b038216610dd6576040805162461bcd60e51b815260206004820152601960248201527f53776170466163746f72793a205a45524f5f4144445245535300000000000000604482015290519081900360640190fd5b6001600160a01b03828116600090815260056020908152604080832085851684529091529020541615610e50576040805162461bcd60e51b815260206004820152601860248201527f53776170466163746f72793a20504149525f4558495354530000000000000000604482015290519081900360640190fd5b600080610e5d8484611520565b91509150600060405180602001610e7390611809565b6020820181038252601f19601f8201166040525090506000858560405160200180836001600160a01b031660601b8152601401826001600160a01b031660601b815260140192505050604051602081830303815290604052805190602001209050808251602084016000f59650866001600160a01b031663485cc95587876040518363ffffffff1660e01b815260040180836001600160a01b03168152602001826001600160a01b0316815260200192505050600060405180830381600087803b158015610f4057600080fd5b505af1158015610f54573d6000803e3d6000fd5b50505050866001600160a01b031663d8cbd6ae85856040518363ffffffff1660e01b815260040180836001600160a01b03168152602001826001600160a01b0316815260200192505050600060405180830381600087803b158015610fb857600080fd5b505af1158015610fcc573d6000803e3d6000fd5b505050508660056000886001600160a01b03166001600160a01b031681526020019081526020016000206000876001600160a01b03166001600160a01b0316815260200190815260200160002060006101000a8154816001600160a01b0302191690836001600160a01b031602179055508660056000876001600160a01b03166001600160a01b031681526020019081526020016000206000886001600160a01b03166001600160a01b0316815260200190815260200160002060006101000a8154816001600160a01b0302191690836001600160a01b031602179055506006879080600181540180825580915050600190039060005260206000200160009091909190916101000a8154816001600160a01b0302191690836001600160a01b03160217905550846001600160a01b0316866001600160a01b03167f0d3648bd0f6ba80134a33ba9275ac585d9d315f0ad8355cddefde31afa28d0e98960068054905060405180836001600160a01b031681526020018281526020019250505060405180910390a350505050505092915050565b60606002825110156111b9576040805162461bcd60e51b815260206004820152601960248201527f53776170466163746f72793a20494e56414c49445f5041544800000000000000604482015290519081900360640190fd5b815167ffffffffffffffff811180156111d157600080fd5b506040519080825280602002602001820160405280156111fb578160200160208202803683370190505b509050828160008151811061120c57fe5b60200260200101818152505060005b60018351038110156108085760008061125085848151811061123957fe5b60200260200101518685600101815181106107b457fe5b9150915061127284848151811061126357fe5b602002602001015183836105b3565b84846001018151811061128157fe5b6020908102919091010152505060010161121b565b60008060006112a5858561080f565b5090506000806112b587876109f0565b6001600160a01b0316630902f1ac6040518163ffffffff1660e01b815260040160606040518083038186803b1580156112ed57600080fd5b505afa158015611301573d6000803e3d6000fd5b505050506040513d606081101561131757600080fd5b5080516020909101516dffffffffffffffffffffffffffff91821693501690506001600160a01b0387811690841614611351578082611354565b81815b909890975095505050505050565b60035481565b60025481565b60056020908152600092835260408084209091529082529020546001600160a01b031681565b6001546001600160a01b031633146113f3576040805162461bcd60e51b815260206004820152601660248201527f53776170466163746f72793a20464f5242494444454e00000000000000000000604482015290519081900360640190fd5b6000805473ffffffffffffffffffffffffffffffffffffffff19166001600160a01b0392909216919091179055565b6000826114315750600061147e565b8282028284828161143e57fe5b041461147b5760405162461bcd60e51b81526004018080602001828103825260218152602001806153f56021913960400191505060405180910390fd5b90505b92915050565b60008282018381101561147b576040805162461bcd60e51b815260206004820152601b60248201527f536166654d6174683a206164646974696f6e206f766572666c6f770000000000604482015290519081900360640190fd5b600061147b83836040518060400160405280601e81526020017f536166654d6174683a207375627472616374696f6e206f766572666c6f770000815250611772565b60048054604080517f26c7bd930000000000000000000000000000000000000000000000000000000081526001600160a01b03868116948201949094529051600093849316916326c7bd93916024808301926020929190829003018186803b15801561158b57600080fd5b505afa15801561159f573d6000803e3d6000fd5b505050506040513d60208110156115b557600080fd5b505191506001600160a01b03808316908516141561161a576040805162461bcd60e51b815260206004820152601360248201527f53776170466163746f72793a2063546f6b656e00000000000000000000000000604482015290519081900360640190fd5b600460009054906101000a90046001600160a01b03166001600160a01b03166326c7bd93846040518263ffffffff1660e01b815260040180826001600160a01b0316815260200191505060206040518083038186803b15801561167c57600080fd5b505afa158015611690573d6000803e3d6000fd5b505050506040513d60208110156116a657600080fd5b505190506001600160a01b03808216908416141561170b576040805162461bcd60e51b815260206004820152601360248201527f53776170466163746f72793a2063546f6b656e00000000000000000000000000604482015290519081900360640190fd5b806001600160a01b0316826001600160a01b031614156108fc576040805162461bcd60e51b815260206004820152601760248201527f53776170466163746f72793a204475702063546f6b656e000000000000000000604482015290519081900360640190fd5b600081848411156118015760405162461bcd60e51b81526004018080602001828103825283818151815260200191508051906020019080838360005b838110156117c65781810151838201526020016117ae565b50505050905090810190601f1680156117f35780820380516001836020036101000a031916815260200191505b509250505060405180910390fd5b505050900390565b613b65806118178339019056fe60806040526001600a5534801561001557600080fd5b5060408051808201825260088152672628102a37b5b2b760c11b6020918201528151808301835260018152603160f81b9082015281517f8b73c3c69bb8fe3d512ecc4cf759cc79239f7b179b0ffacaa9a75d522b39400f818301527fc285f7cfebd35a59cb5c0c032add67fdc80dcde2f8127cb94e4b49a72469ed02818401527fc89efdaa54c0f20c7adf612882df0950f5a951637e0307cdcb4c672f298b8bc660608201524660808201523060a0808301919091528351808303909101815260c09091019092528151910120600e55600080546001600160a01b03191633179055613a5f806101066000396000f3fe608060405234801561001057600080fd5b50600436106102415760003560e01c806370a0823111610145578063ba9a7a56116100bd578063d505accf1161008c578063d939fa8a11610071578063d939fa8a14610765578063dd62ed3e1461076d578063fff6cae91461079b57610241565b8063d505accf146106e6578063d8cbd6ae1461073757610241565b8063ba9a7a56146106a8578063bc25cf77146106b0578063c45a0155146106d6578063d21220a7146106de57610241565b806389afcb441161011457806395d89b41116100f957806395d89b4114610648578063a9059cbb14610650578063ad9b80241461067c57610241565b806389afcb4414610601578063948023ab1461064057610241565b806370a08231146105a55780637464fc3d146105cb5780637ecebe00146105d35780637ee60012146105f957610241565b806330adf81f116101d8578063569023a8116101a75780635a3d54931161018c5780635a3d5493146104eb5780636705a9c1146104f35780636a6278421461057f57610241565b8063569023a8146104bd5780635909c0d5146104e357610241565b806330adf81f14610461578063313ce567146104695780633644e51514610487578063485cc9551461048f57610241565b8063095ea7b311610214578063095ea7b3146103ad5780630dfe1681146103ed57806318160ddd1461041157806323b872dd1461042b57610241565b8063022c0d9f146102465780630559a35c146102d457806306fdde03146102f85780630902f1ac14610375575b600080fd5b6102d26004803603608081101561025c57600080fd5b8135916020810135916001600160a01b03604083013516919081019060808101606082013564010000000081111561029357600080fd5b8201836020820111156102a557600080fd5b803590602001918460018302840111640100000000831117156102c757600080fd5b5090925090506107a3565b005b6102dc610d52565b604080516001600160701b039092168252519081900360200190f35b610300610d68565b6040805160208082528351818301528351919283929083019185019080838360005b8381101561033a578181015183820152602001610322565b50505050905090810190601f1680156103675780820380516001836020036101000a031916815260200191505b509250505060405180910390f35b61037d610da1565b604080516001600160701b03948516815292909316602083015263ffffffff168183015290519081900360600190f35b6103d9600480360360408110156103c357600080fd5b506001600160a01b038135169060200135610dcb565b604080519115158252519081900360200190f35b6103f5610de2565b604080516001600160a01b039092168252519081900360200190f35b610419610df1565b60408051918252519081900360200190f35b6103d96004803603606081101561044157600080fd5b506001600160a01b03813581169160208101359091169060400135610df7565b610419610e8b565b610471610eaf565b6040805160ff9092168252519081900360200190f35b610419610eb4565b6102d2600480360360408110156104a557600080fd5b506001600160a01b0381358116916020013516610eba565b610419600480360360208110156104d357600080fd5b50356001600160a01b0316610f54565b610419610faa565b610419610fb0565b6102d26004803603608081101561050957600080fd5b8135916020810135916001600160a01b03604083013516919081019060808101606082013564010000000081111561054057600080fd5b82018360208201111561055257600080fd5b8035906020019184600183028401116401000000008311171561057457600080fd5b509092509050610fb6565b6104196004803603602081101561059557600080fd5b50356001600160a01b03166118f8565b610419600480360360208110156105bb57600080fd5b50356001600160a01b03166120b7565b6104196120c9565b610419600480360360208110156105e957600080fd5b50356001600160a01b03166120cf565b6102dc6120e1565b6106276004803603602081101561061757600080fd5b50356001600160a01b03166120f0565b6040805192835260208301919091528051918290030190f35b6103f56124b5565b6103006124c4565b6103d96004803603604081101561066657600080fd5b506001600160a01b0381351690602001356124fd565b6104196004803603604081101561069257600080fd5b506001600160a01b03813516906020013561250a565b6104196125e2565b6102d2600480360360208110156106c657600080fd5b50356001600160a01b03166125e8565b6103f5612759565b6103f5612768565b6102d2600480360360e08110156106fc57600080fd5b506001600160a01b03813581169160208101359091169060408101359060608101359060ff6080820135169060a08101359060c00135612777565b6102d26004803603604081101561074d57600080fd5b506001600160a01b038135811691602001351661299f565b6103f5612a39565b6104196004803603604081101561078357600080fd5b506001600160a01b0381358116916020013516612a48565b6102d2612a65565b600a546001146107ed576040805162461bcd60e51b815260206004820152601060248201526f1359195e14ddd85c0e881313d0d2d15160821b604482015290519081900360640190fd5b6000600a55841515806108005750600084115b610851576040805162461bcd60e51b815260206004820152601460248201527f537761703a20494e56414c49445f414d4f554e54000000000000000000000000604482015290519081900360640190fd5b60008061085c610da1565b5091509150816001600160701b0316871080156108815750806001600160701b031686105b6108d2576040805162461bcd60e51b815260206004820152601c60248201527f537761703a20494e53554646494349454e545f4c495155494449545900000000604482015290519081900360640190fd5b60015460025460009182916001600160a01b039182169190811690891682148015906109105750806001600160a01b0316896001600160a01b031614155b610954576040805162461bcd60e51b815260206004820152601060248201526f537761703a20494e56414c49445f544f60801b604482015290519081900360640190fd5b6004546001600160a01b038a811691161480159061098057506005546001600160a01b038a8116911614155b6109c4576040805162461bcd60e51b815260206004820152601060248201526f537761703a20494e56414c49445f544f60801b604482015290519081900360640190fd5b8a156109d5576109d5828a8d612bc6565b89156109e6576109e6818a8c612bc6565b8615610a9857886001600160a01b031663226dc882338d8d8c8c6040518663ffffffff1660e01b815260040180866001600160a01b03168152602001858152602001848152602001806020018281038252848482818152602001925080828437600081840152601f19601f8201169050808301925050509650505050505050600060405180830381600087803b158015610a7f57600080fd5b505af1158015610a93573d6000803e3d6000fd5b505050505b604080516370a0823160e01b815230600482015290516001600160a01b038416916370a08231916024808301926020929190829003018186803b158015610ade57600080fd5b505afa158015610af2573d6000803e3d6000fd5b505050506040513d6020811015610b0857600080fd5b5051604080516370a0823160e01b815230600482015290519195506001600160a01b038316916370a0823191602480820192602092909190829003018186803b158015610b5457600080fd5b505afa158015610b68573d6000803e3d6000fd5b505050506040513d6020811015610b7e57600080fd5b5051925060009150506001600160701b0385168a90038311610ba1576000610bb0565b89856001600160701b03160383035b9050600089856001600160701b0316038311610bcd576000610bdc565b89856001600160701b03160383035b90506000821180610bed5750600081115b610c3e576040805162461bcd60e51b815260206004820152601f60248201527f537761703a20494e53554646494349454e545f494e5055545f414d4f554e5400604482015290519081900360640190fd5b6000610c60610c4e846003612d78565b610c5a876103e8612d78565b90612dd8565b90506000610c72610c4e846003612d78565b9050610c97620f4240610c916001600160701b038b8116908b16612d78565b90612d78565b610ca18383612d78565b1015610cde576040805162461bcd60e51b8152602060048201526007602482015266537761703a204b60c81b604482015290519081900360640190fd5b5050610cec84848888612e1a565b60408051838152602081018390528082018d9052606081018c905290516001600160a01b038b169133917fd78ad95fa46c994b6551d0da85fc275fe613ce37657fb8d5e3d130840159d8229181900360800190a350506001600a55505050505050505050565b600654600160701b90046001600160701b031681565b6040518060400160405280600881526020017f4c5020546f6b656e00000000000000000000000000000000000000000000000081525081565b6003546001600160701b0380821692600160701b830490911691600160e01b900463ffffffff1690565b6000610dd8338484612ff1565b5060015b92915050565b6001546001600160a01b031681565b600b5481565b6001600160a01b0383166000908152600d6020908152604080832033845290915281205460001914610e76576001600160a01b0384166000908152600d60209081526040808320338452909152902054610e519083612dd8565b6001600160a01b0385166000908152600d602090815260408083203384529091529020555b610e81848484613053565b5060019392505050565b7f6e71edae12b1b97f4d1f60370fef10105fa2faae0126114a169c64845d6126c981565b601281565b600e5481565b6000546001600160a01b03163314610f19576040805162461bcd60e51b815260206004820152601360248201527f4d646578537761703a20464f5242494444454e00000000000000000000000000604482015290519081900360640190fd5b600180546001600160a01b0393841673ffffffffffffffffffffffffffffffffffffffff199182161790915560028054929093169116179055565b6000600a54600114610fa0576040805162461bcd60e51b815260206004820152601060248201526f1359195e14ddd85c0e881313d0d2d15160821b604482015290519081900360640190fd5b6001600a55919050565b60075481565b60085481565b600a54600114611000576040805162461bcd60e51b815260206004820152601060248201526f1359195e14ddd85c0e881313d0d2d15160821b604482015290519081900360640190fd5b6000600a55841515806110135750600084115b611064576040805162461bcd60e51b815260206004820152601460248201527f537761703a20494e56414c49445f414d4f554e54000000000000000000000000604482015290519081900360640190fd5b60008061106f610da1565b5091509150816001600160701b0316871080156110945750806001600160701b031686105b6110e5576040805162461bcd60e51b815260206004820152601c60248201527f537761703a20494e53554646494349454e545f4c495155494449545900000000604482015290519081900360640190fd5b6110ed613972565b6110f5613972565b6001546001600160a01b039081166020808501918252600254831690840152600454821660408086019190915260055483169084015251888216911614801590611155575080602001516001600160a01b0316876001600160a01b031614155b611199576040805162461bcd60e51b815260206004820152601060248201526f537761703a20494e56414c49445f544f60801b604482015290519081900360640190fd5b81604001516001600160a01b0316876001600160a01b0316141580156111d5575080604001516001600160a01b0316876001600160a01b031614155b611219576040805162461bcd60e51b815260206004820152601060248201526f537761703a20494e56414c49445f544f60801b604482015290519081900360640190fd5b88156112ae5781604001516001600160a01b031663bd6d894d6040518163ffffffff1660e01b8152600401602060405180830381600087803b15801561125e57600080fd5b505af1158015611272573d6000803e3d6000fd5b505050506040513d602081101561128857600080fd5b5051898161129257fe5b0460a0830152604082015160208301516112ae9189918c613101565b87156113435780604001516001600160a01b031663bd6d894d6040518163ffffffff1660e01b8152600401602060405180830381600087803b1580156112f357600080fd5b505af1158015611307573d6000803e3d6000fd5b505050506040513d602081101561131d57600080fd5b5051888161132757fe5b0460a0820152604081015160208201516113439189918b613101565b84156113f557866001600160a01b031663226dc882338b8b8a8a6040518663ffffffff1660e01b815260040180866001600160a01b03168152602001858152602001848152602001806020018281038252848482818152602001925080828437600081840152601f19601f8201169050808301925050509650505050505050600060405180830381600087803b1580156113dc57600080fd5b505af11580156113f0573d6000803e3d6000fd5b505050505b602080830151604080516370a0823160e01b815230600482015290516001600160a01b03909216926370a0823192602480840193829003018186803b15801561143d57600080fd5b505afa158015611451573d6000803e3d6000fd5b505050506040513d602081101561146757600080fd5b50516060830152602081810151604080516370a0823160e01b815230600482015290516001600160a01b03909216926370a0823192602480840193829003018186803b1580156114b657600080fd5b505afa1580156114ca573d6000803e3d6000fd5b505050506040513d60208110156114e057600080fd5b50516060808301919091528201511515806114ff575060008160600151115b611550576040805162461bcd60e51b815260206004820152601f60248201527f537761703a20494e53554646494349454e545f494e5055545f414d4f554e5400604482015290519081900360640190fd5b6060820151156115d55781604001516001600160a01b031663a0712d6883606001516040518263ffffffff1660e01b815260040180828152602001915050602060405180830381600087803b1580156115a857600080fd5b505af11580156115bc573d6000803e3d6000fd5b505050506040513d60208110156115d257600080fd5b50505b60608101511561165a5780604001516001600160a01b031663a0712d6882606001516040518263ffffffff1660e01b815260040180828152602001915050602060405180830381600087803b15801561162d57600080fd5b505af1158015611641573d6000803e3d6000fd5b505050506040513d602081101561165757600080fd5b50505b81604001516001600160a01b03166370a08231306040518263ffffffff1660e01b815260040180826001600160a01b0316815260200191505060206040518083038186803b1580156116ab57600080fd5b505afa1580156116bf573d6000803e3d6000fd5b505050506040513d60208110156116d557600080fd5b5051825260408082015181516370a0823160e01b815230600482015291516001600160a01b03909116916370a08231916024808301926020929190829003018186803b15801561172457600080fd5b505afa158015611738573d6000803e3d6000fd5b505050506040513d602081101561174e57600080fd5b5051815260a082015182516001600160701b038616919091031061177357600061178a565b8160a00151846001600160701b0316038260000151035b608083015260a081015181516001600160701b03851691909103106117b05760006117c7565b8060a00151836001600160701b0316038160000151035b6080808301919091528201516000906117f3906117e5906003612d78565b8451610c5a906103e8612d78565b905060006118126117e560038560800151612d7890919063ffffffff16565b9050611831620f4240610c916001600160701b03898116908916612d78565b61183b8383612d78565b1015611878576040805162461bcd60e51b8152602060048201526007602482015266537761703a204b60c81b604482015290519081900360640190fd5b50508151815161188a91908686612e1a565b606080830151828201516040805192835260208301919091528181018c90529181018a905290516001600160a01b0389169133917fd78ad95fa46c994b6551d0da85fc275fe613ce37657fb8d5e3d130840159d8229181900360800190a350506001600a5550505050505050565b6000600a54600114611944576040805162461bcd60e51b815260206004820152601060248201526f1359195e14ddd85c0e881313d0d2d15160821b604482015290519081900360640190fd5b6000600a81905580611954610da1565b50600154604080516370a0823160e01b815230600482015290519395509193506000926001600160a01b03909116916370a08231916024808301926020929190829003018186803b1580156119a857600080fd5b505afa1580156119bc573d6000803e3d6000fd5b505050506040513d60208110156119d257600080fd5b5051600254604080516370a0823160e01b815230600482015290519293506000926001600160a01b03909216916370a0823191602480820192602092909190829003018186803b158015611a2557600080fd5b505afa158015611a39573d6000803e3d6000fd5b505050506040513d6020811015611a4f57600080fd5b505160048054604080516370a0823160e01b81523093810193909352519293506000926001600160a01b03909116916370a08231916024808301926020929190829003018186803b158015611aa357600080fd5b505afa158015611ab7573d6000803e3d6000fd5b505050506040513d6020811015611acd57600080fd5b5051600554604080516370a0823160e01b815230600482015290519293506000926001600160a01b03909216916370a0823191602480820192602092909190829003018186803b158015611b2057600080fd5b505afa158015611b34573d6000803e3d6000fd5b505050506040513d6020811015611b4a57600080fd5b5051600480546040805163095ea7b360e01b81526001600160a01b039092169282018390526024820188905251929350909163095ea7b3916044808201926020929091908290030181600087803b158015611ba457600080fd5b505af1158015611bb8573d6000803e3d6000fd5b505050506040513d6020811015611bce57600080fd5b5050600480546040805163140e25ad60e31b8152928301879052516001600160a01b039091169163a0712d689160248083019260209291908290030181600087803b158015611c1c57600080fd5b505af1158015611c30573d6000803e3d6000fd5b505050506040513d6020811015611c4657600080fd5b5050600480546040805163095ea7b360e01b81526001600160a01b03909216928201839052600060248301819052905163095ea7b3926044808201936020939283900390910190829087803b158015611c9e57600080fd5b505af1158015611cb2573d6000803e3d6000fd5b505050506040513d6020811015611cc857600080fd5b50506005546040805163095ea7b360e01b81526001600160a01b0390921660048301819052602483018690529051909163095ea7b39160448083019260209291908290030181600087803b158015611d1f57600080fd5b505af1158015611d33573d6000803e3d6000fd5b505050506040513d6020811015611d4957600080fd5b50506005546040805163140e25ad60e31b81526004810186905290516001600160a01b039092169163a0712d68916024808201926020929091908290030181600087803b158015611d9957600080fd5b505af1158015611dad573d6000803e3d6000fd5b505050506040513d6020811015611dc357600080fd5b50506005546040805163095ea7b360e01b81526001600160a01b03909216600483018190526000602484018190529151909263095ea7b39260448083019360209390929083900390910190829087803b158015611e1f57600080fd5b505af1158015611e33573d6000803e3d6000fd5b505050506040513d6020811015611e4957600080fd5b505060048054604080516370a0823160e01b81523093810193909352516000926001600160a01b03909216916370a08231916024808301926020929190829003018186803b158015611e9a57600080fd5b505afa158015611eae573d6000803e3d6000fd5b505050506040513d6020811015611ec457600080fd5b5051600554604080516370a0823160e01b815230600482015290519293506000926001600160a01b03909216916370a0823191602480820192602092909190829003018186803b158015611f1757600080fd5b505afa158015611f2b573d6000803e3d6000fd5b505050506040513d6020811015611f4157600080fd5b505190506000611f518584612dd8565b90506000611f5f8584612dd8565b90506000611f6d8b8b613303565b600b5490915080611fa457611f906103e8610c5a611f8b8787612d78565b6134c7565b9c50611f9f60006103e8613519565b611fe7565b611fe46001600160701b038d16611fbb8684612d78565b81611fc257fe5b046001600160701b038d16611fd78685612d78565b81611fde57fe5b046135a4565b9c505b60008d116120265760405162461bcd60e51b8152600401808060200182810382526027815260200180613a036027913960400191505060405180910390fd5b6120308e8e613519565b61203c86868e8e612e1a565b811561206657600354612062906001600160701b0380821691600160701b900416612d78565b6009555b6040805185815260208101859052815133927f4c209b5fc8ad50758f13e2e1088ba56a560dff690a1c6fef26394f4c03821c4f928290030190a250506001600a5550989a9950505050505050505050565b600c6020526000908152604090205481565b60095481565b600f6020526000908152604090205481565b6006546001600160701b031681565b600080600a5460011461213d576040805162461bcd60e51b815260206004820152601060248201526f1359195e14ddd85c0e881313d0d2d15160821b604482015290519081900360640190fd5b6000600a8190558061214d610da1565b5060048054600554604080516370a0823160e01b81523094810194909452519496509294506001600160a01b039081169392169160009184916370a0823191602480820192602092909190829003018186803b1580156121ac57600080fd5b505afa1580156121c0573d6000803e3d6000fd5b505050506040513d60208110156121d657600080fd5b5051604080516370a0823160e01b815230600482015290519192506000916001600160a01b038516916370a08231916024808301926020929190829003018186803b15801561222457600080fd5b505afa158015612238573d6000803e3d6000fd5b505050506040513d602081101561224e57600080fd5b5051306000908152600c602052604081205491925061226d8888613303565b600b549091506000816122808588612d78565b8161228757fe5b0490506000826122978688612d78565b8161229e57fe5b0490506000821180156122b15750600081115b6122ec5760405162461bcd60e51b81526004018080602001828103825260278152602001806139bb6027913960400191505060405180910390fd5b6122f630866135bb565b600154612310908f908b906001600160a01b03168561364c565b60025461232a908f908a906001600160a01b03168461364c565b604080516370a0823160e01b815230600482015290516001600160a01b038b16916370a08231916024808301926020929190829003018186803b15801561237057600080fd5b505afa158015612384573d6000803e3d6000fd5b505050506040513d602081101561239a57600080fd5b5051604080516370a0823160e01b815230600482015290519198506001600160a01b038a16916370a0823191602480820192602092909190829003018186803b1580156123e657600080fd5b505afa1580156123fa573d6000803e3d6000fd5b505050506040513d602081101561241057600080fd5b5051955061242087878d8d612e1a565b831561244a57600354612446906001600160701b0380821691600160701b900416612d78565b6009555b8d6001600160a01b0316336001600160a01b03167fdccd412f0b1252819cb1fd330b93224ca42612892bb3f4f789976e6d819364968f8f604051808381526020018281526020019250505060405180910390a350505050505050505050506001600a81905550915091565b6004546001600160a01b031681565b6040518060400160405280600481526020017f484d44580000000000000000000000000000000000000000000000000000000081525081565b6000610dd8338484613053565b6001546000906001600160a01b0384811691161480159061253957506002546001600160a01b03848116911614155b8061254d57506003546001600160701b0316155b806125685750600354600160701b90046001600160701b0316155b1561257557506000610ddc565b6001546001600160a01b03848116911614156125be576003546125b7906001600160701b03808216916125b191600160701b9091041685612d78565b906137a3565b9050610ddc565b6003546125b7906001600160701b03600160701b82048116916125b1911685612d78565b6103e881565b600a54600114612632576040805162461bcd60e51b815260206004820152601060248201526f1359195e14ddd85c0e881313d0d2d15160821b604482015290519081900360640190fd5b6000600a55600154600254600354604080516370a0823160e01b815230600482015290516001600160a01b0394851694909316926126db92859287926126d6926001600160701b03169185916370a0823191602480820192602092909190829003018186803b1580156126a457600080fd5b505afa1580156126b8573d6000803e3d6000fd5b505050506040513d60208110156126ce57600080fd5b505190612dd8565b612bc6565b61274f81846126d66003600e9054906101000a90046001600160701b03166001600160701b0316856001600160a01b03166370a08231306040518263ffffffff1660e01b815260040180826001600160a01b0316815260200191505060206040518083038186803b1580156126a457600080fd5b50506001600a5550565b6000546001600160a01b031681565b6002546001600160a01b031681565b428410156127cc576040805162461bcd60e51b815260206004820152600d60248201527f537761703a204558504952454400000000000000000000000000000000000000604482015290519081900360640190fd5b600e546001600160a01b038089166000818152600f602090815260408083208054600180820190925582517f6e71edae12b1b97f4d1f60370fef10105fa2faae0126114a169c64845d6126c98186015280840196909652958d166060860152608085018c905260a085019590955260c08085018b90528151808603909101815260e0850182528051908301207f19010000000000000000000000000000000000000000000000000000000000006101008601526101028501969096526101228085019690965280518085039096018652610142840180825286519683019690962095839052610162840180825286905260ff89166101828501526101a284018890526101c28401879052519193926101e280820193601f1981019281900390910190855afa158015612902573d6000803e3d6000fd5b5050604051601f1901519150506001600160a01b038116158015906129385750886001600160a01b0316816001600160a01b0316145b612989576040805162461bcd60e51b815260206004820152601760248201527f537761703a20494e56414c49445f5349474e4154555245000000000000000000604482015290519081900360640190fd5b612994898989612ff1565b505050505050505050565b6000546001600160a01b031633146129fe576040805162461bcd60e51b815260206004820152601360248201527f4d646578537761703a20464f5242494444454e00000000000000000000000000604482015290519081900360640190fd5b600480546001600160a01b0393841673ffffffffffffffffffffffffffffffffffffffff199182161790915560058054929093169116179055565b6005546001600160a01b031681565b600d60209081526000928352604080842090915290825290205481565b600a54600114612aaf576040805162461bcd60e51b815260206004820152601060248201526f1359195e14ddd85c0e881313d0d2d15160821b604482015290519081900360640190fd5b6000600a55600154604080516370a0823160e01b81523060048201529051612bbf926001600160a01b0316916370a08231916024808301926020929190829003018186803b158015612b0057600080fd5b505afa158015612b14573d6000803e3d6000fd5b505050506040513d6020811015612b2a57600080fd5b5051600254604080516370a0823160e01b815230600482015290516001600160a01b03909216916370a0823191602480820192602092909190829003018186803b158015612b7757600080fd5b505afa158015612b8b573d6000803e3d6000fd5b505050506040513d6020811015612ba157600080fd5b50516003546001600160701b0380821691600160701b900416612e1a565b6001600a55565b604080518082018252601981527f7472616e7366657228616464726573732c75696e74323536290000000000000060209182015281516001600160a01b0385811660248301526044808301869052845180840390910181526064909201845291810180516001600160e01b03167fa9059cbb0000000000000000000000000000000000000000000000000000000017815292518151600094859489169392918291908083835b60208310612c8b5780518252601f199092019160209182019101612c6c565b6001836020036101000a0380198251168184511680821785525050505050509050019150506000604051808303816000865af19150503d8060008114612ced576040519150601f19603f3d011682016040523d82523d6000602084013e612cf2565b606091505b5091509150818015612d20575080511580612d205750808060200190516020811015612d1d57600080fd5b50515b612d71576040805162461bcd60e51b815260206004820152601560248201527f537761703a205452414e534645525f4641494c45440000000000000000000000604482015290519081900360640190fd5b5050505050565b600082612d8757506000610ddc565b82820282848281612d9457fe5b0414612dd15760405162461bcd60e51b81526004018080602001828103825260218152602001806139e26021913960400191505060405180910390fd5b9392505050565b6000612dd183836040518060400160405280601e81526020017f536166654d6174683a207375627472616374696f6e206f766572666c6f7700008152506137e5565b6001600160701b038411801590612e3857506001600160701b038311155b612e89576040805162461bcd60e51b815260206004820152601260248201527f4d646578537761703a204f564552464c4f570000000000000000000000000000604482015290519081900360640190fd5b60035463ffffffff42811691600160e01b90048116820390811615801590612eb957506001600160701b03841615155b8015612ecd57506001600160701b03831615155b15612f38578063ffffffff16612ef585612ee68661387c565b6001600160e01b03169061388e565b600780546001600160e01b03929092169290920201905563ffffffff8116612f2084612ee68761387c565b600880546001600160e01b0392909216929092020190555b600380546dffffffffffffffffffffffffffff19166001600160701b03888116919091177fffffffff0000000000000000000000000000ffffffffffffffffffffffffffff16600160701b8883168102919091176001600160e01b0316600160e01b63ffffffff871602179283905560408051848416815291909304909116602082015281517f1c411e9a96e071241c2f21f7726b17ae89e3cab4c78be50e062b03a9fffbbad1929181900390910190a1505050505050565b6001600160a01b038084166000818152600d6020908152604080832094871680845294825291829020859055815185815291517f8c5be1e5ebec7d5bd14f71427d1e84f3dd0314c0f7b2291e5b200ac8c7c3b9259281900390910190a3505050565b6001600160a01b0383166000908152600c60205260409020546130769082612dd8565b6001600160a01b038085166000908152600c602052604080822093909355908416815220546130a590826138b3565b6001600160a01b038084166000818152600c602090815260409182902094909455805185815290519193928716927fddf252ad1be2c89b69c2b068fc378daa952ba7f163c4a11628f55a4df523b3ef92918290030190a3505050565b6000836001600160a01b031663852a12e3836040518263ffffffff1660e01b815260040180828152602001915050602060405180830381600087803b15801561314957600080fd5b505af115801561315d573d6000803e3d6000fd5b505050506040513d602081101561317357600080fd5b5051905080613204576131ff8386856001600160a01b03166370a08231306040518263ffffffff1660e01b815260040180826001600160a01b0316815260200191505060206040518083038186803b1580156131ce57600080fd5b505afa1580156131e2573d6000803e3d6000fd5b505050506040513d60208110156131f857600080fd5b5051612bc6565b612d71565b6000846001600160a01b031663bd6d894d6040518163ffffffff1660e01b8152600401602060405180830381600087803b15801561324157600080fd5b505af1158015613255573d6000803e3d6000fd5b505050506040513d602081101561326b57600080fd5b5051838161327557fe5b049050846001600160a01b031663a9059cbb87836040518363ffffffff1660e01b815260040180836001600160a01b0316815260200182815260200192505050602060405180830381600087803b1580156132cf57600080fd5b505af11580156132e3573d6000803e3d6000fd5b505050506040513d60208110156132f957600080fd5b5050505050505050565b60008054604080517f017e7e58000000000000000000000000000000000000000000000000000000008152905183926001600160a01b03169163017e7e58916004808301926020929190829003018186803b15801561336157600080fd5b505afa158015613375573d6000803e3d6000fd5b505050506040513d602081101561338b57600080fd5b50516009546001600160a01b0382161580159450919250906134b35780156134ae5760006133c8611f8b6001600160701b03888116908816612d78565b905060006133d5836134c7565b9050808211156134ab5760006133f76133ee8484612dd8565b600b5490612d78565b905060006134878361348160008054906101000a90046001600160a01b03166001600160a01b031663deba86e36040518163ffffffff1660e01b815260040160206040518083038186803b15801561344e57600080fd5b505afa158015613462573d6000803e3d6000fd5b505050506040513d602081101561347857600080fd5b50518790612d78565b906138b3565b9050600081838161349457fe5b04905080156134a7576134a78782613519565b5050505b50505b6134bf565b80156134bf5760006009555b505092915050565b6000600382111561350a575080600160028204015b81811015613504578091506002818285816134f357fe5b0401816134fc57fe5b0490506134dc565b50613514565b8115613514575060015b919050565b600b5461352690826138b3565b600b556001600160a01b0382166000908152600c602052604090205461354c90826138b3565b6001600160a01b0383166000818152600c602090815260408083209490945583518581529351929391927fddf252ad1be2c89b69c2b068fc378daa952ba7f163c4a11628f55a4df523b3ef9281900390910190a35050565b6000818311156135b45781612dd1565b5090919050565b6001600160a01b0382166000908152600c60205260409020546135de9082612dd8565b6001600160a01b0383166000908152600c6020526040902055600b546136049082612dd8565b600b556040805182815290516000916001600160a01b038516917fddf252ad1be2c89b69c2b068fc378daa952ba7f163c4a11628f55a4df523b3ef9181900360200190a35050565b6000836001600160a01b031663db006a75836040518263ffffffff1660e01b815260040180828152602001915050602060405180830381600087803b15801561369457600080fd5b505af11580156136a8573d6000803e3d6000fd5b505050506040513d60208110156136be57600080fd5b5051905080613719576131ff8386856001600160a01b03166370a08231306040518263ffffffff1660e01b815260040180826001600160a01b0316815260200191505060206040518083038186803b1580156131ce57600080fd5b836001600160a01b031663a9059cbb86846040518363ffffffff1660e01b815260040180836001600160a01b0316815260200182815260200192505050602060405180830381600087803b15801561377057600080fd5b505af1158015613784573d6000803e3d6000fd5b505050506040513d602081101561379a57600080fd5b50505050505050565b6000612dd183836040518060400160405280601a81526020017f536166654d6174683a206469766973696f6e206279207a65726f00000000000081525061390d565b600081848411156138745760405162461bcd60e51b81526004018080602001828103825283818151815260200191508051906020019080838360005b83811015613839578181015183820152602001613821565b50505050905090810190601f1680156138665780820380516001836020036101000a031916815260200191505b509250505060405180910390fd5b505050900390565b6001600160701b0316600160701b0290565b60006001600160701b0382166001600160e01b038416816138ab57fe5b049392505050565b600082820183811015612dd1576040805162461bcd60e51b815260206004820152601b60248201527f536166654d6174683a206164646974696f6e206f766572666c6f770000000000604482015290519081900360640190fd5b6000818361395c5760405162461bcd60e51b8152602060048201818152835160248401528351909283926044909101919085019080838360008315613839578181015183820152602001613821565b50600083858161396857fe5b0495945050505050565b6040518060c001604052806000815260200160006001600160a01b0316815260200160006001600160a01b03168152602001600081526020016000815260200160008152509056fe4d646578537761703a20494e53554646494349454e545f4c49515549444954595f4255524e4544536166654d6174683a206d756c7469706c69636174696f6e206f766572666c6f774d646578537761703a20494e53554646494349454e545f4c49515549444954595f4d494e544544a2646970667358221220db0671eb1e4f69020341a8bb55393d0d0d1a5f65ba4b91df461f7db4107bf66764736f6c6343000706003353776170466163746f72793a20494e53554646494349454e545f494e5055545f414d4f554e5453776170466163746f72793a20494e53554646494349454e545f4f55545055545f414d4f554e544d64657853776170466163746f72793a20466565546f536574746572206973207a65726f2061646472657373536166654d6174683a206d756c7469706c69636174696f6e206f766572666c6f774d64657853776170466163746f72793a204645455f544f5f524154455f4f564552464c4f5753776170466163746f72793a20494e53554646494349454e545f4c4951554944495459a2646970667358221220b196dfbb3af2352c0265198cac33f75be899d5fad79fd9c91ff272c329fc89c664736f6c6343000706003360806040526001600a5534801561001557600080fd5b5060408051808201825260088152672628102a37b5b2b760c11b6020918201528151808301835260018152603160f81b9082015281517f8b73c3c69bb8fe3d512ecc4cf759cc79239f7b179b0ffacaa9a75d522b39400f818301527fc285f7cfebd35a59cb5c0c032add67fdc80dcde2f8127cb94e4b49a72469ed02818401527fc89efdaa54c0f20c7adf612882df0950f5a951637e0307cdcb4c672f298b8bc660608201524660808201523060a0808301919091528351808303909101815260c09091019092528151910120600e55600080546001600160a01b03191633179055613a5f806101066000396000f3fe608060405234801561001057600080fd5b50600436106102415760003560e01c806370a0823111610145578063ba9a7a56116100bd578063d505accf1161008c578063d939fa8a11610071578063d939fa8a14610765578063dd62ed3e1461076d578063fff6cae91461079b57610241565b8063d505accf146106e6578063d8cbd6ae1461073757610241565b8063ba9a7a56146106a8578063bc25cf77146106b0578063c45a0155146106d6578063d21220a7146106de57610241565b806389afcb441161011457806395d89b41116100f957806395d89b4114610648578063a9059cbb14610650578063ad9b80241461067c57610241565b806389afcb4414610601578063948023ab1461064057610241565b806370a08231146105a55780637464fc3d146105cb5780637ecebe00146105d35780637ee60012146105f957610241565b806330adf81f116101d8578063569023a8116101a75780635a3d54931161018c5780635a3d5493146104eb5780636705a9c1146104f35780636a6278421461057f57610241565b8063569023a8146104bd5780635909c0d5146104e357610241565b806330adf81f14610461578063313ce567146104695780633644e51514610487578063485cc9551461048f57610241565b8063095ea7b311610214578063095ea7b3146103ad5780630dfe1681146103ed57806318160ddd1461041157806323b872dd1461042b57610241565b8063022c0d9f146102465780630559a35c146102d457806306fdde03146102f85780630902f1ac14610375575b600080fd5b6102d26004803603608081101561025c57600080fd5b8135916020810135916001600160a01b03604083013516919081019060808101606082013564010000000081111561029357600080fd5b8201836020820111156102a557600080fd5b803590602001918460018302840111640100000000831117156102c757600080fd5b5090925090506107a3565b005b6102dc610d52565b604080516001600160701b039092168252519081900360200190f35b610300610d68565b6040805160208082528351818301528351919283929083019185019080838360005b8381101561033a578181015183820152602001610322565b50505050905090810190601f1680156103675780820380516001836020036101000a031916815260200191505b509250505060405180910390f35b61037d610da1565b604080516001600160701b03948516815292909316602083015263ffffffff168183015290519081900360600190f35b6103d9600480360360408110156103c357600080fd5b506001600160a01b038135169060200135610dcb565b604080519115158252519081900360200190f35b6103f5610de2565b604080516001600160a01b039092168252519081900360200190f35b610419610df1565b60408051918252519081900360200190f35b6103d96004803603606081101561044157600080fd5b506001600160a01b03813581169160208101359091169060400135610df7565b610419610e8b565b610471610eaf565b6040805160ff9092168252519081900360200190f35b610419610eb4565b6102d2600480360360408110156104a557600080fd5b506001600160a01b0381358116916020013516610eba565b610419600480360360208110156104d357600080fd5b50356001600160a01b0316610f54565b610419610faa565b610419610fb0565b6102d26004803603608081101561050957600080fd5b8135916020810135916001600160a01b03604083013516919081019060808101606082013564010000000081111561054057600080fd5b82018360208201111561055257600080fd5b8035906020019184600183028401116401000000008311171561057457600080fd5b509092509050610fb6565b6104196004803603602081101561059557600080fd5b50356001600160a01b03166118f8565b610419600480360360208110156105bb57600080fd5b50356001600160a01b03166120b7565b6104196120c9565b610419600480360360208110156105e957600080fd5b50356001600160a01b03166120cf565b6102dc6120e1565b6106276004803603602081101561061757600080fd5b50356001600160a01b03166120f0565b6040805192835260208301919091528051918290030190f35b6103f56124b5565b6103006124c4565b6103d96004803603604081101561066657600080fd5b506001600160a01b0381351690602001356124fd565b6104196004803603604081101561069257600080fd5b506001600160a01b03813516906020013561250a565b6104196125e2565b6102d2600480360360208110156106c657600080fd5b50356001600160a01b03166125e8565b6103f5612759565b6103f5612768565b6102d2600480360360e08110156106fc57600080fd5b506001600160a01b03813581169160208101359091169060408101359060608101359060ff6080820135169060a08101359060c00135612777565b6102d26004803603604081101561074d57600080fd5b506001600160a01b038135811691602001351661299f565b6103f5612a39565b6104196004803603604081101561078357600080fd5b506001600160a01b0381358116916020013516612a48565b6102d2612a65565b600a546001146107ed576040805162461bcd60e51b815260206004820152601060248201526f1359195e14ddd85c0e881313d0d2d15160821b604482015290519081900360640190fd5b6000600a55841515806108005750600084115b610851576040805162461bcd60e51b815260206004820152601460248201527f537761703a20494e56414c49445f414d4f554e54000000000000000000000000604482015290519081900360640190fd5b60008061085c610da1565b5091509150816001600160701b0316871080156108815750806001600160701b031686105b6108d2576040805162461bcd60e51b815260206004820152601c60248201527f537761703a20494e53554646494349454e545f4c495155494449545900000000604482015290519081900360640190fd5b60015460025460009182916001600160a01b039182169190811690891682148015906109105750806001600160a01b0316896001600160a01b031614155b610954576040805162461bcd60e51b815260206004820152601060248201526f537761703a20494e56414c49445f544f60801b604482015290519081900360640190fd5b6004546001600160a01b038a811691161480159061098057506005546001600160a01b038a8116911614155b6109c4576040805162461bcd60e51b815260206004820152601060248201526f537761703a20494e56414c49445f544f60801b604482015290519081900360640190fd5b8a156109d5576109d5828a8d612bc6565b89156109e6576109e6818a8c612bc6565b8615610a9857886001600160a01b031663226dc882338d8d8c8c6040518663ffffffff1660e01b815260040180866001600160a01b03168152602001858152602001848152602001806020018281038252848482818152602001925080828437600081840152601f19601f8201169050808301925050509650505050505050600060405180830381600087803b158015610a7f57600080fd5b505af1158015610a93573d6000803e3d6000fd5b505050505b604080516370a0823160e01b815230600482015290516001600160a01b038416916370a08231916024808301926020929190829003018186803b158015610ade57600080fd5b505afa158015610af2573d6000803e3d6000fd5b505050506040513d6020811015610b0857600080fd5b5051604080516370a0823160e01b815230600482015290519195506001600160a01b038316916370a0823191602480820192602092909190829003018186803b158015610b5457600080fd5b505afa158015610b68573d6000803e3d6000fd5b505050506040513d6020811015610b7e57600080fd5b5051925060009150506001600160701b0385168a90038311610ba1576000610bb0565b89856001600160701b03160383035b9050600089856001600160701b0316038311610bcd576000610bdc565b89856001600160701b03160383035b90506000821180610bed5750600081115b610c3e576040805162461bcd60e51b815260206004820152601f60248201527f537761703a20494e53554646494349454e545f494e5055545f414d4f554e5400604482015290519081900360640190fd5b6000610c60610c4e846003612d78565b610c5a876103e8612d78565b90612dd8565b90506000610c72610c4e846003612d78565b9050610c97620f4240610c916001600160701b038b8116908b16612d78565b90612d78565b610ca18383612d78565b1015610cde576040805162461bcd60e51b8152602060048201526007602482015266537761703a204b60c81b604482015290519081900360640190fd5b5050610cec84848888612e1a565b60408051838152602081018390528082018d9052606081018c905290516001600160a01b038b169133917fd78ad95fa46c994b6551d0da85fc275fe613ce37657fb8d5e3d130840159d8229181900360800190a350506001600a55505050505050505050565b600654600160701b90046001600160701b031681565b6040518060400160405280600881526020017f4c5020546f6b656e00000000000000000000000000000000000000000000000081525081565b6003546001600160701b0380821692600160701b830490911691600160e01b900463ffffffff1690565b6000610dd8338484612ff1565b5060015b92915050565b6001546001600160a01b031681565b600b5481565b6001600160a01b0383166000908152600d6020908152604080832033845290915281205460001914610e76576001600160a01b0384166000908152600d60209081526040808320338452909152902054610e519083612dd8565b6001600160a01b0385166000908152600d602090815260408083203384529091529020555b610e81848484613053565b5060019392505050565b7f6e71edae12b1b97f4d1f60370fef10105fa2faae0126114a169c64845d6126c981565b601281565b600e5481565b6000546001600160a01b03163314610f19576040805162461bcd60e51b815260206004820152601360248201527f4d646578537761703a20464f5242494444454e00000000000000000000000000604482015290519081900360640190fd5b600180546001600160a01b0393841673ffffffffffffffffffffffffffffffffffffffff199182161790915560028054929093169116179055565b6000600a54600114610fa0576040805162461bcd60e51b815260206004820152601060248201526f1359195e14ddd85c0e881313d0d2d15160821b604482015290519081900360640190fd5b6001600a55919050565b60075481565b60085481565b600a54600114611000576040805162461bcd60e51b815260206004820152601060248201526f1359195e14ddd85c0e881313d0d2d15160821b604482015290519081900360640190fd5b6000600a55841515806110135750600084115b611064576040805162461bcd60e51b815260206004820152601460248201527f537761703a20494e56414c49445f414d4f554e54000000000000000000000000604482015290519081900360640190fd5b60008061106f610da1565b5091509150816001600160701b0316871080156110945750806001600160701b031686105b6110e5576040805162461bcd60e51b815260206004820152601c60248201527f537761703a20494e53554646494349454e545f4c495155494449545900000000604482015290519081900360640190fd5b6110ed613972565b6110f5613972565b6001546001600160a01b039081166020808501918252600254831690840152600454821660408086019190915260055483169084015251888216911614801590611155575080602001516001600160a01b0316876001600160a01b031614155b611199576040805162461bcd60e51b815260206004820152601060248201526f537761703a20494e56414c49445f544f60801b604482015290519081900360640190fd5b81604001516001600160a01b0316876001600160a01b0316141580156111d5575080604001516001600160a01b0316876001600160a01b031614155b611219576040805162461bcd60e51b815260206004820152601060248201526f537761703a20494e56414c49445f544f60801b604482015290519081900360640190fd5b88156112ae5781604001516001600160a01b031663bd6d894d6040518163ffffffff1660e01b8152600401602060405180830381600087803b15801561125e57600080fd5b505af1158015611272573d6000803e3d6000fd5b505050506040513d602081101561128857600080fd5b5051898161129257fe5b0460a0830152604082015160208301516112ae9189918c613101565b87156113435780604001516001600160a01b031663bd6d894d6040518163ffffffff1660e01b8152600401602060405180830381600087803b1580156112f357600080fd5b505af1158015611307573d6000803e3d6000fd5b505050506040513d602081101561131d57600080fd5b5051888161132757fe5b0460a0820152604081015160208201516113439189918b613101565b84156113f557866001600160a01b031663226dc882338b8b8a8a6040518663ffffffff1660e01b815260040180866001600160a01b03168152602001858152602001848152602001806020018281038252848482818152602001925080828437600081840152601f19601f8201169050808301925050509650505050505050600060405180830381600087803b1580156113dc57600080fd5b505af11580156113f0573d6000803e3d6000fd5b505050505b602080830151604080516370a0823160e01b815230600482015290516001600160a01b03909216926370a0823192602480840193829003018186803b15801561143d57600080fd5b505afa158015611451573d6000803e3d6000fd5b505050506040513d602081101561146757600080fd5b50516060830152602081810151604080516370a0823160e01b815230600482015290516001600160a01b03909216926370a0823192602480840193829003018186803b1580156114b657600080fd5b505afa1580156114ca573d6000803e3d6000fd5b505050506040513d60208110156114e057600080fd5b50516060808301919091528201511515806114ff575060008160600151115b611550576040805162461bcd60e51b815260206004820152601f60248201527f537761703a20494e53554646494349454e545f494e5055545f414d4f554e5400604482015290519081900360640190fd5b6060820151156115d55781604001516001600160a01b031663a0712d6883606001516040518263ffffffff1660e01b815260040180828152602001915050602060405180830381600087803b1580156115a857600080fd5b505af11580156115bc573d6000803e3d6000fd5b505050506040513d60208110156115d257600080fd5b50505b60608101511561165a5780604001516001600160a01b031663a0712d6882606001516040518263ffffffff1660e01b815260040180828152602001915050602060405180830381600087803b15801561162d57600080fd5b505af1158015611641573d6000803e3d6000fd5b505050506040513d602081101561165757600080fd5b50505b81604001516001600160a01b03166370a08231306040518263ffffffff1660e01b815260040180826001600160a01b0316815260200191505060206040518083038186803b1580156116ab57600080fd5b505afa1580156116bf573d6000803e3d6000fd5b505050506040513d60208110156116d557600080fd5b5051825260408082015181516370a0823160e01b815230600482015291516001600160a01b03909116916370a08231916024808301926020929190829003018186803b15801561172457600080fd5b505afa158015611738573d6000803e3d6000fd5b505050506040513d602081101561174e57600080fd5b5051815260a082015182516001600160701b038616919091031061177357600061178a565b8160a00151846001600160701b0316038260000151035b608083015260a081015181516001600160701b03851691909103106117b05760006117c7565b8060a00151836001600160701b0316038160000151035b6080808301919091528201516000906117f3906117e5906003612d78565b8451610c5a906103e8612d78565b905060006118126117e560038560800151612d7890919063ffffffff16565b9050611831620f4240610c916001600160701b03898116908916612d78565b61183b8383612d78565b1015611878576040805162461bcd60e51b8152602060048201526007602482015266537761703a204b60c81b604482015290519081900360640190fd5b50508151815161188a91908686612e1a565b606080830151828201516040805192835260208301919091528181018c90529181018a905290516001600160a01b0389169133917fd78ad95fa46c994b6551d0da85fc275fe613ce37657fb8d5e3d130840159d8229181900360800190a350506001600a5550505050505050565b6000600a54600114611944576040805162461bcd60e51b815260206004820152601060248201526f1359195e14ddd85c0e881313d0d2d15160821b604482015290519081900360640190fd5b6000600a81905580611954610da1565b50600154604080516370a0823160e01b815230600482015290519395509193506000926001600160a01b03909116916370a08231916024808301926020929190829003018186803b1580156119a857600080fd5b505afa1580156119bc573d6000803e3d6000fd5b505050506040513d60208110156119d257600080fd5b5051600254604080516370a0823160e01b815230600482015290519293506000926001600160a01b03909216916370a0823191602480820192602092909190829003018186803b158015611a2557600080fd5b505afa158015611a39573d6000803e3d6000fd5b505050506040513d6020811015611a4f57600080fd5b505160048054604080516370a0823160e01b81523093810193909352519293506000926001600160a01b03909116916370a08231916024808301926020929190829003018186803b158015611aa357600080fd5b505afa158015611ab7573d6000803e3d6000fd5b505050506040513d6020811015611acd57600080fd5b5051600554604080516370a0823160e01b815230600482015290519293506000926001600160a01b03909216916370a0823191602480820192602092909190829003018186803b158015611b2057600080fd5b505afa158015611b34573d6000803e3d6000fd5b505050506040513d6020811015611b4a57600080fd5b5051600480546040805163095ea7b360e01b81526001600160a01b039092169282018390526024820188905251929350909163095ea7b3916044808201926020929091908290030181600087803b158015611ba457600080fd5b505af1158015611bb8573d6000803e3d6000fd5b505050506040513d6020811015611bce57600080fd5b5050600480546040805163140e25ad60e31b8152928301879052516001600160a01b039091169163a0712d689160248083019260209291908290030181600087803b158015611c1c57600080fd5b505af1158015611c30573d6000803e3d6000fd5b505050506040513d6020811015611c4657600080fd5b5050600480546040805163095ea7b360e01b81526001600160a01b03909216928201839052600060248301819052905163095ea7b3926044808201936020939283900390910190829087803b158015611c9e57600080fd5b505af1158015611cb2573d6000803e3d6000fd5b505050506040513d6020811015611cc857600080fd5b50506005546040805163095ea7b360e01b81526001600160a01b0390921660048301819052602483018690529051909163095ea7b39160448083019260209291908290030181600087803b158015611d1f57600080fd5b505af1158015611d33573d6000803e3d6000fd5b505050506040513d6020811015611d4957600080fd5b50506005546040805163140e25ad60e31b81526004810186905290516001600160a01b039092169163a0712d68916024808201926020929091908290030181600087803b158015611d9957600080fd5b505af1158015611dad573d6000803e3d6000fd5b505050506040513d6020811015611dc357600080fd5b50506005546040805163095ea7b360e01b81526001600160a01b03909216600483018190526000602484018190529151909263095ea7b39260448083019360209390929083900390910190829087803b158015611e1f57600080fd5b505af1158015611e33573d6000803e3d6000fd5b505050506040513d6020811015611e4957600080fd5b505060048054604080516370a0823160e01b81523093810193909352516000926001600160a01b03909216916370a08231916024808301926020929190829003018186803b158015611e9a57600080fd5b505afa158015611eae573d6000803e3d6000fd5b505050506040513d6020811015611ec457600080fd5b5051600554604080516370a0823160e01b815230600482015290519293506000926001600160a01b03909216916370a0823191602480820192602092909190829003018186803b158015611f1757600080fd5b505afa158015611f2b573d6000803e3d6000fd5b505050506040513d6020811015611f4157600080fd5b505190506000611f518584612dd8565b90506000611f5f8584612dd8565b90506000611f6d8b8b613303565b600b5490915080611fa457611f906103e8610c5a611f8b8787612d78565b6134c7565b9c50611f9f60006103e8613519565b611fe7565b611fe46001600160701b038d16611fbb8684612d78565b81611fc257fe5b046001600160701b038d16611fd78685612d78565b81611fde57fe5b046135a4565b9c505b60008d116120265760405162461bcd60e51b8152600401808060200182810382526027815260200180613a036027913960400191505060405180910390fd5b6120308e8e613519565b61203c86868e8e612e1a565b811561206657600354612062906001600160701b0380821691600160701b900416612d78565b6009555b6040805185815260208101859052815133927f4c209b5fc8ad50758f13e2e1088ba56a560dff690a1c6fef26394f4c03821c4f928290030190a250506001600a5550989a9950505050505050505050565b600c6020526000908152604090205481565b60095481565b600f6020526000908152604090205481565b6006546001600160701b031681565b600080600a5460011461213d576040805162461bcd60e51b815260206004820152601060248201526f1359195e14ddd85c0e881313d0d2d15160821b604482015290519081900360640190fd5b6000600a8190558061214d610da1565b5060048054600554604080516370a0823160e01b81523094810194909452519496509294506001600160a01b039081169392169160009184916370a0823191602480820192602092909190829003018186803b1580156121ac57600080fd5b505afa1580156121c0573d6000803e3d6000fd5b505050506040513d60208110156121d657600080fd5b5051604080516370a0823160e01b815230600482015290519192506000916001600160a01b038516916370a08231916024808301926020929190829003018186803b15801561222457600080fd5b505afa158015612238573d6000803e3d6000fd5b505050506040513d602081101561224e57600080fd5b5051306000908152600c602052604081205491925061226d8888613303565b600b549091506000816122808588612d78565b8161228757fe5b0490506000826122978688612d78565b8161229e57fe5b0490506000821180156122b15750600081115b6122ec5760405162461bcd60e51b81526004018080602001828103825260278152602001806139bb6027913960400191505060405180910390fd5b6122f630866135bb565b600154612310908f908b906001600160a01b03168561364c565b60025461232a908f908a906001600160a01b03168461364c565b604080516370a0823160e01b815230600482015290516001600160a01b038b16916370a08231916024808301926020929190829003018186803b15801561237057600080fd5b505afa158015612384573d6000803e3d6000fd5b505050506040513d602081101561239a57600080fd5b5051604080516370a0823160e01b815230600482015290519198506001600160a01b038a16916370a0823191602480820192602092909190829003018186803b1580156123e657600080fd5b505afa1580156123fa573d6000803e3d6000fd5b505050506040513d602081101561241057600080fd5b5051955061242087878d8d612e1a565b831561244a57600354612446906001600160701b0380821691600160701b900416612d78565b6009555b8d6001600160a01b0316336001600160a01b03167fdccd412f0b1252819cb1fd330b93224ca42612892bb3f4f789976e6d819364968f8f604051808381526020018281526020019250505060405180910390a350505050505050505050506001600a81905550915091565b6004546001600160a01b031681565b6040518060400160405280600481526020017f484d44580000000000000000000000000000000000000000000000000000000081525081565b6000610dd8338484613053565b6001546000906001600160a01b0384811691161480159061253957506002546001600160a01b03848116911614155b8061254d57506003546001600160701b0316155b806125685750600354600160701b90046001600160701b0316155b1561257557506000610ddc565b6001546001600160a01b03848116911614156125be576003546125b7906001600160701b03808216916125b191600160701b9091041685612d78565b906137a3565b9050610ddc565b6003546125b7906001600160701b03600160701b82048116916125b1911685612d78565b6103e881565b600a54600114612632576040805162461bcd60e51b815260206004820152601060248201526f1359195e14ddd85c0e881313d0d2d15160821b604482015290519081900360640190fd5b6000600a55600154600254600354604080516370a0823160e01b815230600482015290516001600160a01b0394851694909316926126db92859287926126d6926001600160701b03169185916370a0823191602480820192602092909190829003018186803b1580156126a457600080fd5b505afa1580156126b8573d6000803e3d6000fd5b505050506040513d60208110156126ce57600080fd5b505190612dd8565b612bc6565b61274f81846126d66003600e9054906101000a90046001600160701b03166001600160701b0316856001600160a01b03166370a08231306040518263ffffffff1660e01b815260040180826001600160a01b0316815260200191505060206040518083038186803b1580156126a457600080fd5b50506001600a5550565b6000546001600160a01b031681565b6002546001600160a01b031681565b428410156127cc576040805162461bcd60e51b815260206004820152600d60248201527f537761703a204558504952454400000000000000000000000000000000000000604482015290519081900360640190fd5b600e546001600160a01b038089166000818152600f602090815260408083208054600180820190925582517f6e71edae12b1b97f4d1f60370fef10105fa2faae0126114a169c64845d6126c98186015280840196909652958d166060860152608085018c905260a085019590955260c08085018b90528151808603909101815260e0850182528051908301207f19010000000000000000000000000000000000000000000000000000000000006101008601526101028501969096526101228085019690965280518085039096018652610142840180825286519683019690962095839052610162840180825286905260ff89166101828501526101a284018890526101c28401879052519193926101e280820193601f1981019281900390910190855afa158015612902573d6000803e3d6000fd5b5050604051601f1901519150506001600160a01b038116158015906129385750886001600160a01b0316816001600160a01b0316145b612989576040805162461bcd60e51b815260206004820152601760248201527f537761703a20494e56414c49445f5349474e4154555245000000000000000000604482015290519081900360640190fd5b612994898989612ff1565b505050505050505050565b6000546001600160a01b031633146129fe576040805162461bcd60e51b815260206004820152601360248201527f4d646578537761703a20464f5242494444454e00000000000000000000000000604482015290519081900360640190fd5b600480546001600160a01b0393841673ffffffffffffffffffffffffffffffffffffffff199182161790915560058054929093169116179055565b6005546001600160a01b031681565b600d60209081526000928352604080842090915290825290205481565b600a54600114612aaf576040805162461bcd60e51b815260206004820152601060248201526f1359195e14ddd85c0e881313d0d2d15160821b604482015290519081900360640190fd5b6000600a55600154604080516370a0823160e01b81523060048201529051612bbf926001600160a01b0316916370a08231916024808301926020929190829003018186803b158015612b0057600080fd5b505afa158015612b14573d6000803e3d6000fd5b505050506040513d6020811015612b2a57600080fd5b5051600254604080516370a0823160e01b815230600482015290516001600160a01b03909216916370a0823191602480820192602092909190829003018186803b158015612b7757600080fd5b505afa158015612b8b573d6000803e3d6000fd5b505050506040513d6020811015612ba157600080fd5b50516003546001600160701b0380821691600160701b900416612e1a565b6001600a55565b604080518082018252601981527f7472616e7366657228616464726573732c75696e74323536290000000000000060209182015281516001600160a01b0385811660248301526044808301869052845180840390910181526064909201845291810180516001600160e01b03167fa9059cbb0000000000000000000000000000000000000000000000000000000017815292518151600094859489169392918291908083835b60208310612c8b5780518252601f199092019160209182019101612c6c565b6001836020036101000a0380198251168184511680821785525050505050509050019150506000604051808303816000865af19150503d8060008114612ced576040519150601f19603f3d011682016040523d82523d6000602084013e612cf2565b606091505b5091509150818015612d20575080511580612d205750808060200190516020811015612d1d57600080fd5b50515b612d71576040805162461bcd60e51b815260206004820152601560248201527f537761703a205452414e534645525f4641494c45440000000000000000000000604482015290519081900360640190fd5b5050505050565b600082612d8757506000610ddc565b82820282848281612d9457fe5b0414612dd15760405162461bcd60e51b81526004018080602001828103825260218152602001806139e26021913960400191505060405180910390fd5b9392505050565b6000612dd183836040518060400160405280601e81526020017f536166654d6174683a207375627472616374696f6e206f766572666c6f7700008152506137e5565b6001600160701b038411801590612e3857506001600160701b038311155b612e89576040805162461bcd60e51b815260206004820152601260248201527f4d646578537761703a204f564552464c4f570000000000000000000000000000604482015290519081900360640190fd5b60035463ffffffff42811691600160e01b90048116820390811615801590612eb957506001600160701b03841615155b8015612ecd57506001600160701b03831615155b15612f38578063ffffffff16612ef585612ee68661387c565b6001600160e01b03169061388e565b600780546001600160e01b03929092169290920201905563ffffffff8116612f2084612ee68761387c565b600880546001600160e01b0392909216929092020190555b600380546dffffffffffffffffffffffffffff19166001600160701b03888116919091177fffffffff0000000000000000000000000000ffffffffffffffffffffffffffff16600160701b8883168102919091176001600160e01b0316600160e01b63ffffffff871602179283905560408051848416815291909304909116602082015281517f1c411e9a96e071241c2f21f7726b17ae89e3cab4c78be50e062b03a9fffbbad1929181900390910190a1505050505050565b6001600160a01b038084166000818152600d6020908152604080832094871680845294825291829020859055815185815291517f8c5be1e5ebec7d5bd14f71427d1e84f3dd0314c0f7b2291e5b200ac8c7c3b9259281900390910190a3505050565b6001600160a01b0383166000908152600c60205260409020546130769082612dd8565b6001600160a01b038085166000908152600c602052604080822093909355908416815220546130a590826138b3565b6001600160a01b038084166000818152600c602090815260409182902094909455805185815290519193928716927fddf252ad1be2c89b69c2b068fc378daa952ba7f163c4a11628f55a4df523b3ef92918290030190a3505050565b6000836001600160a01b031663852a12e3836040518263ffffffff1660e01b815260040180828152602001915050602060405180830381600087803b15801561314957600080fd5b505af115801561315d573d6000803e3d6000fd5b505050506040513d602081101561317357600080fd5b5051905080613204576131ff8386856001600160a01b03166370a08231306040518263ffffffff1660e01b815260040180826001600160a01b0316815260200191505060206040518083038186803b1580156131ce57600080fd5b505afa1580156131e2573d6000803e3d6000fd5b505050506040513d60208110156131f857600080fd5b5051612bc6565b612d71565b6000846001600160a01b031663bd6d894d6040518163ffffffff1660e01b8152600401602060405180830381600087803b15801561324157600080fd5b505af1158015613255573d6000803e3d6000fd5b505050506040513d602081101561326b57600080fd5b5051838161327557fe5b049050846001600160a01b031663a9059cbb87836040518363ffffffff1660e01b815260040180836001600160a01b0316815260200182815260200192505050602060405180830381600087803b1580156132cf57600080fd5b505af11580156132e3573d6000803e3d6000fd5b505050506040513d60208110156132f957600080fd5b5050505050505050565b60008054604080517f017e7e58000000000000000000000000000000000000000000000000000000008152905183926001600160a01b03169163017e7e58916004808301926020929190829003018186803b15801561336157600080fd5b505afa158015613375573d6000803e3d6000fd5b505050506040513d602081101561338b57600080fd5b50516009546001600160a01b0382161580159450919250906134b35780156134ae5760006133c8611f8b6001600160701b03888116908816612d78565b905060006133d5836134c7565b9050808211156134ab5760006133f76133ee8484612dd8565b600b5490612d78565b905060006134878361348160008054906101000a90046001600160a01b03166001600160a01b031663deba86e36040518163ffffffff1660e01b815260040160206040518083038186803b15801561344e57600080fd5b505afa158015613462573d6000803e3d6000fd5b505050506040513d602081101561347857600080fd5b50518790612d78565b906138b3565b9050600081838161349457fe5b04905080156134a7576134a78782613519565b5050505b50505b6134bf565b80156134bf5760006009555b505092915050565b6000600382111561350a575080600160028204015b81811015613504578091506002818285816134f357fe5b0401816134fc57fe5b0490506134dc565b50613514565b8115613514575060015b919050565b600b5461352690826138b3565b600b556001600160a01b0382166000908152600c602052604090205461354c90826138b3565b6001600160a01b0383166000818152600c602090815260408083209490945583518581529351929391927fddf252ad1be2c89b69c2b068fc378daa952ba7f163c4a11628f55a4df523b3ef9281900390910190a35050565b6000818311156135b45781612dd1565b5090919050565b6001600160a01b0382166000908152600c60205260409020546135de9082612dd8565b6001600160a01b0383166000908152600c6020526040902055600b546136049082612dd8565b600b556040805182815290516000916001600160a01b038516917fddf252ad1be2c89b69c2b068fc378daa952ba7f163c4a11628f55a4df523b3ef9181900360200190a35050565b6000836001600160a01b031663db006a75836040518263ffffffff1660e01b815260040180828152602001915050602060405180830381600087803b15801561369457600080fd5b505af11580156136a8573d6000803e3d6000fd5b505050506040513d60208110156136be57600080fd5b5051905080613719576131ff8386856001600160a01b03166370a08231306040518263ffffffff1660e01b815260040180826001600160a01b0316815260200191505060206040518083038186803b1580156131ce57600080fd5b836001600160a01b031663a9059cbb86846040518363ffffffff1660e01b815260040180836001600160a01b0316815260200182815260200192505050602060405180830381600087803b15801561377057600080fd5b505af1158015613784573d6000803e3d6000fd5b505050506040513d602081101561379a57600080fd5b50505050505050565b6000612dd183836040518060400160405280601a81526020017f536166654d6174683a206469766973696f6e206279207a65726f00000000000081525061390d565b600081848411156138745760405162461bcd60e51b81526004018080602001828103825283818151815260200191508051906020019080838360005b83811015613839578181015183820152602001613821565b50505050905090810190601f1680156138665780820380516001836020036101000a031916815260200191505b509250505060405180910390fd5b505050900390565b6001600160701b0316600160701b0290565b60006001600160701b0382166001600160e01b038416816138ab57fe5b049392505050565b600082820183811015612dd1576040805162461bcd60e51b815260206004820152601b60248201527f536166654d6174683a206164646974696f6e206f766572666c6f770000000000604482015290519081900360640190fd5b6000818361395c5760405162461bcd60e51b8152602060048201818152835160248401528351909283926044909101919085019080838360008315613839578181015183820152602001613821565b50600083858161396857fe5b0495945050505050565b6040518060c001604052806000815260200160006001600160a01b0316815260200160006001600160a01b03168152602001600081526020016000815260200160008152509056fe4d646578537761703a20494e53554646494349454e545f4c49515549444954595f4255524e4544536166654d6174683a206d756c7469706c69636174696f6e206f766572666c6f774d646578537761703a20494e53554646494349454e545f4c49515549444954595f4d494e544544a2646970667358221220db0671eb1e4f69020341a8bb55393d0d0d1a5f65ba4b91df461f7db4107bf66764736f6c63430007060033",
  "devdoc": {
    "kind": "dev",
    "methods": {},
    "version": 1
  },
  "userdoc": {
    "kind": "user",
    "methods": {},
    "version": 1
  },
  "storageLayout": {
    "storage": [
      {
        "astId": 25336,
        "contract": "contracts/swap/heco/Factory.sol:MdexFactory",
        "label": "feeTo",
        "offset": 0,
        "slot": "0",
        "type": "t_address"
      },
      {
        "astId": 25339,
        "contract": "contracts/swap/heco/Factory.sol:MdexFactory",
        "label": "feeToSetter",
        "offset": 0,
        "slot": "1",
        "type": "t_address"
      },
      {
        "astId": 25342,
        "contract": "contracts/swap/heco/Factory.sol:MdexFactory",
        "label": "feeToRate",
        "offset": 0,
        "slot": "2",
        "type": "t_uint256"
      },
      {
        "astId": 25344,
        "contract": "contracts/swap/heco/Factory.sol:MdexFactory",
        "label": "initCodeHash",
        "offset": 0,
        "slot": "3",
        "type": "t_bytes32"
      },
      {
        "astId": 25346,
        "contract": "contracts/swap/heco/Factory.sol:MdexFactory",
        "label": "comptroller",
        "offset": 0,
        "slot": "4",
        "type": "t_contract(ComptrollerInterface)2775"
      },
      {
        "astId": 25353,
        "contract": "contracts/swap/heco/Factory.sol:MdexFactory",
        "label": "getPair",
        "offset": 0,
        "slot": "5",
        "type": "t_mapping(t_address,t_mapping(t_address,t_address))"
      },
      {
        "astId": 25357,
        "contract": "contracts/swap/heco/Factory.sol:MdexFactory",
        "label": "allPairs",
        "offset": 0,
        "slot": "6",
        "type": "t_array(t_address)dyn_storage"
      }
    ],
    "types": {
      "t_address": {
        "encoding": "inplace",
        "label": "address",
        "numberOfBytes": "20"
      },
      "t_array(t_address)dyn_storage": {
        "base": "t_address",
        "encoding": "dynamic_array",
        "label": "address[]",
        "numberOfBytes": "32"
      },
      "t_bytes32": {
        "encoding": "inplace",
        "label": "bytes32",
        "numberOfBytes": "32"
      },
      "t_contract(ComptrollerInterface)2775": {
        "encoding": "inplace",
        "label": "contract ComptrollerInterface",
        "numberOfBytes": "20"
      },
      "t_mapping(t_address,t_address)": {
        "encoding": "mapping",
        "key": "t_address",
        "label": "mapping(address => address)",
        "numberOfBytes": "32",
        "value": "t_address"
      },
      "t_mapping(t_address,t_mapping(t_address,t_address))": {
        "encoding": "mapping",
        "key": "t_address",
        "label": "mapping(address => mapping(address => address))",
        "numberOfBytes": "32",
        "value": "t_mapping(t_address,t_address)"
      },
      "t_uint256": {
        "encoding": "inplace",
        "label": "uint256",
        "numberOfBytes": "32"
      }
    }
  }
}