{
  "address": "0x062594B0489F1371F2B5fCde89377A45a0d82308",
  "abi": [
    {
      "inputs": [
        {
          "internalType": "address",
          "name": "_feeToSetter",
          "type": "address"
        }
      ],
      "payable": false,
      "stateMutability": "nonpayable",
      "type": "constructor"
    },
    {
      "anonymous": false,
      "inputs": [
        {
          "indexed": true,
          "internalType": "address",
          "name": "token0",
          "type": "address"
        },
        {
          "indexed": true,
          "internalType": "address",
          "name": "token1",
          "type": "address"
        },
        {
          "indexed": false,
          "internalType": "address",
          "name": "pair",
          "type": "address"
        },
        {
          "indexed": false,
          "internalType": "uint256",
          "name": "",
          "type": "uint256"
        }
      ],
      "name": "PairCreated",
      "type": "event"
    },
    {
      "constant": true,
      "inputs": [
        {
          "internalType": "uint256",
          "name": "",
          "type": "uint256"
        }
      ],
      "name": "allPairs",
      "outputs": [
        {
          "internalType": "address",
          "name": "",
          "type": "address"
        }
      ],
      "payable": false,
      "stateMutability": "view",
      "type": "function"
    },
    {
      "constant": true,
      "inputs": [],
      "name": "allPairsLength",
      "outputs": [
        {
          "internalType": "uint256",
          "name": "",
          "type": "uint256"
        }
      ],
      "payable": false,
      "stateMutability": "view",
      "type": "function"
    },
    {
      "constant": false,
      "inputs": [
        {
          "internalType": "address",
          "name": "tokenA",
          "type": "address"
        },
        {
          "internalType": "address",
          "name": "tokenB",
          "type": "address"
        }
      ],
      "name": "createPair",
      "outputs": [
        {
          "internalType": "address",
          "name": "pair",
          "type": "address"
        }
      ],
      "payable": false,
      "stateMutability": "nonpayable",
      "type": "function"
    },
    {
      "constant": true,
      "inputs": [],
      "name": "feeTo",
      "outputs": [
        {
          "internalType": "address",
          "name": "",
          "type": "address"
        }
      ],
      "payable": false,
      "stateMutability": "view",
      "type": "function"
    },
    {
      "constant": true,
      "inputs": [],
      "name": "feeToRate",
      "outputs": [
        {
          "internalType": "uint256",
          "name": "",
          "type": "uint256"
        }
      ],
      "payable": false,
      "stateMutability": "view",
      "type": "function"
    },
    {
      "constant": true,
      "inputs": [],
      "name": "feeToSetter",
      "outputs": [
        {
          "internalType": "address",
          "name": "",
          "type": "address"
        }
      ],
      "payable": false,
      "stateMutability": "view",
      "type": "function"
    },
    {
      "constant": true,
      "inputs": [
        {
          "internalType": "uint256",
          "name": "amountOut",
          "type": "uint256"
        },
        {
          "internalType": "uint256",
          "name": "reserveIn",
          "type": "uint256"
        },
        {
          "internalType": "uint256",
          "name": "reserveOut",
          "type": "uint256"
        }
      ],
      "name": "getAmountIn",
      "outputs": [
        {
          "internalType": "uint256",
          "name": "amountIn",
          "type": "uint256"
        }
      ],
      "payable": false,
      "stateMutability": "view",
      "type": "function"
    },
    {
      "constant": true,
      "inputs": [
        {
          "internalType": "uint256",
          "name": "amountIn",
          "type": "uint256"
        },
        {
          "internalType": "uint256",
          "name": "reserveIn",
          "type": "uint256"
        },
        {
          "internalType": "uint256",
          "name": "reserveOut",
          "type": "uint256"
        }
      ],
      "name": "getAmountOut",
      "outputs": [
        {
          "internalType": "uint256",
          "name": "amountOut",
          "type": "uint256"
        }
      ],
      "payable": false,
      "stateMutability": "view",
      "type": "function"
    },
    {
      "constant": true,
      "inputs": [
        {
          "internalType": "uint256",
          "name": "amountOut",
          "type": "uint256"
        },
        {
          "internalType": "address[]",
          "name": "path",
          "type": "address[]"
        }
      ],
      "name": "getAmountsIn",
      "outputs": [
        {
          "internalType": "uint256[]",
          "name": "amounts",
          "type": "uint256[]"
        }
      ],
      "payable": false,
      "stateMutability": "view",
      "type": "function"
    },
    {
      "constant": true,
      "inputs": [
        {
          "internalType": "uint256",
          "name": "amountIn",
          "type": "uint256"
        },
        {
          "internalType": "address[]",
          "name": "path",
          "type": "address[]"
        }
      ],
      "name": "getAmountsOut",
      "outputs": [
        {
          "internalType": "uint256[]",
          "name": "amounts",
          "type": "uint256[]"
        }
      ],
      "payable": false,
      "stateMutability": "view",
      "type": "function"
    },
    {
      "constant": true,
      "inputs": [],
      "name": "getInitCodeHash",
      "outputs": [
        {
          "internalType": "bytes32",
          "name": "",
          "type": "bytes32"
        }
      ],
      "payable": false,
      "stateMutability": "pure",
      "type": "function"
    },
    {
      "constant": true,
      "inputs": [
        {
          "internalType": "address",
          "name": "",
          "type": "address"
        },
        {
          "internalType": "address",
          "name": "",
          "type": "address"
        }
      ],
      "name": "getPair",
      "outputs": [
        {
          "internalType": "address",
          "name": "",
          "type": "address"
        }
      ],
      "payable": false,
      "stateMutability": "view",
      "type": "function"
    },
    {
      "constant": true,
      "inputs": [
        {
          "internalType": "address",
          "name": "tokenA",
          "type": "address"
        },
        {
          "internalType": "address",
          "name": "tokenB",
          "type": "address"
        }
      ],
      "name": "getReserves",
      "outputs": [
        {
          "internalType": "uint256",
          "name": "reserveA",
          "type": "uint256"
        },
        {
          "internalType": "uint256",
          "name": "reserveB",
          "type": "uint256"
        }
      ],
      "payable": false,
      "stateMutability": "view",
      "type": "function"
    },
    {
      "constant": true,
      "inputs": [],
      "name": "initCode",
      "outputs": [
        {
          "internalType": "bool",
          "name": "",
          "type": "bool"
        }
      ],
      "payable": false,
      "stateMutability": "view",
      "type": "function"
    },
    {
      "constant": true,
      "inputs": [],
      "name": "initCodeHash",
      "outputs": [
        {
          "internalType": "bytes32",
          "name": "",
          "type": "bytes32"
        }
      ],
      "payable": false,
      "stateMutability": "view",
      "type": "function"
    },
    {
      "constant": true,
      "inputs": [
        {
          "internalType": "address",
          "name": "tokenA",
          "type": "address"
        },
        {
          "internalType": "address",
          "name": "tokenB",
          "type": "address"
        }
      ],
      "name": "pairFor",
      "outputs": [
        {
          "internalType": "address",
          "name": "pair",
          "type": "address"
        }
      ],
      "payable": false,
      "stateMutability": "view",
      "type": "function"
    },
    {
      "constant": true,
      "inputs": [
        {
          "internalType": "uint256",
          "name": "amountA",
          "type": "uint256"
        },
        {
          "internalType": "uint256",
          "name": "reserveA",
          "type": "uint256"
        },
        {
          "internalType": "uint256",
          "name": "reserveB",
          "type": "uint256"
        }
      ],
      "name": "quote",
      "outputs": [
        {
          "internalType": "uint256",
          "name": "amountB",
          "type": "uint256"
        }
      ],
      "payable": false,
      "stateMutability": "pure",
      "type": "function"
    },
    {
      "constant": false,
      "inputs": [
        {
          "internalType": "address",
          "name": "_feeTo",
          "type": "address"
        }
      ],
      "name": "setFeeTo",
      "outputs": [],
      "payable": false,
      "stateMutability": "nonpayable",
      "type": "function"
    },
    {
      "constant": false,
      "inputs": [
        {
          "internalType": "uint256",
          "name": "_rate",
          "type": "uint256"
        }
      ],
      "name": "setFeeToRate",
      "outputs": [],
      "payable": false,
      "stateMutability": "nonpayable",
      "type": "function"
    },
    {
      "constant": false,
      "inputs": [
        {
          "internalType": "address",
          "name": "_feeToSetter",
          "type": "address"
        }
      ],
      "name": "setFeeToSetter",
      "outputs": [],
      "payable": false,
      "stateMutability": "nonpayable",
      "type": "function"
    },
    {
      "constant": false,
      "inputs": [
        {
          "internalType": "bytes32",
          "name": "_initCodeHash",
          "type": "bytes32"
        }
      ],
      "name": "setInitCodeHash",
      "outputs": [],
      "payable": false,
      "stateMutability": "nonpayable",
      "type": "function"
    },
    {
      "constant": true,
      "inputs": [
        {
          "internalType": "address",
          "name": "tokenA",
          "type": "address"
        },
        {
          "internalType": "address",
          "name": "tokenB",
          "type": "address"
        }
      ],
      "name": "sortTokens",
      "outputs": [
        {
          "internalType": "address",
          "name": "token0",
          "type": "address"
        },
        {
          "internalType": "address",
          "name": "token1",
          "type": "address"
        }
      ],
      "payable": false,
      "stateMutability": "pure",
      "type": "function"
    }
  ],
  "args": [
    "0x49d531908840FDDaC744543d57CB21B91c3D9094"
  ],
  "solcInputHash": "8847b05f5ef257cde24dc6317559ea78",
  "bytecode": "0x60806040526004805460ff1916905534801561001a57600080fd5b50604051620065a1380380620065a18339818101604052602081101561003f57600080fd5b5051600180546001600160a01b0319166001600160a01b03831617905560405161006b602082016100f8565b6020820181038252601f19601f820116604052506040516020018082805190602001908083835b602083106100b15780518252601f199092019160209182019101610092565b6001836020036101000a0380198251168184511680821785525050505050509050019150506040516020818303038152906040528051906020012060038190555050610106565b6126c78062003eda83390190565b613dc480620001166000396000f3fe608060405234801561001057600080fd5b50600436106101425760003560e01c8063a2e74af6116100b8578063d06ca61f1161007c578063d06ca61f14610455578063d52bb6f4146104ff578063db4c545e14610546578063deba86e31461054e578063e6a4390514610556578063f46901ed1461058457610142565b8063a2e74af61461039f578063a926e7c7146103c5578063ad615dec146103e1578063b5e4aa721461040a578063c9c653961461042757610142565b80632c9dc1591161010a5780632c9dc159146102c55780635431927d146102e4578063544caa56146102ec578063574f2ba31461034057806385f8c2591461034857806396ed28f91461037157610142565b8063017e7e5814610147578063054d50d41461016b578063094b7415146101a65780631e3dd18b146101ae5780631f00ca74146101cb575b600080fd5b61014f6105aa565b604080516001600160a01b039092168252519081900360200190f35b6101946004803603606081101561018157600080fd5b50803590602081013590604001356105b9565b60408051918252519081900360200190f35b61014f6106a9565b61014f600480360360208110156101c457600080fd5b50356106b8565b610275600480360360408110156101e157600080fd5b8135919081019060408101602082013564010000000081111561020357600080fd5b82018360208201111561021557600080fd5b8035906020019184602083028401116401000000008311171561023757600080fd5b9190808060200260200160405190810160405280939291908181526020018383602002808284376000920191909152509295506106df945050505050565b60408051602080825283518183015283519192839290830191858101910280838360005b838110156102b1578181015183820152602001610299565b505050509050019250505060405180910390f35b6102e2600480360360208110156102db57600080fd5b5035610813565b005b6101946108c3565b61031a6004803603604081101561030257600080fd5b506001600160a01b038135811691602001351661095b565b604080516001600160a01b03938416815291909216602082015281519081900390910190f35b610194610a39565b6101946004803603606081101561035e57600080fd5b5080359060208101359060400135610a3f565b61014f6004803603604081101561038757600080fd5b506001600160a01b0381358116916020013516610b2f565b6102e2600480360360208110156103b557600080fd5b50356001600160a01b0316610bc4565b6103cd610c87565b604080519115158252519081900360200190f35b610194600480360360608110156103f757600080fd5b5080359060208101359060400135610c90565b6102e26004803603602081101561042057600080fd5b5035610d3c565b61014f6004803603604081101561043d57600080fd5b506001600160a01b0381358116916020013516610dee565b6102756004803603604081101561046b57600080fd5b8135919081019060408101602082013564010000000081111561048d57600080fd5b82018360208201111561049f57600080fd5b803590602001918460208302840111640100000000831117156104c157600080fd5b919080806020026020016040519081016040528093929190818152602001838360200280828437600092019190915250929550611126945050505050565b61052d6004803603604081101561051557600080fd5b506001600160a01b0381358116916020013516611245565b6040805192835260208301919091528051918290030190f35b610194611311565b610194611317565b61014f6004803603604081101561056c57600080fd5b506001600160a01b038135811691602001351661131d565b6102e26004803603602081101561059a57600080fd5b50356001600160a01b0316611343565b6000546001600160a01b031681565b60008084116105f95760405162461bcd60e51b815260040180806020018281038252602a815260200180613c51602a913960400191505060405180910390fd5b6000831180156106095750600082115b6106445760405162461bcd60e51b8152600401808060200182810382526027815260200180613c7b6027913960400191505060405180910390fd5b6000610658856103e563ffffffff6113c116565b9050600061066c828563ffffffff6113c116565b9050600061069283610686886103e863ffffffff6113c116565b9063ffffffff61142316565b905080828161069d57fe5b04979650505050505050565b6001546001600160a01b031681565b600681815481106106c557fe5b6000918252602090912001546001600160a01b0316905081565b6060600282511015610738576040805162461bcd60e51b815260206004820152601d60248201527f4d64657853776170466163746f72793a20494e56414c49445f50415448000000604482015290519081900360640190fd5b8151604051908082528060200260200182016040528015610763578160200160208202803883390190505b509050828160018351038151811061077757fe5b60209081029190910101528151600019015b801561080c576000806107c58560018503815181106107a457fe5b60200260200101518685815181106107b857fe5b6020026020010151611245565b915091506107e78484815181106107d857fe5b60200260200101518383610a3f565b8460018503815181106107f657fe5b6020908102919091010152505060001901610789565b5092915050565b6001546001600160a01b0316331461086f576040805162461bcd60e51b815260206004820152601a60248201527926b232bc29bbb0b82330b1ba37b93c9d102327a92124a22222a760311b604482015290519081900360640190fd5b60045460ff16156108b15760405162461bcd60e51b8152600401808060200182810382526034815260200180613ca26034913960400191505060405180910390fd5b6003556004805460ff19166001179055565b6000604051806020016108d590611551565b6020820181038252601f19601f820116604052506040516020018082805190602001908083835b6020831061091b5780518252601f1990920191602091820191016108fc565b6001836020036101000a03801982511681845116808217855250505050505090500191505060405160208183030381529060405280519060200120905090565b600080826001600160a01b0316846001600160a01b031614156109af5760405162461bcd60e51b8152600401808060200182810382526024815260200180613d6c6024913960400191505060405180910390fd5b826001600160a01b0316846001600160a01b0316106109cf5782846109d2565b83835b90925090506001600160a01b038216610a32576040805162461bcd60e51b815260206004820152601d60248201527f4d64657853776170466163746f72793a205a45524f5f41444452455353000000604482015290519081900360640190fd5b9250929050565b60065490565b6000808411610a7f5760405162461bcd60e51b815260040180806020018281038252602b815260200180613c26602b913960400191505060405180910390fd5b600083118015610a8f5750600082115b610aca5760405162461bcd60e51b8152600401808060200182810382526027815260200180613c7b6027913960400191505060405180910390fd5b6000610aee6103e8610ae2868863ffffffff6113c116565b9063ffffffff6113c116565b90506000610b086103e5610ae2868963ffffffff61147d16565b9050610b256001828481610b1857fe5b049063ffffffff61142316565b9695505050505050565b6000806000610b3e858561095b565b604080516bffffffffffffffffffffffff19606094851b811660208084019190915293851b166034820152815160288183030181526048820183528051908401206003546001600160f81b031960688401523090951b6069830152607d820152609d808201949094528151808203909401845260bd019052815191012095945050505050565b6001546001600160a01b03163314610c20576040805162461bcd60e51b815260206004820152601a60248201527926b232bc29bbb0b82330b1ba37b93c9d102327a92124a22222a760311b604482015290519081900360640190fd5b6001600160a01b038116610c655760405162461bcd60e51b815260040180806020018281038252602c815260200180613cd6602c913960400191505060405180910390fd5b600180546001600160a01b0319166001600160a01b0392909216919091179055565b60045460ff1681565b6000808411610cd05760405162461bcd60e51b8152600401808060200182810382526024815260200180613d026024913960400191505060405180910390fd5b600083118015610ce05750600082115b610d1b5760405162461bcd60e51b8152600401808060200182810382526027815260200180613c7b6027913960400191505060405180910390fd5b82610d2c858463ffffffff6113c116565b81610d3357fe5b04949350505050565b6001546001600160a01b03163314610d98576040805162461bcd60e51b815260206004820152601a60248201527926b232bc29bbb0b82330b1ba37b93c9d102327a92124a22222a760311b604482015290519081900360640190fd5b60008111610dd75760405162461bcd60e51b8152600401808060200182810382526025815260200180613d476025913960400191505060405180910390fd5b610de881600163ffffffff61147d16565b60025550565b6000816001600160a01b0316836001600160a01b03161415610e57576040805162461bcd60e51b815260206004820181905260248201527f53776170466163746f72793a204944454e544943414c5f414444524553534553604482015290519081900360640190fd5b600080836001600160a01b0316856001600160a01b031610610e7a578385610e7d565b84845b90925090506001600160a01b038216610edd576040805162461bcd60e51b815260206004820152601d60248201527f4d64657853776170466163746f72793a205a45524f5f41444452455353000000604482015290519081900360640190fd5b6001600160a01b03828116600090815260056020908152604080832085851684529091529020541615610f57576040805162461bcd60e51b815260206004820152601c60248201527f4d64657853776170466163746f72793a20504149525f45584953545300000000604482015290519081900360640190fd5b606060405180602001610f6990611551565b6020820181038252601f19601f8201166040525090506000838360405160200180836001600160a01b03166001600160a01b031660601b8152601401826001600160a01b03166001600160a01b031660601b815260140192505050604051602081830303815290604052805190602001209050808251602084016000f56040805163485cc95560e01b81526001600160a01b038781166004830152868116602483015291519297509087169163485cc9559160448082019260009290919082900301818387803b15801561103c57600080fd5b505af1158015611050573d6000803e3d6000fd5b505050506001600160a01b0384811660008181526005602081815260408084208987168086529083528185208054978d166001600160a01b031998891681179091559383528185208686528352818520805488168517905560068054600181018255958190527ff652222313e28459528d920b65115c16c04f3efc82aaedc97be59f3f377c0d3f90950180549097168417909655925483519283529082015281517f0d3648bd0f6ba80134a33ba9275ac585d9d315f0ad8355cddefde31afa28d0e9929181900390910190a35050505092915050565b606060028251101561117f576040805162461bcd60e51b815260206004820152601d60248201527f4d64657853776170466163746f72793a20494e56414c49445f50415448000000604482015290519081900360640190fd5b81516040519080825280602002602001820160405280156111aa578160200160208202803883390190505b50905082816000815181106111bb57fe5b60200260200101818152505060005b600183510381101561080c576000806111ff8584815181106111e857fe5b60200260200101518685600101815181106107b857fe5b9150915061122184848151811061121257fe5b602002602001015183836105b9565b84846001018151811061123057fe5b602090810291909101015250506001016111ca565b6000806000611254858561095b565b5090506000806112648787610b2f565b6001600160a01b0316630902f1ac6040518163ffffffff1660e01b815260040160606040518083038186803b15801561129c57600080fd5b505afa1580156112b0573d6000803e3d6000fd5b505050506040513d60608110156112c657600080fd5b5080516020909101516dffffffffffffffffffffffffffff91821693501690506001600160a01b0387811690841614611300578082611303565b81815b909890975095505050505050565b60035481565b60025481565b60056020908152600092835260408084209091529082529020546001600160a01b031681565b6001546001600160a01b0316331461139f576040805162461bcd60e51b815260206004820152601a60248201527926b232bc29bbb0b82330b1ba37b93c9d102327a92124a22222a760311b604482015290519081900360640190fd5b600080546001600160a01b0319166001600160a01b0392909216919091179055565b6000826113d05750600061141d565b828202828482816113dd57fe5b041461141a5760405162461bcd60e51b8152600401808060200182810382526021815260200180613d266021913960400191505060405180910390fd5b90505b92915050565b60008282018381101561141a576040805162461bcd60e51b815260206004820152601b60248201527f536166654d6174683a206164646974696f6e206f766572666c6f770000000000604482015290519081900360640190fd5b600061141a83836040518060400160405280601e81526020017f536166654d6174683a207375627472616374696f6e206f766572666c6f770000815250600081848411156115495760405162461bcd60e51b81526004018080602001828103825283818151815260200191508051906020019080838360005b8381101561150e5781810151838201526020016114f6565b50505050905090810190601f16801561153b5780820380516001836020036101000a031916815260200191505b509250505060405180910390fd5b505050900390565b6126c78061155f8339019056fe60806040526001600c5534801561001557600080fd5b5060405146908060526126758239604080519182900360520182208282018252600e83526d2429bbb0b8102628102a37b5b2b760911b6020938401528151808301835260018152603160f81b908401528151808401919091527f87dad95daa867d5e0494900019e929bdf17f889d19a25c4156e2329f51c7c345818301527fc89efdaa54c0f20c7adf612882df0950f5a951637e0307cdcb4c672f298b8bc6606082015260808101949094523060a0808601919091528151808603909101815260c09094019052825192019190912060035550600580546001600160a01b0319163317905561256c806101096000396000f3fe608060405234801561001057600080fd5b50600436106101c45760003560e01c806370a08231116100f9578063ba9a7a5611610097578063d21220a711610071578063d21220a71461057b578063d505accf14610583578063dd62ed3e146105d4578063fff6cae914610602576101c4565b8063ba9a7a5614610545578063bc25cf771461054d578063c45a015514610573576101c4565b806389afcb44116100d357806389afcb44146104a657806395d89b41146104e5578063a9059cbb146104ed578063ad9b802414610519576101c4565b806370a08231146104525780637464fc3d146104785780637ecebe0014610480576101c4565b806330adf81f11610166578063485cc95511610140578063485cc955146103ee5780635909c0d51461041c5780635a3d5493146104245780636a6278421461042c576101c4565b806330adf81f146103c0578063313ce567146103c85780633644e515146103e6576101c4565b8063095ea7b3116101a2578063095ea7b31461030c5780630dfe16811461034c57806318160ddd1461037057806323b872dd1461038a576101c4565b8063022c0d9f146101c957806306fdde03146102575780630902f1ac146102d4575b600080fd5b610255600480360360808110156101df57600080fd5b8135916020810135916001600160a01b03604083013516919081019060808101606082013564010000000081111561021657600080fd5b82018360208201111561022857600080fd5b8035906020019184600183028401116401000000008311171561024a57600080fd5b50909250905061060a565b005b61025f610b58565b6040805160208082528351818301528351919283929083019185019080838360005b83811015610299578181015183820152602001610281565b50505050905090810190601f1680156102c65780820380516001836020036101000a031916815260200191505b509250505060405180910390f35b6102dc610b82565b604080516001600160701b03948516815292909316602083015263ffffffff168183015290519081900360600190f35b6103386004803603604081101561032257600080fd5b506001600160a01b038135169060200135610bac565b604080519115158252519081900360200190f35b610354610bc3565b604080516001600160a01b039092168252519081900360200190f35b610378610bd2565b60408051918252519081900360200190f35b610338600480360360608110156103a057600080fd5b506001600160a01b03813581169160208101359091169060400135610bd8565b610378610c72565b6103d0610c96565b6040805160ff9092168252519081900360200190f35b610378610c9b565b6102556004803603604081101561040457600080fd5b506001600160a01b0381358116916020013516610ca1565b610378610d24565b610378610d2a565b6103786004803603602081101561044257600080fd5b50356001600160a01b0316610d30565b6103786004803603602081101561046857600080fd5b50356001600160a01b031661102f565b610378611041565b6103786004803603602081101561049657600080fd5b50356001600160a01b0316611047565b6104cc600480360360208110156104bc57600080fd5b50356001600160a01b0316611059565b6040805192835260208301919091528051918290030190f35b61025f6113fe565b6103386004803603604081101561050357600080fd5b506001600160a01b03813516906020013561141e565b6103786004803603604081101561052f57600080fd5b506001600160a01b03813516906020013561142b565b610378611515565b6102556004803603602081101561056357600080fd5b50356001600160a01b031661151b565b610354611685565b610354611694565b610255600480360360e081101561059957600080fd5b506001600160a01b03813581169160208101359091169060408101359060608101359060ff6080820135169060a08101359060c001356116a3565b610378600480360360408110156105ea57600080fd5b506001600160a01b03813581169160200135166118a4565b6102556118c1565b600c54600114610654576040805162461bcd60e51b815260206004820152601060248201526f1359195e14ddd85c0e881313d0d2d15160821b604482015290519081900360640190fd5b6000600c55841515806106675750600084115b6106a25760405162461bcd60e51b81526004018080602001828103825260248152602001806124a96024913960400191505060405180910390fd5b6000806106ad610b82565b5091509150816001600160701b0316871080156106d25750806001600160701b031686105b610723576040805162461bcd60e51b815260206004820181905260248201527f4d646578537761703a20494e53554646494349454e545f4c4951554944495459604482015290519081900360640190fd5b60065460075460009182916001600160a01b039182169190811690891682148015906107615750806001600160a01b0316896001600160a01b031614155b6107a9576040805162461bcd60e51b81526020600482015260146024820152734d646578537761703a20494e56414c49445f544f60601b604482015290519081900360640190fd5b8a156107ba576107ba828a8d611a22565b89156107cb576107cb818a8c611a22565b861561088657886001600160a01b031663226dc882338d8d8c8c6040518663ffffffff1660e01b815260040180866001600160a01b03166001600160a01b03168152602001858152602001848152602001806020018281038252848482818152602001925080828437600081840152601f19601f8201169050808301925050509650505050505050600060405180830381600087803b15801561086d57600080fd5b505af1158015610881573d6000803e3d6000fd5b505050505b604080516370a0823160e01b815230600482015290516001600160a01b038416916370a08231916024808301926020929190829003018186803b1580156108cc57600080fd5b505afa1580156108e0573d6000803e3d6000fd5b505050506040513d60208110156108f657600080fd5b5051604080516370a0823160e01b815230600482015290519195506001600160a01b038316916370a0823191602480820192602092909190829003018186803b15801561094257600080fd5b505afa158015610956573d6000803e3d6000fd5b505050506040513d602081101561096c57600080fd5b5051925060009150506001600160701b0385168a9003831161098f57600061099e565b89856001600160701b03160383035b9050600089856001600160701b03160383116109bb5760006109ca565b89856001600160701b03160383035b905060008211806109db5750600081115b610a165760405162461bcd60e51b81526004018080602001828103825260238152602001806124ee6023913960400191505060405180910390fd5b6000610a4a610a2c84600363ffffffff611bbc16565b610a3e876103e863ffffffff611bbc16565b9063ffffffff611c1c16565b90506000610a62610a2c84600363ffffffff611bbc16565b9050610a93620f4240610a876001600160701b038b8116908b1663ffffffff611bbc16565b9063ffffffff611bbc16565b610aa3838363ffffffff611bbc16565b1015610ae4576040805162461bcd60e51b815260206004820152600b60248201526a4d646578537761703a204b60a81b604482015290519081900360640190fd5b5050610af284848888611c5e565b60408051838152602081018390528082018d9052606081018c905290516001600160a01b038b169133917fd78ad95fa46c994b6551d0da85fc275fe613ce37657fb8d5e3d130840159d8229181900360800190a350506001600c55505050505050505050565b6040518060400160405280600e81526020016d2429bbb0b8102628102a37b5b2b760911b81525081565b6008546001600160701b0380821692600160701b830490911691600160e01b900463ffffffff1690565b6000610bb9338484611e22565b5060015b92915050565b6006546001600160a01b031681565b60005481565b6001600160a01b038316600090815260026020908152604080832033845290915281205460001914610c5d576001600160a01b0384166000908152600260209081526040808320338452909152902054610c38908363ffffffff611c1c16565b6001600160a01b03851660009081526002602090815260408083203384529091529020555b610c68848484611e84565b5060019392505050565b7f6e71edae12b1b97f4d1f60370fef10105fa2faae0126114a169c64845d6126c981565b601281565b60035481565b6005546001600160a01b03163314610cf6576040805162461bcd60e51b815260206004820152601360248201527226b232bc29bbb0b81d102327a92124a22222a760691b604482015290519081900360640190fd5b600680546001600160a01b039384166001600160a01b03199182161790915560078054929093169116179055565b60095481565b600a5481565b6000600c54600114610d7c576040805162461bcd60e51b815260206004820152601060248201526f1359195e14ddd85c0e881313d0d2d15160821b604482015290519081900360640190fd5b6000600c81905580610d8c610b82565b50600654604080516370a0823160e01b815230600482015290519395509193506000926001600160a01b03909116916370a08231916024808301926020929190829003018186803b158015610de057600080fd5b505afa158015610df4573d6000803e3d6000fd5b505050506040513d6020811015610e0a57600080fd5b5051600754604080516370a0823160e01b815230600482015290519293506000926001600160a01b03909216916370a0823191602480820192602092909190829003018186803b158015610e5d57600080fd5b505afa158015610e71573d6000803e3d6000fd5b505050506040513d6020811015610e8757600080fd5b505190506000610ea6836001600160701b03871663ffffffff611c1c16565b90506000610ec3836001600160701b03871663ffffffff611c1c16565b90506000610ed18787611f3e565b60005490915080610f0e57610efa6103e8610a3e610ef5878763ffffffff611bbc16565b612115565b9850610f0960006103e8612167565b610f5d565b610f5a6001600160701b038916610f2b868463ffffffff611bbc16565b81610f3257fe5b046001600160701b038916610f4d868563ffffffff611bbc16565b81610f5457fe5b046121fd565b98505b60008911610f9c5760405162461bcd60e51b81526004018080602001828103825260278152602001806125116027913960400191505060405180910390fd5b610fa68a8a612167565b610fb286868a8a611c5e565b8115610fe257600854610fde906001600160701b0380821691600160701b90041663ffffffff611bbc16565b600b555b6040805185815260208101859052815133927f4c209b5fc8ad50758f13e2e1088ba56a560dff690a1c6fef26394f4c03821c4f928290030190a250506001600c5550949695505050505050565b60016020526000908152604090205481565b600b5481565b60046020526000908152604090205481565b600080600c546001146110a6576040805162461bcd60e51b815260206004820152601060248201526f1359195e14ddd85c0e881313d0d2d15160821b604482015290519081900360640190fd5b6000600c819055806110b6610b82565b50600654600754604080516370a0823160e01b815230600482015290519496509294506001600160a01b039182169391169160009184916370a08231916024808301926020929190829003018186803b15801561111257600080fd5b505afa158015611126573d6000803e3d6000fd5b505050506040513d602081101561113c57600080fd5b5051604080516370a0823160e01b815230600482015290519192506000916001600160a01b038516916370a08231916024808301926020929190829003018186803b15801561118a57600080fd5b505afa15801561119e573d6000803e3d6000fd5b505050506040513d60208110156111b457600080fd5b5051306000908152600160205260408120549192506111d38888611f3e565b600054909150806111ea848763ffffffff611bbc16565b816111f157fe5b049a5080611205848663ffffffff611bbc16565b8161120c57fe5b04995060008b11801561121f575060008a115b61125a5760405162461bcd60e51b81526004018080602001828103825260278152602001806124826027913960400191505060405180910390fd5b6112643084612214565b61126f878d8d611a22565b61127a868d8c611a22565b604080516370a0823160e01b815230600482015290516001600160a01b038916916370a08231916024808301926020929190829003018186803b1580156112c057600080fd5b505afa1580156112d4573d6000803e3d6000fd5b505050506040513d60208110156112ea57600080fd5b5051604080516370a0823160e01b815230600482015290519196506001600160a01b038816916370a0823191602480820192602092909190829003018186803b15801561133657600080fd5b505afa15801561134a573d6000803e3d6000fd5b505050506040513d602081101561136057600080fd5b5051935061137085858b8b611c5e565b81156113a05760085461139c906001600160701b0380821691600160701b90041663ffffffff611bbc16565b600b555b604080518c8152602081018c905281516001600160a01b038f169233927fdccd412f0b1252819cb1fd330b93224ca42612892bb3f4f789976e6d81936496929081900390910190a35050505050505050506001600c81905550915091565b604051806040016040528060048152602001630909a88b60e31b81525081565b6000610bb9338484611e84565b6006546000906001600160a01b0384811691161480159061145a57506007546001600160a01b03848116911614155b8061146e57506008546001600160701b0316155b806114895750600854600160701b90046001600160701b0316155b1561149657506000610bbd565b6006546001600160a01b03848116911614156114eb576008546114e4906001600160701b03808216916114d891600160701b909104168563ffffffff611bbc16565b9063ffffffff6122b216565b9050610bbd565b6008546114e4906001600160701b03600160701b82048116916114d891168563ffffffff611bbc16565b6103e881565b600c54600114611565576040805162461bcd60e51b815260206004820152601060248201526f1359195e14ddd85c0e881313d0d2d15160821b604482015290519081900360640190fd5b6000600c55600654600754600854604080516370a0823160e01b815230600482015290516001600160a01b039485169490931692611614928592879261160f926001600160701b03169185916370a0823191602480820192602092909190829003018186803b1580156115d757600080fd5b505afa1580156115eb573d6000803e3d6000fd5b505050506040513d602081101561160157600080fd5b50519063ffffffff611c1c16565b611a22565b600854604080516370a0823160e01b8152306004820152905161167b928492879261160f92600160701b90046001600160701b0316916001600160a01b038616916370a0823191602480820192602092909190829003018186803b1580156115d757600080fd5b50506001600c5550565b6005546001600160a01b031681565b6007546001600160a01b031681565b428410156116ec576040805162461bcd60e51b81526020600482015260116024820152701359195e14ddd85c0e8811561412549151607a1b604482015290519081900360640190fd5b6003546001600160a01b0380891660008181526004602090815260408083208054600180820190925582517f6e71edae12b1b97f4d1f60370fef10105fa2faae0126114a169c64845d6126c98186015280840196909652958d166060860152608085018c905260a085019590955260c08085018b90528151808603909101815260e08501825280519083012061190160f01b6101008601526101028501969096526101228085019690965280518085039096018652610142840180825286519683019690962095839052610162840180825286905260ff89166101828501526101a284018890526101c28401879052519193926101e280820193601f1981019281900390910190855afa158015611807573d6000803e3d6000fd5b5050604051601f1901519150506001600160a01b0381161580159061183d5750886001600160a01b0316816001600160a01b0316145b61188e576040805162461bcd60e51b815260206004820152601b60248201527f4d646578537761703a20494e56414c49445f5349474e41545552450000000000604482015290519081900360640190fd5b611899898989611e22565b505050505050505050565b600260209081526000928352604080842090915290825290205481565b600c5460011461190b576040805162461bcd60e51b815260206004820152601060248201526f1359195e14ddd85c0e881313d0d2d15160821b604482015290519081900360640190fd5b6000600c55600654604080516370a0823160e01b81523060048201529051611a1b926001600160a01b0316916370a08231916024808301926020929190829003018186803b15801561195c57600080fd5b505afa158015611970573d6000803e3d6000fd5b505050506040513d602081101561198657600080fd5b5051600754604080516370a0823160e01b815230600482015290516001600160a01b03909216916370a0823191602480820192602092909190829003018186803b1580156119d357600080fd5b505afa1580156119e7573d6000803e3d6000fd5b505050506040513d60208110156119fd57600080fd5b50516008546001600160701b0380821691600160701b900416611c5e565b6001600c55565b604080518082018252601981527f7472616e7366657228616464726573732c75696e74323536290000000000000060209182015281516001600160a01b0385811660248301526044808301869052845180840390910181526064909201845291810180516001600160e01b031663a9059cbb60e01b1781529251815160009460609489169392918291908083835b60208310611acf5780518252601f199092019160209182019101611ab0565b6001836020036101000a0380198251168184511680821785525050505050509050019150506000604051808303816000865af19150503d8060008114611b31576040519150601f19603f3d011682016040523d82523d6000602084013e611b36565b606091505b5091509150818015611b64575080511580611b645750808060200190516020811015611b6157600080fd5b50515b611bb5576040805162461bcd60e51b815260206004820152601960248201527f4d646578537761703a205452414e534645525f4641494c454400000000000000604482015290519081900360640190fd5b5050505050565b600082611bcb57506000610bbd565b82820282848281611bd857fe5b0414611c155760405162461bcd60e51b81526004018080602001828103825260218152602001806124cd6021913960400191505060405180910390fd5b9392505050565b6000611c1583836040518060400160405280601e81526020017f536166654d6174683a207375627472616374696f6e206f766572666c6f7700008152506122f4565b6001600160701b038411801590611c7c57506001600160701b038311155b611cc2576040805162461bcd60e51b81526020600482015260126024820152714d646578537761703a204f564552464c4f5760701b604482015290519081900360640190fd5b60085463ffffffff42811691600160e01b90048116820390811615801590611cf257506001600160701b03841615155b8015611d0657506001600160701b03831615155b15611d77578063ffffffff16611d3485611d1f8661238b565b6001600160e01b03169063ffffffff61239d16565b600980546001600160e01b03929092169290920201905563ffffffff8116611d5f84611d1f8761238b565b600a80546001600160e01b0392909216929092020190555b600880546dffffffffffffffffffffffffffff19166001600160701b03888116919091176dffffffffffffffffffffffffffff60701b1916600160701b8883168102919091176001600160e01b0316600160e01b63ffffffff871602179283905560408051848416815291909304909116602082015281517f1c411e9a96e071241c2f21f7726b17ae89e3cab4c78be50e062b03a9fffbbad1929181900390910190a1505050505050565b6001600160a01b03808416600081815260026020908152604080832094871680845294825291829020859055815185815291517f8c5be1e5ebec7d5bd14f71427d1e84f3dd0314c0f7b2291e5b200ac8c7c3b9259281900390910190a3505050565b6001600160a01b038316600090815260016020526040902054611ead908263ffffffff611c1c16565b6001600160a01b038085166000908152600160205260408082209390935590841681522054611ee2908263ffffffff6123c216565b6001600160a01b0380841660008181526001602090815260409182902094909455805185815290519193928716927fddf252ad1be2c89b69c2b068fc378daa952ba7f163c4a11628f55a4df523b3ef92918290030190a3505050565b600080600560009054906101000a90046001600160a01b03166001600160a01b031663017e7e586040518163ffffffff1660e01b815260040160206040518083038186803b158015611f8f57600080fd5b505afa158015611fa3573d6000803e3d6000fd5b505050506040513d6020811015611fb957600080fd5b5051600b546001600160a01b0382161580159450919250906121015780156120fc576000611ffc610ef56001600160701b0388811690881663ffffffff611bbc16565b9050600061200983612115565b9050808211156120f9576000612037612028848463ffffffff611c1c16565b6000549063ffffffff611bbc16565b905060006120d5836120c9600560009054906101000a90046001600160a01b03166001600160a01b031663deba86e36040518163ffffffff1660e01b815260040160206040518083038186803b15801561209057600080fd5b505afa1580156120a4573d6000803e3d6000fd5b505050506040513d60208110156120ba57600080fd5b5051879063ffffffff611bbc16565b9063ffffffff6123c216565b905060008183816120e257fe5b04905080156120f5576120f58782612167565b5050505b50505b61210d565b801561210d576000600b555b505092915050565b60006003821115612158575080600160028204015b818110156121525780915060028182858161214157fe5b04018161214a57fe5b04905061212a565b50612162565b8115612162575060015b919050565b60005461217a908263ffffffff6123c216565b60009081556001600160a01b0383168152600160205260409020546121a5908263ffffffff6123c216565b6001600160a01b03831660008181526001602090815260408083209490945583518581529351929391927fddf252ad1be2c89b69c2b068fc378daa952ba7f163c4a11628f55a4df523b3ef9281900390910190a35050565b60008183111561220d5781611c15565b5090919050565b6001600160a01b03821660009081526001602052604090205461223d908263ffffffff611c1c16565b6001600160a01b0383166000908152600160205260408120919091555461226a908263ffffffff611c1c16565b60009081556040805183815290516001600160a01b038516917fddf252ad1be2c89b69c2b068fc378daa952ba7f163c4a11628f55a4df523b3ef919081900360200190a35050565b6000611c1583836040518060400160405280601a81526020017f536166654d6174683a206469766973696f6e206279207a65726f00000000000081525061241c565b600081848411156123835760405162461bcd60e51b81526004018080602001828103825283818151815260200191508051906020019080838360005b83811015612348578181015183820152602001612330565b50505050905090810190601f1680156123755780820380516001836020036101000a031916815260200191505b509250505060405180910390fd5b505050900390565b6001600160701b0316600160701b0290565b60006001600160701b0382166001600160e01b038416816123ba57fe5b049392505050565b600082820183811015611c15576040805162461bcd60e51b815260206004820152601b60248201527f536166654d6174683a206164646974696f6e206f766572666c6f770000000000604482015290519081900360640190fd5b6000818361246b5760405162461bcd60e51b8152602060048201818152835160248401528351909283926044909101919085019080838360008315612348578181015183820152602001612330565b50600083858161247757fe5b049594505050505056fe4d646578537761703a20494e53554646494349454e545f4c49515549444954595f4255524e45444d646578537761703a20494e53554646494349454e545f4f55545055545f414d4f554e54536166654d6174683a206d756c7469706c69636174696f6e206f766572666c6f774d646578537761703a20494e53554646494349454e545f494e5055545f414d4f554e544d646578537761703a20494e53554646494349454e545f4c49515549444954595f4d494e544544a265627a7a7231582014a6c57e7fe615bbc7356728288d3c0ca1d66efe2094b1b4eed943c81e2e772064736f6c63430005100032454950373132446f6d61696e28737472696e67206e616d652c737472696e672076657273696f6e2c75696e7432353620636861696e49642c6164647265737320766572696679696e67436f6e7472616374294d64657853776170466163746f72793a20494e53554646494349454e545f4f55545055545f414d4f554e544d64657853776170466163746f72793a20494e53554646494349454e545f494e5055545f414d4f554e544d64657853776170466163746f72793a20494e53554646494349454e545f4c49515549444954594d64657853776170466163746f72793a20446f206e6f74207265706561742073657474696e677320696e6974436f6465486173684d64657853776170466163746f72793a20466565546f536574746572206973207a65726f20616464726573734d64657853776170466163746f72793a20494e53554646494349454e545f414d4f554e54536166654d6174683a206d756c7469706c69636174696f6e206f766572666c6f774d64657853776170466163746f72793a204645455f544f5f524154455f4f564552464c4f574d64657853776170466163746f72793a204944454e544943414c5f414444524553534553a265627a7a7231582068c3f8c16fd371a4f8a3d49fa541cbd9e6583df6c1174e255df2b3dd7913bcf164736f6c6343000510003260806040526001600c5534801561001557600080fd5b5060405146908060526126758239604080519182900360520182208282018252600e83526d2429bbb0b8102628102a37b5b2b760911b6020938401528151808301835260018152603160f81b908401528151808401919091527f87dad95daa867d5e0494900019e929bdf17f889d19a25c4156e2329f51c7c345818301527fc89efdaa54c0f20c7adf612882df0950f5a951637e0307cdcb4c672f298b8bc6606082015260808101949094523060a0808601919091528151808603909101815260c09094019052825192019190912060035550600580546001600160a01b0319163317905561256c806101096000396000f3fe608060405234801561001057600080fd5b50600436106101c45760003560e01c806370a08231116100f9578063ba9a7a5611610097578063d21220a711610071578063d21220a71461057b578063d505accf14610583578063dd62ed3e146105d4578063fff6cae914610602576101c4565b8063ba9a7a5614610545578063bc25cf771461054d578063c45a015514610573576101c4565b806389afcb44116100d357806389afcb44146104a657806395d89b41146104e5578063a9059cbb146104ed578063ad9b802414610519576101c4565b806370a08231146104525780637464fc3d146104785780637ecebe0014610480576101c4565b806330adf81f11610166578063485cc95511610140578063485cc955146103ee5780635909c0d51461041c5780635a3d5493146104245780636a6278421461042c576101c4565b806330adf81f146103c0578063313ce567146103c85780633644e515146103e6576101c4565b8063095ea7b3116101a2578063095ea7b31461030c5780630dfe16811461034c57806318160ddd1461037057806323b872dd1461038a576101c4565b8063022c0d9f146101c957806306fdde03146102575780630902f1ac146102d4575b600080fd5b610255600480360360808110156101df57600080fd5b8135916020810135916001600160a01b03604083013516919081019060808101606082013564010000000081111561021657600080fd5b82018360208201111561022857600080fd5b8035906020019184600183028401116401000000008311171561024a57600080fd5b50909250905061060a565b005b61025f610b58565b6040805160208082528351818301528351919283929083019185019080838360005b83811015610299578181015183820152602001610281565b50505050905090810190601f1680156102c65780820380516001836020036101000a031916815260200191505b509250505060405180910390f35b6102dc610b82565b604080516001600160701b03948516815292909316602083015263ffffffff168183015290519081900360600190f35b6103386004803603604081101561032257600080fd5b506001600160a01b038135169060200135610bac565b604080519115158252519081900360200190f35b610354610bc3565b604080516001600160a01b039092168252519081900360200190f35b610378610bd2565b60408051918252519081900360200190f35b610338600480360360608110156103a057600080fd5b506001600160a01b03813581169160208101359091169060400135610bd8565b610378610c72565b6103d0610c96565b6040805160ff9092168252519081900360200190f35b610378610c9b565b6102556004803603604081101561040457600080fd5b506001600160a01b0381358116916020013516610ca1565b610378610d24565b610378610d2a565b6103786004803603602081101561044257600080fd5b50356001600160a01b0316610d30565b6103786004803603602081101561046857600080fd5b50356001600160a01b031661102f565b610378611041565b6103786004803603602081101561049657600080fd5b50356001600160a01b0316611047565b6104cc600480360360208110156104bc57600080fd5b50356001600160a01b0316611059565b6040805192835260208301919091528051918290030190f35b61025f6113fe565b6103386004803603604081101561050357600080fd5b506001600160a01b03813516906020013561141e565b6103786004803603604081101561052f57600080fd5b506001600160a01b03813516906020013561142b565b610378611515565b6102556004803603602081101561056357600080fd5b50356001600160a01b031661151b565b610354611685565b610354611694565b610255600480360360e081101561059957600080fd5b506001600160a01b03813581169160208101359091169060408101359060608101359060ff6080820135169060a08101359060c001356116a3565b610378600480360360408110156105ea57600080fd5b506001600160a01b03813581169160200135166118a4565b6102556118c1565b600c54600114610654576040805162461bcd60e51b815260206004820152601060248201526f1359195e14ddd85c0e881313d0d2d15160821b604482015290519081900360640190fd5b6000600c55841515806106675750600084115b6106a25760405162461bcd60e51b81526004018080602001828103825260248152602001806124a96024913960400191505060405180910390fd5b6000806106ad610b82565b5091509150816001600160701b0316871080156106d25750806001600160701b031686105b610723576040805162461bcd60e51b815260206004820181905260248201527f4d646578537761703a20494e53554646494349454e545f4c4951554944495459604482015290519081900360640190fd5b60065460075460009182916001600160a01b039182169190811690891682148015906107615750806001600160a01b0316896001600160a01b031614155b6107a9576040805162461bcd60e51b81526020600482015260146024820152734d646578537761703a20494e56414c49445f544f60601b604482015290519081900360640190fd5b8a156107ba576107ba828a8d611a22565b89156107cb576107cb818a8c611a22565b861561088657886001600160a01b031663226dc882338d8d8c8c6040518663ffffffff1660e01b815260040180866001600160a01b03166001600160a01b03168152602001858152602001848152602001806020018281038252848482818152602001925080828437600081840152601f19601f8201169050808301925050509650505050505050600060405180830381600087803b15801561086d57600080fd5b505af1158015610881573d6000803e3d6000fd5b505050505b604080516370a0823160e01b815230600482015290516001600160a01b038416916370a08231916024808301926020929190829003018186803b1580156108cc57600080fd5b505afa1580156108e0573d6000803e3d6000fd5b505050506040513d60208110156108f657600080fd5b5051604080516370a0823160e01b815230600482015290519195506001600160a01b038316916370a0823191602480820192602092909190829003018186803b15801561094257600080fd5b505afa158015610956573d6000803e3d6000fd5b505050506040513d602081101561096c57600080fd5b5051925060009150506001600160701b0385168a9003831161098f57600061099e565b89856001600160701b03160383035b9050600089856001600160701b03160383116109bb5760006109ca565b89856001600160701b03160383035b905060008211806109db5750600081115b610a165760405162461bcd60e51b81526004018080602001828103825260238152602001806124ee6023913960400191505060405180910390fd5b6000610a4a610a2c84600363ffffffff611bbc16565b610a3e876103e863ffffffff611bbc16565b9063ffffffff611c1c16565b90506000610a62610a2c84600363ffffffff611bbc16565b9050610a93620f4240610a876001600160701b038b8116908b1663ffffffff611bbc16565b9063ffffffff611bbc16565b610aa3838363ffffffff611bbc16565b1015610ae4576040805162461bcd60e51b815260206004820152600b60248201526a4d646578537761703a204b60a81b604482015290519081900360640190fd5b5050610af284848888611c5e565b60408051838152602081018390528082018d9052606081018c905290516001600160a01b038b169133917fd78ad95fa46c994b6551d0da85fc275fe613ce37657fb8d5e3d130840159d8229181900360800190a350506001600c55505050505050505050565b6040518060400160405280600e81526020016d2429bbb0b8102628102a37b5b2b760911b81525081565b6008546001600160701b0380821692600160701b830490911691600160e01b900463ffffffff1690565b6000610bb9338484611e22565b5060015b92915050565b6006546001600160a01b031681565b60005481565b6001600160a01b038316600090815260026020908152604080832033845290915281205460001914610c5d576001600160a01b0384166000908152600260209081526040808320338452909152902054610c38908363ffffffff611c1c16565b6001600160a01b03851660009081526002602090815260408083203384529091529020555b610c68848484611e84565b5060019392505050565b7f6e71edae12b1b97f4d1f60370fef10105fa2faae0126114a169c64845d6126c981565b601281565b60035481565b6005546001600160a01b03163314610cf6576040805162461bcd60e51b815260206004820152601360248201527226b232bc29bbb0b81d102327a92124a22222a760691b604482015290519081900360640190fd5b600680546001600160a01b039384166001600160a01b03199182161790915560078054929093169116179055565b60095481565b600a5481565b6000600c54600114610d7c576040805162461bcd60e51b815260206004820152601060248201526f1359195e14ddd85c0e881313d0d2d15160821b604482015290519081900360640190fd5b6000600c81905580610d8c610b82565b50600654604080516370a0823160e01b815230600482015290519395509193506000926001600160a01b03909116916370a08231916024808301926020929190829003018186803b158015610de057600080fd5b505afa158015610df4573d6000803e3d6000fd5b505050506040513d6020811015610e0a57600080fd5b5051600754604080516370a0823160e01b815230600482015290519293506000926001600160a01b03909216916370a0823191602480820192602092909190829003018186803b158015610e5d57600080fd5b505afa158015610e71573d6000803e3d6000fd5b505050506040513d6020811015610e8757600080fd5b505190506000610ea6836001600160701b03871663ffffffff611c1c16565b90506000610ec3836001600160701b03871663ffffffff611c1c16565b90506000610ed18787611f3e565b60005490915080610f0e57610efa6103e8610a3e610ef5878763ffffffff611bbc16565b612115565b9850610f0960006103e8612167565b610f5d565b610f5a6001600160701b038916610f2b868463ffffffff611bbc16565b81610f3257fe5b046001600160701b038916610f4d868563ffffffff611bbc16565b81610f5457fe5b046121fd565b98505b60008911610f9c5760405162461bcd60e51b81526004018080602001828103825260278152602001806125116027913960400191505060405180910390fd5b610fa68a8a612167565b610fb286868a8a611c5e565b8115610fe257600854610fde906001600160701b0380821691600160701b90041663ffffffff611bbc16565b600b555b6040805185815260208101859052815133927f4c209b5fc8ad50758f13e2e1088ba56a560dff690a1c6fef26394f4c03821c4f928290030190a250506001600c5550949695505050505050565b60016020526000908152604090205481565b600b5481565b60046020526000908152604090205481565b600080600c546001146110a6576040805162461bcd60e51b815260206004820152601060248201526f1359195e14ddd85c0e881313d0d2d15160821b604482015290519081900360640190fd5b6000600c819055806110b6610b82565b50600654600754604080516370a0823160e01b815230600482015290519496509294506001600160a01b039182169391169160009184916370a08231916024808301926020929190829003018186803b15801561111257600080fd5b505afa158015611126573d6000803e3d6000fd5b505050506040513d602081101561113c57600080fd5b5051604080516370a0823160e01b815230600482015290519192506000916001600160a01b038516916370a08231916024808301926020929190829003018186803b15801561118a57600080fd5b505afa15801561119e573d6000803e3d6000fd5b505050506040513d60208110156111b457600080fd5b5051306000908152600160205260408120549192506111d38888611f3e565b600054909150806111ea848763ffffffff611bbc16565b816111f157fe5b049a5080611205848663ffffffff611bbc16565b8161120c57fe5b04995060008b11801561121f575060008a115b61125a5760405162461bcd60e51b81526004018080602001828103825260278152602001806124826027913960400191505060405180910390fd5b6112643084612214565b61126f878d8d611a22565b61127a868d8c611a22565b604080516370a0823160e01b815230600482015290516001600160a01b038916916370a08231916024808301926020929190829003018186803b1580156112c057600080fd5b505afa1580156112d4573d6000803e3d6000fd5b505050506040513d60208110156112ea57600080fd5b5051604080516370a0823160e01b815230600482015290519196506001600160a01b038816916370a0823191602480820192602092909190829003018186803b15801561133657600080fd5b505afa15801561134a573d6000803e3d6000fd5b505050506040513d602081101561136057600080fd5b5051935061137085858b8b611c5e565b81156113a05760085461139c906001600160701b0380821691600160701b90041663ffffffff611bbc16565b600b555b604080518c8152602081018c905281516001600160a01b038f169233927fdccd412f0b1252819cb1fd330b93224ca42612892bb3f4f789976e6d81936496929081900390910190a35050505050505050506001600c81905550915091565b604051806040016040528060048152602001630909a88b60e31b81525081565b6000610bb9338484611e84565b6006546000906001600160a01b0384811691161480159061145a57506007546001600160a01b03848116911614155b8061146e57506008546001600160701b0316155b806114895750600854600160701b90046001600160701b0316155b1561149657506000610bbd565b6006546001600160a01b03848116911614156114eb576008546114e4906001600160701b03808216916114d891600160701b909104168563ffffffff611bbc16565b9063ffffffff6122b216565b9050610bbd565b6008546114e4906001600160701b03600160701b82048116916114d891168563ffffffff611bbc16565b6103e881565b600c54600114611565576040805162461bcd60e51b815260206004820152601060248201526f1359195e14ddd85c0e881313d0d2d15160821b604482015290519081900360640190fd5b6000600c55600654600754600854604080516370a0823160e01b815230600482015290516001600160a01b039485169490931692611614928592879261160f926001600160701b03169185916370a0823191602480820192602092909190829003018186803b1580156115d757600080fd5b505afa1580156115eb573d6000803e3d6000fd5b505050506040513d602081101561160157600080fd5b50519063ffffffff611c1c16565b611a22565b600854604080516370a0823160e01b8152306004820152905161167b928492879261160f92600160701b90046001600160701b0316916001600160a01b038616916370a0823191602480820192602092909190829003018186803b1580156115d757600080fd5b50506001600c5550565b6005546001600160a01b031681565b6007546001600160a01b031681565b428410156116ec576040805162461bcd60e51b81526020600482015260116024820152701359195e14ddd85c0e8811561412549151607a1b604482015290519081900360640190fd5b6003546001600160a01b0380891660008181526004602090815260408083208054600180820190925582517f6e71edae12b1b97f4d1f60370fef10105fa2faae0126114a169c64845d6126c98186015280840196909652958d166060860152608085018c905260a085019590955260c08085018b90528151808603909101815260e08501825280519083012061190160f01b6101008601526101028501969096526101228085019690965280518085039096018652610142840180825286519683019690962095839052610162840180825286905260ff89166101828501526101a284018890526101c28401879052519193926101e280820193601f1981019281900390910190855afa158015611807573d6000803e3d6000fd5b5050604051601f1901519150506001600160a01b0381161580159061183d5750886001600160a01b0316816001600160a01b0316145b61188e576040805162461bcd60e51b815260206004820152601b60248201527f4d646578537761703a20494e56414c49445f5349474e41545552450000000000604482015290519081900360640190fd5b611899898989611e22565b505050505050505050565b600260209081526000928352604080842090915290825290205481565b600c5460011461190b576040805162461bcd60e51b815260206004820152601060248201526f1359195e14ddd85c0e881313d0d2d15160821b604482015290519081900360640190fd5b6000600c55600654604080516370a0823160e01b81523060048201529051611a1b926001600160a01b0316916370a08231916024808301926020929190829003018186803b15801561195c57600080fd5b505afa158015611970573d6000803e3d6000fd5b505050506040513d602081101561198657600080fd5b5051600754604080516370a0823160e01b815230600482015290516001600160a01b03909216916370a0823191602480820192602092909190829003018186803b1580156119d357600080fd5b505afa1580156119e7573d6000803e3d6000fd5b505050506040513d60208110156119fd57600080fd5b50516008546001600160701b0380821691600160701b900416611c5e565b6001600c55565b604080518082018252601981527f7472616e7366657228616464726573732c75696e74323536290000000000000060209182015281516001600160a01b0385811660248301526044808301869052845180840390910181526064909201845291810180516001600160e01b031663a9059cbb60e01b1781529251815160009460609489169392918291908083835b60208310611acf5780518252601f199092019160209182019101611ab0565b6001836020036101000a0380198251168184511680821785525050505050509050019150506000604051808303816000865af19150503d8060008114611b31576040519150601f19603f3d011682016040523d82523d6000602084013e611b36565b606091505b5091509150818015611b64575080511580611b645750808060200190516020811015611b6157600080fd5b50515b611bb5576040805162461bcd60e51b815260206004820152601960248201527f4d646578537761703a205452414e534645525f4641494c454400000000000000604482015290519081900360640190fd5b5050505050565b600082611bcb57506000610bbd565b82820282848281611bd857fe5b0414611c155760405162461bcd60e51b81526004018080602001828103825260218152602001806124cd6021913960400191505060405180910390fd5b9392505050565b6000611c1583836040518060400160405280601e81526020017f536166654d6174683a207375627472616374696f6e206f766572666c6f7700008152506122f4565b6001600160701b038411801590611c7c57506001600160701b038311155b611cc2576040805162461bcd60e51b81526020600482015260126024820152714d646578537761703a204f564552464c4f5760701b604482015290519081900360640190fd5b60085463ffffffff42811691600160e01b90048116820390811615801590611cf257506001600160701b03841615155b8015611d0657506001600160701b03831615155b15611d77578063ffffffff16611d3485611d1f8661238b565b6001600160e01b03169063ffffffff61239d16565b600980546001600160e01b03929092169290920201905563ffffffff8116611d5f84611d1f8761238b565b600a80546001600160e01b0392909216929092020190555b600880546dffffffffffffffffffffffffffff19166001600160701b03888116919091176dffffffffffffffffffffffffffff60701b1916600160701b8883168102919091176001600160e01b0316600160e01b63ffffffff871602179283905560408051848416815291909304909116602082015281517f1c411e9a96e071241c2f21f7726b17ae89e3cab4c78be50e062b03a9fffbbad1929181900390910190a1505050505050565b6001600160a01b03808416600081815260026020908152604080832094871680845294825291829020859055815185815291517f8c5be1e5ebec7d5bd14f71427d1e84f3dd0314c0f7b2291e5b200ac8c7c3b9259281900390910190a3505050565b6001600160a01b038316600090815260016020526040902054611ead908263ffffffff611c1c16565b6001600160a01b038085166000908152600160205260408082209390935590841681522054611ee2908263ffffffff6123c216565b6001600160a01b0380841660008181526001602090815260409182902094909455805185815290519193928716927fddf252ad1be2c89b69c2b068fc378daa952ba7f163c4a11628f55a4df523b3ef92918290030190a3505050565b600080600560009054906101000a90046001600160a01b03166001600160a01b031663017e7e586040518163ffffffff1660e01b815260040160206040518083038186803b158015611f8f57600080fd5b505afa158015611fa3573d6000803e3d6000fd5b505050506040513d6020811015611fb957600080fd5b5051600b546001600160a01b0382161580159450919250906121015780156120fc576000611ffc610ef56001600160701b0388811690881663ffffffff611bbc16565b9050600061200983612115565b9050808211156120f9576000612037612028848463ffffffff611c1c16565b6000549063ffffffff611bbc16565b905060006120d5836120c9600560009054906101000a90046001600160a01b03166001600160a01b031663deba86e36040518163ffffffff1660e01b815260040160206040518083038186803b15801561209057600080fd5b505afa1580156120a4573d6000803e3d6000fd5b505050506040513d60208110156120ba57600080fd5b5051879063ffffffff611bbc16565b9063ffffffff6123c216565b905060008183816120e257fe5b04905080156120f5576120f58782612167565b5050505b50505b61210d565b801561210d576000600b555b505092915050565b60006003821115612158575080600160028204015b818110156121525780915060028182858161214157fe5b04018161214a57fe5b04905061212a565b50612162565b8115612162575060015b919050565b60005461217a908263ffffffff6123c216565b60009081556001600160a01b0383168152600160205260409020546121a5908263ffffffff6123c216565b6001600160a01b03831660008181526001602090815260408083209490945583518581529351929391927fddf252ad1be2c89b69c2b068fc378daa952ba7f163c4a11628f55a4df523b3ef9281900390910190a35050565b60008183111561220d5781611c15565b5090919050565b6001600160a01b03821660009081526001602052604090205461223d908263ffffffff611c1c16565b6001600160a01b0383166000908152600160205260408120919091555461226a908263ffffffff611c1c16565b60009081556040805183815290516001600160a01b038516917fddf252ad1be2c89b69c2b068fc378daa952ba7f163c4a11628f55a4df523b3ef919081900360200190a35050565b6000611c1583836040518060400160405280601a81526020017f536166654d6174683a206469766973696f6e206279207a65726f00000000000081525061241c565b600081848411156123835760405162461bcd60e51b81526004018080602001828103825283818151815260200191508051906020019080838360005b83811015612348578181015183820152602001612330565b50505050905090810190601f1680156123755780820380516001836020036101000a031916815260200191505b509250505060405180910390fd5b505050900390565b6001600160701b0316600160701b0290565b60006001600160701b0382166001600160e01b038416816123ba57fe5b049392505050565b600082820183811015611c15576040805162461bcd60e51b815260206004820152601b60248201527f536166654d6174683a206164646974696f6e206f766572666c6f770000000000604482015290519081900360640190fd5b6000818361246b5760405162461bcd60e51b8152602060048201818152835160248401528351909283926044909101919085019080838360008315612348578181015183820152602001612330565b50600083858161247757fe5b049594505050505056fe4d646578537761703a20494e53554646494349454e545f4c49515549444954595f4255524e45444d646578537761703a20494e53554646494349454e545f4f55545055545f414d4f554e54536166654d6174683a206d756c7469706c69636174696f6e206f766572666c6f774d646578537761703a20494e53554646494349454e545f494e5055545f414d4f554e544d646578537761703a20494e53554646494349454e545f4c49515549444954595f4d494e544544a265627a7a7231582014a6c57e7fe615bbc7356728288d3c0ca1d66efe2094b1b4eed943c81e2e772064736f6c63430005100032454950373132446f6d61696e28737472696e67206e616d652c737472696e672076657273696f6e2c75696e7432353620636861696e49642c6164647265737320766572696679696e67436f6e747261637429",
  "devdoc": {
    "methods": {}
  },
  "userdoc": {
    "methods": {}
  },
  "storageLayout": {
    "storage": [
      {
        "astId": 2111,
        "contract": "contracts/common/MdexFactory.sol:MdexFactory",
        "label": "feeTo",
        "offset": 0,
        "slot": "0",
        "type": "t_address"
      },
      {
        "astId": 2113,
        "contract": "contracts/common/MdexFactory.sol:MdexFactory",
        "label": "feeToSetter",
        "offset": 0,
        "slot": "1",
        "type": "t_address"
      },
      {
        "astId": 2115,
        "contract": "contracts/common/MdexFactory.sol:MdexFactory",
        "label": "feeToRate",
        "offset": 0,
        "slot": "2",
        "type": "t_uint256"
      },
      {
        "astId": 2117,
        "contract": "contracts/common/MdexFactory.sol:MdexFactory",
        "label": "initCodeHash",
        "offset": 0,
        "slot": "3",
        "type": "t_bytes32"
      },
      {
        "astId": 2120,
        "contract": "contracts/common/MdexFactory.sol:MdexFactory",
        "label": "initCode",
        "offset": 0,
        "slot": "4",
        "type": "t_bool"
      },
      {
        "astId": 2126,
        "contract": "contracts/common/MdexFactory.sol:MdexFactory",
        "label": "getPair",
        "offset": 0,
        "slot": "5",
        "type": "t_mapping(t_address,t_mapping(t_address,t_address))"
      },
      {
        "astId": 2129,
        "contract": "contracts/common/MdexFactory.sol:MdexFactory",
        "label": "allPairs",
        "offset": 0,
        "slot": "6",
        "type": "t_array(t_address)dyn_storage"
      }
    ],
    "types": {
      "t_address": {
        "encoding": "inplace",
        "label": "address",
        "numberOfBytes": "20"
      },
      "t_array(t_address)dyn_storage": {
        "base": "t_address",
        "encoding": "dynamic_array",
        "label": "address[]",
        "numberOfBytes": "32"
      },
      "t_bool": {
        "encoding": "inplace",
        "label": "bool",
        "numberOfBytes": "1"
      },
      "t_bytes32": {
        "encoding": "inplace",
        "label": "bytes32",
        "numberOfBytes": "32"
      },
      "t_mapping(t_address,t_address)": {
        "encoding": "mapping",
        "key": "t_address",
        "label": "mapping(address => address)",
        "numberOfBytes": "32",
        "value": "t_address"
      },
      "t_mapping(t_address,t_mapping(t_address,t_address))": {
        "encoding": "mapping",
        "key": "t_address",
        "label": "mapping(address => mapping(address => address))",
        "numberOfBytes": "32",
        "value": "t_mapping(t_address,t_address)"
      },
      "t_uint256": {
        "encoding": "inplace",
        "label": "uint256",
        "numberOfBytes": "32"
      }
    }
  }
}