{
  "address": "0xadbc10AD6647b9AFc3510B190876cE5a7e1AfFdA",
  "abi": [
    {
      "inputs": [
        {
          "internalType": "address",
          "name": "_factory",
          "type": "address"
        },
        {
          "internalType": "address",
          "name": "_WHT",
          "type": "address"
        }
      ],
      "payable": false,
      "stateMutability": "nonpayable",
      "type": "constructor"
    },
    {
      "anonymous": false,
      "inputs": [
        {
          "indexed": true,
          "internalType": "address",
          "name": "previousOwner",
          "type": "address"
        },
        {
          "indexed": true,
          "internalType": "address",
          "name": "newOwner",
          "type": "address"
        }
      ],
      "name": "OwnershipTransferred",
      "type": "event"
    },
    {
      "payable": true,
      "stateMutability": "payable",
      "type": "fallback"
    },
    {
      "constant": true,
      "inputs": [],
      "name": "WHT",
      "outputs": [
        {
          "internalType": "address",
          "name": "",
          "type": "address"
        }
      ],
      "payable": false,
      "stateMutability": "view",
      "type": "function"
    },
    {
      "constant": false,
      "inputs": [
        {
          "internalType": "address",
          "name": "tokenA",
          "type": "address"
        },
        {
          "internalType": "address",
          "name": "tokenB",
          "type": "address"
        },
        {
          "internalType": "uint256",
          "name": "amountADesired",
          "type": "uint256"
        },
        {
          "internalType": "uint256",
          "name": "amountBDesired",
          "type": "uint256"
        },
        {
          "internalType": "uint256",
          "name": "amountAMin",
          "type": "uint256"
        },
        {
          "internalType": "uint256",
          "name": "amountBMin",
          "type": "uint256"
        },
        {
          "internalType": "address",
          "name": "to",
          "type": "address"
        },
        {
          "internalType": "uint256",
          "name": "deadline",
          "type": "uint256"
        }
      ],
      "name": "addLiquidity",
      "outputs": [
        {
          "internalType": "uint256",
          "name": "amountA",
          "type": "uint256"
        },
        {
          "internalType": "uint256",
          "name": "amountB",
          "type": "uint256"
        },
        {
          "internalType": "uint256",
          "name": "liquidity",
          "type": "uint256"
        }
      ],
      "payable": false,
      "stateMutability": "nonpayable",
      "type": "function"
    },
    {
      "constant": false,
      "inputs": [
        {
          "internalType": "address",
          "name": "token",
          "type": "address"
        },
        {
          "internalType": "uint256",
          "name": "amountTokenDesired",
          "type": "uint256"
        },
        {
          "internalType": "uint256",
          "name": "amountTokenMin",
          "type": "uint256"
        },
        {
          "internalType": "uint256",
          "name": "amountETHMin",
          "type": "uint256"
        },
        {
          "internalType": "address",
          "name": "to",
          "type": "address"
        },
        {
          "internalType": "uint256",
          "name": "deadline",
          "type": "uint256"
        }
      ],
      "name": "addLiquidityETH",
      "outputs": [
        {
          "internalType": "uint256",
          "name": "amountToken",
          "type": "uint256"
        },
        {
          "internalType": "uint256",
          "name": "amountETH",
          "type": "uint256"
        },
        {
          "internalType": "uint256",
          "name": "liquidity",
          "type": "uint256"
        }
      ],
      "payable": true,
      "stateMutability": "payable",
      "type": "function"
    },
    {
      "constant": true,
      "inputs": [],
      "name": "factory",
      "outputs": [
        {
          "internalType": "address",
          "name": "",
          "type": "address"
        }
      ],
      "payable": false,
      "stateMutability": "view",
      "type": "function"
    },
    {
      "constant": true,
      "inputs": [
        {
          "internalType": "uint256",
          "name": "amountOut",
          "type": "uint256"
        },
        {
          "internalType": "uint256",
          "name": "reserveIn",
          "type": "uint256"
        },
        {
          "internalType": "uint256",
          "name": "reserveOut",
          "type": "uint256"
        }
      ],
      "name": "getAmountIn",
      "outputs": [
        {
          "internalType": "uint256",
          "name": "amountIn",
          "type": "uint256"
        }
      ],
      "payable": false,
      "stateMutability": "view",
      "type": "function"
    },
    {
      "constant": true,
      "inputs": [
        {
          "internalType": "uint256",
          "name": "amountIn",
          "type": "uint256"
        },
        {
          "internalType": "uint256",
          "name": "reserveIn",
          "type": "uint256"
        },
        {
          "internalType": "uint256",
          "name": "reserveOut",
          "type": "uint256"
        }
      ],
      "name": "getAmountOut",
      "outputs": [
        {
          "internalType": "uint256",
          "name": "amountOut",
          "type": "uint256"
        }
      ],
      "payable": false,
      "stateMutability": "view",
      "type": "function"
    },
    {
      "constant": true,
      "inputs": [
        {
          "internalType": "uint256",
          "name": "amountOut",
          "type": "uint256"
        },
        {
          "internalType": "address[]",
          "name": "path",
          "type": "address[]"
        }
      ],
      "name": "getAmountsIn",
      "outputs": [
        {
          "internalType": "uint256[]",
          "name": "amounts",
          "type": "uint256[]"
        }
      ],
      "payable": false,
      "stateMutability": "view",
      "type": "function"
    },
    {
      "constant": true,
      "inputs": [
        {
          "internalType": "uint256",
          "name": "amountIn",
          "type": "uint256"
        },
        {
          "internalType": "address[]",
          "name": "path",
          "type": "address[]"
        }
      ],
      "name": "getAmountsOut",
      "outputs": [
        {
          "internalType": "uint256[]",
          "name": "amounts",
          "type": "uint256[]"
        }
      ],
      "payable": false,
      "stateMutability": "view",
      "type": "function"
    },
    {
      "constant": true,
      "inputs": [],
      "name": "owner",
      "outputs": [
        {
          "internalType": "address",
          "name": "",
          "type": "address"
        }
      ],
      "payable": false,
      "stateMutability": "view",
      "type": "function"
    },
    {
      "constant": true,
      "inputs": [
        {
          "internalType": "address",
          "name": "tokenA",
          "type": "address"
        },
        {
          "internalType": "address",
          "name": "tokenB",
          "type": "address"
        }
      ],
      "name": "pairFor",
      "outputs": [
        {
          "internalType": "address",
          "name": "pair",
          "type": "address"
        }
      ],
      "payable": false,
      "stateMutability": "view",
      "type": "function"
    },
    {
      "constant": true,
      "inputs": [
        {
          "internalType": "uint256",
          "name": "amountA",
          "type": "uint256"
        },
        {
          "internalType": "uint256",
          "name": "reserveA",
          "type": "uint256"
        },
        {
          "internalType": "uint256",
          "name": "reserveB",
          "type": "uint256"
        }
      ],
      "name": "quote",
      "outputs": [
        {
          "internalType": "uint256",
          "name": "amountB",
          "type": "uint256"
        }
      ],
      "payable": false,
      "stateMutability": "view",
      "type": "function"
    },
    {
      "constant": false,
      "inputs": [
        {
          "internalType": "address",
          "name": "tokenA",
          "type": "address"
        },
        {
          "internalType": "address",
          "name": "tokenB",
          "type": "address"
        },
        {
          "internalType": "uint256",
          "name": "liquidity",
          "type": "uint256"
        },
        {
          "internalType": "uint256",
          "name": "amountAMin",
          "type": "uint256"
        },
        {
          "internalType": "uint256",
          "name": "amountBMin",
          "type": "uint256"
        },
        {
          "internalType": "address",
          "name": "to",
          "type": "address"
        },
        {
          "internalType": "uint256",
          "name": "deadline",
          "type": "uint256"
        }
      ],
      "name": "removeLiquidity",
      "outputs": [
        {
          "internalType": "uint256",
          "name": "amountA",
          "type": "uint256"
        },
        {
          "internalType": "uint256",
          "name": "amountB",
          "type": "uint256"
        }
      ],
      "payable": false,
      "stateMutability": "nonpayable",
      "type": "function"
    },
    {
      "constant": false,
      "inputs": [
        {
          "internalType": "address",
          "name": "token",
          "type": "address"
        },
        {
          "internalType": "uint256",
          "name": "liquidity",
          "type": "uint256"
        },
        {
          "internalType": "uint256",
          "name": "amountTokenMin",
          "type": "uint256"
        },
        {
          "internalType": "uint256",
          "name": "amountETHMin",
          "type": "uint256"
        },
        {
          "internalType": "address",
          "name": "to",
          "type": "address"
        },
        {
          "internalType": "uint256",
          "name": "deadline",
          "type": "uint256"
        }
      ],
      "name": "removeLiquidityETH",
      "outputs": [
        {
          "internalType": "uint256",
          "name": "amountToken",
          "type": "uint256"
        },
        {
          "internalType": "uint256",
          "name": "amountETH",
          "type": "uint256"
        }
      ],
      "payable": false,
      "stateMutability": "nonpayable",
      "type": "function"
    },
    {
      "constant": false,
      "inputs": [
        {
          "internalType": "address",
          "name": "token",
          "type": "address"
        },
        {
          "internalType": "uint256",
          "name": "liquidity",
          "type": "uint256"
        },
        {
          "internalType": "uint256",
          "name": "amountTokenMin",
          "type": "uint256"
        },
        {
          "internalType": "uint256",
          "name": "amountETHMin",
          "type": "uint256"
        },
        {
          "internalType": "address",
          "name": "to",
          "type": "address"
        },
        {
          "internalType": "uint256",
          "name": "deadline",
          "type": "uint256"
        }
      ],
      "name": "removeLiquidityETHSupportingFeeOnTransferTokens",
      "outputs": [
        {
          "internalType": "uint256",
          "name": "amountETH",
          "type": "uint256"
        }
      ],
      "payable": false,
      "stateMutability": "nonpayable",
      "type": "function"
    },
    {
      "constant": false,
      "inputs": [
        {
          "internalType": "address",
          "name": "token",
          "type": "address"
        },
        {
          "internalType": "uint256",
          "name": "liquidity",
          "type": "uint256"
        },
        {
          "internalType": "uint256",
          "name": "amountTokenMin",
          "type": "uint256"
        },
        {
          "internalType": "uint256",
          "name": "amountETHMin",
          "type": "uint256"
        },
        {
          "internalType": "address",
          "name": "to",
          "type": "address"
        },
        {
          "internalType": "uint256",
          "name": "deadline",
          "type": "uint256"
        },
        {
          "internalType": "bool",
          "name": "approveMax",
          "type": "bool"
        },
        {
          "internalType": "uint8",
          "name": "v",
          "type": "uint8"
        },
        {
          "internalType": "bytes32",
          "name": "r",
          "type": "bytes32"
        },
        {
          "internalType": "bytes32",
          "name": "s",
          "type": "bytes32"
        }
      ],
      "name": "removeLiquidityETHWithPermit",
      "outputs": [
        {
          "internalType": "uint256",
          "name": "amountToken",
          "type": "uint256"
        },
        {
          "internalType": "uint256",
          "name": "amountETH",
          "type": "uint256"
        }
      ],
      "payable": false,
      "stateMutability": "nonpayable",
      "type": "function"
    },
    {
      "constant": false,
      "inputs": [
        {
          "internalType": "address",
          "name": "token",
          "type": "address"
        },
        {
          "internalType": "uint256",
          "name": "liquidity",
          "type": "uint256"
        },
        {
          "internalType": "uint256",
          "name": "amountTokenMin",
          "type": "uint256"
        },
        {
          "internalType": "uint256",
          "name": "amountETHMin",
          "type": "uint256"
        },
        {
          "internalType": "address",
          "name": "to",
          "type": "address"
        },
        {
          "internalType": "uint256",
          "name": "deadline",
          "type": "uint256"
        },
        {
          "internalType": "bool",
          "name": "approveMax",
          "type": "bool"
        },
        {
          "internalType": "uint8",
          "name": "v",
          "type": "uint8"
        },
        {
          "internalType": "bytes32",
          "name": "r",
          "type": "bytes32"
        },
        {
          "internalType": "bytes32",
          "name": "s",
          "type": "bytes32"
        }
      ],
      "name": "removeLiquidityETHWithPermitSupportingFeeOnTransferTokens",
      "outputs": [
        {
          "internalType": "uint256",
          "name": "amountETH",
          "type": "uint256"
        }
      ],
      "payable": false,
      "stateMutability": "nonpayable",
      "type": "function"
    },
    {
      "constant": false,
      "inputs": [
        {
          "internalType": "address",
          "name": "tokenA",
          "type": "address"
        },
        {
          "internalType": "address",
          "name": "tokenB",
          "type": "address"
        },
        {
          "internalType": "uint256",
          "name": "liquidity",
          "type": "uint256"
        },
        {
          "internalType": "uint256",
          "name": "amountAMin",
          "type": "uint256"
        },
        {
          "internalType": "uint256",
          "name": "amountBMin",
          "type": "uint256"
        },
        {
          "internalType": "address",
          "name": "to",
          "type": "address"
        },
        {
          "internalType": "uint256",
          "name": "deadline",
          "type": "uint256"
        },
        {
          "internalType": "bool",
          "name": "approveMax",
          "type": "bool"
        },
        {
          "internalType": "uint8",
          "name": "v",
          "type": "uint8"
        },
        {
          "internalType": "bytes32",
          "name": "r",
          "type": "bytes32"
        },
        {
          "internalType": "bytes32",
          "name": "s",
          "type": "bytes32"
        }
      ],
      "name": "removeLiquidityWithPermit",
      "outputs": [
        {
          "internalType": "uint256",
          "name": "amountA",
          "type": "uint256"
        },
        {
          "internalType": "uint256",
          "name": "amountB",
          "type": "uint256"
        }
      ],
      "payable": false,
      "stateMutability": "nonpayable",
      "type": "function"
    },
    {
      "constant": false,
      "inputs": [],
      "name": "renounceOwnership",
      "outputs": [],
      "payable": false,
      "stateMutability": "nonpayable",
      "type": "function"
    },
    {
      "constant": false,
      "inputs": [
        {
          "internalType": "address",
          "name": "_swapMininng",
          "type": "address"
        }
      ],
      "name": "setSwapMining",
      "outputs": [],
      "payable": false,
      "stateMutability": "nonpayable",
      "type": "function"
    },
    {
      "constant": false,
      "inputs": [
        {
          "internalType": "uint256",
          "name": "amountOut",
          "type": "uint256"
        },
        {
          "internalType": "address[]",
          "name": "path",
          "type": "address[]"
        },
        {
          "internalType": "address",
          "name": "to",
          "type": "address"
        },
        {
          "internalType": "uint256",
          "name": "deadline",
          "type": "uint256"
        }
      ],
      "name": "swapETHForExactTokens",
      "outputs": [
        {
          "internalType": "uint256[]",
          "name": "amounts",
          "type": "uint256[]"
        }
      ],
      "payable": true,
      "stateMutability": "payable",
      "type": "function"
    },
    {
      "constant": false,
      "inputs": [
        {
          "internalType": "uint256",
          "name": "amountOutMin",
          "type": "uint256"
        },
        {
          "internalType": "address[]",
          "name": "path",
          "type": "address[]"
        },
        {
          "internalType": "address",
          "name": "to",
          "type": "address"
        },
        {
          "internalType": "uint256",
          "name": "deadline",
          "type": "uint256"
        }
      ],
      "name": "swapExactETHForTokens",
      "outputs": [
        {
          "internalType": "uint256[]",
          "name": "amounts",
          "type": "uint256[]"
        }
      ],
      "payable": true,
      "stateMutability": "payable",
      "type": "function"
    },
    {
      "constant": false,
      "inputs": [
        {
          "internalType": "uint256",
          "name": "amountOutMin",
          "type": "uint256"
        },
        {
          "internalType": "address[]",
          "name": "path",
          "type": "address[]"
        },
        {
          "internalType": "address",
          "name": "to",
          "type": "address"
        },
        {
          "internalType": "uint256",
          "name": "deadline",
          "type": "uint256"
        }
      ],
      "name": "swapExactETHForTokensSupportingFeeOnTransferTokens",
      "outputs": [],
      "payable": true,
      "stateMutability": "payable",
      "type": "function"
    },
    {
      "constant": false,
      "inputs": [
        {
          "internalType": "uint256",
          "name": "amountIn",
          "type": "uint256"
        },
        {
          "internalType": "uint256",
          "name": "amountOutMin",
          "type": "uint256"
        },
        {
          "internalType": "address[]",
          "name": "path",
          "type": "address[]"
        },
        {
          "internalType": "address",
          "name": "to",
          "type": "address"
        },
        {
          "internalType": "uint256",
          "name": "deadline",
          "type": "uint256"
        }
      ],
      "name": "swapExactTokensForETH",
      "outputs": [
        {
          "internalType": "uint256[]",
          "name": "amounts",
          "type": "uint256[]"
        }
      ],
      "payable": false,
      "stateMutability": "nonpayable",
      "type": "function"
    },
    {
      "constant": false,
      "inputs": [
        {
          "internalType": "uint256",
          "name": "amountIn",
          "type": "uint256"
        },
        {
          "internalType": "uint256",
          "name": "amountOutMin",
          "type": "uint256"
        },
        {
          "internalType": "address[]",
          "name": "path",
          "type": "address[]"
        },
        {
          "internalType": "address",
          "name": "to",
          "type": "address"
        },
        {
          "internalType": "uint256",
          "name": "deadline",
          "type": "uint256"
        }
      ],
      "name": "swapExactTokensForETHSupportingFeeOnTransferTokens",
      "outputs": [],
      "payable": false,
      "stateMutability": "nonpayable",
      "type": "function"
    },
    {
      "constant": false,
      "inputs": [
        {
          "internalType": "uint256",
          "name": "amountIn",
          "type": "uint256"
        },
        {
          "internalType": "uint256",
          "name": "amountOutMin",
          "type": "uint256"
        },
        {
          "internalType": "address[]",
          "name": "path",
          "type": "address[]"
        },
        {
          "internalType": "address",
          "name": "to",
          "type": "address"
        },
        {
          "internalType": "uint256",
          "name": "deadline",
          "type": "uint256"
        }
      ],
      "name": "swapExactTokensForTokens",
      "outputs": [
        {
          "internalType": "uint256[]",
          "name": "amounts",
          "type": "uint256[]"
        }
      ],
      "payable": false,
      "stateMutability": "nonpayable",
      "type": "function"
    },
    {
      "constant": false,
      "inputs": [
        {
          "internalType": "uint256",
          "name": "amountIn",
          "type": "uint256"
        },
        {
          "internalType": "uint256",
          "name": "amountOutMin",
          "type": "uint256"
        },
        {
          "internalType": "address[]",
          "name": "path",
          "type": "address[]"
        },
        {
          "internalType": "address",
          "name": "to",
          "type": "address"
        },
        {
          "internalType": "uint256",
          "name": "deadline",
          "type": "uint256"
        }
      ],
      "name": "swapExactTokensForTokensSupportingFeeOnTransferTokens",
      "outputs": [],
      "payable": false,
      "stateMutability": "nonpayable",
      "type": "function"
    },
    {
      "constant": true,
      "inputs": [],
      "name": "swapMining",
      "outputs": [
        {
          "internalType": "address",
          "name": "",
          "type": "address"
        }
      ],
      "payable": false,
      "stateMutability": "view",
      "type": "function"
    },
    {
      "constant": false,
      "inputs": [
        {
          "internalType": "uint256",
          "name": "amountOut",
          "type": "uint256"
        },
        {
          "internalType": "uint256",
          "name": "amountInMax",
          "type": "uint256"
        },
        {
          "internalType": "address[]",
          "name": "path",
          "type": "address[]"
        },
        {
          "internalType": "address",
          "name": "to",
          "type": "address"
        },
        {
          "internalType": "uint256",
          "name": "deadline",
          "type": "uint256"
        }
      ],
      "name": "swapTokensForExactETH",
      "outputs": [
        {
          "internalType": "uint256[]",
          "name": "amounts",
          "type": "uint256[]"
        }
      ],
      "payable": false,
      "stateMutability": "nonpayable",
      "type": "function"
    },
    {
      "constant": false,
      "inputs": [
        {
          "internalType": "uint256",
          "name": "amountOut",
          "type": "uint256"
        },
        {
          "internalType": "uint256",
          "name": "amountInMax",
          "type": "uint256"
        },
        {
          "internalType": "address[]",
          "name": "path",
          "type": "address[]"
        },
        {
          "internalType": "address",
          "name": "to",
          "type": "address"
        },
        {
          "internalType": "uint256",
          "name": "deadline",
          "type": "uint256"
        }
      ],
      "name": "swapTokensForExactTokens",
      "outputs": [
        {
          "internalType": "uint256[]",
          "name": "amounts",
          "type": "uint256[]"
        }
      ],
      "payable": false,
      "stateMutability": "nonpayable",
      "type": "function"
    },
    {
      "constant": false,
      "inputs": [
        {
          "internalType": "address",
          "name": "newOwner",
          "type": "address"
        }
      ],
      "name": "transferOwnership",
      "outputs": [],
      "payable": false,
      "stateMutability": "nonpayable",
      "type": "function"
    }
  ],
  "args": [
    "0x062594B0489F1371F2B5fCde89377A45a0d82308",
    "0x7aF326B6351C8A9b8fb8CD205CBe11d4Ac5FA836"
  ],
  "solcInputHash": "8a3882a7f91bbb3e26689ffba4b9e5ef",
  "bytecode": "0x60806040523480156200001157600080fd5b5060405162004a9138038062004a91833981810160405260408110156200003757600080fd5b5080516020909101516000620000556001600160e01b03620000d116565b600080546001600160a01b0319166001600160a01b0383169081178255604051929350917f8be0079c531659141344cd1fd0a4f28419497f9722a3daafe3b4186f6b6457e0908290a350600180546001600160a01b039384166001600160a01b03199182161790915560028054929093169116179055620000d5565b3390565b6149ac80620000e56000396000f3fe6080604052600436106101cd5760003560e01c806385f8c259116100f7578063baa2abde11610095578063e8e3370011610064578063e8e3370014610c3c578063f2fde38b14610cbc578063f305d71914610cef578063fb3bdb4114610d35576101cd565b8063baa2abde14610aa2578063c45a015514610aff578063d06ca61f14610b14578063ded9382a14610bc9576101cd565b806396ed28f9116100d157806396ed28f91461095a578063ad615dec14610995578063af2979eb146109cb578063b6f9de9514610a1e576101cd565b806385f8c259146108795780638803dbee146108af5780638da5cb5b14610945576101cd565b80634e5eda111161016f5780635cb485921161013e5780635cb4859214610735578063715018a61461074a578063791ac9471461075f5780637ff36ab5146107f5576101cd565b80634e5eda11146105c85780634f887183146105f95780635b0d59841461062c5780635c11d7951461069f576101cd565b80631f00ca74116101ab5780631f00ca74146103695780632195995c1461041e57806338ed17391461049c5780634a25d94a14610532576101cd565b806302751cec146101cf578063054d50d41461023b57806318cbafe514610283575b005b3480156101db57600080fd5b50610222600480360360c08110156101f257600080fd5b506001600160a01b0381358116916020810135916040820135916060810135916080820135169060a00135610db9565b6040805192835260208301919091528051918290030190f35b34801561024757600080fd5b506102716004803603606081101561025e57600080fd5b5080359060208101359060400135610ea7565b60408051918252519081900360200190f35b34801561028f57600080fd5b50610319600480360360a08110156102a657600080fd5b813591602081013591810190606081016040820135600160201b8111156102cc57600080fd5b8201836020820111156102de57600080fd5b803590602001918460208302840111600160201b831117156102ff57600080fd5b91935091506001600160a01b038135169060200135610f35565b60408051602080825283518183015283519192839290830191858101910280838360005b8381101561035557818101518382015260200161033d565b505050509050019250505060405180910390f35b34801561037557600080fd5b506103196004803603604081101561038c57600080fd5b81359190810190604081016020820135600160201b8111156103ad57600080fd5b8201836020820111156103bf57600080fd5b803590602001918460208302840111600160201b831117156103e057600080fd5b9190808060200260200160405190810160405280939291908181526020018383602002808284376000920191909152509295506112f5945050505050565b34801561042a57600080fd5b50610222600480360361016081101561044257600080fd5b506001600160a01b038135811691602081013582169160408201359160608101359160808201359160a08101359091169060c08101359060e081013515159060ff6101008201351690610120810135906101400135611453565b3480156104a857600080fd5b50610319600480360360a08110156104bf57600080fd5b813591602081013591810190606081016040820135600160201b8111156104e557600080fd5b8201836020820111156104f757600080fd5b803590602001918460208302840111600160201b8311171561051857600080fd5b91935091506001600160a01b03813516906020013561152c565b34801561053e57600080fd5b50610319600480360360a081101561055557600080fd5b813591602081013591810190606081016040820135600160201b81111561057b57600080fd5b82018360208201111561058d57600080fd5b803590602001918460208302840111600160201b831117156105ae57600080fd5b91935091506001600160a01b038135169060200135611761565b3480156105d457600080fd5b506105dd6119b9565b604080516001600160a01b039092168252519081900360200190f35b34801561060557600080fd5b506101cd6004803603602081101561061c57600080fd5b50356001600160a01b03166119c8565b34801561063857600080fd5b50610271600480360361014081101561065057600080fd5b506001600160a01b0381358116916020810135916040820135916060810135916080820135169060a08101359060c081013515159060ff60e08201351690610100810135906101200135611a5e565b3480156106ab57600080fd5b506101cd600480360360a08110156106c257600080fd5b813591602081013591810190606081016040820135600160201b8111156106e857600080fd5b8201836020820111156106fa57600080fd5b803590602001918460208302840111600160201b8311171561071b57600080fd5b91935091506001600160a01b038135169060200135611b3a565b34801561074157600080fd5b506105dd611dae565b34801561075657600080fd5b506101cd611dbd565b34801561076b57600080fd5b506101cd600480360360a081101561078257600080fd5b813591602081013591810190606081016040820135600160201b8111156107a857600080fd5b8201836020820111156107ba57600080fd5b803590602001918460208302840111600160201b831117156107db57600080fd5b91935091506001600160a01b038135169060200135611e7b565b6103196004803603608081101561080b57600080fd5b81359190810190604081016020820135600160201b81111561082c57600080fd5b82018360208201111561083e57600080fd5b803590602001918460208302840111600160201b8311171561085f57600080fd5b91935091506001600160a01b0381351690602001356120a9565b34801561088557600080fd5b506102716004803603606081101561089c57600080fd5b508035906020810135906040013561246e565b3480156108bb57600080fd5b50610319600480360360a08110156108d257600080fd5b813591602081013591810190606081016040820135600160201b8111156108f857600080fd5b82018360208201111561090a57600080fd5b803590602001918460208302840111600160201b8311171561092b57600080fd5b91935091506001600160a01b0381351690602001356124c8565b34801561095157600080fd5b506105dd6126ab565b34801561096657600080fd5b506105dd6004803603604081101561097d57600080fd5b506001600160a01b03813581169160200135166126ba565b3480156109a157600080fd5b50610271600480360360608110156109b857600080fd5b5080359060208101359060400135612746565b3480156109d757600080fd5b50610271600480360360c08110156109ee57600080fd5b506001600160a01b0381358116916020810135916040820135916060810135916080820135169060a001356127a0565b6101cd60048036036080811015610a3457600080fd5b81359190810190604081016020820135600160201b811115610a5557600080fd5b820183602082011115610a6757600080fd5b803590602001918460208302840111600160201b83111715610a8857600080fd5b91935091506001600160a01b0381351690602001356128f5565b348015610aae57600080fd5b50610222600480360360e0811015610ac557600080fd5b506001600160a01b038135811691602081013582169160408201359160608101359160808201359160a08101359091169060c00135612c0b565b348015610b0b57600080fd5b506105dd612ede565b348015610b2057600080fd5b5061031960048036036040811015610b3757600080fd5b81359190810190604081016020820135600160201b811115610b5857600080fd5b820183602082011115610b6a57600080fd5b803590602001918460208302840111600160201b83111715610b8b57600080fd5b919080806020026020016040519081016040528093929190818152602001838360200280828437600092019190915250929550612eed945050505050565b348015610bd557600080fd5b506102226004803603610140811015610bed57600080fd5b506001600160a01b0381358116916020810135916040820135916060810135916080820135169060a08101359060c081013515159060ff60e08201351690610100810135906101200135612f55565b348015610c4857600080fd5b50610c9e6004803603610100811015610c6057600080fd5b506001600160a01b038135811691602081013582169160408201359160608101359160808201359160a08101359160c0820135169060e00135613037565b60408051938452602084019290925282820152519081900360600190f35b348015610cc857600080fd5b506101cd60048036036020811015610cdf57600080fd5b50356001600160a01b0316613152565b610c9e600480360360c0811015610d0557600080fd5b506001600160a01b0381358116916020810135916040820135916060810135916080820135169060a00135613266565b61031960048036036080811015610d4b57600080fd5b81359190810190604081016020820135600160201b811115610d6c57600080fd5b820183602082011115610d7e57600080fd5b803590602001918460208302840111600160201b83111715610d9f57600080fd5b91935091506001600160a01b03813516906020013561348e565b6000808242811015610e00576040805162461bcd60e51b815260206004820152601560248201526000805160206148ed833981519152604482015290519081900360640190fd5b600254610e1c908a906001600160a01b03168a8a8a308a612c0b565b9093509150610e2c898685613882565b60025460408051632e1a7d4d60e01b81526004810185905290516001600160a01b0390921691632e1a7d4d9160248082019260009290919082900301818387803b158015610e7957600080fd5b505af1158015610e8d573d6000803e3d6000fd5b50505050610e9b85836139ec565b50965096945050505050565b60015460408051630153543560e21b815260048101869052602481018590526044810184905290516000926001600160a01b03169163054d50d4916064808301926020929190829003018186803b158015610f0157600080fd5b505afa158015610f15573d6000803e3d6000fd5b505050506040513d6020811015610f2b57600080fd5b5051949350505050565b60608142811015610f7b576040805162461bcd60e51b815260206004820152601560248201526000805160206148ed833981519152604482015290519081900360640190fd5b6002546001600160a01b031686866000198101818110610f9757fe5b905060200201356001600160a01b03166001600160a01b031614610ff0576040805162461bcd60e51b815260206004820152601a6024820152600080516020614839833981519152604482015290519081900360640190fd5b6001546040805163d06ca61f60e01b8152600481018b815260248201928352604482018990526001600160a01b039093169263d06ca61f928c928b928b929091606401846020850280828437600081840152601f19601f82011690508083019250505094505050505060006040518083038186803b15801561107157600080fd5b505afa158015611085573d6000803e3d6000fd5b505050506040513d6000823e601f3d908101601f1916820160405260208110156110ae57600080fd5b8101908080516040519392919084600160201b8211156110cd57600080fd5b9083019060208201858111156110e257600080fd5b82518660208202830111600160201b821117156110fe57600080fd5b82525081516020918201928201910280838360005b8381101561112b578181015183820152602001611113565b505050509050016040525050509150868260018451038151811061114b57fe5b602002602001015110156111905760405162461bcd60e51b81526004018080602001828103825260288152602001806148c56028913960400191505060405180910390fd5b61120d868660008181106111a057fe5b905060200201356001600160a01b0316336111f3898960008181106111c157fe5b905060200201356001600160a01b03168a8a60018181106111de57fe5b905060200201356001600160a01b03166126ba565b8560008151811061120057fe5b6020026020010151613ae4565b61124c82878780806020026020016040519081016040528093929190818152602001838360200280828437600092019190915250309250613c41915050565b60025482516001600160a01b0390911690632e1a7d4d908490600019810190811061127357fe5b60200260200101516040518263ffffffff1660e01b815260040180828152602001915050600060405180830381600087803b1580156112b157600080fd5b505af11580156112c5573d6000803e3d6000fd5b505050506112ea84836001855103815181106112dd57fe5b60200260200101516139ec565b509695505050505050565b600154604080516307c0329d60e21b815260048101858152602482019283528451604483015284516060946001600160a01b031693631f00ca749388938893909291606401906020808601910280838360005b83811015611360578181015183820152602001611348565b50505050905001935050505060006040518083038186803b15801561138457600080fd5b505afa158015611398573d6000803e3d6000fd5b505050506040513d6000823e601f3d908101601f1916820160405260208110156113c157600080fd5b8101908080516040519392919084600160201b8211156113e057600080fd5b9083019060208201858111156113f557600080fd5b82518660208202830111600160201b8211171561141157600080fd5b82525081516020918201928201910280838360005b8381101561143e578181015183820152602001611426565b50505050905001604052505050905092915050565b60008060006114628e8e6126ba565b9050600087611471578c611475565b6000195b6040805163d505accf60e01b815233600482015230602482015260448101839052606481018c905260ff8a16608482015260a4810189905260c4810188905290519192506001600160a01b0384169163d505accf9160e48082019260009290919082900301818387803b1580156114eb57600080fd5b505af11580156114ff573d6000803e3d6000fd5b505050506115128f8f8f8f8f8f8f612c0b565b809450819550505050509b509b9950505050505050505050565b60608142811015611572576040805162461bcd60e51b815260206004820152601560248201526000805160206148ed833981519152604482015290519081900360640190fd5b6001546040805163d06ca61f60e01b8152600481018b815260248201928352604482018990526001600160a01b039093169263d06ca61f928c928b928b929091606401846020850280828437600081840152601f19601f82011690508083019250505094505050505060006040518083038186803b1580156115f357600080fd5b505afa158015611607573d6000803e3d6000fd5b505050506040513d6000823e601f3d908101601f19168201604052602081101561163057600080fd5b8101908080516040519392919084600160201b82111561164f57600080fd5b90830190602082018581111561166457600080fd5b82518660208202830111600160201b8211171561168057600080fd5b82525081516020918201928201910280838360005b838110156116ad578181015183820152602001611695565b50505050905001604052505050915086826001845103815181106116cd57fe5b602002602001015110156117125760405162461bcd60e51b81526004018080602001828103825260288152602001806148c56028913960400191505060405180910390fd5b611722868660008181106111a057fe5b6112ea82878780806020026020016040519081016040528093929190818152602001838360200280828437600092019190915250899250613c41915050565b606081428110156117a7576040805162461bcd60e51b815260206004820152601560248201526000805160206148ed833981519152604482015290519081900360640190fd5b6002546001600160a01b0316868660001981018181106117c357fe5b905060200201356001600160a01b03166001600160a01b03161461181c576040805162461bcd60e51b815260206004820152601a6024820152600080516020614839833981519152604482015290519081900360640190fd5b600154604080516307c0329d60e21b8152600481018b815260248201928352604482018990526001600160a01b0390931692631f00ca74928c928b928b929091606401846020850280828437600081840152601f19601f82011690508083019250505094505050505060006040518083038186803b15801561189d57600080fd5b505afa1580156118b1573d6000803e3d6000fd5b505050506040513d6000823e601f3d908101601f1916820160405260208110156118da57600080fd5b8101908080516040519392919084600160201b8211156118f957600080fd5b90830190602082018581111561190e57600080fd5b82518660208202830111600160201b8211171561192a57600080fd5b82525081516020918201928201910280838360005b8381101561195757818101518382015260200161193f565b505050509050016040525050509150868260008151811061197457fe5b602002602001015111156111905760405162461bcd60e51b81526004018080602001828103825260248152602001806149546024913960400191505060405180910390fd5b6003546001600160a01b031681565b6119d0613f68565b6001600160a01b03166119e16126ab565b6001600160a01b031614611a3c576040805162461bcd60e51b815260206004820181905260248201527f4f776e61626c653a2063616c6c6572206973206e6f7420746865206f776e6572604482015290519081900360640190fd5b600380546001600160a01b0319166001600160a01b0392909216919091179055565b6002546000908190611a7a908d906001600160a01b03166126ba565b9050600086611a89578b611a8d565b6000195b6040805163d505accf60e01b815233600482015230602482015260448101839052606481018b905260ff8916608482015260a4810188905260c4810187905290519192506001600160a01b0384169163d505accf9160e48082019260009290919082900301818387803b158015611b0357600080fd5b505af1158015611b17573d6000803e3d6000fd5b50505050611b298d8d8d8d8d8d6127a0565b9d9c50505050505050505050505050565b8042811015611b7e576040805162461bcd60e51b815260206004820152601560248201526000805160206148ed833981519152604482015290519081900360640190fd5b611bd285856000818110611b8e57fe5b905060200201356001600160a01b031633611bcc88886000818110611baf57fe5b905060200201356001600160a01b0316898960018181106111de57fe5b8a613ae4565b600085856000198101818110611be457fe5b905060200201356001600160a01b03166001600160a01b03166370a08231856040518263ffffffff1660e01b815260040180826001600160a01b03166001600160a01b0316815260200191505060206040518083038186803b158015611c4957600080fd5b505afa158015611c5d573d6000803e3d6000fd5b505050506040513d6020811015611c7357600080fd5b50516040805160208881028281018201909352888252929350611cb5929091899189918291850190849080828437600092019190915250889250613f6c915050565b86611d678288886000198101818110611cca57fe5b905060200201356001600160a01b03166001600160a01b03166370a08231886040518263ffffffff1660e01b815260040180826001600160a01b03166001600160a01b0316815260200191505060206040518083038186803b158015611d2f57600080fd5b505afa158015611d43573d6000803e3d6000fd5b505050506040513d6020811015611d5957600080fd5b50519063ffffffff6143d616565b1015611da45760405162461bcd60e51b81526004018080602001828103825260288152602001806148c56028913960400191505060405180910390fd5b5050505050505050565b6002546001600160a01b031681565b611dc5613f68565b6001600160a01b0316611dd66126ab565b6001600160a01b031614611e31576040805162461bcd60e51b815260206004820181905260248201527f4f776e61626c653a2063616c6c6572206973206e6f7420746865206f776e6572604482015290519081900360640190fd5b600080546040516001600160a01b03909116907f8be0079c531659141344cd1fd0a4f28419497f9722a3daafe3b4186f6b6457e0908390a3600080546001600160a01b0319169055565b8042811015611ebf576040805162461bcd60e51b815260206004820152601560248201526000805160206148ed833981519152604482015290519081900360640190fd5b6002546001600160a01b031685856000198101818110611edb57fe5b905060200201356001600160a01b03166001600160a01b031614611f34576040805162461bcd60e51b815260206004820152601a6024820152600080516020614839833981519152604482015290519081900360640190fd5b611f4485856000818110611b8e57fe5b611f82858580806020026020016040519081016040528093929190818152602001838360200280828437600092019190915250309250613f6c915050565b600254604080516370a0823160e01b815230600482015290516000926001600160a01b0316916370a08231916024808301926020929190829003018186803b158015611fcd57600080fd5b505afa158015611fe1573d6000803e3d6000fd5b505050506040513d6020811015611ff757600080fd5b505190508681101561203a5760405162461bcd60e51b81526004018080602001828103825260288152602001806148c56028913960400191505060405180910390fd5b60025460408051632e1a7d4d60e01b81526004810184905290516001600160a01b0390921691632e1a7d4d9160248082019260009290919082900301818387803b15801561208757600080fd5b505af115801561209b573d6000803e3d6000fd5b50505050611da484826139ec565b606081428110156120ef576040805162461bcd60e51b815260206004820152601560248201526000805160206148ed833981519152604482015290519081900360640190fd5b6002546001600160a01b0316868660008161210657fe5b905060200201356001600160a01b03166001600160a01b03161461215f576040805162461bcd60e51b815260206004820152601a6024820152600080516020614839833981519152604482015290519081900360640190fd5b6001546040805163d06ca61f60e01b8152346004820181815260248301938452604483018a90526001600160a01b039094169363d06ca61f9391928b928b9291606401846020850280828437600081840152601f19601f82011690508083019250505094505050505060006040518083038186803b1580156121e057600080fd5b505afa1580156121f4573d6000803e3d6000fd5b505050506040513d6000823e601f3d908101601f19168201604052602081101561221d57600080fd5b8101908080516040519392919084600160201b82111561223c57600080fd5b90830190602082018581111561225157600080fd5b82518660208202830111600160201b8211171561226d57600080fd5b82525081516020918201928201910280838360005b8381101561229a578181015183820152602001612282565b50505050905001604052505050915086826001845103815181106122ba57fe5b602002602001015110156122ff5760405162461bcd60e51b81526004018080602001828103825260288152602001806148c56028913960400191505060405180910390fd5b60025482516001600160a01b039091169063d0e30db090849060009061232157fe5b60200260200101516040518263ffffffff1660e01b81526004016000604051808303818588803b15801561235457600080fd5b505af1158015612368573d6000803e3d6000fd5b50506002546001600160a01b0316925063a9059cbb915061238f90508888600081611baf57fe5b8460008151811061239c57fe5b60200260200101516040518363ffffffff1660e01b815260040180836001600160a01b03166001600160a01b0316815260200182815260200192505050602060405180830381600087803b1580156123f357600080fd5b505af1158015612407573d6000803e3d6000fd5b505050506040513d602081101561241d57600080fd5b505161242557fe5b61246482878780806020026020016040519081016040528093929190818152602001838360200280828437600092019190915250899250613c41915050565b5095945050505050565b600154604080516385f8c25960e01b815260048101869052602481018590526044810184905290516000926001600160a01b0316916385f8c259916064808301926020929190829003018186803b158015610f0157600080fd5b6060814281101561250e576040805162461bcd60e51b815260206004820152601560248201526000805160206148ed833981519152604482015290519081900360640190fd5b600154604080516307c0329d60e21b8152600481018b815260248201928352604482018990526001600160a01b0390931692631f00ca74928c928b928b929091606401846020850280828437600081840152601f19601f82011690508083019250505094505050505060006040518083038186803b15801561258f57600080fd5b505afa1580156125a3573d6000803e3d6000fd5b505050506040513d6000823e601f3d908101601f1916820160405260208110156125cc57600080fd5b8101908080516040519392919084600160201b8211156125eb57600080fd5b90830190602082018581111561260057600080fd5b82518660208202830111600160201b8211171561261c57600080fd5b82525081516020918201928201910280838360005b83811015612649578181015183820152602001612631565b505050509050016040525050509150868260008151811061266657fe5b602002602001015111156117125760405162461bcd60e51b81526004018080602001828103825260248152602001806149546024913960400191505060405180910390fd5b6000546001600160a01b031690565b600154604080516396ed28f960e01b81526001600160a01b0385811660048301528481166024830152915160009392909216916396ed28f991604480820192602092909190829003018186803b15801561271357600080fd5b505afa158015612727573d6000803e3d6000fd5b505050506040513d602081101561273d57600080fd5b50519392505050565b60015460408051632b58577b60e21b815260048101869052602481018590526044810184905290516000926001600160a01b03169163ad615dec916064808301926020929190829003018186803b158015610f0157600080fd5b600081428110156127e6576040805162461bcd60e51b815260206004820152601560248201526000805160206148ed833981519152604482015290519081900360640190fd5b6002546128029089906001600160a01b03168989893089612c0b565b604080516370a0823160e01b8152306004820152905191945061288692508a9187916001600160a01b038416916370a0823191602480820192602092909190829003018186803b15801561285557600080fd5b505afa158015612869573d6000803e3d6000fd5b505050506040513d602081101561287f57600080fd5b5051613882565b60025460408051632e1a7d4d60e01b81526004810185905290516001600160a01b0390921691632e1a7d4d9160248082019260009290919082900301818387803b1580156128d357600080fd5b505af11580156128e7573d6000803e3d6000fd5b505050506112ea84836139ec565b8042811015612939576040805162461bcd60e51b815260206004820152601560248201526000805160206148ed833981519152604482015290519081900360640190fd5b6002546001600160a01b0316858560008161295057fe5b905060200201356001600160a01b03166001600160a01b0316146129a9576040805162461bcd60e51b815260206004820152601a6024820152600080516020614839833981519152604482015290519081900360640190fd5b60025460408051630d0e30db60e41b8152905134926001600160a01b03169163d0e30db091849160048082019260009290919082900301818588803b1580156129f157600080fd5b505af1158015612a05573d6000803e3d6000fd5b50506002546001600160a01b0316925063a9059cbb9150612a2c90508888600081611baf57fe5b836040518363ffffffff1660e01b815260040180836001600160a01b03166001600160a01b0316815260200182815260200192505050602060405180830381600087803b158015612a7c57600080fd5b505af1158015612a90573d6000803e3d6000fd5b505050506040513d6020811015612aa657600080fd5b5051612aae57fe5b600086866000198101818110612ac057fe5b905060200201356001600160a01b03166001600160a01b03166370a08231866040518263ffffffff1660e01b815260040180826001600160a01b03166001600160a01b0316815260200191505060206040518083038186803b158015612b2557600080fd5b505afa158015612b39573d6000803e3d6000fd5b505050506040513d6020811015612b4f57600080fd5b50516040805160208981028281018201909352898252929350612b919290918a918a918291850190849080828437600092019190915250899250613f6c915050565b87611d678289896000198101818110612ba657fe5b905060200201356001600160a01b03166001600160a01b03166370a08231896040518263ffffffff1660e01b815260040180826001600160a01b03166001600160a01b0316815260200191505060206040518083038186803b158015611d2f57600080fd5b6000808242811015612c52576040805162461bcd60e51b815260206004820152601560248201526000805160206148ed833981519152604482015290519081900360640190fd5b6000612c5e8b8b6126ba565b604080516323b872dd60e01b81523360048201526001600160a01b03831660248201819052604482018d9052915192935090916323b872dd916064808201926020929091908290030181600087803b158015612cb957600080fd5b505af1158015612ccd573d6000803e3d6000fd5b505050506040513d6020811015612ce357600080fd5b50506040805163226bf2d160e21b81526001600160a01b03888116600483015282516000938493928616926389afcb44926024808301939282900301818787803b158015612d3057600080fd5b505af1158015612d44573d6000803e3d6000fd5b505050506040513d6040811015612d5a57600080fd5b810190808051906020019092919080519060200190929190505050915091506000600160009054906101000a90046001600160a01b03166001600160a01b031663544caa568f8f6040518363ffffffff1660e01b815260040180836001600160a01b03166001600160a01b03168152602001826001600160a01b03166001600160a01b0316815260200192505050604080518083038186803b158015612dff57600080fd5b505afa158015612e13573d6000803e3d6000fd5b505050506040513d6040811015612e2957600080fd5b505190506001600160a01b038e811690821614612e47578183612e4a565b82825b90975095508a871015612e8e5760405162461bcd60e51b81526004018080602001828103825260238152602001806148a26023913960400191505060405180910390fd5b89861015612ecd5760405162461bcd60e51b815260040180806020018281038252602381526020018061487f6023913960400191505060405180910390fd5b505050505097509795505050505050565b6001546001600160a01b031681565b6001546040805163d06ca61f60e01b815260048101858152602482019283528451604483015284516060946001600160a01b03169363d06ca61f9388938893909291606401906020808601910280838360008315611360578181015183820152602001611348565b60025460009081908190612f73908e906001600160a01b03166126ba565b9050600087612f82578c612f86565b6000195b6040805163d505accf60e01b815233600482015230602482015260448101839052606481018c905260ff8a16608482015260a4810189905260c4810188905290519192506001600160a01b0384169163d505accf9160e48082019260009290919082900301818387803b158015612ffc57600080fd5b505af1158015613010573d6000803e3d6000fd5b505050506130228e8e8e8e8e8e610db9565b909f909e509c50505050505050505050505050565b60008060008342811015613080576040805162461bcd60e51b815260206004820152601560248201526000805160206148ed833981519152604482015290519081900360640190fd5b61308e8c8c8c8c8c8c61441f565b9094509250600061309f8d8d6126ba565b90506130ad8d338388613ae4565b6130b98c338387613ae4565b806001600160a01b0316636a627842886040518263ffffffff1660e01b815260040180826001600160a01b03166001600160a01b03168152602001915050602060405180830381600087803b15801561311157600080fd5b505af1158015613125573d6000803e3d6000fd5b505050506040513d602081101561313b57600080fd5b5051949d939c50939a509198505050505050505050565b61315a613f68565b6001600160a01b031661316b6126ab565b6001600160a01b0316146131c6576040805162461bcd60e51b815260206004820181905260248201527f4f776e61626c653a2063616c6c6572206973206e6f7420746865206f776e6572604482015290519081900360640190fd5b6001600160a01b03811661320b5760405162461bcd60e51b81526004018080602001828103825260268152602001806148596026913960400191505060405180910390fd5b600080546040516001600160a01b03808516939216917f8be0079c531659141344cd1fd0a4f28419497f9722a3daafe3b4186f6b6457e091a3600080546001600160a01b0319166001600160a01b0392909216919091179055565b600080600083428110156132af576040805162461bcd60e51b815260206004820152601560248201526000805160206148ed833981519152604482015290519081900360640190fd5b6002546132ca908b906001600160a01b03168b348c8c61441f565b60025491955093506000906132e9908c906001600160a01b03166126ba565b90506132f78b338388613ae4565b600260009054906101000a90046001600160a01b03166001600160a01b031663d0e30db0856040518263ffffffff1660e01b81526004016000604051808303818588803b15801561334757600080fd5b505af115801561335b573d6000803e3d6000fd5b50506002546040805163a9059cbb60e01b81526001600160a01b038781166004830152602482018b9052915191909216945063a9059cbb9350604480830193506020928290030181600087803b1580156133b457600080fd5b505af11580156133c8573d6000803e3d6000fd5b505050506040513d60208110156133de57600080fd5b50516133e657fe5b806001600160a01b0316636a627842886040518263ffffffff1660e01b815260040180826001600160a01b03166001600160a01b03168152602001915050602060405180830381600087803b15801561343e57600080fd5b505af1158015613452573d6000803e3d6000fd5b505050506040513d602081101561346857600080fd5b505192503484101561348057613480338534036139ec565b505096509650969350505050565b606081428110156134d4576040805162461bcd60e51b815260206004820152601560248201526000805160206148ed833981519152604482015290519081900360640190fd5b6002546001600160a01b031686866000816134eb57fe5b905060200201356001600160a01b03166001600160a01b031614613544576040805162461bcd60e51b815260206004820152601a6024820152600080516020614839833981519152604482015290519081900360640190fd5b600154604080516307c0329d60e21b8152600481018a815260248201928352604482018990526001600160a01b0390931692631f00ca74928b928b928b929091606401846020850280828437600081840152601f19601f82011690508083019250505094505050505060006040518083038186803b1580156135c557600080fd5b505afa1580156135d9573d6000803e3d6000fd5b505050506040513d6000823e601f3d908101601f19168201604052602081101561360257600080fd5b8101908080516040519392919084600160201b82111561362157600080fd5b90830190602082018581111561363657600080fd5b82518660208202830111600160201b8211171561365257600080fd5b82525081516020918201928201910280838360005b8381101561367f578181015183820152602001613667565b505050509050016040525050509150348260008151811061369c57fe5b602002602001015111156136e15760405162461bcd60e51b81526004018080602001828103825260248152602001806149546024913960400191505060405180910390fd5b60025482516001600160a01b039091169063d0e30db090849060009061370357fe5b60200260200101516040518263ffffffff1660e01b81526004016000604051808303818588803b15801561373657600080fd5b505af115801561374a573d6000803e3d6000fd5b50506002546001600160a01b0316925063a9059cbb915061377190508888600081611baf57fe5b8460008151811061377e57fe5b60200260200101516040518363ffffffff1660e01b815260040180836001600160a01b03166001600160a01b0316815260200182815260200192505050602060405180830381600087803b1580156137d557600080fd5b505af11580156137e9573d6000803e3d6000fd5b505050506040513d60208110156137ff57600080fd5b505161380757fe5b61384682878780806020026020016040519081016040528093929190818152602001838360200280828437600092019190915250899250613c41915050565b8160008151811061385357fe5b602002602001015134111561246457612464338360008151811061387357fe5b602002602001015134036139ec565b604080516001600160a01b038481166024830152604480830185905283518084039091018152606490920183526020820180516001600160e01b031663a9059cbb60e01b178152925182516000946060949389169392918291908083835b602083106138ff5780518252601f1990920191602091820191016138e0565b6001836020036101000a0380198251168184511680821785525050505050509050019150506000604051808303816000865af19150503d8060008114613961576040519150601f19603f3d011682016040523d82523d6000602084013e613966565b606091505b5091509150818015613994575080511580613994575080806020019051602081101561399157600080fd5b50515b6139e5576040805162461bcd60e51b815260206004820152601f60248201527f5472616e7366657248656c7065723a205452414e534645525f4641494c454400604482015290519081900360640190fd5b5050505050565b604080516000808252602082019092526001600160a01b0384169083906040518082805190602001908083835b60208310613a385780518252601f199092019160209182019101613a19565b6001836020036101000a03801982511681845116808217855250505050505090500191505060006040518083038185875af1925050503d8060008114613a9a576040519150601f19603f3d011682016040523d82523d6000602084013e613a9f565b606091505b5050905080613adf5760405162461bcd60e51b815260040180806020018281038252602381526020018061490d6023913960400191505060405180910390fd5b505050565b604080516001600160a01b0385811660248301528481166044830152606480830185905283518084039091018152608490920183526020820180516001600160e01b03166323b872dd60e01b17815292518251600094606094938a169392918291908083835b60208310613b695780518252601f199092019160209182019101613b4a565b6001836020036101000a0380198251168184511680821785525050505050509050019150506000604051808303816000865af19150503d8060008114613bcb576040519150601f19603f3d011682016040523d82523d6000602084013e613bd0565b606091505b5091509150818015613bfe575080511580613bfe5750808060200190516020811015613bfb57600080fd5b50515b613c395760405162461bcd60e51b81526004018080602001828103825260248152602001806149306024913960400191505060405180910390fd5b505050505050565b60005b6001835103811015613f6257600080848381518110613c5f57fe5b6020026020010151858460010181518110613c7657fe5b602090810291909101015160015460408051632a26552b60e11b81526001600160a01b03808616600483015280851660248301528251959750939550600094939092169263544caa56926044808201939291829003018186803b158015613cdc57600080fd5b505afa158015613cf0573d6000803e3d6000fd5b505050506040513d6040811015613d0657600080fd5b50518751909150600090889060018701908110613d1f57fe5b60209081029190910101516003549091506001600160a01b031615613dcf576003546040805163152cf14360e31b81523360048201526001600160a01b0387811660248301528681166044830152606482018590529151919092169163a9678a189160848083019260209291908290030181600087803b158015613da257600080fd5b505af1158015613db6573d6000803e3d6000fd5b505050506040513d6020811015613dcc57600080fd5b50505b600080836001600160a01b0316866001600160a01b031614613df357826000613df7565b6000835b91509150600060028a51038810613e0e5788613e2e565b613e2e868b8a60020181518110613e2157fe5b60200260200101516126ba565b9050613e3a87876126ba565b6001600160a01b031663022c0d9f84848460006040519080825280601f01601f191660200182016040528015613e77576020820181803883390190505b506040518563ffffffff1660e01b815260040180858152602001848152602001836001600160a01b03166001600160a01b0316815260200180602001828103825283818151815260200191508051906020019080838360005b83811015613ee8578181015183820152602001613ed0565b50505050905090810190601f168015613f155780820380516001836020036101000a031916815260200191505b5095505050505050600060405180830381600087803b158015613f3757600080fd5b505af1158015613f4b573d6000803e3d6000fd5b505060019099019850613c44975050505050505050565b50505050565b3390565b60005b6001835103811015613adf57600080848381518110613f8a57fe5b6020026020010151858460010181518110613fa157fe5b602090810291909101015160015460408051632a26552b60e11b81526001600160a01b03808616600483015280851660248301528251959750939550600094939092169263544caa56926044808201939291829003018186803b15801561400757600080fd5b505afa15801561401b573d6000803e3d6000fd5b505050506040513d604081101561403157600080fd5b50519050600061404184846126ba565b9050600080600080846001600160a01b0316630902f1ac6040518163ffffffff1660e01b815260040160606040518083038186803b15801561408257600080fd5b505afa158015614096573d6000803e3d6000fd5b505050506040513d60608110156140ac57600080fd5b5080516020909101516dffffffffffffffffffffffffffff91821693501690506000806001600160a01b038a8116908916146140e95782846140ec565b83835b9150915061414a828b6001600160a01b03166370a082318a6040518263ffffffff1660e01b815260040180826001600160a01b03166001600160a01b0316815260200191505060206040518083038186803b158015611d2f57600080fd5b60015460408051630153543560e21b815260048101849052602481018690526044810185905290519298506001600160a01b039091169163054d50d491606480820192602092909190829003018186803b1580156141a757600080fd5b505afa1580156141bb573d6000803e3d6000fd5b505050506040513d60208110156141d157600080fd5b50516003549095506001600160a01b031615935061427e92505050576003546040805163152cf14360e31b81523360048201526001600160a01b0389811660248301528881166044830152606482018590529151919092169163a9678a189160848083019260209291908290030181600087803b15801561425157600080fd5b505af1158015614265573d6000803e3d6000fd5b505050506040513d602081101561427b57600080fd5b50505b600080856001600160a01b0316886001600160a01b0316146142a2578260006142a6565b6000835b91509150600060028c51038a106142bd578a6142d0565b6142d0888d8c60020181518110613e2157fe5b604080516000808252602082019283905263022c0d9f60e01b835260248201878152604483018790526001600160a01b038086166064850152608060848501908152845160a48601819052969750908c169563022c0d9f958a958a958a9591949193919260c486019290918190849084905b8381101561435a578181015183820152602001614342565b50505050905090810190601f1680156143875780820380516001836020036101000a031916815260200191505b5095505050505050600060405180830381600087803b1580156143a957600080fd5b505af11580156143bd573d6000803e3d6000fd5b50506001909b019a50613f6f9950505050505050505050565b600061441883836040518060400160405280601e81526020017f536166654d6174683a207375627472616374696f6e206f766572666c6f7700008152506147a1565b9392505050565b6001546040805163e6a4390560e01b81526001600160a01b038981166004830152888116602483015291516000938493849391169163e6a4390591604480820192602092909190829003018186803b15801561447a57600080fd5b505afa15801561448e573d6000803e3d6000fd5b505050506040513d60208110156144a457600080fd5b50516001600160a01b0316141561453957600154604080516364e329cb60e11b81526001600160a01b038b811660048301528a811660248301529151919092169163c9c653969160448083019260209291908290030181600087803b15801561450c57600080fd5b505af1158015614520573d6000803e3d6000fd5b505050506040513d602081101561453657600080fd5b50505b6001546040805163354aedbd60e21b81526001600160a01b038b811660048301528a811660248301528251600094859492169263d52bb6f4926044808301939192829003018186803b15801561458e57600080fd5b505afa1580156145a2573d6000803e3d6000fd5b505050506040513d60408110156145b857600080fd5b5080516020909101519092509050811580156145d2575080155b156145e257879350869250614794565b60015460408051632b58577b60e21b8152600481018b9052602481018590526044810184905290516000926001600160a01b03169163ad615dec916064808301926020929190829003018186803b15801561463c57600080fd5b505afa158015614650573d6000803e3d6000fd5b505050506040513d602081101561466657600080fd5b505190508781116146bb57858110156146b05760405162461bcd60e51b815260040180806020018281038252602381526020018061487f6023913960400191505060405180910390fd5b889450925082614792565b60015460408051632b58577b60e21b8152600481018b9052602481018590526044810186905290516000926001600160a01b03169163ad615dec916064808301926020929190829003018186803b15801561471557600080fd5b505afa158015614729573d6000803e3d6000fd5b505050506040513d602081101561473f57600080fd5b505190508981111561474d57fe5b8781101561478c5760405162461bcd60e51b81526004018080602001828103825260238152602001806148a26023913960400191505060405180910390fd5b94508793505b505b5050965096945050505050565b600081848411156148305760405162461bcd60e51b81526004018080602001828103825283818151815260200191508051906020019080838360005b838110156147f55781810151838201526020016147dd565b50505050905090810190601f1680156148225780820380516001836020036101000a031916815260200191505b509250505060405180910390fd5b50505090039056fe446542616e6b526f757465723a20494e56414c49445f504154480000000000004f776e61626c653a206e6577206f776e657220697320746865207a65726f2061646472657373446542616e6b526f757465723a20494e53554646494349454e545f425f414d4f554e54446542616e6b526f757465723a20494e53554646494349454e545f415f414d4f554e54446542616e6b526f757465723a20494e53554646494349454e545f4f55545055545f414d4f554e54446542616e6b526f757465723a204558504952454400000000000000000000005472616e7366657248656c7065723a204554485f5452414e534645525f4641494c45445472616e7366657248656c7065723a205452414e534645525f46524f4d5f4641494c4544446542616e6b526f757465723a204558434553534956455f494e5055545f414d4f554e54a265627a7a7231582006686cab65e32e9e2e2e53e3ef001b3eea66c00ca53f733dd600fde4b3f309a764736f6c63430005100032",
  "devdoc": {
    "methods": {
      "owner()": {
        "details": "Returns the address of the current owner."
      },
      "renounceOwnership()": {
        "details": "Leaves the contract without owner. It will not be possible to call `onlyOwner` functions anymore. Can only be called by the current owner.      * NOTE: Renouncing ownership will leave the contract without an owner, thereby removing any functionality that is only available to the owner."
      },
      "transferOwnership(address)": {
        "details": "Transfers ownership of the contract to a new account (`newOwner`). Can only be called by the current owner."
      }
    }
  },
  "userdoc": {
    "methods": {}
  },
  "storageLayout": {
    "storage": [
      {
        "astId": 5525,
        "contract": "contracts/common/MdexRouter.sol:MdexRouter",
        "label": "_owner",
        "offset": 0,
        "slot": "0",
        "type": "t_address"
      },
      {
        "astId": 3307,
        "contract": "contracts/common/MdexRouter.sol:MdexRouter",
        "label": "factory",
        "offset": 0,
        "slot": "1",
        "type": "t_address"
      },
      {
        "astId": 3309,
        "contract": "contracts/common/MdexRouter.sol:MdexRouter",
        "label": "WHT",
        "offset": 0,
        "slot": "2",
        "type": "t_address"
      },
      {
        "astId": 3311,
        "contract": "contracts/common/MdexRouter.sol:MdexRouter",
        "label": "swapMining",
        "offset": 0,
        "slot": "3",
        "type": "t_address"
      }
    ],
    "types": {
      "t_address": {
        "encoding": "inplace",
        "label": "address",
        "numberOfBytes": "20"
      }
    }
  }
}