{
  "address": "0x4141e1C7Fc88Ff68F567ACac71E76da3267B41B7",
  "abi": [
    {
      "inputs": [
        {
          "internalType": "address",
          "name": "_weth",
          "type": "address"
        }
      ],
      "stateMutability": "nonpayable",
      "type": "constructor"
    },
    {
      "anonymous": false,
      "inputs": [
        {
          "indexed": true,
          "internalType": "address",
          "name": "previousOwner",
          "type": "address"
        },
        {
          "indexed": true,
          "internalType": "address",
          "name": "newOwner",
          "type": "address"
        }
      ],
      "name": "OwnershipTransferred",
      "type": "event"
    },
    {
      "inputs": [
        {
          "internalType": "uint256",
          "name": "",
          "type": "uint256"
        }
      ],
      "name": "factories",
      "outputs": [
        {
          "internalType": "contract IUniswapV2Factory",
          "name": "",
          "type": "address"
        }
      ],
      "stateMutability": "view",
      "type": "function"
    },
    {
      "inputs": [
        {
          "components": [
            {
              "internalType": "contract IERC20",
              "name": "fromToken",
              "type": "address"
            },
            {
              "internalType": "contract IERC20",
              "name": "destToken",
              "type": "address"
            },
            {
              "internalType": "contract IERC20[]",
              "name": "midTokens",
              "type": "address[]"
            },
            {
              "internalType": "uint256",
              "name": "amount",
              "type": "uint256"
            },
            {
              "internalType": "uint256",
              "name": "parts",
              "type": "uint256"
            },
            {
              "internalType": "uint256",
              "name": "flags",
              "type": "uint256"
            },
            {
              "internalType": "uint256",
              "name": "destTokenEthPriceTimesGasPrice",
              "type": "uint256"
            }
          ],
          "internalType": "struct OneSplit.Args",
          "name": "args",
          "type": "tuple"
        }
      ],
      "name": "getExpectedReturnWithGas",
      "outputs": [
        {
          "internalType": "uint256",
          "name": "returnAmount",
          "type": "uint256"
        },
        {
          "internalType": "uint256",
          "name": "estimateGasAmount",
          "type": "uint256"
        },
        {
          "internalType": "uint256[]",
          "name": "distribution",
          "type": "uint256[]"
        },
        {
          "internalType": "bytes",
          "name": "data",
          "type": "bytes"
        }
      ],
      "stateMutability": "view",
      "type": "function"
    },
    {
      "inputs": [],
      "name": "owner",
      "outputs": [
        {
          "internalType": "address",
          "name": "",
          "type": "address"
        }
      ],
      "stateMutability": "view",
      "type": "function"
    },
    {
      "inputs": [],
      "name": "renounceOwnership",
      "outputs": [],
      "stateMutability": "nonpayable",
      "type": "function"
    },
    {
      "inputs": [
        {
          "internalType": "address[]",
          "name": "_factories",
          "type": "address[]"
        }
      ],
      "name": "resetFactories",
      "outputs": [],
      "stateMutability": "nonpayable",
      "type": "function"
    },
    {
      "inputs": [
        {
          "internalType": "address",
          "name": "newOwner",
          "type": "address"
        }
      ],
      "name": "transferOwnership",
      "outputs": [],
      "stateMutability": "nonpayable",
      "type": "function"
    },
    {
      "inputs": [],
      "name": "weth",
      "outputs": [
        {
          "internalType": "contract IWETH",
          "name": "",
          "type": "address"
        }
      ],
      "stateMutability": "view",
      "type": "function"
    }
  ],
  "transactionHash": "0x66d93179b9190e30be5cd2d2538784e2685292d25972ce0d5b3d382b23ff1fe3",
  "args": [
    "0x7aF326B6351C8A9b8fb8CD205CBe11d4Ac5FA836"
  ],
  "solcInputHash": "e90dc98e09636415519d2da098776a66",
  "bytecode": "0x60c0604052736cf6749fe8be5db551a9962504f10a84673617546080908152731ea875068d325af621dfd9b63c461e7536149b1f60a052620000459060029081620000f6565b503480156200005357600080fd5b506040516200257138038062002571833981016040819052620000769162000181565b600062000082620000f2565b600080546001600160a01b0319166001600160a01b0383169081178255604051929350917f8be0079c531659141344cd1fd0a4f28419497f9722a3daafe3b4186f6b6457e0908290a350600180546001600160a01b0319166001600160a01b0392909216919091179055620001b1565b3390565b8280548282559060005260206000209081019282156200014e579160200282015b828111156200014e57825182546001600160a01b0319166001600160a01b0390911617825560209092019160019091019062000117565b506200015c92915062000160565b5090565b5b808211156200015c5780546001600160a01b031916815560010162000161565b60006020828403121562000193578081fd5b81516001600160a01b0381168114620001aa578182fd5b9392505050565b6123b080620001c16000396000f3fe608060405234801561001057600080fd5b506004361061007d5760003560e01c80638da5cb5b1161005b5780638da5cb5b146100bd57806397cf90d6146100c5578063ccacfdc1146100e8578063f2fde38b146100fb5761007d565b80633fc8cef314610082578063672383c4146100a0578063715018a6146100b3575b600080fd5b61008a61010e565b604051610097919061208d565b60405180910390f35b61008a6100ae366004611f56565b61011d565b6100bb610144565b005b61008a6101d6565b6100d86100d3366004611e9c565b6101e5565b60405161009794939291906122b7565b6100bb6100f6366004611e04565b6103f3565b6100bb610109366004611dcc565b610531565b6001546001600160a01b031681565b6002818154811061012a57fe5b6000918252602090912001546001600160a01b0316905081565b61014c6105f1565b6001600160a01b031661015d6101d6565b6001600160a01b03161461018c5760405162461bcd60e51b8152600401610183906121bf565b60405180910390fd5b600080546040516001600160a01b03909116907f8be0079c531659141344cd1fd0a4f28419497f9722a3daafe3b4186f6b6457e0908390a3600080546001600160a01b0319169055565b6000546001600160a01b031690565b6000806060806102296040518060400160405280601481526020017f6265666f72652065786563757465202e2e2e2e200000000000000000000000008152506105f5565b6000600280549050866040015151600101029050606061025187606001518860800151610669565b905060608267ffffffffffffffff8111801561026c57600080fd5b506040519080825280602002602001820160405280156102a057816020015b606081526020019060019003908161028b5790505b50905060608367ffffffffffffffff811180156102bc57600080fd5b506040519080825280602002602001820160405280156102e6578160200160208202803683370190505b5090506102f1611c35565b89516001600160a01b039081166020808401919091528b01511660608201526080810184905260a0808b01519082015260c0808b0151908201526000805b600254811015610383576002818154811061034657fe5b6000918252602090912001546001600160a01b0316835260408c01516103709084908787866106f7565b60408c015151600190810192500161032f565b5050506103c46040518060400160405280601c81526020017f6265666f7265205f66696e6442657374446973747269627574696f6e000000008152506105f5565b6103d28960800151836109cd565b96506103e2905089878484610f34565b919b909a5096985096505050505050565b6103fb6105f1565b6001600160a01b031661040c6101d6565b6001600160a01b0316146104325760405162461bcd60e51b8152600401610183906121bf565b60025460005b8181101561047557600280548061044b57fe5b600082815260209020810160001990810180546001600160a01b0319169055019055600101610438565b50815167ffffffffffffffff8111801561048e57600080fd5b506040519080825280602002602001820160405280156104b8578160200160208202803683370190505b5080516104cd91600291602090910190611c78565b5060005b825181101561052c578281815181106104e657fe5b6020026020010151600282815481106104fb57fe5b600091825260209091200180546001600160a01b0319166001600160a01b03929092169190911790556001016104d1565b505050565b6105396105f1565b6001600160a01b031661054a6101d6565b6001600160a01b0316146105705760405162461bcd60e51b8152600401610183906121bf565b6001600160a01b0381166105965760405162461bcd60e51b8152600401610183906120ce565b600080546040516001600160a01b03808516939216917f8be0079c531659141344cd1fd0a4f28419497f9722a3daafe3b4186f6b6457e091a3600080546001600160a01b0319166001600160a01b0392909216919091179055565b3390565b6106668160405160240161060991906120bb565b60408051601f198184030181529190526020810180517bffffffffffffffffffffffffffffffffffffffffffffffffffffffff167f41304fac000000000000000000000000000000000000000000000000000000001790526113c9565b50565b60608167ffffffffffffffff8111801561068257600080fd5b506040519080825280602002602001820160405280156106ac578160200160208202803683370190505b50905060005b828110156106f0576106d1836106cb86600185016113ea565b9061142d565b8282815181106106dd57fe5b60209081029190910101526001016106b2565b5092915050565b6000606060006107068861146f565b915091508085858151811061071757fe5b602002602001018181525050610746670de0b6b3a76400006106cb8a60c00151846113ea90919063ffffffff16565b9050815160010167ffffffffffffffff8111801561076357600080fd5b5060405190808252806020026020018201604052801561078d578160200160208202803683370190505b5086858151811061079a57fe5b602002602001018190525060005b825181101561083457818382815181106107be57fe5b6020026020010151038786815181106107d357fe5b602002602001015182600101815181106107e957fe5b602002602001018181525050838061082a5750600087868151811061080a57fe5b6020026020010151826001018151811061082057fe5b6020026020010151135b93506001016107a8565b5060019093019260005b87518110156109b45787818151811061085357fe5b60209081029190910101516001600160a01b031660408a015261087589611655565b80935081945050508186868151811061088a57fe5b6020026020010181815250506108b9670de0b6b3a76400006106cb8b60c00151856113ea90919063ffffffff16565b9150825160010167ffffffffffffffff811180156108d657600080fd5b50604051908082528060200260200182016040528015610900578160200160208202803683370190505b5087868151811061090d57fe5b602002602001018190525060005b83518110156109a7578284828151811061093157fe5b60200260200101510388878151811061094657fe5b6020026020010151826001018151811061095c57fe5b602002602001018181525050848061099d5750600088878151811061097d57fe5b6020026020010151826001018151811061099357fe5b6020026020010151135b945060010161091b565b506001948501940161083e565b5082156109c357600160e08901525b5050505050505050565b8051600090606090818167ffffffffffffffff811180156109ed57600080fd5b50604051908082528060200260200182016040528015610a2157816020015b6060815260200190600190039081610a0c5790505b50905060608267ffffffffffffffff81118015610a3d57600080fd5b50604051908082528060200260200182016040528015610a7157816020015b6060815260200190600190039081610a5c5790505b50905060005b83811015610b3f578760010167ffffffffffffffff81118015610a9957600080fd5b50604051908082528060200260200182016040528015610ac3578160200160208202803683370190505b50838281518110610ad057fe5b60200260200101819052508760010167ffffffffffffffff81118015610af557600080fd5b50604051908082528060200260200182016040528015610b1f578160200160208202803683370190505b50828281518110610b2c57fe5b6020908102919091010152600101610a77565b5060005b878111610c125786600081518110610b5757fe5b60200260200101518181518110610b6a57fe5b602002602001015183600081518110610b7f57fe5b60200260200101518281518110610b9257fe5b602090810291909101015260015b84811015610bdc576000848281518110610bb657fe5b60200260200101518381518110610bc957fe5b6020908102919091010152600101610ba0565b50600082600081518110610bec57fe5b60200260200101518281518110610bff57fe5b6020908102919091010152600101610b43565b5060015b83811015610dfb5760005b888111610df257836001830381518110610c3757fe5b60200260200101518181518110610c4a57fe5b6020026020010151848381518110610c5e57fe5b60200260200101518281518110610c7157fe5b60200260200101818152505080838381518110610c8a57fe5b60200260200101518281518110610c9d57fe5b602090810291909101015260015b818111610de957848381518110610cbe57fe5b60200260200101518281518110610cd157fe5b6020026020010151898481518110610ce557fe5b60200260200101518281518110610cf857fe5b6020026020010151866001860381518110610d0f57fe5b602002602001015183850381518110610d2457fe5b6020026020010151011315610de157888381518110610d3f57fe5b60200260200101518181518110610d5257fe5b6020026020010151856001850381518110610d6957fe5b602002602001015182840381518110610d7e57fe5b602002602001015101858481518110610d9357fe5b60200260200101518381518110610da657fe5b602002602001018181525050808203848481518110610dc157fe5b60200260200101518381518110610dd457fe5b6020026020010181815250505b600101610cab565b50600101610c21565b50600101610c16565b508267ffffffffffffffff81118015610e1357600080fd5b50604051908082528060200260200182016040528015610e3d578160200160208202803683370190505b5093508660001984015b8115610ec357828181518110610e5957fe5b60200260200101518281518110610e6c57fe5b60200260200101518203868281518110610e8257fe5b602002602001018181525050828181518110610e9a57fe5b60200260200101518281518110610ead57fe5b6020908102919091010151915060001901610e47565b50826001850381518110610ed357fe5b60200260200101518881518110610ee657fe5b6020026020010151600014610f2457826001850381518110610f0457fe5b60200260200101518881518110610f1757fe5b6020026020010151610f27565b60005b9550505050509250929050565b6000806060610f41611cdd565b60005b8751811015610f7d576000888281518110610f5b57fe5b60200260200101511115610f755760208201805160010190525b600101610f44565b5087516001600160a01b03168152602081015167ffffffffffffffff81118015610fa657600080fd5b50604051908082528060200260200182016040528015610fd0578160200160208202803683370190505b506060820152602081015167ffffffffffffffff81118015610ff157600080fd5b5060405190808252806020026020018201604052801561101b578160200160208202803683370190505b506080820152602081015167ffffffffffffffff8111801561103c57600080fd5b50604051908082528060200260200182016040528015611066578160200160208202803683370190505b5060a0820152602081015167ffffffffffffffff8111801561108757600080fd5b506040519080825280602002602001820160405280156110b1578160200160208202803683370190505b5060c0820152600080805b89518110156113935760008a82815181106110d357fe5b6020026020010151111561138b576111078882815181106110f057fe5b6020026020010151876116ec90919063ffffffff16565b95506000611141670de0b6b3a76400006106cb8e60c001518c868151811061112b57fe5b60200260200101516113ea90919063ffffffff16565b8a838151811061114d57fe5b60200260200101518c848151811061116157fe5b60200260200101518151811061117357fe5b602002602001015101905061119181896116ec90919063ffffffff16565b975060018560200151038314156111ca57838c6060015103856060015184815181106111b957fe5b602002602001018181525050611219565b6111fc8b83815181106111d957fe5b60200260200101516106cb8e608001518f606001516113ea90919063ffffffff16565b8560600151848151811061120c57fe5b6020026020010181815250505b808560800151848151811061122a57fe5b602002602001018181525050808560a00151848151811061124757fe5b6020026020010181815250508460600151838151811061126357fe5b6020026020010151840193508b6040015151600101828161128057fe5b066112f9576112d960028d6040015151600101848161129b57fe5b04815481106112a657fe5b9060005260206000200160009054906101000a90046001600160a01b03168d6000015160008f60200151620f3688611711565b8560e0015184815181106112e957fe5b6020026020010181905250611383565b61136760028d6040015151600101848161130f57fe5b048154811061131a57fe5b6000918252602090912001548d5160408f015180516001600160a01b0390931692600101868161134657fe5b068151811061135157fe5b60200260200101518f60200151620f3688611711565b8560e00151848151811061137757fe5b60200260200101819052505b506001909101905b6001016110bc565b506040808401879052516113ab9084906020016121f4565b60405160208183030381529060405293505050509450945094915050565b80516a636f6e736f6c652e6c6f67602083016000808483855afa5050505050565b6000826113f957506000611427565b8282028284828161140657fe5b04146114245760405162461bcd60e51b815260040161018390612162565b90505b92915050565b600061142483836040518060400160405280601a81526020017f536166654d6174683a206469766973696f6e206279207a65726f000000000000815250611ab5565b8051602082015160608381015160808501518051929460009490939092919067ffffffffffffffff811180156114a457600080fd5b506040519080825280602002602001820160405280156114ce578160200160208202803683370190505b50955060006114e5846001600160a01b0316611aee565b6114ef57836114fc565b6001546001600160a01b03165b90506000611512846001600160a01b0316611aee565b61151c5783611529565b6001546001600160a01b03165b90506000866001600160a01b031663e6a4390584846040518363ffffffff1660e01b815260040161155b9291906120a1565b60206040518083038186803b15801561157357600080fd5b505afa158015611587573d6000803e3d6000fd5b505050506040513d601f19601f820116820180604052508101906115ab9190611de8565b90506001600160a01b038116156116485760006115d16001600160a01b03851683611b27565b905060006115e86001600160a01b03851684611b27565b905060005b865181101561163357611614838389848151811061160757fe5b6020026020010151611be4565b8c828151811061162057fe5b60209081029190910101526001016115ed565b5061c350995061165098505050505050505050565b505050505050505b915091565b60606000611661611c35565b83516001600160a01b03908116825260208086015182169083015260408501511660608201526080808501519082015260a080850151908201526000806116a78361146f565b6080850182905260408801516001600160a01b0390811660208701526060808a01519091169086015290955091506116de8361146f565b909792019550909350505050565b6000828201838110156114245760405162461bcd60e51b81526004016101839061212b565b60a01b606080600061172b6001600160a01b038816611aee565b6117355786611742565b6001546001600160a01b03165b90506000611758866001600160a01b0316611aee565b611762578561176f565b6001546001600160a01b03165b905060606001600160a01b03881615611823576040805160018082528183019092529060208083019080368337505060408051600280825260608201835293975092915060208301908036833701905050905082816000815181106117d057fe5b60200260200101906001600160a01b031690816001600160a01b03168152505081816001815181106117fe57fe5b60200260200101906001600160a01b031690816001600160a01b0316815250506118ef565b6040805160028082526060820183529091602083019080368337505060408051600380825260808201909252929650905060208201606080368337019050509050828160008151811061187257fe5b60200260200101906001600160a01b031690816001600160a01b03168152505087816001815181106118a057fe5b60200260200101906001600160a01b031690816001600160a01b03168152505081816002815181106118ce57fe5b60200260200101906001600160a01b031690816001600160a01b0316815250505b60005b6001825103811015611aa657600082828151811061190c57fe5b60200260200101519050600083836001018151811061192757fe5b6020026020010151905060008d6001600160a01b031663e6a4390584846040518363ffffffff1660e01b81526004016119619291906120a1565b60206040518083038186803b15801561197957600080fd5b505afa15801561198d573d6000803e3d6000fd5b505050506040513d601f19601f820116820180604052508101906119b19190611de8565b90506000816001600160a01b03169050808b1790506000826001600160a01b0316630dfe16816040518163ffffffff1660e01b815260040160206040518083038186803b158015611a0157600080fd5b505afa158015611a15573d6000803e3d6000fd5b505050506040513d601f19601f82011682018060405250810190611a399190611de8565b9050846001600160a01b0316816001600160a01b031614611a7a577f8000000000000000000000000000000000000000000000000000000000000000821791505b8160001b8a8781518110611a8a57fe5b60209081029190910101525050600190930192506118f2915050565b50929998505050505050505050565b60008183611ad65760405162461bcd60e51b815260040161018391906120bb565b506000838581611ae257fe5b049150505b9392505050565b60006001600160a01b038216158061142757506001600160a01b03821673eeeeeeeeeeeeeeeeeeeeeeeeeeeeeeeeeeeeeeee1492915050565b6000611b3283611aee565b15611b4857506001600160a01b03811631611427565b6040517f70a082310000000000000000000000000000000000000000000000000000000081526001600160a01b038416906370a0823190611b8d90859060040161208d565b60206040518083038186803b158015611ba557600080fd5b505afa158015611bb9573d6000803e3d6000fd5b505050506040513d601f19601f82011682018060405250810190611bdd9190611f6e565b9050611427565b600081611bf357506000611ae7565b611c2d611c17611c05846103e56113ea565b611c11876103e86113ea565b906116ec565b6106cb6103e5611c2786886113ea565b906113ea565b949350505050565b60408051610100810182526000808252602082018190529181018290526060808201839052608082015260a0810182905260c0810182905260e081019190915290565b828054828255906000526020600020908101928215611ccd579160200282015b82811115611ccd57825182546001600160a01b0319166001600160a01b03909116178255602090920191600190910190611c98565b50611cd9929150611d2b565b5090565b60405180610100016040528060006001600160a01b03168152602001600081526020016000815260200160608152602001606081526020016060815260200160608152602001606081525090565b5b80821115611cd95780546001600160a01b0319168155600101611d2c565b803561142781612365565b600082601f830112611d65578081fd5b8135611d78611d7382612345565b61231e565b818152915060208083019084810181840286018201871015611d9957600080fd5b60005b84811015611dc1578135611daf81612365565b84529282019290820190600101611d9c565b505050505092915050565b600060208284031215611ddd578081fd5b813561142481612365565b600060208284031215611df9578081fd5b815161142481612365565b60006020808385031215611e16578182fd5b823567ffffffffffffffff811115611e2c578283fd5b8301601f81018513611e3c578283fd5b8035611e4a611d7382612345565b8181528381019083850185840285018601891015611e66578687fd5b8694505b83851015611e9057611e7c8982611d4a565b835260019490940193918501918501611e6a565b50979650505050505050565b600060208284031215611ead578081fd5b813567ffffffffffffffff80821115611ec4578283fd5b9083019060e08286031215611ed7578283fd5b611ee160e061231e565b611eeb8684611d4a565b8152611efa8660208501611d4a565b6020820152604083013582811115611f10578485fd5b611f1c87828601611d55565b604083015250606083013560608201526080830135608082015260a083013560a082015260c083013560c082015280935050505092915050565b600060208284031215611f67578081fd5b5035919050565b600060208284031215611f7f578081fd5b5051919050565b6001600160a01b03169052565b6000815180845260208085019450848183028601828601855b85811015611ffb578383038952815180518085529086019086850190895b81811015611fe657835183529288019291880191600101611fca565b50509986019993505090840190600101611fac565b5090979650505050505050565b6000815180845260208085019450808401835b838110156120375781518752958201959082019060010161201b565b509495945050505050565b60008151808452815b818110156120675760208185018101518683018201520161204b565b818111156120785782602083870101525b50601f01601f19169290920160200192915050565b6001600160a01b0391909116815260200190565b6001600160a01b0392831681529116602082015260400190565b6000602082526114246020830184612042565b60208082526026908201527f4f776e61626c653a206e6577206f776e657220697320746865207a65726f206160408201527f6464726573730000000000000000000000000000000000000000000000000000606082015260800190565b6020808252601b908201527f536166654d6174683a206164646974696f6e206f766572666c6f770000000000604082015260600190565b60208082526021908201527f536166654d6174683a206d756c7469706c69636174696f6e206f766572666c6f60408201527f7700000000000000000000000000000000000000000000000000000000000000606082015260800190565b6020808252818101527f4f776e61626c653a2063616c6c6572206973206e6f7420746865206f776e6572604082015260600190565b600060208252612208602083018451611f86565b60208301516040830152604083015160608301526060830151610100806080850152612238610120850183612008565b91506080850151601f19808685030160a08701526122568483612008565b935060a08701519150808685030160c08701526122738483612008565b935060c08701519150808685030160e08701526122908483612008565b935060e08701519150808685030183870152506122ad8382611f93565b9695505050505050565b600060808201868352602086818501526080604085015281865180845260a0860191508288019350845b818110156122fd578451835293830193918301916001016122e1565b505084810360608601526123118187612042565b9998505050505050505050565b60405181810167ffffffffffffffff8111828210171561233d57600080fd5b604052919050565b600067ffffffffffffffff82111561235b578081fd5b5060209081020190565b6001600160a01b038116811461066657600080fdfea264697066735822122006372c945c3aea964efdd948fcf540b1728c2874cbd7837f3802ea144bfdf3d564736f6c634300060c0033",
  "devdoc": {
    "kind": "dev",
    "methods": {
      "owner()": {
        "details": "Returns the address of the current owner."
      },
      "renounceOwnership()": {
        "details": "Leaves the contract without owner. It will not be possible to call `onlyOwner` functions anymore. Can only be called by the current owner. NOTE: Renouncing ownership will leave the contract without an owner, thereby removing any functionality that is only available to the owner."
      },
      "transferOwnership(address)": {
        "details": "Transfers ownership of the contract to a new account (`newOwner`). Can only be called by the current owner."
      }
    },
    "version": 1
  },
  "userdoc": {
    "kind": "user",
    "methods": {},
    "version": 1
  },
  "storageLayout": {
    "storage": [
      {
        "astId": 3018,
        "contract": "contracts/swap/aggressive/OneSpilt.sol:OneSplit",
        "label": "_owner",
        "offset": 0,
        "slot": "0",
        "type": "t_address"
      },
      {
        "astId": 1249,
        "contract": "contracts/swap/aggressive/OneSpilt.sol:OneSplit",
        "label": "weth",
        "offset": 0,
        "slot": "1",
        "type": "t_contract(IWETH)1148"
      },
      {
        "astId": 1259,
        "contract": "contracts/swap/aggressive/OneSpilt.sol:OneSplit",
        "label": "factories",
        "offset": 0,
        "slot": "2",
        "type": "t_array(t_contract(IUniswapV2Factory)1128)dyn_storage"
      }
    ],
    "types": {
      "t_address": {
        "encoding": "inplace",
        "label": "address",
        "numberOfBytes": "20"
      },
      "t_array(t_contract(IUniswapV2Factory)1128)dyn_storage": {
        "base": "t_contract(IUniswapV2Factory)1128",
        "encoding": "dynamic_array",
        "label": "contract IUniswapV2Factory[]",
        "numberOfBytes": "32"
      },
      "t_contract(IUniswapV2Factory)1128": {
        "encoding": "inplace",
        "label": "contract IUniswapV2Factory",
        "numberOfBytes": "20"
      },
      "t_contract(IWETH)1148": {
        "encoding": "inplace",
        "label": "contract IWETH",
        "numberOfBytes": "20"
      }
    }
  }
}