{
  "address": "0x96670f76B5CD220A0660970eCB3c2cE8043596C8",
  "abi": [
    {
      "inputs": [
        {
          "internalType": "address",
          "name": "_ctokenFactory",
          "type": "address"
        },
        {
          "internalType": "address",
          "name": "_cETH",
          "type": "address"
        },
        {
          "internalType": "address",
          "name": "_wETH",
          "type": "address"
        },
        {
          "internalType": "address",
          "name": "_margin",
          "type": "address"
        }
      ],
      "stateMutability": "payable",
      "type": "constructor"
    },
    {
      "anonymous": false,
      "inputs": [
        {
          "indexed": true,
          "internalType": "address",
          "name": "owner",
          "type": "address"
        },
        {
          "indexed": true,
          "internalType": "address",
          "name": "srcToken",
          "type": "address"
        },
        {
          "indexed": true,
          "internalType": "address",
          "name": "destToken",
          "type": "address"
        },
        {
          "indexed": false,
          "internalType": "uint256",
          "name": "orderId",
          "type": "uint256"
        }
      ],
      "name": "CancelOrder",
      "type": "event"
    },
    {
      "anonymous": false,
      "inputs": [
        {
          "indexed": true,
          "internalType": "address",
          "name": "owner",
          "type": "address"
        },
        {
          "indexed": true,
          "internalType": "address",
          "name": "srcToken",
          "type": "address"
        },
        {
          "indexed": true,
          "internalType": "address",
          "name": "destToken",
          "type": "address"
        },
        {
          "indexed": false,
          "internalType": "uint256",
          "name": "orderId",
          "type": "uint256"
        },
        {
          "indexed": false,
          "internalType": "uint256",
          "name": "amountIn",
          "type": "uint256"
        },
        {
          "indexed": false,
          "internalType": "uint256",
          "name": "minAmountOut",
          "type": "uint256"
        },
        {
          "indexed": false,
          "internalType": "uint256",
          "name": "flag",
          "type": "uint256"
        }
      ],
      "name": "CreateOrder",
      "type": "event"
    },
    {
      "anonymous": false,
      "inputs": [
        {
          "indexed": true,
          "internalType": "address",
          "name": "maker",
          "type": "address"
        },
        {
          "indexed": true,
          "internalType": "address",
          "name": "taker",
          "type": "address"
        },
        {
          "indexed": false,
          "internalType": "uint256",
          "name": "orderId",
          "type": "uint256"
        },
        {
          "indexed": false,
          "internalType": "uint256",
          "name": "amt",
          "type": "uint256"
        },
        {
          "indexed": false,
          "internalType": "uint256",
          "name": "amtOut",
          "type": "uint256"
        }
      ],
      "name": "FulFilOrder",
      "type": "event"
    },
    {
      "anonymous": false,
      "inputs": [
        {
          "indexed": true,
          "internalType": "address",
          "name": "previousOwner",
          "type": "address"
        },
        {
          "indexed": true,
          "internalType": "address",
          "name": "newOwner",
          "type": "address"
        }
      ],
      "name": "OwnershipTransferred",
      "type": "event"
    },
    {
      "inputs": [],
      "name": "DENOMINATOR",
      "outputs": [
        {
          "internalType": "uint256",
          "name": "",
          "type": "uint256"
        }
      ],
      "stateMutability": "view",
      "type": "function"
    },
    {
      "inputs": [
        {
          "internalType": "uint256",
          "name": "id",
          "type": "uint256"
        }
      ],
      "name": "addrIndex",
      "outputs": [
        {
          "internalType": "uint256",
          "name": "",
          "type": "uint256"
        }
      ],
      "stateMutability": "pure",
      "type": "function"
    },
    {
      "inputs": [
        {
          "internalType": "address",
          "name": "",
          "type": "address"
        },
        {
          "internalType": "uint256",
          "name": "",
          "type": "uint256"
        }
      ],
      "name": "addressOrders",
      "outputs": [
        {
          "internalType": "uint256",
          "name": "",
          "type": "uint256"
        }
      ],
      "stateMutability": "view",
      "type": "function"
    },
    {
      "inputs": [
        {
          "internalType": "address",
          "name": "",
          "type": "address"
        },
        {
          "internalType": "address",
          "name": "",
          "type": "address"
        }
      ],
      "name": "balanceOf",
      "outputs": [
        {
          "internalType": "uint256",
          "name": "",
          "type": "uint256"
        }
      ],
      "stateMutability": "view",
      "type": "function"
    },
    {
      "inputs": [],
      "name": "cETH",
      "outputs": [
        {
          "internalType": "address",
          "name": "",
          "type": "address"
        }
      ],
      "stateMutability": "view",
      "type": "function"
    },
    {
      "inputs": [
        {
          "internalType": "uint256",
          "name": "orderId",
          "type": "uint256"
        }
      ],
      "name": "cancelOrder",
      "outputs": [],
      "stateMutability": "nonpayable",
      "type": "function"
    },
    {
      "inputs": [],
      "name": "closeOrderBook",
      "outputs": [],
      "stateMutability": "nonpayable",
      "type": "function"
    },
    {
      "inputs": [],
      "name": "closed",
      "outputs": [
        {
          "internalType": "bool",
          "name": "",
          "type": "bool"
        }
      ],
      "stateMutability": "view",
      "type": "function"
    },
    {
      "inputs": [
        {
          "internalType": "address",
          "name": "srcToken",
          "type": "address"
        },
        {
          "internalType": "address",
          "name": "destToken",
          "type": "address"
        },
        {
          "internalType": "address",
          "name": "to",
          "type": "address"
        },
        {
          "internalType": "uint256",
          "name": "amountIn",
          "type": "uint256"
        },
        {
          "internalType": "uint256",
          "name": "guaranteeAmountOut",
          "type": "uint256"
        },
        {
          "internalType": "uint256",
          "name": "flag",
          "type": "uint256"
        }
      ],
      "name": "createOrder",
      "outputs": [
        {
          "internalType": "uint256",
          "name": "idx",
          "type": "uint256"
        }
      ],
      "stateMutability": "payable",
      "type": "function"
    },
    {
      "inputs": [],
      "name": "ctokenFactory",
      "outputs": [
        {
          "internalType": "address",
          "name": "",
          "type": "address"
        }
      ],
      "stateMutability": "view",
      "type": "function"
    },
    {
      "inputs": [],
      "name": "defaultFeeMaker",
      "outputs": [
        {
          "internalType": "uint256",
          "name": "",
          "type": "uint256"
        }
      ],
      "stateMutability": "view",
      "type": "function"
    },
    {
      "inputs": [],
      "name": "defaultFeeTaker",
      "outputs": [
        {
          "internalType": "uint256",
          "name": "",
          "type": "uint256"
        }
      ],
      "stateMutability": "view",
      "type": "function"
    },
    {
      "inputs": [],
      "name": "feeTo",
      "outputs": [
        {
          "internalType": "address",
          "name": "",
          "type": "address"
        }
      ],
      "stateMutability": "view",
      "type": "function"
    },
    {
      "inputs": [
        {
          "internalType": "uint256",
          "name": "orderId",
          "type": "uint256"
        },
        {
          "internalType": "uint256",
          "name": "amtToTaken",
          "type": "uint256"
        },
        {
          "internalType": "address",
          "name": "to",
          "type": "address"
        },
        {
          "internalType": "bool",
          "name": "isToken",
          "type": "bool"
        },
        {
          "internalType": "bool",
          "name": "partialFill",
          "type": "bool"
        },
        {
          "internalType": "bytes",
          "name": "data",
          "type": "bytes"
        }
      ],
      "name": "fulfilOrder",
      "outputs": [
        {
          "components": [
            {
              "internalType": "bool",
              "name": "isToken",
              "type": "bool"
            },
            {
              "internalType": "uint256",
              "name": "filled",
              "type": "uint256"
            },
            {
              "internalType": "uint256",
              "name": "takerFee",
              "type": "uint256"
            },
            {
              "internalType": "uint256",
              "name": "makerFee",
              "type": "uint256"
            },
            {
              "internalType": "uint256",
              "name": "takerAmt",
              "type": "uint256"
            },
            {
              "internalType": "uint256",
              "name": "takerAmtToken",
              "type": "uint256"
            },
            {
              "internalType": "uint256",
              "name": "makerAmt",
              "type": "uint256"
            },
            {
              "internalType": "uint256",
              "name": "amtDest",
              "type": "uint256"
            },
            {
              "internalType": "uint256",
              "name": "amtDestToken",
              "type": "uint256"
            }
          ],
          "internalType": "struct OrderBook.FulFilAmt",
          "name": "fulFilAmt",
          "type": "tuple"
        }
      ],
      "stateMutability": "payable",
      "type": "function"
    },
    {
      "inputs": [
        {
          "internalType": "uint256[]",
          "name": "orderIds",
          "type": "uint256[]"
        },
        {
          "internalType": "uint256[]",
          "name": "amtToTakens",
          "type": "uint256[]"
        },
        {
          "internalType": "address",
          "name": "to",
          "type": "address"
        },
        {
          "internalType": "bool",
          "name": "isToken",
          "type": "bool"
        },
        {
          "internalType": "bool",
          "name": "partialFill",
          "type": "bool"
        },
        {
          "internalType": "bytes",
          "name": "data",
          "type": "bytes"
        }
      ],
      "name": "fulfilOrders",
      "outputs": [],
      "stateMutability": "payable",
      "type": "function"
    },
    {
      "inputs": [],
      "name": "getAllOrders",
      "outputs": [
        {
          "components": [
            {
              "internalType": "uint256",
              "name": "orderId",
              "type": "uint256"
            },
            {
              "internalType": "uint256",
              "name": "pairAddrIdx",
              "type": "uint256"
            },
            {
              "internalType": "uint256",
              "name": "pair",
              "type": "uint256"
            },
            {
              "internalType": "uint256",
              "name": "timestamp",
              "type": "uint256"
            },
            {
              "internalType": "uint256",
              "name": "flag",
              "type": "uint256"
            },
            {
              "internalType": "address",
              "name": "owner",
              "type": "address"
            },
            {
              "internalType": "address",
              "name": "to",
              "type": "address"
            },
            {
              "components": [
                {
                  "internalType": "address",
                  "name": "srcToken",
                  "type": "address"
                },
                {
                  "internalType": "address",
                  "name": "destToken",
                  "type": "address"
                },
                {
                  "internalType": "address",
                  "name": "srcEToken",
                  "type": "address"
                },
                {
                  "internalType": "address",
                  "name": "destEToken",
                  "type": "address"
                },
                {
                  "internalType": "uint256",
                  "name": "amountIn",
                  "type": "uint256"
                },
                {
                  "internalType": "uint256",
                  "name": "amountInMint",
                  "type": "uint256"
                },
                {
                  "internalType": "uint256",
                  "name": "fulfiled",
                  "type": "uint256"
                },
                {
                  "internalType": "uint256",
                  "name": "guaranteeAmountOut",
                  "type": "uint256"
                },
                {
                  "internalType": "uint256",
                  "name": "destFulfiled",
                  "type": "uint256"
                }
              ],
              "internalType": "struct DataTypes.TokenAmount",
              "name": "tokenAmt",
              "type": "tuple"
            }
          ],
          "internalType": "struct DataTypes.OrderItem[]",
          "name": "allOrders",
          "type": "tuple[]"
        }
      ],
      "stateMutability": "view",
      "type": "function"
    },
    {
      "inputs": [
        {
          "internalType": "uint256",
          "name": "pair",
          "type": "uint256"
        }
      ],
      "name": "getMakerFeeRate",
      "outputs": [
        {
          "internalType": "uint256",
          "name": "",
          "type": "uint256"
        }
      ],
      "stateMutability": "view",
      "type": "function"
    },
    {
      "inputs": [
        {
          "internalType": "uint256",
          "name": "pair",
          "type": "uint256"
        }
      ],
      "name": "getTakerFeeRate",
      "outputs": [
        {
          "internalType": "uint256",
          "name": "",
          "type": "uint256"
        }
      ],
      "stateMutability": "view",
      "type": "function"
    },
    {
      "inputs": [
        {
          "internalType": "uint256",
          "name": "flag",
          "type": "uint256"
        }
      ],
      "name": "isMargin",
      "outputs": [
        {
          "internalType": "bool",
          "name": "",
          "type": "bool"
        }
      ],
      "stateMutability": "pure",
      "type": "function"
    },
    {
      "inputs": [],
      "name": "marginAddr",
      "outputs": [
        {
          "internalType": "address",
          "name": "",
          "type": "address"
        }
      ],
      "stateMutability": "view",
      "type": "function"
    },
    {
      "inputs": [
        {
          "internalType": "address",
          "name": "",
          "type": "address"
        },
        {
          "internalType": "uint256",
          "name": "",
          "type": "uint256"
        }
      ],
      "name": "marginOrders",
      "outputs": [
        {
          "internalType": "uint256",
          "name": "",
          "type": "uint256"
        }
      ],
      "stateMutability": "view",
      "type": "function"
    },
    {
      "inputs": [
        {
          "internalType": "uint256",
          "name": "pairIdx",
          "type": "uint256"
        },
        {
          "internalType": "uint256",
          "name": "addrIdx",
          "type": "uint256"
        }
      ],
      "name": "maskAddrPairIndex",
      "outputs": [
        {
          "internalType": "uint256",
          "name": "",
          "type": "uint256"
        }
      ],
      "stateMutability": "pure",
      "type": "function"
    },
    {
      "inputs": [
        {
          "internalType": "address",
          "name": "",
          "type": "address"
        }
      ],
      "name": "minAmounts",
      "outputs": [
        {
          "internalType": "uint256",
          "name": "",
          "type": "uint256"
        }
      ],
      "stateMutability": "view",
      "type": "function"
    },
    {
      "inputs": [],
      "name": "openOrderBook",
      "outputs": [],
      "stateMutability": "nonpayable",
      "type": "function"
    },
    {
      "inputs": [],
      "name": "orderId",
      "outputs": [
        {
          "internalType": "uint256",
          "name": "",
          "type": "uint256"
        }
      ],
      "stateMutability": "view",
      "type": "function"
    },
    {
      "inputs": [
        {
          "internalType": "uint256",
          "name": "",
          "type": "uint256"
        }
      ],
      "name": "orders",
      "outputs": [
        {
          "internalType": "uint256",
          "name": "orderId",
          "type": "uint256"
        },
        {
          "internalType": "uint256",
          "name": "pairAddrIdx",
          "type": "uint256"
        },
        {
          "internalType": "uint256",
          "name": "pair",
          "type": "uint256"
        },
        {
          "internalType": "uint256",
          "name": "timestamp",
          "type": "uint256"
        },
        {
          "internalType": "uint256",
          "name": "flag",
          "type": "uint256"
        },
        {
          "internalType": "address",
          "name": "owner",
          "type": "address"
        },
        {
          "internalType": "address",
          "name": "to",
          "type": "address"
        },
        {
          "components": [
            {
              "internalType": "address",
              "name": "srcToken",
              "type": "address"
            },
            {
              "internalType": "address",
              "name": "destToken",
              "type": "address"
            },
            {
              "internalType": "address",
              "name": "srcEToken",
              "type": "address"
            },
            {
              "internalType": "address",
              "name": "destEToken",
              "type": "address"
            },
            {
              "internalType": "uint256",
              "name": "amountIn",
              "type": "uint256"
            },
            {
              "internalType": "uint256",
              "name": "amountInMint",
              "type": "uint256"
            },
            {
              "internalType": "uint256",
              "name": "fulfiled",
              "type": "uint256"
            },
            {
              "internalType": "uint256",
              "name": "guaranteeAmountOut",
              "type": "uint256"
            },
            {
              "internalType": "uint256",
              "name": "destFulfiled",
              "type": "uint256"
            }
          ],
          "internalType": "struct DataTypes.TokenAmount",
          "name": "tokenAmt",
          "type": "tuple"
        }
      ],
      "stateMutability": "view",
      "type": "function"
    },
    {
      "inputs": [],
      "name": "owner",
      "outputs": [
        {
          "internalType": "address",
          "name": "",
          "type": "address"
        }
      ],
      "stateMutability": "view",
      "type": "function"
    },
    {
      "inputs": [
        {
          "internalType": "uint256",
          "name": "",
          "type": "uint256"
        }
      ],
      "name": "pairFeeRate",
      "outputs": [
        {
          "internalType": "uint256",
          "name": "data",
          "type": "uint256"
        }
      ],
      "stateMutability": "view",
      "type": "function"
    },
    {
      "inputs": [
        {
          "internalType": "address",
          "name": "srcToken",
          "type": "address"
        },
        {
          "internalType": "address",
          "name": "destToken",
          "type": "address"
        }
      ],
      "name": "pairFor",
      "outputs": [
        {
          "internalType": "uint256",
          "name": "pair",
          "type": "uint256"
        }
      ],
      "stateMutability": "view",
      "type": "function"
    },
    {
      "inputs": [
        {
          "internalType": "uint256",
          "name": "id",
          "type": "uint256"
        }
      ],
      "name": "pairIndex",
      "outputs": [
        {
          "internalType": "uint256",
          "name": "",
          "type": "uint256"
        }
      ],
      "stateMutability": "pure",
      "type": "function"
    },
    {
      "inputs": [
        {
          "internalType": "uint256",
          "name": "",
          "type": "uint256"
        },
        {
          "internalType": "uint256",
          "name": "",
          "type": "uint256"
        }
      ],
      "name": "pairOrders",
      "outputs": [
        {
          "internalType": "uint256",
          "name": "",
          "type": "uint256"
        }
      ],
      "stateMutability": "view",
      "type": "function"
    },
    {
      "inputs": [],
      "name": "renounceOwnership",
      "outputs": [],
      "stateMutability": "nonpayable",
      "type": "function"
    },
    {
      "inputs": [
        {
          "internalType": "address",
          "name": "to",
          "type": "address"
        }
      ],
      "name": "setFeeTo",
      "outputs": [],
      "stateMutability": "nonpayable",
      "type": "function"
    },
    {
      "inputs": [
        {
          "internalType": "address",
          "name": "token",
          "type": "address"
        },
        {
          "internalType": "uint256",
          "name": "amt",
          "type": "uint256"
        }
      ],
      "name": "setMinOrderAmount",
      "outputs": [],
      "stateMutability": "nonpayable",
      "type": "function"
    },
    {
      "inputs": [
        {
          "internalType": "address",
          "name": "src",
          "type": "address"
        },
        {
          "internalType": "address",
          "name": "dest",
          "type": "address"
        },
        {
          "internalType": "uint256",
          "name": "fee",
          "type": "uint256"
        }
      ],
      "name": "setPairMakerFee",
      "outputs": [],
      "stateMutability": "nonpayable",
      "type": "function"
    },
    {
      "inputs": [
        {
          "internalType": "address",
          "name": "src",
          "type": "address"
        },
        {
          "internalType": "address",
          "name": "dest",
          "type": "address"
        },
        {
          "internalType": "uint256",
          "name": "fee",
          "type": "uint256"
        }
      ],
      "name": "setPairTakerFee",
      "outputs": [],
      "stateMutability": "nonpayable",
      "type": "function"
    },
    {
      "inputs": [
        {
          "internalType": "address",
          "name": "newOwner",
          "type": "address"
        }
      ],
      "name": "transferOwnership",
      "outputs": [],
      "stateMutability": "nonpayable",
      "type": "function"
    },
    {
      "inputs": [
        {
          "internalType": "uint256",
          "name": "idx",
          "type": "uint256"
        },
        {
          "internalType": "uint256",
          "name": "addrIdx",
          "type": "uint256"
        }
      ],
      "name": "updateAddrIdx",
      "outputs": [
        {
          "internalType": "uint256",
          "name": "",
          "type": "uint256"
        }
      ],
      "stateMutability": "pure",
      "type": "function"
    },
    {
      "inputs": [
        {
          "internalType": "uint256",
          "name": "idx",
          "type": "uint256"
        },
        {
          "internalType": "uint256",
          "name": "pairIdx",
          "type": "uint256"
        }
      ],
      "name": "updatePairIdx",
      "outputs": [
        {
          "internalType": "uint256",
          "name": "",
          "type": "uint256"
        }
      ],
      "stateMutability": "pure",
      "type": "function"
    },
    {
      "inputs": [],
      "name": "wETH",
      "outputs": [
        {
          "internalType": "address",
          "name": "",
          "type": "address"
        }
      ],
      "stateMutability": "view",
      "type": "function"
    },
    {
      "inputs": [
        {
          "internalType": "address",
          "name": "etoken",
          "type": "address"
        },
        {
          "internalType": "uint256",
          "name": "amt",
          "type": "uint256"
        }
      ],
      "name": "withdraw",
      "outputs": [],
      "stateMutability": "nonpayable",
      "type": "function"
    },
    {
      "inputs": [
        {
          "internalType": "address",
          "name": "token",
          "type": "address"
        },
        {
          "internalType": "uint256",
          "name": "amt",
          "type": "uint256"
        }
      ],
      "name": "withdrawUnderlying",
      "outputs": [],
      "stateMutability": "nonpayable",
      "type": "function"
    },
    {
      "stateMutability": "payable",
      "type": "receive"
    }
  ],
  "transactionHash": "0x9e999ced6365ca5147e7d063ae1c2e7d2e7d88f45c815dcac4c65b65890233b8",
  "args": [
    "0xbf7c839DFf6e849C742b33c676B2BfAF11a6a36c",
    "0x78114ed51B179616Ea5F76913ebbCEad4625fc7E",
    "0x7aF326B6351C8A9b8fb8CD205CBe11d4Ac5FA836",
    "0x7aF326B6351C8A9b8fb8CD205CBe11d4Ac5FA836"
  ],
  "solcInputHash": "8a0427784efd2443060fa8bf9aaed67b",
  "bytecode": "0x6080604052601e600755601e60085560405162004b5738038062004b57833981016040819052620000309162000125565b60006200003c62000103565b600080546001600160a01b0319166001600160a01b0383169081178255604051929350917f8be0079c531659141344cd1fd0a4f28419497f9722a3daafe3b4186f6b6457e0908290a3506010805460ff19166001179055600380546001600160a01b039485166001600160a01b0319918216179091556002805493851661010002610100600160a81b031990941693909317909255600580549184169183169190911790556004805493909216928116929092179055600680549091163317905562000185565b3390565b80516001600160a01b03811681146200011f57600080fd5b92915050565b600080600080608085870312156200013b578384fd5b62000147868662000107565b935062000158866020870162000107565b925062000169866040870162000107565b91506200017a866060870162000107565b905092959194509250565b6149c280620001956000396000f3fe6080604052600436106102d55760003560e01c8063862d77ba11610179578063ac6f0cc8116100d6578063f3fef3a31161008a578063f7d5b2d911610064578063f7d5b2d914610755578063fbd2eb7c14610775578063fdb8725214610795576102dc565b8063f3fef3a3146106f5578063f46901ed14610715578063f7888aec14610735576102dc565b8063d7755b8b116100bb578063d7755b8b146106a0578063f2428621146106c0578063f2fde38b146106d5576102dc565b8063ac6f0cc814610660578063c0e863c314610680576102dc565b80639c5e52d51161012d578063a1b4d01111610112578063a1b4d01114610602578063a66eb9ac14610617578063a85c38ef1461062c576102dc565b80639c5e52d5146105c25780639c7ad7f4146105e2576102dc565b8063918f86741161015e578063918f86741461056d57806396ed28f91461058257806399117be9146105a2576102dc565b8063862d77ba146105385780638da5cb5b14610558576102dc565b806352e86d5b116102325780636d0b6a6c116101e65780637623cccb116101c05780637623cccb146104e15780637bea0d1c14610501578063803289fe14610523576102dc565b80636d0b6a6c14610499578063715018a6146104b957806375bca923146104ce576102dc565b8063597e1fb511610217578063597e1fb514610437578063613436bc14610459578063683b6d2914610479576102dc565b806352e86d5b14610402578063584c617e14610422576102dc565b806325c9e2761161028957806345e660711161026e57806345e66071146103b8578063514fcac7146103cd578063523439e6146103ed576102dc565b806325c9e276146103835780632c58870b14610398576102dc565b8063163de5e5116102ba578063163de5e5146103215780631cf60222146103435780631d20980a14610363576102dc565b8063017e7e58146102e157806306e5b11a1461030c576102dc565b366102dc57005b600080fd5b3480156102ed57600080fd5b506102f66107b5565b6040516103039190613faf565b60405180910390f35b61031f61031a366004613d3d565b6107c4565b005b34801561032d57600080fd5b5061033661089e565b6040516103039190614880565b34801561034f57600080fd5b5061033661035e366004613d12565b6108a4565b34801561036f57600080fd5b5061033661037e366004613e22565b6108d2565b34801561038f57600080fd5b506102f66108eb565b3480156103a457600080fd5b506103366103b3366004613e22565b6108fa565b3480156103c457600080fd5b506102f661090c565b3480156103d957600080fd5b5061031f6103e8366004613e22565b61091b565b3480156103f957600080fd5b50610336610d6f565b34801561040e57600080fd5b5061033661041d366004613e52565b610d75565b34801561042e57600080fd5b50610336610d8e565b34801561044357600080fd5b5061044c610d94565b6040516103039190614178565b34801561046557600080fd5b50610336610474366004613e22565b610d9d565b34801561048557600080fd5b5061031f610494366004613cd2565b610da3565b3480156104a557600080fd5b506103366104b4366004613e52565b610e79565b3480156104c557600080fd5b5061031f610e97565b6103366104dc366004613c6e565b610f20565b3480156104ed57600080fd5b5061044c6104fc366004613e22565b61187d565b34801561050d57600080fd5b506105166118a4565b60405161030391906140ce565b34801561052f57600080fd5b5061031f611a7a565b34801561054457600080fd5b50610336610553366004613e52565b611ac5565b34801561056457600080fd5b506102f6611adf565b34801561057957600080fd5b50610336611aee565b34801561058e57600080fd5b5061033661059d366004613c36565b611af4565b3480156105ae57600080fd5b506103366105bd366004613e22565b611b17565b3480156105ce57600080fd5b506103366105dd366004613bfe565b611be0565b3480156105ee57600080fd5b5061031f6105fd366004613cd2565b611bf2565b34801561060e57600080fd5b506102f6611c92565b34801561062357600080fd5b5061031f611ca1565b34801561063857600080fd5b5061064c610647366004613e22565b611cef565b6040516103039897969594939291906148e5565b34801561066c57600080fd5b5061033661067b366004613e22565b611da8565b34801561068c57600080fd5b5061031f61069b366004613d12565b611e67565b3480156106ac57600080fd5b506103366106bb366004613e52565b611ec2565b3480156106cc57600080fd5b506102f6611ec9565b3480156106e157600080fd5b5061031f6106f0366004613bfe565b611edd565b34801561070157600080fd5b5061031f610710366004613d12565b611f9d565b34801561072157600080fd5b5061031f610730366004613bfe565b61201c565b34801561074157600080fd5b50610336610750366004613c36565b61207d565b610768610763366004613e73565b61209a565b6040516103039190614819565b34801561078157600080fd5b50610336610790366004613d12565b6125ec565b3480156107a157600080fd5b5061031f6107b0366004613d12565b612605565b6006546001600160a01b031681565b60025460ff16156107f05760405162461bcd60e51b81526004016107e790614672565b60405180910390fd5b60105460ff166108125760405162461bcd60e51b81526004016107e7906147e2565b6010805460ff19169055855187511461083d5760405162461bcd60e51b81526004016107e790614426565b60005b87518110156108875761087e88828151811061085857fe5b602002602001015188838151811061086c57fe5b6020026020010151888888888861209a565b50600101610840565b50506010805460ff19166001179055505050505050565b60015481565b600d60205281600052604060002081815481106108bd57fe5b90600052602060002001600091509150505481565b6fffffffffffffffffffffffffffffffff81165b919050565b6004546001600160a01b031681565b60096020526000908152604090205481565b6005546001600160a01b031681565b60105460ff1661093d5760405162461bcd60e51b81526004016107e7906147e2565b6010805460ff191690556000818152600c6020526040812060048101549091906109669061187d565b905080156109c057610976611adf565b6001600160a01b0316336001600160a01b0316148061099f57506005546001600160a01b031633145b6109bb5760405162461bcd60e51b81526004016107e79061463b565b610a0f565b6109c8611adf565b6001600160a01b0316336001600160a01b031614806109f3575060058201546001600160a01b031633145b610a0f5760405162461bcd60e51b81526004016107e790614502565b610a1c8260040154612694565b15610a395760405162461bcd60e51b81526004016107e790614539565b60078201546009830154600d840154600c8501546001600160a01b039384169390921691600091610a6a919061269c565b9050816001600160a01b0316836001600160a01b031614610aac578015610aa7576005850154610aa790849084906001600160a01b0316846126de565b610ac6565b6005850154610ac69084906001600160a01b031683612842565b83610b6857600a85015460088601546001600160a01b039182166000818152600b6020908152604080832060068c0154871684529091529020549092909116908015610b6057816001600160a01b0316836001600160a01b03161415610b45576006880154610b40906001600160a01b031684838061293e565b610b60565b6006880154610b60906001600160a01b031683858480612985565b505050610bff565b6005546006860154600887015460078801546040517fb7d9d9d40000000000000000000000000000000000000000000000000000000081526001600160a01b039485169463b7d9d9d494610bcc94908216938993918316921690889060040161402a565b600060405180830381600087803b158015610be657600080fd5b505af1158015610bfa573d6000803e3d6000fd5b505050505b600485018054600190811791829055604080516101008082018352895482529289015460208083019190915260028a01548284015260038a015460608084019190915260808084019690965260058b01546001600160a01b0390811660a08086019190915260068d0154821660c08087019190915286516101208101885260078f01548416815260088f015484169581019590955260098e0154831696850196909652600a8d015490911691830191909152600b8b015495820195909552600c8a015494810194909452600d89015491840191909152600e88015460e084810191909152600f8901549284019290925290810191909152610cff906129c1565b6008850154600786015460058701546040516001600160a01b039384169392831692909116907fa263a8e516fa313745abfe43252b015249ad3c987ae268d37531ce67364d7acf90610d52908b90614880565b60405180910390a450506010805460ff1916600117905550505050565b60075481565b600f60205281600052604060002081815481106108bd57fe5b60085481565b60025460ff1681565b60801c90565b610dab612d22565b6001600160a01b0316610dbc611adf565b6001600160a01b031614610de25760405162461bcd60e51b81526004016107e7906143f1565b6000610dee8484612d26565b6040517f24637ce0000000000000000000000000000000000000000000000000000000008152909150739738Cd280C42f219539d1EA4C99093d460Ef46b8906324637ce090610e439084908690600401614889565b60006040518083038186803b158015610e5b57600080fd5b505af4158015610e6f573d6000803e3d6000fd5b5050505050505050565b6000610e8482610d9d565b610e8d846108d2565b1790505b92915050565b610e9f612d22565b6001600160a01b0316610eb0611adf565b6001600160a01b031614610ed65760405162461bcd60e51b81526004016107e7906143f1565b600080546040516001600160a01b03909116907f8be0079c531659141344cd1fd0a4f28419497f9722a3daafe3b4186f6b6457e0908390a3600080546001600160a01b0319169055565b60025460009060ff1615610f465760405162461bcd60e51b81526004016107e790614672565b60105460ff16610f685760405162461bcd60e51b81526004016107e7906147e2565b6010805460ff191690556001600160a01b038781169087161415610f9e5760405162461bcd60e51b81526004016107e7906146e0565b6001600160a01b038716610fd15783341015610fcc5760405162461bcd60e51b81526004016107e790614494565b610fdd565b610fdd87333087612d65565b6001600160a01b0387166000908152600a602052604090205484116110145760405162461bcd60e51b81526004016107e790614570565b50600180548082019091556000818152600c602052604090208181556005810180546001600160a01b031916331790556001600160a01b03861615611059578561105b565b335b6006820180546001600160a01b0319166001600160a01b0392909216919091179055426003820155600481018390556000600d820181905561109c89612e6b565b6007830180546001600160a01b03808d166001600160a01b03199283168117909355600986018054918516919092168117909155600b8501899055919250146114b0576001600160a01b038916611270576003546040516370a0823160e01b81526000916001600160a01b0316906370a082319061111e903090600401613faf565b60206040518083038186803b15801561113657600080fd5b505afa15801561114a573d6000803e3d6000fd5b505050506040513d601f19601f8201168201806040525081019061116e9190613e3a565b9050600360009054906101000a90046001600160a01b03166001600160a01b0316631249c58b346040518263ffffffff1660e01b81526004016000604051808303818588803b1580156111c057600080fd5b505af11580156111d4573d6000803e3d6000fd5b50506003546040516370a0823160e01b815261126594508593506001600160a01b0390911691506370a082319061120f903090600401613faf565b60206040518083038186803b15801561122757600080fd5b505afa15801561123b573d6000803e3d6000fd5b505050506040513d601f19601f8201168201806040525081019061125f9190613e3a565b9061269c565b600c840155506114ab565b6040516370a0823160e01b81526000906001600160a01b038316906370a082319061129f903090600401613faf565b60206040518083038186803b1580156112b757600080fd5b505afa1580156112cb573d6000803e3d6000fd5b505050506040513d601f19601f820116820180604052508101906112ef9190613e3a565b60405163095ea7b360e01b81529091506001600160a01b038b169063095ea7b3906113209085908b906004016140b5565b602060405180830381600087803b15801561133a57600080fd5b505af115801561134e573d6000803e3d6000fd5b505050506040513d601f19601f820116820180604052508101906113729190613e06565b5060405163140e25ad60e31b81526001600160a01b0383169063a0712d689061139f908a90600401614880565b602060405180830381600087803b1580156113b957600080fd5b505af11580156113cd573d6000803e3d6000fd5b505050506040513d601f19601f820116820180604052508101906113f19190613e3a565b5060405163095ea7b360e01b81526001600160a01b0383169063095ea7b3906114219085906000906004016140b5565b602060405180830381600087803b15801561143b57600080fd5b505af115801561144f573d6000803e3d6000fd5b505050506040513d601f19601f820116820180604052508101906114739190613e06565b506114a481836001600160a01b03166370a08231306040518263ffffffff1660e01b815260040161120f9190613faf565b600c840155505b6114b8565b600c82018690555b6008820180546001600160a01b0319166001600160a01b038a1617905560006114e089612e6b565b600a840180546001600160a01b038084166001600160a01b03199092168217909255600e86018990559192508b811684821614908b16909114146115365760405162461bcd60e51b81526004016107e790614717565b6005546001600160a01b03163314156115f7576115528561187d565b61156e5760405162461bcd60e51b81526004016107e7906146a9565b896001600160a01b0316826001600160a01b03161461159f5760405162461bcd60e51b81526004016107e79061435d565b6001600160a01b0388163314156115c85760405162461bcd60e51b81526004016107e790614326565b600a8301546001600160a01b038a81169116146115f75760405162461bcd60e51b81526004016107e7906142b8565b6116018282613097565b6002840155604051636eb1769f60e11b81527f7fffffffffffffffffffffffffffffffffffffffffffffffffffffffffffffff906001600160a01b0383169063dd62ed3e906116569030908690600401613fc3565b60206040518083038186803b15801561166e57600080fd5b505afa158015611682573d6000803e3d6000fd5b505050506040513d601f19601f820116820180604052508101906116a69190613e3a565b10156117305760405163095ea7b360e01b81526001600160a01b0382169063095ea7b3906116dc908490600019906004016140b5565b602060405180830381600087803b1580156116f657600080fd5b505af115801561170a573d6000803e3d6000fd5b505050506040513d601f19601f8201168201806040525081019061172e9190613e06565b505b604051636eb1769f60e11b81527f7fffffffffffffffffffffffffffffffffffffffffffffffffffffffffffffff906001600160a01b0384169063dd62ed3e906117809030908790600401613fc3565b60206040518083038186803b15801561179857600080fd5b505afa1580156117ac573d6000803e3d6000fd5b505050506040513d601f19601f820116820180604052508101906117d09190613e3a565b101561185a5760405163095ea7b360e01b81526001600160a01b0383169063095ea7b390611806908490600019906004016140b5565b602060405180830381600087803b15801561182057600080fd5b505af1158015611834573d6000803e3d6000fd5b505050506040513d601f19601f820116820180604052508101906118589190613e06565b505b611863836130cb565b50506010805460ff19166001179055509695505050505050565b7f800000000000000000000000000000000000000000000000000000000000000016151590565b606060008060005b6001548110156118e5576000818152600c60205260409020600401546118d181612694565b6118dc576001909301925b506001016118ac565b508167ffffffffffffffff811180156118fd57600080fd5b5060405190808252806020026020018201604052801561193757816020015b611924613a0a565b81526020019060019003908161191c5790505b50925060005b600154811015611a745761194f613a0a565b506000818152600c6020818152604092839020835161010080820186528254825260018301548285015260028301548287015260038301546060808401919091526004840154608080850191825260058601546001600160a01b0390811660a0808801919091526006880154821660c0808901919091528b5161012081018d5260078a01548416815260088a015484169a81019a909a52600989015483169b8a019b909b52600a88015490911693880193909352600b860154908701529584015490850152600d83015495840195909552600e82015460e084810191909152600f909201549483019490945283015251611a4890612694565b611a6b5780858481518110611a5957fe5b60209081029190910101526001909201915b5060010161193d565b50505090565b611a82612d22565b6001600160a01b0316611a93611adf565b6001600160a01b031614611ab95760405162461bcd60e51b81526004016107e7906143f1565b6002805460ff19169055565b6fffffffffffffffffffffffffffffffff19919091161790565b6000546001600160a01b031690565b61271081565b6000611b10611b0284613204565b611b0b84613204565b613097565b9392505050565b60008181526009602052604080822090517f652bccd30000000000000000000000000000000000000000000000000000000081528291739738Cd280C42f219539d1EA4C99093d460Ef46b89163652bccd391611b7591600401614880565b60206040518083038186803b158015611b8d57600080fd5b505af4158015611ba1573d6000803e3d6000fd5b505050506040513d601f19601f82011682018060405250810190611bc59190613e3a565b905080611bd65750506007546108e6565b6000190192915050565b600a6020526000908152604090205481565b611bfa612d22565b6001600160a01b0316611c0b611adf565b6001600160a01b031614611c315760405162461bcd60e51b81526004016107e7906143f1565b6000611c3d8484612d26565b6040517f32b914bf000000000000000000000000000000000000000000000000000000008152909150739738Cd280C42f219539d1EA4C99093d460Ef46b8906332b914bf90610e439084908690600401614889565b6003546001600160a01b031681565b611ca9612d22565b6001600160a01b0316611cba611adf565b6001600160a01b031614611ce05760405162461bcd60e51b81526004016107e7906143f1565b6002805460ff19166001179055565b600c6020818152600092835260409283902080546001820154600283015460038401546004850154600586015460068701548a5161012081018c5260078901546001600160a01b03908116825260088a015481169a82019a909a5260098901548a169b81019b909b52600a880154891660608c0152600b88015460808c01529887015460a08b0152600d87015460c08b0152600e87015460e08b0152600f909601546101008a0152939792969195909481169291169088565b60008181526009602052604080822090517fa645cb6d0000000000000000000000000000000000000000000000000000000081528291739738Cd280C42f219539d1EA4C99093d460Ef46b89163a645cb6d91611e0691600401614880565b60206040518083038186803b158015611e1e57600080fd5b505af4158015611e32573d6000803e3d6000fd5b505050506040513d601f19601f82011682018060405250810190611e569190613e3a565b905080611bd65750506008546108e6565b611e6f612d22565b6001600160a01b0316611e80611adf565b6001600160a01b031614611ea65760405162461bcd60e51b81526004016107e7906143f1565b6001600160a01b039091166000908152600a6020526040902055565b60801b1790565b60025461010090046001600160a01b031681565b611ee5612d22565b6001600160a01b0316611ef6611adf565b6001600160a01b031614611f1c5760405162461bcd60e51b81526004016107e7906143f1565b6001600160a01b038116611f425760405162461bcd60e51b81526004016107e7906141ed565b600080546040516001600160a01b03808516939216917f8be0079c531659141344cd1fd0a4f28419497f9722a3daafe3b4186f6b6457e091a3600080546001600160a01b0319166001600160a01b0392909216919091179055565b6001600160a01b0382166000908152600b6020908152604080832033845290915290205480611fde5760405162461bcd60e51b81526004016107e79061445d565b81611feb5780915061200b565b8181101561200b5760405162461bcd60e51b81526004016107e79061474e565b6120173384838561293e565b505050565b612024612d22565b6001600160a01b0316612035611adf565b6001600160a01b03161461205b5760405162461bcd60e51b81526004016107e7906143f1565b600680546001600160a01b0319166001600160a01b0392909216919091179055565b600b60209081526000928352604080842090915290825290205481565b6120a2613a66565b60025460ff16156120c55760405162461bcd60e51b81526004016107e790614672565b60105460ff166120e75760405162461bcd60e51b81526004016107e7906147e2565b6010805460ff191690556000888152600c6020526040902060048101546001161561211257506125d4565b61211a613ab4565b50604080516101208101825260078301546001600160a01b0390811682526008840154811660208301526009840154811692820192909252600a83015482166060820152600b8301546080820152600c83015460a0820152600d83015460c0820152600e83015460e0820152600f83015461010082015290881661219c573397505b86151583526020830189905260c081015160a08201516000916121bf919061269c565b9050808a11156121ee57866121e65760405162461bcd60e51b81526004016107e790614604565b602084018190525b506121fe818484600201546132e0565b606081015160408201518815612227576122228360000151828c88608001516126de565b612236565b612236818b8760800151612842565b85156123a2576040516370a0823160e01b81526000906001600160a01b038416906370a082319061226b903090600401613faf565b60206040518083038186803b15801561228357600080fd5b505afa158015612297573d6000803e3d6000fd5b505050506040513d601f19601f820116820180604052508101906122bb9190613e3a565b608087015160e08801516040517f226dc8820000000000000000000000000000000000000000000000000000000081529293506001600160a01b038e169263226dc882926123119233928e908e90600401613fdd565b600060405180830381600087803b15801561232b57600080fd5b505af115801561233f573d6000803e3d6000fd5b50505050600061237582856001600160a01b03166370a08231306040518263ffffffff1660e01b815260040161120f9190613faf565b90508660e0015181101561239b5760405162461bcd60e51b81526004016107e790614281565b50506124fc565b88156124ec576000836020015190506123c2813330896101000151612d65565b61010086015160405163095ea7b360e01b81526001600160a01b0383169163095ea7b3916123f49187916004016140b5565b602060405180830381600087803b15801561240e57600080fd5b505af1158015612422573d6000803e3d6000fd5b505050506040513d601f19601f820116820180604052508101906124469190613e06565b5061010086015160405163140e25ad60e31b81526000916001600160a01b0386169163a0712d689161247a91600401614880565b602060405180830381600087803b15801561249457600080fd5b505af11580156124a8573d6000803e3d6000fd5b505050506040513d601f19601f820116820180604052508101906124cc9190613e3a565b9050801561239b5760405162461bcd60e51b81526004016107e7906142ef565b6124fc8233308860e00151612d65565b6040850151156125255760065460408601516125259183916001600160a01b0390911690612842565b60608501511561254e57600654606086015161254e9184916001600160a01b0390911690612842565b6125618486602001518760c00151613585565b336001600160a01b03168460050160009054906101000a90046001600160a01b03166001600160a01b03167fd00ede2e0292fd63d9ba8b4b572003009a04bcdf39cd75ac9684433d20de7ebf8e88602001518960e001516040516125c7939291906148b4565b60405180910390a3505050505b6010805460ff19166001179055979650505050505050565b600e60205281600052604060002081815481106108bd57fe5b600061261083613204565b6001600160a01b0381166000908152600b60209081526040808320338452909152902054909150806126545760405162461bcd60e51b81526004016107e79061445d565b8261266157809250612681565b828110156126815760405162461bcd60e51b81526004016107e79061474e565b61268e3385848487612985565b50505050565b600116151590565b6000611b1083836040518060400160405280601e81526020017f536166654d6174683a207375627472616374696f6e206f766572666c6f770000815250613879565b6040517fdb006a750000000000000000000000000000000000000000000000000000000081526000906001600160a01b0385169063db006a7590612726908590600401614880565b602060405180830381600087803b15801561274057600080fd5b505af1158015612754573d6000803e3d6000fd5b505050506040513d601f19601f820116820180604052508101906127789190613e3a565b905080156127985760405162461bcd60e51b81526004016107e7906144cb565b6001600160a01b0385166127b5576127b083476138a5565b61283b565b61283b8584876001600160a01b03166370a08231306040518263ffffffff1660e01b81526004016127e69190613faf565b60206040518083038186803b1580156127fe57600080fd5b505afa158015612812573d6000803e3d6000fd5b505050506040513d601f19601f820116820180604052508101906128369190613e3a565b612842565b5050505050565b60006060846001600160a01b031663a9059cbb85856040516024016128689291906140b5565b6040516020818303038152906040529060e01b6020820180517bffffffffffffffffffffffffffffffffffffffffffffffffffffffff83818316178352505050506040516128b69190613f93565b6000604051808303816000865af19150503d80600081146128f3576040519150601f19603f3d011682016040523d82523d6000602084013e6128f8565b606091505b50915091508180156129225750805115806129225750808060200190518101906129229190613e06565b61283b5760405162461bcd60e51b81526004016107e7906141b6565b612949838583612842565b612953828261269c565b6001600160a01b039384166000908152600b602090815260408083209790961682529590955292909320919091555050565b61298f828261269c565b6001600160a01b038085166000908152600b60209081526040808320938a168352929052205561283b848487846126de565b60006129d082602001516108d2565b905060006129e18360200151610d9d565b905060008360a0015190506000806129fc866080015161187d565b90508015612b105760c08601516001600160a01b0381166000908152600d602052604090205490935060001901848114612ad3576001600160a01b0384166000908152600d60205260409020805482908110612a5457fe5b9060005260206000200154925082600d6000866001600160a01b03166001600160a01b031681526020019081526020016000208681548110612a9257fe5b9060005260206000200181905550612ac0600c60008581526020019081526020016000206001015486610e79565b6000848152600c60205260409020600101555b6001600160a01b0384166000908152600d60205260409020805480612af457fe5b6001900381819060005260206000200160009055905550612c10565b6001600160a01b0383166000908152600e602052604090205460001901848114612bd7576001600160a01b0384166000908152600e60205260409020805482908110612b5857fe5b9060005260206000200154925082600e6000866001600160a01b03166001600160a01b031681526020019081526020016000208681548110612b9657fe5b9060005260206000200181905550612bc4600c60008581526020019081526020016000206001015486610e79565b6000848152600c60205260409020600101555b6001600160a01b0384166000908152600e60205260409020805480612bf857fe5b60019003818190600052602060002001600090559055505b6040808701516000908152600f60205220546001108015612c4657506040808701516000908152600f6020522054600019018514155b15612cea57604080870180516000908152600f6020528281209151815291909120548154600019909101908110612c7957fe5b9060005260206000200154915081600f6000886040015181526020019081526020016000208681548110612ca957fe5b9060005260206000200181905550612cd7600c60008481526020019081526020016000206001015486611ac5565b6000838152600c60205260409020600101555b6040808701516000908152600f60205220805480612d0457fe5b60019003818190600052602060002001600090559055505050505050565b3390565b600080612d3284613204565b90506000612d3f84613204565b90506000612d4d8383613097565b60009081526009602052604090209695505050505050565b60006060856001600160a01b03166323b872dd868686604051602401612d8d93929190614091565b6040516020818303038152906040529060e01b6020820180517bffffffffffffffffffffffffffffffffffffffffffffffffffffffff8381831617835250505050604051612ddb9190613f93565b6000604051808303816000865af19150503d8060008114612e18576040519150601f19603f3d011682016040523d82523d6000602084013e612e1d565b606091505b5091509150818015612e47575080511580612e47575080806020019051810190612e479190613e06565b612e635760405162461bcd60e51b81526004016107e790614785565b505050505050565b60006001600160a01b0382161580612e9557506002546001600160a01b0383811661010090920416145b15612eac57506003546001600160a01b03166108e6565b6004805460405163714bca1f60e11b81526000926001600160a01b039092169163e297943e91612ede91879101613faf565b60206040518083038186803b158015612ef657600080fd5b505afa158015612f0a573d6000803e3d6000fd5b505050506040513d601f19601f82011682018060405250810190612f2e9190613c1a565b90506001600160a01b038116610e9157600480546040517fb8d7b6690000000000000000000000000000000000000000000000000000000081526000926001600160a01b039092169163b8d7b66991612f8991889101613faf565b60206040518083038186803b158015612fa157600080fd5b505afa158015612fb5573d6000803e3d6000fd5b505050506040513d601f19601f82011682018060405250810190612fd99190613c1a565b90506001600160a01b03811615612ff45783925050506108e6565b600480546040517f26c7bd930000000000000000000000000000000000000000000000000000000081526001600160a01b03909116916326c7bd939161303c91889101613faf565b602060405180830381600087803b15801561305657600080fd5b505af115801561306a573d6000803e3d6000fd5b505050506040513d601f19601f8201168201806040525081019061308e9190613c1a565b925050506108e6565b600082826040516020016130ac929190613f6c565b60408051601f1981840301815291905280516020909101209392505050565b8054600482015460006130dd8261187d565b600585015490915060009081906001600160a01b03168315613131575060068601546001600160a01b03166000818152600d6020908152604082208054600181018255908352912081018790559250613160565b6001600160a01b0381166000908152600e60209081526040822080546001810182559083529120810187905592505b60028701546000908152600f60209081526040822080546001810182559083529120810187905591506131938284611ec2565b600188015560088701546007880154600b890154600e8a01546040516001600160a01b0394851694938416938616927fc8419e5c94126588374d91d4332ef5d56223abb9c42776b667e899ccff2c5f27926131f3928d9291908d906148ca565b60405180910390a450505050505050565b60006001600160a01b038216158061322e57506002546001600160a01b0383811661010090920416145b1561324557506003546001600160a01b03166108e6565b6004805460405163714bca1f60e11b81526000926001600160a01b039092169163e297943e9161327791879101613faf565b60206040518083038186803b15801561328f57600080fd5b505afa1580156132a3573d6000803e3d6000fd5b505050506040513d601f19601f820116820180604052508101906132c79190613c1a565b90506001600160a01b038116610e9157829150506108e6565b60208201516040517f78cbe051000000000000000000000000000000000000000000000000000000008152731C5a96eB220d007D749Bf31168f6dA2Fd0e00A3c906378cbe051906133379087908590600401614897565b60206040518083038186803b15801561334f57600080fd5b505af4158015613363573d6000803e3d6000fd5b505050506040513d601f19601f820116820180604052508101906133879190613e3a565b60e08401526133ab6127106133a561339e85611da8565b8490613932565b9061396c565b60408401526133c26127106133a561339e85611b17565b606084015260408301516133d790829061269c565b6080840152606083015160e08401516133ef9161269c565b60c084015282511561268e5760408085015190517f0bbc1cea000000000000000000000000000000000000000000000000000000008152600091731C5a96eB220d007D749Bf31168f6dA2Fd0e00A3c91630bbc1cea9161345191600401613faf565b60206040518083038186803b15801561346957600080fd5b505af415801561347d573d6000803e3d6000fd5b505050506040513d601f19601f820116820180604052508101906134a19190613e3a565b90506000731C5a96eB220d007D749Bf31168f6dA2Fd0e00A3c630bbc1cea87606001516040518263ffffffff1660e01b81526004016134e09190613faf565b60206040518083038186803b1580156134f857600080fd5b505af415801561350c573d6000803e3d6000fd5b505050506040513d601f19601f820116820180604052508101906135309190613e3a565b9050613555670de0b6b3a76400006133a584886080015161393290919063ffffffff16565b60a086015260e085015161357790670de0b6b3a7640000906133a59084613932565b610100860152505050505050565b60068301546009840154600a85015460048601546001600160a01b039384169392831692909116906135b69061187d565b1561365b576005546135d39082906001600160a01b031686612842565b6005546040517f1889ae210000000000000000000000000000000000000000000000000000000081526001600160a01b0390911690631889ae2190613624908690869086908a908c9060040161405d565b600060405180830381600087803b15801561363e57600080fd5b505af1158015613652573d6000803e3d6000fd5b50505050613687565b6001600160a01b038082166000908152600b602090815260408083209387168352929052208054850190555b600d86015461369690866139ae565b600d870155600f8601546136aa90856139ae565b600f870155600c860154600d87015410612e635760018660040160008282541792505081905550612e63866040518061010001604052908160008201548152602001600182015481526020016002820154815260200160038201548152602001600482015481526020016005820160009054906101000a90046001600160a01b03166001600160a01b03166001600160a01b031681526020016006820160009054906101000a90046001600160a01b03166001600160a01b03166001600160a01b0316815260200160078201604051806101200160405290816000820160009054906101000a90046001600160a01b03166001600160a01b03166001600160a01b031681526020016001820160009054906101000a90046001600160a01b03166001600160a01b03166001600160a01b031681526020016002820160009054906101000a90046001600160a01b03166001600160a01b03166001600160a01b031681526020016003820160009054906101000a90046001600160a01b03166001600160a01b03166001600160a01b0316815260200160048201548152602001600582015481526020016006820154815260200160078201548152602001600882015481525050815250506129c1565b6000818484111561389d5760405162461bcd60e51b81526004016107e79190614183565b505050900390565b604080516000808252602082019092526001600160a01b0384169083906040516138cf9190613f93565b60006040518083038185875af1925050503d806000811461390c576040519150601f19603f3d011682016040523d82523d6000602084013e613911565b606091505b50509050806120175760405162461bcd60e51b81526004016107e7906145a7565b60008261394157506000610e91565b8282028284828161394e57fe5b0414611b105760405162461bcd60e51b81526004016107e790614394565b6000611b1083836040518060400160405280601a81526020017f536166654d6174683a206469766973696f6e206279207a65726f0000000000008152506139d3565b600082820183811015611b105760405162461bcd60e51b81526004016107e79061424a565b600081836139f45760405162461bcd60e51b81526004016107e79190614183565b506000838581613a0057fe5b0495945050505050565b604051806101000160405280600081526020016000815260200160008152602001600081526020016000815260200160006001600160a01b0316815260200160006001600160a01b03168152602001613a61613ab4565b905290565b60405180610120016040528060001515815260200160008152602001600081526020016000815260200160008152602001600081526020016000815260200160008152602001600081525090565b60405180610120016040528060006001600160a01b0316815260200160006001600160a01b0316815260200160006001600160a01b0316815260200160006001600160a01b0316815260200160008152602001600081526020016000815260200160008152602001600081525090565b600082601f830112613b34578081fd5b813567ffffffffffffffff80821115613b4b578283fd5b602080830260405182828201018181108582111715613b68578687fd5b604052848152945081850192508582018187018301881015613b8957600080fd5b600091505b84821015613bac578035845292820192600191909101908201613b8e565b505050505092915050565b60008083601f840112613bc8578182fd5b50813567ffffffffffffffff811115613bdf578182fd5b602083019150836020828501011115613bf757600080fd5b9250929050565b600060208284031215613c0f578081fd5b8135611b1081614966565b600060208284031215613c2b578081fd5b8151611b1081614966565b60008060408385031215613c48578081fd5b8235613c5381614966565b91506020830135613c6381614966565b809150509250929050565b60008060008060008060c08789031215613c86578182fd5b8635613c9181614966565b95506020870135613ca181614966565b94506040870135613cb181614966565b959894975094956060810135955060808101359460a0909101359350915050565b600080600060608486031215613ce6578283fd5b8335613cf181614966565b92506020840135613d0181614966565b929592945050506040919091013590565b60008060408385031215613d24578182fd5b8235613d2f81614966565b946020939093013593505050565b600080600080600080600060c0888a031215613d57578081fd5b873567ffffffffffffffff80821115613d6e578283fd5b613d7a8b838c01613b24565b985060208a0135915080821115613d8f578283fd5b613d9b8b838c01613b24565b975060408a01359150613dad82614966565b909550606089013590613dbf8261497e565b909450608089013590613dd18261497e565b90935060a08901359080821115613de6578283fd5b50613df38a828b01613bb7565b989b979a50959850939692959293505050565b600060208284031215613e17578081fd5b8151611b108161497e565b600060208284031215613e33578081fd5b5035919050565b600060208284031215613e4b578081fd5b5051919050565b60008060408385031215613e64578182fd5b50508035926020909101359150565b600080600080600080600060c0888a031215613e8d578283fd5b87359650602088013595506040880135613ea681614966565b94506060880135613eb68161497e565b93506080880135613ec68161497e565b925060a088013567ffffffffffffffff811115613ee1578283fd5b613df38a828b01613bb7565b6001600160a01b03169052565b6001600160a01b03808251168352806020830151166020840152806040830151166040840152506060810151613f336060840182613eed565b506080810151608083015260a081015160a083015260c081015160c083015260e081015160e08301526101008082015181840152505050565b6bffffffffffffffffffffffff19606093841b811682529190921b16601482015260280190565b60008251613fa581846020870161493a565b9190910192915050565b6001600160a01b0391909116815260200190565b6001600160a01b0392831681529116602082015260400190565b60006001600160a01b038716825285602083015284604083015260806060830152826080830152828460a084013781830160a090810191909152601f909201601f19160101949350505050565b6001600160a01b039586168152938516602085015291841660408401529092166060820152608081019190915260a00190565b6001600160a01b03958616815293851660208501529190931660408301526060820192909252608081019190915260a00190565b6001600160a01b039384168152919092166020820152604081019190915260600190565b6001600160a01b03929092168252602082015260400190565b602080825282518282018190526000919060409081850190868401855b8281101561416b5781518051855286810151878601528581015186860152606080820151908601526080808201519086015260a0808201516001600160a01b039081169187019190915260c0808301519091169086015260e0908101519061415581870183613efa565b50506102009390930192908501906001016140eb565b5091979650505050505050565b901515815260200190565b60006020825282518060208401526141a281604085016020870161493a565b601f01601f19169190910160400192915050565b6020808252601f908201527f5472616e7366657248656c7065723a205452414e534645525f4641494c454400604082015260600190565b60208082526026908201527f4f776e61626c653a206e6577206f776e657220697320746865207a65726f206160408201527f6464726573730000000000000000000000000000000000000000000000000000606082015260800190565b6020808252601b908201527f536166654d6174683a206164646974696f6e206f766572666c6f770000000000604082015260600190565b6020808252600a908201527f6e6f7420656e6f75676800000000000000000000000000000000000000000000604082015260600190565b60208082526015908201527f646573742073686f756c642062652065746f6b656e0000000000000000000000604082015260600190565b6020808252600b908201527f6d696e74206661696c6564000000000000000000000000000000000000000000604082015260600190565b6020808252601b908201527f746f2073686f756c642062652075736572277320616464726573730000000000604082015260600190565b60208082526014908201527f7372632073686f756c642062652065746f6b656e000000000000000000000000604082015260600190565b60208082526021908201527f536166654d6174683a206d756c7469706c69636174696f6e206f766572666c6f60408201527f7700000000000000000000000000000000000000000000000000000000000000606082015260800190565b6020808252818101527f4f776e61626c653a2063616c6c6572206973206e6f7420746865206f776e6572604082015260600190565b6020808252600d908201527f696e76616c696420706172616d00000000000000000000000000000000000000604082015260600190565b60208082526008908201527f6e6f206173736574000000000000000000000000000000000000000000000000604082015260600190565b60208082526013908201527f6e6f7420656e6f75676820616d6f756e74496e00000000000000000000000000604082015260600190565b6020808252600d908201527f72656465656d206661696c656400000000000000000000000000000000000000604082015260600190565b60208082526014908201527f63616e63656c4f726465723a206e6f2061757468000000000000000000000000604082015260600190565b60208082526015908201527f6f7264657220686173206265656e20636c6f7365640000000000000000000000604082015260600190565b60208082526014908201527f6c657373207468616e206d696e20616d6f756e74000000000000000000000000604082015260600190565b60208082526023908201527f5472616e7366657248656c7065723a204554485f5452414e534645525f46414960408201527f4c45440000000000000000000000000000000000000000000000000000000000606082015260800190565b60208082526014908201527f6e6f7420656e6f75676820746f2066756c66696c000000000000000000000000604082015260600190565b6020808252601a908201527f63616e63656c4d617267696e4f726465723a206e6f2061757468000000000000604082015260600190565b60208082526011908201527f6f7264657220626f6f6b20636c6f736564000000000000000000000000000000604082015260600190565b60208082526015908201527f666c61672073686f756c64206265206d617267696e0000000000000000000000604082015260600190565b6020808252600f908201527f6964656e746963616c20746f6b656e0000000000000000000000000000000000604082015260600190565b60208082526014908201527f626f746820746f6b656e206f722065746f6b656e000000000000000000000000604082015260600190565b60208082526010908201527f6e6f7420656e6f75676820617373657400000000000000000000000000000000604082015260600190565b60208082526024908201527f5472616e7366657248656c7065723a205452414e534645525f46524f4d5f464160408201527f494c454400000000000000000000000000000000000000000000000000000000606082015260800190565b6020808252601f908201527f5265656e7472616e637947756172643a207265656e7472616e742063616c6c00604082015260600190565b6000610120820190508251151582526020830151602083015260408301516040830152606083015160608301526080830151608083015260a083015160a083015260c083015160c083015260e083015160e083015261010080840151818401525092915050565b90815260200190565b918252602082015260400190565b61014081016148a68285613efa565b826101208301529392505050565b9283526020830191909152604082015260600190565b93845260208401929092526040830152606082015260800190565b888152602081018890526040810187905260608101869052608081018590526001600160a01b0384811660a0830152831660c0820152610200810161492d60e0830184613efa565b9998505050505050505050565b60005b8381101561495557818101518382015260200161493d565b8381111561268e5750506000910152565b6001600160a01b038116811461497b57600080fd5b50565b801515811461497b57600080fdfea26469706673582212206d974e9118afc8d60b0759debbfe8861c441cd063a056f384c5b872de9aecc1264736f6c634300060c0033",
  "deployedBytecode": "0x6080604052600436106102d55760003560e01c8063862d77ba11610179578063ac6f0cc8116100d6578063f3fef3a31161008a578063f7d5b2d911610064578063f7d5b2d914610755578063fbd2eb7c14610775578063fdb8725214610795576102dc565b8063f3fef3a3146106f5578063f46901ed14610715578063f7888aec14610735576102dc565b8063d7755b8b116100bb578063d7755b8b146106a0578063f2428621146106c0578063f2fde38b146106d5576102dc565b8063ac6f0cc814610660578063c0e863c314610680576102dc565b80639c5e52d51161012d578063a1b4d01111610112578063a1b4d01114610602578063a66eb9ac14610617578063a85c38ef1461062c576102dc565b80639c5e52d5146105c25780639c7ad7f4146105e2576102dc565b8063918f86741161015e578063918f86741461056d57806396ed28f91461058257806399117be9146105a2576102dc565b8063862d77ba146105385780638da5cb5b14610558576102dc565b806352e86d5b116102325780636d0b6a6c116101e65780637623cccb116101c05780637623cccb146104e15780637bea0d1c14610501578063803289fe14610523576102dc565b80636d0b6a6c14610499578063715018a6146104b957806375bca923146104ce576102dc565b8063597e1fb511610217578063597e1fb514610437578063613436bc14610459578063683b6d2914610479576102dc565b806352e86d5b14610402578063584c617e14610422576102dc565b806325c9e2761161028957806345e660711161026e57806345e66071146103b8578063514fcac7146103cd578063523439e6146103ed576102dc565b806325c9e276146103835780632c58870b14610398576102dc565b8063163de5e5116102ba578063163de5e5146103215780631cf60222146103435780631d20980a14610363576102dc565b8063017e7e58146102e157806306e5b11a1461030c576102dc565b366102dc57005b600080fd5b3480156102ed57600080fd5b506102f66107b5565b6040516103039190613faf565b60405180910390f35b61031f61031a366004613d3d565b6107c4565b005b34801561032d57600080fd5b5061033661089e565b6040516103039190614880565b34801561034f57600080fd5b5061033661035e366004613d12565b6108a4565b34801561036f57600080fd5b5061033661037e366004613e22565b6108d2565b34801561038f57600080fd5b506102f66108eb565b3480156103a457600080fd5b506103366103b3366004613e22565b6108fa565b3480156103c457600080fd5b506102f661090c565b3480156103d957600080fd5b5061031f6103e8366004613e22565b61091b565b3480156103f957600080fd5b50610336610d6f565b34801561040e57600080fd5b5061033661041d366004613e52565b610d75565b34801561042e57600080fd5b50610336610d8e565b34801561044357600080fd5b5061044c610d94565b6040516103039190614178565b34801561046557600080fd5b50610336610474366004613e22565b610d9d565b34801561048557600080fd5b5061031f610494366004613cd2565b610da3565b3480156104a557600080fd5b506103366104b4366004613e52565b610e79565b3480156104c557600080fd5b5061031f610e97565b6103366104dc366004613c6e565b610f20565b3480156104ed57600080fd5b5061044c6104fc366004613e22565b61187d565b34801561050d57600080fd5b506105166118a4565b60405161030391906140ce565b34801561052f57600080fd5b5061031f611a7a565b34801561054457600080fd5b50610336610553366004613e52565b611ac5565b34801561056457600080fd5b506102f6611adf565b34801561057957600080fd5b50610336611aee565b34801561058e57600080fd5b5061033661059d366004613c36565b611af4565b3480156105ae57600080fd5b506103366105bd366004613e22565b611b17565b3480156105ce57600080fd5b506103366105dd366004613bfe565b611be0565b3480156105ee57600080fd5b5061031f6105fd366004613cd2565b611bf2565b34801561060e57600080fd5b506102f6611c92565b34801561062357600080fd5b5061031f611ca1565b34801561063857600080fd5b5061064c610647366004613e22565b611cef565b6040516103039897969594939291906148e5565b34801561066c57600080fd5b5061033661067b366004613e22565b611da8565b34801561068c57600080fd5b5061031f61069b366004613d12565b611e67565b3480156106ac57600080fd5b506103366106bb366004613e52565b611ec2565b3480156106cc57600080fd5b506102f6611ec9565b3480156106e157600080fd5b5061031f6106f0366004613bfe565b611edd565b34801561070157600080fd5b5061031f610710366004613d12565b611f9d565b34801561072157600080fd5b5061031f610730366004613bfe565b61201c565b34801561074157600080fd5b50610336610750366004613c36565b61207d565b610768610763366004613e73565b61209a565b6040516103039190614819565b34801561078157600080fd5b50610336610790366004613d12565b6125ec565b3480156107a157600080fd5b5061031f6107b0366004613d12565b612605565b6006546001600160a01b031681565b60025460ff16156107f05760405162461bcd60e51b81526004016107e790614672565b60405180910390fd5b60105460ff166108125760405162461bcd60e51b81526004016107e7906147e2565b6010805460ff19169055855187511461083d5760405162461bcd60e51b81526004016107e790614426565b60005b87518110156108875761087e88828151811061085857fe5b602002602001015188838151811061086c57fe5b6020026020010151888888888861209a565b50600101610840565b50506010805460ff19166001179055505050505050565b60015481565b600d60205281600052604060002081815481106108bd57fe5b90600052602060002001600091509150505481565b6fffffffffffffffffffffffffffffffff81165b919050565b6004546001600160a01b031681565b60096020526000908152604090205481565b6005546001600160a01b031681565b60105460ff1661093d5760405162461bcd60e51b81526004016107e7906147e2565b6010805460ff191690556000818152600c6020526040812060048101549091906109669061187d565b905080156109c057610976611adf565b6001600160a01b0316336001600160a01b0316148061099f57506005546001600160a01b031633145b6109bb5760405162461bcd60e51b81526004016107e79061463b565b610a0f565b6109c8611adf565b6001600160a01b0316336001600160a01b031614806109f3575060058201546001600160a01b031633145b610a0f5760405162461bcd60e51b81526004016107e790614502565b610a1c8260040154612694565b15610a395760405162461bcd60e51b81526004016107e790614539565b60078201546009830154600d840154600c8501546001600160a01b039384169390921691600091610a6a919061269c565b9050816001600160a01b0316836001600160a01b031614610aac578015610aa7576005850154610aa790849084906001600160a01b0316846126de565b610ac6565b6005850154610ac69084906001600160a01b031683612842565b83610b6857600a85015460088601546001600160a01b039182166000818152600b6020908152604080832060068c0154871684529091529020549092909116908015610b6057816001600160a01b0316836001600160a01b03161415610b45576006880154610b40906001600160a01b031684838061293e565b610b60565b6006880154610b60906001600160a01b031683858480612985565b505050610bff565b6005546006860154600887015460078801546040517fb7d9d9d40000000000000000000000000000000000000000000000000000000081526001600160a01b039485169463b7d9d9d494610bcc94908216938993918316921690889060040161402a565b600060405180830381600087803b158015610be657600080fd5b505af1158015610bfa573d6000803e3d6000fd5b505050505b600485018054600190811791829055604080516101008082018352895482529289015460208083019190915260028a01548284015260038a015460608084019190915260808084019690965260058b01546001600160a01b0390811660a08086019190915260068d0154821660c08087019190915286516101208101885260078f01548416815260088f015484169581019590955260098e0154831696850196909652600a8d015490911691830191909152600b8b015495820195909552600c8a015494810194909452600d89015491840191909152600e88015460e084810191909152600f8901549284019290925290810191909152610cff906129c1565b6008850154600786015460058701546040516001600160a01b039384169392831692909116907fa263a8e516fa313745abfe43252b015249ad3c987ae268d37531ce67364d7acf90610d52908b90614880565b60405180910390a450506010805460ff1916600117905550505050565b60075481565b600f60205281600052604060002081815481106108bd57fe5b60085481565b60025460ff1681565b60801c90565b610dab612d22565b6001600160a01b0316610dbc611adf565b6001600160a01b031614610de25760405162461bcd60e51b81526004016107e7906143f1565b6000610dee8484612d26565b6040517f24637ce000000000000000000000000000000000000000000000000000000000815290915073__$95c6f8e4159971276d72925c2dc3de45f7$__906324637ce090610e439084908690600401614889565b60006040518083038186803b158015610e5b57600080fd5b505af4158015610e6f573d6000803e3d6000fd5b5050505050505050565b6000610e8482610d9d565b610e8d846108d2565b1790505b92915050565b610e9f612d22565b6001600160a01b0316610eb0611adf565b6001600160a01b031614610ed65760405162461bcd60e51b81526004016107e7906143f1565b600080546040516001600160a01b03909116907f8be0079c531659141344cd1fd0a4f28419497f9722a3daafe3b4186f6b6457e0908390a3600080546001600160a01b0319169055565b60025460009060ff1615610f465760405162461bcd60e51b81526004016107e790614672565b60105460ff16610f685760405162461bcd60e51b81526004016107e7906147e2565b6010805460ff191690556001600160a01b038781169087161415610f9e5760405162461bcd60e51b81526004016107e7906146e0565b6001600160a01b038716610fd15783341015610fcc5760405162461bcd60e51b81526004016107e790614494565b610fdd565b610fdd87333087612d65565b6001600160a01b0387166000908152600a602052604090205484116110145760405162461bcd60e51b81526004016107e790614570565b50600180548082019091556000818152600c602052604090208181556005810180546001600160a01b031916331790556001600160a01b03861615611059578561105b565b335b6006820180546001600160a01b0319166001600160a01b0392909216919091179055426003820155600481018390556000600d820181905561109c89612e6b565b6007830180546001600160a01b03808d166001600160a01b03199283168117909355600986018054918516919092168117909155600b8501899055919250146114b0576001600160a01b038916611270576003546040516370a0823160e01b81526000916001600160a01b0316906370a082319061111e903090600401613faf565b60206040518083038186803b15801561113657600080fd5b505afa15801561114a573d6000803e3d6000fd5b505050506040513d601f19601f8201168201806040525081019061116e9190613e3a565b9050600360009054906101000a90046001600160a01b03166001600160a01b0316631249c58b346040518263ffffffff1660e01b81526004016000604051808303818588803b1580156111c057600080fd5b505af11580156111d4573d6000803e3d6000fd5b50506003546040516370a0823160e01b815261126594508593506001600160a01b0390911691506370a082319061120f903090600401613faf565b60206040518083038186803b15801561122757600080fd5b505afa15801561123b573d6000803e3d6000fd5b505050506040513d601f19601f8201168201806040525081019061125f9190613e3a565b9061269c565b600c840155506114ab565b6040516370a0823160e01b81526000906001600160a01b038316906370a082319061129f903090600401613faf565b60206040518083038186803b1580156112b757600080fd5b505afa1580156112cb573d6000803e3d6000fd5b505050506040513d601f19601f820116820180604052508101906112ef9190613e3a565b60405163095ea7b360e01b81529091506001600160a01b038b169063095ea7b3906113209085908b906004016140b5565b602060405180830381600087803b15801561133a57600080fd5b505af115801561134e573d6000803e3d6000fd5b505050506040513d601f19601f820116820180604052508101906113729190613e06565b5060405163140e25ad60e31b81526001600160a01b0383169063a0712d689061139f908a90600401614880565b602060405180830381600087803b1580156113b957600080fd5b505af11580156113cd573d6000803e3d6000fd5b505050506040513d601f19601f820116820180604052508101906113f19190613e3a565b5060405163095ea7b360e01b81526001600160a01b0383169063095ea7b3906114219085906000906004016140b5565b602060405180830381600087803b15801561143b57600080fd5b505af115801561144f573d6000803e3d6000fd5b505050506040513d601f19601f820116820180604052508101906114739190613e06565b506114a481836001600160a01b03166370a08231306040518263ffffffff1660e01b815260040161120f9190613faf565b600c840155505b6114b8565b600c82018690555b6008820180546001600160a01b0319166001600160a01b038a1617905560006114e089612e6b565b600a840180546001600160a01b038084166001600160a01b03199092168217909255600e86018990559192508b811684821614908b16909114146115365760405162461bcd60e51b81526004016107e790614717565b6005546001600160a01b03163314156115f7576115528561187d565b61156e5760405162461bcd60e51b81526004016107e7906146a9565b896001600160a01b0316826001600160a01b03161461159f5760405162461bcd60e51b81526004016107e79061435d565b6001600160a01b0388163314156115c85760405162461bcd60e51b81526004016107e790614326565b600a8301546001600160a01b038a81169116146115f75760405162461bcd60e51b81526004016107e7906142b8565b6116018282613097565b6002840155604051636eb1769f60e11b81527f7fffffffffffffffffffffffffffffffffffffffffffffffffffffffffffffff906001600160a01b0383169063dd62ed3e906116569030908690600401613fc3565b60206040518083038186803b15801561166e57600080fd5b505afa158015611682573d6000803e3d6000fd5b505050506040513d601f19601f820116820180604052508101906116a69190613e3a565b10156117305760405163095ea7b360e01b81526001600160a01b0382169063095ea7b3906116dc908490600019906004016140b5565b602060405180830381600087803b1580156116f657600080fd5b505af115801561170a573d6000803e3d6000fd5b505050506040513d601f19601f8201168201806040525081019061172e9190613e06565b505b604051636eb1769f60e11b81527f7fffffffffffffffffffffffffffffffffffffffffffffffffffffffffffffff906001600160a01b0384169063dd62ed3e906117809030908790600401613fc3565b60206040518083038186803b15801561179857600080fd5b505afa1580156117ac573d6000803e3d6000fd5b505050506040513d601f19601f820116820180604052508101906117d09190613e3a565b101561185a5760405163095ea7b360e01b81526001600160a01b0383169063095ea7b390611806908490600019906004016140b5565b602060405180830381600087803b15801561182057600080fd5b505af1158015611834573d6000803e3d6000fd5b505050506040513d601f19601f820116820180604052508101906118589190613e06565b505b611863836130cb565b50506010805460ff19166001179055509695505050505050565b7f800000000000000000000000000000000000000000000000000000000000000016151590565b606060008060005b6001548110156118e5576000818152600c60205260409020600401546118d181612694565b6118dc576001909301925b506001016118ac565b508167ffffffffffffffff811180156118fd57600080fd5b5060405190808252806020026020018201604052801561193757816020015b611924613a0a565b81526020019060019003908161191c5790505b50925060005b600154811015611a745761194f613a0a565b506000818152600c6020818152604092839020835161010080820186528254825260018301548285015260028301548287015260038301546060808401919091526004840154608080850191825260058601546001600160a01b0390811660a0808801919091526006880154821660c0808901919091528b5161012081018d5260078a01548416815260088a015484169a81019a909a52600989015483169b8a019b909b52600a88015490911693880193909352600b860154908701529584015490850152600d83015495840195909552600e82015460e084810191909152600f909201549483019490945283015251611a4890612694565b611a6b5780858481518110611a5957fe5b60209081029190910101526001909201915b5060010161193d565b50505090565b611a82612d22565b6001600160a01b0316611a93611adf565b6001600160a01b031614611ab95760405162461bcd60e51b81526004016107e7906143f1565b6002805460ff19169055565b6fffffffffffffffffffffffffffffffff19919091161790565b6000546001600160a01b031690565b61271081565b6000611b10611b0284613204565b611b0b84613204565b613097565b9392505050565b60008181526009602052604080822090517f652bccd3000000000000000000000000000000000000000000000000000000008152829173__$95c6f8e4159971276d72925c2dc3de45f7$__9163652bccd391611b7591600401614880565b60206040518083038186803b158015611b8d57600080fd5b505af4158015611ba1573d6000803e3d6000fd5b505050506040513d601f19601f82011682018060405250810190611bc59190613e3a565b905080611bd65750506007546108e6565b6000190192915050565b600a6020526000908152604090205481565b611bfa612d22565b6001600160a01b0316611c0b611adf565b6001600160a01b031614611c315760405162461bcd60e51b81526004016107e7906143f1565b6000611c3d8484612d26565b6040517f32b914bf00000000000000000000000000000000000000000000000000000000815290915073__$95c6f8e4159971276d72925c2dc3de45f7$__906332b914bf90610e439084908690600401614889565b6003546001600160a01b031681565b611ca9612d22565b6001600160a01b0316611cba611adf565b6001600160a01b031614611ce05760405162461bcd60e51b81526004016107e7906143f1565b6002805460ff19166001179055565b600c6020818152600092835260409283902080546001820154600283015460038401546004850154600586015460068701548a5161012081018c5260078901546001600160a01b03908116825260088a015481169a82019a909a5260098901548a169b81019b909b52600a880154891660608c0152600b88015460808c01529887015460a08b0152600d87015460c08b0152600e87015460e08b0152600f909601546101008a0152939792969195909481169291169088565b60008181526009602052604080822090517fa645cb6d000000000000000000000000000000000000000000000000000000008152829173__$95c6f8e4159971276d72925c2dc3de45f7$__9163a645cb6d91611e0691600401614880565b60206040518083038186803b158015611e1e57600080fd5b505af4158015611e32573d6000803e3d6000fd5b505050506040513d601f19601f82011682018060405250810190611e569190613e3a565b905080611bd65750506008546108e6565b611e6f612d22565b6001600160a01b0316611e80611adf565b6001600160a01b031614611ea65760405162461bcd60e51b81526004016107e7906143f1565b6001600160a01b039091166000908152600a6020526040902055565b60801b1790565b60025461010090046001600160a01b031681565b611ee5612d22565b6001600160a01b0316611ef6611adf565b6001600160a01b031614611f1c5760405162461bcd60e51b81526004016107e7906143f1565b6001600160a01b038116611f425760405162461bcd60e51b81526004016107e7906141ed565b600080546040516001600160a01b03808516939216917f8be0079c531659141344cd1fd0a4f28419497f9722a3daafe3b4186f6b6457e091a3600080546001600160a01b0319166001600160a01b0392909216919091179055565b6001600160a01b0382166000908152600b6020908152604080832033845290915290205480611fde5760405162461bcd60e51b81526004016107e79061445d565b81611feb5780915061200b565b8181101561200b5760405162461bcd60e51b81526004016107e79061474e565b6120173384838561293e565b505050565b612024612d22565b6001600160a01b0316612035611adf565b6001600160a01b03161461205b5760405162461bcd60e51b81526004016107e7906143f1565b600680546001600160a01b0319166001600160a01b0392909216919091179055565b600b60209081526000928352604080842090915290825290205481565b6120a2613a66565b60025460ff16156120c55760405162461bcd60e51b81526004016107e790614672565b60105460ff166120e75760405162461bcd60e51b81526004016107e7906147e2565b6010805460ff191690556000888152600c6020526040902060048101546001161561211257506125d4565b61211a613ab4565b50604080516101208101825260078301546001600160a01b0390811682526008840154811660208301526009840154811692820192909252600a83015482166060820152600b8301546080820152600c83015460a0820152600d83015460c0820152600e83015460e0820152600f83015461010082015290881661219c573397505b86151583526020830189905260c081015160a08201516000916121bf919061269c565b9050808a11156121ee57866121e65760405162461bcd60e51b81526004016107e790614604565b602084018190525b506121fe818484600201546132e0565b606081015160408201518815612227576122228360000151828c88608001516126de565b612236565b612236818b8760800151612842565b85156123a2576040516370a0823160e01b81526000906001600160a01b038416906370a082319061226b903090600401613faf565b60206040518083038186803b15801561228357600080fd5b505afa158015612297573d6000803e3d6000fd5b505050506040513d601f19601f820116820180604052508101906122bb9190613e3a565b608087015160e08801516040517f226dc8820000000000000000000000000000000000000000000000000000000081529293506001600160a01b038e169263226dc882926123119233928e908e90600401613fdd565b600060405180830381600087803b15801561232b57600080fd5b505af115801561233f573d6000803e3d6000fd5b50505050600061237582856001600160a01b03166370a08231306040518263ffffffff1660e01b815260040161120f9190613faf565b90508660e0015181101561239b5760405162461bcd60e51b81526004016107e790614281565b50506124fc565b88156124ec576000836020015190506123c2813330896101000151612d65565b61010086015160405163095ea7b360e01b81526001600160a01b0383169163095ea7b3916123f49187916004016140b5565b602060405180830381600087803b15801561240e57600080fd5b505af1158015612422573d6000803e3d6000fd5b505050506040513d601f19601f820116820180604052508101906124469190613e06565b5061010086015160405163140e25ad60e31b81526000916001600160a01b0386169163a0712d689161247a91600401614880565b602060405180830381600087803b15801561249457600080fd5b505af11580156124a8573d6000803e3d6000fd5b505050506040513d601f19601f820116820180604052508101906124cc9190613e3a565b9050801561239b5760405162461bcd60e51b81526004016107e7906142ef565b6124fc8233308860e00151612d65565b6040850151156125255760065460408601516125259183916001600160a01b0390911690612842565b60608501511561254e57600654606086015161254e9184916001600160a01b0390911690612842565b6125618486602001518760c00151613585565b336001600160a01b03168460050160009054906101000a90046001600160a01b03166001600160a01b03167fd00ede2e0292fd63d9ba8b4b572003009a04bcdf39cd75ac9684433d20de7ebf8e88602001518960e001516040516125c7939291906148b4565b60405180910390a3505050505b6010805460ff19166001179055979650505050505050565b600e60205281600052604060002081815481106108bd57fe5b600061261083613204565b6001600160a01b0381166000908152600b60209081526040808320338452909152902054909150806126545760405162461bcd60e51b81526004016107e79061445d565b8261266157809250612681565b828110156126815760405162461bcd60e51b81526004016107e79061474e565b61268e3385848487612985565b50505050565b600116151590565b6000611b1083836040518060400160405280601e81526020017f536166654d6174683a207375627472616374696f6e206f766572666c6f770000815250613879565b6040517fdb006a750000000000000000000000000000000000000000000000000000000081526000906001600160a01b0385169063db006a7590612726908590600401614880565b602060405180830381600087803b15801561274057600080fd5b505af1158015612754573d6000803e3d6000fd5b505050506040513d601f19601f820116820180604052508101906127789190613e3a565b905080156127985760405162461bcd60e51b81526004016107e7906144cb565b6001600160a01b0385166127b5576127b083476138a5565b61283b565b61283b8584876001600160a01b03166370a08231306040518263ffffffff1660e01b81526004016127e69190613faf565b60206040518083038186803b1580156127fe57600080fd5b505afa158015612812573d6000803e3d6000fd5b505050506040513d601f19601f820116820180604052508101906128369190613e3a565b612842565b5050505050565b60006060846001600160a01b031663a9059cbb85856040516024016128689291906140b5565b6040516020818303038152906040529060e01b6020820180517bffffffffffffffffffffffffffffffffffffffffffffffffffffffff83818316178352505050506040516128b69190613f93565b6000604051808303816000865af19150503d80600081146128f3576040519150601f19603f3d011682016040523d82523d6000602084013e6128f8565b606091505b50915091508180156129225750805115806129225750808060200190518101906129229190613e06565b61283b5760405162461bcd60e51b81526004016107e7906141b6565b612949838583612842565b612953828261269c565b6001600160a01b039384166000908152600b602090815260408083209790961682529590955292909320919091555050565b61298f828261269c565b6001600160a01b038085166000908152600b60209081526040808320938a168352929052205561283b848487846126de565b60006129d082602001516108d2565b905060006129e18360200151610d9d565b905060008360a0015190506000806129fc866080015161187d565b90508015612b105760c08601516001600160a01b0381166000908152600d602052604090205490935060001901848114612ad3576001600160a01b0384166000908152600d60205260409020805482908110612a5457fe5b9060005260206000200154925082600d6000866001600160a01b03166001600160a01b031681526020019081526020016000208681548110612a9257fe5b9060005260206000200181905550612ac0600c60008581526020019081526020016000206001015486610e79565b6000848152600c60205260409020600101555b6001600160a01b0384166000908152600d60205260409020805480612af457fe5b6001900381819060005260206000200160009055905550612c10565b6001600160a01b0383166000908152600e602052604090205460001901848114612bd7576001600160a01b0384166000908152600e60205260409020805482908110612b5857fe5b9060005260206000200154925082600e6000866001600160a01b03166001600160a01b031681526020019081526020016000208681548110612b9657fe5b9060005260206000200181905550612bc4600c60008581526020019081526020016000206001015486610e79565b6000848152600c60205260409020600101555b6001600160a01b0384166000908152600e60205260409020805480612bf857fe5b60019003818190600052602060002001600090559055505b6040808701516000908152600f60205220546001108015612c4657506040808701516000908152600f6020522054600019018514155b15612cea57604080870180516000908152600f6020528281209151815291909120548154600019909101908110612c7957fe5b9060005260206000200154915081600f6000886040015181526020019081526020016000208681548110612ca957fe5b9060005260206000200181905550612cd7600c60008481526020019081526020016000206001015486611ac5565b6000838152600c60205260409020600101555b6040808701516000908152600f60205220805480612d0457fe5b60019003818190600052602060002001600090559055505050505050565b3390565b600080612d3284613204565b90506000612d3f84613204565b90506000612d4d8383613097565b60009081526009602052604090209695505050505050565b60006060856001600160a01b03166323b872dd868686604051602401612d8d93929190614091565b6040516020818303038152906040529060e01b6020820180517bffffffffffffffffffffffffffffffffffffffffffffffffffffffff8381831617835250505050604051612ddb9190613f93565b6000604051808303816000865af19150503d8060008114612e18576040519150601f19603f3d011682016040523d82523d6000602084013e612e1d565b606091505b5091509150818015612e47575080511580612e47575080806020019051810190612e479190613e06565b612e635760405162461bcd60e51b81526004016107e790614785565b505050505050565b60006001600160a01b0382161580612e9557506002546001600160a01b0383811661010090920416145b15612eac57506003546001600160a01b03166108e6565b6004805460405163714bca1f60e11b81526000926001600160a01b039092169163e297943e91612ede91879101613faf565b60206040518083038186803b158015612ef657600080fd5b505afa158015612f0a573d6000803e3d6000fd5b505050506040513d601f19601f82011682018060405250810190612f2e9190613c1a565b90506001600160a01b038116610e9157600480546040517fb8d7b6690000000000000000000000000000000000000000000000000000000081526000926001600160a01b039092169163b8d7b66991612f8991889101613faf565b60206040518083038186803b158015612fa157600080fd5b505afa158015612fb5573d6000803e3d6000fd5b505050506040513d601f19601f82011682018060405250810190612fd99190613c1a565b90506001600160a01b03811615612ff45783925050506108e6565b600480546040517f26c7bd930000000000000000000000000000000000000000000000000000000081526001600160a01b03909116916326c7bd939161303c91889101613faf565b602060405180830381600087803b15801561305657600080fd5b505af115801561306a573d6000803e3d6000fd5b505050506040513d601f19601f8201168201806040525081019061308e9190613c1a565b925050506108e6565b600082826040516020016130ac929190613f6c565b60408051601f1981840301815291905280516020909101209392505050565b8054600482015460006130dd8261187d565b600585015490915060009081906001600160a01b03168315613131575060068601546001600160a01b03166000818152600d6020908152604082208054600181018255908352912081018790559250613160565b6001600160a01b0381166000908152600e60209081526040822080546001810182559083529120810187905592505b60028701546000908152600f60209081526040822080546001810182559083529120810187905591506131938284611ec2565b600188015560088701546007880154600b890154600e8a01546040516001600160a01b0394851694938416938616927fc8419e5c94126588374d91d4332ef5d56223abb9c42776b667e899ccff2c5f27926131f3928d9291908d906148ca565b60405180910390a450505050505050565b60006001600160a01b038216158061322e57506002546001600160a01b0383811661010090920416145b1561324557506003546001600160a01b03166108e6565b6004805460405163714bca1f60e11b81526000926001600160a01b039092169163e297943e9161327791879101613faf565b60206040518083038186803b15801561328f57600080fd5b505afa1580156132a3573d6000803e3d6000fd5b505050506040513d601f19601f820116820180604052508101906132c79190613c1a565b90506001600160a01b038116610e9157829150506108e6565b60208201516040517f78cbe05100000000000000000000000000000000000000000000000000000000815273__$ede4fa3877902dc4fe1d8d42678939ceaa$__906378cbe051906133379087908590600401614897565b60206040518083038186803b15801561334f57600080fd5b505af4158015613363573d6000803e3d6000fd5b505050506040513d601f19601f820116820180604052508101906133879190613e3a565b60e08401526133ab6127106133a561339e85611da8565b8490613932565b9061396c565b60408401526133c26127106133a561339e85611b17565b606084015260408301516133d790829061269c565b6080840152606083015160e08401516133ef9161269c565b60c084015282511561268e5760408085015190517f0bbc1cea00000000000000000000000000000000000000000000000000000000815260009173__$ede4fa3877902dc4fe1d8d42678939ceaa$__91630bbc1cea9161345191600401613faf565b60206040518083038186803b15801561346957600080fd5b505af415801561347d573d6000803e3d6000fd5b505050506040513d601f19601f820116820180604052508101906134a19190613e3a565b9050600073__$ede4fa3877902dc4fe1d8d42678939ceaa$__630bbc1cea87606001516040518263ffffffff1660e01b81526004016134e09190613faf565b60206040518083038186803b1580156134f857600080fd5b505af415801561350c573d6000803e3d6000fd5b505050506040513d601f19601f820116820180604052508101906135309190613e3a565b9050613555670de0b6b3a76400006133a584886080015161393290919063ffffffff16565b60a086015260e085015161357790670de0b6b3a7640000906133a59084613932565b610100860152505050505050565b60068301546009840154600a85015460048601546001600160a01b039384169392831692909116906135b69061187d565b1561365b576005546135d39082906001600160a01b031686612842565b6005546040517f1889ae210000000000000000000000000000000000000000000000000000000081526001600160a01b0390911690631889ae2190613624908690869086908a908c9060040161405d565b600060405180830381600087803b15801561363e57600080fd5b505af1158015613652573d6000803e3d6000fd5b50505050613687565b6001600160a01b038082166000908152600b602090815260408083209387168352929052208054850190555b600d86015461369690866139ae565b600d870155600f8601546136aa90856139ae565b600f870155600c860154600d87015410612e635760018660040160008282541792505081905550612e63866040518061010001604052908160008201548152602001600182015481526020016002820154815260200160038201548152602001600482015481526020016005820160009054906101000a90046001600160a01b03166001600160a01b03166001600160a01b031681526020016006820160009054906101000a90046001600160a01b03166001600160a01b03166001600160a01b0316815260200160078201604051806101200160405290816000820160009054906101000a90046001600160a01b03166001600160a01b03166001600160a01b031681526020016001820160009054906101000a90046001600160a01b03166001600160a01b03166001600160a01b031681526020016002820160009054906101000a90046001600160a01b03166001600160a01b03166001600160a01b031681526020016003820160009054906101000a90046001600160a01b03166001600160a01b03166001600160a01b0316815260200160048201548152602001600582015481526020016006820154815260200160078201548152602001600882015481525050815250506129c1565b6000818484111561389d5760405162461bcd60e51b81526004016107e79190614183565b505050900390565b604080516000808252602082019092526001600160a01b0384169083906040516138cf9190613f93565b60006040518083038185875af1925050503d806000811461390c576040519150601f19603f3d011682016040523d82523d6000602084013e613911565b606091505b50509050806120175760405162461bcd60e51b81526004016107e7906145a7565b60008261394157506000610e91565b8282028284828161394e57fe5b0414611b105760405162461bcd60e51b81526004016107e790614394565b6000611b1083836040518060400160405280601a81526020017f536166654d6174683a206469766973696f6e206279207a65726f0000000000008152506139d3565b600082820183811015611b105760405162461bcd60e51b81526004016107e79061424a565b600081836139f45760405162461bcd60e51b81526004016107e79190614183565b506000838581613a0057fe5b0495945050505050565b604051806101000160405280600081526020016000815260200160008152602001600081526020016000815260200160006001600160a01b0316815260200160006001600160a01b03168152602001613a61613ab4565b905290565b60405180610120016040528060001515815260200160008152602001600081526020016000815260200160008152602001600081526020016000815260200160008152602001600081525090565b60405180610120016040528060006001600160a01b0316815260200160006001600160a01b0316815260200160006001600160a01b0316815260200160006001600160a01b0316815260200160008152602001600081526020016000815260200160008152602001600081525090565b600082601f830112613b34578081fd5b813567ffffffffffffffff80821115613b4b578283fd5b602080830260405182828201018181108582111715613b68578687fd5b604052848152945081850192508582018187018301881015613b8957600080fd5b600091505b84821015613bac578035845292820192600191909101908201613b8e565b505050505092915050565b60008083601f840112613bc8578182fd5b50813567ffffffffffffffff811115613bdf578182fd5b602083019150836020828501011115613bf757600080fd5b9250929050565b600060208284031215613c0f578081fd5b8135611b1081614966565b600060208284031215613c2b578081fd5b8151611b1081614966565b60008060408385031215613c48578081fd5b8235613c5381614966565b91506020830135613c6381614966565b809150509250929050565b60008060008060008060c08789031215613c86578182fd5b8635613c9181614966565b95506020870135613ca181614966565b94506040870135613cb181614966565b959894975094956060810135955060808101359460a0909101359350915050565b600080600060608486031215613ce6578283fd5b8335613cf181614966565b92506020840135613d0181614966565b929592945050506040919091013590565b60008060408385031215613d24578182fd5b8235613d2f81614966565b946020939093013593505050565b600080600080600080600060c0888a031215613d57578081fd5b873567ffffffffffffffff80821115613d6e578283fd5b613d7a8b838c01613b24565b985060208a0135915080821115613d8f578283fd5b613d9b8b838c01613b24565b975060408a01359150613dad82614966565b909550606089013590613dbf8261497e565b909450608089013590613dd18261497e565b90935060a08901359080821115613de6578283fd5b50613df38a828b01613bb7565b989b979a50959850939692959293505050565b600060208284031215613e17578081fd5b8151611b108161497e565b600060208284031215613e33578081fd5b5035919050565b600060208284031215613e4b578081fd5b5051919050565b60008060408385031215613e64578182fd5b50508035926020909101359150565b600080600080600080600060c0888a031215613e8d578283fd5b87359650602088013595506040880135613ea681614966565b94506060880135613eb68161497e565b93506080880135613ec68161497e565b925060a088013567ffffffffffffffff811115613ee1578283fd5b613df38a828b01613bb7565b6001600160a01b03169052565b6001600160a01b03808251168352806020830151166020840152806040830151166040840152506060810151613f336060840182613eed565b506080810151608083015260a081015160a083015260c081015160c083015260e081015160e08301526101008082015181840152505050565b6bffffffffffffffffffffffff19606093841b811682529190921b16601482015260280190565b60008251613fa581846020870161493a565b9190910192915050565b6001600160a01b0391909116815260200190565b6001600160a01b0392831681529116602082015260400190565b60006001600160a01b038716825285602083015284604083015260806060830152826080830152828460a084013781830160a090810191909152601f909201601f19160101949350505050565b6001600160a01b039586168152938516602085015291841660408401529092166060820152608081019190915260a00190565b6001600160a01b03958616815293851660208501529190931660408301526060820192909252608081019190915260a00190565b6001600160a01b039384168152919092166020820152604081019190915260600190565b6001600160a01b03929092168252602082015260400190565b602080825282518282018190526000919060409081850190868401855b8281101561416b5781518051855286810151878601528581015186860152606080820151908601526080808201519086015260a0808201516001600160a01b039081169187019190915260c0808301519091169086015260e0908101519061415581870183613efa565b50506102009390930192908501906001016140eb565b5091979650505050505050565b901515815260200190565b60006020825282518060208401526141a281604085016020870161493a565b601f01601f19169190910160400192915050565b6020808252601f908201527f5472616e7366657248656c7065723a205452414e534645525f4641494c454400604082015260600190565b60208082526026908201527f4f776e61626c653a206e6577206f776e657220697320746865207a65726f206160408201527f6464726573730000000000000000000000000000000000000000000000000000606082015260800190565b6020808252601b908201527f536166654d6174683a206164646974696f6e206f766572666c6f770000000000604082015260600190565b6020808252600a908201527f6e6f7420656e6f75676800000000000000000000000000000000000000000000604082015260600190565b60208082526015908201527f646573742073686f756c642062652065746f6b656e0000000000000000000000604082015260600190565b6020808252600b908201527f6d696e74206661696c6564000000000000000000000000000000000000000000604082015260600190565b6020808252601b908201527f746f2073686f756c642062652075736572277320616464726573730000000000604082015260600190565b60208082526014908201527f7372632073686f756c642062652065746f6b656e000000000000000000000000604082015260600190565b60208082526021908201527f536166654d6174683a206d756c7469706c69636174696f6e206f766572666c6f60408201527f7700000000000000000000000000000000000000000000000000000000000000606082015260800190565b6020808252818101527f4f776e61626c653a2063616c6c6572206973206e6f7420746865206f776e6572604082015260600190565b6020808252600d908201527f696e76616c696420706172616d00000000000000000000000000000000000000604082015260600190565b60208082526008908201527f6e6f206173736574000000000000000000000000000000000000000000000000604082015260600190565b60208082526013908201527f6e6f7420656e6f75676820616d6f756e74496e00000000000000000000000000604082015260600190565b6020808252600d908201527f72656465656d206661696c656400000000000000000000000000000000000000604082015260600190565b60208082526014908201527f63616e63656c4f726465723a206e6f2061757468000000000000000000000000604082015260600190565b60208082526015908201527f6f7264657220686173206265656e20636c6f7365640000000000000000000000604082015260600190565b60208082526014908201527f6c657373207468616e206d696e20616d6f756e74000000000000000000000000604082015260600190565b60208082526023908201527f5472616e7366657248656c7065723a204554485f5452414e534645525f46414960408201527f4c45440000000000000000000000000000000000000000000000000000000000606082015260800190565b60208082526014908201527f6e6f7420656e6f75676820746f2066756c66696c000000000000000000000000604082015260600190565b6020808252601a908201527f63616e63656c4d617267696e4f726465723a206e6f2061757468000000000000604082015260600190565b60208082526011908201527f6f7264657220626f6f6b20636c6f736564000000000000000000000000000000604082015260600190565b60208082526015908201527f666c61672073686f756c64206265206d617267696e0000000000000000000000604082015260600190565b6020808252600f908201527f6964656e746963616c20746f6b656e0000000000000000000000000000000000604082015260600190565b60208082526014908201527f626f746820746f6b656e206f722065746f6b656e000000000000000000000000604082015260600190565b60208082526010908201527f6e6f7420656e6f75676820617373657400000000000000000000000000000000604082015260600190565b60208082526024908201527f5472616e7366657248656c7065723a205452414e534645525f46524f4d5f464160408201527f494c454400000000000000000000000000000000000000000000000000000000606082015260800190565b6020808252601f908201527f5265656e7472616e637947756172643a207265656e7472616e742063616c6c00604082015260600190565b6000610120820190508251151582526020830151602083015260408301516040830152606083015160608301526080830151608083015260a083015160a083015260c083015160c083015260e083015160e083015261010080840151818401525092915050565b90815260200190565b918252602082015260400190565b61014081016148a68285613efa565b826101208301529392505050565b9283526020830191909152604082015260600190565b93845260208401929092526040830152606082015260800190565b888152602081018890526040810187905260608101869052608081018590526001600160a01b0384811660a0830152831660c0820152610200810161492d60e0830184613efa565b9998505050505050505050565b60005b8381101561495557818101518382015260200161493d565b8381111561268e5750506000910152565b6001600160a01b038116811461497b57600080fd5b50565b801515811461497b57600080fdfea26469706673582212206d974e9118afc8d60b0759debbfe8861c441cd063a056f384c5b872de9aecc1264736f6c634300060c0033",
  "libraries": {
    "OBPriceLogic": "0x1C5a96eB220d007D749Bf31168f6dA2Fd0e00A3c",
    "OBPairConfig": "0x9738Cd280C42f219539d1EA4C99093d460Ef46b8"
  },
  "devdoc": {
    "kind": "dev",
    "methods": {
      "fulfilOrder(uint256,uint256,address,bool,bool,bytes)": {
        "params": {
          "amtToTaken": "",
          "data": "flashloan ",
          "isToken": " token  token,  approve  srcEToken  cash ",
          "orderId": "order id",
          "partialFill": "(taken)",
          "to": " msg.sender"
        },
        "returns": {
          "fulFilAmt": "(, )"
        }
      },
      "getMakerFeeRate(uint256)": {
        "details": "get maker fee rate"
      },
      "getTakerFeeRate(uint256)": {
        "details": "get taker fee rate"
      },
      "owner()": {
        "details": "Returns the address of the current owner."
      },
      "renounceOwnership()": {
        "details": "Leaves the contract without owner. It will not be possible to call `onlyOwner` functions anymore. Can only be called by the current owner. NOTE: Renouncing ownership will leave the contract without an owner, thereby removing any functionality that is only available to the owner."
      },
      "setFeeTo(address)": {
        "details": " feeTo "
      },
      "transferOwnership(address)": {
        "details": "Transfers ownership of the contract to a new account (`newOwner`). Can only be called by the current owner."
      }
    },
    "version": 1
  },
  "userdoc": {
    "kind": "user",
    "methods": {},
    "version": 1
  },
  "storageLayout": {
    "storage": [
      {
        "astId": 3476,
        "contract": "contracts/swap/orderbook/Orderbook.sol:OrderBook",
        "label": "_owner",
        "offset": 0,
        "slot": "0",
        "type": "t_address"
      },
      {
        "astId": 622,
        "contract": "contracts/swap/orderbook/Orderbook.sol:OrderBook",
        "label": "orderId",
        "offset": 0,
        "slot": "1",
        "type": "t_uint256"
      },
      {
        "astId": 624,
        "contract": "contracts/swap/orderbook/Orderbook.sol:OrderBook",
        "label": "closed",
        "offset": 0,
        "slot": "2",
        "type": "t_bool"
      },
      {
        "astId": 626,
        "contract": "contracts/swap/orderbook/Orderbook.sol:OrderBook",
        "label": "wETH",
        "offset": 1,
        "slot": "2",
        "type": "t_address"
      },
      {
        "astId": 628,
        "contract": "contracts/swap/orderbook/Orderbook.sol:OrderBook",
        "label": "cETH",
        "offset": 0,
        "slot": "3",
        "type": "t_address"
      },
      {
        "astId": 630,
        "contract": "contracts/swap/orderbook/Orderbook.sol:OrderBook",
        "label": "ctokenFactory",
        "offset": 0,
        "slot": "4",
        "type": "t_address"
      },
      {
        "astId": 632,
        "contract": "contracts/swap/orderbook/Orderbook.sol:OrderBook",
        "label": "marginAddr",
        "offset": 0,
        "slot": "5",
        "type": "t_address"
      },
      {
        "astId": 634,
        "contract": "contracts/swap/orderbook/Orderbook.sol:OrderBook",
        "label": "feeTo",
        "offset": 0,
        "slot": "6",
        "type": "t_address"
      },
      {
        "astId": 637,
        "contract": "contracts/swap/orderbook/Orderbook.sol:OrderBook",
        "label": "defaultFeeMaker",
        "offset": 0,
        "slot": "7",
        "type": "t_uint256"
      },
      {
        "astId": 640,
        "contract": "contracts/swap/orderbook/Orderbook.sol:OrderBook",
        "label": "defaultFeeTaker",
        "offset": 0,
        "slot": "8",
        "type": "t_uint256"
      },
      {
        "astId": 644,
        "contract": "contracts/swap/orderbook/Orderbook.sol:OrderBook",
        "label": "pairFeeRate",
        "offset": 0,
        "slot": "9",
        "type": "t_mapping(t_uint256,t_struct(OBPairConfigMap)40_storage)"
      },
      {
        "astId": 648,
        "contract": "contracts/swap/orderbook/Orderbook.sol:OrderBook",
        "label": "minAmounts",
        "offset": 0,
        "slot": "10",
        "type": "t_mapping(t_address,t_uint256)"
      },
      {
        "astId": 654,
        "contract": "contracts/swap/orderbook/Orderbook.sol:OrderBook",
        "label": "balanceOf",
        "offset": 0,
        "slot": "11",
        "type": "t_mapping(t_address,t_mapping(t_address,t_uint256))"
      },
      {
        "astId": 658,
        "contract": "contracts/swap/orderbook/Orderbook.sol:OrderBook",
        "label": "orders",
        "offset": 0,
        "slot": "12",
        "type": "t_mapping(t_uint256,t_struct(OrderItem)37_storage)"
      },
      {
        "astId": 663,
        "contract": "contracts/swap/orderbook/Orderbook.sol:OrderBook",
        "label": "marginOrders",
        "offset": 0,
        "slot": "13",
        "type": "t_mapping(t_address,t_array(t_uint256)dyn_storage)"
      },
      {
        "astId": 668,
        "contract": "contracts/swap/orderbook/Orderbook.sol:OrderBook",
        "label": "addressOrders",
        "offset": 0,
        "slot": "14",
        "type": "t_mapping(t_address,t_array(t_uint256)dyn_storage)"
      },
      {
        "astId": 673,
        "contract": "contracts/swap/orderbook/Orderbook.sol:OrderBook",
        "label": "pairOrders",
        "offset": 0,
        "slot": "15",
        "type": "t_mapping(t_uint256,t_array(t_uint256)dyn_storage)"
      },
      {
        "astId": 3583,
        "contract": "contracts/swap/orderbook/Orderbook.sol:OrderBook",
        "label": "_notEntered",
        "offset": 0,
        "slot": "16",
        "type": "t_bool"
      }
    ],
    "types": {
      "t_address": {
        "encoding": "inplace",
        "label": "address",
        "numberOfBytes": "20"
      },
      "t_array(t_uint256)dyn_storage": {
        "base": "t_uint256",
        "encoding": "dynamic_array",
        "label": "uint256[]",
        "numberOfBytes": "32"
      },
      "t_bool": {
        "encoding": "inplace",
        "label": "bool",
        "numberOfBytes": "1"
      },
      "t_mapping(t_address,t_array(t_uint256)dyn_storage)": {
        "encoding": "mapping",
        "key": "t_address",
        "label": "mapping(address => uint256[])",
        "numberOfBytes": "32",
        "value": "t_array(t_uint256)dyn_storage"
      },
      "t_mapping(t_address,t_mapping(t_address,t_uint256))": {
        "encoding": "mapping",
        "key": "t_address",
        "label": "mapping(address => mapping(address => uint256))",
        "numberOfBytes": "32",
        "value": "t_mapping(t_address,t_uint256)"
      },
      "t_mapping(t_address,t_uint256)": {
        "encoding": "mapping",
        "key": "t_address",
        "label": "mapping(address => uint256)",
        "numberOfBytes": "32",
        "value": "t_uint256"
      },
      "t_mapping(t_uint256,t_array(t_uint256)dyn_storage)": {
        "encoding": "mapping",
        "key": "t_uint256",
        "label": "mapping(uint256 => uint256[])",
        "numberOfBytes": "32",
        "value": "t_array(t_uint256)dyn_storage"
      },
      "t_mapping(t_uint256,t_struct(OBPairConfigMap)40_storage)": {
        "encoding": "mapping",
        "key": "t_uint256",
        "label": "mapping(uint256 => struct DataTypes.OBPairConfigMap)",
        "numberOfBytes": "32",
        "value": "t_struct(OBPairConfigMap)40_storage"
      },
      "t_mapping(t_uint256,t_struct(OrderItem)37_storage)": {
        "encoding": "mapping",
        "key": "t_uint256",
        "label": "mapping(uint256 => struct DataTypes.OrderItem)",
        "numberOfBytes": "32",
        "value": "t_struct(OrderItem)37_storage"
      },
      "t_struct(OBPairConfigMap)40_storage": {
        "encoding": "inplace",
        "label": "struct DataTypes.OBPairConfigMap",
        "members": [
          {
            "astId": 39,
            "contract": "contracts/swap/orderbook/Orderbook.sol:OrderBook",
            "label": "data",
            "offset": 0,
            "slot": "0",
            "type": "t_uint256"
          }
        ],
        "numberOfBytes": "32"
      },
      "t_struct(OrderItem)37_storage": {
        "encoding": "inplace",
        "label": "struct DataTypes.OrderItem",
        "members": [
          {
            "astId": 22,
            "contract": "contracts/swap/orderbook/Orderbook.sol:OrderBook",
            "label": "orderId",
            "offset": 0,
            "slot": "0",
            "type": "t_uint256"
          },
          {
            "astId": 24,
            "contract": "contracts/swap/orderbook/Orderbook.sol:OrderBook",
            "label": "pairAddrIdx",
            "offset": 0,
            "slot": "1",
            "type": "t_uint256"
          },
          {
            "astId": 26,
            "contract": "contracts/swap/orderbook/Orderbook.sol:OrderBook",
            "label": "pair",
            "offset": 0,
            "slot": "2",
            "type": "t_uint256"
          },
          {
            "astId": 28,
            "contract": "contracts/swap/orderbook/Orderbook.sol:OrderBook",
            "label": "timestamp",
            "offset": 0,
            "slot": "3",
            "type": "t_uint256"
          },
          {
            "astId": 30,
            "contract": "contracts/swap/orderbook/Orderbook.sol:OrderBook",
            "label": "flag",
            "offset": 0,
            "slot": "4",
            "type": "t_uint256"
          },
          {
            "astId": 32,
            "contract": "contracts/swap/orderbook/Orderbook.sol:OrderBook",
            "label": "owner",
            "offset": 0,
            "slot": "5",
            "type": "t_address"
          },
          {
            "astId": 34,
            "contract": "contracts/swap/orderbook/Orderbook.sol:OrderBook",
            "label": "to",
            "offset": 0,
            "slot": "6",
            "type": "t_address"
          },
          {
            "astId": 36,
            "contract": "contracts/swap/orderbook/Orderbook.sol:OrderBook",
            "label": "tokenAmt",
            "offset": 0,
            "slot": "7",
            "type": "t_struct(TokenAmount)20_storage"
          }
        ],
        "numberOfBytes": "512"
      },
      "t_struct(TokenAmount)20_storage": {
        "encoding": "inplace",
        "label": "struct DataTypes.TokenAmount",
        "members": [
          {
            "astId": 3,
            "contract": "contracts/swap/orderbook/Orderbook.sol:OrderBook",
            "label": "srcToken",
            "offset": 0,
            "slot": "0",
            "type": "t_address"
          },
          {
            "astId": 5,
            "contract": "contracts/swap/orderbook/Orderbook.sol:OrderBook",
            "label": "destToken",
            "offset": 0,
            "slot": "1",
            "type": "t_address"
          },
          {
            "astId": 7,
            "contract": "contracts/swap/orderbook/Orderbook.sol:OrderBook",
            "label": "srcEToken",
            "offset": 0,
            "slot": "2",
            "type": "t_address"
          },
          {
            "astId": 9,
            "contract": "contracts/swap/orderbook/Orderbook.sol:OrderBook",
            "label": "destEToken",
            "offset": 0,
            "slot": "3",
            "type": "t_address"
          },
          {
            "astId": 11,
            "contract": "contracts/swap/orderbook/Orderbook.sol:OrderBook",
            "label": "amountIn",
            "offset": 0,
            "slot": "4",
            "type": "t_uint256"
          },
          {
            "astId": 13,
            "contract": "contracts/swap/orderbook/Orderbook.sol:OrderBook",
            "label": "amountInMint",
            "offset": 0,
            "slot": "5",
            "type": "t_uint256"
          },
          {
            "astId": 15,
            "contract": "contracts/swap/orderbook/Orderbook.sol:OrderBook",
            "label": "fulfiled",
            "offset": 0,
            "slot": "6",
            "type": "t_uint256"
          },
          {
            "astId": 17,
            "contract": "contracts/swap/orderbook/Orderbook.sol:OrderBook",
            "label": "guaranteeAmountOut",
            "offset": 0,
            "slot": "7",
            "type": "t_uint256"
          },
          {
            "astId": 19,
            "contract": "contracts/swap/orderbook/Orderbook.sol:OrderBook",
            "label": "destFulfiled",
            "offset": 0,
            "slot": "8",
            "type": "t_uint256"
          }
        ],
        "numberOfBytes": "288"
      },
      "t_uint256": {
        "encoding": "inplace",
        "label": "uint256",
        "numberOfBytes": "32"
      }
    }
  }
}