{
  "address": "0x224235330ebC9261DB21934E86959799967A3442",
  "abi": [
    {
      "inputs": [
        {
          "internalType": "address",
          "name": "_ctokenFactory",
          "type": "address"
        },
        {
          "internalType": "address",
          "name": "_cETH",
          "type": "address"
        },
        {
          "internalType": "address",
          "name": "_wETH",
          "type": "address"
        },
        {
          "internalType": "address",
          "name": "_margin",
          "type": "address"
        }
      ],
      "stateMutability": "payable",
      "type": "constructor"
    },
    {
      "anonymous": false,
      "inputs": [
        {
          "indexed": true,
          "internalType": "address",
          "name": "owner",
          "type": "address"
        },
        {
          "indexed": true,
          "internalType": "address",
          "name": "srcToken",
          "type": "address"
        },
        {
          "indexed": true,
          "internalType": "address",
          "name": "destToken",
          "type": "address"
        },
        {
          "indexed": false,
          "internalType": "uint256",
          "name": "orderId",
          "type": "uint256"
        }
      ],
      "name": "CancelOrder",
      "type": "event"
    },
    {
      "anonymous": false,
      "inputs": [
        {
          "indexed": true,
          "internalType": "address",
          "name": "owner",
          "type": "address"
        },
        {
          "indexed": true,
          "internalType": "address",
          "name": "srcToken",
          "type": "address"
        },
        {
          "indexed": true,
          "internalType": "address",
          "name": "destToken",
          "type": "address"
        },
        {
          "indexed": false,
          "internalType": "uint256",
          "name": "orderId",
          "type": "uint256"
        },
        {
          "indexed": false,
          "internalType": "uint256",
          "name": "amountIn",
          "type": "uint256"
        },
        {
          "indexed": false,
          "internalType": "uint256",
          "name": "minAmountOut",
          "type": "uint256"
        },
        {
          "indexed": false,
          "internalType": "uint256",
          "name": "flag",
          "type": "uint256"
        }
      ],
      "name": "CreateOrder",
      "type": "event"
    },
    {
      "anonymous": false,
      "inputs": [
        {
          "indexed": true,
          "internalType": "address",
          "name": "maker",
          "type": "address"
        },
        {
          "indexed": true,
          "internalType": "address",
          "name": "taker",
          "type": "address"
        },
        {
          "indexed": false,
          "internalType": "uint256",
          "name": "orderId",
          "type": "uint256"
        },
        {
          "indexed": false,
          "internalType": "uint256",
          "name": "amt",
          "type": "uint256"
        },
        {
          "indexed": false,
          "internalType": "uint256",
          "name": "amtOut",
          "type": "uint256"
        }
      ],
      "name": "FulFilOrder",
      "type": "event"
    },
    {
      "anonymous": false,
      "inputs": [
        {
          "indexed": true,
          "internalType": "address",
          "name": "previousOwner",
          "type": "address"
        },
        {
          "indexed": true,
          "internalType": "address",
          "name": "newOwner",
          "type": "address"
        }
      ],
      "name": "OwnershipTransferred",
      "type": "event"
    },
    {
      "inputs": [],
      "name": "DENOMINATOR",
      "outputs": [
        {
          "internalType": "uint256",
          "name": "",
          "type": "uint256"
        }
      ],
      "stateMutability": "view",
      "type": "function"
    },
    {
      "inputs": [
        {
          "internalType": "uint256",
          "name": "id",
          "type": "uint256"
        }
      ],
      "name": "addrIndex",
      "outputs": [
        {
          "internalType": "uint256",
          "name": "",
          "type": "uint256"
        }
      ],
      "stateMutability": "pure",
      "type": "function"
    },
    {
      "inputs": [
        {
          "internalType": "address",
          "name": "",
          "type": "address"
        },
        {
          "internalType": "uint256",
          "name": "",
          "type": "uint256"
        }
      ],
      "name": "addressOrders",
      "outputs": [
        {
          "internalType": "uint256",
          "name": "",
          "type": "uint256"
        }
      ],
      "stateMutability": "view",
      "type": "function"
    },
    {
      "inputs": [
        {
          "internalType": "address",
          "name": "",
          "type": "address"
        },
        {
          "internalType": "address",
          "name": "",
          "type": "address"
        }
      ],
      "name": "balanceOf",
      "outputs": [
        {
          "internalType": "uint256",
          "name": "",
          "type": "uint256"
        }
      ],
      "stateMutability": "view",
      "type": "function"
    },
    {
      "inputs": [],
      "name": "cETH",
      "outputs": [
        {
          "internalType": "address",
          "name": "",
          "type": "address"
        }
      ],
      "stateMutability": "view",
      "type": "function"
    },
    {
      "inputs": [
        {
          "internalType": "uint256",
          "name": "orderId",
          "type": "uint256"
        }
      ],
      "name": "cancelOrder",
      "outputs": [],
      "stateMutability": "nonpayable",
      "type": "function"
    },
    {
      "inputs": [],
      "name": "closeOrderBook",
      "outputs": [],
      "stateMutability": "nonpayable",
      "type": "function"
    },
    {
      "inputs": [],
      "name": "closed",
      "outputs": [
        {
          "internalType": "bool",
          "name": "",
          "type": "bool"
        }
      ],
      "stateMutability": "view",
      "type": "function"
    },
    {
      "inputs": [
        {
          "internalType": "address",
          "name": "srcToken",
          "type": "address"
        },
        {
          "internalType": "address",
          "name": "destToken",
          "type": "address"
        },
        {
          "internalType": "address",
          "name": "to",
          "type": "address"
        },
        {
          "internalType": "uint256",
          "name": "amountIn",
          "type": "uint256"
        },
        {
          "internalType": "uint256",
          "name": "guaranteeAmountOut",
          "type": "uint256"
        },
        {
          "internalType": "uint256",
          "name": "flag",
          "type": "uint256"
        }
      ],
      "name": "createOrder",
      "outputs": [
        {
          "internalType": "uint256",
          "name": "idx",
          "type": "uint256"
        }
      ],
      "stateMutability": "payable",
      "type": "function"
    },
    {
      "inputs": [],
      "name": "ctokenFactory",
      "outputs": [
        {
          "internalType": "address",
          "name": "",
          "type": "address"
        }
      ],
      "stateMutability": "view",
      "type": "function"
    },
    {
      "inputs": [],
      "name": "defaultFeeMaker",
      "outputs": [
        {
          "internalType": "uint256",
          "name": "",
          "type": "uint256"
        }
      ],
      "stateMutability": "view",
      "type": "function"
    },
    {
      "inputs": [],
      "name": "defaultFeeTaker",
      "outputs": [
        {
          "internalType": "uint256",
          "name": "",
          "type": "uint256"
        }
      ],
      "stateMutability": "view",
      "type": "function"
    },
    {
      "inputs": [],
      "name": "feeTo",
      "outputs": [
        {
          "internalType": "address",
          "name": "",
          "type": "address"
        }
      ],
      "stateMutability": "view",
      "type": "function"
    },
    {
      "inputs": [
        {
          "internalType": "uint256",
          "name": "orderId",
          "type": "uint256"
        },
        {
          "internalType": "uint256",
          "name": "amtToTaken",
          "type": "uint256"
        },
        {
          "internalType": "address",
          "name": "to",
          "type": "address"
        },
        {
          "internalType": "bool",
          "name": "isToken",
          "type": "bool"
        },
        {
          "internalType": "bool",
          "name": "partialFill",
          "type": "bool"
        },
        {
          "internalType": "bytes",
          "name": "data",
          "type": "bytes"
        }
      ],
      "name": "fulfilOrder",
      "outputs": [
        {
          "components": [
            {
              "internalType": "bool",
              "name": "isToken",
              "type": "bool"
            },
            {
              "internalType": "uint256",
              "name": "filled",
              "type": "uint256"
            },
            {
              "internalType": "uint256",
              "name": "takerFee",
              "type": "uint256"
            },
            {
              "internalType": "uint256",
              "name": "makerFee",
              "type": "uint256"
            },
            {
              "internalType": "uint256",
              "name": "takerAmt",
              "type": "uint256"
            },
            {
              "internalType": "uint256",
              "name": "takerAmtToken",
              "type": "uint256"
            },
            {
              "internalType": "uint256",
              "name": "makerAmt",
              "type": "uint256"
            },
            {
              "internalType": "uint256",
              "name": "amtDest",
              "type": "uint256"
            },
            {
              "internalType": "uint256",
              "name": "amtDestToken",
              "type": "uint256"
            }
          ],
          "internalType": "struct OrderBook.FulFilAmt",
          "name": "fulFilAmt",
          "type": "tuple"
        }
      ],
      "stateMutability": "payable",
      "type": "function"
    },
    {
      "inputs": [],
      "name": "getAllOrders",
      "outputs": [
        {
          "components": [
            {
              "internalType": "uint256",
              "name": "orderId",
              "type": "uint256"
            },
            {
              "internalType": "uint256",
              "name": "pairAddrIdx",
              "type": "uint256"
            },
            {
              "internalType": "uint256",
              "name": "pair",
              "type": "uint256"
            },
            {
              "internalType": "uint256",
              "name": "timestamp",
              "type": "uint256"
            },
            {
              "internalType": "uint256",
              "name": "flag",
              "type": "uint256"
            },
            {
              "internalType": "address",
              "name": "owner",
              "type": "address"
            },
            {
              "internalType": "address",
              "name": "to",
              "type": "address"
            },
            {
              "components": [
                {
                  "internalType": "address",
                  "name": "srcToken",
                  "type": "address"
                },
                {
                  "internalType": "address",
                  "name": "destToken",
                  "type": "address"
                },
                {
                  "internalType": "address",
                  "name": "srcEToken",
                  "type": "address"
                },
                {
                  "internalType": "address",
                  "name": "destEToken",
                  "type": "address"
                },
                {
                  "internalType": "uint256",
                  "name": "amountIn",
                  "type": "uint256"
                },
                {
                  "internalType": "uint256",
                  "name": "amountInMint",
                  "type": "uint256"
                },
                {
                  "internalType": "uint256",
                  "name": "fulfiled",
                  "type": "uint256"
                },
                {
                  "internalType": "uint256",
                  "name": "guaranteeAmountOut",
                  "type": "uint256"
                }
              ],
              "internalType": "struct DataTypes.TokenAmount",
              "name": "tokenAmt",
              "type": "tuple"
            }
          ],
          "internalType": "struct DataTypes.OrderItem[]",
          "name": "allOrders",
          "type": "tuple[]"
        }
      ],
      "stateMutability": "view",
      "type": "function"
    },
    {
      "inputs": [
        {
          "internalType": "uint256",
          "name": "pair",
          "type": "uint256"
        }
      ],
      "name": "getMakerFeeRate",
      "outputs": [
        {
          "internalType": "uint256",
          "name": "",
          "type": "uint256"
        }
      ],
      "stateMutability": "view",
      "type": "function"
    },
    {
      "inputs": [
        {
          "internalType": "uint256",
          "name": "pair",
          "type": "uint256"
        }
      ],
      "name": "getTakerFeeRate",
      "outputs": [
        {
          "internalType": "uint256",
          "name": "",
          "type": "uint256"
        }
      ],
      "stateMutability": "view",
      "type": "function"
    },
    {
      "inputs": [
        {
          "internalType": "uint256",
          "name": "flag",
          "type": "uint256"
        }
      ],
      "name": "isMargin",
      "outputs": [
        {
          "internalType": "bool",
          "name": "",
          "type": "bool"
        }
      ],
      "stateMutability": "pure",
      "type": "function"
    },
    {
      "inputs": [],
      "name": "marginAddr",
      "outputs": [
        {
          "internalType": "address",
          "name": "",
          "type": "address"
        }
      ],
      "stateMutability": "view",
      "type": "function"
    },
    {
      "inputs": [
        {
          "internalType": "address",
          "name": "",
          "type": "address"
        },
        {
          "internalType": "uint256",
          "name": "",
          "type": "uint256"
        }
      ],
      "name": "marginOrders",
      "outputs": [
        {
          "internalType": "uint256",
          "name": "",
          "type": "uint256"
        }
      ],
      "stateMutability": "view",
      "type": "function"
    },
    {
      "inputs": [
        {
          "internalType": "uint256",
          "name": "pairIdx",
          "type": "uint256"
        },
        {
          "internalType": "uint256",
          "name": "addrIdx",
          "type": "uint256"
        }
      ],
      "name": "maskAddrPairIndex",
      "outputs": [
        {
          "internalType": "uint256",
          "name": "",
          "type": "uint256"
        }
      ],
      "stateMutability": "pure",
      "type": "function"
    },
    {
      "inputs": [
        {
          "internalType": "address",
          "name": "",
          "type": "address"
        }
      ],
      "name": "minAmounts",
      "outputs": [
        {
          "internalType": "uint256",
          "name": "",
          "type": "uint256"
        }
      ],
      "stateMutability": "view",
      "type": "function"
    },
    {
      "inputs": [],
      "name": "openOrderBook",
      "outputs": [],
      "stateMutability": "nonpayable",
      "type": "function"
    },
    {
      "inputs": [],
      "name": "orderId",
      "outputs": [
        {
          "internalType": "uint256",
          "name": "",
          "type": "uint256"
        }
      ],
      "stateMutability": "view",
      "type": "function"
    },
    {
      "inputs": [
        {
          "internalType": "uint256",
          "name": "",
          "type": "uint256"
        }
      ],
      "name": "orders",
      "outputs": [
        {
          "internalType": "uint256",
          "name": "orderId",
          "type": "uint256"
        },
        {
          "internalType": "uint256",
          "name": "pairAddrIdx",
          "type": "uint256"
        },
        {
          "internalType": "uint256",
          "name": "pair",
          "type": "uint256"
        },
        {
          "internalType": "uint256",
          "name": "timestamp",
          "type": "uint256"
        },
        {
          "internalType": "uint256",
          "name": "flag",
          "type": "uint256"
        },
        {
          "internalType": "address",
          "name": "owner",
          "type": "address"
        },
        {
          "internalType": "address",
          "name": "to",
          "type": "address"
        },
        {
          "components": [
            {
              "internalType": "address",
              "name": "srcToken",
              "type": "address"
            },
            {
              "internalType": "address",
              "name": "destToken",
              "type": "address"
            },
            {
              "internalType": "address",
              "name": "srcEToken",
              "type": "address"
            },
            {
              "internalType": "address",
              "name": "destEToken",
              "type": "address"
            },
            {
              "internalType": "uint256",
              "name": "amountIn",
              "type": "uint256"
            },
            {
              "internalType": "uint256",
              "name": "amountInMint",
              "type": "uint256"
            },
            {
              "internalType": "uint256",
              "name": "fulfiled",
              "type": "uint256"
            },
            {
              "internalType": "uint256",
              "name": "guaranteeAmountOut",
              "type": "uint256"
            }
          ],
          "internalType": "struct DataTypes.TokenAmount",
          "name": "tokenAmt",
          "type": "tuple"
        }
      ],
      "stateMutability": "view",
      "type": "function"
    },
    {
      "inputs": [],
      "name": "owner",
      "outputs": [
        {
          "internalType": "address",
          "name": "",
          "type": "address"
        }
      ],
      "stateMutability": "view",
      "type": "function"
    },
    {
      "inputs": [
        {
          "internalType": "uint256",
          "name": "",
          "type": "uint256"
        }
      ],
      "name": "pairFeeRate",
      "outputs": [
        {
          "internalType": "uint256",
          "name": "data",
          "type": "uint256"
        }
      ],
      "stateMutability": "view",
      "type": "function"
    },
    {
      "inputs": [
        {
          "internalType": "address",
          "name": "srcToken",
          "type": "address"
        },
        {
          "internalType": "address",
          "name": "destToken",
          "type": "address"
        }
      ],
      "name": "pairFor",
      "outputs": [
        {
          "internalType": "uint256",
          "name": "pair",
          "type": "uint256"
        }
      ],
      "stateMutability": "view",
      "type": "function"
    },
    {
      "inputs": [
        {
          "internalType": "uint256",
          "name": "id",
          "type": "uint256"
        }
      ],
      "name": "pairIndex",
      "outputs": [
        {
          "internalType": "uint256",
          "name": "",
          "type": "uint256"
        }
      ],
      "stateMutability": "pure",
      "type": "function"
    },
    {
      "inputs": [
        {
          "internalType": "uint256",
          "name": "",
          "type": "uint256"
        },
        {
          "internalType": "uint256",
          "name": "",
          "type": "uint256"
        }
      ],
      "name": "pairOrders",
      "outputs": [
        {
          "internalType": "uint256",
          "name": "",
          "type": "uint256"
        }
      ],
      "stateMutability": "view",
      "type": "function"
    },
    {
      "inputs": [],
      "name": "renounceOwnership",
      "outputs": [],
      "stateMutability": "nonpayable",
      "type": "function"
    },
    {
      "inputs": [
        {
          "internalType": "address",
          "name": "to",
          "type": "address"
        }
      ],
      "name": "setFeeTo",
      "outputs": [],
      "stateMutability": "nonpayable",
      "type": "function"
    },
    {
      "inputs": [
        {
          "internalType": "address",
          "name": "token",
          "type": "address"
        },
        {
          "internalType": "uint256",
          "name": "amt",
          "type": "uint256"
        }
      ],
      "name": "setMinOrderAmount",
      "outputs": [],
      "stateMutability": "nonpayable",
      "type": "function"
    },
    {
      "inputs": [
        {
          "internalType": "address",
          "name": "src",
          "type": "address"
        },
        {
          "internalType": "address",
          "name": "dest",
          "type": "address"
        },
        {
          "internalType": "uint256",
          "name": "fee",
          "type": "uint256"
        }
      ],
      "name": "setPairMakerFee",
      "outputs": [],
      "stateMutability": "nonpayable",
      "type": "function"
    },
    {
      "inputs": [
        {
          "internalType": "address",
          "name": "src",
          "type": "address"
        },
        {
          "internalType": "address",
          "name": "dest",
          "type": "address"
        },
        {
          "internalType": "uint256",
          "name": "fee",
          "type": "uint256"
        }
      ],
      "name": "setPairTakerFee",
      "outputs": [],
      "stateMutability": "nonpayable",
      "type": "function"
    },
    {
      "inputs": [
        {
          "internalType": "address",
          "name": "newOwner",
          "type": "address"
        }
      ],
      "name": "transferOwnership",
      "outputs": [],
      "stateMutability": "nonpayable",
      "type": "function"
    },
    {
      "inputs": [
        {
          "internalType": "uint256",
          "name": "idx",
          "type": "uint256"
        },
        {
          "internalType": "uint256",
          "name": "addrIdx",
          "type": "uint256"
        }
      ],
      "name": "updateAddrIdx",
      "outputs": [
        {
          "internalType": "uint256",
          "name": "",
          "type": "uint256"
        }
      ],
      "stateMutability": "pure",
      "type": "function"
    },
    {
      "inputs": [
        {
          "internalType": "uint256",
          "name": "idx",
          "type": "uint256"
        },
        {
          "internalType": "uint256",
          "name": "pairIdx",
          "type": "uint256"
        }
      ],
      "name": "updatePairIdx",
      "outputs": [
        {
          "internalType": "uint256",
          "name": "",
          "type": "uint256"
        }
      ],
      "stateMutability": "pure",
      "type": "function"
    },
    {
      "inputs": [],
      "name": "wETH",
      "outputs": [
        {
          "internalType": "address",
          "name": "",
          "type": "address"
        }
      ],
      "stateMutability": "view",
      "type": "function"
    },
    {
      "inputs": [
        {
          "internalType": "address",
          "name": "token",
          "type": "address"
        },
        {
          "internalType": "uint256",
          "name": "amt",
          "type": "uint256"
        }
      ],
      "name": "withdraw",
      "outputs": [],
      "stateMutability": "nonpayable",
      "type": "function"
    },
    {
      "inputs": [
        {
          "internalType": "address",
          "name": "token",
          "type": "address"
        },
        {
          "internalType": "uint256",
          "name": "amt",
          "type": "uint256"
        }
      ],
      "name": "withdrawUnderlying",
      "outputs": [],
      "stateMutability": "nonpayable",
      "type": "function"
    },
    {
      "stateMutability": "payable",
      "type": "receive"
    }
  ],
  "transactionHash": "0x167c3d4df557a0b06d22e40a6f377f93c2fecaa34a3da4190f7c552cb968a16b",
  "args": [
    "0x71B01154717678BD2380b6B96273F3f8CB06C7A9",
    "0x406AbB3387f9b52E741bC1F1D9b8406BfB9D5B4f",
    "0x7aF326B6351C8A9b8fb8CD205CBe11d4Ac5FA836",
    "0x0000000000000000000000000000000000000000"
  ],
  "solcInputHash": "a2db663172882f31b4b299cb8fa408f2",
  "bytecode": "0x6080604052601e600755601e60085560405162004dc038038062004dc0833981016040819052620000309162000125565b60006200003c62000103565b600080546001600160a01b0319166001600160a01b0383169081178255604051929350917f8be0079c531659141344cd1fd0a4f28419497f9722a3daafe3b4186f6b6457e0908290a3506010805460ff19166001179055600380546001600160a01b039485166001600160a01b0319918216179091556002805493851661010002610100600160a81b031990941693909317909255600580549184169183169190911790556004805493909216928116929092179055600680549091163317905562000185565b3390565b80516001600160a01b03811681146200011f57600080fd5b92915050565b600080600080608085870312156200013b578384fd5b62000147868662000107565b935062000158866020870162000107565b925062000169866040870162000107565b91506200017a866060870162000107565b905092959194509250565b614c2b80620001956000396000f3fe6080604052600436106102ca5760003560e01c8063862d77ba11610179578063ac6f0cc8116100d6578063f3fef3a31161008a578063f7d5b2d911610064578063f7d5b2d914610737578063fbd2eb7c14610757578063fdb8725214610777576102d1565b8063f3fef3a3146106d7578063f46901ed146106f7578063f7888aec14610717576102d1565b8063d7755b8b116100bb578063d7755b8b14610682578063f2428621146106a2578063f2fde38b146106b7576102d1565b8063ac6f0cc814610642578063c0e863c314610662576102d1565b80639c5e52d51161012d578063a1b4d01111610112578063a1b4d011146105e4578063a66eb9ac146105f9578063a85c38ef1461060e576102d1565b80639c5e52d5146105a45780639c7ad7f4146105c4576102d1565b8063918f86741161015e578063918f86741461054f57806396ed28f91461056457806399117be914610584576102d1565b8063862d77ba1461051a5780638da5cb5b1461053a576102d1565b8063584c617e11610227578063715018a6116101db5780637623cccb116101c05780637623cccb146104c35780637bea0d1c146104e3578063803289fe14610505576102d1565b8063715018a61461049b57806375bca923146104b0576102d1565b8063613436bc1161020c578063613436bc1461043b578063683b6d291461045b5780636d0b6a6c1461047b576102d1565b8063584c617e14610404578063597e1fb514610419576102d1565b80632c58870b1161027e578063514fcac711610263578063514fcac7146103ad578063523439e6146103cf57806352e86d5b146103e4576102d1565b80632c58870b1461037857806345e6607114610398576102d1565b80631cf60222116102af5780631cf60222146103235780631d20980a1461034357806325c9e27614610363576102d1565b8063017e7e58146102d6578063163de5e514610301576102d1565b366102d157005b600080fd5b3480156102e257600080fd5b506102eb610797565b6040516102f891906141c1565b60405180910390f35b34801561030d57600080fd5b506103166107a6565b6040516102f89190614a9f565b34801561032f57600080fd5b5061031661033e366004613fa2565b6107ac565b34801561034f57600080fd5b5061031661035e366004613fe9565b6107da565b34801561036f57600080fd5b506102eb6107f3565b34801561038457600080fd5b50610316610393366004613fe9565b610802565b3480156103a457600080fd5b506102eb610814565b3480156103b957600080fd5b506103cd6103c8366004613fe9565b610823565b005b3480156103db57600080fd5b506103166110f7565b3480156103f057600080fd5b506103166103ff366004614019565b6110fd565b34801561041057600080fd5b50610316611116565b34801561042557600080fd5b5061042e61111c565b6040516102f89190614370565b34801561044757600080fd5b50610316610456366004613fe9565b611125565b34801561046757600080fd5b506103cd610476366004613f62565b61112b565b34801561048757600080fd5b50610316610496366004614019565b611201565b3480156104a757600080fd5b506103cd61121f565b6103166104be366004613efe565b6112a8565b3480156104cf57600080fd5b5061042e6104de366004613fe9565b61195b565b3480156104ef57600080fd5b506104f8611982565b6040516102f891906142c6565b34801561051157600080fd5b506103cd611b4f565b34801561052657600080fd5b50610316610535366004614019565b611b9a565b34801561054657600080fd5b506102eb611bb4565b34801561055b57600080fd5b50610316611bc3565b34801561057057600080fd5b5061031661057f366004613ec6565b611bc9565b34801561059057600080fd5b5061031661059f366004613fe9565b611bec565b3480156105b057600080fd5b506103166105bf366004613e8e565b611cb5565b3480156105d057600080fd5b506103cd6105df366004613f62565b611cc7565b3480156105f057600080fd5b506102eb611d67565b34801561060557600080fd5b506103cd611d76565b34801561061a57600080fd5b5061062e610629366004613fe9565b611dc4565b6040516102f8989796959493929190614b04565b34801561064e57600080fd5b5061031661065d366004613fe9565b611e72565b34801561066e57600080fd5b506103cd61067d366004613fa2565b611f31565b34801561068e57600080fd5b5061031661069d366004614019565b611f8c565b3480156106ae57600080fd5b506102eb611f93565b3480156106c357600080fd5b506103cd6106d2366004613e8e565b611fa7565b3480156106e357600080fd5b506103cd6106f2366004613fa2565b612067565b34801561070357600080fd5b506103cd610712366004613e8e565b6120e6565b34801561072357600080fd5b50610316610732366004613ec6565b612147565b61074a61074536600461403a565b612164565b6040516102f89190614a38565b34801561076357600080fd5b50610316610772366004613fa2565b61283d565b34801561078357600080fd5b506103cd610792366004613fa2565b612856565b6006546001600160a01b031681565b60015481565b600d60205281600052604060002081815481106107c557fe5b90600052602060002001600091509150505481565b6fffffffffffffffffffffffffffffffff81165b919050565b6004546001600160a01b031681565b60096020526000908152604090205481565b6005546001600160a01b031681565b60105460ff1661084e5760405162461bcd60e51b815260040161084590614a01565b60405180910390fd5b6010805460ff191690556000818152600c6020526040812060048101549091906108779061195b565b905080156108d157610887611bb4565b6001600160a01b0316336001600160a01b031614806108b057506005546001600160a01b031633145b6108cc5760405162461bcd60e51b81526004016108459061485a565b610920565b6108d9611bb4565b6001600160a01b0316336001600160a01b03161480610904575060058201546001600160a01b031633145b6109205760405162461bcd60e51b815260040161084590614721565b61092d82600401546128e5565b1561094a5760405162461bcd60e51b815260040161084590614758565b60078201546009830154600d840154600c8501546001600160a01b03938416939092169160009161097b91906128ed565b9050816001600160a01b0316836001600160a01b031614610dfe57808015610df8576003546000906001600160a01b0385811691161415610bd15760408051808201909152600c81527f72656465656d20634554483a000000000000000000000000000000000000000060208201526003546005890154610a0992916001600160a01b03908116911661292f565b604080518082018252601681527f636173483a2025642072656465656d416d743a2025640000000000000000000060208083019190915260035483517f3b1d21a20000000000000000000000000000000000000000000000000000000081529351610ad9946001600160a01b0390921692633b1d21a29260048082019391829003018186803b158015610a9b57600080fd5b505afa158015610aaf573d6000803e3d6000fd5b505050506040513d601f19601f82011682018060405250810190610ad39190614001565b8461298f565b5060035460405163db006a7560e01b815247916000916001600160a01b039091169063db006a7590610b0f908690600401614a9f565b602060405180830381600087803b158015610b2957600080fd5b505af1158015610b3d573d6000803e3d6000fd5b505050506040513d601f19601f82011682018060405250810190610b619190614001565b9050610ba36040518060400160405280600c81526020017f72656465656d20636574683a0000000000000000000000000000000000000000815250828561298f565b6000610baf47846128ed565b60058a0154909150610bca906001600160a01b0316826129ef565b5050610df6565b610c116040518060400160405280600d81526020017f72656465656d20746f6b656e3a000000000000000000000000000000000000008152508584612a7c565b6040516370a0823160e01b81526001600160a01b038616906370a0823190610c3d9030906004016141c1565b60206040518083038186803b158015610c5557600080fd5b505afa158015610c69573d6000803e3d6000fd5b505050506040513d601f19601f82011682018060405250810190610c8d9190614001565b60405163db006a7560e01b81529091506001600160a01b0385169063db006a7590610cbc908590600401614a9f565b602060405180830381600087803b158015610cd657600080fd5b505af1158015610cea573d6000803e3d6000fd5b505050506040513d601f19601f82011682018060405250810190610d0e9190614001565b506000610d9782876001600160a01b03166370a08231306040518263ffffffff1660e01b8152600401610d4191906141c1565b60206040518083038186803b158015610d5957600080fd5b505afa158015610d6d573d6000803e3d6000fd5b505050506040513d601f19601f82011682018060405250810190610d919190614001565b906128ed565b6005890154909150610db49087906001600160a01b031683612adc565b610df46040518060400160405280601481526020017f72656465656d20746f6b656e20737563636573730000000000000000000000008152508685612a7c565b505b505b50610e18565b6005850154610e189084906001600160a01b031683612adc565b83610f0757600a85015460088601546001600160a01b039182166000818152600b6020908152604080832060068c0154871684529091529020549092909116908015610eff5760408051808201909152601b81527f77697468647261772066756c66696c656420746f206d616b65723a000000000060208201526006890154610eab91906001600160a01b031683612a7c565b816001600160a01b0316836001600160a01b03161415610ee4576006880154610edf906001600160a01b0316848380612bca565b610eff565b6006880154610eff906001600160a01b031683858480612c11565b505050610f9e565b6005546006860154600887015460078801546040517fb7d9d9d40000000000000000000000000000000000000000000000000000000081526001600160a01b039485169463b7d9d9d494610f6b949082169389939183169216908890600401614222565b600060405180830381600087803b158015610f8557600080fd5b505af1158015610f99573d6000803e3d6000fd5b505050505b6008850154600786015460058701546040516001600160a01b039384169392831692909116907fa263a8e516fa313745abfe43252b015249ad3c987ae268d37531ce67364d7acf90610ff1908b90614a9f565b60405180910390a4600485018054600190811791829055604080516101008082018352895482529289015460208083019190915260028a01548284015260038a015460608084019190915260808084019690965260058b01546001600160a01b0390811660a08086019190915260068d0154821660c0808701919091528651978801875260078e01548316885260088e015483169488019490945260098d0154821695870195909552600a8c01541690850152600b8a015494840194909452600c89015491830191909152600d88015492820192909252600e87015460e0828101919091528201526110e290612e3a565b50506010805460ff1916600117905550505050565b60075481565b600f60205281600052604060002081815481106107c557fe5b60085481565b60025460ff1681565b60801c90565b61113361319b565b6001600160a01b0316611144611bb4565b6001600160a01b03161461116a5760405162461bcd60e51b81526004016108459061467e565b6000611176848461319f565b6040517f24637ce0000000000000000000000000000000000000000000000000000000008152909150738Cd3e4E20295587f55AD202838f99cded381d51a906324637ce0906111cb9084908690600401614aa8565b60006040518083038186803b1580156111e357600080fd5b505af41580156111f7573d6000803e3d6000fd5b5050505050505050565b600061120c82611125565b611215846107da565b1790505b92915050565b61122761319b565b6001600160a01b0316611238611bb4565b6001600160a01b03161461125e5760405162461bcd60e51b81526004016108459061467e565b600080546040516001600160a01b03909116907f8be0079c531659141344cd1fd0a4f28419497f9722a3daafe3b4186f6b6457e0908390a3600080546001600160a01b0319169055565b60025460009060ff16156112ce5760405162461bcd60e51b815260040161084590614891565b60105460ff166112f05760405162461bcd60e51b815260040161084590614a01565b6010805460ff191690556001600160a01b0387811690871614156113265760405162461bcd60e51b8152600401610845906148ff565b6001600160a01b03871661135957833410156113545760405162461bcd60e51b8152600401610845906146ea565b611365565b611365873330876131de565b6001600160a01b0387166000908152600a6020526040902054841161139c5760405162461bcd60e51b81526004016108459061478f565b50600180548082019091556000818152600c602052604090208181556005810180546001600160a01b031916331790556001600160a01b038616156113e157856113e3565b335b6006820180546001600160a01b0319166001600160a01b0392909216919091179055426003820155600481018390556000600d8201819055611424896132cf565b6007830180546001600160a01b03808d166001600160a01b03199283168117909355600986018054918516919092168117909155600b8501899055919250146117e2576001600160a01b0389166115a2576003546040516370a0823160e01b81526000916001600160a01b0316906370a08231906114a69030906004016141c1565b60206040518083038186803b1580156114be57600080fd5b505afa1580156114d2573d6000803e3d6000fd5b505050506040513d601f19601f820116820180604052508101906114f69190614001565b9050600360009054906101000a90046001600160a01b03166001600160a01b0316631249c58b346040518263ffffffff1660e01b81526004016000604051808303818588803b15801561154857600080fd5b505af115801561155c573d6000803e3d6000fd5b50506003546040516370a0823160e01b815261159794508593506001600160a01b0390911691506370a0823190610d419030906004016141c1565b600c840155506117dd565b6040516370a0823160e01b81526000906001600160a01b038316906370a08231906115d19030906004016141c1565b60206040518083038186803b1580156115e957600080fd5b505afa1580156115fd573d6000803e3d6000fd5b505050506040513d601f19601f820116820180604052508101906116219190614001565b60405163095ea7b360e01b81529091506001600160a01b038b169063095ea7b3906116529085908b906004016142ad565b602060405180830381600087803b15801561166c57600080fd5b505af1158015611680573d6000803e3d6000fd5b505050506040513d601f19601f820116820180604052508101906116a49190613fcd565b5060405163140e25ad60e31b81526001600160a01b0383169063a0712d68906116d1908a90600401614a9f565b602060405180830381600087803b1580156116eb57600080fd5b505af11580156116ff573d6000803e3d6000fd5b505050506040513d601f19601f820116820180604052508101906117239190614001565b5060405163095ea7b360e01b81526001600160a01b0383169063095ea7b3906117539085906000906004016142ad565b602060405180830381600087803b15801561176d57600080fd5b505af1158015611781573d6000803e3d6000fd5b505050506040513d601f19601f820116820180604052508101906117a59190613fcd565b506117d681836001600160a01b03166370a08231306040518263ffffffff1660e01b8152600401610d4191906141c1565b600c840155505b6117ea565b600c82018690555b6008820180546001600160a01b0319166001600160a01b038a161790556000611812896132cf565b600a840180546001600160a01b038084166001600160a01b03199092168217909255600e86018990559192508b811684821614908b16909114146118685760405162461bcd60e51b815260040161084590614936565b6005546001600160a01b0316331415611929576118848561195b565b6118a05760405162461bcd60e51b8152600401610845906148c8565b896001600160a01b0316826001600160a01b0316146118d15760405162461bcd60e51b8152600401610845906145ea565b6001600160a01b0388163314156118fa5760405162461bcd60e51b8152600401610845906145b3565b600a8301546001600160a01b038a81169116146119295760405162461bcd60e51b815260040161084590614545565b61193382826134fb565b60028401556119418361352f565b50506010805460ff19166001179055509695505050505050565b7f800000000000000000000000000000000000000000000000000000000000000016151590565b606060008060005b6001548110156119c3576000818152600c60205260409020600401546119af816128e5565b6119ba576001909301925b5060010161198a565b508167ffffffffffffffff811180156119db57600080fd5b50604051908082528060200260200182016040528015611a1557816020015b611a02613d7b565b8152602001906001900390816119fa5790505b50925060005b600154811015611b4957611a2d613d7b565b506000818152600c6020818152604092839020835161010080820186528254825260018301548285015260028301548287015260038301546060808401919091526004840154608080850191825260058601546001600160a01b0390811660a0808801919091526006880154821660c0808901919091528b519687018c526007890154831687526008890154831699870199909952600988015482169a86019a909a52600a8701541692840192909252600b850154918301919091529483015495810195909552600d82015492850192909252600e015460e08481019190915281019290925251611b1d906128e5565b611b405780858481518110611b2e57fe5b60209081029190910101526001909201915b50600101611a1b565b50505090565b611b5761319b565b6001600160a01b0316611b68611bb4565b6001600160a01b031614611b8e5760405162461bcd60e51b81526004016108459061467e565b6002805460ff19169055565b6fffffffffffffffffffffffffffffffff19919091161790565b6000546001600160a01b031690565b61271081565b6000611be5611bd784613668565b611be084613668565b6134fb565b9392505050565b60008181526009602052604080822090517f652bccd30000000000000000000000000000000000000000000000000000000081528291738Cd3e4E20295587f55AD202838f99cded381d51a9163652bccd391611c4a91600401614a9f565b60206040518083038186803b158015611c6257600080fd5b505af4158015611c76573d6000803e3d6000fd5b505050506040513d601f19601f82011682018060405250810190611c9a9190614001565b905080611cab5750506007546107ee565b6000190192915050565b600a6020526000908152604090205481565b611ccf61319b565b6001600160a01b0316611ce0611bb4565b6001600160a01b031614611d065760405162461bcd60e51b81526004016108459061467e565b6000611d12848461319f565b6040517f32b914bf000000000000000000000000000000000000000000000000000000008152909150738Cd3e4E20295587f55AD202838f99cded381d51a906332b914bf906111cb9084908690600401614aa8565b6003546001600160a01b031681565b611d7e61319b565b6001600160a01b0316611d8f611bb4565b6001600160a01b031614611db55760405162461bcd60e51b81526004016108459061467e565b6002805460ff19166001179055565b600c6020818152600092835260409283902080546001820154600283015460038401546004850154600586015460068701548a5161010081018c5260078901546001600160a01b03908116825260088a015481169a82019a909a5260098901548a169b81019b909b52600a880154891660608c0152600b88015460808c01529887015460a08b0152600d87015460c08b0152600e9096015460e08a0152939792969195909481169291169088565b60008181526009602052604080822090517fa645cb6d0000000000000000000000000000000000000000000000000000000081528291738Cd3e4E20295587f55AD202838f99cded381d51a9163a645cb6d91611ed091600401614a9f565b60206040518083038186803b158015611ee857600080fd5b505af4158015611efc573d6000803e3d6000fd5b505050506040513d601f19601f82011682018060405250810190611f209190614001565b905080611cab5750506008546107ee565b611f3961319b565b6001600160a01b0316611f4a611bb4565b6001600160a01b031614611f705760405162461bcd60e51b81526004016108459061467e565b6001600160a01b039091166000908152600a6020526040902055565b60801b1790565b60025461010090046001600160a01b031681565b611faf61319b565b6001600160a01b0316611fc0611bb4565b6001600160a01b031614611fe65760405162461bcd60e51b81526004016108459061467e565b6001600160a01b03811661200c5760405162461bcd60e51b81526004016108459061447a565b600080546040516001600160a01b03808516939216917f8be0079c531659141344cd1fd0a4f28419497f9722a3daafe3b4186f6b6457e091a3600080546001600160a01b0319166001600160a01b0392909216919091179055565b6001600160a01b0382166000908152600b60209081526040808320338452909152902054806120a85760405162461bcd60e51b8152600401610845906146b3565b816120b5578091506120d5565b818110156120d55760405162461bcd60e51b81526004016108459061496d565b6120e133848385612bca565b505050565b6120ee61319b565b6001600160a01b03166120ff611bb4565b6001600160a01b0316146121255760405162461bcd60e51b81526004016108459061467e565b600680546001600160a01b0319166001600160a01b0392909216919091179055565b600b60209081526000928352604080842090915290825290205481565b61216c613dd7565b60025460ff161561218f5760405162461bcd60e51b815260040161084590614891565b60105460ff166121b15760405162461bcd60e51b815260040161084590614a01565b6010805460ff191690556000888152600c602052604090206004810154600116156121dc5750612825565b6121e4613e25565b50604080516101008101825260078301546001600160a01b0390811682526008840154811660208301526009840154811692820192909252600a83015482166060820152600b8301546080820152600c83015460a0820152600d83015460c0820152600e83015460e082015290881661225b573397505b86151583526020830189905260c081015160a082015160009161227e91906128ed565b9050808a11156122ad57866122a55760405162461bcd60e51b815260040161084590614823565b602084018190525b506122bd81848460020154613744565b6122ed604051806060016040528060218152602001614bac6021913984608001518560c0015186602001516139e9565b600a82015460098301546001600160a01b039182169116881561243557608085015160405163095ea7b360e01b81526001600160a01b0383169163095ea7b39161233b9185916004016142ad565b602060405180830381600087803b15801561235557600080fd5b505af1158015612369573d6000803e3d6000fd5b505050506040513d601f19601f8201168201806040525081019061238d9190613fcd565b50608085015160405163db006a7560e01b81526001600160a01b0383169163db006a75916123be9190600401614a9f565b602060405180830381600087803b1580156123d857600080fd5b505af11580156123ec573d6000803e3d6000fd5b505050506040513d601f19601f820116820180604052508101906124109190614001565b50600784015460a0860151612430916001600160a01b0316908c90612adc565b612444565b612444818b8760800151612adc565b61247b604051806060016040528060298152602001614bcd60299139600786015460a08801516001600160a01b0390911690612a7c565b85156125e7576040516370a0823160e01b81526000906001600160a01b038416906370a08231906124b09030906004016141c1565b60206040518083038186803b1580156124c857600080fd5b505afa1580156124dc573d6000803e3d6000fd5b505050506040513d601f19601f820116820180604052508101906125009190614001565b608087015160e08801516040517f226dc8820000000000000000000000000000000000000000000000000000000081529293506001600160a01b038e169263226dc882926125569233928e908e906004016141d5565b600060405180830381600087803b15801561257057600080fd5b505af1158015612584573d6000803e3d6000fd5b5050505060006125ba82856001600160a01b03166370a08231306040518263ffffffff1660e01b8152600401610d4191906141c1565b90508660e001518110156125e05760405162461bcd60e51b81526004016108459061450e565b505061274d565b881561273d5760088401546101008601516001600160a01b0390911690612613908290339030906131de565b61010086015160405163095ea7b360e01b81526001600160a01b0383169163095ea7b3916126459187916004016142ad565b602060405180830381600087803b15801561265f57600080fd5b505af1158015612673573d6000803e3d6000fd5b505050506040513d601f19601f820116820180604052508101906126979190613fcd565b5061010086015160405163140e25ad60e31b81526000916001600160a01b0386169163a0712d68916126cb91600401614a9f565b602060405180830381600087803b1580156126e557600080fd5b505af11580156126f9573d6000803e3d6000fd5b505050506040513d601f19601f8201168201806040525081019061271d9190614001565b905080156125e05760405162461bcd60e51b81526004016108459061457c565b61274d8233308860e001516131de565b6040850151156127765760065460408601516127769183916001600160a01b0390911690612adc565b60608501511561279f57600654606086015161279f9184916001600160a01b0390911690612adc565b6127b28486602001518760c00151613a4b565b336001600160a01b03168460050160009054906101000a90046001600160a01b03166001600160a01b03167fd00ede2e0292fd63d9ba8b4b572003009a04bcdf39cd75ac9684433d20de7ebf8e88602001518960c0015160405161281893929190614ad3565b60405180910390a3505050505b6010805460ff19166001179055979650505050505050565b600e60205281600052604060002081815481106107c557fe5b600061286183613668565b6001600160a01b0381166000908152600b60209081526040808320338452909152902054909150806128a55760405162461bcd60e51b8152600401610845906146b3565b826128b2578092506128d2565b828110156128d25760405162461bcd60e51b81526004016108459061496d565b6128df3385848487612c11565b50505050565b600116151590565b6000611be583836040518060400160405280601e81526020017f536166654d6174683a207375627472616374696f6e206f766572666c6f770000815250613c56565b6120e18383836040516024016129479392919061438e565b60408051601f198184030181529190526020810180516001600160e01b03167ffcec75e000000000000000000000000000000000000000000000000000000000179052613c82565b6120e18383836040516024016129a7939291906143ef565b60408051601f198184030181529190526020810180516001600160e01b03167f969cdd0300000000000000000000000000000000000000000000000000000000179052613c82565b604080516000808252602082019092526001600160a01b038416908390604051612a1991906141a5565b60006040518083038185875af1925050503d8060008114612a56576040519150601f19603f3d011682016040523d82523d6000602084013e612a5b565b606091505b50509050806120e15760405162461bcd60e51b8152600401610845906147c6565b6120e1838383604051602401612a94939291906143c1565b60408051601f198184030181529190526020810180516001600160e01b03167f07c8121700000000000000000000000000000000000000000000000000000000179052613c82565b60006060846001600160a01b031663a9059cbb8585604051602401612b029291906142ad565b6040516020818303038152906040529060e01b6020820180516001600160e01b038381831617835250505050604051612b3b91906141a5565b6000604051808303816000865af19150503d8060008114612b78576040519150601f19603f3d011682016040523d82523d6000602084013e612b7d565b606091505b5091509150818015612ba7575080511580612ba7575080806020019051810190612ba79190613fcd565b612bc35760405162461bcd60e51b815260040161084590614443565b5050505050565b612bd5838583612adc565b612bdf82826128ed565b6001600160a01b039384166000908152600b602090815260408083209790961682529590955292909320919091555050565b612c1b82826128ed565b6001600160a01b038085166000818152600b602090815260408083208b86168452909152902092909255600354161415612cf15760035460405163db006a7560e01b815247916001600160a01b03169063db006a7590612c7f908590600401614a9f565b602060405180830381600087803b158015612c9957600080fd5b505af1158015612cad573d6000803e3d6000fd5b505050506040513d601f19601f82011682018060405250810190612cd19190614001565b506000612cde47836128ed565b9050612cea87826129ef565b5050612bc3565b6040516370a0823160e01b81526000906001600160a01b038616906370a0823190612d209030906004016141c1565b60206040518083038186803b158015612d3857600080fd5b505afa158015612d4c573d6000803e3d6000fd5b505050506040513d601f19601f82011682018060405250810190612d709190614001565b60405163db006a7560e01b81529091506001600160a01b0385169063db006a7590612d9f908590600401614a9f565b602060405180830381600087803b158015612db957600080fd5b505af1158015612dcd573d6000803e3d6000fd5b505050506040513d601f19601f82011682018060405250810190612df19190614001565b506000612e2482876001600160a01b03166370a08231306040518263ffffffff1660e01b8152600401610d4191906141c1565b9050612e31868883612adc565b50505050505050565b6000612e4982602001516107da565b90506000612e5a8360200151611125565b905060008360a001519050600080612e75866080015161195b565b90508015612f895760c08601516001600160a01b0381166000908152600d602052604090205490935060001901848114612f4c576001600160a01b0384166000908152600d60205260409020805482908110612ecd57fe5b9060005260206000200154925082600d6000866001600160a01b03166001600160a01b031681526020019081526020016000208681548110612f0b57fe5b9060005260206000200181905550612f39600c60008581526020019081526020016000206001015486611201565b6000848152600c60205260409020600101555b6001600160a01b0384166000908152600d60205260409020805480612f6d57fe5b6001900381819060005260206000200160009055905550613089565b6001600160a01b0383166000908152600e602052604090205460001901848114613050576001600160a01b0384166000908152600e60205260409020805482908110612fd157fe5b9060005260206000200154925082600e6000866001600160a01b03166001600160a01b03168152602001908152602001600020868154811061300f57fe5b906000526020600020018190555061303d600c60008581526020019081526020016000206001015486611201565b6000848152600c60205260409020600101555b6001600160a01b0384166000908152600e6020526040902080548061307157fe5b60019003818190600052602060002001600090559055505b6040808701516000908152600f602052205460011080156130bf57506040808701516000908152600f6020522054600019018514155b1561316357604080870180516000908152600f60205282812091518152919091205481546000199091019081106130f257fe5b9060005260206000200154915081600f600088604001518152602001908152602001600020868154811061312257fe5b9060005260206000200181905550613150600c60008481526020019081526020016000206001015486611b9a565b6000838152600c60205260409020600101555b6040808701516000908152600f6020522080548061317d57fe5b60019003818190600052602060002001600090559055505050505050565b3390565b6000806131ab84613668565b905060006131b884613668565b905060006131c683836134fb565b60009081526009602052604090209695505050505050565b60006060856001600160a01b03166323b872dd86868660405160240161320693929190614289565b6040516020818303038152906040529060e01b6020820180516001600160e01b03838183161783525050505060405161323f91906141a5565b6000604051808303816000865af19150503d806000811461327c576040519150601f19603f3d011682016040523d82523d6000602084013e613281565b606091505b50915091508180156132ab5750805115806132ab5750808060200190518101906132ab9190613fcd565b6132c75760405162461bcd60e51b8152600401610845906149a4565b505050505050565b60006001600160a01b03821615806132f957506002546001600160a01b0383811661010090920416145b1561331057506003546001600160a01b03166107ee565b6004805460405163714bca1f60e11b81526000926001600160a01b039092169163e297943e91613342918791016141c1565b60206040518083038186803b15801561335a57600080fd5b505afa15801561336e573d6000803e3d6000fd5b505050506040513d601f19601f820116820180604052508101906133929190613eaa565b90506001600160a01b03811661121957600480546040517fb8d7b6690000000000000000000000000000000000000000000000000000000081526000926001600160a01b039092169163b8d7b669916133ed918891016141c1565b60206040518083038186803b15801561340557600080fd5b505afa158015613419573d6000803e3d6000fd5b505050506040513d601f19601f8201168201806040525081019061343d9190613eaa565b90506001600160a01b038116156134585783925050506107ee565b600480546040517f26c7bd930000000000000000000000000000000000000000000000000000000081526001600160a01b03909116916326c7bd93916134a0918891016141c1565b602060405180830381600087803b1580156134ba57600080fd5b505af11580156134ce573d6000803e3d6000fd5b505050506040513d601f19601f820116820180604052508101906134f29190613eaa565b925050506107ee565b6000828260405160200161351092919061417e565b60408051601f1981840301815291905280516020909101209392505050565b8054600482015460006135418261195b565b600585015490915060009081906001600160a01b03168315613595575060068601546001600160a01b03166000818152600d60209081526040822080546001810182559083529120810187905592506135c4565b6001600160a01b0381166000908152600e60209081526040822080546001810182559083529120810187905592505b60028701546000908152600f60209081526040822080546001810182559083529120810187905591506135f78284611f8c565b600188015560088701546007880154600b890154600e8a01546040516001600160a01b0394851694938416938616927fc8419e5c94126588374d91d4332ef5d56223abb9c42776b667e899ccff2c5f2792613657928d9291908d90614ae9565b60405180910390a450505050505050565b60006001600160a01b038216158061369257506002546001600160a01b0383811661010090920416145b156136a957506003546001600160a01b03166107ee565b6004805460405163714bca1f60e11b81526000926001600160a01b039092169163e297943e916136db918791016141c1565b60206040518083038186803b1580156136f357600080fd5b505afa158015613707573d6000803e3d6000fd5b505050506040513d601f19601f8201168201806040525081019061372b9190613eaa565b90506001600160a01b03811661121957829150506107ee565b60208201516040517f78cbe0510000000000000000000000000000000000000000000000000000000081527307F2471243491622743d9bC38A5d0eE8deD15Ed7906378cbe0519061379b9087908590600401614ab6565b60206040518083038186803b1580156137b357600080fd5b505af41580156137c7573d6000803e3d6000fd5b505050506040513d601f19601f820116820180604052508101906137eb9190614001565b60e084015261380f61271061380961380285611e72565b8490613ca3565b90613cdd565b604084015261382661271061380961380285611bec565b6060840152604083015161383b9082906128ed565b6080840152606083015160e0840151613853916128ed565b60c08401528251156128df5760408085015190517f0bbc1cea0000000000000000000000000000000000000000000000000000000081526000917307F2471243491622743d9bC38A5d0eE8deD15Ed791630bbc1cea916138b5916004016141c1565b60206040518083038186803b1580156138cd57600080fd5b505af41580156138e1573d6000803e3d6000fd5b505050506040513d601f19601f820116820180604052508101906139059190614001565b905060007307F2471243491622743d9bC38A5d0eE8deD15Ed7630bbc1cea87606001516040518263ffffffff1660e01b815260040161394491906141c1565b60206040518083038186803b15801561395c57600080fd5b505af4158015613970573d6000803e3d6000fd5b505050506040513d601f19601f820116820180604052508101906139949190614001565b90506139b9670de0b6b3a7640000613809848860800151613ca390919063ffffffff16565b60a086015260e08501516139db90670de0b6b3a7640000906138099084613ca3565b610100860152505050505050565b6128df84848484604051602401613a039493929190614414565b60408051601f198184030181529190526020810180516001600160e01b03167f08ee566600000000000000000000000000000000000000000000000000000000179052613c82565b60068301546009840154600a85015460048601546001600160a01b03938416939283169290911690613a7c9061195b565b15613b2157600554613a999082906001600160a01b031686612adc565b6005546040517f1889ae210000000000000000000000000000000000000000000000000000000081526001600160a01b0390911690631889ae2190613aea908690869086908a908c90600401614255565b600060405180830381600087803b158015613b0457600080fd5b505af1158015613b18573d6000803e3d6000fd5b50505050613b4d565b6001600160a01b038082166000908152600b602090815260408083209387168352929052208054850190555b600d860154613b5c9086613d1f565b600d8701819055600c870154116132c7576004860180546001908117918290556040805161010080820183528a548252928a015460208083019190915260028b01548284015260038b015460608084019190915260808084019690965260058c01546001600160a01b0390811660a08086019190915260068e0154821660c0808701919091528651978801875260078f01548316885260088f015483169488019490945260098e0154821695870195909552600a8d01541690850152600b8b015494840194909452600c8a015491830191909152600d89015492820192909252600e88015460e0828101919091528201526132c790612e3a565b60008184841115613c7a5760405162461bcd60e51b8152600401610845919061437b565b505050900390565b80516a636f6e736f6c652e6c6f67602083016000808483855afa5050505050565b600082613cb257506000611219565b82820282848281613cbf57fe5b0414611be55760405162461bcd60e51b815260040161084590614621565b6000611be583836040518060400160405280601a81526020017f536166654d6174683a206469766973696f6e206279207a65726f000000000000815250613d44565b600082820183811015611be55760405162461bcd60e51b8152600401610845906144d7565b60008183613d655760405162461bcd60e51b8152600401610845919061437b565b506000838581613d7157fe5b0495945050505050565b604051806101000160405280600081526020016000815260200160008152602001600081526020016000815260200160006001600160a01b0316815260200160006001600160a01b03168152602001613dd2613e25565b905290565b60405180610120016040528060001515815260200160008152602001600081526020016000815260200160008152602001600081526020016000815260200160008152602001600081525090565b60405180610100016040528060006001600160a01b0316815260200160006001600160a01b0316815260200160006001600160a01b0316815260200160006001600160a01b03168152602001600081526020016000815260200160008152602001600081525090565b600060208284031215613e9f578081fd5b8135611be581614b85565b600060208284031215613ebb578081fd5b8151611be581614b85565b60008060408385031215613ed8578081fd5b8235613ee381614b85565b91506020830135613ef381614b85565b809150509250929050565b60008060008060008060c08789031215613f16578182fd5b8635613f2181614b85565b95506020870135613f3181614b85565b94506040870135613f4181614b85565b959894975094956060810135955060808101359460a0909101359350915050565b600080600060608486031215613f76578283fd5b8335613f8181614b85565b92506020840135613f9181614b85565b929592945050506040919091013590565b60008060408385031215613fb4578182fd5b8235613fbf81614b85565b946020939093013593505050565b600060208284031215613fde578081fd5b8151611be581614b9d565b600060208284031215613ffa578081fd5b5035919050565b600060208284031215614012578081fd5b5051919050565b6000806040838503121561402b578182fd5b50508035926020909101359150565b600080600080600080600060c0888a031215614054578081fd5b8735965060208801359550604088013561406d81614b85565b9450606088013561407d81614b9d565b9350608088013561408d81614b9d565b925060a088013567ffffffffffffffff808211156140a9578283fd5b818a0191508a601f8301126140bc578283fd5b8135818111156140ca578384fd5b8b60208285010111156140db578384fd5b60208301945080935050505092959891949750929550565b6000815180845261410b816020860160208601614b59565b601f01601f19169290920160200192915050565b6001600160a01b03808251168352806020830151166020840152806040830151166040840152806060830151166060840152506080810151608083015260a081015160a083015260c081015160c083015260e081015160e08301525050565b6bffffffffffffffffffffffff19606093841b811682529190921b16601482015260280190565b600082516141b7818460208701614b59565b9190910192915050565b6001600160a01b0391909116815260200190565b60006001600160a01b038716825285602083015284604083015260806060830152826080830152828460a084013781830160a090810191909152601f909201601f19160101949350505050565b6001600160a01b039586168152938516602085015291841660408401529092166060820152608081019190915260a00190565b6001600160a01b03958616815293851660208501529190931660408301526060820192909252608081019190915260a00190565b6001600160a01b039384168152919092166020820152604081019190915260600190565b6001600160a01b03929092168252602082015260400190565b602080825282518282018190526000919060409081850190868401855b828110156143635781518051855286810151878601528581015186860152606080820151908601526080808201519086015260a0808201516001600160a01b039081169187019190915260c0808301519091169086015260e0908101519061434d8187018361411f565b50506101e09390930192908501906001016142e3565b5091979650505050505050565b901515815260200190565b600060208252611be560208301846140f3565b6000606082526143a160608301866140f3565b6001600160a01b0394851660208401529290931660409091015292915050565b6000606082526143d460608301866140f3565b6001600160a01b039490941660208301525060400152919050565b60006060825261440260608301866140f3565b60208301949094525060400152919050565b60006080825261442760808301876140f3565b6020830195909552506040810192909252606090910152919050565b6020808252601f908201527f5472616e7366657248656c7065723a205452414e534645525f4641494c454400604082015260600190565b60208082526026908201527f4f776e61626c653a206e6577206f776e657220697320746865207a65726f206160408201527f6464726573730000000000000000000000000000000000000000000000000000606082015260800190565b6020808252601b908201527f536166654d6174683a206164646974696f6e206f766572666c6f770000000000604082015260600190565b6020808252600a908201527f6e6f7420656e6f75676800000000000000000000000000000000000000000000604082015260600190565b60208082526015908201527f646573742073686f756c642062652065746f6b656e0000000000000000000000604082015260600190565b6020808252600b908201527f6d696e74206661696c6564000000000000000000000000000000000000000000604082015260600190565b6020808252601b908201527f746f2073686f756c642062652075736572277320616464726573730000000000604082015260600190565b60208082526014908201527f7372632073686f756c642062652065746f6b656e000000000000000000000000604082015260600190565b60208082526021908201527f536166654d6174683a206d756c7469706c69636174696f6e206f766572666c6f60408201527f7700000000000000000000000000000000000000000000000000000000000000606082015260800190565b6020808252818101527f4f776e61626c653a2063616c6c6572206973206e6f7420746865206f776e6572604082015260600190565b60208082526008908201527f6e6f206173736574000000000000000000000000000000000000000000000000604082015260600190565b60208082526013908201527f6e6f7420656e6f75676820616d6f756e74496e00000000000000000000000000604082015260600190565b60208082526014908201527f63616e63656c4f726465723a206e6f2061757468000000000000000000000000604082015260600190565b60208082526015908201527f6f7264657220686173206265656e20636c6f7365640000000000000000000000604082015260600190565b60208082526014908201527f6c657373207468616e206d696e20616d6f756e74000000000000000000000000604082015260600190565b60208082526023908201527f5472616e7366657248656c7065723a204554485f5452414e534645525f46414960408201527f4c45440000000000000000000000000000000000000000000000000000000000606082015260800190565b60208082526014908201527f6e6f7420656e6f75676820746f2066756c66696c000000000000000000000000604082015260600190565b6020808252601a908201527f63616e63656c4d617267696e4f726465723a206e6f2061757468000000000000604082015260600190565b60208082526011908201527f6f7264657220626f6f6b20636c6f736564000000000000000000000000000000604082015260600190565b60208082526015908201527f666c61672073686f756c64206265206d617267696e0000000000000000000000604082015260600190565b6020808252600f908201527f6964656e746963616c20746f6b656e0000000000000000000000000000000000604082015260600190565b60208082526014908201527f626f746820746f6b656e206f722065746f6b656e000000000000000000000000604082015260600190565b60208082526010908201527f6e6f7420656e6f75676820617373657400000000000000000000000000000000604082015260600190565b60208082526024908201527f5472616e7366657248656c7065723a205452414e534645525f46524f4d5f464160408201527f494c454400000000000000000000000000000000000000000000000000000000606082015260800190565b6020808252601f908201527f5265656e7472616e637947756172643a207265656e7472616e742063616c6c00604082015260600190565b6000610120820190508251151582526020830151602083015260408301516040830152606083015160608301526080830151608083015260a083015160a083015260c083015160c083015260e083015160e083015261010080840151818401525092915050565b90815260200190565b918252602082015260400190565b6101208101614ac5828561411f565b826101008301529392505050565b9283526020830191909152604082015260600190565b93845260208401929092526040830152606082015260800190565b888152602081018890526040810187905260608101869052608081018590526001600160a01b0384811660a0830152831660c08201526101e08101614b4c60e083018461411f565b9998505050505050505050565b60005b83811015614b74578181015183820152602001614b5c565b838111156128df5750506000910152565b6001600160a01b0381168114614b9a57600080fd5b50565b8015158114614b9a57600080fdfe74616b6572416d743d2564206d616b6572416d743d25642066696c6c65643d25647472616e7366657220737263546f6b656e20746f2074616b657220737563636573733a202573202564a2646970667358221220a079ada6c7d7d9d15545fa7e83fc352601a76e3e2e7d3879342bc44eb35fb41664736f6c634300060c0033",
  "deployedBytecode": "0x6080604052600436106102ca5760003560e01c8063862d77ba11610179578063ac6f0cc8116100d6578063f3fef3a31161008a578063f7d5b2d911610064578063f7d5b2d914610737578063fbd2eb7c14610757578063fdb8725214610777576102d1565b8063f3fef3a3146106d7578063f46901ed146106f7578063f7888aec14610717576102d1565b8063d7755b8b116100bb578063d7755b8b14610682578063f2428621146106a2578063f2fde38b146106b7576102d1565b8063ac6f0cc814610642578063c0e863c314610662576102d1565b80639c5e52d51161012d578063a1b4d01111610112578063a1b4d011146105e4578063a66eb9ac146105f9578063a85c38ef1461060e576102d1565b80639c5e52d5146105a45780639c7ad7f4146105c4576102d1565b8063918f86741161015e578063918f86741461054f57806396ed28f91461056457806399117be914610584576102d1565b8063862d77ba1461051a5780638da5cb5b1461053a576102d1565b8063584c617e11610227578063715018a6116101db5780637623cccb116101c05780637623cccb146104c35780637bea0d1c146104e3578063803289fe14610505576102d1565b8063715018a61461049b57806375bca923146104b0576102d1565b8063613436bc1161020c578063613436bc1461043b578063683b6d291461045b5780636d0b6a6c1461047b576102d1565b8063584c617e14610404578063597e1fb514610419576102d1565b80632c58870b1161027e578063514fcac711610263578063514fcac7146103ad578063523439e6146103cf57806352e86d5b146103e4576102d1565b80632c58870b1461037857806345e6607114610398576102d1565b80631cf60222116102af5780631cf60222146103235780631d20980a1461034357806325c9e27614610363576102d1565b8063017e7e58146102d6578063163de5e514610301576102d1565b366102d157005b600080fd5b3480156102e257600080fd5b506102eb610797565b6040516102f891906141c1565b60405180910390f35b34801561030d57600080fd5b506103166107a6565b6040516102f89190614a9f565b34801561032f57600080fd5b5061031661033e366004613fa2565b6107ac565b34801561034f57600080fd5b5061031661035e366004613fe9565b6107da565b34801561036f57600080fd5b506102eb6107f3565b34801561038457600080fd5b50610316610393366004613fe9565b610802565b3480156103a457600080fd5b506102eb610814565b3480156103b957600080fd5b506103cd6103c8366004613fe9565b610823565b005b3480156103db57600080fd5b506103166110f7565b3480156103f057600080fd5b506103166103ff366004614019565b6110fd565b34801561041057600080fd5b50610316611116565b34801561042557600080fd5b5061042e61111c565b6040516102f89190614370565b34801561044757600080fd5b50610316610456366004613fe9565b611125565b34801561046757600080fd5b506103cd610476366004613f62565b61112b565b34801561048757600080fd5b50610316610496366004614019565b611201565b3480156104a757600080fd5b506103cd61121f565b6103166104be366004613efe565b6112a8565b3480156104cf57600080fd5b5061042e6104de366004613fe9565b61195b565b3480156104ef57600080fd5b506104f8611982565b6040516102f891906142c6565b34801561051157600080fd5b506103cd611b4f565b34801561052657600080fd5b50610316610535366004614019565b611b9a565b34801561054657600080fd5b506102eb611bb4565b34801561055b57600080fd5b50610316611bc3565b34801561057057600080fd5b5061031661057f366004613ec6565b611bc9565b34801561059057600080fd5b5061031661059f366004613fe9565b611bec565b3480156105b057600080fd5b506103166105bf366004613e8e565b611cb5565b3480156105d057600080fd5b506103cd6105df366004613f62565b611cc7565b3480156105f057600080fd5b506102eb611d67565b34801561060557600080fd5b506103cd611d76565b34801561061a57600080fd5b5061062e610629366004613fe9565b611dc4565b6040516102f8989796959493929190614b04565b34801561064e57600080fd5b5061031661065d366004613fe9565b611e72565b34801561066e57600080fd5b506103cd61067d366004613fa2565b611f31565b34801561068e57600080fd5b5061031661069d366004614019565b611f8c565b3480156106ae57600080fd5b506102eb611f93565b3480156106c357600080fd5b506103cd6106d2366004613e8e565b611fa7565b3480156106e357600080fd5b506103cd6106f2366004613fa2565b612067565b34801561070357600080fd5b506103cd610712366004613e8e565b6120e6565b34801561072357600080fd5b50610316610732366004613ec6565b612147565b61074a61074536600461403a565b612164565b6040516102f89190614a38565b34801561076357600080fd5b50610316610772366004613fa2565b61283d565b34801561078357600080fd5b506103cd610792366004613fa2565b612856565b6006546001600160a01b031681565b60015481565b600d60205281600052604060002081815481106107c557fe5b90600052602060002001600091509150505481565b6fffffffffffffffffffffffffffffffff81165b919050565b6004546001600160a01b031681565b60096020526000908152604090205481565b6005546001600160a01b031681565b60105460ff1661084e5760405162461bcd60e51b815260040161084590614a01565b60405180910390fd5b6010805460ff191690556000818152600c6020526040812060048101549091906108779061195b565b905080156108d157610887611bb4565b6001600160a01b0316336001600160a01b031614806108b057506005546001600160a01b031633145b6108cc5760405162461bcd60e51b81526004016108459061485a565b610920565b6108d9611bb4565b6001600160a01b0316336001600160a01b03161480610904575060058201546001600160a01b031633145b6109205760405162461bcd60e51b815260040161084590614721565b61092d82600401546128e5565b1561094a5760405162461bcd60e51b815260040161084590614758565b60078201546009830154600d840154600c8501546001600160a01b03938416939092169160009161097b91906128ed565b9050816001600160a01b0316836001600160a01b031614610dfe57808015610df8576003546000906001600160a01b0385811691161415610bd15760408051808201909152600c81527f72656465656d20634554483a000000000000000000000000000000000000000060208201526003546005890154610a0992916001600160a01b03908116911661292f565b604080518082018252601681527f636173483a2025642072656465656d416d743a2025640000000000000000000060208083019190915260035483517f3b1d21a20000000000000000000000000000000000000000000000000000000081529351610ad9946001600160a01b0390921692633b1d21a29260048082019391829003018186803b158015610a9b57600080fd5b505afa158015610aaf573d6000803e3d6000fd5b505050506040513d601f19601f82011682018060405250810190610ad39190614001565b8461298f565b5060035460405163db006a7560e01b815247916000916001600160a01b039091169063db006a7590610b0f908690600401614a9f565b602060405180830381600087803b158015610b2957600080fd5b505af1158015610b3d573d6000803e3d6000fd5b505050506040513d601f19601f82011682018060405250810190610b619190614001565b9050610ba36040518060400160405280600c81526020017f72656465656d20636574683a0000000000000000000000000000000000000000815250828561298f565b6000610baf47846128ed565b60058a0154909150610bca906001600160a01b0316826129ef565b5050610df6565b610c116040518060400160405280600d81526020017f72656465656d20746f6b656e3a000000000000000000000000000000000000008152508584612a7c565b6040516370a0823160e01b81526001600160a01b038616906370a0823190610c3d9030906004016141c1565b60206040518083038186803b158015610c5557600080fd5b505afa158015610c69573d6000803e3d6000fd5b505050506040513d601f19601f82011682018060405250810190610c8d9190614001565b60405163db006a7560e01b81529091506001600160a01b0385169063db006a7590610cbc908590600401614a9f565b602060405180830381600087803b158015610cd657600080fd5b505af1158015610cea573d6000803e3d6000fd5b505050506040513d601f19601f82011682018060405250810190610d0e9190614001565b506000610d9782876001600160a01b03166370a08231306040518263ffffffff1660e01b8152600401610d4191906141c1565b60206040518083038186803b158015610d5957600080fd5b505afa158015610d6d573d6000803e3d6000fd5b505050506040513d601f19601f82011682018060405250810190610d919190614001565b906128ed565b6005890154909150610db49087906001600160a01b031683612adc565b610df46040518060400160405280601481526020017f72656465656d20746f6b656e20737563636573730000000000000000000000008152508685612a7c565b505b505b50610e18565b6005850154610e189084906001600160a01b031683612adc565b83610f0757600a85015460088601546001600160a01b039182166000818152600b6020908152604080832060068c0154871684529091529020549092909116908015610eff5760408051808201909152601b81527f77697468647261772066756c66696c656420746f206d616b65723a000000000060208201526006890154610eab91906001600160a01b031683612a7c565b816001600160a01b0316836001600160a01b03161415610ee4576006880154610edf906001600160a01b0316848380612bca565b610eff565b6006880154610eff906001600160a01b031683858480612c11565b505050610f9e565b6005546006860154600887015460078801546040517fb7d9d9d40000000000000000000000000000000000000000000000000000000081526001600160a01b039485169463b7d9d9d494610f6b949082169389939183169216908890600401614222565b600060405180830381600087803b158015610f8557600080fd5b505af1158015610f99573d6000803e3d6000fd5b505050505b6008850154600786015460058701546040516001600160a01b039384169392831692909116907fa263a8e516fa313745abfe43252b015249ad3c987ae268d37531ce67364d7acf90610ff1908b90614a9f565b60405180910390a4600485018054600190811791829055604080516101008082018352895482529289015460208083019190915260028a01548284015260038a015460608084019190915260808084019690965260058b01546001600160a01b0390811660a08086019190915260068d0154821660c0808701919091528651978801875260078e01548316885260088e015483169488019490945260098d0154821695870195909552600a8c01541690850152600b8a015494840194909452600c89015491830191909152600d88015492820192909252600e87015460e0828101919091528201526110e290612e3a565b50506010805460ff1916600117905550505050565b60075481565b600f60205281600052604060002081815481106107c557fe5b60085481565b60025460ff1681565b60801c90565b61113361319b565b6001600160a01b0316611144611bb4565b6001600160a01b03161461116a5760405162461bcd60e51b81526004016108459061467e565b6000611176848461319f565b6040517f24637ce000000000000000000000000000000000000000000000000000000000815290915073__$95c6f8e4159971276d72925c2dc3de45f7$__906324637ce0906111cb9084908690600401614aa8565b60006040518083038186803b1580156111e357600080fd5b505af41580156111f7573d6000803e3d6000fd5b5050505050505050565b600061120c82611125565b611215846107da565b1790505b92915050565b61122761319b565b6001600160a01b0316611238611bb4565b6001600160a01b03161461125e5760405162461bcd60e51b81526004016108459061467e565b600080546040516001600160a01b03909116907f8be0079c531659141344cd1fd0a4f28419497f9722a3daafe3b4186f6b6457e0908390a3600080546001600160a01b0319169055565b60025460009060ff16156112ce5760405162461bcd60e51b815260040161084590614891565b60105460ff166112f05760405162461bcd60e51b815260040161084590614a01565b6010805460ff191690556001600160a01b0387811690871614156113265760405162461bcd60e51b8152600401610845906148ff565b6001600160a01b03871661135957833410156113545760405162461bcd60e51b8152600401610845906146ea565b611365565b611365873330876131de565b6001600160a01b0387166000908152600a6020526040902054841161139c5760405162461bcd60e51b81526004016108459061478f565b50600180548082019091556000818152600c602052604090208181556005810180546001600160a01b031916331790556001600160a01b038616156113e157856113e3565b335b6006820180546001600160a01b0319166001600160a01b0392909216919091179055426003820155600481018390556000600d8201819055611424896132cf565b6007830180546001600160a01b03808d166001600160a01b03199283168117909355600986018054918516919092168117909155600b8501899055919250146117e2576001600160a01b0389166115a2576003546040516370a0823160e01b81526000916001600160a01b0316906370a08231906114a69030906004016141c1565b60206040518083038186803b1580156114be57600080fd5b505afa1580156114d2573d6000803e3d6000fd5b505050506040513d601f19601f820116820180604052508101906114f69190614001565b9050600360009054906101000a90046001600160a01b03166001600160a01b0316631249c58b346040518263ffffffff1660e01b81526004016000604051808303818588803b15801561154857600080fd5b505af115801561155c573d6000803e3d6000fd5b50506003546040516370a0823160e01b815261159794508593506001600160a01b0390911691506370a0823190610d419030906004016141c1565b600c840155506117dd565b6040516370a0823160e01b81526000906001600160a01b038316906370a08231906115d19030906004016141c1565b60206040518083038186803b1580156115e957600080fd5b505afa1580156115fd573d6000803e3d6000fd5b505050506040513d601f19601f820116820180604052508101906116219190614001565b60405163095ea7b360e01b81529091506001600160a01b038b169063095ea7b3906116529085908b906004016142ad565b602060405180830381600087803b15801561166c57600080fd5b505af1158015611680573d6000803e3d6000fd5b505050506040513d601f19601f820116820180604052508101906116a49190613fcd565b5060405163140e25ad60e31b81526001600160a01b0383169063a0712d68906116d1908a90600401614a9f565b602060405180830381600087803b1580156116eb57600080fd5b505af11580156116ff573d6000803e3d6000fd5b505050506040513d601f19601f820116820180604052508101906117239190614001565b5060405163095ea7b360e01b81526001600160a01b0383169063095ea7b3906117539085906000906004016142ad565b602060405180830381600087803b15801561176d57600080fd5b505af1158015611781573d6000803e3d6000fd5b505050506040513d601f19601f820116820180604052508101906117a59190613fcd565b506117d681836001600160a01b03166370a08231306040518263ffffffff1660e01b8152600401610d4191906141c1565b600c840155505b6117ea565b600c82018690555b6008820180546001600160a01b0319166001600160a01b038a161790556000611812896132cf565b600a840180546001600160a01b038084166001600160a01b03199092168217909255600e86018990559192508b811684821614908b16909114146118685760405162461bcd60e51b815260040161084590614936565b6005546001600160a01b0316331415611929576118848561195b565b6118a05760405162461bcd60e51b8152600401610845906148c8565b896001600160a01b0316826001600160a01b0316146118d15760405162461bcd60e51b8152600401610845906145ea565b6001600160a01b0388163314156118fa5760405162461bcd60e51b8152600401610845906145b3565b600a8301546001600160a01b038a81169116146119295760405162461bcd60e51b815260040161084590614545565b61193382826134fb565b60028401556119418361352f565b50506010805460ff19166001179055509695505050505050565b7f800000000000000000000000000000000000000000000000000000000000000016151590565b606060008060005b6001548110156119c3576000818152600c60205260409020600401546119af816128e5565b6119ba576001909301925b5060010161198a565b508167ffffffffffffffff811180156119db57600080fd5b50604051908082528060200260200182016040528015611a1557816020015b611a02613d7b565b8152602001906001900390816119fa5790505b50925060005b600154811015611b4957611a2d613d7b565b506000818152600c6020818152604092839020835161010080820186528254825260018301548285015260028301548287015260038301546060808401919091526004840154608080850191825260058601546001600160a01b0390811660a0808801919091526006880154821660c0808901919091528b519687018c526007890154831687526008890154831699870199909952600988015482169a86019a909a52600a8701541692840192909252600b850154918301919091529483015495810195909552600d82015492850192909252600e015460e08481019190915281019290925251611b1d906128e5565b611b405780858481518110611b2e57fe5b60209081029190910101526001909201915b50600101611a1b565b50505090565b611b5761319b565b6001600160a01b0316611b68611bb4565b6001600160a01b031614611b8e5760405162461bcd60e51b81526004016108459061467e565b6002805460ff19169055565b6fffffffffffffffffffffffffffffffff19919091161790565b6000546001600160a01b031690565b61271081565b6000611be5611bd784613668565b611be084613668565b6134fb565b9392505050565b60008181526009602052604080822090517f652bccd3000000000000000000000000000000000000000000000000000000008152829173__$95c6f8e4159971276d72925c2dc3de45f7$__9163652bccd391611c4a91600401614a9f565b60206040518083038186803b158015611c6257600080fd5b505af4158015611c76573d6000803e3d6000fd5b505050506040513d601f19601f82011682018060405250810190611c9a9190614001565b905080611cab5750506007546107ee565b6000190192915050565b600a6020526000908152604090205481565b611ccf61319b565b6001600160a01b0316611ce0611bb4565b6001600160a01b031614611d065760405162461bcd60e51b81526004016108459061467e565b6000611d12848461319f565b6040517f32b914bf00000000000000000000000000000000000000000000000000000000815290915073__$95c6f8e4159971276d72925c2dc3de45f7$__906332b914bf906111cb9084908690600401614aa8565b6003546001600160a01b031681565b611d7e61319b565b6001600160a01b0316611d8f611bb4565b6001600160a01b031614611db55760405162461bcd60e51b81526004016108459061467e565b6002805460ff19166001179055565b600c6020818152600092835260409283902080546001820154600283015460038401546004850154600586015460068701548a5161010081018c5260078901546001600160a01b03908116825260088a015481169a82019a909a5260098901548a169b81019b909b52600a880154891660608c0152600b88015460808c01529887015460a08b0152600d87015460c08b0152600e9096015460e08a0152939792969195909481169291169088565b60008181526009602052604080822090517fa645cb6d000000000000000000000000000000000000000000000000000000008152829173__$95c6f8e4159971276d72925c2dc3de45f7$__9163a645cb6d91611ed091600401614a9f565b60206040518083038186803b158015611ee857600080fd5b505af4158015611efc573d6000803e3d6000fd5b505050506040513d601f19601f82011682018060405250810190611f209190614001565b905080611cab5750506008546107ee565b611f3961319b565b6001600160a01b0316611f4a611bb4565b6001600160a01b031614611f705760405162461bcd60e51b81526004016108459061467e565b6001600160a01b039091166000908152600a6020526040902055565b60801b1790565b60025461010090046001600160a01b031681565b611faf61319b565b6001600160a01b0316611fc0611bb4565b6001600160a01b031614611fe65760405162461bcd60e51b81526004016108459061467e565b6001600160a01b03811661200c5760405162461bcd60e51b81526004016108459061447a565b600080546040516001600160a01b03808516939216917f8be0079c531659141344cd1fd0a4f28419497f9722a3daafe3b4186f6b6457e091a3600080546001600160a01b0319166001600160a01b0392909216919091179055565b6001600160a01b0382166000908152600b60209081526040808320338452909152902054806120a85760405162461bcd60e51b8152600401610845906146b3565b816120b5578091506120d5565b818110156120d55760405162461bcd60e51b81526004016108459061496d565b6120e133848385612bca565b505050565b6120ee61319b565b6001600160a01b03166120ff611bb4565b6001600160a01b0316146121255760405162461bcd60e51b81526004016108459061467e565b600680546001600160a01b0319166001600160a01b0392909216919091179055565b600b60209081526000928352604080842090915290825290205481565b61216c613dd7565b60025460ff161561218f5760405162461bcd60e51b815260040161084590614891565b60105460ff166121b15760405162461bcd60e51b815260040161084590614a01565b6010805460ff191690556000888152600c602052604090206004810154600116156121dc5750612825565b6121e4613e25565b50604080516101008101825260078301546001600160a01b0390811682526008840154811660208301526009840154811692820192909252600a83015482166060820152600b8301546080820152600c83015460a0820152600d83015460c0820152600e83015460e082015290881661225b573397505b86151583526020830189905260c081015160a082015160009161227e91906128ed565b9050808a11156122ad57866122a55760405162461bcd60e51b815260040161084590614823565b602084018190525b506122bd81848460020154613744565b6122ed604051806060016040528060218152602001614bac6021913984608001518560c0015186602001516139e9565b600a82015460098301546001600160a01b039182169116881561243557608085015160405163095ea7b360e01b81526001600160a01b0383169163095ea7b39161233b9185916004016142ad565b602060405180830381600087803b15801561235557600080fd5b505af1158015612369573d6000803e3d6000fd5b505050506040513d601f19601f8201168201806040525081019061238d9190613fcd565b50608085015160405163db006a7560e01b81526001600160a01b0383169163db006a75916123be9190600401614a9f565b602060405180830381600087803b1580156123d857600080fd5b505af11580156123ec573d6000803e3d6000fd5b505050506040513d601f19601f820116820180604052508101906124109190614001565b50600784015460a0860151612430916001600160a01b0316908c90612adc565b612444565b612444818b8760800151612adc565b61247b604051806060016040528060298152602001614bcd60299139600786015460a08801516001600160a01b0390911690612a7c565b85156125e7576040516370a0823160e01b81526000906001600160a01b038416906370a08231906124b09030906004016141c1565b60206040518083038186803b1580156124c857600080fd5b505afa1580156124dc573d6000803e3d6000fd5b505050506040513d601f19601f820116820180604052508101906125009190614001565b608087015160e08801516040517f226dc8820000000000000000000000000000000000000000000000000000000081529293506001600160a01b038e169263226dc882926125569233928e908e906004016141d5565b600060405180830381600087803b15801561257057600080fd5b505af1158015612584573d6000803e3d6000fd5b5050505060006125ba82856001600160a01b03166370a08231306040518263ffffffff1660e01b8152600401610d4191906141c1565b90508660e001518110156125e05760405162461bcd60e51b81526004016108459061450e565b505061274d565b881561273d5760088401546101008601516001600160a01b0390911690612613908290339030906131de565b61010086015160405163095ea7b360e01b81526001600160a01b0383169163095ea7b3916126459187916004016142ad565b602060405180830381600087803b15801561265f57600080fd5b505af1158015612673573d6000803e3d6000fd5b505050506040513d601f19601f820116820180604052508101906126979190613fcd565b5061010086015160405163140e25ad60e31b81526000916001600160a01b0386169163a0712d68916126cb91600401614a9f565b602060405180830381600087803b1580156126e557600080fd5b505af11580156126f9573d6000803e3d6000fd5b505050506040513d601f19601f8201168201806040525081019061271d9190614001565b905080156125e05760405162461bcd60e51b81526004016108459061457c565b61274d8233308860e001516131de565b6040850151156127765760065460408601516127769183916001600160a01b0390911690612adc565b60608501511561279f57600654606086015161279f9184916001600160a01b0390911690612adc565b6127b28486602001518760c00151613a4b565b336001600160a01b03168460050160009054906101000a90046001600160a01b03166001600160a01b03167fd00ede2e0292fd63d9ba8b4b572003009a04bcdf39cd75ac9684433d20de7ebf8e88602001518960c0015160405161281893929190614ad3565b60405180910390a3505050505b6010805460ff19166001179055979650505050505050565b600e60205281600052604060002081815481106107c557fe5b600061286183613668565b6001600160a01b0381166000908152600b60209081526040808320338452909152902054909150806128a55760405162461bcd60e51b8152600401610845906146b3565b826128b2578092506128d2565b828110156128d25760405162461bcd60e51b81526004016108459061496d565b6128df3385848487612c11565b50505050565b600116151590565b6000611be583836040518060400160405280601e81526020017f536166654d6174683a207375627472616374696f6e206f766572666c6f770000815250613c56565b6120e18383836040516024016129479392919061438e565b60408051601f198184030181529190526020810180516001600160e01b03167ffcec75e000000000000000000000000000000000000000000000000000000000179052613c82565b6120e18383836040516024016129a7939291906143ef565b60408051601f198184030181529190526020810180516001600160e01b03167f969cdd0300000000000000000000000000000000000000000000000000000000179052613c82565b604080516000808252602082019092526001600160a01b038416908390604051612a1991906141a5565b60006040518083038185875af1925050503d8060008114612a56576040519150601f19603f3d011682016040523d82523d6000602084013e612a5b565b606091505b50509050806120e15760405162461bcd60e51b8152600401610845906147c6565b6120e1838383604051602401612a94939291906143c1565b60408051601f198184030181529190526020810180516001600160e01b03167f07c8121700000000000000000000000000000000000000000000000000000000179052613c82565b60006060846001600160a01b031663a9059cbb8585604051602401612b029291906142ad565b6040516020818303038152906040529060e01b6020820180516001600160e01b038381831617835250505050604051612b3b91906141a5565b6000604051808303816000865af19150503d8060008114612b78576040519150601f19603f3d011682016040523d82523d6000602084013e612b7d565b606091505b5091509150818015612ba7575080511580612ba7575080806020019051810190612ba79190613fcd565b612bc35760405162461bcd60e51b815260040161084590614443565b5050505050565b612bd5838583612adc565b612bdf82826128ed565b6001600160a01b039384166000908152600b602090815260408083209790961682529590955292909320919091555050565b612c1b82826128ed565b6001600160a01b038085166000818152600b602090815260408083208b86168452909152902092909255600354161415612cf15760035460405163db006a7560e01b815247916001600160a01b03169063db006a7590612c7f908590600401614a9f565b602060405180830381600087803b158015612c9957600080fd5b505af1158015612cad573d6000803e3d6000fd5b505050506040513d601f19601f82011682018060405250810190612cd19190614001565b506000612cde47836128ed565b9050612cea87826129ef565b5050612bc3565b6040516370a0823160e01b81526000906001600160a01b038616906370a0823190612d209030906004016141c1565b60206040518083038186803b158015612d3857600080fd5b505afa158015612d4c573d6000803e3d6000fd5b505050506040513d601f19601f82011682018060405250810190612d709190614001565b60405163db006a7560e01b81529091506001600160a01b0385169063db006a7590612d9f908590600401614a9f565b602060405180830381600087803b158015612db957600080fd5b505af1158015612dcd573d6000803e3d6000fd5b505050506040513d601f19601f82011682018060405250810190612df19190614001565b506000612e2482876001600160a01b03166370a08231306040518263ffffffff1660e01b8152600401610d4191906141c1565b9050612e31868883612adc565b50505050505050565b6000612e4982602001516107da565b90506000612e5a8360200151611125565b905060008360a001519050600080612e75866080015161195b565b90508015612f895760c08601516001600160a01b0381166000908152600d602052604090205490935060001901848114612f4c576001600160a01b0384166000908152600d60205260409020805482908110612ecd57fe5b9060005260206000200154925082600d6000866001600160a01b03166001600160a01b031681526020019081526020016000208681548110612f0b57fe5b9060005260206000200181905550612f39600c60008581526020019081526020016000206001015486611201565b6000848152600c60205260409020600101555b6001600160a01b0384166000908152600d60205260409020805480612f6d57fe5b6001900381819060005260206000200160009055905550613089565b6001600160a01b0383166000908152600e602052604090205460001901848114613050576001600160a01b0384166000908152600e60205260409020805482908110612fd157fe5b9060005260206000200154925082600e6000866001600160a01b03166001600160a01b03168152602001908152602001600020868154811061300f57fe5b906000526020600020018190555061303d600c60008581526020019081526020016000206001015486611201565b6000848152600c60205260409020600101555b6001600160a01b0384166000908152600e6020526040902080548061307157fe5b60019003818190600052602060002001600090559055505b6040808701516000908152600f602052205460011080156130bf57506040808701516000908152600f6020522054600019018514155b1561316357604080870180516000908152600f60205282812091518152919091205481546000199091019081106130f257fe5b9060005260206000200154915081600f600088604001518152602001908152602001600020868154811061312257fe5b9060005260206000200181905550613150600c60008481526020019081526020016000206001015486611b9a565b6000838152600c60205260409020600101555b6040808701516000908152600f6020522080548061317d57fe5b60019003818190600052602060002001600090559055505050505050565b3390565b6000806131ab84613668565b905060006131b884613668565b905060006131c683836134fb565b60009081526009602052604090209695505050505050565b60006060856001600160a01b03166323b872dd86868660405160240161320693929190614289565b6040516020818303038152906040529060e01b6020820180516001600160e01b03838183161783525050505060405161323f91906141a5565b6000604051808303816000865af19150503d806000811461327c576040519150601f19603f3d011682016040523d82523d6000602084013e613281565b606091505b50915091508180156132ab5750805115806132ab5750808060200190518101906132ab9190613fcd565b6132c75760405162461bcd60e51b8152600401610845906149a4565b505050505050565b60006001600160a01b03821615806132f957506002546001600160a01b0383811661010090920416145b1561331057506003546001600160a01b03166107ee565b6004805460405163714bca1f60e11b81526000926001600160a01b039092169163e297943e91613342918791016141c1565b60206040518083038186803b15801561335a57600080fd5b505afa15801561336e573d6000803e3d6000fd5b505050506040513d601f19601f820116820180604052508101906133929190613eaa565b90506001600160a01b03811661121957600480546040517fb8d7b6690000000000000000000000000000000000000000000000000000000081526000926001600160a01b039092169163b8d7b669916133ed918891016141c1565b60206040518083038186803b15801561340557600080fd5b505afa158015613419573d6000803e3d6000fd5b505050506040513d601f19601f8201168201806040525081019061343d9190613eaa565b90506001600160a01b038116156134585783925050506107ee565b600480546040517f26c7bd930000000000000000000000000000000000000000000000000000000081526001600160a01b03909116916326c7bd93916134a0918891016141c1565b602060405180830381600087803b1580156134ba57600080fd5b505af11580156134ce573d6000803e3d6000fd5b505050506040513d601f19601f820116820180604052508101906134f29190613eaa565b925050506107ee565b6000828260405160200161351092919061417e565b60408051601f1981840301815291905280516020909101209392505050565b8054600482015460006135418261195b565b600585015490915060009081906001600160a01b03168315613595575060068601546001600160a01b03166000818152600d60209081526040822080546001810182559083529120810187905592506135c4565b6001600160a01b0381166000908152600e60209081526040822080546001810182559083529120810187905592505b60028701546000908152600f60209081526040822080546001810182559083529120810187905591506135f78284611f8c565b600188015560088701546007880154600b890154600e8a01546040516001600160a01b0394851694938416938616927fc8419e5c94126588374d91d4332ef5d56223abb9c42776b667e899ccff2c5f2792613657928d9291908d90614ae9565b60405180910390a450505050505050565b60006001600160a01b038216158061369257506002546001600160a01b0383811661010090920416145b156136a957506003546001600160a01b03166107ee565b6004805460405163714bca1f60e11b81526000926001600160a01b039092169163e297943e916136db918791016141c1565b60206040518083038186803b1580156136f357600080fd5b505afa158015613707573d6000803e3d6000fd5b505050506040513d601f19601f8201168201806040525081019061372b9190613eaa565b90506001600160a01b03811661121957829150506107ee565b60208201516040517f78cbe05100000000000000000000000000000000000000000000000000000000815273__$ede4fa3877902dc4fe1d8d42678939ceaa$__906378cbe0519061379b9087908590600401614ab6565b60206040518083038186803b1580156137b357600080fd5b505af41580156137c7573d6000803e3d6000fd5b505050506040513d601f19601f820116820180604052508101906137eb9190614001565b60e084015261380f61271061380961380285611e72565b8490613ca3565b90613cdd565b604084015261382661271061380961380285611bec565b6060840152604083015161383b9082906128ed565b6080840152606083015160e0840151613853916128ed565b60c08401528251156128df5760408085015190517f0bbc1cea00000000000000000000000000000000000000000000000000000000815260009173__$ede4fa3877902dc4fe1d8d42678939ceaa$__91630bbc1cea916138b5916004016141c1565b60206040518083038186803b1580156138cd57600080fd5b505af41580156138e1573d6000803e3d6000fd5b505050506040513d601f19601f820116820180604052508101906139059190614001565b9050600073__$ede4fa3877902dc4fe1d8d42678939ceaa$__630bbc1cea87606001516040518263ffffffff1660e01b815260040161394491906141c1565b60206040518083038186803b15801561395c57600080fd5b505af4158015613970573d6000803e3d6000fd5b505050506040513d601f19601f820116820180604052508101906139949190614001565b90506139b9670de0b6b3a7640000613809848860800151613ca390919063ffffffff16565b60a086015260e08501516139db90670de0b6b3a7640000906138099084613ca3565b610100860152505050505050565b6128df84848484604051602401613a039493929190614414565b60408051601f198184030181529190526020810180516001600160e01b03167f08ee566600000000000000000000000000000000000000000000000000000000179052613c82565b60068301546009840154600a85015460048601546001600160a01b03938416939283169290911690613a7c9061195b565b15613b2157600554613a999082906001600160a01b031686612adc565b6005546040517f1889ae210000000000000000000000000000000000000000000000000000000081526001600160a01b0390911690631889ae2190613aea908690869086908a908c90600401614255565b600060405180830381600087803b158015613b0457600080fd5b505af1158015613b18573d6000803e3d6000fd5b50505050613b4d565b6001600160a01b038082166000908152600b602090815260408083209387168352929052208054850190555b600d860154613b5c9086613d1f565b600d8701819055600c870154116132c7576004860180546001908117918290556040805161010080820183528a548252928a015460208083019190915260028b01548284015260038b015460608084019190915260808084019690965260058c01546001600160a01b0390811660a08086019190915260068e0154821660c0808701919091528651978801875260078f01548316885260088f015483169488019490945260098e0154821695870195909552600a8d01541690850152600b8b015494840194909452600c8a015491830191909152600d89015492820192909252600e88015460e0828101919091528201526132c790612e3a565b60008184841115613c7a5760405162461bcd60e51b8152600401610845919061437b565b505050900390565b80516a636f6e736f6c652e6c6f67602083016000808483855afa5050505050565b600082613cb257506000611219565b82820282848281613cbf57fe5b0414611be55760405162461bcd60e51b815260040161084590614621565b6000611be583836040518060400160405280601a81526020017f536166654d6174683a206469766973696f6e206279207a65726f000000000000815250613d44565b600082820183811015611be55760405162461bcd60e51b8152600401610845906144d7565b60008183613d655760405162461bcd60e51b8152600401610845919061437b565b506000838581613d7157fe5b0495945050505050565b604051806101000160405280600081526020016000815260200160008152602001600081526020016000815260200160006001600160a01b0316815260200160006001600160a01b03168152602001613dd2613e25565b905290565b60405180610120016040528060001515815260200160008152602001600081526020016000815260200160008152602001600081526020016000815260200160008152602001600081525090565b60405180610100016040528060006001600160a01b0316815260200160006001600160a01b0316815260200160006001600160a01b0316815260200160006001600160a01b03168152602001600081526020016000815260200160008152602001600081525090565b600060208284031215613e9f578081fd5b8135611be581614b85565b600060208284031215613ebb578081fd5b8151611be581614b85565b60008060408385031215613ed8578081fd5b8235613ee381614b85565b91506020830135613ef381614b85565b809150509250929050565b60008060008060008060c08789031215613f16578182fd5b8635613f2181614b85565b95506020870135613f3181614b85565b94506040870135613f4181614b85565b959894975094956060810135955060808101359460a0909101359350915050565b600080600060608486031215613f76578283fd5b8335613f8181614b85565b92506020840135613f9181614b85565b929592945050506040919091013590565b60008060408385031215613fb4578182fd5b8235613fbf81614b85565b946020939093013593505050565b600060208284031215613fde578081fd5b8151611be581614b9d565b600060208284031215613ffa578081fd5b5035919050565b600060208284031215614012578081fd5b5051919050565b6000806040838503121561402b578182fd5b50508035926020909101359150565b600080600080600080600060c0888a031215614054578081fd5b8735965060208801359550604088013561406d81614b85565b9450606088013561407d81614b9d565b9350608088013561408d81614b9d565b925060a088013567ffffffffffffffff808211156140a9578283fd5b818a0191508a601f8301126140bc578283fd5b8135818111156140ca578384fd5b8b60208285010111156140db578384fd5b60208301945080935050505092959891949750929550565b6000815180845261410b816020860160208601614b59565b601f01601f19169290920160200192915050565b6001600160a01b03808251168352806020830151166020840152806040830151166040840152806060830151166060840152506080810151608083015260a081015160a083015260c081015160c083015260e081015160e08301525050565b6bffffffffffffffffffffffff19606093841b811682529190921b16601482015260280190565b600082516141b7818460208701614b59565b9190910192915050565b6001600160a01b0391909116815260200190565b60006001600160a01b038716825285602083015284604083015260806060830152826080830152828460a084013781830160a090810191909152601f909201601f19160101949350505050565b6001600160a01b039586168152938516602085015291841660408401529092166060820152608081019190915260a00190565b6001600160a01b03958616815293851660208501529190931660408301526060820192909252608081019190915260a00190565b6001600160a01b039384168152919092166020820152604081019190915260600190565b6001600160a01b03929092168252602082015260400190565b602080825282518282018190526000919060409081850190868401855b828110156143635781518051855286810151878601528581015186860152606080820151908601526080808201519086015260a0808201516001600160a01b039081169187019190915260c0808301519091169086015260e0908101519061434d8187018361411f565b50506101e09390930192908501906001016142e3565b5091979650505050505050565b901515815260200190565b600060208252611be560208301846140f3565b6000606082526143a160608301866140f3565b6001600160a01b0394851660208401529290931660409091015292915050565b6000606082526143d460608301866140f3565b6001600160a01b039490941660208301525060400152919050565b60006060825261440260608301866140f3565b60208301949094525060400152919050565b60006080825261442760808301876140f3565b6020830195909552506040810192909252606090910152919050565b6020808252601f908201527f5472616e7366657248656c7065723a205452414e534645525f4641494c454400604082015260600190565b60208082526026908201527f4f776e61626c653a206e6577206f776e657220697320746865207a65726f206160408201527f6464726573730000000000000000000000000000000000000000000000000000606082015260800190565b6020808252601b908201527f536166654d6174683a206164646974696f6e206f766572666c6f770000000000604082015260600190565b6020808252600a908201527f6e6f7420656e6f75676800000000000000000000000000000000000000000000604082015260600190565b60208082526015908201527f646573742073686f756c642062652065746f6b656e0000000000000000000000604082015260600190565b6020808252600b908201527f6d696e74206661696c6564000000000000000000000000000000000000000000604082015260600190565b6020808252601b908201527f746f2073686f756c642062652075736572277320616464726573730000000000604082015260600190565b60208082526014908201527f7372632073686f756c642062652065746f6b656e000000000000000000000000604082015260600190565b60208082526021908201527f536166654d6174683a206d756c7469706c69636174696f6e206f766572666c6f60408201527f7700000000000000000000000000000000000000000000000000000000000000606082015260800190565b6020808252818101527f4f776e61626c653a2063616c6c6572206973206e6f7420746865206f776e6572604082015260600190565b60208082526008908201527f6e6f206173736574000000000000000000000000000000000000000000000000604082015260600190565b60208082526013908201527f6e6f7420656e6f75676820616d6f756e74496e00000000000000000000000000604082015260600190565b60208082526014908201527f63616e63656c4f726465723a206e6f2061757468000000000000000000000000604082015260600190565b60208082526015908201527f6f7264657220686173206265656e20636c6f7365640000000000000000000000604082015260600190565b60208082526014908201527f6c657373207468616e206d696e20616d6f756e74000000000000000000000000604082015260600190565b60208082526023908201527f5472616e7366657248656c7065723a204554485f5452414e534645525f46414960408201527f4c45440000000000000000000000000000000000000000000000000000000000606082015260800190565b60208082526014908201527f6e6f7420656e6f75676820746f2066756c66696c000000000000000000000000604082015260600190565b6020808252601a908201527f63616e63656c4d617267696e4f726465723a206e6f2061757468000000000000604082015260600190565b60208082526011908201527f6f7264657220626f6f6b20636c6f736564000000000000000000000000000000604082015260600190565b60208082526015908201527f666c61672073686f756c64206265206d617267696e0000000000000000000000604082015260600190565b6020808252600f908201527f6964656e746963616c20746f6b656e0000000000000000000000000000000000604082015260600190565b60208082526014908201527f626f746820746f6b656e206f722065746f6b656e000000000000000000000000604082015260600190565b60208082526010908201527f6e6f7420656e6f75676820617373657400000000000000000000000000000000604082015260600190565b60208082526024908201527f5472616e7366657248656c7065723a205452414e534645525f46524f4d5f464160408201527f494c454400000000000000000000000000000000000000000000000000000000606082015260800190565b6020808252601f908201527f5265656e7472616e637947756172643a207265656e7472616e742063616c6c00604082015260600190565b6000610120820190508251151582526020830151602083015260408301516040830152606083015160608301526080830151608083015260a083015160a083015260c083015160c083015260e083015160e083015261010080840151818401525092915050565b90815260200190565b918252602082015260400190565b6101208101614ac5828561411f565b826101008301529392505050565b9283526020830191909152604082015260600190565b93845260208401929092526040830152606082015260800190565b888152602081018890526040810187905260608101869052608081018590526001600160a01b0384811660a0830152831660c08201526101e08101614b4c60e083018461411f565b9998505050505050505050565b60005b83811015614b74578181015183820152602001614b5c565b838111156128df5750506000910152565b6001600160a01b0381168114614b9a57600080fd5b50565b8015158114614b9a57600080fdfe74616b6572416d743d2564206d616b6572416d743d25642066696c6c65643d25647472616e7366657220737263546f6b656e20746f2074616b657220737563636573733a202573202564a2646970667358221220a079ada6c7d7d9d15545fa7e83fc352601a76e3e2e7d3879342bc44eb35fb41664736f6c634300060c0033",
  "libraries": {
    "OBPriceLogic": "0x07F2471243491622743d9bC38A5d0eE8deD15Ed7",
    "OBPairConfig": "0x8Cd3e4E20295587f55AD202838f99cded381d51a"
  },
  "devdoc": {
    "kind": "dev",
    "methods": {
      "fulfilOrder(uint256,uint256,address,bool,bool,bytes)": {
        "params": {
          "amtToTaken": "",
          "data": "flashloan ",
          "isToken": " token  token,  approve  srcEToken  cash ",
          "orderId": "order id",
          "partialFill": "(taken)",
          "to": " msg.sender"
        },
        "returns": {
          "fulFilAmt": "(, )"
        }
      },
      "getMakerFeeRate(uint256)": {
        "details": "get maker fee rate"
      },
      "getTakerFeeRate(uint256)": {
        "details": "get taker fee rate"
      },
      "owner()": {
        "details": "Returns the address of the current owner."
      },
      "renounceOwnership()": {
        "details": "Leaves the contract without owner. It will not be possible to call `onlyOwner` functions anymore. Can only be called by the current owner. NOTE: Renouncing ownership will leave the contract without an owner, thereby removing any functionality that is only available to the owner."
      },
      "setFeeTo(address)": {
        "details": " feeTo "
      },
      "transferOwnership(address)": {
        "details": "Transfers ownership of the contract to a new account (`newOwner`). Can only be called by the current owner."
      }
    },
    "version": 1
  },
  "userdoc": {
    "kind": "user",
    "methods": {},
    "version": 1
  },
  "storageLayout": {
    "storage": [
      {
        "astId": 3542,
        "contract": "contracts/swap/orderbook/Orderbook.sol:OrderBook",
        "label": "_owner",
        "offset": 0,
        "slot": "0",
        "type": "t_address"
      },
      {
        "astId": 626,
        "contract": "contracts/swap/orderbook/Orderbook.sol:OrderBook",
        "label": "orderId",
        "offset": 0,
        "slot": "1",
        "type": "t_uint256"
      },
      {
        "astId": 628,
        "contract": "contracts/swap/orderbook/Orderbook.sol:OrderBook",
        "label": "closed",
        "offset": 0,
        "slot": "2",
        "type": "t_bool"
      },
      {
        "astId": 630,
        "contract": "contracts/swap/orderbook/Orderbook.sol:OrderBook",
        "label": "wETH",
        "offset": 1,
        "slot": "2",
        "type": "t_address"
      },
      {
        "astId": 632,
        "contract": "contracts/swap/orderbook/Orderbook.sol:OrderBook",
        "label": "cETH",
        "offset": 0,
        "slot": "3",
        "type": "t_address"
      },
      {
        "astId": 634,
        "contract": "contracts/swap/orderbook/Orderbook.sol:OrderBook",
        "label": "ctokenFactory",
        "offset": 0,
        "slot": "4",
        "type": "t_address"
      },
      {
        "astId": 636,
        "contract": "contracts/swap/orderbook/Orderbook.sol:OrderBook",
        "label": "marginAddr",
        "offset": 0,
        "slot": "5",
        "type": "t_address"
      },
      {
        "astId": 638,
        "contract": "contracts/swap/orderbook/Orderbook.sol:OrderBook",
        "label": "feeTo",
        "offset": 0,
        "slot": "6",
        "type": "t_address"
      },
      {
        "astId": 641,
        "contract": "contracts/swap/orderbook/Orderbook.sol:OrderBook",
        "label": "defaultFeeMaker",
        "offset": 0,
        "slot": "7",
        "type": "t_uint256"
      },
      {
        "astId": 644,
        "contract": "contracts/swap/orderbook/Orderbook.sol:OrderBook",
        "label": "defaultFeeTaker",
        "offset": 0,
        "slot": "8",
        "type": "t_uint256"
      },
      {
        "astId": 648,
        "contract": "contracts/swap/orderbook/Orderbook.sol:OrderBook",
        "label": "pairFeeRate",
        "offset": 0,
        "slot": "9",
        "type": "t_mapping(t_uint256,t_struct(OBPairConfigMap)44_storage)"
      },
      {
        "astId": 652,
        "contract": "contracts/swap/orderbook/Orderbook.sol:OrderBook",
        "label": "minAmounts",
        "offset": 0,
        "slot": "10",
        "type": "t_mapping(t_address,t_uint256)"
      },
      {
        "astId": 658,
        "contract": "contracts/swap/orderbook/Orderbook.sol:OrderBook",
        "label": "balanceOf",
        "offset": 0,
        "slot": "11",
        "type": "t_mapping(t_address,t_mapping(t_address,t_uint256))"
      },
      {
        "astId": 662,
        "contract": "contracts/swap/orderbook/Orderbook.sol:OrderBook",
        "label": "orders",
        "offset": 0,
        "slot": "12",
        "type": "t_mapping(t_uint256,t_struct(OrderItem)41_storage)"
      },
      {
        "astId": 667,
        "contract": "contracts/swap/orderbook/Orderbook.sol:OrderBook",
        "label": "marginOrders",
        "offset": 0,
        "slot": "13",
        "type": "t_mapping(t_address,t_array(t_uint256)dyn_storage)"
      },
      {
        "astId": 672,
        "contract": "contracts/swap/orderbook/Orderbook.sol:OrderBook",
        "label": "addressOrders",
        "offset": 0,
        "slot": "14",
        "type": "t_mapping(t_address,t_array(t_uint256)dyn_storage)"
      },
      {
        "astId": 677,
        "contract": "contracts/swap/orderbook/Orderbook.sol:OrderBook",
        "label": "pairOrders",
        "offset": 0,
        "slot": "15",
        "type": "t_mapping(t_uint256,t_array(t_uint256)dyn_storage)"
      },
      {
        "astId": 3649,
        "contract": "contracts/swap/orderbook/Orderbook.sol:OrderBook",
        "label": "_notEntered",
        "offset": 0,
        "slot": "16",
        "type": "t_bool"
      }
    ],
    "types": {
      "t_address": {
        "encoding": "inplace",
        "label": "address",
        "numberOfBytes": "20"
      },
      "t_array(t_uint256)dyn_storage": {
        "base": "t_uint256",
        "encoding": "dynamic_array",
        "label": "uint256[]",
        "numberOfBytes": "32"
      },
      "t_bool": {
        "encoding": "inplace",
        "label": "bool",
        "numberOfBytes": "1"
      },
      "t_mapping(t_address,t_array(t_uint256)dyn_storage)": {
        "encoding": "mapping",
        "key": "t_address",
        "label": "mapping(address => uint256[])",
        "numberOfBytes": "32",
        "value": "t_array(t_uint256)dyn_storage"
      },
      "t_mapping(t_address,t_mapping(t_address,t_uint256))": {
        "encoding": "mapping",
        "key": "t_address",
        "label": "mapping(address => mapping(address => uint256))",
        "numberOfBytes": "32",
        "value": "t_mapping(t_address,t_uint256)"
      },
      "t_mapping(t_address,t_uint256)": {
        "encoding": "mapping",
        "key": "t_address",
        "label": "mapping(address => uint256)",
        "numberOfBytes": "32",
        "value": "t_uint256"
      },
      "t_mapping(t_uint256,t_array(t_uint256)dyn_storage)": {
        "encoding": "mapping",
        "key": "t_uint256",
        "label": "mapping(uint256 => uint256[])",
        "numberOfBytes": "32",
        "value": "t_array(t_uint256)dyn_storage"
      },
      "t_mapping(t_uint256,t_struct(OBPairConfigMap)44_storage)": {
        "encoding": "mapping",
        "key": "t_uint256",
        "label": "mapping(uint256 => struct DataTypes.OBPairConfigMap)",
        "numberOfBytes": "32",
        "value": "t_struct(OBPairConfigMap)44_storage"
      },
      "t_mapping(t_uint256,t_struct(OrderItem)41_storage)": {
        "encoding": "mapping",
        "key": "t_uint256",
        "label": "mapping(uint256 => struct DataTypes.OrderItem)",
        "numberOfBytes": "32",
        "value": "t_struct(OrderItem)41_storage"
      },
      "t_struct(OBPairConfigMap)44_storage": {
        "encoding": "inplace",
        "label": "struct DataTypes.OBPairConfigMap",
        "members": [
          {
            "astId": 43,
            "contract": "contracts/swap/orderbook/Orderbook.sol:OrderBook",
            "label": "data",
            "offset": 0,
            "slot": "0",
            "type": "t_uint256"
          }
        ],
        "numberOfBytes": "32"
      },
      "t_struct(OrderItem)41_storage": {
        "encoding": "inplace",
        "label": "struct DataTypes.OrderItem",
        "members": [
          {
            "astId": 26,
            "contract": "contracts/swap/orderbook/Orderbook.sol:OrderBook",
            "label": "orderId",
            "offset": 0,
            "slot": "0",
            "type": "t_uint256"
          },
          {
            "astId": 28,
            "contract": "contracts/swap/orderbook/Orderbook.sol:OrderBook",
            "label": "pairAddrIdx",
            "offset": 0,
            "slot": "1",
            "type": "t_uint256"
          },
          {
            "astId": 30,
            "contract": "contracts/swap/orderbook/Orderbook.sol:OrderBook",
            "label": "pair",
            "offset": 0,
            "slot": "2",
            "type": "t_uint256"
          },
          {
            "astId": 32,
            "contract": "contracts/swap/orderbook/Orderbook.sol:OrderBook",
            "label": "timestamp",
            "offset": 0,
            "slot": "3",
            "type": "t_uint256"
          },
          {
            "astId": 34,
            "contract": "contracts/swap/orderbook/Orderbook.sol:OrderBook",
            "label": "flag",
            "offset": 0,
            "slot": "4",
            "type": "t_uint256"
          },
          {
            "astId": 36,
            "contract": "contracts/swap/orderbook/Orderbook.sol:OrderBook",
            "label": "owner",
            "offset": 0,
            "slot": "5",
            "type": "t_address"
          },
          {
            "astId": 38,
            "contract": "contracts/swap/orderbook/Orderbook.sol:OrderBook",
            "label": "to",
            "offset": 0,
            "slot": "6",
            "type": "t_address"
          },
          {
            "astId": 40,
            "contract": "contracts/swap/orderbook/Orderbook.sol:OrderBook",
            "label": "tokenAmt",
            "offset": 0,
            "slot": "7",
            "type": "t_struct(TokenAmount)24_storage"
          }
        ],
        "numberOfBytes": "480"
      },
      "t_struct(TokenAmount)24_storage": {
        "encoding": "inplace",
        "label": "struct DataTypes.TokenAmount",
        "members": [
          {
            "astId": 9,
            "contract": "contracts/swap/orderbook/Orderbook.sol:OrderBook",
            "label": "srcToken",
            "offset": 0,
            "slot": "0",
            "type": "t_address"
          },
          {
            "astId": 11,
            "contract": "contracts/swap/orderbook/Orderbook.sol:OrderBook",
            "label": "destToken",
            "offset": 0,
            "slot": "1",
            "type": "t_address"
          },
          {
            "astId": 13,
            "contract": "contracts/swap/orderbook/Orderbook.sol:OrderBook",
            "label": "srcEToken",
            "offset": 0,
            "slot": "2",
            "type": "t_address"
          },
          {
            "astId": 15,
            "contract": "contracts/swap/orderbook/Orderbook.sol:OrderBook",
            "label": "destEToken",
            "offset": 0,
            "slot": "3",
            "type": "t_address"
          },
          {
            "astId": 17,
            "contract": "contracts/swap/orderbook/Orderbook.sol:OrderBook",
            "label": "amountIn",
            "offset": 0,
            "slot": "4",
            "type": "t_uint256"
          },
          {
            "astId": 19,
            "contract": "contracts/swap/orderbook/Orderbook.sol:OrderBook",
            "label": "amountInMint",
            "offset": 0,
            "slot": "5",
            "type": "t_uint256"
          },
          {
            "astId": 21,
            "contract": "contracts/swap/orderbook/Orderbook.sol:OrderBook",
            "label": "fulfiled",
            "offset": 0,
            "slot": "6",
            "type": "t_uint256"
          },
          {
            "astId": 23,
            "contract": "contracts/swap/orderbook/Orderbook.sol:OrderBook",
            "label": "guaranteeAmountOut",
            "offset": 0,
            "slot": "7",
            "type": "t_uint256"
          }
        ],
        "numberOfBytes": "256"
      },
      "t_uint256": {
        "encoding": "inplace",
        "label": "uint256",
        "numberOfBytes": "32"
      }
    }
  }
}