{
  "address": "0xDe95a996c3f8Cc48E9F73A5efcBA8026D1585ae6",
  "abi": [
    {
      "inputs": [
        {
          "internalType": "address",
          "name": "_weth",
          "type": "address"
        },
        {
          "internalType": "address",
          "name": "_ceth",
          "type": "address"
        },
        {
          "internalType": "address",
          "name": "_factory",
          "type": "address"
        }
      ],
      "stateMutability": "nonpayable",
      "type": "constructor"
    },
    {
      "anonymous": false,
      "inputs": [
        {
          "indexed": true,
          "internalType": "address",
          "name": "previousOwner",
          "type": "address"
        },
        {
          "indexed": true,
          "internalType": "address",
          "name": "newOwner",
          "type": "address"
        }
      ],
      "name": "OwnershipTransferred",
      "type": "event"
    },
    {
      "inputs": [
        {
          "internalType": "uint256",
          "name": "flag",
          "type": "uint256"
        },
        {
          "internalType": "address",
          "name": "addr",
          "type": "address"
        }
      ],
      "name": "addSwap",
      "outputs": [],
      "stateMutability": "nonpayable",
      "type": "function"
    },
    {
      "inputs": [
        {
          "internalType": "address[][]",
          "name": "ps",
          "type": "address[][]"
        }
      ],
      "name": "allSwapPaths",
      "outputs": [
        {
          "internalType": "address[][]",
          "name": "paths",
          "type": "address[][]"
        }
      ],
      "stateMutability": "view",
      "type": "function"
    },
    {
      "inputs": [
        {
          "internalType": "address",
          "name": "router",
          "type": "address"
        },
        {
          "internalType": "address[]",
          "name": "path",
          "type": "address[]"
        },
        {
          "internalType": "address[]",
          "name": "cpath",
          "type": "address[]"
        },
        {
          "internalType": "uint256",
          "name": "amtIn",
          "type": "uint256"
        },
        {
          "internalType": "bool",
          "name": "isEToken",
          "type": "bool"
        }
      ],
      "name": "buildEbankSwapStep",
      "outputs": [
        {
          "components": [
            {
              "internalType": "uint256",
              "name": "flag",
              "type": "uint256"
            },
            {
              "internalType": "bytes",
              "name": "data",
              "type": "bytes"
            }
          ],
          "internalType": "struct DataTypes.StepExecuteParams",
          "name": "step",
          "type": "tuple"
        }
      ],
      "stateMutability": "view",
      "type": "function"
    },
    {
      "inputs": [
        {
          "components": [
            {
              "internalType": "bool",
              "name": "isEToken",
              "type": "bool"
            },
            {
              "internalType": "bool",
              "name": "allowBurnchi",
              "type": "bool"
            },
            {
              "internalType": "bool",
              "name": "allEbank",
              "type": "bool"
            },
            {
              "internalType": "uint256",
              "name": "ebankAmt",
              "type": "uint256"
            },
            {
              "internalType": "uint256",
              "name": "amountIn",
              "type": "uint256"
            },
            {
              "internalType": "uint256",
              "name": "swapRoutes",
              "type": "uint256"
            },
            {
              "internalType": "address",
              "name": "tokenIn",
              "type": "address"
            },
            {
              "internalType": "address",
              "name": "tokenOut",
              "type": "address"
            },
            {
              "internalType": "address",
              "name": "etokenIn",
              "type": "address"
            },
            {
              "internalType": "address",
              "name": "etokenOut",
              "type": "address"
            },
            {
              "internalType": "uint256",
              "name": "routes",
              "type": "uint256"
            },
            {
              "internalType": "uint256",
              "name": "rateIn",
              "type": "uint256"
            },
            {
              "internalType": "uint256",
              "name": "rateOut",
              "type": "uint256"
            },
            {
              "internalType": "uint256[]",
              "name": "fees",
              "type": "uint256[]"
            },
            {
              "components": [
                {
                  "internalType": "uint256",
                  "name": "exFlag",
                  "type": "uint256"
                },
                {
                  "internalType": "address",
                  "name": "contractAddr",
                  "type": "address"
                }
              ],
              "internalType": "struct DataTypes.Exchange[]",
              "name": "exchanges",
              "type": "tuple[]"
            },
            {
              "internalType": "address[][]",
              "name": "paths",
              "type": "address[][]"
            },
            {
              "internalType": "address[][]",
              "name": "cpaths",
              "type": "address[][]"
            },
            {
              "internalType": "uint256[][][]",
              "name": "reserves",
              "type": "uint256[][][]"
            },
            {
              "internalType": "uint256[]",
              "name": "distributes",
              "type": "uint256[]"
            }
          ],
          "internalType": "struct DataTypes.SwapReserveRates",
          "name": "args",
          "type": "tuple"
        }
      ],
      "name": "buildSwapRouteSteps",
      "outputs": [
        {
          "components": [
            {
              "internalType": "bool",
              "name": "isEToken",
              "type": "bool"
            },
            {
              "internalType": "address",
              "name": "tokenIn",
              "type": "address"
            },
            {
              "internalType": "address",
              "name": "tokenOut",
              "type": "address"
            },
            {
              "internalType": "uint256",
              "name": "amountIn",
              "type": "uint256"
            },
            {
              "internalType": "uint256",
              "name": "minAmt",
              "type": "uint256"
            },
            {
              "internalType": "uint256",
              "name": "block",
              "type": "uint256"
            },
            {
              "components": [
                {
                  "internalType": "uint256",
                  "name": "flag",
                  "type": "uint256"
                },
                {
                  "internalType": "bytes",
                  "name": "data",
                  "type": "bytes"
                }
              ],
              "internalType": "struct DataTypes.StepExecuteParams[]",
              "name": "steps",
              "type": "tuple[]"
            }
          ],
          "internalType": "struct DataTypes.SwapParams",
          "name": "params",
          "type": "tuple"
        }
      ],
      "stateMutability": "view",
      "type": "function"
    },
    {
      "inputs": [
        {
          "internalType": "address",
          "name": "router",
          "type": "address"
        },
        {
          "internalType": "address[]",
          "name": "path",
          "type": "address[]"
        },
        {
          "internalType": "uint256",
          "name": "amtIn",
          "type": "uint256"
        },
        {
          "internalType": "bool",
          "name": "useRouter",
          "type": "bool"
        }
      ],
      "name": "buildUniSwapStep",
      "outputs": [
        {
          "components": [
            {
              "internalType": "uint256",
              "name": "flag",
              "type": "uint256"
            },
            {
              "internalType": "bytes",
              "name": "data",
              "type": "bytes"
            }
          ],
          "internalType": "struct DataTypes.StepExecuteParams",
          "name": "step",
          "type": "tuple"
        }
      ],
      "stateMutability": "view",
      "type": "function"
    },
    {
      "inputs": [
        {
          "internalType": "uint256",
          "name": "midTokens",
          "type": "uint256"
        },
        {
          "internalType": "uint256",
          "name": "complexLevel",
          "type": "uint256"
        }
      ],
      "name": "calcExchangeRoutes",
      "outputs": [
        {
          "internalType": "uint256",
          "name": "total",
          "type": "uint256"
        },
        {
          "components": [
            {
              "internalType": "uint256",
              "name": "exFlag",
              "type": "uint256"
            },
            {
              "internalType": "address",
              "name": "contractAddr",
              "type": "address"
            }
          ],
          "internalType": "struct DataTypes.Exchange[]",
          "name": "exchanges",
          "type": "tuple[]"
        }
      ],
      "stateMutability": "view",
      "type": "function"
    },
    {
      "inputs": [],
      "name": "ceth",
      "outputs": [
        {
          "internalType": "contract ILHT",
          "name": "",
          "type": "address"
        }
      ],
      "stateMutability": "view",
      "type": "function"
    },
    {
      "inputs": [],
      "name": "ctokenFactory",
      "outputs": [
        {
          "internalType": "contract ICTokenFactory",
          "name": "",
          "type": "address"
        }
      ],
      "stateMutability": "view",
      "type": "function"
    },
    {
      "inputs": [],
      "name": "exchangeCount",
      "outputs": [
        {
          "internalType": "uint256",
          "name": "",
          "type": "uint256"
        }
      ],
      "stateMutability": "view",
      "type": "function"
    },
    {
      "inputs": [
        {
          "components": [
            {
              "internalType": "address",
              "name": "to",
              "type": "address"
            },
            {
              "internalType": "address",
              "name": "tokenIn",
              "type": "address"
            },
            {
              "internalType": "address",
              "name": "tokenOut",
              "type": "address"
            },
            {
              "internalType": "uint256",
              "name": "amountIn",
              "type": "uint256"
            },
            {
              "internalType": "address[]",
              "name": "midTokens",
              "type": "address[]"
            },
            {
              "internalType": "uint256",
              "name": "mainRoutes",
              "type": "uint256"
            },
            {
              "internalType": "uint256",
              "name": "complex",
              "type": "uint256"
            },
            {
              "internalType": "uint256",
              "name": "parts",
              "type": "uint256"
            },
            {
              "internalType": "bool",
              "name": "allowPartial",
              "type": "bool"
            },
            {
              "internalType": "bool",
              "name": "allowBurnchi",
              "type": "bool"
            }
          ],
          "internalType": "struct DataTypes.QuoteParams",
          "name": "args",
          "type": "tuple"
        }
      ],
      "name": "getRoutesPaths",
      "outputs": [
        {
          "internalType": "uint256",
          "name": "routes",
          "type": "uint256"
        },
        {
          "internalType": "address[][]",
          "name": "paths",
          "type": "address[][]"
        },
        {
          "internalType": "address[][]",
          "name": "cpaths",
          "type": "address[][]"
        },
        {
          "components": [
            {
              "internalType": "uint256",
              "name": "exFlag",
              "type": "uint256"
            },
            {
              "internalType": "address",
              "name": "contractAddr",
              "type": "address"
            }
          ],
          "internalType": "struct DataTypes.Exchange[]",
          "name": "exchanges",
          "type": "tuple[]"
        }
      ],
      "stateMutability": "view",
      "type": "function"
    },
    {
      "inputs": [
        {
          "components": [
            {
              "internalType": "address",
              "name": "to",
              "type": "address"
            },
            {
              "internalType": "address",
              "name": "tokenIn",
              "type": "address"
            },
            {
              "internalType": "address",
              "name": "tokenOut",
              "type": "address"
            },
            {
              "internalType": "uint256",
              "name": "amountIn",
              "type": "uint256"
            },
            {
              "internalType": "address[]",
              "name": "midTokens",
              "type": "address[]"
            },
            {
              "internalType": "uint256",
              "name": "mainRoutes",
              "type": "uint256"
            },
            {
              "internalType": "uint256",
              "name": "complex",
              "type": "uint256"
            },
            {
              "internalType": "uint256",
              "name": "parts",
              "type": "uint256"
            },
            {
              "internalType": "bool",
              "name": "allowPartial",
              "type": "bool"
            },
            {
              "internalType": "bool",
              "name": "allowBurnchi",
              "type": "bool"
            }
          ],
          "internalType": "struct DataTypes.QuoteParams",
          "name": "args",
          "type": "tuple"
        }
      ],
      "name": "getSwapReserveRates",
      "outputs": [
        {
          "components": [
            {
              "internalType": "bool",
              "name": "isEToken",
              "type": "bool"
            },
            {
              "internalType": "bool",
              "name": "allowBurnchi",
              "type": "bool"
            },
            {
              "internalType": "bool",
              "name": "allEbank",
              "type": "bool"
            },
            {
              "internalType": "uint256",
              "name": "ebankAmt",
              "type": "uint256"
            },
            {
              "internalType": "uint256",
              "name": "amountIn",
              "type": "uint256"
            },
            {
              "internalType": "uint256",
              "name": "swapRoutes",
              "type": "uint256"
            },
            {
              "internalType": "address",
              "name": "tokenIn",
              "type": "address"
            },
            {
              "internalType": "address",
              "name": "tokenOut",
              "type": "address"
            },
            {
              "internalType": "address",
              "name": "etokenIn",
              "type": "address"
            },
            {
              "internalType": "address",
              "name": "etokenOut",
              "type": "address"
            },
            {
              "internalType": "uint256",
              "name": "routes",
              "type": "uint256"
            },
            {
              "internalType": "uint256",
              "name": "rateIn",
              "type": "uint256"
            },
            {
              "internalType": "uint256",
              "name": "rateOut",
              "type": "uint256"
            },
            {
              "internalType": "uint256[]",
              "name": "fees",
              "type": "uint256[]"
            },
            {
              "components": [
                {
                  "internalType": "uint256",
                  "name": "exFlag",
                  "type": "uint256"
                },
                {
                  "internalType": "address",
                  "name": "contractAddr",
                  "type": "address"
                }
              ],
              "internalType": "struct DataTypes.Exchange[]",
              "name": "exchanges",
              "type": "tuple[]"
            },
            {
              "internalType": "address[][]",
              "name": "paths",
              "type": "address[][]"
            },
            {
              "internalType": "address[][]",
              "name": "cpaths",
              "type": "address[][]"
            },
            {
              "internalType": "uint256[][][]",
              "name": "reserves",
              "type": "uint256[][][]"
            },
            {
              "internalType": "uint256[]",
              "name": "distributes",
              "type": "uint256[]"
            }
          ],
          "internalType": "struct DataTypes.SwapReserveRates",
          "name": "params",
          "type": "tuple"
        }
      ],
      "stateMutability": "view",
      "type": "function"
    },
    {
      "inputs": [
        {
          "internalType": "address",
          "name": "token",
          "type": "address"
        }
      ],
      "name": "isTokenToken",
      "outputs": [
        {
          "internalType": "bool",
          "name": "",
          "type": "bool"
        }
      ],
      "stateMutability": "view",
      "type": "function"
    },
    {
      "inputs": [],
      "name": "owner",
      "outputs": [
        {
          "internalType": "address",
          "name": "",
          "type": "address"
        }
      ],
      "stateMutability": "view",
      "type": "function"
    },
    {
      "inputs": [
        {
          "internalType": "uint256",
          "name": "i",
          "type": "uint256"
        }
      ],
      "name": "removeSwap",
      "outputs": [],
      "stateMutability": "nonpayable",
      "type": "function"
    },
    {
      "inputs": [],
      "name": "renounceOwnership",
      "outputs": [],
      "stateMutability": "nonpayable",
      "type": "function"
    },
    {
      "inputs": [
        {
          "internalType": "address",
          "name": "_ceth",
          "type": "address"
        }
      ],
      "name": "setCETH",
      "outputs": [],
      "stateMutability": "nonpayable",
      "type": "function"
    },
    {
      "inputs": [
        {
          "internalType": "address",
          "name": "factory",
          "type": "address"
        }
      ],
      "name": "setCtokenFactory",
      "outputs": [],
      "stateMutability": "nonpayable",
      "type": "function"
    },
    {
      "inputs": [
        {
          "internalType": "address",
          "name": "_weth",
          "type": "address"
        }
      ],
      "name": "setWETH",
      "outputs": [],
      "stateMutability": "nonpayable",
      "type": "function"
    },
    {
      "inputs": [
        {
          "internalType": "uint256",
          "name": "",
          "type": "uint256"
        }
      ],
      "name": "swaps",
      "outputs": [
        {
          "internalType": "uint256",
          "name": "exFlag",
          "type": "uint256"
        },
        {
          "internalType": "address",
          "name": "contractAddr",
          "type": "address"
        }
      ],
      "stateMutability": "view",
      "type": "function"
    },
    {
      "inputs": [
        {
          "internalType": "address",
          "name": "newOwner",
          "type": "address"
        }
      ],
      "name": "transferOwnership",
      "outputs": [],
      "stateMutability": "nonpayable",
      "type": "function"
    },
    {
      "inputs": [
        {
          "components": [
            {
              "internalType": "bool",
              "name": "isEToken",
              "type": "bool"
            },
            {
              "internalType": "address",
              "name": "tokenIn",
              "type": "address"
            },
            {
              "internalType": "address",
              "name": "tokenOut",
              "type": "address"
            },
            {
              "internalType": "uint256",
              "name": "amountIn",
              "type": "uint256"
            },
            {
              "internalType": "uint256",
              "name": "minAmt",
              "type": "uint256"
            },
            {
              "internalType": "uint256",
              "name": "block",
              "type": "uint256"
            },
            {
              "components": [
                {
                  "internalType": "uint256",
                  "name": "flag",
                  "type": "uint256"
                },
                {
                  "internalType": "bytes",
                  "name": "data",
                  "type": "bytes"
                }
              ],
              "internalType": "struct DataTypes.StepExecuteParams[]",
              "name": "steps",
              "type": "tuple[]"
            }
          ],
          "internalType": "struct DataTypes.SwapParams",
          "name": "args",
          "type": "tuple"
        }
      ],
      "name": "unoswap",
      "outputs": [],
      "stateMutability": "payable",
      "type": "function"
    },
    {
      "inputs": [],
      "name": "weth",
      "outputs": [
        {
          "internalType": "contract IWETH",
          "name": "",
          "type": "address"
        }
      ],
      "stateMutability": "view",
      "type": "function"
    },
    {
      "stateMutability": "payable",
      "type": "receive"
    }
  ],
  "transactionHash": "0x80b995fe38e66a817f622fedb699e9a2974b556f55d05bf18f429958b7710f0c",
  "args": [
    "0x7aF326B6351C8A9b8fb8CD205CBe11d4Ac5FA836",
    "0x042f1249297EF180f33d166828AC43e401E0FecA",
    "0xF4CfC260cA8F68f3069FbEc534afbA21E0903b4b"
  ],
  "solcInputHash": "bddb41bb9088066bf2db791dc851356b",
  "bytecode": "0x60806040523480156200001157600080fd5b50604051620055e9380380620055e98339810160408190526200003491620000d1565b600062000040620000cd565b600080546001600160a01b0319166001600160a01b0383169081178255604051929350917f8be0079c531659141344cd1fd0a4f28419497f9722a3daafe3b4186f6b6457e0908290a350600380546001600160a01b039485166001600160a01b0319918216179091556004805493851693821693909317909255600580549190931691161790556200013d565b3390565b600080600060608486031215620000e6578283fd5b8351620000f38162000124565b6020850151909350620001068162000124565b6040850151909250620001198162000124565b809150509250925092565b6001600160a01b03811681146200013a57600080fd5b50565b61549c806200014d6000396000f3fe6080604052600436106101795760003560e01c8063857b9fd0116100cb578063a36eb6311161007f578063f09c582911610059578063f09c58291461040d578063f11c48dc1461043b578063f2fde38b1461046857610180565b8063a36eb6311461039b578063d1d367ba146103cb578063ddd93585146103e057610180565b80638da5cb5b116100b05780638da5cb5b1461034657806396705cc71461035b5780639c6050161461037b57610180565b8063857b9fd0146102f95780638af15e6e1461032657610180565b80633fc8cef31161012d57806368972e501161010757806368972e50146102955780636c6ca238146102b7578063715018a6146102e457610180565b80633fc8cef3146102405780635a5ad601146102555780635b769f3c1461027557610180565b80630e1b8df71161015e5780630e1b8df7146101e957806322b83c2a1461020b57806325c9e2761461021e57610180565b80630272aa02146101855780630902a845146101bc57610180565b3661018057005b600080fd5b34801561019157600080fd5b506101a56101a03660046147ae565b610488565b6040516101b392919061530c565b60405180910390f35b3480156101c857600080fd5b506101dc6101d73660046140f3565b6106fc565b6040516101b39190615009565b3480156101f557600080fd5b5061020961020436600461477f565b6107e6565b005b61020961021936600461441d565b610868565b34801561022a57600080fd5b506102336111c1565b6040516101b39190614a3a565b34801561024c57600080fd5b506102336111d0565b34801561026157600080fd5b5061020961027036600461474f565b6111df565b34801561028157600080fd5b50610209610290366004614029565b611240565b3480156102a157600080fd5b506102aa6112a1565b6040516101b391906152a2565b3480156102c357600080fd5b506102d76102d2366004614029565b6112a7565b6040516101b39190614b17565b3480156102f057600080fd5b506102096113eb565b34801561030557600080fd5b506103196103143660046144dc565b611474565b6040516101b3919061501c565b34801561033257600080fd5b50610209610341366004614029565b6119bb565b34801561035257600080fd5b50610233611a1c565b34801561036757600080fd5b50610209610376366004614029565b611a2c565b34801561038757600080fd5b506101dc610396366004614061565b611a8d565b3480156103a757600080fd5b506103bb6103b6366004614324565b611b68565b6040516101b394939291906152c2565b3480156103d757600080fd5b50610233611fdc565b3480156103ec57600080fd5b506104006103fb366004614324565b611feb565b6040516101b391906150d7565b34801561041957600080fd5b5061042d61042836600461474f565b612881565b6040516101b39291906152ab565b34801561044757600080fd5b5061045b61045636600461415d565b6128a3565b6040516101b39190614b04565b34801561047457600080fd5b50610209610483366004614029565b612b2d565b6000606060005b60025481101561055b576000818152600160208190526040909120908101546001600160a01b03166104c15750610553565b80546040516331f6e32d60e11b8152730390155850994cC4BA3B0cc2CdB48aF64A8e00DB916363edc65a916104fd91908a908a90600401615361565b60206040518083038186803b15801561051557600080fd5b505af4158015610529573d6000803e3d6000fd5b505050506040513d601f19601f8201168201806040525081019061054d9190614767565b84019350505b60010161048f565b8267ffffffffffffffff8111801561057257600080fd5b506040519080825280602002602001820160405280156105ac57816020015b610599613a78565b8152602001906001900390816105915790505b50915060008091505b6002548210156106f3576000828152600160208190526040909120908101546001600160a01b03166105e757506106e8565b80546040516331f6e32d60e11b8152600091730390155850994cC4BA3B0cc2CdB48aF64A8e00DB916363edc65a91610625918c908c90600401615361565b60206040518083038186803b15801561063d57600080fd5b505af4158015610651573d6000803e3d6000fd5b505050506040513d601f19601f820116820180604052508101906106759190614767565b905060005b818110156106e457826000015486858151811061069357fe5b602090810291909101015152600183015486516001600160a01b03909116908790869081106106be57fe5b6020908102919091018101516001600160a01b039092169101526001938401930161067a565b5050505b6001909101906105b5565b50509250929050565b610704613a8f565b8161072a5760405162461bcd60e51b815260040161072190614e65565b60405180910390fd5b60008460008151811061073957fe5b6020026020010151905060008560018751038151811061075557fe5b6020026020010151905061076882612bed565b156107765760128352610792565b61077f81612bed565b1561078d5760138352610792565b601183525b61079a613aa9565b6001600160a01b0388166020808301919091528682526040808301899052516107c59183910161526a565b60408051601f19818403018152919052602085015250919695505050505050565b6107ee612c28565b6001600160a01b03166107ff611a1c565b6001600160a01b0316146108255760405162461bcd60e51b815260040161072190614e30565b60028054600090815260016020819052604090912093845592830180546001600160a01b0319166001600160a01b03939093169290921790915580549091019055565b60208101516001600160a01b0381166108a457816060015134101561089f5760405162461bcd60e51b815260040161072190614fc4565b6108b4565b6108b48133308560600151612c2c565b6108e0604051806060016040528060348152602001615433603491398360c00151518460600151612d1d565b6040820151825161025842019015610f245760c08401518051600091829081908190600590828661090d57fe5b6020026020010151600001511415610b3c57600194850194600019909401939250610936613a78565b8960c0015160008151811061094757fe5b60200260200101516020015180602001905181019061096691906142eb565b602081015181516040517fdb006a750000000000000000000000000000000000000000000000000000000081529293506001600160a01b039091169163db006a75916109b4916004016152a2565b606060405180830381600087803b1580156109ce57600080fd5b505af11580156109e2573d6000803e3d6000fd5b505050506040513d601f19601f82011682018060405250810190610a0691906147f2565b5050815160045460208401519194506001600160a01b03918216911614159050610a3257479250610b3a565b600554602082015160405163b8d7b66960e01b81526000926001600160a01b03169163b8d7b66991610a679190600401614a3a565b60206040518083038186803b158015610a7f57600080fd5b505afa158015610a93573d6000803e3d6000fd5b505050506040513d601f19601f82011682018060405250810190610ab79190614045565b6040516370a0823160e01b81529091506001600160a01b038216906370a0823190610ae6903090600401614a3a565b60206040518083038186803b158015610afe57600080fd5b505afa158015610b12573d6000803e3d6000fd5b505050506040513d601f19601f82011682018060405250810190610b369190614767565b9350505b505b8089606001511115610c2b57610b528830612d82565b610b5a613aa9565b8960c001518681518110610b6a57fe5b602002602001015160200151806020019051810190610b8991906146c7565b905080602001516001600160a01b03166338ed1739826000015160008460400151308c6040518663ffffffff1660e01b8152600401610bcc959493929190615325565b600060405180830381600087803b158015610be657600080fd5b505af1158015610bfa573d6000803e3d6000fd5b505050506040513d6000823e601f3d908101601f19168201604052610c22919081019061429c565b50506001909401935b6000610c3689612ee0565b90505b84861015610cd4576000610c4b613a8f565b8b60c001518881518110610c5b57fe5b60200260200101519050610c6d613aa9565b8160200151806020019051810190610c8591906146c7565b9050600188038914610cac578051610ca9908690610ca39089612f81565b90612fc2565b92505b610cc682600001518583602001518685604001518f613004565b505060019096019550610c39565b8315610f19576004546001600160a01b0389811691161415610d905760048054604080517f1249c58b000000000000000000000000000000000000000000000000000000008152815147946001600160a01b0390941693631249c58b9386938083019391929082900301818588803b158015610d4f57600080fd5b505af1158015610d63573d6000803e3d6000fd5b50505050506040513d601f19601f82011682018060405250810190610d8891906147cf565b505050610f19565b60055460405163b8d7b66960e01b81526000916001600160a01b03169063b8d7b66990610dc1908c90600401614a3a565b60206040518083038186803b158015610dd957600080fd5b505afa158015610ded573d6000803e3d6000fd5b505050506040513d601f19601f82011682018060405250810190610e119190614045565b9050610e1d818a612d82565b886001600160a01b031663a0712d68826001600160a01b03166370a08231306040518263ffffffff1660e01b8152600401610e589190614a3a565b60206040518083038186803b158015610e7057600080fd5b505afa158015610e84573d6000803e3d6000fd5b505050506040513d601f19601f82011682018060405250810190610ea89190614767565b6040518263ffffffff1660e01b8152600401610ec491906152a2565b602060405180830381600087803b158015610ede57600080fd5b505af1158015610ef2573d6000803e3d6000fd5b505050506040513d601f19601f82011682018060405250810190610f169190614767565b50505b505050505050611043565b610f686040518060400160405280600681526020017f73746570733a00000000000000000000000000000000000000000000000000008152508560c001515161360a565b60005b8460c00151518110156110415760008560c001518281518110610f8a57fe5b6020026020010151600001519050610fd86040518060400160405280600a81526020017f73776170202564202564000000000000000000000000000000000000000000008152508383612d1d565b610fe0613a8f565b8660c001518381518110610ff057fe5b60200260200101519050611002613aa9565b816020015180602001905181019061101a91906146c7565b905061103683888360200151846000015185604001518a613004565b505050600101610f6b565b505b60408401516001600160a01b03166110ca576080840151479081101561107b5760405162461bcd60e51b815260040161072190614ef9565b6110ba6040518060400160405280600c81526020017f6574682062616c616e63653a00000000000000000000000000000000000000008152508261360a565b6110c43382613668565b506111bb565b6040516370a0823160e01b81526000906001600160a01b038416906370a08231906110f9903090600401614a3a565b60206040518083038186803b15801561111157600080fd5b505afa158015611125573d6000803e3d6000fd5b505050506040513d601f19601f820116820180604052508101906111499190614767565b9050846080015181101561116f5760405162461bcd60e51b815260040161072190614ef9565b6111ae6040518060400160405280600e81526020017f746f6b656e2062616c616e63653a0000000000000000000000000000000000008152508261360a565b6111b98333836136f5565b505b50505050565b6005546001600160a01b031681565b6003546001600160a01b031681565b6111e7612c28565b6001600160a01b03166111f8611a1c565b6001600160a01b03161461121e5760405162461bcd60e51b815260040161072190614e30565b60009081526001602081905260409091200180546001600160a01b0319169055565b611248612c28565b6001600160a01b0316611259611a1c565b6001600160a01b03161461127f5760405162461bcd60e51b815260040161072190614e30565b600380546001600160a01b0319166001600160a01b0392909216919091179055565b60025481565b60055460405163714bca1f60e11b815260009182916001600160a01b039091169063e297943e906112dc908690600401614a3a565b60206040518083038186803b1580156112f457600080fd5b505afa158015611308573d6000803e3d6000fd5b505050506040513d601f19601f8201168201806040525081019061132c9190614045565b90506001600160a01b038116156113475760019150506113e6565b60055460405163b8d7b66960e01b81526000916001600160a01b03169063b8d7b66990611378908790600401614a3a565b60206040518083038186803b15801561139057600080fd5b505afa1580156113a4573d6000803e3d6000fd5b505050506040513d601f19601f820116820180604052508101906113c89190614045565b6001600160a01b0316146113e05760009150506113e6565b60019150505b919050565b6113f3612c28565b6001600160a01b0316611404611a1c565b6001600160a01b03161461142a5760405162461bcd60e51b815260040161072190614e30565b600080546040516001600160a01b03909116907f8be0079c531659141344cd1fd0a4f28419497f9722a3daafe3b4186f6b6457e0908390a3600080546001600160a01b0319169055565b61147c613ad3565b60a0820151608083015160608301528251156114c8576101008301516001600160a01b039081166020840152610120840151166040808401919091528301516114c3576001015b6114e9565b60c08301516001600160a01b03908116602084015260e08401511660408301525b82511515825260008167ffffffffffffffff8111801561150857600080fd5b5060405190808252806020026020018201604052801561154257816020015b61152f613a8f565b8152602001906001900390816115275790505b5060c08401528351801561155857506040840151155b156115a55761158661157b856060015186608001516137dc90919063ffffffff16565b85610100015161381e565b8360c00151828151811061159657fe5b60209081029190910101526001015b6060840151156117925760006115b9613873565b905060608060005b876102400151518110156116ee5787610240015181815181106115e057fe5b6020026020010151600014156115f5576116e6565b6115fd613a78565b886101c00151828151811061160e57fe5b60200260200101519050730390155850994cC4BA3B0cc2CdB48aF64A8e00DB634c1a86b682600001516040518263ffffffff1660e01b815260040161165391906152a2565b60206040518083038186803b15801561166b57600080fd5b505af415801561167f573d6000803e3d6000fd5b505050506040513d601f19601f820116820180604052508101906116a391906142cf565b156116e457886101e0015182815181106116b957fe5b6020026020010151935088610200015182815181106116d457fe5b60200260200101519250506116ee565b505b6001016115c1565b6117316040518060400160405280601881526020017f6275696c64206562616e6b20737465703a20616d743d25640000000000000000815250896060015161360a565b876102400151518114156117575760405162461bcd60e51b815260040161072190614d65565b61176c8484848b606001518c60000151611a8d565b8760c00151868151811061177c57fe5b6020908102919091010152505060019092019150505b60005b846102400151518110156119ad5784610240015181815181106117b457fe5b6020026020010151600014156117c9576119a5565b6117d1613a78565b856101c0015182815181106117e257fe5b60200260200101519050730390155850994cC4BA3B0cc2CdB48aF64A8e00DB634c1a86b682600001516040518263ffffffff1660e01b815260040161182791906152a2565b60206040518083038186803b15801561183f57600080fd5b505af4158015611853573d6000803e3d6000fd5b505050506040513d601f19601f8201168201806040525081019061187791906142cf565b1561188257506119a5565b8051604051633b71164f60e21b8152730390155850994cC4BA3B0cc2CdB48aF64A8e00DB9163edc4593c916118ba91906004016152a2565b60206040518083038186803b1580156118d257600080fd5b505af41580156118e6573d6000803e3d6000fd5b505050506040513d601f19601f8201168201806040525081019061190a91906142cf565b15611970576119508160200151876101e00151848151811061192857fe5b6020026020010151886102400151858151811061194157fe5b602002602001015160016106fc565b8560c00151848151811061196057fe5b602002602001018190525061199d565b611978613a8f565b6000815260c086015180518291908690811061199057fe5b6020026020010181905250505b506001909101905b600101611795565b50504360a083015250919050565b6119c3612c28565b6001600160a01b03166119d4611a1c565b6001600160a01b0316146119fa5760405162461bcd60e51b815260040161072190614e30565b600480546001600160a01b0319166001600160a01b0392909216919091179055565b6000546001600160a01b03165b90565b611a34612c28565b6001600160a01b0316611a45611a1c565b6001600160a01b031614611a6b5760405162461bcd60e51b815260040161072190614e30565b600580546001600160a01b0319166001600160a01b0392909216919091179055565b611a95613a8f565b611a9d613aa9565b82611b1857600085600081518110611ab157fe5b60200260200101519050600086600188510381518110611acd57fe5b60200260200101519050611ae082613914565b15611aee5760168452611b0a565b611af781613914565b15611b055760178452611b0a565b601584525b505060408101869052611b24565b60148252604081018590525b6001600160a01b038716602080830191909152848252604051611b499183910161526a565b60408051601f1981840301815291905260208301525095945050505050565b60006060806060611b828560800151518660c00151610488565b602087015160408801519296509092509081816001600160a01b038216611bb6576004546001600160a01b03169150611c5b565b611bc389602001516112a7565b15611bd857611bd184613944565b9150611c5b565b60055460405163b8d7b66960e01b81526001600160a01b039091169063b8d7b66990611c08908590600401614a3a565b60206040518083038186803b158015611c2057600080fd5b505afa158015611c34573d6000803e3d6000fd5b505050506040513d601f19601f82011682018060405250810190611c589190614045565b93505b60408901516001600160a01b0316611c7f57506004546001600160a01b0316611da3565b611c8c89604001516112a7565b15611ce057611c9e89602001516112a7565b80611cb4575060208901516001600160a01b0316155b611cd05760405162461bcd60e51b815260040161072190614c17565b611cd983613944565b9050611da3565b611ced89602001516112a7565b1580611d04575060208901516001600160a01b0316155b611d205760405162461bcd60e51b815260040161072190614cd1565b60055460405163b8d7b66960e01b81526001600160a01b039091169063b8d7b66990611d50908490600401614a3a565b60206040518083038186803b158015611d6857600080fd5b505afa158015611d7c573d6000803e3d6000fd5b505050506040513d601f19601f82011682018060405250810190611da09190614045565b92505b6001600160a01b038416611dc0576003546001600160a01b031693505b6001600160a01b038316611ddd576003546001600160a01b031692505b606089608001515167ffffffffffffffff81118015611dfb57600080fd5b50604051908082528060200260200182016040528015611e25578160200160208202803683370190505b50905060005b8a6080015151811015611e8457611e588b608001518281518110611e4b57fe5b6020026020010151613944565b828281518110611e6457fe5b6001600160a01b0390921660209283029190910190910152600101611e2b565b5060808a015160c08b015160405163a076618360e01b8152606092730390155850994cC4BA3B0cc2CdB48aF64A8e00DB9263a076618392611ecb928b928b92600401614a68565b60006040518083038186803b158015611ee357600080fd5b505af4158015611ef7573d6000803e3d6000fd5b505050506040513d6000823e601f3d908101601f19168201604052611f1f9190810190614198565b9050611f2a816128a3565b60c08c015160405163a076618360e01b8152919a50730390155850994cC4BA3B0cc2CdB48aF64A8e00DB9163a076618391611f6e9188918891889190600401614a68565b60006040518083038186803b158015611f8657600080fd5b505af4158015611f9a573d6000803e3d6000fd5b505050506040513d6000823e601f3d908101601f19168201604052611fc29190810190614198565b9050611fcd816128a3565b97505050505050509193509193565b6004546001600160a01b031681565b611ff3613b24565b6000600254116120155760405162461bcd60e51b815260040161072190614d2e565b61201e82611b68565b6101c08501526102008401526101e08301526101408201526040805160608101909152602280825261206c91906154116020830139826101400151836101e0015151846101c0015151613996565b61207982602001516112a7565b8061208c575061208c82604001516112a7565b1561220c5760006120a08360200151613944565b905060006120b18460400151613944565b6000845260208501516001600160a01b0390811660c0860152604080870151821660e0870152848216610100870152908216610120860152516349638fa760e11b8152909150730390155850994cC4BA3B0cc2CdB48aF64A8e00DB906392c71f4e90612121908590600401614a3a565b60206040518083038186803b15801561213957600080fd5b505af415801561214d573d6000803e3d6000fd5b505050506040513d601f19601f820116820180604052508101906121719190614767565b6101608401526040516349638fa760e11b8152730390155850994cC4BA3B0cc2CdB48aF64A8e00DB906392c71f4e906121ae908490600401614a3a565b60206040518083038186803b1580156121c657600080fd5b505af41580156121da573d6000803e3d6000fd5b505050506040513d601f19601f820116820180604052508101906121fe9190614767565b6101808401525061246b9050565b600181526020820180516001600160a01b0390811661010084015260408085015182166101208501526005549251905163b8d7b66960e01b8152929091169163b8d7b6699161225d91600401614a3a565b60206040518083038186803b15801561227557600080fd5b505afa158015612289573d6000803e3d6000fd5b505050506040513d601f19601f820116820180604052508101906122ad9190614045565b6001600160a01b0390811660c0830152600554604080850151905163b8d7b66960e01b8152919092169163b8d7b669916122ea9190600401614a3a565b60206040518083038186803b15801561230257600080fd5b505afa158015612316573d6000803e3d6000fd5b505050506040513d601f19601f8201168201806040525081019061233a9190614045565b6001600160a01b031660e082015260208201516040516349638fa760e11b8152730390155850994cC4BA3B0cc2CdB48aF64A8e00DB916392c71f4e916123839190600401614a3a565b60206040518083038186803b15801561239b57600080fd5b505af41580156123af573d6000803e3d6000fd5b505050506040513d601f19601f820116820180604052508101906123d39190614767565b61016082015260408083015190516349638fa760e11b8152730390155850994cC4BA3B0cc2CdB48aF64A8e00DB916392c71f4e916124149190600401614a3a565b60206040518083038186803b15801561242c57600080fd5b505af4158015612440573d6000803e3d6000fd5b505050506040513d601f19601f820116820180604052508101906124649190614767565b6101808201525b80610140015167ffffffffffffffff8111801561248757600080fd5b506040519080825280602002602001820160405280156124b1578160200160208202803683370190505b506101a082015261014081015167ffffffffffffffff811180156124d457600080fd5b5060405190808252806020026020018201604052801561250857816020015b60608152602001906001900390816124f35790505b5061022082015260005b816101e001515181101561287b57612528613a78565b826101c00151828151811061253957fe5b602002602001015190506060836101e00151838151811061255657fe5b60200260200101519050730390155850994cC4BA3B0cc2CdB48aF64A8e00DB63edc4593c83600001516040518263ffffffff1660e01b815260040161259b91906152a2565b60206040518083038186803b1580156125b357600080fd5b505af41580156125c7573d6000803e3d6000fd5b505050506040513d601f19601f820116820180604052508101906125eb91906142cf565b156128515781516040517f4c1a86b6000000000000000000000000000000000000000000000000000000008152730390155850994cC4BA3B0cc2CdB48aF64A8e00DB91634c1a86b69161264191906004016152a2565b60206040518083038186803b15801561265957600080fd5b505af415801561266d573d6000803e3d6000fd5b505050506040513d601f19601f8201168201806040525081019061269191906142cf565b1561277f57601e846101a0015184815181106126a957fe5b602002602001018181525050730390155850994cC4BA3B0cc2CdB48aF64A8e00DB63275f5396836020015186610200015186815181106126e557fe5b60200260200101516040518363ffffffff1660e01b815260040161270a929190614ac9565b60006040518083038186803b15801561272257600080fd5b505af4158015612736573d6000803e3d6000fd5b505050506040513d6000823e601f3d908101601f1916820160405261275e9190810190614221565b846102200151848151811061276f57fe5b602002602001018190525061284c565b601e846101a00151848151811061279257fe5b602002602001018181525050730390155850994cC4BA3B0cc2CdB48aF64A8e00DB63275f53968360200151836040518363ffffffff1660e01b81526004016127db929190614ac9565b60006040518083038186803b1580156127f357600080fd5b505af4158015612807573d6000803e3d6000fd5b505050506040513d6000823e601f3d908101601f1916820160405261282f9190810190614221565b846102200151848151811061284057fe5b60200260200101819052505b612871565b6004846101a00151848151811061286457fe5b6020026020010181815250505b5050600101612512565b50919050565b600160208190526000918252604090912080549101546001600160a01b031682565b60606000805b600254811015612984576000818152600160208190526040909120908101546001600160a01b03166128db575061297c565b8054604051633b71164f60e21b8152730390155850994cC4BA3B0cc2CdB48aF64A8e00DB9163edc4593c9161291391906004016152a2565b60206040518083038186803b15801561292b57600080fd5b505af415801561293f573d6000803e3d6000fd5b505050506040513d601f19601f8201168201806040525081019061296391906142cf565b156129735784518301925061297a565b6001909201915b505b6001016128a9565b508067ffffffffffffffff8111801561299c57600080fd5b506040519080825280602002602001820160405280156129d057816020015b60608152602001906001900390816129bb5790505b5091506000805b600254811015612b25576000818152600160208190526040909120908101546001600160a01b0316612a095750612b1d565b8054604051633b71164f60e21b8152730390155850994cC4BA3B0cc2CdB48aF64A8e00DB9163edc4593c91612a4191906004016152a2565b60206040518083038186803b158015612a5957600080fd5b505af4158015612a6d573d6000803e3d6000fd5b505050506040513d601f19601f82011682018060405250810190612a9191906142cf565b15612adf5760005b8651811015612ad957868181518110612aae57fe5b6020026020010151868581518110612ac257fe5b602090810291909101015260019384019301612a99565b50612b1b565b604080516001808252818301909252906020808301908036833701905050858481518110612b0957fe5b60209081029190910101526001909201915b505b6001016129d7565b505050919050565b612b35612c28565b6001600160a01b0316612b46611a1c565b6001600160a01b031614612b6c5760405162461bcd60e51b815260040161072190614e30565b6001600160a01b038116612b925760405162461bcd60e51b815260040161072190614c74565b600080546040516001600160a01b03808516939216917f8be0079c531659141344cd1fd0a4f28419497f9722a3daafe3b4186f6b6457e091a3600080546001600160a01b0319166001600160a01b0392909216919091179055565b6003546000906001600160a01b0383811691161480612c1357506001600160a01b038216155b15612c20575060016113e6565b506000919050565b3390565b60006060856001600160a01b03166323b872dd868686604051602401612c5493929190614aa5565b6040516020818303038152906040529060e01b6020820180516001600160e01b038381831617835250505050604051612c8d9190614a1e565b6000604051808303816000865af19150503d8060008114612cca576040519150601f19603f3d011682016040523d82523d6000602084013e612ccf565b606091505b5091509150818015612cf9575080511580612cf9575080806020019051810190612cf991906142cf565b612d155760405162461bcd60e51b815260040161072190614f67565b505050505050565b612d7d838383604051602401612d3593929190614b8c565b60408051601f198184030181529190526020810180516001600160e01b03167f969cdd03000000000000000000000000000000000000000000000000000000001790526139f4565b505050565b6040517fdd62ed3e0000000000000000000000000000000000000000000000000000000081527f7fffffffffffffffffffffffffffffffffffffffffffffffffffffffffffffff906001600160a01b0384169063dd62ed3e90612deb9030908690600401614a4e565b60206040518083038186803b158015612e0357600080fd5b505afa158015612e17573d6000803e3d6000fd5b505050506040513d601f19601f82011682018060405250810190612e3b9190614767565b1015612edc576040517f095ea7b30000000000000000000000000000000000000000000000000000000081526001600160a01b0383169063095ea7b390612e8a90849060001990600401614aeb565b602060405180830381600087803b158015612ea457600080fd5b505af1158015612eb8573d6000803e3d6000fd5b505050506040513d601f19601f82011682018060405250810190612d7d91906142cf565b5050565b6004546000906001600160a01b0316612efb575060006113e6565b60055460405163b8d7b66960e01b81526001600160a01b039091169063b8d7b66990612f2b908590600401614a3a565b60206040518083038186803b158015612f4357600080fd5b505afa158015612f57573d6000803e3d6000fd5b505050506040513d601f19601f82011682018060405250810190612f7b9190614045565b92915050565b600082612f9057506000612f7b565b82820282848281612f9d57fe5b0414612fbb5760405162461bcd60e51b815260040161072190614dd3565b9392505050565b6000612fbb83836040518060400160405280601a81526020017f536166654d6174683a206469766973696f6e206279207a65726f000000000000815250613a15565b6130436040518060400160405280601381526020017f5f646f526f757465725365747020666c61673a000000000000000000000000008152508761360a565b60128614806130525750601686145b156131be5782613060574792505b6012861415613113576040517f7ff36ab50000000000000000000000000000000000000000000000000000000081526001600160a01b03851690637ff36ab59085906130b790600090879030908890600401614b22565b6000604051808303818588803b1580156130d057600080fd5b505af11580156130e4573d6000803e3d6000fd5b50505050506040513d6000823e601f3d908101601f1916820160405261310d919081019061429c565b506131b9565b6040517fee41be8e0000000000000000000000000000000000000000000000000000000081526001600160a01b0385169063ee41be8e90859061316190600090879030908890600401614b22565b6000604051808303818588803b15801561317a57600080fd5b505af115801561318e573d6000803e3d6000fd5b50505050506040513d6000823e601f3d908101601f191682016040526131b7919081019061429c565b505b612d15565b82613242576040516370a0823160e01b81526001600160a01b038616906370a08231906131ef903090600401614a3a565b60206040518083038186803b15801561320757600080fd5b505afa15801561321b573d6000803e3d6000fd5b505050506040513d601f19601f8201168201806040525081019061323f9190614767565b92505b61324c8585612d82565b60118614156133b6576133126040518060400160405280601581526020017f756e697377617020746f6b656e2d3e746f6b656e3a0000000000000000000000815250835185886001600160a01b03166370a08231306040518263ffffffff1660e01b81526004016132bd9190614a3a565b60206040518083038186803b1580156132d557600080fd5b505afa1580156132e9573d6000803e3d6000fd5b505050506040513d601f19601f8201168201806040525081019061330d9190614767565b613996565b6040517f38ed17390000000000000000000000000000000000000000000000000000000081526001600160a01b038516906338ed173990613360908690600090879030908890600401615325565b600060405180830381600087803b15801561337a57600080fd5b505af115801561338e573d6000803e3d6000fd5b505050506040513d6000823e601f3d908101601f191682016040526131b7919081019061429c565b601386141561340d576040517f18cbafe50000000000000000000000000000000000000000000000000000000081526001600160a01b038516906318cbafe590613360908690600090879030908890600401615325565b601486141561347e576133126040518060400160405280601581526020017f6562616e6b2063746f6b656e2d3e63746f6b656e3a0000000000000000000000815250835185886001600160a01b03166370a08231306040518263ffffffff1660e01b81526004016132bd9190614a3a565b601586141561353d576134ef6040518060400160405280601381526020017f6562616e6b20746f6b656e2d3e746f6b656e3a00000000000000000000000000815250835185886001600160a01b03166370a08231306040518263ffffffff1660e01b81526004016132bd9190614a3a565b6040517f3eabf55f0000000000000000000000000000000000000000000000000000000081526001600160a01b03851690633eabf55f90613360908690600090879030908890600401615325565b6017861461355d5760405162461bcd60e51b815260040161072190614f30565b6040517f8e750db90000000000000000000000000000000000000000000000000000000081526001600160a01b03851690638e750db9906135ab908690600090879030908890600401615325565b600060405180830381600087803b1580156135c557600080fd5b505af11580156135d9573d6000803e3d6000fd5b505050506040513d6000823e601f3d908101601f19168201604052613601919081019061429c565b50505050505050565b612edc8282604051602401613620929190614b6a565b60408051601f198184030181529190526020810180516001600160e01b03167f9710a9d0000000000000000000000000000000000000000000000000000000001790526139f4565b604080516000808252602082019092526001600160a01b0384169083906040516136929190614a1e565b60006040518083038185875af1925050503d80600081146136cf576040519150601f19603f3d011682016040523d82523d6000602084013e6136d4565b606091505b5050905080612d7d5760405162461bcd60e51b815260040161072190614e9c565b60006060846001600160a01b031663a9059cbb858560405160240161371b929190614aeb565b6040516020818303038152906040529060e01b6020820180516001600160e01b0383818316178352505050506040516137549190614a1e565b6000604051808303816000865af19150503d8060008114613791576040519150601f19603f3d011682016040523d82523d6000602084013e613796565b606091505b50915091508180156137c05750805115806137c05750808060200190518101906137c091906142cf565b6111b95760405162461bcd60e51b815260040161072190614be0565b6000612fbb83836040518060400160405280601e81526020017f536166654d6174683a207375627472616374696f6e206f766572666c6f770000815250613a4c565b613826613a8f565b60058152613832613a78565b8381526001600160a01b03831660208083019190915260405161385791839101614ffb565b60408051601f1981840301815291905260208301525092915050565b6000805b6002548110156138ed57613889613a78565b50600081815260016020818152604092839020835180850190945280548085529201546001600160a01b03169083015260031480156138d4575060208101516001600160a01b031615155b156138e4576020015191506138ed565b50600101613877565b506001600160a01b038116611a295760405162461bcd60e51b815260040161072190614d9c565b6004546000906001600160a01b0383811691161480612c1357506001600160a01b038216612c20575060016113e6565b60006001600160a01b03821661396657506004546001600160a01b03166113e6565b60055460405163714bca1f60e11b81526001600160a01b039091169063e297943e90612f2b908590600401614a3a565b6111bb848484846040516024016139b09493929190614bb1565b60408051601f198184030181529190526020810180516001600160e01b03167f08ee5666000000000000000000000000000000000000000000000000000000001790525b80516a636f6e736f6c652e6c6f67602083016000808483855afa5050505050565b60008183613a365760405162461bcd60e51b81526004016107219190614b57565b506000838581613a4257fe5b0495945050505050565b60008184841115613a705760405162461bcd60e51b81526004016107219190614b57565b505050900390565b604080518082019091526000808252602082015290565b604051806040016040528060008152602001606081525090565b60405180606001604052806000815260200160006001600160a01b03168152602001606081525090565b6040518060e0016040528060001515815260200160006001600160a01b0316815260200160006001600160a01b03168152602001600081526020016000815260200160008152602001606081525090565b60405180610260016040528060001515815260200160001515815260200160001515815260200160008152602001600081526020016000815260200160006001600160a01b0316815260200160006001600160a01b0316815260200160006001600160a01b0316815260200160006001600160a01b031681526020016000815260200160008152602001600081526020016060815260200160608152602001606081526020016060815260200160608152602001606081525090565b8035612f7b816153ea565b600082601f830112613bfb578081fd5b8135613c0e613c098261539e565b615377565b818152915060208083019084810181840286018201871015613c2f57600080fd5b60005b84811015613c57578135613c45816153ea565b84529282019290820190600101613c32565b505050505092915050565b600082601f830112613c72578081fd5b8151613c80613c098261539e565b818152915060208083019084810181840286018201871015613ca157600080fd5b60005b84811015613c57578151613cb7816153ea565b84529282019290820190600101613ca4565b600082601f830112613cd9578081fd5b8135613ce7613c098261539e565b818152915060208083019084810160005b84811015613c5757613d0f888484358a0101613beb565b84529282019290820190600101613cf8565b600082601f830112613d31578081fd5b8135613d3f613c098261539e565b818152915060208083019084810160005b84811015613c57578135870188603f820112613d6b57600080fd5b83810135613d7b613c098261539e565b81815285810190604084810160005b85811015613db357613da18f8484358a0101613f62565b85529389019390890190600101613d8a565b50505087525050509282019290820190600101613d50565b600082601f830112613ddb578081fd5b8135613de9613c098261539e565b8181529150602080830190848101604080850287018301881015613e0c57600080fd5b6000805b86811015613e565782848b031215613e26578182fd5b613e2f83615377565b8435815285850135613e40816153ea565b8187015286529484019492820192600101613e10565b5050505050505092915050565b6000601f8381840112613e74578182fd5b8235613e82613c098261539e565b818152925060208084019085810160005b84811015613f5657813588016040601f198181848e03011215613eb557600080fd5b613ebe82615377565b8684013581528284013567ffffffffffffffff80821115613ede57600080fd5b81860195508e603f870112613ef257600080fd5b88860135915080821115613f0557600080fd5b50613f1588848d84011601615377565b92508083528d84828701011115613f2b57600080fd5b8084860189850137600090830188015280870191909152865250509282019290820190600101613e93565b50505050505092915050565b600082601f830112613f72578081fd5b8135613f80613c098261539e565b818152915060208083019084810181840286018201871015613fa157600080fd5b60005b84811015613c5757813584529282019290820190600101613fa4565b600082601f830112613fd0578081fd5b8151613fde613c098261539e565b818152915060208083019084810181840286018201871015613fff57600080fd5b60005b84811015613c5757815184529282019290820190600101614002565b8035612f7b81615402565b60006020828403121561403a578081fd5b8135612fbb816153ea565b600060208284031215614056578081fd5b8151612fbb816153ea565b600080600080600060a08688031215614078578081fd5b8535614083816153ea565b9450602086013567ffffffffffffffff8082111561409f578283fd5b6140ab89838a01613beb565b955060408801359150808211156140c0578283fd5b506140cd88828901613beb565b9350506060860135915060808601356140e581615402565b809150509295509295909350565b60008060008060808587031215614108578182fd5b8435614113816153ea565b9350602085013567ffffffffffffffff81111561412e578283fd5b61413a87828801613beb565b93505060408501359150606085013561415281615402565b939692955090935050565b60006020828403121561416e578081fd5b813567ffffffffffffffff811115614184578182fd5b61419084828501613cc9565b949350505050565b600060208083850312156141aa578182fd5b825167ffffffffffffffff8111156141c0578283fd5b8301601f810185136141d0578283fd5b80516141de613c098261539e565b81815283810190838501865b84811015614213576142018a888451890101613c62565b845292860192908601906001016141ea565b509098975050505050505050565b60006020808385031215614233578182fd5b825167ffffffffffffffff811115614249578283fd5b8301601f81018513614259578283fd5b8051614267613c098261539e565b81815283810190838501865b848110156142135761428a8a888451890101613fc0565b84529286019290860190600101614273565b6000602082840312156142ad578081fd5b815167ffffffffffffffff8111156142c3578182fd5b61419084828501613fc0565b6000602082840312156142e0578081fd5b8151612fbb81615402565b6000604082840312156142fc578081fd5b6143066040615377565b825181526020830151614318816153ea565b60208201529392505050565b600060208284031215614335578081fd5b813567ffffffffffffffff8082111561434c578283fd5b8184019150610140808387031215614362578384fd5b61436b81615377565b90506143778684613be0565b81526143868660208501613be0565b60208201526143988660408501613be0565b6040820152606083013560608201526080830135828111156143b8578485fd5b6143c487828601613beb565b60808301525060a083013560a082015260c083013560c082015260e083013560e082015261010091506143f98683850161401e565b82820152610120915061440e8683850161401e565b91810191909152949350505050565b60006020828403121561442e578081fd5b813567ffffffffffffffff80821115614445578283fd5b9083019060e08286031215614458578283fd5b61446260e0615377565b61446c868461401e565b815261447b8660208501613be0565b602082015261448d8660408501613be0565b6040820152606083013560608201526080830135608082015260a083013560a082015260c0830135828111156144c1578485fd5b6144cd87828601613e63565b60c08301525095945050505050565b6000602082840312156144ed578081fd5b813567ffffffffffffffff80821115614504578283fd5b818401915061026080838703121561451a578384fd5b61452381615377565b905061452f868461401e565b815261453e866020850161401e565b6020820152614550866040850161401e565b6040820152606083013560608201526080830135608082015260a083013560a08201526145808660c08501613be0565b60c08201526145928660e08501613be0565b60e08201526101006145a687828601613be0565b908201526101206145b987858301613be0565b908201526101408381013590820152610160808401359082015261018080840135908201526101a080840135838111156145f1578586fd5b6145fd88828701613f62565b8284015250506101c08084013583811115614616578586fd5b61462288828701613dcb565b8284015250506101e0808401358381111561463b578586fd5b61464788828701613cc9565b8284015250506102008084013583811115614660578586fd5b61466c88828701613cc9565b8284015250506102208084013583811115614685578586fd5b61469188828701613d21565b82840152505061024080840135838111156146aa578586fd5b6146b688828701613f62565b918301919091525095945050505050565b6000602082840312156146d8578081fd5b815167ffffffffffffffff808211156146ef578283fd5b9083019060608286031215614702578283fd5b61470c6060615377565b82518152602083015161471e816153ea565b6020820152604083015182811115614734578485fd5b61474087828601613c62565b60408301525095945050505050565b600060208284031215614760578081fd5b5035919050565b600060208284031215614778578081fd5b5051919050565b60008060408385031215614791578182fd5b8235915060208301356147a3816153ea565b809150509250929050565b600080604083850312156147c0578182fd5b50508035926020909101359150565b600080604083850312156147e1578182fd5b505080516020909101519092909150565b600080600060608486031215614806578081fd5b8351925060208401519150604084015190509250925092565b6001600160a01b03169052565b6000815180845260208085019450808401835b838110156148645781516001600160a01b03168752958201959082019060010161483f565b509495945050505050565b60008282518085526020808601955080818302840101818601855b848110156148b857601f198684030189526148a683835161482c565b9884019892509083019060010161488a565b5090979650505050505050565b60008282518085526020808601955080818302840101818601855b848110156148b857601f1986840381018a52825180518086529086019086860190878102870188018b5b828110156149365785898303018452614924828651614986565b948a0194938a0193915060010161490a565b509c88019c965050509285019250506001016148e0565b6000815180845260208085019450808401835b83811015614864576149738783516149e7565b6040969096019590820190600101614960565b6000815180845260208085019450808401835b8381101561486457815187529582019590820190600101614999565b15159052565b600081518084526149d38160208601602086016153be565b601f01601f19169290920160200192915050565b805182526020908101516001600160a01b0316910152565b60008151835260208201516040602085015261419060408501826149bb565b60008251614a308184602087016153be565b9190910192915050565b6001600160a01b0391909116815260200190565b6001600160a01b0392831681529116602082015260400190565b60006001600160a01b03808716835280861660208401525060806040830152614a94608083018561482c565b905082606083015295945050505050565b6001600160a01b039384168152919092166020820152604081019190915260600190565b60006001600160a01b038416825260406020830152614190604083018461482c565b6001600160a01b03929092168252602082015260400190565b600060208252612fbb602083018461486f565b901515815260200190565b600085825260806020830152614b3b608083018661482c565b6001600160a01b03949094166040830152506060015292915050565b600060208252612fbb60208301846149bb565b600060408252614b7d60408301856149bb565b90508260208301529392505050565b600060608252614b9f60608301866149bb565b60208301949094525060400152919050565b600060808252614bc460808301876149bb565b6020830195909552506040810192909252606090910152919050565b6020808252601f908201527f5472616e7366657248656c7065723a205452414e534645525f4641494c454400604082015260600190565b60208082526021908201527f626f746820746f6b656e20696e2f6f75742073686f756c6420626520746f6b6560408201527f6e00000000000000000000000000000000000000000000000000000000000000606082015260800190565b60208082526026908201527f4f776e61626c653a206e6577206f776e657220697320746865207a65726f206160408201527f6464726573730000000000000000000000000000000000000000000000000000606082015260800190565b60208082526022908201527f626f746820746f6b656e20696e2f6f75742073686f756c642062652065746f6b60408201527f656e000000000000000000000000000000000000000000000000000000000000606082015260800190565b6020808252600c908201527f6e6f2065786368616e6765730000000000000000000000000000000000000000604082015260600190565b60208082526008908201527f6e6f206562616e6b000000000000000000000000000000000000000000000000604082015260600190565b6020808252600f908201527f6e6f7420666f756e64206562616e6b0000000000000000000000000000000000604082015260600190565b60208082526021908201527f536166654d6174683a206d756c7469706c69636174696f6e206f766572666c6f60408201527f7700000000000000000000000000000000000000000000000000000000000000606082015260800190565b6020808252818101527f4f776e61626c653a2063616c6c6572206973206e6f7420746865206f776e6572604082015260600190565b6020808252600e908201527f6d75737420626520726f75746572000000000000000000000000000000000000604082015260600190565b60208082526023908201527f5472616e7366657248656c7065723a204554485f5452414e534645525f46414960408201527f4c45440000000000000000000000000000000000000000000000000000000000606082015260800190565b60208082526010908201527f6c657373207468616e206d696e416d7400000000000000000000000000000000604082015260600190565b6020808252600c908201527f696e76616c696420666c61670000000000000000000000000000000000000000604082015260600190565b60208082526024908201527f5472616e7366657248656c7065723a205452414e534645525f46524f4d5f464160408201527f494c454400000000000000000000000000000000000000000000000000000000606082015260800190565b60208082526010908201527f6e6f7420656e6f7567682076616c756500000000000000000000000000000000604082015260600190565b60408101612f7b82846149e7565b600060208252612fbb60208301846149ff565b6000602080835261010083018451151582850152818501516001600160a01b038082166040870152806040880151166060870152505060608501516080850152608085015160a085015260a085015160c085015260c085015160e080860152818151808452610120935083870191508385820288010193508483019250855b818110156150ca5761011f198886030183526150b88585516149ff565b9450928501929185019160010161509b565b5092979650505050505050565b6000602082526150eb6020830184516149b5565b60208301516150fd60408401826149b5565b50604083015161511060608401826149b5565b5060608301516080830152608083015160a083015260a083015160c083015260c083015161514160e084018261481f565b5060e08301516101006151568185018361481f565b840151905061012061516a8482018361481f565b840151905061014061517e8482018361481f565b84015161016084810191909152840151610180808501919091528401516101a0808501919091528401516102606101c0808601829052919250906151c6610280860184614986565b9250808601519050601f196101e08187860301818801526151e7858461494d565b945080880151925050610200818786030181880152615206858461486f565b945080880151925050610220818786030181880152615225858461486f565b94508088015192505061024081878603018188015261524485846148c5565b9088015187820390920184880152935090506152608382614986565b9695505050505050565b600060208252825160208301526001600160a01b0360208401511660408301526040830151606080840152614190608084018261482c565b90815260200190565b9182526001600160a01b0316602082015260400190565b6000858252608060208301526152db608083018661486f565b82810360408401526152ed818661486f565b90508281036060840152615301818561494d565b979650505050505050565b600083825260406020830152614190604083018461494d565b600086825285602083015260a0604083015261534460a083018661482c565b6001600160a01b0394909416606083015250608001529392505050565b9283526020830191909152604082015260600190565b60405181810167ffffffffffffffff8111828210171561539657600080fd5b604052919050565b600067ffffffffffffffff8211156153b4578081fd5b5060209081020190565b60005b838110156153d95781810151838201526020016153c1565b838111156111bb5750506000910152565b6001600160a01b03811681146153ff57600080fd5b50565b80151581146153ff57600080fdfe726f757465733a2025642070617468733a2025642065786368616e6765733a2025647472616e7366657220746f20737465707377617020737563636573732c2073746570733a20256420616d6f756e74496e3a202564a2646970667358221220f8bc518670de76f6e2add715c51ba8ac5a2af2243197687734c229061c07987464736f6c634300060c0033",
  "deployedBytecode": "0x6080604052600436106101795760003560e01c8063857b9fd0116100cb578063a36eb6311161007f578063f09c582911610059578063f09c58291461040d578063f11c48dc1461043b578063f2fde38b1461046857610180565b8063a36eb6311461039b578063d1d367ba146103cb578063ddd93585146103e057610180565b80638da5cb5b116100b05780638da5cb5b1461034657806396705cc71461035b5780639c6050161461037b57610180565b8063857b9fd0146102f95780638af15e6e1461032657610180565b80633fc8cef31161012d57806368972e501161010757806368972e50146102955780636c6ca238146102b7578063715018a6146102e457610180565b80633fc8cef3146102405780635a5ad601146102555780635b769f3c1461027557610180565b80630e1b8df71161015e5780630e1b8df7146101e957806322b83c2a1461020b57806325c9e2761461021e57610180565b80630272aa02146101855780630902a845146101bc57610180565b3661018057005b600080fd5b34801561019157600080fd5b506101a56101a03660046147ae565b610488565b6040516101b392919061530c565b60405180910390f35b3480156101c857600080fd5b506101dc6101d73660046140f3565b6106fc565b6040516101b39190615009565b3480156101f557600080fd5b5061020961020436600461477f565b6107e6565b005b61020961021936600461441d565b610868565b34801561022a57600080fd5b506102336111c1565b6040516101b39190614a3a565b34801561024c57600080fd5b506102336111d0565b34801561026157600080fd5b5061020961027036600461474f565b6111df565b34801561028157600080fd5b50610209610290366004614029565b611240565b3480156102a157600080fd5b506102aa6112a1565b6040516101b391906152a2565b3480156102c357600080fd5b506102d76102d2366004614029565b6112a7565b6040516101b39190614b17565b3480156102f057600080fd5b506102096113eb565b34801561030557600080fd5b506103196103143660046144dc565b611474565b6040516101b3919061501c565b34801561033257600080fd5b50610209610341366004614029565b6119bb565b34801561035257600080fd5b50610233611a1c565b34801561036757600080fd5b50610209610376366004614029565b611a2c565b34801561038757600080fd5b506101dc610396366004614061565b611a8d565b3480156103a757600080fd5b506103bb6103b6366004614324565b611b68565b6040516101b394939291906152c2565b3480156103d757600080fd5b50610233611fdc565b3480156103ec57600080fd5b506104006103fb366004614324565b611feb565b6040516101b391906150d7565b34801561041957600080fd5b5061042d61042836600461474f565b612881565b6040516101b39291906152ab565b34801561044757600080fd5b5061045b61045636600461415d565b6128a3565b6040516101b39190614b04565b34801561047457600080fd5b50610209610483366004614029565b612b2d565b6000606060005b60025481101561055b576000818152600160208190526040909120908101546001600160a01b03166104c15750610553565b80546040516331f6e32d60e11b815273__$c57c5a2f57f31663e8b085606ef2ffd4d4$__916363edc65a916104fd91908a908a90600401615361565b60206040518083038186803b15801561051557600080fd5b505af4158015610529573d6000803e3d6000fd5b505050506040513d601f19601f8201168201806040525081019061054d9190614767565b84019350505b60010161048f565b8267ffffffffffffffff8111801561057257600080fd5b506040519080825280602002602001820160405280156105ac57816020015b610599613a78565b8152602001906001900390816105915790505b50915060008091505b6002548210156106f3576000828152600160208190526040909120908101546001600160a01b03166105e757506106e8565b80546040516331f6e32d60e11b815260009173__$c57c5a2f57f31663e8b085606ef2ffd4d4$__916363edc65a91610625918c908c90600401615361565b60206040518083038186803b15801561063d57600080fd5b505af4158015610651573d6000803e3d6000fd5b505050506040513d601f19601f820116820180604052508101906106759190614767565b905060005b818110156106e457826000015486858151811061069357fe5b602090810291909101015152600183015486516001600160a01b03909116908790869081106106be57fe5b6020908102919091018101516001600160a01b039092169101526001938401930161067a565b5050505b6001909101906105b5565b50509250929050565b610704613a8f565b8161072a5760405162461bcd60e51b815260040161072190614e65565b60405180910390fd5b60008460008151811061073957fe5b6020026020010151905060008560018751038151811061075557fe5b6020026020010151905061076882612bed565b156107765760128352610792565b61077f81612bed565b1561078d5760138352610792565b601183525b61079a613aa9565b6001600160a01b0388166020808301919091528682526040808301899052516107c59183910161526a565b60408051601f19818403018152919052602085015250919695505050505050565b6107ee612c28565b6001600160a01b03166107ff611a1c565b6001600160a01b0316146108255760405162461bcd60e51b815260040161072190614e30565b60028054600090815260016020819052604090912093845592830180546001600160a01b0319166001600160a01b03939093169290921790915580549091019055565b60208101516001600160a01b0381166108a457816060015134101561089f5760405162461bcd60e51b815260040161072190614fc4565b6108b4565b6108b48133308560600151612c2c565b6108e0604051806060016040528060348152602001615433603491398360c00151518460600151612d1d565b6040820151825161025842019015610f245760c08401518051600091829081908190600590828661090d57fe5b6020026020010151600001511415610b3c57600194850194600019909401939250610936613a78565b8960c0015160008151811061094757fe5b60200260200101516020015180602001905181019061096691906142eb565b602081015181516040517fdb006a750000000000000000000000000000000000000000000000000000000081529293506001600160a01b039091169163db006a75916109b4916004016152a2565b606060405180830381600087803b1580156109ce57600080fd5b505af11580156109e2573d6000803e3d6000fd5b505050506040513d601f19601f82011682018060405250810190610a0691906147f2565b5050815160045460208401519194506001600160a01b03918216911614159050610a3257479250610b3a565b600554602082015160405163b8d7b66960e01b81526000926001600160a01b03169163b8d7b66991610a679190600401614a3a565b60206040518083038186803b158015610a7f57600080fd5b505afa158015610a93573d6000803e3d6000fd5b505050506040513d601f19601f82011682018060405250810190610ab79190614045565b6040516370a0823160e01b81529091506001600160a01b038216906370a0823190610ae6903090600401614a3a565b60206040518083038186803b158015610afe57600080fd5b505afa158015610b12573d6000803e3d6000fd5b505050506040513d601f19601f82011682018060405250810190610b369190614767565b9350505b505b8089606001511115610c2b57610b528830612d82565b610b5a613aa9565b8960c001518681518110610b6a57fe5b602002602001015160200151806020019051810190610b8991906146c7565b905080602001516001600160a01b03166338ed1739826000015160008460400151308c6040518663ffffffff1660e01b8152600401610bcc959493929190615325565b600060405180830381600087803b158015610be657600080fd5b505af1158015610bfa573d6000803e3d6000fd5b505050506040513d6000823e601f3d908101601f19168201604052610c22919081019061429c565b50506001909401935b6000610c3689612ee0565b90505b84861015610cd4576000610c4b613a8f565b8b60c001518881518110610c5b57fe5b60200260200101519050610c6d613aa9565b8160200151806020019051810190610c8591906146c7565b9050600188038914610cac578051610ca9908690610ca39089612f81565b90612fc2565b92505b610cc682600001518583602001518685604001518f613004565b505060019096019550610c39565b8315610f19576004546001600160a01b0389811691161415610d905760048054604080517f1249c58b000000000000000000000000000000000000000000000000000000008152815147946001600160a01b0390941693631249c58b9386938083019391929082900301818588803b158015610d4f57600080fd5b505af1158015610d63573d6000803e3d6000fd5b50505050506040513d601f19601f82011682018060405250810190610d8891906147cf565b505050610f19565b60055460405163b8d7b66960e01b81526000916001600160a01b03169063b8d7b66990610dc1908c90600401614a3a565b60206040518083038186803b158015610dd957600080fd5b505afa158015610ded573d6000803e3d6000fd5b505050506040513d601f19601f82011682018060405250810190610e119190614045565b9050610e1d818a612d82565b886001600160a01b031663a0712d68826001600160a01b03166370a08231306040518263ffffffff1660e01b8152600401610e589190614a3a565b60206040518083038186803b158015610e7057600080fd5b505afa158015610e84573d6000803e3d6000fd5b505050506040513d601f19601f82011682018060405250810190610ea89190614767565b6040518263ffffffff1660e01b8152600401610ec491906152a2565b602060405180830381600087803b158015610ede57600080fd5b505af1158015610ef2573d6000803e3d6000fd5b505050506040513d601f19601f82011682018060405250810190610f169190614767565b50505b505050505050611043565b610f686040518060400160405280600681526020017f73746570733a00000000000000000000000000000000000000000000000000008152508560c001515161360a565b60005b8460c00151518110156110415760008560c001518281518110610f8a57fe5b6020026020010151600001519050610fd86040518060400160405280600a81526020017f73776170202564202564000000000000000000000000000000000000000000008152508383612d1d565b610fe0613a8f565b8660c001518381518110610ff057fe5b60200260200101519050611002613aa9565b816020015180602001905181019061101a91906146c7565b905061103683888360200151846000015185604001518a613004565b505050600101610f6b565b505b60408401516001600160a01b03166110ca576080840151479081101561107b5760405162461bcd60e51b815260040161072190614ef9565b6110ba6040518060400160405280600c81526020017f6574682062616c616e63653a00000000000000000000000000000000000000008152508261360a565b6110c43382613668565b506111bb565b6040516370a0823160e01b81526000906001600160a01b038416906370a08231906110f9903090600401614a3a565b60206040518083038186803b15801561111157600080fd5b505afa158015611125573d6000803e3d6000fd5b505050506040513d601f19601f820116820180604052508101906111499190614767565b9050846080015181101561116f5760405162461bcd60e51b815260040161072190614ef9565b6111ae6040518060400160405280600e81526020017f746f6b656e2062616c616e63653a0000000000000000000000000000000000008152508261360a565b6111b98333836136f5565b505b50505050565b6005546001600160a01b031681565b6003546001600160a01b031681565b6111e7612c28565b6001600160a01b03166111f8611a1c565b6001600160a01b03161461121e5760405162461bcd60e51b815260040161072190614e30565b60009081526001602081905260409091200180546001600160a01b0319169055565b611248612c28565b6001600160a01b0316611259611a1c565b6001600160a01b03161461127f5760405162461bcd60e51b815260040161072190614e30565b600380546001600160a01b0319166001600160a01b0392909216919091179055565b60025481565b60055460405163714bca1f60e11b815260009182916001600160a01b039091169063e297943e906112dc908690600401614a3a565b60206040518083038186803b1580156112f457600080fd5b505afa158015611308573d6000803e3d6000fd5b505050506040513d601f19601f8201168201806040525081019061132c9190614045565b90506001600160a01b038116156113475760019150506113e6565b60055460405163b8d7b66960e01b81526000916001600160a01b03169063b8d7b66990611378908790600401614a3a565b60206040518083038186803b15801561139057600080fd5b505afa1580156113a4573d6000803e3d6000fd5b505050506040513d601f19601f820116820180604052508101906113c89190614045565b6001600160a01b0316146113e05760009150506113e6565b60019150505b919050565b6113f3612c28565b6001600160a01b0316611404611a1c565b6001600160a01b03161461142a5760405162461bcd60e51b815260040161072190614e30565b600080546040516001600160a01b03909116907f8be0079c531659141344cd1fd0a4f28419497f9722a3daafe3b4186f6b6457e0908390a3600080546001600160a01b0319169055565b61147c613ad3565b60a0820151608083015160608301528251156114c8576101008301516001600160a01b039081166020840152610120840151166040808401919091528301516114c3576001015b6114e9565b60c08301516001600160a01b03908116602084015260e08401511660408301525b82511515825260008167ffffffffffffffff8111801561150857600080fd5b5060405190808252806020026020018201604052801561154257816020015b61152f613a8f565b8152602001906001900390816115275790505b5060c08401528351801561155857506040840151155b156115a55761158661157b856060015186608001516137dc90919063ffffffff16565b85610100015161381e565b8360c00151828151811061159657fe5b60209081029190910101526001015b6060840151156117925760006115b9613873565b905060608060005b876102400151518110156116ee5787610240015181815181106115e057fe5b6020026020010151600014156115f5576116e6565b6115fd613a78565b886101c00151828151811061160e57fe5b6020026020010151905073__$c57c5a2f57f31663e8b085606ef2ffd4d4$__634c1a86b682600001516040518263ffffffff1660e01b815260040161165391906152a2565b60206040518083038186803b15801561166b57600080fd5b505af415801561167f573d6000803e3d6000fd5b505050506040513d601f19601f820116820180604052508101906116a391906142cf565b156116e457886101e0015182815181106116b957fe5b6020026020010151935088610200015182815181106116d457fe5b60200260200101519250506116ee565b505b6001016115c1565b6117316040518060400160405280601881526020017f6275696c64206562616e6b20737465703a20616d743d25640000000000000000815250896060015161360a565b876102400151518114156117575760405162461bcd60e51b815260040161072190614d65565b61176c8484848b606001518c60000151611a8d565b8760c00151868151811061177c57fe5b6020908102919091010152505060019092019150505b60005b846102400151518110156119ad5784610240015181815181106117b457fe5b6020026020010151600014156117c9576119a5565b6117d1613a78565b856101c0015182815181106117e257fe5b6020026020010151905073__$c57c5a2f57f31663e8b085606ef2ffd4d4$__634c1a86b682600001516040518263ffffffff1660e01b815260040161182791906152a2565b60206040518083038186803b15801561183f57600080fd5b505af4158015611853573d6000803e3d6000fd5b505050506040513d601f19601f8201168201806040525081019061187791906142cf565b1561188257506119a5565b8051604051633b71164f60e21b815273__$c57c5a2f57f31663e8b085606ef2ffd4d4$__9163edc4593c916118ba91906004016152a2565b60206040518083038186803b1580156118d257600080fd5b505af41580156118e6573d6000803e3d6000fd5b505050506040513d601f19601f8201168201806040525081019061190a91906142cf565b15611970576119508160200151876101e00151848151811061192857fe5b6020026020010151886102400151858151811061194157fe5b602002602001015160016106fc565b8560c00151848151811061196057fe5b602002602001018190525061199d565b611978613a8f565b6000815260c086015180518291908690811061199057fe5b6020026020010181905250505b506001909101905b600101611795565b50504360a083015250919050565b6119c3612c28565b6001600160a01b03166119d4611a1c565b6001600160a01b0316146119fa5760405162461bcd60e51b815260040161072190614e30565b600480546001600160a01b0319166001600160a01b0392909216919091179055565b6000546001600160a01b03165b90565b611a34612c28565b6001600160a01b0316611a45611a1c565b6001600160a01b031614611a6b5760405162461bcd60e51b815260040161072190614e30565b600580546001600160a01b0319166001600160a01b0392909216919091179055565b611a95613a8f565b611a9d613aa9565b82611b1857600085600081518110611ab157fe5b60200260200101519050600086600188510381518110611acd57fe5b60200260200101519050611ae082613914565b15611aee5760168452611b0a565b611af781613914565b15611b055760178452611b0a565b601584525b505060408101869052611b24565b60148252604081018590525b6001600160a01b038716602080830191909152848252604051611b499183910161526a565b60408051601f1981840301815291905260208301525095945050505050565b60006060806060611b828560800151518660c00151610488565b602087015160408801519296509092509081816001600160a01b038216611bb6576004546001600160a01b03169150611c5b565b611bc389602001516112a7565b15611bd857611bd184613944565b9150611c5b565b60055460405163b8d7b66960e01b81526001600160a01b039091169063b8d7b66990611c08908590600401614a3a565b60206040518083038186803b158015611c2057600080fd5b505afa158015611c34573d6000803e3d6000fd5b505050506040513d601f19601f82011682018060405250810190611c589190614045565b93505b60408901516001600160a01b0316611c7f57506004546001600160a01b0316611da3565b611c8c89604001516112a7565b15611ce057611c9e89602001516112a7565b80611cb4575060208901516001600160a01b0316155b611cd05760405162461bcd60e51b815260040161072190614c17565b611cd983613944565b9050611da3565b611ced89602001516112a7565b1580611d04575060208901516001600160a01b0316155b611d205760405162461bcd60e51b815260040161072190614cd1565b60055460405163b8d7b66960e01b81526001600160a01b039091169063b8d7b66990611d50908490600401614a3a565b60206040518083038186803b158015611d6857600080fd5b505afa158015611d7c573d6000803e3d6000fd5b505050506040513d601f19601f82011682018060405250810190611da09190614045565b92505b6001600160a01b038416611dc0576003546001600160a01b031693505b6001600160a01b038316611ddd576003546001600160a01b031692505b606089608001515167ffffffffffffffff81118015611dfb57600080fd5b50604051908082528060200260200182016040528015611e25578160200160208202803683370190505b50905060005b8a6080015151811015611e8457611e588b608001518281518110611e4b57fe5b6020026020010151613944565b828281518110611e6457fe5b6001600160a01b0390921660209283029190910190910152600101611e2b565b5060808a015160c08b015160405163a076618360e01b815260609273__$c57c5a2f57f31663e8b085606ef2ffd4d4$__9263a076618392611ecb928b928b92600401614a68565b60006040518083038186803b158015611ee357600080fd5b505af4158015611ef7573d6000803e3d6000fd5b505050506040513d6000823e601f3d908101601f19168201604052611f1f9190810190614198565b9050611f2a816128a3565b60c08c015160405163a076618360e01b8152919a5073__$c57c5a2f57f31663e8b085606ef2ffd4d4$__9163a076618391611f6e9188918891889190600401614a68565b60006040518083038186803b158015611f8657600080fd5b505af4158015611f9a573d6000803e3d6000fd5b505050506040513d6000823e601f3d908101601f19168201604052611fc29190810190614198565b9050611fcd816128a3565b97505050505050509193509193565b6004546001600160a01b031681565b611ff3613b24565b6000600254116120155760405162461bcd60e51b815260040161072190614d2e565b61201e82611b68565b6101c08501526102008401526101e08301526101408201526040805160608101909152602280825261206c91906154116020830139826101400151836101e0015151846101c0015151613996565b61207982602001516112a7565b8061208c575061208c82604001516112a7565b1561220c5760006120a08360200151613944565b905060006120b18460400151613944565b6000845260208501516001600160a01b0390811660c0860152604080870151821660e0870152848216610100870152908216610120860152516349638fa760e11b815290915073__$c57c5a2f57f31663e8b085606ef2ffd4d4$__906392c71f4e90612121908590600401614a3a565b60206040518083038186803b15801561213957600080fd5b505af415801561214d573d6000803e3d6000fd5b505050506040513d601f19601f820116820180604052508101906121719190614767565b6101608401526040516349638fa760e11b815273__$c57c5a2f57f31663e8b085606ef2ffd4d4$__906392c71f4e906121ae908490600401614a3a565b60206040518083038186803b1580156121c657600080fd5b505af41580156121da573d6000803e3d6000fd5b505050506040513d601f19601f820116820180604052508101906121fe9190614767565b6101808401525061246b9050565b600181526020820180516001600160a01b0390811661010084015260408085015182166101208501526005549251905163b8d7b66960e01b8152929091169163b8d7b6699161225d91600401614a3a565b60206040518083038186803b15801561227557600080fd5b505afa158015612289573d6000803e3d6000fd5b505050506040513d601f19601f820116820180604052508101906122ad9190614045565b6001600160a01b0390811660c0830152600554604080850151905163b8d7b66960e01b8152919092169163b8d7b669916122ea9190600401614a3a565b60206040518083038186803b15801561230257600080fd5b505afa158015612316573d6000803e3d6000fd5b505050506040513d601f19601f8201168201806040525081019061233a9190614045565b6001600160a01b031660e082015260208201516040516349638fa760e11b815273__$c57c5a2f57f31663e8b085606ef2ffd4d4$__916392c71f4e916123839190600401614a3a565b60206040518083038186803b15801561239b57600080fd5b505af41580156123af573d6000803e3d6000fd5b505050506040513d601f19601f820116820180604052508101906123d39190614767565b61016082015260408083015190516349638fa760e11b815273__$c57c5a2f57f31663e8b085606ef2ffd4d4$__916392c71f4e916124149190600401614a3a565b60206040518083038186803b15801561242c57600080fd5b505af4158015612440573d6000803e3d6000fd5b505050506040513d601f19601f820116820180604052508101906124649190614767565b6101808201525b80610140015167ffffffffffffffff8111801561248757600080fd5b506040519080825280602002602001820160405280156124b1578160200160208202803683370190505b506101a082015261014081015167ffffffffffffffff811180156124d457600080fd5b5060405190808252806020026020018201604052801561250857816020015b60608152602001906001900390816124f35790505b5061022082015260005b816101e001515181101561287b57612528613a78565b826101c00151828151811061253957fe5b602002602001015190506060836101e00151838151811061255657fe5b6020026020010151905073__$c57c5a2f57f31663e8b085606ef2ffd4d4$__63edc4593c83600001516040518263ffffffff1660e01b815260040161259b91906152a2565b60206040518083038186803b1580156125b357600080fd5b505af41580156125c7573d6000803e3d6000fd5b505050506040513d601f19601f820116820180604052508101906125eb91906142cf565b156128515781516040517f4c1a86b600000000000000000000000000000000000000000000000000000000815273__$c57c5a2f57f31663e8b085606ef2ffd4d4$__91634c1a86b69161264191906004016152a2565b60206040518083038186803b15801561265957600080fd5b505af415801561266d573d6000803e3d6000fd5b505050506040513d601f19601f8201168201806040525081019061269191906142cf565b1561277f57601e846101a0015184815181106126a957fe5b60200260200101818152505073__$c57c5a2f57f31663e8b085606ef2ffd4d4$__63275f5396836020015186610200015186815181106126e557fe5b60200260200101516040518363ffffffff1660e01b815260040161270a929190614ac9565b60006040518083038186803b15801561272257600080fd5b505af4158015612736573d6000803e3d6000fd5b505050506040513d6000823e601f3d908101601f1916820160405261275e9190810190614221565b846102200151848151811061276f57fe5b602002602001018190525061284c565b601e846101a00151848151811061279257fe5b60200260200101818152505073__$c57c5a2f57f31663e8b085606ef2ffd4d4$__63275f53968360200151836040518363ffffffff1660e01b81526004016127db929190614ac9565b60006040518083038186803b1580156127f357600080fd5b505af4158015612807573d6000803e3d6000fd5b505050506040513d6000823e601f3d908101601f1916820160405261282f9190810190614221565b846102200151848151811061284057fe5b60200260200101819052505b612871565b6004846101a00151848151811061286457fe5b6020026020010181815250505b5050600101612512565b50919050565b600160208190526000918252604090912080549101546001600160a01b031682565b60606000805b600254811015612984576000818152600160208190526040909120908101546001600160a01b03166128db575061297c565b8054604051633b71164f60e21b815273__$c57c5a2f57f31663e8b085606ef2ffd4d4$__9163edc4593c9161291391906004016152a2565b60206040518083038186803b15801561292b57600080fd5b505af415801561293f573d6000803e3d6000fd5b505050506040513d601f19601f8201168201806040525081019061296391906142cf565b156129735784518301925061297a565b6001909201915b505b6001016128a9565b508067ffffffffffffffff8111801561299c57600080fd5b506040519080825280602002602001820160405280156129d057816020015b60608152602001906001900390816129bb5790505b5091506000805b600254811015612b25576000818152600160208190526040909120908101546001600160a01b0316612a095750612b1d565b8054604051633b71164f60e21b815273__$c57c5a2f57f31663e8b085606ef2ffd4d4$__9163edc4593c91612a4191906004016152a2565b60206040518083038186803b158015612a5957600080fd5b505af4158015612a6d573d6000803e3d6000fd5b505050506040513d601f19601f82011682018060405250810190612a9191906142cf565b15612adf5760005b8651811015612ad957868181518110612aae57fe5b6020026020010151868581518110612ac257fe5b602090810291909101015260019384019301612a99565b50612b1b565b604080516001808252818301909252906020808301908036833701905050858481518110612b0957fe5b60209081029190910101526001909201915b505b6001016129d7565b505050919050565b612b35612c28565b6001600160a01b0316612b46611a1c565b6001600160a01b031614612b6c5760405162461bcd60e51b815260040161072190614e30565b6001600160a01b038116612b925760405162461bcd60e51b815260040161072190614c74565b600080546040516001600160a01b03808516939216917f8be0079c531659141344cd1fd0a4f28419497f9722a3daafe3b4186f6b6457e091a3600080546001600160a01b0319166001600160a01b0392909216919091179055565b6003546000906001600160a01b0383811691161480612c1357506001600160a01b038216155b15612c20575060016113e6565b506000919050565b3390565b60006060856001600160a01b03166323b872dd868686604051602401612c5493929190614aa5565b6040516020818303038152906040529060e01b6020820180516001600160e01b038381831617835250505050604051612c8d9190614a1e565b6000604051808303816000865af19150503d8060008114612cca576040519150601f19603f3d011682016040523d82523d6000602084013e612ccf565b606091505b5091509150818015612cf9575080511580612cf9575080806020019051810190612cf991906142cf565b612d155760405162461bcd60e51b815260040161072190614f67565b505050505050565b612d7d838383604051602401612d3593929190614b8c565b60408051601f198184030181529190526020810180516001600160e01b03167f969cdd03000000000000000000000000000000000000000000000000000000001790526139f4565b505050565b6040517fdd62ed3e0000000000000000000000000000000000000000000000000000000081527f7fffffffffffffffffffffffffffffffffffffffffffffffffffffffffffffff906001600160a01b0384169063dd62ed3e90612deb9030908690600401614a4e565b60206040518083038186803b158015612e0357600080fd5b505afa158015612e17573d6000803e3d6000fd5b505050506040513d601f19601f82011682018060405250810190612e3b9190614767565b1015612edc576040517f095ea7b30000000000000000000000000000000000000000000000000000000081526001600160a01b0383169063095ea7b390612e8a90849060001990600401614aeb565b602060405180830381600087803b158015612ea457600080fd5b505af1158015612eb8573d6000803e3d6000fd5b505050506040513d601f19601f82011682018060405250810190612d7d91906142cf565b5050565b6004546000906001600160a01b0316612efb575060006113e6565b60055460405163b8d7b66960e01b81526001600160a01b039091169063b8d7b66990612f2b908590600401614a3a565b60206040518083038186803b158015612f4357600080fd5b505afa158015612f57573d6000803e3d6000fd5b505050506040513d601f19601f82011682018060405250810190612f7b9190614045565b92915050565b600082612f9057506000612f7b565b82820282848281612f9d57fe5b0414612fbb5760405162461bcd60e51b815260040161072190614dd3565b9392505050565b6000612fbb83836040518060400160405280601a81526020017f536166654d6174683a206469766973696f6e206279207a65726f000000000000815250613a15565b6130436040518060400160405280601381526020017f5f646f526f757465725365747020666c61673a000000000000000000000000008152508761360a565b60128614806130525750601686145b156131be5782613060574792505b6012861415613113576040517f7ff36ab50000000000000000000000000000000000000000000000000000000081526001600160a01b03851690637ff36ab59085906130b790600090879030908890600401614b22565b6000604051808303818588803b1580156130d057600080fd5b505af11580156130e4573d6000803e3d6000fd5b50505050506040513d6000823e601f3d908101601f1916820160405261310d919081019061429c565b506131b9565b6040517fee41be8e0000000000000000000000000000000000000000000000000000000081526001600160a01b0385169063ee41be8e90859061316190600090879030908890600401614b22565b6000604051808303818588803b15801561317a57600080fd5b505af115801561318e573d6000803e3d6000fd5b50505050506040513d6000823e601f3d908101601f191682016040526131b7919081019061429c565b505b612d15565b82613242576040516370a0823160e01b81526001600160a01b038616906370a08231906131ef903090600401614a3a565b60206040518083038186803b15801561320757600080fd5b505afa15801561321b573d6000803e3d6000fd5b505050506040513d601f19601f8201168201806040525081019061323f9190614767565b92505b61324c8585612d82565b60118614156133b6576133126040518060400160405280601581526020017f756e697377617020746f6b656e2d3e746f6b656e3a0000000000000000000000815250835185886001600160a01b03166370a08231306040518263ffffffff1660e01b81526004016132bd9190614a3a565b60206040518083038186803b1580156132d557600080fd5b505afa1580156132e9573d6000803e3d6000fd5b505050506040513d601f19601f8201168201806040525081019061330d9190614767565b613996565b6040517f38ed17390000000000000000000000000000000000000000000000000000000081526001600160a01b038516906338ed173990613360908690600090879030908890600401615325565b600060405180830381600087803b15801561337a57600080fd5b505af115801561338e573d6000803e3d6000fd5b505050506040513d6000823e601f3d908101601f191682016040526131b7919081019061429c565b601386141561340d576040517f18cbafe50000000000000000000000000000000000000000000000000000000081526001600160a01b038516906318cbafe590613360908690600090879030908890600401615325565b601486141561347e576133126040518060400160405280601581526020017f6562616e6b2063746f6b656e2d3e63746f6b656e3a0000000000000000000000815250835185886001600160a01b03166370a08231306040518263ffffffff1660e01b81526004016132bd9190614a3a565b601586141561353d576134ef6040518060400160405280601381526020017f6562616e6b20746f6b656e2d3e746f6b656e3a00000000000000000000000000815250835185886001600160a01b03166370a08231306040518263ffffffff1660e01b81526004016132bd9190614a3a565b6040517f3eabf55f0000000000000000000000000000000000000000000000000000000081526001600160a01b03851690633eabf55f90613360908690600090879030908890600401615325565b6017861461355d5760405162461bcd60e51b815260040161072190614f30565b6040517f8e750db90000000000000000000000000000000000000000000000000000000081526001600160a01b03851690638e750db9906135ab908690600090879030908890600401615325565b600060405180830381600087803b1580156135c557600080fd5b505af11580156135d9573d6000803e3d6000fd5b505050506040513d6000823e601f3d908101601f19168201604052613601919081019061429c565b50505050505050565b612edc8282604051602401613620929190614b6a565b60408051601f198184030181529190526020810180516001600160e01b03167f9710a9d0000000000000000000000000000000000000000000000000000000001790526139f4565b604080516000808252602082019092526001600160a01b0384169083906040516136929190614a1e565b60006040518083038185875af1925050503d80600081146136cf576040519150601f19603f3d011682016040523d82523d6000602084013e6136d4565b606091505b5050905080612d7d5760405162461bcd60e51b815260040161072190614e9c565b60006060846001600160a01b031663a9059cbb858560405160240161371b929190614aeb565b6040516020818303038152906040529060e01b6020820180516001600160e01b0383818316178352505050506040516137549190614a1e565b6000604051808303816000865af19150503d8060008114613791576040519150601f19603f3d011682016040523d82523d6000602084013e613796565b606091505b50915091508180156137c05750805115806137c05750808060200190518101906137c091906142cf565b6111b95760405162461bcd60e51b815260040161072190614be0565b6000612fbb83836040518060400160405280601e81526020017f536166654d6174683a207375627472616374696f6e206f766572666c6f770000815250613a4c565b613826613a8f565b60058152613832613a78565b8381526001600160a01b03831660208083019190915260405161385791839101614ffb565b60408051601f1981840301815291905260208301525092915050565b6000805b6002548110156138ed57613889613a78565b50600081815260016020818152604092839020835180850190945280548085529201546001600160a01b03169083015260031480156138d4575060208101516001600160a01b031615155b156138e4576020015191506138ed565b50600101613877565b506001600160a01b038116611a295760405162461bcd60e51b815260040161072190614d9c565b6004546000906001600160a01b0383811691161480612c1357506001600160a01b038216612c20575060016113e6565b60006001600160a01b03821661396657506004546001600160a01b03166113e6565b60055460405163714bca1f60e11b81526001600160a01b039091169063e297943e90612f2b908590600401614a3a565b6111bb848484846040516024016139b09493929190614bb1565b60408051601f198184030181529190526020810180516001600160e01b03167f08ee5666000000000000000000000000000000000000000000000000000000001790525b80516a636f6e736f6c652e6c6f67602083016000808483855afa5050505050565b60008183613a365760405162461bcd60e51b81526004016107219190614b57565b506000838581613a4257fe5b0495945050505050565b60008184841115613a705760405162461bcd60e51b81526004016107219190614b57565b505050900390565b604080518082019091526000808252602082015290565b604051806040016040528060008152602001606081525090565b60405180606001604052806000815260200160006001600160a01b03168152602001606081525090565b6040518060e0016040528060001515815260200160006001600160a01b0316815260200160006001600160a01b03168152602001600081526020016000815260200160008152602001606081525090565b60405180610260016040528060001515815260200160001515815260200160001515815260200160008152602001600081526020016000815260200160006001600160a01b0316815260200160006001600160a01b0316815260200160006001600160a01b0316815260200160006001600160a01b031681526020016000815260200160008152602001600081526020016060815260200160608152602001606081526020016060815260200160608152602001606081525090565b8035612f7b816153ea565b600082601f830112613bfb578081fd5b8135613c0e613c098261539e565b615377565b818152915060208083019084810181840286018201871015613c2f57600080fd5b60005b84811015613c57578135613c45816153ea565b84529282019290820190600101613c32565b505050505092915050565b600082601f830112613c72578081fd5b8151613c80613c098261539e565b818152915060208083019084810181840286018201871015613ca157600080fd5b60005b84811015613c57578151613cb7816153ea565b84529282019290820190600101613ca4565b600082601f830112613cd9578081fd5b8135613ce7613c098261539e565b818152915060208083019084810160005b84811015613c5757613d0f888484358a0101613beb565b84529282019290820190600101613cf8565b600082601f830112613d31578081fd5b8135613d3f613c098261539e565b818152915060208083019084810160005b84811015613c57578135870188603f820112613d6b57600080fd5b83810135613d7b613c098261539e565b81815285810190604084810160005b85811015613db357613da18f8484358a0101613f62565b85529389019390890190600101613d8a565b50505087525050509282019290820190600101613d50565b600082601f830112613ddb578081fd5b8135613de9613c098261539e565b8181529150602080830190848101604080850287018301881015613e0c57600080fd5b6000805b86811015613e565782848b031215613e26578182fd5b613e2f83615377565b8435815285850135613e40816153ea565b8187015286529484019492820192600101613e10565b5050505050505092915050565b6000601f8381840112613e74578182fd5b8235613e82613c098261539e565b818152925060208084019085810160005b84811015613f5657813588016040601f198181848e03011215613eb557600080fd5b613ebe82615377565b8684013581528284013567ffffffffffffffff80821115613ede57600080fd5b81860195508e603f870112613ef257600080fd5b88860135915080821115613f0557600080fd5b50613f1588848d84011601615377565b92508083528d84828701011115613f2b57600080fd5b8084860189850137600090830188015280870191909152865250509282019290820190600101613e93565b50505050505092915050565b600082601f830112613f72578081fd5b8135613f80613c098261539e565b818152915060208083019084810181840286018201871015613fa157600080fd5b60005b84811015613c5757813584529282019290820190600101613fa4565b600082601f830112613fd0578081fd5b8151613fde613c098261539e565b818152915060208083019084810181840286018201871015613fff57600080fd5b60005b84811015613c5757815184529282019290820190600101614002565b8035612f7b81615402565b60006020828403121561403a578081fd5b8135612fbb816153ea565b600060208284031215614056578081fd5b8151612fbb816153ea565b600080600080600060a08688031215614078578081fd5b8535614083816153ea565b9450602086013567ffffffffffffffff8082111561409f578283fd5b6140ab89838a01613beb565b955060408801359150808211156140c0578283fd5b506140cd88828901613beb565b9350506060860135915060808601356140e581615402565b809150509295509295909350565b60008060008060808587031215614108578182fd5b8435614113816153ea565b9350602085013567ffffffffffffffff81111561412e578283fd5b61413a87828801613beb565b93505060408501359150606085013561415281615402565b939692955090935050565b60006020828403121561416e578081fd5b813567ffffffffffffffff811115614184578182fd5b61419084828501613cc9565b949350505050565b600060208083850312156141aa578182fd5b825167ffffffffffffffff8111156141c0578283fd5b8301601f810185136141d0578283fd5b80516141de613c098261539e565b81815283810190838501865b84811015614213576142018a888451890101613c62565b845292860192908601906001016141ea565b509098975050505050505050565b60006020808385031215614233578182fd5b825167ffffffffffffffff811115614249578283fd5b8301601f81018513614259578283fd5b8051614267613c098261539e565b81815283810190838501865b848110156142135761428a8a888451890101613fc0565b84529286019290860190600101614273565b6000602082840312156142ad578081fd5b815167ffffffffffffffff8111156142c3578182fd5b61419084828501613fc0565b6000602082840312156142e0578081fd5b8151612fbb81615402565b6000604082840312156142fc578081fd5b6143066040615377565b825181526020830151614318816153ea565b60208201529392505050565b600060208284031215614335578081fd5b813567ffffffffffffffff8082111561434c578283fd5b8184019150610140808387031215614362578384fd5b61436b81615377565b90506143778684613be0565b81526143868660208501613be0565b60208201526143988660408501613be0565b6040820152606083013560608201526080830135828111156143b8578485fd5b6143c487828601613beb565b60808301525060a083013560a082015260c083013560c082015260e083013560e082015261010091506143f98683850161401e565b82820152610120915061440e8683850161401e565b91810191909152949350505050565b60006020828403121561442e578081fd5b813567ffffffffffffffff80821115614445578283fd5b9083019060e08286031215614458578283fd5b61446260e0615377565b61446c868461401e565b815261447b8660208501613be0565b602082015261448d8660408501613be0565b6040820152606083013560608201526080830135608082015260a083013560a082015260c0830135828111156144c1578485fd5b6144cd87828601613e63565b60c08301525095945050505050565b6000602082840312156144ed578081fd5b813567ffffffffffffffff80821115614504578283fd5b818401915061026080838703121561451a578384fd5b61452381615377565b905061452f868461401e565b815261453e866020850161401e565b6020820152614550866040850161401e565b6040820152606083013560608201526080830135608082015260a083013560a08201526145808660c08501613be0565b60c08201526145928660e08501613be0565b60e08201526101006145a687828601613be0565b908201526101206145b987858301613be0565b908201526101408381013590820152610160808401359082015261018080840135908201526101a080840135838111156145f1578586fd5b6145fd88828701613f62565b8284015250506101c08084013583811115614616578586fd5b61462288828701613dcb565b8284015250506101e0808401358381111561463b578586fd5b61464788828701613cc9565b8284015250506102008084013583811115614660578586fd5b61466c88828701613cc9565b8284015250506102208084013583811115614685578586fd5b61469188828701613d21565b82840152505061024080840135838111156146aa578586fd5b6146b688828701613f62565b918301919091525095945050505050565b6000602082840312156146d8578081fd5b815167ffffffffffffffff808211156146ef578283fd5b9083019060608286031215614702578283fd5b61470c6060615377565b82518152602083015161471e816153ea565b6020820152604083015182811115614734578485fd5b61474087828601613c62565b60408301525095945050505050565b600060208284031215614760578081fd5b5035919050565b600060208284031215614778578081fd5b5051919050565b60008060408385031215614791578182fd5b8235915060208301356147a3816153ea565b809150509250929050565b600080604083850312156147c0578182fd5b50508035926020909101359150565b600080604083850312156147e1578182fd5b505080516020909101519092909150565b600080600060608486031215614806578081fd5b8351925060208401519150604084015190509250925092565b6001600160a01b03169052565b6000815180845260208085019450808401835b838110156148645781516001600160a01b03168752958201959082019060010161483f565b509495945050505050565b60008282518085526020808601955080818302840101818601855b848110156148b857601f198684030189526148a683835161482c565b9884019892509083019060010161488a565b5090979650505050505050565b60008282518085526020808601955080818302840101818601855b848110156148b857601f1986840381018a52825180518086529086019086860190878102870188018b5b828110156149365785898303018452614924828651614986565b948a0194938a0193915060010161490a565b509c88019c965050509285019250506001016148e0565b6000815180845260208085019450808401835b83811015614864576149738783516149e7565b6040969096019590820190600101614960565b6000815180845260208085019450808401835b8381101561486457815187529582019590820190600101614999565b15159052565b600081518084526149d38160208601602086016153be565b601f01601f19169290920160200192915050565b805182526020908101516001600160a01b0316910152565b60008151835260208201516040602085015261419060408501826149bb565b60008251614a308184602087016153be565b9190910192915050565b6001600160a01b0391909116815260200190565b6001600160a01b0392831681529116602082015260400190565b60006001600160a01b03808716835280861660208401525060806040830152614a94608083018561482c565b905082606083015295945050505050565b6001600160a01b039384168152919092166020820152604081019190915260600190565b60006001600160a01b038416825260406020830152614190604083018461482c565b6001600160a01b03929092168252602082015260400190565b600060208252612fbb602083018461486f565b901515815260200190565b600085825260806020830152614b3b608083018661482c565b6001600160a01b03949094166040830152506060015292915050565b600060208252612fbb60208301846149bb565b600060408252614b7d60408301856149bb565b90508260208301529392505050565b600060608252614b9f60608301866149bb565b60208301949094525060400152919050565b600060808252614bc460808301876149bb565b6020830195909552506040810192909252606090910152919050565b6020808252601f908201527f5472616e7366657248656c7065723a205452414e534645525f4641494c454400604082015260600190565b60208082526021908201527f626f746820746f6b656e20696e2f6f75742073686f756c6420626520746f6b6560408201527f6e00000000000000000000000000000000000000000000000000000000000000606082015260800190565b60208082526026908201527f4f776e61626c653a206e6577206f776e657220697320746865207a65726f206160408201527f6464726573730000000000000000000000000000000000000000000000000000606082015260800190565b60208082526022908201527f626f746820746f6b656e20696e2f6f75742073686f756c642062652065746f6b60408201527f656e000000000000000000000000000000000000000000000000000000000000606082015260800190565b6020808252600c908201527f6e6f2065786368616e6765730000000000000000000000000000000000000000604082015260600190565b60208082526008908201527f6e6f206562616e6b000000000000000000000000000000000000000000000000604082015260600190565b6020808252600f908201527f6e6f7420666f756e64206562616e6b0000000000000000000000000000000000604082015260600190565b60208082526021908201527f536166654d6174683a206d756c7469706c69636174696f6e206f766572666c6f60408201527f7700000000000000000000000000000000000000000000000000000000000000606082015260800190565b6020808252818101527f4f776e61626c653a2063616c6c6572206973206e6f7420746865206f776e6572604082015260600190565b6020808252600e908201527f6d75737420626520726f75746572000000000000000000000000000000000000604082015260600190565b60208082526023908201527f5472616e7366657248656c7065723a204554485f5452414e534645525f46414960408201527f4c45440000000000000000000000000000000000000000000000000000000000606082015260800190565b60208082526010908201527f6c657373207468616e206d696e416d7400000000000000000000000000000000604082015260600190565b6020808252600c908201527f696e76616c696420666c61670000000000000000000000000000000000000000604082015260600190565b60208082526024908201527f5472616e7366657248656c7065723a205452414e534645525f46524f4d5f464160408201527f494c454400000000000000000000000000000000000000000000000000000000606082015260800190565b60208082526010908201527f6e6f7420656e6f7567682076616c756500000000000000000000000000000000604082015260600190565b60408101612f7b82846149e7565b600060208252612fbb60208301846149ff565b6000602080835261010083018451151582850152818501516001600160a01b038082166040870152806040880151166060870152505060608501516080850152608085015160a085015260a085015160c085015260c085015160e080860152818151808452610120935083870191508385820288010193508483019250855b818110156150ca5761011f198886030183526150b88585516149ff565b9450928501929185019160010161509b565b5092979650505050505050565b6000602082526150eb6020830184516149b5565b60208301516150fd60408401826149b5565b50604083015161511060608401826149b5565b5060608301516080830152608083015160a083015260a083015160c083015260c083015161514160e084018261481f565b5060e08301516101006151568185018361481f565b840151905061012061516a8482018361481f565b840151905061014061517e8482018361481f565b84015161016084810191909152840151610180808501919091528401516101a0808501919091528401516102606101c0808601829052919250906151c6610280860184614986565b9250808601519050601f196101e08187860301818801526151e7858461494d565b945080880151925050610200818786030181880152615206858461486f565b945080880151925050610220818786030181880152615225858461486f565b94508088015192505061024081878603018188015261524485846148c5565b9088015187820390920184880152935090506152608382614986565b9695505050505050565b600060208252825160208301526001600160a01b0360208401511660408301526040830151606080840152614190608084018261482c565b90815260200190565b9182526001600160a01b0316602082015260400190565b6000858252608060208301526152db608083018661486f565b82810360408401526152ed818661486f565b90508281036060840152615301818561494d565b979650505050505050565b600083825260406020830152614190604083018461494d565b600086825285602083015260a0604083015261534460a083018661482c565b6001600160a01b0394909416606083015250608001529392505050565b9283526020830191909152604082015260600190565b60405181810167ffffffffffffffff8111828210171561539657600080fd5b604052919050565b600067ffffffffffffffff8211156153b4578081fd5b5060209081020190565b60005b838110156153d95781810151838201526020016153c1565b838111156111bb5750506000910152565b6001600160a01b03811681146153ff57600080fd5b50565b80151581146153ff57600080fdfe726f757465733a2025642070617468733a2025642065786368616e6765733a2025647472616e7366657220746f20737465707377617020737563636573732c2073746570733a20256420616d6f756e74496e3a202564a2646970667358221220f8bc518670de76f6e2add715c51ba8ac5a2af2243197687734c229061c07987464736f6c634300060c0033",
  "libraries": {
    "Exchanges": "0x0390155850994cC4BA3B0cc2CdB48aF64A8e00DB",
    "PathFinder": "0x72b3CA4DaBC6E6fe8384da4B257A8B00e3E8a0A2",
    "SwapFlag": "0x1a6f0B40eaA438BdD678fEE74AD61844EFA3239B"
  },
  "devdoc": {
    "kind": "dev",
    "methods": {
      "buildSwapRouteSteps((bool,bool,bool,uint256,uint256,uint256,address,address,address,address,uint256,uint256,uint256,uint256[],(uint256,address)[],address[][],address[][],uint256[][][],uint256[]))": {
        "details": ", "
      },
      "calcExchangeRoutes(uint256,uint256)": {
        "details": ", "
      },
      "getRoutesPaths((address,address,address,uint256,address[],uint256,uint256,uint256,bool,bool))": {
        "details": ", midTokens, complex  flag, routes, path, cpath"
      },
      "getSwapReserveRates((address,address,address,uint256,address[],uint256,uint256,uint256,bool,bool))": {
        "details": " reserve  exchangeRate"
      },
      "owner()": {
        "details": "Returns the address of the current owner."
      },
      "renounceOwnership()": {
        "details": "Leaves the contract without owner. It will not be possible to call `onlyOwner` functions anymore. Can only be called by the current owner. NOTE: Renouncing ownership will leave the contract without an owner, thereby removing any functionality that is only available to the owner."
      },
      "transferOwnership(address)": {
        "details": "Transfers ownership of the contract to a new account (`newOwner`). Can only be called by the current owner."
      },
      "unoswap((bool,address,address,uint256,uint256,uint256,(uint256,bytes)[]))": {
        "details": ""
      }
    },
    "version": 1
  },
  "userdoc": {
    "kind": "user",
    "methods": {
      "buildEbankSwapStep(address,address[],address[],uint256,bool)": {
        "notice": " ebank swap "
      },
      "buildUniSwapStep(address,address[],uint256,bool)": {
        "notice": " uniswap swap "
      }
    },
    "version": 1
  },
  "storageLayout": {
    "storage": [
      {
        "astId": 1619,
        "contract": "contracts/swap/aggressive2/StepSwap.sol:StepSwap",
        "label": "_owner",
        "offset": 0,
        "slot": "0",
        "type": "t_address"
      },
      {
        "astId": 1740,
        "contract": "contracts/swap/aggressive2/StepSwap.sol:StepSwap",
        "label": "swaps",
        "offset": 0,
        "slot": "1",
        "type": "t_mapping(t_uint256,t_struct(Exchange)5789_storage)"
      },
      {
        "astId": 1742,
        "contract": "contracts/swap/aggressive2/StepSwap.sol:StepSwap",
        "label": "exchangeCount",
        "offset": 0,
        "slot": "2",
        "type": "t_uint256"
      },
      {
        "astId": 1744,
        "contract": "contracts/swap/aggressive2/StepSwap.sol:StepSwap",
        "label": "weth",
        "offset": 0,
        "slot": "3",
        "type": "t_contract(IWETH)5594"
      },
      {
        "astId": 1746,
        "contract": "contracts/swap/aggressive2/StepSwap.sol:StepSwap",
        "label": "ceth",
        "offset": 0,
        "slot": "4",
        "type": "t_contract(ILHT)5451"
      },
      {
        "astId": 1748,
        "contract": "contracts/swap/aggressive2/StepSwap.sol:StepSwap",
        "label": "ctokenFactory",
        "offset": 0,
        "slot": "5",
        "type": "t_contract(ICTokenFactory)4903"
      }
    ],
    "types": {
      "t_address": {
        "encoding": "inplace",
        "label": "address",
        "numberOfBytes": "20"
      },
      "t_contract(ICTokenFactory)4903": {
        "encoding": "inplace",
        "label": "contract ICTokenFactory",
        "numberOfBytes": "20"
      },
      "t_contract(ILHT)5451": {
        "encoding": "inplace",
        "label": "contract ILHT",
        "numberOfBytes": "20"
      },
      "t_contract(IWETH)5594": {
        "encoding": "inplace",
        "label": "contract IWETH",
        "numberOfBytes": "20"
      },
      "t_mapping(t_uint256,t_struct(Exchange)5789_storage)": {
        "encoding": "mapping",
        "key": "t_uint256",
        "label": "mapping(uint256 => struct DataTypes.Exchange)",
        "numberOfBytes": "32",
        "value": "t_struct(Exchange)5789_storage"
      },
      "t_struct(Exchange)5789_storage": {
        "encoding": "inplace",
        "label": "struct DataTypes.Exchange",
        "members": [
          {
            "astId": 5786,
            "contract": "contracts/swap/aggressive2/StepSwap.sol:StepSwap",
            "label": "exFlag",
            "offset": 0,
            "slot": "0",
            "type": "t_uint256"
          },
          {
            "astId": 5788,
            "contract": "contracts/swap/aggressive2/StepSwap.sol:StepSwap",
            "label": "contractAddr",
            "offset": 0,
            "slot": "1",
            "type": "t_address"
          }
        ],
        "numberOfBytes": "64"
      },
      "t_uint256": {
        "encoding": "inplace",
        "label": "uint256",
        "numberOfBytes": "32"
      }
    }
  }
}