{
  "address": "0x10c220d26949757E753A223AfDA1f49a207773c4",
  "abi": [
    {
      "inputs": [
        {
          "internalType": "address",
          "name": "_weth",
          "type": "address"
        },
        {
          "internalType": "address",
          "name": "_ctokenFactory",
          "type": "address"
        }
      ],
      "stateMutability": "nonpayable",
      "type": "constructor"
    },
    {
      "anonymous": false,
      "inputs": [
        {
          "indexed": false,
          "internalType": "string",
          "name": "reason",
          "type": "string"
        }
      ],
      "name": "Error",
      "type": "event"
    },
    {
      "inputs": [],
      "name": "FLAG_SWAP_DIRECT",
      "outputs": [
        {
          "internalType": "uint256",
          "name": "",
          "type": "uint256"
        }
      ],
      "stateMutability": "view",
      "type": "function"
    },
    {
      "inputs": [],
      "name": "FLAG_SWAP_ROUTER",
      "outputs": [
        {
          "internalType": "uint256",
          "name": "",
          "type": "uint256"
        }
      ],
      "stateMutability": "view",
      "type": "function"
    },
    {
      "inputs": [],
      "name": "ctokenFactory",
      "outputs": [
        {
          "internalType": "address",
          "name": "",
          "type": "address"
        }
      ],
      "stateMutability": "view",
      "type": "function"
    },
    {
      "inputs": [
        {
          "internalType": "bytes",
          "name": "data",
          "type": "bytes"
        }
      ],
      "name": "unoswapAll",
      "outputs": [
        {
          "internalType": "uint256",
          "name": "returnAmount",
          "type": "uint256"
        }
      ],
      "stateMutability": "payable",
      "type": "function"
    },
    {
      "inputs": [
        {
          "internalType": "contract IERC20",
          "name": "srcToken",
          "type": "address"
        },
        {
          "internalType": "uint256",
          "name": "amount",
          "type": "uint256"
        },
        {
          "internalType": "uint256",
          "name": "minReturn",
          "type": "uint256"
        },
        {
          "internalType": "bytes32[]",
          "name": "pools",
          "type": "bytes32[]"
        },
        {
          "internalType": "bytes",
          "name": "permit",
          "type": "bytes"
        }
      ],
      "name": "unoswapWithPermit",
      "outputs": [
        {
          "internalType": "uint256",
          "name": "returnAmount",
          "type": "uint256"
        }
      ],
      "stateMutability": "payable",
      "type": "function"
    },
    {
      "stateMutability": "payable",
      "type": "receive"
    }
  ],
  "transactionHash": "0x0bc44328de3e44b82eee1fc0c94948b8473c479719180b79e3d2f9fa00b5bdb2",
  "args": [
    "0x7aF326B6351C8A9b8fb8CD205CBe11d4Ac5FA836",
    "0xC65d5ea738F466FEb518b6079732C7b03eE04CF0"
  ],
  "solcInputHash": "f83496fc5b65debe563e58c1c0cf72bf",
  "bytecode": "0x608060405273c02aaa39b223fe8d0a0e5c4f27ead9083c756cc26000553480156200002957600080fd5b50604051620027d6380380620027d68339810160408190526200004c9162000075565b6001600160a01b03918216600055600180546001600160a01b03191691909216179055620000cc565b6000806040838503121562000088578182fd5b82516200009581620000b3565b6020840151909250620000a881620000b3565b809150509250929050565b6001600160a01b0381168114620000c957600080fd5b50565b6126fa80620000dc6000396000f3fe60806040526004361061005e5760003560e01c8063757607f811610043578063757607f8146100de578063a1251d75146100f3578063c7a82811146101065761008e565b806325c9e276146100935780634dbbf9ec146100be5761008e565b3661008e573332141561008c5760405162461bcd60e51b8152600401610083906123c7565b60405180910390fd5b005b600080fd5b34801561009f57600080fd5b506100a861011b565b6040516100b591906121e0565b60405180910390f35b6100d16100cc366004611d9e565b61012a565b6040516100b591906121d7565b3480156100ea57600080fd5b506100d161021e565b6100d1610101366004611dde565b610226565b34801561011257600080fd5b506100d161027f565b6001546001600160a01b031681565b6000610134611bad565b61014083850185611e9e565b90506101856040518060400160405280600a81526020017f737263546f6b656e3a200000000000000000000000000000000000000000000081525082600001516102a3565b6101c86040518060400160405280600881526020017f726f757465733a200000000000000000000000000000000000000000000000008152508260400151610305565b61020b6040518060400160405280600b81526020017f72657475726e416d743a200000000000000000000000000000000000000000008152508260600151610305565b61021481610363565b9150505b92915050565b600160f91b81565b600061023488888585610778565b61027388888888888080602002602001604051908101604052809392919081815260200183836020028082843760009201919091525061093592505050565b98975050505050505050565b7f040000000000000000000000000000000000000000000000000000000000000081565b61030182826040516024016102b99291906122b7565b60408051601f198184030181529190526020810180516001600160e01b03167f319af33300000000000000000000000000000000000000000000000000000000179052610c80565b5050565b610301828260405160240161031b92919061231a565b60408051601f198184030181529190526020810180516001600160e01b03167f9710a9d000000000000000000000000000000000000000000000000000000000179052610c80565b6000805b8260400151811015610503576103ca6040518060400160405280600a81526020017f616d74735b25645d3a200000000000000000000000000000000000000000000081525082856080015184815181106103bd57fe5b6020026020010151610ca1565b6104146040518060400160405280600d81526020017f6f7574416d74735b25645d3a2000000000000000000000000000000000000000815250828560a0015184815181106103bd57fe5b61045e6040518060400160405280601081526020017f6d696e4f7574416d74735b25645d3a2000000000000000000000000000000000815250828560c0015184815181106103bd57fe5b6104a86040518060400160405280600b81526020017f666c6167735b25645d3a20000000000000000000000000000000000000000000815250828560e0015184815181106103bd57fe5b606083610100015182815181106104bb57fe5b6020026020010151905060005b81518110156104f9576104f1818383815181106104e157fe5b602002602001015160001c610d06565b6001016104c8565b5050600101610367565b5060005b826040015181101561072e5760008360e00151828151811061052557fe5b602002602001015190506000600160f91b82166000146106a95760006001600160a01b03866101000151858151811061055a57fe5b602002602001015160008151811061056e57fe5b602002602001015160001c16905060006001876101000151868151811061059157fe5b60200260200101515103905060608167ffffffffffffffff811180156105b657600080fd5b506040519080825280602002602001820160405280156105e0578160200160208202803683370190505b50905060005b82811015610655576001600160a01b03896101000151888151811061060757fe5b6020026020010151826001018151811061061d57fe5b602002602001015160001c1682828151811061063557fe5b6001600160a01b03909216602092830291909101909101526001016105e6565b506000600160fb1b86166000141590506106a084838b608001518a8151811061067a57fe5b60200260200101518c60c001518b8151811061069257fe5b602002602001015185610d64565b50505050610720565b81156106c75760405162461bcd60e51b815260040161008390612390565b61071d8560000151866080015185815181106106df57fe5b60200260200101518760c0015186815181106106f757fe5b6020026020010151886101000151878151811061071057fe5b6020026020010151610935565b90505b929092019150600101610507565b506107736040518060400160405280601581526020017f706172616d2e7265743a207265616c207265743a200000000000000000000000815250836060015183610ca1565b919050565b60e081141561092f5760006060856001600160a01b031663d505accf60e01b85856040516020016107ab9392919061207f565b60408051601f19818403018152908290526107c5916120a3565b6000604051808303816000865af19150503d8060008114610802576040519150601f19603f3d011682016040523d82523d6000602084013e610807565b606091505b50915091508161092c576060610852826040518060400160405280601481526020017f5065726d69742063616c6c206661696c65643a200000000000000000000000008152506111ae565b905085876001600160a01b031663dd62ed3e33306040518363ffffffff1660e01b81526004016108839291906121f4565b60206040518083038186803b15801561089b57600080fd5b505afa1580156108af573d6000803e3d6000fd5b505050506040513d601f19601f820116820180604052508101906108d39190611fd5565b10156108f3578060405162461bcd60e51b815260040161008391906122a4565b7f08c379a0afcc32b1a39302f7cb8073359698411ab5fd6e3edb2c02c0b5fba8aa8160405161092291906122a4565b60405180910390a1505b50505b50505050565b6000806001600160a01b038360008151811061094d57fe5b60209081029190910101511690506001600160a01b038616610a47576000546001600160a01b031663d0e30db0866040518263ffffffff1660e01b81526004016000604051808303818588803b1580156109a657600080fd5b505af11580156109ba573d6000803e3d6000fd5b50505050506000546001600160a01b031663a9059cbb82876040518363ffffffff1660e01b81526004016109ef929190612232565b602060405180830381600087803b158015610a0957600080fd5b505af1158015610a1d573d6000803e3d6000fd5b505050506040513d601f19601f82011682018060405250810190610a419190611d7e565b50610a53565b610a538633838861148a565b600080600087945060005b6001875103811015610af157868181518110610a7657fe5b602002602001015160001c9350600160ff1b841660001415915060a077ffffffff00000000000000000000000000000000000000008516901c925060006001600160a01b03888360010181518110610aca57fe5b602002602001015160001c169050610ae58682898787611573565b96509450600101610a5e565b5085600187510381518110610b0257fe5b60209081029190910101516001600160a01b03811694509250505060a081901c63ffffffff16600160ff1b821615157f4000000000000000000000000000000000000000000000000000000000000000831615801590610bfa57610b698530888686611573565b955087861015610b8b5760405162461bcd60e51b8152600401610083906123fe565b6000546001600160a01b0316632e1a7d4d876040518263ffffffff1660e01b8152600401610bb991906121d7565b600060405180830381600087803b158015610bd357600080fd5b505af1158015610be7573d6000803e3d6000fd5b50505050610bf53387611759565b610c73565b610c396040518060400160405280600681526020017f616d74496e3a000000000000000000000000000000000000000000000000000081525087610305565b610c468533888686611573565b9550610c5385878a6117e6565b87861015610c735760405162461bcd60e51b815260040161008390612526565b5050505050949350505050565b80516a636f6e736f6c652e6c6f67602083016000808483855afa5050505050565b610d01838383604051602401610cb99392919061233c565b60408051601f198184030181529190526020810180516001600160e01b03167f969cdd0300000000000000000000000000000000000000000000000000000000179052610c80565b505050565b6103018282604051602401610d1c9291906125ef565b60408051601f198184030181529190526020810180516001600160e01b03167f6c0f698000000000000000000000000000000000000000000000000000000000179052610c80565b60408051808201909152600e81527f5f737761704279526f757465723a0000000000000000000000000000000000006020820152603c420190610da990878686611846565b60006001600160a01b031685600081518110610dc157fe5b60200260200101516001600160a01b03161415610f43578115610e9057856001600160a01b03168463ee41be8e60e01b85883386604051602401610e0894939291906125ba565b60408051601f198184030181529181526020820180516001600160e01b03166001600160e01b0319909416939093179092529051610e4691906120a3565b60006040518083038185875af1925050503d8060008114610e83576040519150601f19603f3d011682016040523d82523d6000602084013e610e88565b606091505b505050610f3e565b856001600160a01b031684637ff36ab560e01b85883386604051602401610eba94939291906125ba565b60408051601f198184030181529181526020820180516001600160e01b03166001600160e01b0319909416939093179092529051610ef891906120a3565b60006040518083038185875af1925050503d8060008114610f35576040519150601f19603f3d011682016040523d82523d6000602084013e610f3a565b606091505b5050505b61092c565b60006001600160a01b031685600187510381518110610f5e57fe5b60200260200101516001600160a01b031614156110c757811561102157856001600160a01b0316638e750db960e01b8585883086604051602401610fa69594939291906125fd565b60408051601f198184030181529181526020820180516001600160e01b03166001600160e01b0319909416939093179092529051610fe491906120a3565b6000604051808303816000865af19150503d8060008114610e83576040519150601f19603f3d011682016040523d82523d6000602084013e610e88565b856001600160a01b03166318cbafe560e01b858588308660405160240161104c9594939291906125fd565b60408051601f198184030181529181526020820180516001600160e01b03166001600160e01b031990941693909317909252905161108a91906120a3565b6000604051808303816000865af19150503d8060008114610f35576040519150601f19603f3d011682016040523d82523d6000602084013e610f3a565b81156110f857856001600160a01b0316633eabf55f60e01b858588338660405160240161104c9594939291906125fd565b856001600160a01b03166338ed173960e01b85858833866040516024016111239594939291906125fd565b60408051601f198184030181529181526020820180516001600160e01b03166001600160e01b031990941693909317909252905161116191906120a3565b6000604051808303816000865af19150503d806000811461119e576040519150601f19603f3d011682016040523d82523d6000602084013e6111a3565b606091505b505050505050505050565b606060448351101580156111e15750826000815181106111ca57fe5b6020910101516001600160f81b031916600160fb1b145b80156112285750826001815181106111f557fe5b6020910101516001600160f81b0319167fc300000000000000000000000000000000000000000000000000000000000000145b801561126f57508260028151811061123c57fe5b6020910101516001600160f81b0319167f7900000000000000000000000000000000000000000000000000000000000000145b80156112b657508260038151811061128357fe5b6020910101516001600160f81b0319167fa000000000000000000000000000000000000000000000000000000000000000145b156113125760606044840190508051604401845110156112e85760405162461bcd60e51b815260040161008390612492565b82816040516020016112fb92919061218b565b604051602081830303815290604052915050610218565b8251602414801561135e57508260008151811061132b57fe5b6020910101516001600160f81b0319167f4e00000000000000000000000000000000000000000000000000000000000000145b80156113a557508260018151811061137257fe5b6020910101516001600160f81b0319167f4800000000000000000000000000000000000000000000000000000000000000145b80156113ec5750826002815181106113b957fe5b6020910101516001600160f81b0319167f7b00000000000000000000000000000000000000000000000000000000000000145b801561143357508260038151811061140057fe5b6020910101516001600160f81b0319167f7100000000000000000000000000000000000000000000000000000000000000145b1561145857602483015182611447826118a8565b6040516020016112fb9291906120bf565b81611462846118ce565b604051602001611473929190612125565b604051602081830303815290604052905092915050565b60006060856001600160a01b03166323b872dd8686866040516024016114b29392919061220e565b6040516020818303038152906040529060e01b6020820180516001600160e01b0383818316178352505050506040516114eb91906120a3565b6000604051808303816000865af19150503d8060008114611528576040519150601f19603f3d011682016040523d82523d6000602084013e61152d565b606091505b50915091508180156115575750805115806115575750808060200190518101906115579190611d7e565b61092c5760405162461bcd60e51b81526004016100839061255d565b6000806000876001600160a01b0316630902f1ac6040518163ffffffff1660e01b8152600401604080518083038186803b1580156115b057600080fd5b505afa1580156115c4573d6000803e3d6000fd5b505050506040513d601f19601f820116820180604052508101906115e89190611fed565b9150915083156115f457905b60006116008787611a91565b905061161d620f4240840282016116178385611a91565b90611ad2565b93506116606040518060400160405280602081526020017f616d74496e3a20256420666565526174653a20256420616d744f75743a202564815250888887611b14565b84156116db57604080516000808252602082019283905263022c0d9f60e01b9092526001600160a01b038b169163022c0d9f916116a49188918d906024810161226c565b600060405180830381600087803b1580156116be57600080fd5b505af11580156116d2573d6000803e3d6000fd5b5050505061174d565b604080516000808252602082019283905263022c0d9f60e01b9092526001600160a01b038b169163022c0d9f9161171a919088908d906024810161226c565b600060405180830381600087803b15801561173457600080fd5b505af1158015611748573d6000803e3d6000fd5b505050505b50505095945050505050565b604080516000808252602082019092526001600160a01b03841690839060405161178391906120a3565b60006040518083038185875af1925050503d80600081146117c0576040519150601f19603f3d011682016040523d82523d6000602084013e6117c5565b606091505b5050905080610d015760405162461bcd60e51b8152600401610083906124c9565b610d018383836040516024016117fe9392919061224b565b60408051601f198184030181529190526020810180516001600160e01b03167f8786135e00000000000000000000000000000000000000000000000000000000179052610c80565b61092f8484848460405160240161186094939291906122e2565b60408051601f198184030181529190526020810180516001600160e01b03167fdaa394bd00000000000000000000000000000000000000000000000000000000179052610c80565b6060610218826040516020016118be91906121d7565b6040516020818303038152906040525b80516060907f303132333435363738396162636465660000000000000000000000000000000090829060029081020167ffffffffffffffff8111801561191357600080fd5b506040519080825280601f01601f19166020018201604052801561193e576020820181803683370190505b5090507f30000000000000000000000000000000000000000000000000000000000000008160008151811061196f57fe5b60200101906001600160f81b031916908160001a9053507f7800000000000000000000000000000000000000000000000000000000000000816001815181106119b457fe5b60200101906001600160f81b031916908160001a90535060005b8451811015611a89578260048683815181106119e657fe5b01602001516001600160f81b031916901c60f81c60108110611a0457fe5b1a60f81b828260020260020181518110611a1a57fe5b60200101906001600160f81b031916908160001a90535082858281518110611a3e57fe5b60209101015160f81c600f1660108110611a5457fe5b1a60f81b828260020260030181518110611a6a57fe5b60200101906001600160f81b031916908160001a9053506001016119ce565b509392505050565b600082611aa057506000610218565b82820282848281611aad57fe5b0414611acb5760405162461bcd60e51b815260040161008390612435565b9392505050565b6000611acb83836040518060400160405280601a81526020017f536166654d6174683a206469766973696f6e206279207a65726f000000000000815250611b76565b61092f84848484604051602401611b2e9493929190612361565b60408051601f198184030181529190526020810180516001600160e01b03167f08ee566600000000000000000000000000000000000000000000000000000000179052610c80565b60008183611b975760405162461bcd60e51b815260040161008391906122a4565b506000838581611ba357fe5b0495945050505050565b60405180610120016040528060006001600160a01b0316815260200160006001600160a01b03168152602001600081526020016000815260200160608152602001606081526020016060815260200160608152602001606081525090565b8035610218816126ac565b600082601f830112611c26578081fd5b8135611c39611c3482612660565b612639565b818152915060208083019084810160005b84811015611cce578135870188603f820112611c6557600080fd5b83810135611c75611c3482612660565b818152858101906040848101888502860182018e1015611c9457600080fd5b600095505b84861015611cb7578035845260019590950194928801928801611c99565b505087525050509282019290820190600101611c4a565b505050505092915050565b600082601f830112611ce9578081fd5b8135611cf7611c3482612660565b818152915060208083019084810181840286018201871015611d1857600080fd5b60005b84811015611cce57813584529282019290820190600101611d1b565b60008083601f840112611d48578182fd5b50813567ffffffffffffffff811115611d5f578182fd5b602083019150836020828501011115611d7757600080fd5b9250929050565b600060208284031215611d8f578081fd5b81518015158114611acb578182fd5b60008060208385031215611db0578081fd5b823567ffffffffffffffff811115611dc6578182fd5b611dd285828601611d37565b90969095509350505050565b600080600080600080600060a0888a031215611df8578283fd5b8735611e03816126ac565b96506020880135955060408801359450606088013567ffffffffffffffff80821115611e2d578485fd5b818a0191508a601f830112611e40578485fd5b813581811115611e4e578586fd5b8b60208083028501011115611e61578586fd5b6020830196508095505060808a0135915080821115611e7e578384fd5b50611e8b8a828b01611d37565b989b979a50959850939692959293505050565b600060208284031215611eaf578081fd5b813567ffffffffffffffff80821115611ec6578283fd5b8184019150610120808387031215611edc578384fd5b611ee581612639565b9050611ef18684611c0b565b8152611f008660208501611c0b565b60208201526040830135604082015260608301356060820152608083013582811115611f2a578485fd5b611f3687828601611cd9565b60808301525060a083013582811115611f4d578485fd5b611f5987828601611cd9565b60a08301525060c083013582811115611f70578485fd5b611f7c87828601611cd9565b60c08301525060e083013582811115611f93578485fd5b611f9f87828601611cd9565b60e0830152506101008084013583811115611fb8578586fd5b611fc488828701611c16565b918301919091525095945050505050565b600060208284031215611fe6578081fd5b5051919050565b60008060408385031215611fff578182fd5b505080516020909101519092909150565b6000815180845260208085019450808401835b838110156120485781516001600160a01b031687529582019590820190600101612023565b509495945050505050565b6000815180845261206b816020860160208601612680565b601f01601f19169290920160200192915050565b60006001600160e01b03198516825282846004840137910160040190815292915050565b600082516120b5818460208701612680565b9190910192915050565b600083516120d1818460208801612680565b7f50616e6963280000000000000000000000000000000000000000000000000000908301908152835161210b816006840160208801612680565b602960f81b60069290910191820152600701949350505050565b60008351612137818460208801612680565b7f556e6b6e6f776e280000000000000000000000000000000000000000000000009083019081528351612171816008840160208801612680565b602960f81b60089290910191820152600901949350505050565b6000835161219d818460208801612680565b7f4572726f72280000000000000000000000000000000000000000000000000000908301908152835161210b816006840160208801612680565b90815260200190565b6001600160a01b0391909116815260200190565b6001600160a01b0392831681529116602082015260400190565b6001600160a01b039384168152919092166020820152604081019190915260600190565b6001600160a01b03929092168252602082015260400190565b6001600160a01b039390931683526020830191909152604082015260600190565b60008582528460208301526001600160a01b03841660408301526080606083015261229a6080830184612053565b9695505050505050565b600060208252611acb6020830184612053565b6000604082526122ca6040830185612053565b90506001600160a01b03831660208301529392505050565b6000608082526122f56080830187612053565b6001600160a01b03959095166020830152506040810192909252606090910152919050565b60006040825261232d6040830185612053565b90508260208301529392505050565b60006060825261234f6060830186612053565b60208301949094525060400152919050565b6000608082526123746080830187612053565b6020830195909552506040810192909252606090910152919050565b60208082526015908201527f6865726520666c61672073686f756c6420626520300000000000000000000000604082015260600190565b60208082526014908201527f455448206465706f7369742072656a6563746564000000000000000000000000604082015260600190565b60208082526013908201527f6e6f7420656e6f7567682077657468206f757400000000000000000000000000604082015260600190565b60208082526021908201527f536166654d6174683a206d756c7469706c69636174696f6e206f766572666c6f60408201527f7700000000000000000000000000000000000000000000000000000000000000606082015260800190565b60208082526015908201527f496e76616c69642072657665727420726561736f6e0000000000000000000000604082015260600190565b60208082526023908201527f5472616e7366657248656c7065723a204554485f5452414e534645525f46414960408201527f4c45440000000000000000000000000000000000000000000000000000000000606082015260800190565b6020808252600e908201527f6e6f7420656e6f756768206f7574000000000000000000000000000000000000604082015260600190565b60208082526024908201527f5472616e7366657248656c7065723a205452414e534645525f46524f4d5f464160408201527f494c454400000000000000000000000000000000000000000000000000000000606082015260800190565b6000858252608060208301526125d36080830186612010565b6001600160a01b03949094166040830152506060015292915050565b918252602082015260400190565b600086825285602083015260a0604083015261261c60a0830186612010565b6001600160a01b0394909416606083015250608001529392505050565b60405181810167ffffffffffffffff8111828210171561265857600080fd5b604052919050565b600067ffffffffffffffff821115612676578081fd5b5060209081020190565b60005b8381101561269b578181015183820152602001612683565b8381111561092f5750506000910152565b6001600160a01b03811681146126c157600080fd5b5056fea2646970667358221220a107310d81b3941e7473a63d4cbfbc2d9feeebd0b084e9d72e20eec14a239d2f64736f6c634300060c0033",
  "devdoc": {
    "kind": "dev",
    "methods": {},
    "version": 1
  },
  "userdoc": {
    "kind": "user",
    "methods": {},
    "version": 1
  },
  "storageLayout": {
    "storage": [
      {
        "astId": 5610,
        "contract": "contracts/swap/aggressive/UnoswapRouter.sol:UnoswapRouter",
        "label": "_WETH",
        "offset": 0,
        "slot": "0",
        "type": "t_uint256"
      },
      {
        "astId": 5624,
        "contract": "contracts/swap/aggressive/UnoswapRouter.sol:UnoswapRouter",
        "label": "ctokenFactory",
        "offset": 0,
        "slot": "1",
        "type": "t_address"
      }
    ],
    "types": {
      "t_address": {
        "encoding": "inplace",
        "label": "address",
        "numberOfBytes": "20"
      },
      "t_uint256": {
        "encoding": "inplace",
        "label": "uint256",
        "numberOfBytes": "32"
      }
    }
  }
}