{
  "_format": "hh-sol-artifact-1",
  "contractName": "LeverageHoldingDelegateS1",
  "sourceName": "contracts/compound/LeverageHoldingDelegateS1.sol",
  "abi": [
    {
      "inputs": [],
      "payable": false,
      "stateMutability": "nonpayable",
      "type": "constructor"
    },
    {
      "anonymous": false,
      "inputs": [
        {
          "indexed": false,
          "internalType": "uint256",
          "name": "error",
          "type": "uint256"
        },
        {
          "indexed": false,
          "internalType": "uint256",
          "name": "info",
          "type": "uint256"
        },
        {
          "indexed": false,
          "internalType": "uint256",
          "name": "detail",
          "type": "uint256"
        }
      ],
      "name": "Failure",
      "type": "event"
    },
    {
      "constant": true,
      "inputs": [],
      "name": "_borrowGuardianPaused",
      "outputs": [
        {
          "internalType": "bool",
          "name": "",
          "type": "bool"
        }
      ],
      "payable": false,
      "stateMutability": "view",
      "type": "function"
    },
    {
      "constant": true,
      "inputs": [],
      "name": "_mintGuardianPaused",
      "outputs": [
        {
          "internalType": "bool",
          "name": "",
          "type": "bool"
        }
      ],
      "payable": false,
      "stateMutability": "view",
      "type": "function"
    },
    {
      "constant": true,
      "inputs": [
        {
          "internalType": "address",
          "name": "",
          "type": "address"
        },
        {
          "internalType": "address",
          "name": "",
          "type": "address"
        },
        {
          "internalType": "address",
          "name": "",
          "type": "address"
        }
      ],
      "name": "accrualBlockNumbers",
      "outputs": [
        {
          "internalType": "uint256",
          "name": "",
          "type": "uint256"
        }
      ],
      "payable": false,
      "stateMutability": "view",
      "type": "function"
    },
    {
      "constant": false,
      "inputs": [
        {
          "internalType": "address",
          "name": "token0",
          "type": "address"
        },
        {
          "internalType": "address",
          "name": "token1",
          "type": "address"
        },
        {
          "internalType": "address",
          "name": "tokenAccrued",
          "type": "address"
        }
      ],
      "name": "accrueInterest",
      "outputs": [
        {
          "internalType": "uint256",
          "name": "",
          "type": "uint256"
        }
      ],
      "payable": false,
      "stateMutability": "nonpayable",
      "type": "function"
    },
    {
      "constant": false,
      "inputs": [
        {
          "internalType": "address",
          "name": "eToken_",
          "type": "address"
        }
      ],
      "name": "accrueInterest",
      "outputs": [
        {
          "internalType": "uint256",
          "name": "",
          "type": "uint256"
        }
      ],
      "payable": false,
      "stateMutability": "nonpayable",
      "type": "function"
    },
    {
      "constant": true,
      "inputs": [],
      "name": "admin",
      "outputs": [
        {
          "internalType": "address",
          "name": "",
          "type": "address"
        }
      ],
      "payable": false,
      "stateMutability": "view",
      "type": "function"
    },
    {
      "constant": true,
      "inputs": [
        {
          "internalType": "address",
          "name": "",
          "type": "address"
        },
        {
          "internalType": "address",
          "name": "",
          "type": "address"
        },
        {
          "internalType": "address",
          "name": "",
          "type": "address"
        }
      ],
      "name": "amountLeveragedMax",
      "outputs": [
        {
          "internalType": "uint256",
          "name": "",
          "type": "uint256"
        }
      ],
      "payable": false,
      "stateMutability": "view",
      "type": "function"
    },
    {
      "constant": true,
      "inputs": [],
      "name": "baseEToken",
      "outputs": [
        {
          "internalType": "address",
          "name": "",
          "type": "address"
        }
      ],
      "payable": false,
      "stateMutability": "view",
      "type": "function"
    },
    {
      "constant": true,
      "inputs": [
        {
          "internalType": "address",
          "name": "eToken0",
          "type": "address"
        },
        {
          "internalType": "address",
          "name": "eToken1",
          "type": "address"
        },
        {
          "internalType": "address",
          "name": "assetsSelected",
          "type": "address"
        },
        {
          "internalType": "address",
          "name": "account",
          "type": "address"
        }
      ],
      "name": "borrowBalanceStored",
      "outputs": [
        {
          "internalType": "uint256",
          "name": "",
          "type": "uint256"
        },
        {
          "internalType": "uint256",
          "name": "",
          "type": "uint256"
        },
        {
          "internalType": "uint256",
          "name": "",
          "type": "uint256"
        },
        {
          "internalType": "uint256",
          "name": "",
          "type": "uint256"
        },
        {
          "internalType": "uint256",
          "name": "",
          "type": "uint256"
        }
      ],
      "payable": false,
      "stateMutability": "view",
      "type": "function"
    },
    {
      "constant": true,
      "inputs": [
        {
          "internalType": "address",
          "name": "",
          "type": "address"
        }
      ],
      "name": "borrowGuardianPaused",
      "outputs": [
        {
          "internalType": "bool",
          "name": "",
          "type": "bool"
        }
      ],
      "payable": false,
      "stateMutability": "view",
      "type": "function"
    },
    {
      "constant": true,
      "inputs": [],
      "name": "closeFactorMantissa",
      "outputs": [
        {
          "internalType": "uint256",
          "name": "",
          "type": "uint256"
        }
      ],
      "payable": false,
      "stateMutability": "view",
      "type": "function"
    },
    {
      "constant": false,
      "inputs": [
        {
          "internalType": "address",
          "name": "token0",
          "type": "address"
        },
        {
          "internalType": "address",
          "name": "token1",
          "type": "address"
        },
        {
          "internalType": "address",
          "name": "srcToken",
          "type": "address"
        },
        {
          "internalType": "address",
          "name": "destToken",
          "type": "address"
        },
        {
          "internalType": "uint256",
          "name": "amountIn",
          "type": "uint256"
        },
        {
          "internalType": "uint256",
          "name": "guaranteeAmountOut",
          "type": "uint256"
        },
        {
          "internalType": "uint256",
          "name": "expiredAt",
          "type": "uint256"
        },
        {
          "internalType": "uint256",
          "name": "flag",
          "type": "uint256"
        }
      ],
      "name": "commissionOrder",
      "outputs": [
        {
          "internalType": "uint256",
          "name": "",
          "type": "uint256"
        }
      ],
      "payable": false,
      "stateMutability": "nonpayable",
      "type": "function"
    },
    {
      "constant": true,
      "inputs": [],
      "name": "comptrollerV2",
      "outputs": [
        {
          "internalType": "contract ComptrollerInterfaceV2",
          "name": "",
          "type": "address"
        }
      ],
      "payable": false,
      "stateMutability": "view",
      "type": "function"
    },
    {
      "constant": false,
      "inputs": [
        {
          "internalType": "address",
          "name": "eTokenA",
          "type": "address"
        },
        {
          "internalType": "address",
          "name": "eTokenB",
          "type": "address"
        },
        {
          "internalType": "address",
          "name": "assertIn",
          "type": "address"
        },
        {
          "internalType": "uint256",
          "name": "amountIn",
          "type": "uint256"
        }
      ],
      "name": "deposit",
      "outputs": [
        {
          "internalType": "enum LeverageError.Error",
          "name": "",
          "type": "uint8"
        }
      ],
      "payable": true,
      "stateMutability": "payable",
      "type": "function"
    },
    {
      "constant": true,
      "inputs": [
        {
          "internalType": "address",
          "name": "eToken0",
          "type": "address"
        },
        {
          "internalType": "address",
          "name": "eToken1",
          "type": "address"
        },
        {
          "internalType": "address",
          "name": "account",
          "type": "address"
        }
      ],
      "name": "getAccountSnapshot",
      "outputs": [
        {
          "internalType": "uint256",
          "name": "",
          "type": "uint256"
        },
        {
          "internalType": "uint256",
          "name": "",
          "type": "uint256"
        },
        {
          "internalType": "uint256",
          "name": "",
          "type": "uint256"
        }
      ],
      "payable": false,
      "stateMutability": "view",
      "type": "function"
    },
    {
      "constant": true,
      "inputs": [],
      "name": "getBlockNumber",
      "outputs": [
        {
          "internalType": "uint256",
          "name": "",
          "type": "uint256"
        }
      ],
      "payable": false,
      "stateMutability": "view",
      "type": "function"
    },
    {
      "constant": true,
      "inputs": [
        {
          "internalType": "address",
          "name": "token0",
          "type": "address"
        },
        {
          "internalType": "address",
          "name": "token1",
          "type": "address"
        }
      ],
      "name": "getPair",
      "outputs": [
        {
          "internalType": "address",
          "name": "",
          "type": "address"
        }
      ],
      "payable": false,
      "stateMutability": "view",
      "type": "function"
    },
    {
      "constant": true,
      "inputs": [
        {
          "internalType": "address",
          "name": "eToken_",
          "type": "address"
        },
        {
          "internalType": "uint256",
          "name": "eTokens",
          "type": "uint256"
        }
      ],
      "name": "getTokenAmount",
      "outputs": [
        {
          "internalType": "uint256",
          "name": "",
          "type": "uint256"
        }
      ],
      "payable": false,
      "stateMutability": "view",
      "type": "function"
    },
    {
      "constant": true,
      "inputs": [],
      "name": "implementationS1",
      "outputs": [
        {
          "internalType": "address",
          "name": "",
          "type": "address"
        }
      ],
      "payable": false,
      "stateMutability": "view",
      "type": "function"
    },
    {
      "constant": true,
      "inputs": [],
      "name": "implementationS2",
      "outputs": [
        {
          "internalType": "address",
          "name": "",
          "type": "address"
        }
      ],
      "payable": false,
      "stateMutability": "view",
      "type": "function"
    },
    {
      "constant": false,
      "inputs": [
        {
          "internalType": "address",
          "name": "eTokenA",
          "type": "address"
        },
        {
          "internalType": "address",
          "name": "eTokenB",
          "type": "address"
        },
        {
          "internalType": "address",
          "name": "asserOut",
          "type": "address"
        },
        {
          "internalType": "uint256",
          "name": "leverageAmount",
          "type": "uint256"
        }
      ],
      "name": "leverageBorrow",
      "outputs": [
        {
          "internalType": "uint256",
          "name": "",
          "type": "uint256"
        }
      ],
      "payable": false,
      "stateMutability": "nonpayable",
      "type": "function"
    },
    {
      "constant": true,
      "inputs": [
        {
          "internalType": "address",
          "name": "",
          "type": "address"
        },
        {
          "internalType": "address",
          "name": "",
          "type": "address"
        },
        {
          "internalType": "address",
          "name": "",
          "type": "address"
        }
      ],
      "name": "leverageCapitals",
      "outputs": [
        {
          "internalType": "uint256",
          "name": "pureBaseAmount0",
          "type": "uint256"
        },
        {
          "internalType": "uint256",
          "name": "pureCTokens0",
          "type": "uint256"
        },
        {
          "internalType": "uint256",
          "name": "borrowAmount0",
          "type": "uint256"
        },
        {
          "internalType": "uint256",
          "name": "interestIndex0",
          "type": "uint256"
        },
        {
          "internalType": "uint256",
          "name": "pureBaseAmount1",
          "type": "uint256"
        },
        {
          "internalType": "uint256",
          "name": "pureCTokens1",
          "type": "uint256"
        },
        {
          "internalType": "uint256",
          "name": "borrowAmount1",
          "type": "uint256"
        },
        {
          "internalType": "uint256",
          "name": "interestIndex1",
          "type": "uint256"
        }
      ],
      "payable": false,
      "stateMutability": "view",
      "type": "function"
    },
    {
      "constant": true,
      "inputs": [],
      "name": "leverageComptroller",
      "outputs": [
        {
          "internalType": "contract LeverageHoldingComptrollerInterface",
          "name": "",
          "type": "address"
        }
      ],
      "payable": false,
      "stateMutability": "view",
      "type": "function"
    },
    {
      "constant": true,
      "inputs": [
        {
          "internalType": "address",
          "name": "",
          "type": "address"
        },
        {
          "internalType": "address",
          "name": "",
          "type": "address"
        },
        {
          "internalType": "address",
          "name": "",
          "type": "address"
        }
      ],
      "name": "leveragePrincipals",
      "outputs": [
        {
          "internalType": "uint256",
          "name": "",
          "type": "uint256"
        }
      ],
      "payable": false,
      "stateMutability": "view",
      "type": "function"
    },
    {
      "constant": true,
      "inputs": [],
      "name": "liquidationIncentiveMantissa",
      "outputs": [
        {
          "internalType": "uint256",
          "name": "",
          "type": "uint256"
        }
      ],
      "payable": false,
      "stateMutability": "view",
      "type": "function"
    },
    {
      "constant": true,
      "inputs": [],
      "name": "marginHolding_",
      "outputs": [
        {
          "internalType": "address",
          "name": "",
          "type": "address"
        }
      ],
      "payable": false,
      "stateMutability": "view",
      "type": "function"
    },
    {
      "constant": true,
      "inputs": [
        {
          "internalType": "address",
          "name": "",
          "type": "address"
        }
      ],
      "name": "mintGuardianPaused",
      "outputs": [
        {
          "internalType": "bool",
          "name": "",
          "type": "bool"
        }
      ],
      "payable": false,
      "stateMutability": "view",
      "type": "function"
    },
    {
      "constant": false,
      "inputs": [
        {
          "internalType": "address",
          "name": "owner",
          "type": "address"
        },
        {
          "internalType": "address",
          "name": "token0",
          "type": "address"
        },
        {
          "internalType": "address",
          "name": "token1",
          "type": "address"
        },
        {
          "internalType": "address",
          "name": "tokenReturn",
          "type": "address"
        },
        {
          "internalType": "uint256",
          "name": "amt",
          "type": "uint256"
        }
      ],
      "name": "onCanceled",
      "outputs": [],
      "payable": false,
      "stateMutability": "nonpayable",
      "type": "function"
    },
    {
      "constant": false,
      "inputs": [
        {
          "internalType": "address",
          "name": "owner",
          "type": "address"
        },
        {
          "internalType": "address",
          "name": "tokenOut",
          "type": "address"
        },
        {
          "internalType": "address",
          "name": "tokenIn",
          "type": "address"
        },
        {
          "internalType": "uint256",
          "name": "fulfiled",
          "type": "uint256"
        },
        {
          "internalType": "uint256",
          "name": "amt",
          "type": "uint256"
        }
      ],
      "name": "onFulfiled",
      "outputs": [],
      "payable": false,
      "stateMutability": "nonpayable",
      "type": "function"
    },
    {
      "constant": true,
      "inputs": [],
      "name": "oracle",
      "outputs": [
        {
          "internalType": "contract PriceOracle",
          "name": "",
          "type": "address"
        }
      ],
      "payable": false,
      "stateMutability": "view",
      "type": "function"
    },
    {
      "constant": true,
      "inputs": [
        {
          "internalType": "address",
          "name": "",
          "type": "address"
        },
        {
          "internalType": "address",
          "name": "",
          "type": "address"
        },
        {
          "internalType": "address",
          "name": "",
          "type": "address"
        }
      ],
      "name": "pairCapitals",
      "outputs": [
        {
          "internalType": "uint256",
          "name": "free0",
          "type": "uint256"
        },
        {
          "internalType": "uint256",
          "name": "free1",
          "type": "uint256"
        },
        {
          "internalType": "uint256",
          "name": "freeze0",
          "type": "uint256"
        },
        {
          "internalType": "uint256",
          "name": "freeze1",
          "type": "uint256"
        }
      ],
      "payable": false,
      "stateMutability": "view",
      "type": "function"
    },
    {
      "constant": true,
      "inputs": [
        {
          "internalType": "address",
          "name": "",
          "type": "address"
        },
        {
          "internalType": "address",
          "name": "",
          "type": "address"
        }
      ],
      "name": "pairs",
      "outputs": [
        {
          "internalType": "bool",
          "name": "",
          "type": "bool"
        }
      ],
      "payable": false,
      "stateMutability": "view",
      "type": "function"
    },
    {
      "constant": true,
      "inputs": [],
      "name": "pauseGuardian",
      "outputs": [
        {
          "internalType": "address",
          "name": "",
          "type": "address"
        }
      ],
      "payable": false,
      "stateMutability": "view",
      "type": "function"
    },
    {
      "constant": true,
      "inputs": [],
      "name": "pendingAdmin",
      "outputs": [
        {
          "internalType": "address",
          "name": "",
          "type": "address"
        }
      ],
      "payable": false,
      "stateMutability": "view",
      "type": "function"
    },
    {
      "constant": true,
      "inputs": [],
      "name": "seizeGuardianPaused",
      "outputs": [
        {
          "internalType": "bool",
          "name": "",
          "type": "bool"
        }
      ],
      "payable": false,
      "stateMutability": "view",
      "type": "function"
    },
    {
      "constant": true,
      "inputs": [],
      "name": "swapFactory_",
      "outputs": [
        {
          "internalType": "address",
          "name": "",
          "type": "address"
        }
      ],
      "payable": false,
      "stateMutability": "view",
      "type": "function"
    },
    {
      "constant": true,
      "inputs": [
        {
          "internalType": "address",
          "name": "",
          "type": "address"
        },
        {
          "internalType": "address",
          "name": "",
          "type": "address"
        },
        {
          "internalType": "address",
          "name": "",
          "type": "address"
        }
      ],
      "name": "tokenLeverageRates",
      "outputs": [
        {
          "internalType": "uint256",
          "name": "",
          "type": "uint256"
        }
      ],
      "payable": false,
      "stateMutability": "view",
      "type": "function"
    },
    {
      "constant": true,
      "inputs": [
        {
          "internalType": "address",
          "name": "",
          "type": "address"
        },
        {
          "internalType": "address",
          "name": "",
          "type": "address"
        },
        {
          "internalType": "address",
          "name": "",
          "type": "address"
        }
      ],
      "name": "totalLeverages",
      "outputs": [
        {
          "internalType": "uint256",
          "name": "",
          "type": "uint256"
        }
      ],
      "payable": false,
      "stateMutability": "view",
      "type": "function"
    },
    {
      "constant": true,
      "inputs": [],
      "name": "totalWithdrawalAllowed",
      "outputs": [
        {
          "internalType": "bool",
          "name": "",
          "type": "bool"
        }
      ],
      "payable": false,
      "stateMutability": "view",
      "type": "function"
    },
    {
      "constant": true,
      "inputs": [],
      "name": "transferGuardianPaused",
      "outputs": [
        {
          "internalType": "bool",
          "name": "",
          "type": "bool"
        }
      ],
      "payable": false,
      "stateMutability": "view",
      "type": "function"
    },
    {
      "constant": true,
      "inputs": [
        {
          "internalType": "address",
          "name": "eToken_",
          "type": "address"
        }
      ],
      "name": "verifyBlocks",
      "outputs": [
        {
          "internalType": "bool",
          "name": "",
          "type": "bool"
        }
      ],
      "payable": false,
      "stateMutability": "view",
      "type": "function"
    },
    {
      "constant": false,
      "inputs": [
        {
          "internalType": "address",
          "name": "eTokenA",
          "type": "address"
        },
        {
          "internalType": "address",
          "name": "eTokenB",
          "type": "address"
        },
        {
          "internalType": "uint256",
          "name": "withdraw0",
          "type": "uint256"
        },
        {
          "internalType": "uint256",
          "name": "withdraw1",
          "type": "uint256"
        }
      ],
      "name": "withdraw",
      "outputs": [
        {
          "internalType": "uint256",
          "name": "",
          "type": "uint256"
        }
      ],
      "payable": false,
      "stateMutability": "nonpayable",
      "type": "function"
    }
  ],
  "bytecode": "0x6080604052670de0b6b3a7640000600455670f43fc2c04ee0000600855670214e8348c4f0000600955671158e460913d0000600a55671bc16d674ec80000600b55600c805460ff191660011790556706f05b59d3b20000601355601780546001600160a01b031916905534801561007557600080fd5b50613bf6806100856000396000f3fe6080604052600436106102515760003560e01c806364a8f5c411610139578063ac0b0bb7116100b6578063e6a439051161007a578063e6a439051461098e578063e8755446146109c9578063ebdf591a146109de578063f851a44014610a41578063fb5df49714610a56578063fdc6060614610ac157610251565b8063ac0b0bb714610883578063b7d9d9d414610898578063bbea9a7a146108eb578063e31ca93c14610930578063e6653f3d1461097957610251565b80637bfe950c116100fd5780637bfe950c146107c85780637dc0d1d01461081157806387f76303146108265780638f9cdb351461083b5780639198e5151461085057610251565b806364a8f5c4146106cd57806369454b86146107125780636d154ea51461074d578063731f0c2b146107805780637ac0ac47146107b357610251565b80633358936a116101d257806345a219bb1161019657806345a219bb146105a057806348ab8fc7146105e55780634ada90af146105fa578063518a37f21461060f578063542bb19d1461064257806357c2b7b81461065757610251565b80633358936a1461047557806333668e2a1461048a5780633627fec8146104f05780633c94786f1461057657806342cbb15c1461058b57610251565b8063115ece4c11610219578063115ece4c146103985780631889ae21146103d15780631fc74c851461042257806324a3d6221461044b578063267822471461046057610251565b80630284c3f5146102565780630e56d06f146102b6578063106d3786146102e757806311157d87146102fc578063114a784314610353575b600080fd5b6102926004803603608081101561026c57600080fd5b506001600160a01b03813581169160208101358216916040820135169060600135610b06565b604051808260258111156102a257fe5b60ff16815260200191505060405180910390f35b3480156102c257600080fd5b506102cb610e3a565b604080516001600160a01b039092168252519081900360200190f35b3480156102f357600080fd5b506102cb610e49565b34801561030857600080fd5b506103416004803603606081101561031f57600080fd5b506001600160a01b038135811691602081013582169160409091013516610e58565b60408051918252519081900360200190f35b34801561035f57600080fd5b506103416004803603606081101561037657600080fd5b506001600160a01b038135811691602081013582169160409091013516610e7b565b3480156103a457600080fd5b50610341600480360360408110156103bb57600080fd5b506001600160a01b038135169060200135610e9e565b3480156103dd57600080fd5b50610420600480360360a08110156103f457600080fd5b506001600160a01b03813581169160208101358216916040820135169060608101359060800135610f12565b005b34801561042e57600080fd5b50610437611052565b604080519115158252519081900360200190f35b34801561045757600080fd5b506102cb61105b565b34801561046c57600080fd5b506102cb61106a565b34801561048157600080fd5b506102cb611079565b34801561049657600080fd5b5061034160048036036101008110156104ae57600080fd5b506001600160a01b0381358116916020810135821691604082013581169160608101359091169060808101359060a08101359060c08101359060e00135611088565b3480156104fc57600080fd5b506105356004803603606081101561051357600080fd5b506001600160a01b03813581169160208101358216916040909101351661153a565b604080519889526020890197909752878701959095526060870193909352608086019190915260a085015260c084015260e083015251908190036101000190f35b34801561058257600080fd5b5061043761158e565b34801561059757600080fd5b5061034161159e565b3480156105ac57600080fd5b50610341600480360360608110156105c357600080fd5b506001600160a01b0381358116916020810135821691604090910135166115a2565b3480156105f157600080fd5b506102cb611986565b34801561060657600080fd5b50610341611995565b34801561061b57600080fd5b506104376004803603602081101561063257600080fd5b50356001600160a01b031661199b565b34801561064e57600080fd5b506102cb611a13565b34801561066357600080fd5b506106a26004803603608081101561067a57600080fd5b506001600160a01b038135811691602081013582169160408201358116916060013516611a22565b6040805195865260208601949094528484019290925260608401526080830152519081900360a00190f35b3480156106d957600080fd5b50610341600480360360608110156106f057600080fd5b506001600160a01b038135811691602081013582169160409091013516611dbf565b34801561071e57600080fd5b506104376004803603604081101561073557600080fd5b506001600160a01b0381358116916020013516611de2565b34801561075957600080fd5b506104376004803603602081101561077057600080fd5b50356001600160a01b0316611e02565b34801561078c57600080fd5b50610437600480360360208110156107a357600080fd5b50356001600160a01b0316611e17565b3480156107bf57600080fd5b506102cb611e2c565b3480156107d457600080fd5b50610341600480360360808110156107eb57600080fd5b506001600160a01b03813581169160208101359091169060408101359060600135611e40565b34801561081d57600080fd5b506102cb612287565b34801561083257600080fd5b50610437612296565b34801561084757600080fd5b506102cb6122a6565b34801561085c57600080fd5b506103416004803603602081101561087357600080fd5b50356001600160a01b03166122b5565b34801561088f57600080fd5b50610437612329565b3480156108a457600080fd5b50610420600480360360a08110156108bb57600080fd5b506001600160a01b0381358116916020810135821691604082013581169160608101359091169060800135612339565b3480156108f757600080fd5b506103416004803603606081101561090e57600080fd5b506001600160a01b038135811691602081013582169160409091013516612497565b34801561093c57600080fd5b506103416004803603608081101561095357600080fd5b506001600160a01b038135811691602081013582169160408201351690606001356124ba565b34801561098557600080fd5b50610437612aa0565b34801561099a57600080fd5b506102cb600480360360408110156109b157600080fd5b506001600160a01b0381358116916020013516612ab0565b3480156109d557600080fd5b50610341612c1b565b3480156109ea57600080fd5b50610a2360048036036060811015610a0157600080fd5b506001600160a01b038135811691602081013582169160409091013516612c21565b60408051938452602084019290925282820152519081900360600190f35b348015610a4d57600080fd5b506102cb612d74565b348015610a6257600080fd5b50610a9b60048036036060811015610a7957600080fd5b506001600160a01b038135811691602081013582169160409091013516612d83565b604080519485526020850193909352838301919091526060830152519081900360800190f35b348015610acd57600080fd5b5061034160048036036060811015610ae457600080fd5b506001600160a01b038135811691602081013582169160409091013516612dbb565b6018546040805163a686072160e01b81526001600160a01b03878116600483015286811660248301529151600093849384938493919092169163a6860721916044808301926060929190829003018186803b158015610b6457600080fd5b505afa158015610b78573d6000803e3d6000fd5b505050506040513d6060811015610b8e57600080fd5b508051602082015160409092015190945090925090508215610bea576040805162461bcd60e51b815260206004820152601060248201526f3830b4b91038bab2b93c9032b93937b960811b604482015290519081900360640190fd5b816001600160a01b0316866001600160a01b03161480610c1b5750806001600160a01b0316866001600160a01b0316145b610c5f576040805162461bcd60e51b815260206004820152601060248201526f34b73b30b634b21030b9b9b2b93a24b760811b604482015290519081900360640190fd5b6017546000906001600160a01b0388811691161415610ce757826001600160a01b0316631249c58b346040518263ffffffff1660e01b81526004016020604051808303818588803b158015610cb357600080fd5b505af1158015610cc7573d6000803e3d6000fd5b50505050506040513d6020811015610cde57600080fd5b50519050610dca565b610cfa3387610cf58a612dde565b612ea8565b95506000610d11610d0a89612dde565b858961314a565b905080610d54576040805162461bcd60e51b815260206004820152600c60248201526b185c1c1c9bdd994819985a5b60a21b604482015290519081900360640190fd5b836001600160a01b031663a0712d68886040518263ffffffff1660e01b815260040180828152602001915050602060405180830381600087803b158015610d9a57600080fd5b505af1158015610dae573d6000803e3d6000fd5b505050506040513d6020811015610dc457600080fd5b50519150505b6001600160a01b0380841660008181526006602090815260408083208786168452825280832033845290915290209189161415610e14578054610e0d90836131c1565b8155610e28565b610e228160010154836131c1565b60018201555b6000955050505050505b949350505050565b6001546001600160a01b031681565b6016546001600160a01b031681565b601160209081526000938452604080852082529284528284209052825290205481565b601260209081526000938452604080852082529284528284209052825290205481565b600080839050610e3283826001600160a01b031663182df0f56040518163ffffffff1660e01b815260040160206040518083038186803b158015610ee157600080fd5b505afa158015610ef5573d6000803e3d6000fd5b505050506040513d6020811015610f0b57600080fd5b50516131f7565b610f1a613a7d565b3315610f2557600080fd5b601854604080516319a3de6d60e01b81526001600160a01b0388811660048301528781166024830152915191909216916319a3de6d916044808301926060929190829003018186803b158015610f7a57600080fd5b505afa158015610f8e573d6000803e3d6000fd5b505050506040513d6060811015610fa457600080fd5b506020808201516040928301516001600160a01b039081168584019081529181168086526000908152600684528481209251821681529183528382208a8216835290925291909120825190918781169116141561102757611009816002015484613239565b6002820155600181015461101d90856131c1565b6001820155611049565b611035816003015484613239565b6003820155805461104690856131c1565b81555b50505050505050565b600c5460ff1681565b6019546001600160a01b031681565b6003546001600160a01b031681565b6000546001600160a01b031681565b601854604080516319a3de6d60e01b81526001600160a01b038b811660048301528a81166024830152915160009392909216916319a3de6d91604480820192606092909190829003018186803b1580156110e157600080fd5b505afa1580156110f5573d6000803e3d6000fd5b505050506040513d606081101561110b57600080fd5b50602081015160409091015190995097506001600160a01b03878116908a1614806111475750876001600160a01b0316876001600160a01b0316145b61118b576040805162461bcd60e51b815260206004820152601060248201526f34b73b30b634b21039b931aa37b5b2b760811b604482015290519081900360640190fd5b886001600160a01b0316876001600160a01b031614806111bc5750876001600160a01b0316876001600160a01b0316145b611200576040805162461bcd60e51b815260206004820152601060248201526f34b73b30b634b21039b931aa37b5b2b760811b604482015290519081900360640190fd5b611208613a94565b896001600160a01b0316886001600160a01b03161415611235576040810185905260208101869052611240565b858152606081018590525b601860009054906101000a90046001600160a01b03166001600160a01b031663c5873484338c8c85600001518660200151876040015188606001516040518863ffffffff1660e01b815260040180886001600160a01b03166001600160a01b03168152602001876001600160a01b03166001600160a01b03168152602001866001600160a01b03166001600160a01b0316815260200185815260200184815260200183815260200182815260200197505050505050505060806040518083038186803b15801561130f57600080fd5b505afa158015611323573d6000803e3d6000fd5b505050506040513d608081101561133957600080fd5b5080516020820151604083015160609093015160e0850181905260c085019390935260a08401526080830152600854106113ba576040805162461bcd60e51b815260206004820152601760248201527f72656163682074686520636c656172696e67206c696e65000000000000000000604482015290519081900360640190fd5b600d546017546001600160a01b03918216916000918b82169116141561148457604080516307a7908160e21b81526001600160a01b038c811660048301528b81166024830152336044830152606482018b9052608482018a905260a4820189905260c48201889052915191841691631e9e4204918a9160e480830192602092919082900301818588803b15801561145057600080fd5b505af1158015611464573d6000803e3d6000fd5b50505050506040513d602081101561147b57600080fd5b5051905061152b565b604080516307a7908160e21b81526001600160a01b038c811660048301528b81166024830152336044830152606482018b9052608482018a905260a4820189905260c48201889052915191841691631e9e42049160009160e480830192602092919082900301818588803b1580156114fb57600080fd5b505af115801561150f573d6000803e3d6000fd5b50505050506040513d602081101561152657600080fd5b505190505b9b9a5050505050505050505050565b60076020818152600094855260408086208252938552838520905290835291208054600182015460028301546003840154600485015460058601546006870154969097015494969395929491939092909188565b601954600160a01b900460ff1681565b4390565b60006115ac613ad9565b6115b461159e565b81526001600160a01b038086166000908152601060209081526040808320888516845282528083209387168352928152919020549082018190528151141561160057600091505061197f565b6001600160a01b038086166000818152600f60209081526040808320898616808552908352818420958916808552958352818420549484526012835281842090845282528083209483529390529190912054849190806116c257826001600160a01b031663ba1c5e806040518163ffffffff1660e01b815260040160206040518083038186803b15801561169357600080fd5b505afa1580156116a7573d6000803e3d6000fd5b505050506040513d60208110156116bd57600080fd5b505190505b6000806116d786600001518760200151613273565b909250905060008260038111156116ea57fe5b1461173c576040805162461bcd60e51b815260206004820152601f60248201527f636f756c64206e6f742063616c63756c61746520626c6f636b2064656c746100604482015290519081900360640190fd5b611744613b01565b61175c60405180602001604052808681525083613299565b9093509050600083600381111561176f57fe5b1461179a5761178c6003601d85600381111561178757fe5b613301565b97505050505050505061197f565b6117a48186613367565b6040890152925060008360038111156117b957fe5b146117d15761178c6003601e85600381111561178757fe5b6117df8760400151866133ba565b6060890152925060008360038111156117f457fe5b1461180c5761178c6003601f85600381111561178757fe5b8660000151601060008d6001600160a01b03166001600160a01b0316815260200190815260200160002060008c6001600160a01b03166001600160a01b0316815260200190815260200160002060008b6001600160a01b03166001600160a01b03168152602001908152602001600020819055508660600151600f60008d6001600160a01b03166001600160a01b0316815260200190815260200160002060008c6001600160a01b03166001600160a01b0316815260200190815260200160002060008b6001600160a01b03166001600160a01b0316815260200190815260200160002081905550856001600160a01b03166338f8fc4f611911896060015188613239565b6040518263ffffffff1660e01b815260040180828152602001915050602060405180830381600087803b15801561194757600080fd5b505af115801561195b573d6000803e3d6000fd5b505050506040513d602081101561197157600080fd5b506000985050505050505050505b9392505050565b6018546001600160a01b031681565b60145481565b6000816119a661159e565b816001600160a01b0316636c540baf6040518163ffffffff1660e01b815260040160206040518083038186803b1580156119df57600080fd5b505afa1580156119f3573d6000803e3d6000fd5b505050506040513d6020811015611a0957600080fd5b5051149392505050565b600d546001600160a01b031681565b6000806000806000611a32613a94565b601854604080516319a3de6d60e01b81526001600160a01b038d811660048301528c811660248301529151600093849384939116916319a3de6d91604480820192606092909190829003018186803b158015611a8d57600080fd5b505afa158015611aa1573d6000803e3d6000fd5b505050506040513d6060811015611ab757600080fd5b508051602082015160409092015190945090925090508215611aee576024985060009750879650869550859450611db49350505050565b6001600160a01b03808316600090815260076020908152604080832085851684528252808320938e168352929052206002810154158015611b3157506006810154155b15611b52576000995060009850889750879650869550611db4945050505050565b826001600160a01b03168c6001600160a01b03161480611b8357508b6001600160a01b0316826001600160a01b0316145b611bca576040805162461bcd60e51b815260206004820152601360248201527257726f6e67206173736574206164647265737360681b604482015290519081900360640190fd5b600281015415611c86576000611bdf846133e0565b90506000611bf1836002015483613433565b885290506000816003811115611c0357fe5b14611c275760035b9b5060009a508a9950899850889750611db49650505050505050565b611c3987600001518460030154613472565b604089015290506000816003811115611c4e57fe5b14611c5a576003611c0b565b611c68858460010154610e9e565b608088015260408701518354611c7e9190613239565b60a088015250505b600681015415611d30576000611c9b836133e0565b90506000611cad836006015483613433565b602089015290506000816003811115611cc257fe5b14611cce576003611c0b565b611ce087602001518460070154613472565b606089015290506000816003811115611cf557fe5b14611d01576003611c0b565b611d0f848460050154610e9e565b60c088015260608701516004840154611d289190613239565b60e088015250505b826001600160a01b03168c6001600160a01b03161415611d81576000611d5e86608001518760a001516131c1565b86608001518760a001518860400151995099509950995099505050505050611db4565b6000611d958660c001518760e001516131c1565b8660c001518760e0015188606001519950995099509950995050505050505b945094509450945094565b600e60209081526000938452604080852082529284528284209052825290205481565b600560209081526000928352604080842090915290825290205460ff1681565b601b6020526000908152604090205460ff1681565b601a6020526000908152604090205460ff1681565b600c5461010090046001600160a01b031681565b600c5460009060ff16611e93576040805162461bcd60e51b81526020600482015260166024820152751dda5d1a191c985dc81a5cdb89dd08185b1b1bddd95960521b604482015290519081900360640190fd5b6018546040805163484fa08560e01b81526001600160a01b038881166004830152878116602483015233604483015291516000938493849391169163484fa08591606480820192606092909190829003018186803b158015611ef457600080fd5b505afa158015611f08573d6000803e3d6000fd5b505050506040513d6060811015611f1e57600080fd5b508051602082015160409092015190945090925090508215611f7a576040805162461bcd60e51b815260206004820152601060248201526f3830b4b91038bab2b93c9032b93937b960811b604482015290519081900360640190fd5b60008615612000576000839050806001600160a01b031663852a12e3896040518263ffffffff1660e01b815260040180828152602001915050606060405180830381600087803b158015611fcd57600080fd5b505af1158015611fe1573d6000803e3d6000fd5b505050506040513d6060811015611ff757600080fd5b50604001519150505b60008615612086576000839050806001600160a01b031663852a12e3896040518263ffffffff1660e01b815260040180828152602001915050606060405180830381600087803b15801561205357600080fd5b505af1158015612067573d6000803e3d6000fd5b505050506040513d606081101561207d57600080fd5b50604001519150505b6001600160a01b038085166000908152600660209081526040808320938716835292815282822033835290522080548310612108576040805162461bcd60e51b815260206004820152601760248201527f496e73756666696369656e742062617365417373657274000000000000000000604482015290519081900360640190fd5b81816001015411612160576040805162461bcd60e51b815260206004820152601860248201527f496e73756666696369656e742071756f74654173736572740000000000000000604482015290519081900360640190fd5b805461216c9084613239565b8155600181015461217d90836131c1565b600182015560185460408051634f57103160e01b81526001600160a01b038881166004830152878116602483015233604483015291516000939290921691634f57103191606480820192602092909190829003018186803b1580156121e157600080fd5b505afa1580156121f5573d6000803e3d6000fd5b505050506040513d602081101561220b57600080fd5b505190508015612262576040805162461bcd60e51b815260206004820152601b60248201527f4d697363616c63756c6174696f6e206f66206c69717569646974790000000000604482015290519081900360640190fd5b61226d86338c61349d565b61227885338b61349d565b50505050505050949350505050565b6015546001600160a01b031681565b601954600160b01b900460ff1681565b6017546001600160a01b031681565b600080829050806001600160a01b031663a6afed956040518163ffffffff1660e01b8152600401602060405180830381600087803b1580156122f657600080fd5b505af115801561230a573d6000803e3d6000fd5b505050506040513d602081101561232057600080fd5b50519392505050565b601954600160b81b900460ff1681565b331561234457600080fd5b601854604080516319a3de6d60e01b81526001600160a01b0387811660048301528681166024830152915191909216916319a3de6d916044808301926060929190829003018186803b15801561239957600080fd5b505afa1580156123ad573d6000803e3d6000fd5b505050506040513d60608110156123c357600080fd5b50602081015160409091015190945092506001600160a01b0382811690851614806123ff5750826001600160a01b0316826001600160a01b0316145b61240857600080fd5b6001600160a01b038085166000818152600660209081526040808320888616845282528083208a86168452909152902091841614156124675761244f816002015483613239565b600282015580546124609083613239565b815561248f565b612475816003015483613239565b600382015560018101546124899083613239565b60018201555b505050505050565b600f60209081526000938452604080852082529284528284209052825290205481565b60006124c4613b14565b6018546040805163cd13e69d60e01b81526001600160a01b038981166004830152888116602483015291516000938493849391169163cd13e69d91604480820192606092909190829003018186803b15801561251f57600080fd5b505afa158015612533573d6000803e3d6000fd5b505050506040513d606081101561254957600080fd5b5080516020820151604090920151909450909250905082156125a5576040805162461bcd60e51b815260206004820152601060248201526f3830b4b91038bab2b93c9032b93937b960811b604482015290519081900360640190fd5b886001600160a01b0316876001600160a01b031614806125d65750876001600160a01b0316876001600160a01b0316145b6125df57600080fd5b60185460408051633161cd2160e21b81523360048201526001600160a01b03858116602483015284811660448301526000606483018190526084830181905260a4830181905260c48301529151919092169163c58734849160e4808301926080929190829003018186803b15801561265657600080fd5b505afa15801561266a573d6000803e3d6000fd5b505050506040513d608081101561268057600080fd5b508051602082015160408084015160609485015160808a0152938801939093529186019190915260a0850181905215612700576040805162461bcd60e51b815260206004820152601b60248201527f4d697363616c63756c6174696f6e206f66206c69717569646974790000000000604482015290519081900360640190fd5b600a548460800151116127445760405162461bcd60e51b815260040180806020018281038252602b815260200180613b97602b913960400191505060405180910390fd5b6001600160a01b038083166000818152600760209081526040808320868616845282528083203384529091529020918916141561289557826001600160a01b031663ea5b375e886040518263ffffffff1660e01b815260040180828152602001915050602060405180830381600087803b1580156127c157600080fd5b505af11580156127d5573d6000803e3d6000fd5b505050506040513d60208110156127eb57600080fd5b505180865260018201546127fe916131c1565b6001820155805461280f90886131c1565b815560008080612822868681338e6134d2565b919450925090508261288d5760028401829055600384018190556128488686818561371a565b61288d576040805162461bcd60e51b81526020600482015260116024820152700d8caeccae4c2ceca40e8dede40daeac6d607b1b604482015290519081900360640190fd5b5050506129b2565b816001600160a01b031663ea5b375e886040518263ffffffff1660e01b815260040180828152602001915050602060405180830381600087803b1580156128db57600080fd5b505af11580156128ef573d6000803e3d6000fd5b505050506040513d602081101561290557600080fd5b505160208601819052600582015461291c916131c1565b6005820155805461292d90886131c1565b600482015560008080612943868680338e6134d2565b91945092509050826129ae5760068401829055600784018190556129698686808561371a565b6129ae576040805162461bcd60e51b81526020600482015260116024820152700d8caeccae4c2ceca40e8dede40daeac6d607b1b604482015290519081900360640190fd5b5050505b60185460408051630195268560e71b81526001600160a01b03868116600483015285811660248301523360448301529151600093929092169163ca93428091606480820192602092909190829003018186803b158015612a1157600080fd5b505afa158015612a25573d6000803e3d6000fd5b505050506040513d6020811015612a3b57600080fd5b505190508015612a92576040805162461bcd60e51b815260206004820152601b60248201527f4d697363616c63756c6174696f6e206f66206c69717569646974790000000000604482015290519081900360640190fd5b505050505050949350505050565b601954600160a81b900460ff1681565b600080836001600160a01b0316636f307dc36040518163ffffffff1660e01b815260040160206040518083038186803b158015612aec57600080fd5b505afa158015612b00573d6000803e3d6000fd5b505050506040513d6020811015612b1657600080fd5b505160408051636f307dc360e01b815290519192506000916001600160a01b03861691636f307dc3916004808301926020929190829003018186803b158015612b5e57600080fd5b505afa158015612b72573d6000803e3d6000fd5b505050506040513d6020811015612b8857600080fd5b5051600c546040805163e6a4390560e01b81526001600160a01b03868116600483015280851660248301529151939450610100909204169163e6a4390591604480820192602092909190829003018186803b158015612be657600080fd5b505afa158015612bfa573d6000803e3d6000fd5b505050506040513d6020811015612c1057600080fd5b505195945050505050565b60135481565b601854604080516319a3de6d60e01b81526001600160a01b038681166004830152858116602483015291516000938493849384938493849316916319a3de6d916044808301926060929190829003018186803b158015612c8057600080fd5b505afa158015612c94573d6000803e3d6000fd5b505050506040513d6060811015612caa57600080fd5b508051602082015160409092015190945090925090508215612cda576024955060009450849350612d6b92505050565b612ce2613ad9565b506001600160a01b03828116600090815260066020908152604080832085851684528252808320938b168352928152828220835160808101855281548082526001830154938201939093526002820154948101859052600390910154606082015292612d4e91906131c1565b612d60836020015184606001516131c1565b965096509650505050505b93509350939050565b6002546001600160a01b031681565b600660209081526000938452604080852082529284528284209052825290208054600182015460028301546003909301549192909184565b601060209081526000938452604080852082529284528284209052825290205481565b6000808290506000816001600160a01b0316636f307dc36040518163ffffffff1660e01b815260040160206040518083038186803b158015612e1f57600080fd5b505afa158015612e33573d6000803e3d6000fd5b505050506040513d6020811015612e4957600080fd5b505190506001600160a01b03811661197f576040805162461bcd60e51b815260206004820152601b60248201527f63546f6b656e277320756e6465726c79696e67206973207a65726f0000000000604482015290519081900360640190fd5b60006001600160a01b038216612f0457823414612efd576040805162461bcd60e51b815260206004820152600e60248201526d0ecc2d8eaca40dad2e6dac2e8c6d60931b604482015290519081900360640190fd5b508161197f565b604080516370a0823160e01b8152306004820152905183916000916001600160a01b038416916370a08231916024808301926020929190829003018186803b158015612f4f57600080fd5b505afa158015612f63573d6000803e3d6000fd5b505050506040513d6020811015612f7957600080fd5b5051604080516323b872dd60e01b81526001600160a01b038981166004830152306024830152604482018990529151929350908416916323b872dd9160648082019260009290919082900301818387803b158015612fd657600080fd5b505af1158015612fea573d6000803e3d6000fd5b5050505060003d60008114613006576020811461301057600080fd5b600019915061301c565b60206000803e60005191505b508061306f576040805162461bcd60e51b815260206004820152601860248201527f544f4b454e5f5452414e534645525f494e5f4641494c45440000000000000000604482015290519081900360640190fd5b604080516370a0823160e01b815230600482015290516000916001600160a01b038816916370a0823191602480820192602092909190829003018186803b1580156130b957600080fd5b505afa1580156130cd573d6000803e3d6000fd5b505050506040513d60208110156130e357600080fd5b505190508281101561313c576040805162461bcd60e51b815260206004820152601a60248201527f544f4b454e5f5452414e534645525f494e5f4f564552464c4f57000000000000604482015290519081900360640190fd5b82810394505050505061197f565b600080846001600160a01b031663095ea7b385856040518363ffffffff1660e01b815260040180836001600160a01b03166001600160a01b0316815260200182815260200192505050602060405180830381600087803b1580156131ad57600080fd5b505af1158015612bfa573d6000803e3d6000fd5b600061197f8383604051806040016040528060118152602001706164646974696f6e206f766572666c6f7760781b815250613775565b600061197f83836040518060400160405280601781526020017f6d756c7469706c69636174696f6e206f766572666c6f77000000000000000000815250613810565b600061197f8383604051806040016040528060158152602001747375627472616374696f6e20756e646572666c6f7760581b815250613886565b60008083831161328a575060009050818303613292565b506003905060005b9250929050565b60006132a3613b01565b6000806132b4866000015186613433565b909250905060008260038111156132c757fe5b146132e657506040805160208101909152600081529092509050613292565b60408051602081019091529081526000969095509350505050565b60007f45b96fe442630264581b197e84bbada861235052c5a1aadfff9ea4e40a969aa084602581111561333057fe5b84602581111561333c57fe5b604080519283526020830191909152818101859052519081900360600190a1836025811115610e3257fe5b6000806000613374613b01565b61337e8686613299565b9092509050600082600381111561339157fe5b146133a25750915060009050613292565b60006133ad826138e0565b9350935050509250929050565b6000808383018481106133d257600092509050613292565b506002915060009050613292565b600080829050806001600160a01b031663aa5af0fd6040518163ffffffff1660e01b815260040160206040518083038186803b15801561341f57600080fd5b505afa15801561230a573d6000803e3d6000fd5b6000808361344657506000905080613292565b8383028385828161345357fe5b041461346757506002915060009050613292565b600092509050613292565b600080826134865750600190506000613292565b600083858161349157fe5b04915091509250929050565b6017546001600160a01b03848116911614156134c2576134bd82826138ef565b6134cd565b6134cd828285613925565b505050565b60008060006134e08661199b565b156134ff576134f1600b6015613a17565b92506000915081905061370f565b613507613b4a565b61351389898989611a22565b61010086015260e085015260c084015260408301528082521561355157613541600360078360000151613301565b93506000925082915061370f9050565b6001600160a01b03808a166000818152600f602090815260408083208d8616808552908352818420958d1680855295835281842054948452600e8352818420908452825280832094835293905291909120546135ad82886131c1565b60808401526135bc81886131c1565b60a08401528251156135eb576135d96003601c8560000151613301565b95506000945084935061370f92505050565b6135f98360400151886131c1565b8360600181815250508260800151600f60008d6001600160a01b03166001600160a01b0316815260200190815260200160002060008c6001600160a01b03166001600160a01b0316815260200190815260200160002060008b6001600160a01b03166001600160a01b03168152602001908152602001600020819055508260a00151600e60008d6001600160a01b03166001600160a01b0316815260200190815260200160002060008c6001600160a01b03166001600160a01b0316815260200190815260200160002060008b6001600160a01b03166001600160a01b0316815260200190815260200160002081905550600060258111156136f757fe5b83606001516137058b6133e0565b9550955095505050505b955095509592505050565b6001600160a01b03808516600090815260116020908152604080832087851684528252808320938616835292905290812054801580159061375a57508083115b15613769576000915050610e32565b50600195945050505050565b600083830182858210156138075760405162461bcd60e51b81526004018080602001828103825283818151815260200191508051906020019080838360005b838110156137cc5781810151838201526020016137b4565b50505050905090810190601f1680156137f95780820380516001836020036101000a031916815260200191505b509250505060405180910390fd5b50949350505050565b600083158061381d575082155b1561382a5750600061197f565b8383028385828161383757fe5b041483906138075760405162461bcd60e51b81526020600482018181528351602484015283519092839260449091019190850190808383600083156137cc5781810151838201526020016137b4565b600081848411156138d85760405162461bcd60e51b81526020600482018181528351602484015283519092839260449091019190850190808383600083156137cc5781810151838201526020016137b4565b505050900390565b51670de0b6b3a7640000900490565b6040516001600160a01b0383169082156108fc029083906000818181858888f193505050501580156134cd573d6000803e3d6000fd5b6040805163a9059cbb60e01b81526001600160a01b038581166004830152602482018590529151839283169163a9059cbb91604480830192600092919082900301818387803b15801561397757600080fd5b505af115801561398b573d6000803e3d6000fd5b5050505060003d600081146139a757602081146139b157600080fd5b60001991506139bd565b60206000803e60005191505b5080613a10576040805162461bcd60e51b815260206004820152601960248201527f544f4b454e5f5452414e534645525f4f55545f4641494c454400000000000000604482015290519081900360640190fd5b5050505050565b60007f45b96fe442630264581b197e84bbada861235052c5a1aadfff9ea4e40a969aa0836025811115613a4657fe5b836025811115613a5257fe5b604080519283526020830191909152600082820152519081900360600190a182602581111561197f57fe5b604080518082019091526000808252602082015290565b60405180610100016040528060008152602001600081526020016000815260200160008152602001600081526020016000815260200160008152602001600081525090565b6040518060800160405280600081526020016000815260200160008152602001600081525090565b6040518060200160405280600081525090565b6040518060c001604052806000815260200160008152602001600081526020016000815260200160008152602001600081525090565b604051806101200160405280600081526020016000815260200160008152602001600081526020016000815260200160008152602001600081526020016000815260200160008152509056fe546865206d6178696d756d206c6f616e207269736b2072617465206d757374206265206578636565646564a265627a7a723158203dfd068c50d65e43544d9e2bbbe6c7afb2920a169cd00c5371f38fbff77ca36664736f6c63430005100032",
  "linkReferences": {},
  "deployedLinkReferences": {}
}