{
  "_format": "hh-sol-artifact-1",
  "contractName": "LErc20Delegate",
  "sourceName": "contracts/compound/LErc20Delegate.sol",
  "abi": [
    {
      "inputs": [],
      "payable": false,
      "stateMutability": "nonpayable",
      "type": "constructor"
    },
    {
      "anonymous": false,
      "inputs": [
        {
          "indexed": false,
          "internalType": "uint256",
          "name": "cashPrior",
          "type": "uint256"
        },
        {
          "indexed": false,
          "internalType": "uint256",
          "name": "interestAccumulated",
          "type": "uint256"
        },
        {
          "indexed": false,
          "internalType": "uint256",
          "name": "borrowIndex",
          "type": "uint256"
        },
        {
          "indexed": false,
          "internalType": "uint256",
          "name": "totalBorrows",
          "type": "uint256"
        }
      ],
      "name": "AccrueInterest",
      "type": "event"
    },
    {
      "anonymous": false,
      "inputs": [
        {
          "indexed": true,
          "internalType": "address",
          "name": "owner",
          "type": "address"
        },
        {
          "indexed": true,
          "internalType": "address",
          "name": "spender",
          "type": "address"
        },
        {
          "indexed": false,
          "internalType": "uint256",
          "name": "amount",
          "type": "uint256"
        }
      ],
      "name": "Approval",
      "type": "event"
    },
    {
      "anonymous": false,
      "inputs": [
        {
          "indexed": false,
          "internalType": "address",
          "name": "borrower",
          "type": "address"
        },
        {
          "indexed": false,
          "internalType": "uint256",
          "name": "borrowAmount",
          "type": "uint256"
        },
        {
          "indexed": false,
          "internalType": "uint256",
          "name": "accountBorrows",
          "type": "uint256"
        },
        {
          "indexed": false,
          "internalType": "uint256",
          "name": "totalBorrows",
          "type": "uint256"
        }
      ],
      "name": "Borrow",
      "type": "event"
    },
    {
      "anonymous": false,
      "inputs": [
        {
          "indexed": false,
          "internalType": "uint256",
          "name": "error",
          "type": "uint256"
        },
        {
          "indexed": false,
          "internalType": "uint256",
          "name": "info",
          "type": "uint256"
        },
        {
          "indexed": false,
          "internalType": "uint256",
          "name": "detail",
          "type": "uint256"
        }
      ],
      "name": "Failure",
      "type": "event"
    },
    {
      "anonymous": false,
      "inputs": [
        {
          "indexed": false,
          "internalType": "address",
          "name": "liquidator",
          "type": "address"
        },
        {
          "indexed": false,
          "internalType": "address",
          "name": "borrower",
          "type": "address"
        },
        {
          "indexed": false,
          "internalType": "uint256",
          "name": "repayAmount",
          "type": "uint256"
        },
        {
          "indexed": false,
          "internalType": "address",
          "name": "cTokenCollateral",
          "type": "address"
        },
        {
          "indexed": false,
          "internalType": "uint256",
          "name": "seizeTokens",
          "type": "uint256"
        }
      ],
      "name": "LiquidateBorrow",
      "type": "event"
    },
    {
      "anonymous": false,
      "inputs": [
        {
          "indexed": false,
          "internalType": "address",
          "name": "minter",
          "type": "address"
        },
        {
          "indexed": false,
          "internalType": "uint256",
          "name": "mintAmount",
          "type": "uint256"
        },
        {
          "indexed": false,
          "internalType": "uint256",
          "name": "mintTokens",
          "type": "uint256"
        }
      ],
      "name": "Mint",
      "type": "event"
    },
    {
      "anonymous": false,
      "inputs": [
        {
          "indexed": false,
          "internalType": "address",
          "name": "oldAdmin",
          "type": "address"
        },
        {
          "indexed": false,
          "internalType": "address",
          "name": "newAdmin",
          "type": "address"
        }
      ],
      "name": "NewAdmin",
      "type": "event"
    },
    {
      "anonymous": false,
      "inputs": [
        {
          "indexed": false,
          "internalType": "contract ComptrollerInterface",
          "name": "oldComptroller",
          "type": "address"
        },
        {
          "indexed": false,
          "internalType": "contract ComptrollerInterface",
          "name": "newComptroller",
          "type": "address"
        }
      ],
      "name": "NewComptroller",
      "type": "event"
    },
    {
      "anonymous": false,
      "inputs": [
        {
          "indexed": false,
          "internalType": "contract InterestRateModel",
          "name": "oldInterestRateModel",
          "type": "address"
        },
        {
          "indexed": false,
          "internalType": "contract InterestRateModel",
          "name": "newInterestRateModel",
          "type": "address"
        }
      ],
      "name": "NewMarketInterestRateModel",
      "type": "event"
    },
    {
      "anonymous": false,
      "inputs": [
        {
          "indexed": false,
          "internalType": "address",
          "name": "oldPendingAdmin",
          "type": "address"
        },
        {
          "indexed": false,
          "internalType": "address",
          "name": "newPendingAdmin",
          "type": "address"
        }
      ],
      "name": "NewPendingAdmin",
      "type": "event"
    },
    {
      "anonymous": false,
      "inputs": [
        {
          "indexed": false,
          "internalType": "uint256",
          "name": "oldReserveFactorMantissa",
          "type": "uint256"
        },
        {
          "indexed": false,
          "internalType": "uint256",
          "name": "newReserveFactorMantissa",
          "type": "uint256"
        }
      ],
      "name": "NewReserveFactor",
      "type": "event"
    },
    {
      "anonymous": false,
      "inputs": [
        {
          "indexed": false,
          "internalType": "address",
          "name": "redeemer",
          "type": "address"
        },
        {
          "indexed": false,
          "internalType": "uint256",
          "name": "redeemAmount",
          "type": "uint256"
        },
        {
          "indexed": false,
          "internalType": "uint256",
          "name": "redeemTokens",
          "type": "uint256"
        }
      ],
      "name": "Redeem",
      "type": "event"
    },
    {
      "anonymous": false,
      "inputs": [
        {
          "indexed": false,
          "internalType": "address",
          "name": "payer",
          "type": "address"
        },
        {
          "indexed": false,
          "internalType": "address",
          "name": "borrower",
          "type": "address"
        },
        {
          "indexed": false,
          "internalType": "uint256",
          "name": "repayAmount",
          "type": "uint256"
        },
        {
          "indexed": false,
          "internalType": "uint256",
          "name": "accountBorrows",
          "type": "uint256"
        },
        {
          "indexed": false,
          "internalType": "uint256",
          "name": "totalBorrows",
          "type": "uint256"
        }
      ],
      "name": "RepayBorrow",
      "type": "event"
    },
    {
      "anonymous": false,
      "inputs": [
        {
          "indexed": false,
          "internalType": "address",
          "name": "benefactor",
          "type": "address"
        },
        {
          "indexed": false,
          "internalType": "uint256",
          "name": "addAmount",
          "type": "uint256"
        },
        {
          "indexed": false,
          "internalType": "uint256",
          "name": "newTotalReserves",
          "type": "uint256"
        }
      ],
      "name": "ReservesAdded",
      "type": "event"
    },
    {
      "anonymous": false,
      "inputs": [
        {
          "indexed": false,
          "internalType": "address",
          "name": "admin",
          "type": "address"
        },
        {
          "indexed": false,
          "internalType": "uint256",
          "name": "reduceAmount",
          "type": "uint256"
        },
        {
          "indexed": false,
          "internalType": "uint256",
          "name": "newTotalReserves",
          "type": "uint256"
        }
      ],
      "name": "ReservesReduced",
      "type": "event"
    },
    {
      "anonymous": false,
      "inputs": [
        {
          "indexed": true,
          "internalType": "address",
          "name": "from",
          "type": "address"
        },
        {
          "indexed": true,
          "internalType": "address",
          "name": "to",
          "type": "address"
        },
        {
          "indexed": false,
          "internalType": "uint256",
          "name": "amount",
          "type": "uint256"
        }
      ],
      "name": "Transfer",
      "type": "event"
    },
    {
      "constant": false,
      "inputs": [],
      "name": "_acceptAdmin",
      "outputs": [
        {
          "internalType": "uint256",
          "name": "",
          "type": "uint256"
        }
      ],
      "payable": false,
      "stateMutability": "nonpayable",
      "type": "function"
    },
    {
      "constant": false,
      "inputs": [
        {
          "internalType": "uint256",
          "name": "addAmount",
          "type": "uint256"
        }
      ],
      "name": "_addReserves",
      "outputs": [
        {
          "internalType": "uint256",
          "name": "",
          "type": "uint256"
        }
      ],
      "payable": false,
      "stateMutability": "nonpayable",
      "type": "function"
    },
    {
      "constant": false,
      "inputs": [
        {
          "internalType": "bytes",
          "name": "data",
          "type": "bytes"
        }
      ],
      "name": "_becomeImplementation",
      "outputs": [],
      "payable": false,
      "stateMutability": "nonpayable",
      "type": "function"
    },
    {
      "constant": false,
      "inputs": [
        {
          "internalType": "uint256",
          "name": "reduceAmount",
          "type": "uint256"
        }
      ],
      "name": "_reduceReserves",
      "outputs": [
        {
          "internalType": "uint256",
          "name": "",
          "type": "uint256"
        }
      ],
      "payable": false,
      "stateMutability": "nonpayable",
      "type": "function"
    },
    {
      "constant": false,
      "inputs": [],
      "name": "_resignImplementation",
      "outputs": [],
      "payable": false,
      "stateMutability": "nonpayable",
      "type": "function"
    },
    {
      "constant": false,
      "inputs": [
        {
          "internalType": "contract ComptrollerInterface",
          "name": "newComptroller",
          "type": "address"
        }
      ],
      "name": "_setComptroller",
      "outputs": [
        {
          "internalType": "uint256",
          "name": "",
          "type": "uint256"
        }
      ],
      "payable": false,
      "stateMutability": "nonpayable",
      "type": "function"
    },
    {
      "constant": false,
      "inputs": [
        {
          "internalType": "contract InterestRateModel",
          "name": "newInterestRateModel",
          "type": "address"
        }
      ],
      "name": "_setInterestRateModel",
      "outputs": [
        {
          "internalType": "uint256",
          "name": "",
          "type": "uint256"
        }
      ],
      "payable": false,
      "stateMutability": "nonpayable",
      "type": "function"
    },
    {
      "constant": false,
      "inputs": [
        {
          "internalType": "address payable",
          "name": "newPendingAdmin",
          "type": "address"
        }
      ],
      "name": "_setPendingAdmin",
      "outputs": [
        {
          "internalType": "uint256",
          "name": "",
          "type": "uint256"
        }
      ],
      "payable": false,
      "stateMutability": "nonpayable",
      "type": "function"
    },
    {
      "constant": false,
      "inputs": [
        {
          "internalType": "uint256",
          "name": "newReserveFactorMantissa",
          "type": "uint256"
        }
      ],
      "name": "_setReserveFactor",
      "outputs": [
        {
          "internalType": "uint256",
          "name": "",
          "type": "uint256"
        }
      ],
      "payable": false,
      "stateMutability": "nonpayable",
      "type": "function"
    },
    {
      "constant": true,
      "inputs": [],
      "name": "accrualBlockNumber",
      "outputs": [
        {
          "internalType": "uint256",
          "name": "",
          "type": "uint256"
        }
      ],
      "payable": false,
      "stateMutability": "view",
      "type": "function"
    },
    {
      "constant": false,
      "inputs": [],
      "name": "accrueInterest",
      "outputs": [
        {
          "internalType": "uint256",
          "name": "",
          "type": "uint256"
        }
      ],
      "payable": false,
      "stateMutability": "nonpayable",
      "type": "function"
    },
    {
      "constant": true,
      "inputs": [],
      "name": "admin",
      "outputs": [
        {
          "internalType": "address payable",
          "name": "",
          "type": "address"
        }
      ],
      "payable": false,
      "stateMutability": "view",
      "type": "function"
    },
    {
      "constant": true,
      "inputs": [
        {
          "internalType": "address",
          "name": "owner",
          "type": "address"
        },
        {
          "internalType": "address",
          "name": "spender",
          "type": "address"
        }
      ],
      "name": "allowance",
      "outputs": [
        {
          "internalType": "uint256",
          "name": "",
          "type": "uint256"
        }
      ],
      "payable": false,
      "stateMutability": "view",
      "type": "function"
    },
    {
      "constant": false,
      "inputs": [
        {
          "internalType": "address",
          "name": "spender",
          "type": "address"
        },
        {
          "internalType": "uint256",
          "name": "amount",
          "type": "uint256"
        }
      ],
      "name": "approve",
      "outputs": [
        {
          "internalType": "bool",
          "name": "",
          "type": "bool"
        }
      ],
      "payable": false,
      "stateMutability": "nonpayable",
      "type": "function"
    },
    {
      "constant": true,
      "inputs": [
        {
          "internalType": "address",
          "name": "owner",
          "type": "address"
        }
      ],
      "name": "balanceOf",
      "outputs": [
        {
          "internalType": "uint256",
          "name": "",
          "type": "uint256"
        }
      ],
      "payable": false,
      "stateMutability": "view",
      "type": "function"
    },
    {
      "constant": false,
      "inputs": [
        {
          "internalType": "address",
          "name": "owner",
          "type": "address"
        }
      ],
      "name": "balanceOfUnderlying",
      "outputs": [
        {
          "internalType": "uint256",
          "name": "",
          "type": "uint256"
        }
      ],
      "payable": false,
      "stateMutability": "nonpayable",
      "type": "function"
    },
    {
      "constant": false,
      "inputs": [
        {
          "internalType": "uint256",
          "name": "borrowAmount",
          "type": "uint256"
        },
        {
          "internalType": "address",
          "name": "to",
          "type": "address"
        }
      ],
      "name": "borrow",
      "outputs": [
        {
          "internalType": "uint256",
          "name": "",
          "type": "uint256"
        }
      ],
      "payable": false,
      "stateMutability": "nonpayable",
      "type": "function"
    },
    {
      "constant": false,
      "inputs": [
        {
          "internalType": "address",
          "name": "account",
          "type": "address"
        }
      ],
      "name": "borrowBalanceCurrent",
      "outputs": [
        {
          "internalType": "uint256",
          "name": "",
          "type": "uint256"
        }
      ],
      "payable": false,
      "stateMutability": "nonpayable",
      "type": "function"
    },
    {
      "constant": true,
      "inputs": [
        {
          "internalType": "address",
          "name": "account",
          "type": "address"
        }
      ],
      "name": "borrowBalanceStored",
      "outputs": [
        {
          "internalType": "uint256",
          "name": "",
          "type": "uint256"
        }
      ],
      "payable": false,
      "stateMutability": "view",
      "type": "function"
    },
    {
      "constant": true,
      "inputs": [],
      "name": "borrowIndex",
      "outputs": [
        {
          "internalType": "uint256",
          "name": "",
          "type": "uint256"
        }
      ],
      "payable": false,
      "stateMutability": "view",
      "type": "function"
    },
    {
      "constant": true,
      "inputs": [],
      "name": "borrowRatePerBlock",
      "outputs": [
        {
          "internalType": "uint256",
          "name": "",
          "type": "uint256"
        }
      ],
      "payable": false,
      "stateMutability": "view",
      "type": "function"
    },
    {
      "constant": true,
      "inputs": [],
      "name": "comptroller",
      "outputs": [
        {
          "internalType": "contract ComptrollerInterface",
          "name": "",
          "type": "address"
        }
      ],
      "payable": false,
      "stateMutability": "view",
      "type": "function"
    },
    {
      "constant": true,
      "inputs": [],
      "name": "comptrollerV2",
      "outputs": [
        {
          "internalType": "contract ComptrollerInterfaceV2",
          "name": "",
          "type": "address"
        }
      ],
      "payable": false,
      "stateMutability": "view",
      "type": "function"
    },
    {
      "constant": true,
      "inputs": [],
      "name": "decimals",
      "outputs": [
        {
          "internalType": "uint8",
          "name": "",
          "type": "uint8"
        }
      ],
      "payable": false,
      "stateMutability": "view",
      "type": "function"
    },
    {
      "constant": false,
      "inputs": [],
      "name": "exchangeRateCurrent",
      "outputs": [
        {
          "internalType": "uint256",
          "name": "",
          "type": "uint256"
        }
      ],
      "payable": false,
      "stateMutability": "nonpayable",
      "type": "function"
    },
    {
      "constant": true,
      "inputs": [],
      "name": "exchangeRateStored",
      "outputs": [
        {
          "internalType": "uint256",
          "name": "",
          "type": "uint256"
        }
      ],
      "payable": false,
      "stateMutability": "view",
      "type": "function"
    },
    {
      "constant": false,
      "inputs": [
        {
          "internalType": "uint256",
          "name": "addBorrow",
          "type": "uint256"
        }
      ],
      "name": "externalDebtAdd",
      "outputs": [
        {
          "internalType": "uint256",
          "name": "",
          "type": "uint256"
        }
      ],
      "payable": false,
      "stateMutability": "nonpayable",
      "type": "function"
    },
    {
      "constant": true,
      "inputs": [
        {
          "internalType": "address",
          "name": "account",
          "type": "address"
        }
      ],
      "name": "getAccountSnapshot",
      "outputs": [
        {
          "internalType": "uint256",
          "name": "",
          "type": "uint256"
        },
        {
          "internalType": "uint256",
          "name": "",
          "type": "uint256"
        },
        {
          "internalType": "uint256",
          "name": "",
          "type": "uint256"
        },
        {
          "internalType": "uint256",
          "name": "",
          "type": "uint256"
        }
      ],
      "payable": false,
      "stateMutability": "view",
      "type": "function"
    },
    {
      "constant": true,
      "inputs": [],
      "name": "getBorrowRate",
      "outputs": [
        {
          "internalType": "uint256",
          "name": "",
          "type": "uint256"
        }
      ],
      "payable": false,
      "stateMutability": "view",
      "type": "function"
    },
    {
      "constant": true,
      "inputs": [],
      "name": "getCash",
      "outputs": [
        {
          "internalType": "uint256",
          "name": "",
          "type": "uint256"
        }
      ],
      "payable": false,
      "stateMutability": "view",
      "type": "function"
    },
    {
      "constant": true,
      "inputs": [],
      "name": "implementation",
      "outputs": [
        {
          "internalType": "address",
          "name": "",
          "type": "address"
        }
      ],
      "payable": false,
      "stateMutability": "view",
      "type": "function"
    },
    {
      "constant": false,
      "inputs": [
        {
          "internalType": "address",
          "name": "underlying_",
          "type": "address"
        },
        {
          "internalType": "contract ComptrollerInterface",
          "name": "comptroller_",
          "type": "address"
        },
        {
          "internalType": "contract InterestRateModel",
          "name": "interestRateModel_",
          "type": "address"
        },
        {
          "internalType": "uint256",
          "name": "initialExchangeRateMantissa_",
          "type": "uint256"
        },
        {
          "internalType": "string",
          "name": "name_",
          "type": "string"
        },
        {
          "internalType": "string",
          "name": "symbol_",
          "type": "string"
        },
        {
          "internalType": "uint8",
          "name": "decimals_",
          "type": "uint8"
        }
      ],
      "name": "initialize",
      "outputs": [],
      "payable": false,
      "stateMutability": "nonpayable",
      "type": "function"
    },
    {
      "constant": false,
      "inputs": [
        {
          "internalType": "contract ComptrollerInterface",
          "name": "comptroller_",
          "type": "address"
        },
        {
          "internalType": "contract InterestRateModel",
          "name": "interestRateModel_",
          "type": "address"
        },
        {
          "internalType": "uint256",
          "name": "initialExchangeRateMantissa_",
          "type": "uint256"
        },
        {
          "internalType": "string",
          "name": "name_",
          "type": "string"
        },
        {
          "internalType": "string",
          "name": "symbol_",
          "type": "string"
        },
        {
          "internalType": "uint8",
          "name": "decimals_",
          "type": "uint8"
        }
      ],
      "name": "initialize",
      "outputs": [],
      "payable": false,
      "stateMutability": "nonpayable",
      "type": "function"
    },
    {
      "constant": true,
      "inputs": [],
      "name": "interestRateModel",
      "outputs": [
        {
          "internalType": "contract InterestRateModel",
          "name": "",
          "type": "address"
        }
      ],
      "payable": false,
      "stateMutability": "view",
      "type": "function"
    },
    {
      "constant": true,
      "inputs": [],
      "name": "isCToken",
      "outputs": [
        {
          "internalType": "bool",
          "name": "",
          "type": "bool"
        }
      ],
      "payable": false,
      "stateMutability": "view",
      "type": "function"
    },
    {
      "constant": false,
      "inputs": [
        {
          "internalType": "uint256",
          "name": "leverageAmount",
          "type": "uint256"
        }
      ],
      "name": "leverageBorrow",
      "outputs": [
        {
          "internalType": "uint256",
          "name": "",
          "type": "uint256"
        }
      ],
      "payable": false,
      "stateMutability": "nonpayable",
      "type": "function"
    },
    {
      "constant": true,
      "inputs": [],
      "name": "leverageSupply",
      "outputs": [
        {
          "internalType": "uint256",
          "name": "",
          "type": "uint256"
        }
      ],
      "payable": false,
      "stateMutability": "view",
      "type": "function"
    },
    {
      "constant": false,
      "inputs": [
        {
          "internalType": "address",
          "name": "borrower",
          "type": "address"
        },
        {
          "internalType": "uint256",
          "name": "repayAmount",
          "type": "uint256"
        },
        {
          "internalType": "contract CTokenInterface",
          "name": "cTokenCollateral",
          "type": "address"
        }
      ],
      "name": "liquidateBorrow",
      "outputs": [
        {
          "internalType": "uint256",
          "name": "",
          "type": "uint256"
        }
      ],
      "payable": false,
      "stateMutability": "nonpayable",
      "type": "function"
    },
    {
      "constant": false,
      "inputs": [
        {
          "internalType": "uint256",
          "name": "mintAmount",
          "type": "uint256"
        }
      ],
      "name": "mint",
      "outputs": [
        {
          "internalType": "uint256",
          "name": "",
          "type": "uint256"
        },
        {
          "internalType": "uint256",
          "name": "",
          "type": "uint256"
        }
      ],
      "payable": false,
      "stateMutability": "nonpayable",
      "type": "function"
    },
    {
      "constant": true,
      "inputs": [],
      "name": "name",
      "outputs": [
        {
          "internalType": "string",
          "name": "",
          "type": "string"
        }
      ],
      "payable": false,
      "stateMutability": "view",
      "type": "function"
    },
    {
      "constant": true,
      "inputs": [],
      "name": "pendingAdmin",
      "outputs": [
        {
          "internalType": "address payable",
          "name": "",
          "type": "address"
        }
      ],
      "payable": false,
      "stateMutability": "view",
      "type": "function"
    },
    {
      "constant": false,
      "inputs": [
        {
          "internalType": "uint256",
          "name": "redeemTokens",
          "type": "uint256"
        }
      ],
      "name": "redeem",
      "outputs": [
        {
          "internalType": "uint256",
          "name": "",
          "type": "uint256"
        },
        {
          "internalType": "uint256",
          "name": "",
          "type": "uint256"
        },
        {
          "internalType": "uint256",
          "name": "",
          "type": "uint256"
        }
      ],
      "payable": false,
      "stateMutability": "nonpayable",
      "type": "function"
    },
    {
      "constant": false,
      "inputs": [
        {
          "internalType": "uint256",
          "name": "redeemTokens",
          "type": "uint256"
        }
      ],
      "name": "redeemLeverage",
      "outputs": [
        {
          "internalType": "uint256",
          "name": "",
          "type": "uint256"
        },
        {
          "internalType": "uint256",
          "name": "",
          "type": "uint256"
        }
      ],
      "payable": false,
      "stateMutability": "nonpayable",
      "type": "function"
    },
    {
      "constant": false,
      "inputs": [
        {
          "internalType": "uint256",
          "name": "redeemAmount",
          "type": "uint256"
        }
      ],
      "name": "redeemUnderlying",
      "outputs": [
        {
          "internalType": "uint256",
          "name": "",
          "type": "uint256"
        },
        {
          "internalType": "uint256",
          "name": "",
          "type": "uint256"
        },
        {
          "internalType": "uint256",
          "name": "",
          "type": "uint256"
        }
      ],
      "payable": false,
      "stateMutability": "nonpayable",
      "type": "function"
    },
    {
      "constant": false,
      "inputs": [
        {
          "internalType": "uint256",
          "name": "repayAmount",
          "type": "uint256"
        }
      ],
      "name": "repayBorrow",
      "outputs": [
        {
          "internalType": "uint256",
          "name": "",
          "type": "uint256"
        }
      ],
      "payable": false,
      "stateMutability": "nonpayable",
      "type": "function"
    },
    {
      "constant": false,
      "inputs": [
        {
          "internalType": "address",
          "name": "borrower",
          "type": "address"
        },
        {
          "internalType": "uint256",
          "name": "repayAmount",
          "type": "uint256"
        }
      ],
      "name": "repayBorrowBehalf",
      "outputs": [
        {
          "internalType": "uint256",
          "name": "",
          "type": "uint256"
        }
      ],
      "payable": false,
      "stateMutability": "nonpayable",
      "type": "function"
    },
    {
      "constant": true,
      "inputs": [],
      "name": "reserveFactorMantissa",
      "outputs": [
        {
          "internalType": "uint256",
          "name": "",
          "type": "uint256"
        }
      ],
      "payable": false,
      "stateMutability": "view",
      "type": "function"
    },
    {
      "constant": false,
      "inputs": [
        {
          "internalType": "address",
          "name": "liquidator",
          "type": "address"
        },
        {
          "internalType": "address",
          "name": "borrower",
          "type": "address"
        },
        {
          "internalType": "uint256",
          "name": "seizeTokens",
          "type": "uint256"
        }
      ],
      "name": "seize",
      "outputs": [
        {
          "internalType": "uint256",
          "name": "",
          "type": "uint256"
        }
      ],
      "payable": false,
      "stateMutability": "nonpayable",
      "type": "function"
    },
    {
      "constant": true,
      "inputs": [],
      "name": "supplyRatePerBlock",
      "outputs": [
        {
          "internalType": "uint256",
          "name": "",
          "type": "uint256"
        }
      ],
      "payable": false,
      "stateMutability": "view",
      "type": "function"
    },
    {
      "constant": true,
      "inputs": [],
      "name": "symbol",
      "outputs": [
        {
          "internalType": "string",
          "name": "",
          "type": "string"
        }
      ],
      "payable": false,
      "stateMutability": "view",
      "type": "function"
    },
    {
      "constant": true,
      "inputs": [],
      "name": "totalBorrows",
      "outputs": [
        {
          "internalType": "uint256",
          "name": "",
          "type": "uint256"
        }
      ],
      "payable": false,
      "stateMutability": "view",
      "type": "function"
    },
    {
      "constant": false,
      "inputs": [],
      "name": "totalBorrowsCurrent",
      "outputs": [
        {
          "internalType": "uint256",
          "name": "",
          "type": "uint256"
        }
      ],
      "payable": false,
      "stateMutability": "nonpayable",
      "type": "function"
    },
    {
      "constant": true,
      "inputs": [],
      "name": "totalReserves",
      "outputs": [
        {
          "internalType": "uint256",
          "name": "",
          "type": "uint256"
        }
      ],
      "payable": false,
      "stateMutability": "view",
      "type": "function"
    },
    {
      "constant": true,
      "inputs": [],
      "name": "totalSupply",
      "outputs": [
        {
          "internalType": "uint256",
          "name": "",
          "type": "uint256"
        }
      ],
      "payable": false,
      "stateMutability": "view",
      "type": "function"
    },
    {
      "constant": false,
      "inputs": [
        {
          "internalType": "address",
          "name": "dst",
          "type": "address"
        },
        {
          "internalType": "uint256",
          "name": "amount",
          "type": "uint256"
        }
      ],
      "name": "transfer",
      "outputs": [
        {
          "internalType": "bool",
          "name": "",
          "type": "bool"
        }
      ],
      "payable": false,
      "stateMutability": "nonpayable",
      "type": "function"
    },
    {
      "constant": false,
      "inputs": [
        {
          "internalType": "address",
          "name": "src",
          "type": "address"
        },
        {
          "internalType": "address",
          "name": "dst",
          "type": "address"
        },
        {
          "internalType": "uint256",
          "name": "amount",
          "type": "uint256"
        }
      ],
      "name": "transferFrom",
      "outputs": [
        {
          "internalType": "bool",
          "name": "",
          "type": "bool"
        }
      ],
      "payable": false,
      "stateMutability": "nonpayable",
      "type": "function"
    },
    {
      "constant": true,
      "inputs": [],
      "name": "underlying",
      "outputs": [
        {
          "internalType": "address",
          "name": "",
          "type": "address"
        }
      ],
      "payable": false,
      "stateMutability": "view",
      "type": "function"
    }
  ],
  "bytecode": "0x608060405234801561001057600080fd5b50615d8c80620000216000396000f3fe608060405234801561001057600080fd5b50600436106103835760003560e01c806373acee98116101de578063b71d1a0c1161010f578063ea5b375e116100ad578063f851a4401161007c578063f851a44014610c79578063f8f9da2814610c81578063fca7820b14610c89578063fe9c44ae14610ca657610383565b8063ea5b375e14610bf8578063f2b3abbd14610c15578063f3fdb15a14610c3b578063f5e3c46214610c4357610383565b8063c37f68e2116100e9578063c37f68e214610b59578063db006a7514610ba5578063dd62ed3e14610bc2578063e9c714f214610bf057610383565b8063b71d1a0c14610b23578063ba1c5e8014610b49578063bd6d894d14610b5157610383565b8063a0712d681161017c578063aa5af0fd11610156578063aa5af0fd14610ad5578063ab317fd914610add578063ae9d70b014610ae5578063b2a02ff114610aed57610383565b8063a0712d6814610a84578063a6afed9514610aa1578063a9059cbb14610aa957610383565b80638f840ddd116101b85780638f840ddd1461090057806395d89b411461090857806395dd91931461091057806399d8c1b41461093657610383565b806373acee9814610887578063822df1b41461088f578063852a12e3146108c557610383565b806338f8fc4f116102b857806356e6772811610256578063601a0bf111610230578063601a0bf1146108345780636c540baf146108515780636f307dc31461085957806370a082311461086157610383565b806356e67728146107805780635c60da1b146108245780635fe3b5671461082c57610383565b80633e941010116102925780633e941010146107095780634576b5db1461072657806347bd37181461074c5780634b3fd1481461075457610383565b806338f8fc4f146106be5780633af9e669146106db5780633b1d21a21461070157610383565b806318160ddd1161032557806323b872dd116102ff57806323b872dd146106365780632608f8181461066c5780632678224714610698578063313ce567146106a057610383565b806318160ddd146104d0578063182df0f5146104d85780631a31d465146104e057610383565b8063106d378611610361578063106d378614610474578063153ab50514610498578063173b9904146104a257806317bfdfbc146104aa57610383565b806306fdde0314610388578063095ea7b3146104055780630e75270214610445575b600080fd5b610390610cae565b6040805160208082528351818301528351919283929083019185019080838360005b838110156103ca5781810151838201526020016103b2565b50505050905090810190601f1680156103f75780820380516001836020036101000a031916815260200191505b509250505060405180910390f35b6104316004803603604081101561041b57600080fd5b506001600160a01b038135169060200135610d3b565b604080519115158252519081900360200190f35b6104626004803603602081101561045b57600080fd5b5035610da6565b60408051918252519081900360200190f35b61047c610dbc565b604080516001600160a01b039092168252519081900360200190f35b6104a0610dcb565b005b610462610e1b565b610462600480360360208110156104c057600080fd5b50356001600160a01b0316610e21565b610462610ee1565b610462610ee7565b6104a0600480360360e08110156104f657600080fd5b6001600160a01b03823581169260208101358216926040820135909216916060820135919081019060a081016080820135600160201b81111561053857600080fd5b82018360208201111561054a57600080fd5b803590602001918460018302840111600160201b8311171561056b57600080fd5b91908080601f0160208091040260200160405190810160405280939291908181526020018383808284376000920191909152509295949360208101935035915050600160201b8111156105bd57600080fd5b8201836020820111156105cf57600080fd5b803590602001918460018302840111600160201b831117156105f057600080fd5b91908080601f0160208091040260200160405190810160405280939291908181526020018383808284376000920191909152509295505050903560ff169150610f4a9050565b6104316004803603606081101561064c57600080fd5b506001600160a01b03813581169160208101359091169060400135610fe9565b6104626004803603604081101561068257600080fd5b506001600160a01b038135169060200135611124565b61047c61113a565b6106a8611149565b6040805160ff9092168252519081900360200190f35b610462600480360360208110156106d457600080fd5b5035611152565b610462600480360360208110156106f157600080fd5b50356001600160a01b031661120d565b6104626112c3565b6104626004803603602081101561071f57600080fd5b50356112d2565b6104626004803603602081101561073c57600080fd5b50356001600160a01b03166112e3565b610462611446565b6104626004803603604081101561076a57600080fd5b50803590602001356001600160a01b031661144c565b6104a06004803603602081101561079657600080fd5b810190602081018135600160201b8111156107b057600080fd5b8201836020820111156107c257600080fd5b803590602001918460018302840111600160201b831117156107e357600080fd5b91908080601f016020809104026020016040519081016040528093929190818152602001838380828437600092019190915250929550611458945050505050565b61047c6114a9565b61047c6114b8565b6104626004803603602081101561084a57600080fd5b50356114c7565b610462611562565b61047c611568565b6104626004803603602081101561087757600080fd5b50356001600160a01b0316611577565b610462611592565b6108ac600480360360208110156108a557600080fd5b5035611648565b6040805192835260208301919091528051918290030190f35b6108e2600480360360208110156108db57600080fd5b503561165e565b60408051938452602084019290925282820152519081900360600190f35b610462611679565b61039061167f565b6104626004803603602081101561092657600080fd5b50356001600160a01b03166116d7565b6104a0600480360360c081101561094c57600080fd5b6001600160a01b03823581169260208101359091169160408201359190810190608081016060820135600160201b81111561098657600080fd5b82018360208201111561099857600080fd5b803590602001918460018302840111600160201b831117156109b957600080fd5b91908080601f0160208091040260200160405190810160405280939291908181526020018383808284376000920191909152509295949360208101935035915050600160201b811115610a0b57600080fd5b820183602082011115610a1d57600080fd5b803590602001918460018302840111600160201b83111715610a3e57600080fd5b91908080601f0160208091040260200160405190810160405280939291908181526020018383808284376000920191909152509295505050903560ff1691506117349050565b6108ac60048036036020811015610a9a57600080fd5b503561191b565b610462611938565b61043160048036036040811015610abf57600080fd5b506001600160a01b038135169060200135611c8b565b610462611dbd565b610462611dc3565b610462611dc9565b61046260048036036060811015610b0357600080fd5b506001600160a01b03813581169160208101359091169060400135611e68565b61046260048036036020811015610b3957600080fd5b50356001600160a01b0316611ed9565b610462611f65565b61046261206b565b610b7f60048036036020811015610b6f57600080fd5b50356001600160a01b0316612127565b604080519485526020850193909352838301919091526060830152519081900360800190f35b6108e260048036036020811015610bbb57600080fd5b50356121bc565b61046260048036036040811015610bd857600080fd5b506001600160a01b03813581169160200135166121ca565b6104626121f5565b61046260048036036020811015610c0e57600080fd5b50356122f8565b61046260048036036020811015610c2b57600080fd5b50356001600160a01b031661230d565b61047c61233f565b61046260048036036060811015610c5957600080fd5b506001600160a01b0381358116916020810135916040909101351661234e565b61047c612366565b61046261237a565b61046260048036036020811015610c9f57600080fd5b50356123de565b61043161245c565b60018054604080516020600284861615610100026000190190941693909304601f81018490048402820184019092528181529291830182828015610d335780601f10610d0857610100808354040283529160200191610d33565b820191906000526020600020905b815481529060010190602001808311610d1657829003601f168201915b505050505081565b3360008181526011602090815260408083206001600160a01b03871680855290835281842086905581518681529151939493909284927f8c5be1e5ebec7d5bd14f71427d1e84f3dd0314c0f7b2291e5b200ac8c7c3b925929081900390910190a35060019392505050565b600080610db283612461565b509150505b919050565b6006546001600160a01b031681565b60035461010090046001600160a01b03163314610e195760405162461bcd60e51b815260040180806020018281038252602d815260200180615b29602d913960400191505060405180910390fd5b565b60095481565b6000805460ff16610e66576040805162461bcd60e51b815260206004820152600a6024820152691c994b595b9d195c995960b21b604482015290519081900360640190fd5b6000805460ff19168155610e78611938565b14610ec3576040805162461bcd60e51b81526020600482015260166024820152751858d8dc9d59481a5b9d195c995cdd0819985a5b195960521b604482015290519081900360640190fd5b610ecc826116d7565b90505b6000805460ff19166001179055919050565b600e5481565b6000806000610ef461250a565b90925090506000826003811115610f0757fe5b14610f435760405162461bcd60e51b8152600401808060200182810382526035815260200180615c766035913960400191505060405180910390fd5b9150505b90565b610f58868686868686611734565b601380546001600160a01b0319166001600160a01b038981169190911791829055604080516318160ddd60e01b8152905192909116916318160ddd91600480820192602092909190829003018186803b158015610fb457600080fd5b505afa158015610fc8573d6000803e3d6000fd5b505050506040513d6020811015610fde57600080fd5b505050505050505050565b6000805460ff1661102e576040805162461bcd60e51b815260206004820152600a6024820152691c994b595b9d195c995960b21b604482015290519081900360640190fd5b6000805460ff1916815560065460408051637df0f76760e01b815230600482015290516001600160a01b0390921691637df0f76791602480820192602092909190829003018186803b15801561108357600080fd5b505afa158015611097573d6000803e3d6000fd5b505050506040513d60208110156110ad57600080fd5b5051905080156110fe576001600160a01b03841630146110fe5760405162461bcd60e51b815260040180806020018281038252602c815260200180615aab602c913960400191505060405180910390fd5b600061110c338787876125b9565b149150506000805460ff191660011790559392505050565b60008061113184846128c7565b50949350505050565b6004546001600160a01b031681565b60035460ff1681565b6000331561115f57600080fd5b6000611169611938565b9050801561118f5761118781601081111561118057fe5b6008612972565b915050610db7565b6111976158c7565b6111a3600c54856129d8565b60408301819052828260038111156111b757fe5b60038111156111c257fe5b90525060009050815160038111156111d657fe5b14611200576111f76009600b836000015160038111156111f257fe5b612a01565b92505050610db7565b60400151600c5550919050565b60006112176158e9565b604051806020016040528061122a61206b565b90526001600160a01b038416600090815260106020526040812054919250908190611256908490612a67565b9092509050600082600381111561126957fe5b146112bb576040805162461bcd60e51b815260206004820152601f60248201527f62616c616e636520636f756c64206e6f742062652063616c63756c6174656400604482015290519081900360640190fd5b949350505050565b60006112cd612aba565b905090565b60006112dd82612b3a565b92915050565b60035460009061010090046001600160a01b03163314611310576113096001603f612972565b9050610db7565b60055460408051623f1ee960e11b815290516001600160a01b0392831692851691627e3dd2916004808301926020929190829003018186803b15801561135557600080fd5b505afa158015611369573d6000803e3d6000fd5b505050506040513d602081101561137f57600080fd5b50516113d2576040805162461bcd60e51b815260206004820152601c60248201527f6d61726b6572206d6574686f642072657475726e65642066616c736500000000604482015290519081900360640190fd5b600580546001600160a01b038086166001600160a01b03199283168117909355600680549092168317909155604080519184168252602082019290925281517f7ac369dbd14fa5ea3f473ed67cc9d598964a77501540ba6751eb0b3decf5870d929181900390910190a160005b9392505050565b600c5481565b600061143f8383612bce565b60035461010090046001600160a01b031633146114a65760405162461bcd60e51b815260040180806020018281038252602d815260200180615d2b602d913960400191505060405180910390fd5b50565b6014546001600160a01b031681565b6005546001600160a01b031681565b6000805460ff1661150c576040805162461bcd60e51b815260206004820152600a6024820152691c994b595b9d195c995960b21b604482015290519081900360640190fd5b6000805460ff1916815561151e611938565b905080156115445761153c81601081111561153557fe5b6030612972565b915050610ecf565b61154d83612c67565b9150506000805460ff19166001179055919050565b600a5481565b6013546001600160a01b031681565b6001600160a01b031660009081526010602052604090205490565b6000805460ff166115d7576040805162461bcd60e51b815260206004820152600a6024820152691c994b595b9d195c995960b21b604482015290519081900360640190fd5b6000805460ff191681556115e9611938565b14611634576040805162461bcd60e51b81526020600482015260166024820152751858d8dc9d59481a5b9d195c995cdd0819985a5b195960521b604482015290519081900360640190fd5b50600c546000805460ff1916600117905590565b60008061165483612d9a565b915091505b915091565b600080600061166c84612e0d565b9250925092509193909250565b600d5481565b6002805460408051602060018416156101000260001901909316849004601f81018490048402820184019092528181529291830182828015610d335780601f10610d0857610100808354040283529160200191610d33565b60008060006116e584612ebe565b909250905060008260038111156116f857fe5b1461143f5760405162461bcd60e51b8152600401808060200182810382526037815260200180615b816037913960400191505060405180910390fd5b60035461010090046001600160a01b031633146117825760405162461bcd60e51b8152600401808060200182810382526024815260200180615a646024913960400191505060405180910390fd5b600a541580156117925750600b54155b6117cd5760405162461bcd60e51b8152600401808060200182810382526023815260200180615a886023913960400191505060405180910390fd5b60088490558361180e5760405162461bcd60e51b8152600401808060200182810382526030815260200180615ad76030913960400191505060405180910390fd5b6000611819876112e3565b9050801561186e576040805162461bcd60e51b815260206004820152601a60248201527f73657474696e6720636f6d7074726f6c6c6572206661696c6564000000000000604482015290519081900360640190fd5b611876612f71565b600a55670de0b6b3a7640000600b5561188e86612f75565b905080156118cd5760405162461bcd60e51b8152600401808060200182810382526022815260200180615b076022913960400191505060405180910390fd5b83516118e09060019060208701906158fc565b5082516118f49060029060208601906158fc565b50506003805460ff90921660ff199283161790556000805490911660011790555050505050565b60008060008061192a856130ea565b919550909350505050915091565b600080611943612f71565b600a549091508082141561195c57600092505050610f47565b6000611966612aba565b600c54600d54600b54600754604080516315f2405360e01b815260048101879052602481018690526044810185905290519596509394929391926000926001600160a01b03909216916315f24053916064808301926020929190829003018186803b1580156119d457600080fd5b505afa1580156119e8573d6000803e3d6000fd5b505050506040513d60208110156119fe57600080fd5b5051905065048c27395000811115611a5d576040805162461bcd60e51b815260206004820152601c60248201527f626f72726f772072617465206973206162737572646c79206869676800000000604482015290519081900360640190fd5b600080611a6a898961316d565b90925090506000826003811115611a7d57fe5b14611acf576040805162461bcd60e51b815260206004820152601f60248201527f636f756c64206e6f742063616c63756c61746520626c6f636b2064656c746100604482015290519081900360640190fd5b611ad76158e9565b600080600080611af560405180602001604052808a81525087613190565b90975094506000876003811115611b0857fe5b14611b3557611b20600960068960038111156111f257fe5b9e505050505050505050505050505050610f47565b611b3f858c612a67565b90975093506000876003811115611b5257fe5b14611b6a57611b20600960018960038111156111f257fe5b611b74848c6129d8565b90975092506000876003811115611b8757fe5b14611b9f57611b20600960048960038111156111f257fe5b611bba6040518060200160405280600954815250858c6131f8565b90975091506000876003811115611bcd57fe5b14611be557611b20600960058960038111156111f257fe5b611bf0858a8b6131f8565b90975090506000876003811115611c0357fe5b14611c1b57611b20600960038960038111156111f257fe5b600a8e9055600b819055600c839055600d829055604080518d8152602081018690528082018390526060810185905290517f4dec04e750ca11537cabcd8a9eab06494de08da3735bc8871cd41250e190bc049181900360800190a160009e50505050505050505050505050505090565b6000805460ff16611cd0576040805162461bcd60e51b815260206004820152600a6024820152691c994b595b9d195c995960b21b604482015290519081900360640190fd5b6000805460ff1916815560065460408051637df0f76760e01b815230600482015290516001600160a01b0390921691637df0f76791602480820192602092909190829003018186803b158015611d2557600080fd5b505afa158015611d39573d6000803e3d6000fd5b505050506040513d6020811015611d4f57600080fd5b505190508015611d9757333014611d975760405162461bcd60e51b815260040180806020018281038252602c815260200180615aab602c913960400191505060405180910390fd5b6000611da5333387876125b9565b149150505b6000805460ff1916600117905592915050565b600b5481565b600f5481565b6007546000906001600160a01b031663b8168816611de5612aba565b600c54600d546009546040518563ffffffff1660e01b81526004018085815260200184815260200183815260200182815260200194505050505060206040518083038186803b158015611e3757600080fd5b505afa158015611e4b573d6000803e3d6000fd5b505050506040513d6020811015611e6157600080fd5b5051905090565b6000805460ff16611ead576040805162461bcd60e51b815260206004820152600a6024820152691c994b595b9d195c995960b21b604482015290519081900360640190fd5b6000805460ff19169055611ec333858585613254565b90506000805460ff191660011790559392505050565b60035460009061010090046001600160a01b03163314611eff5761130960016045612972565b600480546001600160a01b038481166001600160a01b0319831681179093556040805191909216808252602082019390935281517fca4f2f25d0898edd99413412fb94012f9e54ec8142f9b093e7720646a95b16a9929181900390910190a1600061143f565b600080611f70612aba565b600c54600d54600754604080516315f2405360e01b81526004810186905260248101859052604481018490529051949550929391926000926001600160a01b03909216916315f2405391606480820192602092909190829003018186803b158015611fda57600080fd5b505afa158015611fee573d6000803e3d6000fd5b505050506040513d602081101561200457600080fd5b5051905065048c27395000811115612063576040805162461bcd60e51b815260206004820152601c60248201527f626f72726f772072617465206973206162737572646c79206869676800000000604482015290519081900360640190fd5b935050505090565b6000805460ff166120b0576040805162461bcd60e51b815260206004820152600a6024820152691c994b595b9d195c995960b21b604482015290519081900360640190fd5b6000805460ff191681556120c2611938565b1461210d576040805162461bcd60e51b81526020600482015260166024820152751858d8dc9d59481a5b9d195c995cdd0819985a5b195960521b604482015290519081900360640190fd5b612115610ee7565b90506000805460ff1916600117905590565b6001600160a01b03811660009081526010602052604081205481908190819081808061215289612ebe565b93509050600081600381111561216457fe5b146121825760095b9750600096508695508594506121b59350505050565b61218a61250a565b92509050600081600381111561219c57fe5b146121a857600961216c565b5060009650919450925090505b9193509193565b600080600061166c846134ba565b6001600160a01b03918216600090815260116020908152604080832093909416825291909152205490565b6004546000906001600160a01b031633141580612210575033155b156122285761222160016000612972565b9050610f47565b60038054600480546001600160a01b03818116610100818102610100600160a81b0319871617968790556001600160a01b031990931690935560408051948390048216808652929095041660208401528351909391927ff9ffabca9c8276e99321725bcb43fb076a6c66a54b7f21c4e8146d8519b417dc92908290030190a1600454604080516001600160a01b038085168252909216602083015280517fca4f2f25d0898edd99413412fb94012f9e54ec8142f9b093e7720646a95b16a99281900390910190a160009250505090565b60008061230483613538565b95945050505050565b600080612318611938565b905080156123365761118781601081111561232f57fe5b6040612972565b61143f83612f75565b6007546001600160a01b031681565b60008061235c8585856135b4565b5095945050505050565b60035461010090046001600160a01b031681565b6007546000906001600160a01b03166315f24053612396612aba565b600c54600d546040518463ffffffff1660e01b815260040180848152602001838152602001828152602001935050505060206040518083038186803b158015611e3757600080fd5b6000805460ff16612423576040805162461bcd60e51b815260206004820152600a6024820152691c994b595b9d195c995960b21b604482015290519081900360640190fd5b6000805460ff19168155612435611938565b905080156124535761153c81601081111561244c57fe5b6046612972565b61154d836136e6565b600181565b60008054819060ff166124a8576040805162461bcd60e51b815260206004820152600a6024820152691c994b595b9d195c995960b21b604482015290519081900360640190fd5b6000805460ff191681556124ba611938565b905080156124e5576124d88160108111156124d157fe5b6036612972565b9250600091506124f69050565b6124f033338661378e565b92509250505b6000805460ff191660011790559092909150565b600e54600090819080612525575050600854600091506125b5565b600061252f612aba565b9050600061253b6158e9565b600061254c84600c54600d54613b73565b93509050600081600381111561255e57fe5b14612573579550600094506125b59350505050565b61257d8386613bb1565b92509050600081600381111561258f57fe5b146125a4579550600094506125b59350505050565b50516000955093506125b592505050565b9091565b600554604080516317b9b84b60e31b81523060048201526001600160a01b03868116602483015285811660448301526064820185905291516000938493169163bdcdc25891608480830192602092919082900301818787803b15801561261e57600080fd5b505af1158015612632573d6000803e3d6000fd5b505050506040513d602081101561264857600080fd5b5051905080156126675761265f6003604a83612a01565b9150506112bb565b836001600160a01b0316856001600160a01b0316141561268d5761265f6002604b612972565b60006001600160a01b0387811690871614156126ac57506000196126d4565b506001600160a01b038086166000908152601160209081526040808320938a16835292905220545b6000806000806126e4858961316d565b909450925060008460038111156126f757fe5b14612715576127086009604b612972565b96505050505050506112bb565b6001600160a01b038a16600090815260106020526040902054612738908961316d565b9094509150600084600381111561274b57fe5b1461275c576127086009604c612972565b6001600160a01b03891660009081526010602052604090205461277f90896129d8565b9094509050600084600381111561279257fe5b146127a3576127086009604d612972565b6001600160a01b03808b16600090815260106020526040808220859055918b1681522081905560001985146127fb576001600160a01b03808b166000908152601160209081526040808320938f168352929052208390555b886001600160a01b03168a6001600160a01b0316600080516020615bf28339815191528a6040518082815260200191505060405180910390a36005546040805163352b4a3f60e11b81523060048201526001600160a01b038d811660248301528c81166044830152606482018c905291519190921691636a56947e91608480830192600092919082900301818387803b15801561289757600080fd5b505af11580156128ab573d6000803e3d6000fd5b50600092506128b8915050565b9b9a5050505050505050505050565b60008054819060ff1661290e576040805162461bcd60e51b815260206004820152600a6024820152691c994b595b9d195c995960b21b604482015290519081900360640190fd5b6000805460ff19168155612920611938565b9050801561294b5761293e81601081111561293757fe5b6035612972565b92506000915061295c9050565b61295633868661378e565b92509250505b6000805460ff1916600117905590939092509050565b60007f45b96fe442630264581b197e84bbada861235052c5a1aadfff9ea4e40a969aa08360108111156129a157fe5b8360508111156129ad57fe5b604080519283526020830191909152600082820152519081900360600190a182601081111561143f57fe5b6000808383018481106129f0576000925090506129fa565b5060029150600090505b9250929050565b60007f45b96fe442630264581b197e84bbada861235052c5a1aadfff9ea4e40a969aa0846010811115612a3057fe5b846050811115612a3c57fe5b604080519283526020830191909152818101859052519081900360600190a18360108111156112bb57fe5b6000806000612a746158e9565b612a7e8686613190565b90925090506000826003811115612a9157fe5b14612aa257509150600090506129fa565b6000612aad82613c61565b9350935050509250929050565b601354604080516370a0823160e01b815230600482015290516000926001600160a01b03169182916370a0823191602480820192602092909190829003018186803b158015612b0857600080fd5b505afa158015612b1c573d6000803e3d6000fd5b505050506040513d6020811015612b3257600080fd5b505191505090565b6000805460ff16612b7f576040805162461bcd60e51b815260206004820152600a6024820152691c994b595b9d195c995960b21b604482015290519081900360640190fd5b6000805460ff19168155612b91611938565b90508015612baf5761153c816010811115612ba857fe5b604e612972565b612bb883613c70565b509150506000805460ff19166001179055919050565b6000805460ff16612c13576040805162461bcd60e51b815260206004820152600a6024820152691c994b595b9d195c995960b21b604482015290519081900360640190fd5b6000805460ff19168155612c25611938565b90508015612c4457612c3c81601081111561118057fe5b915050611daa565b82612c50338683613d58565b925050506000805460ff1916600117905592915050565b600354600090819061010090046001600160a01b03163314612c8f5761118760016031612972565b612c97612f71565b600a5414612cab57611187600a6033612972565b82612cb4612aba565b1015612cc657611187600e6032612972565b600d54831115612cdc5761118760026034612972565b50600d5482810390811115612d225760405162461bcd60e51b8152600401808060200182810382526024815260200180615d076024913960400191505060405180910390fd5b600d819055600354612d429061010090046001600160a01b03168461407c565b600354604080516101009092046001600160a01b0316825260208201859052818101839052517f3bad0c59cf2f06e7314077049f48a93578cd16f5ef92329f1dab1420a99c177e916060908290030190a1600061143f565b60008054819060ff16612de1576040805162461bcd60e51b815260206004820152600a6024820152691c994b595b9d195c995960b21b604482015290519081900360640190fd5b6000805460ff19169055612df53384614173565b915091506000805460ff191660011790559092909150565b600080548190819060ff16612e56576040805162461bcd60e51b815260206004820152600a6024820152691c994b595b9d195c995960b21b604482015290519081900360640190fd5b6000805460ff19168155612e68611938565b90508015612e9657612e86816010811115612e7f57fe5b6027612972565b935060009250829150612eaa9050565b612ea2336000876142fb565b935093509350505b6000805460ff191660011790559193909250565b6001600160a01b038116600090815260126020526040812080548291829182918291612ef557506000945084935061165992505050565b612f058160000154600b5461486a565b90945092506000846003811115612f1857fe5b14612f2d575091935060009250611659915050565b612f3b8382600101546148a9565b90945091506000846003811115612f4e57fe5b14612f63575091935060009250611659915050565b506000945092505050915091565b4390565b600354600090819061010090046001600160a01b03163314612f9d5761118760016042612972565b612fa5612f71565b600a5414612fb957611187600a6041612972565b600760009054906101000a90046001600160a01b03169050826001600160a01b0316632191f92a6040518163ffffffff1660e01b815260040160206040518083038186803b15801561300a57600080fd5b505afa15801561301e573d6000803e3d6000fd5b505050506040513d602081101561303457600080fd5b5051613087576040805162461bcd60e51b815260206004820152601c60248201527f6d61726b6572206d6574686f642072657475726e65642066616c736500000000604482015290519081900360640190fd5b600780546001600160a01b0319166001600160a01b03858116918217909255604080519284168352602083019190915280517fedffc32e068c7c95dfd4bdfd5c4d939a084d6b11c4199eac8436ed234d72f9269281900390910190a1600061143f565b600080548190819060ff16613133576040805162461bcd60e51b815260206004820152600a6024820152691c994b595b9d195c995960b21b604482015290519081900360640190fd5b6000805460ff19168155613145611938565b9050801561316357612e8681601081111561315c57fe5b601e612972565b612ea233866148d4565b6000808383116131845750600090508183036129fa565b506003905060006129fa565b600061319a6158e9565b6000806131ab86600001518661486a565b909250905060008260038111156131be57fe5b146131dd575060408051602081019091526000815290925090506129fa565b60408051602081019091529081526000969095509350505050565b60008060006132056158e9565b61320f8787613190565b9092509050600082600381111561322257fe5b14613233575091506000905061324c565b61324561323f82613c61565b866129d8565b9350935050505b935093915050565b6005546040805163d02f735160e01b81523060048201526001600160a01b038781166024830152868116604483015285811660648301526084820185905291516000938493169163d02f73519160a480830192602092919082900301818787803b1580156132c157600080fd5b505af11580156132d5573d6000803e3d6000fd5b505050506040513d60208110156132eb57600080fd5b5051905080156133025761265f6003601b83612a01565b846001600160a01b0316846001600160a01b031614156133285761265f6006601c612972565b6001600160a01b0384166000908152601060205260408120548190819061334f908761316d565b9093509150600083600381111561336257fe5b146133855761337a6009601a8560038111156111f257fe5b9450505050506112bb565b6001600160a01b0388166000908152601060205260409020546133a890876129d8565b909350905060008360038111156133bb57fe5b146133d35761337a600960198560038111156111f257fe5b6001600160a01b038088166000818152601060209081526040808320879055938c168083529184902085905583518a815293519193600080516020615bf2833981519152929081900390910190a360055460408051636d35bf9160e01b81523060048201526001600160a01b038c811660248301528b811660448301528a81166064830152608482018a905291519190921691636d35bf919160a480830192600092919082900301818387803b15801561348c57600080fd5b505af11580156134a0573d6000803e3d6000fd5b50600092506134ad915050565b9998505050505050505050565b600080548190819060ff16613503576040805162461bcd60e51b815260206004820152600a6024820152691c994b595b9d195c995960b21b604482015290519081900360640190fd5b6000805460ff19168155613515611938565b9050801561352c57612e86816010811115612e7f57fe5b612ea2338660006142fb565b600080548190819060ff16613581576040805162461bcd60e51b815260206004820152600a6024820152691c994b595b9d195c995960b21b604482015290519081900360640190fd5b6000805460ff19168155613593611938565b905080156135aa57612e8681601081111561315c57fe5b612ea23386614dc6565b60008054819060ff166135fb576040805162461bcd60e51b815260206004820152600a6024820152691c994b595b9d195c995960b21b604482015290519081900360640190fd5b6000805460ff1916815561360d611938565b905080156136385761362b81601081111561362457fe5b600f612972565b9250600091506136cf9050565b836001600160a01b031663a6afed956040518163ffffffff1660e01b8152600401602060405180830381600087803b15801561367357600080fd5b505af1158015613687573d6000803e3d6000fd5b505050506040513d602081101561369d57600080fd5b5051905080156136bd5761362b8160108111156136b657fe5b6010612972565b6136c933878787615089565b92509250505b6000805460ff191660011790559094909350915050565b60035460009061010090046001600160a01b0316331461370c5761130960016047612972565b613714612f71565b600a541461372857611309600a6048612972565b670de0b6b3a76400008211156137445761130960026049612972565b6009805490839055604080518281526020810185905281517faaa68312e2ea9d50e16af5068410ab56e1a1fd06037b1a35664812c30f821460929181900390910190a1600061143f565b60055460408051631200453160e11b81523060048201526001600160a01b0386811660248301528581166044830152606482018590529151600093849384939116916324008a629160848082019260209290919082900301818787803b1580156137f757600080fd5b505af115801561380b573d6000803e3d6000fd5b505050506040513d602081101561382157600080fd5b505190508015613845576138386003603883612a01565b92506000915061324c9050565b61384d612f71565b600a541461386157613838600a6039612972565b61386961597a565b6001600160a01b038616600090815260126020526040902060010154606082015261389386612ebe565b60808301819052602083018260038111156138aa57fe5b60038111156138b557fe5b90525060009050816020015160038111156138cc57fe5b146138f6576138e860096037836020015160038111156111f257fe5b93506000925061324c915050565b60001985141561390f5760808101516040820152613917565b604081018590525b61392587826040015161560c565b60e08201819052608082015161393a9161316d565b60a083018190526020830182600381111561395157fe5b600381111561395c57fe5b905250600090508160200151600381111561397357fe5b146139af5760405162461bcd60e51b815260040180806020018281038252603a815260200180615bb8603a913960400191505060405180910390fd5b6139bf600c548260e0015161316d565b60c08301819052602083018260038111156139d657fe5b60038111156139e157fe5b90525060009050816020015160038111156139f857fe5b14613a345760405162461bcd60e51b8152600401808060200182810382526031815260200180615c126031913960400191505060405180910390fd5b60a080820180516001600160a01b03808a16600081815260126020908152604091829020948555600b5460019095019490945560c0870151600c81905560e088015195518251948f16855294840192909252828101949094526060820192909252608081019190915290517f1a2a22cb034d26d1854bdc6666a5b91fe25efbbb5dcad3b0355478d6f5c362a1929181900390910190a160055460e0820151606083015160408051631ededc9160e01b81523060048201526001600160a01b038c811660248301528b8116604483015260648201949094526084810192909252519190921691631ededc919160a480830192600092919082900301818387803b158015613b3f57600080fd5b505af1158015613b53573d6000803e3d6000fd5b5060009250613b60915050565b8160e00151935093505050935093915050565b600080600080613b8387876129d8565b90925090506000826003811115613b9657fe5b14613ba7575091506000905061324c565b613245818661316d565b6000613bbb6158e9565b600080613bd086670de0b6b3a764000061486a565b90925090506000826003811115613be357fe5b14613c02575060408051602081019091526000815290925090506129fa565b600080613c0f83886148a9565b90925090506000826003811115613c2257fe5b14613c44575060408051602081019091526000815290945092506129fa915050565b604080516020810190915290815260009890975095505050505050565b51670de0b6b3a7640000900490565b600080600080613c7e612f71565b600a5414613c9d57613c92600a604f612972565b935091506116599050565b613ca7338661560c565b905080600d54019150600d54821015613d07576040805162461bcd60e51b815260206004820181905260248201527f61646420726573657276657320756e6578706563746564206f766572666c6f77604482015290519081900360640190fd5b600d829055604080513381526020810183905280820184905290517fa91e67c5ea634cd43a12c5a482724b03de01e85ca68702a53d0c2f45cb7c1dc59181900360600190a160009350915050915091565b6005546040805163368f515360e21b81523060048201526001600160a01b0386811660248301526044820186905291516000938493169163da3d454c91606480830192602092919082900301818787803b158015613db557600080fd5b505af1158015613dc9573d6000803e3d6000fd5b505050506040513d6020811015613ddf57600080fd5b505190508015613dfe57613df66003600e83612a01565b91505061143f565b613e06612f71565b600a5414613e1957613df6600a80612972565b83613e22612aba565b1015613e3457613df6600e6009612972565b613e3c6159c0565b613e4586612ebe565b6040830181905282826003811115613e5957fe5b6003811115613e6457fe5b9052506000905081516003811115613e7857fe5b14613e9d57613e9460096007836000015160038111156111f257fe5b9250505061143f565b613eab8160400151866129d8565b6060830181905282826003811115613ebf57fe5b6003811115613eca57fe5b9052506000905081516003811115613ede57fe5b14613efa57613e946009600c836000015160038111156111f257fe5b613f06600c54866129d8565b6080830181905282826003811115613f1a57fe5b6003811115613f2557fe5b9052506000905081516003811115613f3957fe5b14613f5557613e946009600b836000015160038111156111f257fe5b6001600160a01b038416613f67578593505b613f71848661407c565b606080820180516001600160a01b038916600081815260126020908152604091829020938455600b54600190940193909355608080870151600c819055945182519384529383018b9052828201939093529381019290925291517f13ed6866d4e1ee6da46f845c46d7e54120883d75c5ea9a2dacc1c4ca8984ab80929181900390910190a160055460408051635c77860560e01b81523060048201526001600160a01b0389811660248301526044820189905291519190921691635c77860591606480830192600092919082900301818387803b15801561405157600080fd5b505af1158015614065573d6000803e3d6000fd5b5060009250614072915050565b9695505050505050565b6013546040805163a9059cbb60e01b81526001600160a01b0385811660048301526024820185905291519190921691829163a9059cbb9160448082019260009290919082900301818387803b1580156140d457600080fd5b505af11580156140e8573d6000803e3d6000fd5b5050505060003d60008114614104576020811461410e57600080fd5b600019915061411a565b60206000803e60005191505b508061416d576040805162461bcd60e51b815260206004820152601960248201527f544f4b454e5f5452414e534645525f4f55545f4641494c454400000000000000604482015290519081900360640190fd5b50505050565b60008082156141c9576040805162461bcd60e51b815260206004820152601e60248201527f72656465656d546f6b656e73496e206d7573746e2774206265207a65726f0000604482015290519081900360640190fd5b6141d16159f1565b60608101849052600f546141e5908561316d565b60808301819052602083018260038111156141fc57fe5b600381111561420757fe5b905250600090508160200151600381111561421e57fe5b146142475761423a6009602e836020015160038111156111f257fe5b9250600091506129fa9050565b6001600160a01b038516600090815260106020526040902054606082015161426f919061316d565b60c083018190526020830182600381111561428657fe5b600381111561429157fe5b90525060009050816020015160038111156142a857fe5b146142c45761423a6009602d836020015160038111156111f257fe5b6080810151600f5560c08101516001600160a01b039590951660009081526010602052604081209590955560600151939492505050565b6000808084158061430a575083155b6143455760405162461bcd60e51b8152600401808060200182810382526034815260200180615cd36034913960400191505060405180910390fd5b61434d61597a565b61435561250a565b604083018190526020830182600381111561436c57fe5b600381111561437757fe5b905250600090508160200151600381111561438e57fe5b146143ba576143aa6009602b836020015160038111156111f257fe5b9350600092508291506148619050565b851561443b5760608101869052604080516020810182529082015181526143e19087612a67565b60808301819052602083018260038111156143f857fe5b600381111561440357fe5b905250600090508160200151600381111561441a57fe5b14614436576143aa60096029836020015160038111156111f257fe5b6144b4565b6144578560405180602001604052808460400151815250615856565b606083018190526020830182600381111561446e57fe5b600381111561447957fe5b905250600090508160200151600381111561449057fe5b146144ac576143aa6009602a836020015160038111156111f257fe5b608081018590525b60055460608201516040805163eabe7d9160e01b81523060048201526001600160a01b038b8116602483015260448201939093529051600093929092169163eabe7d919160648082019260209290919082900301818787803b15801561451957600080fd5b505af115801561452d573d6000803e3d6000fd5b505050506040513d602081101561454357600080fd5b50519050801561456b5761455a6003602883612a01565b945060009350839250614861915050565b614573612f71565b600a54146145875761455a600a602c612972565b614597600e54836060015161316d565b60a08401819052602084018260038111156145ae57fe5b60038111156145b957fe5b90525060009050826020015160038111156145d057fe5b146145ec5761455a6009602e846020015160038111156111f257fe5b6001600160a01b0388166000908152601060205260409020546060830151614614919061316d565b60e084018190526020840182600381111561462b57fe5b600381111561463657fe5b905250600090508260200151600381111561464d57fe5b146146695761455a6009602d846020015160038111156111f257fe5b8160800151614676612aba565b10156146885761455a600e602f612972565b61469688836080015161407c565b60a0820151600e5560e08201516001600160a01b038916600081815260106020908152604091829020939093556060850151815190815290513093600080516020615bf2833981519152928290030190a36080820151606080840151604080516001600160a01b038d168152602081019490945283810191909152517fe5b754fb1abb7f01b499791d0b820ae3b6af3424ac1c59768edb53f4ec31a9299281900390910190a160055460808301516060840151604080516351dff98960e01b81523060048201526001600160a01b038d81166024830152604482019490945260648101929092525191909216916351dff98991608480830192600092919082900301818387803b1580156147a957600080fd5b505af11580156147bd573d6000803e3d6000fd5b50506005546060850151604080516394021d7f60e01b815260048101929092526001600160a01b038d81166024840152905160009550921692506394021d7f91604480830192602092919082900301818787803b15801561481d57600080fd5b505af1158015614831573d6000803e3d6000fd5b505050506040513d602081101561484757600080fd5b505190506000836080015184606001519550955095505050505b93509350939050565b6000808361487d575060009050806129fa565b8383028385828161488a57fe5b041461489e575060029150600090506129fa565b6000925090506129fa565b600080826148bd57506001905060006129fa565b60008385816148c857fe5b04915091509250929050565b60055460408051634ef4c3e160e01b81523060048201526001600160a01b0385811660248301526044820185905291516000938493849384939190921691634ef4c3e191606480830192602092919082900301818787803b15801561493857600080fd5b505af115801561494c573d6000803e3d6000fd5b505050506040513d602081101561496257600080fd5b505190508015614989576149796003601f83612a01565b935060009250829150614dbf9050565b614991612f71565b600a54146149a557614979600a6022612972565b6149ad61597a565b6149b561250a565b60408301819052602083018260038111156149cc57fe5b60038111156149d757fe5b90525060009050816020015160038111156149ee57fe5b14614a1b57614a0a60096021836020015160038111156111f257fe5b945060009350839250614dbf915050565b614a25878761560c565b60e0820181905260408051602081018252908301518152614a469190615856565b6060830181905260208301826003811115614a5d57fe5b6003811115614a6857fe5b9052506000905081602001516003811115614a7f57fe5b14614ad1576040805162461bcd60e51b815260206004820181905260248201527f4d494e545f45584348414e47455f43414c43554c4154494f4e5f4641494c4544604482015290519081900360640190fd5b614ae1600e5482606001516129d8565b6080830181905260208301826003811115614af857fe5b6003811115614b0357fe5b9052506000905081602001516003811115614b1a57fe5b14614b565760405162461bcd60e51b8152600401808060200182810382526028815260200180615cab6028913960400191505060405180910390fd5b6001600160a01b0387166000908152601060205260409020546060820151614b7e91906129d8565b60c0830181905260208301826003811115614b9557fe5b6003811115614ba057fe5b9052506000905081602001516003811115614bb757fe5b14614bf35760405162461bcd60e51b815260040180806020018281038252602b815260200180615b56602b913960400191505060405180910390fd5b6080810151600e5560c08101516001600160a01b0388166000818152601060209081526040918290209390935560e084015160608086015183519485529484019190915282820193909352517f4c209b5fc8ad50758f13e2e1088ba56a560dff690a1c6fef26394f4c03821c4f929181900390910190a1606081015160408051918252516001600160a01b038916913091600080516020615bf28339815191529181900360200190a360055460e08201516060830151604080516341c728b960e01b81523060048201526001600160a01b038c81166024830152604482019490945260648101929092525191909216916341c728b991608480830192600092919082900301818387803b158015614d0957600080fd5b505af1158015614d1d573d6000803e3d6000fd5b505060055460608401516040805162b7516560e11b815260048101929092526001600160a01b038c811660248401529051600095509216925063016ea2ca91604480830192602092919082900301818787803b158015614d7c57600080fd5b505af1158015614d90573d6000803e3d6000fd5b505050506040513d6020811015614da657600080fd5b50505060e0810151606090910151600095509093509150505b9250925092565b6000806000614dd3612f71565b600a5414614df557614de7600a6022612972565b925060009150819050614dbf565b614dfd615a2f565b614e0561250a565b6040830181905260208301826003811115614e1c57fe5b6003811115614e2757fe5b9052506000905081602001516003811115614e3e57fe5b14614e5a5761497960096021836020015160038111156111f257fe5b614e768560405180602001604052808460400151815250615856565b6060830181905260208301826003811115614e8d57fe5b6003811115614e9857fe5b9052506000905081602001516003811115614eaf57fe5b14614f01576040805162461bcd60e51b815260206004820181905260248201527f4d494e545f45584348414e47455f43414c43554c4154494f4e5f4641494c4544604482015290519081900360640190fd5b614f11600f5482606001516129d8565b60a0830181905260208301826003811115614f2857fe5b6003811115614f3357fe5b9052506000905081602001516003811115614f4a57fe5b14614f865760405162461bcd60e51b8152600401808060200182810382526028815260200180615cab6028913960400191505060405180910390fd5b6001600160a01b0386166000908152601060205260409020546060820151614fae91906129d8565b6080830181905260208301826003811115614fc557fe5b6003811115614fd057fe5b9052506000905081602001516003811115614fe757fe5b146150235760405162461bcd60e51b815260040180806020018281038252602b815260200180615b56602b913960400191505060405180910390fd5b60a0810151600f5560808101516001600160a01b0387166000818152601060209081526040918290209390935560608401518151908152905191923092600080516020615bf28339815191529281900390910190a3606001516000969495509392505050565b60055460408051632fe3f38f60e11b81523060048201526001600160a01b0384811660248301528781166044830152868116606483015260848201869052915160009384938493911691635fc7e71e9160a48082019260209290919082900301818787803b1580156150fa57600080fd5b505af115801561510e573d6000803e3d6000fd5b505050506040513d602081101561512457600080fd5b5051905080156151485761513b6003601283612a01565b9250600091506156039050565b615150612f71565b600a54146151645761513b600a6016612972565b61516c612f71565b846001600160a01b0316636c540baf6040518163ffffffff1660e01b815260040160206040518083038186803b1580156151a557600080fd5b505afa1580156151b9573d6000803e3d6000fd5b505050506040513d60208110156151cf57600080fd5b5051146151e25761513b600a6011612972565b866001600160a01b0316866001600160a01b031614156152085761513b60066017612972565b846152195761513b60076015612972565b60001985141561522f5761513b60076014612972565b60008061523d89898961378e565b9092509050811561526d5761525e82601081111561525757fe5b6018612972565b94506000935061560392505050565b6005546040805163c488847b60e01b81523060048201526001600160a01b038981166024830152604482018590528251600094859492169263c488847b926064808301939192829003018186803b1580156152c757600080fd5b505afa1580156152db573d6000803e3d6000fd5b505050506040513d60408110156152f157600080fd5b5080516020909101519092509050811561533c5760405162461bcd60e51b8152600401808060200182810382526033815260200180615c436033913960400191505060405180910390fd5b80886001600160a01b03166370a082318c6040518263ffffffff1660e01b815260040180826001600160a01b03166001600160a01b0316815260200191505060206040518083038186803b15801561539357600080fd5b505afa1580156153a7573d6000803e3d6000fd5b505050506040513d60208110156153bd57600080fd5b50511015615412576040805162461bcd60e51b815260206004820152601860248201527f4c49515549444154455f5345495a455f544f4f5f4d5543480000000000000000604482015290519081900360640190fd5b60006001600160a01b03891630141561543857615431308d8d85613254565b90506154c2565b6040805163b2a02ff160e01b81526001600160a01b038e811660048301528d81166024830152604482018590529151918b169163b2a02ff1916064808201926020929091908290030181600087803b15801561549357600080fd5b505af11580156154a7573d6000803e3d6000fd5b505050506040513d60208110156154bd57600080fd5b505190505b801561550c576040805162461bcd60e51b81526020600482015260146024820152731d1bdad95b881cd95a5e9d5c994819985a5b195960621b604482015290519081900360640190fd5b604080516001600160a01b03808f168252808e1660208301528183018790528b1660608201526080810184905290517f298637f684da70674f26509b10f07ec2fbc77a335ab1e7d6215a4b2484d8bb529181900360a00190a1600554604080516347ef3b3b60e01b81523060048201526001600160a01b038c811660248301528f811660448301528e811660648301526084820188905260a48201869052915191909216916347ef3b3b9160c480830192600092919082900301818387803b1580156155d757600080fd5b505af11580156155eb573d6000803e3d6000fd5b50600092506155f8915050565b975092955050505050505b94509492505050565b601354604080516370a0823160e01b815230600482015290516000926001600160a01b031691839183916370a08231916024808301926020929190829003018186803b15801561565b57600080fd5b505afa15801561566f573d6000803e3d6000fd5b505050506040513d602081101561568557600080fd5b5051604080516323b872dd60e01b81526001600160a01b038881166004830152306024830152604482018890529151929350908416916323b872dd9160648082019260009290919082900301818387803b1580156156e257600080fd5b505af11580156156f6573d6000803e3d6000fd5b5050505060003d60008114615712576020811461571c57600080fd5b6000199150615728565b60206000803e60005191505b508061577b576040805162461bcd60e51b815260206004820152601860248201527f544f4b454e5f5452414e534645525f494e5f4641494c45440000000000000000604482015290519081900360640190fd5b601354604080516370a0823160e01b815230600482015290516000926001600160a01b0316916370a08231916024808301926020929190829003018186803b1580156157c657600080fd5b505afa1580156157da573d6000803e3d6000fd5b505050506040513d60208110156157f057600080fd5b5051905082811015615849576040805162461bcd60e51b815260206004820152601a60248201527f544f4b454e5f5452414e534645525f494e5f4f564552464c4f57000000000000604482015290519081900360640190fd5b9190910395945050505050565b60008060006158636158e9565b612a7e868660006158726158e9565b600080615887670de0b6b3a76400008761486a565b9092509050600082600381111561589a57fe5b146158b9575060408051602081019091526000815290925090506129fa565b612aad818660000151613bb1565b6040805160608101909152806000815260200160008152602001600081525090565b6040518060200160405280600081525090565b828054600181600116156101000203166002900490600052602060002090601f016020900481019282601f1061593d57805160ff191683800117855561596a565b8280016001018555821561596a579182015b8281111561596a57825182559160200191906001019061594f565b50615976929150615a49565b5090565b6040805161010081019091528060008152602001600081526020016000815260200160008152602001600081526020016000815260200160008152602001600081525090565b6040805160a081019091528060005b8152602001600081526020016000815260200160008152602001600081525090565b6040805160e0810190915280600081526020016000815260200160008152602001600081526020016000815260200160008152602001600081525090565b6040805160c08101909152806000815260200160006159cf565b610f4791905b808211156159765760008155600101615a4f56fe6f6e6c792061646d696e206d617920696e697469616c697a6520746865206d61726b65746d61726b6574206d6179206f6e6c7920626520696e697469616c697a6564206f6e6365557365727320617265206e6f7420616c6c6f77656420746f207472616e7366657220696e2070726976617465696e697469616c2065786368616e67652072617465206d7573742062652067726561746572207468616e207a65726f2e73657474696e6720696e7465726573742072617465206d6f64656c206661696c65646f6e6c79207468652061646d696e206d61792063616c6c205f72657369676e496d706c656d656e746174696f6e4d494e545f4e45575f4143434f554e545f42414c414e43455f43414c43554c4154494f4e5f4641494c4544626f72726f7742616c616e636553746f7265643a20626f72726f7742616c616e636553746f726564496e7465726e616c206661696c656452455041595f424f52524f575f4e45575f4143434f554e545f424f52524f575f42414c414e43455f43414c43554c4154494f4e5f4641494c4544ddf252ad1be2c89b69c2b068fc378daa952ba7f163c4a11628f55a4df523b3ef52455041595f424f52524f575f4e45575f544f54414c5f42414c414e43455f43414c43554c4154494f4e5f4641494c45444c49515549444154455f434f4d5054524f4c4c45525f43414c43554c4154455f414d4f554e545f5345495a455f4641494c454465786368616e67655261746553746f7265643a2065786368616e67655261746553746f726564496e7465726e616c206661696c65644d494e545f4e45575f544f54414c5f535550504c595f43414c43554c4154494f4e5f4641494c45446f6e65206f662072656465656d546f6b656e73496e206f722072656465656d416d6f756e74496e206d757374206265207a65726f72656475636520726573657276657320756e657870656374656420756e646572666c6f776f6e6c79207468652061646d696e206d61792063616c6c205f6265636f6d65496d706c656d656e746174696f6ea265627a7a7231582048914f0e5ad24e4674cbda8f7f6974939b2bf09e27d89dea1de4e7105d6430bb64736f6c63430005100032",
  "linkReferences": {},
  "deployedLinkReferences": {}
}