{
  "_format": "hh-sol-artifact-1",
  "contractName": "Exchanges",
  "sourceName": "contracts/flatten/StepSwap.sol",
  "abi": [
    {
      "inputs": [],
      "name": "EXCHANGE_CURVE",
      "outputs": [
        {
          "internalType": "uint256",
          "name": "",
          "type": "uint256"
        }
      ],
      "stateMutability": "view",
      "type": "function"
    },
    {
      "inputs": [],
      "name": "EXCHANGE_EBANK_EX",
      "outputs": [
        {
          "internalType": "uint256",
          "name": "",
          "type": "uint256"
        }
      ],
      "stateMutability": "view",
      "type": "function"
    },
    {
      "inputs": [],
      "name": "EXCHANGE_UNISWAP_V2",
      "outputs": [
        {
          "internalType": "uint256",
          "name": "",
          "type": "uint256"
        }
      ],
      "stateMutability": "view",
      "type": "function"
    },
    {
      "inputs": [],
      "name": "EXCHANGE_UNISWAP_V3",
      "outputs": [
        {
          "internalType": "uint256",
          "name": "",
          "type": "uint256"
        }
      ],
      "stateMutability": "view",
      "type": "function"
    },
    {
      "inputs": [],
      "name": "MAX_COMPLEX_LEVEL",
      "outputs": [
        {
          "internalType": "uint256",
          "name": "",
          "type": "uint256"
        }
      ],
      "stateMutability": "view",
      "type": "function"
    },
    {
      "inputs": [],
      "name": "SWAP_EBANK_CTOKENS_CTOKENS",
      "outputs": [
        {
          "internalType": "uint256",
          "name": "",
          "type": "uint256"
        }
      ],
      "stateMutability": "view",
      "type": "function"
    },
    {
      "inputs": [],
      "name": "SWAP_EBANK_ETH_TOKENS",
      "outputs": [
        {
          "internalType": "uint256",
          "name": "",
          "type": "uint256"
        }
      ],
      "stateMutability": "view",
      "type": "function"
    },
    {
      "inputs": [],
      "name": "SWAP_EBANK_TOKENS_ETH",
      "outputs": [
        {
          "internalType": "uint256",
          "name": "",
          "type": "uint256"
        }
      ],
      "stateMutability": "view",
      "type": "function"
    },
    {
      "inputs": [],
      "name": "SWAP_EBANK_TOKENS_TOKENS",
      "outputs": [
        {
          "internalType": "uint256",
          "name": "",
          "type": "uint256"
        }
      ],
      "stateMutability": "view",
      "type": "function"
    },
    {
      "inputs": [
        {
          "internalType": "address",
          "name": "aToken",
          "type": "address"
        }
      ],
      "name": "aaveDepositToken",
      "outputs": [],
      "stateMutability": "pure",
      "type": "function"
    },
    {
      "inputs": [
        {
          "internalType": "address",
          "name": "aToken",
          "type": "address"
        },
        {
          "internalType": "uint256",
          "name": "amt",
          "type": "uint256"
        }
      ],
      "name": "aaveWithdrawToken",
      "outputs": [],
      "stateMutability": "pure",
      "type": "function"
    },
    {
      "inputs": [
        {
          "internalType": "address",
          "name": "tokenIn",
          "type": "address"
        },
        {
          "internalType": "address",
          "name": "tokenOut",
          "type": "address"
        },
        {
          "internalType": "address[]",
          "name": "midTokens",
          "type": "address[]"
        },
        {
          "internalType": "uint256",
          "name": "complexLevel",
          "type": "uint256"
        }
      ],
      "name": "allPaths",
      "outputs": [
        {
          "internalType": "address[][]",
          "name": "paths",
          "type": "address[][]"
        }
      ],
      "stateMutability": "pure",
      "type": "function"
    },
    {
      "inputs": [
        {
          "internalType": "contract ICToken",
          "name": "ctoken",
          "type": "ICToken"
        }
      ],
      "name": "calcCTokenExchangeRate",
      "outputs": [
        {
          "internalType": "uint256",
          "name": "",
          "type": "uint256"
        }
      ],
      "stateMutability": "view",
      "type": "function"
    },
    {
      "inputs": [
        {
          "components": [
            {
              "internalType": "uint256",
              "name": "exFlag",
              "type": "uint256"
            },
            {
              "internalType": "address",
              "name": "contractAddr",
              "type": "address"
            }
          ],
          "internalType": "struct DataTypes.Exchange",
          "name": "ex",
          "type": "tuple"
        },
        {
          "internalType": "address[]",
          "name": "path",
          "type": "address[]"
        },
        {
          "internalType": "uint256[]",
          "name": "amts",
          "type": "uint256[]"
        },
        {
          "internalType": "address",
          "name": "to",
          "type": "address"
        }
      ],
      "name": "calcDistributes",
      "outputs": [
        {
          "internalType": "uint256[]",
          "name": "distributes",
          "type": "uint256[]"
        }
      ],
      "stateMutability": "view",
      "type": "function"
    },
    {
      "inputs": [
        {
          "internalType": "address",
          "name": "ctoken",
          "type": "address"
        },
        {
          "internalType": "uint256[]",
          "name": "amounts",
          "type": "uint256[]"
        },
        {
          "internalType": "uint256",
          "name": "parts",
          "type": "uint256"
        }
      ],
      "name": "convertCompoundCtokenMinted",
      "outputs": [
        {
          "internalType": "uint256[]",
          "name": "",
          "type": "uint256[]"
        }
      ],
      "stateMutability": "view",
      "type": "function"
    },
    {
      "inputs": [
        {
          "internalType": "address",
          "name": "ctoken",
          "type": "address"
        },
        {
          "internalType": "uint256[]",
          "name": "cAmounts",
          "type": "uint256[]"
        },
        {
          "internalType": "uint256",
          "name": "parts",
          "type": "uint256"
        }
      ],
      "name": "convertCompoundTokenRedeemed",
      "outputs": [
        {
          "internalType": "uint256[]",
          "name": "",
          "type": "uint256[]"
        }
      ],
      "stateMutability": "view",
      "type": "function"
    },
    {
      "inputs": [
        {
          "internalType": "address",
          "name": "addr",
          "type": "address"
        },
        {
          "internalType": "uint256",
          "name": "i",
          "type": "uint256"
        },
        {
          "internalType": "uint256",
          "name": "j",
          "type": "uint256"
        },
        {
          "internalType": "uint256",
          "name": "dx",
          "type": "uint256"
        }
      ],
      "name": "curveSwap",
      "outputs": [
        {
          "internalType": "uint256",
          "name": "",
          "type": "uint256"
        }
      ],
      "stateMutability": "view",
      "type": "function"
    },
    {
      "inputs": [
        {
          "internalType": "address",
          "name": "router",
          "type": "address"
        },
        {
          "internalType": "address[]",
          "name": "path",
          "type": "address[]"
        },
        {
          "internalType": "uint256",
          "name": "amountIn",
          "type": "uint256"
        },
        {
          "internalType": "address",
          "name": "to",
          "type": "address"
        }
      ],
      "name": "ebankSwap",
      "outputs": [
        {
          "internalType": "uint256",
          "name": "",
          "type": "uint256"
        }
      ],
      "stateMutability": "view",
      "type": "function"
    },
    {
      "inputs": [
        {
          "internalType": "uint256",
          "name": "flag",
          "type": "uint256"
        },
        {
          "internalType": "uint256",
          "name": "midTokens",
          "type": "uint256"
        },
        {
          "internalType": "uint256",
          "name": "complexLevel",
          "type": "uint256"
        }
      ],
      "name": "getExchangeRoutes",
      "outputs": [
        {
          "internalType": "uint256",
          "name": "",
          "type": "uint256"
        }
      ],
      "stateMutability": "pure",
      "type": "function"
    },
    {
      "inputs": [
        {
          "internalType": "address",
          "name": "router",
          "type": "address"
        },
        {
          "internalType": "address[]",
          "name": "path",
          "type": "address[]"
        }
      ],
      "name": "getReserves",
      "outputs": [
        {
          "internalType": "uint256[][]",
          "name": "reserves",
          "type": "uint256[][]"
        }
      ],
      "stateMutability": "view",
      "type": "function"
    },
    {
      "inputs": [
        {
          "internalType": "uint256",
          "name": "flag",
          "type": "uint256"
        }
      ],
      "name": "isEBankExchange",
      "outputs": [
        {
          "internalType": "bool",
          "name": "",
          "type": "bool"
        }
      ],
      "stateMutability": "pure",
      "type": "function"
    },
    {
      "inputs": [
        {
          "internalType": "uint256",
          "name": "flag",
          "type": "uint256"
        }
      ],
      "name": "isUniswapLikeExchange",
      "outputs": [
        {
          "internalType": "bool",
          "name": "",
          "type": "bool"
        }
      ],
      "stateMutability": "pure",
      "type": "function"
    },
    {
      "inputs": [
        {
          "internalType": "address",
          "name": "router",
          "type": "address"
        },
        {
          "internalType": "address[]",
          "name": "path",
          "type": "address[]"
        },
        {
          "internalType": "uint256[]",
          "name": "amountIns",
          "type": "uint256[]"
        }
      ],
      "name": "uniswapLikeSwap",
      "outputs": [
        {
          "internalType": "uint256[]",
          "name": "amountOuts",
          "type": "uint256[]"
        }
      ],
      "stateMutability": "view",
      "type": "function"
    }
  ],
  "bytecode": "0x61278f610026600b82828239805160001a60731461001957fe5b30600052607381538281f3fe73000000000000000000000000000000000000000030146080604052600436106101ce5760003560e01c80637ccea13911610103578063baef8529116100a1578063d45314401161007b578063d4531440146103a3578063edc4593c146103c3578063f38ff874146103d6578063fa32784b146101d3576101ce565b8063baef8529146102dd578063c21eedc3146101d3578063cb8b387714610390576101ce565b80638e06405c116100dd5780638e06405c1461033557806392327f3f1461035557806392c71f4e1461035d578063a076618314610370576101ce565b80637ccea139146102f8578063852c8cc11461031a57806388db6b761461032d576101ce565b8063515a96151161017057806363edc65a1161014a57806363edc65a146102b757806365f93459146102ca5780636d682539146102dd5780637bba8b05146102e5576101ce565b8063515a96151461026457806355c469e11461027757806358d0dd2914610297576101ce565b806329675db9116101ac57806329675db9146101d35780634c1a86b6146102115780634c5f70041461023157806350ef7c0914610251576101ce565b806311e6dbae146101d35780631e426684146101d3578063275f5396146101f1575b600080fd5b6101db6103e9565b6040516101e891906126de565b60405180910390f35b6102046101ff3660046120e7565b6103ee565b6040516101e89190612568565b61022461021f36600461238d565b61073f565b6040516101e891906125ce565b81801561023d57600080fd5b506101db61024c366004612047565b61075b565b6101db61025f3660046121a8565b61084b565b6101db610272366004612294565b610c74565b61028a6102853660046122ce565b610d19565b6040516101e891906125bb565b8180156102a357600080fd5b506101db6102b2366004612269565b610df4565b6101db6102c53660046123bd565b610f94565b61028a6102d8366004612212565b610fc0565b6101db611081565b61028a6102f3366004612212565b611086565b81801561030457600080fd5b50610318610313366004612269565b611121565b005b610318610328366004612047565b61119c565b6101db61119f565b81801561034157600080fd5b506101db610350366004612269565b6111a4565b6101db611204565b6101db61036b366004612047565b611209565b61038361037e36600461207f565b6113a4565b6040516101e891906124d9565b61028a61039e366004612135565b6114a1565b8180156103af57600080fd5b506103186103be366004612269565b61195b565b6102246103d136600461238d565b6119f9565b6103186103e4366004612269565b611a22565b600181565b80516060908067ffffffffffffffff8111801561040a57600080fd5b5060405190808252806020026020018201604052801561043e57816020015b60608152602001906001900390816104295790505b5091506000846001600160a01b031663c45a01556040518163ffffffff1660e01b815260040160206040518083038186803b15801561047c57600080fd5b505afa158015610490573d6000803e3d6000fd5b505050506040513d601f19601f820116820180604052508101906104b49190612063565b905060005b60018303811015610736576000826001600160a01b031663e6a439058784815181106104e157fe5b60200260200101518885600101815181106104f857fe5b60200260200101516040518363ffffffff1660e01b815260040161051d92919061249c565b60206040518083038186803b15801561053557600080fd5b505afa158015610549573d6000803e3d6000fd5b505050506040513d601f19601f8201168201806040525081019061056d9190612063565b60408051600280825260608201835292935060009290916020830190803683370190505090506001600160a01b0382166105c057808684815181106105ae57fe5b6020026020010181905250505061072e565b8683815181106105cc57fe5b60200260200101516001600160a01b03166370a08231836040518263ffffffff1660e01b81526004016105ff9190612488565b60206040518083038186803b15801561061757600080fd5b505afa15801561062b573d6000803e3d6000fd5b505050506040513d601f19601f8201168201806040525081019061064f91906123a5565b8160008151811061065c57fe5b60200260200101818152505086836001018151811061067757fe5b60200260200101516001600160a01b03166370a08231836040518263ffffffff1660e01b81526004016106aa9190612488565b60206040518083038186803b1580156106c257600080fd5b505afa1580156106d6573d6000803e3d6000fd5b505050506040513d601f19601f820116820180604052508101906106fa91906123a5565b8160018151811061070757fe5b6020026020010181815250508086848151811061072057fe5b602002602001018190525050505b6001016104b9565b50505092915050565b6000600382141561075257506001610756565b5060005b919050565b6000816001600160a01b031663d0e30db06040518163ffffffff1660e01b8152600401600060405180830381600087803b15801561079857600080fd5b505af11580156107ac573d6000803e3d6000fd5b50506040517f70a082310000000000000000000000000000000000000000000000000000000081526001600160a01b03851692506370a0823191506107f5903090600401612488565b60206040518083038186803b15801561080d57600080fd5b505afa158015610821573d6000803e3d6000fd5b505050506040513d601f19601f8201168201806040525081019061084591906123a5565b92915050565b600080856001600160a01b031663c45a01556040518163ffffffff1660e01b815260040160206040518083038186803b15801561088757600080fd5b505afa15801561089b573d6000803e3d6000fd5b505050506040513d601f19601f820116820180604052508101906108bf9190612063565b90506000855167ffffffffffffffff811180156108db57600080fd5b50604051908082528060200260200182016040528015610905578160200160208202803683370190505b509050848160008151811061091657fe5b60200260200101818152505060005b6001875103811015610c4e576000836001600160a01b031663e6a4390589848151811061094e57fe5b60200260200101518a856001018151811061096557fe5b60200260200101516040518363ffffffff1660e01b815260040161098a92919061249c565b60206040518083038186803b1580156109a257600080fd5b505afa1580156109b6573d6000803e3d6000fd5b505050506040513d601f19601f820116820180604052508101906109da9190612063565b90506001600160a01b0381166109f7576000945050505050610c6c565b600080600080876001600160a01b0316637f33ffc38d8881518110610a1857fe5b60200260200101518e8960010181518110610a2f57fe5b60200260200101518d6040518463ffffffff1660e01b8152600401610a56939291906124b6565b60806040518083038186803b158015610a6e57600080fd5b505afa158015610a82573d6000803e3d6000fd5b505050506040513d601f19601f82011682018060405250810190610aa69190612415565b93509350935093508360001480610abb575082155b15610ad157600098505050505050505050610c6c565b8015610b8c57876001600160a01b0316630b64aa63888881518110610af257fe5b60200260200101518686866040518563ffffffff1660e01b8152600401610b1c94939291906126e7565b60206040518083038186803b158015610b3457600080fd5b505afa158015610b48573d6000803e3d6000fd5b505050506040513d601f19601f82011682018060405250810190610b6c91906123a5565b878760010181518110610b7b57fe5b602002602001018181525050610c3d565b876001600160a01b0316636e2b0fa7888881518110610ba757fe5b60200260200101518686866040518563ffffffff1660e01b8152600401610bd194939291906126e7565b60206040518083038186803b158015610be957600080fd5b505afa158015610bfd573d6000803e3d6000fd5b505050506040513d601f19601f82011682018060405250810190610c2191906123a5565b878760010181518110610c3057fe5b6020026020010181815250505b505060019093019250610925915050565b5080600182510381518110610c5f57fe5b6020026020010151925050505b949350505050565b6040517f5e0d443f0000000000000000000000000000000000000000000000000000000081526000906001600160a01b03861690635e0d443f90610cc0908790879087906004016125d9565b60206040518083038186803b158015610cd857600080fd5b505afa158015610cec573d6000803e3d6000fd5b505050506040513d601f19601f82011682018060405250810190610d1091906123a5565b95945050505050565b83516020850151606091906001821480610d335750600282145b15610d4a57610d438187876114a1565b9250610dea565b6003821415610dea57845160010167ffffffffffffffff81118015610d6e57600080fd5b50604051908082528060200260200182016040528015610d98578160200160208202803683370190505b50925060005b8551811015610de857610dc68288888481518110610db857fe5b60200260200101518861084b565b848260010181518110610dd557fe5b6020908102919091010152600101610d9e565b505b5050949350505050565b600080836001600160a01b03166370a08231306040518263ffffffff1660e01b8152600401610e239190612488565b60206040518083038186803b158015610e3b57600080fd5b505afa158015610e4f573d6000803e3d6000fd5b505050506040513d601f19601f82011682018060405250810190610e7391906123a5565b6040517fa0712d680000000000000000000000000000000000000000000000000000000081529091506001600160a01b0385169063a0712d6890610ebb9086906004016126de565b602060405180830381600087803b158015610ed557600080fd5b505af1158015610ee9573d6000803e3d6000fd5b505050506040513d601f19601f82011682018060405250810190610f0d91906123a5565b50610c6c81856001600160a01b03166370a08231306040518263ffffffff1660e01b8152600401610f3e9190612488565b60206040518083038186803b158015610f5657600080fd5b505afa158015610f6a573d6000803e3d6000fd5b505050506040513d601f19601f82011682018060405250810190610f8e91906123a5565b90611a26565b6000610f9f846119f9565b15610fb557610fae8383611a68565b9050610fb9565b5060015b9392505050565b60606000610fcd85611209565b905060008367ffffffffffffffff81118015610fe857600080fd5b50604051908082528060200260200182016040528015611012578160200160208202803683370190505b50905060005b848110156110775761105883611052670de0b6b3a764000089858151811061103c57fe5b6020026020010151611ac290919063ffffffff16565b90611b05565b82828151811061106457fe5b6020908102919091010152600101611018565b5095945050505050565b600381565b6060600061109385611209565b905060008367ffffffffffffffff811180156110ae57600080fd5b506040519080825280602002602001820160405280156110d8578160200160208202803683370190505b50905060005b8481101561107757611102670de0b6b3a76400006110528589858151811061103c57fe5b82828151811061110e57fe5b60209081029190910101526001016110de565b6040517f2e1a7d4d0000000000000000000000000000000000000000000000000000000081526001600160a01b03831690632e1a7d4d906111669084906004016126de565b600060405180830381600087803b15801561118057600080fd5b505af1158015611194573d6000803e3d6000fd5b505050505050565b50565b600481565b6000826001600160a01b031663d0e30db0836040518263ffffffff1660e01b81526004016000604051808303818588803b1580156111e157600080fd5b505af11580156111f5573d6000803e3d6000fd5b5050505050610fb98383610df4565b600281565b600080826001600160a01b031663182df0f56040518163ffffffff1660e01b815260040160206040518083038186803b15801561124557600080fd5b505afa158015611259573d6000803e3d6000fd5b505050506040513d601f19601f8201168201806040525081019061127d91906123a5565b90506000836001600160a01b031663ae9d70b06040518163ffffffff1660e01b815260040160206040518083038186803b1580156112ba57600080fd5b505afa1580156112ce573d6000803e3d6000fd5b505050506040513d601f19601f820116820180604052508101906112f291906123a5565b90506000846001600160a01b0316636c540baf6040518163ffffffff1660e01b815260040160206040518083038186803b15801561132f57600080fd5b505afa158015611343573d6000803e3d6000fd5b505050506040513d601f19601f8201168201806040525081019061136791906123a5565b905060006113754383611a26565b9050600061138d826113878787611ac2565b90611ac2565b90506113998582611b47565b979650505050505050565b815160609060038311156113b757600392505b8083106113c2578092505b60006113ce8285611a68565b905060008167ffffffffffffffff811180156113e957600080fd5b5060405190808252806020026020018201604052801561141d57816020015b60608152602001906001900390816114085790505b506040805160018082528183019092529195506000919060208083019080368337019050509050888160008151811061145257fe5b60200260200101906001600160a01b031690816001600160a01b03168152505060005b8681116114945761148a8684838c8c87611b6c565b9250600101611475565b5050505050949350505050565b815160609060008167ffffffffffffffff811180156114bf57600080fd5b506040519080825280602002602001820160405280156114e9578160200160208202803683370190505b509050835160010167ffffffffffffffff8111801561150757600080fd5b50604051908082528060200260200182016040528015611531578160200160208202803683370190505b5092506000866001600160a01b031663c45a01556040518163ffffffff1660e01b815260040160206040518083038186803b15801561156f57600080fd5b505afa158015611583573d6000803e3d6000fd5b505050506040513d601f19601f820116820180604052508101906115a79190612063565b905060005b6001840381101561181e576000826001600160a01b031663e6a439058984815181106115d457fe5b60200260200101518a85600101815181106115eb57fe5b60200260200101516040518363ffffffff1660e01b815260040161161092919061249c565b60206040518083038186803b15801561162857600080fd5b505afa15801561163c573d6000803e3d6000fd5b505050506040513d601f19601f820116820180604052508101906116609190612063565b90506001600160a01b03811661167a575050505050610fb9565b87828151811061168657fe5b60200260200101516001600160a01b03166370a08231826040518263ffffffff1660e01b81526004016116b99190612488565b60206040518083038186803b1580156116d157600080fd5b505afa1580156116e5573d6000803e3d6000fd5b505050506040513d601f19601f8201168201806040525081019061170991906123a5565b84838151811061171557fe5b60200260200101818152505087826001018151811061173057fe5b60200260200101516001600160a01b03166370a08231826040518263ffffffff1660e01b81526004016117639190612488565b60206040518083038186803b15801561177b57600080fd5b505afa15801561178f573d6000803e3d6000fd5b505050506040513d601f19601f820116820180604052508101906117b391906123a5565b8483600101815181106117c257fe5b6020026020010181815250508382815181106117da57fe5b60200260200101516000148061180657508382600101815181106117fa57fe5b60200260200101516000145b15611815575050505050610fb9565b506001016115ac565b5060008367ffffffffffffffff8111801561183857600080fd5b50604051908082528060200260200182016040528015611862578160200160208202803683370190505b50905060005b865181101561194f5786818151811061187d57fe5b60200260200101518260008151811061189257fe5b60200260200101818152505060005b60018603811015611915576118f38582815181106118bb57fe5b60200260200101518683600101815181106118d257fe5b60200260200101518584815181106118e657fe5b6020026020010151611e71565b83826001018151811061190257fe5b60209081029190910101526001016118a1565b5081600186038151811061192557fe5b602002602001015186826001018151811061193c57fe5b6020908102919091010152600101611868565b50505050509392505050565b6040517fdb006a750000000000000000000000000000000000000000000000000000000081526001600160a01b0383169063db006a75906119a09084906004016126de565b606060405180830381600087803b1580156119ba57600080fd5b505af11580156119ce573d6000803e3d6000fd5b505050506040513d601f19601f820116820180604052508101906119f291906123e8565b5050505050565b60006001821480611a0a5750600282145b80611a155750600382145b1561075257506001610756565b5050565b6000610fb983836040518060400160405280601e81526020017f536166654d6174683a207375627472616374696f6e206f766572666c6f770000815250611eb4565b600060016003831115611a7a57600392505b838310611a85578392505b60015b838111611aba57600160005b82811015611aac578087039190910290600101611a94565b509190910190600101611a88565b509392505050565b600082611ad157506000610845565b82820282848281611ade57fe5b0414610fb95760405162461bcd60e51b8152600401611afc90612681565b60405180910390fd5b6000610fb983836040518060400160405280601a81526020017f536166654d6174683a206469766973696f6e206279207a65726f000000000000815250611ee0565b600082820183811015610fb95760405162461bcd60e51b8152600401611afc9061264a565b600084611c5f576000825160010167ffffffffffffffff81118015611b9057600080fd5b50604051908082528060200260200182016040528015611bba578160200160208202803683370190505b50905060005b8351811015611c0957838181518110611bd557fe5b6020026020010151828281518110611be957fe5b6001600160a01b0390921660209283029190910190910152600101611bc0565b508481600183510381518110611c1b57fe5b60200260200101906001600160a01b031690816001600160a01b03168152505080888881518110611c4857fe5b602002602001018190525086600101915050611e67565b60005b8351811015611e62576000835160010167ffffffffffffffff81118015611c8857600080fd5b50604051908082528060200260200182016040528015611cb2578160200160208202803683370190505b50905060005b8451811015611d0157848181518110611ccd57fe5b6020026020010151828281518110611ce157fe5b6001600160a01b0390921660209283029190910190910152600101611cb8565b506000858381518110611d1057fe5b602002602001015190508082600184510381518110611d2b57fe5b60200260200101906001600160a01b031690816001600160a01b0316815250506000805b8751811015611d8e576000888281518110611d6657fe5b60200260200101519050611d7a8582611f17565b611d85576001909201915b50600101611d4f565b5060008167ffffffffffffffff81118015611da857600080fd5b50604051908082528060200260200182016040528015611dd2578160200160208202803683370190505b5090506000805b8951811015611e3d5760008a8281518110611df057fe5b60200260200101519050611e048782611f17565b611e345780848481518110611e1557fe5b6001600160a01b03909216602092830291909101909101526001909201915b50600101611dd9565b50611e4f8d8d60018e038d868a611b6c565b9b505060019094019350611c6292505050565b508590505b9695505050505050565b600081611e8057506000610fb9565b610c6c611ea4611e92846103e5611ac2565b611e9e876103e8611ac2565b90611b47565b6110526103e56113878688611ac2565b60008184841115611ed85760405162461bcd60e51b8152600401611afc91906125f7565b505050900390565b60008183611f015760405162461bcd60e51b8152600401611afc91906125f7565b506000838581611f0d57fe5b0495945050505050565b6000805b8351811015611f6357838181518110611f3057fe5b60200260200101516001600160a01b0316836001600160a01b03161415611f5b576001915050610845565b600101611f1b565b5060009392505050565b803561075681612744565b600082601f830112611f88578081fd5b81356020611f9d611f9883612726565b612702565b8281528181019085830183850287018401881015611fb9578586fd5b855b85811015611fe0578135611fce81612744565b84529284019290840190600101611fbb565b5090979650505050505050565b600082601f830112611ffd578081fd5b8135602061200d611f9883612726565b8281528181019085830183850287018401881015612029578586fd5b855b85811015611fe05781358452928401929084019060010161202b565b600060208284031215612058578081fd5b8135610fb981612744565b600060208284031215612074578081fd5b8151610fb981612744565b60008060008060808587031215612094578283fd5b843561209f81612744565b935060208501356120af81612744565b9250604085013567ffffffffffffffff8111156120ca578283fd5b6120d687828801611f78565b949793965093946060013593505050565b600080604083850312156120f9578182fd5b823561210481612744565b9150602083013567ffffffffffffffff81111561211f578182fd5b61212b85828601611f78565b9150509250929050565b600080600060608486031215612149578283fd5b833561215481612744565b9250602084013567ffffffffffffffff80821115612170578384fd5b61217c87838801611f78565b93506040860135915080821115612191578283fd5b5061219e86828701611fed565b9150509250925092565b600080600080608085870312156121bd578384fd5b84356121c881612744565b9350602085013567ffffffffffffffff8111156121e3578384fd5b6121ef87828801611f78565b93505060408501359150606085013561220781612744565b939692955090935050565b600080600060608486031215612226578283fd5b833561223181612744565b9250602084013567ffffffffffffffff81111561224c578283fd5b61225886828701611fed565b925050604084013590509250925092565b6000806040838503121561227b578182fd5b823561228681612744565b946020939093013593505050565b600080600080608085870312156122a9578384fd5b84356122b481612744565b966020860135965060408601359560600135945092505050565b60008060008084860360a08112156122e4578283fd5b60408112156122f1578283fd5b506040516040810167ffffffffffffffff828210818311171561231057fe5b81604052873583526020880135915061232882612744565b8160208401528296506040880135925080831115612344578485fd5b61235089848a01611f78565b95506060880135925080831115612365578485fd5b505061237387828801611fed565b92505061238260808601611f6d565b905092959194509250565b60006020828403121561239e578081fd5b5035919050565b6000602082840312156123b6578081fd5b5051919050565b6000806000606084860312156123d1578081fd5b505081359360208301359350604090920135919050565b6000806000606084860312156123fc578081fd5b8351925060208401519150604084015190509250925092565b6000806000806080858703121561242a578182fd5b84519350602085015192506040850151915060608501518015158114612207578182fd5b6000815180845260208085019450808401835b8381101561247d57815187529582019590820190600101612461565b509495945050505050565b6001600160a01b0391909116815260200190565b6001600160a01b0392831681529116602082015260400190565b6001600160a01b0393841681529183166020830152909116604082015260600190565b6000602080830181845280855180835260408601915060408482028701019250838701855b8281101561255b57878503603f19018452815180518087529087019087870190895b818110156125455783516001600160a01b031683529289019291890191600101612520565b50909650505092850192908501906001016124fe565b5092979650505050505050565b6000602080830181845280855180835260408601915060408482028701019250838701855b8281101561255b57603f198886030184526125a985835161244e565b9450928501929085019060010161258d565b600060208252610fb9602083018461244e565b901515815260200190565b600f93840b81529190920b6020820152604081019190915260600190565b6000602080835283518082850152825b8181101561262357858101830151858201604001528201612607565b818111156126345783604083870101525b50601f01601f1916929092016040019392505050565b6020808252601b908201527f536166654d6174683a206164646974696f6e206f766572666c6f770000000000604082015260600190565b60208082526021908201527f536166654d6174683a206d756c7469706c69636174696f6e206f766572666c6f60408201527f7700000000000000000000000000000000000000000000000000000000000000606082015260800190565b90815260200190565b93845260208401929092526040830152606082015260800190565b60405181810167ffffffffffffffff8111828210171561271e57fe5b604052919050565b600067ffffffffffffffff82111561273a57fe5b5060209081020190565b6001600160a01b038116811461119c57600080fdfea264697066735822122040be2741bf9c5ac1401d6381cebe2456ee8e93bf5f443238cf4ca59d5d061af064736f6c63430007060033",
  "linkReferences": {},
  "deployedLinkReferences": {}
}