{
  "_format": "hh-sol-artifact-1",
  "contractName": "LErc20DelegatorFactory",
  "sourceName": "contracts/compound/LErc20DelegatorFactory.sol",
  "abi": [
    {
      "inputs": [],
      "payable": false,
      "stateMutability": "nonpayable",
      "type": "constructor"
    },
    {
      "anonymous": false,
      "inputs": [
        {
          "indexed": false,
          "internalType": "contract ComptrollerInterfaceV2",
          "name": "oldComptroller",
          "type": "address"
        },
        {
          "indexed": false,
          "internalType": "contract ComptrollerInterfaceV2",
          "name": "newComptroller",
          "type": "address"
        }
      ],
      "name": "NewComptroller",
      "type": "event"
    },
    {
      "anonymous": false,
      "inputs": [
        {
          "indexed": false,
          "internalType": "address",
          "name": "token",
          "type": "address"
        },
        {
          "indexed": false,
          "internalType": "address",
          "name": "delegator",
          "type": "address"
        }
      ],
      "name": "NewDelegator",
      "type": "event"
    },
    {
      "anonymous": false,
      "inputs": [
        {
          "indexed": false,
          "internalType": "address",
          "name": "oldDelegatorAdmin",
          "type": "address"
        },
        {
          "indexed": false,
          "internalType": "address",
          "name": "delegatorAdmin",
          "type": "address"
        }
      ],
      "name": "NewDelegatorAdmin",
      "type": "event"
    },
    {
      "anonymous": false,
      "inputs": [
        {
          "indexed": false,
          "internalType": "address",
          "name": "oldImplementation",
          "type": "address"
        },
        {
          "indexed": false,
          "internalType": "address",
          "name": "implementation",
          "type": "address"
        }
      ],
      "name": "NewImplementation",
      "type": "event"
    },
    {
      "anonymous": false,
      "inputs": [
        {
          "indexed": false,
          "internalType": "contract InterestRateModel",
          "name": "oldInterestRateModel",
          "type": "address"
        },
        {
          "indexed": false,
          "internalType": "contract InterestRateModel",
          "name": "interestRateModel",
          "type": "address"
        }
      ],
      "name": "NewInterestRateModel",
      "type": "event"
    },
    {
      "anonymous": false,
      "inputs": [
        {
          "indexed": false,
          "internalType": "address",
          "name": "newSwapPairAddress",
          "type": "address"
        }
      ],
      "name": "NewSwapPairAddress",
      "type": "event"
    },
    {
      "constant": false,
      "inputs": [],
      "name": "_acceptAdmin",
      "outputs": [],
      "payable": false,
      "stateMutability": "nonpayable",
      "type": "function"
    },
    {
      "constant": false,
      "inputs": [
        {
          "internalType": "contract ComptrollerInterfaceV2",
          "name": "comptroller_",
          "type": "address"
        }
      ],
      "name": "_setComptroller",
      "outputs": [],
      "payable": false,
      "stateMutability": "nonpayable",
      "type": "function"
    },
    {
      "constant": false,
      "inputs": [
        {
          "internalType": "address payable",
          "name": "delegatorAdmin_",
          "type": "address"
        }
      ],
      "name": "_setDelegatorAdmin",
      "outputs": [],
      "payable": false,
      "stateMutability": "nonpayable",
      "type": "function"
    },
    {
      "constant": false,
      "inputs": [
        {
          "internalType": "uint256",
          "name": "exchangeRateMantissa",
          "type": "uint256"
        }
      ],
      "name": "_setExchangeRateMantissa",
      "outputs": [],
      "payable": false,
      "stateMutability": "nonpayable",
      "type": "function"
    },
    {
      "constant": false,
      "inputs": [
        {
          "internalType": "address",
          "name": "implementation_",
          "type": "address"
        }
      ],
      "name": "_setImplementation",
      "outputs": [],
      "payable": false,
      "stateMutability": "nonpayable",
      "type": "function"
    },
    {
      "constant": false,
      "inputs": [
        {
          "internalType": "contract InterestRateModel",
          "name": "interestRateModel_",
          "type": "address"
        }
      ],
      "name": "_setInterestRateModel",
      "outputs": [],
      "payable": false,
      "stateMutability": "nonpayable",
      "type": "function"
    },
    {
      "constant": false,
      "inputs": [
        {
          "internalType": "address payable",
          "name": "pendingAdmin_",
          "type": "address"
        }
      ],
      "name": "_setPendingAdmin",
      "outputs": [],
      "payable": false,
      "stateMutability": "nonpayable",
      "type": "function"
    },
    {
      "constant": false,
      "inputs": [
        {
          "internalType": "address",
          "name": "swapPairAddress_",
          "type": "address"
        },
        {
          "internalType": "bool",
          "name": "flag",
          "type": "bool"
        }
      ],
      "name": "_setSwapPairAddress",
      "outputs": [],
      "payable": false,
      "stateMutability": "nonpayable",
      "type": "function"
    },
    {
      "constant": true,
      "inputs": [],
      "name": "admin",
      "outputs": [
        {
          "internalType": "address payable",
          "name": "",
          "type": "address"
        }
      ],
      "payable": false,
      "stateMutability": "view",
      "type": "function"
    },
    {
      "constant": true,
      "inputs": [],
      "name": "becomeImplementationData",
      "outputs": [
        {
          "internalType": "bytes",
          "name": "",
          "type": "bytes"
        }
      ],
      "payable": false,
      "stateMutability": "view",
      "type": "function"
    },
    {
      "constant": true,
      "inputs": [],
      "name": "comptroller",
      "outputs": [
        {
          "internalType": "contract ComptrollerInterfaceV2",
          "name": "",
          "type": "address"
        }
      ],
      "payable": false,
      "stateMutability": "view",
      "type": "function"
    },
    {
      "constant": true,
      "inputs": [],
      "name": "dalegatorAdmin",
      "outputs": [
        {
          "internalType": "address payable",
          "name": "",
          "type": "address"
        }
      ],
      "payable": false,
      "stateMutability": "view",
      "type": "function"
    },
    {
      "constant": true,
      "inputs": [],
      "name": "decimals",
      "outputs": [
        {
          "internalType": "uint8",
          "name": "",
          "type": "uint8"
        }
      ],
      "payable": false,
      "stateMutability": "view",
      "type": "function"
    },
    {
      "constant": false,
      "inputs": [
        {
          "internalType": "address",
          "name": "underlying_",
          "type": "address"
        },
        {
          "internalType": "contract ComptrollerInterfaceV2",
          "name": "comptroller_",
          "type": "address"
        },
        {
          "internalType": "contract InterestRateModel",
          "name": "interestRateModel_",
          "type": "address"
        },
        {
          "internalType": "uint256",
          "name": "initialExchangeRateMantissa_",
          "type": "uint256"
        },
        {
          "internalType": "string",
          "name": "name_",
          "type": "string"
        },
        {
          "internalType": "string",
          "name": "symbol_",
          "type": "string"
        },
        {
          "internalType": "uint8",
          "name": "decimals_",
          "type": "uint8"
        },
        {
          "internalType": "address payable",
          "name": "admin_",
          "type": "address"
        },
        {
          "internalType": "address",
          "name": "implementation_",
          "type": "address"
        },
        {
          "internalType": "bytes",
          "name": "becomeImplementationData",
          "type": "bytes"
        }
      ],
      "name": "delegateToInitialize",
      "outputs": [],
      "payable": false,
      "stateMutability": "nonpayable",
      "type": "function"
    },
    {
      "constant": false,
      "inputs": [
        {
          "internalType": "address",
          "name": "token",
          "type": "address"
        }
      ],
      "name": "getCTokenAddress",
      "outputs": [
        {
          "internalType": "address",
          "name": "cToken",
          "type": "address"
        }
      ],
      "payable": false,
      "stateMutability": "nonpayable",
      "type": "function"
    },
    {
      "constant": true,
      "inputs": [
        {
          "internalType": "address",
          "name": "token",
          "type": "address"
        }
      ],
      "name": "getCTokenAddressPure",
      "outputs": [
        {
          "internalType": "address",
          "name": "cToken",
          "type": "address"
        }
      ],
      "payable": false,
      "stateMutability": "view",
      "type": "function"
    },
    {
      "constant": true,
      "inputs": [
        {
          "internalType": "address",
          "name": "cToken",
          "type": "address"
        }
      ],
      "name": "getTokenAddress",
      "outputs": [
        {
          "internalType": "address",
          "name": "",
          "type": "address"
        }
      ],
      "payable": false,
      "stateMutability": "view",
      "type": "function"
    },
    {
      "constant": true,
      "inputs": [],
      "name": "implementation",
      "outputs": [
        {
          "internalType": "address",
          "name": "",
          "type": "address"
        }
      ],
      "payable": false,
      "stateMutability": "view",
      "type": "function"
    },
    {
      "constant": true,
      "inputs": [],
      "name": "initialExchangeRateMantissa",
      "outputs": [
        {
          "internalType": "uint256",
          "name": "",
          "type": "uint256"
        }
      ],
      "payable": false,
      "stateMutability": "view",
      "type": "function"
    },
    {
      "constant": true,
      "inputs": [],
      "name": "interestRateModel",
      "outputs": [
        {
          "internalType": "contract InterestRateModel",
          "name": "",
          "type": "address"
        }
      ],
      "payable": false,
      "stateMutability": "view",
      "type": "function"
    },
    {
      "constant": true,
      "inputs": [],
      "name": "pendingAdmin",
      "outputs": [
        {
          "internalType": "address payable",
          "name": "",
          "type": "address"
        }
      ],
      "payable": false,
      "stateMutability": "view",
      "type": "function"
    }
  ],
  "bytecode": "0x6080604052670de0b6b3a76400006006556007805460ff1916601217905534801561002957600080fd5b50600180546001600160a01b03191633179055612d9c8061004b6000396000f3fe608060405234801561001057600080fd5b50600436106101375760003560e01c806373c41d1e116100b8578063cc7dbe8a1161007c578063cc7dbe8a14610531578063e297943e14610557578063e9c714f21461057d578063f2b3abbd14610585578063f3fdb15a146105ab578063f851a440146105b357610137565b806373c41d1e1461043a578063b71d1a0c14610442578063b825f2eb14610468578063b8d7b669146104e5578063bb913f411461050b57610137565b80634d17b280116100ff5780634d17b280146101e95780634ea7ba69146102175780635c60da1b146104105780635fe3b56714610418578063675d972c1461042057610137565b80631ef3f7201461013c578063267822471461015b57806326c7bd931461017f578063313ce567146101a55780634576b5db146101c3575b600080fd5b6101596004803603602081101561015257600080fd5b50356105bb565b005b610163610613565b604080516001600160a01b039092168252519081900360200190f35b6101636004803603602081101561019557600080fd5b50356001600160a01b0316610622565b6101ad6106c4565b6040805160ff9092168252519081900360200190f35b610159600480360360208110156101d957600080fd5b50356001600160a01b03166106cd565b610159600480360360408110156101ff57600080fd5b506001600160a01b0381351690602001351515610782565b610159600480360361014081101561022e57600080fd5b6001600160a01b03823581169260208101358216926040820135909216916060820135919081019060a081016080820135600160201b81111561027057600080fd5b82018360208201111561028257600080fd5b803590602001918460018302840111600160201b831117156102a357600080fd5b91908080601f0160208091040260200160405190810160405280939291908181526020018383808284376000920191909152509295949360208101935035915050600160201b8111156102f557600080fd5b82018360208201111561030757600080fd5b803590602001918460018302840111600160201b8311171561032857600080fd5b91908080601f016020809104026020016040519081016040528093929190818152602001838380828437600092019190915250929560ff853516956001600160a01b036020870135811696604081013590911695509193509150608081019060600135600160201b81111561039c57600080fd5b8201836020820111156103ae57600080fd5b803590602001918460018302840111600160201b831117156103cf57600080fd5b91908080601f016020809104026020016040519081016040528093929190818152602001838380828437600092019190915250929550610830945050505050565b61016361083c565b610163610850565b61042861085f565b60408051918252519081900360200190f35b610163610865565b6101596004803603602081101561045857600080fd5b50356001600160a01b0316610874565b6104706108df565b6040805160208082528351818301528351919283929083019185019080838360005b838110156104aa578181015183820152602001610492565b50505050905090810190601f1680156104d75780820380516001836020036101000a031916815260200191505b509250505060405180910390f35b610163600480360360208110156104fb57600080fd5b50356001600160a01b031661096d565b6101596004803603602081101561052157600080fd5b50356001600160a01b03166109f4565b6101596004803603602081101561054757600080fd5b50356001600160a01b0316610ab6565b6101636004803603602081101561056d57600080fd5b50356001600160a01b0316610b6b565b610159610bbf565b6101596004803603602081101561059b57600080fd5b50356001600160a01b0316610c2c565b610163610ce1565b610163610cf0565b6001546001600160a01b0316331461060e576040805162461bcd60e51b815260206004820152601160248201527014195c9b5a5cdcda5bdb8819195b9a5959607a1b604482015290519081900360640190fd5b600655565b6002546001600160a01b031681565b60048054604080516331975b6960e01b81526001600160a01b038581169482019490945290516000939092169182916331975b69916024808301926020929190829003018186803b15801561067657600080fd5b505afa15801561068a573d6000803e3d6000fd5b505050506040513d60208110156106a057600080fd5b505191506001600160a01b0382166106be576106bb83610cff565b91505b50919050565b60075460ff1681565b6001546001600160a01b03163314610720576040805162461bcd60e51b815260206004820152601160248201527014195c9b5a5cdcda5bdb8819195b9a5959607a1b604482015290519081900360640190fd5b600480546001600160a01b038381166001600160a01b0319831617928390556040805192821680845293909116602083015280517f7ac369dbd14fa5ea3f473ed67cc9d598964a77501540ba6751eb0b3decf5870d9281900390910190a15050565b6001546001600160a01b031633146107d5576040805162461bcd60e51b815260206004820152601160248201527014195c9b5a5cdcda5bdb8819195b9a5959607a1b604482015290519081900360640190fd5b6001600160a01b03821660008181526020818152604091829020805460ff1916851515179055815192835290517f3d70625af0875b1ed2fcf226b039320d513231fb931f062cdb671113d987f3ef9281900390910190a15050565b50505050505050505050565b60075461010090046001600160a01b031681565b6004546001600160a01b031681565b60065481565b6003546001600160a01b031681565b6001546001600160a01b031633146108bd5760405162461bcd60e51b8152600401808060200182810382526028815260200180612d156028913960400191505060405180910390fd5b600280546001600160a01b0319166001600160a01b0392909216919091179055565b6008805460408051602060026001851615610100026000190190941693909304601f810184900484028201840190925281815292918301828280156109655780601f1061093a57610100808354040283529160200191610965565b820191906000526020600020905b81548152906001019060200180831161094857829003601f168201915b505050505081565b6004805460408051638708ec6360e01b81526001600160a01b03858116948201949094529051600093909216918291638708ec63916024808301926020929190829003018186803b1580156109c157600080fd5b505afa1580156109d5573d6000803e3d6000fd5b505050506040513d60208110156109eb57600080fd5b50519392505050565b6001546001600160a01b03163314610a47576040805162461bcd60e51b815260206004820152601160248201527014195c9b5a5cdcda5bdb8819195b9a5959607a1b604482015290519081900360640190fd5b600780546001600160a01b03838116610100908102610100600160a81b03198416179384905560408051938290048316808552919094049091166020830152825190927fd604de94d45953f9138079ec1b82d533cb2160c906d1076d1f7ed54befbca97a928290030190a15050565b6001546001600160a01b03163314610b09576040805162461bcd60e51b815260206004820152601160248201527014195c9b5a5cdcda5bdb8819195b9a5959607a1b604482015290519081900360640190fd5b600380546001600160a01b038381166001600160a01b0319831617928390556040805192821680845293909116602083015280517f78cfba60dbe75fc0cae54ce858fcbc96ca319b307f7968fb1ba114619e21b9399281900390910190a15050565b60048054604080516331975b6960e01b81526001600160a01b038581169482019490945290516000939092169182916331975b69916024808301926020929190829003018186803b1580156109c157600080fd5b6002546001600160a01b03163314610c085760405162461bcd60e51b815260040180806020018281038252602b815260200180612d3d602b913960400191505060405180910390fd5b600254600180546001600160a01b0319166001600160a01b03909216919091179055565b6001546001600160a01b03163314610c7f576040805162461bcd60e51b815260206004820152601160248201527014195c9b5a5cdcda5bdb8819195b9a5959607a1b604482015290519081900360640190fd5b600580546001600160a01b038381166001600160a01b0319831617928390556040805192821680845293909116602083015280517feb5cc99f497dc2d7106563bb080e06c9b09e3d81a38623ac4d0839575658d1fa9281900390910190a15050565b6005546001600160a01b031681565b6001546001600160a01b031681565b60006001600160a01b038216610d49576040805162461bcd60e51b815260206004820152600a6024820152692d22a927afaa27a5a2a760b11b604482015290519081900360640190fd5b6004546001600160a01b0316610d92576040805162461bcd60e51b815260206004820152600960248201526805a45524f5f434f4d560bc1b604482015290519081900360640190fd5b6005546001600160a01b0316610ddb576040805162461bcd60e51b81526020600482015260096024820152685a45524f5f5241544560b81b604482015290519081900360640190fd5b600060065411610e26576040805162461bcd60e51b81526020600482015260116024820152705a45524f5f45584348414e47455241544560781b604482015290519081900360640190fd5b6003546001600160a01b0316610e70576040805162461bcd60e51b815260206004820152600a6024820152692d22a927afa0a226a4a760b11b604482015290519081900360640190fd5b60075461010090046001600160a01b0316610ebe576040805162461bcd60e51b815260206004820152600960248201526816915493d7d253541360ba1b604482015290519081900360640190fd5b606060405180602001610ed0906114e2565b6020820181038252601f19601f82011660405250905060008360405160200180826001600160a01b03166001600160a01b031660601b8152601401915050604051602081830303815290604052805190602001209050808251602084016000f592506000849050836001600160a01b0316634ea7ba6986600460009054906101000a90046001600160a01b0316600560009054906101000a90046001600160a01b03166006546110bc604051806040016040528060018152602001604560f81b815250886001600160a01b03166306fdde036040518163ffffffff1660e01b815260040160006040518083038186803b158015610fcc57600080fd5b505afa158015610fe0573d6000803e3d6000fd5b505050506040513d6000823e601f3d908101601f19168201604052602081101561100957600080fd5b8101908080516040519392919084600160201b82111561102857600080fd5b90830190602082018581111561103d57600080fd5b8251600160201b81118282018810171561105657600080fd5b82525081516020918201929091019080838360005b8381101561108357818101518382015260200161106b565b50505050905090810190601f1680156110b05780820380516001836020036101000a031916815260200191505b506040525050506113eb565b61111760405180604001604052806006815260200165022a120a725960d51b815250896001600160a01b03166306fdde036040518163ffffffff1660e01b815260040160006040518083038186803b158015610fcc57600080fd5b6007546003546040516001600160e01b031960e08b901b1681526001600160a01b0389811660048301908152898216602484015288821660448401526064830188905260ff851660c4840181905293821660e484018190526101009095049091166101048301819052610140608484019081528751610144850152875194959491936008939260a48201916101248101916101649091019060208c019080838360005b838110156111d25781810151838201526020016111ba565b50505050905090810190601f1680156111ff5780820380516001836020036101000a031916815260200191505b5084810383528951815289516020918201918b019080838360005b8381101561123257818101518382015260200161121a565b50505050905090810190601f16801561125f5780820380516001836020036101000a031916815260200191505b508481038252855460026000196101006001841615020190911604808252602090910190869080156112d25780601f106112a7576101008083540402835291602001916112d2565b820191906000526020600020905b8154815290600101906020018083116112b557829003601f168201915b50509d5050505050505050505050505050600060405180830381600087803b1580156112fd57600080fd5b505af1158015611311573d6000803e3d6000fd5b5050600480546040805163c1abfaa360e01b81526001600160a01b038b8116948201949094528984166024820152905192909116935083925063c1abfaa39160448083019260209291908290030181600087803b15801561137157600080fd5b505af1158015611385573d6000803e3d6000fd5b505050506040513d602081101561139b57600080fd5b5050604080516001600160a01b0380891682528716602082015281517fe0be553bc4b60ab2401743efd789355e794b45be2c29f9e5f709210fe2c0f01b929181900390910190a150505050919050565b6060808390506060839050606081518351016040519080825280601f01601f191660200182016040528015611427576020820181803883390190505b509050806000805b85518110156114805785818151811061144457fe5b602001015160f81c60f81b83838060010194508151811061146157fe5b60200101906001600160f81b031916908160001a90535060010161142f565b5060005b84518110156114d55784818151811061149957fe5b602001015160f81c60f81b8383806001019450815181106114b657fe5b60200101906001600160f81b031916908160001a905350600101611484565b5091979650505050505050565b611825806114f08339019056fe608060405234801561001057600080fd5b5060038054610100600160a81b03191633610100021790556117ee806100376000396000f3fe6080604052600436106103505760003560e01c806370a08231116101c6578063b71d1a0c116100f7578063f2b3abbd11610095578063f851a4401161006f578063f851a44014610cfe578063f8f9da28146105ea578063fca7820b14610520578063fe9c44ae14610d1357610350565b8063f2b3abbd146105a2578063f3fdb15a14610ca6578063f5e3c46214610cbb57610350565b8063db006a75116100d1578063db006a7514610b53578063dd62ed3e14610c6b578063e9c714f214610afb578063ea5b375e1461052057610350565b8063b71d1a0c146105a2578063bd6d894d14610afb578063c37f68e214610c1257610350565b8063a0712d6811610164578063aa5af0fd1161013e578063aa5af0fd14610bc5578063ab317fd914610bda578063ae9d70b0146105ea578063b2a02ff114610bef57610350565b8063a0712d6814610b10578063a6afed9514610afb578063a9059cbb146104d357610350565b8063852a12e3116101a0578063852a12e314610b535780638f840ddd14610b9b57806395d89b4114610bb057806395dd919314610ac857610350565b806370a0823114610ac857806373acee9814610afb578063822df1b414610b1057610350565b80633af9e669116102a05780634ea7ba691161023e5780635fe3b567116102185780635fe3b56714610a89578063601a0bf1146105205780636c540baf14610a9e5780636f307dc314610ab357610350565b80634ea7ba69146107a4578063555bcc40146109ac5780635c60da1b14610a7457610350565b80634487152f1161027a5780634487152f146106a55780634576b5db146105a257806347bd3718146107565780634b3fd1481461076b57610350565b80633af9e669146105a25780633b1d21a2146105ea5780633e9410101461052057610350565b806317bfdfbc1161030d57806323b872dd116102e757806323b872dd146105ff5780632608f818146106425780632678224714610665578063313ce5671461067a57610350565b806317bfdfbc146105a257806318160ddd146105d5578063182df0f5146105ea57610350565b806306fdde03146103985780630933c1ed14610422578063095ea7b3146104d35780630e75270214610520578063106d37861461055c578063173b99041461058d575b341561038d5760405162461bcd60e51b815260040180806020018281038252603781526020018061174a6037913960400191505060405180910390fd5b610395610d28565b50005b3480156103a457600080fd5b506103ad610db0565b6040805160208082528351818301528351919283929083019185019080838360005b838110156103e75781810151838201526020016103cf565b50505050905090810190601f1680156104145780820380516001836020036101000a031916815260200191505b509250505060405180910390f35b34801561042e57600080fd5b506103ad6004803603602081101561044557600080fd5b810190602081018135600160201b81111561045f57600080fd5b82018360208201111561047157600080fd5b803590602001918460018302840111600160201b8311171561049257600080fd5b91908080601f016020809104026020016040519081016040528093929190818152602001838380828437600092019190915250929550610e3d945050505050565b3480156104df57600080fd5b5061050c600480360360408110156104f657600080fd5b506001600160a01b038135169060200135610e5c565b604080519115158252519081900360200190f35b34801561052c57600080fd5b5061054a6004803603602081101561054357600080fd5b5035610e6d565b60408051918252519081900360200190f35b34801561056857600080fd5b50610571610e7d565b604080516001600160a01b039092168252519081900360200190f35b34801561059957600080fd5b5061054a610e8c565b3480156105ae57600080fd5b5061054a600480360360208110156105c557600080fd5b50356001600160a01b0316610e6d565b3480156105e157600080fd5b5061054a610e92565b3480156105f657600080fd5b5061054a610e98565b34801561060b57600080fd5b5061050c6004803603606081101561062257600080fd5b506001600160a01b03813581169160208101359091169060400135610ea6565b34801561064e57600080fd5b5061054a600480360360408110156104f657600080fd5b34801561067157600080fd5b50610571610eb8565b34801561068657600080fd5b5061068f610ec7565b6040805160ff9092168252519081900360200190f35b3480156106b157600080fd5b506103ad600480360360208110156106c857600080fd5b810190602081018135600160201b8111156106e257600080fd5b8201836020820111156106f457600080fd5b803590602001918460018302840111600160201b8311171561071557600080fd5b91908080601f016020809104026020016040519081016040528093929190818152602001838380828437600092019190915250929550610ed0945050505050565b34801561076257600080fd5b5061054a6110ef565b34801561077757600080fd5b5061054a6004803603604081101561078e57600080fd5b50803590602001356001600160a01b0316610e5c565b3480156107b057600080fd5b506109aa60048036036101408110156107c857600080fd5b6001600160a01b03823581169260208101358216926040820135909216916060820135919081019060a081016080820135600160201b81111561080a57600080fd5b82018360208201111561081c57600080fd5b803590602001918460018302840111600160201b8311171561083d57600080fd5b91908080601f0160208091040260200160405190810160405280939291908181526020018383808284376000920191909152509295949360208101935035915050600160201b81111561088f57600080fd5b8201836020820111156108a157600080fd5b803590602001918460018302840111600160201b831117156108c257600080fd5b91908080601f016020809104026020016040519081016040528093929190818152602001838380828437600092019190915250929560ff853516956001600160a01b036020870135811696604081013590911695509193509150608081019060600135600160201b81111561093657600080fd5b82018360208201111561094857600080fd5b803590602001918460018302840111600160201b8311171561096957600080fd5b91908080601f0160208091040260200160405190810160405280939291908181526020018383808284376000920191909152509295506110f5945050505050565b005b3480156109b857600080fd5b506109aa600480360360608110156109cf57600080fd5b6001600160a01b03823516916020810135151591810190606081016040820135600160201b811115610a0057600080fd5b820183602082011115610a1257600080fd5b803590602001918460018302840111600160201b83111715610a3357600080fd5b91908080601f0160208091040260200160405190810160405280939291908181526020018383808284376000920191909152509295506112a5945050505050565b348015610a8057600080fd5b50610571611448565b348015610a9557600080fd5b50610571611457565b348015610aaa57600080fd5b5061054a611466565b348015610abf57600080fd5b5061057161146c565b348015610ad457600080fd5b5061054a60048036036020811015610aeb57600080fd5b50356001600160a01b031661147b565b348015610b0757600080fd5b5061054a611485565b348015610b1c57600080fd5b50610b3a60048036036020811015610b3357600080fd5b503561148f565b6040805192835260208301919091528051918290030190f35b348015610b5f57600080fd5b50610b7d60048036036020811015610b7657600080fd5b50356114a0565b60408051938452602084019290925282820152519081900360600190f35b348015610ba757600080fd5b5061054a6114b5565b348015610bbc57600080fd5b506103ad6114bb565b348015610bd157600080fd5b5061054a611513565b348015610be657600080fd5b5061054a611519565b348015610bfb57600080fd5b5061054a6004803603606081101561062257600080fd5b348015610c1e57600080fd5b50610c4560048036036020811015610c3557600080fd5b50356001600160a01b031661151f565b604080519485526020850193909352838301919091526060830152519081900360800190f35b348015610c7757600080fd5b5061054a60048036036040811015610c8e57600080fd5b506001600160a01b0381358116916020013516611535565b348015610cb257600080fd5b5061057161153f565b348015610cc757600080fd5b5061054a60048036036060811015610cde57600080fd5b506001600160a01b03813581169160208101359160409091013516610ea6565b348015610d0a57600080fd5b5061057161154e565b348015610d1f57600080fd5b5061050c611562565b6014546040516060916000916001600160a01b0390911690829036908083838082843760405192019450600093509091505080830381855af49150503d8060008114610d90576040519150601f19603f3d011682016040523d82523d6000602084013e610d95565b606091505b505090506040513d6000823e818015610dac573d82f35b3d82fd5b60018054604080516020600284861615610100026000190190941693909304601f81018490048402820184019092528181529291830182828015610e355780601f10610e0a57610100808354040283529160200191610e35565b820191906000526020600020905b815481529060010190602001808311610e1857829003601f168201915b505050505081565b601454606090610e56906001600160a01b031683611567565b92915050565b6000610e66610d28565b5092915050565b6000610e77610d28565b50919050565b6006546001600160a01b031681565b60095481565b600e5481565b6000610ea2611629565b5090565b6000610eb0610d28565b509392505050565b6004546001600160a01b031681565b60035460ff1681565b606060006060306001600160a01b0316846040516024018080602001828103825283818151815260200191508051906020019080838360005b83811015610f21578181015183820152602001610f09565b50505050905090810190601f168015610f4e5780820380516001836020036101000a031916815260200191505b5060408051601f198184030181529181526020820180516001600160e01b0316630933c1ed60e01b178152905182519295509350839250908083835b60208310610fa95780518252601f199092019160209182019101610f8a565b6001836020036101000a038019825116818451168082178552505050505050905001915050600060405180830381855afa9150503d8060008114611009576040519150601f19603f3d011682016040523d82523d6000602084013e61100e565b606091505b50915091506000821415611023573d60208201fd5b80806020019051602081101561103857600080fd5b8101908080516040519392919084600160201b82111561105757600080fd5b90830190602082018581111561106c57600080fd5b8251600160201b81118282018810171561108557600080fd5b82525081516020918201929091019080838360005b838110156110b257818101518382015260200161109a565b50505050905090810190601f1680156110df5780820380516001836020036101000a031916815260200191505b5060405250505092505050919050565b600c5481565b611267828b8b8b8b8b8b8b60405160240180886001600160a01b03166001600160a01b03168152602001876001600160a01b03166001600160a01b03168152602001866001600160a01b03166001600160a01b0316815260200185815260200180602001806020018460ff1660ff168152602001838103835286818151815260200191508051906020019080838360005b8381101561119e578181015183820152602001611186565b50505050905090810190601f1680156111cb5780820380516001836020036101000a031916815260200191505b50838103825285518152855160209182019187019080838360005b838110156111fe5781810151838201526020016111e6565b50505050905090810190601f16801561122b5780820380516001836020036101000a031916815260200191505b5060408051601f198184030181529190526020810180516001600160e01b0316631a31d46560e01b179052995061156798505050505050505050565b50611274826000836112a5565b5050600380546001600160a01b0390921661010002610100600160a81b031990921691909117905550505050505050565b60035461010090046001600160a01b031633146112f35760405162461bcd60e51b81526004018080602001828103825260398152602001806117816039913960400191505060405180910390fd5b811561132d576040805160048152602481019091526020810180516001600160e01b031663153ab50560e01b17905261132b90610e3d565b505b601480546001600160a01b038581166001600160a01b031983161790925560405160206024820181815285516044840152855194909316936113f9938693909283926064909201919085019080838360005b8381101561139757818101518382015260200161137f565b50505050905090810190601f1680156113c45780820380516001836020036101000a031916815260200191505b5060408051601f198184030181529190526020810180516001600160e01b0316630adccee560e31b1790529250610e3d915050565b50601454604080516001600160a01b038085168252909216602083015280517fd604de94d45953f9138079ec1b82d533cb2160c906d1076d1f7ed54befbca97a9281900390910190a150505050565b6014546001600160a01b031681565b6005546001600160a01b031681565b600a5481565b6013546001600160a01b031681565b6000610e77611629565b6000610ea2610d28565b60008061149a610d28565b50915091565b60008060006114ad610d28565b509193909250565b600d5481565b6002805460408051602060018416156101000260001901909316849004601f81018490048402820184019092528181529291830182828015610e355780601f10610e0a57610100808354040283529160200191610e35565b600b5481565b600f5481565b60008060008061152d611629565b509193509193565b6000610e66611629565b6007546001600160a01b031681565b60035461010090046001600160a01b031681565b600181565b606060006060846001600160a01b0316846040518082805190602001908083835b602083106115a75780518252601f199092019160209182019101611588565b6001836020036101000a038019825116818451168082178552505050505050905001915050600060405180830381855af49150503d8060008114611607576040519150601f19603f3d011682016040523d82523d6000602084013e61160c565b606091505b50915091506000821415611621573d60208201fd5b949350505050565b60606000306001600160a01b03166000366040516024018080602001828103825284848281815260200192508082843760008382015260408051601f909201601f1990811690940182810390940182529283526020810180516001600160e01b0316630933c1ed60e01b17815292518151919750955085945091925081905083835b602083106116ca5780518252601f1990920191602091820191016116ab565b6001836020036101000a038019825116818451168082178552505050505050905001915050600060405180830381855afa9150503d806000811461172a576040519150601f19603f3d011682016040523d82523d6000602084013e61172f565b606091505b505090506040513d6000823e818015610dac573d60408301f3fe43457263323044656c656761746f723a66616c6c6261636b3a2063616e6e6f742073656e642076616c756520746f2066616c6c6261636b43457263323044656c656761746f723a3a5f736574496d706c656d656e746174696f6e3a2043616c6c6572206d7573742062652061646d696ea265627a7a723158209601c87fc19d8ee859cec9c14a4bcbb5306ebb8152070b04aca90a4b8e3ee3b964736f6c634300051000326f6e6c79207468652061646d696e206d61792063616c6c205f73657450656e64696e6741646d696e6f6e6c79207468652070656e64696e6741646d696e206d61792063616c6c205f61636365707441646d696ea265627a7a7231582045b5a6436125ae9fa8772af7f28c839e6bd5df34de582670e5293bc16b0c141264736f6c63430005100032",
  "linkReferences": {},
  "deployedLinkReferences": {}
}