{
  "_format": "hh-sol-artifact-1",
  "contractName": "OBPriceLogic",
  "sourceName": "contracts/swap/orderbook/OBPriceLogic.sol",
  "abi": [
    {
      "inputs": [
        {
          "components": [
            {
              "internalType": "address",
              "name": "srcToken",
              "type": "address"
            },
            {
              "internalType": "address",
              "name": "destToken",
              "type": "address"
            },
            {
              "internalType": "address",
              "name": "srcEToken",
              "type": "address"
            },
            {
              "internalType": "address",
              "name": "destEToken",
              "type": "address"
            },
            {
              "internalType": "uint256",
              "name": "amountIn",
              "type": "uint256"
            },
            {
              "internalType": "uint256",
              "name": "amountInMint",
              "type": "uint256"
            },
            {
              "internalType": "uint256",
              "name": "fulfiled",
              "type": "uint256"
            },
            {
              "internalType": "uint256",
              "name": "guaranteeAmountOut",
              "type": "uint256"
            },
            {
              "internalType": "uint256",
              "name": "destFulfiled",
              "type": "uint256"
            }
          ],
          "internalType": "struct DataTypes.TokenAmount",
          "name": "data",
          "type": "tuple"
        },
        {
          "internalType": "uint256",
          "name": "amtToTaken",
          "type": "uint256"
        }
      ],
      "name": "convertBuyAmountByETokenIn",
      "outputs": [
        {
          "internalType": "uint256",
          "name": "",
          "type": "uint256"
        }
      ],
      "stateMutability": "view",
      "type": "function"
    },
    {
      "inputs": [
        {
          "internalType": "contract ICToken",
          "name": "ctoken",
          "type": "ICToken"
        }
      ],
      "name": "getCurrentExchangeRate",
      "outputs": [
        {
          "internalType": "uint256",
          "name": "",
          "type": "uint256"
        }
      ],
      "stateMutability": "view",
      "type": "function"
    }
  ],
  "bytecode": "0x610702610026600b82828239805160001a60731461001957fe5b30600052607381538281f3fe730000000000000000000000000000000000000000301460806040526004361061004b5760003560e01c80630bbc1cea14610050578063271ca3c91461008657806378cbe05114610099575b600080fd5b81801561005c57600080fd5b5061007061006b3660046104bb565b6100ac565b60405161007d9190610684565b60405180910390f35b6100706100943660046104bb565b610127565b6100706100a73660046104d7565b6102c2565b6000816001600160a01b031663bd6d894d6040518163ffffffff1660e01b8152600401602060405180830381600087803b1580156100e957600080fd5b505af11580156100fd573d6000803e3d6000fd5b505050506040513d601f19601f820116820180604052508101906101219190610585565b92915050565b600080826001600160a01b031663182df0f56040518163ffffffff1660e01b815260040160206040518083038186803b15801561016357600080fd5b505afa158015610177573d6000803e3d6000fd5b505050506040513d601f19601f8201168201806040525081019061019b9190610585565b90506000836001600160a01b031663ae9d70b06040518163ffffffff1660e01b815260040160206040518083038186803b1580156101d857600080fd5b505afa1580156101ec573d6000803e3d6000fd5b505050506040513d601f19601f820116820180604052508101906102109190610585565b90506000846001600160a01b0316636c540baf6040518163ffffffff1660e01b815260040160206040518083038186803b15801561024d57600080fd5b505afa158015610261573d6000803e3d6000fd5b505050506040513d601f19601f820116820180604052508101906102859190610585565b90506000610293438361035a565b905060006102ab826102a587876103a3565b906103a3565b90506102b785826103e6565b979650505050505050565b60208201516060830151600091906001600160a01b038083169082161415610312576103098560a001516103038760e00151876103a390919063ffffffff16565b9061040b565b92505050610121565b600061031d82610127565b9050600061034482610303670de0b6b3a76400008a60e001516103a390919063ffffffff16565b60a08801519091506102b79061030388846103a3565b600061039c83836040518060400160405280601e81526020017f536166654d6174683a207375627472616374696f6e206f766572666c6f77000081525061044d565b9392505050565b6000826103b257506000610121565b828202828482816103bf57fe5b041461039c5760405162461bcd60e51b81526004016103dd90610627565b60405180910390fd5b60008282018381101561039c5760405162461bcd60e51b81526004016103dd906105f0565b600061039c83836040518060400160405280601a81526020017f536166654d6174683a206469766973696f6e206279207a65726f000000000000815250610479565b600081848411156104715760405162461bcd60e51b81526004016103dd919061059d565b505050900390565b6000818361049a5760405162461bcd60e51b81526004016103dd919061059d565b5060008385816104a657fe5b0495945050505050565b8035610121816106b4565b6000602082840312156104cc578081fd5b813561039c816106b4565b6000808284036101408112156104eb578182fd5b610120808212156104fa578283fd5b6105038161068d565b915061050f86866104b0565b825261051e86602087016104b0565b602083015261053086604087016104b0565b604083015261054286606087016104b0565b60608301526080858101359083015260a0808601359083015260c0808601359083015260e080860135908301526101008086013590830152909593013593505050565b600060208284031215610596578081fd5b5051919050565b6000602080835283518082850152825b818110156105c9578581018301518582016040015282016105ad565b818111156105da5783604083870101525b50601f01601f1916929092016040019392505050565b6020808252601b908201527f536166654d6174683a206164646974696f6e206f766572666c6f770000000000604082015260600190565b60208082526021908201527f536166654d6174683a206d756c7469706c69636174696f6e206f766572666c6f60408201527f7700000000000000000000000000000000000000000000000000000000000000606082015260800190565b90815260200190565b60405181810167ffffffffffffffff811182821017156106ac57600080fd5b604052919050565b6001600160a01b03811681146106c957600080fd5b5056fea264697066735822122058860ca4b995b1c8da175f0cf428481d3fbb17b65fe5c331ee29282e00d21c2464736f6c634300060c0033",
  "linkReferences": {},
  "deployedLinkReferences": {}
}