{
  "_format": "hh-sol-artifact-1",
  "contractName": "DeBankFactory",
  "sourceName": "contracts/swap/heco/Factory.sol",
  "abi": [
    {
      "inputs": [
        {
          "internalType": "address",
          "name": "_anchorToken",
          "type": "address"
        }
      ],
      "payable": false,
      "stateMutability": "nonpayable",
      "type": "constructor"
    },
    {
      "anonymous": false,
      "inputs": [
        {
          "indexed": true,
          "internalType": "address",
          "name": "previousOwner",
          "type": "address"
        },
        {
          "indexed": true,
          "internalType": "address",
          "name": "newOwner",
          "type": "address"
        }
      ],
      "name": "OwnershipTransferred",
      "type": "event"
    },
    {
      "anonymous": false,
      "inputs": [
        {
          "indexed": true,
          "internalType": "address",
          "name": "token0",
          "type": "address"
        },
        {
          "indexed": true,
          "internalType": "address",
          "name": "token1",
          "type": "address"
        },
        {
          "indexed": false,
          "internalType": "address",
          "name": "pair",
          "type": "address"
        },
        {
          "indexed": false,
          "internalType": "uint256",
          "name": "",
          "type": "uint256"
        }
      ],
      "name": "PairCreated",
      "type": "event"
    },
    {
      "constant": true,
      "inputs": [
        {
          "internalType": "uint256",
          "name": "",
          "type": "uint256"
        }
      ],
      "name": "allPairs",
      "outputs": [
        {
          "internalType": "address",
          "name": "",
          "type": "address"
        }
      ],
      "payable": false,
      "stateMutability": "view",
      "type": "function"
    },
    {
      "constant": true,
      "inputs": [],
      "name": "allPairsLength",
      "outputs": [
        {
          "internalType": "uint256",
          "name": "",
          "type": "uint256"
        }
      ],
      "payable": false,
      "stateMutability": "view",
      "type": "function"
    },
    {
      "constant": true,
      "inputs": [],
      "name": "anchorToken",
      "outputs": [
        {
          "internalType": "address",
          "name": "",
          "type": "address"
        }
      ],
      "payable": false,
      "stateMutability": "view",
      "type": "function"
    },
    {
      "constant": true,
      "inputs": [],
      "name": "compAddr",
      "outputs": [
        {
          "internalType": "address",
          "name": "",
          "type": "address"
        }
      ],
      "payable": false,
      "stateMutability": "view",
      "type": "function"
    },
    {
      "constant": false,
      "inputs": [
        {
          "internalType": "address",
          "name": "tokenA",
          "type": "address"
        },
        {
          "internalType": "address",
          "name": "tokenB",
          "type": "address"
        },
        {
          "internalType": "address",
          "name": "ctoken0",
          "type": "address"
        },
        {
          "internalType": "address",
          "name": "ctoken1",
          "type": "address"
        }
      ],
      "name": "createPair",
      "outputs": [
        {
          "internalType": "address",
          "name": "pair",
          "type": "address"
        }
      ],
      "payable": false,
      "stateMutability": "nonpayable",
      "type": "function"
    },
    {
      "constant": true,
      "inputs": [
        {
          "internalType": "address",
          "name": "",
          "type": "address"
        }
      ],
      "name": "feeRateOf",
      "outputs": [
        {
          "internalType": "uint256",
          "name": "",
          "type": "uint256"
        }
      ],
      "payable": false,
      "stateMutability": "view",
      "type": "function"
    },
    {
      "constant": true,
      "inputs": [],
      "name": "feeTo",
      "outputs": [
        {
          "internalType": "address",
          "name": "",
          "type": "address"
        }
      ],
      "payable": false,
      "stateMutability": "view",
      "type": "function"
    },
    {
      "constant": true,
      "inputs": [
        {
          "internalType": "uint256",
          "name": "amountOut",
          "type": "uint256"
        },
        {
          "internalType": "uint256",
          "name": "reserveIn",
          "type": "uint256"
        },
        {
          "internalType": "uint256",
          "name": "reserveOut",
          "type": "uint256"
        },
        {
          "internalType": "uint256",
          "name": "feeRate",
          "type": "uint256"
        }
      ],
      "name": "getAmountInFeeRate",
      "outputs": [
        {
          "internalType": "uint256",
          "name": "amountIn",
          "type": "uint256"
        }
      ],
      "payable": false,
      "stateMutability": "pure",
      "type": "function"
    },
    {
      "constant": true,
      "inputs": [
        {
          "internalType": "uint256",
          "name": "amountIn",
          "type": "uint256"
        },
        {
          "internalType": "uint256",
          "name": "reserveIn",
          "type": "uint256"
        },
        {
          "internalType": "uint256",
          "name": "reserveOut",
          "type": "uint256"
        },
        {
          "internalType": "uint256",
          "name": "feeRate",
          "type": "uint256"
        }
      ],
      "name": "getAmountOutFeeRate",
      "outputs": [
        {
          "internalType": "uint256",
          "name": "amountOut",
          "type": "uint256"
        }
      ],
      "payable": false,
      "stateMutability": "view",
      "type": "function"
    },
    {
      "constant": true,
      "inputs": [
        {
          "internalType": "uint256",
          "name": "amountIn",
          "type": "uint256"
        },
        {
          "internalType": "uint256",
          "name": "reserveIn",
          "type": "uint256"
        },
        {
          "internalType": "uint256",
          "name": "reserveOut",
          "type": "uint256"
        },
        {
          "internalType": "uint256",
          "name": "feeRate",
          "type": "uint256"
        }
      ],
      "name": "getAmountOutFeeRateAnchorToken",
      "outputs": [
        {
          "internalType": "uint256",
          "name": "amountOut",
          "type": "uint256"
        }
      ],
      "payable": false,
      "stateMutability": "pure",
      "type": "function"
    },
    {
      "constant": true,
      "inputs": [
        {
          "internalType": "uint256",
          "name": "amountOut",
          "type": "uint256"
        },
        {
          "internalType": "address[]",
          "name": "path",
          "type": "address[]"
        },
        {
          "internalType": "address",
          "name": "to",
          "type": "address"
        }
      ],
      "name": "getAmountsIn",
      "outputs": [
        {
          "internalType": "uint256[]",
          "name": "amounts",
          "type": "uint256[]"
        }
      ],
      "payable": false,
      "stateMutability": "view",
      "type": "function"
    },
    {
      "constant": true,
      "inputs": [
        {
          "internalType": "uint256",
          "name": "amountIn",
          "type": "uint256"
        },
        {
          "internalType": "address[]",
          "name": "path",
          "type": "address[]"
        },
        {
          "internalType": "address",
          "name": "to",
          "type": "address"
        }
      ],
      "name": "getAmountsOut",
      "outputs": [
        {
          "internalType": "uint256[]",
          "name": "amounts",
          "type": "uint256[]"
        }
      ],
      "payable": false,
      "stateMutability": "view",
      "type": "function"
    },
    {
      "constant": true,
      "inputs": [
        {
          "internalType": "address",
          "name": "",
          "type": "address"
        },
        {
          "internalType": "address",
          "name": "",
          "type": "address"
        }
      ],
      "name": "getPair",
      "outputs": [
        {
          "internalType": "address",
          "name": "",
          "type": "address"
        }
      ],
      "payable": false,
      "stateMutability": "view",
      "type": "function"
    },
    {
      "constant": true,
      "inputs": [
        {
          "internalType": "address",
          "name": "tokenA",
          "type": "address"
        },
        {
          "internalType": "address",
          "name": "tokenB",
          "type": "address"
        }
      ],
      "name": "getReserves",
      "outputs": [
        {
          "internalType": "uint256",
          "name": "reserveA",
          "type": "uint256"
        },
        {
          "internalType": "uint256",
          "name": "reserveB",
          "type": "uint256"
        }
      ],
      "payable": false,
      "stateMutability": "view",
      "type": "function"
    },
    {
      "constant": true,
      "inputs": [
        {
          "internalType": "address",
          "name": "tokenA",
          "type": "address"
        },
        {
          "internalType": "address",
          "name": "tokenB",
          "type": "address"
        },
        {
          "internalType": "address",
          "name": "to",
          "type": "address"
        }
      ],
      "name": "getReservesFeeRate",
      "outputs": [
        {
          "internalType": "uint256",
          "name": "reserveA",
          "type": "uint256"
        },
        {
          "internalType": "uint256",
          "name": "reserveB",
          "type": "uint256"
        },
        {
          "internalType": "uint256",
          "name": "feeRate",
          "type": "uint256"
        },
        {
          "internalType": "bool",
          "name": "outAnchorToken",
          "type": "bool"
        }
      ],
      "payable": false,
      "stateMutability": "view",
      "type": "function"
    },
    {
      "constant": true,
      "inputs": [],
      "name": "initCodeHash",
      "outputs": [
        {
          "internalType": "bytes32",
          "name": "",
          "type": "bytes32"
        }
      ],
      "payable": false,
      "stateMutability": "view",
      "type": "function"
    },
    {
      "constant": true,
      "inputs": [],
      "name": "isOwner",
      "outputs": [
        {
          "internalType": "bool",
          "name": "",
          "type": "bool"
        }
      ],
      "payable": false,
      "stateMutability": "view",
      "type": "function"
    },
    {
      "constant": true,
      "inputs": [],
      "name": "lpFeeRate",
      "outputs": [
        {
          "internalType": "uint256",
          "name": "",
          "type": "uint256"
        }
      ],
      "payable": false,
      "stateMutability": "view",
      "type": "function"
    },
    {
      "constant": true,
      "inputs": [
        {
          "internalType": "address",
          "name": "",
          "type": "address"
        }
      ],
      "name": "mintFreeAddress",
      "outputs": [
        {
          "internalType": "bool",
          "name": "",
          "type": "bool"
        }
      ],
      "payable": false,
      "stateMutability": "view",
      "type": "function"
    },
    {
      "constant": true,
      "inputs": [],
      "name": "owner",
      "outputs": [
        {
          "internalType": "address",
          "name": "",
          "type": "address"
        }
      ],
      "payable": false,
      "stateMutability": "view",
      "type": "function"
    },
    {
      "constant": true,
      "inputs": [
        {
          "internalType": "address",
          "name": "tokenA",
          "type": "address"
        },
        {
          "internalType": "address",
          "name": "tokenB",
          "type": "address"
        }
      ],
      "name": "pairFor",
      "outputs": [
        {
          "internalType": "address",
          "name": "pair",
          "type": "address"
        }
      ],
      "payable": false,
      "stateMutability": "view",
      "type": "function"
    },
    {
      "constant": true,
      "inputs": [
        {
          "internalType": "uint256",
          "name": "amountA",
          "type": "uint256"
        },
        {
          "internalType": "uint256",
          "name": "reserveA",
          "type": "uint256"
        },
        {
          "internalType": "uint256",
          "name": "reserveB",
          "type": "uint256"
        }
      ],
      "name": "quote",
      "outputs": [
        {
          "internalType": "uint256",
          "name": "amountB",
          "type": "uint256"
        }
      ],
      "payable": false,
      "stateMutability": "pure",
      "type": "function"
    },
    {
      "constant": false,
      "inputs": [],
      "name": "renounceOwnership",
      "outputs": [],
      "payable": false,
      "stateMutability": "nonpayable",
      "type": "function"
    },
    {
      "constant": true,
      "inputs": [],
      "name": "router",
      "outputs": [
        {
          "internalType": "address",
          "name": "",
          "type": "address"
        }
      ],
      "payable": false,
      "stateMutability": "view",
      "type": "function"
    },
    {
      "constant": false,
      "inputs": [
        {
          "internalType": "address",
          "name": "_token",
          "type": "address"
        }
      ],
      "name": "setAnchorToken",
      "outputs": [],
      "payable": false,
      "stateMutability": "nonpayable",
      "type": "function"
    },
    {
      "constant": false,
      "inputs": [
        {
          "internalType": "address",
          "name": "_feeTo",
          "type": "address"
        }
      ],
      "name": "setFeeTo",
      "outputs": [],
      "payable": false,
      "stateMutability": "nonpayable",
      "type": "function"
    },
    {
      "constant": false,
      "inputs": [
        {
          "internalType": "uint256",
          "name": "_rate",
          "type": "uint256"
        }
      ],
      "name": "setFeeToRate",
      "outputs": [],
      "payable": false,
      "stateMutability": "nonpayable",
      "type": "function"
    },
    {
      "constant": false,
      "inputs": [
        {
          "internalType": "address",
          "name": "_addr",
          "type": "address"
        },
        {
          "internalType": "bool",
          "name": "_mintable",
          "type": "bool"
        }
      ],
      "name": "setMintFreeAddress",
      "outputs": [],
      "payable": false,
      "stateMutability": "nonpayable",
      "type": "function"
    },
    {
      "constant": false,
      "inputs": [
        {
          "internalType": "address",
          "name": "pair",
          "type": "address"
        },
        {
          "internalType": "uint256",
          "name": "feeRate",
          "type": "uint256"
        }
      ],
      "name": "setPairFeeRate",
      "outputs": [],
      "payable": false,
      "stateMutability": "nonpayable",
      "type": "function"
    },
    {
      "constant": false,
      "inputs": [
        {
          "internalType": "address",
          "name": "_router",
          "type": "address"
        }
      ],
      "name": "setRouter",
      "outputs": [],
      "payable": false,
      "stateMutability": "nonpayable",
      "type": "function"
    },
    {
      "constant": false,
      "inputs": [
        {
          "internalType": "address",
          "name": "user",
          "type": "address"
        },
        {
          "internalType": "uint256",
          "name": "feeRate",
          "type": "uint256"
        }
      ],
      "name": "setUserFeeRate",
      "outputs": [],
      "payable": false,
      "stateMutability": "nonpayable",
      "type": "function"
    },
    {
      "constant": true,
      "inputs": [
        {
          "internalType": "address",
          "name": "tokenA",
          "type": "address"
        },
        {
          "internalType": "address",
          "name": "tokenB",
          "type": "address"
        }
      ],
      "name": "sortTokens",
      "outputs": [
        {
          "internalType": "address",
          "name": "token0",
          "type": "address"
        },
        {
          "internalType": "address",
          "name": "token1",
          "type": "address"
        }
      ],
      "payable": false,
      "stateMutability": "pure",
      "type": "function"
    },
    {
      "constant": false,
      "inputs": [
        {
          "internalType": "address",
          "name": "newOwner",
          "type": "address"
        }
      ],
      "name": "transferOwnership",
      "outputs": [],
      "payable": false,
      "stateMutability": "nonpayable",
      "type": "function"
    }
  ],
  "bytecode": "0x608060405260006002553480156200001657600080fd5b506040516200961838038062009618833981810160405260208110156200003c57600080fd5b50516000620000536001600160e01b03620001b016565b600080546001600160a01b0319166001600160a01b0383169081178255604051929350917f8be0079c531659141344cd1fd0a4f28419497f9722a3daafe3b4186f6b6457e0908290a350604051620000ae60208201620001b4565b6020820181038252601f19601f820116604052506040516020018082805190602001908083835b60208310620000f65780518252601f199092019160209182019101620000d5565b51815160209384036101000a60001901801990921691161790526040805192909401828103601f1901835290935280519201919091206005555050600380546001600160a01b0319166001600160a01b0384811691909117918290551615159050620001a9576040805162461bcd60e51b815260206004820152601860248201527f616e63686f72546f6b656e206973206164647265737320300000000000000000604482015290519081900360640190fd5b50620001c2565b3390565b61391a8062005cfe83390190565b615b2c80620001d26000396000f3fe608060405234801561001057600080fd5b50600436106101fb5760003560e01c80638da5cb5b1161011a578063d52bb6f4116100ad578063e6a439051161007c578063e6a43905146107b3578063f2fde38b146107e1578063f46901ed14610807578063f5b9848d1461082d578063f887ea4014610835576101fb565b8063d52bb6f414610736578063d779e2701461077d578063db4c545e146107a3578063e1c4c966146107ab576101fb565b8063b5e4aa72116100e9578063b5e4aa7214610612578063c0d786551461062f578063d14641d214610655578063d2b364c614610681576101fb565b80638da5cb5b146105ab5780638f32d59b146105b357806396ed28f9146105bb578063ad615dec146105e9576101fb565b806332d1b8d211610192578063658eb13711610161578063658eb137146104da5780636e2b0fa714610514578063715018a6146105435780637f33ffc31461054b576101fb565b806332d1b8d2146104115780634da8eeb014610440578063544caa561461047e578063574f2ba3146104d2576101fb565b80631d5e8516116101ce5780631d5e8516146103725780631e3dd18b146103a25780632f167f05146103bf57806332175e85146103e5576101fb565b8063017e7e58146102005780630b64aa63146102245780630c49bd1314610265578063197a15691461036a575b600080fd5b61020861083d565b604080516001600160a01b039092168252519081900360200190f35b6102536004803603608081101561023a57600080fd5b508035906020810135906040810135906060013561084c565b60408051918252519081900360200190f35b61031a6004803603606081101561027b57600080fd5b8135919081019060408101602082013564010000000081111561029d57600080fd5b8201836020820111156102af57600080fd5b803590602001918460208302840111640100000000831117156102d157600080fd5b919080806020026020016040519081016040528093929190818152602001838360200280828437600092019190915250929550505090356001600160a01b031691506109b19050565b60408051602080825283518183015283519192839290830191858101910280838360005b8381101561035657818101518382015260200161033e565b505050509050019250505060405180910390f35b610208610aea565b6103a06004803603604081101561038857600080fd5b506001600160a01b0381351690602001351515610af9565b005b610208600480360360208110156103b857600080fd5b5035610b6b565b6103a0600480360360208110156103d557600080fd5b50356001600160a01b0316610b92565b6103a0600480360360408110156103fb57600080fd5b506001600160a01b038135169060200135610bfb565b6102536004803603608081101561042757600080fd5b5080359060208101359060408101359060600135610c64565b6102086004803603608081101561045657600080fd5b506001600160a01b038135811691602081013582169160408201358116916060013516610d4c565b6104ac6004803603604081101561049457600080fd5b506001600160a01b0381358116916020013516611227565b604080516001600160a01b03938416815291909216602082015281519081900390910190f35b610253611317565b610500600480360360208110156104f057600080fd5b50356001600160a01b031661131d565b604080519115158252519081900360200190f35b6102536004803603608081101561052a57600080fd5b5080359060208101359060408101359060600135611332565b6103a061141a565b6105836004803603606081101561056157600080fd5b506001600160a01b0381358116916020810135821691604090910135166114ab565b6040805194855260208501939093528383019190915215156060830152519081900360800190f35b6102086116de565b6105006116ed565b610208600480360360408110156105d157600080fd5b506001600160a01b0381358116916020013516611711565b610253600480360360608110156105ff57600080fd5b508035906020810135906040013561173b565b6103a06004803603602081101561062857600080fd5b50356117fd565b6103a06004803603602081101561064557600080fd5b50356001600160a01b031661189a565b6103a06004803603604081101561066b57600080fd5b506001600160a01b038135169060200135611903565b61031a6004803603606081101561069757600080fd5b813591908101906040810160208201356401000000008111156106b957600080fd5b8201836020820111156106cb57600080fd5b803590602001918460208302840111640100000000831117156106ed57600080fd5b919080806020026020016040519081016040528093929190818152602001838360200280828437600092019190915250929550505090356001600160a01b031691506119ec9050565b6107646004803603604081101561074c57600080fd5b506001600160a01b0381358116916020013516611b6a565b6040805192835260208301919091528051918290030190f35b6102536004803603602081101561079357600080fd5b50356001600160a01b0316611cb1565b610253611cc3565b610208611cc9565b610208600480360360408110156107c957600080fd5b506001600160a01b0381358116916020013516611cd8565b6103a0600480360360208110156107f757600080fd5b50356001600160a01b0316611cfe565b6103a06004803603602081101561081d57600080fd5b50356001600160a01b0316611d51565b610253611dba565b610208611dc0565b6001546001600160a01b031681565b600080851161088c5760405162461bcd60e51b81526004018080602001828103825260268152602001806159fd6026913960400191505060405180910390fd5b60008411801561089c5750600083115b6108d75760405162461bcd60e51b8152600401808060200182810382526023815260200180615ad56023913960400191505060405180910390fd5b60006108ee8661271085900363ffffffff611dcf16565b90506000816109058861271063ffffffff611dcf16565b039050600061092c826109208961271063ffffffff611dcf16565b9063ffffffff611e3116565b61093c838863ffffffff611dcf16565b8161094357fe5b04958690036000190195905061095b82612710611e8b565b909603956000610971848863ffffffff611dcf16565b9050600061099761271061098b8b8d63ffffffff611e3116565b9063ffffffff611dcf16565b90508082816109a257fe5b049a9950505050505050505050565b6060600283511015610a06576040805162461bcd60e51b81526020600482015260196024820152780a6eec2e08cc2c6e8dee4f27440929cac82989288bea082a89603b1b604482015290519081900360640190fd5b8251604051908082528060200260200182016040528015610a31578160200160208202803883390190505b5090508381600183510381518110610a4557fe5b60209081029190910101528251600019015b8015610ae2576000806000610a96876001860381518110610a7457fe5b6020026020010151888681518110610a8857fe5b6020026020010151886114ab565b50925092509250610abc858581518110610aac57fe5b6020026020010151848484610c64565b856001860381518110610acb57fe5b602090810291909101015250505060001901610a57565b509392505050565b6006546001600160a01b031681565b610b016116ed565b610b40576040805162461bcd60e51b81526020600482018190526024820152600080516020615ab5833981519152604482015290519081900360640190fd5b6001600160a01b03919091166000908152600960205260409020805460ff1916911515919091179055565b600a8181548110610b7857fe5b6000918252602090912001546001600160a01b0316905081565b610b9a6116ed565b610bd9576040805162461bcd60e51b81526020600482018190526024820152600080516020615ab5833981519152604482015290519081900360640190fd5b600380546001600160a01b0319166001600160a01b0392909216919091179055565b610c036116ed565b610c42576040805162461bcd60e51b81526020600482018190526024820152600080516020615ab5833981519152604482015290519081900360640190fd5b6001600160a01b03909116600090815260076020526040902060019091019055565b6000808511610ca45760405162461bcd60e51b8152600401808060200182810382526027815260200180615a236027913960400191505060405180910390fd5b600084118015610cb45750600083115b610cef5760405162461bcd60e51b8152600401808060200182810382526023815260200180615ad56023913960400191505060405180910390fd5b6000610d0761271061098b878963ffffffff611dcf16565b90506000610d2461271085900361098b878a63ffffffff611ecd16565b9050610d416001828481610d3457fe5b049063ffffffff611e3116565b979650505050505050565b6000836001600160a01b0316856001600160a01b03161415610db5576040805162461bcd60e51b815260206004820181905260248201527f53776170466163746f72793a204944454e544943414c5f414444524553534553604482015290519081900360640190fd5b84846001600160a01b038082169083161115610dd357509192915083855b6001600160a01b038216610e2a576040805162461bcd60e51b815260206004820152601960248201527853776170466163746f72793a205a45524f5f4144445245535360381b604482015290519081900360640190fd5b6001600160a01b03828116600090815260086020908152604080832085851684529091529020541615610ea4576040805162461bcd60e51b815260206004820152601860248201527f53776170466163746f72793a20504149525f4558495354530000000000000000604482015290519081900360640190fd5b606060405180602001610eb6906120af565b6020820181038252601f19601f8201166040525090506000838360405160200180836001600160a01b03166001600160a01b031660601b8152601401826001600160a01b03166001600160a01b031660601b815260140192505050604051602081830303815290604052805190602001209050808251602084016000f560408051637c643b2f60e11b81526001600160a01b03878116600483015286811660248301528a81166044830152898116606483015291519297509087169163f8c8765e9160848082019260009290919082900301818387803b158015610f9957600080fd5b505af1158015610fad573d6000803e3d6000fd5b505050508460086000866001600160a01b03166001600160a01b031681526020019081526020016000206000856001600160a01b03166001600160a01b0316815260200190815260200160002060006101000a8154816001600160a01b0302191690836001600160a01b031602179055508460086000856001600160a01b03166001600160a01b031681526020019081526020016000206000866001600160a01b03166001600160a01b0316815260200190815260200160002060006101000a8154816001600160a01b0302191690836001600160a01b031602179055508460086000896001600160a01b03166001600160a01b031681526020019081526020016000206000886001600160a01b03166001600160a01b0316815260200190815260200160002060006101000a8154816001600160a01b0302191690836001600160a01b031602179055508460086000886001600160a01b03166001600160a01b031681526020019081526020016000206000896001600160a01b03166001600160a01b0316815260200190815260200160002060006101000a8154816001600160a01b0302191690836001600160a01b03160217905550600a8590806001815401808255809150509060018203906000526020600020016000909192909190916101000a8154816001600160a01b0302191690836001600160a01b0316021790555050826001600160a01b0316846001600160a01b03167f0d3648bd0f6ba80134a33ba9275ac585d9d315f0ad8355cddefde31afa28d0e987600a8054905060405180836001600160a01b03166001600160a01b031681526020018281526020019250505060405180910390a350505050949350505050565b600080826001600160a01b0316846001600160a01b03161415611291576040805162461bcd60e51b815260206004820181905260248201527f53776170466163746f72793a204944454e544943414c5f414444524553534553604482015290519081900360640190fd5b826001600160a01b0316846001600160a01b0316106112b15782846112b4565b83835b90925090506001600160a01b038216611310576040805162461bcd60e51b815260206004820152601960248201527853776170466163746f72793a205a45524f5f4144445245535360381b604482015290519081900360640190fd5b9250929050565b600a5490565b60096020526000908152604090205460ff1681565b60008085116113725760405162461bcd60e51b81526004018080602001828103825260268152602001806159fd6026913960400191505060405180910390fd5b6000841180156113825750600083115b6113bd5760405162461bcd60e51b8152600401808060200182810382526023815260200180615ad56023913960400191505060405180910390fd5b60006113d48661271085900363ffffffff611dcf16565b905060006113e8828663ffffffff611dcf16565b90506000611402836109208961271063ffffffff611dcf16565b905080828161140d57fe5b0498975050505050505050565b6114226116ed565b611461576040805162461bcd60e51b81526020600482018190526024820152600080516020615ab5833981519152604482015290519081900360640190fd5b600080546040516001600160a01b03909116907f8be0079c531659141344cd1fd0a4f28419497f9722a3daafe3b4186f6b6457e0908390a3600080546001600160a01b0319169055565b60008060008060006114bd8888611227565b509050806001600160a01b0316886001600160a01b031614806114f15750806001600160a01b0316876001600160a01b0316145b611542576040805162461bcd60e51b815260206004820181905260248201527f706172616d2073686f756c6420626520746f6b656e206e6f742065746f6b656e604482015290519081900360640190fd5b600061154e8989611711565b9050600080826001600160a01b0316630902f1ac6040518163ffffffff1660e01b815260040160606040518083038186803b15801561158c57600080fd5b505afa1580156115a0573d6000803e3d6000fd5b505050506040513d60608110156115b657600080fd5b5080516020918201516001600160a01b038c166000908152600790935260409092205497506001600160701b0390811693501690508561165c57826001600160a01b031663978bbdb96040518163ffffffff1660e01b815260040160206040518083038186803b15801561162957600080fd5b505afa15801561163d573d6000803e3d6000fd5b505050506040513d602081101561165357600080fd5b50519550611663565b6001860395505b836001600160a01b03168b6001600160a01b031614611692576003546001600160a01b038c81169116146116a4565b6003546001600160a01b038b81169116145b9450836001600160a01b03168b6001600160a01b0316146116c65780826116c9565b81815b80985081995050505050505093509350935093565b6000546001600160a01b031690565b600080546001600160a01b0316611702611f0f565b6001600160a01b031614905090565b6001600160a01b039182166000908152600860209081526040808320938516835292905220541690565b6000808411611791576040805162461bcd60e51b815260206004820181905260248201527f53776170466163746f72793a20494e53554646494349454e545f414d4f554e54604482015290519081900360640190fd5b6000831180156117a15750600082115b6117dc5760405162461bcd60e51b8152600401808060200182810382526023815260200180615ad56023913960400191505060405180910390fd5b826117ed858463ffffffff611dcf16565b816117f457fe5b04949350505050565b6118056116ed565b611844576040805162461bcd60e51b81526020600482018190526024820152600080516020615ab5833981519152604482015290519081900360640190fd5b600081116118835760405162461bcd60e51b8152600401808060200182810382526027815260200180615a6d6027913960400191505060405180910390fd5b61189481600163ffffffff611ecd16565b60025550565b6118a26116ed565b6118e1576040805162461bcd60e51b81526020600482018190526024820152600080516020615ab5833981519152604482015290519081900360640190fd5b600480546001600160a01b0319166001600160a01b0392909216919091179055565b61190b6116ed565b61194a576040805162461bcd60e51b81526020600482018190526024820152600080516020615ab5833981519152604482015290519081900360640190fd5b60c881111561198a5760405162461bcd60e51b8152600401808060200182810382526023815260200180615a4a6023913960400191505060405180910390fd5b816001600160a01b0316637b84fda5826040518263ffffffff1660e01b815260040180828152602001915050600060405180830381600087803b1580156119d057600080fd5b505af11580156119e4573d6000803e3d6000fd5b505050505050565b6060600283511015611a41576040805162461bcd60e51b81526020600482015260196024820152780a6eec2e08cc2c6e8dee4f27440929cac82989288bea082a89603b1b604482015290519081900360640190fd5b8251604051908082528060200260200182016040528015611a6c578160200160208202803883390190505b5090508381600081518110611a7d57fe5b60200260200101818152505060005b6001845103811015610ae257600080600080611ad2888681518110611aad57fe5b6020026020010151898760010181518110611ac457fe5b6020026020010151896114ab565b93509350935093508015611b1f57611aff868681518110611aef57fe5b602002602001015185858561084c565b868660010181518110611b0e57fe5b602002602001018181525050611b5a565b611b3e868681518110611b2e57fe5b6020026020010151858585611332565b868660010181518110611b4d57fe5b6020026020010181815250505b505060019092019150611a8c9050565b6000806000611b798585611227565b509050806001600160a01b0316856001600160a01b03161480611bad5750806001600160a01b0316846001600160a01b0316145b611bfe576040805162461bcd60e51b815260206004820181905260248201527f706172616d2073686f756c6420626520746f6b656e206e6f742065746f6b656e604482015290519081900360640190fd5b600080611c0b8787611711565b6001600160a01b0316630902f1ac6040518163ffffffff1660e01b815260040160606040518083038186803b158015611c4357600080fd5b505afa158015611c57573d6000803e3d6000fd5b505050506040513d6060811015611c6d57600080fd5b5080516020909101516001600160701b0391821693501690506001600160a01b0387811690841614611ca0578082611ca3565b81815b909890975095505050505050565b60076020526000908152604090205481565b60055481565b6003546001600160a01b031681565b60086020908152600092835260408084209091529082529020546001600160a01b031681565b611d066116ed565b611d45576040805162461bcd60e51b81526020600482018190526024820152600080516020615ab5833981519152604482015290519081900360640190fd5b611d4e81611f13565b50565b611d596116ed565b611d98576040805162461bcd60e51b81526020600482018190526024820152600080516020615ab5833981519152604482015290519081900360640190fd5b600180546001600160a01b0319166001600160a01b0392909216919091179055565b60025481565b6004546001600160a01b031681565b600082611dde57506000611e2b565b82820282848281611deb57fe5b0414611e285760405162461bcd60e51b8152600401808060200182810382526021815260200180615a946021913960400191505060405180910390fd5b90505b92915050565b600082820183811015611e28576040805162461bcd60e51b815260206004820152601b60248201527f536166654d6174683a206164646974696f6e206f766572666c6f770000000000604482015290519081900360640190fd5b6000611e2883836040518060400160405280601a81526020017f536166654d6174683a206469766973696f6e206279207a65726f000000000000815250611fb3565b6000611e2883836040518060400160405280601e81526020017f536166654d6174683a207375627472616374696f6e206f766572666c6f770000815250612055565b3390565b6001600160a01b038116611f585760405162461bcd60e51b81526004018080602001828103825260268152602001806159d76026913960400191505060405180910390fd5b600080546040516001600160a01b03808516939216917f8be0079c531659141344cd1fd0a4f28419497f9722a3daafe3b4186f6b6457e091a3600080546001600160a01b0319166001600160a01b0392909216919091179055565b6000818361203f5760405162461bcd60e51b81526004018080602001828103825283818151815260200191508051906020019080838360005b83811015612004578181015183820152602001611fec565b50505050905090810190601f1680156120315780820380516001836020036101000a031916815260200191505b509250505060405180910390fd5b50600083858161204b57fe5b0495945050505050565b600081848411156120a75760405162461bcd60e51b8152602060048201818152835160248401528351909283926044909101919085019080838360008315612004578181015183820152602001611fec565b505050900390565b61391a806120bd8339019056fe6080604052601e600655600160195534801561001a57600080fd5b5060405146908060526138c8823960408051918290036052018220828201825260088352672628102a37b5b2b760c11b6020938401528151808301835260018152603160f81b908401528151808401919091527fc285f7cfebd35a59cb5c0c032add67fdc80dcde2f8127cb94e4b49a72469ed02818301527fc89efdaa54c0f20c7adf612882df0950f5a951637e0307cdcb4c672f298b8bc6606082015260808101949094523060a0808601919091528151808603909101815260c090940190528251920191909120600d5550600080546001600160a01b031916331790556137c0806101086000396000f3fe608060405234801561001057600080fd5b50600436106102a05760003560e01c8063806b984f11610167578063d250185c116100ce578063f4a70bd211610087578063f4a70bd2146107fd578063f5b9848d14610805578063f8c8765e1461080d578063fafa8f291461084b578063fcee45f414610871578063fff6cae91461088e576102a0565b8063d250185c14610743578063d505accf14610766578063d939fa8a146107b7578063da3c300d146107bf578063dd62ed3e146107c7578063e5b2aab0146107f5576102a0565b8063ad9b802411610120578063ad9b8024146106d1578063ba9a7a56146106fd578063bc25cf7714610705578063bc9c5c6a1461072b578063c45a015514610733578063d21220a71461073b576102a0565b8063806b984f1461064657806389afcb441461064e578063948023ab1461068d57806395d89b4114610695578063978bbdb91461069d578063a9059cbb146106a5576102a0565b80633644e5151161020b5780636a627842116101c45780636a627842146105a757806370a08231146105cd5780637464fc3d146105f35780637b84fda5146105fb5780637d5106e2146106185780637ecebe0014610620576102a0565b80633644e51514610546578063443cb4bc1461054e578063496cf3e4146105725780635909c0d51461058f5780635a3d5493146105975780635a76f25e1461059f576102a0565b80631183f8721161025d5780631183f8721461048457806318160ddd146104c85780631df4ccfc146104e257806323b872dd146104ea57806330adf81f14610520578063313ce56714610528576102a0565b8063022c0d9f146102a55780630442a8651461033357806306fdde031461036b5780630902f1ac146103e8578063095ea7b3146104205780630dfe168114610460575b600080fd5b610331600480360360808110156102bb57600080fd5b8135916020810135916001600160a01b0360408301351691908101906080810160608201356401000000008111156102f257600080fd5b82018360208201111561030457600080fd5b8035906020019184600183028401116401000000008311171561032657600080fd5b509092509050610896565b005b6103316004803603608081101561034957600080fd5b508035906020810135906001600160a01b036040820135169060600135610dde565b6103736112db565b6040805160208082528351818301528351919283929083019185019080838360005b838110156103ad578181015183820152602001610395565b50505050905090810190601f1680156103da5780820380516001836020036101000a031916815260200191505b509250505060405180910390f35b6103f06112ff565b604080516001600160701b03948516815292909316602083015263ffffffff168183015290519081900360600190f35b61044c6004803603604081101561043657600080fd5b506001600160a01b038135169060200135611326565b604080519115158252519081900360200190f35b61046861133d565b604080516001600160a01b039092168252519081900360200190f35b6104aa6004803603602081101561049a57600080fd5b50356001600160a01b031661134c565b60408051938452602084019290925282820152519081900360600190f35b6104d061136d565b60408051918252519081900360200190f35b6104d0611373565b61044c6004803603606081101561050057600080fd5b506001600160a01b03813581169160208101359091169060400135611379565b6104d0611413565b610530611437565b6040805160ff9092168252519081900360200190f35b6104d061143c565b610556611442565b604080516001600160701b039092168252519081900360200190f35b6103316004803603602081101561058857600080fd5b5035611451565b6104d06114ad565b6104d06114b3565b6105566114b9565b6104d0600480360360208110156105bd57600080fd5b50356001600160a01b03166114cf565b6104d0600480360360208110156105e357600080fd5b50356001600160a01b03166117d1565b6104d06117e3565b6103316004803603602081101561061157600080fd5b50356117e9565b6104d061188e565b6104d06004803603602081101561063657600080fd5b50356001600160a01b0316611894565b6104d06118a6565b6106746004803603602081101561066457600080fd5b50356001600160a01b03166118ac565b6040805192835260208301919091528051918290030190f35b610468611c5f565b610373611c6e565b6104d0611c8d565b61044c600480360360408110156106bb57600080fd5b506001600160a01b038135169060200135611c93565b6104d0600480360360408110156106e757600080fd5b506001600160a01b038135169060200135611ca0565b6104d0611d8a565b6103316004803603602081101561071b57600080fd5b50356001600160a01b0316611d90565b6104d0611eff565b610468611f05565b610468611f14565b6104d06004803603604081101561075957600080fd5b5080359060200135611f23565b610331600480360360e081101561077c57600080fd5b506001600160a01b03813581169160208101359091169060408101359060608101359060ff6080820135169060a08101359060c00135611f8a565b610468612187565b6104d0612196565b6104d0600480360360408110156107dd57600080fd5b506001600160a01b038135811691602001351661219c565b6104d06121b9565b6104d06121bf565b6104d06121c5565b6103316004803603608081101561082357600080fd5b506001600160a01b0381358116916020810135821691604082013581169160600135166121cb565b6104d06004803603602081101561086157600080fd5b50356001600160a01b03166122da565b6104d06004803603602081101561088757600080fd5b5035612310565b61033161232d565b6019546001146108e2576040805162461bcd60e51b8152602060048201526012602482015271111950985b9ad4ddd85c0e881313d0d2d15160721b604482015290519081900360640190fd5b6000601955841515806108f55750600084115b6109305760405162461bcd60e51b81526004018080602001828103825260268152602001806136d16026913960400191505060405180910390fd5b60008061093b6112ff565b5091509150816001600160701b0316871080156109605750806001600160701b031686105b61099b5760405162461bcd60e51b81526004018080602001828103825260228152602001806136f76022913960400191505060405180910390fd5b60035460045460009182916001600160a01b039182169190811690891682148015906109d95750806001600160a01b0316896001600160a01b031614155b610a23576040805162461bcd60e51b8152602060048201526016602482015275446542616e6b537761703a20494e56414c49445f544f60501b604482015290519081900360640190fd5b8a15610a3457610a34828a8d612490565b8915610a4557610a45818a8c612490565b8615610b0057886001600160a01b031663226dc882338d8d8c8c6040518663ffffffff1660e01b815260040180866001600160a01b03166001600160a01b03168152602001858152602001848152602001806020018281038252848482818152602001925080828437600081840152601f19601f8201169050808301925050509650505050505050600060405180830381600087803b158015610ae757600080fd5b505af1158015610afb573d6000803e3d6000fd5b505050505b604080516370a0823160e01b815230600482015290516001600160a01b038416916370a08231916024808301926020929190829003018186803b158015610b4657600080fd5b505afa158015610b5a573d6000803e3d6000fd5b505050506040513d6020811015610b7057600080fd5b5051604080516370a0823160e01b815230600482015290519195506001600160a01b038316916370a0823191602480820192602092909190829003018186803b158015610bbc57600080fd5b505afa158015610bd0573d6000803e3d6000fd5b505050506040513d6020811015610be657600080fd5b5051925060009150506001600160701b0385168a90038311610c09576000610c18565b89856001600160701b03160383035b9050600089856001600160701b0316038311610c35576000610c44565b89856001600160701b03160383035b90506000821180610c555750600081115b610c905760405162461bcd60e51b81526004018080602001828103825260258152602001806136ac6025913960400191505060405180910390fd5b6000610cc8610caa6006548561262290919063ffffffff16565b610cbc8761271063ffffffff61262216565b9063ffffffff61267b16565b90506000610ce4610caa6006548561262290919063ffffffff16565b9050610d166305f5e100610d0a6001600160701b038b8116908b1663ffffffff61262216565b9063ffffffff61262216565b610d26838363ffffffff61262216565b1015610d6a576040805162461bcd60e51b815260206004820152600e60248201526d446542616e6b537761703a204b3160901b604482015290519081900360640190fd5b5050610d78848488886126bd565b60408051838152602081018390528082018d9052606081018c905290516001600160a01b038b169133917fd78ad95fa46c994b6551d0da85fc275fe613ce37657fb8d5e3d130840159d8229181900360800190a350506001601955505050505050505050565b601954600114610e2a576040805162461bcd60e51b8152602060048201526012602482015271111950985b9ad4ddd85c0e881313d0d2d15160721b604482015290519081900360640190fd5b6000601981905554604080516303e21fa960e61b815290516001600160a01b039092169163f887ea4091600480820192602092909190829003018186803b158015610e7457600080fd5b505afa158015610e88573d6000803e3d6000fd5b505050506040513d6020811015610e9e57600080fd5b50516001600160a01b03163314610efc576040805162461bcd60e51b815260206004820152601760248201527f446542616e6b537761703a20726f75746572206f6e6c79000000000000000000604482015290519081900360640190fd5b8015610f0b57610f0b8161287a565b6000841180610f1a5750600083115b610f555760405162461bcd60e51b81526004018080602001828103825260268152602001806136d16026913960400191505060405180910390fd5b600080610f606112ff565b5091509150816001600160701b031686108015610f855750806001600160701b031685105b610fc05760405162461bcd60e51b81526004018080602001828103825260228152602001806136f76022913960400191505060405180910390fd5b60035460045460009182916001600160a01b03918216919081169088168214801590610ffe5750806001600160a01b0316886001600160a01b031614155b611048576040805162461bcd60e51b8152602060048201526016602482015275446542616e6b537761703a20494e56414c49445f544f60501b604482015290519081900360640190fd5b89156110595761105982898c612490565b881561106a5761106a81898b612490565b604080516370a0823160e01b815230600482015290516001600160a01b038416916370a08231916024808301926020929190829003018186803b1580156110b057600080fd5b505afa1580156110c4573d6000803e3d6000fd5b505050506040513d60208110156110da57600080fd5b5051604080516370a0823160e01b815230600482015290519195506001600160a01b038316916370a0823191602480820192602092909190829003018186803b15801561112657600080fd5b505afa15801561113a573d6000803e3d6000fd5b505050506040513d602081101561115057600080fd5b5051925060009150506001600160701b0385168990038311611173576000611182565b88856001600160701b03160383035b9050600088856001600160701b031603831161119f5760006111ae565b88856001600160701b03160383035b905060008211806111bf5750600081115b6111fa5760405162461bcd60e51b81526004018080602001828103825260258152602001806136ac6025913960400191505060405180910390fd5b6112166001600160701b0387811690871663ffffffff61262216565b611226858563ffffffff61262216565b101561126a576040805162461bcd60e51b815260206004820152600e60248201526d2232a130b735a9bbb0b81d10259960911b604482015290519081900360640190fd5b611276848488886126bd565b60408051838152602081018390528082018c9052606081018b905290516001600160a01b038a169133917fd78ad95fa46c994b6551d0da85fc275fe613ce37657fb8d5e3d130840159d8229181900360800190a3505060016019555050505050505050565b604051806040016040528060088152602001672628102a37b5b2b760c11b81525081565b6005546007546001600160701b0380831693600160701b909304169163ffffffff90911690565b600061133333848461288d565b5060015b92915050565b6001546001600160a01b031681565b60116020526000908152604090208054600182015460029092015490919083565b600c5481565b60175481565b6001600160a01b0383166000908152601060209081526040808320338452909152812054600019146113fe576001600160a01b03841660009081526010602090815260408083203384529091529020546113d9908363ffffffff61267b16565b6001600160a01b03851660009081526010602090815260408083203384529091529020555b6114098484846128ef565b5060019392505050565b7f6e71edae12b1b97f4d1f60370fef10105fa2faae0126114a169c64845d6126c981565b601281565b600d5481565b6005546001600160701b031681565b6000546001600160a01b031633146114a8576040805162461bcd60e51b81526020600482015260156024820152742232a130b735a9bbb0b81d102327a92124a22222a760591b604482015290519081900360640190fd5b600855565b60095481565b600a5481565b600554600160701b90046001600160701b031681565b600060195460011461151d576040805162461bcd60e51b8152602060048201526012602482015271111950985b9ad4ddd85c0e881313d0d2d15160721b604482015290519081900360640190fd5b600060198190558061152d6112ff565b50600354604080516370a0823160e01b815230600482015290519395509193506000926001600160a01b03909116916370a08231916024808301926020929190829003018186803b15801561158157600080fd5b505afa158015611595573d6000803e3d6000fd5b505050506040513d60208110156115ab57600080fd5b505160048054604080516370a0823160e01b81523093810193909352519293506000926001600160a01b03909116916370a08231916024808301926020929190829003018186803b1580156115ff57600080fd5b505afa158015611613573d6000803e3d6000fd5b505050506040513d602081101561162957600080fd5b505190506000611648836001600160701b03871663ffffffff61267b16565b90506000611665836001600160701b03871663ffffffff61267b16565b9050600061167387876129fe565b600c54909150806116b05761169c6103e8610cbc611697878763ffffffff61262216565b612b53565b98506116ab60006103e8612ba4565b6116ff565b6116fc6001600160701b0389166116cd868463ffffffff61262216565b816116d457fe5b046001600160701b0389166116ef868563ffffffff61262216565b816116f657fe5b04612c62565b98505b6000891161173e5760405162461bcd60e51b81526004018080602001828103825260298152602001806137196029913960400191505060405180910390fd5b6117488a8a612ba4565b61175486868a8a6126bd565b811561178457600554611780906001600160701b0380821691600160701b90041663ffffffff61262216565b600b555b6040805185815260208101859052815133927f4c209b5fc8ad50758f13e2e1088ba56a560dff690a1c6fef26394f4c03821c4f928290030190a25050600160195550949695505050505050565b600f6020526000908152604090205481565b600b5481565b6000546001600160a01b03163314611840576040805162461bcd60e51b81526020600482015260156024820152742232a130b735a9bbb0b81d102327a92124a22222a760591b604482015290519081900360640190fd5b60c8811115611889576040805162461bcd60e51b815260206004820152601060248201526f0cccacaa4c2e8ca40e8dede40d0d2ced60831b604482015290519081900360640190fd5b600655565b60155481565b600e6020526000908152604090205481565b60185481565b6000806019546001146118fb576040805162461bcd60e51b8152602060048201526012602482015271111950985b9ad4ddd85c0e881313d0d2d15160721b604482015290519081900360640190fd5b600060198190558061190b6112ff565b5060035460048054604080516370a0823160e01b81523093810193909352519496509294506001600160a01b0391821693919092169160009184916370a08231916024808301926020929190829003018186803b15801561196b57600080fd5b505afa15801561197f573d6000803e3d6000fd5b505050506040513d602081101561199557600080fd5b5051604080516370a0823160e01b815230600482015290519192506000916001600160a01b038516916370a08231916024808301926020929190829003018186803b1580156119e357600080fd5b505afa1580156119f7573d6000803e3d6000fd5b505050506040513d6020811015611a0d57600080fd5b5051306000908152600f6020526040812054919250611a2c88886129fe565b600c5490915080611a43848763ffffffff61262216565b81611a4a57fe5b049a5080611a5e848663ffffffff61262216565b81611a6557fe5b04995060008b118015611a78575060008a115b611ab35760405162461bcd60e51b81526004018080602001828103825260298152602001806137426029913960400191505060405180910390fd5b611abb612c79565b611ac53084612cec565b611ad0878d8d612490565b611adb868d8c612490565b604080516370a0823160e01b815230600482015290516001600160a01b038916916370a08231916024808301926020929190829003018186803b158015611b2157600080fd5b505afa158015611b35573d6000803e3d6000fd5b505050506040513d6020811015611b4b57600080fd5b5051604080516370a0823160e01b815230600482015290519196506001600160a01b038816916370a0823191602480820192602092909190829003018186803b158015611b9757600080fd5b505afa158015611bab573d6000803e3d6000fd5b505050506040513d6020811015611bc157600080fd5b50519350611bd185858b8b6126bd565b8115611c0157600554611bfd906001600160701b0380821691600160701b90041663ffffffff61262216565b600b555b604080518c8152602081018c905281516001600160a01b038f169233927fdccd412f0b1252819cb1fd330b93224ca42612892bb3f4f789976e6d81936496929081900390910190a35050505050505050506001601981905550915091565b6003546001600160a01b031681565b60405180604001604052806003815260200162088caf60eb1b81525081565b60065481565b60006113333384846128ef565b6003546000906001600160a01b03848116911614801590611ccf57506004546001600160a01b03848116911614155b80611ce357506005546001600160701b0316155b80611cfe5750600554600160701b90046001600160701b0316155b15611d0b57506000611337565b6003546001600160a01b0384811691161415611d6057600554611d59906001600160701b0380821691611d4d91600160701b909104168563ffffffff61262216565b9063ffffffff612d8916565b9050611337565b600554611d59906001600160701b03600160701b8204811691611d4d91168563ffffffff61262216565b6103e881565b601954600114611ddc576040805162461bcd60e51b8152602060048201526012602482015271111950985b9ad4ddd85c0e881313d0d2d15160721b604482015290519081900360640190fd5b600060195560035460048054600554604080516370a0823160e01b81523094810194909452516001600160a01b039485169490921692611e8e9285928792611e89926001600160701b039092169185916370a08231916024808301926020929190829003018186803b158015611e5157600080fd5b505afa158015611e65573d6000803e3d6000fd5b505050506040513d6020811015611e7b57600080fd5b50519063ffffffff61267b16565b612490565b600554604080516370a0823160e01b81523060048201529051611ef59284928792611e8992600160701b90046001600160701b0316916001600160a01b038616916370a0823191602480820192602092909190829003018186803b158015611e5157600080fd5b5050600160195550565b60125481565b6000546001600160a01b031681565b6002546001600160a01b031681565b60006103e88210611f6d576040805162461bcd60e51b815260206004820152600f60248201526e696e76616c6964206665655261746560881b604482015290519081900360640190fd5b611f83612710611d4d858563ffffffff61262216565b9392505050565b42841015611fcf576040805162461bcd60e51b815260206004820152600d60248201526c14ddd85c0e8811561412549151609a1b604482015290519081900360640190fd5b600d546001600160a01b038089166000818152600e602090815260408083208054600180820190925582517f6e71edae12b1b97f4d1f60370fef10105fa2faae0126114a169c64845d6126c98186015280840196909652958d166060860152608085018c905260a085019590955260c08085018b90528151808603909101815260e08501825280519083012061190160f01b6101008601526101028501969096526101228085019690965280518085039096018652610142840180825286519683019690962095839052610162840180825286905260ff89166101828501526101a284018890526101c28401879052519193926101e280820193601f1981019281900390910190855afa1580156120ea573d6000803e3d6000fd5b5050604051601f1901519150506001600160a01b038116158015906121205750886001600160a01b0316816001600160a01b0316145b612171576040805162461bcd60e51b815260206004820152601760248201527f537761703a20494e56414c49445f5349474e4154555245000000000000000000604482015290519081900360640190fd5b61217c89898961288d565b505050505050505050565b6004546001600160a01b031681565b60165481565b601060209081526000928352604080842090915290825290205481565b60135481565b60145481565b60085481565b6000546001600160a01b03163314612222576040805162461bcd60e51b81526020600482015260156024820152742232a130b735a9bbb0b81d102327a92124a22222a760591b604482015290519081900360640190fd5b600180546001600160a01b03199081166001600160a01b0387811691909117909255600280548216868416179055600380548216858416179055600480549091168383161781556000546040805163f5b9848d60e01b81529051919093169263f5b9848d9281810192602092909190829003018186803b1580156122a557600080fd5b505afa1580156122b9573d6000803e3d6000fd5b505050506040513d60208110156122cf57600080fd5b505160085550505050565b60006122e582612dcb565b156122f25750600061230b565b6122fa612c79565b612308826000600180612e4b565b90505b919050565b6000612308612710611d4d6006548561262290919063ffffffff16565b601954600114612379576040805162461bcd60e51b8152602060048201526012602482015271111950985b9ad4ddd85c0e881313d0d2d15160721b604482015290519081900360640190fd5b6000601955600154604080516370a0823160e01b81523060048201529051612489926001600160a01b0316916370a08231916024808301926020929190829003018186803b1580156123ca57600080fd5b505afa1580156123de573d6000803e3d6000fd5b505050506040513d60208110156123f457600080fd5b5051600254604080516370a0823160e01b815230600482015290516001600160a01b03909216916370a0823191602480820192602092909190829003018186803b15801561244157600080fd5b505afa158015612455573d6000803e3d6000fd5b505050506040513d602081101561246b57600080fd5b50516005546001600160701b0380821691600160701b9004166126bd565b6001601955565b604080518082018252601981527f7472616e7366657228616464726573732c75696e74323536290000000000000060209182015281516001600160a01b0385811660248301526044808301869052845180840390910181526064909201845291810180516001600160e01b031663a9059cbb60e01b1781529251815160009460609489169392918291908083835b6020831061253d5780518252601f19909201916020918201910161251e565b6001836020036101000a0380198251168184511680821785525050505050509050019150506000604051808303816000865af19150503d806000811461259f576040519150601f19603f3d011682016040523d82523d6000602084013e6125a4565b606091505b50915091508180156125d25750805115806125d257508080602001905160208110156125cf57600080fd5b50515b61261b576040805162461bcd60e51b815260206004820152601560248201527414ddd85c0e881514905394d1915497d19052531151605a1b604482015290519081900360640190fd5b5050505050565b60008261263157506000611337565b8282028284828161263e57fe5b0414611f835760405162461bcd60e51b815260040180806020018281038252602181526020018061376b6021913960400191505060405180910390fd5b6000611f8383836040518060400160405280601e81526020017f536166654d6174683a207375627472616374696f6e206f766572666c6f770000815250613176565b6001600160701b0384118015906126db57506001600160701b038311155b612723576040805162461bcd60e51b8152602060048201526014602482015273446542616e6b537761703a204f564552464c4f5760601b604482015290519081900360640190fd5b60075463ffffffff42811691811682039081161580159061274c57506001600160701b03841615155b801561276057506001600160701b03831615155b156127d1578063ffffffff1661278e856127798661320d565b6001600160e01b03169063ffffffff61321f16565b600980546001600160e01b03929092169290920201905563ffffffff81166127b9846127798761320d565b600a80546001600160e01b0392909216929092020190555b600580546dffffffffffffffffffffffffffff19166001600160701b03888116919091176dffffffffffffffffffffffffffff60701b1916600160701b888316810291909117928390556007805463ffffffff191663ffffffff871617905560408051848416815291909304909116602082015281517f1c411e9a96e071241c2f21f7726b17ae89e3cab4c78be50e062b03a9fffbbad1929181900390910190a1505050505050565b6017805482019055601680549091019055565b6001600160a01b03808416600081815260106020908152604080832094871680845294825291829020859055815185815291517f8c5be1e5ebec7d5bd14f71427d1e84f3dd0314c0f7b2291e5b200ac8c7c3b9259281900390910190a3505050565b6001600160a01b0383166000908152600f6020526040902054612918908263ffffffff61267b16565b6001600160a01b038085166000908152600f6020526040808220939093559084168152205461294d908263ffffffff61324416565b6001600160a01b0383166000908152600f602052604090205561296f83612dcb565b158015612982575061298082612dcb565b155b156129ae5761298f612c79565b61299d838260006001612e4b565b506129ac828260016000612e4b565b505b816001600160a01b0316836001600160a01b03167fddf252ad1be2c89b69c2b068fc378daa952ba7f163c4a11628f55a4df523b3ef836040518082815260200191505060405180910390a3505050565b6000805460408051622fcfcb60e31b8152905183926001600160a01b03169163017e7e58916004808301926020929190829003018186803b158015612a4257600080fd5b505afa158015612a56573d6000803e3d6000fd5b505050506040513d6020811015612a6c57600080fd5b5051600b546001600160a01b038216158015945091925090612b3f578015612b3a576000612aaf6116976001600160701b0388811690881663ffffffff61262216565b90506000612abc83612b53565b905080821115612b37576000612aea612adb848463ffffffff61267b16565b600c549063ffffffff61262216565b90506000612b1383612b076008548761262290919063ffffffff16565b9063ffffffff61324416565b90506000818381612b2057fe5b0490508015612b3357612b338782612ba4565b5050505b50505b612b4b565b8015612b4b576000600b555b505092915050565b60006003821115612b96575080600160028204015b81811015612b9057809150600281828581612b7f57fe5b040181612b8857fe5b049050612b68565b5061230b565b811561230b57506001919050565b6001600160a01b03821615612bcb57612bbb612c79565b612bc9828260016000612e4b565b505b600c54612bde908263ffffffff61324416565b600c556001600160a01b0382166000908152600f6020526040902054612c0a908263ffffffff61324416565b6001600160a01b0383166000818152600f602090815260408083209490945583518581529351929391927fddf252ad1be2c89b69c2b068fc378daa952ba7f163c4a11628f55a4df523b3ef9281900390910190a35050565b600081831115612c725781611f83565b5090919050565b436018541415612c8857612cea565b436018556000612c9661329e565b90506000612ca26133cd565b90508181018015801590612cb857506000600c54115b15612ce657600c54612cdc90611d4d83670de0b6b3a764000063ffffffff61262216565b6012805490910190555b5050505b565b6001600160a01b0382166000908152600f6020526040902054612d15908263ffffffff61267b16565b6001600160a01b0383166000908152600f6020526040902055600c54612d41908263ffffffff61267b16565b600c556040805182815290516000916001600160a01b038516917fddf252ad1be2c89b69c2b068fc378daa952ba7f163c4a11628f55a4df523b3ef9181900360200190a35050565b6000611f8383836040518060400160405280601a81526020017f536166654d6174683a206469766973696f6e206279207a65726f000000000000815250613646565b600080546040805163658eb13760e01b81526001600160a01b0385811660048301529151919092169163658eb137916024808301926020929190829003018186803b158015612e1957600080fd5b505afa158015612e2d573d6000803e3d6000fd5b505050506040513d6020811015612e4357600080fd5b505192915050565b6001600160a01b0384166000908152601160205260408120805460125481612edb57600186151514612eb4576040805162461bcd60e51b815260206004820152600d60248201526c6e6f20616d7420746f2064656360981b604482015290519081900360640190fd5b868355612ec7878263ffffffff61262216565b83600201819055506000935050505061316e565b8615612f4e576002830154612efa90610cbc848463ffffffff61262216565b60018401805490910190558515612f2257612f1b828863ffffffff61324416565b9150612f35565b612f32828863ffffffff61267b16565b91505b818355612f48828263ffffffff61262216565b60028401555b841561316a5760008060009054906101000a90046001600160a01b03166001600160a01b031663f887ea406040518163ffffffff1660e01b815260040160206040518083038186803b158015612fa357600080fd5b505afa158015612fb7573d6000803e3d6000fd5b505050506040513d6020811015612fcd57600080fd5b50516040805163f7c618c160e01b815290516001600160a01b039092169163f7c618c191600480820192602092909190829003018186803b15801561301157600080fd5b505afa158015613025573d6000803e3d6000fd5b505050506040513d602081101561303b57600080fd5b505190506001600160a01b038116613090576040805162461bcd60e51b81526020600482015260136024820152721c995dd85c99151bdad95b881b9bdd081cd95d606a1b604482015290519081900360640190fd5b6130cb670de0b6b3a7640000611d4d6130ba8760020154610cbc878961262290919063ffffffff16565b60018801549063ffffffff61324416565b94506130dd838363ffffffff61262216565b60028501556040805163a9059cbb60e01b81526001600160a01b038b811660048301526024820188905291519183169163a9059cbb916044808201926020929091908290030181600087803b15801561313557600080fd5b505af1158015613149573d6000803e3d6000fd5b505050506040513d602081101561315f57600080fd5b505060006001850155505b5050505b949350505050565b600081848411156132055760405162461bcd60e51b81526004018080602001828103825283818151815260200191508051906020019080838360005b838110156131ca5781810151838201526020016131b2565b50505050905090810190601f1680156131f75780820380516001836020036101000a031916815260200191505b509250505060405180910390fd5b505050900390565b6001600160701b0316600160701b0290565b60006001600160701b0382166001600160e01b0384168161323c57fe5b049392505050565b600082820183811015611f83576040805162461bcd60e51b815260206004820152601b60248201527f536166654d6174683a206164646974696f6e206f766572666c6f770000000000604482015290519081900360640190fd5b6000601654600014156132b3575060006133ca565b60008060009054906101000a90046001600160a01b03166001600160a01b031663f887ea406040518163ffffffff1660e01b815260040160206040518083038186803b15801561330257600080fd5b505afa158015613316573d6000803e3d6000fd5b505050506040513d602081101561332c57600080fd5b505160015460025460165460408051631f293e8760e11b81526001600160a01b039485166004820152928416602484015260448301919091525192935090831691633e527d0e916064808201926020929091908290030181600087803b15801561339557600080fd5b505af11580156133a9573d6000803e3d6000fd5b505050506040513d60208110156133bf57600080fd5b505160006016559150505b90565b60008054604080516303e21fa960e61b8152905183926001600160a01b03169163f887ea40916004808301926020929190829003018186803b15801561341257600080fd5b505afa158015613426573d6000803e3d6000fd5b505050506040513d602081101561343c57600080fd5b50516040805163f7c618c160e01b815290516001600160a01b039092169163f7c618c191600480820192602092909190829003018186803b15801561348057600080fd5b505afa158015613494573d6000803e3d6000fd5b505050506040513d60208110156134aa57600080fd5b505190506001600160a01b0381166134c65760009150506133ca565b604080516370a0823160e01b815230600482015290516000916001600160a01b038416916370a0823191602480820192602092909190829003018186803b15801561351057600080fd5b505afa158015613524573d6000803e3d6000fd5b505050506040513d602081101561353a57600080fd5b5051600080546040805163197a156960e01b8152905193945091926001600160a01b039091169163197a1569916004808301926020929190829003018186803b15801561358657600080fd5b505afa15801561359a573d6000803e3d6000fd5b505050506040513d60208110156135b057600080fd5b5051604080516002808252606080830184529394509091602083019080388339505060035482519293506001600160a01b0316918391506000906135f057fe5b6001600160a01b03928316602091820292909201015260045482519116908290600190811061361b57fe5b60200260200101906001600160a01b031690816001600160a01b031681525050600094505050505090565b600081836136955760405162461bcd60e51b81526020600482018181528351602484015283519092839260449091019190850190808383600083156131ca5781810151838201526020016131b2565b5060008385816136a157fe5b049594505050505056fe446542616e6b537761703a20494e53554646494349454e545f494e5055545f414d4f554e54446542616e6b537761703a20494e53554646494349454e545f4f55545055545f414d4f554e54446542616e6b537761703a20494e53554646494349454e545f4c4951554944495459446542616e6b537761703a20494e53554646494349454e545f4c49515549444954595f4d494e544544446542616e6b537761703a20494e53554646494349454e545f4c49515549444954595f4255524e4544536166654d6174683a206d756c7469706c69636174696f6e206f766572666c6f77a265627a7a72315820f17c02ffccf94e9e073d32a1e094acf06a7aac1835b10fdbaabe1f448bf8223164736f6c63430005100032454950373132446f6d61696e28737472696e67206e616d652c737472696e672076657273696f6e2c75696e7432353620636861696e49642c6164647265737320766572696679696e67436f6e7472616374294f776e61626c653a206e6577206f776e657220697320746865207a65726f206164647265737353776170466163746f72793a20494e53554646494349454e545f494e5055545f414d4f554e5453776170466163746f72793a20494e53554646494349454e545f4f55545055545f414d4f554e54446542616e6b53776170466163746f72793a206665655261746520746f6f2068696768446542616e6b53776170466163746f72793a204645455f544f5f524154455f4f564552464c4f57536166654d6174683a206d756c7469706c69636174696f6e206f766572666c6f774f776e61626c653a2063616c6c6572206973206e6f7420746865206f776e657253776170466163746f72793a20494e53554646494349454e545f4c4951554944495459a265627a7a72315820270b76929a77c67889a53bac0381d39e9a721f1170b62b09d24995c3babf85a764736f6c634300051000326080604052601e600655600160195534801561001a57600080fd5b5060405146908060526138c8823960408051918290036052018220828201825260088352672628102a37b5b2b760c11b6020938401528151808301835260018152603160f81b908401528151808401919091527fc285f7cfebd35a59cb5c0c032add67fdc80dcde2f8127cb94e4b49a72469ed02818301527fc89efdaa54c0f20c7adf612882df0950f5a951637e0307cdcb4c672f298b8bc6606082015260808101949094523060a0808601919091528151808603909101815260c090940190528251920191909120600d5550600080546001600160a01b031916331790556137c0806101086000396000f3fe608060405234801561001057600080fd5b50600436106102a05760003560e01c8063806b984f11610167578063d250185c116100ce578063f4a70bd211610087578063f4a70bd2146107fd578063f5b9848d14610805578063f8c8765e1461080d578063fafa8f291461084b578063fcee45f414610871578063fff6cae91461088e576102a0565b8063d250185c14610743578063d505accf14610766578063d939fa8a146107b7578063da3c300d146107bf578063dd62ed3e146107c7578063e5b2aab0146107f5576102a0565b8063ad9b802411610120578063ad9b8024146106d1578063ba9a7a56146106fd578063bc25cf7714610705578063bc9c5c6a1461072b578063c45a015514610733578063d21220a71461073b576102a0565b8063806b984f1461064657806389afcb441461064e578063948023ab1461068d57806395d89b4114610695578063978bbdb91461069d578063a9059cbb146106a5576102a0565b80633644e5151161020b5780636a627842116101c45780636a627842146105a757806370a08231146105cd5780637464fc3d146105f35780637b84fda5146105fb5780637d5106e2146106185780637ecebe0014610620576102a0565b80633644e51514610546578063443cb4bc1461054e578063496cf3e4146105725780635909c0d51461058f5780635a3d5493146105975780635a76f25e1461059f576102a0565b80631183f8721161025d5780631183f8721461048457806318160ddd146104c85780631df4ccfc146104e257806323b872dd146104ea57806330adf81f14610520578063313ce56714610528576102a0565b8063022c0d9f146102a55780630442a8651461033357806306fdde031461036b5780630902f1ac146103e8578063095ea7b3146104205780630dfe168114610460575b600080fd5b610331600480360360808110156102bb57600080fd5b8135916020810135916001600160a01b0360408301351691908101906080810160608201356401000000008111156102f257600080fd5b82018360208201111561030457600080fd5b8035906020019184600183028401116401000000008311171561032657600080fd5b509092509050610896565b005b6103316004803603608081101561034957600080fd5b508035906020810135906001600160a01b036040820135169060600135610dde565b6103736112db565b6040805160208082528351818301528351919283929083019185019080838360005b838110156103ad578181015183820152602001610395565b50505050905090810190601f1680156103da5780820380516001836020036101000a031916815260200191505b509250505060405180910390f35b6103f06112ff565b604080516001600160701b03948516815292909316602083015263ffffffff168183015290519081900360600190f35b61044c6004803603604081101561043657600080fd5b506001600160a01b038135169060200135611326565b604080519115158252519081900360200190f35b61046861133d565b604080516001600160a01b039092168252519081900360200190f35b6104aa6004803603602081101561049a57600080fd5b50356001600160a01b031661134c565b60408051938452602084019290925282820152519081900360600190f35b6104d061136d565b60408051918252519081900360200190f35b6104d0611373565b61044c6004803603606081101561050057600080fd5b506001600160a01b03813581169160208101359091169060400135611379565b6104d0611413565b610530611437565b6040805160ff9092168252519081900360200190f35b6104d061143c565b610556611442565b604080516001600160701b039092168252519081900360200190f35b6103316004803603602081101561058857600080fd5b5035611451565b6104d06114ad565b6104d06114b3565b6105566114b9565b6104d0600480360360208110156105bd57600080fd5b50356001600160a01b03166114cf565b6104d0600480360360208110156105e357600080fd5b50356001600160a01b03166117d1565b6104d06117e3565b6103316004803603602081101561061157600080fd5b50356117e9565b6104d061188e565b6104d06004803603602081101561063657600080fd5b50356001600160a01b0316611894565b6104d06118a6565b6106746004803603602081101561066457600080fd5b50356001600160a01b03166118ac565b6040805192835260208301919091528051918290030190f35b610468611c5f565b610373611c6e565b6104d0611c8d565b61044c600480360360408110156106bb57600080fd5b506001600160a01b038135169060200135611c93565b6104d0600480360360408110156106e757600080fd5b506001600160a01b038135169060200135611ca0565b6104d0611d8a565b6103316004803603602081101561071b57600080fd5b50356001600160a01b0316611d90565b6104d0611eff565b610468611f05565b610468611f14565b6104d06004803603604081101561075957600080fd5b5080359060200135611f23565b610331600480360360e081101561077c57600080fd5b506001600160a01b03813581169160208101359091169060408101359060608101359060ff6080820135169060a08101359060c00135611f8a565b610468612187565b6104d0612196565b6104d0600480360360408110156107dd57600080fd5b506001600160a01b038135811691602001351661219c565b6104d06121b9565b6104d06121bf565b6104d06121c5565b6103316004803603608081101561082357600080fd5b506001600160a01b0381358116916020810135821691604082013581169160600135166121cb565b6104d06004803603602081101561086157600080fd5b50356001600160a01b03166122da565b6104d06004803603602081101561088757600080fd5b5035612310565b61033161232d565b6019546001146108e2576040805162461bcd60e51b8152602060048201526012602482015271111950985b9ad4ddd85c0e881313d0d2d15160721b604482015290519081900360640190fd5b6000601955841515806108f55750600084115b6109305760405162461bcd60e51b81526004018080602001828103825260268152602001806136d16026913960400191505060405180910390fd5b60008061093b6112ff565b5091509150816001600160701b0316871080156109605750806001600160701b031686105b61099b5760405162461bcd60e51b81526004018080602001828103825260228152602001806136f76022913960400191505060405180910390fd5b60035460045460009182916001600160a01b039182169190811690891682148015906109d95750806001600160a01b0316896001600160a01b031614155b610a23576040805162461bcd60e51b8152602060048201526016602482015275446542616e6b537761703a20494e56414c49445f544f60501b604482015290519081900360640190fd5b8a15610a3457610a34828a8d612490565b8915610a4557610a45818a8c612490565b8615610b0057886001600160a01b031663226dc882338d8d8c8c6040518663ffffffff1660e01b815260040180866001600160a01b03166001600160a01b03168152602001858152602001848152602001806020018281038252848482818152602001925080828437600081840152601f19601f8201169050808301925050509650505050505050600060405180830381600087803b158015610ae757600080fd5b505af1158015610afb573d6000803e3d6000fd5b505050505b604080516370a0823160e01b815230600482015290516001600160a01b038416916370a08231916024808301926020929190829003018186803b158015610b4657600080fd5b505afa158015610b5a573d6000803e3d6000fd5b505050506040513d6020811015610b7057600080fd5b5051604080516370a0823160e01b815230600482015290519195506001600160a01b038316916370a0823191602480820192602092909190829003018186803b158015610bbc57600080fd5b505afa158015610bd0573d6000803e3d6000fd5b505050506040513d6020811015610be657600080fd5b5051925060009150506001600160701b0385168a90038311610c09576000610c18565b89856001600160701b03160383035b9050600089856001600160701b0316038311610c35576000610c44565b89856001600160701b03160383035b90506000821180610c555750600081115b610c905760405162461bcd60e51b81526004018080602001828103825260258152602001806136ac6025913960400191505060405180910390fd5b6000610cc8610caa6006548561262290919063ffffffff16565b610cbc8761271063ffffffff61262216565b9063ffffffff61267b16565b90506000610ce4610caa6006548561262290919063ffffffff16565b9050610d166305f5e100610d0a6001600160701b038b8116908b1663ffffffff61262216565b9063ffffffff61262216565b610d26838363ffffffff61262216565b1015610d6a576040805162461bcd60e51b815260206004820152600e60248201526d446542616e6b537761703a204b3160901b604482015290519081900360640190fd5b5050610d78848488886126bd565b60408051838152602081018390528082018d9052606081018c905290516001600160a01b038b169133917fd78ad95fa46c994b6551d0da85fc275fe613ce37657fb8d5e3d130840159d8229181900360800190a350506001601955505050505050505050565b601954600114610e2a576040805162461bcd60e51b8152602060048201526012602482015271111950985b9ad4ddd85c0e881313d0d2d15160721b604482015290519081900360640190fd5b6000601981905554604080516303e21fa960e61b815290516001600160a01b039092169163f887ea4091600480820192602092909190829003018186803b158015610e7457600080fd5b505afa158015610e88573d6000803e3d6000fd5b505050506040513d6020811015610e9e57600080fd5b50516001600160a01b03163314610efc576040805162461bcd60e51b815260206004820152601760248201527f446542616e6b537761703a20726f75746572206f6e6c79000000000000000000604482015290519081900360640190fd5b8015610f0b57610f0b8161287a565b6000841180610f1a5750600083115b610f555760405162461bcd60e51b81526004018080602001828103825260268152602001806136d16026913960400191505060405180910390fd5b600080610f606112ff565b5091509150816001600160701b031686108015610f855750806001600160701b031685105b610fc05760405162461bcd60e51b81526004018080602001828103825260228152602001806136f76022913960400191505060405180910390fd5b60035460045460009182916001600160a01b03918216919081169088168214801590610ffe5750806001600160a01b0316886001600160a01b031614155b611048576040805162461bcd60e51b8152602060048201526016602482015275446542616e6b537761703a20494e56414c49445f544f60501b604482015290519081900360640190fd5b89156110595761105982898c612490565b881561106a5761106a81898b612490565b604080516370a0823160e01b815230600482015290516001600160a01b038416916370a08231916024808301926020929190829003018186803b1580156110b057600080fd5b505afa1580156110c4573d6000803e3d6000fd5b505050506040513d60208110156110da57600080fd5b5051604080516370a0823160e01b815230600482015290519195506001600160a01b038316916370a0823191602480820192602092909190829003018186803b15801561112657600080fd5b505afa15801561113a573d6000803e3d6000fd5b505050506040513d602081101561115057600080fd5b5051925060009150506001600160701b0385168990038311611173576000611182565b88856001600160701b03160383035b9050600088856001600160701b031603831161119f5760006111ae565b88856001600160701b03160383035b905060008211806111bf5750600081115b6111fa5760405162461bcd60e51b81526004018080602001828103825260258152602001806136ac6025913960400191505060405180910390fd5b6112166001600160701b0387811690871663ffffffff61262216565b611226858563ffffffff61262216565b101561126a576040805162461bcd60e51b815260206004820152600e60248201526d2232a130b735a9bbb0b81d10259960911b604482015290519081900360640190fd5b611276848488886126bd565b60408051838152602081018390528082018c9052606081018b905290516001600160a01b038a169133917fd78ad95fa46c994b6551d0da85fc275fe613ce37657fb8d5e3d130840159d8229181900360800190a3505060016019555050505050505050565b604051806040016040528060088152602001672628102a37b5b2b760c11b81525081565b6005546007546001600160701b0380831693600160701b909304169163ffffffff90911690565b600061133333848461288d565b5060015b92915050565b6001546001600160a01b031681565b60116020526000908152604090208054600182015460029092015490919083565b600c5481565b60175481565b6001600160a01b0383166000908152601060209081526040808320338452909152812054600019146113fe576001600160a01b03841660009081526010602090815260408083203384529091529020546113d9908363ffffffff61267b16565b6001600160a01b03851660009081526010602090815260408083203384529091529020555b6114098484846128ef565b5060019392505050565b7f6e71edae12b1b97f4d1f60370fef10105fa2faae0126114a169c64845d6126c981565b601281565b600d5481565b6005546001600160701b031681565b6000546001600160a01b031633146114a8576040805162461bcd60e51b81526020600482015260156024820152742232a130b735a9bbb0b81d102327a92124a22222a760591b604482015290519081900360640190fd5b600855565b60095481565b600a5481565b600554600160701b90046001600160701b031681565b600060195460011461151d576040805162461bcd60e51b8152602060048201526012602482015271111950985b9ad4ddd85c0e881313d0d2d15160721b604482015290519081900360640190fd5b600060198190558061152d6112ff565b50600354604080516370a0823160e01b815230600482015290519395509193506000926001600160a01b03909116916370a08231916024808301926020929190829003018186803b15801561158157600080fd5b505afa158015611595573d6000803e3d6000fd5b505050506040513d60208110156115ab57600080fd5b505160048054604080516370a0823160e01b81523093810193909352519293506000926001600160a01b03909116916370a08231916024808301926020929190829003018186803b1580156115ff57600080fd5b505afa158015611613573d6000803e3d6000fd5b505050506040513d602081101561162957600080fd5b505190506000611648836001600160701b03871663ffffffff61267b16565b90506000611665836001600160701b03871663ffffffff61267b16565b9050600061167387876129fe565b600c54909150806116b05761169c6103e8610cbc611697878763ffffffff61262216565b612b53565b98506116ab60006103e8612ba4565b6116ff565b6116fc6001600160701b0389166116cd868463ffffffff61262216565b816116d457fe5b046001600160701b0389166116ef868563ffffffff61262216565b816116f657fe5b04612c62565b98505b6000891161173e5760405162461bcd60e51b81526004018080602001828103825260298152602001806137196029913960400191505060405180910390fd5b6117488a8a612ba4565b61175486868a8a6126bd565b811561178457600554611780906001600160701b0380821691600160701b90041663ffffffff61262216565b600b555b6040805185815260208101859052815133927f4c209b5fc8ad50758f13e2e1088ba56a560dff690a1c6fef26394f4c03821c4f928290030190a25050600160195550949695505050505050565b600f6020526000908152604090205481565b600b5481565b6000546001600160a01b03163314611840576040805162461bcd60e51b81526020600482015260156024820152742232a130b735a9bbb0b81d102327a92124a22222a760591b604482015290519081900360640190fd5b60c8811115611889576040805162461bcd60e51b815260206004820152601060248201526f0cccacaa4c2e8ca40e8dede40d0d2ced60831b604482015290519081900360640190fd5b600655565b60155481565b600e6020526000908152604090205481565b60185481565b6000806019546001146118fb576040805162461bcd60e51b8152602060048201526012602482015271111950985b9ad4ddd85c0e881313d0d2d15160721b604482015290519081900360640190fd5b600060198190558061190b6112ff565b5060035460048054604080516370a0823160e01b81523093810193909352519496509294506001600160a01b0391821693919092169160009184916370a08231916024808301926020929190829003018186803b15801561196b57600080fd5b505afa15801561197f573d6000803e3d6000fd5b505050506040513d602081101561199557600080fd5b5051604080516370a0823160e01b815230600482015290519192506000916001600160a01b038516916370a08231916024808301926020929190829003018186803b1580156119e357600080fd5b505afa1580156119f7573d6000803e3d6000fd5b505050506040513d6020811015611a0d57600080fd5b5051306000908152600f6020526040812054919250611a2c88886129fe565b600c5490915080611a43848763ffffffff61262216565b81611a4a57fe5b049a5080611a5e848663ffffffff61262216565b81611a6557fe5b04995060008b118015611a78575060008a115b611ab35760405162461bcd60e51b81526004018080602001828103825260298152602001806137426029913960400191505060405180910390fd5b611abb612c79565b611ac53084612cec565b611ad0878d8d612490565b611adb868d8c612490565b604080516370a0823160e01b815230600482015290516001600160a01b038916916370a08231916024808301926020929190829003018186803b158015611b2157600080fd5b505afa158015611b35573d6000803e3d6000fd5b505050506040513d6020811015611b4b57600080fd5b5051604080516370a0823160e01b815230600482015290519196506001600160a01b038816916370a0823191602480820192602092909190829003018186803b158015611b9757600080fd5b505afa158015611bab573d6000803e3d6000fd5b505050506040513d6020811015611bc157600080fd5b50519350611bd185858b8b6126bd565b8115611c0157600554611bfd906001600160701b0380821691600160701b90041663ffffffff61262216565b600b555b604080518c8152602081018c905281516001600160a01b038f169233927fdccd412f0b1252819cb1fd330b93224ca42612892bb3f4f789976e6d81936496929081900390910190a35050505050505050506001601981905550915091565b6003546001600160a01b031681565b60405180604001604052806003815260200162088caf60eb1b81525081565b60065481565b60006113333384846128ef565b6003546000906001600160a01b03848116911614801590611ccf57506004546001600160a01b03848116911614155b80611ce357506005546001600160701b0316155b80611cfe5750600554600160701b90046001600160701b0316155b15611d0b57506000611337565b6003546001600160a01b0384811691161415611d6057600554611d59906001600160701b0380821691611d4d91600160701b909104168563ffffffff61262216565b9063ffffffff612d8916565b9050611337565b600554611d59906001600160701b03600160701b8204811691611d4d91168563ffffffff61262216565b6103e881565b601954600114611ddc576040805162461bcd60e51b8152602060048201526012602482015271111950985b9ad4ddd85c0e881313d0d2d15160721b604482015290519081900360640190fd5b600060195560035460048054600554604080516370a0823160e01b81523094810194909452516001600160a01b039485169490921692611e8e9285928792611e89926001600160701b039092169185916370a08231916024808301926020929190829003018186803b158015611e5157600080fd5b505afa158015611e65573d6000803e3d6000fd5b505050506040513d6020811015611e7b57600080fd5b50519063ffffffff61267b16565b612490565b600554604080516370a0823160e01b81523060048201529051611ef59284928792611e8992600160701b90046001600160701b0316916001600160a01b038616916370a0823191602480820192602092909190829003018186803b158015611e5157600080fd5b5050600160195550565b60125481565b6000546001600160a01b031681565b6002546001600160a01b031681565b60006103e88210611f6d576040805162461bcd60e51b815260206004820152600f60248201526e696e76616c6964206665655261746560881b604482015290519081900360640190fd5b611f83612710611d4d858563ffffffff61262216565b9392505050565b42841015611fcf576040805162461bcd60e51b815260206004820152600d60248201526c14ddd85c0e8811561412549151609a1b604482015290519081900360640190fd5b600d546001600160a01b038089166000818152600e602090815260408083208054600180820190925582517f6e71edae12b1b97f4d1f60370fef10105fa2faae0126114a169c64845d6126c98186015280840196909652958d166060860152608085018c905260a085019590955260c08085018b90528151808603909101815260e08501825280519083012061190160f01b6101008601526101028501969096526101228085019690965280518085039096018652610142840180825286519683019690962095839052610162840180825286905260ff89166101828501526101a284018890526101c28401879052519193926101e280820193601f1981019281900390910190855afa1580156120ea573d6000803e3d6000fd5b5050604051601f1901519150506001600160a01b038116158015906121205750886001600160a01b0316816001600160a01b0316145b612171576040805162461bcd60e51b815260206004820152601760248201527f537761703a20494e56414c49445f5349474e4154555245000000000000000000604482015290519081900360640190fd5b61217c89898961288d565b505050505050505050565b6004546001600160a01b031681565b60165481565b601060209081526000928352604080842090915290825290205481565b60135481565b60145481565b60085481565b6000546001600160a01b03163314612222576040805162461bcd60e51b81526020600482015260156024820152742232a130b735a9bbb0b81d102327a92124a22222a760591b604482015290519081900360640190fd5b600180546001600160a01b03199081166001600160a01b0387811691909117909255600280548216868416179055600380548216858416179055600480549091168383161781556000546040805163f5b9848d60e01b81529051919093169263f5b9848d9281810192602092909190829003018186803b1580156122a557600080fd5b505afa1580156122b9573d6000803e3d6000fd5b505050506040513d60208110156122cf57600080fd5b505160085550505050565b60006122e582612dcb565b156122f25750600061230b565b6122fa612c79565b612308826000600180612e4b565b90505b919050565b6000612308612710611d4d6006548561262290919063ffffffff16565b601954600114612379576040805162461bcd60e51b8152602060048201526012602482015271111950985b9ad4ddd85c0e881313d0d2d15160721b604482015290519081900360640190fd5b6000601955600154604080516370a0823160e01b81523060048201529051612489926001600160a01b0316916370a08231916024808301926020929190829003018186803b1580156123ca57600080fd5b505afa1580156123de573d6000803e3d6000fd5b505050506040513d60208110156123f457600080fd5b5051600254604080516370a0823160e01b815230600482015290516001600160a01b03909216916370a0823191602480820192602092909190829003018186803b15801561244157600080fd5b505afa158015612455573d6000803e3d6000fd5b505050506040513d602081101561246b57600080fd5b50516005546001600160701b0380821691600160701b9004166126bd565b6001601955565b604080518082018252601981527f7472616e7366657228616464726573732c75696e74323536290000000000000060209182015281516001600160a01b0385811660248301526044808301869052845180840390910181526064909201845291810180516001600160e01b031663a9059cbb60e01b1781529251815160009460609489169392918291908083835b6020831061253d5780518252601f19909201916020918201910161251e565b6001836020036101000a0380198251168184511680821785525050505050509050019150506000604051808303816000865af19150503d806000811461259f576040519150601f19603f3d011682016040523d82523d6000602084013e6125a4565b606091505b50915091508180156125d25750805115806125d257508080602001905160208110156125cf57600080fd5b50515b61261b576040805162461bcd60e51b815260206004820152601560248201527414ddd85c0e881514905394d1915497d19052531151605a1b604482015290519081900360640190fd5b5050505050565b60008261263157506000611337565b8282028284828161263e57fe5b0414611f835760405162461bcd60e51b815260040180806020018281038252602181526020018061376b6021913960400191505060405180910390fd5b6000611f8383836040518060400160405280601e81526020017f536166654d6174683a207375627472616374696f6e206f766572666c6f770000815250613176565b6001600160701b0384118015906126db57506001600160701b038311155b612723576040805162461bcd60e51b8152602060048201526014602482015273446542616e6b537761703a204f564552464c4f5760601b604482015290519081900360640190fd5b60075463ffffffff42811691811682039081161580159061274c57506001600160701b03841615155b801561276057506001600160701b03831615155b156127d1578063ffffffff1661278e856127798661320d565b6001600160e01b03169063ffffffff61321f16565b600980546001600160e01b03929092169290920201905563ffffffff81166127b9846127798761320d565b600a80546001600160e01b0392909216929092020190555b600580546dffffffffffffffffffffffffffff19166001600160701b03888116919091176dffffffffffffffffffffffffffff60701b1916600160701b888316810291909117928390556007805463ffffffff191663ffffffff871617905560408051848416815291909304909116602082015281517f1c411e9a96e071241c2f21f7726b17ae89e3cab4c78be50e062b03a9fffbbad1929181900390910190a1505050505050565b6017805482019055601680549091019055565b6001600160a01b03808416600081815260106020908152604080832094871680845294825291829020859055815185815291517f8c5be1e5ebec7d5bd14f71427d1e84f3dd0314c0f7b2291e5b200ac8c7c3b9259281900390910190a3505050565b6001600160a01b0383166000908152600f6020526040902054612918908263ffffffff61267b16565b6001600160a01b038085166000908152600f6020526040808220939093559084168152205461294d908263ffffffff61324416565b6001600160a01b0383166000908152600f602052604090205561296f83612dcb565b158015612982575061298082612dcb565b155b156129ae5761298f612c79565b61299d838260006001612e4b565b506129ac828260016000612e4b565b505b816001600160a01b0316836001600160a01b03167fddf252ad1be2c89b69c2b068fc378daa952ba7f163c4a11628f55a4df523b3ef836040518082815260200191505060405180910390a3505050565b6000805460408051622fcfcb60e31b8152905183926001600160a01b03169163017e7e58916004808301926020929190829003018186803b158015612a4257600080fd5b505afa158015612a56573d6000803e3d6000fd5b505050506040513d6020811015612a6c57600080fd5b5051600b546001600160a01b038216158015945091925090612b3f578015612b3a576000612aaf6116976001600160701b0388811690881663ffffffff61262216565b90506000612abc83612b53565b905080821115612b37576000612aea612adb848463ffffffff61267b16565b600c549063ffffffff61262216565b90506000612b1383612b076008548761262290919063ffffffff16565b9063ffffffff61324416565b90506000818381612b2057fe5b0490508015612b3357612b338782612ba4565b5050505b50505b612b4b565b8015612b4b576000600b555b505092915050565b60006003821115612b96575080600160028204015b81811015612b9057809150600281828581612b7f57fe5b040181612b8857fe5b049050612b68565b5061230b565b811561230b57506001919050565b6001600160a01b03821615612bcb57612bbb612c79565b612bc9828260016000612e4b565b505b600c54612bde908263ffffffff61324416565b600c556001600160a01b0382166000908152600f6020526040902054612c0a908263ffffffff61324416565b6001600160a01b0383166000818152600f602090815260408083209490945583518581529351929391927fddf252ad1be2c89b69c2b068fc378daa952ba7f163c4a11628f55a4df523b3ef9281900390910190a35050565b600081831115612c725781611f83565b5090919050565b436018541415612c8857612cea565b436018556000612c9661329e565b90506000612ca26133cd565b90508181018015801590612cb857506000600c54115b15612ce657600c54612cdc90611d4d83670de0b6b3a764000063ffffffff61262216565b6012805490910190555b5050505b565b6001600160a01b0382166000908152600f6020526040902054612d15908263ffffffff61267b16565b6001600160a01b0383166000908152600f6020526040902055600c54612d41908263ffffffff61267b16565b600c556040805182815290516000916001600160a01b038516917fddf252ad1be2c89b69c2b068fc378daa952ba7f163c4a11628f55a4df523b3ef9181900360200190a35050565b6000611f8383836040518060400160405280601a81526020017f536166654d6174683a206469766973696f6e206279207a65726f000000000000815250613646565b600080546040805163658eb13760e01b81526001600160a01b0385811660048301529151919092169163658eb137916024808301926020929190829003018186803b158015612e1957600080fd5b505afa158015612e2d573d6000803e3d6000fd5b505050506040513d6020811015612e4357600080fd5b505192915050565b6001600160a01b0384166000908152601160205260408120805460125481612edb57600186151514612eb4576040805162461bcd60e51b815260206004820152600d60248201526c6e6f20616d7420746f2064656360981b604482015290519081900360640190fd5b868355612ec7878263ffffffff61262216565b83600201819055506000935050505061316e565b8615612f4e576002830154612efa90610cbc848463ffffffff61262216565b60018401805490910190558515612f2257612f1b828863ffffffff61324416565b9150612f35565b612f32828863ffffffff61267b16565b91505b818355612f48828263ffffffff61262216565b60028401555b841561316a5760008060009054906101000a90046001600160a01b03166001600160a01b031663f887ea406040518163ffffffff1660e01b815260040160206040518083038186803b158015612fa357600080fd5b505afa158015612fb7573d6000803e3d6000fd5b505050506040513d6020811015612fcd57600080fd5b50516040805163f7c618c160e01b815290516001600160a01b039092169163f7c618c191600480820192602092909190829003018186803b15801561301157600080fd5b505afa158015613025573d6000803e3d6000fd5b505050506040513d602081101561303b57600080fd5b505190506001600160a01b038116613090576040805162461bcd60e51b81526020600482015260136024820152721c995dd85c99151bdad95b881b9bdd081cd95d606a1b604482015290519081900360640190fd5b6130cb670de0b6b3a7640000611d4d6130ba8760020154610cbc878961262290919063ffffffff16565b60018801549063ffffffff61324416565b94506130dd838363ffffffff61262216565b60028501556040805163a9059cbb60e01b81526001600160a01b038b811660048301526024820188905291519183169163a9059cbb916044808201926020929091908290030181600087803b15801561313557600080fd5b505af1158015613149573d6000803e3d6000fd5b505050506040513d602081101561315f57600080fd5b505060006001850155505b5050505b949350505050565b600081848411156132055760405162461bcd60e51b81526004018080602001828103825283818151815260200191508051906020019080838360005b838110156131ca5781810151838201526020016131b2565b50505050905090810190601f1680156131f75780820380516001836020036101000a031916815260200191505b509250505060405180910390fd5b505050900390565b6001600160701b0316600160701b0290565b60006001600160701b0382166001600160e01b0384168161323c57fe5b049392505050565b600082820183811015611f83576040805162461bcd60e51b815260206004820152601b60248201527f536166654d6174683a206164646974696f6e206f766572666c6f770000000000604482015290519081900360640190fd5b6000601654600014156132b3575060006133ca565b60008060009054906101000a90046001600160a01b03166001600160a01b031663f887ea406040518163ffffffff1660e01b815260040160206040518083038186803b15801561330257600080fd5b505afa158015613316573d6000803e3d6000fd5b505050506040513d602081101561332c57600080fd5b505160015460025460165460408051631f293e8760e11b81526001600160a01b039485166004820152928416602484015260448301919091525192935090831691633e527d0e916064808201926020929091908290030181600087803b15801561339557600080fd5b505af11580156133a9573d6000803e3d6000fd5b505050506040513d60208110156133bf57600080fd5b505160006016559150505b90565b60008054604080516303e21fa960e61b8152905183926001600160a01b03169163f887ea40916004808301926020929190829003018186803b15801561341257600080fd5b505afa158015613426573d6000803e3d6000fd5b505050506040513d602081101561343c57600080fd5b50516040805163f7c618c160e01b815290516001600160a01b039092169163f7c618c191600480820192602092909190829003018186803b15801561348057600080fd5b505afa158015613494573d6000803e3d6000fd5b505050506040513d60208110156134aa57600080fd5b505190506001600160a01b0381166134c65760009150506133ca565b604080516370a0823160e01b815230600482015290516000916001600160a01b038416916370a0823191602480820192602092909190829003018186803b15801561351057600080fd5b505afa158015613524573d6000803e3d6000fd5b505050506040513d602081101561353a57600080fd5b5051600080546040805163197a156960e01b8152905193945091926001600160a01b039091169163197a1569916004808301926020929190829003018186803b15801561358657600080fd5b505afa15801561359a573d6000803e3d6000fd5b505050506040513d60208110156135b057600080fd5b5051604080516002808252606080830184529394509091602083019080388339505060035482519293506001600160a01b0316918391506000906135f057fe5b6001600160a01b03928316602091820292909201015260045482519116908290600190811061361b57fe5b60200260200101906001600160a01b031690816001600160a01b031681525050600094505050505090565b600081836136955760405162461bcd60e51b81526020600482018181528351602484015283519092839260449091019190850190808383600083156131ca5781810151838201526020016131b2565b5060008385816136a157fe5b049594505050505056fe446542616e6b537761703a20494e53554646494349454e545f494e5055545f414d4f554e54446542616e6b537761703a20494e53554646494349454e545f4f55545055545f414d4f554e54446542616e6b537761703a20494e53554646494349454e545f4c4951554944495459446542616e6b537761703a20494e53554646494349454e545f4c49515549444954595f4d494e544544446542616e6b537761703a20494e53554646494349454e545f4c49515549444954595f4255524e4544536166654d6174683a206d756c7469706c69636174696f6e206f766572666c6f77a265627a7a72315820f17c02ffccf94e9e073d32a1e094acf06a7aac1835b10fdbaabe1f448bf8223164736f6c63430005100032454950373132446f6d61696e28737472696e67206e616d652c737472696e672076657273696f6e2c75696e7432353620636861696e49642c6164647265737320766572696679696e67436f6e747261637429",
  "linkReferences": {},
  "deployedLinkReferences": {}
}