{
  "_format": "hh-sol-artifact-1",
  "contractName": "LeverageHoldingComptroller",
  "sourceName": "contracts/compound/LeverageHoldingComptroller.sol",
  "abi": [
    {
      "anonymous": false,
      "inputs": [
        {
          "indexed": false,
          "internalType": "uint256",
          "name": "error",
          "type": "uint256"
        },
        {
          "indexed": false,
          "internalType": "uint256",
          "name": "info",
          "type": "uint256"
        },
        {
          "indexed": false,
          "internalType": "uint256",
          "name": "detail",
          "type": "uint256"
        }
      ],
      "name": "Failure",
      "type": "event"
    },
    {
      "anonymous": false,
      "inputs": [
        {
          "indexed": false,
          "internalType": "contract ComptrollerInterfaceV2",
          "name": "comptrollerV2Old",
          "type": "address"
        },
        {
          "indexed": false,
          "internalType": "contract ComptrollerInterfaceV2",
          "name": "comptrollerV2New",
          "type": "address"
        }
      ],
      "name": "NewComptrollerV2",
      "type": "event"
    },
    {
      "anonymous": false,
      "inputs": [
        {
          "indexed": false,
          "internalType": "contract LeverageHoldingInterface",
          "name": "delegatorOld",
          "type": "address"
        },
        {
          "indexed": false,
          "internalType": "contract LeverageHoldingInterface",
          "name": "delegatorNew",
          "type": "address"
        }
      ],
      "name": "NewDelegator",
      "type": "event"
    },
    {
      "anonymous": false,
      "inputs": [
        {
          "indexed": false,
          "internalType": "contract PriceOracle",
          "name": "oracleOld",
          "type": "address"
        },
        {
          "indexed": false,
          "internalType": "contract PriceOracle",
          "name": "oracleNew",
          "type": "address"
        }
      ],
      "name": "NewPriceOracle",
      "type": "event"
    },
    {
      "constant": false,
      "inputs": [
        {
          "internalType": "address",
          "name": "eTokenA",
          "type": "address"
        },
        {
          "internalType": "address",
          "name": "eTokenB",
          "type": "address"
        }
      ],
      "name": "_closeLeverage",
      "outputs": [],
      "payable": false,
      "stateMutability": "nonpayable",
      "type": "function"
    },
    {
      "constant": false,
      "inputs": [
        {
          "internalType": "address",
          "name": "eTokenA",
          "type": "address"
        },
        {
          "internalType": "address",
          "name": "eTokenB",
          "type": "address"
        }
      ],
      "name": "_openLeverage",
      "outputs": [],
      "payable": false,
      "stateMutability": "nonpayable",
      "type": "function"
    },
    {
      "constant": false,
      "inputs": [
        {
          "internalType": "contract ComptrollerInterfaceV2",
          "name": "comptrollerV2_",
          "type": "address"
        }
      ],
      "name": "_setComptrollerV2",
      "outputs": [
        {
          "internalType": "uint256",
          "name": "",
          "type": "uint256"
        }
      ],
      "payable": false,
      "stateMutability": "nonpayable",
      "type": "function"
    },
    {
      "constant": false,
      "inputs": [
        {
          "internalType": "contract LeverageHoldingInterface",
          "name": "delegator_",
          "type": "address"
        }
      ],
      "name": "_setDelegator",
      "outputs": [
        {
          "internalType": "uint256",
          "name": "",
          "type": "uint256"
        }
      ],
      "payable": false,
      "stateMutability": "nonpayable",
      "type": "function"
    },
    {
      "constant": false,
      "inputs": [
        {
          "internalType": "contract PriceOracle",
          "name": "oracle_",
          "type": "address"
        }
      ],
      "name": "_setPrice",
      "outputs": [
        {
          "internalType": "uint256",
          "name": "",
          "type": "uint256"
        }
      ],
      "payable": false,
      "stateMutability": "nonpayable",
      "type": "function"
    },
    {
      "constant": true,
      "inputs": [],
      "name": "admin",
      "outputs": [
        {
          "internalType": "address",
          "name": "",
          "type": "address"
        }
      ],
      "payable": false,
      "stateMutability": "view",
      "type": "function"
    },
    {
      "constant": true,
      "inputs": [],
      "name": "comptrollerImplementation",
      "outputs": [
        {
          "internalType": "address",
          "name": "",
          "type": "address"
        }
      ],
      "payable": false,
      "stateMutability": "view",
      "type": "function"
    },
    {
      "constant": true,
      "inputs": [],
      "name": "comptrollerV2",
      "outputs": [
        {
          "internalType": "contract ComptrollerInterfaceV2",
          "name": "",
          "type": "address"
        }
      ],
      "payable": false,
      "stateMutability": "view",
      "type": "function"
    },
    {
      "constant": true,
      "inputs": [
        {
          "internalType": "address",
          "name": "eToken0",
          "type": "address"
        },
        {
          "internalType": "address",
          "name": "eToken1",
          "type": "address"
        }
      ],
      "name": "depositAllowed",
      "outputs": [
        {
          "internalType": "uint256",
          "name": "",
          "type": "uint256"
        },
        {
          "internalType": "address",
          "name": "",
          "type": "address"
        },
        {
          "internalType": "address",
          "name": "",
          "type": "address"
        }
      ],
      "payable": false,
      "stateMutability": "view",
      "type": "function"
    },
    {
      "constant": true,
      "inputs": [
        {
          "internalType": "address",
          "name": "account",
          "type": "address"
        },
        {
          "internalType": "address",
          "name": "token0",
          "type": "address"
        },
        {
          "internalType": "address",
          "name": "token1",
          "type": "address"
        },
        {
          "internalType": "uint256",
          "name": "deposit0",
          "type": "uint256"
        },
        {
          "internalType": "uint256",
          "name": "deposit1",
          "type": "uint256"
        },
        {
          "internalType": "uint256",
          "name": "leverage0",
          "type": "uint256"
        },
        {
          "internalType": "uint256",
          "name": "leverage1",
          "type": "uint256"
        }
      ],
      "name": "getHypotheticalAccountLiquidityInternal",
      "outputs": [
        {
          "internalType": "uint256",
          "name": "",
          "type": "uint256"
        },
        {
          "internalType": "uint256",
          "name": "",
          "type": "uint256"
        },
        {
          "internalType": "uint256",
          "name": "",
          "type": "uint256"
        },
        {
          "internalType": "uint256",
          "name": "",
          "type": "uint256"
        }
      ],
      "payable": false,
      "stateMutability": "view",
      "type": "function"
    },
    {
      "constant": true,
      "inputs": [
        {
          "internalType": "address",
          "name": "eToken0",
          "type": "address"
        },
        {
          "internalType": "address",
          "name": "eToken1",
          "type": "address"
        },
        {
          "internalType": "address",
          "name": "account",
          "type": "address"
        },
        {
          "internalType": "uint256",
          "name": "price0",
          "type": "uint256"
        },
        {
          "internalType": "uint256",
          "name": "price1",
          "type": "uint256"
        },
        {
          "internalType": "uint256",
          "name": "leverage0",
          "type": "uint256"
        },
        {
          "internalType": "uint256",
          "name": "leverage1",
          "type": "uint256"
        }
      ],
      "name": "getLeverageAsserts",
      "outputs": [
        {
          "internalType": "uint256",
          "name": "",
          "type": "uint256"
        },
        {
          "internalType": "uint256",
          "name": "",
          "type": "uint256"
        },
        {
          "internalType": "uint256",
          "name": "",
          "type": "uint256"
        },
        {
          "internalType": "uint256",
          "name": "",
          "type": "uint256"
        }
      ],
      "payable": false,
      "stateMutability": "view",
      "type": "function"
    },
    {
      "constant": true,
      "inputs": [
        {
          "internalType": "address",
          "name": "eTokenA",
          "type": "address"
        },
        {
          "internalType": "address",
          "name": "eTokenB",
          "type": "address"
        }
      ],
      "name": "getPairAddr",
      "outputs": [
        {
          "internalType": "uint256",
          "name": "",
          "type": "uint256"
        },
        {
          "internalType": "address",
          "name": "",
          "type": "address"
        },
        {
          "internalType": "address",
          "name": "",
          "type": "address"
        }
      ],
      "payable": false,
      "stateMutability": "pure",
      "type": "function"
    },
    {
      "constant": true,
      "inputs": [
        {
          "internalType": "address",
          "name": "eToken0",
          "type": "address"
        },
        {
          "internalType": "address",
          "name": "eToken1",
          "type": "address"
        },
        {
          "internalType": "address",
          "name": "account",
          "type": "address"
        },
        {
          "internalType": "uint256",
          "name": "price0",
          "type": "uint256"
        },
        {
          "internalType": "uint256",
          "name": "price1",
          "type": "uint256"
        },
        {
          "internalType": "uint256",
          "name": "deposit0",
          "type": "uint256"
        },
        {
          "internalType": "uint256",
          "name": "deposit1",
          "type": "uint256"
        }
      ],
      "name": "getPledgeAsserts",
      "outputs": [
        {
          "internalType": "uint256",
          "name": "",
          "type": "uint256"
        },
        {
          "internalType": "uint256",
          "name": "",
          "type": "uint256"
        },
        {
          "internalType": "uint256",
          "name": "",
          "type": "uint256"
        }
      ],
      "payable": false,
      "stateMutability": "view",
      "type": "function"
    },
    {
      "constant": true,
      "inputs": [
        {
          "internalType": "address",
          "name": "eToken_",
          "type": "address"
        },
        {
          "internalType": "uint256",
          "name": "eTokens",
          "type": "uint256"
        }
      ],
      "name": "getTokenAmount",
      "outputs": [
        {
          "internalType": "uint256",
          "name": "",
          "type": "uint256"
        }
      ],
      "payable": false,
      "stateMutability": "view",
      "type": "function"
    },
    {
      "constant": true,
      "inputs": [
        {
          "internalType": "address",
          "name": "eToken0",
          "type": "address"
        },
        {
          "internalType": "address",
          "name": "eToken1",
          "type": "address"
        }
      ],
      "name": "leverageAllowed",
      "outputs": [
        {
          "internalType": "uint256",
          "name": "",
          "type": "uint256"
        },
        {
          "internalType": "address",
          "name": "",
          "type": "address"
        },
        {
          "internalType": "address",
          "name": "",
          "type": "address"
        }
      ],
      "payable": false,
      "stateMutability": "view",
      "type": "function"
    },
    {
      "constant": true,
      "inputs": [],
      "name": "leverageDelegator",
      "outputs": [
        {
          "internalType": "contract LeverageHoldingInterface",
          "name": "",
          "type": "address"
        }
      ],
      "payable": false,
      "stateMutability": "view",
      "type": "function"
    },
    {
      "constant": true,
      "inputs": [
        {
          "internalType": "address",
          "name": "eToken0",
          "type": "address"
        },
        {
          "internalType": "address",
          "name": "eToken1",
          "type": "address"
        },
        {
          "internalType": "address",
          "name": "account",
          "type": "address"
        }
      ],
      "name": "leverageVerify",
      "outputs": [
        {
          "internalType": "uint256",
          "name": "",
          "type": "uint256"
        }
      ],
      "payable": false,
      "stateMutability": "view",
      "type": "function"
    },
    {
      "constant": true,
      "inputs": [],
      "name": "oracle",
      "outputs": [
        {
          "internalType": "contract PriceOracle",
          "name": "",
          "type": "address"
        }
      ],
      "payable": false,
      "stateMutability": "view",
      "type": "function"
    },
    {
      "constant": true,
      "inputs": [],
      "name": "pendingAdmin",
      "outputs": [
        {
          "internalType": "address",
          "name": "",
          "type": "address"
        }
      ],
      "payable": false,
      "stateMutability": "view",
      "type": "function"
    },
    {
      "constant": true,
      "inputs": [
        {
          "internalType": "address",
          "name": "eToken0",
          "type": "address"
        },
        {
          "internalType": "address",
          "name": "eToken1",
          "type": "address"
        },
        {
          "internalType": "address",
          "name": "account",
          "type": "address"
        }
      ],
      "name": "withdrawAllowed",
      "outputs": [
        {
          "internalType": "uint256",
          "name": "",
          "type": "uint256"
        },
        {
          "internalType": "address",
          "name": "",
          "type": "address"
        },
        {
          "internalType": "address",
          "name": "",
          "type": "address"
        }
      ],
      "payable": false,
      "stateMutability": "view",
      "type": "function"
    },
    {
      "constant": true,
      "inputs": [
        {
          "internalType": "address",
          "name": "eToken0",
          "type": "address"
        },
        {
          "internalType": "address",
          "name": "eToken1",
          "type": "address"
        },
        {
          "internalType": "address",
          "name": "account",
          "type": "address"
        }
      ],
      "name": "withdrawVerify",
      "outputs": [
        {
          "internalType": "uint256",
          "name": "",
          "type": "uint256"
        }
      ],
      "payable": false,
      "stateMutability": "view",
      "type": "function"
    }
  ],
  "bytecode": "0x6080604052670de0b6b3a7640000600055670f43fc2c04ee0000600855670214e8348c4f0000600955671158e460913d0000600a55671bc16d674ec80000600b5534801561004c57600080fd5b5061190c8061005c6000396000f3fe608060405234801561001057600080fd5b50600436106101375760003560e01c80637dc0d1d0116100b8578063ca9342801161007c578063ca9342801461040e578063cc37ee9414610446578063cd13e69d14610474578063e6640977146104a2578063f43554ce146104f0578063f851a4401461051657610137565b80637dc0d1d014610336578063a3d5974e1461033e578063a686072114610364578063bb82aa5e14610392578063c58734841461039a57610137565b80632b8b6817116100ff5780632b8b68171461022c57806344f7d91014610234578063484fa0851461025a5780634f571031146102925780637c05bc34146102ca57610137565b8063106d37861461013c578063115ece4c1461016057806319a3de6d1461019e578063205e2471146101f45780632678224714610224575b600080fd5b61014461051e565b604080516001600160a01b039092168252519081900360200190f35b61018c6004803603604081101561017657600080fd5b506001600160a01b03813516906020013561052d565b60408051918252519081900360200190f35b6101cc600480360360408110156101b457600080fd5b506001600160a01b03813581169160200135166105ba565b604080519384526001600160a01b039283166020850152911682820152519081900360600190f35b6102226004803603604081101561020a57600080fd5b506001600160a01b0381358116916020013516610645565b005b61014461069e565b6101446106ad565b61018c6004803603602081101561024a57600080fd5b50356001600160a01b03166106bc565b6101cc6004803603606081101561027057600080fd5b506001600160a01b03813581169160208101358216916040909101351661074e565b61018c600480360360608110156102a857600080fd5b506001600160a01b0381358116916020810135821691604090910135166108f5565b610318600480360360e08110156102e057600080fd5b506001600160a01b03813581169160208101358216916040820135169060608101359060808101359060a08101359060c001356109c3565b60408051938452602084019290925282820152519081900360600190f35b610144610b3c565b61018c6004803603602081101561035457600080fd5b50356001600160a01b0316610b4b565b6101cc6004803603604081101561037a57600080fd5b506001600160a01b0381358116916020013516610bd1565b610144610d1d565b6103e8600480360360e08110156103b057600080fd5b506001600160a01b03813581169160208101358216916040820135169060608101359060808101359060a08101359060c00135610d2c565b604080519485526020850193909352838301919091526060830152519081900360800190f35b61018c6004803603606081101561042457600080fd5b506001600160a01b038135811691602081013582169160409091013516610fa6565b6102226004803603604081101561045c57600080fd5b506001600160a01b0381358116916020013516611055565b6101cc6004803603604081101561048a57600080fd5b506001600160a01b03813581169160200135166110ab565b6103e8600480360360e08110156104b857600080fd5b506001600160a01b03813581169160208101358216916040820135169060608101359060808101359060a08101359060c00135611107565b61018c6004803603602081101561050657600080fd5b50356001600160a01b03166113c9565b61014461144f565b6006546001600160a01b031681565b60008083905060006105b06040518060200160405280846001600160a01b031663182df0f56040518163ffffffff1660e01b815260040160206040518083038186803b15801561057c57600080fd5b505afa158015610590573d6000803e3d6000fd5b505050506040513d60208110156105a657600080fd5b505190528561145e565b9695505050505050565b6000806000836001600160a01b0316856001600160a01b031614156105e8575060019150600090508061063e565b600080856001600160a01b0316876001600160a01b03161061060b57858761060e565b86865b90925090506001600160a01b03821661063457600294506000935083925061063e915050565b6000945090925090505b9250925092565b600080600061065485856105ba565b9250925092508260001461066757600080fd5b6001600160a01b0391821660009081526004602090815260408083209390941682529190915220805460ff19166001179055505050565b6002546001600160a01b031681565b6007546001600160a01b031681565b6001546000906001600160a01b031633146106e4576106dd600860096114b2565b9050610749565b600780546001600160a01b038481166001600160a01b0319831617928390556040805192821680845293909116602083015280517fe0be553bc4b60ab2401743efd789355e794b45be2c29f9e5f709210fe2c0f01b9281900390910190a160005b9150505b919050565b60008060008060008061076189896105ba565b925092509250826000146107845760035b9550600094508493506108ec92505050565b60065460408051632f52e59560e01b81526001600160a01b03858116600483015291519190921691632f52e595916024808301926020929190829003018186803b1580156107d157600080fd5b505afa1580156107e5573d6000803e3d6000fd5b505050506040513d60208110156107fb57600080fd5b5051158061087f575060065460408051632f52e59560e01b81526001600160a01b03848116600483015291519190921691632f52e595916024808301926020929190829003018186803b15801561085157600080fd5b505afa158015610865573d6000803e3d6000fd5b505050506040513d602081101561087b57600080fd5b5051155b1561088b576005610772565b60008061089f898585600080600080610d2c565b935050509150600060098111156108b257fe5b82146108cf5760035b9750600096508695506108ec945050505050565b600b5481116108df5760076108bb565b5060009650919450925050505b93509350939050565b60008060008061090587876105ba565b925092509250826000146109205760035b93505050506109bc565b600080610934878585600080600080610d2c565b9350505091506000600981111561094757fe5b821461099a576040805162461bcd60e51b815260206004820152601b60248201527f4d697363616c63756c6174696f6e206f66206c69717569646974790000000000604482015290519081900360640190fd5b600b5481116109b25760075b955050505050506109bc565b6000955050505050505b9392505050565b60008060006109d06117ec565b60008060006109df8e8e6105ba565b92509250925082600014610a035760035b965060009550859450610b2f9350505050565b600754604080516375efac8d60e11b81526001600160a01b03858116600483015284811660248301528f811660448301529151919092169163ebdf591a916064808301926060929190829003018186803b158015610a6057600080fd5b505afa158015610a74573d6000803e3d6000fd5b505050506040513d6060811015610a8a57600080fd5b5080516020808301516040909301519087015290855292508215610aaf5760036109f0565b6000610abf83866000015161052d565b90506000610ad183876020015161052d565b90506000610ae88e610ae3858f611518565b61154e565b90506000610afa8e610ae3858f611518565b90506000610b088383611518565b905080610b158483611590565b610b1f8484611590565b9b509b509b505050505050505050505b9750975097945050505050565b6005546001600160a01b031681565b6001546000906001600160a01b03163314610b6c576106dd600860096114b2565b600580546001600160a01b038481166001600160a01b0319831617928390556040805192821680845293909116602083015280517fd52b2b9b7e9ee655fcb95d2e5b9e0c9f69e7ef2b8e9d2d0ea78402d576d22e229281900390910190a16000610745565b600080600080600080610be488886105ba565b92509250925082600014610c075760035b95506000945084935061063e92505050565b60065460408051632f52e59560e01b81526001600160a01b03858116600483015291519190921691632f52e595916024808301926020929190829003018186803b158015610c5457600080fd5b505afa158015610c68573d6000803e3d6000fd5b505050506040513d6020811015610c7e57600080fd5b50511580610d02575060065460408051632f52e59560e01b81526001600160a01b03848116600483015291519190921691632f52e595916024808301926020929190829003018186803b158015610cd457600080fd5b505afa158015610ce8573d6000803e3d6000fd5b505050506040513d6020811015610cfe57600080fd5b5051155b15610d0e576005610bf5565b60009891975095509350505050565b6003546001600160a01b031681565b600080600080610d3a611806565b610d448b8b6105ba565b909150809b50819c505050600560009054906101000a90046001600160a01b03166001600160a01b031663fc57d4df8c6040518263ffffffff1660e01b815260040180826001600160a01b03166001600160a01b0316815260200191505060206040518083038186803b158015610dba57600080fd5b505afa158015610dce573d6000803e3d6000fd5b505050506040513d6020811015610de457600080fd5b505160a08201526005546040805163fc57d4df60e01b81526001600160a01b038d811660048301529151919092169163fc57d4df916024808301926020929190829003018186803b158015610e3857600080fd5b505afa158015610e4c573d6000803e3d6000fd5b505050506040513d6020811015610e6257600080fd5b81019080805190602001909291905050508160c0018181525050610e938b8b8e8460a001518560c001518e8e6109c3565b5050815260a081015115801590610eae575060008160c00151115b610eff576040805162461bcd60e51b815260206004820152601a60248201527f50726963652063616e6e6f7420626520657175616c20746f2030000000000000604482015290519081900360640190fd5b6000610f188c8c8f8560a001518660c001518d8d611107565b5050608084015290508015610f3e5760065b955060009450849350839250610f98915050565b608082015160208301819052600090610f61575068055de6a779bbac0000610f81565b610f7e610f74846000015160005461154e565b8460200151611590565b90505b825160209093015160009750929550919350909150505b975097509750979350505050565b600080600080610fb687876105ba565b92509250925082600014610fcb576003610916565b600080610fdf878585600080600080610d2c565b93505050915060006009811115610ff257fe5b8214611045576040805162461bcd60e51b815260206004820152601b60248201527f4d697363616c63756c6174696f6e206f66206c69717569646974790000000000604482015290519081900360640190fd5b600a5481116109b25760076109a6565b600080600061106485856105ba565b9250925092508260001461107757600080fd5b6001600160a01b0391821660009081526004602090815260408083209390941682529190915220805460ff19169055505050565b6000806000806000806110be88886105ba565b925092509250826000146110d3576003610bf5565b6001600160a01b0380831660009081526004602090815260408083209385168352929052205460ff16610c07576004610bf5565b6000806000806000611117611843565b6111218d8d6105ba565b6001600160a01b03908116604085015216602083015280825215611146576003610f2a565b60075460208201516040808401518151630af856f760e31b81526001600160a01b0393841660048201819052918416602482015260448101919091528e83166064820152905191909216916357c2b7b89160848083019260a0929190829003018186803b1580156111b657600080fd5b505afa1580156111ca573d6000803e3d6000fd5b505050506040513d60a08110156111e057600080fd5b5080516020820151604083015160608085015160809586015160c088015260a087015293850152918301919091529150811561121d576006610f2a565b61122f8a610ae38a8460600151611518565b61016082015260075460208201516040808401518151630af856f760e31b81526001600160a01b0393841660048201529083166024820181905260448201528e83166064820152905191909216916357c2b7b89160848083019260a0929190829003018186803b1580156112a257600080fd5b505afa1580156112b6573d6000803e3d6000fd5b505050506040513d60a08110156112cc57600080fd5b50805160208201516040830151606084015160809094015161014086015261012085019390935261010084019290925260e083019190915291508115611313576006610f2a565b61132589610ae3898460e00151611518565b610180820181905261016082015161133c91611518565b6101a08201819052600090611352576000611371565b61137161136683610160015160005461154e565b836101a00151611590565b9050600080836101a00151116113885760006113a7565b6113a761139c84610180015160005461154e565b846101a00151611590565b905060066101a09390930151929f929e50909c509a5098505050505050505050565b6001546000906001600160a01b031633146113ea576106dd600860096114b2565b600680546001600160a01b038481166001600160a01b0319831617928390556040805192821680845293909116602083015280517fa388f30a796c0dcf0a20dc280eacdd8d91948adc8d5783b02a030b0b2fd4df209281900390910190a16000610745565b6001546001600160a01b031681565b600080600061146b6118c4565b61147586866115c3565b9092509050600082600381111561148857fe5b1461149957509150600090506114ab565b60006114a48261162b565b9350935050505b9250929050565b60007f45b96fe442630264581b197e84bbada861235052c5a1aadfff9ea4e40a969aa08360098111156114e157fe5b8360098111156114ed57fe5b604080519283526020830191909152600082820152519081900360600190a18260098111156109bc57fe5b60006109bc8383604051806040016040528060118152602001706164646974696f6e206f766572666c6f7760781b81525061163a565b60006109bc83836040518060400160405280601781526020017f6d756c7469706c69636174696f6e206f766572666c6f770000000000000000008152506116d5565b60006109bc83836040518060400160405280600e81526020016d646976696465206279207a65726f60901b81525061174b565b60006115cd6118c4565b6000806115de8660000151866117ad565b909250905060008260038111156115f157fe5b14611610575060408051602081019091526000815290925090506114ab565b60408051602081019091529081526000969095509350505050565b51670de0b6b3a7640000900490565b600083830182858210156116cc5760405162461bcd60e51b81526004018080602001828103825283818151815260200191508051906020019080838360005b83811015611691578181015183820152602001611679565b50505050905090810190601f1680156116be5780820380516001836020036101000a031916815260200191505b509250505060405180910390fd5b50949350505050565b60008315806116e2575082155b156116ef575060006109bc565b838302838582816116fc57fe5b041483906116cc5760405162461bcd60e51b8152602060048201818152835160248401528351909283926044909101919085019080838360008315611691578181015183820152602001611679565b6000818361179a5760405162461bcd60e51b8152602060048201818152835160248401528351909283926044909101919085019080838360008315611691578181015183820152602001611679565b508284816117a457fe5b04949350505050565b600080836117c0575060009050806114ab565b838302838582816117cd57fe5b04146117e1575060029150600090506114ab565b6000925090506114ab565b604051806040016040528060008152602001600081525090565b6040518060e00160405280600081526020016000815260200160008152602001600081526020016000815260200160008152602001600081525090565b604051806101c001604052806000815260200160006001600160a01b0316815260200160006001600160a01b0316815260200160008152602001600081526020016000815260200160008152602001600081526020016000815260200160008152602001600081526020016000815260200160008152602001600081525090565b604051806020016040528060008152509056fea265627a7a723158205f2e030a2acdc1519ba88ee6d1d2b5a5eb434c0432b552bde6d3a207a152c29a64736f6c63430005100032",
  "linkReferences": {},
  "deployedLinkReferences": {}
}