{
  "_format": "hh-sol-artifact-1",
  "contractName": "OrderBook",
  "sourceName": "contracts/swap/orderbook/Orderbook.sol",
  "abi": [
    {
      "anonymous": false,
      "inputs": [
        {
          "indexed": true,
          "internalType": "address",
          "name": "owner",
          "type": "address"
        },
        {
          "indexed": true,
          "internalType": "address",
          "name": "srcToken",
          "type": "address"
        },
        {
          "indexed": true,
          "internalType": "address",
          "name": "destToken",
          "type": "address"
        },
        {
          "indexed": false,
          "internalType": "uint256",
          "name": "orderId",
          "type": "uint256"
        }
      ],
      "name": "CancelOrder",
      "type": "event"
    },
    {
      "anonymous": false,
      "inputs": [
        {
          "indexed": true,
          "internalType": "address",
          "name": "to",
          "type": "address"
        },
        {
          "indexed": true,
          "internalType": "address",
          "name": "srcEToken",
          "type": "address"
        },
        {
          "indexed": true,
          "internalType": "address",
          "name": "dstEToken",
          "type": "address"
        },
        {
          "indexed": false,
          "internalType": "uint256",
          "name": "totalA",
          "type": "uint256"
        },
        {
          "indexed": false,
          "internalType": "uint256",
          "name": "totalB",
          "type": "uint256"
        }
      ],
      "name": "CancelPairMarginOrder",
      "type": "event"
    },
    {
      "anonymous": false,
      "inputs": [
        {
          "indexed": true,
          "internalType": "address",
          "name": "owner",
          "type": "address"
        },
        {
          "indexed": true,
          "internalType": "address",
          "name": "srcToken",
          "type": "address"
        },
        {
          "indexed": true,
          "internalType": "address",
          "name": "destToken",
          "type": "address"
        },
        {
          "indexed": false,
          "internalType": "uint256",
          "name": "orderId",
          "type": "uint256"
        },
        {
          "indexed": false,
          "internalType": "uint256",
          "name": "amountIn",
          "type": "uint256"
        },
        {
          "indexed": false,
          "internalType": "uint256",
          "name": "minAmountOut",
          "type": "uint256"
        },
        {
          "indexed": false,
          "internalType": "uint256",
          "name": "flag",
          "type": "uint256"
        }
      ],
      "name": "CreateOrder",
      "type": "event"
    },
    {
      "anonymous": false,
      "inputs": [
        {
          "indexed": true,
          "internalType": "address",
          "name": "maker",
          "type": "address"
        },
        {
          "indexed": true,
          "internalType": "address",
          "name": "taker",
          "type": "address"
        },
        {
          "indexed": false,
          "internalType": "uint256",
          "name": "orderId",
          "type": "uint256"
        },
        {
          "indexed": false,
          "internalType": "uint256",
          "name": "amt",
          "type": "uint256"
        },
        {
          "indexed": false,
          "internalType": "uint256",
          "name": "amtOut",
          "type": "uint256"
        }
      ],
      "name": "FulFilOrder",
      "type": "event"
    },
    {
      "anonymous": false,
      "inputs": [
        {
          "indexed": true,
          "internalType": "address",
          "name": "previousOwner",
          "type": "address"
        },
        {
          "indexed": true,
          "internalType": "address",
          "name": "newOwner",
          "type": "address"
        }
      ],
      "name": "OwnershipTransferred",
      "type": "event"
    },
    {
      "inputs": [],
      "name": "DENOMINATOR",
      "outputs": [
        {
          "internalType": "uint256",
          "name": "",
          "type": "uint256"
        }
      ],
      "stateMutability": "view",
      "type": "function"
    },
    {
      "inputs": [],
      "name": "VERSION",
      "outputs": [
        {
          "internalType": "uint256",
          "name": "",
          "type": "uint256"
        }
      ],
      "stateMutability": "view",
      "type": "function"
    },
    {
      "inputs": [
        {
          "internalType": "uint256",
          "name": "id",
          "type": "uint256"
        }
      ],
      "name": "addrIndex",
      "outputs": [
        {
          "internalType": "uint256",
          "name": "",
          "type": "uint256"
        }
      ],
      "stateMutability": "pure",
      "type": "function"
    },
    {
      "inputs": [
        {
          "internalType": "address",
          "name": "",
          "type": "address"
        },
        {
          "internalType": "uint256",
          "name": "",
          "type": "uint256"
        }
      ],
      "name": "addressOrders",
      "outputs": [
        {
          "internalType": "uint256",
          "name": "",
          "type": "uint256"
        }
      ],
      "stateMutability": "view",
      "type": "function"
    },
    {
      "inputs": [
        {
          "internalType": "address",
          "name": "",
          "type": "address"
        },
        {
          "internalType": "address",
          "name": "",
          "type": "address"
        }
      ],
      "name": "balanceOf",
      "outputs": [
        {
          "internalType": "uint256",
          "name": "",
          "type": "uint256"
        }
      ],
      "stateMutability": "view",
      "type": "function"
    },
    {
      "inputs": [],
      "name": "cETH",
      "outputs": [
        {
          "internalType": "address",
          "name": "",
          "type": "address"
        }
      ],
      "stateMutability": "view",
      "type": "function"
    },
    {
      "inputs": [
        {
          "internalType": "uint256",
          "name": "orderId",
          "type": "uint256"
        }
      ],
      "name": "cancelOrder",
      "outputs": [],
      "stateMutability": "nonpayable",
      "type": "function"
    },
    {
      "inputs": [
        {
          "internalType": "address",
          "name": "etokenA",
          "type": "address"
        },
        {
          "internalType": "address",
          "name": "etokenB",
          "type": "address"
        },
        {
          "internalType": "address",
          "name": "to",
          "type": "address"
        }
      ],
      "name": "cancelPairMarginOrders",
      "outputs": [],
      "stateMutability": "nonpayable",
      "type": "function"
    },
    {
      "inputs": [],
      "name": "closeOrderBook",
      "outputs": [],
      "stateMutability": "nonpayable",
      "type": "function"
    },
    {
      "inputs": [],
      "name": "closed",
      "outputs": [
        {
          "internalType": "bool",
          "name": "",
          "type": "bool"
        }
      ],
      "stateMutability": "view",
      "type": "function"
    },
    {
      "inputs": [
        {
          "internalType": "address",
          "name": "srcToken",
          "type": "address"
        },
        {
          "internalType": "address",
          "name": "destToken",
          "type": "address"
        },
        {
          "internalType": "address",
          "name": "to",
          "type": "address"
        },
        {
          "internalType": "uint256",
          "name": "amountIn",
          "type": "uint256"
        },
        {
          "internalType": "uint256",
          "name": "guaranteeAmountOut",
          "type": "uint256"
        },
        {
          "internalType": "uint256",
          "name": "flag",
          "type": "uint256"
        }
      ],
      "name": "createOrder",
      "outputs": [
        {
          "internalType": "uint256",
          "name": "idx",
          "type": "uint256"
        }
      ],
      "stateMutability": "payable",
      "type": "function"
    },
    {
      "inputs": [],
      "name": "ctokenFactory",
      "outputs": [
        {
          "internalType": "address",
          "name": "",
          "type": "address"
        }
      ],
      "stateMutability": "view",
      "type": "function"
    },
    {
      "inputs": [],
      "name": "defaultFeeMaker",
      "outputs": [
        {
          "internalType": "uint256",
          "name": "",
          "type": "uint256"
        }
      ],
      "stateMutability": "view",
      "type": "function"
    },
    {
      "inputs": [],
      "name": "defaultFeeTaker",
      "outputs": [
        {
          "internalType": "uint256",
          "name": "",
          "type": "uint256"
        }
      ],
      "stateMutability": "view",
      "type": "function"
    },
    {
      "inputs": [],
      "name": "feeTo",
      "outputs": [
        {
          "internalType": "address",
          "name": "",
          "type": "address"
        }
      ],
      "stateMutability": "view",
      "type": "function"
    },
    {
      "inputs": [
        {
          "internalType": "uint256",
          "name": "orderId",
          "type": "uint256"
        },
        {
          "internalType": "uint256",
          "name": "amtToTaken",
          "type": "uint256"
        },
        {
          "internalType": "address",
          "name": "to",
          "type": "address"
        },
        {
          "internalType": "bool",
          "name": "isToken",
          "type": "bool"
        },
        {
          "internalType": "bool",
          "name": "partialFill",
          "type": "bool"
        },
        {
          "internalType": "bytes",
          "name": "data",
          "type": "bytes"
        }
      ],
      "name": "fulfilOrder",
      "outputs": [
        {
          "components": [
            {
              "internalType": "bool",
              "name": "isToken",
              "type": "bool"
            },
            {
              "internalType": "address",
              "name": "srcEToken",
              "type": "address"
            },
            {
              "internalType": "address",
              "name": "destEToken",
              "type": "address"
            },
            {
              "internalType": "uint256",
              "name": "filled",
              "type": "uint256"
            },
            {
              "internalType": "uint256",
              "name": "takerFee",
              "type": "uint256"
            },
            {
              "internalType": "uint256",
              "name": "makerFee",
              "type": "uint256"
            },
            {
              "internalType": "uint256",
              "name": "takerAmt",
              "type": "uint256"
            },
            {
              "internalType": "uint256",
              "name": "takerAmtToken",
              "type": "uint256"
            },
            {
              "internalType": "uint256",
              "name": "makerAmt",
              "type": "uint256"
            },
            {
              "internalType": "uint256",
              "name": "amtDest",
              "type": "uint256"
            },
            {
              "internalType": "uint256",
              "name": "amtDestToken",
              "type": "uint256"
            }
          ],
          "internalType": "struct OrderBook.FulFilAmt",
          "name": "fulFilAmt",
          "type": "tuple"
        }
      ],
      "stateMutability": "payable",
      "type": "function"
    },
    {
      "inputs": [
        {
          "internalType": "uint256[]",
          "name": "orderIds",
          "type": "uint256[]"
        },
        {
          "internalType": "uint256[]",
          "name": "amtToTakens",
          "type": "uint256[]"
        },
        {
          "internalType": "address",
          "name": "to",
          "type": "address"
        },
        {
          "internalType": "bool",
          "name": "isToken",
          "type": "bool"
        },
        {
          "internalType": "bool",
          "name": "partialFill",
          "type": "bool"
        },
        {
          "internalType": "bytes",
          "name": "data",
          "type": "bytes"
        }
      ],
      "name": "fulfilOrders",
      "outputs": [],
      "stateMutability": "payable",
      "type": "function"
    },
    {
      "inputs": [
        {
          "internalType": "uint256",
          "name": "startIdx",
          "type": "uint256"
        },
        {
          "internalType": "uint256",
          "name": "endIdx",
          "type": "uint256"
        }
      ],
      "name": "getAllOrders",
      "outputs": [
        {
          "components": [
            {
              "internalType": "uint256",
              "name": "orderId",
              "type": "uint256"
            },
            {
              "internalType": "uint256",
              "name": "pairAddrIdx",
              "type": "uint256"
            },
            {
              "internalType": "uint256",
              "name": "pair",
              "type": "uint256"
            },
            {
              "internalType": "uint256",
              "name": "timestamp",
              "type": "uint256"
            },
            {
              "internalType": "uint256",
              "name": "flag",
              "type": "uint256"
            },
            {
              "internalType": "address",
              "name": "owner",
              "type": "address"
            },
            {
              "internalType": "address",
              "name": "to",
              "type": "address"
            },
            {
              "components": [
                {
                  "internalType": "address",
                  "name": "srcToken",
                  "type": "address"
                },
                {
                  "internalType": "address",
                  "name": "destToken",
                  "type": "address"
                },
                {
                  "internalType": "address",
                  "name": "srcEToken",
                  "type": "address"
                },
                {
                  "internalType": "address",
                  "name": "destEToken",
                  "type": "address"
                },
                {
                  "internalType": "uint256",
                  "name": "amountIn",
                  "type": "uint256"
                },
                {
                  "internalType": "uint256",
                  "name": "amountInMint",
                  "type": "uint256"
                },
                {
                  "internalType": "uint256",
                  "name": "fulfiled",
                  "type": "uint256"
                },
                {
                  "internalType": "uint256",
                  "name": "guaranteeAmountOut",
                  "type": "uint256"
                },
                {
                  "internalType": "uint256",
                  "name": "destFulfiled",
                  "type": "uint256"
                }
              ],
              "internalType": "struct DataTypes.TokenAmount",
              "name": "tokenAmt",
              "type": "tuple"
            }
          ],
          "internalType": "struct DataTypes.OrderItem[]",
          "name": "allOrders",
          "type": "tuple[]"
        }
      ],
      "stateMutability": "view",
      "type": "function"
    },
    {
      "inputs": [
        {
          "internalType": "uint256",
          "name": "pair",
          "type": "uint256"
        }
      ],
      "name": "getMakerFeeRate",
      "outputs": [
        {
          "internalType": "uint256",
          "name": "",
          "type": "uint256"
        }
      ],
      "stateMutability": "view",
      "type": "function"
    },
    {
      "inputs": [
        {
          "internalType": "uint256",
          "name": "id",
          "type": "uint256"
        }
      ],
      "name": "getOrderTokens",
      "outputs": [
        {
          "internalType": "address",
          "name": "srcEToken",
          "type": "address"
        },
        {
          "internalType": "address",
          "name": "destEToken",
          "type": "address"
        },
        {
          "internalType": "uint256",
          "name": "amtIn",
          "type": "uint256"
        },
        {
          "internalType": "uint256",
          "name": "fulfiled",
          "type": "uint256"
        },
        {
          "internalType": "uint256",
          "name": "amtOut",
          "type": "uint256"
        }
      ],
      "stateMutability": "view",
      "type": "function"
    },
    {
      "inputs": [
        {
          "internalType": "uint256",
          "name": "pair",
          "type": "uint256"
        }
      ],
      "name": "getTakerFeeRate",
      "outputs": [
        {
          "internalType": "uint256",
          "name": "",
          "type": "uint256"
        }
      ],
      "stateMutability": "view",
      "type": "function"
    },
    {
      "inputs": [
        {
          "internalType": "address",
          "name": "_ctokenFactory",
          "type": "address"
        },
        {
          "internalType": "address",
          "name": "_cETH",
          "type": "address"
        },
        {
          "internalType": "address",
          "name": "_wETH",
          "type": "address"
        },
        {
          "internalType": "address",
          "name": "_margin",
          "type": "address"
        }
      ],
      "name": "initialize",
      "outputs": [],
      "stateMutability": "nonpayable",
      "type": "function"
    },
    {
      "inputs": [
        {
          "internalType": "uint256",
          "name": "flag",
          "type": "uint256"
        }
      ],
      "name": "isMargin",
      "outputs": [
        {
          "internalType": "bool",
          "name": "",
          "type": "bool"
        }
      ],
      "stateMutability": "pure",
      "type": "function"
    },
    {
      "inputs": [
        {
          "internalType": "uint256",
          "name": "id",
          "type": "uint256"
        }
      ],
      "name": "isOrderMarginClosed",
      "outputs": [
        {
          "internalType": "bool",
          "name": "marginOrder",
          "type": "bool"
        },
        {
          "internalType": "bool",
          "name": "closed",
          "type": "bool"
        }
      ],
      "stateMutability": "view",
      "type": "function"
    },
    {
      "inputs": [],
      "name": "marginAddr",
      "outputs": [
        {
          "internalType": "address",
          "name": "",
          "type": "address"
        }
      ],
      "stateMutability": "view",
      "type": "function"
    },
    {
      "inputs": [
        {
          "internalType": "address",
          "name": "",
          "type": "address"
        },
        {
          "internalType": "uint256",
          "name": "",
          "type": "uint256"
        }
      ],
      "name": "marginOrders",
      "outputs": [
        {
          "internalType": "uint256",
          "name": "",
          "type": "uint256"
        }
      ],
      "stateMutability": "view",
      "type": "function"
    },
    {
      "inputs": [
        {
          "internalType": "address",
          "name": "",
          "type": "address"
        },
        {
          "internalType": "uint256",
          "name": "",
          "type": "uint256"
        }
      ],
      "name": "marginUserOrderCount",
      "outputs": [
        {
          "internalType": "uint256",
          "name": "",
          "type": "uint256"
        }
      ],
      "stateMutability": "view",
      "type": "function"
    },
    {
      "inputs": [
        {
          "internalType": "uint256",
          "name": "pairIdx",
          "type": "uint256"
        },
        {
          "internalType": "uint256",
          "name": "addrIdx",
          "type": "uint256"
        }
      ],
      "name": "maskAddrPairIndex",
      "outputs": [
        {
          "internalType": "uint256",
          "name": "",
          "type": "uint256"
        }
      ],
      "stateMutability": "pure",
      "type": "function"
    },
    {
      "inputs": [],
      "name": "maxMarginOrder",
      "outputs": [
        {
          "internalType": "uint256",
          "name": "",
          "type": "uint256"
        }
      ],
      "stateMutability": "view",
      "type": "function"
    },
    {
      "inputs": [
        {
          "internalType": "address",
          "name": "",
          "type": "address"
        }
      ],
      "name": "minAmounts",
      "outputs": [
        {
          "internalType": "uint256",
          "name": "",
          "type": "uint256"
        }
      ],
      "stateMutability": "view",
      "type": "function"
    },
    {
      "inputs": [],
      "name": "openOrderBook",
      "outputs": [],
      "stateMutability": "nonpayable",
      "type": "function"
    },
    {
      "inputs": [],
      "name": "orderId",
      "outputs": [
        {
          "internalType": "uint256",
          "name": "",
          "type": "uint256"
        }
      ],
      "stateMutability": "view",
      "type": "function"
    },
    {
      "inputs": [
        {
          "internalType": "uint256",
          "name": "",
          "type": "uint256"
        }
      ],
      "name": "orders",
      "outputs": [
        {
          "internalType": "uint256",
          "name": "orderId",
          "type": "uint256"
        },
        {
          "internalType": "uint256",
          "name": "pairAddrIdx",
          "type": "uint256"
        },
        {
          "internalType": "uint256",
          "name": "pair",
          "type": "uint256"
        },
        {
          "internalType": "uint256",
          "name": "timestamp",
          "type": "uint256"
        },
        {
          "internalType": "uint256",
          "name": "flag",
          "type": "uint256"
        },
        {
          "internalType": "address",
          "name": "owner",
          "type": "address"
        },
        {
          "internalType": "address",
          "name": "to",
          "type": "address"
        },
        {
          "components": [
            {
              "internalType": "address",
              "name": "srcToken",
              "type": "address"
            },
            {
              "internalType": "address",
              "name": "destToken",
              "type": "address"
            },
            {
              "internalType": "address",
              "name": "srcEToken",
              "type": "address"
            },
            {
              "internalType": "address",
              "name": "destEToken",
              "type": "address"
            },
            {
              "internalType": "uint256",
              "name": "amountIn",
              "type": "uint256"
            },
            {
              "internalType": "uint256",
              "name": "amountInMint",
              "type": "uint256"
            },
            {
              "internalType": "uint256",
              "name": "fulfiled",
              "type": "uint256"
            },
            {
              "internalType": "uint256",
              "name": "guaranteeAmountOut",
              "type": "uint256"
            },
            {
              "internalType": "uint256",
              "name": "destFulfiled",
              "type": "uint256"
            }
          ],
          "internalType": "struct DataTypes.TokenAmount",
          "name": "tokenAmt",
          "type": "tuple"
        }
      ],
      "stateMutability": "view",
      "type": "function"
    },
    {
      "inputs": [],
      "name": "owner",
      "outputs": [
        {
          "internalType": "address",
          "name": "",
          "type": "address"
        }
      ],
      "stateMutability": "view",
      "type": "function"
    },
    {
      "inputs": [
        {
          "internalType": "uint256",
          "name": "",
          "type": "uint256"
        }
      ],
      "name": "pairFeeRate",
      "outputs": [
        {
          "internalType": "uint256",
          "name": "data",
          "type": "uint256"
        }
      ],
      "stateMutability": "view",
      "type": "function"
    },
    {
      "inputs": [
        {
          "internalType": "address",
          "name": "srcToken",
          "type": "address"
        },
        {
          "internalType": "address",
          "name": "destToken",
          "type": "address"
        }
      ],
      "name": "pairFor",
      "outputs": [
        {
          "internalType": "uint256",
          "name": "pair",
          "type": "uint256"
        }
      ],
      "stateMutability": "view",
      "type": "function"
    },
    {
      "inputs": [
        {
          "internalType": "address",
          "name": "srcEToken",
          "type": "address"
        },
        {
          "internalType": "address",
          "name": "destEToken",
          "type": "address"
        }
      ],
      "name": "pairForEToken",
      "outputs": [
        {
          "internalType": "uint256",
          "name": "pair",
          "type": "uint256"
        }
      ],
      "stateMutability": "pure",
      "type": "function"
    },
    {
      "inputs": [
        {
          "internalType": "uint256",
          "name": "id",
          "type": "uint256"
        }
      ],
      "name": "pairIndex",
      "outputs": [
        {
          "internalType": "uint256",
          "name": "",
          "type": "uint256"
        }
      ],
      "stateMutability": "pure",
      "type": "function"
    },
    {
      "inputs": [
        {
          "internalType": "uint256",
          "name": "",
          "type": "uint256"
        },
        {
          "internalType": "uint256",
          "name": "",
          "type": "uint256"
        }
      ],
      "name": "pairOrders",
      "outputs": [
        {
          "internalType": "uint256",
          "name": "",
          "type": "uint256"
        }
      ],
      "stateMutability": "view",
      "type": "function"
    },
    {
      "inputs": [],
      "name": "renounceOwnership",
      "outputs": [],
      "stateMutability": "nonpayable",
      "type": "function"
    },
    {
      "inputs": [
        {
          "internalType": "address",
          "name": "to",
          "type": "address"
        }
      ],
      "name": "setFeeTo",
      "outputs": [],
      "stateMutability": "nonpayable",
      "type": "function"
    },
    {
      "inputs": [
        {
          "internalType": "address",
          "name": "addr",
          "type": "address"
        }
      ],
      "name": "setMarginAddr",
      "outputs": [],
      "stateMutability": "nonpayable",
      "type": "function"
    },
    {
      "inputs": [
        {
          "internalType": "uint256",
          "name": "count",
          "type": "uint256"
        }
      ],
      "name": "setMaxOrderCount",
      "outputs": [],
      "stateMutability": "nonpayable",
      "type": "function"
    },
    {
      "inputs": [
        {
          "internalType": "address",
          "name": "etoken",
          "type": "address"
        },
        {
          "internalType": "uint256",
          "name": "amt",
          "type": "uint256"
        }
      ],
      "name": "setMinOrderAmount",
      "outputs": [],
      "stateMutability": "nonpayable",
      "type": "function"
    },
    {
      "inputs": [
        {
          "internalType": "address",
          "name": "src",
          "type": "address"
        },
        {
          "internalType": "address",
          "name": "dest",
          "type": "address"
        },
        {
          "internalType": "uint256",
          "name": "fee",
          "type": "uint256"
        }
      ],
      "name": "setPairMakerFee",
      "outputs": [],
      "stateMutability": "nonpayable",
      "type": "function"
    },
    {
      "inputs": [
        {
          "internalType": "address",
          "name": "src",
          "type": "address"
        },
        {
          "internalType": "address",
          "name": "dest",
          "type": "address"
        },
        {
          "internalType": "uint256",
          "name": "fee",
          "type": "uint256"
        }
      ],
      "name": "setPairTakerFee",
      "outputs": [],
      "stateMutability": "nonpayable",
      "type": "function"
    },
    {
      "inputs": [
        {
          "internalType": "address",
          "name": "newOwner",
          "type": "address"
        }
      ],
      "name": "transferOwnership",
      "outputs": [],
      "stateMutability": "nonpayable",
      "type": "function"
    },
    {
      "inputs": [
        {
          "internalType": "uint256",
          "name": "idx",
          "type": "uint256"
        },
        {
          "internalType": "uint256",
          "name": "addrIdx",
          "type": "uint256"
        }
      ],
      "name": "updateAddrIdx",
      "outputs": [
        {
          "internalType": "uint256",
          "name": "",
          "type": "uint256"
        }
      ],
      "stateMutability": "pure",
      "type": "function"
    },
    {
      "inputs": [
        {
          "internalType": "uint256",
          "name": "idx",
          "type": "uint256"
        },
        {
          "internalType": "uint256",
          "name": "pairIdx",
          "type": "uint256"
        }
      ],
      "name": "updatePairIdx",
      "outputs": [
        {
          "internalType": "uint256",
          "name": "",
          "type": "uint256"
        }
      ],
      "stateMutability": "pure",
      "type": "function"
    },
    {
      "inputs": [],
      "name": "wETH",
      "outputs": [
        {
          "internalType": "address",
          "name": "",
          "type": "address"
        }
      ],
      "stateMutability": "view",
      "type": "function"
    },
    {
      "inputs": [
        {
          "internalType": "address",
          "name": "etoken",
          "type": "address"
        },
        {
          "internalType": "uint256",
          "name": "amt",
          "type": "uint256"
        }
      ],
      "name": "withdraw",
      "outputs": [],
      "stateMutability": "nonpayable",
      "type": "function"
    },
    {
      "inputs": [
        {
          "internalType": "address",
          "name": "token",
          "type": "address"
        },
        {
          "internalType": "uint256",
          "name": "amt",
          "type": "uint256"
        }
      ],
      "name": "withdrawUnderlying",
      "outputs": [],
      "stateMutability": "nonpayable",
      "type": "function"
    },
    {
      "stateMutability": "payable",
      "type": "receive"
    }
  ],
  "bytecode": "0x60806040526005600755601e600855601e6009553480156200002057600080fd5b5060006200002d6200009a565b6000805462010000600160b01b031916620100006001600160a01b038416908102919091178255604051929350917f8be0079c531659141344cd1fd0a4f28419497f9722a3daafe3b4186f6b6457e0908290a3506000805460ff60b01b1916600160b01b1790556200009e565b3390565b6157d080620000ae6000396000f3fe6080604052600436106103435760003560e01c8063803289fe116101b0578063c0e863c3116100ec578063f46901ed11610095578063f8c8765e1161006f578063f8c8765e14610902578063fbd2eb7c14610922578063fdb8725214610942578063ffa1ad74146109625761034a565b8063f46901ed146108a2578063f7888aec146108c2578063f7d5b2d9146108e25761034a565b8063f2428621116100c6578063f24286211461084d578063f2fde38b14610862578063f3fef3a3146108825761034a565b8063c0e863c3146107ed578063c70b116b1461080d578063d7755b8b1461082d5761034a565b806399117be911610159578063a1b4d01111610133578063a1b4d0111461076f578063a66eb9ac14610784578063a85c38ef14610799578063ac6f0cc8146107cd5761034a565b806399117be91461070f5780639c5e52d51461072f5780639c7ad7f41461074f5761034a565b80638da5cb5b1161018a5780638da5cb5b146106c5578063918f8674146106da57806396ed28f9146106ef5761034a565b8063803289fe1461065f57806382e011eb14610674578063862d77ba146106a55761034a565b80634b5950f41161027f578063613436bc11610228578063715018a611610202578063715018a6146105f75780637313cff41461060c57806375bca9231461062c5780637623cccb1461063f5761034a565b8063613436bc14610597578063683b6d29146105b75780636d0b6a6c146105d75761034a565b806352e86d5b1161025957806352e86d5b14610540578063584c617e14610560578063597e1fb5146105755761034a565b80634b5950f4146104f6578063514fcac71461050b578063523439e61461052b5761034a565b80631f126065116102ec5780632af77a73116102c65780632af77a73146104745780632c58870b14610494578063418f2845146104b457806345e66071146104e15761034a565b80631f1260651461041157806325c9e2761461043f57806328b6ae8f146104545761034a565b80631a7b20681161031d5780631a7b2068146103b15780631cf60222146103d15780631d20980a146103f15761034a565b8063017e7e581461034f57806306e5b11a1461037a578063163de5e51461038f5761034a565b3661034a57005b600080fd5b34801561035b57600080fd5b50610364610977565b6040516103719190614b36565b60405180910390f35b61038d61038836600461486e565b610986565b005b34801561039b57600080fd5b506103a4610a27565b604051610371919061568e565b3480156103bd57600080fd5b5061038d6103cc36600461468a565b610a2d565b3480156103dd57600080fd5b506103a46103ec366004614843565b610a8e565b3480156103fd57600080fd5b506103a461040c366004614953565b610abc565b34801561041d57600080fd5b5061043161042c366004614953565b610ad5565b604051610371929190614d3b565b34801561044b57600080fd5b50610364610b27565b34801561046057600080fd5b5061038d61046f3660046146fa565b610b36565b34801561048057600080fd5b506103a461048f366004614843565b611044565b3480156104a057600080fd5b506103a46104af366004614953565b611061565b3480156104c057600080fd5b506104d46104cf366004614983565b611073565b6040516103719190614c86565b3480156104ed57600080fd5b50610364611255565b34801561050257600080fd5b506103a4611264565b34801561051757600080fd5b5061038d610526366004614953565b61126a565b34801561053757600080fd5b506103a46116b3565b34801561054c57600080fd5b506103a461055b366004614983565b6116b9565b34801561056c57600080fd5b506103a46116d2565b34801561058157600080fd5b5061058a6116d8565b6040516103719190614d30565b3480156105a357600080fd5b506103a46105b2366004614953565b6116e1565b3480156105c357600080fd5b5061038d6105d2366004614803565b6116e7565b3480156105e357600080fd5b506103a46105f2366004614983565b6117b3565b34801561060357600080fd5b5061038d6117d1565b34801561061857600080fd5b5061038d610627366004614953565b61186e565b6103a461063a36600461479f565b6118b2565b34801561064b57600080fd5b5061058a61065a366004614953565b611efd565b34801561066b57600080fd5b5061038d611f24565b34801561068057600080fd5b5061069461068f366004614953565b611f6f565b604051610371959493929190614c3c565b3480156106b157600080fd5b506103a46106c0366004614983565b61208f565b3480156106d157600080fd5b506103646120a9565b3480156106e657600080fd5b506103a46120be565b3480156106fb57600080fd5b506103a461070a3660046146c2565b6120c4565b34801561071b57600080fd5b506103a461072a366004614953565b6120e7565b34801561073b57600080fd5b506103a461074a36600461468a565b6121b0565b34801561075b57600080fd5b5061038d61076a366004614803565b6121c2565b34801561077b57600080fd5b50610364612262565b34801561079057600080fd5b5061038d612271565b3480156107a557600080fd5b506107b96107b4366004614953565b6122bf565b6040516103719897969594939291906156f3565b3480156107d957600080fd5b506103a46107e8366004614953565b612378565b3480156107f957600080fd5b5061038d610808366004614843565b612437565b34801561081957600080fd5b506103a46108283660046146c2565b61249c565b34801561083957600080fd5b506103a4610848366004614983565b6124a8565b34801561085957600080fd5b506103646124af565b34801561086e57600080fd5b5061038d61087d36600461468a565b6124c3565b34801561088e57600080fd5b5061038d61089d366004614843565b61259e565b3480156108ae57600080fd5b5061038d6108bd36600461468a565b612640565b3480156108ce57600080fd5b506103a46108dd3660046146c2565b6126a1565b6108f56108f03660046149c7565b6126be565b60405161037191906155f8565b34801561090e57600080fd5b5061038d61091d366004614744565b612c22565b34801561092e57600080fd5b506103a461093d366004614843565b612d2b565b34801561094e57600080fd5b5061038d61095d366004614843565b612d44565b34801561096e57600080fd5b506103a4612df6565b6006546001600160a01b031681565b60025460ff16156109b25760405162461bcd60e51b81526004016109a990615451565b60405180910390fd5b85518751146109d35760405162461bcd60e51b81526004016109a990615205565b60005b8751811015610a1d57610a148882815181106109ee57fe5b6020026020010151888381518110610a0257fe5b602002602001015188888888886126be565b506001016109d6565b5050505050505050565b60015481565b610a35612dfb565b6001600160a01b0316610a466120a9565b6001600160a01b031614610a6c5760405162461bcd60e51b81526004016109a9906151d0565b600580546001600160a01b0319166001600160a01b0392909216919091179055565b600e6020528160005260406000208181548110610aa757fe5b90600052602060002001600091509150505481565b6fffffffffffffffffffffffffffffffff81165b919050565b6000806001548310610af95760405162461bcd60e51b81526004016109a990614f27565b6000838152600d6020526040902060040154610b1481611efd565b9250610b1f81612dff565b915050915091565b6004546001600160a01b031681565b600054600160b01b900460ff16610b5f5760405162461bcd60e51b81526004016109a9906155c1565b6000805460ff60b01b191690556005546001600160a01b03163314610b965760405162461bcd60e51b81526004016109a990615105565b6000610ba28484612e07565b90506000610bb08486612e07565b6001600160a01b0384166000908152600e602090815260409182902080548351818402810184019094528084529394506060939091830182828015610c1457602002820191906000526020600020905b815481526020019060010190808311610c00575b50505050509050600080825160001415610c3257505050505061102c565b60005b8351811015610ebc576000600d6000868481518110610c5057fe5b60200260200101518152602001908152602001600020905060008160020154905087811415610d9457600d820154600c830154610c8c91612e3b565b6004830180546001908117918290556040805161010080820183528754825292870154602080830191909152600288015482840152600388015460608084019190915260808084019690965260058901546001600160a01b0390811660a08086019190915260068b0154821660c08087019190915286516101208101885260078d01548416815260088d015484169581019590955260098c0154831696850196909652600a8b015490911691830191909152600b89015495820195909552600c88015494810194909452600d87015491840191909152600e86015460e084810191909152600f8701549284019290925290810191909152950194610d8f90612e7d565b610eb2565b86811415610eb257600d820154600c830154610daf91612e3b565b6004830180546001908117918290556040805161010080820183528754825292870154602080830191909152600288015482840152600388015460608084019190915260808084019690965260058901546001600160a01b0390811660a08086019190915260068b0154821660c08087019190915286516101208101885260078d01548416815260088d015484169581019590955260098c0154831696850196909652600a8b015490911691830191909152600b89015495820195909552600c88015494810194909452600d87015491840191909152600e86015460e084810191909152600f8701549284019290925290810191909152940193610eb290612e7d565b5050600101610c35565b508115610f4657600554610edb9089906001600160a01b03168461320c565b600554604051632df6767560e21b81526001600160a01b039091169063b7d9d9d490610f139089908c908c9082908990600401614bb1565b600060405180830381600087803b158015610f2d57600080fd5b505af1158015610f41573d6000803e3d6000fd5b505050505b8015610fcf57600554610f649088906001600160a01b03168361320c565b600554604051632df6767560e21b81526001600160a01b039091169063b7d9d9d490610f9c9089908b908d9082908890600401614bb1565b600060405180830381600087803b158015610fb657600080fd5b505af1158015610fca573d6000803e3d6000fd5b505050505b866001600160a01b0316886001600160a01b0316876001600160a01b03167fb89f3eba8661e8853ca82806a86a551ad0caa004e4c8c1ea3bfe07d6b0d905a4858560405161101e929190615697565b60405180910390a450505050505b50506000805460ff60b01b1916600160b01b17905550565b601160209081526000928352604080842090915290825290205481565b600a6020526000908152604090205481565b60606000826110825760015492505b835b838110156110bb576000818152600d60205260409020600401546110a781612dff565b6110b2576001909201915b50600101611084565b508067ffffffffffffffff811180156110d357600080fd5b5060405190808252806020026020018201604052801561110d57816020015b6110fa614476565b8152602001906001900390816110f25790505b5091506000845b8481101561124c57611124614476565b506000818152600d6020818152604092839020835161010080820186528254825260018301548285015260028301548287015260038301546060808401919091526004840154608080850191825260058601546001600160a01b0390811660a0808801919091526006880154821660c0808901919091528b5161012081018d5260078a01548416815260088a015484169a81019a909a52600989015483169b8a019b909b52600a88015490911693880193909352600b86015490870152600c850154918601919091529483015495840195909552600e82015460e084810191909152600f90920154948301949094528301525161122090612dff565b611243578085848151811061123157fe5b60209081029190910101526001909201915b50600101611114565b50505092915050565b6005546001600160a01b031681565b60075481565b600054600160b01b900460ff166112935760405162461bcd60e51b81526004016109a9906155c1565b6000805460ff60b01b19168155818152600d6020526040812060048101549091906112bd90611efd565b90508015611317576112cd6120a9565b6001600160a01b0316336001600160a01b031614806112f657506005546001600160a01b031633145b6113125760405162461bcd60e51b81526004016109a99061541a565b611366565b61131f6120a9565b6001600160a01b0316336001600160a01b0316148061134a575060058201546001600160a01b031633145b6113665760405162461bcd60e51b81526004016109a9906152e1565b6113738260040154612dff565b156113905760405162461bcd60e51b81526004016109a990615318565b60078201546009830154600d840154600c8501546001600160a01b0393841693909216916000916113c19190612e3b565b9050801561141d57816001600160a01b0316836001600160a01b0316146114035760058501546113fe90849084906001600160a01b031684613308565b61141d565b600585015461141d9084906001600160a01b03168361320c565b836114bf57600a85015460088601546001600160a01b039182166000818152600c6020908152604080832060068c01548716845290915290205490929091169080156114b757816001600160a01b0316836001600160a01b0316141561149c576006880154611497906001600160a01b0316848380613436565b6114b7565b60068801546114b7906001600160a01b03168385848061347d565b50505061153d565b600554600686015460088701546007880154604051632df6767560e21b81526001600160a01b039485169463b7d9d9d49461150a949082169389939183169216908890600401614bb1565b600060405180830381600087803b15801561152457600080fd5b505af1158015611538573d6000803e3d6000fd5b505050505b600485018054600190811791829055604080516101008082018352895482529289015460208083019190915260028a01548284015260038a015460608084019190915260808084019690965260058b01546001600160a01b0390811660a08086019190915260068d0154821660c08087019190915286516101208101885260078f01548416815260088f015484169581019590955260098e0154831696850196909652600a8d015490911691830191909152600b8b015495820195909552600c8a015494810194909452600d89015491840191909152600e88015460e084810191909152600f890154928401929092529081019190915261163d90612e7d565b6008850154600786015460058701546040516001600160a01b039384169392831692909116907fa263a8e516fa313745abfe43252b015249ad3c987ae268d37531ce67364d7acf90611690908b9061568e565b60405180910390a450506000805460ff60b01b1916600160b01b17905550505050565b60085481565b60106020528160005260406000208181548110610aa757fe5b60095481565b60025460ff1681565b60801c90565b6116ef612dfb565b6001600160a01b03166117006120a9565b6001600160a01b0316146117265760405162461bcd60e51b81526004016109a9906151d0565b600061173284846134b9565b6040517f24637ce000000000000000000000000000000000000000000000000000000000815290915073__$95c6f8e4159971276d72925c2dc3de45f7$__906324637ce0906117879084908690600401615697565b60006040518083038186803b15801561179f57600080fd5b505af4158015610a1d573d6000803e3d6000fd5b60006117be826116e1565b6117c784610abc565b1790505b92915050565b6117d9612dfb565b6001600160a01b03166117ea6120a9565b6001600160a01b0316146118105760405162461bcd60e51b81526004016109a9906151d0565b60008054604051620100009091046001600160a01b0316907f8be0079c531659141344cd1fd0a4f28419497f9722a3daafe3b4186f6b6457e0908390a36000805475ffffffffffffffffffffffffffffffffffffffff000019169055565b611876612dfb565b6001600160a01b03166118876120a9565b6001600160a01b0316146118ad5760405162461bcd60e51b81526004016109a9906151d0565b600755565b60025460009060ff16156118d85760405162461bcd60e51b81526004016109a990615451565b600054600160b01b900460ff166119015760405162461bcd60e51b81526004016109a9906155c1565b6000805460ff60b01b191690556001600160a01b03878116908716141561193a5760405162461bcd60e51b81526004016109a9906154bf565b50600180548082019091556000818152600d602052604090208181556005810180546001600160a01b031916331790556001600160a01b0386161561197f5785611981565b335b6006820180546001600160a01b0319166001600160a01b03928316179055426003830155600482018490556000600d83015588166119de57843410156119d95760405162461bcd60e51b81526004016109a990615273565b6119ea565b6119ea883330886134f8565b60006119f5896135f6565b6007830180546001600160a01b03808d166001600160a01b03199283168117909355600986018054918516919092168117909155600b850189905591925014611a4d57611a43898288613809565b600c830155611a55565b600c82018690555b6001600160a01b0381166000908152600b6020526040902054600c83015411611a905760405162461bcd60e51b81526004016109a99061534f565b6008820180546001600160a01b0319166001600160a01b038a161790556000611ab8896135f6565b600a840180546001600160a01b038084166001600160a01b03199092168217909255600e86018990559192508b811684821614908b1690911414611b0e5760405162461bcd60e51b81526004016109a9906154f6565b611b188282612e07565b60028401556005546001600160a01b0316331415611c5a57611b3985611efd565b611b555760405162461bcd60e51b81526004016109a990615488565b896001600160a01b0316826001600160a01b031614611b865760405162461bcd60e51b81526004016109a99061513c565b6001600160a01b038816331415611baf5760405162461bcd60e51b81526004016109a990615071565b600a8301546001600160a01b038a8116911614611bde5760405162461bcd60e51b81526004016109a990615003565b6001600160a01b0388166000908152601160209081526040808320600287015484529091529020546007548110611c275760405162461bcd60e51b81526004016109a990614d80565b6001600160a01b038916600090815260116020908152604080832060028801548452909152902060019091019055611c80565b611c6385611efd565b15611c805760405162461bcd60e51b81526004016109a990614ef0565b604051636eb1769f60e11b81527f7fffffffffffffffffffffffffffffffffffffffffffffffffffffffffffffff906001600160a01b0383169063dd62ed3e90611cd09030908690600401614b4a565b60206040518083038186803b158015611ce857600080fd5b505afa158015611cfc573d6000803e3d6000fd5b505050506040513d601f19601f82011682018060405250810190611d20919061496b565b1015611daa5760405163095ea7b360e01b81526001600160a01b0382169063095ea7b390611d5690849060001990600401614c6d565b602060405180830381600087803b158015611d7057600080fd5b505af1158015611d84573d6000803e3d6000fd5b505050506040513d601f19601f82011682018060405250810190611da89190614937565b505b604051636eb1769f60e11b81527f7fffffffffffffffffffffffffffffffffffffffffffffffffffffffffffffff906001600160a01b0384169063dd62ed3e90611dfa9030908790600401614b4a565b60206040518083038186803b158015611e1257600080fd5b505afa158015611e26573d6000803e3d6000fd5b505050506040513d601f19601f82011682018060405250810190611e4a919061496b565b1015611ed45760405163095ea7b360e01b81526001600160a01b0383169063095ea7b390611e8090849060001990600401614c6d565b602060405180830381600087803b158015611e9a57600080fd5b505af1158015611eae573d6000803e3d6000fd5b505050506040513d601f19601f82011682018060405250810190611ed29190614937565b505b611edd83613a2c565b50506000805460ff60b01b1916600160b01b179055509695505050505050565b7f800000000000000000000000000000000000000000000000000000000000000016151590565b611f2c612dfb565b6001600160a01b0316611f3d6120a9565b6001600160a01b031614611f635760405162461bcd60e51b81526004016109a9906151d0565b6002805460ff19169055565b6000806000806000611f7f614476565b50505060009384525050600d602081815260409384902084516101008082018752825482526001830154828501526002830154828801526003830154606080840191909152600484015460808085019190915260058501546001600160a01b0390811660a0808701919091526006870154821660c0808801919091528b5161012081018d526007890154841681526008890154841699810199909952600988015483169b89019b8c52600a880154909216938801938452600b87015492880192909252600c86015491870191825296850154968601968752600e85015460e0878101918252600f909601549387019390935293909201939093529451945190519251915194959094929350909190565b6fffffffffffffffffffffffffffffffff19919091161790565b6000546201000090046001600160a01b031690565b61271081565b60006120e06120d284613b65565b6120db84613b65565b612e07565b9392505050565b6000818152600a602052604080822090517f652bccd3000000000000000000000000000000000000000000000000000000008152829173__$95c6f8e4159971276d72925c2dc3de45f7$__9163652bccd3916121459160040161568e565b60206040518083038186803b15801561215d57600080fd5b505af4158015612171573d6000803e3d6000fd5b505050506040513d601f19601f82011682018060405250810190612195919061496b565b9050806121a6575050600854610ad0565b6000190192915050565b600b6020526000908152604090205481565b6121ca612dfb565b6001600160a01b03166121db6120a9565b6001600160a01b0316146122015760405162461bcd60e51b81526004016109a9906151d0565b600061220d84846134b9565b6040517f32b914bf00000000000000000000000000000000000000000000000000000000815290915073__$95c6f8e4159971276d72925c2dc3de45f7$__906332b914bf906117879084908690600401615697565b6003546001600160a01b031681565b612279612dfb565b6001600160a01b031661228a6120a9565b6001600160a01b0316146122b05760405162461bcd60e51b81526004016109a9906151d0565b6002805460ff19166001179055565b600d6020818152600092835260409283902080546001820154600283015460038401546004850154600586015460068701548a5161012081018c5260078901546001600160a01b03908116825260088a015481169a82019a909a5260098901548a169b81019b909b52600a880154891660608c0152600b88015460808c0152600c88015460a08c01529887015460c08b0152600e87015460e08b0152600f909601546101008a0152939792969195909481169291169088565b6000818152600a602052604080822090517fa645cb6d000000000000000000000000000000000000000000000000000000008152829173__$95c6f8e4159971276d72925c2dc3de45f7$__9163a645cb6d916123d69160040161568e565b60206040518083038186803b1580156123ee57600080fd5b505af4158015612402573d6000803e3d6000fd5b505050506040513d601f19601f82011682018060405250810190612426919061496b565b9050806121a6575050600954610ad0565b61243f612dfb565b6001600160a01b03166124506120a9565b6001600160a01b0316146124765760405162461bcd60e51b81526004016109a9906151d0565b61247f82613c41565b506001600160a01b039091166000908152600b6020526040902055565b60006120e08383612e07565b60801b1790565b60025461010090046001600160a01b031681565b6124cb612dfb565b6001600160a01b03166124dc6120a9565b6001600160a01b0316146125025760405162461bcd60e51b81526004016109a9906151d0565b6001600160a01b0381166125285760405162461bcd60e51b81526004016109a990614e5c565b600080546040516001600160a01b03808516936201000090930416917f8be0079c531659141344cd1fd0a4f28419497f9722a3daafe3b4186f6b6457e091a3600080546001600160a01b03909216620100000275ffffffffffffffffffffffffffffffffffffffff000019909216919091179055565b60025460ff16156125c15760405162461bcd60e51b81526004016109a990615451565b6001600160a01b0382166000908152600c60209081526040808320338452909152902054806126025760405162461bcd60e51b81526004016109a99061523c565b8161260f5780915061262f565b8181101561262f5760405162461bcd60e51b81526004016109a99061552d565b61263b33848385613436565b505050565b612648612dfb565b6001600160a01b03166126596120a9565b6001600160a01b03161461267f5760405162461bcd60e51b81526004016109a9906151d0565b600680546001600160a01b0319166001600160a01b0392909216919091179055565b600c60209081526000928352604080842090915290825290205481565b6126c66144d2565b60025460ff16156126e95760405162461bcd60e51b81526004016109a990615451565b600054600160b01b900460ff166127125760405162461bcd60e51b81526004016109a9906155c1565b6000805460ff60b01b19168155888152600d60205260409020876127485760405162461bcd60e51b81526004016109a990614e25565b60048101546001161561275b5750612c04565b612763614540565b50604080516101208101825260078301546001600160a01b0390811682526008840154811660208301526009840154811692820192909252600a83015482166060820152600b8301546080820152600c83015460a0820152600d83015460c0820152600e83015460e0820152600f8301546101008201529088166127e5573397505b86151583526060830189905260098201546001600160a01b039081166020850152600a83015416604084015260c081015160a08201516000916128289190612e3b565b9050808a1115612857578661284f5760405162461bcd60e51b81526004016109a9906153e3565b606084018190525b5061286781848460020154613d0c565b6060810151604082015188156128af5782516001600160a01b0382811690821614156128995761289682613c41565b90505b6128a981838d8960c00151613308565b506128be565b6128be818b8760c0015161320c565b8515612a9b576040517f70a082310000000000000000000000000000000000000000000000000000000081526000906001600160a01b038416906370a082319061290c903090600401614b36565b60206040518083038186803b15801561292457600080fd5b505afa158015612938573d6000803e3d6000fd5b505050506040513d601f19601f8201168201806040525081019061295c919061496b565b60c08701516101208801516040517f226dc8820000000000000000000000000000000000000000000000000000000081529293506001600160a01b038e169263226dc882926129b39233928e908e90600401614b64565b600060405180830381600087803b1580156129cd57600080fd5b505af11580156129e1573d6000803e3d6000fd5b505050506000612a6d82856001600160a01b03166370a08231306040518263ffffffff1660e01b8152600401612a179190614b36565b60206040518083038186803b158015612a2f57600080fd5b505afa158015612a43573d6000803e3d6000fd5b505050506040513d601f19601f82011682018060405250810190612a67919061496b565b90612e3b565b9050866101200151811015612a945760405162461bcd60e51b81526004016109a990614fcc565b5050612af8565b8815612ae75760208301516001600160a01b038381169082161415612ac657612ac383613c41565b90505b612ad78133308961014001516134f8565b612a948184886101400151613809565b612af88233308861012001516134f8565b60008560800151118015612b1657506006546001600160a01b031615155b15612b3a576006546080860151612b3a9183916001600160a01b039091169061320c565b60008560a00151118015612b5857506006546001600160a01b031615155b15612b7c5760065460a0860151612b7c9184916001600160a01b039091169061320c565b612b90848660600151876101000151613fda565b336001600160a01b03168460050160009054906101000a90046001600160a01b03166001600160a01b03167fd00ede2e0292fd63d9ba8b4b572003009a04bcdf39cd75ac9684433d20de7ebf8e8860600151896101200151604051612bf7939291906156c2565b60405180910390a3505050505b6000805460ff60b01b1916600160b01b179055979650505050505050565b600054610100900460ff1680612c3b5750612c3b6142ce565b80612c49575060005460ff16155b612c655760405162461bcd60e51b81526004016109a9906150a8565b600054610100900460ff16158015612c90576000805460ff1961ff0019909116610100171660011790555b600380546001600160a01b038087166001600160a01b03199283161790925560028054868416610100027fffffffffffffffffffffff0000000000000000000000000000000000000000ff9091161790556005805485841690831617905560048054928816929091169190911790556000805460ff60b01b1916600160b01b1790558015612d24576000805461ff00191690555b5050505050565b600f6020528160005260406000208181548110610aa757fe5b60025460ff1615612d675760405162461bcd60e51b81526004016109a990615451565b6000612d7283613b65565b6001600160a01b0381166000908152600c6020908152604080832033845290915290205490915080612db65760405162461bcd60e51b81526004016109a99061523c565b82612dc357809250612de3565b82811015612de35760405162461bcd60e51b81526004016109a99061552d565b612df0338584848761347d565b50505050565b600181565b3390565b600116151590565b60008282604051602001612e1c929190614af3565b60408051601f1981840301815291905280516020909101209392505050565b60006120e083836040518060400160405280601e81526020017f536166654d6174683a207375627472616374696f6e206f766572666c6f7700008152506142df565b6000612e8c8260200151610abc565b90506000612e9d83602001516116e1565b905060008360a001519050600080612eb88660800151611efd565b90508015612ffa5760c08601516001600160a01b0381166000908152600e602052604090205490935060001901848114612f8f576001600160a01b0384166000908152600e60205260409020805482908110612f1057fe5b9060005260206000200154925082600e6000866001600160a01b03166001600160a01b031681526020019081526020016000208681548110612f4e57fe5b9060005260206000200181905550612f7c600d600085815260200190815260200160002060010154866117b3565b6000848152600d60205260409020600101555b6001600160a01b0384166000908152600e60205260409020805480612fb057fe5b6000828152602080822083016000199081018390559283019093556001600160a01b03871681526011835260408082208b82015183529093529190912080549091019055506130fa565b6001600160a01b0383166000908152600f6020526040902054600019018481146130c1576001600160a01b0384166000908152600f6020526040902080548290811061304257fe5b9060005260206000200154925082600f6000866001600160a01b03166001600160a01b03168152602001908152602001600020868154811061308057fe5b90600052602060002001819055506130ae600d600085815260200190815260200160002060010154866117b3565b6000848152600d60205260409020600101555b6001600160a01b0384166000908152600f602052604090208054806130e257fe5b60019003818190600052602060002001600090559055505b60408087015160009081526010602052205460011080156131305750604080870151600090815260106020522054600019018514155b156131d4576040808701805160009081526010602052828120915181529190912054815460001990910190811061316357fe5b90600052602060002001549150816010600088604001518152602001908152602001600020868154811061319357fe5b90600052602060002001819055506131c1600d6000848152602001908152602001600020600101548661208f565b6000838152600d60205260409020600101555b60408087015160009081526010602052208054806131ee57fe5b60019003818190600052602060002001600090559055505050505050565b60006060846001600160a01b031663a9059cbb8585604051602401613232929190614c6d565b6040516020818303038152906040529060e01b6020820180517bffffffffffffffffffffffffffffffffffffffffffffffffffffffff83818316178352505050506040516132809190614b1a565b6000604051808303816000865af19150503d80600081146132bd576040519150601f19603f3d011682016040523d82523d6000602084013e6132c2565b606091505b50915091508180156132ec5750805115806132ec5750808060200190518101906132ec9190614937565b612d245760405162461bcd60e51b81526004016109a990614db7565b826001600160a01b0316846001600160a01b0316141561333a5760405162461bcd60e51b81526004016109a990614eb9565b600080846001600160a01b031663db006a75846040518263ffffffff1660e01b8152600401613369919061568e565b606060405180830381600087803b15801561338357600080fd5b505af1158015613397573d6000803e3d6000fd5b505050506040513d601f19601f820116820180604052508101906133bb9190614a41565b925050915081600014806133cf575081600e145b6133eb5760405162461bcd60e51b81526004016109a9906152aa565b81600e1415613406576133ff85858561320c565b5050612df0565b6001600160a01b0386166134235761341e848261430b565b61342e565b61342e86858361320c565b505050505050565b61344183858361320c565b61344b8282612e3b565b6001600160a01b039384166000908152600c602090815260408083209790961682529590955292909320919091555050565b6134878282612e3b565b6001600160a01b038085166000908152600c60209081526040808320938a1683529290522055612d2484848784613308565b6000806134c584613b65565b905060006134d284613b65565b905060006134e08383612e07565b6000908152600a602052604090209695505050505050565b60006060856001600160a01b03166323b872dd86868660405160240161352093929190614c18565b6040516020818303038152906040529060e01b6020820180517bffffffffffffffffffffffffffffffffffffffffffffffffffffffff838183161783525050505060405161356e9190614b1a565b6000604051808303816000865af19150503d80600081146135ab576040519150601f19603f3d011682016040523d82523d6000602084013e6135b0565b606091505b50915091508180156135da5750805115806135da5750808060200190518101906135da9190614937565b61342e5760405162461bcd60e51b81526004016109a990615564565b60006001600160a01b038216158061362057506002546001600160a01b0383811661010090920416145b1561363757506003546001600160a01b0316610ad0565b6004805460405163714bca1f60e11b81526000926001600160a01b039092169163e297943e9161366991879101614b36565b60206040518083038186803b15801561368157600080fd5b505afa158015613695573d6000803e3d6000fd5b505050506040513d601f19601f820116820180604052508101906136b991906146a6565b90506001600160a01b0381166117cb576004805460405163b8d7b66960e01b81526000926001600160a01b039092169163b8d7b669916136fb91889101614b36565b60206040518083038186803b15801561371357600080fd5b505afa158015613727573d6000803e3d6000fd5b505050506040513d601f19601f8201168201806040525081019061374b91906146a6565b90506001600160a01b03811615613766578392505050610ad0565b600480546040517f26c7bd930000000000000000000000000000000000000000000000000000000081526001600160a01b03909116916326c7bd93916137ae91889101614b36565b602060405180830381600087803b1580156137c857600080fd5b505af11580156137dc573d6000803e3d6000fd5b505050506040513d601f19601f8201168201806040525081019061380091906146a6565b92505050610ad0565b600080836001600160a01b0316856001600160a01b0316141561383e5760405162461bcd60e51b81526004016109a990614dee565b6001600160a01b0385166138ea57600354604080517f1249c58b00000000000000000000000000000000000000000000000000000000815281516001600160a01b0390931692631249c58b9287926004808201939182900301818588803b1580156138a857600080fd5b505af11580156138bc573d6000803e3d6000fd5b50505050506040513d601f19601f820116820180604052508101906138e191906149a4565b92509050613a06565b60405163095ea7b360e01b81526001600160a01b0386169063095ea7b3906139189087908790600401614c6d565b602060405180830381600087803b15801561393257600080fd5b505af1158015613946573d6000803e3d6000fd5b505050506040513d601f19601f8201168201806040525081019061396a9190614937565b506040517fa0712d680000000000000000000000000000000000000000000000000000000081526001600160a01b0385169063a0712d68906139b090869060040161568e565b6040805180830381600087803b1580156139c957600080fd5b505af11580156139dd573d6000803e3d6000fd5b505050506040513d601f19601f82011682018060405250810190613a0191906149a4565b925090505b8015613a245760405162461bcd60e51b81526004016109a99061503a565b509392505050565b805460048201546000613a3e82611efd565b600585015490915060009081906001600160a01b03168315613a92575060068601546001600160a01b03166000818152600e6020908152604082208054600181018255908352912081018790559250613ac1565b6001600160a01b0381166000908152600f60209081526040822080546001810182559083529120810187905592505b6002870154600090815260106020908152604082208054600181018255908352912081018790559150613af482846124a8565b600188015560088701546007880154600b890154600e8a01546040516001600160a01b0394851694938416938616927fc8419e5c94126588374d91d4332ef5d56223abb9c42776b667e899ccff2c5f2792613b54928d9291908d906156d8565b60405180910390a450505050505050565b60006001600160a01b0382161580613b8f57506002546001600160a01b0383811661010090920416145b15613ba657506003546001600160a01b0316610ad0565b6004805460405163714bca1f60e11b81526000926001600160a01b039092169163e297943e91613bd891879101614b36565b60206040518083038186803b158015613bf057600080fd5b505afa158015613c04573d6000803e3d6000fd5b505050506040513d601f19601f82011682018060405250810190613c2891906146a6565b90506001600160a01b0381166117cb5782915050610ad0565b6003546000906001600160a01b0383811691161415613c6257506000610ad0565b6004805460405163b8d7b66960e01b81526000926001600160a01b039092169163b8d7b66991613c9491879101614b36565b60206040518083038186803b158015613cac57600080fd5b505afa158015613cc0573d6000803e3d6000fd5b505050506040513d601f19601f82011682018060405250810190613ce491906146a6565b90506001600160a01b0381166117cb5760405162461bcd60e51b81526004016109a990614f95565b60608201516040517f78cbe05100000000000000000000000000000000000000000000000000000000815273__$ede4fa3877902dc4fe1d8d42678939ceaa$__906378cbe05190613d6390879085906004016156a5565b60206040518083038186803b158015613d7b57600080fd5b505af4158015613d8f573d6000803e3d6000fd5b505050506040513d601f19601f82011682018060405250810190613db3919061496b565b6101208401526006546001600160a01b031615613e0a57613de9612710613de3613ddc85612378565b8490614398565b906143d2565b6080840152613e00612710613de3613ddc856120e7565b60a0840152613e19565b60006080840181905260a08401525b6080830151613e29908290612e3b565b60c084015260a0830151610120840151613e4291612e3b565b610100840152825115612df05760408085015190517f0bbc1cea00000000000000000000000000000000000000000000000000000000815260009173__$ede4fa3877902dc4fe1d8d42678939ceaa$__91630bbc1cea91613ea591600401614b36565b60206040518083038186803b158015613ebd57600080fd5b505af4158015613ed1573d6000803e3d6000fd5b505050506040513d601f19601f82011682018060405250810190613ef5919061496b565b9050600073__$ede4fa3877902dc4fe1d8d42678939ceaa$__630bbc1cea87606001516040518263ffffffff1660e01b8152600401613f349190614b36565b60206040518083038186803b158015613f4c57600080fd5b505af4158015613f60573d6000803e3d6000fd5b505050506040513d601f19601f82011682018060405250810190613f84919061496b565b9050613fa9670de0b6b3a7640000613de3848860c0015161439890919063ffffffff16565b60e0860152610120850151613fcc90670de0b6b3a764000090613de39084614398565b610140860152505050505050565b60068301546009840154600a85015460048601546001600160a01b0393841693928316929091169061400b90611efd565b156140b0576005546140289082906001600160a01b03168661320c565b6005546040517f1889ae210000000000000000000000000000000000000000000000000000000081526001600160a01b0390911690631889ae2190614079908690869086908a908c90600401614be4565b600060405180830381600087803b15801561409357600080fd5b505af11580156140a7573d6000803e3d6000fd5b505050506140dc565b6001600160a01b038082166000908152600c602090815260408083209387168352929052208054850190555b600d8601546140eb9086614414565b600d870155600f8601546140ff9085614414565b600f870155600c860154600d8701541061342e576001866004016000828254179250508190555061342e866040518061010001604052908160008201548152602001600182015481526020016002820154815260200160038201548152602001600482015481526020016005820160009054906101000a90046001600160a01b03166001600160a01b03166001600160a01b031681526020016006820160009054906101000a90046001600160a01b03166001600160a01b03166001600160a01b0316815260200160078201604051806101200160405290816000820160009054906101000a90046001600160a01b03166001600160a01b03166001600160a01b031681526020016001820160009054906101000a90046001600160a01b03166001600160a01b03166001600160a01b031681526020016002820160009054906101000a90046001600160a01b03166001600160a01b03166001600160a01b031681526020016003820160009054906101000a90046001600160a01b03166001600160a01b03166001600160a01b031681526020016004820154815260200160058201548152602001600682015481526020016007820154815260200160088201548152505081525050612e7d565b60006142d930614439565b15905090565b600081848411156143035760405162461bcd60e51b81526004016109a99190614d4d565b505050900390565b604080516000808252602082019092526001600160a01b0384169083906040516143359190614b1a565b60006040518083038185875af1925050503d8060008114614372576040519150601f19603f3d011682016040523d82523d6000602084013e614377565b606091505b505090508061263b5760405162461bcd60e51b81526004016109a990615386565b6000826143a7575060006117cb565b828202828482816143b457fe5b04146120e05760405162461bcd60e51b81526004016109a990615173565b60006120e083836040518060400160405280601a81526020017f536166654d6174683a206469766973696f6e206279207a65726f00000000000081525061443f565b6000828201838110156120e05760405162461bcd60e51b81526004016109a990614f5e565b3b151590565b600081836144605760405162461bcd60e51b81526004016109a99190614d4d565b50600083858161446c57fe5b0495945050505050565b604051806101000160405280600081526020016000815260200160008152602001600081526020016000815260200160006001600160a01b0316815260200160006001600160a01b031681526020016144cd614540565b905290565b60405180610160016040528060001515815260200160006001600160a01b0316815260200160006001600160a01b0316815260200160008152602001600081526020016000815260200160008152602001600081526020016000815260200160008152602001600081525090565b60405180610120016040528060006001600160a01b0316815260200160006001600160a01b0316815260200160006001600160a01b0316815260200160006001600160a01b0316815260200160008152602001600081526020016000815260200160008152602001600081525090565b600082601f8301126145c0578081fd5b813567ffffffffffffffff808211156145d7578283fd5b6020808302604051828282010181811085821117156145f4578687fd5b60405284815294508185019250858201818701830188101561461557600080fd5b600091505b8482101561463857803584529282019260019190910190820161461a565b505050505092915050565b60008083601f840112614654578182fd5b50813567ffffffffffffffff81111561466b578182fd5b60208301915083602082850101111561468357600080fd5b9250929050565b60006020828403121561469b578081fd5b81356120e081615774565b6000602082840312156146b7578081fd5b81516120e081615774565b600080604083850312156146d4578081fd5b82356146df81615774565b915060208301356146ef81615774565b809150509250929050565b60008060006060848603121561470e578081fd5b833561471981615774565b9250602084013561472981615774565b9150604084013561473981615774565b809150509250925092565b60008060008060808587031215614759578081fd5b843561476481615774565b9350602085013561477481615774565b9250604085013561478481615774565b9150606085013561479481615774565b939692955090935050565b60008060008060008060c087890312156147b7578182fd5b86356147c281615774565b955060208701356147d281615774565b945060408701356147e281615774565b959894975094956060810135955060808101359460a0909101359350915050565b600080600060608486031215614817578283fd5b833561482281615774565b9250602084013561483281615774565b929592945050506040919091013590565b60008060408385031215614855578182fd5b823561486081615774565b946020939093013593505050565b600080600080600080600060c0888a031215614888578081fd5b873567ffffffffffffffff8082111561489f578283fd5b6148ab8b838c016145b0565b985060208a01359150808211156148c0578283fd5b6148cc8b838c016145b0565b975060408a013591506148de82615774565b9095506060890135906148f08261578c565b9094506080890135906149028261578c565b90935060a08901359080821115614917578283fd5b506149248a828b01614643565b989b979a50959850939692959293505050565b600060208284031215614948578081fd5b81516120e08161578c565b600060208284031215614964578081fd5b5035919050565b60006020828403121561497c578081fd5b5051919050565b60008060408385031215614995578182fd5b50508035926020909101359150565b600080604083850312156149b6578182fd5b505080516020909101519092909150565b600080600080600080600060c0888a0312156149e1578081fd5b873596506020880135955060408801356149fa81615774565b94506060880135614a0a8161578c565b93506080880135614a1a8161578c565b925060a088013567ffffffffffffffff811115614a35578182fd5b6149248a828b01614643565b600080600060608486031215614a55578081fd5b8351925060208401519150604084015190509250925092565b6001600160a01b03169052565b15159052565b6001600160a01b03808251168352806020830151166020840152806040830151166040840152506060810151614aba6060840182614a6e565b506080810151608083015260a081015160a083015260c081015160c083015260e081015160e08301526101008082015181840152505050565b6bffffffffffffffffffffffff19606093841b811682529190921b16601482015260280190565b60008251614b2c818460208701615748565b9190910192915050565b6001600160a01b0391909116815260200190565b6001600160a01b0392831681529116602082015260400190565b60006001600160a01b038716825285602083015284604083015260806060830152826080830152828460a084013781830160a090810191909152601f909201601f19160101949350505050565b6001600160a01b039586168152938516602085015291841660408401529092166060820152608081019190915260a00190565b6001600160a01b03958616815293851660208501529190931660408301526060820192909252608081019190915260a00190565b6001600160a01b039384168152919092166020820152604081019190915260600190565b6001600160a01b03958616815293909416602084015260408301919091526060820152608081019190915260a00190565b6001600160a01b03929092168252602082015260400190565b602080825282518282018190526000919060409081850190868401855b82811015614d235781518051855286810151878601528581015186860152606080820151908601526080808201519086015260a0808201516001600160a01b039081169187019190915260c0808301519091169086015260e09081015190614d0d81870183614a81565b5050610200939093019290850190600101614ca3565b5091979650505050505050565b901515815260200190565b91151582521515602082015260400190565b6000602082528251806020840152614d6c816040850160208701615748565b601f01601f19169190910160400192915050565b6020808252600b908201527f6f7264657220636f756e74000000000000000000000000000000000000000000604082015260600190565b6020808252601f908201527f5472616e7366657248656c7065723a205452414e534645525f4641494c454400604082015260600190565b60208082526012908201527f746f6b656e20657175616c2065746f6b656e0000000000000000000000000000604082015260600190565b6020808252600b908201527f7a65726f20616d6f756e74000000000000000000000000000000000000000000604082015260600190565b60208082526026908201527f4f776e61626c653a206e6577206f776e657220697320746865207a65726f206160408201527f6464726573730000000000000000000000000000000000000000000000000000606082015260800190565b6020808252601d908201527f746f6b656e2073686f756c64206e6f7420657175616c2065746f6b656e000000604082015260600190565b60208082526019908201527f73686f756c64206e6f74206265206d617267696e20666c616700000000000000604082015260600190565b6020808252600a908201527f696e76616c696420696400000000000000000000000000000000000000000000604082015260600190565b6020808252601b908201527f536166654d6174683a206164646974696f6e206f766572666c6f770000000000604082015260600190565b6020808252600e908201527f696e76616c69642065746f6b656e000000000000000000000000000000000000604082015260600190565b6020808252600a908201527f6e6f7420656e6f75676800000000000000000000000000000000000000000000604082015260600190565b60208082526015908201527f646573742073686f756c642062652065746f6b656e0000000000000000000000604082015260600190565b6020808252600b908201527f6d696e74206661696c6564000000000000000000000000000000000000000000604082015260600190565b6020808252601b908201527f746f2073686f756c642062652075736572277320616464726573730000000000604082015260600190565b6020808252602e908201527f496e697469616c697a61626c653a20636f6e747261637420697320616c72656160408201527f647920696e697469616c697a6564000000000000000000000000000000000000606082015260800190565b6020808252600f908201527f6e6f74206d617267696e20616464720000000000000000000000000000000000604082015260600190565b60208082526014908201527f7372632073686f756c642062652065746f6b656e000000000000000000000000604082015260600190565b60208082526021908201527f536166654d6174683a206d756c7469706c69636174696f6e206f766572666c6f60408201527f7700000000000000000000000000000000000000000000000000000000000000606082015260800190565b6020808252818101527f4f776e61626c653a2063616c6c6572206973206e6f7420746865206f776e6572604082015260600190565b6020808252600d908201527f696e76616c696420706172616d00000000000000000000000000000000000000604082015260600190565b60208082526008908201527f6e6f206173736574000000000000000000000000000000000000000000000000604082015260600190565b60208082526013908201527f6e6f7420656e6f75676820616d6f756e74496e00000000000000000000000000604082015260600190565b6020808252600d908201527f72656465656d206661696c656400000000000000000000000000000000000000604082015260600190565b60208082526014908201527f63616e63656c4f726465723a206e6f2061757468000000000000000000000000604082015260600190565b60208082526015908201527f6f7264657220686173206265656e20636c6f7365640000000000000000000000604082015260600190565b60208082526014908201527f6c657373207468616e206d696e20616d6f756e74000000000000000000000000604082015260600190565b60208082526023908201527f5472616e7366657248656c7065723a204554485f5452414e534645525f46414960408201527f4c45440000000000000000000000000000000000000000000000000000000000606082015260800190565b60208082526014908201527f6e6f7420656e6f75676820746f2066756c66696c000000000000000000000000604082015260600190565b6020808252601a908201527f63616e63656c4d617267696e4f726465723a206e6f2061757468000000000000604082015260600190565b60208082526011908201527f6f7264657220626f6f6b20636c6f736564000000000000000000000000000000604082015260600190565b60208082526015908201527f666c61672073686f756c64206265206d617267696e0000000000000000000000604082015260600190565b6020808252600f908201527f6964656e746963616c20746f6b656e0000000000000000000000000000000000604082015260600190565b60208082526014908201527f626f746820746f6b656e206f722065746f6b656e000000000000000000000000604082015260600190565b60208082526010908201527f6e6f7420656e6f75676820617373657400000000000000000000000000000000604082015260600190565b60208082526024908201527f5472616e7366657248656c7065723a205452414e534645525f46524f4d5f464160408201527f494c454400000000000000000000000000000000000000000000000000000000606082015260800190565b6020808252601f908201527f5265656e7472616e637947756172643a207265656e7472616e742063616c6c00604082015260600190565b60006101608201905061560c828451614a7b565b602083015161561e6020840182614a6e565b5060408301516156316040840182614a6e565b50606083015160608301526080830151608083015260a083015160a083015260c083015160c083015260e083015160e083015261010080840151818401525061012080840151818401525061014080840151818401525092915050565b90815260200190565b918252602082015260400190565b61014081016156b48285614a81565b826101208301529392505050565b9283526020830191909152604082015260600190565b93845260208401929092526040830152606082015260800190565b888152602081018890526040810187905260608101869052608081018590526001600160a01b0384811660a0830152831660c0820152610200810161573b60e0830184614a81565b9998505050505050505050565b60005b8381101561576357818101518382015260200161574b565b83811115612df05750506000910152565b6001600160a01b038116811461578957600080fd5b50565b801515811461578957600080fdfea264697066735822122022bbac61001c3b67414479005b21d915144fb212129b54206ae65e7799b2390f64736f6c634300060c0033",
  "linkReferences": {
    "contracts/swap/orderbook/OBPairConfig.sol": {
      "OBPairConfig": [
        {
          "length": 20,
          "start": 6155
        },
        {
          "length": 20,
          "start": 8653
        },
        {
          "length": 20,
          "start": 8934
        },
        {
          "length": 20,
          "start": 9310
        }
      ]
    },
    "contracts/swap/orderbook/OBPriceLogic.sol": {
      "OBPriceLogic": [
        {
          "length": 20,
          "start": 15847
        },
        {
          "length": 20,
          "start": 16173
        },
        {
          "length": 20,
          "start": 16297
        }
      ]
    }
  },
  "deployedLinkReferences": {
    "contracts/swap/orderbook/OBPairConfig.sol": {
      "OBPairConfig": [
        {
          "length": 20,
          "start": 5981
        },
        {
          "length": 20,
          "start": 8479
        },
        {
          "length": 20,
          "start": 8760
        },
        {
          "length": 20,
          "start": 9136
        }
      ]
    },
    "contracts/swap/orderbook/OBPriceLogic.sol": {
      "OBPriceLogic": [
        {
          "length": 20,
          "start": 15673
        },
        {
          "length": 20,
          "start": 15999
        },
        {
          "length": 20,
          "start": 16123
        }
      ]
    }
  }
}