{
  "_format": "hh-sol-artifact-1",
  "contractName": "Unitroller",
  "sourceName": "contracts/compound/Unitroller.sol",
  "abi": [
    {
      "inputs": [],
      "payable": false,
      "stateMutability": "nonpayable",
      "type": "constructor"
    },
    {
      "anonymous": false,
      "inputs": [
        {
          "indexed": false,
          "internalType": "uint256",
          "name": "error",
          "type": "uint256"
        },
        {
          "indexed": false,
          "internalType": "uint256",
          "name": "info",
          "type": "uint256"
        },
        {
          "indexed": false,
          "internalType": "uint256",
          "name": "detail",
          "type": "uint256"
        }
      ],
      "name": "Failure",
      "type": "event"
    },
    {
      "anonymous": false,
      "inputs": [
        {
          "indexed": false,
          "internalType": "address",
          "name": "oldAdmin",
          "type": "address"
        },
        {
          "indexed": false,
          "internalType": "address",
          "name": "newAdmin",
          "type": "address"
        }
      ],
      "name": "NewAdmin",
      "type": "event"
    },
    {
      "anonymous": false,
      "inputs": [
        {
          "indexed": false,
          "internalType": "address",
          "name": "oldPendingAdmin",
          "type": "address"
        },
        {
          "indexed": false,
          "internalType": "address",
          "name": "newPendingAdmin",
          "type": "address"
        }
      ],
      "name": "NewPendingAdmin",
      "type": "event"
    },
    {
      "payable": true,
      "stateMutability": "payable",
      "type": "fallback"
    },
    {
      "constant": false,
      "inputs": [],
      "name": "_acceptAdmin",
      "outputs": [
        {
          "internalType": "uint256",
          "name": "",
          "type": "uint256"
        }
      ],
      "payable": false,
      "stateMutability": "nonpayable",
      "type": "function"
    },
    {
      "constant": false,
      "inputs": [
        {
          "internalType": "address",
          "name": "_delegateFactoryAddress",
          "type": "address"
        }
      ],
      "name": "_setDelegateFactoryAddress",
      "outputs": [
        {
          "internalType": "uint256",
          "name": "",
          "type": "uint256"
        }
      ],
      "payable": false,
      "stateMutability": "nonpayable",
      "type": "function"
    },
    {
      "constant": false,
      "inputs": [
        {
          "internalType": "uint256",
          "name": "index",
          "type": "uint256"
        },
        {
          "internalType": "address",
          "name": "implementation",
          "type": "address"
        }
      ],
      "name": "_setImplementation",
      "outputs": [
        {
          "internalType": "uint256",
          "name": "",
          "type": "uint256"
        }
      ],
      "payable": false,
      "stateMutability": "nonpayable",
      "type": "function"
    },
    {
      "constant": false,
      "inputs": [
        {
          "internalType": "bytes[]",
          "name": "methodArray",
          "type": "bytes[]"
        },
        {
          "internalType": "uint256[]",
          "name": "implementationArray",
          "type": "uint256[]"
        }
      ],
      "name": "_setMethodId",
      "outputs": [
        {
          "internalType": "uint256",
          "name": "",
          "type": "uint256"
        }
      ],
      "payable": false,
      "stateMutability": "nonpayable",
      "type": "function"
    },
    {
      "constant": false,
      "inputs": [
        {
          "internalType": "address",
          "name": "newPendingAdmin",
          "type": "address"
        }
      ],
      "name": "_setPendingAdmin",
      "outputs": [
        {
          "internalType": "uint256",
          "name": "",
          "type": "uint256"
        }
      ],
      "payable": false,
      "stateMutability": "nonpayable",
      "type": "function"
    },
    {
      "constant": true,
      "inputs": [],
      "name": "admin",
      "outputs": [
        {
          "internalType": "address",
          "name": "",
          "type": "address"
        }
      ],
      "payable": false,
      "stateMutability": "view",
      "type": "function"
    },
    {
      "constant": true,
      "inputs": [],
      "name": "delegateFactoryAddress",
      "outputs": [
        {
          "internalType": "address",
          "name": "",
          "type": "address"
        }
      ],
      "payable": false,
      "stateMutability": "view",
      "type": "function"
    },
    {
      "constant": true,
      "inputs": [
        {
          "internalType": "uint256",
          "name": "",
          "type": "uint256"
        }
      ],
      "name": "implementsMapping",
      "outputs": [
        {
          "internalType": "address",
          "name": "",
          "type": "address"
        }
      ],
      "payable": false,
      "stateMutability": "view",
      "type": "function"
    },
    {
      "constant": true,
      "inputs": [
        {
          "internalType": "bytes",
          "name": "",
          "type": "bytes"
        }
      ],
      "name": "methodImplements",
      "outputs": [
        {
          "internalType": "uint256",
          "name": "",
          "type": "uint256"
        }
      ],
      "payable": false,
      "stateMutability": "view",
      "type": "function"
    },
    {
      "constant": true,
      "inputs": [],
      "name": "pendingAdmin",
      "outputs": [
        {
          "internalType": "address",
          "name": "",
          "type": "address"
        }
      ],
      "payable": false,
      "stateMutability": "view",
      "type": "function"
    },
    {
      "constant": true,
      "inputs": [],
      "name": "pendingComptrollerImplementation",
      "outputs": [
        {
          "internalType": "address",
          "name": "",
          "type": "address"
        }
      ],
      "payable": false,
      "stateMutability": "view",
      "type": "function"
    },
    {
      "constant": true,
      "inputs": [
        {
          "internalType": "bytes",
          "name": "val",
          "type": "bytes"
        }
      ],
      "name": "strSlice",
      "outputs": [
        {
          "internalType": "bytes",
          "name": "",
          "type": "bytes"
        }
      ],
      "payable": false,
      "stateMutability": "pure",
      "type": "function"
    }
  ],
  "bytecode": "0x608060405234801561001057600080fd5b50600080546001600160a01b03191633179055610ca0806100326000396000f3fe6080604052600436106100a75760003560e01c8063a2c7ca4d11610064578063a2c7ca4d146102ab578063b71d1a0c146102c0578063d0b0630f146102e0578063dcfbc0c714610300578063e9c714f214610315578063f851a4401461032a576100a7565b8063154f138e146101c657806326634e4c146101fc578063267822471461022957806372fdfcae1461024b5780637cba484f1461026b5780639952f89b1461028b575b60606100e96000368080601f01602080910402602001604051908101604052809392919081815260200183838082843760009201919091525061033f92505050565b905060006004826040516100fd9190610ac2565b908152604080516020928190038301902054600081815260059093529120549091506001600160a01b03168061014e5760405162461bcd60e51b815260040161014590610b08565b60405180910390fd5b6000816001600160a01b031660003660405161016b929190610ab5565b600060405180830381855af49150503d80600081146101a6576040519150601f19603f3d011682016040523d82523d6000602084013e6101ab565b606091505b505090506040513d6000823e8180156101c2573d82f35b3d82fd5b3480156101d257600080fd5b506101e66101e136600461092a565b61033f565b6040516101f39190610af7565b60405180910390f35b34801561020857600080fd5b5061021c61021736600461089b565b6103c6565b6040516101f39190610b28565b34801561023557600080fd5b5061023e610410565b6040516101f39190610ace565b34801561025757600080fd5b5061021c61026636600461092a565b61041f565b34801561027757600080fd5b5061021c61028636600461097d565b61043c565b34801561029757600080fd5b5061021c6102a63660046108c1565b610491565b3480156102b757600080fd5b5061023e610541565b3480156102cc57600080fd5b5061021c6102db36600461089b565b610550565b3480156102ec57600080fd5b5061023e6102fb36600461095f565b6105d3565b34801561030c57600080fd5b5061023e6105ee565b34801561032157600080fd5b5061021c6105fd565b34801561033657600080fd5b5061023e6106eb565b6040805160048082528183019092526060918391839160208201818038833901905050905060048251106103bd5760005b60048110156103bb5782818151811061038557fe5b602001015160f81c60f81b82828151811061039c57fe5b60200101906001600160f81b031916908160001a905350600101610370565b505b9150505b919050565b600080546001600160a01b031633146103ec576103e5600160176106fa565b90506103c1565b600180546001600160a01b0319166001600160a01b03841617905560005b92915050565b6002546001600160a01b031681565b805160208183018101805160048252928201919093012091525481565b600080546001600160a01b031633146104625761045b600160176106fa565b905061040a565b600083815260056020526040812080546001600160a01b0319166001600160a01b0385161790555b9392505050565b600080546001600160a01b031633146104b05761045b600160176106fa565b600083511180156104c2575081518351145b6104de5760405162461bcd60e51b815260040161014590610b18565b60005b8351811015610539578281815181106104f657fe5b6020026020010151600485838151811061050c57fe5b60200260200101516040516105219190610ac2565b908152604051908190036020019020556001016104e1565b50600061048a565b6001546001600160a01b031681565b600080546001600160a01b0316331461056f576103e5600160166106fa565b600280546001600160a01b038481166001600160a01b03198316179092556040519116907fca4f2f25d0898edd99413412fb94012f9e54ec8142f9b093e7720646a95b16a9906105c29083908690610adc565b60405180910390a160009392505050565b6005602052600090815260409020546001600160a01b031681565b6003546001600160a01b031681565b6002546000906001600160a01b031633141580610618575033155b1561063057610629600160006106fa565b90506106e8565b60008054600280546001600160a01b038082166001600160a01b03198086168217968790559092169092556040519282169390927ff9ffabca9c8276e99321725bcb43fb076a6c66a54b7f21c4e8146d8519b417dc92610694928692911690610adc565b60405180910390a16002546040517fca4f2f25d0898edd99413412fb94012f9e54ec8142f9b093e7720646a95b16a9916106d99184916001600160a01b031690610adc565b60405180910390a16000925050505b90565b6000546001600160a01b031681565b60007f45b96fe442630264581b197e84bbada861235052c5a1aadfff9ea4e40a969aa083601381111561072957fe5b83601b81111561073557fe5b600060405161074693929190610b36565b60405180910390a182601381111561048a57fe5b803561040a81610c3d565b600082601f83011261077657600080fd5b813561078961078482610b85565b610b5e565b81815260209384019390925082018360005b838110156107c757813586016107b18882610841565b845250602092830192919091019060010161079b565b5050505092915050565b600082601f8301126107e257600080fd5b81356107f061078482610b85565b9150818183526020840193506020810190508385602084028201111561081557600080fd5b60005b838110156107c7578161082b8882610890565b8452506020928301929190910190600101610818565b600082601f83011261085257600080fd5b813561086061078482610ba6565b9150808252602083016020830185838301111561087c57600080fd5b610887838284610bf7565b50505092915050565b803561040a81610c54565b6000602082840312156108ad57600080fd5b60006108b9848461075a565b949350505050565b600080604083850312156108d457600080fd5b823567ffffffffffffffff8111156108eb57600080fd5b6108f785828601610765565b925050602083013567ffffffffffffffff81111561091457600080fd5b610920858286016107d1565b9150509250929050565b60006020828403121561093c57600080fd5b813567ffffffffffffffff81111561095357600080fd5b6108b984828501610841565b60006020828403121561097157600080fd5b60006108b98484610890565b6000806040838503121561099057600080fd5b600061099c8585610890565b92505060206109208582860161075a565b6109b681610bdb565b82525050565b60006109c883856103c1565b93506109d5838584610bf7565b50500190565b60006109e682610bce565b6109f08185610bd2565b9350610a00818560208601610c03565b610a0981610c33565b9093019392505050565b6000610a1e82610bce565b610a2881856103c1565b9350610a38818560208601610c03565b9290920192915050565b6109b681610bec565b6000610a58601683610bd2565b7534b73b30b634b21034b6b83632b6b2b73a30ba34b7b760511b815260200192915050565b6000610a8a601383610bd2565b72092dcc6dedce6d2e6e8cadce840d8cadccee8d606b1b815260200192915050565b6109b6816106e8565b60006108b98284866109bc565b600061048a8284610a13565b6020810161040a82846109ad565b60408101610aea82856109ad565b61048a60208301846109ad565b6020808252810161048a81846109db565b6020808252810161040a81610a4b565b6020808252810161040a81610a7d565b6020810161040a8284610aac565b60608101610b448286610aac565b610b516020830185610aac565b6108b96040830184610a42565b60405181810167ffffffffffffffff81118282101715610b7d57600080fd5b604052919050565b600067ffffffffffffffff821115610b9c57600080fd5b5060209081020190565b600067ffffffffffffffff821115610bbd57600080fd5b506020601f91909101601f19160190565b5190565b90815260200190565b60006001600160a01b03821661040a565b600061040a826106e8565b82818337506000910152565b60005b83811015610c1e578181015183820152602001610c06565b83811115610c2d576000848401525b50505050565b601f01601f191690565b610c4681610bdb565b8114610c5157600080fd5b50565b610c46816106e856fea365627a7a72315820b2c58b864631871b307badccf3b05eb8b25a6d44ab8e1cd1dd907d0e8c3560a46c6578706572696d656e74616cf564736f6c63430005100040",
  "linkReferences": {},
  "deployedLinkReferences": {}
}