{
  "_format": "hh-sol-artifact-1",
  "contractName": "DeBankPair",
  "sourceName": "contracts/swap/heco/Pair.sol",
  "abi": [
    {
      "inputs": [],
      "payable": false,
      "stateMutability": "nonpayable",
      "type": "constructor"
    },
    {
      "anonymous": false,
      "inputs": [
        {
          "indexed": true,
          "internalType": "address",
          "name": "owner",
          "type": "address"
        },
        {
          "indexed": true,
          "internalType": "address",
          "name": "spender",
          "type": "address"
        },
        {
          "indexed": false,
          "internalType": "uint256",
          "name": "value",
          "type": "uint256"
        }
      ],
      "name": "Approval",
      "type": "event"
    },
    {
      "anonymous": false,
      "inputs": [
        {
          "indexed": true,
          "internalType": "address",
          "name": "sender",
          "type": "address"
        },
        {
          "indexed": false,
          "internalType": "uint256",
          "name": "amount0",
          "type": "uint256"
        },
        {
          "indexed": false,
          "internalType": "uint256",
          "name": "amount1",
          "type": "uint256"
        },
        {
          "indexed": true,
          "internalType": "address",
          "name": "to",
          "type": "address"
        }
      ],
      "name": "Burn",
      "type": "event"
    },
    {
      "anonymous": false,
      "inputs": [
        {
          "indexed": true,
          "internalType": "address",
          "name": "sender",
          "type": "address"
        },
        {
          "indexed": false,
          "internalType": "uint256",
          "name": "amount0",
          "type": "uint256"
        },
        {
          "indexed": false,
          "internalType": "uint256",
          "name": "amount1",
          "type": "uint256"
        }
      ],
      "name": "Mint",
      "type": "event"
    },
    {
      "anonymous": false,
      "inputs": [
        {
          "indexed": true,
          "internalType": "address",
          "name": "sender",
          "type": "address"
        },
        {
          "indexed": false,
          "internalType": "uint256",
          "name": "amount0In",
          "type": "uint256"
        },
        {
          "indexed": false,
          "internalType": "uint256",
          "name": "amount1In",
          "type": "uint256"
        },
        {
          "indexed": false,
          "internalType": "uint256",
          "name": "amount0Out",
          "type": "uint256"
        },
        {
          "indexed": false,
          "internalType": "uint256",
          "name": "amount1Out",
          "type": "uint256"
        },
        {
          "indexed": true,
          "internalType": "address",
          "name": "to",
          "type": "address"
        }
      ],
      "name": "Swap",
      "type": "event"
    },
    {
      "anonymous": false,
      "inputs": [
        {
          "indexed": false,
          "internalType": "uint112",
          "name": "reserve0",
          "type": "uint112"
        },
        {
          "indexed": false,
          "internalType": "uint112",
          "name": "reserve1",
          "type": "uint112"
        }
      ],
      "name": "Sync",
      "type": "event"
    },
    {
      "anonymous": false,
      "inputs": [
        {
          "indexed": true,
          "internalType": "address",
          "name": "from",
          "type": "address"
        },
        {
          "indexed": true,
          "internalType": "address",
          "name": "to",
          "type": "address"
        },
        {
          "indexed": false,
          "internalType": "uint256",
          "name": "value",
          "type": "uint256"
        }
      ],
      "name": "Transfer",
      "type": "event"
    },
    {
      "constant": true,
      "inputs": [],
      "name": "DOMAIN_SEPARATOR",
      "outputs": [
        {
          "internalType": "bytes32",
          "name": "",
          "type": "bytes32"
        }
      ],
      "payable": false,
      "stateMutability": "view",
      "type": "function"
    },
    {
      "constant": true,
      "inputs": [],
      "name": "MINIMUM_LIQUIDITY",
      "outputs": [
        {
          "internalType": "uint256",
          "name": "",
          "type": "uint256"
        }
      ],
      "payable": false,
      "stateMutability": "view",
      "type": "function"
    },
    {
      "constant": true,
      "inputs": [],
      "name": "PERMIT_TYPEHASH",
      "outputs": [
        {
          "internalType": "bytes32",
          "name": "",
          "type": "bytes32"
        }
      ],
      "payable": false,
      "stateMutability": "view",
      "type": "function"
    },
    {
      "constant": true,
      "inputs": [
        {
          "internalType": "address",
          "name": "",
          "type": "address"
        },
        {
          "internalType": "address",
          "name": "",
          "type": "address"
        }
      ],
      "name": "allowance",
      "outputs": [
        {
          "internalType": "uint256",
          "name": "",
          "type": "uint256"
        }
      ],
      "payable": false,
      "stateMutability": "view",
      "type": "function"
    },
    {
      "constant": false,
      "inputs": [
        {
          "internalType": "address",
          "name": "spender",
          "type": "address"
        },
        {
          "internalType": "uint256",
          "name": "value",
          "type": "uint256"
        }
      ],
      "name": "approve",
      "outputs": [
        {
          "internalType": "bool",
          "name": "",
          "type": "bool"
        }
      ],
      "payable": false,
      "stateMutability": "nonpayable",
      "type": "function"
    },
    {
      "constant": true,
      "inputs": [
        {
          "internalType": "address",
          "name": "",
          "type": "address"
        }
      ],
      "name": "balanceOf",
      "outputs": [
        {
          "internalType": "uint256",
          "name": "",
          "type": "uint256"
        }
      ],
      "payable": false,
      "stateMutability": "view",
      "type": "function"
    },
    {
      "constant": false,
      "inputs": [
        {
          "internalType": "address",
          "name": "to",
          "type": "address"
        }
      ],
      "name": "burn",
      "outputs": [
        {
          "internalType": "uint256",
          "name": "amount0",
          "type": "uint256"
        },
        {
          "internalType": "uint256",
          "name": "amount1",
          "type": "uint256"
        }
      ],
      "payable": false,
      "stateMutability": "nonpayable",
      "type": "function"
    },
    {
      "constant": true,
      "inputs": [],
      "name": "cToken0",
      "outputs": [
        {
          "internalType": "address",
          "name": "",
          "type": "address"
        }
      ],
      "payable": false,
      "stateMutability": "view",
      "type": "function"
    },
    {
      "constant": true,
      "inputs": [],
      "name": "cToken1",
      "outputs": [
        {
          "internalType": "address",
          "name": "",
          "type": "address"
        }
      ],
      "payable": false,
      "stateMutability": "view",
      "type": "function"
    },
    {
      "constant": true,
      "inputs": [],
      "name": "ctokenMintRewards",
      "outputs": [
        {
          "internalType": "uint256",
          "name": "",
          "type": "uint256"
        }
      ],
      "payable": false,
      "stateMutability": "view",
      "type": "function"
    },
    {
      "constant": true,
      "inputs": [],
      "name": "ctokenRewordBlock",
      "outputs": [
        {
          "internalType": "uint256",
          "name": "",
          "type": "uint256"
        }
      ],
      "payable": false,
      "stateMutability": "view",
      "type": "function"
    },
    {
      "constant": true,
      "inputs": [],
      "name": "currentFee",
      "outputs": [
        {
          "internalType": "uint256",
          "name": "",
          "type": "uint256"
        }
      ],
      "payable": false,
      "stateMutability": "view",
      "type": "function"
    },
    {
      "constant": true,
      "inputs": [],
      "name": "decimals",
      "outputs": [
        {
          "internalType": "uint8",
          "name": "",
          "type": "uint8"
        }
      ],
      "payable": false,
      "stateMutability": "view",
      "type": "function"
    },
    {
      "constant": true,
      "inputs": [],
      "name": "factory",
      "outputs": [
        {
          "internalType": "address",
          "name": "",
          "type": "address"
        }
      ],
      "payable": false,
      "stateMutability": "view",
      "type": "function"
    },
    {
      "constant": true,
      "inputs": [],
      "name": "feeRate",
      "outputs": [
        {
          "internalType": "uint256",
          "name": "",
          "type": "uint256"
        }
      ],
      "payable": false,
      "stateMutability": "view",
      "type": "function"
    },
    {
      "constant": true,
      "inputs": [
        {
          "internalType": "uint256",
          "name": "amt",
          "type": "uint256"
        },
        {
          "internalType": "uint256",
          "name": "fr",
          "type": "uint256"
        }
      ],
      "name": "getFee",
      "outputs": [
        {
          "internalType": "uint256",
          "name": "",
          "type": "uint256"
        }
      ],
      "payable": false,
      "stateMutability": "view",
      "type": "function"
    },
    {
      "constant": true,
      "inputs": [
        {
          "internalType": "uint256",
          "name": "amt",
          "type": "uint256"
        }
      ],
      "name": "getFee",
      "outputs": [
        {
          "internalType": "uint256",
          "name": "",
          "type": "uint256"
        }
      ],
      "payable": false,
      "stateMutability": "view",
      "type": "function"
    },
    {
      "constant": true,
      "inputs": [],
      "name": "getReserves",
      "outputs": [
        {
          "internalType": "uint112",
          "name": "_reserve0",
          "type": "uint112"
        },
        {
          "internalType": "uint112",
          "name": "_reserve1",
          "type": "uint112"
        },
        {
          "internalType": "uint32",
          "name": "_blockTimestampLast",
          "type": "uint32"
        }
      ],
      "payable": false,
      "stateMutability": "view",
      "type": "function"
    },
    {
      "constant": false,
      "inputs": [
        {
          "internalType": "address",
          "name": "_token0",
          "type": "address"
        },
        {
          "internalType": "address",
          "name": "_token1",
          "type": "address"
        },
        {
          "internalType": "address",
          "name": "_ctoken0",
          "type": "address"
        },
        {
          "internalType": "address",
          "name": "_ctoken1",
          "type": "address"
        }
      ],
      "name": "initialize",
      "outputs": [],
      "payable": false,
      "stateMutability": "nonpayable",
      "type": "function"
    },
    {
      "constant": true,
      "inputs": [],
      "name": "kLast",
      "outputs": [
        {
          "internalType": "uint256",
          "name": "",
          "type": "uint256"
        }
      ],
      "payable": false,
      "stateMutability": "view",
      "type": "function"
    },
    {
      "constant": true,
      "inputs": [],
      "name": "lastBlock",
      "outputs": [
        {
          "internalType": "uint256",
          "name": "",
          "type": "uint256"
        }
      ],
      "payable": false,
      "stateMutability": "view",
      "type": "function"
    },
    {
      "constant": true,
      "inputs": [],
      "name": "lpFeeRate",
      "outputs": [
        {
          "internalType": "uint256",
          "name": "",
          "type": "uint256"
        }
      ],
      "payable": false,
      "stateMutability": "view",
      "type": "function"
    },
    {
      "constant": false,
      "inputs": [
        {
          "internalType": "address",
          "name": "to",
          "type": "address"
        }
      ],
      "name": "mint",
      "outputs": [
        {
          "internalType": "uint256",
          "name": "liquidity",
          "type": "uint256"
        }
      ],
      "payable": false,
      "stateMutability": "nonpayable",
      "type": "function"
    },
    {
      "constant": true,
      "inputs": [],
      "name": "mintAccPerShare",
      "outputs": [
        {
          "internalType": "uint256",
          "name": "",
          "type": "uint256"
        }
      ],
      "payable": false,
      "stateMutability": "view",
      "type": "function"
    },
    {
      "constant": true,
      "inputs": [],
      "name": "mintRewardDebt",
      "outputs": [
        {
          "internalType": "uint256",
          "name": "",
          "type": "uint256"
        }
      ],
      "payable": false,
      "stateMutability": "view",
      "type": "function"
    },
    {
      "constant": true,
      "inputs": [
        {
          "internalType": "address",
          "name": "",
          "type": "address"
        }
      ],
      "name": "mintRewardOf",
      "outputs": [
        {
          "internalType": "uint256",
          "name": "amount",
          "type": "uint256"
        },
        {
          "internalType": "uint256",
          "name": "pendingReward",
          "type": "uint256"
        },
        {
          "internalType": "uint256",
          "name": "rewardDebt",
          "type": "uint256"
        }
      ],
      "payable": false,
      "stateMutability": "view",
      "type": "function"
    },
    {
      "constant": true,
      "inputs": [],
      "name": "name",
      "outputs": [
        {
          "internalType": "string",
          "name": "",
          "type": "string"
        }
      ],
      "payable": false,
      "stateMutability": "view",
      "type": "function"
    },
    {
      "constant": true,
      "inputs": [
        {
          "internalType": "address",
          "name": "",
          "type": "address"
        }
      ],
      "name": "nonces",
      "outputs": [
        {
          "internalType": "uint256",
          "name": "",
          "type": "uint256"
        }
      ],
      "payable": false,
      "stateMutability": "view",
      "type": "function"
    },
    {
      "constant": false,
      "inputs": [
        {
          "internalType": "address",
          "name": "owner",
          "type": "address"
        },
        {
          "internalType": "address",
          "name": "spender",
          "type": "address"
        },
        {
          "internalType": "uint256",
          "name": "value",
          "type": "uint256"
        },
        {
          "internalType": "uint256",
          "name": "deadline",
          "type": "uint256"
        },
        {
          "internalType": "uint8",
          "name": "v",
          "type": "uint8"
        },
        {
          "internalType": "bytes32",
          "name": "r",
          "type": "bytes32"
        },
        {
          "internalType": "bytes32",
          "name": "s",
          "type": "bytes32"
        }
      ],
      "name": "permit",
      "outputs": [],
      "payable": false,
      "stateMutability": "nonpayable",
      "type": "function"
    },
    {
      "constant": true,
      "inputs": [
        {
          "internalType": "address",
          "name": "token",
          "type": "address"
        },
        {
          "internalType": "uint256",
          "name": "baseDecimal",
          "type": "uint256"
        }
      ],
      "name": "price",
      "outputs": [
        {
          "internalType": "uint256",
          "name": "",
          "type": "uint256"
        }
      ],
      "payable": false,
      "stateMutability": "view",
      "type": "function"
    },
    {
      "constant": true,
      "inputs": [],
      "name": "price0CumulativeLast",
      "outputs": [
        {
          "internalType": "uint256",
          "name": "",
          "type": "uint256"
        }
      ],
      "payable": false,
      "stateMutability": "view",
      "type": "function"
    },
    {
      "constant": true,
      "inputs": [],
      "name": "price1CumulativeLast",
      "outputs": [
        {
          "internalType": "uint256",
          "name": "",
          "type": "uint256"
        }
      ],
      "payable": false,
      "stateMutability": "view",
      "type": "function"
    },
    {
      "constant": true,
      "inputs": [],
      "name": "reserve0",
      "outputs": [
        {
          "internalType": "uint112",
          "name": "",
          "type": "uint112"
        }
      ],
      "payable": false,
      "stateMutability": "view",
      "type": "function"
    },
    {
      "constant": true,
      "inputs": [],
      "name": "reserve1",
      "outputs": [
        {
          "internalType": "uint112",
          "name": "",
          "type": "uint112"
        }
      ],
      "payable": false,
      "stateMutability": "view",
      "type": "function"
    },
    {
      "constant": false,
      "inputs": [
        {
          "internalType": "address",
          "name": "to",
          "type": "address"
        }
      ],
      "name": "skim",
      "outputs": [],
      "payable": false,
      "stateMutability": "nonpayable",
      "type": "function"
    },
    {
      "constant": false,
      "inputs": [
        {
          "internalType": "uint256",
          "name": "amount0Out",
          "type": "uint256"
        },
        {
          "internalType": "uint256",
          "name": "amount1Out",
          "type": "uint256"
        },
        {
          "internalType": "address",
          "name": "to",
          "type": "address"
        },
        {
          "internalType": "bytes",
          "name": "data",
          "type": "bytes"
        }
      ],
      "name": "swap",
      "outputs": [],
      "payable": false,
      "stateMutability": "nonpayable",
      "type": "function"
    },
    {
      "constant": false,
      "inputs": [
        {
          "internalType": "uint256",
          "name": "amount0Out",
          "type": "uint256"
        },
        {
          "internalType": "uint256",
          "name": "amount1Out",
          "type": "uint256"
        },
        {
          "internalType": "address",
          "name": "to",
          "type": "address"
        },
        {
          "internalType": "uint256",
          "name": "fee",
          "type": "uint256"
        }
      ],
      "name": "swapNoFee",
      "outputs": [],
      "payable": false,
      "stateMutability": "nonpayable",
      "type": "function"
    },
    {
      "constant": true,
      "inputs": [],
      "name": "symbol",
      "outputs": [
        {
          "internalType": "string",
          "name": "",
          "type": "string"
        }
      ],
      "payable": false,
      "stateMutability": "view",
      "type": "function"
    },
    {
      "constant": false,
      "inputs": [],
      "name": "sync",
      "outputs": [],
      "payable": false,
      "stateMutability": "nonpayable",
      "type": "function"
    },
    {
      "constant": true,
      "inputs": [],
      "name": "token0",
      "outputs": [
        {
          "internalType": "address",
          "name": "",
          "type": "address"
        }
      ],
      "payable": false,
      "stateMutability": "view",
      "type": "function"
    },
    {
      "constant": true,
      "inputs": [],
      "name": "token1",
      "outputs": [
        {
          "internalType": "address",
          "name": "",
          "type": "address"
        }
      ],
      "payable": false,
      "stateMutability": "view",
      "type": "function"
    },
    {
      "constant": true,
      "inputs": [],
      "name": "totalFee",
      "outputs": [
        {
          "internalType": "uint256",
          "name": "",
          "type": "uint256"
        }
      ],
      "payable": false,
      "stateMutability": "view",
      "type": "function"
    },
    {
      "constant": true,
      "inputs": [],
      "name": "totalSupply",
      "outputs": [
        {
          "internalType": "uint256",
          "name": "",
          "type": "uint256"
        }
      ],
      "payable": false,
      "stateMutability": "view",
      "type": "function"
    },
    {
      "constant": false,
      "inputs": [
        {
          "internalType": "address",
          "name": "to",
          "type": "address"
        },
        {
          "internalType": "uint256",
          "name": "value",
          "type": "uint256"
        }
      ],
      "name": "transfer",
      "outputs": [
        {
          "internalType": "bool",
          "name": "",
          "type": "bool"
        }
      ],
      "payable": false,
      "stateMutability": "nonpayable",
      "type": "function"
    },
    {
      "constant": false,
      "inputs": [
        {
          "internalType": "address",
          "name": "from",
          "type": "address"
        },
        {
          "internalType": "address",
          "name": "to",
          "type": "address"
        },
        {
          "internalType": "uint256",
          "name": "value",
          "type": "uint256"
        }
      ],
      "name": "transferFrom",
      "outputs": [
        {
          "internalType": "bool",
          "name": "",
          "type": "bool"
        }
      ],
      "payable": false,
      "stateMutability": "nonpayable",
      "type": "function"
    },
    {
      "constant": false,
      "inputs": [
        {
          "internalType": "uint256",
          "name": "_feeRate",
          "type": "uint256"
        }
      ],
      "name": "updateFeeRate",
      "outputs": [],
      "payable": false,
      "stateMutability": "nonpayable",
      "type": "function"
    },
    {
      "constant": false,
      "inputs": [
        {
          "internalType": "uint256",
          "name": "_feeRate",
          "type": "uint256"
        }
      ],
      "name": "updateLPFeeRate",
      "outputs": [],
      "payable": false,
      "stateMutability": "nonpayable",
      "type": "function"
    },
    {
      "constant": false,
      "inputs": [
        {
          "internalType": "address",
          "name": "to",
          "type": "address"
        }
      ],
      "name": "withdrawEBEReward",
      "outputs": [
        {
          "internalType": "uint256",
          "name": "",
          "type": "uint256"
        }
      ],
      "payable": false,
      "stateMutability": "nonpayable",
      "type": "function"
    }
  ],
  "bytecode": "0x6080604052601e600655600160195534801561001a57600080fd5b506040514690806052613ca2823960408051918290036052018220828201825260088352672628102a37b5b2b760c11b6020938401528151808301835260018152603160f81b908401528151808401919091527fc285f7cfebd35a59cb5c0c032add67fdc80dcde2f8127cb94e4b49a72469ed02818301527fc89efdaa54c0f20c7adf612882df0950f5a951637e0307cdcb4c672f298b8bc6606082015260808101949094523060a0808601919091528151808603909101815260c090940190528251920191909120600d5550600080546001600160a01b03191633179055613b9a806101086000396000f3fe608060405234801561001057600080fd5b50600436106102a05760003560e01c8063806b984f11610167578063d250185c116100ce578063f4a70bd211610087578063f4a70bd2146107fd578063f5b9848d14610805578063f8c8765e1461080d578063fafa8f291461084b578063fcee45f414610871578063fff6cae91461088e576102a0565b8063d250185c14610743578063d505accf14610766578063d939fa8a146107b7578063da3c300d146107bf578063dd62ed3e146107c7578063e5b2aab0146107f5576102a0565b8063ad9b802411610120578063ad9b8024146106d1578063ba9a7a56146106fd578063bc25cf7714610705578063bc9c5c6a1461072b578063c45a015514610733578063d21220a71461073b576102a0565b8063806b984f1461064657806389afcb441461064e578063948023ab1461068d57806395d89b4114610695578063978bbdb91461069d578063a9059cbb146106a5576102a0565b80633644e5151161020b5780636a627842116101c45780636a627842146105a757806370a08231146105cd5780637464fc3d146105f35780637b84fda5146105fb5780637d5106e2146106185780637ecebe0014610620576102a0565b80633644e51514610546578063443cb4bc1461054e578063496cf3e4146105725780635909c0d51461058f5780635a3d5493146105975780635a76f25e1461059f576102a0565b80631183f8721161025d5780631183f8721461048457806318160ddd146104c85780631df4ccfc146104e257806323b872dd146104ea57806330adf81f14610520578063313ce56714610528576102a0565b8063022c0d9f146102a55780630442a8651461033357806306fdde031461036b5780630902f1ac146103e8578063095ea7b3146104205780630dfe168114610460575b600080fd5b610331600480360360808110156102bb57600080fd5b8135916020810135916001600160a01b0360408301351691908101906080810160608201356401000000008111156102f257600080fd5b82018360208201111561030457600080fd5b8035906020019184600183028401116401000000008311171561032657600080fd5b509092509050610896565b005b6103316004803603608081101561034957600080fd5b508035906020810135906001600160a01b036040820135169060600135610dde565b6103736112ff565b6040805160208082528351818301528351919283929083019185019080838360005b838110156103ad578181015183820152602001610395565b50505050905090810190601f1680156103da5780820380516001836020036101000a031916815260200191505b509250505060405180910390f35b6103f0611323565b604080516001600160701b03948516815292909316602083015263ffffffff168183015290519081900360600190f35b61044c6004803603604081101561043657600080fd5b506001600160a01b03813516906020013561134a565b604080519115158252519081900360200190f35b610468611361565b604080516001600160a01b039092168252519081900360200190f35b6104aa6004803603602081101561049a57600080fd5b50356001600160a01b0316611370565b60408051938452602084019290925282820152519081900360600190f35b6104d0611391565b60408051918252519081900360200190f35b6104d0611397565b61044c6004803603606081101561050057600080fd5b506001600160a01b0381358116916020810135909116906040013561139d565b6104d0611437565b61053061145b565b6040805160ff9092168252519081900360200190f35b6104d0611460565b610556611466565b604080516001600160701b039092168252519081900360200190f35b6103316004803603602081101561058857600080fd5b5035611475565b6104d06114d1565b6104d06114d7565b6105566114dd565b6104d0600480360360208110156105bd57600080fd5b50356001600160a01b03166114f3565b6104d0600480360360208110156105e357600080fd5b50356001600160a01b03166117f5565b6104d0611807565b6103316004803603602081101561061157600080fd5b503561180d565b6104d06118b2565b6104d06004803603602081101561063657600080fd5b50356001600160a01b03166118b8565b6104d06118ca565b6106746004803603602081101561066457600080fd5b50356001600160a01b03166118d0565b6040805192835260208301919091528051918290030190f35b610468611c92565b610373611ca1565b6104d0611cc0565b61044c600480360360408110156106bb57600080fd5b506001600160a01b038135169060200135611cc6565b6104d0600480360360408110156106e757600080fd5b506001600160a01b038135169060200135611cd3565b6104d0611dbd565b6103316004803603602081101561071b57600080fd5b50356001600160a01b0316611dc3565b6104d0611f32565b610468611f38565b610468611f47565b6104d06004803603604081101561075957600080fd5b5080359060200135611f56565b610331600480360360e081101561077c57600080fd5b506001600160a01b03813581169160208101359091169060408101359060608101359060ff6080820135169060a08101359060c00135611fbd565b6104686121ba565b6104d06121c9565b6104d0600480360360408110156107dd57600080fd5b506001600160a01b03813581169160200135166121cf565b6104d06121ec565b6104d06121f2565b6104d06121f8565b6103316004803603608081101561082357600080fd5b506001600160a01b0381358116916020810135821691604082013581169160600135166121fe565b6104d06004803603602081101561086157600080fd5b50356001600160a01b031661230d565b6104d06004803603602081101561088757600080fd5b5035612343565b610331612360565b6019546001146108e2576040805162461bcd60e51b8152602060048201526012602482015271111950985b9ad4ddd85c0e881313d0d2d15160721b604482015290519081900360640190fd5b6000601955841515806108f55750600084115b6109305760405162461bcd60e51b8152600401808060200182810382526026815260200180613a256026913960400191505060405180910390fd5b60008061093b611323565b5091509150816001600160701b0316871080156109605750806001600160701b031686105b61099b5760405162461bcd60e51b8152600401808060200182810382526022815260200180613a4b6022913960400191505060405180910390fd5b60035460045460009182916001600160a01b039182169190811690891682148015906109d95750806001600160a01b0316896001600160a01b031614155b610a23576040805162461bcd60e51b8152602060048201526016602482015275446542616e6b537761703a20494e56414c49445f544f60501b604482015290519081900360640190fd5b8a15610a3457610a34828a8d6124c3565b8915610a4557610a45818a8c6124c3565b8615610b0057886001600160a01b031663226dc882338d8d8c8c6040518663ffffffff1660e01b815260040180866001600160a01b03166001600160a01b03168152602001858152602001848152602001806020018281038252848482818152602001925080828437600081840152601f19601f8201169050808301925050509650505050505050600060405180830381600087803b158015610ae757600080fd5b505af1158015610afb573d6000803e3d6000fd5b505050505b604080516370a0823160e01b815230600482015290516001600160a01b038416916370a08231916024808301926020929190829003018186803b158015610b4657600080fd5b505afa158015610b5a573d6000803e3d6000fd5b505050506040513d6020811015610b7057600080fd5b5051604080516370a0823160e01b815230600482015290519195506001600160a01b038316916370a0823191602480820192602092909190829003018186803b158015610bbc57600080fd5b505afa158015610bd0573d6000803e3d6000fd5b505050506040513d6020811015610be657600080fd5b5051925060009150506001600160701b0385168a90038311610c09576000610c18565b89856001600160701b03160383035b9050600089856001600160701b0316038311610c35576000610c44565b89856001600160701b03160383035b90506000821180610c555750600081115b610c905760405162461bcd60e51b8152600401808060200182810382526025815260200180613a006025913960400191505060405180910390fd5b6000610cc8610caa6006548561265590919063ffffffff16565b610cbc8761271063ffffffff61265516565b9063ffffffff6126ae16565b90506000610ce4610caa6006548561265590919063ffffffff16565b9050610d166305f5e100610d0a6001600160701b038b8116908b1663ffffffff61265516565b9063ffffffff61265516565b610d26838363ffffffff61265516565b1015610d6a576040805162461bcd60e51b815260206004820152600e60248201526d446542616e6b537761703a204b3160901b604482015290519081900360640190fd5b5050610d78848488886126f0565b60408051838152602081018390528082018d9052606081018c905290516001600160a01b038b169133917fd78ad95fa46c994b6551d0da85fc275fe613ce37657fb8d5e3d130840159d8229181900360800190a350506001601955505050505050505050565b601954600114610e2a576040805162461bcd60e51b8152602060048201526012602482015271111950985b9ad4ddd85c0e881313d0d2d15160721b604482015290519081900360640190fd5b6000601981905554604080516303e21fa960e61b815290516001600160a01b039092169163f887ea4091600480820192602092909190829003018186803b158015610e7457600080fd5b505afa158015610e88573d6000803e3d6000fd5b505050506040513d6020811015610e9e57600080fd5b50516001600160a01b03163314610efc576040805162461bcd60e51b815260206004820152601760248201527f446542616e6b537761703a20726f75746572206f6e6c79000000000000000000604482015290519081900360640190fd5b610f206040518060600160405280602d8152602001613ac7602d91398585846128ad565b8015610f2f57610f2f81612971565b6000841180610f3e5750600083115b610f795760405162461bcd60e51b8152600401808060200182810382526026815260200180613a256026913960400191505060405180910390fd5b600080610f84611323565b5091509150816001600160701b031686108015610fa95750806001600160701b031685105b610fe45760405162461bcd60e51b8152600401808060200182810382526022815260200180613a4b6022913960400191505060405180910390fd5b60035460045460009182916001600160a01b039182169190811690881682148015906110225750806001600160a01b0316886001600160a01b031614155b61106c576040805162461bcd60e51b8152602060048201526016602482015275446542616e6b537761703a20494e56414c49445f544f60501b604482015290519081900360640190fd5b891561107d5761107d82898c6124c3565b881561108e5761108e81898b6124c3565b604080516370a0823160e01b815230600482015290516001600160a01b038416916370a08231916024808301926020929190829003018186803b1580156110d457600080fd5b505afa1580156110e8573d6000803e3d6000fd5b505050506040513d60208110156110fe57600080fd5b5051604080516370a0823160e01b815230600482015290519195506001600160a01b038316916370a0823191602480820192602092909190829003018186803b15801561114a57600080fd5b505afa15801561115e573d6000803e3d6000fd5b505050506040513d602081101561117457600080fd5b5051925060009150506001600160701b03851689900383116111975760006111a6565b88856001600160701b03160383035b9050600088856001600160701b03160383116111c35760006111d2565b88856001600160701b03160383035b905060008211806111e35750600081115b61121e5760405162461bcd60e51b8152600401808060200182810382526025815260200180613a006025913960400191505060405180910390fd5b61123a6001600160701b0387811690871663ffffffff61265516565b61124a858563ffffffff61265516565b101561128e576040805162461bcd60e51b815260206004820152600e60248201526d2232a130b735a9bbb0b81d10259960911b604482015290519081900360640190fd5b61129a848488886126f0565b60408051838152602081018390528082018c9052606081018b905290516001600160a01b038a169133917fd78ad95fa46c994b6551d0da85fc275fe613ce37657fb8d5e3d130840159d8229181900360800190a3505060016019555050505050505050565b604051806040016040528060088152602001672628102a37b5b2b760c11b81525081565b6005546007546001600160701b0380831693600160701b909304169163ffffffff90911690565b60006113573384846129ad565b5060015b92915050565b6001546001600160a01b031681565b60116020526000908152604090208054600182015460029092015490919083565b600c5481565b60175481565b6001600160a01b038316600090815260106020908152604080832033845290915281205460001914611422576001600160a01b03841660009081526010602090815260408083203384529091529020546113fd908363ffffffff6126ae16565b6001600160a01b03851660009081526010602090815260408083203384529091529020555b61142d848484612a0f565b5060019392505050565b7f6e71edae12b1b97f4d1f60370fef10105fa2faae0126114a169c64845d6126c981565b601281565b600d5481565b6005546001600160701b031681565b6000546001600160a01b031633146114cc576040805162461bcd60e51b81526020600482015260156024820152742232a130b735a9bbb0b81d102327a92124a22222a760591b604482015290519081900360640190fd5b600855565b60095481565b600a5481565b600554600160701b90046001600160701b031681565b6000601954600114611541576040805162461bcd60e51b8152602060048201526012602482015271111950985b9ad4ddd85c0e881313d0d2d15160721b604482015290519081900360640190fd5b6000601981905580611551611323565b50600354604080516370a0823160e01b815230600482015290519395509193506000926001600160a01b03909116916370a08231916024808301926020929190829003018186803b1580156115a557600080fd5b505afa1580156115b9573d6000803e3d6000fd5b505050506040513d60208110156115cf57600080fd5b505160048054604080516370a0823160e01b81523093810193909352519293506000926001600160a01b03909116916370a08231916024808301926020929190829003018186803b15801561162357600080fd5b505afa158015611637573d6000803e3d6000fd5b505050506040513d602081101561164d57600080fd5b50519050600061166c836001600160701b03871663ffffffff6126ae16565b90506000611689836001600160701b03871663ffffffff6126ae16565b905060006116978787612b1e565b600c54909150806116d4576116c06103e8610cbc6116bb878763ffffffff61265516565b612c73565b98506116cf60006103e8612cc4565b611723565b6117206001600160701b0389166116f1868463ffffffff61265516565b816116f857fe5b046001600160701b038916611713868563ffffffff61265516565b8161171a57fe5b04612d82565b98505b600089116117625760405162461bcd60e51b8152600401808060200182810382526029815260200180613a9e6029913960400191505060405180910390fd5b61176c8a8a612cc4565b61177886868a8a6126f0565b81156117a8576005546117a4906001600160701b0380821691600160701b90041663ffffffff61265516565b600b555b6040805185815260208101859052815133927f4c209b5fc8ad50758f13e2e1088ba56a560dff690a1c6fef26394f4c03821c4f928290030190a25050600160195550949695505050505050565b600f6020526000908152604090205481565b600b5481565b6000546001600160a01b03163314611864576040805162461bcd60e51b81526020600482015260156024820152742232a130b735a9bbb0b81d102327a92124a22222a760591b604482015290519081900360640190fd5b60c88111156118ad576040805162461bcd60e51b815260206004820152601060248201526f0cccacaa4c2e8ca40e8dede40d0d2ced60831b604482015290519081900360640190fd5b600655565b60155481565b600e6020526000908152604090205481565b60185481565b60008060195460011461191f576040805162461bcd60e51b8152602060048201526012602482015271111950985b9ad4ddd85c0e881313d0d2d15160721b604482015290519081900360640190fd5b600060198190558061192f611323565b5060035460048054604080516370a0823160e01b81523093810193909352519496509294506001600160a01b0391821693919092169160009184916370a08231916024808301926020929190829003018186803b15801561198f57600080fd5b505afa1580156119a3573d6000803e3d6000fd5b505050506040513d60208110156119b957600080fd5b5051604080516370a0823160e01b815230600482015290519192506000916001600160a01b038516916370a08231916024808301926020929190829003018186803b158015611a0757600080fd5b505afa158015611a1b573d6000803e3d6000fd5b505050506040513d6020811015611a3157600080fd5b5051306000908152600f6020526040812054919250611a508888612b1e565b600c5490915080611a67848763ffffffff61265516565b81611a6e57fe5b049a5080611a82848663ffffffff61265516565b81611a8957fe5b04995060008b118015611a9c575060008a115b611ad75760405162461bcd60e51b8152600401808060200182810382526029815260200180613af46029913960400191505060405180910390fd5b611adf612d99565b611aed8c8460006001612e75565b50611af830846131a0565b611b03878d8d6124c3565b611b0e868d8c6124c3565b604080516370a0823160e01b815230600482015290516001600160a01b038916916370a08231916024808301926020929190829003018186803b158015611b5457600080fd5b505afa158015611b68573d6000803e3d6000fd5b505050506040513d6020811015611b7e57600080fd5b5051604080516370a0823160e01b815230600482015290519196506001600160a01b038816916370a0823191602480820192602092909190829003018186803b158015611bca57600080fd5b505afa158015611bde573d6000803e3d6000fd5b505050506040513d6020811015611bf457600080fd5b50519350611c0485858b8b6126f0565b8115611c3457600554611c30906001600160701b0380821691600160701b90041663ffffffff61265516565b600b555b604080518c8152602081018c905281516001600160a01b038f169233927fdccd412f0b1252819cb1fd330b93224ca42612892bb3f4f789976e6d81936496929081900390910190a35050505050505050506001601981905550915091565b6003546001600160a01b031681565b60405180604001604052806003815260200162088caf60eb1b81525081565b60065481565b6000611357338484612a0f565b6003546000906001600160a01b03848116911614801590611d0257506004546001600160a01b03848116911614155b80611d1657506005546001600160701b0316155b80611d315750600554600160701b90046001600160701b0316155b15611d3e5750600061135b565b6003546001600160a01b0384811691161415611d9357600554611d8c906001600160701b0380821691611d8091600160701b909104168563ffffffff61265516565b9063ffffffff61323d16565b905061135b565b600554611d8c906001600160701b03600160701b8204811691611d8091168563ffffffff61265516565b6103e881565b601954600114611e0f576040805162461bcd60e51b8152602060048201526012602482015271111950985b9ad4ddd85c0e881313d0d2d15160721b604482015290519081900360640190fd5b600060195560035460048054600554604080516370a0823160e01b81523094810194909452516001600160a01b039485169490921692611ec19285928792611ebc926001600160701b039092169185916370a08231916024808301926020929190829003018186803b158015611e8457600080fd5b505afa158015611e98573d6000803e3d6000fd5b505050506040513d6020811015611eae57600080fd5b50519063ffffffff6126ae16565b6124c3565b600554604080516370a0823160e01b81523060048201529051611f289284928792611ebc92600160701b90046001600160701b0316916001600160a01b038616916370a0823191602480820192602092909190829003018186803b158015611e8457600080fd5b5050600160195550565b60125481565b6000546001600160a01b031681565b6002546001600160a01b031681565b60006103e88210611fa0576040805162461bcd60e51b815260206004820152600f60248201526e696e76616c6964206665655261746560881b604482015290519081900360640190fd5b611fb6612710611d80858563ffffffff61265516565b9392505050565b42841015612002576040805162461bcd60e51b815260206004820152600d60248201526c14ddd85c0e8811561412549151609a1b604482015290519081900360640190fd5b600d546001600160a01b038089166000818152600e602090815260408083208054600180820190925582517f6e71edae12b1b97f4d1f60370fef10105fa2faae0126114a169c64845d6126c98186015280840196909652958d166060860152608085018c905260a085019590955260c08085018b90528151808603909101815260e08501825280519083012061190160f01b6101008601526101028501969096526101228085019690965280518085039096018652610142840180825286519683019690962095839052610162840180825286905260ff89166101828501526101a284018890526101c28401879052519193926101e280820193601f1981019281900390910190855afa15801561211d573d6000803e3d6000fd5b5050604051601f1901519150506001600160a01b038116158015906121535750886001600160a01b0316816001600160a01b0316145b6121a4576040805162461bcd60e51b815260206004820152601760248201527f537761703a20494e56414c49445f5349474e4154555245000000000000000000604482015290519081900360640190fd5b6121af8989896129ad565b505050505050505050565b6004546001600160a01b031681565b60165481565b601060209081526000928352604080842090915290825290205481565b60135481565b60145481565b60085481565b6000546001600160a01b03163314612255576040805162461bcd60e51b81526020600482015260156024820152742232a130b735a9bbb0b81d102327a92124a22222a760591b604482015290519081900360640190fd5b600180546001600160a01b03199081166001600160a01b0387811691909117909255600280548216868416179055600380548216858416179055600480549091168383161781556000546040805163f5b9848d60e01b81529051919093169263f5b9848d9281810192602092909190829003018186803b1580156122d857600080fd5b505afa1580156122ec573d6000803e3d6000fd5b505050506040513d602081101561230257600080fd5b505160085550505050565b60006123188261327f565b156123255750600061233e565b61232d612d99565b61233b826000600180612e75565b90505b919050565b600061233b612710611d806006548561265590919063ffffffff16565b6019546001146123ac576040805162461bcd60e51b8152602060048201526012602482015271111950985b9ad4ddd85c0e881313d0d2d15160721b604482015290519081900360640190fd5b6000601955600154604080516370a0823160e01b815230600482015290516124bc926001600160a01b0316916370a08231916024808301926020929190829003018186803b1580156123fd57600080fd5b505afa158015612411573d6000803e3d6000fd5b505050506040513d602081101561242757600080fd5b5051600254604080516370a0823160e01b815230600482015290516001600160a01b03909216916370a0823191602480820192602092909190829003018186803b15801561247457600080fd5b505afa158015612488573d6000803e3d6000fd5b505050506040513d602081101561249e57600080fd5b50516005546001600160701b0380821691600160701b9004166126f0565b6001601955565b604080518082018252601981527f7472616e7366657228616464726573732c75696e74323536290000000000000060209182015281516001600160a01b0385811660248301526044808301869052845180840390910181526064909201845291810180516001600160e01b031663a9059cbb60e01b1781529251815160009460609489169392918291908083835b602083106125705780518252601f199092019160209182019101612551565b6001836020036101000a0380198251168184511680821785525050505050509050019150506000604051808303816000865af19150503d80600081146125d2576040519150601f19603f3d011682016040523d82523d6000602084013e6125d7565b606091505b5091509150818015612605575080511580612605575080806020019051602081101561260257600080fd5b50515b61264e576040805162461bcd60e51b815260206004820152601560248201527414ddd85c0e881514905394d1915497d19052531151605a1b604482015290519081900360640190fd5b5050505050565b6000826126645750600061135b565b8282028284828161267157fe5b0414611fb65760405162461bcd60e51b8152600401808060200182810382526021815260200180613b456021913960400191505060405180910390fd5b6000611fb683836040518060400160405280601e81526020017f536166654d6174683a207375627472616374696f6e206f766572666c6f7700008152506132ff565b6001600160701b03841180159061270e57506001600160701b038311155b612756576040805162461bcd60e51b8152602060048201526014602482015273446542616e6b537761703a204f564552464c4f5760601b604482015290519081900360640190fd5b60075463ffffffff42811691811682039081161580159061277f57506001600160701b03841615155b801561279357506001600160701b03831615155b15612804578063ffffffff166127c1856127ac86613396565b6001600160e01b03169063ffffffff6133a816565b600980546001600160e01b03929092169290920201905563ffffffff81166127ec846127ac87613396565b600a80546001600160e01b0392909216929092020190555b600580546dffffffffffffffffffffffffffff19166001600160701b03888116919091176dffffffffffffffffffffffffffff60701b1916600160701b888316810291909117928390556007805463ffffffff191663ffffffff871617905560408051848416815291909304909116602082015281517f1c411e9a96e071241c2f21f7726b17ae89e3cab4c78be50e062b03a9fffbbad1929181900390910190a1505050505050565b61296b848484846040516024018080602001858152602001848152602001838152602001828103825286818151815260200191508051906020019080838360005b838110156129065781810151838201526020016128ee565b50505050905090810190601f1680156129335780820380516001836020036101000a031916815260200191505b5060408051601f198184030181529190526020810180516001600160e01b03166304772b3360e11b17905295506133cd945050505050565b50505050565b60178054820190556016805482019055604080516060810190915260318082526129aa9190613a6d6020830139826017546016546128ad565b50565b6001600160a01b03808416600081815260106020908152604080832094871680845294825291829020859055815185815291517f8c5be1e5ebec7d5bd14f71427d1e84f3dd0314c0f7b2291e5b200ac8c7c3b9259281900390910190a3505050565b6001600160a01b0383166000908152600f6020526040902054612a38908263ffffffff6126ae16565b6001600160a01b038085166000908152600f60205260408082209390935590841681522054612a6d908263ffffffff6133ee16565b6001600160a01b0383166000908152600f6020526040902055612a8f8361327f565b158015612aa25750612aa08261327f565b155b15612ace57612aaf612d99565b612abd838260006001612e75565b50612acc828260016000612e75565b505b816001600160a01b0316836001600160a01b03167fddf252ad1be2c89b69c2b068fc378daa952ba7f163c4a11628f55a4df523b3ef836040518082815260200191505060405180910390a3505050565b6000805460408051622fcfcb60e31b8152905183926001600160a01b03169163017e7e58916004808301926020929190829003018186803b158015612b6257600080fd5b505afa158015612b76573d6000803e3d6000fd5b505050506040513d6020811015612b8c57600080fd5b5051600b546001600160a01b038216158015945091925090612c5f578015612c5a576000612bcf6116bb6001600160701b0388811690881663ffffffff61265516565b90506000612bdc83612c73565b905080821115612c57576000612c0a612bfb848463ffffffff6126ae16565b600c549063ffffffff61265516565b90506000612c3383612c276008548761265590919063ffffffff16565b9063ffffffff6133ee16565b90506000818381612c4057fe5b0490508015612c5357612c538782612cc4565b5050505b50505b612c6b565b8015612c6b576000600b555b505092915050565b60006003821115612cb6575080600160028204015b81811015612cb057809150600281828581612c9f57fe5b040181612ca857fe5b049050612c88565b5061233e565b811561233e57506001919050565b6001600160a01b03821615612ceb57612cdb612d99565b612ce9828260016000612e75565b505b600c54612cfe908263ffffffff6133ee16565b600c556001600160a01b0382166000908152600f6020526040902054612d2a908263ffffffff6133ee16565b6001600160a01b0383166000818152600f602090815260408083209490945583518581529351929391927fddf252ad1be2c89b69c2b068fc378daa952ba7f163c4a11628f55a4df523b3ef9281900390910190a35050565b600081831115612d925781611fb6565b5090919050565b436018541415612da857612e73565b612de96040518060400160405280601b81526020017f73746172742075706461746520706169722073686172653a2025640000000000815250601654613448565b436018556000612df76134fa565b90506000612e0361366b565b905060008183019050612e2f604051806060016040528060288152602001613b1d6028913984846138e4565b600081118015612e4157506000600c54115b15612e6f57600c54612e6590611d8083670de0b6b3a764000063ffffffff61265516565b6012805490910190555b5050505b565b6001600160a01b0384166000908152601160205260408120805460125481612f0557600186151514612ede576040805162461bcd60e51b815260206004820152600d60248201526c6e6f20616d7420746f2064656360981b604482015290519081900360640190fd5b868355612ef1878263ffffffff61265516565b836002018190555060009350505050613198565b8615612f78576002830154612f2490610cbc848463ffffffff61265516565b60018401805490910190558515612f4c57612f45828863ffffffff6133ee16565b9150612f5f565b612f5c828863ffffffff6126ae16565b91505b818355612f72828263ffffffff61265516565b60028401555b84156131945760008060009054906101000a90046001600160a01b03166001600160a01b031663f887ea406040518163ffffffff1660e01b815260040160206040518083038186803b158015612fcd57600080fd5b505afa158015612fe1573d6000803e3d6000fd5b505050506040513d6020811015612ff757600080fd5b50516040805163f7c618c160e01b815290516001600160a01b039092169163f7c618c191600480820192602092909190829003018186803b15801561303b57600080fd5b505afa15801561304f573d6000803e3d6000fd5b505050506040513d602081101561306557600080fd5b505190506001600160a01b0381166130ba576040805162461bcd60e51b81526020600482015260136024820152721c995dd85c99151bdad95b881b9bdd081cd95d606a1b604482015290519081900360640190fd5b6130f5670de0b6b3a7640000611d806130e48760020154610cbc878961265590919063ffffffff16565b60018801549063ffffffff6133ee16565b9450613107838363ffffffff61265516565b60028501556040805163a9059cbb60e01b81526001600160a01b038b811660048301526024820188905291519183169163a9059cbb916044808201926020929091908290030181600087803b15801561315f57600080fd5b505af1158015613173573d6000803e3d6000fd5b505050506040513d602081101561318957600080fd5b505060006001850155505b5050505b949350505050565b6001600160a01b0382166000908152600f60205260409020546131c9908263ffffffff6126ae16565b6001600160a01b0383166000908152600f6020526040902055600c546131f5908263ffffffff6126ae16565b600c556040805182815290516000916001600160a01b038516917fddf252ad1be2c89b69c2b068fc378daa952ba7f163c4a11628f55a4df523b3ef9181900360200190a35050565b6000611fb683836040518060400160405280601a81526020017f536166654d6174683a206469766973696f6e206279207a65726f00000000000081525061399a565b600080546040805163658eb13760e01b81526001600160a01b0385811660048301529151919092169163658eb137916024808301926020929190829003018186803b1580156132cd57600080fd5b505afa1580156132e1573d6000803e3d6000fd5b505050506040513d60208110156132f757600080fd5b505192915050565b6000818484111561338e5760405162461bcd60e51b81526004018080602001828103825283818151815260200191508051906020019080838360005b8381101561335357818101518382015260200161333b565b50505050905090810190601f1680156133805780820380516001836020036101000a031916815260200191505b509250505060405180910390fd5b505050900390565b6001600160701b0316600160701b0290565b60006001600160701b0382166001600160e01b038416816133c557fe5b049392505050565b80516a636f6e736f6c652e6c6f67602083016000808483855afa5050505050565b600082820183811015611fb6576040805162461bcd60e51b815260206004820152601b60248201527f536166654d6174683a206164646974696f6e206f766572666c6f770000000000604482015290519081900360640190fd5b6134f682826040516024018080602001838152602001828103825284818151815260200191508051906020019080838360005b8381101561349357818101518382015260200161347b565b50505050905090810190601f1680156134c05780820380516001836020036101000a031916815260200191505b5060408051601f198184030181529190526020810180516001600160e01b03166309710a9d60e41b17905293506133cd92505050565b5050565b60006016546000141561350f57506000613668565b60008060009054906101000a90046001600160a01b03166001600160a01b031663f887ea406040518163ffffffff1660e01b815260040160206040518083038186803b15801561355e57600080fd5b505afa158015613572573d6000803e3d6000fd5b505050506040513d602081101561358857600080fd5b505160015460025460165460408051631f293e8760e11b81526001600160a01b039485166004820152928416602484015260448301919091525192935090831691633e527d0e916064808201926020929091908290030181600087803b1580156135f157600080fd5b505af1158015613605573d6000803e3d6000fd5b505050506040513d602081101561361b57600080fd5b505160408051808201909152601e81527f5f6d696e74506169724542453a206665653d2564207265776172643d25640000602082015260165491935061366191846138e4565b5060006016555b90565b60008054604080516303e21fa960e61b8152905183926001600160a01b03169163f887ea40916004808301926020929190829003018186803b1580156136b057600080fd5b505afa1580156136c4573d6000803e3d6000fd5b505050506040513d60208110156136da57600080fd5b50516040805163f7c618c160e01b815290516001600160a01b039092169163f7c618c191600480820192602092909190829003018186803b15801561371e57600080fd5b505afa158015613732573d6000803e3d6000fd5b505050506040513d602081101561374857600080fd5b505190506001600160a01b038116613764576000915050613668565b604080516370a0823160e01b815230600482015290516000916001600160a01b038416916370a0823191602480820192602092909190829003018186803b1580156137ae57600080fd5b505afa1580156137c2573d6000803e3d6000fd5b505050506040513d60208110156137d857600080fd5b5051600080546040805163197a156960e01b8152905193945091926001600160a01b039091169163197a1569916004808301926020929190829003018186803b15801561382457600080fd5b505afa158015613838573d6000803e3d6000fd5b505050506040513d602081101561384e57600080fd5b5051604080516002808252606080830184529394509091602083019080388339505060035482519293506001600160a01b03169183915060009061388e57fe5b6001600160a01b0392831660209182029290920101526004548251911690829060019081106138b957fe5b60200260200101906001600160a01b031690816001600160a01b031681525050600094505050505090565b612e6f8383836040516024018080602001848152602001838152602001828103825285818151815260200191508051906020019080838360005b8381101561393657818101518382015260200161391e565b50505050905090810190601f1680156139635780820380516001836020036101000a031916815260200191505b5060408051601f198184030181529190526020810180516001600160e01b031663969cdd0360e01b17905294506133cd9350505050565b600081836139e95760405162461bcd60e51b815260206004820181815283516024840152835190928392604490910191908501908083836000831561335357818101518382015260200161333b565b5060008385816139f557fe5b049594505050505056fe446542616e6b537761703a20494e53554646494349454e545f494e5055545f414d4f554e54446542616e6b537761703a20494e53554646494349454e545f4f55545055545f414d4f554e54446542616e6b537761703a20494e53554646494349454e545f4c49515549444954595f757064617465426c6f636b4665653a206665653d256420746f74616c4665653d25642063757272656e744665653d2564446542616e6b537761703a20494e53554646494349454e545f4c49515549444954595f4d494e544544737761704e6f4665653a20616d6f756e74304f75743d256420616d6f756e74314f75743d2564206665653d2564446542616e6b537761703a20494e53554646494349454e545f4c49515549444954595f4255524e45445f75706461746545424550657253686172653a20666565416d743d256420636f6d70416d743d2564536166654d6174683a206d756c7469706c69636174696f6e206f766572666c6f77a265627a7a72315820d7ed157de8ec9d0374472166c12498d92b8728e70be3f997a123425f41580b7964736f6c63430005100032454950373132446f6d61696e28737472696e67206e616d652c737472696e672076657273696f6e2c75696e7432353620636861696e49642c6164647265737320766572696679696e67436f6e747261637429",
  "linkReferences": {},
  "deployedLinkReferences": {}
}