{
  "_format": "hh-sol-artifact-1",
  "contractName": "DeBankPair",
  "sourceName": "contracts/swap/heco/Pair.sol",
  "abi": [
    {
      "inputs": [],
      "payable": false,
      "stateMutability": "nonpayable",
      "type": "constructor"
    },
    {
      "anonymous": false,
      "inputs": [
        {
          "indexed": true,
          "internalType": "address",
          "name": "owner",
          "type": "address"
        },
        {
          "indexed": true,
          "internalType": "address",
          "name": "spender",
          "type": "address"
        },
        {
          "indexed": false,
          "internalType": "uint256",
          "name": "value",
          "type": "uint256"
        }
      ],
      "name": "Approval",
      "type": "event"
    },
    {
      "anonymous": false,
      "inputs": [
        {
          "indexed": true,
          "internalType": "address",
          "name": "sender",
          "type": "address"
        },
        {
          "indexed": false,
          "internalType": "uint256",
          "name": "amount0",
          "type": "uint256"
        },
        {
          "indexed": false,
          "internalType": "uint256",
          "name": "amount1",
          "type": "uint256"
        },
        {
          "indexed": true,
          "internalType": "address",
          "name": "to",
          "type": "address"
        }
      ],
      "name": "Burn",
      "type": "event"
    },
    {
      "anonymous": false,
      "inputs": [
        {
          "indexed": true,
          "internalType": "address",
          "name": "sender",
          "type": "address"
        },
        {
          "indexed": false,
          "internalType": "uint256",
          "name": "amount0",
          "type": "uint256"
        },
        {
          "indexed": false,
          "internalType": "uint256",
          "name": "amount1",
          "type": "uint256"
        }
      ],
      "name": "Mint",
      "type": "event"
    },
    {
      "anonymous": false,
      "inputs": [
        {
          "indexed": true,
          "internalType": "address",
          "name": "sender",
          "type": "address"
        },
        {
          "indexed": false,
          "internalType": "uint256",
          "name": "amount0In",
          "type": "uint256"
        },
        {
          "indexed": false,
          "internalType": "uint256",
          "name": "amount1In",
          "type": "uint256"
        },
        {
          "indexed": false,
          "internalType": "uint256",
          "name": "amount0Out",
          "type": "uint256"
        },
        {
          "indexed": false,
          "internalType": "uint256",
          "name": "amount1Out",
          "type": "uint256"
        },
        {
          "indexed": true,
          "internalType": "address",
          "name": "to",
          "type": "address"
        }
      ],
      "name": "Swap",
      "type": "event"
    },
    {
      "anonymous": false,
      "inputs": [
        {
          "indexed": false,
          "internalType": "uint112",
          "name": "reserve0",
          "type": "uint112"
        },
        {
          "indexed": false,
          "internalType": "uint112",
          "name": "reserve1",
          "type": "uint112"
        }
      ],
      "name": "Sync",
      "type": "event"
    },
    {
      "anonymous": false,
      "inputs": [
        {
          "indexed": true,
          "internalType": "address",
          "name": "from",
          "type": "address"
        },
        {
          "indexed": true,
          "internalType": "address",
          "name": "to",
          "type": "address"
        },
        {
          "indexed": false,
          "internalType": "uint256",
          "name": "value",
          "type": "uint256"
        }
      ],
      "name": "Transfer",
      "type": "event"
    },
    {
      "constant": true,
      "inputs": [],
      "name": "DOMAIN_SEPARATOR",
      "outputs": [
        {
          "internalType": "bytes32",
          "name": "",
          "type": "bytes32"
        }
      ],
      "payable": false,
      "stateMutability": "view",
      "type": "function"
    },
    {
      "constant": true,
      "inputs": [],
      "name": "MINIMUM_LIQUIDITY",
      "outputs": [
        {
          "internalType": "uint256",
          "name": "",
          "type": "uint256"
        }
      ],
      "payable": false,
      "stateMutability": "view",
      "type": "function"
    },
    {
      "constant": true,
      "inputs": [],
      "name": "PERMIT_TYPEHASH",
      "outputs": [
        {
          "internalType": "bytes32",
          "name": "",
          "type": "bytes32"
        }
      ],
      "payable": false,
      "stateMutability": "view",
      "type": "function"
    },
    {
      "constant": true,
      "inputs": [],
      "name": "accPerShare",
      "outputs": [
        {
          "internalType": "uint256",
          "name": "",
          "type": "uint256"
        }
      ],
      "payable": false,
      "stateMutability": "view",
      "type": "function"
    },
    {
      "constant": true,
      "inputs": [
        {
          "internalType": "address",
          "name": "",
          "type": "address"
        },
        {
          "internalType": "address",
          "name": "",
          "type": "address"
        }
      ],
      "name": "allowance",
      "outputs": [
        {
          "internalType": "uint256",
          "name": "",
          "type": "uint256"
        }
      ],
      "payable": false,
      "stateMutability": "view",
      "type": "function"
    },
    {
      "constant": false,
      "inputs": [
        {
          "internalType": "address",
          "name": "spender",
          "type": "address"
        },
        {
          "internalType": "uint256",
          "name": "value",
          "type": "uint256"
        }
      ],
      "name": "approve",
      "outputs": [
        {
          "internalType": "bool",
          "name": "",
          "type": "bool"
        }
      ],
      "payable": false,
      "stateMutability": "nonpayable",
      "type": "function"
    },
    {
      "constant": true,
      "inputs": [
        {
          "internalType": "address",
          "name": "",
          "type": "address"
        }
      ],
      "name": "balanceOf",
      "outputs": [
        {
          "internalType": "uint256",
          "name": "",
          "type": "uint256"
        }
      ],
      "payable": false,
      "stateMutability": "view",
      "type": "function"
    },
    {
      "constant": true,
      "inputs": [],
      "name": "blockFee",
      "outputs": [
        {
          "internalType": "uint256",
          "name": "",
          "type": "uint256"
        }
      ],
      "payable": false,
      "stateMutability": "view",
      "type": "function"
    },
    {
      "constant": false,
      "inputs": [
        {
          "internalType": "address",
          "name": "to",
          "type": "address"
        }
      ],
      "name": "burn",
      "outputs": [
        {
          "internalType": "uint256",
          "name": "amount0",
          "type": "uint256"
        },
        {
          "internalType": "uint256",
          "name": "amount1",
          "type": "uint256"
        }
      ],
      "payable": false,
      "stateMutability": "nonpayable",
      "type": "function"
    },
    {
      "constant": true,
      "inputs": [],
      "name": "cToken0",
      "outputs": [
        {
          "internalType": "address",
          "name": "",
          "type": "address"
        }
      ],
      "payable": false,
      "stateMutability": "view",
      "type": "function"
    },
    {
      "constant": true,
      "inputs": [],
      "name": "cToken1",
      "outputs": [
        {
          "internalType": "address",
          "name": "",
          "type": "address"
        }
      ],
      "payable": false,
      "stateMutability": "view",
      "type": "function"
    },
    {
      "constant": true,
      "inputs": [
        {
          "internalType": "address",
          "name": "",
          "type": "address"
        }
      ],
      "name": "ctokenMintDebt",
      "outputs": [
        {
          "internalType": "uint256",
          "name": "",
          "type": "uint256"
        }
      ],
      "payable": false,
      "stateMutability": "view",
      "type": "function"
    },
    {
      "constant": true,
      "inputs": [],
      "name": "ctokenMintRewards",
      "outputs": [
        {
          "internalType": "uint256",
          "name": "",
          "type": "uint256"
        }
      ],
      "payable": false,
      "stateMutability": "view",
      "type": "function"
    },
    {
      "constant": true,
      "inputs": [],
      "name": "currentBlock",
      "outputs": [
        {
          "internalType": "uint256",
          "name": "",
          "type": "uint256"
        }
      ],
      "payable": false,
      "stateMutability": "view",
      "type": "function"
    },
    {
      "constant": true,
      "inputs": [],
      "name": "decimals",
      "outputs": [
        {
          "internalType": "uint8",
          "name": "",
          "type": "uint8"
        }
      ],
      "payable": false,
      "stateMutability": "view",
      "type": "function"
    },
    {
      "constant": true,
      "inputs": [],
      "name": "factory",
      "outputs": [
        {
          "internalType": "address",
          "name": "",
          "type": "address"
        }
      ],
      "payable": false,
      "stateMutability": "view",
      "type": "function"
    },
    {
      "constant": true,
      "inputs": [],
      "name": "feeRate",
      "outputs": [
        {
          "internalType": "uint256",
          "name": "",
          "type": "uint256"
        }
      ],
      "payable": false,
      "stateMutability": "view",
      "type": "function"
    },
    {
      "constant": true,
      "inputs": [
        {
          "internalType": "uint256",
          "name": "amt",
          "type": "uint256"
        }
      ],
      "name": "getFee",
      "outputs": [
        {
          "internalType": "uint256",
          "name": "",
          "type": "uint256"
        }
      ],
      "payable": false,
      "stateMutability": "view",
      "type": "function"
    },
    {
      "constant": true,
      "inputs": [],
      "name": "getReserves",
      "outputs": [
        {
          "internalType": "uint112",
          "name": "_reserve0",
          "type": "uint112"
        },
        {
          "internalType": "uint112",
          "name": "_reserve1",
          "type": "uint112"
        },
        {
          "internalType": "uint32",
          "name": "_blockTimestampLast",
          "type": "uint32"
        }
      ],
      "payable": false,
      "stateMutability": "view",
      "type": "function"
    },
    {
      "constant": false,
      "inputs": [
        {
          "internalType": "address",
          "name": "_token0",
          "type": "address"
        },
        {
          "internalType": "address",
          "name": "_token1",
          "type": "address"
        },
        {
          "internalType": "address",
          "name": "_ctoken0",
          "type": "address"
        },
        {
          "internalType": "address",
          "name": "_ctoken1",
          "type": "address"
        }
      ],
      "name": "initialize",
      "outputs": [],
      "payable": false,
      "stateMutability": "nonpayable",
      "type": "function"
    },
    {
      "constant": true,
      "inputs": [],
      "name": "isStable",
      "outputs": [
        {
          "internalType": "bool",
          "name": "",
          "type": "bool"
        }
      ],
      "payable": false,
      "stateMutability": "view",
      "type": "function"
    },
    {
      "constant": true,
      "inputs": [],
      "name": "kLast",
      "outputs": [
        {
          "internalType": "uint256",
          "name": "",
          "type": "uint256"
        }
      ],
      "payable": false,
      "stateMutability": "view",
      "type": "function"
    },
    {
      "constant": true,
      "inputs": [],
      "name": "lpFeeRate",
      "outputs": [
        {
          "internalType": "uint256",
          "name": "",
          "type": "uint256"
        }
      ],
      "payable": false,
      "stateMutability": "view",
      "type": "function"
    },
    {
      "constant": false,
      "inputs": [
        {
          "internalType": "address",
          "name": "to",
          "type": "address"
        }
      ],
      "name": "mint",
      "outputs": [
        {
          "internalType": "uint256",
          "name": "liquidity",
          "type": "uint256"
        }
      ],
      "payable": false,
      "stateMutability": "nonpayable",
      "type": "function"
    },
    {
      "constant": true,
      "inputs": [],
      "name": "mintAccPerShare",
      "outputs": [
        {
          "internalType": "uint256",
          "name": "",
          "type": "uint256"
        }
      ],
      "payable": false,
      "stateMutability": "view",
      "type": "function"
    },
    {
      "constant": true,
      "inputs": [],
      "name": "name",
      "outputs": [
        {
          "internalType": "string",
          "name": "",
          "type": "string"
        }
      ],
      "payable": false,
      "stateMutability": "view",
      "type": "function"
    },
    {
      "constant": true,
      "inputs": [
        {
          "internalType": "address",
          "name": "",
          "type": "address"
        }
      ],
      "name": "nonces",
      "outputs": [
        {
          "internalType": "uint256",
          "name": "",
          "type": "uint256"
        }
      ],
      "payable": false,
      "stateMutability": "view",
      "type": "function"
    },
    {
      "constant": true,
      "inputs": [
        {
          "internalType": "address",
          "name": "owner",
          "type": "address"
        }
      ],
      "name": "ownerAmountOf",
      "outputs": [
        {
          "internalType": "uint256",
          "name": "",
          "type": "uint256"
        }
      ],
      "payable": false,
      "stateMutability": "view",
      "type": "function"
    },
    {
      "constant": true,
      "inputs": [
        {
          "internalType": "address",
          "name": "",
          "type": "address"
        }
      ],
      "name": "ownerOf",
      "outputs": [
        {
          "internalType": "uint256",
          "name": "amount",
          "type": "uint256"
        },
        {
          "internalType": "uint256",
          "name": "pendingReward",
          "type": "uint256"
        },
        {
          "internalType": "uint256",
          "name": "rewardDebt",
          "type": "uint256"
        }
      ],
      "payable": false,
      "stateMutability": "view",
      "type": "function"
    },
    {
      "constant": false,
      "inputs": [
        {
          "internalType": "address",
          "name": "owner",
          "type": "address"
        },
        {
          "internalType": "address",
          "name": "spender",
          "type": "address"
        },
        {
          "internalType": "uint256",
          "name": "value",
          "type": "uint256"
        },
        {
          "internalType": "uint256",
          "name": "deadline",
          "type": "uint256"
        },
        {
          "internalType": "uint8",
          "name": "v",
          "type": "uint8"
        },
        {
          "internalType": "bytes32",
          "name": "r",
          "type": "bytes32"
        },
        {
          "internalType": "bytes32",
          "name": "s",
          "type": "bytes32"
        }
      ],
      "name": "permit",
      "outputs": [],
      "payable": false,
      "stateMutability": "nonpayable",
      "type": "function"
    },
    {
      "constant": true,
      "inputs": [
        {
          "internalType": "address",
          "name": "token",
          "type": "address"
        },
        {
          "internalType": "uint256",
          "name": "baseDecimal",
          "type": "uint256"
        }
      ],
      "name": "price",
      "outputs": [
        {
          "internalType": "uint256",
          "name": "",
          "type": "uint256"
        }
      ],
      "payable": false,
      "stateMutability": "view",
      "type": "function"
    },
    {
      "constant": true,
      "inputs": [],
      "name": "price0CumulativeLast",
      "outputs": [
        {
          "internalType": "uint256",
          "name": "",
          "type": "uint256"
        }
      ],
      "payable": false,
      "stateMutability": "view",
      "type": "function"
    },
    {
      "constant": true,
      "inputs": [],
      "name": "price1CumulativeLast",
      "outputs": [
        {
          "internalType": "uint256",
          "name": "",
          "type": "uint256"
        }
      ],
      "payable": false,
      "stateMutability": "view",
      "type": "function"
    },
    {
      "constant": true,
      "inputs": [],
      "name": "reserve0",
      "outputs": [
        {
          "internalType": "uint112",
          "name": "",
          "type": "uint112"
        }
      ],
      "payable": false,
      "stateMutability": "view",
      "type": "function"
    },
    {
      "constant": true,
      "inputs": [],
      "name": "reserve1",
      "outputs": [
        {
          "internalType": "uint112",
          "name": "",
          "type": "uint112"
        }
      ],
      "payable": false,
      "stateMutability": "view",
      "type": "function"
    },
    {
      "constant": true,
      "inputs": [],
      "name": "rewards",
      "outputs": [
        {
          "internalType": "uint256",
          "name": "",
          "type": "uint256"
        }
      ],
      "payable": false,
      "stateMutability": "view",
      "type": "function"
    },
    {
      "constant": false,
      "inputs": [
        {
          "internalType": "address",
          "name": "to",
          "type": "address"
        }
      ],
      "name": "skim",
      "outputs": [],
      "payable": false,
      "stateMutability": "nonpayable",
      "type": "function"
    },
    {
      "constant": false,
      "inputs": [
        {
          "internalType": "uint256",
          "name": "amount0Out",
          "type": "uint256"
        },
        {
          "internalType": "uint256",
          "name": "amount1Out",
          "type": "uint256"
        },
        {
          "internalType": "address",
          "name": "to",
          "type": "address"
        },
        {
          "internalType": "bytes",
          "name": "data",
          "type": "bytes"
        }
      ],
      "name": "swap",
      "outputs": [],
      "payable": false,
      "stateMutability": "nonpayable",
      "type": "function"
    },
    {
      "constant": false,
      "inputs": [
        {
          "internalType": "uint256",
          "name": "amount0Out",
          "type": "uint256"
        },
        {
          "internalType": "uint256",
          "name": "amount1Out",
          "type": "uint256"
        },
        {
          "internalType": "address",
          "name": "to",
          "type": "address"
        },
        {
          "internalType": "uint256",
          "name": "fee",
          "type": "uint256"
        }
      ],
      "name": "swapNoFee",
      "outputs": [],
      "payable": false,
      "stateMutability": "nonpayable",
      "type": "function"
    },
    {
      "constant": true,
      "inputs": [],
      "name": "symbol",
      "outputs": [
        {
          "internalType": "string",
          "name": "",
          "type": "string"
        }
      ],
      "payable": false,
      "stateMutability": "view",
      "type": "function"
    },
    {
      "constant": false,
      "inputs": [],
      "name": "sync",
      "outputs": [],
      "payable": false,
      "stateMutability": "nonpayable",
      "type": "function"
    },
    {
      "constant": true,
      "inputs": [],
      "name": "token0",
      "outputs": [
        {
          "internalType": "address",
          "name": "",
          "type": "address"
        }
      ],
      "payable": false,
      "stateMutability": "view",
      "type": "function"
    },
    {
      "constant": true,
      "inputs": [],
      "name": "token1",
      "outputs": [
        {
          "internalType": "address",
          "name": "",
          "type": "address"
        }
      ],
      "payable": false,
      "stateMutability": "view",
      "type": "function"
    },
    {
      "constant": true,
      "inputs": [],
      "name": "totalFee",
      "outputs": [
        {
          "internalType": "uint256",
          "name": "",
          "type": "uint256"
        }
      ],
      "payable": false,
      "stateMutability": "view",
      "type": "function"
    },
    {
      "constant": true,
      "inputs": [],
      "name": "totalSupply",
      "outputs": [
        {
          "internalType": "uint256",
          "name": "",
          "type": "uint256"
        }
      ],
      "payable": false,
      "stateMutability": "view",
      "type": "function"
    },
    {
      "constant": false,
      "inputs": [
        {
          "internalType": "address",
          "name": "to",
          "type": "address"
        },
        {
          "internalType": "uint256",
          "name": "value",
          "type": "uint256"
        }
      ],
      "name": "transfer",
      "outputs": [
        {
          "internalType": "bool",
          "name": "",
          "type": "bool"
        }
      ],
      "payable": false,
      "stateMutability": "nonpayable",
      "type": "function"
    },
    {
      "constant": false,
      "inputs": [
        {
          "internalType": "address",
          "name": "from",
          "type": "address"
        },
        {
          "internalType": "address",
          "name": "to",
          "type": "address"
        },
        {
          "internalType": "uint256",
          "name": "value",
          "type": "uint256"
        }
      ],
      "name": "transferFrom",
      "outputs": [
        {
          "internalType": "bool",
          "name": "",
          "type": "bool"
        }
      ],
      "payable": false,
      "stateMutability": "nonpayable",
      "type": "function"
    },
    {
      "constant": false,
      "inputs": [
        {
          "internalType": "uint256",
          "name": "_feeRate",
          "type": "uint256"
        }
      ],
      "name": "updateFeeRate",
      "outputs": [],
      "payable": false,
      "stateMutability": "nonpayable",
      "type": "function"
    },
    {
      "constant": false,
      "inputs": [
        {
          "internalType": "uint256",
          "name": "_feeRate",
          "type": "uint256"
        }
      ],
      "name": "updateLPFeeRate",
      "outputs": [],
      "payable": false,
      "stateMutability": "nonpayable",
      "type": "function"
    }
  ],
  "bytecode": "0x6080604052601e6006556001601a5534801561001a57600080fd5b5060405146908060526139c2823960408051918290036052018220828201825260088352672628102a37b5b2b760c11b6020938401528151808301835260018152603160f81b908401528151808401919091527fc285f7cfebd35a59cb5c0c032add67fdc80dcde2f8127cb94e4b49a72469ed02818301527fc89efdaa54c0f20c7adf612882df0950f5a951637e0307cdcb4c672f298b8bc6606082015260808101949094523060a0808601919091528151808603909101815260c090940190528251920191909120600d5550600080546001600160a01b031916331790556138ba806101086000396000f3fe608060405234801561001057600080fd5b50600436106102bb5760003560e01c80637b84fda511610182578063c45a0155116100e9578063dd62ed3e116100a2578063f5b9848d1161007c578063f5b9848d14610851578063f8c8765e14610859578063fcee45f414610897578063fff6cae9146108b4576102bb565b8063dd62ed3e14610813578063e12ed13c14610841578063e5b2aab014610849576102bb565b8063c45a01551461077c578063cbb8fb3114610784578063d21220a7146107aa578063d2890a01146107b2578063d505accf146107ba578063d939fa8a1461080b576102bb565b80639ec5a8941161013b5780639ec5a894146106e6578063a9059cbb146106ee578063ad9b80241461071a578063ba9a7a5614610746578063bc25cf771461074e578063bc9c5c6a14610774576102bb565b80637b84fda51461064c5780637ecebe001461066957806389afcb441461068f578063948023ab146106ce57806395d89b41146106d6578063978bbdb9146106de576102bb565b806330adf81f116102265780635a3d5493116101df5780635a3d5493146105c25780635a76f25e146105ca5780636a627842146105d25780636dbf2f7f146105f857806370a082311461061e5780637464fc3d14610644576102bb565b806330adf81f1461054b578063313ce567146105535780633644e51514610571578063443cb4bc14610579578063496cf3e41461059d5780635909c0d5146105ba576102bb565b80630dfe1681116102785780630dfe16811461048357806314afd79e146104a757806317560715146104eb57806318160ddd146105055780631df4ccfc1461050d57806323b872dd14610515576102bb565b8063022c0d9f146102c05780630442a8651461034e57806306fdde03146103865780630902f1ac1461040357806309047bdd1461043b578063095ea7b314610457575b600080fd5b61034c600480360360808110156102d657600080fd5b8135916020810135916001600160a01b03604083013516919081019060808101606082013564010000000081111561030d57600080fd5b82018360208201111561031f57600080fd5b8035906020019184600183028401116401000000008311171561034157600080fd5b5090925090506108bc565b005b61034c6004803603608081101561036457600080fd5b508035906020810135906001600160a01b036040820135169060600135610e94565b61038e61139c565b6040805160208082528351818301528351919283929083019185019080838360005b838110156103c85781810151838201526020016103b0565b50505050905090810190601f1680156103f55780820380516001836020036101000a031916815260200191505b509250505060405180910390f35b61040b6113c0565b604080516001600160701b03948516815292909316602083015263ffffffff168183015290519081900360600190f35b6104436113e7565b604080519115158252519081900360200190f35b6104436004803603604081101561046d57600080fd5b506001600160a01b0381351690602001356113f7565b61048b61140e565b604080516001600160a01b039092168252519081900360200190f35b6104cd600480360360208110156104bd57600080fd5b50356001600160a01b031661141d565b60408051938452602084019290925282820152519081900360600190f35b6104f361143e565b60408051918252519081900360200190f35b6104f3611444565b6104f361144a565b6104436004803603606081101561052b57600080fd5b506001600160a01b03813581169160208101359091169060400135611450565b6104f36114ea565b61055b61150e565b6040805160ff9092168252519081900360200190f35b6104f3611513565b610581611519565b604080516001600160701b039092168252519081900360200190f35b61034c600480360360208110156105b357600080fd5b5035611528565b6104f3611584565b6104f361158a565b610581611590565b6104f3600480360360208110156105e857600080fd5b50356001600160a01b03166115a6565b6104f36004803603602081101561060e57600080fd5b50356001600160a01b03166118f8565b6104f36004803603602081101561063457600080fd5b50356001600160a01b031661194b565b6104f361195d565b61034c6004803603602081101561066257600080fd5b5035611963565b6104f36004803603602081101561067f57600080fd5b50356001600160a01b0316611a08565b6106b5600480360360208110156106a557600080fd5b50356001600160a01b0316611a1a565b6040805192835260208301919091528051918290030190f35b61048b611f07565b61038e611f16565b6104f3611f35565b6104f3611f3b565b6104436004803603604081101561070457600080fd5b506001600160a01b038135169060200135611f41565b6104f36004803603604081101561073057600080fd5b506001600160a01b038135169060200135611f4e565b6104f361202c565b61034c6004803603602081101561076457600080fd5b50356001600160a01b0316612032565b6104f36121a1565b61048b6121a7565b6104f36004803603602081101561079a57600080fd5b50356001600160a01b03166121b6565b61048b6121c8565b6104f36121d7565b61034c600480360360e08110156107d057600080fd5b506001600160a01b03813581169160208101359091169060408101359060608101359060ff6080820135169060a08101359060c001356121dd565b61048b6123da565b6104f36004803603604081101561082957600080fd5b506001600160a01b03813581169160200135166123e9565b6104f3612406565b6104f361240c565b6104f3612412565b61034c6004803603608081101561086f57600080fd5b506001600160a01b038135811691602081013582169160408201358116916060013516612418565b6104f3600480360360208110156108ad57600080fd5b5035612527565b61034c612544565b601a54600114610908576040805162461bcd60e51b8152602060048201526012602482015271111950985b9ad4ddd85c0e881313d0d2d15160721b604482015290519081900360640190fd5b6000601a558415158061091b5750600084115b6109565760405162461bcd60e51b81526004018080602001828103825260268152602001806137cb6026913960400191505060405180910390fd5b6000806109616113c0565b5091509150816001600160701b0316871080156109865750806001600160701b031686105b6109c15760405162461bcd60e51b81526004018080602001828103825260228152602001806137f16022913960400191505060405180910390fd5b60035460045460009182916001600160a01b039182169190811690891682148015906109ff5750806001600160a01b0316896001600160a01b031614155b610a49576040805162461bcd60e51b8152602060048201526016602482015275446542616e6b537761703a20494e56414c49445f544f60501b604482015290519081900360640190fd5b8a15610a5a57610a5a828a8d6126a7565b8915610a6b57610a6b818a8c6126a7565b8615610b2657886001600160a01b031663226dc882338d8d8c8c6040518663ffffffff1660e01b815260040180866001600160a01b03166001600160a01b03168152602001858152602001848152602001806020018281038252848482818152602001925080828437600081840152601f19601f8201169050808301925050509650505050505050600060405180830381600087803b158015610b0d57600080fd5b505af1158015610b21573d6000803e3d6000fd5b505050505b604080516370a0823160e01b815230600482015290516001600160a01b038416916370a08231916024808301926020929190829003018186803b158015610b6c57600080fd5b505afa158015610b80573d6000803e3d6000fd5b505050506040513d6020811015610b9657600080fd5b5051604080516370a0823160e01b815230600482015290519195506001600160a01b038316916370a0823191602480820192602092909190829003018186803b158015610be257600080fd5b505afa158015610bf6573d6000803e3d6000fd5b505050506040513d6020811015610c0c57600080fd5b5051925060009150506001600160701b0385168a90038311610c2f576000610c3e565b89856001600160701b03160383035b9050600089856001600160701b0316038311610c5b576000610c6a565b89856001600160701b03160383035b90506000821180610c7b5750600081115b610cb65760405162461bcd60e51b81526004018080602001828103825260258152602001806137a66025913960400191505060405180910390fd5b6000610cee610cd06006548561283990919063ffffffff16565b610ce28761271063ffffffff61283916565b9063ffffffff61289916565b90506000610d0a610cd06006548561283990919063ffffffff16565b9050610d4c6040518060400160405280601b81526020017f616d6f756e7430496e3a20256420616d6f756e7431496e3a202564000000000081525085856128db565b610d8c6040518060400160405280601781526020017f62616c616e636541646a75737465643a2025642020256400000000000000000081525083836128db565b610dbc6305f5e100610db06001600160701b038b8116908b1663ffffffff61283916565b9063ffffffff61283916565b610dcc838363ffffffff61283916565b1015610e10576040805162461bcd60e51b815260206004820152600e60248201526d446542616e6b537761703a204b3160901b604482015290519081900360640190fd5b5050610e1e84848888612996565b610e2e610e29612b53565b612bcb565b60408051838152602081018390528082018d9052606081018c905290516001600160a01b038b169133917fd78ad95fa46c994b6551d0da85fc275fe613ce37657fb8d5e3d130840159d8229181900360800190a350506001601a55505050505050505050565b601a54600114610ee0576040805162461bcd60e51b8152602060048201526012602482015271111950985b9ad4ddd85c0e881313d0d2d15160721b604482015290519081900360640190fd5b6000601a81905554604080516303e21fa960e61b815290516001600160a01b039092169163f887ea4091600480820192602092909190829003018186803b158015610f2a57600080fd5b505afa158015610f3e573d6000803e3d6000fd5b505050506040513d6020811015610f5457600080fd5b50516001600160a01b03163314610fb2576040805162461bcd60e51b815260206004820152601760248201527f446542616e6b537761703a20726f75746572206f6e6c79000000000000000000604482015290519081900360640190fd5b8015610fc157610fc181612c1f565b6000841180610fd05750600083115b61100b5760405162461bcd60e51b81526004018080602001828103825260268152602001806137cb6026913960400191505060405180910390fd5b6000806110166113c0565b5091509150816001600160701b03168610801561103b5750806001600160701b031685105b6110765760405162461bcd60e51b81526004018080602001828103825260228152602001806137f16022913960400191505060405180910390fd5b60035460045460009182916001600160a01b039182169190811690881682148015906110b45750806001600160a01b0316886001600160a01b031614155b6110fe576040805162461bcd60e51b8152602060048201526016602482015275446542616e6b537761703a20494e56414c49445f544f60501b604482015290519081900360640190fd5b891561110f5761110f82898c6126a7565b88156111205761112081898b6126a7565b604080516370a0823160e01b815230600482015290516001600160a01b038416916370a08231916024808301926020929190829003018186803b15801561116657600080fd5b505afa15801561117a573d6000803e3d6000fd5b505050506040513d602081101561119057600080fd5b5051604080516370a0823160e01b815230600482015290519195506001600160a01b038316916370a0823191602480820192602092909190829003018186803b1580156111dc57600080fd5b505afa1580156111f0573d6000803e3d6000fd5b505050506040513d602081101561120657600080fd5b5051925060009150506001600160701b0385168990038311611229576000611238565b88856001600160701b03160383035b9050600088856001600160701b0316038311611255576000611264565b88856001600160701b03160383035b905060008211806112755750600081115b6112b05760405162461bcd60e51b81526004018080602001828103825260258152602001806137a66025913960400191505060405180910390fd5b6112cc6001600160701b0387811690871663ffffffff61283916565b6112dc858563ffffffff61283916565b1015611320576040805162461bcd60e51b815260206004820152600e60248201526d2232a130b735a9bbb0b81d10259960911b604482015290519081900360640190fd5b61132c84848888612996565b611337610e29612b53565b60408051838152602081018390528082018c9052606081018b905290516001600160a01b038a169133917fd78ad95fa46c994b6551d0da85fc275fe613ce37657fb8d5e3d130840159d8229181900360800190a350506001601a555050505050505050565b604051806040016040528060088152602001672628102a37b5b2b760c11b81525081565b6005546007546001600160701b0380831693600160701b909304169163ffffffff90911690565b600554600160e01b900460ff1681565b6000611404338484612e21565b5060015b92915050565b6001546001600160a01b031681565b60116020526000908152604090208054600182015460029092015490919083565b60165481565b600c5481565b60145481565b6001600160a01b0383166000908152601060209081526040808320338452909152812054600019146114d5576001600160a01b03841660009081526010602090815260408083203384529091529020546114b0908363ffffffff61289916565b6001600160a01b03851660009081526010602090815260408083203384529091529020555b6114e0848484612e83565b5060019392505050565b7f6e71edae12b1b97f4d1f60370fef10105fa2faae0126114a169c64845d6126c981565b601281565b600d5481565b6005546001600160701b031681565b6000546001600160a01b0316331461157f576040805162461bcd60e51b81526020600482015260156024820152742232a130b735a9bbb0b81d102327a92124a22222a760591b604482015290519081900360640190fd5b600855565b60095481565b600a5481565b600554600160701b90046001600160701b031681565b6000601a546001146115f4576040805162461bcd60e51b8152602060048201526012602482015271111950985b9ad4ddd85c0e881313d0d2d15160721b604482015290519081900360640190fd5b6000601a819055806116046113c0565b50600354604080516370a0823160e01b815230600482015290519395509193506000926001600160a01b03909116916370a08231916024808301926020929190829003018186803b15801561165857600080fd5b505afa15801561166c573d6000803e3d6000fd5b505050506040513d602081101561168257600080fd5b505160048054604080516370a0823160e01b81523093810193909352519293506000926001600160a01b03909116916370a08231916024808301926020929190829003018186803b1580156116d657600080fd5b505afa1580156116ea573d6000803e3d6000fd5b505050506040513d602081101561170057600080fd5b50519050600061171f836001600160701b03871663ffffffff61289916565b9050600061173c836001600160701b03871663ffffffff61289916565b9050600061174a8787612f3d565b600c5490915080611787576117736103e8610ce261176e878763ffffffff61283916565b613092565b985061178260006103e86130e3565b6117d6565b6117d36001600160701b0389166117a4868463ffffffff61283916565b816117ab57fe5b046001600160701b0389166117c6868563ffffffff61283916565b816117cd57fe5b046131ee565b98505b600089116118155760405162461bcd60e51b81526004018080602001828103825260298152602001806138136029913960400191505060405180910390fd5b61181f8a8a6130e3565b61182b86868a8a612996565b811561185b57600554611857906001600160701b0380821691600160701b90041663ffffffff61283916565b600b555b611866610e29612b53565b61188d600c546118816018548c61283990919063ffffffff16565b9063ffffffff61320516565b6001600160a01b038b16600090815260176020908152604091829020929092558051868152918201859052805133927f4c209b5fc8ad50758f13e2e1088ba56a560dff690a1c6fef26394f4c03821c4f92908290030190a250506001601a5550949695505050505050565b6000611902613784565b50506001600160a01b038116600090815260116020908152604091829020825160608101845281548082526001830154938201939093526002909101549201919091525b919050565b600f6020526000908152604090205481565b600b5481565b6000546001600160a01b031633146119ba576040805162461bcd60e51b81526020600482015260156024820152742232a130b735a9bbb0b81d102327a92124a22222a760591b604482015290519081900360640190fd5b60c8811115611a03576040805162461bcd60e51b815260206004820152601060248201526f0cccacaa4c2e8ca40e8dede40d0d2ced60831b604482015290519081900360640190fd5b600655565b600e6020526000908152604090205481565b600080601a54600114611a69576040805162461bcd60e51b8152602060048201526012602482015271111950985b9ad4ddd85c0e881313d0d2d15160721b604482015290519081900360640190fd5b6000601a81905580611a796113c0565b5060035460048054604080516370a0823160e01b81523093810193909352519496509294506001600160a01b0391821693919092169160009184916370a08231916024808301926020929190829003018186803b158015611ad957600080fd5b505afa158015611aed573d6000803e3d6000fd5b505050506040513d6020811015611b0357600080fd5b5051604080516370a0823160e01b815230600482015290519192506000916001600160a01b038516916370a08231916024808301926020929190829003018186803b158015611b5157600080fd5b505afa158015611b65573d6000803e3d6000fd5b505050506040513d6020811015611b7b57600080fd5b5051306000908152600f60205260409020549091506001600160a01b038a811690861614801590611bbe5750836001600160a01b03168a6001600160a01b031614155b8015611c4e57506000809054906101000a90046001600160a01b03166001600160a01b031663f887ea406040518163ffffffff1660e01b815260040160206040518083038186803b158015611c1257600080fd5b505afa158015611c26573d6000803e3d6000fd5b505050506040513d6020811015611c3c57600080fd5b50516001600160a01b038b8116911614155b15611cb6576001600160a01b038a16600090815260116020526040902054811115611cb6576040805162461bcd60e51b815260206004820152601360248201527237b7363c9037bbb732b91031b0b710313ab93760691b604482015290519081900360640190fd5b6000611cc28888612f3d565b600c5490915080611cd9848763ffffffff61283916565b81611ce057fe5b049a5080611cf4848663ffffffff61283916565b81611cfb57fe5b04995060008b118015611d0e575060008a115b611d495760405162461bcd60e51b815260040180806020018281038252602981526020018061383c6029913960400191505060405180910390fd5b600c54611d563085613247565b611d61888e8e6126a7565b611d6c878e8d6126a7565b611d778d858361343e565b604080516370a0823160e01b815230600482015290516001600160a01b038a16916370a08231916024808301926020929190829003018186803b158015611dbd57600080fd5b505afa158015611dd1573d6000803e3d6000fd5b505050506040513d6020811015611de757600080fd5b5051604080516370a0823160e01b815230600482015290519197506001600160a01b038916916370a0823191602480820192602092909190829003018186803b158015611e3357600080fd5b505afa158015611e47573d6000803e3d6000fd5b505050506040513d6020811015611e5d57600080fd5b50519450611e6d86868c8c612996565b8215611e9d57600554611e99906001600160701b0380821691600160701b90041663ffffffff61283916565b600b555b8c6001600160a01b0316336001600160a01b03167fdccd412f0b1252819cb1fd330b93224ca42612892bb3f4f789976e6d819364968e8e604051808381526020018281526020019250505060405180910390a3505050505050505050506001601a81905550915091565b6003546001600160a01b031681565b60405180604001604052806003815260200162088caf60eb1b81525081565b60065481565b60135481565b6000611404338484612e83565b6003546000906001600160a01b03848116911614801590611f7d57506004546001600160a01b03848116911614155b80611f9157506005546001600160701b0316155b80611fac5750600554600160701b90046001600160701b0316155b15611fb957506000611408565b6003546001600160a01b038481169116141561200257600554611ffb906001600160701b038082169161188191600160701b909104168563ffffffff61283916565b9050611408565b600554611ffb906001600160701b03600160701b820481169161188191168563ffffffff61283916565b6103e881565b601a5460011461207e576040805162461bcd60e51b8152602060048201526012602482015271111950985b9ad4ddd85c0e881313d0d2d15160721b604482015290519081900360640190fd5b6000601a5560035460048054600554604080516370a0823160e01b81523094810194909452516001600160a01b039485169490921692612130928592879261212b926001600160701b039092169185916370a08231916024808301926020929190829003018186803b1580156120f357600080fd5b505afa158015612107573d6000803e3d6000fd5b505050506040513d602081101561211d57600080fd5b50519063ffffffff61289916565b6126a7565b600554604080516370a0823160e01b81523060048201529051612197928492879261212b92600160701b90046001600160701b0316916001600160a01b038616916370a0823191602480820192602092909190829003018186803b1580156120f357600080fd5b50506001601a5550565b60185481565b6000546001600160a01b031681565b60176020526000908152604090205481565b6002546001600160a01b031681565b60125481565b42841015612222576040805162461bcd60e51b815260206004820152600d60248201526c14ddd85c0e8811561412549151609a1b604482015290519081900360640190fd5b600d546001600160a01b038089166000818152600e602090815260408083208054600180820190925582517f6e71edae12b1b97f4d1f60370fef10105fa2faae0126114a169c64845d6126c98186015280840196909652958d166060860152608085018c905260a085019590955260c08085018b90528151808603909101815260e08501825280519083012061190160f01b6101008601526101028501969096526101228085019690965280518085039096018652610142840180825286519683019690962095839052610162840180825286905260ff89166101828501526101a284018890526101c28401879052519193926101e280820193601f1981019281900390910190855afa15801561233d573d6000803e3d6000fd5b5050604051601f1901519150506001600160a01b038116158015906123735750886001600160a01b0316816001600160a01b0316145b6123c4576040805162461bcd60e51b815260206004820152601760248201527f537761703a20494e56414c49445f5349474e4154555245000000000000000000604482015290519081900360640190fd5b6123cf898989612e21565b505050505050505050565b6004546001600160a01b031681565b601060209081526000928352604080842090915290825290205481565b60155481565b60195481565b60085481565b6000546001600160a01b0316331461246f576040805162461bcd60e51b81526020600482015260156024820152742232a130b735a9bbb0b81d102327a92124a22222a760591b604482015290519081900360640190fd5b600180546001600160a01b03199081166001600160a01b0387811691909117909255600280548216868416179055600380548216858416179055600480549091168383161781556000546040805163f5b9848d60e01b81529051919093169263f5b9848d9281810192602092909190829003018186803b1580156124f257600080fd5b505afa158015612506573d6000803e3d6000fd5b505050506040513d602081101561251c57600080fd5b505160085550505050565b60006114086127106118816006548561283990919063ffffffff16565b601a54600114612590576040805162461bcd60e51b8152602060048201526012602482015271111950985b9ad4ddd85c0e881313d0d2d15160721b604482015290519081900360640190fd5b6000601a55600154604080516370a0823160e01b815230600482015290516126a0926001600160a01b0316916370a08231916024808301926020929190829003018186803b1580156125e157600080fd5b505afa1580156125f5573d6000803e3d6000fd5b505050506040513d602081101561260b57600080fd5b5051600254604080516370a0823160e01b815230600482015290516001600160a01b03909216916370a0823191602480820192602092909190829003018186803b15801561265857600080fd5b505afa15801561266c573d6000803e3d6000fd5b505050506040513d602081101561268257600080fd5b50516005546001600160701b0380821691600160701b900416612996565b6001601a55565b604080518082018252601981527f7472616e7366657228616464726573732c75696e74323536290000000000000060209182015281516001600160a01b0385811660248301526044808301869052845180840390910181526064909201845291810180516001600160e01b031663a9059cbb60e01b1781529251815160009460609489169392918291908083835b602083106127545780518252601f199092019160209182019101612735565b6001836020036101000a0380198251168184511680821785525050505050509050019150506000604051808303816000865af19150503d80600081146127b6576040519150601f19603f3d011682016040523d82523d6000602084013e6127bb565b606091505b50915091508180156127e95750805115806127e957508080602001905160208110156127e657600080fd5b50515b612832576040805162461bcd60e51b815260206004820152601560248201527414ddd85c0e881514905394d1915497d19052531151605a1b604482015290519081900360640190fd5b5050505050565b60008261284857506000611408565b8282028284828161285557fe5b04146128925760405162461bcd60e51b81526004018080602001828103825260218152602001806138656021913960400191505060405180910390fd5b9392505050565b600061289283836040518060400160405280601e81526020017f536166654d6174683a207375627472616374696f6e206f766572666c6f7700008152506135b0565b6129918383836040516024018080602001848152602001838152602001828103825285818151815260200191508051906020019080838360005b8381101561292d578181015183820152602001612915565b50505050905090810190601f16801561295a5780820380516001836020036101000a031916815260200191505b5060408051601f198184030181529190526020810180516001600160e01b031663969cdd0360e01b17905294506136479350505050565b505050565b6001600160701b0384118015906129b457506001600160701b038311155b6129fc576040805162461bcd60e51b8152602060048201526014602482015273446542616e6b537761703a204f564552464c4f5760601b604482015290519081900360640190fd5b60075463ffffffff428116918116820390811615801590612a2557506001600160701b03841615155b8015612a3957506001600160701b03831615155b15612aaa578063ffffffff16612a6785612a5286613668565b6001600160e01b03169063ffffffff61367a16565b600980546001600160e01b03929092169290920201905563ffffffff8116612a9284612a5287613668565b600a80546001600160e01b0392909216929092020190555b600580546dffffffffffffffffffffffffffff19166001600160701b03888116919091176dffffffffffffffffffffffffffff60701b1916600160701b888316810291909117928390556007805463ffffffff191663ffffffff871617905560408051848416815291909304909116602082015281517f1c411e9a96e071241c2f21f7726b17ae89e3cab4c78be50e062b03a9fffbbad1929181900390910190a1505050505050565b604080516370a0823160e01b815230600482015290516000918291829182916370a0823191602480820192602092909190829003018186803b158015612b9857600080fd5b505afa158015612bac573d6000803e3d6000fd5b505050506040513d6020811015612bc257600080fd5b50519250505090565b601954811115612c1a576000612bec6019548361289990919063ffffffff16565b9050612c15612c06600c548361320590919063ffffffff16565b6018549063ffffffff61369f16565b601855505b601955565b436015541415612c36576016805482019055612e1e565b60165415612e1457600143036015541415612de35760008060009054906101000a90046001600160a01b03166001600160a01b031663f887ea406040518163ffffffff1660e01b815260040160206040518083038186803b158015612c9a57600080fd5b505afa158015612cae573d6000803e3d6000fd5b505050506040513d6020811015612cc457600080fd5b50516040805163226981cb60e21b815290519192506000916001600160a01b038416916389a6072c916004808301926020929190829003018186803b158015612d0c57600080fd5b505afa158015612d20573d6000803e3d6000fd5b505050506040513d6020811015612d3657600080fd5b505160155460408051632a7edd8f60e21b81526004810192909252519192506000916001600160a01b0385169163a9fb763c916024808301926020929190829003018186803b158015612d8857600080fd5b505afa158015612d9c573d6000803e3d6000fd5b505050506040513d6020811015612db257600080fd5b5051601654909150612dd190839061188190849063ffffffff61283916565b60138054909101905550612e14915050565b60006064601554430381612df357fe5b0460010190508060165481612e0457fe5b0482016016555043601555612e1e565b4360155560168190555b50565b6001600160a01b03808416600081815260106020908152604080832094871680845294825291829020859055815185815291517f8c5be1e5ebec7d5bd14f71427d1e84f3dd0314c0f7b2291e5b200ac8c7c3b9259281900390910190a3505050565b6001600160a01b0383166000908152600f6020526040902054612eac908263ffffffff61289916565b6001600160a01b038085166000908152600f60205260408082209390935590841681522054612ee1908263ffffffff61369f16565b6001600160a01b038084166000818152600f602090815260409182902094909455805185815290519193928716927fddf252ad1be2c89b69c2b068fc378daa952ba7f163c4a11628f55a4df523b3ef92918290030190a3505050565b6000805460408051622fcfcb60e31b8152905183926001600160a01b03169163017e7e58916004808301926020929190829003018186803b158015612f8157600080fd5b505afa158015612f95573d6000803e3d6000fd5b505050506040513d6020811015612fab57600080fd5b5051600b546001600160a01b03821615801594509192509061307e578015613079576000612fee61176e6001600160701b0388811690881663ffffffff61283916565b90506000612ffb83613092565b90508082111561307657600061302961301a848463ffffffff61289916565b600c549063ffffffff61283916565b90506000613052836130466008548761283990919063ffffffff16565b9063ffffffff61369f16565b9050600081838161305f57fe5b04905080156130725761307287826130e3565b5050505b50505b61308a565b801561308a576000600b555b505092915050565b600060038211156130d5575080600160028204015b818110156130cf578091506002818285816130be57fe5b0401816130c757fe5b0490506130a7565b50611946565b811561194657506001919050565b6130eb6136f9565b6001600160a01b0382166000908152601160205260409020805461312a5781815560125461312090839063ffffffff61283916565b6002820155613156565b601280548254600184018054928202909201909155830180835590546131509190612839565b60028201555b600c54613169908363ffffffff61369f16565b600c556001600160a01b0383166000908152600f6020526040902054613195908363ffffffff61369f16565b6001600160a01b0384166000818152600f602090815260408083209490945583518681529351929391927fddf252ad1be2c89b69c2b068fc378daa952ba7f163c4a11628f55a4df523b3ef9281900390910190a3505050565b6000818311156131fe5781612892565b5090919050565b600061289283836040518060400160405280601a81526020017f536166654d6174683a206469766973696f6e206279207a65726f00000000000081525061371f565b61324f6136f9565b6001600160a01b038216600090815260116020526040902060028101546001820154825460125402010380156133865760008060009054906101000a90046001600160a01b03166001600160a01b031663f887ea406040518163ffffffff1660e01b815260040160206040518083038186803b1580156132ce57600080fd5b505afa1580156132e2573d6000803e3d6000fd5b505050506040513d60208110156132f857600080fd5b50516040805163f7c618c160e01b815290516001600160a01b039092169163f7c618c191600480820192602092909190829003018186803b15801561333c57600080fd5b505afa158015613350573d6000803e3d6000fd5b505050506040513d602081101561336657600080fd5b505190506001600160a01b03811615613384576133848186846126a7565b505b815483900380835560006001840181905560125490910260028401556001600160a01b0385168152600f60205260409020546133c8908463ffffffff61289916565b6001600160a01b0385166000908152600f6020526040902055600c546133f4908463ffffffff61289916565b600c556040805184815290516000916001600160a01b038716917fddf252ad1be2c89b69c2b068fc378daa952ba7f163c4a11628f55a4df523b3ef9181900360200190a350505050565b604080516002808252606080830184526000938493919290602083019080388339505060035482519293506001600160a01b03169183915060009061347f57fe5b6001600160a01b0392831660209182029290920101526004548251911690829060019081106134aa57fe5b60200260200101906001600160a01b031690816001600160a01b0316815250506134d5610e29612b53565b6001600160a01b03861660009081526017602052604081205460185461350d9190610ce2908890611881908b9063ffffffff61283916565b9050836001600160a01b031663a9059cbb88836040518363ffffffff1660e01b815260040180836001600160a01b03166001600160a01b0316815260200182815260200192505050602060405180830381600087803b15801561356f57600080fd5b505af1158015613583573d6000803e3d6000fd5b505050506040513d602081101561359957600080fd5b506135a49050612b53565b60195550505050505050565b6000818484111561363f5760405162461bcd60e51b81526004018080602001828103825283818151815260200191508051906020019080838360005b838110156136045781810151838201526020016135ec565b50505050905090810190601f1680156136315780820380516001836020036101000a031916815260200191505b509250505060405180910390fd5b505050900390565b80516a636f6e736f6c652e6c6f67602083016000808483855afa5050505050565b6001600160701b0316600160701b0290565b60006001600160701b0382166001600160e01b0384168161369757fe5b049392505050565b600082820183811015612892576040805162461bcd60e51b815260206004820152601b60248201527f536166654d6174683a206164646974696f6e206f766572666c6f770000000000604482015290519081900360640190fd5b6137036000612c1f565b600c541561371d57600c546013548161371857fe5b046012555b565b6000818361376e5760405162461bcd60e51b81526020600482018181528351602484015283519092839260449091019190850190808383600083156136045781810151838201526020016135ec565b50600083858161377a57fe5b0495945050505050565b6040518060600160405280600081526020016000815260200160008152509056fe446542616e6b537761703a20494e53554646494349454e545f494e5055545f414d4f554e54446542616e6b537761703a20494e53554646494349454e545f4f55545055545f414d4f554e54446542616e6b537761703a20494e53554646494349454e545f4c4951554944495459446542616e6b537761703a20494e53554646494349454e545f4c49515549444954595f4d494e544544446542616e6b537761703a20494e53554646494349454e545f4c49515549444954595f4255524e4544536166654d6174683a206d756c7469706c69636174696f6e206f766572666c6f77a265627a7a72315820ae27f881064da71c36993d0c4af125e08269792d3b5aa9f6d1f0f4638281a5a764736f6c63430005100032454950373132446f6d61696e28737472696e67206e616d652c737472696e672076657273696f6e2c75696e7432353620636861696e49642c6164647265737320766572696679696e67436f6e747261637429",
  "linkReferences": {},
  "deployedLinkReferences": {}
}