{
  "_format": "hh-sol-artifact-1",
  "contractName": "DeBankRouter",
  "sourceName": "contracts/swap/heco/Router.sol",
  "abi": [
    {
      "inputs": [
        {
          "internalType": "address",
          "name": "_factory",
          "type": "address"
        },
        {
          "internalType": "address",
          "name": "_wht",
          "type": "address"
        },
        {
          "internalType": "address",
          "name": "_cwht",
          "type": "address"
        },
        {
          "internalType": "address",
          "name": "_ctokenFactory",
          "type": "address"
        }
      ],
      "payable": false,
      "stateMutability": "nonpayable",
      "type": "constructor"
    },
    {
      "anonymous": false,
      "inputs": [
        {
          "indexed": true,
          "internalType": "address",
          "name": "previousOwner",
          "type": "address"
        },
        {
          "indexed": true,
          "internalType": "address",
          "name": "newOwner",
          "type": "address"
        }
      ],
      "name": "OwnershipTransferred",
      "type": "event"
    },
    {
      "payable": true,
      "stateMutability": "payable",
      "type": "fallback"
    },
    {
      "constant": true,
      "inputs": [],
      "name": "WHT",
      "outputs": [
        {
          "internalType": "address",
          "name": "",
          "type": "address"
        }
      ],
      "payable": false,
      "stateMutability": "view",
      "type": "function"
    },
    {
      "constant": false,
      "inputs": [
        {
          "internalType": "address",
          "name": "tokenA",
          "type": "address"
        },
        {
          "internalType": "address",
          "name": "tokenB",
          "type": "address"
        },
        {
          "internalType": "uint256",
          "name": "amountADesired",
          "type": "uint256"
        },
        {
          "internalType": "uint256",
          "name": "amountBDesired",
          "type": "uint256"
        },
        {
          "internalType": "uint256",
          "name": "amountAMin",
          "type": "uint256"
        },
        {
          "internalType": "uint256",
          "name": "amountBMin",
          "type": "uint256"
        },
        {
          "internalType": "address",
          "name": "to",
          "type": "address"
        },
        {
          "internalType": "uint256",
          "name": "deadline",
          "type": "uint256"
        }
      ],
      "name": "addLiquidity",
      "outputs": [
        {
          "internalType": "uint256",
          "name": "amountA",
          "type": "uint256"
        },
        {
          "internalType": "uint256",
          "name": "amountB",
          "type": "uint256"
        },
        {
          "internalType": "uint256",
          "name": "liquidityAmt",
          "type": "uint256"
        }
      ],
      "payable": false,
      "stateMutability": "nonpayable",
      "type": "function"
    },
    {
      "constant": false,
      "inputs": [
        {
          "internalType": "address",
          "name": "token",
          "type": "address"
        },
        {
          "internalType": "uint256",
          "name": "amountTokenDesired",
          "type": "uint256"
        },
        {
          "internalType": "uint256",
          "name": "amountTokenMin",
          "type": "uint256"
        },
        {
          "internalType": "uint256",
          "name": "amountETHMin",
          "type": "uint256"
        },
        {
          "internalType": "address",
          "name": "to",
          "type": "address"
        },
        {
          "internalType": "uint256",
          "name": "deadline",
          "type": "uint256"
        }
      ],
      "name": "addLiquidityETHUnderlying",
      "outputs": [
        {
          "internalType": "uint256",
          "name": "amountToken",
          "type": "uint256"
        },
        {
          "internalType": "uint256",
          "name": "amountETH",
          "type": "uint256"
        },
        {
          "internalType": "uint256",
          "name": "liquidity",
          "type": "uint256"
        }
      ],
      "payable": true,
      "stateMutability": "payable",
      "type": "function"
    },
    {
      "constant": false,
      "inputs": [
        {
          "internalType": "address",
          "name": "tokenA",
          "type": "address"
        },
        {
          "internalType": "address",
          "name": "tokenB",
          "type": "address"
        },
        {
          "internalType": "uint256",
          "name": "amountADesired",
          "type": "uint256"
        },
        {
          "internalType": "uint256",
          "name": "amountBDesired",
          "type": "uint256"
        },
        {
          "internalType": "uint256",
          "name": "amountAMin",
          "type": "uint256"
        },
        {
          "internalType": "uint256",
          "name": "amountBMin",
          "type": "uint256"
        },
        {
          "internalType": "address",
          "name": "to",
          "type": "address"
        },
        {
          "internalType": "uint256",
          "name": "deadline",
          "type": "uint256"
        }
      ],
      "name": "addLiquidityUnderlying",
      "outputs": [
        {
          "internalType": "uint256",
          "name": "amountA",
          "type": "uint256"
        },
        {
          "internalType": "uint256",
          "name": "amountB",
          "type": "uint256"
        },
        {
          "internalType": "uint256",
          "name": "liquidity",
          "type": "uint256"
        }
      ],
      "payable": false,
      "stateMutability": "nonpayable",
      "type": "function"
    },
    {
      "constant": false,
      "inputs": [
        {
          "internalType": "address",
          "name": "token",
          "type": "address"
        }
      ],
      "name": "addQuoteToken",
      "outputs": [],
      "payable": false,
      "stateMutability": "nonpayable",
      "type": "function"
    },
    {
      "constant": false,
      "inputs": [
        {
          "internalType": "address",
          "name": "token",
          "type": "address"
        },
        {
          "internalType": "address",
          "name": "to",
          "type": "address"
        },
        {
          "internalType": "uint256",
          "name": "amt",
          "type": "uint256"
        }
      ],
      "name": "adminTransfer",
      "outputs": [],
      "payable": false,
      "stateMutability": "nonpayable",
      "type": "function"
    },
    {
      "constant": true,
      "inputs": [],
      "name": "allPairFee",
      "outputs": [
        {
          "internalType": "uint256",
          "name": "",
          "type": "uint256"
        }
      ],
      "payable": false,
      "stateMutability": "view",
      "type": "function"
    },
    {
      "constant": true,
      "inputs": [],
      "name": "allPairFeeLastBlock",
      "outputs": [
        {
          "internalType": "uint256",
          "name": "",
          "type": "uint256"
        }
      ],
      "payable": false,
      "stateMutability": "view",
      "type": "function"
    },
    {
      "constant": true,
      "inputs": [],
      "name": "cWHT",
      "outputs": [
        {
          "internalType": "address",
          "name": "",
          "type": "address"
        }
      ],
      "payable": false,
      "stateMutability": "view",
      "type": "function"
    },
    {
      "constant": true,
      "inputs": [],
      "name": "ctokenFactory",
      "outputs": [
        {
          "internalType": "contract LErc20DelegatorInterface",
          "name": "",
          "type": "address"
        }
      ],
      "payable": false,
      "stateMutability": "view",
      "type": "function"
    },
    {
      "constant": true,
      "inputs": [],
      "name": "currentBlock",
      "outputs": [
        {
          "internalType": "uint256",
          "name": "",
          "type": "uint256"
        }
      ],
      "payable": false,
      "stateMutability": "view",
      "type": "function"
    },
    {
      "constant": true,
      "inputs": [],
      "name": "ebePerBlock",
      "outputs": [
        {
          "internalType": "uint256",
          "name": "",
          "type": "uint256"
        }
      ],
      "payable": false,
      "stateMutability": "view",
      "type": "function"
    },
    {
      "constant": true,
      "inputs": [],
      "name": "factory",
      "outputs": [
        {
          "internalType": "address",
          "name": "",
          "type": "address"
        }
      ],
      "payable": false,
      "stateMutability": "view",
      "type": "function"
    },
    {
      "constant": true,
      "inputs": [],
      "name": "feeAlloc",
      "outputs": [
        {
          "internalType": "uint256",
          "name": "",
          "type": "uint256"
        }
      ],
      "payable": false,
      "stateMutability": "view",
      "type": "function"
    },
    {
      "constant": true,
      "inputs": [
        {
          "internalType": "uint256",
          "name": "amountOut",
          "type": "uint256"
        },
        {
          "internalType": "address[]",
          "name": "path",
          "type": "address[]"
        },
        {
          "internalType": "address",
          "name": "to",
          "type": "address"
        }
      ],
      "name": "getAmountsIn",
      "outputs": [
        {
          "internalType": "uint256[]",
          "name": "amounts",
          "type": "uint256[]"
        }
      ],
      "payable": false,
      "stateMutability": "view",
      "type": "function"
    },
    {
      "constant": true,
      "inputs": [
        {
          "internalType": "uint256",
          "name": "amountIn",
          "type": "uint256"
        },
        {
          "internalType": "address[]",
          "name": "path",
          "type": "address[]"
        },
        {
          "internalType": "address",
          "name": "to",
          "type": "address"
        }
      ],
      "name": "getAmountsOut",
      "outputs": [
        {
          "internalType": "uint256[]",
          "name": "amounts",
          "type": "uint256[]"
        }
      ],
      "payable": false,
      "stateMutability": "view",
      "type": "function"
    },
    {
      "constant": true,
      "inputs": [],
      "name": "isOwner",
      "outputs": [
        {
          "internalType": "bool",
          "name": "",
          "type": "bool"
        }
      ],
      "payable": false,
      "stateMutability": "view",
      "type": "function"
    },
    {
      "constant": false,
      "inputs": [
        {
          "internalType": "address",
          "name": "token0",
          "type": "address"
        },
        {
          "internalType": "address",
          "name": "token1",
          "type": "address"
        },
        {
          "internalType": "address",
          "name": "_to",
          "type": "address"
        },
        {
          "internalType": "uint256",
          "name": "_amount",
          "type": "uint256"
        }
      ],
      "name": "mintEBEToken",
      "outputs": [
        {
          "internalType": "bool",
          "name": "",
          "type": "bool"
        }
      ],
      "payable": false,
      "stateMutability": "nonpayable",
      "type": "function"
    },
    {
      "constant": true,
      "inputs": [],
      "name": "owner",
      "outputs": [
        {
          "internalType": "address",
          "name": "",
          "type": "address"
        }
      ],
      "payable": false,
      "stateMutability": "view",
      "type": "function"
    },
    {
      "constant": true,
      "inputs": [
        {
          "internalType": "address",
          "name": "tokenA",
          "type": "address"
        },
        {
          "internalType": "address",
          "name": "tokenB",
          "type": "address"
        }
      ],
      "name": "pairFor",
      "outputs": [
        {
          "internalType": "address",
          "name": "pair",
          "type": "address"
        }
      ],
      "payable": false,
      "stateMutability": "view",
      "type": "function"
    },
    {
      "constant": true,
      "inputs": [
        {
          "internalType": "uint256",
          "name": "amountA",
          "type": "uint256"
        },
        {
          "internalType": "uint256",
          "name": "reserveA",
          "type": "uint256"
        },
        {
          "internalType": "uint256",
          "name": "reserveB",
          "type": "uint256"
        }
      ],
      "name": "quote",
      "outputs": [
        {
          "internalType": "uint256",
          "name": "amountB",
          "type": "uint256"
        }
      ],
      "payable": false,
      "stateMutability": "view",
      "type": "function"
    },
    {
      "constant": true,
      "inputs": [
        {
          "internalType": "uint256",
          "name": "",
          "type": "uint256"
        }
      ],
      "name": "quoteTokens",
      "outputs": [
        {
          "internalType": "address",
          "name": "",
          "type": "address"
        }
      ],
      "payable": false,
      "stateMutability": "view",
      "type": "function"
    },
    {
      "constant": false,
      "inputs": [
        {
          "internalType": "address",
          "name": "ctokenA",
          "type": "address"
        },
        {
          "internalType": "address",
          "name": "ctokenB",
          "type": "address"
        },
        {
          "internalType": "uint256",
          "name": "liquidity",
          "type": "uint256"
        },
        {
          "internalType": "uint256",
          "name": "amountAMin",
          "type": "uint256"
        },
        {
          "internalType": "uint256",
          "name": "amountBMin",
          "type": "uint256"
        },
        {
          "internalType": "address",
          "name": "to",
          "type": "address"
        },
        {
          "internalType": "uint256",
          "name": "deadline",
          "type": "uint256"
        }
      ],
      "name": "removeLiquidity",
      "outputs": [
        {
          "internalType": "uint256",
          "name": "amountA",
          "type": "uint256"
        },
        {
          "internalType": "uint256",
          "name": "amountB",
          "type": "uint256"
        }
      ],
      "payable": false,
      "stateMutability": "nonpayable",
      "type": "function"
    },
    {
      "constant": false,
      "inputs": [
        {
          "internalType": "address",
          "name": "token",
          "type": "address"
        },
        {
          "internalType": "uint256",
          "name": "liquidity",
          "type": "uint256"
        },
        {
          "internalType": "uint256",
          "name": "amountTokenMin",
          "type": "uint256"
        },
        {
          "internalType": "uint256",
          "name": "amountETHMin",
          "type": "uint256"
        },
        {
          "internalType": "address",
          "name": "to",
          "type": "address"
        },
        {
          "internalType": "uint256",
          "name": "deadline",
          "type": "uint256"
        }
      ],
      "name": "removeLiquidityETHUnderlying",
      "outputs": [
        {
          "internalType": "uint256",
          "name": "amountToken",
          "type": "uint256"
        },
        {
          "internalType": "uint256",
          "name": "amountETH",
          "type": "uint256"
        }
      ],
      "payable": false,
      "stateMutability": "nonpayable",
      "type": "function"
    },
    {
      "constant": false,
      "inputs": [
        {
          "internalType": "address",
          "name": "token",
          "type": "address"
        },
        {
          "internalType": "uint256",
          "name": "liquidity",
          "type": "uint256"
        },
        {
          "internalType": "uint256",
          "name": "amountTokenMin",
          "type": "uint256"
        },
        {
          "internalType": "uint256",
          "name": "amountETHMin",
          "type": "uint256"
        },
        {
          "internalType": "address",
          "name": "to",
          "type": "address"
        },
        {
          "internalType": "uint256",
          "name": "deadline",
          "type": "uint256"
        },
        {
          "internalType": "bool",
          "name": "approveMax",
          "type": "bool"
        },
        {
          "internalType": "uint8",
          "name": "v",
          "type": "uint8"
        },
        {
          "internalType": "bytes32",
          "name": "r",
          "type": "bytes32"
        },
        {
          "internalType": "bytes32",
          "name": "s",
          "type": "bytes32"
        }
      ],
      "name": "removeLiquidityETHUnderlyingWithPermit",
      "outputs": [
        {
          "internalType": "uint256",
          "name": "amountToken",
          "type": "uint256"
        },
        {
          "internalType": "uint256",
          "name": "amountETH",
          "type": "uint256"
        }
      ],
      "payable": false,
      "stateMutability": "nonpayable",
      "type": "function"
    },
    {
      "constant": false,
      "inputs": [
        {
          "internalType": "address",
          "name": "tokenA",
          "type": "address"
        },
        {
          "internalType": "address",
          "name": "tokenB",
          "type": "address"
        },
        {
          "internalType": "uint256",
          "name": "liquidity",
          "type": "uint256"
        },
        {
          "internalType": "uint256",
          "name": "amountAMin",
          "type": "uint256"
        },
        {
          "internalType": "uint256",
          "name": "amountBMin",
          "type": "uint256"
        },
        {
          "internalType": "address",
          "name": "to",
          "type": "address"
        },
        {
          "internalType": "uint256",
          "name": "deadline",
          "type": "uint256"
        }
      ],
      "name": "removeLiquidityUnderlying",
      "outputs": [
        {
          "internalType": "uint256",
          "name": "amountA",
          "type": "uint256"
        },
        {
          "internalType": "uint256",
          "name": "amountB",
          "type": "uint256"
        }
      ],
      "payable": false,
      "stateMutability": "nonpayable",
      "type": "function"
    },
    {
      "constant": false,
      "inputs": [
        {
          "internalType": "address",
          "name": "tokenA",
          "type": "address"
        },
        {
          "internalType": "address",
          "name": "tokenB",
          "type": "address"
        },
        {
          "internalType": "uint256",
          "name": "liquidity",
          "type": "uint256"
        },
        {
          "internalType": "uint256",
          "name": "amountAMin",
          "type": "uint256"
        },
        {
          "internalType": "uint256",
          "name": "amountBMin",
          "type": "uint256"
        },
        {
          "internalType": "address",
          "name": "to",
          "type": "address"
        },
        {
          "internalType": "uint256",
          "name": "deadline",
          "type": "uint256"
        },
        {
          "internalType": "bool",
          "name": "approveMax",
          "type": "bool"
        },
        {
          "internalType": "uint8",
          "name": "v",
          "type": "uint8"
        },
        {
          "internalType": "bytes32",
          "name": "r",
          "type": "bytes32"
        },
        {
          "internalType": "bytes32",
          "name": "s",
          "type": "bytes32"
        }
      ],
      "name": "removeLiquidityWithPermit",
      "outputs": [
        {
          "internalType": "uint256",
          "name": "amountA",
          "type": "uint256"
        },
        {
          "internalType": "uint256",
          "name": "amountB",
          "type": "uint256"
        }
      ],
      "payable": false,
      "stateMutability": "nonpayable",
      "type": "function"
    },
    {
      "constant": false,
      "inputs": [],
      "name": "renounceOwnership",
      "outputs": [],
      "payable": false,
      "stateMutability": "nonpayable",
      "type": "function"
    },
    {
      "constant": false,
      "inputs": [
        {
          "internalType": "address[]",
          "name": "tokens",
          "type": "address[]"
        }
      ],
      "name": "resetQuoteTokens",
      "outputs": [],
      "payable": false,
      "stateMutability": "nonpayable",
      "type": "function"
    },
    {
      "constant": true,
      "inputs": [
        {
          "internalType": "uint256",
          "name": "blockNumber",
          "type": "uint256"
        }
      ],
      "name": "reward",
      "outputs": [
        {
          "internalType": "uint256",
          "name": "",
          "type": "uint256"
        }
      ],
      "payable": false,
      "stateMutability": "view",
      "type": "function"
    },
    {
      "constant": true,
      "inputs": [],
      "name": "rewardToken",
      "outputs": [
        {
          "internalType": "address",
          "name": "",
          "type": "address"
        }
      ],
      "payable": false,
      "stateMutability": "view",
      "type": "function"
    },
    {
      "constant": false,
      "inputs": [
        {
          "internalType": "uint256",
          "name": "_ebePerBlock",
          "type": "uint256"
        }
      ],
      "name": "setEbePerBlock",
      "outputs": [],
      "payable": false,
      "stateMutability": "nonpayable",
      "type": "function"
    },
    {
      "constant": false,
      "inputs": [
        {
          "internalType": "uint256",
          "name": "_feeAlloc",
          "type": "uint256"
        }
      ],
      "name": "setFeeAlloc",
      "outputs": [],
      "payable": false,
      "stateMutability": "nonpayable",
      "type": "function"
    },
    {
      "constant": false,
      "inputs": [
        {
          "internalType": "address",
          "name": "_reword",
          "type": "address"
        }
      ],
      "name": "setRewardToken",
      "outputs": [],
      "payable": false,
      "stateMutability": "nonpayable",
      "type": "function"
    },
    {
      "constant": false,
      "inputs": [
        {
          "internalType": "address",
          "name": "_swapMininng",
          "type": "address"
        }
      ],
      "name": "setSwapMining",
      "outputs": [],
      "payable": false,
      "stateMutability": "nonpayable",
      "type": "function"
    },
    {
      "constant": false,
      "inputs": [
        {
          "internalType": "uint256",
          "name": "amountOut",
          "type": "uint256"
        },
        {
          "internalType": "address[]",
          "name": "path",
          "type": "address[]"
        },
        {
          "internalType": "address",
          "name": "to",
          "type": "address"
        },
        {
          "internalType": "uint256",
          "name": "deadline",
          "type": "uint256"
        }
      ],
      "name": "swapETHForExactTokensUnderlying",
      "outputs": [
        {
          "internalType": "uint256[]",
          "name": "amounts",
          "type": "uint256[]"
        }
      ],
      "payable": true,
      "stateMutability": "payable",
      "type": "function"
    },
    {
      "constant": false,
      "inputs": [
        {
          "internalType": "uint256",
          "name": "amountOutMin",
          "type": "uint256"
        },
        {
          "internalType": "address[]",
          "name": "path",
          "type": "address[]"
        },
        {
          "internalType": "address",
          "name": "to",
          "type": "address"
        },
        {
          "internalType": "uint256",
          "name": "deadline",
          "type": "uint256"
        }
      ],
      "name": "swapExactETHForTokensUnderlying",
      "outputs": [
        {
          "internalType": "uint256[]",
          "name": "amounts",
          "type": "uint256[]"
        }
      ],
      "payable": true,
      "stateMutability": "payable",
      "type": "function"
    },
    {
      "constant": false,
      "inputs": [
        {
          "internalType": "uint256",
          "name": "amountIn",
          "type": "uint256"
        },
        {
          "internalType": "uint256",
          "name": "amountOutMin",
          "type": "uint256"
        },
        {
          "internalType": "address[]",
          "name": "path",
          "type": "address[]"
        },
        {
          "internalType": "address",
          "name": "to",
          "type": "address"
        },
        {
          "internalType": "uint256",
          "name": "deadline",
          "type": "uint256"
        }
      ],
      "name": "swapExactTokensForETHUnderlying",
      "outputs": [
        {
          "internalType": "uint256[]",
          "name": "amounts",
          "type": "uint256[]"
        }
      ],
      "payable": false,
      "stateMutability": "nonpayable",
      "type": "function"
    },
    {
      "constant": false,
      "inputs": [
        {
          "internalType": "uint256",
          "name": "amountIn",
          "type": "uint256"
        },
        {
          "internalType": "uint256",
          "name": "amountOutMin",
          "type": "uint256"
        },
        {
          "internalType": "address[]",
          "name": "cpath",
          "type": "address[]"
        },
        {
          "internalType": "address",
          "name": "to",
          "type": "address"
        },
        {
          "internalType": "uint256",
          "name": "deadline",
          "type": "uint256"
        }
      ],
      "name": "swapExactTokensForTokens",
      "outputs": [
        {
          "internalType": "uint256[]",
          "name": "amounts",
          "type": "uint256[]"
        }
      ],
      "payable": false,
      "stateMutability": "nonpayable",
      "type": "function"
    },
    {
      "constant": false,
      "inputs": [
        {
          "internalType": "uint256",
          "name": "amountIn",
          "type": "uint256"
        },
        {
          "internalType": "uint256",
          "name": "amountOutMin",
          "type": "uint256"
        },
        {
          "internalType": "address[]",
          "name": "path",
          "type": "address[]"
        },
        {
          "internalType": "address",
          "name": "to",
          "type": "address"
        },
        {
          "internalType": "uint256",
          "name": "deadline",
          "type": "uint256"
        }
      ],
      "name": "swapExactTokensForTokensUnderlying",
      "outputs": [
        {
          "internalType": "uint256[]",
          "name": "amounts",
          "type": "uint256[]"
        }
      ],
      "payable": false,
      "stateMutability": "nonpayable",
      "type": "function"
    },
    {
      "constant": true,
      "inputs": [],
      "name": "swapMining",
      "outputs": [
        {
          "internalType": "address",
          "name": "",
          "type": "address"
        }
      ],
      "payable": false,
      "stateMutability": "view",
      "type": "function"
    },
    {
      "constant": false,
      "inputs": [
        {
          "internalType": "uint256",
          "name": "amountOut",
          "type": "uint256"
        },
        {
          "internalType": "uint256",
          "name": "amountInMax",
          "type": "uint256"
        },
        {
          "internalType": "address[]",
          "name": "path",
          "type": "address[]"
        },
        {
          "internalType": "address",
          "name": "to",
          "type": "address"
        },
        {
          "internalType": "uint256",
          "name": "deadline",
          "type": "uint256"
        }
      ],
      "name": "swapTokensForExactETHUnderlying",
      "outputs": [
        {
          "internalType": "uint256[]",
          "name": "amounts",
          "type": "uint256[]"
        }
      ],
      "payable": false,
      "stateMutability": "nonpayable",
      "type": "function"
    },
    {
      "constant": false,
      "inputs": [
        {
          "internalType": "uint256",
          "name": "amountOut",
          "type": "uint256"
        },
        {
          "internalType": "uint256",
          "name": "amountInMax",
          "type": "uint256"
        },
        {
          "internalType": "address[]",
          "name": "cpath",
          "type": "address[]"
        },
        {
          "internalType": "address",
          "name": "to",
          "type": "address"
        },
        {
          "internalType": "uint256",
          "name": "deadline",
          "type": "uint256"
        }
      ],
      "name": "swapTokensForExactTokens",
      "outputs": [
        {
          "internalType": "uint256[]",
          "name": "amounts",
          "type": "uint256[]"
        }
      ],
      "payable": false,
      "stateMutability": "nonpayable",
      "type": "function"
    },
    {
      "constant": false,
      "inputs": [
        {
          "internalType": "uint256",
          "name": "amountOut",
          "type": "uint256"
        },
        {
          "internalType": "uint256",
          "name": "amountInMax",
          "type": "uint256"
        },
        {
          "internalType": "address[]",
          "name": "path",
          "type": "address[]"
        },
        {
          "internalType": "address",
          "name": "to",
          "type": "address"
        },
        {
          "internalType": "uint256",
          "name": "deadline",
          "type": "uint256"
        }
      ],
      "name": "swapTokensForExactTokensUnderlying",
      "outputs": [
        {
          "internalType": "uint256[]",
          "name": "amounts",
          "type": "uint256[]"
        }
      ],
      "payable": false,
      "stateMutability": "nonpayable",
      "type": "function"
    },
    {
      "constant": false,
      "inputs": [
        {
          "internalType": "address",
          "name": "newOwner",
          "type": "address"
        }
      ],
      "name": "transferOwnership",
      "outputs": [],
      "payable": false,
      "stateMutability": "nonpayable",
      "type": "function"
    }
  ],
  "bytecode": "0x60806040523480156200001157600080fd5b5060405162005e4838038062005e48833981810160405260808110156200003757600080fd5b50805160208201516040830151606090930151919290916000620000636001600160e01b03620001da16565b600080546001600160a01b0319166001600160a01b0383169081178255604051929350917f8be0079c531659141344cd1fd0a4f28419497f9722a3daafe3b4186f6b6457e0908290a350600180546001600160a01b03199081166001600160a01b038781169182179093556002805483168785161790556004805483168685161781556006805490931693851693909317909155604080516370e264b360e11b8152905160059363e1c4c96692808201926020929091829003018186803b1580156200012e57600080fd5b505afa15801562000143573d6000803e3d6000fd5b505050506040513d60208110156200015a57600080fd5b505181546001808201845560009384526020842090910180546001600160a01b03199081166001600160a01b03948516179091556002546005805493840181559094527f036b6384b5eca791c62761152d0c79bb0604c104a5fb6f4eb0703f3154bb3db0909101805493909216921691909117905550620001de92505050565b3390565b615c5a80620001ee6000396000f3fe6080604052600436106102725760003560e01c806389a6072c1161014f578063c45a0155116100c1578063e8e337001161007a578063e8e3370014610f36578063ee41be8e14610f98578063efd06f2e1461101c578063f1844a2514611062578063f2fde38b14611077578063f7c618c1146110aa57610272565b8063c45a015514610d39578063c5746a6e14610d4e578063d2b364c614610dab578063da72c1e814610e6b578063dbdfc62514610eae578063e12ed13c14610f2157610272565b806396ed28f91161011357806396ed28f914610b93578063a9fb763c14610bce578063ad615dec14610bf8578063baa2abde14610c2e578063bbee6c2914610c8b578063c08c2c2514610d0f57610272565b806389a6072c14610a8b5780638aee812714610aa05780638da5cb5b14610ad35780638e750db914610ae85780638f32d59b14610b7e57610272565b80634e5eda11116101e85780635cb48592116101ac5780635cb48592146108de57806366f9e64b146108f3578063715018a61461091d57806378b8d735146109325780637e87ffe8146109e05780638803dbee146109f557610272565b80634e5eda11146107ce5780634f887183146107e35780635710207c14610816578063575815111461082b57806358956d411461085e57610272565b80632195995c1161023a5780632195995c146105a257806325c9e276146106205780632c9115c71461065157806338ed17391461067b5780633eabf55f146107115780634cc94ba1146107a757610272565b8063048b60941461029d5780630520b290146102fa5780630c49bd13146103e057806314e5207b146104a05780631da81f621461050c575b6002546001600160a01b031633148061029557506004546001600160a01b031633145b61029b57fe5b005b3480156102a957600080fd5b506102e6600480360360808110156102c057600080fd5b506001600160a01b038135811691602081013582169160408201351690606001356110bf565b604080519115158252519081900360200190f35b34801561030657600080fd5b50610390600480360360a081101561031d57600080fd5b813591602081013591810190606081016040820135600160201b81111561034357600080fd5b82018360208201111561035557600080fd5b803590602001918460208302840111600160201b8311171561037657600080fd5b91935091506001600160a01b0381351690602001356111a8565b60408051602080825283518183015283519192839290830191858101910280838360005b838110156103cc5781810151838201526020016103b4565b505050509050019250505060405180910390f35b3480156103ec57600080fd5b506103906004803603606081101561040357600080fd5b81359190810190604081016020820135600160201b81111561042457600080fd5b82018360208201111561043657600080fd5b803590602001918460208302840111600160201b8311171561045757600080fd5b919080806020026020016040519081016040528093929190818152602001838360200280828437600092019190915250929550505090356001600160a01b031691506112bb9050565b3480156104ac57600080fd5b506104f3600480360360c08110156104c357600080fd5b506001600160a01b0381358116916020810135916040820135916060810135916080820135169060a00135611425565b6040805192835260208301919091528051918290030190f35b34801561051857600080fd5b50610390600480360360a081101561052f57600080fd5b813591602081013591810190606081016040820135600160201b81111561055557600080fd5b82018360208201111561056757600080fd5b803590602001918460208302840111600160201b8311171561058857600080fd5b91935091506001600160a01b038135169060200135611539565b3480156105ae57600080fd5b506104f360048036036101608110156105c657600080fd5b506001600160a01b038135811691602081013582169160408201359160608101359160808201359160a08101359091169060c08101359060e081013515159060ff61010082013516906101208101359061014001356115c1565b34801561062c57600080fd5b5061063561169a565b604080516001600160a01b039092168252519081900360200190f35b34801561065d57600080fd5b506106356004803603602081101561067457600080fd5b50356116a9565b34801561068757600080fd5b50610390600480360360a081101561069e57600080fd5b813591602081013591810190606081016040820135600160201b8111156106c457600080fd5b8201836020820111156106d657600080fd5b803590602001918460208302840111600160201b831117156106f757600080fd5b91935091506001600160a01b0381351690602001356116d0565b34801561071d57600080fd5b50610390600480360360a081101561073457600080fd5b813591602081013591810190606081016040820135600160201b81111561075a57600080fd5b82018360208201111561076c57600080fd5b803590602001918460208302840111600160201b8311171561078d57600080fd5b91935091506001600160a01b038135169060200135611993565b3480156107b357600080fd5b506107bc611a1b565b60408051918252519081900360200190f35b3480156107da57600080fd5b50610635611a21565b3480156107ef57600080fd5b5061029b6004803603602081101561080657600080fd5b50356001600160a01b0316611a30565b34801561082257600080fd5b50610635611a99565b34801561083757600080fd5b5061029b6004803603602081101561084e57600080fd5b50356001600160a01b0316611aa8565b34801561086a57600080fd5b506108c0600480360361010081101561088257600080fd5b506001600160a01b038135811691602081013582169160408201359160608101359160808201359160a08101359160c0820135169060e00135611b41565b60408051938452602084019290925282820152519081900360600190f35b3480156108ea57600080fd5b50610635611d55565b3480156108ff57600080fd5b5061029b6004803603602081101561091657600080fd5b5035611d64565b34801561092957600080fd5b5061029b611db0565b34801561093e57600080fd5b5061029b6004803603602081101561095557600080fd5b810190602081018135600160201b81111561096f57600080fd5b82018360208201111561098157600080fd5b803590602001918460208302840111600160201b831117156109a257600080fd5b919080806020026020016040519081016040528093929190818152602001838360200280828437600092019190915250929550611e41945050505050565b3480156109ec57600080fd5b506107bc611f2e565b348015610a0157600080fd5b50610390600480360360a0811015610a1857600080fd5b813591602081013591810190606081016040820135600160201b811115610a3e57600080fd5b820183602082011115610a5057600080fd5b803590602001918460208302840111600160201b83111715610a7157600080fd5b91935091506001600160a01b038135169060200135611f34565b348015610a9757600080fd5b506107bc612186565b348015610aac57600080fd5b5061029b60048036036020811015610ac357600080fd5b50356001600160a01b031661218c565b348015610adf57600080fd5b506106356121f5565b348015610af457600080fd5b50610390600480360360a0811015610b0b57600080fd5b813591602081013591810190606081016040820135600160201b811115610b3157600080fd5b820183602082011115610b4357600080fd5b803590602001918460208302840111600160201b83111715610b6457600080fd5b91935091506001600160a01b038135169060200135612204565b348015610b8a57600080fd5b506102e661230b565b348015610b9f57600080fd5b5061063560048036036040811015610bb657600080fd5b506001600160a01b038135811691602001351661232f565b348015610bda57600080fd5b506107bc60048036036020811015610bf157600080fd5b50356123bb565b348015610c0457600080fd5b506107bc60048036036060811015610c1b57600080fd5b508035906020810135906040013561246d565b348015610c3a57600080fd5b506104f3600480360360e0811015610c5157600080fd5b506001600160a01b038135811691602081013582169160408201359160608101359160808201359160a08101359091169060c001356124fb565b61039060048036036080811015610ca157600080fd5b81359190810190604081016020820135600160201b811115610cc257600080fd5b820183602082011115610cd457600080fd5b803590602001918460208302840111600160201b83111715610cf557600080fd5b91935091506001600160a01b0381351690602001356127a8565b348015610d1b57600080fd5b5061029b60048036036020811015610d3257600080fd5b50356128b5565b348015610d4557600080fd5b50610635612958565b348015610d5a57600080fd5b506104f3600480360360e0811015610d7157600080fd5b506001600160a01b038135811691602081013582169160408201359160608101359160808201359160a08101359091169060c00135612967565b348015610db757600080fd5b5061039060048036036060811015610dce57600080fd5b81359190810190604081016020820135600160201b811115610def57600080fd5b820183602082011115610e0157600080fd5b803590602001918460208302840111600160201b83111715610e2257600080fd5b919080806020026020016040519081016040528093929190818152602001838360200280828437600092019190915250929550505090356001600160a01b03169150612c5b9050565b348015610e7757600080fd5b5061029b60048036036060811015610e8e57600080fd5b506001600160a01b03813581169160208101359091169060400135612ccd565b348015610eba57600080fd5b506104f36004803603610140811015610ed257600080fd5b506001600160a01b0381358116916020810135916040820135916060810135916080820135169060a08101359060c081013515159060ff60e08201351690610100810135906101200135612d42565b348015610f2d57600080fd5b506107bc612e24565b348015610f4257600080fd5b506108c06004803603610100811015610f5a57600080fd5b506001600160a01b038135811691602081013582169160408201359160608101359160808201359160a08101359160c0820135169060e00135612e2a565b61039060048036036080811015610fae57600080fd5b81359190810190604081016020820135600160201b811115610fcf57600080fd5b820183602082011115610fe157600080fd5b803590602001918460208302840111600160201b8311171561100257600080fd5b91935091506001600160a01b038135169060200135612f10565b6108c0600480360360c081101561103257600080fd5b506001600160a01b0381358116916020810135916040820135916060810135916080820135169060a00135613012565b34801561106e57600080fd5b506107bc61322d565b34801561108357600080fd5b5061029b6004803603602081101561109a57600080fd5b50356001600160a01b0316613233565b3480156110b657600080fd5b50610635613286565b6000806110cc868661232f565b9050336001600160a01b0382161461111c576040805162461bcd60e51b815260206004820152600e60248201526d1c185a5c881b9bdd08195c5d585b60921b604482015290519081900360640190fd5b600a54604080516340c10f1960e01b81526001600160a01b03878116600483015260248201879052915191909216916340c10f199160448083019260209291908290030181600087803b15801561117257600080fd5b505af1158015611186573d6000803e3d6000fd5b505050506040513d602081101561119c57600080fd5b50519695505050505050565b606081428110156111ee576040805162461bcd60e51b81526020600482015260156024820152600080516020615b55833981519152604482015290519081900360640190fd5b6002546001600160a01b03168686600019810181811061120a57fe5b905060200201356001600160a01b03166001600160a01b03161461126c576040805162461bcd60e51b81526020600482015260146024820152730a4deeae8cae47440929cac82989288bea082a8960631b604482015290519081900360640190fd5b6112af888888888080602002602001604051908101604052809392919081815260200183836020028082843760009201829052508b93508a925090506001613295565b98975050505050505050565b600154604051630c49bd1360e01b8152600481018581526001600160a01b03848116604484015260606024840181815287516064860152875191959290921693630c49bd1393899389938993608401906020808701910280838360005b83811015611330578181015183820152602001611318565b5050505090500194505050505060006040518083038186803b15801561135557600080fd5b505afa158015611369573d6000803e3d6000fd5b505050506040513d6000823e601f3d908101601f19168201604052602081101561139257600080fd5b8101908080516040519392919084600160201b8211156113b157600080fd5b9083019060208201858111156113c657600080fd5b82518660208202830111600160201b821117156113e257600080fd5b82525081516020918201928201910280838360005b8381101561140f5781810151838201526020016113f7565b5050505090500160405250505090509392505050565b600080824281101561146c576040805162461bcd60e51b81526020600482015260156024820152600080516020615b55833981519152604482015290519081900360640190fd5b611474615963565b61147d8a6136e8565b6001600160a01b03166101808201819052611497906137b6565b60808201526004546114b1906001600160a01b03166137b6565b60c082015260808101516000906114c9908a90613933565b905060006114db898460c00151613933565b6101808401516004549192506000918291611503916001600160a01b03168f8787308f6124fb565b610180870151919350915061151a908f8c85613966565b97506115268a82613990565b9650505050505050965096945050505050565b6060814281101561157f576040805162461bcd60e51b81526020600482015260156024820152600080516020615b55833981519152604482015290519081900360640190fd5b6112af888888888080602002602001604051908101604052809392919081815260200183836020028082843760009201829052508b93508a9250905080613295565b60008060006115d08e8e61232f565b90506000876115df578c6115e3565b6000195b6040805163d505accf60e01b815233600482015230602482015260448101839052606481018c905260ff8a16608482015260a4810189905260c4810188905290519192506001600160a01b0384169163d505accf9160e48082019260009290919082900301818387803b15801561165957600080fd5b505af115801561166d573d6000803e3d6000fd5b505050506116808f8f8f8f8f8f8f6124fb565b809450819550505050509b509b9950505050505050505050565b6006546001600160a01b031681565b600581815481106116b657fe5b6000918252602090912001546001600160a01b0316905081565b60608142811015611716576040805162461bcd60e51b81526020600482015260156024820152600080516020615b55833981519152604482015290519081900360640190fd5b60606117548787808060200260200160405190810160405280939291908181526020018383602002808284376000920191909152506139ae92505050565b600154604051636959b26360e11b8152600481018c81526001600160a01b03898116604484015260606024840190815285516064850152855195965093169363d2b364c6938e9387938c93909291608401906020808701910280838360005b838110156117cb5781810151838201526020016117b3565b5050505090500194505050505060006040518083038186803b1580156117f057600080fd5b505afa158015611804573d6000803e3d6000fd5b505050506040513d6000823e601f3d908101601f19168201604052602081101561182d57600080fd5b8101908080516040519392919084600160201b82111561184c57600080fd5b90830190602082018581111561186157600080fd5b82518660208202830111600160201b8211171561187d57600080fd5b82525081516020918201928201910280838360005b838110156118aa578181015183820152602001611892565b50505050905001604052505050925087836001855103815181106118ca57fe5b6020026020010151101561190f5760405162461bcd60e51b8152600401808060200182810382526022815260200180615b9a6022913960400191505060405180910390fd5b61197c8787600081811061191f57fe5b905060200201356001600160a01b0316336119628460008151811061194057fe5b60200260200101518560018151811061195557fe5b602002602001015161232f565b8660008151811061196f57fe5b6020026020010151613a3a565b611987838287613b97565b50509695505050505050565b606081428110156119d9576040805162461bcd60e51b81526020600482015260156024820152600080516020615b55833981519152604482015290519081900360640190fd5b6112af888888888080602002602001604051908101604052809392919081815260200183836020028082843760009201829052508b93508a92509050806140b6565b60075481565b6003546001600160a01b031681565b611a3861230b565b611a77576040805162461bcd60e51b81526020600482018190526024820152600080516020615b05833981519152604482015290519081900360640190fd5b600380546001600160a01b0319166001600160a01b0392909216919091179055565b6004546001600160a01b031681565b611ab061230b565b611aef576040805162461bcd60e51b81526020600482018190526024820152600080516020615b05833981519152604482015290519081900360640190fd5b600580546001810182556000919091527f036b6384b5eca791c62761152d0c79bb0604c104a5fb6f4eb0703f3154bb3db00180546001600160a01b0319166001600160a01b0392909216919091179055565b60008060008342811015611b8a576040805162461bcd60e51b81526020600482015260156024820152600080516020615b55833981519152604482015290519081900360640190fd5b611b92615963565b611b9b8d61440e565b6001600160a01b0316610180820152611bb38c61440e565b6001600160a01b039081166101a08301528d81166101408301528c16610160820152610180810151611be4906137b6565b60808201526101a0810151611bf8906137b6565b60a08201526080810151611c0d908c90613933565b815260a0810151611c1f908b90613933565b60208201526080810151611c34908a90613933565b604082015260a0810151611c49908990613933565b6060820152611c57816144e9565b61010083015260e08201526000611c6e8e8e61232f565b9050611c828260e0015183608001516148b0565b9550611c978261010001518360a001516148b0565b9450611caa8e83610180015183896148ce565b611cbb8d836101a0015183886148ce565b806001600160a01b0316636a627842896040518263ffffffff1660e01b815260040180826001600160a01b03166001600160a01b03168152602001915050602060405180830381600087803b158015611d1357600080fd5b505af1158015611d27573d6000803e3d6000fd5b505050506040513d6020811015611d3d57600080fd5b5051959e949d50949b50929950505050505050505050565b6002546001600160a01b031681565b611d6c61230b565b611dab576040805162461bcd60e51b81526020600482018190526024820152600080516020615b05833981519152604482015290519081900360640190fd5b600b55565b611db861230b565b611df7576040805162461bcd60e51b81526020600482018190526024820152600080516020615b05833981519152604482015290519081900360640190fd5b600080546040516001600160a01b03909116907f8be0079c531659141344cd1fd0a4f28419497f9722a3daafe3b4186f6b6457e0908390a3600080546001600160a01b0319169055565b611e4961230b565b611e88576040805162461bcd60e51b81526020600482018190526024820152600080516020615b05833981519152604482015290519081900360640190fd5b60005b600554811015611eca576005805480611ea057fe5b600082815260209020810160001990810180546001600160a01b0319169055019055600101611e8b565b5060005b8151811015611f2a576005828281518110611ee557fe5b60209081029190910181015182546001808201855560009485529290932090920180546001600160a01b0319166001600160a01b039093169290921790915501611ece565b5050565b600c5481565b60608142811015611f7a576040805162461bcd60e51b81526020600482015260156024820152600080516020615b55833981519152604482015290519081900360640190fd5b6060611fb88787808060200260200160405190810160405280939291908181526020018383602002808284376000920191909152506139ae92505050565b600154604051630c49bd1360e01b8152600481018c81526001600160a01b038981166044840152606060248401908152855160648501528551959650931693630c49bd13938e9387938c93909291608401906020808701910280838360005b8381101561202f578181015183820152602001612017565b5050505090500194505050505060006040518083038186803b15801561205457600080fd5b505afa158015612068573d6000803e3d6000fd5b505050506040513d6000823e601f3d908101601f19168201604052602081101561209157600080fd5b8101908080516040519392919084600160201b8211156120b057600080fd5b9083019060208201858111156120c557600080fd5b82518660208202830111600160201b821117156120e157600080fd5b82525081516020918201928201910280838360005b8381101561210e5781810151838201526020016120f6565b505050509050016040525050509250878360008151811061212b57fe5b6020026020010151111561190f576040805162461bcd60e51b815260206004820152601e60248201527f526f757465723a204558434553534956455f494e5055545f414d4f554e540000604482015290519081900360640190fd5b60085481565b61219461230b565b6121d3576040805162461bcd60e51b81526020600482018190526024820152600080516020615b05833981519152604482015290519081900360640190fd5b600a80546001600160a01b0319166001600160a01b0392909216919091179055565b6000546001600160a01b031690565b6060814281101561224a576040805162461bcd60e51b81526020600482015260156024820152600080516020615b55833981519152604482015290519081900360640190fd5b6002546001600160a01b03168686600019810181811061226657fe5b905060200201356001600160a01b03166001600160a01b0316146122c8576040805162461bcd60e51b81526020600482015260146024820152730a4deeae8cae47440929cac82989288bea082a8960631b604482015290519081900360640190fd5b6112af888888888080602002602001604051908101604052809392919081815260200183836020028082843760009201829052508b93508a9250905060016140b6565b600080546001600160a01b0316612320614ab5565b6001600160a01b031614905090565b6001546040805163e6a4390560e01b81526001600160a01b03858116600483015284811660248301529151600093929092169163e6a4390591604480820192602092909190829003018186803b15801561238857600080fd5b505afa15801561239c573d6000803e3d6000fd5b505050506040513d60208110156123b257600080fd5b50519392505050565b600a546000906001600160a01b031615806123d65750600c54155b156123e357506000612468565b600a54600b546040805163a4fa8d5760e01b8152600481019290925260248201859052516001600160a01b039092169163a4fa8d5791604480820192602092909190829003018186803b15801561243957600080fd5b505afa15801561244d573d6000803e3d6000fd5b505050506040513d602081101561246357600080fd5b505190505b919050565b60015460408051632b58577b60e21b815260048101869052602481018590526044810184905290516000926001600160a01b03169163ad615dec916064808301926020929190829003018186803b1580156124c757600080fd5b505afa1580156124db573d6000803e3d6000fd5b505050506040513d60208110156124f157600080fd5b5051949350505050565b6000808242811015612542576040805162461bcd60e51b81526020600482015260156024820152600080516020615b55833981519152604482015290519081900360640190fd5b600061254e8b8b61232f565b604080516323b872dd60e01b81523360048201526001600160a01b03831660248201819052604482018d9052915192935090916323b872dd916064808201926020929091908290030181600087803b1580156125a957600080fd5b505af11580156125bd573d6000803e3d6000fd5b505050506040513d60208110156125d357600080fd5b50506040805163226bf2d160e21b81526001600160a01b03888116600483015282516000938493928616926389afcb44926024808301939282900301818787803b15801561262057600080fd5b505af1158015612634573d6000803e3d6000fd5b505050506040513d604081101561264a57600080fd5b508051602090910151909250905060006126638e614ab9565b905060006126708e614ab9565b60015460408051632a26552b60e11b81526001600160a01b0386811660048301528085166024830152825194955060009493169263544caa5692604480840193919291829003018186803b1580156126c757600080fd5b505afa1580156126db573d6000803e3d6000fd5b505050506040513d60408110156126f157600080fd5b505190506001600160a01b038381169082161461270f578385612712565b84845b90995097508c8910156127565760405162461bcd60e51b8152600401808060200182810382526026815260200180615a686026913960400191505060405180910390fd5b8b8810156127955760405162461bcd60e51b8152600401808060200182810382526026815260200180615a426026913960400191505060405180910390fd5b5050505050505097509795505050505050565b606081428110156127ee576040805162461bcd60e51b81526020600482015260156024820152600080516020615b55833981519152604482015290519081900360640190fd5b6002546001600160a01b0316868660008161280557fe5b905060200201356001600160a01b03166001600160a01b031614612867576040805162461bcd60e51b81526020600482015260146024820152730a4deeae8cae47440929cac82989288bea082a8960631b604482015290519081900360640190fd5b6128aa873488888080602002602001604051908101604052809392919081815260200183836020028082843760009201829052508b93508a925060019150613295565b979650505050505050565b6128bd61230b565b6128fc576040805162461bcd60e51b81526020600482018190526024820152600080516020615b05833981519152604482015290519081900360640190fd5b8015806129095750806001145b612953576040805162461bcd60e51b8152602060048201526016602482015275696e76616c696420706172616d20666565416c6c6f6360501b604482015290519081900360640190fd5b600c55565b6001546001600160a01b031681565b60008082428110156129ae576040805162461bcd60e51b81526020600482015260156024820152600080516020615b55833981519152604482015290519081900360640190fd5b60006129ba8b8b61232f565b604080516323b872dd60e01b81523360048201526001600160a01b03831660248201819052604482018d9052915192935090916323b872dd916064808201926020929091908290030181600087803b158015612a1557600080fd5b505af1158015612a29573d6000803e3d6000fd5b505050506040513d6020811015612a3f57600080fd5b50612a4a9050615963565b6001600160a01b03808d166101408301528b81166101608301526040805163226bf2d160e21b815230600482015281516000938493908716926389afcb44926024808301939282900301818787803b158015612aa557600080fd5b505af1158015612ab9573d6000803e3d6000fd5b505050506040513d6040811015612acf57600080fd5b50805160209091015160015461014086015161016087015160408051632a26552b60e11b81526001600160a01b03938416600482015291831660248301528051959750939550600094919092169263544caa569260448082019391829003018186803b158015612b3e57600080fd5b505afa158015612b52573d6000803e3d6000fd5b505050506040513d6040811015612b6857600080fd5b505190506001600160a01b038f811690821614612b86578183612b89565b82825b61010086015260e085015250612bb19150612ba590508d6136e8565b8d898460e00151613966565b9450612bcc612bbf8c6136e8565b8c89846101000151613966565b935088851015612c0d5760405162461bcd60e51b8152600401808060200182810382526030815260200180615ab46030913960400191505060405180910390fd5b87841015612c4c5760405162461bcd60e51b8152600401808060200182810382526030815260200180615b256030913960400191505060405180910390fd5b50505097509795505050505050565b600154604051636959b26360e11b8152600481018581526001600160a01b0384811660448401526060602484018181528751606486015287519195929092169363d2b364c693899389938993608401906020868101910280838360008315611330578181015183820152602001611318565b612cd561230b565b612d14576040805162461bcd60e51b81526020600482018190526024820152600080516020615b05833981519152604482015290519081900360640190fd5b6001600160a01b038316612d3157612d2c8282614b86565b612d3d565b612d3d83308484613a3a565b505050565b60025460009081908190612d60908e906001600160a01b031661232f565b9050600087612d6f578c612d73565b6000195b6040805163d505accf60e01b815233600482015230602482015260448101839052606481018c905260ff8a16608482015260a4810189905260c4810188905290519192506001600160a01b0384169163d505accf9160e48082019260009290919082900301818387803b158015612de957600080fd5b505af1158015612dfd573d6000803e3d6000fd5b50505050612e0f8e8e8e8e8e8e611425565b909f909e509c50505050505050505050505050565b60095481565b60008060008342811015612e73576040805162461bcd60e51b81526020600482015260156024820152600080516020615b55833981519152604482015290519081900360640190fd5b612e7b615963565b8a8152602081018a905260408101899052606081018890526001600160a01b03808e166101808301528c166101a0820152612eb58d614ab9565b6001600160a01b0316610140820152612ecd8c614ab9565b6001600160a01b0316610160820152612ee5816144e9565b90955093506000612ef68e8e61232f565b9050612f048e338389613a3a565b611cbb8d338388613a3a565b60608142811015612f56576040805162461bcd60e51b81526020600482015260156024820152600080516020615b55833981519152604482015290519081900360640190fd5b6002546001600160a01b03168686600081612f6d57fe5b905060200201356001600160a01b03166001600160a01b031614612fcf576040805162461bcd60e51b81526020600482015260146024820152730a4deeae8cae47440929cac82989288bea082a8960631b604482015290519081900360640190fd5b6128aa348888888080602002602001604051908101604052809392919081815260200183836020028082843760009201829052508b93508a9250600191506140b6565b6000806000834281101561305b576040805162461bcd60e51b81526020600482015260156024820152600080516020615b55833981519152604482015290519081900360640190fd5b60006130668b61440e565b9050613070615963565b613079826137b6565b6080820152600454613093906001600160a01b03166137b6565b60a082015260808101516130a8908c90613933565b815260a08101516130ba903490613933565b602082015260808101516130cf908b90613933565b604082015260a08101516130e4908a90613933565b60608201526001600160a01b0380831661018083015260045481166101a08301528c811661014083015260025416610160820152600080613124836144e9565b9150915060006131498f600260009054906101000a90046001600160a01b031661232f565b90506131598385608001516148b0565b9850613169828560a001516148b0565b97506131778f86838c6148ce565b6131818189614c79565b806001600160a01b0316636a6278428c6040518263ffffffff1660e01b815260040180826001600160a01b03166001600160a01b03168152602001915050602060405180830381600087803b1580156131d957600080fd5b505af11580156131ed573d6000803e3d6000fd5b505050506040513d602081101561320357600080fd5b505196503488101561321b5761321b33893403614b86565b50505050505096509650969350505050565b600b5481565b61323b61230b565b61327a576040805162461bcd60e51b81526020600482018190526024820152600080516020615b05833981519152604482015290519081900360640190fd5b61328381614d80565b50565b600a546001600160a01b031681565b606083428110156132db576040805162461bcd60e51b81526020600482015260156024820152600080516020615b55833981519152604482015290519081900360640190fd5b60606132e688614e20565b90506132f06159f6565b61330d8260008151811061330057fe5b60200260200101516137b6565b81528851825161332891849160001990910190811061330057fe5b6020820181905260009061333d908d90613933565b90506060600160009054906101000a90046001600160a01b03166001600160a01b0316630c49bd13838d8d6040518463ffffffff1660e01b81526004018084815260200180602001836001600160a01b03166001600160a01b03168152602001828103825284818151815260200191508051906020019060200280838360005b838110156133d55781810151838201526020016133bd565b5050505090500194505050505060006040518083038186803b1580156133fa57600080fd5b505afa15801561340e573d6000803e3d6000fd5b505050506040513d6000823e601f3d908101601f19168201604052602081101561343757600080fd5b8101908080516040519392919084600160201b82111561345657600080fd5b90830190602082018581111561346b57600080fd5b82518660208202830111600160201b8211171561348757600080fd5b82525081516020918201928201910280838360005b838110156134b457818101518382015260200161349c565b5050505090500160405250505090506134e5816000815181106134d357fe5b602002602001015184600001516148b0565b604084018190526134fd90600163ffffffff614ea516565b604084018190528c1015613558576040805162461bcd60e51b815260206004820152601e60248201527f526f757465723a204558434553534956455f494e5055545f414d4f554e540000604482015290519081900360640190fd5b8715613595576135906135868c60008151811061357157fe5b60200260200101518d60018151811061195557fe5b8460400151614c79565b6135f1565b6135f18b6000815181106135a557fe5b6020026020010151856000815181106135ba57fe5b60200260200101516135e78e6000815181106135d257fe5b60200260200101518f60018151811061195557fe5b86604001516148ce565b6135fc818c30613b97565b8a5160001901871561362b576136258b83838151811061361857fe5b6020026020010151613990565b50613672565b61367085828151811061363a57fe5b60200260200101518d838151811061364e57fe5b60200260200101518d85858151811061366357fe5b6020026020010151613966565b505b8b5160405190808252806020026020018201604052801561369d578160200160208202803883390190505b5096508360400151876000815181106136b257fe5b6020026020010181815250508d8782815181106136cb57fe5b602002602001018181525050505050505050979650505050505050565b6006546040805163714bca1f60e11b81526001600160a01b0384811660048301529151600093929092169163e297943e91602480820192602092909190829003018186803b15801561373957600080fd5b505afa15801561374d573d6000803e3d6000fd5b505050506040513d602081101561376357600080fd5b505190506001600160a01b038116612468576040805162461bcd60e51b815260206004820152601160248201527019d95d08195d1bdad95b8819985a5b1959607a1b604482015290519081900360640190fd5b600080826001600160a01b031663182df0f56040518163ffffffff1660e01b815260040160206040518083038186803b1580156137f257600080fd5b505afa158015613806573d6000803e3d6000fd5b505050506040513d602081101561381c57600080fd5b505160408051630ae9d70b60e41b815290519192506000916001600160a01b0386169163ae9d70b0916004808301926020929190829003018186803b15801561386457600080fd5b505afa158015613878573d6000803e3d6000fd5b505050506040513d602081101561388e57600080fd5b505160408051636c540baf60e01b815290519192506000916001600160a01b03871691636c540baf916004808301926020929190829003018186803b1580156138d657600080fd5b505afa1580156138ea573d6000803e3d6000fd5b505050506040513d602081101561390057600080fd5b505190506139274382900361391b858563ffffffff614eff16565b9063ffffffff614eff16565b90920192505050919050565b600061395d8261395185670de0b6b3a764000063ffffffff614eff16565b9063ffffffff614f5816565b90505b92915050565b600080613974868685614f9a565b9050801561398757613987858583615060565b95945050505050565b60008061399c836151c3565b9050801561395d5761395d8482614b86565b60608082516040519080825280602002602001820160405280156139dc578160200160208202803883390190505b50905060005b8351811015613a3357613a078482815181106139fa57fe5b6020026020010151614ab9565b828281518110613a1357fe5b6001600160a01b03909216602092830291909101909101526001016139e2565b5092915050565b604080516001600160a01b0385811660248301528481166044830152606480830185905283518084039091018152608490920183526020820180516001600160e01b03166323b872dd60e01b17815292518251600094606094938a169392918291908083835b60208310613abf5780518252601f199092019160209182019101613aa0565b6001836020036101000a0380198251168184511680821785525050505050509050019150506000604051808303816000865af19150503d8060008114613b21576040519150601f19603f3d011682016040523d82523d6000602084013e613b26565b606091505b5091509150818015613b54575080511580613b545750808060200190516020811015613b5157600080fd5b50515b613b8f5760405162461bcd60e51b8152600401808060200182810382526024815260200180615bdf6024913960400191505060405180910390fd5b505050505050565b600154604080516370e264b360e11b815290516000926001600160a01b03169163e1c4c966916004808301926020929190829003018186803b158015613bdc57600080fd5b505afa158015613bf0573d6000803e3d6000fd5b505050506040513d6020811015613c0657600080fd5b5051905060005b60018451038110156140af57600080858381518110613c2857fe5b6020026020010151868460010181518110613c3f57fe5b602090810291909101015160015460408051632a26552b60e11b81526001600160a01b03808616600483015280851660248301528251959750939550600094939092169263544caa56926044808201939291829003018186803b158015613ca557600080fd5b505afa158015613cb9573d6000803e3d6000fd5b505050506040513d6040811015613ccf57600080fd5b505160015488519192506000916001600160a01b039091169063e6a43905908a9088908110613cfa57fe5b60200260200101518a8860010181518110613d1157fe5b60200260200101516040518363ffffffff1660e01b815260040180836001600160a01b03166001600160a01b03168152602001826001600160a01b03166001600160a01b031681526020019250505060206040518083038186803b158015613d7857600080fd5b505afa158015613d8c573d6000803e3d6000fd5b505050506040513d6020811015613da257600080fd5b505189519091506000908a9060018801908110613dbb57fe5b60200260200101519050600080846001600160a01b0316876001600160a01b031614613de957826000613ded565b6000835b91509150600060028c51038910613e04578a613e17565b613e17878d8b6002018151811061195557fe5b9050600c5460011415613f7b576000613e3189878d615297565b90508015613e4257613e428161576e565b6003546001600160a01b031615613ee4576003546040805163152cf14360e31b81523360048201526001600160a01b038c811660248301528b81166044830152606482018590529151919092169163a9678a189160848083019260209291908290030181600087803b158015613eb757600080fd5b505af1158015613ecb573d6000803e3d6000fd5b505050506040513d6020811015613ee157600080fd5b50505b613eee898961232f565b6001600160a01b0316630442a865858585856040518563ffffffff1660e01b815260040180858152602001848152602001836001600160a01b03166001600160a01b03168152602001828152602001945050505050600060405180830381600087803b158015613f5d57600080fd5b505af1158015613f71573d6000803e3d6000fd5b505050505061409b565b613f85888861232f565b6001600160a01b031663022c0d9f84848460006040519080825280601f01601f191660200182016040528015613fc2576020820181803883390190505b506040518563ffffffff1660e01b815260040180858152602001848152602001836001600160a01b03166001600160a01b0316815260200180602001828103825283818151815260200191508051906020019080838360005b8381101561403357818101518382015260200161401b565b50505050905090810190601f1680156140605780820380516001836020036101000a031916815260200191505b5095505050505050600060405180830381600087803b15801561408257600080fd5b505af1158015614096573d6000803e3d6000fd5b505050505b505060019096019550613c0d945050505050565b5050505050565b606083428110156140fc576040805162461bcd60e51b81526020600482015260156024820152600080516020615b55833981519152604482015290519081900360640190fd5b606061410788614e20565b90506141116159f6565b8a81604001818152505061412b8260008151811061330057fe5b8152815161413e90839060009061330057fe5b60208201528051600090614153908d90613933565b90506060600160009054906101000a90046001600160a01b03166001600160a01b031663d2b364c6838d8d6040518463ffffffff1660e01b81526004018084815260200180602001836001600160a01b03166001600160a01b03168152602001828103825284818151815260200191508051906020019060200280838360005b838110156141eb5781810151838201526020016141d3565b5050505090500194505050505060006040518083038186803b15801561421057600080fd5b505afa158015614224573d6000803e3d6000fd5b505050506040513d6000823e601f3d908101601f19168201604052602081101561424d57600080fd5b8101908080516040519392919084600160201b82111561426c57600080fd5b90830190602082018581111561428157600080fd5b82518660208202830111600160201b8211171561429d57600080fd5b82525081516020918201928201910280838360005b838110156142ca5781810151838201526020016142b2565b5050505090500160405250505090506142fe816001835103815181106142ec57fe5b602002602001015184602001516148b0565b606084018190528c11156143435760405162461bcd60e51b8152600401808060200182810382526022815260200180615b9a6022913960400191505060405180910390fd5b87156143675761436261435c8c60008151811061357157fe5b8e614c79565b614377565b6143778b6000815181106135a557fe5b614382818c30613b97565b8a516000190187156143a45761439e8b83838151811061361857fe5b506143b5565b6143b385828151811061363a57fe5b505b8b516040519080825280602002602001820160405280156143e0578160200160208202803883390190505b5096508d876000815181106143f157fe5b60200260200101818152505083606001518782815181106136cb57fe5b600654604080516326c7bd9360e01b81526001600160a01b038481166004830152915160009392909216916326c7bd939160248082019260209290919082900301818787803b15801561446057600080fd5b505af1158015614474573d6000803e3d6000fd5b505050506040513d602081101561448a57600080fd5b505190506001600160a01b038116612468576040805162461bcd60e51b815260206004820152601b60248201527f676574206f72206372656174652065746f6b656e206661696c65640000000000604482015290519081900360640190fd5b6101808101516101a0820151825160208085015160408087015160608801516101408901516101608a0151600154855163e6a4390560e01b81526001600160a01b0380851660048301528084166024830152965160009c8d9c909b909a9099988d94169263e6a439059260448083019392829003018186803b15801561456e57600080fd5b505afa158015614582573d6000803e3d6000fd5b505050506040513d602081101561459857600080fd5b50516001600160a01b0316141561463d57600154604080516304da8eeb60e41b81526001600160a01b03858116600483015284811660248301528b811660448301528a8116606483015291519190921691634da8eeb09160848083019260209291908290030181600087803b15801561461057600080fd5b505af1158015614624573d6000803e3d6000fd5b505050506040513d602081101561463a57600080fd5b50505b6001546040805163354aedbd60e21b81526001600160a01b03858116600483015284811660248301528251600094859492169263d52bb6f4926044808301939192829003018186803b15801561469257600080fd5b505afa1580156146a6573d6000803e3d6000fd5b505050506040513d60408110156146bc57600080fd5b5080516020909101519092509050811580156146d6575080155b156146ea578787809c50819d5050506148a1565b60015460408051632b58577b60e21b8152600481018b9052602481018590526044810184905290516000926001600160a01b03169163ad615dec916064808301926020929190829003018186803b15801561474457600080fd5b505afa158015614758573d6000803e3d6000fd5b505050506040513d602081101561476e57600080fd5b505190508781116147c657858110156147b85760405162461bcd60e51b8152600401808060200182810382526023815260200180615a1f6023913960400191505060405180910390fd5b979b509699508a968a61489f565b60015460408051632b58577b60e21b8152600481018b9052602481018590526044810186905290516000926001600160a01b03169163ad615dec916064808301926020929190829003018186803b15801561482057600080fd5b505afa158015614834573d6000803e3d6000fd5b505050506040513d602081101561484a57600080fd5b505190508981111561485857fe5b878110156148975760405162461bcd60e51b8152600401808060200182810382526023815260200180615c036023913960400191505060405180910390fd5b9c50969a508a965b505b50505050505050505050915091565b600061395d670de0b6b3a7640000613951858563ffffffff614eff16565b6148da84333084613a3a565b836001600160a01b031663095ea7b384836040518363ffffffff1660e01b815260040180836001600160a01b03166001600160a01b0316815260200182815260200192505050602060405180830381600087803b15801561493a57600080fd5b505af115801561494e573d6000803e3d6000fd5b505050506040513d602081101561496457600080fd5b50506040805163140e25ad60e31b815260048101839052815160009283926001600160a01b0388169263a0712d689260248084019391929182900301818787803b1580156149b157600080fd5b505af11580156149c5573d6000803e3d6000fd5b505050506040513d60408110156149db57600080fd5b5080516020918201516040805163095ea7b360e01b81526001600160a01b038a16600482018190526000602483018190529251949750929550919363095ea7b393604480850194929391928390030190829087803b158015614a3c57600080fd5b505af1158015614a50573d6000803e3d6000fd5b505050506040513d6020811015614a6657600080fd5b50508115614aa9576040805162461bcd60e51b815260206004820152600b60248201526a1b5a5b9d0819985a5b195960aa1b604482015290519081900360640190fd5b613b8f85308684613a3a565b3390565b6006546040805163b8d7b66960e01b81526001600160a01b0384811660048301529151600093929092169163b8d7b66991602480820192602092909190829003018186803b158015614b0a57600080fd5b505afa158015614b1e573d6000803e3d6000fd5b505050506040513d6020811015614b3457600080fd5b505190506001600160a01b038116612468576040805162461bcd60e51b815260206004820152601060248201526f19d95d081d1bdad95b8819985a5b195960821b604482015290519081900360640190fd5b604080516000808252602082019092526001600160a01b0384169083906040518082805190602001908083835b60208310614bd25780518252601f199092019160209182019101614bb3565b6001836020036101000a03801982511681845116808217855250505050505090500191505060006040518083038185875af1925050503d8060008114614c34576040519150601f19603f3d011682016040523d82523d6000602084013e614c39565b606091505b5050905080612d3d5760405162461bcd60e51b8152600401808060200182810382526023815260200180615bbc6023913960400191505060405180910390fd5b6004805460408051631249c58b60e01b815281516001600160a01b0390931693631249c58b9386938383019390929082900301818588803b158015614cbd57600080fd5b505af1158015614cd1573d6000803e3d6000fd5b50505050506040513d6040811015614ce857600080fd5b505060048054604080516370a0823160e01b81523093810193909352516000926001600160a01b03909216916370a08231916024808301926020929190829003018186803b158015614d3957600080fd5b505afa158015614d4d573d6000803e3d6000fd5b505050506040513d6020811015614d6357600080fd5b5051600454909150612d3d906001600160a01b0316308584613a3a565b6001600160a01b038116614dc55760405162461bcd60e51b8152600401808060200182810382526026815260200180615a8e6026913960400191505060405180910390fd5b600080546040516001600160a01b03808516939216917f8be0079c531659141344cd1fd0a4f28419497f9722a3daafe3b4186f6b6457e091a3600080546001600160a01b0319166001600160a01b0392909216919091179055565b6060808251604051908082528060200260200182016040528015614e4e578160200160208202803883390190505b50905060005b8351811015613a3357614e79848281518110614e6c57fe5b60200260200101516136e8565b828281518110614e8557fe5b6001600160a01b0390921660209283029190910190910152600101614e54565b60008282018381101561395d576040805162461bcd60e51b815260206004820152601b60248201527f536166654d6174683a206164646974696f6e206f766572666c6f770000000000604482015290519081900360640190fd5b600082614f0e57506000613960565b82820282848281614f1b57fe5b041461395d5760405162461bcd60e51b8152600401808060200182810382526021815260200180615ae46021913960400191505060405180910390fd5b600061395d83836040518060400160405280601a81526020017f536166654d6174683a206469766973696f6e206279207a65726f000000000000815250615793565b6000806000856001600160a01b031663db006a75856040518263ffffffff1660e01b815260040180828152602001915050606060405180830381600087803b158015614fe557600080fd5b505af1158015614ff9573d6000803e3d6000fd5b505050506040513d606081101561500f57600080fd5b50805160209091015190925090508115613987576040805162461bcd60e51b815260206004820152600d60248201526c1c995919595b4819985a5b1959609a1b604482015290519081900360640190fd5b604080516001600160a01b038481166024830152604480830185905283518084039091018152606490920183526020820180516001600160e01b031663a9059cbb60e01b178152925182516000946060949389169392918291908083835b602083106150dd5780518252601f1990920191602091820191016150be565b6001836020036101000a0380198251168184511680821785525050505050509050019150506000604051808303816000865af19150503d806000811461513f576040519150601f19603f3d011682016040523d82523d6000602084013e615144565b606091505b5091509150818015615172575080511580615172575080806020019051602081101561516f57600080fd5b50515b6140af576040805162461bcd60e51b815260206004820152601f60248201527f5472616e7366657248656c7065723a205452414e534645525f4641494c454400604482015290519081900360640190fd5b600480546040805163db006a7560e01b815292830184905251600092839283926001600160a01b039091169163db006a7591602480830192606092919082900301818787803b15801561521557600080fd5b505af1158015615229573d6000803e3d6000fd5b505050506040513d606081101561523f57600080fd5b50805160209091015190925090508115615290576040805162461bcd60e51b815260206004820152600d60248201526c1c995919595b4819985a5b1959609a1b604482015290519081900360640190fd5b9392505050565b600080600160009054906101000a90046001600160a01b03166001600160a01b031663017e7e586040518163ffffffff1660e01b815260040160206040518083038186803b1580156152e857600080fd5b505afa1580156152fc573d6000803e3d6000fd5b505050506040513d602081101561531257600080fd5b505190506001600160a01b038116615361576040805162461bcd60e51b815260206004820152600d60248201526c666565546f206973207a65726f60981b604482015290519081900360640190fd5b600061536c866136e8565b6001600160a01b03166370a08231866040518263ffffffff1660e01b815260040180826001600160a01b03166001600160a01b0316815260200191505060206040518083038186803b1580156153c157600080fd5b505afa1580156153d5573d6000803e3d6000fd5b505050506040513d60208110156153eb57600080fd5b505160408051633f3b917d60e21b81526004810183905290519192506000916001600160a01b0388169163fcee45f4916024808301926020929190829003018186803b15801561543a57600080fd5b505afa15801561544e573d6000803e3d6000fd5b505050506040513d602081101561546457600080fd5b505190506001600160a01b03878116908616141561548457809350615764565b60005b600554811015615762576000600582815481106154a057fe5b60009182526020808320909101546001546040805163e6a4390560e01b81526001600160a01b038f81166004830152938416602482018190529151919650919092169263e6a4390592604480840193829003018186803b15801561550357600080fd5b505afa158015615517573d6000803e3d6000fd5b505050506040513d602081101561552d57600080fd5b505190506001600160a01b0381161561575857876001600160a01b0316826001600160a01b031614156155e9576040805163a9059cbb60e01b81526001600160a01b0383166004820181905260248201879052915163a9059cbb916044808201926020929091908290030181600087803b1580156155aa57600080fd5b505af11580156155be573d6000803e3d6000fd5b505050506040513d60208110156155d457600080fd5b506155e29050818588615835565b9650615751565b6001546040805163e6a4390560e01b81526001600160a01b0385811660048301528b811660248301529151600093929092169163e6a4390591604480820192602092909190829003018186803b15801561564257600080fd5b505afa158015615656573d6000803e3d6000fd5b505050506040513d602081101561566c57600080fd5b505190506001600160a01b0381166156b55760405162461bcd60e51b8152600401808060200182810382526025815260200180615b756025913960400191505060405180910390fd5b6040805163a9059cbb60e01b81526001600160a01b0384166004820181905260248201889052915163a9059cbb916044808201926020929091908290030181600087803b15801561570557600080fd5b505af1158015615719573d6000803e3d6000fd5b505050506040513d602081101561572f57600080fd5b506000905061573f838784615835565b905061574c82828a615835565b985050505b5050615762565b5050600101615487565b505b5050509392505050565b436009541415615785576007805482019055613283565b600780546008555543600955565b6000818361581f5760405162461bcd60e51b81526004018080602001828103825283818151815260200191508051906020019080838360005b838110156157e45781810151838201526020016157cc565b50505050905090810190601f1680156158115780820380516001836020036101000a031916815260200191505b509250505060405180910390fd5b50600083858161582b57fe5b0495945050505050565b6000806000856001600160a01b0316630902f1ac6040518163ffffffff1660e01b815260040160606040518083038186803b15801561587357600080fd5b505afa158015615887573d6000803e3d6000fd5b505050506040513d606081101561589d57600080fd5b5080516020909101516dffffffffffffffffffffffffffff91821693501690506158e06158d0838763ffffffff614ea516565b613951878463ffffffff614eff16565b60408051630442a86560e01b8152600060048201819052602482018490526001600160a01b03888116604484015260648301859052925193965091891692630442a8659260848084019391929182900301818387803b15801561594257600080fd5b505af1158015615956573d6000803e3d6000fd5b5050505050509392505050565b604051806101c001604052806000815260200160008152602001600081526020016000815260200160008152602001600081526020016000815260200160008152602001600081526020016000815260200160006001600160a01b0316815260200160006001600160a01b0316815260200160006001600160a01b0316815260200160006001600160a01b031681525090565b604051806080016040528060008152602001600081526020016000815260200160008152509056fe4164644c69717569646974793a20494e53554646494349454e545f425f414d4f554e5452656d6f76654c69717569646974793a20494e53554646494349454e545f425f414d4f554e5452656d6f76654c69717569646974793a20494e53554646494349454e545f415f414d4f554e544f776e61626c653a206e6577206f776e657220697320746865207a65726f206164647265737352656d6f76654c6971756964697479556e6465726c79696e673a20494e53554646494349454e545f415f414d4f554e54536166654d6174683a206d756c7469706c69636174696f6e206f766572666c6f774f776e61626c653a2063616c6c6572206973206e6f7420746865206f776e657252656d6f76654c6971756964697479556e6465726c79696e673a20494e53554646494349454e545f425f414d4f554e54446542616e6b526f757465723a2045585049524544000000000000000000000071756f746520636f696e20686173206e6f207061697220746f20616e63686f72546f6b656e526f757465723a20494e53554646494349454e545f4f55545055545f414d4f554e545472616e7366657248656c7065723a204554485f5452414e534645525f4641494c45445472616e7366657248656c7065723a205452414e534645525f46524f4d5f4641494c45444164644c69717569646974793a20494e53554646494349454e545f415f414d4f554e54a265627a7a72315820fd057b15f6213955c8af8f98272f2b1093382b6ec02e1cf1978a3ed71767dd1f64736f6c63430005100032",
  "linkReferences": {},
  "deployedLinkReferences": {}
}