{
  "_format": "hh-sol-artifact-1",
  "contractName": "DeBankRouter",
  "sourceName": "contracts/swap/heco/Router.sol",
  "abi": [
    {
      "inputs": [
        {
          "internalType": "address",
          "name": "_factory",
          "type": "address"
        },
        {
          "internalType": "address",
          "name": "_wht",
          "type": "address"
        },
        {
          "internalType": "address",
          "name": "_cwht",
          "type": "address"
        },
        {
          "internalType": "uint256",
          "name": "_startBlock",
          "type": "uint256"
        }
      ],
      "payable": false,
      "stateMutability": "nonpayable",
      "type": "constructor"
    },
    {
      "anonymous": false,
      "inputs": [
        {
          "indexed": true,
          "internalType": "address",
          "name": "previousOwner",
          "type": "address"
        },
        {
          "indexed": true,
          "internalType": "address",
          "name": "newOwner",
          "type": "address"
        }
      ],
      "name": "OwnershipTransferred",
      "type": "event"
    },
    {
      "payable": true,
      "stateMutability": "payable",
      "type": "fallback"
    },
    {
      "constant": true,
      "inputs": [],
      "name": "WHT",
      "outputs": [
        {
          "internalType": "address",
          "name": "",
          "type": "address"
        }
      ],
      "payable": false,
      "stateMutability": "view",
      "type": "function"
    },
    {
      "constant": false,
      "inputs": [
        {
          "internalType": "address",
          "name": "tokenA",
          "type": "address"
        },
        {
          "internalType": "address",
          "name": "tokenB",
          "type": "address"
        },
        {
          "internalType": "uint256",
          "name": "amountADesired",
          "type": "uint256"
        },
        {
          "internalType": "uint256",
          "name": "amountBDesired",
          "type": "uint256"
        },
        {
          "internalType": "uint256",
          "name": "amountAMin",
          "type": "uint256"
        },
        {
          "internalType": "uint256",
          "name": "amountBMin",
          "type": "uint256"
        },
        {
          "internalType": "address",
          "name": "to",
          "type": "address"
        },
        {
          "internalType": "uint256",
          "name": "deadline",
          "type": "uint256"
        }
      ],
      "name": "addLiquidity",
      "outputs": [
        {
          "internalType": "uint256",
          "name": "amountA",
          "type": "uint256"
        },
        {
          "internalType": "uint256",
          "name": "amountB",
          "type": "uint256"
        },
        {
          "internalType": "uint256",
          "name": "liquidity",
          "type": "uint256"
        }
      ],
      "payable": false,
      "stateMutability": "nonpayable",
      "type": "function"
    },
    {
      "constant": false,
      "inputs": [
        {
          "internalType": "address",
          "name": "token",
          "type": "address"
        },
        {
          "internalType": "uint256",
          "name": "amountTokenDesired",
          "type": "uint256"
        },
        {
          "internalType": "uint256",
          "name": "amountTokenMin",
          "type": "uint256"
        },
        {
          "internalType": "uint256",
          "name": "amountETHMin",
          "type": "uint256"
        },
        {
          "internalType": "address",
          "name": "to",
          "type": "address"
        },
        {
          "internalType": "uint256",
          "name": "deadline",
          "type": "uint256"
        }
      ],
      "name": "addLiquidityETHUnderlying",
      "outputs": [
        {
          "internalType": "uint256",
          "name": "amountToken",
          "type": "uint256"
        },
        {
          "internalType": "uint256",
          "name": "amountETH",
          "type": "uint256"
        },
        {
          "internalType": "uint256",
          "name": "liquidity",
          "type": "uint256"
        }
      ],
      "payable": true,
      "stateMutability": "payable",
      "type": "function"
    },
    {
      "constant": false,
      "inputs": [
        {
          "internalType": "address",
          "name": "tokenA",
          "type": "address"
        },
        {
          "internalType": "address",
          "name": "tokenB",
          "type": "address"
        },
        {
          "internalType": "uint256",
          "name": "amountADesired",
          "type": "uint256"
        },
        {
          "internalType": "uint256",
          "name": "amountBDesired",
          "type": "uint256"
        },
        {
          "internalType": "uint256",
          "name": "amountAMin",
          "type": "uint256"
        },
        {
          "internalType": "uint256",
          "name": "amountBMin",
          "type": "uint256"
        },
        {
          "internalType": "address",
          "name": "to",
          "type": "address"
        },
        {
          "internalType": "uint256",
          "name": "deadline",
          "type": "uint256"
        }
      ],
      "name": "addLiquidityUnderlying",
      "outputs": [
        {
          "internalType": "uint256",
          "name": "amountA",
          "type": "uint256"
        },
        {
          "internalType": "uint256",
          "name": "amountB",
          "type": "uint256"
        },
        {
          "internalType": "uint256",
          "name": "liquidity",
          "type": "uint256"
        }
      ],
      "payable": false,
      "stateMutability": "nonpayable",
      "type": "function"
    },
    {
      "constant": false,
      "inputs": [
        {
          "internalType": "address",
          "name": "token",
          "type": "address"
        }
      ],
      "name": "addQuoteToken",
      "outputs": [],
      "payable": false,
      "stateMutability": "nonpayable",
      "type": "function"
    },
    {
      "constant": false,
      "inputs": [
        {
          "internalType": "address",
          "name": "token",
          "type": "address"
        },
        {
          "internalType": "address",
          "name": "to",
          "type": "address"
        },
        {
          "internalType": "uint256",
          "name": "amt",
          "type": "uint256"
        }
      ],
      "name": "adminTransfer",
      "outputs": [],
      "payable": false,
      "stateMutability": "nonpayable",
      "type": "function"
    },
    {
      "constant": true,
      "inputs": [],
      "name": "allPairFee",
      "outputs": [
        {
          "internalType": "uint256",
          "name": "",
          "type": "uint256"
        }
      ],
      "payable": false,
      "stateMutability": "view",
      "type": "function"
    },
    {
      "constant": true,
      "inputs": [],
      "name": "allPairFeeLastBlock",
      "outputs": [
        {
          "internalType": "uint256",
          "name": "",
          "type": "uint256"
        }
      ],
      "payable": false,
      "stateMutability": "view",
      "type": "function"
    },
    {
      "constant": true,
      "inputs": [],
      "name": "cWHT",
      "outputs": [
        {
          "internalType": "address",
          "name": "",
          "type": "address"
        }
      ],
      "payable": false,
      "stateMutability": "view",
      "type": "function"
    },
    {
      "constant": true,
      "inputs": [],
      "name": "currentBlock",
      "outputs": [
        {
          "internalType": "uint256",
          "name": "",
          "type": "uint256"
        }
      ],
      "payable": false,
      "stateMutability": "view",
      "type": "function"
    },
    {
      "constant": true,
      "inputs": [],
      "name": "factory",
      "outputs": [
        {
          "internalType": "address",
          "name": "",
          "type": "address"
        }
      ],
      "payable": false,
      "stateMutability": "view",
      "type": "function"
    },
    {
      "constant": true,
      "inputs": [],
      "name": "feeAlloc",
      "outputs": [
        {
          "internalType": "uint256",
          "name": "",
          "type": "uint256"
        }
      ],
      "payable": false,
      "stateMutability": "view",
      "type": "function"
    },
    {
      "constant": true,
      "inputs": [
        {
          "internalType": "uint256",
          "name": "amountOut",
          "type": "uint256"
        },
        {
          "internalType": "address[]",
          "name": "path",
          "type": "address[]"
        },
        {
          "internalType": "address",
          "name": "to",
          "type": "address"
        }
      ],
      "name": "getAmountsIn",
      "outputs": [
        {
          "internalType": "uint256[]",
          "name": "amounts",
          "type": "uint256[]"
        }
      ],
      "payable": false,
      "stateMutability": "view",
      "type": "function"
    },
    {
      "constant": true,
      "inputs": [
        {
          "internalType": "uint256",
          "name": "amountIn",
          "type": "uint256"
        },
        {
          "internalType": "address[]",
          "name": "path",
          "type": "address[]"
        },
        {
          "internalType": "address",
          "name": "to",
          "type": "address"
        }
      ],
      "name": "getAmountsOut",
      "outputs": [
        {
          "internalType": "uint256[]",
          "name": "amounts",
          "type": "uint256[]"
        }
      ],
      "payable": false,
      "stateMutability": "view",
      "type": "function"
    },
    {
      "constant": true,
      "inputs": [
        {
          "internalType": "uint256",
          "name": "_lastRewardBlock",
          "type": "uint256"
        }
      ],
      "name": "getBlockRewards",
      "outputs": [
        {
          "internalType": "uint256",
          "name": "",
          "type": "uint256"
        }
      ],
      "payable": false,
      "stateMutability": "view",
      "type": "function"
    },
    {
      "constant": true,
      "inputs": [],
      "name": "halvingPeriod",
      "outputs": [
        {
          "internalType": "uint256",
          "name": "",
          "type": "uint256"
        }
      ],
      "payable": false,
      "stateMutability": "view",
      "type": "function"
    },
    {
      "constant": true,
      "inputs": [],
      "name": "isOwner",
      "outputs": [
        {
          "internalType": "bool",
          "name": "",
          "type": "bool"
        }
      ],
      "payable": false,
      "stateMutability": "view",
      "type": "function"
    },
    {
      "constant": true,
      "inputs": [],
      "name": "lpPerBlock",
      "outputs": [
        {
          "internalType": "uint256",
          "name": "",
          "type": "uint256"
        }
      ],
      "payable": false,
      "stateMutability": "view",
      "type": "function"
    },
    {
      "constant": true,
      "inputs": [],
      "name": "owner",
      "outputs": [
        {
          "internalType": "address",
          "name": "",
          "type": "address"
        }
      ],
      "payable": false,
      "stateMutability": "view",
      "type": "function"
    },
    {
      "constant": true,
      "inputs": [
        {
          "internalType": "address",
          "name": "tokenA",
          "type": "address"
        },
        {
          "internalType": "address",
          "name": "tokenB",
          "type": "address"
        }
      ],
      "name": "pairFor",
      "outputs": [
        {
          "internalType": "address",
          "name": "pair",
          "type": "address"
        }
      ],
      "payable": false,
      "stateMutability": "view",
      "type": "function"
    },
    {
      "constant": true,
      "inputs": [
        {
          "internalType": "uint256",
          "name": "blockNumber",
          "type": "uint256"
        }
      ],
      "name": "phase",
      "outputs": [
        {
          "internalType": "uint256",
          "name": "",
          "type": "uint256"
        }
      ],
      "payable": false,
      "stateMutability": "view",
      "type": "function"
    },
    {
      "constant": true,
      "inputs": [
        {
          "internalType": "uint256",
          "name": "amountA",
          "type": "uint256"
        },
        {
          "internalType": "uint256",
          "name": "reserveA",
          "type": "uint256"
        },
        {
          "internalType": "uint256",
          "name": "reserveB",
          "type": "uint256"
        }
      ],
      "name": "quote",
      "outputs": [
        {
          "internalType": "uint256",
          "name": "amountB",
          "type": "uint256"
        }
      ],
      "payable": false,
      "stateMutability": "view",
      "type": "function"
    },
    {
      "constant": true,
      "inputs": [
        {
          "internalType": "uint256",
          "name": "",
          "type": "uint256"
        }
      ],
      "name": "quoteTokens",
      "outputs": [
        {
          "internalType": "address",
          "name": "",
          "type": "address"
        }
      ],
      "payable": false,
      "stateMutability": "view",
      "type": "function"
    },
    {
      "constant": false,
      "inputs": [
        {
          "internalType": "address",
          "name": "ctokenA",
          "type": "address"
        },
        {
          "internalType": "address",
          "name": "ctokenB",
          "type": "address"
        },
        {
          "internalType": "uint256",
          "name": "liquidity",
          "type": "uint256"
        },
        {
          "internalType": "uint256",
          "name": "amountAMin",
          "type": "uint256"
        },
        {
          "internalType": "uint256",
          "name": "amountBMin",
          "type": "uint256"
        },
        {
          "internalType": "address",
          "name": "to",
          "type": "address"
        },
        {
          "internalType": "uint256",
          "name": "deadline",
          "type": "uint256"
        }
      ],
      "name": "removeLiquidity",
      "outputs": [
        {
          "internalType": "uint256",
          "name": "amountA",
          "type": "uint256"
        },
        {
          "internalType": "uint256",
          "name": "amountB",
          "type": "uint256"
        }
      ],
      "payable": false,
      "stateMutability": "nonpayable",
      "type": "function"
    },
    {
      "constant": false,
      "inputs": [
        {
          "internalType": "address",
          "name": "token",
          "type": "address"
        },
        {
          "internalType": "uint256",
          "name": "liquidity",
          "type": "uint256"
        },
        {
          "internalType": "uint256",
          "name": "amountTokenMin",
          "type": "uint256"
        },
        {
          "internalType": "uint256",
          "name": "amountETHMin",
          "type": "uint256"
        },
        {
          "internalType": "address",
          "name": "to",
          "type": "address"
        },
        {
          "internalType": "uint256",
          "name": "deadline",
          "type": "uint256"
        }
      ],
      "name": "removeLiquidityETHUnderlying",
      "outputs": [
        {
          "internalType": "uint256",
          "name": "amountToken",
          "type": "uint256"
        },
        {
          "internalType": "uint256",
          "name": "amountETH",
          "type": "uint256"
        }
      ],
      "payable": false,
      "stateMutability": "nonpayable",
      "type": "function"
    },
    {
      "constant": false,
      "inputs": [
        {
          "internalType": "address",
          "name": "token",
          "type": "address"
        },
        {
          "internalType": "uint256",
          "name": "liquidity",
          "type": "uint256"
        },
        {
          "internalType": "uint256",
          "name": "amountTokenMin",
          "type": "uint256"
        },
        {
          "internalType": "uint256",
          "name": "amountETHMin",
          "type": "uint256"
        },
        {
          "internalType": "address",
          "name": "to",
          "type": "address"
        },
        {
          "internalType": "uint256",
          "name": "deadline",
          "type": "uint256"
        },
        {
          "internalType": "bool",
          "name": "approveMax",
          "type": "bool"
        },
        {
          "internalType": "uint8",
          "name": "v",
          "type": "uint8"
        },
        {
          "internalType": "bytes32",
          "name": "r",
          "type": "bytes32"
        },
        {
          "internalType": "bytes32",
          "name": "s",
          "type": "bytes32"
        }
      ],
      "name": "removeLiquidityETHUnderlyingWithPermit",
      "outputs": [
        {
          "internalType": "uint256",
          "name": "amountToken",
          "type": "uint256"
        },
        {
          "internalType": "uint256",
          "name": "amountETH",
          "type": "uint256"
        }
      ],
      "payable": false,
      "stateMutability": "nonpayable",
      "type": "function"
    },
    {
      "constant": false,
      "inputs": [
        {
          "internalType": "address",
          "name": "tokenA",
          "type": "address"
        },
        {
          "internalType": "address",
          "name": "tokenB",
          "type": "address"
        },
        {
          "internalType": "uint256",
          "name": "liquidity",
          "type": "uint256"
        },
        {
          "internalType": "uint256",
          "name": "amountAMin",
          "type": "uint256"
        },
        {
          "internalType": "uint256",
          "name": "amountBMin",
          "type": "uint256"
        },
        {
          "internalType": "address",
          "name": "to",
          "type": "address"
        },
        {
          "internalType": "uint256",
          "name": "deadline",
          "type": "uint256"
        }
      ],
      "name": "removeLiquidityUnderlying",
      "outputs": [
        {
          "internalType": "uint256",
          "name": "amountA",
          "type": "uint256"
        },
        {
          "internalType": "uint256",
          "name": "amountB",
          "type": "uint256"
        }
      ],
      "payable": false,
      "stateMutability": "nonpayable",
      "type": "function"
    },
    {
      "constant": false,
      "inputs": [
        {
          "internalType": "address",
          "name": "tokenA",
          "type": "address"
        },
        {
          "internalType": "address",
          "name": "tokenB",
          "type": "address"
        },
        {
          "internalType": "uint256",
          "name": "liquidity",
          "type": "uint256"
        },
        {
          "internalType": "uint256",
          "name": "amountAMin",
          "type": "uint256"
        },
        {
          "internalType": "uint256",
          "name": "amountBMin",
          "type": "uint256"
        },
        {
          "internalType": "address",
          "name": "to",
          "type": "address"
        },
        {
          "internalType": "uint256",
          "name": "deadline",
          "type": "uint256"
        },
        {
          "internalType": "bool",
          "name": "approveMax",
          "type": "bool"
        },
        {
          "internalType": "uint8",
          "name": "v",
          "type": "uint8"
        },
        {
          "internalType": "bytes32",
          "name": "r",
          "type": "bytes32"
        },
        {
          "internalType": "bytes32",
          "name": "s",
          "type": "bytes32"
        }
      ],
      "name": "removeLiquidityWithPermit",
      "outputs": [
        {
          "internalType": "uint256",
          "name": "amountA",
          "type": "uint256"
        },
        {
          "internalType": "uint256",
          "name": "amountB",
          "type": "uint256"
        }
      ],
      "payable": false,
      "stateMutability": "nonpayable",
      "type": "function"
    },
    {
      "constant": false,
      "inputs": [],
      "name": "renounceOwnership",
      "outputs": [],
      "payable": false,
      "stateMutability": "nonpayable",
      "type": "function"
    },
    {
      "constant": false,
      "inputs": [
        {
          "internalType": "address[]",
          "name": "tokens",
          "type": "address[]"
        }
      ],
      "name": "resetQuoteTokens",
      "outputs": [],
      "payable": false,
      "stateMutability": "nonpayable",
      "type": "function"
    },
    {
      "constant": true,
      "inputs": [
        {
          "internalType": "uint256",
          "name": "blockNumber",
          "type": "uint256"
        }
      ],
      "name": "reward",
      "outputs": [
        {
          "internalType": "uint256",
          "name": "",
          "type": "uint256"
        }
      ],
      "payable": false,
      "stateMutability": "view",
      "type": "function"
    },
    {
      "constant": true,
      "inputs": [],
      "name": "rewardToken",
      "outputs": [
        {
          "internalType": "address",
          "name": "",
          "type": "address"
        }
      ],
      "payable": false,
      "stateMutability": "view",
      "type": "function"
    },
    {
      "constant": false,
      "inputs": [
        {
          "internalType": "address",
          "name": "_swapMininng",
          "type": "address"
        }
      ],
      "name": "setSwapMining",
      "outputs": [],
      "payable": false,
      "stateMutability": "nonpayable",
      "type": "function"
    },
    {
      "constant": true,
      "inputs": [],
      "name": "startBlock",
      "outputs": [
        {
          "internalType": "uint256",
          "name": "",
          "type": "uint256"
        }
      ],
      "payable": false,
      "stateMutability": "view",
      "type": "function"
    },
    {
      "constant": false,
      "inputs": [
        {
          "internalType": "uint256",
          "name": "amountOut",
          "type": "uint256"
        },
        {
          "internalType": "address[]",
          "name": "path",
          "type": "address[]"
        },
        {
          "internalType": "address",
          "name": "to",
          "type": "address"
        },
        {
          "internalType": "uint256",
          "name": "deadline",
          "type": "uint256"
        }
      ],
      "name": "swapETHForExactTokensUnderlying",
      "outputs": [
        {
          "internalType": "uint256[]",
          "name": "amounts",
          "type": "uint256[]"
        }
      ],
      "payable": true,
      "stateMutability": "payable",
      "type": "function"
    },
    {
      "constant": false,
      "inputs": [
        {
          "internalType": "uint256",
          "name": "amountOutMin",
          "type": "uint256"
        },
        {
          "internalType": "address[]",
          "name": "path",
          "type": "address[]"
        },
        {
          "internalType": "address",
          "name": "to",
          "type": "address"
        },
        {
          "internalType": "uint256",
          "name": "deadline",
          "type": "uint256"
        }
      ],
      "name": "swapExactETHForTokensUnderlying",
      "outputs": [
        {
          "internalType": "uint256[]",
          "name": "amounts",
          "type": "uint256[]"
        }
      ],
      "payable": true,
      "stateMutability": "payable",
      "type": "function"
    },
    {
      "constant": false,
      "inputs": [
        {
          "internalType": "uint256",
          "name": "amountIn",
          "type": "uint256"
        },
        {
          "internalType": "uint256",
          "name": "amountOutMin",
          "type": "uint256"
        },
        {
          "internalType": "address[]",
          "name": "path",
          "type": "address[]"
        },
        {
          "internalType": "address",
          "name": "to",
          "type": "address"
        },
        {
          "internalType": "uint256",
          "name": "deadline",
          "type": "uint256"
        }
      ],
      "name": "swapExactTokensForETHUnderlying",
      "outputs": [
        {
          "internalType": "uint256[]",
          "name": "amounts",
          "type": "uint256[]"
        }
      ],
      "payable": false,
      "stateMutability": "nonpayable",
      "type": "function"
    },
    {
      "constant": false,
      "inputs": [
        {
          "internalType": "uint256",
          "name": "amountIn",
          "type": "uint256"
        },
        {
          "internalType": "uint256",
          "name": "amountOutMin",
          "type": "uint256"
        },
        {
          "internalType": "address[]",
          "name": "cpath",
          "type": "address[]"
        },
        {
          "internalType": "address",
          "name": "to",
          "type": "address"
        },
        {
          "internalType": "uint256",
          "name": "deadline",
          "type": "uint256"
        }
      ],
      "name": "swapExactTokensForTokens",
      "outputs": [
        {
          "internalType": "uint256[]",
          "name": "amounts",
          "type": "uint256[]"
        }
      ],
      "payable": false,
      "stateMutability": "nonpayable",
      "type": "function"
    },
    {
      "constant": false,
      "inputs": [
        {
          "internalType": "uint256",
          "name": "amountIn",
          "type": "uint256"
        },
        {
          "internalType": "uint256",
          "name": "amountOutMin",
          "type": "uint256"
        },
        {
          "internalType": "address[]",
          "name": "path",
          "type": "address[]"
        },
        {
          "internalType": "address",
          "name": "to",
          "type": "address"
        },
        {
          "internalType": "uint256",
          "name": "deadline",
          "type": "uint256"
        }
      ],
      "name": "swapExactTokensForTokensUnderlying",
      "outputs": [
        {
          "internalType": "uint256[]",
          "name": "amounts",
          "type": "uint256[]"
        }
      ],
      "payable": false,
      "stateMutability": "nonpayable",
      "type": "function"
    },
    {
      "constant": true,
      "inputs": [],
      "name": "swapMining",
      "outputs": [
        {
          "internalType": "address",
          "name": "",
          "type": "address"
        }
      ],
      "payable": false,
      "stateMutability": "view",
      "type": "function"
    },
    {
      "constant": false,
      "inputs": [
        {
          "internalType": "uint256",
          "name": "amountOut",
          "type": "uint256"
        },
        {
          "internalType": "uint256",
          "name": "amountInMax",
          "type": "uint256"
        },
        {
          "internalType": "address[]",
          "name": "path",
          "type": "address[]"
        },
        {
          "internalType": "address",
          "name": "to",
          "type": "address"
        },
        {
          "internalType": "uint256",
          "name": "deadline",
          "type": "uint256"
        }
      ],
      "name": "swapTokensForExactETHUnderlying",
      "outputs": [
        {
          "internalType": "uint256[]",
          "name": "amounts",
          "type": "uint256[]"
        }
      ],
      "payable": false,
      "stateMutability": "nonpayable",
      "type": "function"
    },
    {
      "constant": false,
      "inputs": [
        {
          "internalType": "uint256",
          "name": "amountOut",
          "type": "uint256"
        },
        {
          "internalType": "uint256",
          "name": "amountInMax",
          "type": "uint256"
        },
        {
          "internalType": "address[]",
          "name": "cpath",
          "type": "address[]"
        },
        {
          "internalType": "address",
          "name": "to",
          "type": "address"
        },
        {
          "internalType": "uint256",
          "name": "deadline",
          "type": "uint256"
        }
      ],
      "name": "swapTokensForExactTokens",
      "outputs": [
        {
          "internalType": "uint256[]",
          "name": "amounts",
          "type": "uint256[]"
        }
      ],
      "payable": false,
      "stateMutability": "nonpayable",
      "type": "function"
    },
    {
      "constant": false,
      "inputs": [
        {
          "internalType": "uint256",
          "name": "amountOut",
          "type": "uint256"
        },
        {
          "internalType": "uint256",
          "name": "amountInMax",
          "type": "uint256"
        },
        {
          "internalType": "address[]",
          "name": "path",
          "type": "address[]"
        },
        {
          "internalType": "address",
          "name": "to",
          "type": "address"
        },
        {
          "internalType": "uint256",
          "name": "deadline",
          "type": "uint256"
        }
      ],
      "name": "swapTokensForExactTokensUnderlying",
      "outputs": [
        {
          "internalType": "uint256[]",
          "name": "amounts",
          "type": "uint256[]"
        }
      ],
      "payable": false,
      "stateMutability": "nonpayable",
      "type": "function"
    },
    {
      "constant": true,
      "inputs": [],
      "name": "traderPerBlock",
      "outputs": [
        {
          "internalType": "uint256",
          "name": "",
          "type": "uint256"
        }
      ],
      "payable": false,
      "stateMutability": "view",
      "type": "function"
    },
    {
      "constant": false,
      "inputs": [
        {
          "internalType": "address",
          "name": "newOwner",
          "type": "address"
        }
      ],
      "name": "transferOwnership",
      "outputs": [],
      "payable": false,
      "stateMutability": "nonpayable",
      "type": "function"
    }
  ],
  "bytecode": "0x608060405262503340600c553480156200001857600080fd5b506040516200610838038062006108833981810160405260808110156200003e57600080fd5b508051602082015160408301516060909301519192909160006200006a6001600160e01b03620001d216565b600080546001600160a01b0319166001600160a01b0383169081178255604051929350917f8be0079c531659141344cd1fd0a4f28419497f9722a3daafe3b4186f6b6457e0908290a350600180546001600160a01b038087166001600160a01b031992831681179093556002805487831690841617905560058054918616919092161790556008829055604080516370e264b360e11b815290516004929163e1c4c96691818501916020919081900386018186803b1580156200012c57600080fd5b505afa15801562000141573d6000803e3d6000fd5b505050506040513d60208110156200015857600080fd5b505181546001808201845560009384526020842090910180546001600160a01b03199081166001600160a01b03948516179091556004805492830181559093527f8a35acfbc15ff81a39ae7d344fd709f28e8600b4aa8c65c6b64bfe7fe36bd19b01805490921693169290921790915550620001d6915050565b3390565b615f2280620001e66000396000f3fe6080604052600436106102725760003560e01c80638803dbee1161014f578063c45a0155116100c1578063e8e337001161007a578063e8e3370014610ee4578063ee41be8e14610f46578063efd06f2e14610fca578063f2fde38b14611010578063f7c618c114611043578063fa9000881461105857610272565b8063c45a015514610ce7578063c5746a6e14610cfc578063d2b364c614610d59578063da72c1e814610e19578063dbdfc62514610e5c578063e12ed13c14610ecf57610272565b806396ed28f91161011357806396ed28f914610b56578063a9fb763c14610b91578063ad615dec14610bbb578063af06ca8f14610bf1578063baa2abde14610c06578063bbee6c2914610c6357610272565b80638803dbee146109d757806389a6072c14610a6d5780638da5cb5b14610a825780638e750db914610a975780638f32d59b14610b2d57610272565b80634e5eda11116101e85780635a3e251f116101ac5780635a3e251f146108ab5780635cb48592146108c0578063715018a6146108d557806378b8d735146108ea5780637e87ffe8146109985780637f3709a3146109ad57610272565b80634e5eda111461079b5780634f887183146107b05780635710207c146107e357806357581511146107f857806358956d411461082b57610272565b80632195995c1161023a5780632195995c146105815780632c9115c7146105ff57806338ed1739146106455780633eabf55f146106db57806348cd4cb1146107715780634cc94ba11461078657610272565b80630520b2901461029d5780630c49bd1314610383578063135f8aa71461044357806314e5207b1461047f5780631da81f62146104eb575b6002546001600160a01b031633148061029557506005546001600160a01b031633145b61029b57fe5b005b3480156102a957600080fd5b50610333600480360360a08110156102c057600080fd5b813591602081013591810190606081016040820135600160201b8111156102e657600080fd5b8201836020820111156102f857600080fd5b803590602001918460208302840111600160201b8311171561031957600080fd5b91935091506001600160a01b03813516906020013561106d565b60408051602080825283518183015283519192839290830191858101910280838360005b8381101561036f578181015183820152602001610357565b505050509050019250505060405180910390f35b34801561038f57600080fd5b50610333600480360360608110156103a657600080fd5b81359190810190604081016020820135600160201b8111156103c757600080fd5b8201836020820111156103d957600080fd5b803590602001918460208302840111600160201b831117156103fa57600080fd5b919080806020026020016040519081016040528093929190818152602001838360200280828437600092019190915250929550505090356001600160a01b031691506111809050565b34801561044f57600080fd5b5061046d6004803603602081101561046657600080fd5b50356112ea565b60408051918252519081900360200190f35b34801561048b57600080fd5b506104d2600480360360c08110156104a257600080fd5b506001600160a01b0381358116916020810135916040820135916060810135916080820135169060a00135611351565b6040805192835260208301919091528051918290030190f35b3480156104f757600080fd5b50610333600480360360a081101561050e57600080fd5b813591602081013591810190606081016040820135600160201b81111561053457600080fd5b82018360208201111561054657600080fd5b803590602001918460208302840111600160201b8311171561056757600080fd5b91935091506001600160a01b038135169060200135611465565b34801561058d57600080fd5b506104d260048036036101608110156105a557600080fd5b506001600160a01b038135811691602081013582169160408201359160608101359160808201359160a08101359091169060c08101359060e081013515159060ff61010082013516906101208101359061014001356114ed565b34801561060b57600080fd5b506106296004803603602081101561062257600080fd5b50356115c6565b604080516001600160a01b039092168252519081900360200190f35b34801561065157600080fd5b50610333600480360360a081101561066857600080fd5b813591602081013591810190606081016040820135600160201b81111561068e57600080fd5b8201836020820111156106a057600080fd5b803590602001918460208302840111600160201b831117156106c157600080fd5b91935091506001600160a01b0381351690602001356115ed565b3480156106e757600080fd5b50610333600480360360a08110156106fe57600080fd5b813591602081013591810190606081016040820135600160201b81111561072457600080fd5b82018360208201111561073657600080fd5b803590602001918460208302840111600160201b8311171561075757600080fd5b91935091506001600160a01b0381351690602001356118b0565b34801561077d57600080fd5b5061046d611938565b34801561079257600080fd5b5061046d61193e565b3480156107a757600080fd5b50610629611944565b3480156107bc57600080fd5b5061029b600480360360208110156107d357600080fd5b50356001600160a01b0316611953565b3480156107ef57600080fd5b506106296119bc565b34801561080457600080fd5b5061029b6004803603602081101561081b57600080fd5b50356001600160a01b03166119cb565b34801561083757600080fd5b5061088d600480360361010081101561084f57600080fd5b506001600160a01b038135811691602081013582169160408201359160608101359160808201359160a08101359160c0820135169060e00135611a64565b60408051938452602084019290925282820152519081900360600190f35b3480156108b757600080fd5b5061046d611c7f565b3480156108cc57600080fd5b50610629611c85565b3480156108e157600080fd5b5061029b611c94565b3480156108f657600080fd5b5061029b6004803603602081101561090d57600080fd5b810190602081018135600160201b81111561092757600080fd5b82018360208201111561093957600080fd5b803590602001918460208302840111600160201b8311171561095a57600080fd5b919080806020026020016040519081016040528093929190818152602001838360200280828437600092019190915250929550611d25945050505050565b3480156109a457600080fd5b5061046d611e12565b3480156109b957600080fd5b5061046d600480360360208110156109d057600080fd5b5035611e18565b3480156109e357600080fd5b50610333600480360360a08110156109fa57600080fd5b813591602081013591810190606081016040820135600160201b811115610a2057600080fd5b820183602082011115610a3257600080fd5b803590602001918460208302840111600160201b83111715610a5357600080fd5b91935091506001600160a01b038135169060200135611ee6565b348015610a7957600080fd5b5061046d612138565b348015610a8e57600080fd5b5061062961213e565b348015610aa357600080fd5b50610333600480360360a0811015610aba57600080fd5b813591602081013591810190606081016040820135600160201b811115610ae057600080fd5b820183602082011115610af257600080fd5b803590602001918460208302840111600160201b83111715610b1357600080fd5b91935091506001600160a01b03813516906020013561214d565b348015610b3957600080fd5b50610b42612254565b604080519115158252519081900360200190f35b348015610b6257600080fd5b5061062960048036036040811015610b7957600080fd5b506001600160a01b0381358116916020013516612278565b348015610b9d57600080fd5b5061046d60048036036020811015610bb457600080fd5b5035612304565b348015610bc757600080fd5b5061046d60048036036060811015610bde57600080fd5b508035906020810135906040013561234b565b348015610bfd57600080fd5b5061046d6123d9565b348015610c1257600080fd5b506104d2600480360360e0811015610c2957600080fd5b506001600160a01b038135811691602081013582169160408201359160608101359160808201359160a08101359091169060c001356123df565b61033360048036036080811015610c7957600080fd5b81359190810190604081016020820135600160201b811115610c9a57600080fd5b820183602082011115610cac57600080fd5b803590602001918460208302840111600160201b83111715610ccd57600080fd5b91935091506001600160a01b03813516906020013561268c565b348015610cf357600080fd5b50610629612799565b348015610d0857600080fd5b506104d2600480360360e0811015610d1f57600080fd5b506001600160a01b038135811691602081013582169160408201359160608101359160808201359160a08101359091169060c001356127a8565b348015610d6557600080fd5b5061033360048036036060811015610d7c57600080fd5b81359190810190604081016020820135600160201b811115610d9d57600080fd5b820183602082011115610daf57600080fd5b803590602001918460208302840111600160201b83111715610dd057600080fd5b919080806020026020016040519081016040528093929190818152602001838360200280828437600092019190915250929550505090356001600160a01b03169150612b6f9050565b348015610e2557600080fd5b5061029b60048036036060811015610e3c57600080fd5b506001600160a01b03813581169160208101359091169060400135612be1565b348015610e6857600080fd5b506104d26004803603610140811015610e8057600080fd5b506001600160a01b0381358116916020810135916040820135916060810135916080820135169060a08101359060c081013515159060ff60e08201351690610100810135906101200135612c56565b348015610edb57600080fd5b5061046d612d38565b348015610ef057600080fd5b5061088d6004803603610100811015610f0857600080fd5b506001600160a01b038135811691602081013582169160408201359160608101359160808201359160a08101359160c0820135169060e00135612d3e565b61033360048036036080811015610f5c57600080fd5b81359190810190604081016020820135600160201b811115610f7d57600080fd5b820183602082011115610f8f57600080fd5b803590602001918460208302840111600160201b83111715610fb057600080fd5b91935091506001600160a01b038135169060200135612e59565b61088d600480360360c0811015610fe057600080fd5b506001600160a01b0381358116916020810135916040820135916060810135916080820135169060a00135612f5b565b34801561101c57600080fd5b5061029b6004803603602081101561103357600080fd5b50356001600160a01b031661316a565b34801561104f57600080fd5b506106296131bd565b34801561106457600080fd5b5061046d6131cc565b606081428110156110b3576040805162461bcd60e51b81526020600482015260156024820152600080516020615e1d833981519152604482015290519081900360640190fd5b6002546001600160a01b0316868660001981018181106110cf57fe5b905060200201356001600160a01b03166001600160a01b031614611131576040805162461bcd60e51b81526020600482015260146024820152730a4deeae8cae47440929cac82989288bea082a8960631b604482015290519081900360640190fd5b611174888888888080602002602001604051908101604052809392919081815260200183836020028082843760009201829052508b93508a9250905060016131d2565b98975050505050505050565b600154604051630c49bd1360e01b8152600481018581526001600160a01b03848116604484015260606024840181815287516064860152875191959290921693630c49bd1393899389938993608401906020808701910280838360005b838110156111f55781810151838201526020016111dd565b5050505090500194505050505060006040518083038186803b15801561121a57600080fd5b505afa15801561122e573d6000803e3d6000fd5b505050506040513d6000823e601f3d908101601f19168201604052602081101561125757600080fd5b8101908080516040519392919084600160201b82111561127657600080fd5b90830190602082018581111561128b57600080fd5b82518660208202830111600160201b821117156112a757600080fd5b82525081516020918201928201910280838360005b838110156112d45781810151838201526020016112bc565b5050505090500160405250505090509392505050565b6000600c54600014156112ff5750600061134c565b60085482111561134857611341600c5461133560016113296008548761362590919063ffffffff16565b9063ffffffff61362516565b9063ffffffff61367016565b905061134c565b5060005b919050565b6000808242811015611398576040805162461bcd60e51b81526020600482015260156024820152600080516020615e1d833981519152604482015290519081900360640190fd5b6113a0615c2b565b6113a98a6136b2565b6001600160a01b031661018082018190526113c39061379f565b60808201526005546113dd906001600160a01b031661379f565b60c082015260808101516000906113f5908a906138fe565b90506000611407898460c001516138fe565b610180840151600554919250600091829161142f916001600160a01b03168f8787308f6123df565b6101808701519193509150611446908f8c8561391c565b97506114528a8261393d565b9650505050505050965096945050505050565b606081428110156114ab576040805162461bcd60e51b81526020600482015260156024820152600080516020615e1d833981519152604482015290519081900360640190fd5b611174888888888080602002602001604051908101604052809392919081815260200183836020028082843760009201829052508b93508a92509050806131d2565b60008060006114fc8e8e612278565b905060008761150b578c61150f565b6000195b6040805163d505accf60e01b815233600482015230602482015260448101839052606481018c905260ff8a16608482015260a4810189905260c4810188905290519192506001600160a01b0384169163d505accf9160e48082019260009290919082900301818387803b15801561158557600080fd5b505af1158015611599573d6000803e3d6000fd5b505050506115ac8f8f8f8f8f8f8f6123df565b809450819550505050509b509b9950505050505050505050565b600481815481106115d357fe5b6000918252602090912001546001600160a01b0316905081565b60608142811015611633576040805162461bcd60e51b81526020600482015260156024820152600080516020615e1d833981519152604482015290519081900360640190fd5b606061167187878080602002602001604051908101604052809392919081815260200183836020028082843760009201919091525061395b92505050565b600154604051636959b26360e11b8152600481018c81526001600160a01b03898116604484015260606024840190815285516064850152855195965093169363d2b364c6938e9387938c93909291608401906020808701910280838360005b838110156116e85781810151838201526020016116d0565b5050505090500194505050505060006040518083038186803b15801561170d57600080fd5b505afa158015611721573d6000803e3d6000fd5b505050506040513d6000823e601f3d908101601f19168201604052602081101561174a57600080fd5b8101908080516040519392919084600160201b82111561176957600080fd5b90830190602082018581111561177e57600080fd5b82518660208202830111600160201b8211171561179a57600080fd5b82525081516020918201928201910280838360005b838110156117c75781810151838201526020016117af565b50505050905001604052505050925087836001855103815181106117e757fe5b6020026020010151101561182c5760405162461bcd60e51b8152600401808060200182810382526022815260200180615e626022913960400191505060405180910390fd5b6118998787600081811061183c57fe5b905060200201356001600160a01b03163361187f8460008151811061185d57fe5b60200260200101518560018151811061187257fe5b6020026020010151612278565b8660008151811061188c57fe5b60200260200101516139e7565b6118a4838287613b44565b50509695505050505050565b606081428110156118f6576040805162461bcd60e51b81526020600482015260156024820152600080516020615e1d833981519152604482015290519081900360640190fd5b611174888888888080602002602001604051908101604052809392919081815260200183836020028082843760009201829052508b93508a9250905080614067565b60085481565b60065481565b6003546001600160a01b031681565b61195b612254565b61199a576040805162461bcd60e51b81526020600482018190526024820152600080516020615dcd833981519152604482015290519081900360640190fd5b600380546001600160a01b0319166001600160a01b0392909216919091179055565b6005546001600160a01b031681565b6119d3612254565b611a12576040805162461bcd60e51b81526020600482018190526024820152600080516020615dcd833981519152604482015290519081900360640190fd5b600480546001810182556000919091527f8a35acfbc15ff81a39ae7d344fd709f28e8600b4aa8c65c6b64bfe7fe36bd19b0180546001600160a01b0319166001600160a01b0392909216919091179055565b60008060008342811015611aad576040805162461bcd60e51b81526020600482015260156024820152600080516020615e1d833981519152604482015290519081900360640190fd5b611ab5615c2b565b611abe8d6143bf565b6001600160a01b0316610180820152611ad68c6143bf565b6001600160a01b03166101a0820152610180810151611af49061379f565b60808201526101a0810151611b089061379f565b60a08201526080810151611b1d908c906138fe565b815260a0810151611b2f908b906138fe565b60208201526080810151611b44908a906138fe565b604082015260a0810151611b599089906138fe565b606082018190526101808201516101a0830151835160208501516040860151611b8195614490565b61010083015260e08201526000611b988e8e612278565b9050611bac8260e00151836080015161482f565b9550611bc18261010001518360a0015161482f565b9450611bd48e836101800151838961484d565b611be58d836101a00151838861484d565b806001600160a01b0316636a627842896040518263ffffffff1660e01b815260040180826001600160a01b03166001600160a01b03168152602001915050602060405180830381600087803b158015611c3d57600080fd5b505af1158015611c51573d6000803e3d6000fd5b505050506040513d6020811015611c6757600080fd5b5051959e949d50949b50929950505050505050505050565b600c5481565b6002546001600160a01b031681565b611c9c612254565b611cdb576040805162461bcd60e51b81526020600482018190526024820152600080516020615dcd833981519152604482015290519081900360640190fd5b600080546040516001600160a01b03909116907f8be0079c531659141344cd1fd0a4f28419497f9722a3daafe3b4186f6b6457e0908390a3600080546001600160a01b0319169055565b611d2d612254565b611d6c576040805162461bcd60e51b81526020600482018190526024820152600080516020615dcd833981519152604482015290519081900360640190fd5b60005b600454811015611dae576004805480611d8457fe5b600082815260209020810160001990810180546001600160a01b0319169055019055600101611d6f565b5060005b8151811015611e0e576004828281518110611dc957fe5b60209081029190910181015182546001808201855560009485529290932090920180546001600160a01b0319166001600160a01b039093169290921790915501611db2565b5050565b600e5481565b60008080611e25846112ea565b90506000611e32436112ea565b90505b80821015611eb157600854600c54600190930192600091611e6d91611e6190869063ffffffff614b1e16565b9063ffffffff614b7716565b9050611ea7611e9a611e7e83612304565b611e8e848a63ffffffff61362516565b9063ffffffff614b1e16565b859063ffffffff614b7716565b9095509250611e35565b611edd611ed0611ec043612304565b611e8e438963ffffffff61362516565b849063ffffffff614b7716565b95945050505050565b60608142811015611f2c576040805162461bcd60e51b81526020600482015260156024820152600080516020615e1d833981519152604482015290519081900360640190fd5b6060611f6a87878080602002602001604051908101604052809392919081815260200183836020028082843760009201919091525061395b92505050565b600154604051630c49bd1360e01b8152600481018c81526001600160a01b038981166044840152606060248401908152855160648501528551959650931693630c49bd13938e9387938c93909291608401906020808701910280838360005b83811015611fe1578181015183820152602001611fc9565b5050505090500194505050505060006040518083038186803b15801561200657600080fd5b505afa15801561201a573d6000803e3d6000fd5b505050506040513d6000823e601f3d908101601f19168201604052602081101561204357600080fd5b8101908080516040519392919084600160201b82111561206257600080fd5b90830190602082018581111561207757600080fd5b82518660208202830111600160201b8211171561209357600080fd5b82525081516020918201928201910280838360005b838110156120c05781810151838201526020016120a8565b50505050905001604052505050925087836000815181106120dd57fe5b6020026020010151111561182c576040805162461bcd60e51b815260206004820152601e60248201527f526f757465723a204558434553534956455f494e5055545f414d4f554e540000604482015290519081900360640190fd5b60075481565b6000546001600160a01b031690565b60608142811015612193576040805162461bcd60e51b81526020600482015260156024820152600080516020615e1d833981519152604482015290519081900360640190fd5b6002546001600160a01b0316868660001981018181106121af57fe5b905060200201356001600160a01b03166001600160a01b031614612211576040805162461bcd60e51b81526020600482015260146024820152730a4deeae8cae47440929cac82989288bea082a8960631b604482015290519081900360640190fd5b611174888888888080602002602001604051908101604052809392919081815260200183836020028082843760009201829052508b93508a925090506001614067565b600080546001600160a01b0316612269614bd1565b6001600160a01b031614905090565b6001546040805163e6a4390560e01b81526001600160a01b03858116600483015284811660248301529151600093929092169163e6a4390591604480820192602092909190829003018186803b1580156122d157600080fd5b505afa1580156122e5573d6000803e3d6000fd5b505050506040513d60208110156122fb57600080fd5b50519392505050565b600d546000906001600160a01b031661231f5750600061134c565b600061232a836112ea565b90506123448160020a600a5461367090919063ffffffff16565b9392505050565b60015460408051632b58577b60e21b815260048101869052602481018590526044810184905290516000926001600160a01b03169163ad615dec916064808301926020929190829003018186803b1580156123a557600080fd5b505afa1580156123b9573d6000803e3d6000fd5b505050506040513d60208110156123cf57600080fd5b5051949350505050565b600b5481565b6000808242811015612426576040805162461bcd60e51b81526020600482015260156024820152600080516020615e1d833981519152604482015290519081900360640190fd5b60006124328b8b612278565b604080516323b872dd60e01b81523360048201526001600160a01b03831660248201819052604482018d9052915192935090916323b872dd916064808201926020929091908290030181600087803b15801561248d57600080fd5b505af11580156124a1573d6000803e3d6000fd5b505050506040513d60208110156124b757600080fd5b50506040805163226bf2d160e21b81526001600160a01b03888116600483015282516000938493928616926389afcb44926024808301939282900301818787803b15801561250457600080fd5b505af1158015612518573d6000803e3d6000fd5b505050506040513d604081101561252e57600080fd5b508051602090910151909250905060006125478e614bd5565b905060006125548e614bd5565b60015460408051632a26552b60e11b81526001600160a01b0386811660048301528085166024830152825194955060009493169263544caa5692604480840193919291829003018186803b1580156125ab57600080fd5b505afa1580156125bf573d6000803e3d6000fd5b505050506040513d60408110156125d557600080fd5b505190506001600160a01b03838116908216146125f35783856125f6565b84845b90995097508c89101561263a5760405162461bcd60e51b8152600401808060200182810382526026815260200180615d306026913960400191505060405180910390fd5b8b8810156126795760405162461bcd60e51b8152600401808060200182810382526026815260200180615d0a6026913960400191505060405180910390fd5b5050505050505097509795505050505050565b606081428110156126d2576040805162461bcd60e51b81526020600482015260156024820152600080516020615e1d833981519152604482015290519081900360640190fd5b6002546001600160a01b031686866000816126e957fe5b905060200201356001600160a01b03166001600160a01b03161461274b576040805162461bcd60e51b81526020600482015260146024820152730a4deeae8cae47440929cac82989288bea082a8960631b604482015290519081900360640190fd5b61278e873488888080602002602001604051908101604052809392919081815260200183836020028082843760009201829052508b93508a9250600191506131d2565b979650505050505050565b6001546001600160a01b031681565b60008082428110156127ef576040805162461bcd60e51b81526020600482015260156024820152600080516020615e1d833981519152604482015290519081900360640190fd5b60006127fb8b8b612278565b905088816001600160a01b0316636dbf2f7f886040518263ffffffff1660e01b815260040180826001600160a01b03166001600160a01b0316815260200191505060206040518083038186803b15801561285457600080fd5b505afa158015612868573d6000803e3d6000fd5b505050506040513d602081101561287e57600080fd5b505110156128d3576040805162461bcd60e51b815260206004820152601760248201527f6e6f74206f776e6572206f72206e6f7420656e6f756768000000000000000000604482015290519081900360640190fd5b604080516323b872dd60e01b81523360048201526001600160a01b03831660248201819052604482018c905291516323b872dd916064808201926020929091908290030181600087803b15801561292957600080fd5b505af115801561293d573d6000803e3d6000fd5b505050506040513d602081101561295357600080fd5b5061295e9050615c2b565b6001600160a01b03808d166101408301528b81166101608301526040805163226bf2d160e21b815230600482015281516000938493908716926389afcb44926024808301939282900301818787803b1580156129b957600080fd5b505af11580156129cd573d6000803e3d6000fd5b505050506040513d60408110156129e357600080fd5b50805160209091015160015461014086015161016087015160408051632a26552b60e11b81526001600160a01b03938416600482015291831660248301528051959750939550600094919092169263544caa569260448082019391829003018186803b158015612a5257600080fd5b505afa158015612a66573d6000803e3d6000fd5b505050506040513d6040811015612a7c57600080fd5b505190506001600160a01b038f811690821614612a9a578183612a9d565b82825b61010086015260e085015250612ac59150612ab990508d6136b2565b8d898460e0015161391c565b9450612ae0612ad38c6136b2565b8c8984610100015161391c565b935088851015612b215760405162461bcd60e51b8152600401808060200182810382526030815260200180615d7c6030913960400191505060405180910390fd5b87841015612b605760405162461bcd60e51b8152600401808060200182810382526030815260200180615ded6030913960400191505060405180910390fd5b50505097509795505050505050565b600154604051636959b26360e11b8152600481018581526001600160a01b0384811660448401526060602484018181528751606486015287519195929092169363d2b364c6938993899389936084019060208681019102808383600083156111f55781810151838201526020016111dd565b612be9612254565b612c28576040805162461bcd60e51b81526020600482018190526024820152600080516020615dcd833981519152604482015290519081900360640190fd5b6001600160a01b038316612c4557612c408282614c90565b612c51565b612c51833084846139e7565b505050565b60025460009081908190612c74908e906001600160a01b0316612278565b9050600087612c83578c612c87565b6000195b6040805163d505accf60e01b815233600482015230602482015260448101839052606481018c905260ff8a16608482015260a4810189905260c4810188905290519192506001600160a01b0384169163d505accf9160e48082019260009290919082900301818387803b158015612cfd57600080fd5b505af1158015612d11573d6000803e3d6000fd5b50505050612d238e8e8e8e8e8e611351565b909f909e509c50505050505050505050505050565b60095481565b60008060008342811015612d87576040805162461bcd60e51b81526020600482015260156024820152600080516020615e1d833981519152604482015290519081900360640190fd5b612d958c8c8c8c8c8c614490565b90945092506000612da68d8d612278565b9050612db48d3383886139e7565b612dc08c3383876139e7565b806001600160a01b0316636a627842886040518263ffffffff1660e01b815260040180826001600160a01b03166001600160a01b03168152602001915050602060405180830381600087803b158015612e1857600080fd5b505af1158015612e2c573d6000803e3d6000fd5b505050506040513d6020811015612e4257600080fd5b5051949d939c50939a509198505050505050505050565b60608142811015612e9f576040805162461bcd60e51b81526020600482015260156024820152600080516020615e1d833981519152604482015290519081900360640190fd5b6002546001600160a01b03168686600081612eb657fe5b905060200201356001600160a01b03166001600160a01b031614612f18576040805162461bcd60e51b81526020600482015260146024820152730a4deeae8cae47440929cac82989288bea082a8960631b604482015290519081900360640190fd5b61278e348888888080602002602001604051908101604052809392919081815260200183836020028082843760009201829052508b93508a925060019150614067565b60008060008342811015612fa4576040805162461bcd60e51b81526020600482015260156024820152600080516020615e1d833981519152604482015290519081900360640190fd5b6000612faf8b6143bf565b9050612fb9615c2b565b612fc28261379f565b6080820152600554612fdc906001600160a01b031661379f565b60a08201526080810151612ff1908c906138fe565b815260a08101516130039034906138fe565b60208201526080810151613018908b906138fe565b604082015260a081015161302d908a906138fe565b6060820181905260055482516020840151604085015160009485946130619489946001600160a01b03909216939092614490565b9150915060006130868f600260009054906101000a90046001600160a01b0316612278565b905061309683856080015161482f565b98506130a6828560a0015161482f565b97506130b48f86838c61484d565b6130be8189614d83565b806001600160a01b0316636a6278428c6040518263ffffffff1660e01b815260040180826001600160a01b03166001600160a01b03168152602001915050602060405180830381600087803b15801561311657600080fd5b505af115801561312a573d6000803e3d6000fd5b505050506040513d602081101561314057600080fd5b50519650348810156131585761315833893403614c90565b50505050505096509650969350505050565b613172612254565b6131b1576040805162461bcd60e51b81526020600482018190526024820152600080516020615dcd833981519152604482015290519081900360640190fd5b6131ba81614ef6565b50565b600d546001600160a01b031681565b600a5481565b60608342811015613218576040805162461bcd60e51b81526020600482015260156024820152600080516020615e1d833981519152604482015290519081900360640190fd5b606061322388614f96565b905061322d615cbe565b61324a8260008151811061323d57fe5b602002602001015161379f565b81528851825161326591849160001990910190811061323d57fe5b6020820181905260009061327a908d906138fe565b90506060600160009054906101000a90046001600160a01b03166001600160a01b0316630c49bd13838d8d6040518463ffffffff1660e01b81526004018084815260200180602001836001600160a01b03166001600160a01b03168152602001828103825284818151815260200191508051906020019060200280838360005b838110156133125781810151838201526020016132fa565b5050505090500194505050505060006040518083038186803b15801561333757600080fd5b505afa15801561334b573d6000803e3d6000fd5b505050506040513d6000823e601f3d908101601f19168201604052602081101561337457600080fd5b8101908080516040519392919084600160201b82111561339357600080fd5b9083019060208201858111156133a857600080fd5b82518660208202830111600160201b821117156133c457600080fd5b82525081516020918201928201910280838360005b838110156133f15781810151838201526020016133d9565b5050505090500160405250505090506134228160008151811061341057fe5b6020026020010151846000015161482f565b6040840181905261343a90600163ffffffff614b7716565b604084018190528c1015613495576040805162461bcd60e51b815260206004820152601e60248201527f526f757465723a204558434553534956455f494e5055545f414d4f554e540000604482015290519081900360640190fd5b87156134d2576134cd6134c38c6000815181106134ae57fe5b60200260200101518d60018151811061187257fe5b8460400151614d83565b61352e565b61352e8b6000815181106134e257fe5b6020026020010151856000815181106134f757fe5b60200260200101516135248e60008151811061350f57fe5b60200260200101518f60018151811061187257fe5b866040015161484d565b613539818c30613b44565b8a51600019018715613568576135628b83838151811061355557fe5b602002602001015161393d565b506135af565b6135ad85828151811061357757fe5b60200260200101518d838151811061358b57fe5b60200260200101518d8585815181106135a057fe5b602002602001015161391c565b505b8b516040519080825280602002602001820160405280156135da578160200160208202803883390190505b5096508360400151876000815181106135ef57fe5b6020026020010181815250508d87828151811061360857fe5b602002602001018181525050505050505050979650505050505050565b600061366783836040518060400160405280601e81526020017f536166654d6174683a207375627472616374696f6e206f766572666c6f77000081525061501b565b90505b92915050565b600061366783836040518060400160405280601a81526020017f536166654d6174683a206469766973696f6e206279207a65726f0000000000008152506150b2565b60015460408051634219547760e01b815290516000926001600160a01b0316916342195477916004808301926020929190829003018186803b1580156136f757600080fd5b505afa15801561370b573d6000803e3d6000fd5b505050506040513d602081101561372157600080fd5b50516040805163714bca1f60e11b81526001600160a01b0385811660048301529151919092169163e297943e916024808301926020929190829003018186803b15801561376d57600080fd5b505afa158015613781573d6000803e3d6000fd5b505050506040513d602081101561379757600080fd5b505192915050565b600080826001600160a01b031663182df0f56040518163ffffffff1660e01b815260040160206040518083038186803b1580156137db57600080fd5b505afa1580156137ef573d6000803e3d6000fd5b505050506040513d602081101561380557600080fd5b505160408051630ae9d70b60e41b815290519192506000916001600160a01b0386169163ae9d70b0916004808301926020929190829003018186803b15801561384d57600080fd5b505afa158015613861573d6000803e3d6000fd5b505050506040513d602081101561387757600080fd5b505160408051636c540baf60e01b815290519192506000916001600160a01b03871691636c540baf916004808301926020929190829003018186803b1580156138bf57600080fd5b505afa1580156138d3573d6000803e3d6000fd5b505050506040513d60208110156138e957600080fd5b50514303918302919091029091019392505050565b60006136678261133585670de0b6b3a764000063ffffffff614b1e16565b60008061392a868685615117565b90508015611edd57611edd8585836152d5565b60008061394983615438565b90508015613667576136678482614c90565b6060808251604051908082528060200260200182016040528015613989578160200160208202803883390190505b50905060005b83518110156139e0576139b48482815181106139a757fe5b6020026020010151614bd5565b8282815181106139c057fe5b6001600160a01b039092166020928302919091019091015260010161398f565b5092915050565b604080516001600160a01b0385811660248301528481166044830152606480830185905283518084039091018152608490920183526020820180516001600160e01b03166323b872dd60e01b17815292518251600094606094938a169392918291908083835b60208310613a6c5780518252601f199092019160209182019101613a4d565b6001836020036101000a0380198251168184511680821785525050505050509050019150506000604051808303816000865af19150503d8060008114613ace576040519150601f19603f3d011682016040523d82523d6000602084013e613ad3565b606091505b5091509150818015613b01575080511580613b015750808060200190516020811015613afe57600080fd5b50515b613b3c5760405162461bcd60e51b8152600401808060200182810382526024815260200180615ea76024913960400191505060405180910390fd5b505050505050565b600154604080516370e264b360e11b815290516000926001600160a01b03169163e1c4c966916004808301926020929190829003018186803b158015613b8957600080fd5b505afa158015613b9d573d6000803e3d6000fd5b505050506040513d6020811015613bb357600080fd5b5051905060005b600184510381101561406057600080858381518110613bd557fe5b6020026020010151868460010181518110613bec57fe5b602090810291909101015160015460408051632a26552b60e11b81526001600160a01b03808616600483015280851660248301528251959750939550600094939092169263544caa56926044808201939291829003018186803b158015613c5257600080fd5b505afa158015613c66573d6000803e3d6000fd5b505050506040513d6040811015613c7c57600080fd5b505160015488519192506000916001600160a01b039091169063e6a43905908a9088908110613ca757fe5b60200260200101518a8860010181518110613cbe57fe5b60200260200101516040518363ffffffff1660e01b815260040180836001600160a01b03166001600160a01b03168152602001826001600160a01b03166001600160a01b031681526020019250505060206040518083038186803b158015613d2557600080fd5b505afa158015613d39573d6000803e3d6000fd5b505050506040513d6020811015613d4f57600080fd5b505189519091506000908a9060018801908110613d6857fe5b60209081029190910101516003549091506001600160a01b031615613e18576003546040805163152cf14360e31b81523360048201526001600160a01b0388811660248301528781166044830152606482018590529151919092169163a9678a189160848083019260209291908290030181600087803b158015613deb57600080fd5b505af1158015613dff573d6000803e3d6000fd5b505050506040513d6020811015613e1557600080fd5b50505b600080846001600160a01b0316876001600160a01b031614613e3c57826000613e40565b6000835b91509150600060028c51038910613e57578a613e6a565b613e6a878d8b6002018151811061187257fe5b9050600e5460011415613f2c576000613e8489878d615601565b90508015613e9557613e9581615ad8565b613e9f8989612278565b6001600160a01b0316630442a865858585856040518563ffffffff1660e01b815260040180858152602001848152602001836001600160a01b03166001600160a01b03168152602001828152602001945050505050600060405180830381600087803b158015613f0e57600080fd5b505af1158015613f22573d6000803e3d6000fd5b505050505061404c565b613f368888612278565b6001600160a01b031663022c0d9f84848460006040519080825280601f01601f191660200182016040528015613f73576020820181803883390190505b506040518563ffffffff1660e01b815260040180858152602001848152602001836001600160a01b03166001600160a01b0316815260200180602001828103825283818151815260200191508051906020019080838360005b83811015613fe4578181015183820152602001613fcc565b50505050905090810190601f1680156140115780820380516001836020036101000a031916815260200191505b5095505050505050600060405180830381600087803b15801561403357600080fd5b505af1158015614047573d6000803e3d6000fd5b505050505b505060019096019550613bba945050505050565b5050505050565b606083428110156140ad576040805162461bcd60e51b81526020600482015260156024820152600080516020615e1d833981519152604482015290519081900360640190fd5b60606140b888614f96565b90506140c2615cbe565b8a8160400181815250506140dc8260008151811061323d57fe5b815281516140ef90839060009061323d57fe5b60208201528051600090614104908d906138fe565b90506060600160009054906101000a90046001600160a01b03166001600160a01b031663d2b364c6838d8d6040518463ffffffff1660e01b81526004018084815260200180602001836001600160a01b03166001600160a01b03168152602001828103825284818151815260200191508051906020019060200280838360005b8381101561419c578181015183820152602001614184565b5050505090500194505050505060006040518083038186803b1580156141c157600080fd5b505afa1580156141d5573d6000803e3d6000fd5b505050506040513d6000823e601f3d908101601f1916820160405260208110156141fe57600080fd5b8101908080516040519392919084600160201b82111561421d57600080fd5b90830190602082018581111561423257600080fd5b82518660208202830111600160201b8211171561424e57600080fd5b82525081516020918201928201910280838360005b8381101561427b578181015183820152602001614263565b5050505090500160405250505090506142af8160018351038151811061429d57fe5b6020026020010151846020015161482f565b606084018190528c11156142f45760405162461bcd60e51b8152600401808060200182810382526022815260200180615e626022913960400191505060405180910390fd5b87156143185761431361430d8c6000815181106134ae57fe5b8e614d83565b614328565b6143288b6000815181106134e257fe5b614333818c30613b44565b8a516000190187156143555761434f8b83838151811061355557fe5b50614366565b61436485828151811061357757fe5b505b8b51604051908082528060200260200182016040528015614391578160200160208202803883390190505b5096508d876000815181106143a257fe5b602002602001018181525050836060015187828151811061360857fe5b60015460408051634219547760e01b815290516000926001600160a01b0316916342195477916004808301926020929190829003018186803b15801561440457600080fd5b505afa158015614418573d6000803e3d6000fd5b505050506040513d602081101561442e57600080fd5b5051604080516326c7bd9360e01b81526001600160a01b038581166004830152915191909216916326c7bd939160248083019260209291908290030181600087803b15801561447c57600080fd5b505af1158015613781573d6000803e3d6000fd5b600080600061449e89614bd5565b905060006144ab89614bd5565b6001546040805163e6a4390560e01b81526001600160a01b03868116600483015284811660248301529151939450600093919092169163e6a43905916044808301926020929190829003018186803b15801561450657600080fd5b505afa15801561451a573d6000803e3d6000fd5b505050506040513d602081101561453057600080fd5b50516001600160a01b031614156145c557600154604080516364e329cb60e11b81526001600160a01b03858116600483015284811660248301529151919092169163c9c653969160448083019260209291908290030181600087803b15801561459857600080fd5b505af11580156145ac573d6000803e3d6000fd5b505050506040513d60208110156145c257600080fd5b50505b6001546040805163354aedbd60e21b81526001600160a01b03858116600483015284811660248301528251600094859492169263d52bb6f4926044808301939192829003018186803b15801561461a57600080fd5b505afa15801561462e573d6000803e3d6000fd5b505050506040513d604081101561464457600080fd5b50805160209091015190925090508115801561465e575080155b1561466e57899550889450614820565b60015460408051632b58577b60e21b8152600481018d9052602481018590526044810184905290516000926001600160a01b03169163ad615dec916064808301926020929190829003018186803b1580156146c857600080fd5b505afa1580156146dc573d6000803e3d6000fd5b505050506040513d60208110156146f257600080fd5b50519050898111614747578781101561473c5760405162461bcd60e51b8152600401808060200182810382526023815260200180615ce76023913960400191505060405180910390fd5b8a965094508461481e565b60015460408051632b58577b60e21b8152600481018d9052602481018590526044810186905290516000926001600160a01b03169163ad615dec916064808301926020929190829003018186803b1580156147a157600080fd5b505afa1580156147b5573d6000803e3d6000fd5b505050506040513d60208110156147cb57600080fd5b505190508b8111156147d957fe5b898110156148185760405162461bcd60e51b8152600401808060200182810382526023815260200180615ecb6023913960400191505060405180910390fd5b96508995505b505b50505050965096945050505050565b6000613667670de0b6b3a7640000611335858563ffffffff614b1e16565b614859843330846139e7565b604080516370a0823160e01b815230600482015290516000916001600160a01b038616916370a0823191602480820192602092909190829003018186803b1580156148a357600080fd5b505afa1580156148b7573d6000803e3d6000fd5b505050506040513d60208110156148cd57600080fd5b50516040805163095ea7b360e01b81526001600160a01b0387811660048301526024820186905291519293509087169163095ea7b3916044808201926020929091908290030181600087803b15801561492557600080fd5b505af1158015614939573d6000803e3d6000fd5b505050506040513d602081101561494f57600080fd5b50506040805163140e25ad60e31b81526004810184905290516000916001600160a01b0387169163a0712d689160248082019260209290919082900301818787803b15801561499d57600080fd5b505af11580156149b1573d6000803e3d6000fd5b505050506040513d60208110156149c757600080fd5b50516040805163095ea7b360e01b81526001600160a01b0388166004820181905260006024830181905292519394509263095ea7b392604480840193602093929083900390910190829087803b158015614a2057600080fd5b505af1158015614a34573d6000803e3d6000fd5b505050506040513d6020811015614a4a57600080fd5b50508015614a8d576040805162461bcd60e51b815260206004820152600b60248201526a1b5a5b9d0819985a5b195960aa1b604482015290519081900360640190fd5b604080516370a0823160e01b815230600482015290516000916001600160a01b038816916370a0823191602480820192602092909190829003018186803b158015614ad757600080fd5b505afa158015614aeb573d6000803e3d6000fd5b505050506040513d6020811015614b0157600080fd5b50519050828103614b14873088846139e7565b5050505050505050565b600082614b2d5750600061366a565b82820282848281614b3a57fe5b04146136675760405162461bcd60e51b8152600401808060200182810382526021815260200180615dac6021913960400191505060405180910390fd5b600082820183811015613667576040805162461bcd60e51b815260206004820152601b60248201527f536166654d6174683a206164646974696f6e206f766572666c6f770000000000604482015290519081900360640190fd5b3390565b60015460408051634219547760e01b815290516000926001600160a01b0316916342195477916004808301926020929190829003018186803b158015614c1a57600080fd5b505afa158015614c2e573d6000803e3d6000fd5b505050506040513d6020811015614c4457600080fd5b50516040805163b8d7b66960e01b81526001600160a01b0385811660048301529151919092169163b8d7b669916024808301926020929190829003018186803b15801561376d57600080fd5b604080516000808252602082019092526001600160a01b0384169083906040518082805190602001908083835b60208310614cdc5780518252601f199092019160209182019101614cbd565b6001836020036101000a03801982511681845116808217855250505050505090500191505060006040518083038185875af1925050503d8060008114614d3e576040519150601f19603f3d011682016040523d82523d6000602084013e614d43565b606091505b5050905080612c515760405162461bcd60e51b8152600401808060200182810382526023815260200180615e846023913960400191505060405180910390fd5b600554604080516370a0823160e01b815230600482015290516000926001600160a01b0316916370a08231916024808301926020929190829003018186803b158015614dce57600080fd5b505afa158015614de2573d6000803e3d6000fd5b505050506040513d6020811015614df857600080fd5b505160055460408051631249c58b60e01b815290519293506001600160a01b0390911691631249c58b918591600480830192600092919082900301818588803b158015614e4457600080fd5b505af1158015614e58573d6000803e3d6000fd5b5050600554604080516370a0823160e01b81523060048201529051600095506001600160a01b0390921693506370a082319250602480820192602092909190829003018186803b158015614eab57600080fd5b505afa158015614ebf573d6000803e3d6000fd5b505050506040513d6020811015614ed557600080fd5b505160055490915082820390614060906001600160a01b03163087846139e7565b6001600160a01b038116614f3b5760405162461bcd60e51b8152600401808060200182810382526026815260200180615d566026913960400191505060405180910390fd5b600080546040516001600160a01b03808516939216917f8be0079c531659141344cd1fd0a4f28419497f9722a3daafe3b4186f6b6457e091a3600080546001600160a01b0319166001600160a01b0392909216919091179055565b6060808251604051908082528060200260200182016040528015614fc4578160200160208202803883390190505b50905060005b83518110156139e057614fef848281518110614fe257fe5b60200260200101516136b2565b828281518110614ffb57fe5b6001600160a01b0390921660209283029190910190910152600101614fca565b600081848411156150aa5760405162461bcd60e51b81526004018080602001828103825283818151815260200191508051906020019080838360005b8381101561506f578181015183820152602001615057565b50505050905090810190601f16801561509c5780820380516001836020036101000a031916815260200191505b509250505060405180910390fd5b505050900390565b600081836151015760405162461bcd60e51b815260206004820181815283516024840152835190928392604490910191908501908083836000831561506f578181015183820152602001615057565b50600083858161510d57fe5b0495945050505050565b604080516370a0823160e01b8152306004820152905160009182916001600160a01b038616916370a08231916024808301926020929190829003018186803b15801561516257600080fd5b505afa158015615176573d6000803e3d6000fd5b505050506040513d602081101561518c57600080fd5b50516040805163db006a7560e01b81526004810186905290519192506000916001600160a01b0388169163db006a7591602480830192602092919082900301818787803b1580156151dc57600080fd5b505af11580156151f0573d6000803e3d6000fd5b505050506040513d602081101561520657600080fd5b50519050801561524d576040805162461bcd60e51b815260206004820152600d60248201526c1c995919595b4819985a5b1959609a1b604482015290519081900360640190fd5b604080516370a0823160e01b815230600482015290516000916001600160a01b038816916370a0823191602480820192602092909190829003018186803b15801561529757600080fd5b505afa1580156152ab573d6000803e3d6000fd5b505050506040513d60208110156152c157600080fd5b5051905061278e818463ffffffff61362516565b604080516001600160a01b038481166024830152604480830185905283518084039091018152606490920183526020820180516001600160e01b031663a9059cbb60e01b178152925182516000946060949389169392918291908083835b602083106153525780518252601f199092019160209182019101615333565b6001836020036101000a0380198251168184511680821785525050505050509050019150506000604051808303816000865af19150503d80600081146153b4576040519150601f19603f3d011682016040523d82523d6000602084013e6153b9565b606091505b50915091508180156153e75750805115806153e757508080602001905160208110156153e457600080fd5b50515b614060576040805162461bcd60e51b815260206004820152601f60248201527f5472616e7366657248656c7065723a205452414e534645525f4641494c454400604482015290519081900360640190fd5b600254604080516370a0823160e01b8152306004820152905160009283926001600160a01b03909116916370a0823191602480820192602092909190829003018186803b15801561548857600080fd5b505afa15801561549c573d6000803e3d6000fd5b505050506040513d60208110156154b257600080fd5b50516005546040805163db006a7560e01b81526004810187905290519293506000926001600160a01b039092169163db006a759160248082019260209290919082900301818787803b15801561550757600080fd5b505af115801561551b573d6000803e3d6000fd5b505050506040513d602081101561553157600080fd5b505190508015615578576040805162461bcd60e51b815260206004820152600d60248201526c1c995919595b4819985a5b1959609a1b604482015290519081900360640190fd5b600254604080516370a0823160e01b815230600482015290516000926001600160a01b0316916370a08231916024808301926020929190829003018186803b1580156155c357600080fd5b505afa1580156155d7573d6000803e3d6000fd5b505050506040513d60208110156155ed57600080fd5b50519050611edd818463ffffffff61362516565b600080600160009054906101000a90046001600160a01b03166001600160a01b031663017e7e586040518163ffffffff1660e01b815260040160206040518083038186803b15801561565257600080fd5b505afa158015615666573d6000803e3d6000fd5b505050506040513d602081101561567c57600080fd5b505190506001600160a01b0381166156cb576040805162461bcd60e51b815260206004820152600d60248201526c666565546f206973207a65726f60981b604482015290519081900360640190fd5b60006156d6866136b2565b6001600160a01b03166370a08231866040518263ffffffff1660e01b815260040180826001600160a01b03166001600160a01b0316815260200191505060206040518083038186803b15801561572b57600080fd5b505afa15801561573f573d6000803e3d6000fd5b505050506040513d602081101561575557600080fd5b505160408051633f3b917d60e21b81526004810183905290519192506000916001600160a01b0388169163fcee45f4916024808301926020929190829003018186803b1580156157a457600080fd5b505afa1580156157b8573d6000803e3d6000fd5b505050506040513d60208110156157ce57600080fd5b505190506001600160a01b0387811690861614156157ee57809350615ace565b60005b600454811015615acc5760006004828154811061580a57fe5b60009182526020808320909101546001546040805163e6a4390560e01b81526001600160a01b038f81166004830152938416602482018190529151919650919092169263e6a4390592604480840193829003018186803b15801561586d57600080fd5b505afa158015615881573d6000803e3d6000fd5b505050506040513d602081101561589757600080fd5b505190506001600160a01b03811615615ac257876001600160a01b0316826001600160a01b03161415615953576040805163a9059cbb60e01b81526001600160a01b0383166004820181905260248201879052915163a9059cbb916044808201926020929091908290030181600087803b15801561591457600080fd5b505af1158015615928573d6000803e3d6000fd5b505050506040513d602081101561593e57600080fd5b5061594c9050818588615afd565b9650615abb565b6001546040805163e6a4390560e01b81526001600160a01b0385811660048301528b811660248301529151600093929092169163e6a4390591604480820192602092909190829003018186803b1580156159ac57600080fd5b505afa1580156159c0573d6000803e3d6000fd5b505050506040513d60208110156159d657600080fd5b505190506001600160a01b038116615a1f5760405162461bcd60e51b8152600401808060200182810382526025815260200180615e3d6025913960400191505060405180910390fd5b6040805163a9059cbb60e01b81526001600160a01b0384166004820181905260248201889052915163a9059cbb916044808201926020929091908290030181600087803b158015615a6f57600080fd5b505af1158015615a83573d6000803e3d6000fd5b505050506040513d6020811015615a9957600080fd5b5060009050615aa9838784615afd565b9050615ab682828a615afd565b985050505b5050615acc565b50506001016157f1565b505b5050509392505050565b436009541415615aef5760068054820190556131ba565b600680546007555543600955565b6000806000856001600160a01b0316630902f1ac6040518163ffffffff1660e01b815260040160606040518083038186803b158015615b3b57600080fd5b505afa158015615b4f573d6000803e3d6000fd5b505050506040513d6060811015615b6557600080fd5b5080516020909101516dffffffffffffffffffffffffffff9182169350169050615ba8615b98838763ffffffff614b7716565b611335878463ffffffff614b1e16565b60408051630442a86560e01b8152600060048201819052602482018490526001600160a01b03888116604484015260648301859052925193965091891692630442a8659260848084019391929182900301818387803b158015615c0a57600080fd5b505af1158015615c1e573d6000803e3d6000fd5b5050505050509392505050565b604051806101c001604052806000815260200160008152602001600081526020016000815260200160008152602001600081526020016000815260200160008152602001600081526020016000815260200160006001600160a01b0316815260200160006001600160a01b0316815260200160006001600160a01b0316815260200160006001600160a01b031681525090565b604051806080016040528060008152602001600081526020016000815260200160008152509056fe4164644c69717569646974793a20494e53554646494349454e545f425f414d4f554e5452656d6f76654c69717569646974793a20494e53554646494349454e545f425f414d4f554e5452656d6f76654c69717569646974793a20494e53554646494349454e545f415f414d4f554e544f776e61626c653a206e6577206f776e657220697320746865207a65726f206164647265737352656d6f76654c6971756964697479556e6465726c79696e673a20494e53554646494349454e545f415f414d4f554e54536166654d6174683a206d756c7469706c69636174696f6e206f766572666c6f774f776e61626c653a2063616c6c6572206973206e6f7420746865206f776e657252656d6f76654c6971756964697479556e6465726c79696e673a20494e53554646494349454e545f425f414d4f554e54446542616e6b526f757465723a2045585049524544000000000000000000000071756f746520636f696e20686173206e6f207061697220746f20616e63686f72546f6b656e526f757465723a20494e53554646494349454e545f4f55545055545f414d4f554e545472616e7366657248656c7065723a204554485f5452414e534645525f4641494c45445472616e7366657248656c7065723a205452414e534645525f46524f4d5f4641494c45444164644c69717569646974793a20494e53554646494349454e545f415f414d4f554e54a265627a7a7231582035af6b7dac82329a1bb373969407fcfb04c1db31a98019fefab52f987377f8a464736f6c63430005100032",
  "linkReferences": {},
  "deployedLinkReferences": {}
}