{
  "_format": "hh-sol-artifact-1",
  "contractName": "DeBankRouter",
  "sourceName": "contracts/swap/heco/Router.sol",
  "abi": [
    {
      "inputs": [
        {
          "internalType": "address",
          "name": "_factory",
          "type": "address"
        },
        {
          "internalType": "address",
          "name": "_wht",
          "type": "address"
        },
        {
          "internalType": "address",
          "name": "_cwht",
          "type": "address"
        },
        {
          "internalType": "address",
          "name": "_ctokenFactory",
          "type": "address"
        }
      ],
      "payable": false,
      "stateMutability": "nonpayable",
      "type": "constructor"
    },
    {
      "anonymous": false,
      "inputs": [
        {
          "indexed": true,
          "internalType": "address",
          "name": "previousOwner",
          "type": "address"
        },
        {
          "indexed": true,
          "internalType": "address",
          "name": "newOwner",
          "type": "address"
        }
      ],
      "name": "OwnershipTransferred",
      "type": "event"
    },
    {
      "payable": true,
      "stateMutability": "payable",
      "type": "fallback"
    },
    {
      "constant": true,
      "inputs": [],
      "name": "WHT",
      "outputs": [
        {
          "internalType": "address",
          "name": "",
          "type": "address"
        }
      ],
      "payable": false,
      "stateMutability": "view",
      "type": "function"
    },
    {
      "constant": false,
      "inputs": [
        {
          "internalType": "address",
          "name": "tokenA",
          "type": "address"
        },
        {
          "internalType": "address",
          "name": "tokenB",
          "type": "address"
        },
        {
          "internalType": "uint256",
          "name": "amountADesired",
          "type": "uint256"
        },
        {
          "internalType": "uint256",
          "name": "amountBDesired",
          "type": "uint256"
        },
        {
          "internalType": "uint256",
          "name": "amountAMin",
          "type": "uint256"
        },
        {
          "internalType": "uint256",
          "name": "amountBMin",
          "type": "uint256"
        },
        {
          "internalType": "address",
          "name": "to",
          "type": "address"
        },
        {
          "internalType": "uint256",
          "name": "deadline",
          "type": "uint256"
        }
      ],
      "name": "addLiquidity",
      "outputs": [
        {
          "internalType": "uint256",
          "name": "amountA",
          "type": "uint256"
        },
        {
          "internalType": "uint256",
          "name": "amountB",
          "type": "uint256"
        },
        {
          "internalType": "uint256",
          "name": "liquidityAmt",
          "type": "uint256"
        }
      ],
      "payable": false,
      "stateMutability": "nonpayable",
      "type": "function"
    },
    {
      "constant": false,
      "inputs": [
        {
          "internalType": "address",
          "name": "token",
          "type": "address"
        },
        {
          "internalType": "uint256",
          "name": "amountTokenDesired",
          "type": "uint256"
        },
        {
          "internalType": "uint256",
          "name": "amountTokenMin",
          "type": "uint256"
        },
        {
          "internalType": "uint256",
          "name": "amountETHMin",
          "type": "uint256"
        },
        {
          "internalType": "address",
          "name": "to",
          "type": "address"
        },
        {
          "internalType": "uint256",
          "name": "deadline",
          "type": "uint256"
        }
      ],
      "name": "addLiquidityETHUnderlying",
      "outputs": [
        {
          "internalType": "uint256",
          "name": "amountToken",
          "type": "uint256"
        },
        {
          "internalType": "uint256",
          "name": "amountETH",
          "type": "uint256"
        },
        {
          "internalType": "uint256",
          "name": "liquidity",
          "type": "uint256"
        }
      ],
      "payable": true,
      "stateMutability": "payable",
      "type": "function"
    },
    {
      "constant": false,
      "inputs": [
        {
          "internalType": "address",
          "name": "tokenA",
          "type": "address"
        },
        {
          "internalType": "address",
          "name": "tokenB",
          "type": "address"
        },
        {
          "internalType": "uint256",
          "name": "amountADesired",
          "type": "uint256"
        },
        {
          "internalType": "uint256",
          "name": "amountBDesired",
          "type": "uint256"
        },
        {
          "internalType": "uint256",
          "name": "amountAMin",
          "type": "uint256"
        },
        {
          "internalType": "uint256",
          "name": "amountBMin",
          "type": "uint256"
        },
        {
          "internalType": "address",
          "name": "to",
          "type": "address"
        },
        {
          "internalType": "uint256",
          "name": "deadline",
          "type": "uint256"
        }
      ],
      "name": "addLiquidityUnderlying",
      "outputs": [
        {
          "internalType": "uint256",
          "name": "amountA",
          "type": "uint256"
        },
        {
          "internalType": "uint256",
          "name": "amountB",
          "type": "uint256"
        },
        {
          "internalType": "uint256",
          "name": "liquidity",
          "type": "uint256"
        }
      ],
      "payable": false,
      "stateMutability": "nonpayable",
      "type": "function"
    },
    {
      "constant": false,
      "inputs": [
        {
          "internalType": "address",
          "name": "token",
          "type": "address"
        }
      ],
      "name": "addQuoteToken",
      "outputs": [],
      "payable": false,
      "stateMutability": "nonpayable",
      "type": "function"
    },
    {
      "constant": false,
      "inputs": [
        {
          "internalType": "address",
          "name": "token",
          "type": "address"
        },
        {
          "internalType": "address",
          "name": "to",
          "type": "address"
        },
        {
          "internalType": "uint256",
          "name": "amt",
          "type": "uint256"
        }
      ],
      "name": "adminTransfer",
      "outputs": [],
      "payable": false,
      "stateMutability": "nonpayable",
      "type": "function"
    },
    {
      "constant": true,
      "inputs": [],
      "name": "cWHT",
      "outputs": [
        {
          "internalType": "address",
          "name": "",
          "type": "address"
        }
      ],
      "payable": false,
      "stateMutability": "view",
      "type": "function"
    },
    {
      "constant": true,
      "inputs": [],
      "name": "ctokenFactory",
      "outputs": [
        {
          "internalType": "contract LErc20DelegatorInterface",
          "name": "",
          "type": "address"
        }
      ],
      "payable": false,
      "stateMutability": "view",
      "type": "function"
    },
    {
      "constant": true,
      "inputs": [],
      "name": "ebePerBlock",
      "outputs": [
        {
          "internalType": "uint256",
          "name": "",
          "type": "uint256"
        }
      ],
      "payable": false,
      "stateMutability": "view",
      "type": "function"
    },
    {
      "constant": true,
      "inputs": [],
      "name": "ebeRewards",
      "outputs": [
        {
          "internalType": "uint256",
          "name": "",
          "type": "uint256"
        }
      ],
      "payable": false,
      "stateMutability": "view",
      "type": "function"
    },
    {
      "constant": true,
      "inputs": [],
      "name": "factory",
      "outputs": [
        {
          "internalType": "address",
          "name": "",
          "type": "address"
        }
      ],
      "payable": false,
      "stateMutability": "view",
      "type": "function"
    },
    {
      "constant": true,
      "inputs": [],
      "name": "feeAlloc",
      "outputs": [
        {
          "internalType": "uint256",
          "name": "",
          "type": "uint256"
        }
      ],
      "payable": false,
      "stateMutability": "view",
      "type": "function"
    },
    {
      "constant": true,
      "inputs": [
        {
          "internalType": "uint256",
          "name": "amountOut",
          "type": "uint256"
        },
        {
          "internalType": "address[]",
          "name": "path",
          "type": "address[]"
        },
        {
          "internalType": "address",
          "name": "to",
          "type": "address"
        }
      ],
      "name": "getAmountsIn",
      "outputs": [
        {
          "internalType": "uint256[]",
          "name": "amounts",
          "type": "uint256[]"
        }
      ],
      "payable": false,
      "stateMutability": "view",
      "type": "function"
    },
    {
      "constant": true,
      "inputs": [
        {
          "internalType": "uint256",
          "name": "amountIn",
          "type": "uint256"
        },
        {
          "internalType": "address[]",
          "name": "path",
          "type": "address[]"
        },
        {
          "internalType": "address",
          "name": "to",
          "type": "address"
        }
      ],
      "name": "getAmountsOut",
      "outputs": [
        {
          "internalType": "uint256[]",
          "name": "amounts",
          "type": "uint256[]"
        }
      ],
      "payable": false,
      "stateMutability": "view",
      "type": "function"
    },
    {
      "constant": true,
      "inputs": [],
      "name": "isOwner",
      "outputs": [
        {
          "internalType": "bool",
          "name": "",
          "type": "bool"
        }
      ],
      "payable": false,
      "stateMutability": "view",
      "type": "function"
    },
    {
      "constant": false,
      "inputs": [
        {
          "internalType": "address",
          "name": "token0",
          "type": "address"
        },
        {
          "internalType": "address",
          "name": "token1",
          "type": "address"
        },
        {
          "internalType": "uint256",
          "name": "_amount",
          "type": "uint256"
        }
      ],
      "name": "mintEBEToken",
      "outputs": [
        {
          "internalType": "uint256",
          "name": "",
          "type": "uint256"
        }
      ],
      "payable": false,
      "stateMutability": "nonpayable",
      "type": "function"
    },
    {
      "constant": true,
      "inputs": [],
      "name": "owner",
      "outputs": [
        {
          "internalType": "address",
          "name": "",
          "type": "address"
        }
      ],
      "payable": false,
      "stateMutability": "view",
      "type": "function"
    },
    {
      "constant": true,
      "inputs": [
        {
          "internalType": "address",
          "name": "tokenA",
          "type": "address"
        },
        {
          "internalType": "address",
          "name": "tokenB",
          "type": "address"
        }
      ],
      "name": "pairFor",
      "outputs": [
        {
          "internalType": "address",
          "name": "pair",
          "type": "address"
        }
      ],
      "payable": false,
      "stateMutability": "view",
      "type": "function"
    },
    {
      "constant": true,
      "inputs": [],
      "name": "pendingEBE",
      "outputs": [
        {
          "internalType": "uint256",
          "name": "",
          "type": "uint256"
        }
      ],
      "payable": false,
      "stateMutability": "view",
      "type": "function"
    },
    {
      "constant": true,
      "inputs": [
        {
          "internalType": "uint256",
          "name": "amountA",
          "type": "uint256"
        },
        {
          "internalType": "uint256",
          "name": "reserveA",
          "type": "uint256"
        },
        {
          "internalType": "uint256",
          "name": "reserveB",
          "type": "uint256"
        }
      ],
      "name": "quote",
      "outputs": [
        {
          "internalType": "uint256",
          "name": "amountB",
          "type": "uint256"
        }
      ],
      "payable": false,
      "stateMutability": "view",
      "type": "function"
    },
    {
      "constant": true,
      "inputs": [
        {
          "internalType": "uint256",
          "name": "",
          "type": "uint256"
        }
      ],
      "name": "quoteTokens",
      "outputs": [
        {
          "internalType": "address",
          "name": "",
          "type": "address"
        }
      ],
      "payable": false,
      "stateMutability": "view",
      "type": "function"
    },
    {
      "constant": false,
      "inputs": [
        {
          "internalType": "address",
          "name": "ctokenA",
          "type": "address"
        },
        {
          "internalType": "address",
          "name": "ctokenB",
          "type": "address"
        },
        {
          "internalType": "uint256",
          "name": "liquidity",
          "type": "uint256"
        },
        {
          "internalType": "uint256",
          "name": "amountAMin",
          "type": "uint256"
        },
        {
          "internalType": "uint256",
          "name": "amountBMin",
          "type": "uint256"
        },
        {
          "internalType": "address",
          "name": "to",
          "type": "address"
        },
        {
          "internalType": "uint256",
          "name": "deadline",
          "type": "uint256"
        }
      ],
      "name": "removeLiquidity",
      "outputs": [
        {
          "internalType": "uint256",
          "name": "amountA",
          "type": "uint256"
        },
        {
          "internalType": "uint256",
          "name": "amountB",
          "type": "uint256"
        }
      ],
      "payable": false,
      "stateMutability": "nonpayable",
      "type": "function"
    },
    {
      "constant": false,
      "inputs": [
        {
          "internalType": "address",
          "name": "token",
          "type": "address"
        },
        {
          "internalType": "uint256",
          "name": "liquidity",
          "type": "uint256"
        },
        {
          "internalType": "uint256",
          "name": "amountTokenMin",
          "type": "uint256"
        },
        {
          "internalType": "uint256",
          "name": "amountETHMin",
          "type": "uint256"
        },
        {
          "internalType": "address",
          "name": "to",
          "type": "address"
        },
        {
          "internalType": "uint256",
          "name": "deadline",
          "type": "uint256"
        }
      ],
      "name": "removeLiquidityETHUnderlying",
      "outputs": [
        {
          "internalType": "uint256",
          "name": "amountToken",
          "type": "uint256"
        },
        {
          "internalType": "uint256",
          "name": "amountETH",
          "type": "uint256"
        }
      ],
      "payable": false,
      "stateMutability": "nonpayable",
      "type": "function"
    },
    {
      "constant": false,
      "inputs": [
        {
          "internalType": "address",
          "name": "token",
          "type": "address"
        },
        {
          "internalType": "uint256",
          "name": "liquidity",
          "type": "uint256"
        },
        {
          "internalType": "uint256",
          "name": "amountTokenMin",
          "type": "uint256"
        },
        {
          "internalType": "uint256",
          "name": "amountETHMin",
          "type": "uint256"
        },
        {
          "internalType": "address",
          "name": "to",
          "type": "address"
        },
        {
          "internalType": "uint256",
          "name": "deadline",
          "type": "uint256"
        },
        {
          "internalType": "bool",
          "name": "approveMax",
          "type": "bool"
        },
        {
          "internalType": "uint8",
          "name": "v",
          "type": "uint8"
        },
        {
          "internalType": "bytes32",
          "name": "r",
          "type": "bytes32"
        },
        {
          "internalType": "bytes32",
          "name": "s",
          "type": "bytes32"
        }
      ],
      "name": "removeLiquidityETHUnderlyingWithPermit",
      "outputs": [
        {
          "internalType": "uint256",
          "name": "amountToken",
          "type": "uint256"
        },
        {
          "internalType": "uint256",
          "name": "amountETH",
          "type": "uint256"
        }
      ],
      "payable": false,
      "stateMutability": "nonpayable",
      "type": "function"
    },
    {
      "constant": false,
      "inputs": [
        {
          "internalType": "address",
          "name": "tokenA",
          "type": "address"
        },
        {
          "internalType": "address",
          "name": "tokenB",
          "type": "address"
        },
        {
          "internalType": "uint256",
          "name": "liquidity",
          "type": "uint256"
        },
        {
          "internalType": "uint256",
          "name": "amountAMin",
          "type": "uint256"
        },
        {
          "internalType": "uint256",
          "name": "amountBMin",
          "type": "uint256"
        },
        {
          "internalType": "address",
          "name": "to",
          "type": "address"
        },
        {
          "internalType": "uint256",
          "name": "deadline",
          "type": "uint256"
        }
      ],
      "name": "removeLiquidityUnderlying",
      "outputs": [
        {
          "internalType": "uint256",
          "name": "amountA",
          "type": "uint256"
        },
        {
          "internalType": "uint256",
          "name": "amountB",
          "type": "uint256"
        }
      ],
      "payable": false,
      "stateMutability": "nonpayable",
      "type": "function"
    },
    {
      "constant": false,
      "inputs": [
        {
          "internalType": "address",
          "name": "tokenA",
          "type": "address"
        },
        {
          "internalType": "address",
          "name": "tokenB",
          "type": "address"
        },
        {
          "internalType": "uint256",
          "name": "liquidity",
          "type": "uint256"
        },
        {
          "internalType": "uint256",
          "name": "amountAMin",
          "type": "uint256"
        },
        {
          "internalType": "uint256",
          "name": "amountBMin",
          "type": "uint256"
        },
        {
          "internalType": "address",
          "name": "to",
          "type": "address"
        },
        {
          "internalType": "uint256",
          "name": "deadline",
          "type": "uint256"
        },
        {
          "internalType": "bool",
          "name": "approveMax",
          "type": "bool"
        },
        {
          "internalType": "uint8",
          "name": "v",
          "type": "uint8"
        },
        {
          "internalType": "bytes32",
          "name": "r",
          "type": "bytes32"
        },
        {
          "internalType": "bytes32",
          "name": "s",
          "type": "bytes32"
        }
      ],
      "name": "removeLiquidityWithPermit",
      "outputs": [
        {
          "internalType": "uint256",
          "name": "amountA",
          "type": "uint256"
        },
        {
          "internalType": "uint256",
          "name": "amountB",
          "type": "uint256"
        }
      ],
      "payable": false,
      "stateMutability": "nonpayable",
      "type": "function"
    },
    {
      "constant": false,
      "inputs": [],
      "name": "renounceOwnership",
      "outputs": [],
      "payable": false,
      "stateMutability": "nonpayable",
      "type": "function"
    },
    {
      "constant": false,
      "inputs": [
        {
          "internalType": "address[]",
          "name": "tokens",
          "type": "address[]"
        }
      ],
      "name": "resetQuoteTokens",
      "outputs": [],
      "payable": false,
      "stateMutability": "nonpayable",
      "type": "function"
    },
    {
      "constant": true,
      "inputs": [
        {
          "internalType": "uint256",
          "name": "blockNumber",
          "type": "uint256"
        }
      ],
      "name": "reward",
      "outputs": [
        {
          "internalType": "uint256",
          "name": "",
          "type": "uint256"
        }
      ],
      "payable": false,
      "stateMutability": "view",
      "type": "function"
    },
    {
      "constant": true,
      "inputs": [],
      "name": "rewardToken",
      "outputs": [
        {
          "internalType": "address",
          "name": "",
          "type": "address"
        }
      ],
      "payable": false,
      "stateMutability": "view",
      "type": "function"
    },
    {
      "constant": false,
      "inputs": [
        {
          "internalType": "uint256",
          "name": "_ebePerBlock",
          "type": "uint256"
        }
      ],
      "name": "setEbePerBlock",
      "outputs": [],
      "payable": false,
      "stateMutability": "nonpayable",
      "type": "function"
    },
    {
      "constant": false,
      "inputs": [
        {
          "internalType": "uint256",
          "name": "_feeAlloc",
          "type": "uint256"
        }
      ],
      "name": "setFeeAlloc",
      "outputs": [],
      "payable": false,
      "stateMutability": "nonpayable",
      "type": "function"
    },
    {
      "constant": false,
      "inputs": [
        {
          "internalType": "address",
          "name": "_reword",
          "type": "address"
        }
      ],
      "name": "setRewardToken",
      "outputs": [],
      "payable": false,
      "stateMutability": "nonpayable",
      "type": "function"
    },
    {
      "constant": false,
      "inputs": [
        {
          "internalType": "address",
          "name": "_swapMininng",
          "type": "address"
        }
      ],
      "name": "setSwapMining",
      "outputs": [],
      "payable": false,
      "stateMutability": "nonpayable",
      "type": "function"
    },
    {
      "constant": false,
      "inputs": [
        {
          "internalType": "uint256",
          "name": "amountOutMin",
          "type": "uint256"
        },
        {
          "internalType": "address[]",
          "name": "path",
          "type": "address[]"
        },
        {
          "internalType": "address",
          "name": "to",
          "type": "address"
        },
        {
          "internalType": "uint256",
          "name": "deadline",
          "type": "uint256"
        }
      ],
      "name": "swapExactETHForTokensUnderlying",
      "outputs": [
        {
          "internalType": "uint256[]",
          "name": "amounts",
          "type": "uint256[]"
        }
      ],
      "payable": true,
      "stateMutability": "payable",
      "type": "function"
    },
    {
      "constant": false,
      "inputs": [
        {
          "internalType": "uint256",
          "name": "amountIn",
          "type": "uint256"
        },
        {
          "internalType": "uint256",
          "name": "amountOutMin",
          "type": "uint256"
        },
        {
          "internalType": "address[]",
          "name": "path",
          "type": "address[]"
        },
        {
          "internalType": "address",
          "name": "to",
          "type": "address"
        },
        {
          "internalType": "uint256",
          "name": "deadline",
          "type": "uint256"
        }
      ],
      "name": "swapExactTokensForETHUnderlying",
      "outputs": [
        {
          "internalType": "uint256[]",
          "name": "amounts",
          "type": "uint256[]"
        }
      ],
      "payable": false,
      "stateMutability": "nonpayable",
      "type": "function"
    },
    {
      "constant": false,
      "inputs": [
        {
          "internalType": "uint256",
          "name": "amountIn",
          "type": "uint256"
        },
        {
          "internalType": "uint256",
          "name": "amountOutMin",
          "type": "uint256"
        },
        {
          "internalType": "address[]",
          "name": "cpath",
          "type": "address[]"
        },
        {
          "internalType": "address",
          "name": "to",
          "type": "address"
        },
        {
          "internalType": "uint256",
          "name": "deadline",
          "type": "uint256"
        }
      ],
      "name": "swapExactTokensForTokens",
      "outputs": [
        {
          "internalType": "uint256[]",
          "name": "amounts",
          "type": "uint256[]"
        },
        {
          "internalType": "uint256",
          "name": "fee",
          "type": "uint256"
        }
      ],
      "payable": false,
      "stateMutability": "nonpayable",
      "type": "function"
    },
    {
      "constant": false,
      "inputs": [
        {
          "internalType": "uint256",
          "name": "amountIn",
          "type": "uint256"
        },
        {
          "internalType": "uint256",
          "name": "amountOutMin",
          "type": "uint256"
        },
        {
          "internalType": "address[]",
          "name": "path",
          "type": "address[]"
        },
        {
          "internalType": "address",
          "name": "to",
          "type": "address"
        },
        {
          "internalType": "uint256",
          "name": "deadline",
          "type": "uint256"
        }
      ],
      "name": "swapExactTokensForTokensUnderlying",
      "outputs": [
        {
          "internalType": "uint256[]",
          "name": "amounts",
          "type": "uint256[]"
        }
      ],
      "payable": false,
      "stateMutability": "nonpayable",
      "type": "function"
    },
    {
      "constant": true,
      "inputs": [],
      "name": "swapFeeCurrent",
      "outputs": [
        {
          "internalType": "uint256",
          "name": "",
          "type": "uint256"
        }
      ],
      "payable": false,
      "stateMutability": "view",
      "type": "function"
    },
    {
      "constant": true,
      "inputs": [],
      "name": "swapFeeLastBlock",
      "outputs": [
        {
          "internalType": "uint256",
          "name": "",
          "type": "uint256"
        }
      ],
      "payable": false,
      "stateMutability": "view",
      "type": "function"
    },
    {
      "constant": true,
      "inputs": [],
      "name": "swapFeeTotal",
      "outputs": [
        {
          "internalType": "uint256",
          "name": "",
          "type": "uint256"
        }
      ],
      "payable": false,
      "stateMutability": "view",
      "type": "function"
    },
    {
      "constant": true,
      "inputs": [],
      "name": "swapMining",
      "outputs": [
        {
          "internalType": "address",
          "name": "",
          "type": "address"
        }
      ],
      "payable": false,
      "stateMutability": "view",
      "type": "function"
    },
    {
      "constant": false,
      "inputs": [
        {
          "internalType": "uint256",
          "name": "amountOut",
          "type": "uint256"
        },
        {
          "internalType": "uint256",
          "name": "amountInMax",
          "type": "uint256"
        },
        {
          "internalType": "address[]",
          "name": "cpath",
          "type": "address[]"
        },
        {
          "internalType": "address",
          "name": "to",
          "type": "address"
        },
        {
          "internalType": "uint256",
          "name": "deadline",
          "type": "uint256"
        }
      ],
      "name": "swapTokensForExactTokens",
      "outputs": [
        {
          "internalType": "uint256[]",
          "name": "amounts",
          "type": "uint256[]"
        },
        {
          "internalType": "uint256",
          "name": "fee",
          "type": "uint256"
        }
      ],
      "payable": false,
      "stateMutability": "nonpayable",
      "type": "function"
    },
    {
      "constant": false,
      "inputs": [
        {
          "internalType": "address",
          "name": "newOwner",
          "type": "address"
        }
      ],
      "name": "transferOwnership",
      "outputs": [],
      "payable": false,
      "stateMutability": "nonpayable",
      "type": "function"
    }
  ],
  "bytecode": "0x60806040523480156200001157600080fd5b50604051620067b6380380620067b6833981810160405260808110156200003757600080fd5b50805160208201516040830151606090930151919290916000620000636001600160e01b03620001da16565b600080546001600160a01b0319166001600160a01b0383169081178255604051929350917f8be0079c531659141344cd1fd0a4f28419497f9722a3daafe3b4186f6b6457e0908290a350600180546001600160a01b03199081166001600160a01b038781169182179093556002805483168785161790556004805483168685161781556006805490931693851693909317909155604080516370e264b360e11b8152905160059363e1c4c96692808201926020929091829003018186803b1580156200012e57600080fd5b505afa15801562000143573d6000803e3d6000fd5b505050506040513d60208110156200015a57600080fd5b505181546001808201845560009384526020842090910180546001600160a01b03199081166001600160a01b03948516179091556002546005805493840181559094527f036b6384b5eca791c62761152d0c79bb0604c104a5fb6f4eb0703f3154bb3db0909101805493909216921691909117905550620001de92505050565b3390565b6165c880620001ee6000396000f3fe6080604052600436106102675760003560e01c80638aee812711610144578063d2b364c6116100b6578063e8e337001161007a578063e8e3370014610dfa578063ee41be8e14610e5c578063efd06f2e14610ee0578063f1844a2514610f26578063f2fde38b14610f3b578063f7c618c114610f6e57610267565b8063d2b364c614610c5a578063d408ee2d14610d1a578063d73701a914610d2f578063da72c1e814610d44578063dbdfc62514610d8757610267565b8063a9fb763c11610108578063a9fb763c14610b01578063ad615dec14610b2b578063baa2abde14610b61578063c08c2c2514610bbe578063c45a015514610be8578063c5746a6e14610bfd57610267565b80638aee8127146109bf5780638da5cb5b146109f25780638e750db914610a075780638f32d59b14610a9d57806396ed28f914610ac657610267565b80635710207c116101dd57806366f9e64b116101a157806366f9e64b14610812578063715018a61461083c57806378b8d735146108515780637e87ffe8146108ff57806387a24957146109145780638803dbee1461092957610267565b80635710207c14610720578063575815111461073557806358956d41146107685780635cb48592146107e85780635f73ea33146107fd57610267565b80632c9115c71161022f5780632c9115c7146104e457806338ed17391461050e5780633e527d0e146105ff5780633eabf55f146106425780634e5eda11146106d85780634f887183146106ed57610267565b80630c49bd13146102925780630f497420146103a257806314e5207b146103c95780632195995c1461043557806325c9e276146104b3575b6002546001600160a01b031633148061028a57506004546001600160a01b031633145b61029057fe5b005b34801561029e57600080fd5b50610352600480360360608110156102b557600080fd5b81359190810190604081016020820135600160201b8111156102d657600080fd5b8201836020820111156102e857600080fd5b803590602001918460208302840111600160201b8311171561030957600080fd5b919080806020026020016040519081016040528093929190818152602001838360200280828437600092019190915250929550505090356001600160a01b03169150610f839050565b60408051602080825283518183015283519192839290830191858101910280838360005b8381101561038e578181015183820152602001610376565b505050509050019250505060405180910390f35b3480156103ae57600080fd5b506103b76110ee565b60408051918252519081900360200190f35b3480156103d557600080fd5b5061041c600480360360c08110156103ec57600080fd5b506001600160a01b0381358116916020810135916040820135916060810135916080820135169060a001356110f4565b6040805192835260208301919091528051918290030190f35b34801561044157600080fd5b5061041c600480360361016081101561045957600080fd5b506001600160a01b038135811691602081013582169160408201359160608101359160808201359160a08101359091169060c08101359060e081013515159060ff6101008201351690610120810135906101400135611208565b3480156104bf57600080fd5b506104c86112e1565b604080516001600160a01b039092168252519081900360200190f35b3480156104f057600080fd5b506104c86004803603602081101561050757600080fd5b50356112f0565b34801561051a57600080fd5b506105a4600480360360a081101561053157600080fd5b813591602081013591810190606081016040820135600160201b81111561055757600080fd5b82018360208201111561056957600080fd5b803590602001918460208302840111600160201b8311171561058a57600080fd5b91935091506001600160a01b038135169060200135611317565b6040518080602001838152602001828103825284818151815260200191508051906020019060200280838360005b838110156105ea5781810151838201526020016105d2565b50505050905001935050505060405180910390f35b34801561060b57600080fd5b506103b76004803603606081101561062257600080fd5b506001600160a01b03813581169160208101359091169060400135611627565b34801561064e57600080fd5b50610352600480360360a081101561066557600080fd5b813591602081013591810190606081016040820135600160201b81111561068b57600080fd5b82018360208201111561069d57600080fd5b803590602001918460208302840111600160201b831117156106be57600080fd5b91935091506001600160a01b038135169060200135611917565b3480156106e457600080fd5b506104c86119ab565b3480156106f957600080fd5b506102906004803603602081101561071057600080fd5b50356001600160a01b03166119ba565b34801561072c57600080fd5b506104c8611a23565b34801561074157600080fd5b506102906004803603602081101561075857600080fd5b50356001600160a01b0316611a32565b34801561077457600080fd5b506107ca600480360361010081101561078c57600080fd5b506001600160a01b038135811691602081013582169160408201359160608101359160808201359160a08101359160c0820135169060e00135611acb565b60408051938452602084019290925282820152519081900360600190f35b3480156107f457600080fd5b506104c8611cdf565b34801561080957600080fd5b506103b7611cee565b34801561081e57600080fd5b506102906004803603602081101561083557600080fd5b5035611d95565b34801561084857600080fd5b50610290611de1565b34801561085d57600080fd5b506102906004803603602081101561087457600080fd5b810190602081018135600160201b81111561088e57600080fd5b8201836020820111156108a057600080fd5b803590602001918460208302840111600160201b831117156108c157600080fd5b919080806020026020016040519081016040528093929190818152602001838360200280828437600092019190915250929550611e72945050505050565b34801561090b57600080fd5b506103b7611f5f565b34801561092057600080fd5b506103b7611f65565b34801561093557600080fd5b506105a4600480360360a081101561094c57600080fd5b813591602081013591810190606081016040820135600160201b81111561097257600080fd5b82018360208201111561098457600080fd5b803590602001918460208302840111600160201b831117156109a557600080fd5b91935091506001600160a01b038135169060200135611f6b565b3480156109cb57600080fd5b50610290600480360360208110156109e257600080fd5b50356001600160a01b0316612205565b3480156109fe57600080fd5b506104c861226e565b348015610a1357600080fd5b50610352600480360360a0811015610a2a57600080fd5b813591602081013591810190606081016040820135600160201b811115610a5057600080fd5b820183602082011115610a6257600080fd5b803590602001918460208302840111600160201b83111715610a8357600080fd5b91935091506001600160a01b03813516906020013561227d565b348015610aa957600080fd5b50610ab2612384565b604080519115158252519081900360200190f35b348015610ad257600080fd5b506104c860048036036040811015610ae957600080fd5b506001600160a01b03813581169160200135166123a8565b348015610b0d57600080fd5b506103b760048036036020811015610b2457600080fd5b5035612434565b348015610b3757600080fd5b506103b760048036036060811015610b4e57600080fd5b50803590602081013590604001356124e6565b348015610b6d57600080fd5b5061041c600480360360e0811015610b8457600080fd5b506001600160a01b038135811691602081013582169160408201359160608101359160808201359160a08101359091169060c00135612574565b348015610bca57600080fd5b5061029060048036036020811015610be157600080fd5b5035612821565b348015610bf457600080fd5b506104c86128c4565b348015610c0957600080fd5b5061041c600480360360e0811015610c2057600080fd5b506001600160a01b038135811691602081013582169160408201359160608101359160808201359160a08101359091169060c001356128d3565b348015610c6657600080fd5b5061035260048036036060811015610c7d57600080fd5b81359190810190604081016020820135600160201b811115610c9e57600080fd5b820183602082011115610cb057600080fd5b803590602001918460208302840111600160201b83111715610cd157600080fd5b919080806020026020016040519081016040528093929190818152602001838360200280828437600092019190915250929550505090356001600160a01b03169150612bc79050565b348015610d2657600080fd5b506103b7612c39565b348015610d3b57600080fd5b506103b7612c3f565b348015610d5057600080fd5b5061029060048036036060811015610d6757600080fd5b506001600160a01b03813581169160208101359091169060400135612c45565b348015610d9357600080fd5b5061041c6004803603610140811015610dab57600080fd5b506001600160a01b0381358116916020810135916040820135916060810135916080820135169060a08101359060c081013515159060ff60e08201351690610100810135906101200135612cba565b348015610e0657600080fd5b506107ca6004803603610100811015610e1e57600080fd5b506001600160a01b038135811691602081013582169160408201359160608101359160808201359160a08101359160c0820135169060e00135612d9c565b61035260048036036080811015610e7257600080fd5b81359190810190604081016020820135600160201b811115610e9357600080fd5b820183602082011115610ea557600080fd5b803590602001918460208302840111600160201b83111715610ec657600080fd5b91935091506001600160a01b038135169060200135612e82565b6107ca600480360360c0811015610ef657600080fd5b506001600160a01b0381358116916020810135916040820135916060810135916080820135169060a00135612fb1565b348015610f3257600080fd5b506103b76131cc565b348015610f4757600080fd5b5061029060048036036020811015610f5e57600080fd5b50356001600160a01b03166131d2565b348015610f7a57600080fd5b506104c8613225565b600154604051630c49bd1360e01b8152600481018581526001600160a01b03848116604484015260606024840181815287516064860152875191959290921693630c49bd1393899389938993608401906020808701910280838360005b83811015610ff8578181015183820152602001610fe0565b5050505090500194505050505060006040518083038186803b15801561101d57600080fd5b505afa158015611031573d6000803e3d6000fd5b505050506040513d6000823e601f3d908101601f19168201604052602081101561105a57600080fd5b8101908080516040519392919084600160201b82111561107957600080fd5b90830190602082018581111561108e57600080fd5b82518660208202830111600160201b821117156110aa57600080fd5b82525081516020918201928201910280838360005b838110156110d75781810151838201526020016110bf565b5050505090500160405250505090505b9392505050565b600a5481565b600080824281101561113b576040805162461bcd60e51b815260206004820152601560248201526000805160206164c3833981519152604482015290519081900360640190fd5b6111436161f0565b61114c8a613234565b6001600160a01b0316610180820181905261116690613302565b6080820152600454611180906001600160a01b0316613302565b60c08201526080810151600090611198908a9061347f565b905060006111aa898460c0015161347f565b61018084015160045491925060009182916111d2916001600160a01b03168f8787308f612574565b61018087015191935091506111e9908f8c856134a6565b97506111f58a826134d0565b9650505050505050965096945050505050565b60008060006112178e8e6123a8565b9050600087611226578c61122a565b6000195b6040805163d505accf60e01b815233600482015230602482015260448101839052606481018c905260ff8a16608482015260a4810189905260c4810188905290519192506001600160a01b0384169163d505accf9160e48082019260009290919082900301818387803b1580156112a057600080fd5b505af11580156112b4573d6000803e3d6000fd5b505050506112c78f8f8f8f8f8f8f612574565b809450819550505050509b509b9950505050505050505050565b6006546001600160a01b031681565b600581815481106112fd57fe5b6000918252602090912001546001600160a01b0316905081565b60606000824281101561135f576040805162461bcd60e51b815260206004820152601560248201526000805160206164c3833981519152604482015290519081900360640190fd5b606061139d8888808060200260200160405190810160405280939291908181526020018383602002808284376000920191909152506134ee92505050565b600154604051636959b26360e11b8152600481018d81526001600160a01b038a8116604484015260606024840190815285516064850152855195965093169363d2b364c6938f9387938d93909291608401906020808701910280838360005b838110156114145781810151838201526020016113fc565b5050505090500194505050505060006040518083038186803b15801561143957600080fd5b505afa15801561144d573d6000803e3d6000fd5b505050506040513d6000823e601f3d908101601f19168201604052602081101561147657600080fd5b8101908080516040519392919084600160201b82111561149557600080fd5b9083019060208201858111156114aa57600080fd5b82518660208202830111600160201b821117156114c657600080fd5b82525081516020918201928201910280838360005b838110156114f35781810151838201526020016114db565b505050509050016040525050509350888460018651038151811061151357fe5b602002602001015110156115585760405162461bcd60e51b81526004018080602001828103825260228152602001806165086022913960400191505060405180910390fd5b600d546115dc576115cc8888600081811061156f57fe5b905060200201356001600160a01b0316336115b28460008151811061159057fe5b6020026020010151856001815181106115a557fe5b60200260200101516123a8565b876000815181106115bf57fe5b602002602001015161357a565b6115d78482886136d7565b61161a565b61160b888860008181106115ec57fe5b905060200201356001600160a01b03163330876000815181106115bf57fe5b6116168a828861394b565b9350505b5050965096945050505050565b6007546000906001600160a01b031615806116425750600d54155b1561164f575060006110e7565b600061165b85856123a8565b9050336001600160a01b038216146116ab576040805162461bcd60e51b815260206004820152600e60248201526d1c185a5c881b9bdd08195c5d585b60921b604482015290519081900360640190fd5b43600a5410156117c457600754600c54600a5460408051631bba3daf60e01b815260048101939093526024830191909152516000926001600160a01b031691631bba3daf916044808301926020929190829003018186803b15801561170f57600080fd5b505afa158015611723573d6000803e3d6000fd5b505050506040513d602081101561173957600080fd5b5051600754604080516340c10f1960e01b81523060048201526024810184905290519293506001600160a01b03909116916340c10f19916044808201926020929091908290030181600087803b15801561179257600080fd5b505af11580156117a6573d6000803e3d6000fd5b505050506040513d60208110156117bc57600080fd5b505043600a55505b826117d35760009150506110e7565b600754604080516370a0823160e01b815230600482015290516000926001600160a01b0316916370a08231916024808301926020929190829003018186803b15801561181e57600080fd5b505afa158015611832573d6000803e3d6000fd5b505050506040513d602081101561184857600080fd5b5051600954909150841161190b5760095460009061187c90611870878563ffffffff613d7416565b9063ffffffff613dcd16565b6007546040805163a9059cbb60e01b81526001600160a01b03878116600483015260248201859052915193945091169163a9059cbb916044808201926020929091908290030181600087803b1580156118d457600080fd5b505af11580156118e8573d6000803e3d6000fd5b505050506040513d60208110156118fe57600080fd5b509093506110e792505050565b50600095945050505050565b6060814281101561195d576040805162461bcd60e51b815260206004820152601560248201526000805160206164c3833981519152604482015290519081900360640190fd5b61199f888888888080602002602001604051908101604052809392919081815260200183836020028082843760009201829052508b93508a9250905080613e0f565b98975050505050505050565b6003546001600160a01b031681565b6119c2612384565b611a01576040805162461bcd60e51b81526020600482018190526024820152600080516020616473833981519152604482015290519081900360640190fd5b600380546001600160a01b0319166001600160a01b0392909216919091179055565b6004546001600160a01b031681565b611a3a612384565b611a79576040805162461bcd60e51b81526020600482018190526024820152600080516020616473833981519152604482015290519081900360640190fd5b600580546001810182556000919091527f036b6384b5eca791c62761152d0c79bb0604c104a5fb6f4eb0703f3154bb3db00180546001600160a01b0319166001600160a01b0392909216919091179055565b60008060008342811015611b14576040805162461bcd60e51b815260206004820152601560248201526000805160206164c3833981519152604482015290519081900360640190fd5b611b1c6161f0565b611b258d61433e565b6001600160a01b0316610180820152611b3d8c61433e565b6001600160a01b039081166101a08301528d81166101408301528c16610160820152610180810151611b6e90613302565b60808201526101a0810151611b8290613302565b60a08201526080810151611b97908c9061347f565b815260a0810151611ba9908b9061347f565b60208201526080810151611bbe908a9061347f565b604082015260a0810151611bd390899061347f565b6060820152611be181614419565b61010083015260e08201526000611bf88e8e6123a8565b9050611c0c8260e0015183608001516147e0565b9550611c218261010001518360a001516147e0565b9450611c348e83610180015183896147fe565b611c458d836101a0015183886147fe565b806001600160a01b0316636a627842896040518263ffffffff1660e01b815260040180826001600160a01b03166001600160a01b03168152602001915050602060405180830381600087803b158015611c9d57600080fd5b505af1158015611cb1573d6000803e3d6000fd5b505050506040513d6020811015611cc757600080fd5b5051959e949d50949b50929950505050505050505050565b6002546001600160a01b031681565b6007546000906001600160a01b0316611d0957506000611d92565b600754600c54600a5460408051631bba3daf60e01b815260048101939093526024830191909152516001600160a01b0390921691631bba3daf91604480820192602092909190829003018186803b158015611d6357600080fd5b505afa158015611d77573d6000803e3d6000fd5b505050506040513d6020811015611d8d57600080fd5b505190505b90565b611d9d612384565b611ddc576040805162461bcd60e51b81526020600482018190526024820152600080516020616473833981519152604482015290519081900360640190fd5b600c55565b611de9612384565b611e28576040805162461bcd60e51b81526020600482018190526024820152600080516020616473833981519152604482015290519081900360640190fd5b600080546040516001600160a01b03909116907f8be0079c531659141344cd1fd0a4f28419497f9722a3daafe3b4186f6b6457e0908390a3600080546001600160a01b0319169055565b611e7a612384565b611eb9576040805162461bcd60e51b81526020600482018190526024820152600080516020616473833981519152604482015290519081900360640190fd5b60005b600554811015611efb576005805480611ed157fe5b600082815260209020810160001990810180546001600160a01b0319169055019055600101611ebc565b5060005b8151811015611f5b576005828281518110611f1657fe5b60209081029190910181015182546001808201855560009485529290932090920180546001600160a01b0319166001600160a01b039093169290921790915501611eff565b5050565b600d5481565b600b5481565b606060008242811015611fb3576040805162461bcd60e51b815260206004820152601560248201526000805160206164c3833981519152604482015290519081900360640190fd5b6060611ff18888808060200260200160405190810160405280939291908181526020018383602002808284376000920191909152506134ee92505050565b600154604051630c49bd1360e01b8152600481018d81526001600160a01b038a81166044840152606060248401908152855160648501528551959650931693630c49bd13938f9387938d93909291608401906020808701910280838360005b83811015612068578181015183820152602001612050565b5050505090500194505050505060006040518083038186803b15801561208d57600080fd5b505afa1580156120a1573d6000803e3d6000fd5b505050506040513d6000823e601f3d908101601f1916820160405260208110156120ca57600080fd5b8101908080516040519392919084600160201b8211156120e957600080fd5b9083019060208201858111156120fe57600080fd5b82518660208202830111600160201b8211171561211a57600080fd5b82525081516020918201928201910280838360005b8381101561214757818101518382015260200161212f565b505050509050016040525050509350888460008151811061216457fe5b602002602001015111156121bf576040805162461bcd60e51b815260206004820152601e60248201527f526f757465723a204558434553534956455f494e5055545f414d4f554e540000604482015290519081900360640190fd5b600d546121d6576115cc8888600081811061156f57fe5b6121e6888860008181106115ec57fe5b611616846000815181106121f657fe5b6020026020010151828861394b565b61220d612384565b61224c576040805162461bcd60e51b81526020600482018190526024820152600080516020616473833981519152604482015290519081900360640190fd5b600780546001600160a01b0319166001600160a01b0392909216919091179055565b6000546001600160a01b031690565b606081428110156122c3576040805162461bcd60e51b815260206004820152601560248201526000805160206164c3833981519152604482015290519081900360640190fd5b6002546001600160a01b0316868660001981018181106122df57fe5b905060200201356001600160a01b03166001600160a01b031614612341576040805162461bcd60e51b81526020600482015260146024820152730a4deeae8cae47440929cac82989288bea082a8960631b604482015290519081900360640190fd5b61199f888888888080602002602001604051908101604052809392919081815260200183836020028082843760009201829052508b93508a925090506001613e0f565b600080546001600160a01b0316612399614a36565b6001600160a01b031614905090565b6001546040805163e6a4390560e01b81526001600160a01b03858116600483015284811660248301529151600093929092169163e6a4390591604480820192602092909190829003018186803b15801561240157600080fd5b505afa158015612415573d6000803e3d6000fd5b505050506040513d602081101561242b57600080fd5b50519392505050565b6007546000906001600160a01b0316158061244f5750600d54155b1561245c575060006124e1565b600754600c546040805163a4fa8d5760e01b8152600481019290925260248201859052516001600160a01b039092169163a4fa8d5791604480820192602092909190829003018186803b1580156124b257600080fd5b505afa1580156124c6573d6000803e3d6000fd5b505050506040513d60208110156124dc57600080fd5b505190505b919050565b60015460408051632b58577b60e21b815260048101869052602481018590526044810184905290516000926001600160a01b03169163ad615dec916064808301926020929190829003018186803b15801561254057600080fd5b505afa158015612554573d6000803e3d6000fd5b505050506040513d602081101561256a57600080fd5b5051949350505050565b60008082428110156125bb576040805162461bcd60e51b815260206004820152601560248201526000805160206164c3833981519152604482015290519081900360640190fd5b60006125c78b8b6123a8565b604080516323b872dd60e01b81523360048201526001600160a01b03831660248201819052604482018d9052915192935090916323b872dd916064808201926020929091908290030181600087803b15801561262257600080fd5b505af1158015612636573d6000803e3d6000fd5b505050506040513d602081101561264c57600080fd5b50506040805163226bf2d160e21b81526001600160a01b03888116600483015282516000938493928616926389afcb44926024808301939282900301818787803b15801561269957600080fd5b505af11580156126ad573d6000803e3d6000fd5b505050506040513d60408110156126c357600080fd5b508051602090910151909250905060006126dc8e614a3a565b905060006126e98e614a3a565b60015460408051632a26552b60e11b81526001600160a01b0386811660048301528085166024830152825194955060009493169263544caa5692604480840193919291829003018186803b15801561274057600080fd5b505afa158015612754573d6000803e3d6000fd5b505050506040513d604081101561276a57600080fd5b505190506001600160a01b038381169082161461278857838561278b565b84845b90995097508c8910156127cf5760405162461bcd60e51b81526004018080602001828103825260268152602001806163526026913960400191505060405180910390fd5b8b88101561280e5760405162461bcd60e51b815260040180806020018281038252602681526020018061632c6026913960400191505060405180910390fd5b5050505050505097509795505050505050565b612829612384565b612868576040805162461bcd60e51b81526020600482018190526024820152600080516020616473833981519152604482015290519081900360640190fd5b8015806128755750806001145b6128bf576040805162461bcd60e51b8152602060048201526016602482015275696e76616c696420706172616d20666565416c6c6f6360501b604482015290519081900360640190fd5b600d55565b6001546001600160a01b031681565b600080824281101561291a576040805162461bcd60e51b815260206004820152601560248201526000805160206164c3833981519152604482015290519081900360640190fd5b60006129268b8b6123a8565b604080516323b872dd60e01b81523360048201526001600160a01b03831660248201819052604482018d9052915192935090916323b872dd916064808201926020929091908290030181600087803b15801561298157600080fd5b505af1158015612995573d6000803e3d6000fd5b505050506040513d60208110156129ab57600080fd5b506129b690506161f0565b6001600160a01b03808d166101408301528b81166101608301526040805163226bf2d160e21b815230600482015281516000938493908716926389afcb44926024808301939282900301818787803b158015612a1157600080fd5b505af1158015612a25573d6000803e3d6000fd5b505050506040513d6040811015612a3b57600080fd5b50805160209091015160015461014086015161016087015160408051632a26552b60e11b81526001600160a01b03938416600482015291831660248301528051959750939550600094919092169263544caa569260448082019391829003018186803b158015612aaa57600080fd5b505afa158015612abe573d6000803e3d6000fd5b505050506040513d6040811015612ad457600080fd5b505190506001600160a01b038f811690821614612af2578183612af5565b82825b61010086015260e085015250612b1d9150612b1190508d613234565b8d898460e001516134a6565b9450612b38612b2b8c613234565b8c898461010001516134a6565b935088851015612b795760405162461bcd60e51b81526004018080602001828103825260308152602001806163c66030913960400191505060405180910390fd5b87841015612bb85760405162461bcd60e51b81526004018080602001828103825260308152602001806164936030913960400191505060405180910390fd5b50505097509795505050505050565b600154604051636959b26360e11b8152600481018581526001600160a01b0384811660448401526060602484018181528751606486015287519195929092169363d2b364c693899389938993608401906020868101910280838360008315610ff8578181015183820152602001610fe0565b60085481565b60095481565b612c4d612384565b612c8c576040805162461bcd60e51b81526020600482018190526024820152600080516020616473833981519152604482015290519081900360640190fd5b6001600160a01b038316612ca957612ca48282614b07565b612cb5565b612cb58330848461357a565b505050565b60025460009081908190612cd8908e906001600160a01b03166123a8565b9050600087612ce7578c612ceb565b6000195b6040805163d505accf60e01b815233600482015230602482015260448101839052606481018c905260ff8a16608482015260a4810189905260c4810188905290519192506001600160a01b0384169163d505accf9160e48082019260009290919082900301818387803b158015612d6157600080fd5b505af1158015612d75573d6000803e3d6000fd5b50505050612d878e8e8e8e8e8e6110f4565b909f909e509c50505050505050505050505050565b60008060008342811015612de5576040805162461bcd60e51b815260206004820152601560248201526000805160206164c3833981519152604482015290519081900360640190fd5b612ded6161f0565b8a8152602081018a905260408101899052606081018890526001600160a01b03808e166101808301528c166101a0820152612e278d614a3a565b6001600160a01b0316610140820152612e3f8c614a3a565b6001600160a01b0316610160820152612e5781614419565b90955093506000612e688e8e6123a8565b9050612e768e33838961357a565b611c458d33838861357a565b60608142811015612ec8576040805162461bcd60e51b815260206004820152601560248201526000805160206164c3833981519152604482015290519081900360640190fd5b612eea60405180606001604052806028815260200161639e6028913934614bfa565b6002546001600160a01b03168686600081612f0157fe5b905060200201356001600160a01b03166001600160a01b031614612f63576040805162461bcd60e51b81526020600482015260146024820152730a4deeae8cae47440929cac82989288bea082a8960631b604482015290519081900360640190fd5b612fa6348888888080602002602001604051908101604052809392919081815260200183836020028082843760009201829052508b93508a925060019150613e0f565b979650505050505050565b60008060008342811015612ffa576040805162461bcd60e51b815260206004820152601560248201526000805160206164c3833981519152604482015290519081900360640190fd5b60006130058b61433e565b905061300f6161f0565b61301882613302565b6080820152600454613032906001600160a01b0316613302565b60a08201526080810151613047908c9061347f565b815260a081015161305990349061347f565b6020820152608081015161306e908b9061347f565b604082015260a0810151613083908a9061347f565b60608201526001600160a01b0380831661018083015260045481166101a08301528c8116610140830152600254166101608201526000806130c383614419565b9150915060006130e88f600260009054906101000a90046001600160a01b03166123a8565b90506130f88385608001516147e0565b9850613108828560a001516147e0565b97506131168f86838c6147fe565b6131208189614ca8565b806001600160a01b0316636a6278428c6040518263ffffffff1660e01b815260040180826001600160a01b03166001600160a01b03168152602001915050602060405180830381600087803b15801561317857600080fd5b505af115801561318c573d6000803e3d6000fd5b505050506040513d60208110156131a257600080fd5b50519650348810156131ba576131ba33893403614b07565b50505050505096509650969350505050565b600c5481565b6131da612384565b613219576040805162461bcd60e51b81526020600482018190526024820152600080516020616473833981519152604482015290519081900360640190fd5b61322281614dbb565b50565b6007546001600160a01b031681565b6006546040805163714bca1f60e11b81526001600160a01b0384811660048301529151600093929092169163e297943e91602480820192602092909190829003018186803b15801561328557600080fd5b505afa158015613299573d6000803e3d6000fd5b505050506040513d60208110156132af57600080fd5b505190506001600160a01b0381166124e1576040805162461bcd60e51b815260206004820152601160248201527019d95d08195d1bdad95b8819985a5b1959607a1b604482015290519081900360640190fd5b600080826001600160a01b031663182df0f56040518163ffffffff1660e01b815260040160206040518083038186803b15801561333e57600080fd5b505afa158015613352573d6000803e3d6000fd5b505050506040513d602081101561336857600080fd5b505160408051630ae9d70b60e41b815290519192506000916001600160a01b0386169163ae9d70b0916004808301926020929190829003018186803b1580156133b057600080fd5b505afa1580156133c4573d6000803e3d6000fd5b505050506040513d60208110156133da57600080fd5b505160408051636c540baf60e01b815290519192506000916001600160a01b03871691636c540baf916004808301926020929190829003018186803b15801561342257600080fd5b505afa158015613436573d6000803e3d6000fd5b505050506040513d602081101561344c57600080fd5b5051905061347343829003613467858563ffffffff613d7416565b9063ffffffff613d7416565b90920192505050919050565b600061349d8261187085670de0b6b3a764000063ffffffff613d7416565b90505b92915050565b6000806134b4868685614e5b565b905080156134c7576134c7858583614f21565b95945050505050565b6000806134dc8361508b565b9050801561349d5761349d8482614b07565b606080825160405190808252806020026020018201604052801561351c578160200160208202803883390190505b50905060005b83518110156135735761354784828151811061353a57fe5b6020026020010151614a3a565b82828151811061355357fe5b6001600160a01b0390921660209283029190910190910152600101613522565b5092915050565b604080516001600160a01b0385811660248301528481166044830152606480830185905283518084039091018152608490920183526020820180516001600160e01b03166323b872dd60e01b17815292518251600094606094938a169392918291908083835b602083106135ff5780518252601f1990920191602091820191016135e0565b6001836020036101000a0380198251168184511680821785525050505050509050019150506000604051808303816000865af19150503d8060008114613661576040519150601f19603f3d011682016040523d82523d6000602084013e613666565b606091505b5091509150818015613694575080511580613694575080806020019051602081101561369157600080fd5b50515b6136cf5760405162461bcd60e51b815260040180806020018281038252602481526020018061654d6024913960400191505060405180910390fd5b505050505050565b60005b6001835103811015613945576000808483815181106136f557fe5b602002602001015185846001018151811061370c57fe5b602090810291909101015160015460408051632a26552b60e11b81526001600160a01b03808616600483015280851660248301528251959750939550600094939092169263544caa56926044808201939291829003018186803b15801561377257600080fd5b505afa158015613786573d6000803e3d6000fd5b505050506040513d604081101561379c57600080fd5b505187519091506000908890600187019081106137b557fe5b60200260200101519050600080836001600160a01b0316866001600160a01b0316146137e3578260006137e7565b6000835b91509150600060028a510388106137fe5788613811565b613811868b8a600201815181106115a557fe5b905061381d87876123a8565b6001600160a01b031663022c0d9f84848460006040519080825280601f01601f19166020018201604052801561385a576020820181803883390190505b506040518563ffffffff1660e01b815260040180858152602001848152602001836001600160a01b03166001600160a01b0316815260200180602001828103825283818151815260200191508051906020019080838360005b838110156138cb5781810151838201526020016138b3565b50505050905090810190601f1680156138f85780820380516001836020036101000a031916815260200191505b5095505050505050600060405180830381600087803b15801561391a57600080fd5b505af115801561392e573d6000803e3d6000fd5b5050600190990198506136da975050505050505050565b50505050565b600080613956616283565b600160009054906101000a90046001600160a01b03166001600160a01b031663017e7e586040518163ffffffff1660e01b815260040160206040518083038186803b1580156139a457600080fd5b505afa1580156139b8573d6000803e3d6000fd5b505050506040513d60208110156139ce57600080fd5b50516001600160a01b031660808201819052613a21576040805162461bcd60e51b815260206004820152600d60248201526c199959551bc81b9bdd081cd95d609a1b604482015290519081900360640190fd5b600160009054906101000a90046001600160a01b03166001600160a01b031663e1c4c9666040518163ffffffff1660e01b815260040160206040518083038186803b158015613a6f57600080fd5b505afa158015613a83573d6000803e3d6000fd5b505050506040513d6020811015613a9957600080fd5b50516001600160a01b0390811660a083015260015460408051630d779e2760e41b815287841660048201529051919092169163d779e270916024808301926020929190829003018186803b158015613af057600080fd5b505afa158015613b04573d6000803e3d6000fd5b505050506040513d6020811015613b1a57600080fd5b505181528560005b6001875103811015613c7d57868181518110613b3a57fe5b6020908102919091018101516001600160a01b0316908401819052613b5e90613234565b6001600160a01b039081166040850152600154885191169063e6a4390590899084908110613b8857fe5b6020026020010151898460010181518110613b9f57fe5b60200260200101516040518363ffffffff1660e01b815260040180836001600160a01b03166001600160a01b03168152602001826001600160a01b03166001600160a01b031681526020019250505060206040518083038186803b158015613c0657600080fd5b505afa158015613c1a573d6000803e3d6000fd5b505050506040513d6020811015613c3057600080fd5b50516001600160a01b031660608401528651600090600119018210613c555786613c57565b305b9050600080613c67868685615158565b979097019694505060019092019150613b229050565b506003546001600160a01b031615613d5b5760035486516001600160a01b039091169063a9678a189033908990600090613cb357fe5b602002602001015189600181518110613cc857fe5b602090810291909101810151604080516001600160e01b031960e088901b1681526001600160a01b039586166004820152938516602485015293166044830152606482018890529151608480830193928290030181600087803b158015613d2e57600080fd5b505af1158015613d42573d6000803e3d6000fd5b505050506040513d6020811015613d5857600080fd5b50505b8215613d6a57613d6a83615430565b5050935093915050565b600082613d83575060006134a0565b82820282848281613d9057fe5b041461349d5760405162461bcd60e51b81526004018080602001828103825260218152602001806164526021913960400191505060405180910390fd5b600061349d83836040518060400160405280601a81526020017f536166654d6174683a206469766973696f6e206279207a65726f000000000000815250615443565b60608342811015613e55576040805162461bcd60e51b815260206004820152601560248201526000805160206164c3833981519152604482015290519081900360640190fd5b6060613e60886154e5565b90506000600d5460001415613e9b57613e9489600081518110613e7f57fe5b60200260200101518a6001815181106115a557fe5b9050613e9e565b50305b8515613eb357613eae818c614ca8565b613ee7565b613ee789600081518110613ec357fe5b602002602001015183600081518110613ed857fe5b6020026020010151838e6147fe565b613f1d604051806040016040528060148152602001731b5a5b9d081d1c985b9cd9995c881bdace88095960621b8152508c614bfa565b613f256162b8565b8b816040018181525050613f4c83600081518110613f3f57fe5b6020026020010151613302565b81528251613f5f908490600090613f3f57fe5b60208201528051600090613f74908e9061347f565b90506000600d546000141561421b576060600160009054906101000a90046001600160a01b03166001600160a01b031663d2b364c6848f8f6040518463ffffffff1660e01b81526004018084815260200180602001836001600160a01b03166001600160a01b03168152602001828103825284818151815260200191508051906020019060200280838360005b83811015614019578181015183820152602001614001565b5050505090500194505050505060006040518083038186803b15801561403e57600080fd5b505afa158015614052573d6000803e3d6000fd5b505050506040513d6000823e601f3d908101601f19168201604052602081101561407b57600080fd5b8101908080516040519392919084600160201b82111561409a57600080fd5b9083019060208201858111156140af57600080fd5b82518660208202830111600160201b821117156140cb57600080fd5b82525081516020918201928201910280838360005b838110156140f85781810151838201526020016140e0565b505050509050016040525050509050614155604051806060016040528060328152602001616420603291398260008151811061413057fe5b60200260200101518360018551038151811061414857fe5b602002602001015161556a565b61419d6040518060400160405280600a815260200169031b0b6b7bab73a399d160b51b8152508260008151811061418857fe5b60200260200101518360018151811061414857fe5b806001825103815181106141ad57fe5b602002602001015191506141c58285602001516147e0565b606085018190528e111561420a5760405162461bcd60e51b81526004018080602001828103825260228152602001806165086022913960400191505060405180910390fd5b614215818e306136d7565b5061426e565b614226828d3061394b565b50809150508c8360600151101561426e5760405162461bcd60e51b81526004018080602001828103825260228152602001806165086022913960400191505060405180910390fd5b8b5160001901881561428a576142848c836134d0565b506142be565b6142bc86828151811061429957fe5b60200260200101518e83815181106142ad57fe5b60200260200101518e856134a6565b505b8c516040519080825280602002602001820160405280156142e9578160200160208202803883390190505b5097508e886000815181106142fa57fe5b6020026020010181815250506143148285602001516147e0565b88828151811061432057fe5b60200260200101818152505050505050505050979650505050505050565b600654604080516326c7bd9360e01b81526001600160a01b038481166004830152915160009392909216916326c7bd939160248082019260209290919082900301818787803b15801561439057600080fd5b505af11580156143a4573d6000803e3d6000fd5b505050506040513d60208110156143ba57600080fd5b505190506001600160a01b0381166124e1576040805162461bcd60e51b815260206004820152601b60248201527f676574206f72206372656174652065746f6b656e206661696c65640000000000604482015290519081900360640190fd5b6101808101516101a0820151825160208085015160408087015160608801516101408901516101608a0151600154855163e6a4390560e01b81526001600160a01b0380851660048301528084166024830152965160009c8d9c909b909a9099988d94169263e6a439059260448083019392829003018186803b15801561449e57600080fd5b505afa1580156144b2573d6000803e3d6000fd5b505050506040513d60208110156144c857600080fd5b50516001600160a01b0316141561456d57600154604080516304da8eeb60e41b81526001600160a01b03858116600483015284811660248301528b811660448301528a8116606483015291519190921691634da8eeb09160848083019260209291908290030181600087803b15801561454057600080fd5b505af1158015614554573d6000803e3d6000fd5b505050506040513d602081101561456a57600080fd5b50505b6001546040805163354aedbd60e21b81526001600160a01b03858116600483015284811660248301528251600094859492169263d52bb6f4926044808301939192829003018186803b1580156145c257600080fd5b505afa1580156145d6573d6000803e3d6000fd5b505050506040513d60408110156145ec57600080fd5b508051602090910151909250905081158015614606575080155b1561461a578787809c50819d5050506147d1565b60015460408051632b58577b60e21b8152600481018b9052602481018590526044810184905290516000926001600160a01b03169163ad615dec916064808301926020929190829003018186803b15801561467457600080fd5b505afa158015614688573d6000803e3d6000fd5b505050506040513d602081101561469e57600080fd5b505190508781116146f657858110156146e85760405162461bcd60e51b81526004018080602001828103825260238152602001806162e16023913960400191505060405180910390fd5b979b509699508a968a6147cf565b60015460408051632b58577b60e21b8152600481018b9052602481018590526044810186905290516000926001600160a01b03169163ad615dec916064808301926020929190829003018186803b15801561475057600080fd5b505afa158015614764573d6000803e3d6000fd5b505050506040513d602081101561477a57600080fd5b505190508981111561478857fe5b878110156147c75760405162461bcd60e51b81526004018080602001828103825260238152602001806165716023913960400191505060405180910390fd5b9c50969a508a965b505b50505050505050505050915091565b600061349d670de0b6b3a7640000611870858563ffffffff613d7416565b61480a8433308461357a565b61484b6040518060400160405280601c81526020017f7472616e736665722025732825732920646f6e653a20616d743d256400000000815250858584615620565b836001600160a01b031663095ea7b384836040518363ffffffff1660e01b815260040180836001600160a01b03166001600160a01b0316815260200182815260200192505050602060405180830381600087803b1580156148ab57600080fd5b505af11580156148bf573d6000803e3d6000fd5b505050506040513d60208110156148d557600080fd5b50506040805163140e25ad60e31b815260048101839052815160009283926001600160a01b0388169263a0712d689260248084019391929182900301818787803b15801561492257600080fd5b505af1158015614936573d6000803e3d6000fd5b505050506040513d604081101561494c57600080fd5b5080516020918201516040805163095ea7b360e01b81526001600160a01b038a16600482018190526000602483018190529251949750929550919363095ea7b393604480850194929391928390030190829087803b1580156149ad57600080fd5b505af11580156149c1573d6000803e3d6000fd5b505050506040513d60208110156149d757600080fd5b50508115614a1a576040805162461bcd60e51b815260206004820152600b60248201526a1b5a5b9d0819985a5b195960aa1b604482015290519081900360640190fd5b306001600160a01b038516146136cf576136cf8530868461357a565b3390565b6006546040805163b8d7b66960e01b81526001600160a01b0384811660048301529151600093929092169163b8d7b66991602480820192602092909190829003018186803b158015614a8b57600080fd5b505afa158015614a9f573d6000803e3d6000fd5b505050506040513d6020811015614ab557600080fd5b505190506001600160a01b0381166124e1576040805162461bcd60e51b815260206004820152601060248201526f19d95d081d1bdad95b8819985a5b195960821b604482015290519081900360640190fd5b604080516000808252602082019092526001600160a01b0384169083906040518082805190602001908083835b60208310614b535780518252601f199092019160209182019101614b34565b6001836020036101000a03801982511681845116808217855250505050505090500191505060006040518083038185875af1925050503d8060008114614bb5576040519150601f19603f3d011682016040523d82523d6000602084013e614bba565b606091505b5050905080612cb55760405162461bcd60e51b815260040180806020018281038252602381526020018061652a6023913960400191505060405180910390fd5b611f5b82826040516024018080602001838152602001828103825284818151815260200191508051906020019080838360005b83811015614c45578181015183820152602001614c2d565b50505050905090810190601f168015614c725780820380516001836020036101000a031916815260200191505b5060408051601f198184030181529190526020810180516001600160e01b03166309710a9d60e41b179052935061570292505050565b6004805460408051631249c58b60e01b8152815160009485946001600160a01b031693631249c58b93889381840193909182900301818588803b158015614cee57600080fd5b505af1158015614d02573d6000803e3d6000fd5b50505050506040513d6040811015614d1957600080fd5b50805160209091015190925090508115614d68576040805162461bcd60e51b815260206004820152600b60248201526a1b5a5b9d0819985a5b195960aa1b604482015290519081900360640190fd5b614d936040518060400160405280600981526020016836b4b73a1032ba341d60b91b81525082614bfa565b306001600160a01b0385161461394557600454613945906001600160a01b031630868461357a565b6001600160a01b038116614e005760405162461bcd60e51b81526004018080602001828103825260268152602001806163786026913960400191505060405180910390fd5b600080546040516001600160a01b03808516939216917f8be0079c531659141344cd1fd0a4f28419497f9722a3daafe3b4186f6b6457e091a3600080546001600160a01b0319166001600160a01b0392909216919091179055565b6000806000856001600160a01b031663db006a75856040518263ffffffff1660e01b815260040180828152602001915050606060405180830381600087803b158015614ea657600080fd5b505af1158015614eba573d6000803e3d6000fd5b505050506040513d6060811015614ed057600080fd5b508051602090910151909250905081156134c7576040805162461bcd60e51b815260206004820152600d60248201526c1c995919595b4819985a5b1959609a1b604482015290519081900360640190fd5b604080516001600160a01b038481166024830152604480830185905283518084039091018152606490920183526020820180516001600160e01b031663a9059cbb60e01b178152925182516000946060949389169392918291908083835b60208310614f9e5780518252601f199092019160209182019101614f7f565b6001836020036101000a0380198251168184511680821785525050505050509050019150506000604051808303816000865af19150503d8060008114615000576040519150601f19603f3d011682016040523d82523d6000602084013e615005565b606091505b5091509150818015615033575080511580615033575080806020019051602081101561503057600080fd5b50515b615084576040805162461bcd60e51b815260206004820152601f60248201527f5472616e7366657248656c7065723a205452414e534645525f4641494c454400604482015290519081900360640190fd5b5050505050565b600480546040805163db006a7560e01b815292830184905251600092839283926001600160a01b039091169163db006a7591602480830192606092919082900301818787803b1580156150dd57600080fd5b505af11580156150f1573d6000803e3d6000fd5b505050506040513d606081101561510757600080fd5b508051602090910151909250905081156110e7576040805162461bcd60e51b815260206004820152600d60248201526c1c995919595b4819985a5b1959609a1b604482015290519081900360640190fd5b600080600085602001519050600086606001519050615206604051806060016040528060288152602001616304602891396040808a015181516370a0823160e01b815230600482015291516001600160a01b03909116916370a08231916024808301926020929190829003018186803b1580156151d457600080fd5b505afa1580156151e8573d6000803e3d6000fd5b505050506040513d60208110156151fe57600080fd5b50518861556a565b6000806152138989615723565b9092509050615228888363ffffffff615c4616565b9750600080600061523a87878d615c88565b9250925092506152646040518060600160405280602a81526020016163f6602a91398c8585615ded565b604080518082018252601881527f62616c616e63653a202564207472616e736665723a20256400000000000000006020808301919091528e83015183516370a0823160e01b81523060048201529351615316946001600160a01b03909216926370a082319260248082019391829003018186803b1580156152e457600080fd5b505afa1580156152f8573d6000803e3d6000fd5b505050506040513d602081101561530e57600080fd5b50518d61556a565b8b604001516001600160a01b031663a9059cbb878d6040518363ffffffff1660e01b815260040180836001600160a01b03166001600160a01b0316815260200182815260200192505050602060405180830381600087803b15801561537a57600080fd5b505af115801561538e573d6000803e3d6000fd5b505050506040513d60208110156153a457600080fd5b505060408051630442a86560e01b815260048101859052602481018490526001600160a01b038c8116604483015260648201879052915191881691630442a8659160848082019260009290919082900301818387803b15801561540657600080fd5b505af115801561541a573d6000803e3d6000fd5b50929e959d50949b505050505050505050505050565b6008805482019055600980549091019055565b600081836154cf5760405162461bcd60e51b81526004018080602001828103825283818151815260200191508051906020019080838360005b8381101561549457818101518382015260200161547c565b50505050905090810190601f1680156154c15780820380516001836020036101000a031916815260200191505b509250505060405180910390fd5b5060008385816154db57fe5b0495945050505050565b6060808251604051908082528060200260200182016040528015615513578160200160208202803883390190505b50905060005b83518110156135735761553e84828151811061553157fe5b6020026020010151613234565b82828151811061554a57fe5b6001600160a01b0390921660209283029190910190910152600101615519565b612cb58383836040516024018080602001848152602001838152602001828103825285818151815260200191508051906020019080838360005b838110156155bc5781810151838201526020016155a4565b50505050905090810190601f1680156155e95780820380516001836020036101000a031916815260200191505b5060408051601f198184030181529190526020810180516001600160e01b031663969cdd0360e01b17905294506157029350505050565b613945848484846040516024018080602001856001600160a01b03166001600160a01b03168152602001846001600160a01b03166001600160a01b03168152602001838152602001828103825286818151815260200191508051906020019080838360005b8381101561569d578181015183820152602001615685565b50505050905090810190601f1680156156ca5780820380516001836020036101000a031916815260200191505b5060408051601f198184030181529190526020810180516001600160e01b0316636eb7943d60e01b1790529550615702945050505050565b80516a636f6e736f6c652e6c6f67602083016000808483855afa5050505050565b81516060830151602084015160a085015160808601516000948594909390929091846157c057836001600160a01b031663fcee45f4896040518263ffffffff1660e01b81526004018082815260200191505060206040518083038186803b15801561578d57600080fd5b505afa1580156157a1573d6000803e3d6000fd5b505050506040513d60208110156157b757600080fd5b5051965061583e565b836001600160a01b031663d250185c89600188036040518363ffffffff1660e01b8152600401808381526020018281526020019250505060206040518083038186803b15801561580f57600080fd5b505afa158015615823573d6000803e3d6000fd5b505050506040513d602081101561583957600080fd5b505196505b61587e6040518060400160405280601781526020017f616d6f756e74496e3a2025642020666565496e3a202564000000000000000000815250898961556a565b816001600160a01b0316836001600160a01b031614156159315786955088604001516001600160a01b031663a9059cbb82886040518363ffffffff1660e01b815260040180836001600160a01b03166001600160a01b0316815260200182815260200192505050602060405180830381600087803b1580156158ff57600080fd5b505af1158015615913573d6000803e3d6000fd5b505050506040513d602081101561592957600080fd5b50615c3a9050565b604089015160005b600554811015615c375760006005828154811061595257fe5b60009182526020808320909101546001546040805163e6a4390560e01b81526001600160a01b038c81166004830152938416602482018190529151919650919092169263e6a4390592604480840193829003018186803b1580156159b557600080fd5b505afa1580156159c9573d6000803e3d6000fd5b505050506040513d60208110156159df57600080fd5b505190506001600160a01b03811615615c2d57856001600160a01b0316826001600160a01b03161415615aac57836001600160a01b031663a9059cbb828d6040518363ffffffff1660e01b815260040180836001600160a01b03166001600160a01b0316815260200182815260200192505050602060405180830381600087803b158015615a6c57600080fd5b505af1158015615a80573d6000803e3d6000fd5b505050506040513d6020811015615a9657600080fd5b50615aa5905087828d88615eab565b9950615c26565b6001546040805163e6a4390560e01b81526001600160a01b03858116600483015289811660248301529151600093929092169163e6a4390591604480820192602092909190829003018186803b158015615b0557600080fd5b505afa158015615b19573d6000803e3d6000fd5b505050506040513d6020811015615b2f57600080fd5b505190506001600160a01b038116615b785760405162461bcd60e51b81526004018080602001828103825260258152602001806164e36025913960400191505060405180910390fd5b846001600160a01b031663a9059cbb838e6040518363ffffffff1660e01b815260040180836001600160a01b03166001600160a01b0316815260200182815260200192505050602060405180830381600087803b158015615bd857600080fd5b505af1158015615bec573d6000803e3d6000fd5b505050506040513d6020811015615c0257600080fd5b5060009050615c1389848f85615eab565b9050615c218483838a615eab565b9b5050505b5050615c37565b5050600101615939565b50505b50505050509250929050565b600061349d83836040518060400160405280601e81526020017f536166654d6174683a207375627472616374696f6e206f766572666c6f77000081525061613c565b600080600080856001600160a01b0316630dfe16816040518163ffffffff1660e01b815260040160206040518083038186803b158015615cc757600080fd5b505afa158015615cdb573d6000803e3d6000fd5b505050506040513d6020811015615cf157600080fd5b505160408051630240bc6b60e21b8152905191925060009182916001600160a01b038a1691630902f1ac91600480820192606092909190829003018186803b158015615d3c57600080fd5b505afa158015615d50573d6000803e3d6000fd5b505050506040513d6060811015615d6657600080fd5b5080516020909101516001600160701b0391821693501690506001600160a01b038981169084161415615dbc5760009550818701615daa888363ffffffff613d7416565b81615db157fe5b049450849350615de1565b60009450808701615dd3888463ffffffff613d7416565b81615dda57fe5b0495508593505b50505093509350939050565b613945848484846040516024018080602001858152602001848152602001838152602001828103825286818151815260200191508051906020019080838360005b83811015615e46578181015183820152602001615e2e565b50505050905090810190601f168015615e735780820380516001836020036101000a031916815260200191505b5060408051601f198184030181529190526020810180516001600160e01b03166304772b3360e11b1790529550615702945050505050565b6000806000856001600160a01b0316630902f1ac6040518163ffffffff1660e01b815260040160606040518083038186803b158015615ee957600080fd5b505afa158015615efd573d6000803e3d6000fd5b505050506040513d6060811015615f1357600080fd5b50805160209182015160408051630dfe168160e01b815290516001600160701b0393841696509290911693506000926001600160a01b038a1692630dfe1681926004808201939291829003018186803b158015615f6f57600080fd5b505afa158015615f83573d6000803e3d6000fd5b505050506040513d6020811015615f9957600080fd5b505190506001600160a01b03888116908216141561605357615fd4615fc4848863ffffffff61619616565b611870888563ffffffff613d7416565b60408051630442a86560e01b8152600060048201819052602482018490526001600160a01b038981166044840152606483018290529251939750918a1692630442a8659260848084019391929182900301818387803b15801561603657600080fd5b505af115801561604a573d6000803e3d6000fd5b505050506160f1565b616076616066838863ffffffff61619616565b611870888663ffffffff613d7416565b60408051630442a86560e01b8152600481018390526000602482018190526001600160a01b038981166044840152606483018290529251939750918a1692630442a8659260848084019391929182900301818387803b1580156160d857600080fd5b505af11580156160ec573d6000803e3d6000fd5b505050505b6161316040518060400160405280601c81526020017f5f737761704665653a20666565496e3d2564206665654f75743d256400000000815250878661556a565b505050949350505050565b6000818484111561618e5760405162461bcd60e51b815260206004820181815283516024840152835190928392604490910191908501908083836000831561549457818101518382015260200161547c565b505050900390565b60008282018381101561349d576040805162461bcd60e51b815260206004820152601b60248201527f536166654d6174683a206164646974696f6e206f766572666c6f770000000000604482015290519081900360640190fd5b604051806101c001604052806000815260200160008152602001600081526020016000815260200160008152602001600081526020016000815260200160008152602001600081526020016000815260200160006001600160a01b0316815260200160006001600160a01b0316815260200160006001600160a01b0316815260200160006001600160a01b031681525090565b6040805160c081018252600080825260208201819052918101829052606081018290526080810182905260a081019190915290565b604051806080016040528060008152602001600081526020016000815260200160008152509056fe4164644c69717569646974793a20494e53554646494349454e545f425f414d4f554e546265666f726520737761706665653a2062616c616e63653a202564207472616e736665723a20256452656d6f76654c69717569646974793a20494e53554646494349454e545f425f414d4f554e5452656d6f76654c69717569646974793a20494e53554646494349454e545f415f414d4f554e544f776e61626c653a206e6577206f776e657220697320746865207a65726f2061646472657373737761704578616374455448466f72546f6b656e73556e6465726c79696e673a202564202e2e2e2e52656d6f76654c6971756964697479556e6465726c79696e673a20494e53554646494349454e545f415f414d4f554e54616d6f756e74496e3a20256420616d6f756e74304f75743a20256420616d6f756e74314f75743a2025645f737761704578616374546f6b656e73466f72546f6b656e73556e6465726c79696e673a20696e2f6f75743a202564202564536166654d6174683a206d756c7469706c69636174696f6e206f766572666c6f774f776e61626c653a2063616c6c6572206973206e6f7420746865206f776e657252656d6f76654c6971756964697479556e6465726c79696e673a20494e53554646494349454e545f425f414d4f554e54446542616e6b526f757465723a2045585049524544000000000000000000000071756f746520636f696e20686173206e6f207061697220746f20616e63686f72546f6b656e526f757465723a20494e53554646494349454e545f4f55545055545f414d4f554e545472616e7366657248656c7065723a204554485f5452414e534645525f4641494c45445472616e7366657248656c7065723a205452414e534645525f46524f4d5f4641494c45444164644c69717569646974793a20494e53554646494349454e545f415f414d4f554e54a265627a7a723158207023edda67b6b782a04a85d50ed98f6eb66af46233dbb0ca40625c8243b0cf6864736f6c63430005100032",
  "linkReferences": {},
  "deployedLinkReferences": {}
}