{
  "_format": "hh-sol-artifact-1",
  "contractName": "DeBankFactory",
  "sourceName": "contracts/swap/heco/Factory.sol",
  "abi": [
    {
      "inputs": [
        {
          "internalType": "address",
          "name": "_ctokenFacotry",
          "type": "address"
        },
        {
          "internalType": "address",
          "name": "_anchorToken",
          "type": "address"
        }
      ],
      "payable": false,
      "stateMutability": "nonpayable",
      "type": "constructor"
    },
    {
      "anonymous": false,
      "inputs": [
        {
          "indexed": true,
          "internalType": "address",
          "name": "previousOwner",
          "type": "address"
        },
        {
          "indexed": true,
          "internalType": "address",
          "name": "newOwner",
          "type": "address"
        }
      ],
      "name": "OwnershipTransferred",
      "type": "event"
    },
    {
      "anonymous": false,
      "inputs": [
        {
          "indexed": true,
          "internalType": "address",
          "name": "token0",
          "type": "address"
        },
        {
          "indexed": true,
          "internalType": "address",
          "name": "token1",
          "type": "address"
        },
        {
          "indexed": false,
          "internalType": "address",
          "name": "pair",
          "type": "address"
        },
        {
          "indexed": false,
          "internalType": "uint256",
          "name": "",
          "type": "uint256"
        }
      ],
      "name": "PairCreated",
      "type": "event"
    },
    {
      "constant": true,
      "inputs": [
        {
          "internalType": "uint256",
          "name": "",
          "type": "uint256"
        }
      ],
      "name": "allPairs",
      "outputs": [
        {
          "internalType": "address",
          "name": "",
          "type": "address"
        }
      ],
      "payable": false,
      "stateMutability": "view",
      "type": "function"
    },
    {
      "constant": true,
      "inputs": [],
      "name": "allPairsLength",
      "outputs": [
        {
          "internalType": "uint256",
          "name": "",
          "type": "uint256"
        }
      ],
      "payable": false,
      "stateMutability": "view",
      "type": "function"
    },
    {
      "constant": true,
      "inputs": [],
      "name": "anchorToken",
      "outputs": [
        {
          "internalType": "address",
          "name": "",
          "type": "address"
        }
      ],
      "payable": false,
      "stateMutability": "view",
      "type": "function"
    },
    {
      "constant": false,
      "inputs": [
        {
          "internalType": "address",
          "name": "tokenA",
          "type": "address"
        },
        {
          "internalType": "address",
          "name": "tokenB",
          "type": "address"
        }
      ],
      "name": "createPair",
      "outputs": [
        {
          "internalType": "address",
          "name": "pair",
          "type": "address"
        }
      ],
      "payable": false,
      "stateMutability": "nonpayable",
      "type": "function"
    },
    {
      "constant": true,
      "inputs": [
        {
          "internalType": "address",
          "name": "",
          "type": "address"
        }
      ],
      "name": "feeRateOf",
      "outputs": [
        {
          "internalType": "uint256",
          "name": "",
          "type": "uint256"
        }
      ],
      "payable": false,
      "stateMutability": "view",
      "type": "function"
    },
    {
      "constant": true,
      "inputs": [],
      "name": "feeTo",
      "outputs": [
        {
          "internalType": "address",
          "name": "",
          "type": "address"
        }
      ],
      "payable": false,
      "stateMutability": "view",
      "type": "function"
    },
    {
      "constant": true,
      "inputs": [
        {
          "internalType": "uint256",
          "name": "amountOut",
          "type": "uint256"
        },
        {
          "internalType": "uint256",
          "name": "reserveIn",
          "type": "uint256"
        },
        {
          "internalType": "uint256",
          "name": "reserveOut",
          "type": "uint256"
        },
        {
          "internalType": "uint256",
          "name": "feeRate",
          "type": "uint256"
        }
      ],
      "name": "getAmountInFeeRate",
      "outputs": [
        {
          "internalType": "uint256",
          "name": "amountIn",
          "type": "uint256"
        }
      ],
      "payable": false,
      "stateMutability": "pure",
      "type": "function"
    },
    {
      "constant": true,
      "inputs": [
        {
          "internalType": "uint256",
          "name": "amountIn",
          "type": "uint256"
        },
        {
          "internalType": "uint256",
          "name": "reserveIn",
          "type": "uint256"
        },
        {
          "internalType": "uint256",
          "name": "reserveOut",
          "type": "uint256"
        },
        {
          "internalType": "uint256",
          "name": "feeRate",
          "type": "uint256"
        }
      ],
      "name": "getAmountOutFeeRate",
      "outputs": [
        {
          "internalType": "uint256",
          "name": "amountOut",
          "type": "uint256"
        }
      ],
      "payable": false,
      "stateMutability": "pure",
      "type": "function"
    },
    {
      "constant": true,
      "inputs": [
        {
          "internalType": "uint256",
          "name": "amountIn",
          "type": "uint256"
        },
        {
          "internalType": "uint256",
          "name": "reserveIn",
          "type": "uint256"
        },
        {
          "internalType": "uint256",
          "name": "reserveOut",
          "type": "uint256"
        },
        {
          "internalType": "uint256",
          "name": "feeRate",
          "type": "uint256"
        }
      ],
      "name": "getAmountOutFeeRateAnchorToken",
      "outputs": [
        {
          "internalType": "uint256",
          "name": "amountOut",
          "type": "uint256"
        }
      ],
      "payable": false,
      "stateMutability": "pure",
      "type": "function"
    },
    {
      "constant": true,
      "inputs": [
        {
          "internalType": "uint256",
          "name": "amountOut",
          "type": "uint256"
        },
        {
          "internalType": "address[]",
          "name": "path",
          "type": "address[]"
        },
        {
          "internalType": "address",
          "name": "to",
          "type": "address"
        }
      ],
      "name": "getAmountsIn",
      "outputs": [
        {
          "internalType": "uint256[]",
          "name": "amounts",
          "type": "uint256[]"
        }
      ],
      "payable": false,
      "stateMutability": "view",
      "type": "function"
    },
    {
      "constant": true,
      "inputs": [
        {
          "internalType": "uint256",
          "name": "amountIn",
          "type": "uint256"
        },
        {
          "internalType": "address[]",
          "name": "path",
          "type": "address[]"
        },
        {
          "internalType": "address",
          "name": "to",
          "type": "address"
        }
      ],
      "name": "getAmountsOut",
      "outputs": [
        {
          "internalType": "uint256[]",
          "name": "amounts",
          "type": "uint256[]"
        }
      ],
      "payable": false,
      "stateMutability": "view",
      "type": "function"
    },
    {
      "constant": true,
      "inputs": [
        {
          "internalType": "address",
          "name": "",
          "type": "address"
        },
        {
          "internalType": "address",
          "name": "",
          "type": "address"
        }
      ],
      "name": "getPair",
      "outputs": [
        {
          "internalType": "address",
          "name": "",
          "type": "address"
        }
      ],
      "payable": false,
      "stateMutability": "view",
      "type": "function"
    },
    {
      "constant": true,
      "inputs": [
        {
          "internalType": "address",
          "name": "tokenA",
          "type": "address"
        },
        {
          "internalType": "address",
          "name": "tokenB",
          "type": "address"
        }
      ],
      "name": "getReserves",
      "outputs": [
        {
          "internalType": "uint256",
          "name": "reserveA",
          "type": "uint256"
        },
        {
          "internalType": "uint256",
          "name": "reserveB",
          "type": "uint256"
        }
      ],
      "payable": false,
      "stateMutability": "view",
      "type": "function"
    },
    {
      "constant": true,
      "inputs": [
        {
          "internalType": "address",
          "name": "tokenA",
          "type": "address"
        },
        {
          "internalType": "address",
          "name": "tokenB",
          "type": "address"
        },
        {
          "internalType": "address",
          "name": "to",
          "type": "address"
        }
      ],
      "name": "getReservesFeeRate",
      "outputs": [
        {
          "internalType": "uint256",
          "name": "reserveA",
          "type": "uint256"
        },
        {
          "internalType": "uint256",
          "name": "reserveB",
          "type": "uint256"
        },
        {
          "internalType": "uint256",
          "name": "feeRate",
          "type": "uint256"
        },
        {
          "internalType": "bool",
          "name": "outAnchorToken",
          "type": "bool"
        }
      ],
      "payable": false,
      "stateMutability": "view",
      "type": "function"
    },
    {
      "constant": true,
      "inputs": [],
      "name": "initCodeHash",
      "outputs": [
        {
          "internalType": "bytes32",
          "name": "",
          "type": "bytes32"
        }
      ],
      "payable": false,
      "stateMutability": "view",
      "type": "function"
    },
    {
      "constant": true,
      "inputs": [],
      "name": "isOwner",
      "outputs": [
        {
          "internalType": "bool",
          "name": "",
          "type": "bool"
        }
      ],
      "payable": false,
      "stateMutability": "view",
      "type": "function"
    },
    {
      "constant": true,
      "inputs": [],
      "name": "lErc20DelegatorFactory",
      "outputs": [
        {
          "internalType": "contract LErc20DelegatorInterface",
          "name": "",
          "type": "address"
        }
      ],
      "payable": false,
      "stateMutability": "view",
      "type": "function"
    },
    {
      "constant": true,
      "inputs": [],
      "name": "lpFeeRate",
      "outputs": [
        {
          "internalType": "uint256",
          "name": "",
          "type": "uint256"
        }
      ],
      "payable": false,
      "stateMutability": "view",
      "type": "function"
    },
    {
      "constant": true,
      "inputs": [],
      "name": "owner",
      "outputs": [
        {
          "internalType": "address",
          "name": "",
          "type": "address"
        }
      ],
      "payable": false,
      "stateMutability": "view",
      "type": "function"
    },
    {
      "constant": true,
      "inputs": [
        {
          "internalType": "address",
          "name": "tokenA",
          "type": "address"
        },
        {
          "internalType": "address",
          "name": "tokenB",
          "type": "address"
        }
      ],
      "name": "pairFor",
      "outputs": [
        {
          "internalType": "address",
          "name": "pair",
          "type": "address"
        }
      ],
      "payable": false,
      "stateMutability": "view",
      "type": "function"
    },
    {
      "constant": true,
      "inputs": [
        {
          "internalType": "uint256",
          "name": "amountA",
          "type": "uint256"
        },
        {
          "internalType": "uint256",
          "name": "reserveA",
          "type": "uint256"
        },
        {
          "internalType": "uint256",
          "name": "reserveB",
          "type": "uint256"
        }
      ],
      "name": "quote",
      "outputs": [
        {
          "internalType": "uint256",
          "name": "amountB",
          "type": "uint256"
        }
      ],
      "payable": false,
      "stateMutability": "pure",
      "type": "function"
    },
    {
      "constant": false,
      "inputs": [],
      "name": "renounceOwnership",
      "outputs": [],
      "payable": false,
      "stateMutability": "nonpayable",
      "type": "function"
    },
    {
      "constant": true,
      "inputs": [],
      "name": "router",
      "outputs": [
        {
          "internalType": "address",
          "name": "",
          "type": "address"
        }
      ],
      "payable": false,
      "stateMutability": "view",
      "type": "function"
    },
    {
      "constant": false,
      "inputs": [
        {
          "internalType": "address",
          "name": "_token",
          "type": "address"
        }
      ],
      "name": "setAnchorToken",
      "outputs": [],
      "payable": false,
      "stateMutability": "nonpayable",
      "type": "function"
    },
    {
      "constant": false,
      "inputs": [
        {
          "internalType": "address",
          "name": "_feeTo",
          "type": "address"
        }
      ],
      "name": "setFeeTo",
      "outputs": [],
      "payable": false,
      "stateMutability": "nonpayable",
      "type": "function"
    },
    {
      "constant": false,
      "inputs": [
        {
          "internalType": "uint256",
          "name": "_rate",
          "type": "uint256"
        }
      ],
      "name": "setFeeToRate",
      "outputs": [],
      "payable": false,
      "stateMutability": "nonpayable",
      "type": "function"
    },
    {
      "constant": false,
      "inputs": [
        {
          "internalType": "address",
          "name": "pair",
          "type": "address"
        },
        {
          "internalType": "uint256",
          "name": "feeRate",
          "type": "uint256"
        }
      ],
      "name": "setPairFeeRate",
      "outputs": [],
      "payable": false,
      "stateMutability": "nonpayable",
      "type": "function"
    },
    {
      "constant": false,
      "inputs": [
        {
          "internalType": "address",
          "name": "_router",
          "type": "address"
        }
      ],
      "name": "setRouter",
      "outputs": [],
      "payable": false,
      "stateMutability": "nonpayable",
      "type": "function"
    },
    {
      "constant": false,
      "inputs": [
        {
          "internalType": "address",
          "name": "user",
          "type": "address"
        },
        {
          "internalType": "uint256",
          "name": "feeRate",
          "type": "uint256"
        }
      ],
      "name": "setUserFeeRate",
      "outputs": [],
      "payable": false,
      "stateMutability": "nonpayable",
      "type": "function"
    },
    {
      "constant": true,
      "inputs": [
        {
          "internalType": "address",
          "name": "tokenA",
          "type": "address"
        },
        {
          "internalType": "address",
          "name": "tokenB",
          "type": "address"
        }
      ],
      "name": "sortTokens",
      "outputs": [
        {
          "internalType": "address",
          "name": "token0",
          "type": "address"
        },
        {
          "internalType": "address",
          "name": "token1",
          "type": "address"
        }
      ],
      "payable": false,
      "stateMutability": "pure",
      "type": "function"
    },
    {
      "constant": false,
      "inputs": [
        {
          "internalType": "address",
          "name": "newOwner",
          "type": "address"
        }
      ],
      "name": "transferOwnership",
      "outputs": [],
      "payable": false,
      "stateMutability": "nonpayable",
      "type": "function"
    }
  ],
  "bytecode": "0x608060405260006002553480156200001657600080fd5b506040516200984938038062009849833981810160405260408110156200003c57600080fd5b50805160209091015160006200005a6001600160e01b03620001d316565b600080546001600160a01b0319166001600160a01b0383169081178255604051929350917f8be0079c531659141344cd1fd0a4f28419497f9722a3daafe3b4186f6b6457e0908290a350600680546001600160a01b0319166001600160a01b038416179055604051620000d060208201620001d7565b6020820181038252601f19601f820116604052506040516020018082805190602001908083835b60208310620001185780518252601f199092019160209182019101620000f7565b51815160209384036101000a60001901801990921691161790526040805192909401828103601f1901835290935280519201919091206005555050600380546001600160a01b0319166001600160a01b0384811691909117918290551615159050620001cb576040805162461bcd60e51b815260206004820152601a60248201527f63546f6b656e206f6620616e63686f72546f6b656e2069732030000000000000604482015290519081900360640190fd5b5050620001e5565b3390565b613a148062005e3583390190565b615c4080620001f56000396000f3fe608060405234801561001057600080fd5b50600436106101e55760003560e01c806396ed28f91161010f578063d779e270116100a2578063f2fde38b11610071578063f2fde38b14610767578063f46901ed1461078d578063f5b9848d146107b3578063f887ea40146107bb576101e5565b8063d779e27014610703578063db4c545e14610729578063e1c4c96614610731578063e6a4390514610739576101e5565b8063c9c65396116100de578063c9c65396146105ad578063d14641d2146105db578063d2b364c614610607578063d52bb6f4146106bc576101e5565b806396ed28f914610513578063ad615dec14610541578063b5e4aa721461056a578063c0d7865514610587576101e5565b80634219547711610187578063715018a611610156578063715018a6146104875780637f33ffc31461048f5780638da5cb5b146104ef5780638f32d59b146104f7576101e5565b806342195477146103f4578063544caa56146103fc578063574f2ba3146104505780636e2b0fa714610458576101e5565b80631e3dd18b116101c35780631e3dd18b146103545780632f167f051461037157806332175e851461039957806332d1b8d2146103c5576101e5565b8063017e7e58146101ea5780630b64aa631461020e5780630c49bd131461024f575b600080fd5b6101f26107c3565b604080516001600160a01b039092168252519081900360200190f35b61023d6004803603608081101561022457600080fd5b50803590602081013590604081013590606001356107d2565b60408051918252519081900360200190f35b6103046004803603606081101561026557600080fd5b8135919081019060408101602082013564010000000081111561028757600080fd5b82018360208201111561029957600080fd5b803590602001918460208302840111640100000000831117156102bb57600080fd5b919080806020026020016040519081016040528093929190818152602001838360200280828437600092019190915250929550505090356001600160a01b031691506109379050565b60408051602080825283518183015283519192839290830191858101910280838360005b83811015610340578181015183820152602001610328565b505050509050019250505060405180910390f35b6101f26004803603602081101561036a57600080fd5b5035610a70565b6103976004803603602081101561038757600080fd5b50356001600160a01b0316610a97565b005b610397600480360360408110156103af57600080fd5b506001600160a01b038135169060200135610b00565b61023d600480360360808110156103db57600080fd5b5080359060208101359060408101359060600135610b69565b6101f2610c51565b61042a6004803603604081101561041257600080fd5b506001600160a01b0381358116916020013516610c60565b604080516001600160a01b03938416815291909216602082015281519081900390910190f35b61023d610d50565b61023d6004803603608081101561046e57600080fd5b5080359060208101359060408101359060600135610d56565b610397610e3e565b6104c7600480360360608110156104a557600080fd5b506001600160a01b038135811691602081013582169160409091013516610ecf565b6040805194855260208501939093528383019190915215156060830152519081900360800190f35b6101f2611080565b6104ff61108f565b604080519115158252519081900360200190f35b6101f26004803603604081101561052957600080fd5b506001600160a01b03813581169160200135166110b3565b61023d6004803603606081101561055757600080fd5b50803590602081013590604001356110dd565b6103976004803603602081101561058057600080fd5b503561119f565b6103976004803603602081101561059d57600080fd5b50356001600160a01b031661123c565b6101f2600480360360408110156105c357600080fd5b506001600160a01b03813581169160200135166112a5565b610397600480360360408110156105f157600080fd5b506001600160a01b03813516906020013561179e565b6103046004803603606081101561061d57600080fd5b8135919081019060408101602082013564010000000081111561063f57600080fd5b82018360208201111561065157600080fd5b8035906020019184602083028401116401000000008311171561067357600080fd5b919080806020026020016040519081016040528093929190818152602001838360200280828437600092019190915250929550505090356001600160a01b0316915061189d9050565b6106ea600480360360408110156106d257600080fd5b506001600160a01b0381358116916020013516611a1b565b6040805192835260208301919091528051918290030190f35b61023d6004803603602081101561071957600080fd5b50356001600160a01b0316611ae0565b61023d611af2565b6101f2611af8565b6101f26004803603604081101561074f57600080fd5b506001600160a01b0381358116916020013516611b07565b6103976004803603602081101561077d57600080fd5b50356001600160a01b0316611b2d565b610397600480360360208110156107a357600080fd5b50356001600160a01b0316611b80565b61023d611be9565b6101f2611bef565b6001546001600160a01b031681565b60008085116108125760405162461bcd60e51b8152600401808060200182810382526026815260200180615b346026913960400191505060405180910390fd5b6000841180156108225750600083115b61085d5760405162461bcd60e51b8152600401808060200182810382526023815260200180615be96023913960400191505060405180910390fd5b60006108748661271085900363ffffffff611bfe16565b905060008161088b8861271063ffffffff611bfe16565b03905060006108b2826108a68961271063ffffffff611bfe16565b9063ffffffff611c6016565b6108c2838863ffffffff611bfe16565b816108c957fe5b0495869003600019019590506108e182612710611cba565b9096039560006108f7848863ffffffff611bfe16565b9050600061091d6127106109118b8d63ffffffff611c6016565b9063ffffffff611bfe16565b905080828161092857fe5b049a9950505050505050505050565b606060028351101561098c576040805162461bcd60e51b81526020600482015260196024820152780a6eec2e08cc2c6e8dee4f27440929cac82989288bea082a89603b1b604482015290519081900360640190fd5b82516040519080825280602002602001820160405280156109b7578160200160208202803883390190505b50905083816001835103815181106109cb57fe5b60209081029190910101528251600019015b8015610a68576000806000610a1c8760018603815181106109fa57fe5b6020026020010151888681518110610a0e57fe5b602002602001015188610ecf565b50925092509250610a42858581518110610a3257fe5b6020026020010151848484610b69565b856001860381518110610a5157fe5b6020908102919091010152505050600019016109dd565b509392505050565b60098181548110610a7d57fe5b6000918252602090912001546001600160a01b0316905081565b610a9f61108f565b610ade576040805162461bcd60e51b81526020600482018190526024820152600080516020615bc9833981519152604482015290519081900360640190fd5b600380546001600160a01b0319166001600160a01b0392909216919091179055565b610b0861108f565b610b47576040805162461bcd60e51b81526020600482018190526024820152600080516020615bc9833981519152604482015290519081900360640190fd5b6001600160a01b03909116600090815260076020526040902060019091019055565b6000808511610ba95760405162461bcd60e51b8152600401808060200182810382526027815260200180615b5a6027913960400191505060405180910390fd5b600084118015610bb95750600083115b610bf45760405162461bcd60e51b8152600401808060200182810382526023815260200180615be96023913960400191505060405180910390fd5b6000610c0c612710610911878963ffffffff611bfe16565b90506000610c29612710859003610911878a63ffffffff611cfc16565b9050610c466001828481610c3957fe5b049063ffffffff611c6016565b979650505050505050565b6006546001600160a01b031681565b600080826001600160a01b0316846001600160a01b03161415610cca576040805162461bcd60e51b815260206004820181905260248201527f53776170466163746f72793a204944454e544943414c5f414444524553534553604482015290519081900360640190fd5b826001600160a01b0316846001600160a01b031610610cea578284610ced565b83835b90925090506001600160a01b038216610d49576040805162461bcd60e51b815260206004820152601960248201527853776170466163746f72793a205a45524f5f4144445245535360381b604482015290519081900360640190fd5b9250929050565b60095490565b6000808511610d965760405162461bcd60e51b8152600401808060200182810382526026815260200180615b346026913960400191505060405180910390fd5b600084118015610da65750600083115b610de15760405162461bcd60e51b8152600401808060200182810382526023815260200180615be96023913960400191505060405180910390fd5b6000610df88661271085900363ffffffff611bfe16565b90506000610e0c828663ffffffff611bfe16565b90506000610e26836108a68961271063ffffffff611bfe16565b9050808281610e3157fe5b0498975050505050505050565b610e4661108f565b610e85576040805162461bcd60e51b81526020600482018190526024820152600080516020615bc9833981519152604482015290519081900360640190fd5b600080546040516001600160a01b03909116907f8be0079c531659141344cd1fd0a4f28419497f9722a3daafe3b4186f6b6457e0908390a3600080546001600160a01b0319169055565b6000806000806000610ee18888610c60565b5090506000610ef089896110b3565b9050600080826001600160a01b0316630902f1ac6040518163ffffffff1660e01b815260040160606040518083038186803b158015610f2e57600080fd5b505afa158015610f42573d6000803e3d6000fd5b505050506040513d6060811015610f5857600080fd5b5080516020918201516001600160a01b038c166000908152600790935260409092205497506001600160701b03908116935016905085610ffe57826001600160a01b031663978bbdb96040518163ffffffff1660e01b815260040160206040518083038186803b158015610fcb57600080fd5b505afa158015610fdf573d6000803e3d6000fd5b505050506040513d6020811015610ff557600080fd5b50519550611005565b6001860395505b836001600160a01b03168b6001600160a01b031614611034576003546001600160a01b038c8116911614611046565b6003546001600160a01b038b81169116145b9450836001600160a01b03168b6001600160a01b03161461106857808261106b565b81815b80985081995050505050505093509350935093565b6000546001600160a01b031690565b600080546001600160a01b03166110a4611d3e565b6001600160a01b031614905090565b6001600160a01b039182166000908152600860209081526040808320938516835292905220541690565b6000808411611133576040805162461bcd60e51b815260206004820181905260248201527f53776170466163746f72793a20494e53554646494349454e545f414d4f554e54604482015290519081900360640190fd5b6000831180156111435750600082115b61117e5760405162461bcd60e51b8152600401808060200182810382526023815260200180615be96023913960400191505060405180910390fd5b8261118f858463ffffffff611bfe16565b8161119657fe5b04949350505050565b6111a761108f565b6111e6576040805162461bcd60e51b81526020600482018190526024820152600080516020615bc9833981519152604482015290519081900360640190fd5b600081116112255760405162461bcd60e51b8152600401808060200182810382526027815260200180615b816027913960400191505060405180910390fd5b61123681600163ffffffff611cfc16565b60025550565b61124461108f565b611283576040805162461bcd60e51b81526020600482018190526024820152600080516020615bc9833981519152604482015290519081900360640190fd5b600480546001600160a01b0319166001600160a01b0392909216919091179055565b6000816001600160a01b0316836001600160a01b0316141561130e576040805162461bcd60e51b815260206004820181905260248201527f53776170466163746f72793a204944454e544943414c5f414444524553534553604482015290519081900360640190fd5b600080836001600160a01b0316856001600160a01b031610611331578385611334565b84845b90925090506001600160a01b038216611390576040805162461bcd60e51b815260206004820152601960248201527853776170466163746f72793a205a45524f5f4144445245535360381b604482015290519081900360640190fd5b6001600160a01b0382811660009081526008602090815260408083208585168452909152902054161561140a576040805162461bcd60e51b815260206004820152601860248201527f53776170466163746f72793a20504149525f4558495354530000000000000000604482015290519081900360640190fd5b6000806114178484611d42565b9150915060606040518060200161142d906120ec565b6020820181038252601f19601f8201166040525090506000858560405160200180836001600160a01b03166001600160a01b031660601b8152601401826001600160a01b03166001600160a01b031660601b815260140192505050604051602081830303815290604052805190602001209050808251602084016000f560408051637c643b2f60e11b81526001600160a01b03898116600483015288811660248301528781166044830152868116606483015291519299509089169163f8c8765e9160848082019260009290919082900301818387803b15801561151057600080fd5b505af1158015611524573d6000803e3d6000fd5b505050508660086000886001600160a01b03166001600160a01b031681526020019081526020016000206000876001600160a01b03166001600160a01b0316815260200190815260200160002060006101000a8154816001600160a01b0302191690836001600160a01b031602179055508660086000876001600160a01b03166001600160a01b031681526020019081526020016000206000886001600160a01b03166001600160a01b0316815260200190815260200160002060006101000a8154816001600160a01b0302191690836001600160a01b031602179055508660086000866001600160a01b03166001600160a01b031681526020019081526020016000206000856001600160a01b03166001600160a01b0316815260200190815260200160002060006101000a8154816001600160a01b0302191690836001600160a01b031602179055508660086000856001600160a01b03166001600160a01b031681526020019081526020016000206000866001600160a01b03166001600160a01b0316815260200190815260200160002060006101000a8154816001600160a01b0302191690836001600160a01b0316021790555060098790806001815401808255809150509060018203906000526020600020016000909192909190916101000a8154816001600160a01b0302191690836001600160a01b0316021790555050846001600160a01b0316866001600160a01b03167f0d3648bd0f6ba80134a33ba9275ac585d9d315f0ad8355cddefde31afa28d0e98960098054905060405180836001600160a01b03166001600160a01b031681526020018281526020019250505060405180910390a350505050505092915050565b6117a661108f565b6117e5576040805162461bcd60e51b81526020600482018190526024820152600080516020615bc9833981519152604482015290519081900360640190fd5b60c881111561183b576040805162461bcd60e51b815260206004820152601d60248201527f53776170466163746f72793a206665655261746520746f6f2068696768000000604482015290519081900360640190fd5b816001600160a01b0316637b84fda5826040518263ffffffff1660e01b815260040180828152602001915050600060405180830381600087803b15801561188157600080fd5b505af1158015611895573d6000803e3d6000fd5b505050505050565b60606002835110156118f2576040805162461bcd60e51b81526020600482015260196024820152780a6eec2e08cc2c6e8dee4f27440929cac82989288bea082a89603b1b604482015290519081900360640190fd5b825160405190808252806020026020018201604052801561191d578160200160208202803883390190505b509050838160008151811061192e57fe5b60200260200101818152505060005b6001845103811015610a685760008060008061198388868151811061195e57fe5b602002602001015189876001018151811061197557fe5b602002602001015189610ecf565b935093509350935080156119d0576119b08686815181106119a057fe5b60200260200101518585856107d2565b8686600101815181106119bf57fe5b602002602001018181525050611a0b565b6119ef8686815181106119df57fe5b6020026020010151858585610d56565b8686600101815181106119fe57fe5b6020026020010181815250505b50506001909201915061193d9050565b6000806000611a2a8585610c60565b509050600080611a3a87876110b3565b6001600160a01b0316630902f1ac6040518163ffffffff1660e01b815260040160606040518083038186803b158015611a7257600080fd5b505afa158015611a86573d6000803e3d6000fd5b505050506040513d6060811015611a9c57600080fd5b5080516020909101516001600160701b0391821693501690506001600160a01b0387811690841614611acf578082611ad2565b81815b909890975095505050505050565b60076020526000908152604090205481565b60055481565b6003546001600160a01b031681565b60086020908152600092835260408084209091529082529020546001600160a01b031681565b611b3561108f565b611b74576040805162461bcd60e51b81526020600482018190526024820152600080516020615bc9833981519152604482015290519081900360640190fd5b611b7d81611f50565b50565b611b8861108f565b611bc7576040805162461bcd60e51b81526020600482018190526024820152600080516020615bc9833981519152604482015290519081900360640190fd5b600180546001600160a01b0319166001600160a01b0392909216919091179055565b60025481565b6004546001600160a01b031681565b600082611c0d57506000611c5a565b82820282848281611c1a57fe5b0414611c575760405162461bcd60e51b8152600401808060200182810382526021815260200180615ba86021913960400191505060405180910390fd5b90505b92915050565b600082820183811015611c57576040805162461bcd60e51b815260206004820152601b60248201527f536166654d6174683a206164646974696f6e206f766572666c6f770000000000604482015290519081900360640190fd5b6000611c5783836040518060400160405280601a81526020017f536166654d6174683a206469766973696f6e206279207a65726f000000000000815250611ff0565b6000611c5783836040518060400160405280601e81526020017f536166654d6174683a207375627472616374696f6e206f766572666c6f770000815250612092565b3390565b600654604080516326c7bd9360e01b81526001600160a01b0385811660048301529151600093849316916326c7bd9391602480830192602092919082900301818787803b158015611d9257600080fd5b505af1158015611da6573d6000803e3d6000fd5b505050506040513d6020811015611dbc57600080fd5b505191506001600160a01b038216611e16576040805162461bcd60e51b8152602060048201526018602482015277053776170466163746f72793a2063546f6b656e20697320360441b604482015290519081900360640190fd5b600654604080516326c7bd9360e01b81526001600160a01b038681166004830152915191909216916326c7bd939160248083019260209291908290030181600087803b158015611e6557600080fd5b505af1158015611e79573d6000803e3d6000fd5b505050506040513d6020811015611e8f57600080fd5b505190506001600160a01b038116611ee9576040805162461bcd60e51b8152602060048201526018602482015277053776170466163746f72793a2063546f6b656e20697320360441b604482015290519081900360640190fd5b806001600160a01b0316826001600160a01b03161415610d49576040805162461bcd60e51b815260206004820152601760248201527f53776170466163746f72793a204475702063546f6b656e000000000000000000604482015290519081900360640190fd5b6001600160a01b038116611f955760405162461bcd60e51b8152600401808060200182810382526026815260200180615b0e6026913960400191505060405180910390fd5b600080546040516001600160a01b03808516939216917f8be0079c531659141344cd1fd0a4f28419497f9722a3daafe3b4186f6b6457e091a3600080546001600160a01b0319166001600160a01b0392909216919091179055565b6000818361207c5760405162461bcd60e51b81526004018080602001828103825283818151815260200191508051906020019080838360005b83811015612041578181015183820152602001612029565b50505050905090810190601f16801561206e5780820380516001836020036101000a031916815260200191505b509250505060405180910390fd5b50600083858161208857fe5b0495945050505050565b600081848411156120e45760405162461bcd60e51b8152602060048201818152835160248401528351909283926044909101919085019080838360008315612041578181015183820152602001612029565b505050900390565b613a14806120fa8339019056fe6080604052601e6006556001601a5534801561001a57600080fd5b5060405146908060526139c2823960408051918290036052018220828201825260088352672628102a37b5b2b760c11b6020938401528151808301835260018152603160f81b908401528151808401919091527fc285f7cfebd35a59cb5c0c032add67fdc80dcde2f8127cb94e4b49a72469ed02818301527fc89efdaa54c0f20c7adf612882df0950f5a951637e0307cdcb4c672f298b8bc6606082015260808101949094523060a0808601919091528151808603909101815260c090940190528251920191909120600d5550600080546001600160a01b031916331790556138ba806101086000396000f3fe608060405234801561001057600080fd5b50600436106102bb5760003560e01c80637b84fda511610182578063c45a0155116100e9578063dd62ed3e116100a2578063f5b9848d1161007c578063f5b9848d14610851578063f8c8765e14610859578063fcee45f414610897578063fff6cae9146108b4576102bb565b8063dd62ed3e14610813578063e12ed13c14610841578063e5b2aab014610849576102bb565b8063c45a01551461077c578063cbb8fb3114610784578063d21220a7146107aa578063d2890a01146107b2578063d505accf146107ba578063d939fa8a1461080b576102bb565b80639ec5a8941161013b5780639ec5a894146106e6578063a9059cbb146106ee578063ad9b80241461071a578063ba9a7a5614610746578063bc25cf771461074e578063bc9c5c6a14610774576102bb565b80637b84fda51461064c5780637ecebe001461066957806389afcb441461068f578063948023ab146106ce57806395d89b41146106d6578063978bbdb9146106de576102bb565b806330adf81f116102265780635a3d5493116101df5780635a3d5493146105c25780635a76f25e146105ca5780636a627842146105d25780636dbf2f7f146105f857806370a082311461061e5780637464fc3d14610644576102bb565b806330adf81f1461054b578063313ce567146105535780633644e51514610571578063443cb4bc14610579578063496cf3e41461059d5780635909c0d5146105ba576102bb565b80630dfe1681116102785780630dfe16811461048357806314afd79e146104a757806317560715146104eb57806318160ddd146105055780631df4ccfc1461050d57806323b872dd14610515576102bb565b8063022c0d9f146102c05780630442a8651461034e57806306fdde03146103865780630902f1ac1461040357806309047bdd1461043b578063095ea7b314610457575b600080fd5b61034c600480360360808110156102d657600080fd5b8135916020810135916001600160a01b03604083013516919081019060808101606082013564010000000081111561030d57600080fd5b82018360208201111561031f57600080fd5b8035906020019184600183028401116401000000008311171561034157600080fd5b5090925090506108bc565b005b61034c6004803603608081101561036457600080fd5b508035906020810135906001600160a01b036040820135169060600135610e94565b61038e61139c565b6040805160208082528351818301528351919283929083019185019080838360005b838110156103c85781810151838201526020016103b0565b50505050905090810190601f1680156103f55780820380516001836020036101000a031916815260200191505b509250505060405180910390f35b61040b6113c0565b604080516001600160701b03948516815292909316602083015263ffffffff168183015290519081900360600190f35b6104436113e7565b604080519115158252519081900360200190f35b6104436004803603604081101561046d57600080fd5b506001600160a01b0381351690602001356113f7565b61048b61140e565b604080516001600160a01b039092168252519081900360200190f35b6104cd600480360360208110156104bd57600080fd5b50356001600160a01b031661141d565b60408051938452602084019290925282820152519081900360600190f35b6104f361143e565b60408051918252519081900360200190f35b6104f3611444565b6104f361144a565b6104436004803603606081101561052b57600080fd5b506001600160a01b03813581169160208101359091169060400135611450565b6104f36114ea565b61055b61150e565b6040805160ff9092168252519081900360200190f35b6104f3611513565b610581611519565b604080516001600160701b039092168252519081900360200190f35b61034c600480360360208110156105b357600080fd5b5035611528565b6104f3611584565b6104f361158a565b610581611590565b6104f3600480360360208110156105e857600080fd5b50356001600160a01b03166115a6565b6104f36004803603602081101561060e57600080fd5b50356001600160a01b03166118f8565b6104f36004803603602081101561063457600080fd5b50356001600160a01b031661194b565b6104f361195d565b61034c6004803603602081101561066257600080fd5b5035611963565b6104f36004803603602081101561067f57600080fd5b50356001600160a01b0316611a08565b6106b5600480360360208110156106a557600080fd5b50356001600160a01b0316611a1a565b6040805192835260208301919091528051918290030190f35b61048b611f07565b61038e611f16565b6104f3611f35565b6104f3611f3b565b6104436004803603604081101561070457600080fd5b506001600160a01b038135169060200135611f41565b6104f36004803603604081101561073057600080fd5b506001600160a01b038135169060200135611f4e565b6104f361202c565b61034c6004803603602081101561076457600080fd5b50356001600160a01b0316612032565b6104f36121a1565b61048b6121a7565b6104f36004803603602081101561079a57600080fd5b50356001600160a01b03166121b6565b61048b6121c8565b6104f36121d7565b61034c600480360360e08110156107d057600080fd5b506001600160a01b03813581169160208101359091169060408101359060608101359060ff6080820135169060a08101359060c001356121dd565b61048b6123da565b6104f36004803603604081101561082957600080fd5b506001600160a01b03813581169160200135166123e9565b6104f3612406565b6104f361240c565b6104f3612412565b61034c6004803603608081101561086f57600080fd5b506001600160a01b038135811691602081013582169160408201358116916060013516612418565b6104f3600480360360208110156108ad57600080fd5b5035612527565b61034c612544565b601a54600114610908576040805162461bcd60e51b8152602060048201526012602482015271111950985b9ad4ddd85c0e881313d0d2d15160721b604482015290519081900360640190fd5b6000601a558415158061091b5750600084115b6109565760405162461bcd60e51b81526004018080602001828103825260268152602001806137cb6026913960400191505060405180910390fd5b6000806109616113c0565b5091509150816001600160701b0316871080156109865750806001600160701b031686105b6109c15760405162461bcd60e51b81526004018080602001828103825260228152602001806137f16022913960400191505060405180910390fd5b60035460045460009182916001600160a01b039182169190811690891682148015906109ff5750806001600160a01b0316896001600160a01b031614155b610a49576040805162461bcd60e51b8152602060048201526016602482015275446542616e6b537761703a20494e56414c49445f544f60501b604482015290519081900360640190fd5b8a15610a5a57610a5a828a8d6126a7565b8915610a6b57610a6b818a8c6126a7565b8615610b2657886001600160a01b031663226dc882338d8d8c8c6040518663ffffffff1660e01b815260040180866001600160a01b03166001600160a01b03168152602001858152602001848152602001806020018281038252848482818152602001925080828437600081840152601f19601f8201169050808301925050509650505050505050600060405180830381600087803b158015610b0d57600080fd5b505af1158015610b21573d6000803e3d6000fd5b505050505b604080516370a0823160e01b815230600482015290516001600160a01b038416916370a08231916024808301926020929190829003018186803b158015610b6c57600080fd5b505afa158015610b80573d6000803e3d6000fd5b505050506040513d6020811015610b9657600080fd5b5051604080516370a0823160e01b815230600482015290519195506001600160a01b038316916370a0823191602480820192602092909190829003018186803b158015610be257600080fd5b505afa158015610bf6573d6000803e3d6000fd5b505050506040513d6020811015610c0c57600080fd5b5051925060009150506001600160701b0385168a90038311610c2f576000610c3e565b89856001600160701b03160383035b9050600089856001600160701b0316038311610c5b576000610c6a565b89856001600160701b03160383035b90506000821180610c7b5750600081115b610cb65760405162461bcd60e51b81526004018080602001828103825260258152602001806137a66025913960400191505060405180910390fd5b6000610cee610cd06006548561283990919063ffffffff16565b610ce28761271063ffffffff61283916565b9063ffffffff61289916565b90506000610d0a610cd06006548561283990919063ffffffff16565b9050610d4c6040518060400160405280601b81526020017f616d6f756e7430496e3a20256420616d6f756e7431496e3a202564000000000081525085856128db565b610d8c6040518060400160405280601781526020017f62616c616e636541646a75737465643a2025642020256400000000000000000081525083836128db565b610dbc6305f5e100610db06001600160701b038b8116908b1663ffffffff61283916565b9063ffffffff61283916565b610dcc838363ffffffff61283916565b1015610e10576040805162461bcd60e51b815260206004820152600e60248201526d446542616e6b537761703a204b3160901b604482015290519081900360640190fd5b5050610e1e84848888612996565b610e2e610e29612b53565b612bcb565b60408051838152602081018390528082018d9052606081018c905290516001600160a01b038b169133917fd78ad95fa46c994b6551d0da85fc275fe613ce37657fb8d5e3d130840159d8229181900360800190a350506001601a55505050505050505050565b601a54600114610ee0576040805162461bcd60e51b8152602060048201526012602482015271111950985b9ad4ddd85c0e881313d0d2d15160721b604482015290519081900360640190fd5b6000601a81905554604080516303e21fa960e61b815290516001600160a01b039092169163f887ea4091600480820192602092909190829003018186803b158015610f2a57600080fd5b505afa158015610f3e573d6000803e3d6000fd5b505050506040513d6020811015610f5457600080fd5b50516001600160a01b03163314610fb2576040805162461bcd60e51b815260206004820152601760248201527f446542616e6b537761703a20726f75746572206f6e6c79000000000000000000604482015290519081900360640190fd5b8015610fc157610fc181612c1f565b6000841180610fd05750600083115b61100b5760405162461bcd60e51b81526004018080602001828103825260268152602001806137cb6026913960400191505060405180910390fd5b6000806110166113c0565b5091509150816001600160701b03168610801561103b5750806001600160701b031685105b6110765760405162461bcd60e51b81526004018080602001828103825260228152602001806137f16022913960400191505060405180910390fd5b60035460045460009182916001600160a01b039182169190811690881682148015906110b45750806001600160a01b0316886001600160a01b031614155b6110fe576040805162461bcd60e51b8152602060048201526016602482015275446542616e6b537761703a20494e56414c49445f544f60501b604482015290519081900360640190fd5b891561110f5761110f82898c6126a7565b88156111205761112081898b6126a7565b604080516370a0823160e01b815230600482015290516001600160a01b038416916370a08231916024808301926020929190829003018186803b15801561116657600080fd5b505afa15801561117a573d6000803e3d6000fd5b505050506040513d602081101561119057600080fd5b5051604080516370a0823160e01b815230600482015290519195506001600160a01b038316916370a0823191602480820192602092909190829003018186803b1580156111dc57600080fd5b505afa1580156111f0573d6000803e3d6000fd5b505050506040513d602081101561120657600080fd5b5051925060009150506001600160701b0385168990038311611229576000611238565b88856001600160701b03160383035b9050600088856001600160701b0316038311611255576000611264565b88856001600160701b03160383035b905060008211806112755750600081115b6112b05760405162461bcd60e51b81526004018080602001828103825260258152602001806137a66025913960400191505060405180910390fd5b6112cc6001600160701b0387811690871663ffffffff61283916565b6112dc858563ffffffff61283916565b1015611320576040805162461bcd60e51b815260206004820152600e60248201526d2232a130b735a9bbb0b81d10259960911b604482015290519081900360640190fd5b61132c84848888612996565b611337610e29612b53565b60408051838152602081018390528082018c9052606081018b905290516001600160a01b038a169133917fd78ad95fa46c994b6551d0da85fc275fe613ce37657fb8d5e3d130840159d8229181900360800190a350506001601a555050505050505050565b604051806040016040528060088152602001672628102a37b5b2b760c11b81525081565b6005546007546001600160701b0380831693600160701b909304169163ffffffff90911690565b600554600160e01b900460ff1681565b6000611404338484612e21565b5060015b92915050565b6001546001600160a01b031681565b60116020526000908152604090208054600182015460029092015490919083565b60165481565b600c5481565b60145481565b6001600160a01b0383166000908152601060209081526040808320338452909152812054600019146114d5576001600160a01b03841660009081526010602090815260408083203384529091529020546114b0908363ffffffff61289916565b6001600160a01b03851660009081526010602090815260408083203384529091529020555b6114e0848484612e83565b5060019392505050565b7f6e71edae12b1b97f4d1f60370fef10105fa2faae0126114a169c64845d6126c981565b601281565b600d5481565b6005546001600160701b031681565b6000546001600160a01b0316331461157f576040805162461bcd60e51b81526020600482015260156024820152742232a130b735a9bbb0b81d102327a92124a22222a760591b604482015290519081900360640190fd5b600855565b60095481565b600a5481565b600554600160701b90046001600160701b031681565b6000601a546001146115f4576040805162461bcd60e51b8152602060048201526012602482015271111950985b9ad4ddd85c0e881313d0d2d15160721b604482015290519081900360640190fd5b6000601a819055806116046113c0565b50600354604080516370a0823160e01b815230600482015290519395509193506000926001600160a01b03909116916370a08231916024808301926020929190829003018186803b15801561165857600080fd5b505afa15801561166c573d6000803e3d6000fd5b505050506040513d602081101561168257600080fd5b505160048054604080516370a0823160e01b81523093810193909352519293506000926001600160a01b03909116916370a08231916024808301926020929190829003018186803b1580156116d657600080fd5b505afa1580156116ea573d6000803e3d6000fd5b505050506040513d602081101561170057600080fd5b50519050600061171f836001600160701b03871663ffffffff61289916565b9050600061173c836001600160701b03871663ffffffff61289916565b9050600061174a8787612f3d565b600c5490915080611787576117736103e8610ce261176e878763ffffffff61283916565b613092565b985061178260006103e86130e3565b6117d6565b6117d36001600160701b0389166117a4868463ffffffff61283916565b816117ab57fe5b046001600160701b0389166117c6868563ffffffff61283916565b816117cd57fe5b046131ee565b98505b600089116118155760405162461bcd60e51b81526004018080602001828103825260298152602001806138136029913960400191505060405180910390fd5b61181f8a8a6130e3565b61182b86868a8a612996565b811561185b57600554611857906001600160701b0380821691600160701b90041663ffffffff61283916565b600b555b611866610e29612b53565b61188d600c546118816018548c61283990919063ffffffff16565b9063ffffffff61320516565b6001600160a01b038b16600090815260176020908152604091829020929092558051868152918201859052805133927f4c209b5fc8ad50758f13e2e1088ba56a560dff690a1c6fef26394f4c03821c4f92908290030190a250506001601a5550949695505050505050565b6000611902613784565b50506001600160a01b038116600090815260116020908152604091829020825160608101845281548082526001830154938201939093526002909101549201919091525b919050565b600f6020526000908152604090205481565b600b5481565b6000546001600160a01b031633146119ba576040805162461bcd60e51b81526020600482015260156024820152742232a130b735a9bbb0b81d102327a92124a22222a760591b604482015290519081900360640190fd5b60c8811115611a03576040805162461bcd60e51b815260206004820152601060248201526f0cccacaa4c2e8ca40e8dede40d0d2ced60831b604482015290519081900360640190fd5b600655565b600e6020526000908152604090205481565b600080601a54600114611a69576040805162461bcd60e51b8152602060048201526012602482015271111950985b9ad4ddd85c0e881313d0d2d15160721b604482015290519081900360640190fd5b6000601a81905580611a796113c0565b5060035460048054604080516370a0823160e01b81523093810193909352519496509294506001600160a01b0391821693919092169160009184916370a08231916024808301926020929190829003018186803b158015611ad957600080fd5b505afa158015611aed573d6000803e3d6000fd5b505050506040513d6020811015611b0357600080fd5b5051604080516370a0823160e01b815230600482015290519192506000916001600160a01b038516916370a08231916024808301926020929190829003018186803b158015611b5157600080fd5b505afa158015611b65573d6000803e3d6000fd5b505050506040513d6020811015611b7b57600080fd5b5051306000908152600f60205260409020549091506001600160a01b038a811690861614801590611bbe5750836001600160a01b03168a6001600160a01b031614155b8015611c4e57506000809054906101000a90046001600160a01b03166001600160a01b031663f887ea406040518163ffffffff1660e01b815260040160206040518083038186803b158015611c1257600080fd5b505afa158015611c26573d6000803e3d6000fd5b505050506040513d6020811015611c3c57600080fd5b50516001600160a01b038b8116911614155b15611cb6576001600160a01b038a16600090815260116020526040902054811115611cb6576040805162461bcd60e51b815260206004820152601360248201527237b7363c9037bbb732b91031b0b710313ab93760691b604482015290519081900360640190fd5b6000611cc28888612f3d565b600c5490915080611cd9848763ffffffff61283916565b81611ce057fe5b049a5080611cf4848663ffffffff61283916565b81611cfb57fe5b04995060008b118015611d0e575060008a115b611d495760405162461bcd60e51b815260040180806020018281038252602981526020018061383c6029913960400191505060405180910390fd5b600c54611d563085613247565b611d61888e8e6126a7565b611d6c878e8d6126a7565b611d778d858361343e565b604080516370a0823160e01b815230600482015290516001600160a01b038a16916370a08231916024808301926020929190829003018186803b158015611dbd57600080fd5b505afa158015611dd1573d6000803e3d6000fd5b505050506040513d6020811015611de757600080fd5b5051604080516370a0823160e01b815230600482015290519197506001600160a01b038916916370a0823191602480820192602092909190829003018186803b158015611e3357600080fd5b505afa158015611e47573d6000803e3d6000fd5b505050506040513d6020811015611e5d57600080fd5b50519450611e6d86868c8c612996565b8215611e9d57600554611e99906001600160701b0380821691600160701b90041663ffffffff61283916565b600b555b8c6001600160a01b0316336001600160a01b03167fdccd412f0b1252819cb1fd330b93224ca42612892bb3f4f789976e6d819364968e8e604051808381526020018281526020019250505060405180910390a3505050505050505050506001601a81905550915091565b6003546001600160a01b031681565b60405180604001604052806003815260200162088caf60eb1b81525081565b60065481565b60135481565b6000611404338484612e83565b6003546000906001600160a01b03848116911614801590611f7d57506004546001600160a01b03848116911614155b80611f9157506005546001600160701b0316155b80611fac5750600554600160701b90046001600160701b0316155b15611fb957506000611408565b6003546001600160a01b038481169116141561200257600554611ffb906001600160701b038082169161188191600160701b909104168563ffffffff61283916565b9050611408565b600554611ffb906001600160701b03600160701b820481169161188191168563ffffffff61283916565b6103e881565b601a5460011461207e576040805162461bcd60e51b8152602060048201526012602482015271111950985b9ad4ddd85c0e881313d0d2d15160721b604482015290519081900360640190fd5b6000601a5560035460048054600554604080516370a0823160e01b81523094810194909452516001600160a01b039485169490921692612130928592879261212b926001600160701b039092169185916370a08231916024808301926020929190829003018186803b1580156120f357600080fd5b505afa158015612107573d6000803e3d6000fd5b505050506040513d602081101561211d57600080fd5b50519063ffffffff61289916565b6126a7565b600554604080516370a0823160e01b81523060048201529051612197928492879261212b92600160701b90046001600160701b0316916001600160a01b038616916370a0823191602480820192602092909190829003018186803b1580156120f357600080fd5b50506001601a5550565b60185481565b6000546001600160a01b031681565b60176020526000908152604090205481565b6002546001600160a01b031681565b60125481565b42841015612222576040805162461bcd60e51b815260206004820152600d60248201526c14ddd85c0e8811561412549151609a1b604482015290519081900360640190fd5b600d546001600160a01b038089166000818152600e602090815260408083208054600180820190925582517f6e71edae12b1b97f4d1f60370fef10105fa2faae0126114a169c64845d6126c98186015280840196909652958d166060860152608085018c905260a085019590955260c08085018b90528151808603909101815260e08501825280519083012061190160f01b6101008601526101028501969096526101228085019690965280518085039096018652610142840180825286519683019690962095839052610162840180825286905260ff89166101828501526101a284018890526101c28401879052519193926101e280820193601f1981019281900390910190855afa15801561233d573d6000803e3d6000fd5b5050604051601f1901519150506001600160a01b038116158015906123735750886001600160a01b0316816001600160a01b0316145b6123c4576040805162461bcd60e51b815260206004820152601760248201527f537761703a20494e56414c49445f5349474e4154555245000000000000000000604482015290519081900360640190fd5b6123cf898989612e21565b505050505050505050565b6004546001600160a01b031681565b601060209081526000928352604080842090915290825290205481565b60155481565b60195481565b60085481565b6000546001600160a01b0316331461246f576040805162461bcd60e51b81526020600482015260156024820152742232a130b735a9bbb0b81d102327a92124a22222a760591b604482015290519081900360640190fd5b600180546001600160a01b03199081166001600160a01b0387811691909117909255600280548216868416179055600380548216858416179055600480549091168383161781556000546040805163f5b9848d60e01b81529051919093169263f5b9848d9281810192602092909190829003018186803b1580156124f257600080fd5b505afa158015612506573d6000803e3d6000fd5b505050506040513d602081101561251c57600080fd5b505160085550505050565b60006114086127106118816006548561283990919063ffffffff16565b601a54600114612590576040805162461bcd60e51b8152602060048201526012602482015271111950985b9ad4ddd85c0e881313d0d2d15160721b604482015290519081900360640190fd5b6000601a55600154604080516370a0823160e01b815230600482015290516126a0926001600160a01b0316916370a08231916024808301926020929190829003018186803b1580156125e157600080fd5b505afa1580156125f5573d6000803e3d6000fd5b505050506040513d602081101561260b57600080fd5b5051600254604080516370a0823160e01b815230600482015290516001600160a01b03909216916370a0823191602480820192602092909190829003018186803b15801561265857600080fd5b505afa15801561266c573d6000803e3d6000fd5b505050506040513d602081101561268257600080fd5b50516005546001600160701b0380821691600160701b900416612996565b6001601a55565b604080518082018252601981527f7472616e7366657228616464726573732c75696e74323536290000000000000060209182015281516001600160a01b0385811660248301526044808301869052845180840390910181526064909201845291810180516001600160e01b031663a9059cbb60e01b1781529251815160009460609489169392918291908083835b602083106127545780518252601f199092019160209182019101612735565b6001836020036101000a0380198251168184511680821785525050505050509050019150506000604051808303816000865af19150503d80600081146127b6576040519150601f19603f3d011682016040523d82523d6000602084013e6127bb565b606091505b50915091508180156127e95750805115806127e957508080602001905160208110156127e657600080fd5b50515b612832576040805162461bcd60e51b815260206004820152601560248201527414ddd85c0e881514905394d1915497d19052531151605a1b604482015290519081900360640190fd5b5050505050565b60008261284857506000611408565b8282028284828161285557fe5b04146128925760405162461bcd60e51b81526004018080602001828103825260218152602001806138656021913960400191505060405180910390fd5b9392505050565b600061289283836040518060400160405280601e81526020017f536166654d6174683a207375627472616374696f6e206f766572666c6f7700008152506135b0565b6129918383836040516024018080602001848152602001838152602001828103825285818151815260200191508051906020019080838360005b8381101561292d578181015183820152602001612915565b50505050905090810190601f16801561295a5780820380516001836020036101000a031916815260200191505b5060408051601f198184030181529190526020810180516001600160e01b031663969cdd0360e01b17905294506136479350505050565b505050565b6001600160701b0384118015906129b457506001600160701b038311155b6129fc576040805162461bcd60e51b8152602060048201526014602482015273446542616e6b537761703a204f564552464c4f5760601b604482015290519081900360640190fd5b60075463ffffffff428116918116820390811615801590612a2557506001600160701b03841615155b8015612a3957506001600160701b03831615155b15612aaa578063ffffffff16612a6785612a5286613668565b6001600160e01b03169063ffffffff61367a16565b600980546001600160e01b03929092169290920201905563ffffffff8116612a9284612a5287613668565b600a80546001600160e01b0392909216929092020190555b600580546dffffffffffffffffffffffffffff19166001600160701b03888116919091176dffffffffffffffffffffffffffff60701b1916600160701b888316810291909117928390556007805463ffffffff191663ffffffff871617905560408051848416815291909304909116602082015281517f1c411e9a96e071241c2f21f7726b17ae89e3cab4c78be50e062b03a9fffbbad1929181900390910190a1505050505050565b604080516370a0823160e01b815230600482015290516000918291829182916370a0823191602480820192602092909190829003018186803b158015612b9857600080fd5b505afa158015612bac573d6000803e3d6000fd5b505050506040513d6020811015612bc257600080fd5b50519250505090565b601954811115612c1a576000612bec6019548361289990919063ffffffff16565b9050612c15612c06600c548361320590919063ffffffff16565b6018549063ffffffff61369f16565b601855505b601955565b436015541415612c36576016805482019055612e1e565b60165415612e1457600143036015541415612de35760008060009054906101000a90046001600160a01b03166001600160a01b031663f887ea406040518163ffffffff1660e01b815260040160206040518083038186803b158015612c9a57600080fd5b505afa158015612cae573d6000803e3d6000fd5b505050506040513d6020811015612cc457600080fd5b50516040805163226981cb60e21b815290519192506000916001600160a01b038416916389a6072c916004808301926020929190829003018186803b158015612d0c57600080fd5b505afa158015612d20573d6000803e3d6000fd5b505050506040513d6020811015612d3657600080fd5b505160155460408051632a7edd8f60e21b81526004810192909252519192506000916001600160a01b0385169163a9fb763c916024808301926020929190829003018186803b158015612d8857600080fd5b505afa158015612d9c573d6000803e3d6000fd5b505050506040513d6020811015612db257600080fd5b5051601654909150612dd190839061188190849063ffffffff61283916565b60138054909101905550612e14915050565b60006064601554430381612df357fe5b0460010190508060165481612e0457fe5b0482016016555043601555612e1e565b4360155560168190555b50565b6001600160a01b03808416600081815260106020908152604080832094871680845294825291829020859055815185815291517f8c5be1e5ebec7d5bd14f71427d1e84f3dd0314c0f7b2291e5b200ac8c7c3b9259281900390910190a3505050565b6001600160a01b0383166000908152600f6020526040902054612eac908263ffffffff61289916565b6001600160a01b038085166000908152600f60205260408082209390935590841681522054612ee1908263ffffffff61369f16565b6001600160a01b038084166000818152600f602090815260409182902094909455805185815290519193928716927fddf252ad1be2c89b69c2b068fc378daa952ba7f163c4a11628f55a4df523b3ef92918290030190a3505050565b6000805460408051622fcfcb60e31b8152905183926001600160a01b03169163017e7e58916004808301926020929190829003018186803b158015612f8157600080fd5b505afa158015612f95573d6000803e3d6000fd5b505050506040513d6020811015612fab57600080fd5b5051600b546001600160a01b03821615801594509192509061307e578015613079576000612fee61176e6001600160701b0388811690881663ffffffff61283916565b90506000612ffb83613092565b90508082111561307657600061302961301a848463ffffffff61289916565b600c549063ffffffff61283916565b90506000613052836130466008548761283990919063ffffffff16565b9063ffffffff61369f16565b9050600081838161305f57fe5b04905080156130725761307287826130e3565b5050505b50505b61308a565b801561308a576000600b555b505092915050565b600060038211156130d5575080600160028204015b818110156130cf578091506002818285816130be57fe5b0401816130c757fe5b0490506130a7565b50611946565b811561194657506001919050565b6130eb6136f9565b6001600160a01b0382166000908152601160205260409020805461312a5781815560125461312090839063ffffffff61283916565b6002820155613156565b601280548254600184018054928202909201909155830180835590546131509190612839565b60028201555b600c54613169908363ffffffff61369f16565b600c556001600160a01b0383166000908152600f6020526040902054613195908363ffffffff61369f16565b6001600160a01b0384166000818152600f602090815260408083209490945583518681529351929391927fddf252ad1be2c89b69c2b068fc378daa952ba7f163c4a11628f55a4df523b3ef9281900390910190a3505050565b6000818311156131fe5781612892565b5090919050565b600061289283836040518060400160405280601a81526020017f536166654d6174683a206469766973696f6e206279207a65726f00000000000081525061371f565b61324f6136f9565b6001600160a01b038216600090815260116020526040902060028101546001820154825460125402010380156133865760008060009054906101000a90046001600160a01b03166001600160a01b031663f887ea406040518163ffffffff1660e01b815260040160206040518083038186803b1580156132ce57600080fd5b505afa1580156132e2573d6000803e3d6000fd5b505050506040513d60208110156132f857600080fd5b50516040805163f7c618c160e01b815290516001600160a01b039092169163f7c618c191600480820192602092909190829003018186803b15801561333c57600080fd5b505afa158015613350573d6000803e3d6000fd5b505050506040513d602081101561336657600080fd5b505190506001600160a01b03811615613384576133848186846126a7565b505b815483900380835560006001840181905560125490910260028401556001600160a01b0385168152600f60205260409020546133c8908463ffffffff61289916565b6001600160a01b0385166000908152600f6020526040902055600c546133f4908463ffffffff61289916565b600c556040805184815290516000916001600160a01b038716917fddf252ad1be2c89b69c2b068fc378daa952ba7f163c4a11628f55a4df523b3ef9181900360200190a350505050565b604080516002808252606080830184526000938493919290602083019080388339505060035482519293506001600160a01b03169183915060009061347f57fe5b6001600160a01b0392831660209182029290920101526004548251911690829060019081106134aa57fe5b60200260200101906001600160a01b031690816001600160a01b0316815250506134d5610e29612b53565b6001600160a01b03861660009081526017602052604081205460185461350d9190610ce2908890611881908b9063ffffffff61283916565b9050836001600160a01b031663a9059cbb88836040518363ffffffff1660e01b815260040180836001600160a01b03166001600160a01b0316815260200182815260200192505050602060405180830381600087803b15801561356f57600080fd5b505af1158015613583573d6000803e3d6000fd5b505050506040513d602081101561359957600080fd5b506135a49050612b53565b60195550505050505050565b6000818484111561363f5760405162461bcd60e51b81526004018080602001828103825283818151815260200191508051906020019080838360005b838110156136045781810151838201526020016135ec565b50505050905090810190601f1680156136315780820380516001836020036101000a031916815260200191505b509250505060405180910390fd5b505050900390565b80516a636f6e736f6c652e6c6f67602083016000808483855afa5050505050565b6001600160701b0316600160701b0290565b60006001600160701b0382166001600160e01b0384168161369757fe5b049392505050565b600082820183811015612892576040805162461bcd60e51b815260206004820152601b60248201527f536166654d6174683a206164646974696f6e206f766572666c6f770000000000604482015290519081900360640190fd5b6137036000612c1f565b600c541561371d57600c546013548161371857fe5b046012555b565b6000818361376e5760405162461bcd60e51b81526020600482018181528351602484015283519092839260449091019190850190808383600083156136045781810151838201526020016135ec565b50600083858161377a57fe5b0495945050505050565b6040518060600160405280600081526020016000815260200160008152509056fe446542616e6b537761703a20494e53554646494349454e545f494e5055545f414d4f554e54446542616e6b537761703a20494e53554646494349454e545f4f55545055545f414d4f554e54446542616e6b537761703a20494e53554646494349454e545f4c4951554944495459446542616e6b537761703a20494e53554646494349454e545f4c49515549444954595f4d494e544544446542616e6b537761703a20494e53554646494349454e545f4c49515549444954595f4255524e4544536166654d6174683a206d756c7469706c69636174696f6e206f766572666c6f77a265627a7a72315820ae27f881064da71c36993d0c4af125e08269792d3b5aa9f6d1f0f4638281a5a764736f6c63430005100032454950373132446f6d61696e28737472696e67206e616d652c737472696e672076657273696f6e2c75696e7432353620636861696e49642c6164647265737320766572696679696e67436f6e7472616374294f776e61626c653a206e6577206f776e657220697320746865207a65726f206164647265737353776170466163746f72793a20494e53554646494349454e545f494e5055545f414d4f554e5453776170466163746f72793a20494e53554646494349454e545f4f55545055545f414d4f554e54446542616e6b53776170466163746f72793a204645455f544f5f524154455f4f564552464c4f57536166654d6174683a206d756c7469706c69636174696f6e206f766572666c6f774f776e61626c653a2063616c6c6572206973206e6f7420746865206f776e657253776170466163746f72793a20494e53554646494349454e545f4c4951554944495459a265627a7a72315820729dcde941b33cd2ba24c01b1959ee258ba034dbb9607ac5e4f313f315d58a2764736f6c634300051000326080604052601e6006556001601a5534801561001a57600080fd5b5060405146908060526139c2823960408051918290036052018220828201825260088352672628102a37b5b2b760c11b6020938401528151808301835260018152603160f81b908401528151808401919091527fc285f7cfebd35a59cb5c0c032add67fdc80dcde2f8127cb94e4b49a72469ed02818301527fc89efdaa54c0f20c7adf612882df0950f5a951637e0307cdcb4c672f298b8bc6606082015260808101949094523060a0808601919091528151808603909101815260c090940190528251920191909120600d5550600080546001600160a01b031916331790556138ba806101086000396000f3fe608060405234801561001057600080fd5b50600436106102bb5760003560e01c80637b84fda511610182578063c45a0155116100e9578063dd62ed3e116100a2578063f5b9848d1161007c578063f5b9848d14610851578063f8c8765e14610859578063fcee45f414610897578063fff6cae9146108b4576102bb565b8063dd62ed3e14610813578063e12ed13c14610841578063e5b2aab014610849576102bb565b8063c45a01551461077c578063cbb8fb3114610784578063d21220a7146107aa578063d2890a01146107b2578063d505accf146107ba578063d939fa8a1461080b576102bb565b80639ec5a8941161013b5780639ec5a894146106e6578063a9059cbb146106ee578063ad9b80241461071a578063ba9a7a5614610746578063bc25cf771461074e578063bc9c5c6a14610774576102bb565b80637b84fda51461064c5780637ecebe001461066957806389afcb441461068f578063948023ab146106ce57806395d89b41146106d6578063978bbdb9146106de576102bb565b806330adf81f116102265780635a3d5493116101df5780635a3d5493146105c25780635a76f25e146105ca5780636a627842146105d25780636dbf2f7f146105f857806370a082311461061e5780637464fc3d14610644576102bb565b806330adf81f1461054b578063313ce567146105535780633644e51514610571578063443cb4bc14610579578063496cf3e41461059d5780635909c0d5146105ba576102bb565b80630dfe1681116102785780630dfe16811461048357806314afd79e146104a757806317560715146104eb57806318160ddd146105055780631df4ccfc1461050d57806323b872dd14610515576102bb565b8063022c0d9f146102c05780630442a8651461034e57806306fdde03146103865780630902f1ac1461040357806309047bdd1461043b578063095ea7b314610457575b600080fd5b61034c600480360360808110156102d657600080fd5b8135916020810135916001600160a01b03604083013516919081019060808101606082013564010000000081111561030d57600080fd5b82018360208201111561031f57600080fd5b8035906020019184600183028401116401000000008311171561034157600080fd5b5090925090506108bc565b005b61034c6004803603608081101561036457600080fd5b508035906020810135906001600160a01b036040820135169060600135610e94565b61038e61139c565b6040805160208082528351818301528351919283929083019185019080838360005b838110156103c85781810151838201526020016103b0565b50505050905090810190601f1680156103f55780820380516001836020036101000a031916815260200191505b509250505060405180910390f35b61040b6113c0565b604080516001600160701b03948516815292909316602083015263ffffffff168183015290519081900360600190f35b6104436113e7565b604080519115158252519081900360200190f35b6104436004803603604081101561046d57600080fd5b506001600160a01b0381351690602001356113f7565b61048b61140e565b604080516001600160a01b039092168252519081900360200190f35b6104cd600480360360208110156104bd57600080fd5b50356001600160a01b031661141d565b60408051938452602084019290925282820152519081900360600190f35b6104f361143e565b60408051918252519081900360200190f35b6104f3611444565b6104f361144a565b6104436004803603606081101561052b57600080fd5b506001600160a01b03813581169160208101359091169060400135611450565b6104f36114ea565b61055b61150e565b6040805160ff9092168252519081900360200190f35b6104f3611513565b610581611519565b604080516001600160701b039092168252519081900360200190f35b61034c600480360360208110156105b357600080fd5b5035611528565b6104f3611584565b6104f361158a565b610581611590565b6104f3600480360360208110156105e857600080fd5b50356001600160a01b03166115a6565b6104f36004803603602081101561060e57600080fd5b50356001600160a01b03166118f8565b6104f36004803603602081101561063457600080fd5b50356001600160a01b031661194b565b6104f361195d565b61034c6004803603602081101561066257600080fd5b5035611963565b6104f36004803603602081101561067f57600080fd5b50356001600160a01b0316611a08565b6106b5600480360360208110156106a557600080fd5b50356001600160a01b0316611a1a565b6040805192835260208301919091528051918290030190f35b61048b611f07565b61038e611f16565b6104f3611f35565b6104f3611f3b565b6104436004803603604081101561070457600080fd5b506001600160a01b038135169060200135611f41565b6104f36004803603604081101561073057600080fd5b506001600160a01b038135169060200135611f4e565b6104f361202c565b61034c6004803603602081101561076457600080fd5b50356001600160a01b0316612032565b6104f36121a1565b61048b6121a7565b6104f36004803603602081101561079a57600080fd5b50356001600160a01b03166121b6565b61048b6121c8565b6104f36121d7565b61034c600480360360e08110156107d057600080fd5b506001600160a01b03813581169160208101359091169060408101359060608101359060ff6080820135169060a08101359060c001356121dd565b61048b6123da565b6104f36004803603604081101561082957600080fd5b506001600160a01b03813581169160200135166123e9565b6104f3612406565b6104f361240c565b6104f3612412565b61034c6004803603608081101561086f57600080fd5b506001600160a01b038135811691602081013582169160408201358116916060013516612418565b6104f3600480360360208110156108ad57600080fd5b5035612527565b61034c612544565b601a54600114610908576040805162461bcd60e51b8152602060048201526012602482015271111950985b9ad4ddd85c0e881313d0d2d15160721b604482015290519081900360640190fd5b6000601a558415158061091b5750600084115b6109565760405162461bcd60e51b81526004018080602001828103825260268152602001806137cb6026913960400191505060405180910390fd5b6000806109616113c0565b5091509150816001600160701b0316871080156109865750806001600160701b031686105b6109c15760405162461bcd60e51b81526004018080602001828103825260228152602001806137f16022913960400191505060405180910390fd5b60035460045460009182916001600160a01b039182169190811690891682148015906109ff5750806001600160a01b0316896001600160a01b031614155b610a49576040805162461bcd60e51b8152602060048201526016602482015275446542616e6b537761703a20494e56414c49445f544f60501b604482015290519081900360640190fd5b8a15610a5a57610a5a828a8d6126a7565b8915610a6b57610a6b818a8c6126a7565b8615610b2657886001600160a01b031663226dc882338d8d8c8c6040518663ffffffff1660e01b815260040180866001600160a01b03166001600160a01b03168152602001858152602001848152602001806020018281038252848482818152602001925080828437600081840152601f19601f8201169050808301925050509650505050505050600060405180830381600087803b158015610b0d57600080fd5b505af1158015610b21573d6000803e3d6000fd5b505050505b604080516370a0823160e01b815230600482015290516001600160a01b038416916370a08231916024808301926020929190829003018186803b158015610b6c57600080fd5b505afa158015610b80573d6000803e3d6000fd5b505050506040513d6020811015610b9657600080fd5b5051604080516370a0823160e01b815230600482015290519195506001600160a01b038316916370a0823191602480820192602092909190829003018186803b158015610be257600080fd5b505afa158015610bf6573d6000803e3d6000fd5b505050506040513d6020811015610c0c57600080fd5b5051925060009150506001600160701b0385168a90038311610c2f576000610c3e565b89856001600160701b03160383035b9050600089856001600160701b0316038311610c5b576000610c6a565b89856001600160701b03160383035b90506000821180610c7b5750600081115b610cb65760405162461bcd60e51b81526004018080602001828103825260258152602001806137a66025913960400191505060405180910390fd5b6000610cee610cd06006548561283990919063ffffffff16565b610ce28761271063ffffffff61283916565b9063ffffffff61289916565b90506000610d0a610cd06006548561283990919063ffffffff16565b9050610d4c6040518060400160405280601b81526020017f616d6f756e7430496e3a20256420616d6f756e7431496e3a202564000000000081525085856128db565b610d8c6040518060400160405280601781526020017f62616c616e636541646a75737465643a2025642020256400000000000000000081525083836128db565b610dbc6305f5e100610db06001600160701b038b8116908b1663ffffffff61283916565b9063ffffffff61283916565b610dcc838363ffffffff61283916565b1015610e10576040805162461bcd60e51b815260206004820152600e60248201526d446542616e6b537761703a204b3160901b604482015290519081900360640190fd5b5050610e1e84848888612996565b610e2e610e29612b53565b612bcb565b60408051838152602081018390528082018d9052606081018c905290516001600160a01b038b169133917fd78ad95fa46c994b6551d0da85fc275fe613ce37657fb8d5e3d130840159d8229181900360800190a350506001601a55505050505050505050565b601a54600114610ee0576040805162461bcd60e51b8152602060048201526012602482015271111950985b9ad4ddd85c0e881313d0d2d15160721b604482015290519081900360640190fd5b6000601a81905554604080516303e21fa960e61b815290516001600160a01b039092169163f887ea4091600480820192602092909190829003018186803b158015610f2a57600080fd5b505afa158015610f3e573d6000803e3d6000fd5b505050506040513d6020811015610f5457600080fd5b50516001600160a01b03163314610fb2576040805162461bcd60e51b815260206004820152601760248201527f446542616e6b537761703a20726f75746572206f6e6c79000000000000000000604482015290519081900360640190fd5b8015610fc157610fc181612c1f565b6000841180610fd05750600083115b61100b5760405162461bcd60e51b81526004018080602001828103825260268152602001806137cb6026913960400191505060405180910390fd5b6000806110166113c0565b5091509150816001600160701b03168610801561103b5750806001600160701b031685105b6110765760405162461bcd60e51b81526004018080602001828103825260228152602001806137f16022913960400191505060405180910390fd5b60035460045460009182916001600160a01b039182169190811690881682148015906110b45750806001600160a01b0316886001600160a01b031614155b6110fe576040805162461bcd60e51b8152602060048201526016602482015275446542616e6b537761703a20494e56414c49445f544f60501b604482015290519081900360640190fd5b891561110f5761110f82898c6126a7565b88156111205761112081898b6126a7565b604080516370a0823160e01b815230600482015290516001600160a01b038416916370a08231916024808301926020929190829003018186803b15801561116657600080fd5b505afa15801561117a573d6000803e3d6000fd5b505050506040513d602081101561119057600080fd5b5051604080516370a0823160e01b815230600482015290519195506001600160a01b038316916370a0823191602480820192602092909190829003018186803b1580156111dc57600080fd5b505afa1580156111f0573d6000803e3d6000fd5b505050506040513d602081101561120657600080fd5b5051925060009150506001600160701b0385168990038311611229576000611238565b88856001600160701b03160383035b9050600088856001600160701b0316038311611255576000611264565b88856001600160701b03160383035b905060008211806112755750600081115b6112b05760405162461bcd60e51b81526004018080602001828103825260258152602001806137a66025913960400191505060405180910390fd5b6112cc6001600160701b0387811690871663ffffffff61283916565b6112dc858563ffffffff61283916565b1015611320576040805162461bcd60e51b815260206004820152600e60248201526d2232a130b735a9bbb0b81d10259960911b604482015290519081900360640190fd5b61132c84848888612996565b611337610e29612b53565b60408051838152602081018390528082018c9052606081018b905290516001600160a01b038a169133917fd78ad95fa46c994b6551d0da85fc275fe613ce37657fb8d5e3d130840159d8229181900360800190a350506001601a555050505050505050565b604051806040016040528060088152602001672628102a37b5b2b760c11b81525081565b6005546007546001600160701b0380831693600160701b909304169163ffffffff90911690565b600554600160e01b900460ff1681565b6000611404338484612e21565b5060015b92915050565b6001546001600160a01b031681565b60116020526000908152604090208054600182015460029092015490919083565b60165481565b600c5481565b60145481565b6001600160a01b0383166000908152601060209081526040808320338452909152812054600019146114d5576001600160a01b03841660009081526010602090815260408083203384529091529020546114b0908363ffffffff61289916565b6001600160a01b03851660009081526010602090815260408083203384529091529020555b6114e0848484612e83565b5060019392505050565b7f6e71edae12b1b97f4d1f60370fef10105fa2faae0126114a169c64845d6126c981565b601281565b600d5481565b6005546001600160701b031681565b6000546001600160a01b0316331461157f576040805162461bcd60e51b81526020600482015260156024820152742232a130b735a9bbb0b81d102327a92124a22222a760591b604482015290519081900360640190fd5b600855565b60095481565b600a5481565b600554600160701b90046001600160701b031681565b6000601a546001146115f4576040805162461bcd60e51b8152602060048201526012602482015271111950985b9ad4ddd85c0e881313d0d2d15160721b604482015290519081900360640190fd5b6000601a819055806116046113c0565b50600354604080516370a0823160e01b815230600482015290519395509193506000926001600160a01b03909116916370a08231916024808301926020929190829003018186803b15801561165857600080fd5b505afa15801561166c573d6000803e3d6000fd5b505050506040513d602081101561168257600080fd5b505160048054604080516370a0823160e01b81523093810193909352519293506000926001600160a01b03909116916370a08231916024808301926020929190829003018186803b1580156116d657600080fd5b505afa1580156116ea573d6000803e3d6000fd5b505050506040513d602081101561170057600080fd5b50519050600061171f836001600160701b03871663ffffffff61289916565b9050600061173c836001600160701b03871663ffffffff61289916565b9050600061174a8787612f3d565b600c5490915080611787576117736103e8610ce261176e878763ffffffff61283916565b613092565b985061178260006103e86130e3565b6117d6565b6117d36001600160701b0389166117a4868463ffffffff61283916565b816117ab57fe5b046001600160701b0389166117c6868563ffffffff61283916565b816117cd57fe5b046131ee565b98505b600089116118155760405162461bcd60e51b81526004018080602001828103825260298152602001806138136029913960400191505060405180910390fd5b61181f8a8a6130e3565b61182b86868a8a612996565b811561185b57600554611857906001600160701b0380821691600160701b90041663ffffffff61283916565b600b555b611866610e29612b53565b61188d600c546118816018548c61283990919063ffffffff16565b9063ffffffff61320516565b6001600160a01b038b16600090815260176020908152604091829020929092558051868152918201859052805133927f4c209b5fc8ad50758f13e2e1088ba56a560dff690a1c6fef26394f4c03821c4f92908290030190a250506001601a5550949695505050505050565b6000611902613784565b50506001600160a01b038116600090815260116020908152604091829020825160608101845281548082526001830154938201939093526002909101549201919091525b919050565b600f6020526000908152604090205481565b600b5481565b6000546001600160a01b031633146119ba576040805162461bcd60e51b81526020600482015260156024820152742232a130b735a9bbb0b81d102327a92124a22222a760591b604482015290519081900360640190fd5b60c8811115611a03576040805162461bcd60e51b815260206004820152601060248201526f0cccacaa4c2e8ca40e8dede40d0d2ced60831b604482015290519081900360640190fd5b600655565b600e6020526000908152604090205481565b600080601a54600114611a69576040805162461bcd60e51b8152602060048201526012602482015271111950985b9ad4ddd85c0e881313d0d2d15160721b604482015290519081900360640190fd5b6000601a81905580611a796113c0565b5060035460048054604080516370a0823160e01b81523093810193909352519496509294506001600160a01b0391821693919092169160009184916370a08231916024808301926020929190829003018186803b158015611ad957600080fd5b505afa158015611aed573d6000803e3d6000fd5b505050506040513d6020811015611b0357600080fd5b5051604080516370a0823160e01b815230600482015290519192506000916001600160a01b038516916370a08231916024808301926020929190829003018186803b158015611b5157600080fd5b505afa158015611b65573d6000803e3d6000fd5b505050506040513d6020811015611b7b57600080fd5b5051306000908152600f60205260409020549091506001600160a01b038a811690861614801590611bbe5750836001600160a01b03168a6001600160a01b031614155b8015611c4e57506000809054906101000a90046001600160a01b03166001600160a01b031663f887ea406040518163ffffffff1660e01b815260040160206040518083038186803b158015611c1257600080fd5b505afa158015611c26573d6000803e3d6000fd5b505050506040513d6020811015611c3c57600080fd5b50516001600160a01b038b8116911614155b15611cb6576001600160a01b038a16600090815260116020526040902054811115611cb6576040805162461bcd60e51b815260206004820152601360248201527237b7363c9037bbb732b91031b0b710313ab93760691b604482015290519081900360640190fd5b6000611cc28888612f3d565b600c5490915080611cd9848763ffffffff61283916565b81611ce057fe5b049a5080611cf4848663ffffffff61283916565b81611cfb57fe5b04995060008b118015611d0e575060008a115b611d495760405162461bcd60e51b815260040180806020018281038252602981526020018061383c6029913960400191505060405180910390fd5b600c54611d563085613247565b611d61888e8e6126a7565b611d6c878e8d6126a7565b611d778d858361343e565b604080516370a0823160e01b815230600482015290516001600160a01b038a16916370a08231916024808301926020929190829003018186803b158015611dbd57600080fd5b505afa158015611dd1573d6000803e3d6000fd5b505050506040513d6020811015611de757600080fd5b5051604080516370a0823160e01b815230600482015290519197506001600160a01b038916916370a0823191602480820192602092909190829003018186803b158015611e3357600080fd5b505afa158015611e47573d6000803e3d6000fd5b505050506040513d6020811015611e5d57600080fd5b50519450611e6d86868c8c612996565b8215611e9d57600554611e99906001600160701b0380821691600160701b90041663ffffffff61283916565b600b555b8c6001600160a01b0316336001600160a01b03167fdccd412f0b1252819cb1fd330b93224ca42612892bb3f4f789976e6d819364968e8e604051808381526020018281526020019250505060405180910390a3505050505050505050506001601a81905550915091565b6003546001600160a01b031681565b60405180604001604052806003815260200162088caf60eb1b81525081565b60065481565b60135481565b6000611404338484612e83565b6003546000906001600160a01b03848116911614801590611f7d57506004546001600160a01b03848116911614155b80611f9157506005546001600160701b0316155b80611fac5750600554600160701b90046001600160701b0316155b15611fb957506000611408565b6003546001600160a01b038481169116141561200257600554611ffb906001600160701b038082169161188191600160701b909104168563ffffffff61283916565b9050611408565b600554611ffb906001600160701b03600160701b820481169161188191168563ffffffff61283916565b6103e881565b601a5460011461207e576040805162461bcd60e51b8152602060048201526012602482015271111950985b9ad4ddd85c0e881313d0d2d15160721b604482015290519081900360640190fd5b6000601a5560035460048054600554604080516370a0823160e01b81523094810194909452516001600160a01b039485169490921692612130928592879261212b926001600160701b039092169185916370a08231916024808301926020929190829003018186803b1580156120f357600080fd5b505afa158015612107573d6000803e3d6000fd5b505050506040513d602081101561211d57600080fd5b50519063ffffffff61289916565b6126a7565b600554604080516370a0823160e01b81523060048201529051612197928492879261212b92600160701b90046001600160701b0316916001600160a01b038616916370a0823191602480820192602092909190829003018186803b1580156120f357600080fd5b50506001601a5550565b60185481565b6000546001600160a01b031681565b60176020526000908152604090205481565b6002546001600160a01b031681565b60125481565b42841015612222576040805162461bcd60e51b815260206004820152600d60248201526c14ddd85c0e8811561412549151609a1b604482015290519081900360640190fd5b600d546001600160a01b038089166000818152600e602090815260408083208054600180820190925582517f6e71edae12b1b97f4d1f60370fef10105fa2faae0126114a169c64845d6126c98186015280840196909652958d166060860152608085018c905260a085019590955260c08085018b90528151808603909101815260e08501825280519083012061190160f01b6101008601526101028501969096526101228085019690965280518085039096018652610142840180825286519683019690962095839052610162840180825286905260ff89166101828501526101a284018890526101c28401879052519193926101e280820193601f1981019281900390910190855afa15801561233d573d6000803e3d6000fd5b5050604051601f1901519150506001600160a01b038116158015906123735750886001600160a01b0316816001600160a01b0316145b6123c4576040805162461bcd60e51b815260206004820152601760248201527f537761703a20494e56414c49445f5349474e4154555245000000000000000000604482015290519081900360640190fd5b6123cf898989612e21565b505050505050505050565b6004546001600160a01b031681565b601060209081526000928352604080842090915290825290205481565b60155481565b60195481565b60085481565b6000546001600160a01b0316331461246f576040805162461bcd60e51b81526020600482015260156024820152742232a130b735a9bbb0b81d102327a92124a22222a760591b604482015290519081900360640190fd5b600180546001600160a01b03199081166001600160a01b0387811691909117909255600280548216868416179055600380548216858416179055600480549091168383161781556000546040805163f5b9848d60e01b81529051919093169263f5b9848d9281810192602092909190829003018186803b1580156124f257600080fd5b505afa158015612506573d6000803e3d6000fd5b505050506040513d602081101561251c57600080fd5b505160085550505050565b60006114086127106118816006548561283990919063ffffffff16565b601a54600114612590576040805162461bcd60e51b8152602060048201526012602482015271111950985b9ad4ddd85c0e881313d0d2d15160721b604482015290519081900360640190fd5b6000601a55600154604080516370a0823160e01b815230600482015290516126a0926001600160a01b0316916370a08231916024808301926020929190829003018186803b1580156125e157600080fd5b505afa1580156125f5573d6000803e3d6000fd5b505050506040513d602081101561260b57600080fd5b5051600254604080516370a0823160e01b815230600482015290516001600160a01b03909216916370a0823191602480820192602092909190829003018186803b15801561265857600080fd5b505afa15801561266c573d6000803e3d6000fd5b505050506040513d602081101561268257600080fd5b50516005546001600160701b0380821691600160701b900416612996565b6001601a55565b604080518082018252601981527f7472616e7366657228616464726573732c75696e74323536290000000000000060209182015281516001600160a01b0385811660248301526044808301869052845180840390910181526064909201845291810180516001600160e01b031663a9059cbb60e01b1781529251815160009460609489169392918291908083835b602083106127545780518252601f199092019160209182019101612735565b6001836020036101000a0380198251168184511680821785525050505050509050019150506000604051808303816000865af19150503d80600081146127b6576040519150601f19603f3d011682016040523d82523d6000602084013e6127bb565b606091505b50915091508180156127e95750805115806127e957508080602001905160208110156127e657600080fd5b50515b612832576040805162461bcd60e51b815260206004820152601560248201527414ddd85c0e881514905394d1915497d19052531151605a1b604482015290519081900360640190fd5b5050505050565b60008261284857506000611408565b8282028284828161285557fe5b04146128925760405162461bcd60e51b81526004018080602001828103825260218152602001806138656021913960400191505060405180910390fd5b9392505050565b600061289283836040518060400160405280601e81526020017f536166654d6174683a207375627472616374696f6e206f766572666c6f7700008152506135b0565b6129918383836040516024018080602001848152602001838152602001828103825285818151815260200191508051906020019080838360005b8381101561292d578181015183820152602001612915565b50505050905090810190601f16801561295a5780820380516001836020036101000a031916815260200191505b5060408051601f198184030181529190526020810180516001600160e01b031663969cdd0360e01b17905294506136479350505050565b505050565b6001600160701b0384118015906129b457506001600160701b038311155b6129fc576040805162461bcd60e51b8152602060048201526014602482015273446542616e6b537761703a204f564552464c4f5760601b604482015290519081900360640190fd5b60075463ffffffff428116918116820390811615801590612a2557506001600160701b03841615155b8015612a3957506001600160701b03831615155b15612aaa578063ffffffff16612a6785612a5286613668565b6001600160e01b03169063ffffffff61367a16565b600980546001600160e01b03929092169290920201905563ffffffff8116612a9284612a5287613668565b600a80546001600160e01b0392909216929092020190555b600580546dffffffffffffffffffffffffffff19166001600160701b03888116919091176dffffffffffffffffffffffffffff60701b1916600160701b888316810291909117928390556007805463ffffffff191663ffffffff871617905560408051848416815291909304909116602082015281517f1c411e9a96e071241c2f21f7726b17ae89e3cab4c78be50e062b03a9fffbbad1929181900390910190a1505050505050565b604080516370a0823160e01b815230600482015290516000918291829182916370a0823191602480820192602092909190829003018186803b158015612b9857600080fd5b505afa158015612bac573d6000803e3d6000fd5b505050506040513d6020811015612bc257600080fd5b50519250505090565b601954811115612c1a576000612bec6019548361289990919063ffffffff16565b9050612c15612c06600c548361320590919063ffffffff16565b6018549063ffffffff61369f16565b601855505b601955565b436015541415612c36576016805482019055612e1e565b60165415612e1457600143036015541415612de35760008060009054906101000a90046001600160a01b03166001600160a01b031663f887ea406040518163ffffffff1660e01b815260040160206040518083038186803b158015612c9a57600080fd5b505afa158015612cae573d6000803e3d6000fd5b505050506040513d6020811015612cc457600080fd5b50516040805163226981cb60e21b815290519192506000916001600160a01b038416916389a6072c916004808301926020929190829003018186803b158015612d0c57600080fd5b505afa158015612d20573d6000803e3d6000fd5b505050506040513d6020811015612d3657600080fd5b505160155460408051632a7edd8f60e21b81526004810192909252519192506000916001600160a01b0385169163a9fb763c916024808301926020929190829003018186803b158015612d8857600080fd5b505afa158015612d9c573d6000803e3d6000fd5b505050506040513d6020811015612db257600080fd5b5051601654909150612dd190839061188190849063ffffffff61283916565b60138054909101905550612e14915050565b60006064601554430381612df357fe5b0460010190508060165481612e0457fe5b0482016016555043601555612e1e565b4360155560168190555b50565b6001600160a01b03808416600081815260106020908152604080832094871680845294825291829020859055815185815291517f8c5be1e5ebec7d5bd14f71427d1e84f3dd0314c0f7b2291e5b200ac8c7c3b9259281900390910190a3505050565b6001600160a01b0383166000908152600f6020526040902054612eac908263ffffffff61289916565b6001600160a01b038085166000908152600f60205260408082209390935590841681522054612ee1908263ffffffff61369f16565b6001600160a01b038084166000818152600f602090815260409182902094909455805185815290519193928716927fddf252ad1be2c89b69c2b068fc378daa952ba7f163c4a11628f55a4df523b3ef92918290030190a3505050565b6000805460408051622fcfcb60e31b8152905183926001600160a01b03169163017e7e58916004808301926020929190829003018186803b158015612f8157600080fd5b505afa158015612f95573d6000803e3d6000fd5b505050506040513d6020811015612fab57600080fd5b5051600b546001600160a01b03821615801594509192509061307e578015613079576000612fee61176e6001600160701b0388811690881663ffffffff61283916565b90506000612ffb83613092565b90508082111561307657600061302961301a848463ffffffff61289916565b600c549063ffffffff61283916565b90506000613052836130466008548761283990919063ffffffff16565b9063ffffffff61369f16565b9050600081838161305f57fe5b04905080156130725761307287826130e3565b5050505b50505b61308a565b801561308a576000600b555b505092915050565b600060038211156130d5575080600160028204015b818110156130cf578091506002818285816130be57fe5b0401816130c757fe5b0490506130a7565b50611946565b811561194657506001919050565b6130eb6136f9565b6001600160a01b0382166000908152601160205260409020805461312a5781815560125461312090839063ffffffff61283916565b6002820155613156565b601280548254600184018054928202909201909155830180835590546131509190612839565b60028201555b600c54613169908363ffffffff61369f16565b600c556001600160a01b0383166000908152600f6020526040902054613195908363ffffffff61369f16565b6001600160a01b0384166000818152600f602090815260408083209490945583518681529351929391927fddf252ad1be2c89b69c2b068fc378daa952ba7f163c4a11628f55a4df523b3ef9281900390910190a3505050565b6000818311156131fe5781612892565b5090919050565b600061289283836040518060400160405280601a81526020017f536166654d6174683a206469766973696f6e206279207a65726f00000000000081525061371f565b61324f6136f9565b6001600160a01b038216600090815260116020526040902060028101546001820154825460125402010380156133865760008060009054906101000a90046001600160a01b03166001600160a01b031663f887ea406040518163ffffffff1660e01b815260040160206040518083038186803b1580156132ce57600080fd5b505afa1580156132e2573d6000803e3d6000fd5b505050506040513d60208110156132f857600080fd5b50516040805163f7c618c160e01b815290516001600160a01b039092169163f7c618c191600480820192602092909190829003018186803b15801561333c57600080fd5b505afa158015613350573d6000803e3d6000fd5b505050506040513d602081101561336657600080fd5b505190506001600160a01b03811615613384576133848186846126a7565b505b815483900380835560006001840181905560125490910260028401556001600160a01b0385168152600f60205260409020546133c8908463ffffffff61289916565b6001600160a01b0385166000908152600f6020526040902055600c546133f4908463ffffffff61289916565b600c556040805184815290516000916001600160a01b038716917fddf252ad1be2c89b69c2b068fc378daa952ba7f163c4a11628f55a4df523b3ef9181900360200190a350505050565b604080516002808252606080830184526000938493919290602083019080388339505060035482519293506001600160a01b03169183915060009061347f57fe5b6001600160a01b0392831660209182029290920101526004548251911690829060019081106134aa57fe5b60200260200101906001600160a01b031690816001600160a01b0316815250506134d5610e29612b53565b6001600160a01b03861660009081526017602052604081205460185461350d9190610ce2908890611881908b9063ffffffff61283916565b9050836001600160a01b031663a9059cbb88836040518363ffffffff1660e01b815260040180836001600160a01b03166001600160a01b0316815260200182815260200192505050602060405180830381600087803b15801561356f57600080fd5b505af1158015613583573d6000803e3d6000fd5b505050506040513d602081101561359957600080fd5b506135a49050612b53565b60195550505050505050565b6000818484111561363f5760405162461bcd60e51b81526004018080602001828103825283818151815260200191508051906020019080838360005b838110156136045781810151838201526020016135ec565b50505050905090810190601f1680156136315780820380516001836020036101000a031916815260200191505b509250505060405180910390fd5b505050900390565b80516a636f6e736f6c652e6c6f67602083016000808483855afa5050505050565b6001600160701b0316600160701b0290565b60006001600160701b0382166001600160e01b0384168161369757fe5b049392505050565b600082820183811015612892576040805162461bcd60e51b815260206004820152601b60248201527f536166654d6174683a206164646974696f6e206f766572666c6f770000000000604482015290519081900360640190fd5b6137036000612c1f565b600c541561371d57600c546013548161371857fe5b046012555b565b6000818361376e5760405162461bcd60e51b81526020600482018181528351602484015283519092839260449091019190850190808383600083156136045781810151838201526020016135ec565b50600083858161377a57fe5b0495945050505050565b6040518060600160405280600081526020016000815260200160008152509056fe446542616e6b537761703a20494e53554646494349454e545f494e5055545f414d4f554e54446542616e6b537761703a20494e53554646494349454e545f4f55545055545f414d4f554e54446542616e6b537761703a20494e53554646494349454e545f4c4951554944495459446542616e6b537761703a20494e53554646494349454e545f4c49515549444954595f4d494e544544446542616e6b537761703a20494e53554646494349454e545f4c49515549444954595f4255524e4544536166654d6174683a206d756c7469706c69636174696f6e206f766572666c6f77a265627a7a72315820ae27f881064da71c36993d0c4af125e08269792d3b5aa9f6d1f0f4638281a5a764736f6c63430005100032454950373132446f6d61696e28737472696e67206e616d652c737472696e672076657273696f6e2c75696e7432353620636861696e49642c6164647265737320766572696679696e67436f6e747261637429",
  "linkReferences": {},
  "deployedLinkReferences": {}
}