{
  "_format": "hh-sol-artifact-1",
  "contractName": "EbeToken",
  "sourceName": "contracts/ebe/EBEToken.sol",
  "abi": [
    {
      "inputs": [],
      "payable": false,
      "stateMutability": "nonpayable",
      "type": "constructor"
    },
    {
      "anonymous": false,
      "inputs": [
        {
          "indexed": true,
          "internalType": "address",
          "name": "owner",
          "type": "address"
        },
        {
          "indexed": true,
          "internalType": "address",
          "name": "spender",
          "type": "address"
        },
        {
          "indexed": false,
          "internalType": "uint256",
          "name": "value",
          "type": "uint256"
        }
      ],
      "name": "Approval",
      "type": "event"
    },
    {
      "anonymous": false,
      "inputs": [
        {
          "indexed": true,
          "internalType": "address",
          "name": "previousOwner",
          "type": "address"
        },
        {
          "indexed": true,
          "internalType": "address",
          "name": "newOwner",
          "type": "address"
        }
      ],
      "name": "OwnershipTransferred",
      "type": "event"
    },
    {
      "anonymous": false,
      "inputs": [
        {
          "indexed": true,
          "internalType": "address",
          "name": "from",
          "type": "address"
        },
        {
          "indexed": true,
          "internalType": "address",
          "name": "to",
          "type": "address"
        },
        {
          "indexed": false,
          "internalType": "uint256",
          "name": "value",
          "type": "uint256"
        }
      ],
      "name": "Transfer",
      "type": "event"
    },
    {
      "constant": true,
      "inputs": [
        {
          "internalType": "address",
          "name": "owner",
          "type": "address"
        },
        {
          "internalType": "address",
          "name": "spender",
          "type": "address"
        }
      ],
      "name": "allowance",
      "outputs": [
        {
          "internalType": "uint256",
          "name": "",
          "type": "uint256"
        }
      ],
      "payable": false,
      "stateMutability": "view",
      "type": "function"
    },
    {
      "constant": false,
      "inputs": [
        {
          "internalType": "address",
          "name": "spender",
          "type": "address"
        },
        {
          "internalType": "uint256",
          "name": "amount",
          "type": "uint256"
        }
      ],
      "name": "approve",
      "outputs": [
        {
          "internalType": "bool",
          "name": "",
          "type": "bool"
        }
      ],
      "payable": false,
      "stateMutability": "nonpayable",
      "type": "function"
    },
    {
      "constant": true,
      "inputs": [
        {
          "internalType": "address",
          "name": "account",
          "type": "address"
        }
      ],
      "name": "balanceOf",
      "outputs": [
        {
          "internalType": "uint256",
          "name": "",
          "type": "uint256"
        }
      ],
      "payable": false,
      "stateMutability": "view",
      "type": "function"
    },
    {
      "constant": true,
      "inputs": [],
      "name": "decimals",
      "outputs": [
        {
          "internalType": "uint8",
          "name": "",
          "type": "uint8"
        }
      ],
      "payable": false,
      "stateMutability": "view",
      "type": "function"
    },
    {
      "constant": false,
      "inputs": [
        {
          "internalType": "address",
          "name": "spender",
          "type": "address"
        },
        {
          "internalType": "uint256",
          "name": "subtractedValue",
          "type": "uint256"
        }
      ],
      "name": "decreaseAllowance",
      "outputs": [
        {
          "internalType": "bool",
          "name": "",
          "type": "bool"
        }
      ],
      "payable": false,
      "stateMutability": "nonpayable",
      "type": "function"
    },
    {
      "constant": true,
      "inputs": [
        {
          "internalType": "uint256",
          "name": "ebePerBlock",
          "type": "uint256"
        },
        {
          "internalType": "uint256",
          "name": "_lastRewardBlock",
          "type": "uint256"
        }
      ],
      "name": "getEbeReward",
      "outputs": [
        {
          "internalType": "uint256",
          "name": "",
          "type": "uint256"
        }
      ],
      "payable": false,
      "stateMutability": "view",
      "type": "function"
    },
    {
      "constant": true,
      "inputs": [],
      "name": "halvingPeriod",
      "outputs": [
        {
          "internalType": "uint256",
          "name": "",
          "type": "uint256"
        }
      ],
      "payable": false,
      "stateMutability": "view",
      "type": "function"
    },
    {
      "constant": false,
      "inputs": [
        {
          "internalType": "address",
          "name": "spender",
          "type": "address"
        },
        {
          "internalType": "uint256",
          "name": "addedValue",
          "type": "uint256"
        }
      ],
      "name": "increaseAllowance",
      "outputs": [
        {
          "internalType": "bool",
          "name": "",
          "type": "bool"
        }
      ],
      "payable": false,
      "stateMutability": "nonpayable",
      "type": "function"
    },
    {
      "constant": true,
      "inputs": [],
      "name": "isOwner",
      "outputs": [
        {
          "internalType": "bool",
          "name": "",
          "type": "bool"
        }
      ],
      "payable": false,
      "stateMutability": "view",
      "type": "function"
    },
    {
      "constant": false,
      "inputs": [
        {
          "internalType": "address",
          "name": "_to",
          "type": "address"
        },
        {
          "internalType": "uint256",
          "name": "_amount",
          "type": "uint256"
        }
      ],
      "name": "mint",
      "outputs": [
        {
          "internalType": "bool",
          "name": "",
          "type": "bool"
        }
      ],
      "payable": false,
      "stateMutability": "nonpayable",
      "type": "function"
    },
    {
      "constant": true,
      "inputs": [],
      "name": "minter",
      "outputs": [
        {
          "internalType": "address",
          "name": "",
          "type": "address"
        }
      ],
      "payable": false,
      "stateMutability": "view",
      "type": "function"
    },
    {
      "constant": true,
      "inputs": [],
      "name": "name",
      "outputs": [
        {
          "internalType": "string",
          "name": "",
          "type": "string"
        }
      ],
      "payable": false,
      "stateMutability": "view",
      "type": "function"
    },
    {
      "constant": true,
      "inputs": [],
      "name": "owner",
      "outputs": [
        {
          "internalType": "address",
          "name": "",
          "type": "address"
        }
      ],
      "payable": false,
      "stateMutability": "view",
      "type": "function"
    },
    {
      "constant": true,
      "inputs": [
        {
          "internalType": "uint256",
          "name": "blockNumber",
          "type": "uint256"
        }
      ],
      "name": "phase",
      "outputs": [
        {
          "internalType": "uint256",
          "name": "",
          "type": "uint256"
        }
      ],
      "payable": false,
      "stateMutability": "view",
      "type": "function"
    },
    {
      "constant": true,
      "inputs": [],
      "name": "phase",
      "outputs": [
        {
          "internalType": "uint256",
          "name": "",
          "type": "uint256"
        }
      ],
      "payable": false,
      "stateMutability": "view",
      "type": "function"
    },
    {
      "constant": false,
      "inputs": [],
      "name": "renounceOwnership",
      "outputs": [],
      "payable": false,
      "stateMutability": "nonpayable",
      "type": "function"
    },
    {
      "constant": true,
      "inputs": [
        {
          "internalType": "uint256",
          "name": "ebePerBlock",
          "type": "uint256"
        },
        {
          "internalType": "uint256",
          "name": "blockNumber",
          "type": "uint256"
        }
      ],
      "name": "reward",
      "outputs": [
        {
          "internalType": "uint256",
          "name": "",
          "type": "uint256"
        }
      ],
      "payable": false,
      "stateMutability": "view",
      "type": "function"
    },
    {
      "constant": true,
      "inputs": [
        {
          "internalType": "uint256",
          "name": "ebePerBlock",
          "type": "uint256"
        }
      ],
      "name": "reward",
      "outputs": [
        {
          "internalType": "uint256",
          "name": "",
          "type": "uint256"
        }
      ],
      "payable": false,
      "stateMutability": "view",
      "type": "function"
    },
    {
      "constant": false,
      "inputs": [
        {
          "internalType": "uint256",
          "name": "_block",
          "type": "uint256"
        }
      ],
      "name": "setHalvingPeriod",
      "outputs": [],
      "payable": false,
      "stateMutability": "nonpayable",
      "type": "function"
    },
    {
      "constant": false,
      "inputs": [
        {
          "internalType": "address",
          "name": "_newMinter",
          "type": "address"
        }
      ],
      "name": "setMinter",
      "outputs": [],
      "payable": false,
      "stateMutability": "nonpayable",
      "type": "function"
    },
    {
      "constant": false,
      "inputs": [
        {
          "internalType": "uint256",
          "name": "start",
          "type": "uint256"
        }
      ],
      "name": "setStartBlock",
      "outputs": [],
      "payable": false,
      "stateMutability": "nonpayable",
      "type": "function"
    },
    {
      "constant": true,
      "inputs": [],
      "name": "startBlock",
      "outputs": [
        {
          "internalType": "uint256",
          "name": "",
          "type": "uint256"
        }
      ],
      "payable": false,
      "stateMutability": "view",
      "type": "function"
    },
    {
      "constant": true,
      "inputs": [],
      "name": "symbol",
      "outputs": [
        {
          "internalType": "string",
          "name": "",
          "type": "string"
        }
      ],
      "payable": false,
      "stateMutability": "view",
      "type": "function"
    },
    {
      "constant": true,
      "inputs": [],
      "name": "totalSupply",
      "outputs": [
        {
          "internalType": "uint256",
          "name": "",
          "type": "uint256"
        }
      ],
      "payable": false,
      "stateMutability": "view",
      "type": "function"
    },
    {
      "constant": false,
      "inputs": [
        {
          "internalType": "address",
          "name": "recipient",
          "type": "address"
        },
        {
          "internalType": "uint256",
          "name": "amount",
          "type": "uint256"
        }
      ],
      "name": "transfer",
      "outputs": [
        {
          "internalType": "bool",
          "name": "",
          "type": "bool"
        }
      ],
      "payable": false,
      "stateMutability": "nonpayable",
      "type": "function"
    },
    {
      "constant": false,
      "inputs": [
        {
          "internalType": "address",
          "name": "sender",
          "type": "address"
        },
        {
          "internalType": "address",
          "name": "recipient",
          "type": "address"
        },
        {
          "internalType": "uint256",
          "name": "amount",
          "type": "uint256"
        }
      ],
      "name": "transferFrom",
      "outputs": [
        {
          "internalType": "bool",
          "name": "",
          "type": "bool"
        }
      ],
      "payable": false,
      "stateMutability": "nonpayable",
      "type": "function"
    },
    {
      "constant": false,
      "inputs": [
        {
          "internalType": "address",
          "name": "newOwner",
          "type": "address"
        }
      ],
      "name": "transferOwnership",
      "outputs": [],
      "payable": false,
      "stateMutability": "nonpayable",
      "type": "function"
    }
  ],
  "bytecode": "0x6080604052625033406008553480156200001857600080fd5b5060006200002e6001600160e01b03620000ef16565b600380546001600160a01b0319166001600160a01b038316908117909155604051919250906000907f8be0079c531659141344cd1fd0a4f28419497f9722a3daafe3b4186f6b6457e0908290a3506040805180820190915260098082526822a122902a37b5b2b760b91b6020909201918252620000ae91600491620000f4565b506040805180820190915260038082526245424560e81b6020909201918252620000db91600591620000f4565b506006805460ff1916601217905562000196565b335b90565b828054600181600116156101000203166002900490600052602060002090601f016020900481019282601f106200013757805160ff191683800117855562000167565b8280016001018555821562000167579182015b82811115620001675782518255916020019190600101906200014a565b506200017592915062000179565b5090565b620000f191905b8082111562000175576000815560010162000180565b6114d480620001a66000396000f3fe608060405234801561001057600080fd5b50600436106101a95760003560e01c8063715018a6116100f9578063a9fb763c11610097578063dd62ed3e11610071578063dd62ed3e146104aa578063f2fde38b146104d8578063f35e4a6e146104fe578063fca3b5aa1461051b576101a9565b8063a9fb763c14610468578063b1c9fe6e14610485578063b5ec5c991461048d576101a9565b806395d89b41116100d357806395d89b41146103e5578063a457c2d7146103ed578063a4fa8d5714610419578063a9059cbb1461043c576101a9565b8063715018a6146103cb5780638da5cb5b146103d55780638f32d59b146103dd576101a9565b806323b872dd1161016657806340c10f191161014057806340c10f191461036957806348cd4cb1146103955780635a3e251f1461039d57806370a08231146103a5576101a9565b806323b872dd146102e9578063313ce5671461031f578063395093511461033d576101a9565b806306fdde03146101ae578063075461721461022b578063095ea7b31461024f578063135f8aa71461028f57806318160ddd146102be5780631bba3daf146102c6575b600080fd5b6101b6610541565b6040805160208082528351818301528351919283929083019185019080838360005b838110156101f05781810151838201526020016101d8565b50505050905090810190601f16801561021d5780820380516001836020036101000a031916815260200191505b509250505060405180910390f35b6102336105cf565b604080516001600160a01b039092168252519081900360200190f35b61027b6004803603604081101561026557600080fd5b506001600160a01b0381351690602001356105e3565b604080519115158252519081900360200190f35b6102ac600480360360208110156102a557600080fd5b5035610601565b60408051918252519081900360200190f35b6102ac610668565b6102ac600480360360408110156102dc57600080fd5b508035906020013561066e565b61027b600480360360608110156102ff57600080fd5b506001600160a01b0381358116916020810135909116906040013561077e565b61032761080b565b6040805160ff9092168252519081900360200190f35b61027b6004803603604081101561035357600080fd5b506001600160a01b038135169060200135610814565b61027b6004803603604081101561037f57600080fd5b506001600160a01b038135169060200135610868565b6102ac6108d4565b6102ac6108da565b6102ac600480360360208110156103bb57600080fd5b50356001600160a01b03166108e0565b6103d36108fb565b005b61023361099e565b61027b6109ad565b6101b66109d3565b61027b6004803603604081101561040357600080fd5b506001600160a01b038135169060200135610a2e565b6102ac6004803603604081101561042f57600080fd5b5080359060200135610a9c565b61027b6004803603604081101561045257600080fd5b506001600160a01b038135169060200135610ac6565b6102ac6004803603602081101561047e57600080fd5b5035610ada565b6102ac610ae6565b6103d3600480360360208110156104a357600080fd5b5035610af6565b6102ac600480360360408110156104c057600080fd5b506001600160a01b0381358116916020013516610b5a565b6103d3600480360360208110156104ee57600080fd5b50356001600160a01b0316610b85565b6103d36004803603602081101561051457600080fd5b5035610bea565b6103d36004803603602081101561053157600080fd5b50356001600160a01b0316610c48565b6004805460408051602060026001851615610100026000190190941693909304601f810184900484028201840190925281815292918301828280156105c75780601f1061059c576101008083540402835291602001916105c7565b820191906000526020600020905b8154815290600101906020018083116105aa57829003601f168201915b505050505081565b60065461010090046001600160a01b031681565b60006105f76105f0610d0d565b8484610d11565b5060015b92915050565b60006008546000141561061657506000610663565b60075482111561065f5761065860085461064c600161064060075487610dfd90919063ffffffff16565b9063ffffffff610dfd16565b9063ffffffff610e4616565b9050610663565b5060005b919050565b60025490565b6000438211156106af5760405162461bcd60e51b81526004018080602001828103825260338152602001806114486033913960400191505060405180910390fd5b6000806106bb84610601565b905060006106c843610601565b90505b8082101561074857600754600854600190930192600091610703916106f790869063ffffffff610e8816565b9063ffffffff610ee116565b905061073e6107316107158984610a9c565b610725848a63ffffffff610dfd16565b9063ffffffff610e8816565b859063ffffffff610ee116565b90955092506106cb565b61077461076761075743610ada565b610725438963ffffffff610dfd16565b849063ffffffff610ee116565b9695505050505050565b600061078b848484610f3b565b61080184610797610d0d565b6107fc856040518060600160405280602881526020016113d7602891396001600160a01b038a166000908152600160205260408120906107d5610d0d565b6001600160a01b03168152602081019190915260400160002054919063ffffffff61109716565b610d11565b5060019392505050565b60065460ff1681565b60006105f7610821610d0d565b846107fc8560016000610832610d0d565b6001600160a01b03908116825260208083019390935260409182016000908120918c16815292529020549063ffffffff610ee116565b60065460009061010090046001600160a01b031633146108ca576040805162461bcd60e51b815260206004820152601860248201527731b0b63632b91034b9903737ba103a34329036b4b73a32b960411b604482015290519081900360640190fd5b6105f7838361112e565b60075481565b60085481565b6001600160a01b031660009081526020819052604090205490565b6109036109ad565b610954576040805162461bcd60e51b815260206004820181905260248201527f4f776e61626c653a2063616c6c6572206973206e6f7420746865206f776e6572604482015290519081900360640190fd5b6003546040516000916001600160a01b0316907f8be0079c531659141344cd1fd0a4f28419497f9722a3daafe3b4186f6b6457e0908390a3600380546001600160a01b0319169055565b6003546001600160a01b031690565b6003546000906001600160a01b03166109c4610d0d565b6001600160a01b031614905090565b6005805460408051602060026001851615610100026000190190941693909304601f810184900484028201840190925281815292918301828280156105c75780601f1061059c576101008083540402835291602001916105c7565b60006105f7610a3b610d0d565b846107fc8560405180606001604052806025815260200161147b6025913960016000610a65610d0d565b6001600160a01b03908116825260208083019390935260409182016000908120918d1681529252902054919063ffffffff61109716565b600080610aa883610601565b9050610abe84600283900a63ffffffff610e4616565b949350505050565b60006105f7610ad3610d0d565b8484610f3b565b60006105fb8243610a9c565b6000610af143610601565b905090565b60065461010090046001600160a01b03163314610b55576040805162461bcd60e51b815260206004820152601860248201527731b0b63632b91034b9903737ba103a34329036b4b73a32b960411b604482015290519081900360640190fd5b600855565b6001600160a01b03918216600090815260016020908152604080832093909416825291909152205490565b610b8d6109ad565b610bde576040805162461bcd60e51b815260206004820181905260248201527f4f776e61626c653a2063616c6c6572206973206e6f7420746865206f776e6572604482015290519081900360640190fd5b610be78161121e565b50565b610bf26109ad565b610c43576040805162461bcd60e51b815260206004820181905260248201527f4f776e61626c653a2063616c6c6572206973206e6f7420746865206f776e6572604482015290519081900360640190fd5b600755565b60065461010090046001600160a01b031615610c98576040805162461bcd60e51b815260206004820152600a6024820152690686173207365742075760b41b604482015290519081900360640190fd5b6001600160a01b038116610ce5576040805162461bcd60e51b815260206004820152600f60248201526e6973207a65726f206164647265737360881b604482015290519081900360640190fd5b600680546001600160a01b0390921661010002610100600160a81b0319909216919091179055565b3390565b6001600160a01b038316610d565760405162461bcd60e51b81526004018080602001828103825260248152602001806114246024913960400191505060405180910390fd5b6001600160a01b038216610d9b5760405162461bcd60e51b815260040180806020018281038252602281526020018061136e6022913960400191505060405180910390fd5b6001600160a01b03808416600081815260016020908152604080832094871680845294825291829020859055815185815291517f8c5be1e5ebec7d5bd14f71427d1e84f3dd0314c0f7b2291e5b200ac8c7c3b9259281900390910190a3505050565b6000610e3f83836040518060400160405280601e81526020017f536166654d6174683a207375627472616374696f6e206f766572666c6f770000815250611097565b9392505050565b6000610e3f83836040518060400160405280601a81526020017f536166654d6174683a206469766973696f6e206279207a65726f0000000000008152506112bf565b600082610e97575060006105fb565b82820282848281610ea457fe5b0414610e3f5760405162461bcd60e51b81526004018080602001828103825260218152602001806113b66021913960400191505060405180910390fd5b600082820183811015610e3f576040805162461bcd60e51b815260206004820152601b60248201527f536166654d6174683a206164646974696f6e206f766572666c6f770000000000604482015290519081900360640190fd5b6001600160a01b038316610f805760405162461bcd60e51b81526004018080602001828103825260258152602001806113ff6025913960400191505060405180910390fd5b6001600160a01b038216610fc55760405162461bcd60e51b81526004018080602001828103825260238152602001806113256023913960400191505060405180910390fd5b61100881604051806060016040528060268152602001611390602691396001600160a01b038616600090815260208190526040902054919063ffffffff61109716565b6001600160a01b03808516600090815260208190526040808220939093559084168152205461103d908263ffffffff610ee116565b6001600160a01b038084166000818152602081815260409182902094909455805185815290519193928716927fddf252ad1be2c89b69c2b068fc378daa952ba7f163c4a11628f55a4df523b3ef92918290030190a3505050565b600081848411156111265760405162461bcd60e51b81526004018080602001828103825283818151815260200191508051906020019080838360005b838110156110eb5781810151838201526020016110d3565b50505050905090810190601f1680156111185780820380516001836020036101000a031916815260200191505b509250505060405180910390fd5b505050900390565b6001600160a01b038216611189576040805162461bcd60e51b815260206004820152601f60248201527f45524332303a206d696e7420746f20746865207a65726f206164647265737300604482015290519081900360640190fd5b60025461119c908263ffffffff610ee116565b6002556001600160a01b0382166000908152602081905260409020546111c8908263ffffffff610ee116565b6001600160a01b0383166000818152602081815260408083209490945583518581529351929391927fddf252ad1be2c89b69c2b068fc378daa952ba7f163c4a11628f55a4df523b3ef9281900390910190a35050565b6001600160a01b0381166112635760405162461bcd60e51b81526004018080602001828103825260268152602001806113486026913960400191505060405180910390fd5b6003546040516001600160a01b038084169216907f8be0079c531659141344cd1fd0a4f28419497f9722a3daafe3b4186f6b6457e090600090a3600380546001600160a01b0319166001600160a01b0392909216919091179055565b6000818361130e5760405162461bcd60e51b81526020600482018181528351602484015283519092839260449091019190850190808383600083156110eb5781810151838201526020016110d3565b50600083858161131a57fe5b049594505050505056fe45524332303a207472616e7366657220746f20746865207a65726f20616464726573734f776e61626c653a206e6577206f776e657220697320746865207a65726f206164647265737345524332303a20617070726f766520746f20746865207a65726f206164647265737345524332303a207472616e7366657220616d6f756e7420657863656564732062616c616e6365536166654d6174683a206d756c7469706c69636174696f6e206f766572666c6f7745524332303a207472616e7366657220616d6f756e74206578636565647320616c6c6f77616e636545524332303a207472616e736665722066726f6d20746865207a65726f206164647265737345524332303a20617070726f76652066726f6d20746865207a65726f2061646472657373454245546f6b656e3a206d757374206c6974746c65207468616e207468652063757272656e7420626c6f636b206e756d62657245524332303a2064656372656173656420616c6c6f77616e63652062656c6f77207a65726fa265627a7a72315820b6ec1eed16f107d5f776b24384d798593c519797d324f260be48341fb7f0359d64736f6c63430005100032",
  "linkReferences": {},
  "deployedLinkReferences": {}
}