{
  "_format": "hh-sol-artifact-1",
  "contractName": "EBEToken",
  "sourceName": "contracts/ebe/EBEToken.sol",
  "abi": [
    {
      "inputs": [],
      "payable": false,
      "stateMutability": "nonpayable",
      "type": "constructor"
    },
    {
      "anonymous": false,
      "inputs": [
        {
          "indexed": true,
          "internalType": "address",
          "name": "owner",
          "type": "address"
        },
        {
          "indexed": true,
          "internalType": "address",
          "name": "spender",
          "type": "address"
        },
        {
          "indexed": false,
          "internalType": "uint256",
          "name": "value",
          "type": "uint256"
        }
      ],
      "name": "Approval",
      "type": "event"
    },
    {
      "anonymous": false,
      "inputs": [
        {
          "indexed": true,
          "internalType": "address",
          "name": "previousOwner",
          "type": "address"
        },
        {
          "indexed": true,
          "internalType": "address",
          "name": "newOwner",
          "type": "address"
        }
      ],
      "name": "OwnershipTransferred",
      "type": "event"
    },
    {
      "anonymous": false,
      "inputs": [
        {
          "indexed": true,
          "internalType": "address",
          "name": "from",
          "type": "address"
        },
        {
          "indexed": true,
          "internalType": "address",
          "name": "to",
          "type": "address"
        },
        {
          "indexed": false,
          "internalType": "uint256",
          "name": "value",
          "type": "uint256"
        }
      ],
      "name": "Transfer",
      "type": "event"
    },
    {
      "constant": true,
      "inputs": [
        {
          "internalType": "address",
          "name": "owner",
          "type": "address"
        },
        {
          "internalType": "address",
          "name": "spender",
          "type": "address"
        }
      ],
      "name": "allowance",
      "outputs": [
        {
          "internalType": "uint256",
          "name": "",
          "type": "uint256"
        }
      ],
      "payable": false,
      "stateMutability": "view",
      "type": "function"
    },
    {
      "constant": false,
      "inputs": [
        {
          "internalType": "address",
          "name": "spender",
          "type": "address"
        },
        {
          "internalType": "uint256",
          "name": "amount",
          "type": "uint256"
        }
      ],
      "name": "approve",
      "outputs": [
        {
          "internalType": "bool",
          "name": "",
          "type": "bool"
        }
      ],
      "payable": false,
      "stateMutability": "nonpayable",
      "type": "function"
    },
    {
      "constant": true,
      "inputs": [
        {
          "internalType": "address",
          "name": "account",
          "type": "address"
        }
      ],
      "name": "balanceOf",
      "outputs": [
        {
          "internalType": "uint256",
          "name": "",
          "type": "uint256"
        }
      ],
      "payable": false,
      "stateMutability": "view",
      "type": "function"
    },
    {
      "constant": true,
      "inputs": [],
      "name": "decimals",
      "outputs": [
        {
          "internalType": "uint8",
          "name": "",
          "type": "uint8"
        }
      ],
      "payable": false,
      "stateMutability": "view",
      "type": "function"
    },
    {
      "constant": false,
      "inputs": [
        {
          "internalType": "address",
          "name": "spender",
          "type": "address"
        },
        {
          "internalType": "uint256",
          "name": "subtractedValue",
          "type": "uint256"
        }
      ],
      "name": "decreaseAllowance",
      "outputs": [
        {
          "internalType": "bool",
          "name": "",
          "type": "bool"
        }
      ],
      "payable": false,
      "stateMutability": "nonpayable",
      "type": "function"
    },
    {
      "constant": true,
      "inputs": [
        {
          "internalType": "uint256",
          "name": "ebePerBlock",
          "type": "uint256"
        },
        {
          "internalType": "uint256",
          "name": "_lastRewardBlock",
          "type": "uint256"
        }
      ],
      "name": "getEbeReward",
      "outputs": [
        {
          "internalType": "uint256",
          "name": "",
          "type": "uint256"
        }
      ],
      "payable": false,
      "stateMutability": "view",
      "type": "function"
    },
    {
      "constant": true,
      "inputs": [],
      "name": "halvingPeriod",
      "outputs": [
        {
          "internalType": "uint256",
          "name": "",
          "type": "uint256"
        }
      ],
      "payable": false,
      "stateMutability": "view",
      "type": "function"
    },
    {
      "constant": false,
      "inputs": [
        {
          "internalType": "address",
          "name": "spender",
          "type": "address"
        },
        {
          "internalType": "uint256",
          "name": "addedValue",
          "type": "uint256"
        }
      ],
      "name": "increaseAllowance",
      "outputs": [
        {
          "internalType": "bool",
          "name": "",
          "type": "bool"
        }
      ],
      "payable": false,
      "stateMutability": "nonpayable",
      "type": "function"
    },
    {
      "constant": true,
      "inputs": [],
      "name": "isOwner",
      "outputs": [
        {
          "internalType": "bool",
          "name": "",
          "type": "bool"
        }
      ],
      "payable": false,
      "stateMutability": "view",
      "type": "function"
    },
    {
      "constant": false,
      "inputs": [
        {
          "internalType": "address",
          "name": "_to",
          "type": "address"
        },
        {
          "internalType": "uint256",
          "name": "_amount",
          "type": "uint256"
        }
      ],
      "name": "mint",
      "outputs": [
        {
          "internalType": "bool",
          "name": "",
          "type": "bool"
        }
      ],
      "payable": false,
      "stateMutability": "nonpayable",
      "type": "function"
    },
    {
      "constant": true,
      "inputs": [
        {
          "internalType": "address",
          "name": "",
          "type": "address"
        }
      ],
      "name": "minters",
      "outputs": [
        {
          "internalType": "bool",
          "name": "",
          "type": "bool"
        }
      ],
      "payable": false,
      "stateMutability": "view",
      "type": "function"
    },
    {
      "constant": true,
      "inputs": [],
      "name": "name",
      "outputs": [
        {
          "internalType": "string",
          "name": "",
          "type": "string"
        }
      ],
      "payable": false,
      "stateMutability": "view",
      "type": "function"
    },
    {
      "constant": true,
      "inputs": [],
      "name": "owner",
      "outputs": [
        {
          "internalType": "address",
          "name": "",
          "type": "address"
        }
      ],
      "payable": false,
      "stateMutability": "view",
      "type": "function"
    },
    {
      "constant": true,
      "inputs": [
        {
          "internalType": "uint256",
          "name": "blockNumber",
          "type": "uint256"
        }
      ],
      "name": "phase",
      "outputs": [
        {
          "internalType": "uint256",
          "name": "",
          "type": "uint256"
        }
      ],
      "payable": false,
      "stateMutability": "view",
      "type": "function"
    },
    {
      "constant": true,
      "inputs": [],
      "name": "phase",
      "outputs": [
        {
          "internalType": "uint256",
          "name": "",
          "type": "uint256"
        }
      ],
      "payable": false,
      "stateMutability": "view",
      "type": "function"
    },
    {
      "constant": false,
      "inputs": [],
      "name": "renounceOwnership",
      "outputs": [],
      "payable": false,
      "stateMutability": "nonpayable",
      "type": "function"
    },
    {
      "constant": true,
      "inputs": [
        {
          "internalType": "uint256",
          "name": "ebePerBlock",
          "type": "uint256"
        },
        {
          "internalType": "uint256",
          "name": "blockNumber",
          "type": "uint256"
        }
      ],
      "name": "reward",
      "outputs": [
        {
          "internalType": "uint256",
          "name": "",
          "type": "uint256"
        }
      ],
      "payable": false,
      "stateMutability": "view",
      "type": "function"
    },
    {
      "constant": true,
      "inputs": [
        {
          "internalType": "uint256",
          "name": "ebePerBlock",
          "type": "uint256"
        }
      ],
      "name": "reward",
      "outputs": [
        {
          "internalType": "uint256",
          "name": "",
          "type": "uint256"
        }
      ],
      "payable": false,
      "stateMutability": "view",
      "type": "function"
    },
    {
      "constant": false,
      "inputs": [
        {
          "internalType": "uint256",
          "name": "_block",
          "type": "uint256"
        }
      ],
      "name": "setHalvingPeriod",
      "outputs": [],
      "payable": false,
      "stateMutability": "nonpayable",
      "type": "function"
    },
    {
      "constant": false,
      "inputs": [
        {
          "internalType": "address",
          "name": "_newMinter",
          "type": "address"
        },
        {
          "internalType": "bool",
          "name": "mintable",
          "type": "bool"
        }
      ],
      "name": "setMinter",
      "outputs": [],
      "payable": false,
      "stateMutability": "nonpayable",
      "type": "function"
    },
    {
      "constant": false,
      "inputs": [
        {
          "internalType": "uint256",
          "name": "start",
          "type": "uint256"
        }
      ],
      "name": "setStartBlock",
      "outputs": [],
      "payable": false,
      "stateMutability": "nonpayable",
      "type": "function"
    },
    {
      "constant": true,
      "inputs": [],
      "name": "startBlock",
      "outputs": [
        {
          "internalType": "uint256",
          "name": "",
          "type": "uint256"
        }
      ],
      "payable": false,
      "stateMutability": "view",
      "type": "function"
    },
    {
      "constant": true,
      "inputs": [],
      "name": "symbol",
      "outputs": [
        {
          "internalType": "string",
          "name": "",
          "type": "string"
        }
      ],
      "payable": false,
      "stateMutability": "view",
      "type": "function"
    },
    {
      "constant": true,
      "inputs": [],
      "name": "totalSupply",
      "outputs": [
        {
          "internalType": "uint256",
          "name": "",
          "type": "uint256"
        }
      ],
      "payable": false,
      "stateMutability": "view",
      "type": "function"
    },
    {
      "constant": false,
      "inputs": [
        {
          "internalType": "address",
          "name": "recipient",
          "type": "address"
        },
        {
          "internalType": "uint256",
          "name": "amount",
          "type": "uint256"
        }
      ],
      "name": "transfer",
      "outputs": [
        {
          "internalType": "bool",
          "name": "",
          "type": "bool"
        }
      ],
      "payable": false,
      "stateMutability": "nonpayable",
      "type": "function"
    },
    {
      "constant": false,
      "inputs": [
        {
          "internalType": "address",
          "name": "sender",
          "type": "address"
        },
        {
          "internalType": "address",
          "name": "recipient",
          "type": "address"
        },
        {
          "internalType": "uint256",
          "name": "amount",
          "type": "uint256"
        }
      ],
      "name": "transferFrom",
      "outputs": [
        {
          "internalType": "bool",
          "name": "",
          "type": "bool"
        }
      ],
      "payable": false,
      "stateMutability": "nonpayable",
      "type": "function"
    },
    {
      "constant": false,
      "inputs": [
        {
          "internalType": "address",
          "name": "newOwner",
          "type": "address"
        }
      ],
      "name": "transferOwnership",
      "outputs": [],
      "payable": false,
      "stateMutability": "nonpayable",
      "type": "function"
    }
  ],
  "bytecode": "0x6080604052625033406009553480156200001857600080fd5b5060006200002e6001600160e01b03620000ef16565b600380546001600160a01b0319166001600160a01b038316908117909155604051919250906000907f8be0079c531659141344cd1fd0a4f28419497f9722a3daafe3b4186f6b6457e0908290a3506040805180820190915260098082526822a122902a37b5b2b760b91b6020909201918252620000ae91600491620000f4565b506040805180820190915260038082526245424560e81b6020909201918252620000db91600591620000f4565b506006805460ff1916601217905562000196565b335b90565b828054600181600116156101000203166002900490600052602060002090601f016020900481019282601f106200013757805160ff191683800117855562000167565b8280016001018555821562000167579182015b82811115620001675782518255916020019190600101906200014a565b506200017592915062000179565b5090565b620000f191905b8082111562000175576000815560010162000180565b6114ab80620001a66000396000f3fe608060405234801561001057600080fd5b50600436106101a95760003560e01c80638da5cb5b116100f9578063b1c9fe6e11610097578063dd62ed3e11610071578063dd62ed3e146104d0578063f2fde38b146104fe578063f35e4a6e14610524578063f46eccc414610541576101a9565b8063b1c9fe6e1461047d578063b5ec5c9914610485578063cf456ae7146104a2576101a9565b8063a457c2d7116100d3578063a457c2d7146103e5578063a4fa8d5714610411578063a9059cbb14610434578063a9fb763c14610460576101a9565b80638da5cb5b146103b15780638f32d59b146103d557806395d89b41146103dd576101a9565b8063313ce5671161016657806348cd4cb11161014057806348cd4cb1146103715780635a3e251f1461037957806370a0823114610381578063715018a6146103a7576101a9565b8063313ce567146102fb578063395093511461031957806340c10f1914610345576101a9565b806306fdde03146101ae578063095ea7b31461022b578063135f8aa71461026b57806318160ddd1461029a5780631bba3daf146102a257806323b872dd146102c5575b600080fd5b6101b6610567565b6040805160208082528351818301528351919283929083019185019080838360005b838110156101f05781810151838201526020016101d8565b50505050905090810190601f16801561021d5780820380516001836020036101000a031916815260200191505b509250505060405180910390f35b6102576004803603604081101561024157600080fd5b506001600160a01b0381351690602001356105f5565b604080519115158252519081900360200190f35b6102886004803603602081101561028157600080fd5b5035610613565b60408051918252519081900360200190f35b61028861067a565b610288600480360360408110156102b857600080fd5b5080359060200135610680565b610257600480360360608110156102db57600080fd5b506001600160a01b03813581169160208101359091169060400135610790565b61030361081d565b6040805160ff9092168252519081900360200190f35b6102576004803603604081101561032f57600080fd5b506001600160a01b038135169060200135610826565b6102576004803603604081101561035b57600080fd5b506001600160a01b03813516906020013561087a565b6102886108e3565b6102886108e9565b6102886004803603602081101561039757600080fd5b50356001600160a01b03166108ef565b6103af61090a565b005b6103b96109ad565b604080516001600160a01b039092168252519081900360200190f35b6102576109bc565b6101b66109e2565b610257600480360360408110156103fb57600080fd5b506001600160a01b038135169060200135610a3d565b6102886004803603604081101561042757600080fd5b5080359060200135610aab565b6102576004803603604081101561044a57600080fd5b506001600160a01b038135169060200135610ad5565b6102886004803603602081101561047657600080fd5b5035610ae9565b610288610af5565b6103af6004803603602081101561049b57600080fd5b5035610b05565b6103af600480360360408110156104b857600080fd5b506001600160a01b0381351690602001351515610b69565b610288600480360360408110156104e657600080fd5b506001600160a01b0381358116916020013516610be1565b6103af6004803603602081101561051457600080fd5b50356001600160a01b0316610c0c565b6103af6004803603602081101561053a57600080fd5b5035610c71565b6102576004803603602081101561055757600080fd5b50356001600160a01b0316610ccf565b6004805460408051602060026001851615610100026000190190941693909304601f810184900484028201840190925281815292918301828280156105ed5780601f106105c2576101008083540402835291602001916105ed565b820191906000526020600020905b8154815290600101906020018083116105d057829003601f168201915b505050505081565b6000610609610602610ce4565b8484610ce8565b5060015b92915050565b60006009546000141561062857506000610675565b6008548211156106715761066a60095461065e600161065260085487610dd490919063ffffffff16565b9063ffffffff610dd416565b9063ffffffff610e1d16565b9050610675565b5060005b919050565b60025490565b6000438211156106c15760405162461bcd60e51b815260040180806020018281038252603381526020018061141f6033913960400191505060405180910390fd5b6000806106cd84610613565b905060006106da43610613565b90505b8082101561075a576008546009546001909301926000916107159161070990869063ffffffff610e5f16565b9063ffffffff610eb816565b90506107506107436107278984610aab565b610737848a63ffffffff610dd416565b9063ffffffff610e5f16565b859063ffffffff610eb816565b90955092506106dd565b61078661077961076943610ae9565b610737438963ffffffff610dd416565b849063ffffffff610eb816565b9695505050505050565b600061079d848484610f12565b610813846107a9610ce4565b61080e856040518060600160405280602881526020016113ae602891396001600160a01b038a166000908152600160205260408120906107e7610ce4565b6001600160a01b03168152602081019190915260400160002054919063ffffffff61106e16565b610ce8565b5060019392505050565b60065460ff1681565b6000610609610833610ce4565b8461080e8560016000610844610ce4565b6001600160a01b03908116825260208083019390935260409182016000908120918c16815292529020549063ffffffff610eb816565b3360009081526007602052604081205460ff166108d9576040805162461bcd60e51b815260206004820152601860248201527731b0b63632b91034b9903737ba103a34329036b4b73a32b960411b604482015290519081900360640190fd5b6106098383611105565b60085481565b60095481565b6001600160a01b031660009081526020819052604090205490565b6109126109bc565b610963576040805162461bcd60e51b815260206004820181905260248201527f4f776e61626c653a2063616c6c6572206973206e6f7420746865206f776e6572604482015290519081900360640190fd5b6003546040516000916001600160a01b0316907f8be0079c531659141344cd1fd0a4f28419497f9722a3daafe3b4186f6b6457e0908390a3600380546001600160a01b0319169055565b6003546001600160a01b031690565b6003546000906001600160a01b03166109d3610ce4565b6001600160a01b031614905090565b6005805460408051602060026001851615610100026000190190941693909304601f810184900484028201840190925281815292918301828280156105ed5780601f106105c2576101008083540402835291602001916105ed565b6000610609610a4a610ce4565b8461080e856040518060600160405280602581526020016114526025913960016000610a74610ce4565b6001600160a01b03908116825260208083019390935260409182016000908120918d1681529252902054919063ffffffff61106e16565b600080610ab783610613565b9050610acd84600283900a63ffffffff610e1d16565b949350505050565b6000610609610ae2610ce4565b8484610f12565b600061060d8243610aab565b6000610b0043610613565b905090565b3360009081526007602052604090205460ff16610b64576040805162461bcd60e51b815260206004820152601860248201527731b0b63632b91034b9903737ba103a34329036b4b73a32b960411b604482015290519081900360640190fd5b600955565b6001600160a01b038216610bb6576040805162461bcd60e51b815260206004820152600f60248201526e6973207a65726f206164647265737360881b604482015290519081900360640190fd5b6001600160a01b03919091166000908152600760205260409020805460ff1916911515919091179055565b6001600160a01b03918216600090815260016020908152604080832093909416825291909152205490565b610c146109bc565b610c65576040805162461bcd60e51b815260206004820181905260248201527f4f776e61626c653a2063616c6c6572206973206e6f7420746865206f776e6572604482015290519081900360640190fd5b610c6e816111f5565b50565b610c796109bc565b610cca576040805162461bcd60e51b815260206004820181905260248201527f4f776e61626c653a2063616c6c6572206973206e6f7420746865206f776e6572604482015290519081900360640190fd5b600855565b60076020526000908152604090205460ff1681565b3390565b6001600160a01b038316610d2d5760405162461bcd60e51b81526004018080602001828103825260248152602001806113fb6024913960400191505060405180910390fd5b6001600160a01b038216610d725760405162461bcd60e51b81526004018080602001828103825260228152602001806113456022913960400191505060405180910390fd5b6001600160a01b03808416600081815260016020908152604080832094871680845294825291829020859055815185815291517f8c5be1e5ebec7d5bd14f71427d1e84f3dd0314c0f7b2291e5b200ac8c7c3b9259281900390910190a3505050565b6000610e1683836040518060400160405280601e81526020017f536166654d6174683a207375627472616374696f6e206f766572666c6f77000081525061106e565b9392505050565b6000610e1683836040518060400160405280601a81526020017f536166654d6174683a206469766973696f6e206279207a65726f000000000000815250611296565b600082610e6e5750600061060d565b82820282848281610e7b57fe5b0414610e165760405162461bcd60e51b815260040180806020018281038252602181526020018061138d6021913960400191505060405180910390fd5b600082820183811015610e16576040805162461bcd60e51b815260206004820152601b60248201527f536166654d6174683a206164646974696f6e206f766572666c6f770000000000604482015290519081900360640190fd5b6001600160a01b038316610f575760405162461bcd60e51b81526004018080602001828103825260258152602001806113d66025913960400191505060405180910390fd5b6001600160a01b038216610f9c5760405162461bcd60e51b81526004018080602001828103825260238152602001806112fc6023913960400191505060405180910390fd5b610fdf81604051806060016040528060268152602001611367602691396001600160a01b038616600090815260208190526040902054919063ffffffff61106e16565b6001600160a01b038085166000908152602081905260408082209390935590841681522054611014908263ffffffff610eb816565b6001600160a01b038084166000818152602081815260409182902094909455805185815290519193928716927fddf252ad1be2c89b69c2b068fc378daa952ba7f163c4a11628f55a4df523b3ef92918290030190a3505050565b600081848411156110fd5760405162461bcd60e51b81526004018080602001828103825283818151815260200191508051906020019080838360005b838110156110c25781810151838201526020016110aa565b50505050905090810190601f1680156110ef5780820380516001836020036101000a031916815260200191505b509250505060405180910390fd5b505050900390565b6001600160a01b038216611160576040805162461bcd60e51b815260206004820152601f60248201527f45524332303a206d696e7420746f20746865207a65726f206164647265737300604482015290519081900360640190fd5b600254611173908263ffffffff610eb816565b6002556001600160a01b03821660009081526020819052604090205461119f908263ffffffff610eb816565b6001600160a01b0383166000818152602081815260408083209490945583518581529351929391927fddf252ad1be2c89b69c2b068fc378daa952ba7f163c4a11628f55a4df523b3ef9281900390910190a35050565b6001600160a01b03811661123a5760405162461bcd60e51b815260040180806020018281038252602681526020018061131f6026913960400191505060405180910390fd5b6003546040516001600160a01b038084169216907f8be0079c531659141344cd1fd0a4f28419497f9722a3daafe3b4186f6b6457e090600090a3600380546001600160a01b0319166001600160a01b0392909216919091179055565b600081836112e55760405162461bcd60e51b81526020600482018181528351602484015283519092839260449091019190850190808383600083156110c25781810151838201526020016110aa565b5060008385816112f157fe5b049594505050505056fe45524332303a207472616e7366657220746f20746865207a65726f20616464726573734f776e61626c653a206e6577206f776e657220697320746865207a65726f206164647265737345524332303a20617070726f766520746f20746865207a65726f206164647265737345524332303a207472616e7366657220616d6f756e7420657863656564732062616c616e6365536166654d6174683a206d756c7469706c69636174696f6e206f766572666c6f7745524332303a207472616e7366657220616d6f756e74206578636565647320616c6c6f77616e636545524332303a207472616e736665722066726f6d20746865207a65726f206164647265737345524332303a20617070726f76652066726f6d20746865207a65726f2061646472657373454245546f6b656e3a206d757374206c6974746c65207468616e207468652063757272656e7420626c6f636b206e756d62657245524332303a2064656372656173656420616c6c6f77616e63652062656c6f77207a65726fa265627a7a7231582084dfa1e326fb0fe5f5d2b93cbdb4772c10ced66578f83d8fd628f962d489bab964736f6c63430005100032",
  "linkReferences": {},
  "deployedLinkReferences": {}
}