{
  "_format": "hh-sol-artifact-1",
  "contractName": "HecoPool",
  "sourceName": "contracts/swap/heco/HecoPool.sol",
  "abi": [
    {
      "inputs": [
        {
          "internalType": "contract IEbe",
          "name": "_ebe",
          "type": "address"
        },
        {
          "internalType": "uint256",
          "name": "_ebePerBlock",
          "type": "uint256"
        },
        {
          "internalType": "uint256",
          "name": "_startBlock",
          "type": "uint256"
        }
      ],
      "payable": false,
      "stateMutability": "nonpayable",
      "type": "constructor"
    },
    {
      "anonymous": false,
      "inputs": [
        {
          "indexed": true,
          "internalType": "address",
          "name": "user",
          "type": "address"
        },
        {
          "indexed": true,
          "internalType": "uint256",
          "name": "pid",
          "type": "uint256"
        },
        {
          "indexed": false,
          "internalType": "uint256",
          "name": "amount",
          "type": "uint256"
        }
      ],
      "name": "Deposit",
      "type": "event"
    },
    {
      "anonymous": false,
      "inputs": [
        {
          "indexed": true,
          "internalType": "address",
          "name": "user",
          "type": "address"
        },
        {
          "indexed": true,
          "internalType": "uint256",
          "name": "pid",
          "type": "uint256"
        },
        {
          "indexed": false,
          "internalType": "uint256",
          "name": "amount",
          "type": "uint256"
        }
      ],
      "name": "EmergencyWithdraw",
      "type": "event"
    },
    {
      "anonymous": false,
      "inputs": [
        {
          "indexed": true,
          "internalType": "address",
          "name": "previousOwner",
          "type": "address"
        },
        {
          "indexed": true,
          "internalType": "address",
          "name": "newOwner",
          "type": "address"
        }
      ],
      "name": "OwnershipTransferred",
      "type": "event"
    },
    {
      "anonymous": false,
      "inputs": [
        {
          "indexed": true,
          "internalType": "address",
          "name": "user",
          "type": "address"
        },
        {
          "indexed": true,
          "internalType": "uint256",
          "name": "pid",
          "type": "uint256"
        },
        {
          "indexed": false,
          "internalType": "uint256",
          "name": "amount",
          "type": "uint256"
        }
      ],
      "name": "Withdraw",
      "type": "event"
    },
    {
      "constant": true,
      "inputs": [
        {
          "internalType": "address",
          "name": "",
          "type": "address"
        }
      ],
      "name": "LpOfPid",
      "outputs": [
        {
          "internalType": "uint256",
          "name": "",
          "type": "uint256"
        }
      ],
      "payable": false,
      "stateMutability": "view",
      "type": "function"
    },
    {
      "constant": false,
      "inputs": [
        {
          "internalType": "uint256",
          "name": "_allocPoint",
          "type": "uint256"
        },
        {
          "internalType": "contract IERC20",
          "name": "_lpToken",
          "type": "address"
        },
        {
          "internalType": "bool",
          "name": "_withUpdate",
          "type": "bool"
        }
      ],
      "name": "add",
      "outputs": [],
      "payable": false,
      "stateMutability": "nonpayable",
      "type": "function"
    },
    {
      "constant": false,
      "inputs": [
        {
          "internalType": "address",
          "name": "_addLP",
          "type": "address"
        }
      ],
      "name": "addMultLP",
      "outputs": [
        {
          "internalType": "bool",
          "name": "",
          "type": "bool"
        }
      ],
      "payable": false,
      "stateMutability": "nonpayable",
      "type": "function"
    },
    {
      "constant": false,
      "inputs": [
        {
          "internalType": "uint256",
          "name": "_pid",
          "type": "uint256"
        },
        {
          "internalType": "uint256",
          "name": "_amount",
          "type": "uint256"
        }
      ],
      "name": "deposit",
      "outputs": [],
      "payable": false,
      "stateMutability": "nonpayable",
      "type": "function"
    },
    {
      "constant": true,
      "inputs": [],
      "name": "ebe",
      "outputs": [
        {
          "internalType": "contract IEbe",
          "name": "",
          "type": "address"
        }
      ],
      "payable": false,
      "stateMutability": "view",
      "type": "function"
    },
    {
      "constant": true,
      "inputs": [],
      "name": "ebePerBlock",
      "outputs": [
        {
          "internalType": "uint256",
          "name": "",
          "type": "uint256"
        }
      ],
      "payable": false,
      "stateMutability": "view",
      "type": "function"
    },
    {
      "constant": false,
      "inputs": [
        {
          "internalType": "uint256",
          "name": "_pid",
          "type": "uint256"
        }
      ],
      "name": "emergencyWithdraw",
      "outputs": [],
      "payable": false,
      "stateMutability": "nonpayable",
      "type": "function"
    },
    {
      "constant": true,
      "inputs": [
        {
          "internalType": "uint256",
          "name": "_lastRewardBlock",
          "type": "uint256"
        }
      ],
      "name": "getEbeBlockReward",
      "outputs": [
        {
          "internalType": "uint256",
          "name": "",
          "type": "uint256"
        }
      ],
      "payable": false,
      "stateMutability": "view",
      "type": "function"
    },
    {
      "constant": true,
      "inputs": [
        {
          "internalType": "uint256",
          "name": "_pid",
          "type": "uint256"
        }
      ],
      "name": "getMultLPAddress",
      "outputs": [
        {
          "internalType": "address",
          "name": "",
          "type": "address"
        }
      ],
      "payable": false,
      "stateMutability": "view",
      "type": "function"
    },
    {
      "constant": true,
      "inputs": [],
      "name": "getMultLPLength",
      "outputs": [
        {
          "internalType": "uint256",
          "name": "",
          "type": "uint256"
        }
      ],
      "payable": false,
      "stateMutability": "view",
      "type": "function"
    },
    {
      "constant": true,
      "inputs": [],
      "name": "halvingPeriod",
      "outputs": [
        {
          "internalType": "uint256",
          "name": "",
          "type": "uint256"
        }
      ],
      "payable": false,
      "stateMutability": "view",
      "type": "function"
    },
    {
      "constant": true,
      "inputs": [
        {
          "internalType": "address",
          "name": "_lp",
          "type": "address"
        }
      ],
      "name": "isMultLP",
      "outputs": [
        {
          "internalType": "bool",
          "name": "",
          "type": "bool"
        }
      ],
      "payable": false,
      "stateMutability": "view",
      "type": "function"
    },
    {
      "constant": true,
      "inputs": [],
      "name": "isOwner",
      "outputs": [
        {
          "internalType": "bool",
          "name": "",
          "type": "bool"
        }
      ],
      "payable": false,
      "stateMutability": "view",
      "type": "function"
    },
    {
      "constant": false,
      "inputs": [],
      "name": "massUpdatePools",
      "outputs": [],
      "payable": false,
      "stateMutability": "nonpayable",
      "type": "function"
    },
    {
      "constant": true,
      "inputs": [],
      "name": "multLpChef",
      "outputs": [
        {
          "internalType": "address",
          "name": "",
          "type": "address"
        }
      ],
      "payable": false,
      "stateMutability": "view",
      "type": "function"
    },
    {
      "constant": true,
      "inputs": [],
      "name": "multLpToken",
      "outputs": [
        {
          "internalType": "address",
          "name": "",
          "type": "address"
        }
      ],
      "payable": false,
      "stateMutability": "view",
      "type": "function"
    },
    {
      "constant": true,
      "inputs": [],
      "name": "owner",
      "outputs": [
        {
          "internalType": "address",
          "name": "",
          "type": "address"
        }
      ],
      "payable": false,
      "stateMutability": "view",
      "type": "function"
    },
    {
      "constant": true,
      "inputs": [],
      "name": "paused",
      "outputs": [
        {
          "internalType": "bool",
          "name": "",
          "type": "bool"
        }
      ],
      "payable": false,
      "stateMutability": "view",
      "type": "function"
    },
    {
      "constant": true,
      "inputs": [
        {
          "internalType": "uint256",
          "name": "_pid",
          "type": "uint256"
        },
        {
          "internalType": "address",
          "name": "_user",
          "type": "address"
        }
      ],
      "name": "pending",
      "outputs": [
        {
          "internalType": "uint256",
          "name": "",
          "type": "uint256"
        },
        {
          "internalType": "uint256",
          "name": "",
          "type": "uint256"
        }
      ],
      "payable": false,
      "stateMutability": "view",
      "type": "function"
    },
    {
      "constant": true,
      "inputs": [
        {
          "internalType": "uint256",
          "name": "blockNumber",
          "type": "uint256"
        }
      ],
      "name": "phase",
      "outputs": [
        {
          "internalType": "uint256",
          "name": "",
          "type": "uint256"
        }
      ],
      "payable": false,
      "stateMutability": "view",
      "type": "function"
    },
    {
      "constant": true,
      "inputs": [
        {
          "internalType": "uint256",
          "name": "",
          "type": "uint256"
        }
      ],
      "name": "poolCorrespond",
      "outputs": [
        {
          "internalType": "uint256",
          "name": "",
          "type": "uint256"
        }
      ],
      "payable": false,
      "stateMutability": "view",
      "type": "function"
    },
    {
      "constant": true,
      "inputs": [
        {
          "internalType": "uint256",
          "name": "",
          "type": "uint256"
        }
      ],
      "name": "poolInfo",
      "outputs": [
        {
          "internalType": "contract IERC20",
          "name": "lpToken",
          "type": "address"
        },
        {
          "internalType": "uint256",
          "name": "allocPoint",
          "type": "uint256"
        },
        {
          "internalType": "uint256",
          "name": "lastRewardBlock",
          "type": "uint256"
        },
        {
          "internalType": "uint256",
          "name": "accEbePerShare",
          "type": "uint256"
        },
        {
          "internalType": "uint256",
          "name": "accMultLpPerShare",
          "type": "uint256"
        },
        {
          "internalType": "uint256",
          "name": "totalAmount",
          "type": "uint256"
        }
      ],
      "payable": false,
      "stateMutability": "view",
      "type": "function"
    },
    {
      "constant": true,
      "inputs": [],
      "name": "poolLength",
      "outputs": [
        {
          "internalType": "uint256",
          "name": "",
          "type": "uint256"
        }
      ],
      "payable": false,
      "stateMutability": "view",
      "type": "function"
    },
    {
      "constant": false,
      "inputs": [],
      "name": "renounceOwnership",
      "outputs": [],
      "payable": false,
      "stateMutability": "nonpayable",
      "type": "function"
    },
    {
      "constant": false,
      "inputs": [
        {
          "internalType": "address",
          "name": "_multLpToken",
          "type": "address"
        },
        {
          "internalType": "address",
          "name": "_multLpChef",
          "type": "address"
        }
      ],
      "name": "replaceMultLP",
      "outputs": [],
      "payable": false,
      "stateMutability": "nonpayable",
      "type": "function"
    },
    {
      "constant": true,
      "inputs": [
        {
          "internalType": "uint256",
          "name": "blockNumber",
          "type": "uint256"
        }
      ],
      "name": "reward",
      "outputs": [
        {
          "internalType": "uint256",
          "name": "",
          "type": "uint256"
        }
      ],
      "payable": false,
      "stateMutability": "view",
      "type": "function"
    },
    {
      "constant": false,
      "inputs": [
        {
          "internalType": "uint256",
          "name": "_pid",
          "type": "uint256"
        },
        {
          "internalType": "uint256",
          "name": "_allocPoint",
          "type": "uint256"
        },
        {
          "internalType": "bool",
          "name": "_withUpdate",
          "type": "bool"
        }
      ],
      "name": "set",
      "outputs": [],
      "payable": false,
      "stateMutability": "nonpayable",
      "type": "function"
    },
    {
      "constant": false,
      "inputs": [
        {
          "internalType": "uint256",
          "name": "_newPerBlock",
          "type": "uint256"
        }
      ],
      "name": "setEbePerBlock",
      "outputs": [],
      "payable": false,
      "stateMutability": "nonpayable",
      "type": "function"
    },
    {
      "constant": false,
      "inputs": [
        {
          "internalType": "uint256",
          "name": "_block",
          "type": "uint256"
        }
      ],
      "name": "setHalvingPeriod",
      "outputs": [],
      "payable": false,
      "stateMutability": "nonpayable",
      "type": "function"
    },
    {
      "constant": false,
      "inputs": [
        {
          "internalType": "address",
          "name": "_multLpToken",
          "type": "address"
        },
        {
          "internalType": "address",
          "name": "_multLpChef",
          "type": "address"
        }
      ],
      "name": "setMultLP",
      "outputs": [],
      "payable": false,
      "stateMutability": "nonpayable",
      "type": "function"
    },
    {
      "constant": false,
      "inputs": [],
      "name": "setPause",
      "outputs": [],
      "payable": false,
      "stateMutability": "nonpayable",
      "type": "function"
    },
    {
      "constant": false,
      "inputs": [
        {
          "internalType": "uint256",
          "name": "_pid",
          "type": "uint256"
        },
        {
          "internalType": "uint256",
          "name": "_sid",
          "type": "uint256"
        }
      ],
      "name": "setPoolCorr",
      "outputs": [],
      "payable": false,
      "stateMutability": "nonpayable",
      "type": "function"
    },
    {
      "constant": true,
      "inputs": [],
      "name": "startBlock",
      "outputs": [
        {
          "internalType": "uint256",
          "name": "",
          "type": "uint256"
        }
      ],
      "payable": false,
      "stateMutability": "view",
      "type": "function"
    },
    {
      "constant": true,
      "inputs": [],
      "name": "totalAllocPoint",
      "outputs": [
        {
          "internalType": "uint256",
          "name": "",
          "type": "uint256"
        }
      ],
      "payable": false,
      "stateMutability": "view",
      "type": "function"
    },
    {
      "constant": false,
      "inputs": [
        {
          "internalType": "address",
          "name": "newOwner",
          "type": "address"
        }
      ],
      "name": "transferOwnership",
      "outputs": [],
      "payable": false,
      "stateMutability": "nonpayable",
      "type": "function"
    },
    {
      "constant": false,
      "inputs": [
        {
          "internalType": "uint256",
          "name": "_pid",
          "type": "uint256"
        }
      ],
      "name": "updatePool",
      "outputs": [],
      "payable": false,
      "stateMutability": "nonpayable",
      "type": "function"
    },
    {
      "constant": true,
      "inputs": [
        {
          "internalType": "uint256",
          "name": "",
          "type": "uint256"
        },
        {
          "internalType": "address",
          "name": "",
          "type": "address"
        }
      ],
      "name": "userInfo",
      "outputs": [
        {
          "internalType": "uint256",
          "name": "amount",
          "type": "uint256"
        },
        {
          "internalType": "uint256",
          "name": "rewardDebt",
          "type": "uint256"
        },
        {
          "internalType": "uint256",
          "name": "multLpRewardDebt",
          "type": "uint256"
        }
      ],
      "payable": false,
      "stateMutability": "view",
      "type": "function"
    },
    {
      "constant": false,
      "inputs": [
        {
          "internalType": "uint256",
          "name": "_pid",
          "type": "uint256"
        },
        {
          "internalType": "uint256",
          "name": "_amount",
          "type": "uint256"
        }
      ],
      "name": "withdraw",
      "outputs": [],
      "payable": false,
      "stateMutability": "nonpayable",
      "type": "function"
    }
  ],
  "bytecode": "0x60806040526009805460ff191690556000600a5562503340600e553480156200002757600080fd5b50604051620035cc380380620035cc833981810160405260608110156200004d57600080fd5b50805160208201516040909201519091906000620000736001600160e01b03620000ea16565b600080546001600160a01b0319166001600160a01b0383169081178255604051929350917f8be0079c531659141344cd1fd0a4f28419497f9722a3daafe3b4186f6b6457e0908290a350600380546001600160a01b0319166001600160a01b039490941693909317909255600455600b55620000ee565b3390565b6134ce80620000fe6000396000f3fe608060405234801561001057600080fd5b50600436106102315760003560e01c80637fe6f5ac11610130578063b5ec5c99116100b8578063e4c75c271161007c578063e4c75c27146105f3578063e6ab8d4814610638578063e715e23414610640578063f1844a251461066e578063f2fde38b1461067657610231565b8063b5ec5c9914610586578063cb4502c4146105a3578063d431b1ac146105c0578063dfc7b95b146105c8578063e2bbb158146105d057610231565b806393f1a40b116100ff57806393f1a40b146104a8578063a9fb763c146104f2578063aaae43cc1461050f578063b0c7044b1461053d578063b337d32c1461056357610231565b80637fe6f5ac146104555780638c0352521461047b5780638da5cb5b146104985780638f32d59b146104a057610231565b806351eb05a6116101be578063630b5ba111610182578063630b5ba1146103f557806364482f79146103fd57806366f9e64b14610428578063705bbc0114610445578063715018a61461044d57610231565b806351eb05a6146103715780635312ea8e1461038e57806356c5867d146103ab5780635a3e251f146103e55780635c975abb146103ed57610231565b806317caf6f11161020557806317caf6f1146102eb5780631eaaa045146102f35780634315490714610329578063441a3e701461034657806348cd4cb11461036957610231565b8062a2e17814610236578063081e3eda1461025a578063135f8aa7146102745780631526fe2714610291575b600080fd5b61023e61069c565b604080516001600160a01b039092168252519081900360200190f35b6102626106ab565b60408051918252519081900360200190f35b6102626004803603602081101561028a57600080fd5b50356106b1565b6102ae600480360360208110156102a757600080fd5b5035610718565b604080516001600160a01b0390971687526020870195909552858501939093526060850191909152608084015260a0830152519081900360c00190f35b610262610765565b6103276004803603606081101561030957600080fd5b508035906001600160a01b036020820135169060400135151561076b565b005b61023e6004803603602081101561033f57600080fd5b50356109be565b6103276004803603604081101561035c57600080fd5b5080359060200135610a27565b610262610ad6565b6103276004803603602081101561038757600080fd5b5035610adc565b610327600480360360208110156103a457600080fd5b5035610ce5565b6103d1600480360360208110156103c157600080fd5b50356001600160a01b0316610d91565b604080519115158252519081900360200190f35b610262610ebd565b6103d1610ec3565b610327610ecc565b6103276004803603606081101561041357600080fd5b50803590602081013590604001351515610eeb565b6103276004803603602081101561043e57600080fd5b5035610fb1565b61023e611005565b610327611014565b6103d16004803603602081101561046b57600080fd5b50356001600160a01b03166110a5565b6102626004803603602081101561049157600080fd5b50356110b2565b61023e611174565b6103d1611183565b6104d4600480360360408110156104be57600080fd5b50803590602001356001600160a01b03166111a7565b60408051938452602084019290925282820152519081900360600190f35b6102626004803603602081101561050857600080fd5b50356111d3565b6103276004803603604081101561052557600080fd5b506001600160a01b0381358116916020013516611200565b6102626004803603602081101561055357600080fd5b50356001600160a01b03166113ef565b6103276004803603604081101561057957600080fd5b5080359060200135611401565b6103276004803603602081101561059c57600080fd5b50356114ae565b610262600480360360208110156105b957600080fd5b50356114fa565b61032761150c565b61023e611567565b610327600480360360408110156105e657600080fd5b5080359060200135611576565b61061f6004803603604081101561060957600080fd5b50803590602001356001600160a01b031661161b565b6040805192835260208301919091528051918290030190f35b610262611695565b6103276004803603604081101561065657600080fd5b506001600160a01b03813581169160200135166116a6565b610262611782565b6103276004803603602081101561068c57600080fd5b50356001600160a01b0316611788565b6003546001600160a01b031681565b60055490565b6000600e54600014156106c657506000610713565b600b5482111561070f57610708600e546106fc60016106f0600b54876117d890919063ffffffff16565b9063ffffffff6117d816565b9063ffffffff61181a16565b9050610713565b5060005b919050565b6005818154811061072557fe5b60009182526020909120600690910201805460018201546002830154600384015460048501546005909501546001600160a01b0390941695509193909286565b600a5481565b610773611183565b6107b2576040805162461bcd60e51b81526020600482018190526024820152600080516020613450833981519152604482015290519081900360640190fd5b6001600160a01b03821661080d576040805162461bcd60e51b815260206004820152601c60248201527f5f6c70546f6b656e20697320746865207a65726f206164647265737300000000604482015290519081900360640190fd5b801561081b5761081b610ecc565b6000600b54431161082e57600b54610830565b435b600a54909150610846908563ffffffff61185c16565b600a556040805160c0810182526001600160a01b038581168252602082018781529282018481526000606084018181526080850182815260a0860183815260058054600180820183559190955296517f036b6384b5eca791c62761152d0c79bb0604c104a5fb6f4eb0703f3154bb3db0600690950294850180546001600160a01b031916919097161790955595517f036b6384b5eca791c62761152d0c79bb0604c104a5fb6f4eb0703f3154bb3db183015591517f036b6384b5eca791c62761152d0c79bb0604c104a5fb6f4eb0703f3154bb3db282015590517f036b6384b5eca791c62761152d0c79bb0604c104a5fb6f4eb0703f3154bb3db382015592517f036b6384b5eca791c62761152d0c79bb0604c104a5fb6f4eb0703f3154bb3db4840155517f036b6384b5eca791c62761152d0c79bb0604c104a5fb6f4eb0703f3154bb3db59092019190915561099b6106ab565b6001600160a01b0390941660009081526008602052604090209303909255505050565b600060016109ca611695565b03821115610a16576040805162461bcd60e51b815260206004820152601460248201527306e6f742066696e642074686973206d756c744c560641b604482015290519081900360640190fd5b610a216001836118b6565b92915050565b60095460ff1615610a7b576040805162461bcd60e51b8152602060048201526019602482015278135a5b9a5b99c81a185cc81899595b881cdd5cdc195b991959603a1b604482015290519081900360640190fd5b600060058381548110610a8a57fe5b600091825260209091206006909102018054909150610ab1906001600160a01b03166110a5565b15610ac657610ac18383336118e3565b610ad1565b610ad1838333611ca5565b505050565b600b5481565b600060058281548110610aeb57fe5b9060005260206000209060060201905080600201544311610b0c5750610ce2565b8054600090610b23906001600160a01b03166110a5565b15610b49576005820154610b3e575043600290910155610ce2565b506005810154610bd3565b8154604080516370a0823160e01b815230600482015290516001600160a01b03909216916370a0823191602480820192602092909190829003018186803b158015610b9357600080fd5b505afa158015610ba7573d6000803e3d6000fd5b505050506040513d6020811015610bbd57600080fd5b5051905080610bd3575043600290910155610ce2565b6000610be283600201546110b2565b905060008111610bf457505050610ce2565b6000610c13600a546106fc866001015485611e3c90919063ffffffff16565b600354604080516340c10f1960e01b81523060048201526024810184905290519293506000926001600160a01b03909216916340c10f199160448082019260209290919082900301818787803b158015610c6c57600080fd5b505af1158015610c80573d6000803e3d6000fd5b505050506040513d6020811015610c9657600080fd5b505190508015610cd357610ccd610cbc856106fc8564e8d4a5100063ffffffff611e3c16565b60038701549063ffffffff61185c16565b60038601555b43856002018190555050505050505b50565b60095460ff1615610d39576040805162461bcd60e51b8152602060048201526019602482015278135a5b9a5b99c81a185cc81899595b881cdd5cdc195b991959603a1b604482015290519081900360640190fd5b600060058281548110610d4857fe5b600091825260209091206006909102018054909150610d6f906001600160a01b03166110a5565b15610d8357610d7e8233611e95565b610d8d565b610d8d82336120ee565b5050565b6000610d9b611183565b610dda576040805162461bcd60e51b81526020600482018190526024820152600080516020613450833981519152604482015290519081900360640190fd5b6001600160a01b038216610e2e576040805162461bcd60e51b81526020600482015260166024820152754c5020697320746865207a65726f206164647265737360501b604482015290519081900360640190fd5b600c546040805163095ea7b360e01b81526001600160a01b039283166004820152600019602482015290519184169163095ea7b3916044808201926020929091908290030181600087803b158015610e8557600080fd5b505af1158015610e99573d6000803e3d6000fd5b505050506040513d6020811015610eaf57600080fd5b50610a2190506001836121b0565b600e5481565b60095460ff1681565b60055460005b81811015610d8d57610ee381610adc565b600101610ed2565b610ef3611183565b610f32576040805162461bcd60e51b81526020600482018190526024820152600080516020613450833981519152604482015290519081900360640190fd5b8015610f4057610f40610ecc565b610f8382610f7760058681548110610f5457fe5b906000526020600020906006020160010154600a546117d890919063ffffffff16565b9063ffffffff61185c16565b600a819055508160058481548110610f9757fe5b906000526020600020906006020160010181905550505050565b610fb9611183565b610ff8576040805162461bcd60e51b81526020600482018190526024820152600080516020613450833981519152604482015290519081900360640190fd5b611000610ecc565b600455565b600d546001600160a01b031681565b61101c611183565b61105b576040805162461bcd60e51b81526020600482018190526024820152600080516020613450833981519152604482015290519081900360640190fd5b600080546040516001600160a01b03909116907f8be0079c531659141344cd1fd0a4f28419497f9722a3daafe3b4186f6b6457e0908390a3600080546001600160a01b0319169055565b6000610a21600183612210565b600080806110bf846106b1565b905060006110cc436106b1565b90505b8082101561113f57600b54600e546001909301926000916110fb91610f7790869063ffffffff611e3c16565b905061113561112861110c836111d3565b61111c848a63ffffffff6117d816565b9063ffffffff611e3c16565b859063ffffffff61185c16565b90955092506110cf565b61116b61115e61114e436111d3565b61111c438963ffffffff6117d816565b849063ffffffff61185c16565b95945050505050565b6000546001600160a01b031690565b600080546001600160a01b031661119861222e565b6001600160a01b031614905090565b600660209081526000928352604080842090915290825290208054600182015460029092015490919083565b6000806111df836106b1565b90506111f98160020a60045461181a90919063ffffffff16565b9392505050565b611208611183565b611247576040805162461bcd60e51b81526020600482018190526024820152600080516020613450833981519152604482015290519081900360640190fd5b6001600160a01b0382161580159061126757506001600160a01b03811615155b6112ae576040805162461bcd60e51b8152602060048201526013602482015272697320746865207a65726f206164647265737360681b604482015290519081900360640190fd5b60095460ff161515600114611301576040805162461bcd60e51b815260206004820152601460248201527327379036b4b734b7339039bab9b832b739b4b7b760611b604482015290519081900360640190fd5b600d80546001600160a01b038085166001600160a01b031992831617909255600c805492841692909116919091179055600061133b611695565b90505b8015610ad1576000611352600160006118b6565b6001600160a01b03808216600090815260086020908152604080832054600c548185526007909352818420548251632989754760e11b815260048101919091529151959650949190931692635312ea8e92602480830193919282900301818387803b1580156113c057600080fd5b505af11580156113d4573d6000803e3d6000fd5b505050506113e3600183612232565b5050506000190161133e565b60086020526000908152604090205481565b611409611183565b611448576040805162461bcd60e51b81526020600482018190526024820152600080516020613450833981519152604482015290519081900360640190fd5b60016114526106ab565b0382111561149c576040805162461bcd60e51b81526020600482015260126024820152711b9bdd08199a5b99081d1a1a5cc81c1bdbdb60721b604482015290519081900360640190fd5b60009182526007602052604090912055565b6114b6611183565b6114f5576040805162461bcd60e51b81526020600482018190526024820152600080516020613450833981519152604482015290519081900360640190fd5b600e55565b60076020526000908152604090205481565b611514611183565b611553576040805162461bcd60e51b81526020600482018190526024820152600080516020613450833981519152604482015290519081900360640190fd5b6009805460ff19811660ff90911615179055565b600c546001600160a01b031681565b60095460ff16156115ca576040805162461bcd60e51b8152602060048201526019602482015278135a5b9a5b99c81a185cc81899595b881cdd5cdc195b991959603a1b604482015290519081900360640190fd5b6000600583815481106115d957fe5b600091825260209091206006909102018054909150611600906001600160a01b03166110a5565b1561161057610ac183833361233d565b610ad18383336128ff565b60008060006005858154811061162d57fe5b600091825260209091206006909102018054909150611654906001600160a01b03166110a5565b15611674576000806116668787612a50565b909550935061168e92505050565b60006116808686612c93565b93506000925061168e915050565b9250929050565b60006116a16001612e2f565b905090565b6116ae611183565b6116ed576040805162461bcd60e51b81526020600482018190526024820152600080516020613450833981519152604482015290519081900360640190fd5b6001600160a01b0382161580159061170d57506001600160a01b03811615155b611754576040805162461bcd60e51b8152602060048201526013602482015272697320746865207a65726f206164647265737360681b604482015290519081900360640190fd5b600d80546001600160a01b039384166001600160a01b031991821617909155600c8054929093169116179055565b60045481565b611790611183565b6117cf576040805162461bcd60e51b81526020600482018190526024820152600080516020613450833981519152604482015290519081900360640190fd5b610ce281612e36565b60006111f983836040518060400160405280601e81526020017f536166654d6174683a207375627472616374696f6e206f766572666c6f770000815250612ed6565b60006111f983836040518060400160405280601a81526020017f536166654d6174683a206469766973696f6e206279207a65726f000000000000815250612f6d565b6000828201838110156111f9576040805162461bcd60e51b815260206004820152601b60248201527f536166654d6174683a206164646974696f6e206f766572666c6f770000000000604482015290519081900360640190fd5b60008260010182815481106118c757fe5b6000918252602090912001546001600160a01b03169392505050565b6000600584815481106118f257fe5b60009182526020808320878452600680835260408086206001600160a01b038916875290935291909320805492909102909201925084111561197b576040805162461bcd60e51b815260206004820152601d60248201527f7769746864726177456265416e64546f6b656e3a206e6f7420676f6f64000000604482015290519081900360640190fd5b61198485610adc565b60006119b282600101546106f064e8d4a510006106fc87600301548760000154611e3c90919063ffffffff16565b905080156119c4576119c48482612fd2565b8415611c1157600d54604080516370a0823160e01b815230600482015290516000926001600160a01b0316916370a08231916024808301926020929190829003018186803b158015611a1557600080fd5b505afa158015611a29573d6000803e3d6000fd5b505050506040513d6020811015611a3f57600080fd5b5051600c54600089815260076020526040808220548151630441a3e760e41b81526004810191909152602481018b905290519394506001600160a01b039092169263441a3e7092604480820193929182900301818387803b158015611aa357600080fd5b505af1158015611ab7573d6000803e3d6000fd5b5050600d54604080516370a0823160e01b81523060048201529051600094506001600160a01b0390921692506370a08231916024808301926020929190829003018186803b158015611b0857600080fd5b505afa158015611b1c573d6000803e3d6000fd5b505050506040513d6020811015611b3257600080fd5b50516005860154909150611b6e90611b5d906106fc64e8d4a5100061111c868863ffffffff6117d816565b60048701549063ffffffff61185c16565b6004860181905560028501548554600092611b9e92916106f09164e8d4a51000916106fc9163ffffffff611e3c16565b90508015611bc357600d54611bc3906001600160a01b0316888363ffffffff61316216565b8454611bd5908963ffffffff6117d816565b85556005860154611bec908963ffffffff6117d816565b60058701558554611c0d906001600160a01b0316888a63ffffffff61316216565b5050505b60038301548254611c329164e8d4a51000916106fc9163ffffffff611e3c16565b600183015560048301548254611c589164e8d4a51000916106fc9163ffffffff611e3c16565b600283015560408051868152905187916001600160a01b038716917ff279e6a1f5e320cca91135676d9cb6e44ca8a08c0b88342bcdb1144f6511b5689181900360200190a3505050505050565b600060058481548110611cb457fe5b60009182526020808320878452600680835260408086206001600160a01b0389168752909352919093208054929091029092019250841115611d35576040805162461bcd60e51b81526020600482015260156024820152741dda5d1a191c985dd158994e881b9bdd0819dbdbd9605a1b604482015290519081900360640190fd5b611d3e85610adc565b6000611d6c82600101546106f064e8d4a510006106fc87600301548760000154611e3c90919063ffffffff16565b90508015611d7e57611d7e8482612fd2565b8415611dce578154611d96908663ffffffff6117d816565b82556005830154611dad908663ffffffff6117d816565b60058401558254611dce906001600160a01b0316858763ffffffff61316216565b60038301548254611def9164e8d4a51000916106fc9163ffffffff611e3c16565b600183015560408051868152905187916001600160a01b038716917ff279e6a1f5e320cca91135676d9cb6e44ca8a08c0b88342bcdb1144f6511b5689181900360200190a3505050505050565b600082611e4b57506000610a21565b82820282848281611e5857fe5b04146111f95760405162461bcd60e51b815260040180806020018281038252602181526020018061342f6021913960400191505060405180910390fd5b600060058381548110611ea457fe5b60009182526020808320868452600680835260408086206001600160a01b03808a1688529085528187208054600d5484516370a0823160e01b8152306004820152945195909802909501985096939593949316926370a0823192602480840193829003018186803b158015611f1857600080fd5b505afa158015611f2c573d6000803e3d6000fd5b505050506040513d6020811015611f4257600080fd5b5051600c54600088815260076020526040808220548151630441a3e760e41b815260048101919091526024810187905290519394506001600160a01b039092169263441a3e7092604480820193929182900301818387803b158015611fa657600080fd5b505af1158015611fba573d6000803e3d6000fd5b5050600d54604080516370a0823160e01b81523060048201529051600094506001600160a01b0390921692506370a08231916024808301926020929190829003018186803b15801561200b57600080fd5b505afa15801561201f573d6000803e3d6000fd5b505050506040513d602081101561203557600080fd5b5051600586015490915061206090611b5d906106fc64e8d4a5100061111c868863ffffffff6117d816565b600486015560008085556001850155845461208b906001600160a01b0316878563ffffffff61316216565b60058501546120a0908463ffffffff6117d816565b600586015560408051848152905188916001600160a01b038916917fbb757047c2b5f3974fe26b7c10f732e7bce710b0952a71082702781e62ae05959181900360200190a350505050505050565b6000600583815481106120fd57fe5b60009182526020808320868452600680835260408086206001600160a01b03808a1688529452852080548682556001820196909655930201805490945091929161214f9116858363ffffffff61316216565b6005830154612164908263ffffffff6117d816565b600584015560408051828152905186916001600160a01b038716917fbb757047c2b5f3974fe26b7c10f732e7bce710b0952a71082702781e62ae05959181900360200190a35050505050565b60006121bc8383612210565b6122085750600182810180548083018083556000928352602080842090920180546001600160a01b0319166001600160a01b038716908117909155835290859052604090912055610a21565b506000610a21565b6001600160a01b031660009081526020919091526040902054151590565b3390565b600061223e8383612210565b15612208576001600160a01b038216600090815260208490526040902054600184015460001991820191018082146122e957600085600101828154811061228157fe5b6000918252602090912001546001870180546001600160a01b0390921692508291859081106122ac57fe5b600091825260208083209190910180546001600160a01b0319166001600160a01b0394851617905592909116815290869052604090206001830190555b6001600160a01b0384166000908152602086905260408120556001850180548061230f57fe5b600082815260209020810160001990810180546001600160a01b03191690550190555060019150610a219050565b60006005848154811061234c57fe5b60009182526020808320878452600680835260408086206001600160a01b0389168752909352919093209102909101915061238685610adc565b8054156125ba5760006123bb82600101546106f064e8d4a510006106fc87600301548760000154611e3c90919063ffffffff16565b905080156123cd576123cd8482612fd2565b600d54604080516370a0823160e01b815230600482015290516000926001600160a01b0316916370a08231916024808301926020929190829003018186803b15801561241857600080fd5b505afa15801561242c573d6000803e3d6000fd5b505050506040513d602081101561244257600080fd5b5051600c54600089815260076020526040808220548151631c57762b60e31b815260048101919091526024810183905290519394506001600160a01b039092169263e2bbb15892604480820193929182900301818387803b1580156124a657600080fd5b505af11580156124ba573d6000803e3d6000fd5b5050600d54604080516370a0823160e01b81523060048201529051600094506001600160a01b0390921692506370a08231916024808301926020929190829003018186803b15801561250b57600080fd5b505afa15801561251f573d6000803e3d6000fd5b505050506040513d602081101561253557600080fd5b5051600586015490915061256090611b5d906106fc64e8d4a5100061111c868863ffffffff6117d816565b600486018190556002850154855460009261259092916106f09164e8d4a51000916106fc9163ffffffff611e3c16565b905080156125b557600d546125b5906001600160a01b0316888363ffffffff61316216565b505050505b831561286c5781546125dd906001600160a01b031684308763ffffffff6131b416565b600582015461269257600c54600086815260076020526040808220548151631c57762b60e31b815260048101919091526024810188905290516001600160a01b039093169263e2bbb1589260448084019391929182900301818387803b15801561264657600080fd5b505af115801561265a573d6000803e3d6000fd5b50508254612671925090508563ffffffff61185c16565b81556005820154612688908563ffffffff61185c16565b600583015561286c565b600d54604080516370a0823160e01b815230600482015290516000926001600160a01b0316916370a08231916024808301926020929190829003018186803b1580156126dd57600080fd5b505afa1580156126f1573d6000803e3d6000fd5b505050506040513d602081101561270757600080fd5b5051600c54600088815260076020526040808220548151631c57762b60e31b81526004810191909152602481018a905290519394506001600160a01b039092169263e2bbb15892604480820193929182900301818387803b15801561276b57600080fd5b505af115801561277f573d6000803e3d6000fd5b5050600d54604080516370a0823160e01b81523060048201529051600094506001600160a01b0390921692506370a08231916024808301926020929190829003018186803b1580156127d057600080fd5b505afa1580156127e4573d6000803e3d6000fd5b505050506040513d60208110156127fa57600080fd5b5051600585015490915061283690612825906106fc64e8d4a5100061111c868863ffffffff6117d816565b60048601549063ffffffff61185c16565b6004850155825461284d908763ffffffff61185c16565b83556005840154612864908763ffffffff61185c16565b600585015550505b6003820154815461288d9164e8d4a51000916106fc9163ffffffff611e3c16565b6001820155600482015481546128b39164e8d4a51000916106fc9163ffffffff611e3c16565b600282015560408051858152905186916001600160a01b038616917f90890809c654f11d6e72a28fa60149770a0d11ec6c92319d6ceb2bb0a4ea1a159181900360200190a35050505050565b60006005848154811061290e57fe5b60009182526020808320878452600680835260408086206001600160a01b0389168752909352919093209102909101915061294885610adc565b80541561299157600061297d82600101546106f064e8d4a510006106fc87600301548760000154611e3c90919063ffffffff16565b9050801561298f5761298f8482612fd2565b505b83156129e35781546129b4906001600160a01b031684308763ffffffff6131b416565b80546129c6908563ffffffff61185c16565b815560058201546129dd908563ffffffff61185c16565b60058301555b60038201548154612a049164e8d4a51000916106fc9163ffffffff611e3c16565b600182015560408051858152905186916001600160a01b038616917f90890809c654f11d6e72a28fa60149770a0d11ec6c92319d6ceb2bb0a4ea1a159181900360200190a35050505050565b600080600060058581548110612a6257fe5b60009182526020808320888452600680835260408086206001600160a01b038b168752909352919093209102909101600381015460048201548354929450909115612c8357600c54600089815260076020908152604080832054815163e4c75c2760e01b81526004810191909152306024820152905192936001600160a01b03169263e4c75c2792604480840193919291829003018186803b158015612b0757600080fd5b505afa158015612b1b573d6000803e3d6000fd5b505050506040513d6020811015612b3157600080fd5b50516005860154909150612b6590612b58906106fc8464e8d4a5100063ffffffff611e3c16565b839063ffffffff61185c16565b91506000612b9185600201546106f064e8d4a510006106fc878a60000154611e3c90919063ffffffff16565b90508560020154431115612c3d576000612bae87600201546110b2565b90506000612bcf600a546106fc8a6001015485611e3c90919063ffffffff16565b9050612c01612bf489600501546106fc64e8d4a5100085611e3c90919063ffffffff16565b879063ffffffff61185c16565b9550612c2b87600101546106f064e8d4a510006106fc8a8c60000154611e3c90919063ffffffff16565b8399509950505050505050505061168e565b8560020154431415612c8057612c7185600101546106f064e8d4a510006106fc888a60000154611e3c90919063ffffffff16565b9750955061168e945050505050565b50505b5060009788975095505050505050565b60008060058481548110612ca357fe5b60009182526020808320878452600680835260408086206001600160a01b03808b16885290855281872060039390960290930191820154825482516370a0823160e01b815230600482015292519398509596909590949316926370a0823192602480840193829003018186803b158015612d1c57600080fd5b505afa158015612d30573d6000803e3d6000fd5b505050506040513d6020811015612d4657600080fd5b5051835490915015612e22578360020154431115612de3576000612d6d85600201546110b2565b90506000612d8e600a546106fc886001015485611e3c90919063ffffffff16565b9050612dac611128846106fc8464e8d4a5100063ffffffff611e3c16565b9350612dd685600101546106f064e8d4a510006106fc888a60000154611e3c90919063ffffffff16565b9650505050505050610a21565b8360020154431415612e2257612e1783600101546106f064e8d4a510006106fc868860000154611e3c90919063ffffffff16565b945050505050610a21565b5060009695505050505050565b6001015490565b6001600160a01b038116612e7b5760405162461bcd60e51b81526004018080602001828103825260268152602001806134096026913960400191505060405180910390fd5b600080546040516001600160a01b03808516939216917f8be0079c531659141344cd1fd0a4f28419497f9722a3daafe3b4186f6b6457e091a3600080546001600160a01b0319166001600160a01b0392909216919091179055565b60008184841115612f655760405162461bcd60e51b81526004018080602001828103825283818151815260200191508051906020019080838360005b83811015612f2a578181015183820152602001612f12565b50505050905090810190601f168015612f575780820380516001836020036101000a031916815260200191505b509250505060405180910390fd5b505050900390565b60008183612fbc5760405162461bcd60e51b8152602060048201818152835160248401528351909283926044909101919085019080838360008315612f2a578181015183820152602001612f12565b506000838581612fc857fe5b0495945050505050565b600354604080516370a0823160e01b815230600482015290516000926001600160a01b0316916370a08231916024808301926020929190829003018186803b15801561301d57600080fd5b505afa158015613031573d6000803e3d6000fd5b505050506040513d602081101561304757600080fd5b50519050808211156130db576003546040805163a9059cbb60e01b81526001600160a01b038681166004830152602482018590529151919092169163a9059cbb9160448083019260209291908290030181600087803b1580156130a957600080fd5b505af11580156130bd573d6000803e3d6000fd5b505050506040513d60208110156130d357600080fd5b50610ad19050565b6003546040805163a9059cbb60e01b81526001600160a01b038681166004830152602482018690529151919092169163a9059cbb9160448083019260209291908290030181600087803b15801561313157600080fd5b505af1158015613145573d6000803e3d6000fd5b505050506040513d602081101561315b57600080fd5b5050505050565b604080516001600160a01b038416602482015260448082018490528251808303909101815260649091019091526020810180516001600160e01b031663a9059cbb60e01b179052610ad1908490613214565b604080516001600160a01b0385811660248301528416604482015260648082018490528251808303909101815260849091019091526020810180516001600160e01b03166323b872dd60e01b17905261320e908590613214565b50505050565b613226826001600160a01b03166133cc565b613277576040805162461bcd60e51b815260206004820152601f60248201527f5361666545524332303a2063616c6c20746f206e6f6e2d636f6e747261637400604482015290519081900360640190fd5b60006060836001600160a01b0316836040518082805190602001908083835b602083106132b55780518252601f199092019160209182019101613296565b6001836020036101000a0380198251168184511680821785525050505050509050019150506000604051808303816000865af19150503d8060008114613317576040519150601f19603f3d011682016040523d82523d6000602084013e61331c565b606091505b509150915081613373576040805162461bcd60e51b815260206004820181905260248201527f5361666545524332303a206c6f772d6c6576656c2063616c6c206661696c6564604482015290519081900360640190fd5b80511561320e5780806020019051602081101561338f57600080fd5b505161320e5760405162461bcd60e51b815260040180806020018281038252602a815260200180613470602a913960400191505060405180910390fd5b6000813f7fc5d2460186f7233c927e7db2dcc703c0e500b653ca82273b7bfad8045d85a47081811480159061340057508115155b94935050505056fe4f776e61626c653a206e6577206f776e657220697320746865207a65726f2061646472657373536166654d6174683a206d756c7469706c69636174696f6e206f766572666c6f774f776e61626c653a2063616c6c6572206973206e6f7420746865206f776e65725361666545524332303a204552433230206f7065726174696f6e20646964206e6f742073756363656564a265627a7a723158202e39a40be26a0d253423008d9287c8f2248363d80aa43642a9b0476952bdb64064736f6c63430005100032",
  "linkReferences": {},
  "deployedLinkReferences": {}
}