{
  "_format": "hh-sol-artifact-1",
  "contractName": "OBPriceLogic",
  "sourceName": "contracts/swap/orderbook/OBPriceLogic.sol",
  "abi": [
    {
      "inputs": [
        {
          "internalType": "address",
          "name": "destToken",
          "type": "address"
        },
        {
          "internalType": "address",
          "name": "destEToken",
          "type": "address"
        },
        {
          "internalType": "uint256",
          "name": "amountOutMint",
          "type": "uint256"
        },
        {
          "internalType": "uint256",
          "name": "guaranteeAmountIn",
          "type": "uint256"
        },
        {
          "internalType": "uint256",
          "name": "amtToTaken",
          "type": "uint256"
        }
      ],
      "name": "calcTakerAmount",
      "outputs": [
        {
          "internalType": "uint256",
          "name": "takerEAmt",
          "type": "uint256"
        },
        {
          "internalType": "uint256",
          "name": "takerAmt",
          "type": "uint256"
        }
      ],
      "stateMutability": "view",
      "type": "function"
    },
    {
      "inputs": [
        {
          "components": [
            {
              "internalType": "address",
              "name": "srcToken",
              "type": "address"
            },
            {
              "internalType": "address",
              "name": "destToken",
              "type": "address"
            },
            {
              "internalType": "address",
              "name": "srcEToken",
              "type": "address"
            },
            {
              "internalType": "address",
              "name": "destEToken",
              "type": "address"
            },
            {
              "internalType": "uint256",
              "name": "amountIn",
              "type": "uint256"
            },
            {
              "internalType": "uint256",
              "name": "amountInMint",
              "type": "uint256"
            },
            {
              "internalType": "uint256",
              "name": "fulfiled",
              "type": "uint256"
            },
            {
              "internalType": "uint256",
              "name": "guaranteeAmountIn",
              "type": "uint256"
            },
            {
              "internalType": "uint256",
              "name": "destFulfiled",
              "type": "uint256"
            }
          ],
          "internalType": "struct DataTypes.TokenAmount",
          "name": "data",
          "type": "tuple"
        },
        {
          "internalType": "uint256",
          "name": "amtToTaken",
          "type": "uint256"
        }
      ],
      "name": "convertBuyAmountByETokenIn",
      "outputs": [
        {
          "internalType": "uint256",
          "name": "",
          "type": "uint256"
        }
      ],
      "stateMutability": "view",
      "type": "function"
    },
    {
      "inputs": [
        {
          "internalType": "contract ICToken",
          "name": "ctoken",
          "type": "ICToken"
        }
      ],
      "name": "getCurrentExchangeRate",
      "outputs": [
        {
          "internalType": "uint256",
          "name": "",
          "type": "uint256"
        }
      ],
      "stateMutability": "view",
      "type": "function"
    }
  ],
  "bytecode": "0x61083b610026600b82828239805160001a60731461001957fe5b30600052607381538281f3fe73000000000000000000000000000000000000000030146080604052600436106100565760003560e01c80630bbc1cea1461005b578063271ca3c91461009157806378cbe051146100a4578063b5138f4e146100b7575b600080fd5b81801561006757600080fd5b5061007b6100763660046105e6565b6100d8565b60405161008891906107af565b60405180910390f35b61007b61009f3660046105e6565b610153565b61007b6100b2366004610602565b6102ee565b6100ca6100c5366004610596565b61039d565b6040516100889291906107b8565b6000816001600160a01b031663bd6d894d6040518163ffffffff1660e01b8152600401602060405180830381600087803b15801561011557600080fd5b505af1158015610129573d6000803e3d6000fd5b505050506040513d601f19601f8201168201806040525081019061014d91906106b0565b92915050565b600080826001600160a01b031663182df0f56040518163ffffffff1660e01b815260040160206040518083038186803b15801561018f57600080fd5b505afa1580156101a3573d6000803e3d6000fd5b505050506040513d601f19601f820116820180604052508101906101c791906106b0565b90506000836001600160a01b031663ae9d70b06040518163ffffffff1660e01b815260040160206040518083038186803b15801561020457600080fd5b505afa158015610218573d6000803e3d6000fd5b505050506040513d601f19601f8201168201806040525081019061023c91906106b0565b90506000846001600160a01b0316636c540baf6040518163ffffffff1660e01b815260040160206040518083038186803b15801561027957600080fd5b505afa15801561028d573d6000803e3d6000fd5b505050506040513d601f19601f820116820180604052508101906102b191906106b0565b905060006102bf4383610435565b905060006102d7826102d1878761047e565b9061047e565b90506102e385826104c1565b979650505050505050565b60208201516060830151600091906001600160a01b03808316908216141561034957610340600161033a8760a001516103348960e001518961047e90919063ffffffff16565b906104e6565b906104c1565b9250505061014d565b600061035482610153565b9050600061037b82610334670de0b6b3a76400008a60e0015161047e90919063ffffffff16565b90506102e3600161033a8960a00151610334858b61047e90919063ffffffff16565b60008060006103ab87610153565b9050866001600160a01b0316886001600160a01b031614156103e1576103da600161033a88610334888a61047e565b9250610412565b60006103f98261033488670de0b6b3a764000061047e565b905061040e600161033a89610334898661047e565b9350505b610428670de0b6b3a7640000610334858461047e565b9150509550959350505050565b600061047783836040518060400160405280601e81526020017f536166654d6174683a207375627472616374696f6e206f766572666c6f770000815250610528565b9392505050565b60008261048d5750600061014d565b8282028284828161049a57fe5b04146104775760405162461bcd60e51b81526004016104b890610752565b60405180910390fd5b6000828201838110156104775760405162461bcd60e51b81526004016104b89061071b565b600061047783836040518060400160405280601a81526020017f536166654d6174683a206469766973696f6e206279207a65726f000000000000815250610554565b6000818484111561054c5760405162461bcd60e51b81526004016104b891906106c8565b505050900390565b600081836105755760405162461bcd60e51b81526004016104b891906106c8565b50600083858161058157fe5b0495945050505050565b803561014d816107ed565b600080600080600060a086880312156105ad578081fd5b85356105b8816107ed565b945060208601356105c8816107ed565b94979496505050506040830135926060810135926080909101359150565b6000602082840312156105f7578081fd5b8135610477816107ed565b600080828403610140811215610616578283fd5b61012080821215610625578384fd5b61062e816107c6565b915061063a868661058b565b8252610649866020870161058b565b602083015261065b866040870161058b565b604083015261066d866060870161058b565b60608301526080858101359083015260a0808601359083015260c0808601359083015260e080860135908301526101008086013590830152909593013593505050565b6000602082840312156106c1578081fd5b5051919050565b6000602080835283518082850152825b818110156106f4578581018301518582016040015282016106d8565b818111156107055783604083870101525b50601f01601f1916929092016040019392505050565b6020808252601b908201527f536166654d6174683a206164646974696f6e206f766572666c6f770000000000604082015260600190565b60208082526021908201527f536166654d6174683a206d756c7469706c69636174696f6e206f766572666c6f60408201527f7700000000000000000000000000000000000000000000000000000000000000606082015260800190565b90815260200190565b918252602082015260400190565b60405181810167ffffffffffffffff811182821017156107e557600080fd5b604052919050565b6001600160a01b038116811461080257600080fd5b5056fea2646970667358221220ccfc56ded00c9c2cde7cf93dc59343cfbe12dc8e0098fe887dfa86bc97695d9764736f6c634300060c0033",
  "linkReferences": {},
  "deployedLinkReferences": {}
}