{
  "_format": "hh-sol-artifact-1",
  "contractName": "OrderBook",
  "sourceName": "contracts/swap/orderbook/Orderbook.sol",
  "abi": [
    {
      "inputs": [
        {
          "internalType": "address",
          "name": "_ctokenFactory",
          "type": "address"
        },
        {
          "internalType": "address",
          "name": "_cETH",
          "type": "address"
        },
        {
          "internalType": "address",
          "name": "_wETH",
          "type": "address"
        },
        {
          "internalType": "address",
          "name": "_margin",
          "type": "address"
        }
      ],
      "stateMutability": "payable",
      "type": "constructor"
    },
    {
      "anonymous": false,
      "inputs": [
        {
          "indexed": true,
          "internalType": "address",
          "name": "owner",
          "type": "address"
        },
        {
          "indexed": true,
          "internalType": "address",
          "name": "srcToken",
          "type": "address"
        },
        {
          "indexed": true,
          "internalType": "address",
          "name": "destToken",
          "type": "address"
        },
        {
          "indexed": false,
          "internalType": "uint256",
          "name": "orderId",
          "type": "uint256"
        }
      ],
      "name": "CancelOrder",
      "type": "event"
    },
    {
      "anonymous": false,
      "inputs": [
        {
          "indexed": true,
          "internalType": "address",
          "name": "owner",
          "type": "address"
        },
        {
          "indexed": true,
          "internalType": "address",
          "name": "srcToken",
          "type": "address"
        },
        {
          "indexed": true,
          "internalType": "address",
          "name": "destToken",
          "type": "address"
        },
        {
          "indexed": false,
          "internalType": "uint256",
          "name": "orderId",
          "type": "uint256"
        },
        {
          "indexed": false,
          "internalType": "uint256",
          "name": "amountIn",
          "type": "uint256"
        },
        {
          "indexed": false,
          "internalType": "uint256",
          "name": "minAmountOut",
          "type": "uint256"
        },
        {
          "indexed": false,
          "internalType": "uint256",
          "name": "flag",
          "type": "uint256"
        }
      ],
      "name": "CreateOrder",
      "type": "event"
    },
    {
      "anonymous": false,
      "inputs": [
        {
          "indexed": true,
          "internalType": "address",
          "name": "maker",
          "type": "address"
        },
        {
          "indexed": true,
          "internalType": "address",
          "name": "taker",
          "type": "address"
        },
        {
          "indexed": false,
          "internalType": "uint256",
          "name": "orderId",
          "type": "uint256"
        },
        {
          "indexed": false,
          "internalType": "uint256",
          "name": "amt",
          "type": "uint256"
        },
        {
          "indexed": false,
          "internalType": "uint256",
          "name": "amtOut",
          "type": "uint256"
        },
        {
          "indexed": false,
          "internalType": "uint256",
          "name": "remaining",
          "type": "uint256"
        }
      ],
      "name": "FulFilOrder",
      "type": "event"
    },
    {
      "anonymous": false,
      "inputs": [
        {
          "indexed": true,
          "internalType": "address",
          "name": "previousOwner",
          "type": "address"
        },
        {
          "indexed": true,
          "internalType": "address",
          "name": "newOwner",
          "type": "address"
        }
      ],
      "name": "OwnershipTransferred",
      "type": "event"
    },
    {
      "inputs": [],
      "name": "DENOMINATOR",
      "outputs": [
        {
          "internalType": "uint256",
          "name": "",
          "type": "uint256"
        }
      ],
      "stateMutability": "view",
      "type": "function"
    },
    {
      "inputs": [
        {
          "internalType": "uint256",
          "name": "id",
          "type": "uint256"
        }
      ],
      "name": "addrIndex",
      "outputs": [
        {
          "internalType": "uint256",
          "name": "",
          "type": "uint256"
        }
      ],
      "stateMutability": "pure",
      "type": "function"
    },
    {
      "inputs": [
        {
          "internalType": "address",
          "name": "",
          "type": "address"
        },
        {
          "internalType": "uint256",
          "name": "",
          "type": "uint256"
        }
      ],
      "name": "addressOrders",
      "outputs": [
        {
          "internalType": "uint256",
          "name": "",
          "type": "uint256"
        }
      ],
      "stateMutability": "view",
      "type": "function"
    },
    {
      "inputs": [
        {
          "internalType": "address",
          "name": "token",
          "type": "address"
        },
        {
          "internalType": "address",
          "name": "to",
          "type": "address"
        },
        {
          "internalType": "uint256",
          "name": "amt",
          "type": "uint256"
        }
      ],
      "name": "adminTransfer",
      "outputs": [],
      "stateMutability": "nonpayable",
      "type": "function"
    },
    {
      "inputs": [
        {
          "internalType": "address",
          "name": "",
          "type": "address"
        },
        {
          "internalType": "address",
          "name": "",
          "type": "address"
        }
      ],
      "name": "balanceOf",
      "outputs": [
        {
          "internalType": "uint256",
          "name": "",
          "type": "uint256"
        }
      ],
      "stateMutability": "view",
      "type": "function"
    },
    {
      "inputs": [],
      "name": "cETH",
      "outputs": [
        {
          "internalType": "address",
          "name": "",
          "type": "address"
        }
      ],
      "stateMutability": "view",
      "type": "function"
    },
    {
      "inputs": [
        {
          "internalType": "uint256",
          "name": "orderId",
          "type": "uint256"
        }
      ],
      "name": "cancelOrder",
      "outputs": [],
      "stateMutability": "nonpayable",
      "type": "function"
    },
    {
      "inputs": [],
      "name": "closeOrderBook",
      "outputs": [],
      "stateMutability": "nonpayable",
      "type": "function"
    },
    {
      "inputs": [],
      "name": "closed",
      "outputs": [
        {
          "internalType": "bool",
          "name": "",
          "type": "bool"
        }
      ],
      "stateMutability": "view",
      "type": "function"
    },
    {
      "inputs": [
        {
          "internalType": "address",
          "name": "srcToken",
          "type": "address"
        },
        {
          "internalType": "address",
          "name": "destToken",
          "type": "address"
        },
        {
          "internalType": "address",
          "name": "to",
          "type": "address"
        },
        {
          "internalType": "uint256",
          "name": "amountIn",
          "type": "uint256"
        },
        {
          "internalType": "uint256",
          "name": "guaranteeAmountOut",
          "type": "uint256"
        },
        {
          "internalType": "uint256",
          "name": "flag",
          "type": "uint256"
        }
      ],
      "name": "createOrder",
      "outputs": [
        {
          "internalType": "uint256",
          "name": "",
          "type": "uint256"
        }
      ],
      "stateMutability": "payable",
      "type": "function"
    },
    {
      "inputs": [],
      "name": "ctokenFactory",
      "outputs": [
        {
          "internalType": "address",
          "name": "",
          "type": "address"
        }
      ],
      "stateMutability": "view",
      "type": "function"
    },
    {
      "inputs": [],
      "name": "defaultFeeMaker",
      "outputs": [
        {
          "internalType": "uint256",
          "name": "",
          "type": "uint256"
        }
      ],
      "stateMutability": "view",
      "type": "function"
    },
    {
      "inputs": [],
      "name": "defaultFeeTaker",
      "outputs": [
        {
          "internalType": "uint256",
          "name": "",
          "type": "uint256"
        }
      ],
      "stateMutability": "view",
      "type": "function"
    },
    {
      "inputs": [],
      "name": "feeTo",
      "outputs": [
        {
          "internalType": "address",
          "name": "",
          "type": "address"
        }
      ],
      "stateMutability": "view",
      "type": "function"
    },
    {
      "inputs": [
        {
          "internalType": "uint256",
          "name": "orderId",
          "type": "uint256"
        },
        {
          "internalType": "uint256",
          "name": "amtToTaken",
          "type": "uint256"
        },
        {
          "internalType": "address",
          "name": "to",
          "type": "address"
        },
        {
          "internalType": "bool",
          "name": "isToken",
          "type": "bool"
        },
        {
          "internalType": "bool",
          "name": "partialFill",
          "type": "bool"
        },
        {
          "internalType": "bytes",
          "name": "data",
          "type": "bytes"
        }
      ],
      "name": "fulfilOrder",
      "outputs": [
        {
          "components": [
            {
              "internalType": "bool",
              "name": "isToken",
              "type": "bool"
            },
            {
              "internalType": "uint256",
              "name": "filled",
              "type": "uint256"
            },
            {
              "internalType": "uint256",
              "name": "takerAmt",
              "type": "uint256"
            },
            {
              "internalType": "uint256",
              "name": "takerAmtToken",
              "type": "uint256"
            },
            {
              "internalType": "uint256",
              "name": "makerAmt",
              "type": "uint256"
            },
            {
              "internalType": "uint256",
              "name": "amtDest",
              "type": "uint256"
            },
            {
              "internalType": "uint256",
              "name": "amtDestToken",
              "type": "uint256"
            }
          ],
          "internalType": "struct OrderBook.FulFilAmt",
          "name": "fulFilAmt",
          "type": "tuple"
        }
      ],
      "stateMutability": "payable",
      "type": "function"
    },
    {
      "inputs": [],
      "name": "getAllOrders",
      "outputs": [
        {
          "components": [
            {
              "internalType": "uint256",
              "name": "orderId",
              "type": "uint256"
            },
            {
              "internalType": "uint256",
              "name": "pairAddrIdx",
              "type": "uint256"
            },
            {
              "internalType": "uint256",
              "name": "pair",
              "type": "uint256"
            },
            {
              "internalType": "uint256",
              "name": "timestamp",
              "type": "uint256"
            },
            {
              "internalType": "uint256",
              "name": "flag",
              "type": "uint256"
            },
            {
              "internalType": "address",
              "name": "owner",
              "type": "address"
            },
            {
              "internalType": "address",
              "name": "to",
              "type": "address"
            },
            {
              "components": [
                {
                  "internalType": "address",
                  "name": "srcToken",
                  "type": "address"
                },
                {
                  "internalType": "address",
                  "name": "destToken",
                  "type": "address"
                },
                {
                  "internalType": "address",
                  "name": "srcEToken",
                  "type": "address"
                },
                {
                  "internalType": "address",
                  "name": "destEToken",
                  "type": "address"
                },
                {
                  "internalType": "uint256",
                  "name": "amountIn",
                  "type": "uint256"
                },
                {
                  "internalType": "uint256",
                  "name": "amountInMint",
                  "type": "uint256"
                },
                {
                  "internalType": "uint256",
                  "name": "fulfiled",
                  "type": "uint256"
                },
                {
                  "internalType": "uint256",
                  "name": "guaranteeAmountOut",
                  "type": "uint256"
                }
              ],
              "internalType": "struct DataTypes.TokenAmount",
              "name": "tokenAmt",
              "type": "tuple"
            }
          ],
          "internalType": "struct DataTypes.OrderItem[]",
          "name": "allOrders",
          "type": "tuple[]"
        }
      ],
      "stateMutability": "view",
      "type": "function"
    },
    {
      "inputs": [
        {
          "internalType": "uint256",
          "name": "pair",
          "type": "uint256"
        }
      ],
      "name": "getMakerFeeRate",
      "outputs": [
        {
          "internalType": "uint256",
          "name": "",
          "type": "uint256"
        }
      ],
      "stateMutability": "view",
      "type": "function"
    },
    {
      "inputs": [
        {
          "internalType": "uint256",
          "name": "pair",
          "type": "uint256"
        }
      ],
      "name": "getTakerFeeRate",
      "outputs": [
        {
          "internalType": "uint256",
          "name": "",
          "type": "uint256"
        }
      ],
      "stateMutability": "view",
      "type": "function"
    },
    {
      "inputs": [
        {
          "internalType": "uint256",
          "name": "flag",
          "type": "uint256"
        }
      ],
      "name": "isMargin",
      "outputs": [
        {
          "internalType": "bool",
          "name": "",
          "type": "bool"
        }
      ],
      "stateMutability": "pure",
      "type": "function"
    },
    {
      "inputs": [],
      "name": "marginAddr",
      "outputs": [
        {
          "internalType": "address",
          "name": "",
          "type": "address"
        }
      ],
      "stateMutability": "view",
      "type": "function"
    },
    {
      "inputs": [
        {
          "internalType": "address",
          "name": "",
          "type": "address"
        },
        {
          "internalType": "uint256",
          "name": "",
          "type": "uint256"
        }
      ],
      "name": "marginOrders",
      "outputs": [
        {
          "internalType": "uint256",
          "name": "",
          "type": "uint256"
        }
      ],
      "stateMutability": "view",
      "type": "function"
    },
    {
      "inputs": [
        {
          "internalType": "uint256",
          "name": "pairIdx",
          "type": "uint256"
        },
        {
          "internalType": "uint256",
          "name": "addrIdx",
          "type": "uint256"
        }
      ],
      "name": "maskAddrPairIndex",
      "outputs": [
        {
          "internalType": "uint256",
          "name": "",
          "type": "uint256"
        }
      ],
      "stateMutability": "pure",
      "type": "function"
    },
    {
      "inputs": [
        {
          "internalType": "address",
          "name": "",
          "type": "address"
        }
      ],
      "name": "minAmounts",
      "outputs": [
        {
          "internalType": "uint256",
          "name": "",
          "type": "uint256"
        }
      ],
      "stateMutability": "view",
      "type": "function"
    },
    {
      "inputs": [],
      "name": "openOrderBook",
      "outputs": [],
      "stateMutability": "nonpayable",
      "type": "function"
    },
    {
      "inputs": [],
      "name": "orderId",
      "outputs": [
        {
          "internalType": "uint256",
          "name": "",
          "type": "uint256"
        }
      ],
      "stateMutability": "view",
      "type": "function"
    },
    {
      "inputs": [
        {
          "internalType": "uint256",
          "name": "",
          "type": "uint256"
        }
      ],
      "name": "orders",
      "outputs": [
        {
          "internalType": "uint256",
          "name": "orderId",
          "type": "uint256"
        },
        {
          "internalType": "uint256",
          "name": "pairAddrIdx",
          "type": "uint256"
        },
        {
          "internalType": "uint256",
          "name": "pair",
          "type": "uint256"
        },
        {
          "internalType": "uint256",
          "name": "timestamp",
          "type": "uint256"
        },
        {
          "internalType": "uint256",
          "name": "flag",
          "type": "uint256"
        },
        {
          "internalType": "address",
          "name": "owner",
          "type": "address"
        },
        {
          "internalType": "address",
          "name": "to",
          "type": "address"
        },
        {
          "components": [
            {
              "internalType": "address",
              "name": "srcToken",
              "type": "address"
            },
            {
              "internalType": "address",
              "name": "destToken",
              "type": "address"
            },
            {
              "internalType": "address",
              "name": "srcEToken",
              "type": "address"
            },
            {
              "internalType": "address",
              "name": "destEToken",
              "type": "address"
            },
            {
              "internalType": "uint256",
              "name": "amountIn",
              "type": "uint256"
            },
            {
              "internalType": "uint256",
              "name": "amountInMint",
              "type": "uint256"
            },
            {
              "internalType": "uint256",
              "name": "fulfiled",
              "type": "uint256"
            },
            {
              "internalType": "uint256",
              "name": "guaranteeAmountOut",
              "type": "uint256"
            }
          ],
          "internalType": "struct DataTypes.TokenAmount",
          "name": "tokenAmt",
          "type": "tuple"
        }
      ],
      "stateMutability": "view",
      "type": "function"
    },
    {
      "inputs": [],
      "name": "owner",
      "outputs": [
        {
          "internalType": "address",
          "name": "",
          "type": "address"
        }
      ],
      "stateMutability": "view",
      "type": "function"
    },
    {
      "inputs": [
        {
          "internalType": "uint256",
          "name": "",
          "type": "uint256"
        }
      ],
      "name": "pairFeeRate",
      "outputs": [
        {
          "internalType": "uint256",
          "name": "data",
          "type": "uint256"
        }
      ],
      "stateMutability": "view",
      "type": "function"
    },
    {
      "inputs": [
        {
          "internalType": "address",
          "name": "srcToken",
          "type": "address"
        },
        {
          "internalType": "address",
          "name": "destToken",
          "type": "address"
        }
      ],
      "name": "pairFor",
      "outputs": [
        {
          "internalType": "uint256",
          "name": "pair",
          "type": "uint256"
        }
      ],
      "stateMutability": "view",
      "type": "function"
    },
    {
      "inputs": [
        {
          "internalType": "uint256",
          "name": "id",
          "type": "uint256"
        }
      ],
      "name": "pairIndex",
      "outputs": [
        {
          "internalType": "uint256",
          "name": "",
          "type": "uint256"
        }
      ],
      "stateMutability": "pure",
      "type": "function"
    },
    {
      "inputs": [
        {
          "internalType": "uint256",
          "name": "",
          "type": "uint256"
        },
        {
          "internalType": "uint256",
          "name": "",
          "type": "uint256"
        }
      ],
      "name": "pairOrders",
      "outputs": [
        {
          "internalType": "uint256",
          "name": "",
          "type": "uint256"
        }
      ],
      "stateMutability": "view",
      "type": "function"
    },
    {
      "inputs": [],
      "name": "renounceOwnership",
      "outputs": [],
      "stateMutability": "nonpayable",
      "type": "function"
    },
    {
      "inputs": [
        {
          "internalType": "address",
          "name": "to",
          "type": "address"
        }
      ],
      "name": "setFeeTo",
      "outputs": [],
      "stateMutability": "nonpayable",
      "type": "function"
    },
    {
      "inputs": [
        {
          "internalType": "address",
          "name": "token",
          "type": "address"
        },
        {
          "internalType": "uint256",
          "name": "amt",
          "type": "uint256"
        }
      ],
      "name": "setMinOrderAmount",
      "outputs": [],
      "stateMutability": "nonpayable",
      "type": "function"
    },
    {
      "inputs": [
        {
          "internalType": "address",
          "name": "src",
          "type": "address"
        },
        {
          "internalType": "address",
          "name": "dest",
          "type": "address"
        },
        {
          "internalType": "uint256",
          "name": "fee",
          "type": "uint256"
        }
      ],
      "name": "setPairMakerFee",
      "outputs": [],
      "stateMutability": "nonpayable",
      "type": "function"
    },
    {
      "inputs": [
        {
          "internalType": "address",
          "name": "src",
          "type": "address"
        },
        {
          "internalType": "address",
          "name": "dest",
          "type": "address"
        },
        {
          "internalType": "uint256",
          "name": "fee",
          "type": "uint256"
        }
      ],
      "name": "setPairTakerFee",
      "outputs": [],
      "stateMutability": "nonpayable",
      "type": "function"
    },
    {
      "inputs": [
        {
          "internalType": "address",
          "name": "newOwner",
          "type": "address"
        }
      ],
      "name": "transferOwnership",
      "outputs": [],
      "stateMutability": "nonpayable",
      "type": "function"
    },
    {
      "inputs": [
        {
          "internalType": "uint256",
          "name": "idx",
          "type": "uint256"
        },
        {
          "internalType": "uint256",
          "name": "addrIdx",
          "type": "uint256"
        }
      ],
      "name": "updateAddrIdx",
      "outputs": [
        {
          "internalType": "uint256",
          "name": "",
          "type": "uint256"
        }
      ],
      "stateMutability": "pure",
      "type": "function"
    },
    {
      "inputs": [
        {
          "internalType": "uint256",
          "name": "idx",
          "type": "uint256"
        },
        {
          "internalType": "uint256",
          "name": "pairIdx",
          "type": "uint256"
        }
      ],
      "name": "updatePairIdx",
      "outputs": [
        {
          "internalType": "uint256",
          "name": "",
          "type": "uint256"
        }
      ],
      "stateMutability": "pure",
      "type": "function"
    },
    {
      "inputs": [],
      "name": "wETH",
      "outputs": [
        {
          "internalType": "address",
          "name": "",
          "type": "address"
        }
      ],
      "stateMutability": "view",
      "type": "function"
    },
    {
      "inputs": [
        {
          "internalType": "address",
          "name": "token",
          "type": "address"
        },
        {
          "internalType": "uint256",
          "name": "amt",
          "type": "uint256"
        }
      ],
      "name": "withdraw",
      "outputs": [],
      "stateMutability": "nonpayable",
      "type": "function"
    },
    {
      "inputs": [
        {
          "internalType": "address",
          "name": "token",
          "type": "address"
        },
        {
          "internalType": "uint256",
          "name": "amt",
          "type": "uint256"
        }
      ],
      "name": "withdrawUnderlying",
      "outputs": [],
      "stateMutability": "nonpayable",
      "type": "function"
    },
    {
      "stateMutability": "payable",
      "type": "receive"
    }
  ],
  "bytecode": "0x6080604052601e600755601e60085560405162004be438038062004be4833981016040819052620000309162000125565b60006200003c62000103565b600080546001600160a01b0319166001600160a01b0383169081178255604051929350917f8be0079c531659141344cd1fd0a4f28419497f9722a3daafe3b4186f6b6457e0908290a3506010805460ff19166001179055600380546001600160a01b039485166001600160a01b0319918216179091556002805493851661010002610100600160a81b031990941693909317909255600580549184169183169190911790556004805493909216928116929092179055600680549091163317905562000185565b3390565b80516001600160a01b03811681146200011f57600080fd5b92915050565b600080600080608085870312156200013b578384fd5b62000147868662000107565b935062000158866020870162000107565b925062000169866040870162000107565b91506200017a866060870162000107565b905092959194509250565b614a4f80620001956000396000f3fe6080604052600436106102d55760003560e01c80638da5cb5b11610179578063c0e863c3116100d6578063f3fef3a31161008a578063f7d5b2d911610064578063f7d5b2d914610762578063fbd2eb7c14610782578063fdb87252146107a2576102dc565b8063f3fef3a314610702578063f46901ed14610722578063f7888aec14610742576102dc565b8063da72c1e8116100bb578063da72c1e8146106ad578063f2428621146106cd578063f2fde38b146106e2576102dc565b8063c0e863c31461066d578063d7755b8b1461068d576102dc565b80639c7ad7f41161012d578063a66eb9ac11610112578063a66eb9ac14610604578063a85c38ef14610619578063ac6f0cc81461064d576102dc565b80639c7ad7f4146105cf578063a1b4d011146105ef576102dc565b806396ed28f91161015e57806396ed28f91461056f57806399117be91461058f5780639c5e52d5146105af576102dc565b80638da5cb5b14610545578063918f86741461055a576102dc565b8063584c617e11610232578063715018a6116101e65780637bea0d1c116101c05780637bea0d1c146104ee578063803289fe14610510578063862d77ba14610525576102dc565b8063715018a6146104a657806375bca923146104bb5780637623cccb146104ce576102dc565b8063613436bc11610217578063613436bc14610446578063683b6d29146104665780636d0b6a6c14610486576102dc565b8063584c617e1461040f578063597e1fb514610424576102dc565b80632c58870b11610289578063514fcac71161026e578063514fcac7146103b8578063523439e6146103da57806352e86d5b146103ef576102dc565b80632c58870b1461038357806345e66071146103a3576102dc565b80631cf60222116102ba5780631cf602221461032e5780631d20980a1461034e57806325c9e2761461036e576102dc565b8063017e7e58146102e1578063163de5e51461030c576102dc565b366102dc57005b600080fd5b3480156102ed57600080fd5b506102f66107c2565b60405161030391906140b7565b60405180910390f35b34801561031857600080fd5b506103216107d1565b60405161030391906148d9565b34801561033a57600080fd5b50610321610349366004613e98565b6107d7565b34801561035a57600080fd5b50610321610369366004613edf565b610805565b34801561037a57600080fd5b506102f661081e565b34801561038f57600080fd5b5061032161039e366004613edf565b61082d565b3480156103af57600080fd5b506102f661083f565b3480156103c457600080fd5b506103d86103d3366004613edf565b61084e565b005b3480156103e657600080fd5b50610321611122565b3480156103fb57600080fd5b5061032161040a366004613f0f565b611128565b34801561041b57600080fd5b50610321611141565b34801561043057600080fd5b50610439611147565b6040516103039190614266565b34801561045257600080fd5b50610321610461366004613edf565b611150565b34801561047257600080fd5b506103d8610481366004613e58565b611156565b34801561049257600080fd5b506103216104a1366004613f0f565b61122c565b3480156104b257600080fd5b506103d861124a565b6103216104c9366004613df4565b6112d3565b3480156104da57600080fd5b506104396104e9366004613edf565b61195f565b3480156104fa57600080fd5b50610503611986565b60405161030391906141bc565b34801561051c57600080fd5b506103d8611b53565b34801561053157600080fd5b50610321610540366004613f0f565b611b9e565b34801561055157600080fd5b506102f6611bb8565b34801561056657600080fd5b50610321611bc7565b34801561057b57600080fd5b5061032161058a366004613dbc565b611bcd565b34801561059b57600080fd5b506103216105aa366004613edf565b611bf0565b3480156105bb57600080fd5b506103216105ca366004613d84565b611cb9565b3480156105db57600080fd5b506103d86105ea366004613e58565b611ccb565b3480156105fb57600080fd5b506102f6611d6b565b34801561061057600080fd5b506103d8611d7a565b34801561062557600080fd5b50610639610634366004613edf565b611dc8565b604051610303989796959493929190614928565b34801561065957600080fd5b50610321610668366004613edf565b611e76565b34801561067957600080fd5b506103d8610688366004613e98565b611f35565b34801561069957600080fd5b506103216106a8366004613f0f565b611f90565b3480156106b957600080fd5b506103d86106c8366004613e58565b611f97565b3480156106d957600080fd5b506102f6612003565b3480156106ee57600080fd5b506103d86106fd366004613d84565b612017565b34801561070e57600080fd5b506103d861071d366004613e98565b6120d7565b34801561072e57600080fd5b506103d861073d366004613d84565b612127565b34801561074e57600080fd5b5061032161075d366004613dbc565b612188565b610775610770366004613f30565b6121a5565b6040516103039190614889565b34801561078e57600080fd5b5061032161079d366004613e98565b612781565b3480156107ae57600080fd5b506103d86107bd366004613e98565b61279a565b6006546001600160a01b031681565b60015481565b600d60205281600052604060002081815481106107f057fe5b90600052602060002001600091509150505481565b6fffffffffffffffffffffffffffffffff81165b919050565b6004546001600160a01b031681565b60096020526000908152604090205481565b6005546001600160a01b031681565b60105460ff166108795760405162461bcd60e51b815260040161087090614852565b60405180910390fd5b6010805460ff191690556000818152600c6020526040812060048101549091906108a29061195f565b905080156108fc576108b2611bb8565b6001600160a01b0316336001600160a01b031614806108db57506005546001600160a01b031633145b6108f75760405162461bcd60e51b8152600401610870906146ab565b61094b565b610904611bb8565b6001600160a01b0316336001600160a01b0316148061092f575060058201546001600160a01b031633145b61094b5760405162461bcd60e51b815260040161087090614572565b61095882600401546127ff565b156109755760405162461bcd60e51b8152600401610870906145a9565b60078201546009830154600d840154600c8501546001600160a01b0393841693909216916000916109a69190612807565b9050816001600160a01b0316836001600160a01b031614610e2957808015610e23576003546000906001600160a01b0385811691161415610bfc5760408051808201909152600c81527f72656465656d20634554483a000000000000000000000000000000000000000060208201526003546005890154610a3492916001600160a01b039081169116612849565b604080518082018252601681527f636173483a2025642072656465656d416d743a2025640000000000000000000060208083019190915260035483517f3b1d21a20000000000000000000000000000000000000000000000000000000081529351610b04946001600160a01b0390921692633b1d21a29260048082019391829003018186803b158015610ac657600080fd5b505afa158015610ada573d6000803e3d6000fd5b505050506040513d601f19601f82011682018060405250810190610afe9190613ef7565b846128a9565b5060035460405163db006a7560e01b815247916000916001600160a01b039091169063db006a7590610b3a9086906004016148d9565b602060405180830381600087803b158015610b5457600080fd5b505af1158015610b68573d6000803e3d6000fd5b505050506040513d601f19601f82011682018060405250810190610b8c9190613ef7565b9050610bce6040518060400160405280600c81526020017f72656465656d20636574683a000000000000000000000000000000000000000081525082856128a9565b6000610bda4784612807565b60058a0154909150610bf5906001600160a01b031682612909565b5050610e21565b610c3c6040518060400160405280600d81526020017f72656465656d20746f6b656e3a000000000000000000000000000000000000008152508584612996565b6040516370a0823160e01b81526001600160a01b038616906370a0823190610c689030906004016140b7565b60206040518083038186803b158015610c8057600080fd5b505afa158015610c94573d6000803e3d6000fd5b505050506040513d601f19601f82011682018060405250810190610cb89190613ef7565b60405163db006a7560e01b81529091506001600160a01b0385169063db006a7590610ce79085906004016148d9565b602060405180830381600087803b158015610d0157600080fd5b505af1158015610d15573d6000803e3d6000fd5b505050506040513d601f19601f82011682018060405250810190610d399190613ef7565b506000610dc282876001600160a01b03166370a08231306040518263ffffffff1660e01b8152600401610d6c91906140b7565b60206040518083038186803b158015610d8457600080fd5b505afa158015610d98573d6000803e3d6000fd5b505050506040513d601f19601f82011682018060405250810190610dbc9190613ef7565b90612807565b6005890154909150610ddf9087906001600160a01b0316836129f6565b610e1f6040518060400160405280601481526020017f72656465656d20746f6b656e20737563636573730000000000000000000000008152508685612996565b505b505b50610e43565b6005850154610e439084906001600160a01b0316836129f6565b83610f3257600a85015460088601546001600160a01b039182166000818152600b6020908152604080832060068c0154871684529091529020549092909116908015610f2a5760408051808201909152601b81527f77697468647261772066756c66696c656420746f206d616b65723a000000000060208201526006890154610ed691906001600160a01b031683612996565b816001600160a01b0316836001600160a01b03161415610f0f576006880154610f0a906001600160a01b0316848380612ae4565b610f2a565b6006880154610f2a906001600160a01b031683858480612b2b565b505050610fc9565b6005546006860154600887015460078801546040517fb7d9d9d40000000000000000000000000000000000000000000000000000000081526001600160a01b039485169463b7d9d9d494610f96949082169389939183169216908890600401614118565b600060405180830381600087803b158015610fb057600080fd5b505af1158015610fc4573d6000803e3d6000fd5b505050505b6008850154600786015460058701546040516001600160a01b039384169392831692909116907fa263a8e516fa313745abfe43252b015249ad3c987ae268d37531ce67364d7acf9061101c908b906148d9565b60405180910390a4600485018054600190811791829055604080516101008082018352895482529289015460208083019190915260028a01548284015260038a015460608084019190915260808084019690965260058b01546001600160a01b0390811660a08086019190915260068d0154821660c0808701919091528651978801875260078e01548316885260088e015483169488019490945260098d0154821695870195909552600a8c01541690850152600b8a015494840194909452600c89015491830191909152600d88015492820192909252600e87015460e08281019190915282015261110d90612d54565b50506010805460ff1916600117905550505050565b60075481565b600f60205281600052604060002081815481106107f057fe5b60085481565b60025460ff1681565b60801c90565b61115e6130fd565b6001600160a01b031661116f611bb8565b6001600160a01b0316146111955760405162461bcd60e51b815260040161087090614506565b60006111a18484613101565b6040517f24637ce000000000000000000000000000000000000000000000000000000000815290915073__$95c6f8e4159971276d72925c2dc3de45f7$__906324637ce0906111f690849086906004016148e2565b60006040518083038186803b15801561120e57600080fd5b505af4158015611222573d6000803e3d6000fd5b5050505050505050565b600061123782611150565b61124084610805565b1790505b92915050565b6112526130fd565b6001600160a01b0316611263611bb8565b6001600160a01b0316146112895760405162461bcd60e51b815260040161087090614506565b600080546040516001600160a01b03909116907f8be0079c531659141344cd1fd0a4f28419497f9722a3daafe3b4186f6b6457e0908390a3600080546001600160a01b0319169055565b60025460009060ff16156112f95760405162461bcd60e51b8152600401610870906146e2565b60105460ff1661131b5760405162461bcd60e51b815260040161087090614852565b6010805460ff191690556001600160a01b0387811690871614156113515760405162461bcd60e51b815260040161087090614750565b6001600160a01b038716611384578334101561137f5760405162461bcd60e51b81526004016108709061453b565b611390565b61139087333087613140565b6001600160a01b0387166000908152600a602052604090205484116113c75760405162461bcd60e51b8152600401610870906145e0565b600180548082019091556000818152600c602052604090208181556005810180546001600160a01b031916331790556001600160a01b0387161561140b578661140d565b335b6006820180546001600160a01b0319166001600160a01b0392909216919091179055426003820155600481018490556000600d820181905561144e8a613231565b6007830180546001600160a01b03808e166001600160a01b03199283168117909355600986018054918516919092168117909155600b85018a90559192501461180c576001600160a01b038a166115cc576003546040516370a0823160e01b81526000916001600160a01b0316906370a08231906114d09030906004016140b7565b60206040518083038186803b1580156114e857600080fd5b505afa1580156114fc573d6000803e3d6000fd5b505050506040513d601f19601f820116820180604052508101906115209190613ef7565b9050600360009054906101000a90046001600160a01b03166001600160a01b0316631249c58b346040518263ffffffff1660e01b81526004016000604051808303818588803b15801561157257600080fd5b505af1158015611586573d6000803e3d6000fd5b50506003546040516370a0823160e01b81526115c194508593506001600160a01b0390911691506370a0823190610d6c9030906004016140b7565b600c84015550611807565b6040516370a0823160e01b81526000906001600160a01b038316906370a08231906115fb9030906004016140b7565b60206040518083038186803b15801561161357600080fd5b505afa158015611627573d6000803e3d6000fd5b505050506040513d601f19601f8201168201806040525081019061164b9190613ef7565b60405163095ea7b360e01b81529091506001600160a01b038c169063095ea7b39061167c9085908c906004016141a3565b602060405180830381600087803b15801561169657600080fd5b505af11580156116aa573d6000803e3d6000fd5b505050506040513d601f19601f820116820180604052508101906116ce9190613ec3565b5060405163140e25ad60e31b81526001600160a01b0383169063a0712d68906116fb908b906004016148d9565b602060405180830381600087803b15801561171557600080fd5b505af1158015611729573d6000803e3d6000fd5b505050506040513d601f19601f8201168201806040525081019061174d9190613ef7565b5060405163095ea7b360e01b81526001600160a01b0383169063095ea7b39061177d9085906000906004016141a3565b602060405180830381600087803b15801561179757600080fd5b505af11580156117ab573d6000803e3d6000fd5b505050506040513d601f19601f820116820180604052508101906117cf9190613ec3565b5061180081836001600160a01b03166370a08231306040518263ffffffff1660e01b8152600401610d6c91906140b7565b600c840155505b611814565b600c82018790555b6008820180546001600160a01b0319166001600160a01b038b16179055600061183c8a613231565b600a840180546001600160a01b038084166001600160a01b03199092168217909255600e86018a90559192508c811684821614908c16909114146118925760405162461bcd60e51b815260040161087090614787565b6005546001600160a01b031633141561192a576118ae8661195f565b6118ca5760405162461bcd60e51b815260040161087090614719565b8a6001600160a01b0316826001600160a01b0316146118fb5760405162461bcd60e51b815260040161087090614472565b600a8301546001600160a01b038b811691161461192a5760405162461bcd60e51b81526004016108709061443b565b611934828261343e565b600284015561194283613472565b5091925050506010805460ff191660011790559695505050505050565b7f800000000000000000000000000000000000000000000000000000000000000016151590565b606060008060005b6001548110156119c7576000818152600c60205260409020600401546119b3816127ff565b6119be576001909301925b5060010161198e565b508167ffffffffffffffff811180156119df57600080fd5b50604051908082528060200260200182016040528015611a1957816020015b611a06613c80565b8152602001906001900390816119fe5790505b50925060005b600154811015611b4d57611a31613c80565b506000818152600c6020818152604092839020835161010080820186528254825260018301548285015260028301548287015260038301546060808401919091526004840154608080850191825260058601546001600160a01b0390811660a0808801919091526006880154821660c0808901919091528b519687018c526007890154831687526008890154831699870199909952600988015482169a86019a909a52600a8701541692840192909252600b850154918301919091529483015495810195909552600d82015492850192909252600e015460e08481019190915281019290925251611b21906127ff565b611b445780858481518110611b3257fe5b60209081029190910101526001909201915b50600101611a1f565b50505090565b611b5b6130fd565b6001600160a01b0316611b6c611bb8565b6001600160a01b031614611b925760405162461bcd60e51b815260040161087090614506565b6002805460ff19169055565b6fffffffffffffffffffffffffffffffff19919091161790565b6000546001600160a01b031690565b61271081565b6000611be9611bdb846135a7565b611be4846135a7565b61343e565b9392505050565b60008181526009602052604080822090517f652bccd3000000000000000000000000000000000000000000000000000000008152829173__$95c6f8e4159971276d72925c2dc3de45f7$__9163652bccd391611c4e916004016148d9565b60206040518083038186803b158015611c6657600080fd5b505af4158015611c7a573d6000803e3d6000fd5b505050506040513d601f19601f82011682018060405250810190611c9e9190613ef7565b905080611caf575050600754610819565b6000190192915050565b600a6020526000908152604090205481565b611cd36130fd565b6001600160a01b0316611ce4611bb8565b6001600160a01b031614611d0a5760405162461bcd60e51b815260040161087090614506565b6000611d168484613101565b6040517f32b914bf00000000000000000000000000000000000000000000000000000000815290915073__$95c6f8e4159971276d72925c2dc3de45f7$__906332b914bf906111f690849086906004016148e2565b6003546001600160a01b031681565b611d826130fd565b6001600160a01b0316611d93611bb8565b6001600160a01b031614611db95760405162461bcd60e51b815260040161087090614506565b6002805460ff19166001179055565b600c6020818152600092835260409283902080546001820154600283015460038401546004850154600586015460068701548a5161010081018c5260078901546001600160a01b03908116825260088a015481169a82019a909a5260098901548a169b81019b909b52600a880154891660608c0152600b88015460808c01529887015460a08b0152600d87015460c08b0152600e9096015460e08a0152939792969195909481169291169088565b60008181526009602052604080822090517fa645cb6d000000000000000000000000000000000000000000000000000000008152829173__$95c6f8e4159971276d72925c2dc3de45f7$__9163a645cb6d91611ed4916004016148d9565b60206040518083038186803b158015611eec57600080fd5b505af4158015611f00573d6000803e3d6000fd5b505050506040513d601f19601f82011682018060405250810190611f249190613ef7565b905080611caf575050600854610819565b611f3d6130fd565b6001600160a01b0316611f4e611bb8565b6001600160a01b031614611f745760405162461bcd60e51b815260040161087090614506565b6001600160a01b039091166000908152600a6020526040902055565b60801b1790565b611f9f6130fd565b6001600160a01b0316611fb0611bb8565b6001600160a01b031614611fd65760405162461bcd60e51b815260040161087090614506565b6001600160a01b038316611ff357611fee8282612909565b611ffe565b611ffe8383836129f6565b505050565b60025461010090046001600160a01b031681565b61201f6130fd565b6001600160a01b0316612030611bb8565b6001600160a01b0316146120565760405162461bcd60e51b815260040161087090614506565b6001600160a01b03811661207c5760405162461bcd60e51b815260040161087090614370565b600080546040516001600160a01b03808516939216917f8be0079c531659141344cd1fd0a4f28419497f9722a3daafe3b4186f6b6457e091a3600080546001600160a01b0319166001600160a01b0392909216919091179055565b6001600160a01b0382166000908152600b602090815260408083203384529091529020548181101561211b5760405162461bcd60e51b8152600401610870906147be565b611ffe33848385612ae4565b61212f6130fd565b6001600160a01b0316612140611bb8565b6001600160a01b0316146121665760405162461bcd60e51b815260040161087090614506565b600680546001600160a01b0319166001600160a01b0392909216919091179055565b600b60209081526000928352604080842090915290825290205481565b6121ad613cdc565b60025460ff16156121d05760405162461bcd60e51b8152600401610870906146e2565b60105460ff166121f25760405162461bcd60e51b815260040161087090614852565b6010805460ff191690556000888152600c6020526040902060048101546001161561221d5750612769565b612225613d1b565b50604080516101008101825260078301546001600160a01b0390811682526008840154811660208301526009840154811692820192909252600a83015482166060820152600b8301546080820152600c83015460a0820152600d83015460c0820152600e83015460e082015290881661229c573397505b86151583526020830189905260c081015160a08201516000916122bf9190612807565b9050808a11156122ee57866122e65760405162461bcd60e51b815260040161087090614674565b602084018190525b506122fe81848460020154613664565b61232e6040518060600160405280602181526020016149d0602191398460400151856080015186602001516138ee565b600a82015460098301546001600160a01b039182169116881561247657604080860151905163095ea7b360e01b81526001600160a01b0383169163095ea7b39161237c9185916004016141a3565b602060405180830381600087803b15801561239657600080fd5b505af11580156123aa573d6000803e3d6000fd5b505050506040513d601f19601f820116820180604052508101906123ce9190613ec3565b50604080860151905163db006a7560e01b81526001600160a01b0383169163db006a75916123ff91906004016148d9565b602060405180830381600087803b15801561241957600080fd5b505af115801561242d573d6000803e3d6000fd5b505050506040513d601f19601f820116820180604052508101906124519190613ef7565b5060078401546060860151612471916001600160a01b0316908c906129f6565b612485565b612485818b87604001516129f6565b6124bc6040518060600160405280602981526020016149f160299139600786015460608801516001600160a01b0390911690612996565b8515612610576040516370a0823160e01b81526000906001600160a01b038416906370a08231906124f19030906004016140b7565b60206040518083038186803b15801561250957600080fd5b505afa15801561251d573d6000803e3d6000fd5b505050506040513d601f19601f820116820180604052508101906125419190613ef7565b90508a6001600160a01b031663226dc8823388604001518960a001518c8c6040518663ffffffff1660e01b815260040161257f9594939291906140cb565b600060405180830381600087803b15801561259957600080fd5b505af11580156125ad573d6000803e3d6000fd5b5050505060006125e382856001600160a01b03166370a08231306040518263ffffffff1660e01b8152600401610d6c91906140b7565b90508660a001518110156126095760405162461bcd60e51b815260040161087090614404565b5050612751565b881561274157600884015460c08601516001600160a01b039091169061263b90829033903090613140565b60c086015160405163095ea7b360e01b81526001600160a01b0383169163095ea7b39161266c9187916004016141a3565b602060405180830381600087803b15801561268657600080fd5b505af115801561269a573d6000803e3d6000fd5b505050506040513d601f19601f820116820180604052508101906126be9190613ec3565b5060c086015160405163140e25ad60e31b81526001600160a01b0385169163a0712d68916126ef91906004016148d9565b602060405180830381600087803b15801561270957600080fd5b505af115801561271d573d6000803e3d6000fd5b505050506040513d601f19601f820116820180604052508101906126099190613ef7565b6127518233308860a00151613140565b6127648486602001518760800151613950565b505050505b6010805460ff19166001179055979650505050505050565b600e60205281600052604060002081815481106107f057fe5b60006127a5836135a7565b6001600160a01b0381166000908152600b60209081526040808320338452909152902054909150828110156127ec5760405162461bcd60e51b8152600401610870906147be565b6127f93385848487612b2b565b50505050565b600116151590565b6000611be983836040518060400160405280601e81526020017f536166654d6174683a207375627472616374696f6e206f766572666c6f770000815250613b5b565b611ffe83838360405160240161286193929190614284565b60408051601f198184030181529190526020810180516001600160e01b03167ffcec75e000000000000000000000000000000000000000000000000000000000179052613b87565b611ffe8383836040516024016128c1939291906142e5565b60408051601f198184030181529190526020810180516001600160e01b03167f969cdd0300000000000000000000000000000000000000000000000000000000179052613b87565b604080516000808252602082019092526001600160a01b038416908390604051612933919061409b565b60006040518083038185875af1925050503d8060008114612970576040519150601f19603f3d011682016040523d82523d6000602084013e612975565b606091505b5050905080611ffe5760405162461bcd60e51b815260040161087090614617565b611ffe8383836040516024016129ae939291906142b7565b60408051601f198184030181529190526020810180516001600160e01b03167f07c8121700000000000000000000000000000000000000000000000000000000179052613b87565b60006060846001600160a01b031663a9059cbb8585604051602401612a1c9291906141a3565b6040516020818303038152906040529060e01b6020820180516001600160e01b038381831617835250505050604051612a55919061409b565b6000604051808303816000865af19150503d8060008114612a92576040519150601f19603f3d011682016040523d82523d6000602084013e612a97565b606091505b5091509150818015612ac1575080511580612ac1575080806020019051810190612ac19190613ec3565b612add5760405162461bcd60e51b815260040161087090614339565b5050505050565b612aef8385836129f6565b612af98282612807565b6001600160a01b039384166000908152600b602090815260408083209790961682529590955292909320919091555050565b612b358282612807565b6001600160a01b038085166000818152600b602090815260408083208b86168452909152902092909255600354161415612c0b5760035460405163db006a7560e01b815247916001600160a01b03169063db006a7590612b999085906004016148d9565b602060405180830381600087803b158015612bb357600080fd5b505af1158015612bc7573d6000803e3d6000fd5b505050506040513d601f19601f82011682018060405250810190612beb9190613ef7565b506000612bf84783612807565b9050612c048782612909565b5050612add565b6040516370a0823160e01b81526000906001600160a01b038616906370a0823190612c3a9030906004016140b7565b60206040518083038186803b158015612c5257600080fd5b505afa158015612c66573d6000803e3d6000fd5b505050506040513d601f19601f82011682018060405250810190612c8a9190613ef7565b60405163db006a7560e01b81529091506001600160a01b0385169063db006a7590612cb99085906004016148d9565b602060405180830381600087803b158015612cd357600080fd5b505af1158015612ce7573d6000803e3d6000fd5b505050506040513d601f19601f82011682018060405250810190612d0b9190613ef7565b506000612d3e82876001600160a01b03166370a08231306040518263ffffffff1660e01b8152600401610d6c91906140b7565b9050612d4b8688836129f6565b50505050505050565b6000612d638260200151610805565b90506000612d748360200151611150565b905060008360a001519050600080612d8f866080015161195f565b90508015612ec3576001600160a01b0383166000908152600d60205260409020546001108015612ddb57506001600160a01b0383166000908152600d6020526040902054600019018414155b15612e87576001600160a01b0383166000908152600d6020526040902080546000198101908110612e0857fe5b9060005260206000200154915081600d6000856001600160a01b03166001600160a01b031681526020019081526020016000208581548110612e4657fe5b9060005260206000200181905550612e74600c6000848152602001908152602001600020600101548561122c565b6000838152600c60205260409020600101555b6001600160a01b0383166000908152600d60205260409020805480612ea857fe5b60019003818190600052602060002001600090559055612feb565b6001600160a01b0383166000908152600e60205260409020546001108015612f0757506001600160a01b0383166000908152600e6020526040902054600019018414155b15612fb3576001600160a01b0383166000908152600e6020526040902080546000198101908110612f3457fe5b9060005260206000200154915081600e6000856001600160a01b03166001600160a01b031681526020019081526020016000208581548110612f7257fe5b9060005260206000200181905550612fa0600c6000848152602001908152602001600020600101548561122c565b6000838152600c60205260409020600101555b6001600160a01b0383166000908152600e60205260409020805480612fd457fe5b600190038181906000526020600020016000905590555b6040808701516000908152600f6020522054600110801561302157506040808701516000908152600f6020522054600019018514155b156130c557604080870180516000908152600f602052828120915181529190912054815460001990910190811061305457fe5b9060005260206000200154915081600f600088604001518152602001908152602001600020868154811061308457fe5b90600052602060002001819055506130b2600c60008481526020019081526020016000206001015486611b9e565b6000838152600c60205260409020600101555b6040808701516000908152600f602052208054806130df57fe5b60019003818190600052602060002001600090559055505050505050565b3390565b60008061310d846135a7565b9050600061311a846135a7565b90506000613128838361343e565b60009081526009602052604090209695505050505050565b60006060856001600160a01b03166323b872dd8686866040516024016131689392919061417f565b6040516020818303038152906040529060e01b6020820180516001600160e01b0383818316178352505050506040516131a1919061409b565b6000604051808303816000865af19150503d80600081146131de576040519150601f19603f3d011682016040523d82523d6000602084013e6131e3565b606091505b509150915081801561320d57508051158061320d57508080602001905181019061320d9190613ec3565b6132295760405162461bcd60e51b8152600401610870906147f5565b505050505050565b60006001600160a01b03821661325357506003546001600160a01b0316610819565b6004805460405163714bca1f60e11b81526000926001600160a01b039092169163e297943e91613285918791016140b7565b60206040518083038186803b15801561329d57600080fd5b505afa1580156132b1573d6000803e3d6000fd5b505050506040513d601f19601f820116820180604052508101906132d59190613da0565b90506001600160a01b03811661124457600480546040517fb8d7b6690000000000000000000000000000000000000000000000000000000081526000926001600160a01b039092169163b8d7b66991613330918891016140b7565b60206040518083038186803b15801561334857600080fd5b505afa15801561335c573d6000803e3d6000fd5b505050506040513d601f19601f820116820180604052508101906133809190613da0565b90506001600160a01b0381161561339b578392505050610819565b600480546040517f26c7bd930000000000000000000000000000000000000000000000000000000081526001600160a01b03909116916326c7bd93916133e3918891016140b7565b602060405180830381600087803b1580156133fd57600080fd5b505af1158015613411573d6000803e3d6000fd5b505050506040513d601f19601f820116820180604052508101906134359190613da0565b92505050610819565b60008282604051602001613453929190614074565b60408051601f1981840301815291905280516020909101209392505050565b805460048201546000906134859061195f565b905060008082156134c75760058501546001600160a01b03166000908152600d60209081526040822080546001810182559083529120810185905591506134fa565b60058501546001600160a01b03166000908152600e60209081526040822080546001810182559083529120810185905591505b5060028401546000908152600f60209081526040822080546001810182559083529120810184905561352c8183611f90565b6001860155600885015460078601546005870154600b880154600e89015460048a01546040516001600160a01b039687169695861695909416937fc8419e5c94126588374d91d4332ef5d56223abb9c42776b667e899ccff2c5f2793613598938c93919290919061490d565b60405180910390a45050505050565b60006001600160a01b0382166135c957506003546001600160a01b0316610819565b6004805460405163714bca1f60e11b81526000926001600160a01b039092169163e297943e916135fb918791016140b7565b60206040518083038186803b15801561361357600080fd5b505afa158015613627573d6000803e3d6000fd5b505050506040513d601f19601f8201168201806040525081019061364b9190613da0565b90506001600160a01b0381166112445782915050610819565b60208201516040517f78cbe05100000000000000000000000000000000000000000000000000000000815273__$ede4fa3877902dc4fe1d8d42678939ceaa$__906378cbe051906136bb90879085906004016148f0565b60206040518083038186803b1580156136d357600080fd5b505af41580156136e7573d6000803e3d6000fd5b505050506040513d601f19601f8201168201806040525081019061370b9190613ef7565b60a084015261373361271061372d61372285611e76565b849061271003613ba8565b90613be2565b604084015261375961271061372d61374a85611bf0565b60a08701519061271003613ba8565b60808401528251156127f95760408085015190517f0bbc1cea00000000000000000000000000000000000000000000000000000000815260009173__$ede4fa3877902dc4fe1d8d42678939ceaa$__91630bbc1cea916137bb916004016140b7565b60206040518083038186803b1580156137d357600080fd5b505af41580156137e7573d6000803e3d6000fd5b505050506040513d601f19601f8201168201806040525081019061380b9190613ef7565b9050600073__$ede4fa3877902dc4fe1d8d42678939ceaa$__630bbc1cea87606001516040518263ffffffff1660e01b815260040161384a91906140b7565b60206040518083038186803b15801561386257600080fd5b505af4158015613876573d6000803e3d6000fd5b505050506040513d601f19601f8201168201806040525081019061389a9190613ef7565b90506138bf670de0b6b3a764000061372d848860400151613ba890919063ffffffff16565b606086015260a08501516138e190670de0b6b3a76400009061372d9084613ba8565b60c0860152505050505050565b6127f984848484604051602401613908949392919061430a565b60408051601f198184030181529190526020810180516001600160e01b03167f08ee566600000000000000000000000000000000000000000000000000000000179052613b87565b60068301546009840154600a85015460048601546001600160a01b039384169392831692909116906139819061195f565b15613a265760055461399e9082906001600160a01b0316866129f6565b6005546040517f1889ae210000000000000000000000000000000000000000000000000000000081526001600160a01b0390911690631889ae21906139ef908690869086908a908c9060040161414b565b600060405180830381600087803b158015613a0957600080fd5b505af1158015613a1d573d6000803e3d6000fd5b50505050613a52565b6001600160a01b038082166000908152600b602090815260408083209387168352929052208054850190555b600d860154613a619086613c24565b600d8701819055600c87015411613229576004860180546001908117918290556040805161010080820183528a548252928a015460208083019190915260028b01548284015260038b015460608084019190915260808084019690965260058c01546001600160a01b0390811660a08086019190915260068e0154821660c0808701919091528651978801875260078f01548316885260088f015483169488019490945260098e0154821695870195909552600a8d01541690850152600b8b015494840194909452600c8a015491830191909152600d89015492820192909252600e88015460e08281019190915282015261322990612d54565b60008184841115613b7f5760405162461bcd60e51b81526004016108709190614271565b505050900390565b80516a636f6e736f6c652e6c6f67602083016000808483855afa5050505050565b600082613bb757506000611244565b82820282848281613bc457fe5b0414611be95760405162461bcd60e51b8152600401610870906144a9565b6000611be983836040518060400160405280601a81526020017f536166654d6174683a206469766973696f6e206279207a65726f000000000000815250613c49565b600082820183811015611be95760405162461bcd60e51b8152600401610870906143cd565b60008183613c6a5760405162461bcd60e51b81526004016108709190614271565b506000838581613c7657fe5b0495945050505050565b604051806101000160405280600081526020016000815260200160008152602001600081526020016000815260200160006001600160a01b0316815260200160006001600160a01b03168152602001613cd7613d1b565b905290565b6040518060e001604052806000151581526020016000815260200160008152602001600081526020016000815260200160008152602001600081525090565b60405180610100016040528060006001600160a01b0316815260200160006001600160a01b0316815260200160006001600160a01b0316815260200160006001600160a01b03168152602001600081526020016000815260200160008152602001600081525090565b600060208284031215613d95578081fd5b8135611be9816149a9565b600060208284031215613db1578081fd5b8151611be9816149a9565b60008060408385031215613dce578081fd5b8235613dd9816149a9565b91506020830135613de9816149a9565b809150509250929050565b60008060008060008060c08789031215613e0c578182fd5b8635613e17816149a9565b95506020870135613e27816149a9565b94506040870135613e37816149a9565b959894975094956060810135955060808101359460a0909101359350915050565b600080600060608486031215613e6c578283fd5b8335613e77816149a9565b92506020840135613e87816149a9565b929592945050506040919091013590565b60008060408385031215613eaa578182fd5b8235613eb5816149a9565b946020939093013593505050565b600060208284031215613ed4578081fd5b8151611be9816149c1565b600060208284031215613ef0578081fd5b5035919050565b600060208284031215613f08578081fd5b5051919050565b60008060408385031215613f21578182fd5b50508035926020909101359150565b600080600080600080600060c0888a031215613f4a578081fd5b87359650602088013595506040880135613f63816149a9565b94506060880135613f73816149c1565b93506080880135613f83816149c1565b925060a088013567ffffffffffffffff80821115613f9f578283fd5b818a0191508a601f830112613fb2578283fd5b813581811115613fc0578384fd5b8b6020828501011115613fd1578384fd5b60208301945080935050505092959891949750929550565b6000815180845261400181602086016020860161497d565b601f01601f19169290920160200192915050565b6001600160a01b03808251168352806020830151166020840152806040830151166040840152806060830151166060840152506080810151608083015260a081015160a083015260c081015160c083015260e081015160e08301525050565b6bffffffffffffffffffffffff19606093841b811682529190921b16601482015260280190565b600082516140ad81846020870161497d565b9190910192915050565b6001600160a01b0391909116815260200190565b60006001600160a01b038716825285602083015284604083015260806060830152826080830152828460a084013781830160a090810191909152601f909201601f19160101949350505050565b6001600160a01b039586168152938516602085015291841660408401529092166060820152608081019190915260a00190565b6001600160a01b03958616815293851660208501529190931660408301526060820192909252608081019190915260a00190565b6001600160a01b039384168152919092166020820152604081019190915260600190565b6001600160a01b03929092168252602082015260400190565b602080825282518282018190526000919060409081850190868401855b828110156142595781518051855286810151878601528581015186860152606080820151908601526080808201519086015260a0808201516001600160a01b039081169187019190915260c0808301519091169086015260e0908101519061424381870183614015565b50506101e09390930192908501906001016141d9565b5091979650505050505050565b901515815260200190565b600060208252611be96020830184613fe9565b6000606082526142976060830186613fe9565b6001600160a01b0394851660208401529290931660409091015292915050565b6000606082526142ca6060830186613fe9565b6001600160a01b039490941660208301525060400152919050565b6000606082526142f86060830186613fe9565b60208301949094525060400152919050565b60006080825261431d6080830187613fe9565b6020830195909552506040810192909252606090910152919050565b6020808252601f908201527f5472616e7366657248656c7065723a205452414e534645525f4641494c454400604082015260600190565b60208082526026908201527f4f776e61626c653a206e6577206f776e657220697320746865207a65726f206160408201527f6464726573730000000000000000000000000000000000000000000000000000606082015260800190565b6020808252601b908201527f536166654d6174683a206164646974696f6e206f766572666c6f770000000000604082015260600190565b6020808252600a908201527f6e6f7420656e6f75676800000000000000000000000000000000000000000000604082015260600190565b60208082526015908201527f646573742073686f756c642062652065746f6b656e0000000000000000000000604082015260600190565b60208082526014908201527f7372632073686f756c642062652065746f6b656e000000000000000000000000604082015260600190565b60208082526021908201527f536166654d6174683a206d756c7469706c69636174696f6e206f766572666c6f60408201527f7700000000000000000000000000000000000000000000000000000000000000606082015260800190565b6020808252818101527f4f776e61626c653a2063616c6c6572206973206e6f7420746865206f776e6572604082015260600190565b60208082526013908201527f6e6f7420656e6f75676820616d6f756e74496e00000000000000000000000000604082015260600190565b60208082526014908201527f63616e63656c4f726465723a206e6f2061757468000000000000000000000000604082015260600190565b60208082526015908201527f6f7264657220686173206265656e20636c6f7365640000000000000000000000604082015260600190565b60208082526014908201527f6c657373207468616e206d696e20616d6f756e74000000000000000000000000604082015260600190565b60208082526023908201527f5472616e7366657248656c7065723a204554485f5452414e534645525f46414960408201527f4c45440000000000000000000000000000000000000000000000000000000000606082015260800190565b60208082526014908201527f6e6f7420656e6f75676820746f2066756c66696c000000000000000000000000604082015260600190565b6020808252601a908201527f63616e63656c4d617267696e4f726465723a206e6f2061757468000000000000604082015260600190565b60208082526011908201527f6f7264657220626f6f6b20636c6f736564000000000000000000000000000000604082015260600190565b60208082526015908201527f666c61672073686f756c64206265206d617267696e0000000000000000000000604082015260600190565b6020808252600f908201527f6964656e746963616c20746f6b656e0000000000000000000000000000000000604082015260600190565b60208082526014908201527f626f746820746f6b656e206f722065746f6b656e000000000000000000000000604082015260600190565b60208082526010908201527f6e6f7420656e6f75676820617373657400000000000000000000000000000000604082015260600190565b60208082526024908201527f5472616e7366657248656c7065723a205452414e534645525f46524f4d5f464160408201527f494c454400000000000000000000000000000000000000000000000000000000606082015260800190565b6020808252601f908201527f5265656e7472616e637947756172643a207265656e7472616e742063616c6c00604082015260600190565b600060e0820190508251151582526020830151602083015260408301516040830152606083015160608301526080830151608083015260a083015160a083015260c083015160c083015292915050565b90815260200190565b918252602082015260400190565b61012081016148ff8285614015565b826101008301529392505050565b93845260208401929092526040830152606082015260800190565b888152602081018890526040810187905260608101869052608081018590526001600160a01b0384811660a0830152831660c08201526101e0810161497060e0830184614015565b9998505050505050505050565b60005b83811015614998578181015183820152602001614980565b838111156127f95750506000910152565b6001600160a01b03811681146149be57600080fd5b50565b80151581146149be57600080fdfe74616b6572416d743d2564206d616b6572416d743d25642066696c6c65643d25647472616e7366657220737263546f6b656e20746f2074616b657220737563636573733a202573202564a26469706673582212208c99a8120fb87895e19a55d7079fee749eb3463882d08b5d9f0d0ceea84d3ec864736f6c634300060c0033",
  "linkReferences": {
    "contracts/swap/orderbook/OBPairConfig.sol": {
      "OBPairConfig": [
        {
          "length": 20,
          "start": 4961
        },
        {
          "length": 20,
          "start": 7613
        },
        {
          "length": 20,
          "start": 7894
        },
        {
          "length": 20,
          "start": 8259
        }
      ]
    },
    "contracts/swap/orderbook/OBPriceLogic.sol": {
      "OBPriceLogic": [
        {
          "length": 20,
          "start": 14374
        },
        {
          "length": 20,
          "start": 14634
        },
        {
          "length": 20,
          "start": 14758
        }
      ]
    }
  },
  "deployedLinkReferences": {
    "contracts/swap/orderbook/OBPairConfig.sol": {
      "OBPairConfig": [
        {
          "length": 20,
          "start": 4556
        },
        {
          "length": 20,
          "start": 7208
        },
        {
          "length": 20,
          "start": 7489
        },
        {
          "length": 20,
          "start": 7854
        }
      ]
    },
    "contracts/swap/orderbook/OBPriceLogic.sol": {
      "OBPriceLogic": [
        {
          "length": 20,
          "start": 13969
        },
        {
          "length": 20,
          "start": 14229
        },
        {
          "length": 20,
          "start": 14353
        }
      ]
    }
  }
}