{
  "_format": "hh-sol-artifact-1",
  "contractName": "OrderBook",
  "sourceName": "contracts/swap/orderbook/Orderbook.sol",
  "abi": [
    {
      "inputs": [
        {
          "internalType": "address",
          "name": "_ctokenFactory",
          "type": "address"
        },
        {
          "internalType": "address",
          "name": "_cETH",
          "type": "address"
        },
        {
          "internalType": "address",
          "name": "_wETH",
          "type": "address"
        },
        {
          "internalType": "address",
          "name": "_margin",
          "type": "address"
        }
      ],
      "stateMutability": "nonpayable",
      "type": "constructor"
    },
    {
      "anonymous": false,
      "inputs": [
        {
          "indexed": true,
          "internalType": "address",
          "name": "owner",
          "type": "address"
        },
        {
          "indexed": true,
          "internalType": "address",
          "name": "srcToken",
          "type": "address"
        },
        {
          "indexed": true,
          "internalType": "address",
          "name": "destToken",
          "type": "address"
        },
        {
          "indexed": false,
          "internalType": "uint256",
          "name": "orderId",
          "type": "uint256"
        }
      ],
      "name": "CancelOrder",
      "type": "event"
    },
    {
      "anonymous": false,
      "inputs": [
        {
          "indexed": true,
          "internalType": "address",
          "name": "to",
          "type": "address"
        },
        {
          "indexed": true,
          "internalType": "address",
          "name": "srcEToken",
          "type": "address"
        },
        {
          "indexed": true,
          "internalType": "address",
          "name": "dstEToken",
          "type": "address"
        },
        {
          "indexed": false,
          "internalType": "uint256",
          "name": "totalA",
          "type": "uint256"
        },
        {
          "indexed": false,
          "internalType": "uint256",
          "name": "totalB",
          "type": "uint256"
        }
      ],
      "name": "CancelPairMarginOrder",
      "type": "event"
    },
    {
      "anonymous": false,
      "inputs": [
        {
          "indexed": true,
          "internalType": "address",
          "name": "owner",
          "type": "address"
        },
        {
          "indexed": true,
          "internalType": "address",
          "name": "srcToken",
          "type": "address"
        },
        {
          "indexed": true,
          "internalType": "address",
          "name": "destToken",
          "type": "address"
        },
        {
          "indexed": false,
          "internalType": "uint256",
          "name": "orderId",
          "type": "uint256"
        },
        {
          "indexed": false,
          "internalType": "uint256",
          "name": "amountIn",
          "type": "uint256"
        },
        {
          "indexed": false,
          "internalType": "uint256",
          "name": "minAmountOut",
          "type": "uint256"
        },
        {
          "indexed": false,
          "internalType": "uint256",
          "name": "flag",
          "type": "uint256"
        }
      ],
      "name": "CreateOrder",
      "type": "event"
    },
    {
      "anonymous": false,
      "inputs": [
        {
          "indexed": true,
          "internalType": "address",
          "name": "maker",
          "type": "address"
        },
        {
          "indexed": true,
          "internalType": "address",
          "name": "taker",
          "type": "address"
        },
        {
          "indexed": false,
          "internalType": "uint256",
          "name": "orderId",
          "type": "uint256"
        },
        {
          "indexed": false,
          "internalType": "uint256",
          "name": "amt",
          "type": "uint256"
        },
        {
          "indexed": false,
          "internalType": "uint256",
          "name": "amtOut",
          "type": "uint256"
        }
      ],
      "name": "FulFilOrder",
      "type": "event"
    },
    {
      "anonymous": false,
      "inputs": [
        {
          "indexed": true,
          "internalType": "address",
          "name": "previousOwner",
          "type": "address"
        },
        {
          "indexed": true,
          "internalType": "address",
          "name": "newOwner",
          "type": "address"
        }
      ],
      "name": "OwnershipTransferred",
      "type": "event"
    },
    {
      "inputs": [],
      "name": "DENOMINATOR",
      "outputs": [
        {
          "internalType": "uint256",
          "name": "",
          "type": "uint256"
        }
      ],
      "stateMutability": "view",
      "type": "function"
    },
    {
      "inputs": [],
      "name": "VERSION",
      "outputs": [
        {
          "internalType": "uint256",
          "name": "",
          "type": "uint256"
        }
      ],
      "stateMutability": "view",
      "type": "function"
    },
    {
      "inputs": [
        {
          "internalType": "uint256",
          "name": "id",
          "type": "uint256"
        }
      ],
      "name": "addrIndex",
      "outputs": [
        {
          "internalType": "uint256",
          "name": "",
          "type": "uint256"
        }
      ],
      "stateMutability": "pure",
      "type": "function"
    },
    {
      "inputs": [
        {
          "internalType": "address",
          "name": "",
          "type": "address"
        },
        {
          "internalType": "uint256",
          "name": "",
          "type": "uint256"
        }
      ],
      "name": "addressOrders",
      "outputs": [
        {
          "internalType": "uint256",
          "name": "",
          "type": "uint256"
        }
      ],
      "stateMutability": "view",
      "type": "function"
    },
    {
      "inputs": [
        {
          "internalType": "address",
          "name": "",
          "type": "address"
        },
        {
          "internalType": "address",
          "name": "",
          "type": "address"
        }
      ],
      "name": "balanceOf",
      "outputs": [
        {
          "internalType": "uint256",
          "name": "",
          "type": "uint256"
        }
      ],
      "stateMutability": "view",
      "type": "function"
    },
    {
      "inputs": [],
      "name": "cETH",
      "outputs": [
        {
          "internalType": "address",
          "name": "",
          "type": "address"
        }
      ],
      "stateMutability": "view",
      "type": "function"
    },
    {
      "inputs": [
        {
          "internalType": "uint256",
          "name": "id",
          "type": "uint256"
        },
        {
          "internalType": "uint256",
          "name": "amtToTaken",
          "type": "uint256"
        }
      ],
      "name": "calcTakerAmount",
      "outputs": [
        {
          "internalType": "uint256",
          "name": "takerEAmt",
          "type": "uint256"
        },
        {
          "internalType": "uint256",
          "name": "takerAmt",
          "type": "uint256"
        }
      ],
      "stateMutability": "view",
      "type": "function"
    },
    {
      "inputs": [
        {
          "internalType": "uint256[]",
          "name": "orderIds",
          "type": "uint256[]"
        }
      ],
      "name": "calcTakerAmounts",
      "outputs": [
        {
          "internalType": "uint256",
          "name": "totalEAmt",
          "type": "uint256"
        },
        {
          "internalType": "uint256",
          "name": "totalAmt",
          "type": "uint256"
        }
      ],
      "stateMutability": "view",
      "type": "function"
    },
    {
      "inputs": [
        {
          "internalType": "uint256",
          "name": "orderId",
          "type": "uint256"
        }
      ],
      "name": "cancelOrder",
      "outputs": [],
      "stateMutability": "nonpayable",
      "type": "function"
    },
    {
      "inputs": [
        {
          "internalType": "address",
          "name": "etokenA",
          "type": "address"
        },
        {
          "internalType": "address",
          "name": "etokenB",
          "type": "address"
        },
        {
          "internalType": "address",
          "name": "to",
          "type": "address"
        }
      ],
      "name": "cancelPairMarginOrders",
      "outputs": [],
      "stateMutability": "nonpayable",
      "type": "function"
    },
    {
      "inputs": [],
      "name": "closeOrderBook",
      "outputs": [],
      "stateMutability": "nonpayable",
      "type": "function"
    },
    {
      "inputs": [],
      "name": "closed",
      "outputs": [
        {
          "internalType": "bool",
          "name": "",
          "type": "bool"
        }
      ],
      "stateMutability": "view",
      "type": "function"
    },
    {
      "inputs": [
        {
          "internalType": "address",
          "name": "srcToken",
          "type": "address"
        },
        {
          "internalType": "address",
          "name": "destToken",
          "type": "address"
        },
        {
          "internalType": "address",
          "name": "to",
          "type": "address"
        },
        {
          "internalType": "uint256",
          "name": "amountOut",
          "type": "uint256"
        },
        {
          "internalType": "uint256",
          "name": "guaranteeAmountIn",
          "type": "uint256"
        },
        {
          "internalType": "uint256",
          "name": "flag",
          "type": "uint256"
        }
      ],
      "name": "createOrder",
      "outputs": [
        {
          "internalType": "uint256",
          "name": "idx",
          "type": "uint256"
        }
      ],
      "stateMutability": "payable",
      "type": "function"
    },
    {
      "inputs": [],
      "name": "ctokenFactory",
      "outputs": [
        {
          "internalType": "address",
          "name": "",
          "type": "address"
        }
      ],
      "stateMutability": "view",
      "type": "function"
    },
    {
      "inputs": [],
      "name": "defaultFeeMaker",
      "outputs": [
        {
          "internalType": "uint256",
          "name": "",
          "type": "uint256"
        }
      ],
      "stateMutability": "view",
      "type": "function"
    },
    {
      "inputs": [],
      "name": "defaultFeeTaker",
      "outputs": [
        {
          "internalType": "uint256",
          "name": "",
          "type": "uint256"
        }
      ],
      "stateMutability": "view",
      "type": "function"
    },
    {
      "inputs": [],
      "name": "feeTo",
      "outputs": [
        {
          "internalType": "address",
          "name": "",
          "type": "address"
        }
      ],
      "stateMutability": "view",
      "type": "function"
    },
    {
      "inputs": [
        {
          "internalType": "uint256",
          "name": "orderId",
          "type": "uint256"
        },
        {
          "internalType": "uint256",
          "name": "amtToTaken",
          "type": "uint256"
        },
        {
          "internalType": "address",
          "name": "to",
          "type": "address"
        },
        {
          "internalType": "bool",
          "name": "isToken",
          "type": "bool"
        },
        {
          "internalType": "bool",
          "name": "partialFill",
          "type": "bool"
        },
        {
          "internalType": "bytes",
          "name": "data",
          "type": "bytes"
        }
      ],
      "name": "fulfilOrder",
      "outputs": [
        {
          "components": [
            {
              "internalType": "bool",
              "name": "isToken",
              "type": "bool"
            },
            {
              "internalType": "address",
              "name": "srcEToken",
              "type": "address"
            },
            {
              "internalType": "address",
              "name": "destEToken",
              "type": "address"
            },
            {
              "internalType": "uint256",
              "name": "filled",
              "type": "uint256"
            },
            {
              "internalType": "uint256",
              "name": "takerFee",
              "type": "uint256"
            },
            {
              "internalType": "uint256",
              "name": "makerFee",
              "type": "uint256"
            },
            {
              "internalType": "uint256",
              "name": "takerAmt",
              "type": "uint256"
            },
            {
              "internalType": "uint256",
              "name": "takerAmtToken",
              "type": "uint256"
            },
            {
              "internalType": "uint256",
              "name": "makerAmt",
              "type": "uint256"
            },
            {
              "internalType": "uint256",
              "name": "amtDest",
              "type": "uint256"
            },
            {
              "internalType": "uint256",
              "name": "amtDestToken",
              "type": "uint256"
            }
          ],
          "internalType": "struct OrderBook.FulFilAmt",
          "name": "fulFilAmt",
          "type": "tuple"
        }
      ],
      "stateMutability": "payable",
      "type": "function"
    },
    {
      "inputs": [
        {
          "internalType": "uint256[]",
          "name": "orderIds",
          "type": "uint256[]"
        },
        {
          "internalType": "uint256[]",
          "name": "amtToTakens",
          "type": "uint256[]"
        },
        {
          "internalType": "address",
          "name": "to",
          "type": "address"
        },
        {
          "internalType": "bool",
          "name": "isToken",
          "type": "bool"
        },
        {
          "internalType": "bool",
          "name": "partialFill",
          "type": "bool"
        }
      ],
      "name": "fulfilOrders",
      "outputs": [],
      "stateMutability": "payable",
      "type": "function"
    },
    {
      "inputs": [
        {
          "internalType": "uint256",
          "name": "startIdx",
          "type": "uint256"
        },
        {
          "internalType": "uint256",
          "name": "endIdx",
          "type": "uint256"
        }
      ],
      "name": "getAllOrders",
      "outputs": [
        {
          "components": [
            {
              "internalType": "uint256",
              "name": "orderId",
              "type": "uint256"
            },
            {
              "internalType": "uint256",
              "name": "pairAddrIdx",
              "type": "uint256"
            },
            {
              "internalType": "uint256",
              "name": "pair",
              "type": "uint256"
            },
            {
              "internalType": "uint256",
              "name": "timestamp",
              "type": "uint256"
            },
            {
              "internalType": "uint256",
              "name": "flag",
              "type": "uint256"
            },
            {
              "internalType": "address",
              "name": "owner",
              "type": "address"
            },
            {
              "internalType": "address",
              "name": "to",
              "type": "address"
            },
            {
              "components": [
                {
                  "internalType": "address",
                  "name": "srcToken",
                  "type": "address"
                },
                {
                  "internalType": "address",
                  "name": "destToken",
                  "type": "address"
                },
                {
                  "internalType": "address",
                  "name": "srcEToken",
                  "type": "address"
                },
                {
                  "internalType": "address",
                  "name": "destEToken",
                  "type": "address"
                },
                {
                  "internalType": "uint256",
                  "name": "amountOut",
                  "type": "uint256"
                },
                {
                  "internalType": "uint256",
                  "name": "amountOutMint",
                  "type": "uint256"
                },
                {
                  "internalType": "uint256",
                  "name": "fulfiled",
                  "type": "uint256"
                },
                {
                  "internalType": "uint256",
                  "name": "guaranteeAmountIn",
                  "type": "uint256"
                },
                {
                  "internalType": "uint256",
                  "name": "destFulfiled",
                  "type": "uint256"
                }
              ],
              "internalType": "struct DataTypes.TokenAmount",
              "name": "tokenAmt",
              "type": "tuple"
            }
          ],
          "internalType": "struct DataTypes.OrderItem[]",
          "name": "allOrders",
          "type": "tuple[]"
        }
      ],
      "stateMutability": "view",
      "type": "function"
    },
    {
      "inputs": [
        {
          "internalType": "uint256",
          "name": "pair",
          "type": "uint256"
        }
      ],
      "name": "getMakerFeeRate",
      "outputs": [
        {
          "internalType": "uint256",
          "name": "",
          "type": "uint256"
        }
      ],
      "stateMutability": "view",
      "type": "function"
    },
    {
      "inputs": [
        {
          "internalType": "uint256",
          "name": "id",
          "type": "uint256"
        }
      ],
      "name": "getOrderTokens",
      "outputs": [
        {
          "internalType": "address",
          "name": "srcEToken",
          "type": "address"
        },
        {
          "internalType": "address",
          "name": "destEToken",
          "type": "address"
        },
        {
          "internalType": "uint256",
          "name": "amtOut",
          "type": "uint256"
        },
        {
          "internalType": "uint256",
          "name": "fulfiled",
          "type": "uint256"
        },
        {
          "internalType": "uint256",
          "name": "guaranteeAmountIn",
          "type": "uint256"
        }
      ],
      "stateMutability": "view",
      "type": "function"
    },
    {
      "inputs": [
        {
          "internalType": "uint256",
          "name": "pair",
          "type": "uint256"
        }
      ],
      "name": "getTakerFeeRate",
      "outputs": [
        {
          "internalType": "uint256",
          "name": "",
          "type": "uint256"
        }
      ],
      "stateMutability": "view",
      "type": "function"
    },
    {
      "inputs": [
        {
          "internalType": "address",
          "name": "_ctokenFactory",
          "type": "address"
        },
        {
          "internalType": "address",
          "name": "_cETH",
          "type": "address"
        },
        {
          "internalType": "address",
          "name": "_wETH",
          "type": "address"
        },
        {
          "internalType": "address",
          "name": "_margin",
          "type": "address"
        }
      ],
      "name": "initialize",
      "outputs": [],
      "stateMutability": "nonpayable",
      "type": "function"
    },
    {
      "inputs": [
        {
          "internalType": "uint256",
          "name": "flag",
          "type": "uint256"
        }
      ],
      "name": "isMargin",
      "outputs": [
        {
          "internalType": "bool",
          "name": "",
          "type": "bool"
        }
      ],
      "stateMutability": "pure",
      "type": "function"
    },
    {
      "inputs": [
        {
          "internalType": "uint256",
          "name": "id",
          "type": "uint256"
        }
      ],
      "name": "isOrderMarginClosed",
      "outputs": [
        {
          "internalType": "bool",
          "name": "marginOrder",
          "type": "bool"
        },
        {
          "internalType": "bool",
          "name": "closed",
          "type": "bool"
        }
      ],
      "stateMutability": "view",
      "type": "function"
    },
    {
      "inputs": [],
      "name": "marginAddr",
      "outputs": [
        {
          "internalType": "address",
          "name": "",
          "type": "address"
        }
      ],
      "stateMutability": "view",
      "type": "function"
    },
    {
      "inputs": [
        {
          "internalType": "address",
          "name": "",
          "type": "address"
        },
        {
          "internalType": "uint256",
          "name": "",
          "type": "uint256"
        }
      ],
      "name": "marginOrders",
      "outputs": [
        {
          "internalType": "uint256",
          "name": "",
          "type": "uint256"
        }
      ],
      "stateMutability": "view",
      "type": "function"
    },
    {
      "inputs": [
        {
          "internalType": "address",
          "name": "",
          "type": "address"
        },
        {
          "internalType": "uint256",
          "name": "",
          "type": "uint256"
        }
      ],
      "name": "marginUserOrderCount",
      "outputs": [
        {
          "internalType": "uint256",
          "name": "",
          "type": "uint256"
        }
      ],
      "stateMutability": "view",
      "type": "function"
    },
    {
      "inputs": [
        {
          "internalType": "uint256",
          "name": "pairIdx",
          "type": "uint256"
        },
        {
          "internalType": "uint256",
          "name": "addrIdx",
          "type": "uint256"
        }
      ],
      "name": "maskAddrPairIndex",
      "outputs": [
        {
          "internalType": "uint256",
          "name": "",
          "type": "uint256"
        }
      ],
      "stateMutability": "pure",
      "type": "function"
    },
    {
      "inputs": [],
      "name": "maxMarginOrder",
      "outputs": [
        {
          "internalType": "uint256",
          "name": "",
          "type": "uint256"
        }
      ],
      "stateMutability": "view",
      "type": "function"
    },
    {
      "inputs": [
        {
          "internalType": "address",
          "name": "",
          "type": "address"
        }
      ],
      "name": "minAmounts",
      "outputs": [
        {
          "internalType": "uint256",
          "name": "",
          "type": "uint256"
        }
      ],
      "stateMutability": "view",
      "type": "function"
    },
    {
      "inputs": [],
      "name": "openOrderBook",
      "outputs": [],
      "stateMutability": "nonpayable",
      "type": "function"
    },
    {
      "inputs": [],
      "name": "orderId",
      "outputs": [
        {
          "internalType": "uint256",
          "name": "",
          "type": "uint256"
        }
      ],
      "stateMutability": "view",
      "type": "function"
    },
    {
      "inputs": [
        {
          "internalType": "uint256",
          "name": "",
          "type": "uint256"
        }
      ],
      "name": "orders",
      "outputs": [
        {
          "internalType": "uint256",
          "name": "orderId",
          "type": "uint256"
        },
        {
          "internalType": "uint256",
          "name": "pairAddrIdx",
          "type": "uint256"
        },
        {
          "internalType": "uint256",
          "name": "pair",
          "type": "uint256"
        },
        {
          "internalType": "uint256",
          "name": "timestamp",
          "type": "uint256"
        },
        {
          "internalType": "uint256",
          "name": "flag",
          "type": "uint256"
        },
        {
          "internalType": "address",
          "name": "owner",
          "type": "address"
        },
        {
          "internalType": "address",
          "name": "to",
          "type": "address"
        },
        {
          "components": [
            {
              "internalType": "address",
              "name": "srcToken",
              "type": "address"
            },
            {
              "internalType": "address",
              "name": "destToken",
              "type": "address"
            },
            {
              "internalType": "address",
              "name": "srcEToken",
              "type": "address"
            },
            {
              "internalType": "address",
              "name": "destEToken",
              "type": "address"
            },
            {
              "internalType": "uint256",
              "name": "amountOut",
              "type": "uint256"
            },
            {
              "internalType": "uint256",
              "name": "amountOutMint",
              "type": "uint256"
            },
            {
              "internalType": "uint256",
              "name": "fulfiled",
              "type": "uint256"
            },
            {
              "internalType": "uint256",
              "name": "guaranteeAmountIn",
              "type": "uint256"
            },
            {
              "internalType": "uint256",
              "name": "destFulfiled",
              "type": "uint256"
            }
          ],
          "internalType": "struct DataTypes.TokenAmount",
          "name": "tokenAmt",
          "type": "tuple"
        }
      ],
      "stateMutability": "view",
      "type": "function"
    },
    {
      "inputs": [],
      "name": "owner",
      "outputs": [
        {
          "internalType": "address",
          "name": "",
          "type": "address"
        }
      ],
      "stateMutability": "view",
      "type": "function"
    },
    {
      "inputs": [
        {
          "internalType": "uint256",
          "name": "",
          "type": "uint256"
        }
      ],
      "name": "pairFeeRate",
      "outputs": [
        {
          "internalType": "uint256",
          "name": "data",
          "type": "uint256"
        }
      ],
      "stateMutability": "view",
      "type": "function"
    },
    {
      "inputs": [
        {
          "internalType": "address",
          "name": "srcToken",
          "type": "address"
        },
        {
          "internalType": "address",
          "name": "destToken",
          "type": "address"
        }
      ],
      "name": "pairFor",
      "outputs": [
        {
          "internalType": "uint256",
          "name": "pair",
          "type": "uint256"
        }
      ],
      "stateMutability": "view",
      "type": "function"
    },
    {
      "inputs": [
        {
          "internalType": "address",
          "name": "srcEToken",
          "type": "address"
        },
        {
          "internalType": "address",
          "name": "destEToken",
          "type": "address"
        }
      ],
      "name": "pairForEToken",
      "outputs": [
        {
          "internalType": "uint256",
          "name": "pair",
          "type": "uint256"
        }
      ],
      "stateMutability": "pure",
      "type": "function"
    },
    {
      "inputs": [
        {
          "internalType": "uint256",
          "name": "id",
          "type": "uint256"
        }
      ],
      "name": "pairIndex",
      "outputs": [
        {
          "internalType": "uint256",
          "name": "",
          "type": "uint256"
        }
      ],
      "stateMutability": "pure",
      "type": "function"
    },
    {
      "inputs": [
        {
          "internalType": "uint256",
          "name": "",
          "type": "uint256"
        },
        {
          "internalType": "uint256",
          "name": "",
          "type": "uint256"
        }
      ],
      "name": "pairOrders",
      "outputs": [
        {
          "internalType": "uint256",
          "name": "",
          "type": "uint256"
        }
      ],
      "stateMutability": "view",
      "type": "function"
    },
    {
      "inputs": [],
      "name": "renounceOwnership",
      "outputs": [],
      "stateMutability": "nonpayable",
      "type": "function"
    },
    {
      "inputs": [
        {
          "internalType": "address",
          "name": "to",
          "type": "address"
        }
      ],
      "name": "setFeeTo",
      "outputs": [],
      "stateMutability": "nonpayable",
      "type": "function"
    },
    {
      "inputs": [
        {
          "internalType": "address",
          "name": "addr",
          "type": "address"
        }
      ],
      "name": "setMarginAddr",
      "outputs": [],
      "stateMutability": "nonpayable",
      "type": "function"
    },
    {
      "inputs": [
        {
          "internalType": "uint256",
          "name": "count",
          "type": "uint256"
        }
      ],
      "name": "setMaxOrderCount",
      "outputs": [],
      "stateMutability": "nonpayable",
      "type": "function"
    },
    {
      "inputs": [
        {
          "internalType": "address",
          "name": "etoken",
          "type": "address"
        },
        {
          "internalType": "uint256",
          "name": "amt",
          "type": "uint256"
        }
      ],
      "name": "setMinOrderAmount",
      "outputs": [],
      "stateMutability": "nonpayable",
      "type": "function"
    },
    {
      "inputs": [
        {
          "internalType": "address",
          "name": "src",
          "type": "address"
        },
        {
          "internalType": "address",
          "name": "dest",
          "type": "address"
        },
        {
          "internalType": "uint256",
          "name": "fee",
          "type": "uint256"
        }
      ],
      "name": "setPairMakerFee",
      "outputs": [],
      "stateMutability": "nonpayable",
      "type": "function"
    },
    {
      "inputs": [
        {
          "internalType": "address",
          "name": "src",
          "type": "address"
        },
        {
          "internalType": "address",
          "name": "dest",
          "type": "address"
        },
        {
          "internalType": "uint256",
          "name": "fee",
          "type": "uint256"
        }
      ],
      "name": "setPairTakerFee",
      "outputs": [],
      "stateMutability": "nonpayable",
      "type": "function"
    },
    {
      "inputs": [
        {
          "internalType": "address",
          "name": "newOwner",
          "type": "address"
        }
      ],
      "name": "transferOwnership",
      "outputs": [],
      "stateMutability": "nonpayable",
      "type": "function"
    },
    {
      "inputs": [
        {
          "internalType": "uint256",
          "name": "idx",
          "type": "uint256"
        },
        {
          "internalType": "uint256",
          "name": "addrIdx",
          "type": "uint256"
        }
      ],
      "name": "updateAddrIdx",
      "outputs": [
        {
          "internalType": "uint256",
          "name": "",
          "type": "uint256"
        }
      ],
      "stateMutability": "pure",
      "type": "function"
    },
    {
      "inputs": [
        {
          "internalType": "uint256",
          "name": "idx",
          "type": "uint256"
        },
        {
          "internalType": "uint256",
          "name": "pairIdx",
          "type": "uint256"
        }
      ],
      "name": "updatePairIdx",
      "outputs": [
        {
          "internalType": "uint256",
          "name": "",
          "type": "uint256"
        }
      ],
      "stateMutability": "pure",
      "type": "function"
    },
    {
      "inputs": [],
      "name": "wETH",
      "outputs": [
        {
          "internalType": "address",
          "name": "",
          "type": "address"
        }
      ],
      "stateMutability": "view",
      "type": "function"
    },
    {
      "inputs": [
        {
          "internalType": "address",
          "name": "etoken",
          "type": "address"
        },
        {
          "internalType": "uint256",
          "name": "amt",
          "type": "uint256"
        }
      ],
      "name": "withdraw",
      "outputs": [],
      "stateMutability": "nonpayable",
      "type": "function"
    },
    {
      "inputs": [
        {
          "internalType": "address",
          "name": "token",
          "type": "address"
        },
        {
          "internalType": "uint256",
          "name": "amt",
          "type": "uint256"
        }
      ],
      "name": "withdrawUnderlying",
      "outputs": [],
      "stateMutability": "nonpayable",
      "type": "function"
    },
    {
      "stateMutability": "payable",
      "type": "receive"
    }
  ],
  "bytecode": "0x60806040526005600755601e600855601e6009553480156200002057600080fd5b5060405162005ed738038062005ed7833981016040819052620000439162000147565b60006200004f62000125565b6000805462010000600160b01b031916620100006001600160a01b038416908102919091178255604051929350917f8be0079c531659141344cd1fd0a4f28419497f9722a3daafe3b4186f6b6457e0908290a35060008054600380546001600160a01b03199081166001600160a01b039788161790915560028054610100600160a81b0319166101009688169690960295909517909455600580548516938616939093179092556004805490931694909316939093179055600160b01b60ff60b01b1992831681179092169091179055620001a7565b3390565b80516001600160a01b03811681146200014157600080fd5b92915050565b600080600080608085870312156200015d578384fd5b62000169868662000129565b93506200017a866020870162000129565b92506200018b866040870162000129565b91506200019c866060870162000129565b905092959194509250565b615d2080620001b76000396000f3fe6080604052600436106103595760003560e01c80637623cccb116101bb578063ac6f0cc8116100f7578063f46901ed11610095578063f8c8765e1161006f578063f8c8765e14610966578063fbd2eb7c14610986578063fdb87252146109a6578063ffa1ad74146109c657610360565b8063f46901ed14610906578063f7888aec14610926578063f7d5b2d91461094657610360565b8063d7755b8b116100d1578063d7755b8b14610891578063f2428621146108b1578063f2fde38b146108c6578063f3fef3a3146108e657610360565b8063ac6f0cc814610831578063c0e863c314610851578063c70b116b1461087157610360565b806396ed28f9116101645780639c7ad7f41161013e5780639c7ad7f4146107b3578063a1b4d011146107d3578063a66eb9ac146107e8578063a85c38ef146107fd57610360565b806396ed28f91461075357806399117be9146107735780639c5e52d51461079357610360565b8063862d77ba11610195578063862d77ba146107095780638da5cb5b14610729578063918f86741461073e57610360565b80637623cccb146106a3578063803289fe146106c357806382e011eb146106d857610360565b8063418f284511610295578063597e1fb5116102335780636d0b6a6c1161020d5780636d0b6a6c1461063b578063715018a61461065b5780637313cff41461067057806375bca9231461069057610360565b8063597e1fb5146105d9578063613436bc146105fb578063683b6d291461061b57610360565b8063514fcac71161026f578063514fcac71461056f578063523439e61461058f57806352e86d5b146105a4578063584c617e146105c457610360565b8063418f28451461051857806345e66071146105455780634b5950f41461055a57610360565b80631f1260651161030257806328b6ae8f116102dc57806328b6ae8f1461049857806329e06c0a146104b85780632af77a73146104d85780632c58870b146104f857610360565b80631f126065146104275780632085dcd01461045557806325c9e2761461048357610360565b80631a7b2068116103335780631a7b2068146103c75780631cf60222146103e75780631d20980a1461040757610360565b8063017e7e58146103655780631517c45514610390578063163de5e5146103a557610360565b3661036057005b600080fd5b34801561037157600080fd5b5061037a6109db565b604051610387919061502d565b60405180910390f35b6103a361039e366004614d1d565b6109ea565b005b3480156103b157600080fd5b506103ba610acb565b6040516103879190615b87565b3480156103d357600080fd5b506103a36103e2366004614afe565b610ad1565b3480156103f357600080fd5b506103ba610402366004614cb7565b610b32565b34801561041357600080fd5b506103ba610422366004614dd4565b610b60565b34801561043357600080fd5b50610447610442366004614dd4565b610b79565b60405161038792919061521d565b34801561046157600080fd5b50610475610470366004614ce2565b610bcb565b604051610387929190615b90565b34801561048f57600080fd5b5061037a610dd6565b3480156104a457600080fd5b506103a36104b3366004614b6e565b610de5565b3480156104c457600080fd5b506104756104d3366004614e04565b6112f3565b3480156104e457600080fd5b506103ba6104f3366004614cb7565b6114a9565b34801561050457600080fd5b506103ba610513366004614dd4565b6114c6565b34801561052457600080fd5b50610538610533366004614e04565b6114d8565b6040516103879190615168565b34801561055157600080fd5b5061037a6116ba565b34801561056657600080fd5b506103ba6116c9565b34801561057b57600080fd5b506103a361058a366004614dd4565b6116cf565b34801561059b57600080fd5b506103ba611b18565b3480156105b057600080fd5b506103ba6105bf366004614e04565b611b1e565b3480156105d057600080fd5b506103ba611b37565b3480156105e557600080fd5b506105ee611b3d565b6040516103879190615212565b34801561060757600080fd5b506103ba610616366004614dd4565b611b46565b34801561062757600080fd5b506103a3610636366004614c77565b611b4c565b34801561064757600080fd5b506103ba610656366004614e04565b611c22565b34801561066757600080fd5b506103a3611c40565b34801561067c57600080fd5b506103a361068b366004614dd4565b611cdd565b6103ba61069e366004614c13565b611d21565b3480156106af57600080fd5b506105ee6106be366004614dd4565b61236c565b3480156106cf57600080fd5b506103a3612393565b3480156106e457600080fd5b506106f86106f3366004614dd4565b6123de565b60405161038795949392919061511e565b34801561071557600080fd5b506103ba610724366004614e04565b6124fe565b34801561073557600080fd5b5061037a612518565b34801561074a57600080fd5b506103ba61252d565b34801561075f57600080fd5b506103ba61076e366004614b36565b612533565b34801561077f57600080fd5b506103ba61078e366004614dd4565b612556565b34801561079f57600080fd5b506103ba6107ae366004614afe565b61261f565b3480156107bf57600080fd5b506103a36107ce366004614c77565b612631565b3480156107df57600080fd5b5061037a6126d1565b3480156107f457600080fd5b506103a36126e0565b34801561080957600080fd5b5061081d610818366004614dd4565b61272e565b604051610387989796959493929190615bec565b34801561083d57600080fd5b506103ba61084c366004614dd4565b6127e7565b34801561085d57600080fd5b506103a361086c366004614cb7565b6128a6565b34801561087d57600080fd5b506103ba61088c366004614b36565b61290b565b34801561089d57600080fd5b506103ba6108ac366004614e04565b612917565b3480156108bd57600080fd5b5061037a61291e565b3480156108d257600080fd5b506103a36108e1366004614afe565b612932565b3480156108f257600080fd5b506103a3610901366004614cb7565b612a0d565b34801561091257600080fd5b506103a3610921366004614afe565b612aaf565b34801561093257600080fd5b506103ba610941366004614b36565b612b10565b610959610954366004614e48565b612b2d565b6040516103879190615af1565b34801561097257600080fd5b506103a3610981366004614bb8565b6130f8565b34801561099257600080fd5b506103ba6109a1366004614cb7565b613201565b3480156109b257600080fd5b506103a36109c1366004614cb7565b61321a565b3480156109d257600080fd5b506103ba6132cc565b6006546001600160a01b031681565b60025460ff1615610a165760405162461bcd60e51b8152600401610a0d9061594a565b60405180910390fd5b8351855114610a375760405162461bcd60e51b8152600401610a0d906156fe565b60005b8551811015610ac357610aba868281518110610a5257fe5b6020026020010151868381518110610a6657fe5b6020026020010151868686600067ffffffffffffffff81118015610a8957600080fd5b506040519080825280601f01601f191660200182016040528015610ab4576020820181803683370190505b50612b2d565b50600101610a3a565b505050505050565b60015481565b610ad96132d1565b6001600160a01b0316610aea612518565b6001600160a01b031614610b105760405162461bcd60e51b8152600401610a0d906156c9565b600580546001600160a01b0319166001600160a01b0392909216919091179055565b600e6020528160005260406000208181548110610b4b57fe5b90600052602060002001600091509150505481565b6fffffffffffffffffffffffffffffffff81165b919050565b6000806001548310610b9d5760405162461bcd60e51b8152600401610a0d906153e9565b6000838152600d6020526040902060040154610bb88161236c565b9250610bc3816132d5565b915050915091565b60008060005b8351811015610dd057610be2614944565b50600180546000908152600d6020818152604092839020835161010080820186528254825295820154818401526002820154818601526003820154606080830191909152600483015460808084019190915260058401546001600160a01b0390811660a0808601919091526006860154821660c080870191909152895161012081018b5260078801548416815260088801548416988101989098526009870154831699880199909952600a86015490911692860192909252600b84015490850152600c830154908401529281015493820193909352600e83015460e082810191909152600f909301549381019390935290810191909152610ce16149a0565b8160e00151905060008073__$ede4fa3877902dc4fe1d8d42678939ceaa$__63b5138f4e846020015185606001518660a001518760e00151610d348960c001518a60a001516132dd90919063ffffffff16565b6040518663ffffffff1660e01b8152600401610d5495949392919061511e565b604080518083038186803b158015610d6b57600080fd5b505af4158015610d7f573d6000803e3d6000fd5b505050506040513d601f19601f82011682018060405250810190610da39190614e25565b9092509050610db2878361331f565b9650610dbe868261331f565b95505060019093019250610bd1915050565b50915091565b6004546001600160a01b031681565b600054600160b01b900460ff16610e0e5760405162461bcd60e51b8152600401610a0d90615aba565b6000805460ff60b01b191690556005546001600160a01b03163314610e455760405162461bcd60e51b8152600401610a0d906155fe565b6000610e518484613344565b90506000610e5f8486613344565b6001600160a01b0384166000908152600e602090815260409182902080548351818402810184019094528084529394506060939091830182828015610ec357602002820191906000526020600020905b815481526020019060010190808311610eaf575b50505050509050600080825160001415610ee15750505050506112db565b60005b835181101561116b576000600d6000868481518110610eff57fe5b6020026020010151815260200190815260200160002090506000816002015490508781141561104357600d820154600c830154610f3b916132dd565b6004830180546001908117918290556040805161010080820183528754825292870154602080830191909152600288015482840152600388015460608084019190915260808084019690965260058901546001600160a01b0390811660a08086019190915260068b0154821660c08087019190915286516101208101885260078d01548416815260088d015484169581019590955260098c0154831696850196909652600a8b015490911691830191909152600b89015495820195909552600c88015494810194909452600d87015491840191909152600e86015460e084810191909152600f870154928401929092529081019190915295019461103e90613378565b611161565b8681141561116157600d820154600c83015461105e916132dd565b6004830180546001908117918290556040805161010080820183528754825292870154602080830191909152600288015482840152600388015460608084019190915260808084019690965260058901546001600160a01b0390811660a08086019190915260068b0154821660c08087019190915286516101208101885260078d01548416815260088d015484169581019590955260098c0154831696850196909652600a8b015490911691830191909152600b89015495820195909552600c88015494810194909452600d87015491840191909152600e86015460e084810191909152600f870154928401929092529081019190915294019361116190613378565b5050600101610ee4565b5081156111f55760055461118a9089906001600160a01b031684613707565b600554604051632df6767560e21b81526001600160a01b039091169063b7d9d9d4906111c29089908c908c9082908990600401615093565b600060405180830381600087803b1580156111dc57600080fd5b505af11580156111f0573d6000803e3d6000fd5b505050505b801561127e576005546112139088906001600160a01b031683613707565b600554604051632df6767560e21b81526001600160a01b039091169063b7d9d9d49061124b9089908b908d9082908890600401615093565b600060405180830381600087803b15801561126557600080fd5b505af1158015611279573d6000803e3d6000fd5b505050505b866001600160a01b0316886001600160a01b0316876001600160a01b03167fb89f3eba8661e8853ca82806a86a551ad0caa004e4c8c1ea3bfe07d6b0d905a485856040516112cd929190615b90565b60405180910390a450505050505b50506000805460ff60b01b1916600160b01b17905550565b6000806112fe614944565b506000848152600d602081815260409283902083516101008082018652825482526001830154828501526002830154828701526003830154606080840191909152600484015460808085019190915260058501546001600160a01b0390811660a0808701919091526006870154821660c0808801919091528a5161012081018c526007890154841681526008890154841699810199909952600988015483169a89019a909a52600a87015490911692870192909252600b85015490860152600c840154908501529382015494830194909452600e81015460e083810191909152600f9091015492820192909252908201526113f76149a0565b8160e00151905073__$ede4fa3877902dc4fe1d8d42678939ceaa$__63b5138f4e826020015183606001518460a001518560e001518a6040518663ffffffff1660e01b815260040161144d95949392919061511e565b604080518083038186803b15801561146457600080fd5b505af4158015611478573d6000803e3d6000fd5b505050506040513d601f19601f8201168201806040525081019061149c9190614e25565b9350935050509250929050565b601160209081526000928352604080842090915290825290205481565b600a6020526000908152604090205481565b60606000826114e75760015492505b835b83811015611520576000818152600d602052604090206004015461150c816132d5565b611517576001909201915b506001016114e9565b508067ffffffffffffffff8111801561153857600080fd5b5060405190808252806020026020018201604052801561157257816020015b61155f614944565b8152602001906001900390816115575790505b5091506000845b848110156116b157611589614944565b506000818152600d6020818152604092839020835161010080820186528254825260018301548285015260028301548287015260038301546060808401919091526004840154608080850191825260058601546001600160a01b0390811660a0808801919091526006880154821660c0808901919091528b5161012081018d5260078a01548416815260088a015484169a81019a909a52600989015483169b8a019b909b52600a88015490911693880193909352600b86015490870152600c850154918601919091529483015495840195909552600e82015460e084810191909152600f909201549483019490945283015251611685906132d5565b6116a8578085848151811061169657fe5b60209081029190910101526001909201915b50600101611579565b50505092915050565b6005546001600160a01b031681565b60075481565b600054600160b01b900460ff166116f85760405162461bcd60e51b8152600401610a0d90615aba565b6000805460ff60b01b19168155818152600d6020526040812060048101549091906117229061236c565b9050801561177c57611732612518565b6001600160a01b0316336001600160a01b0316148061175b57506005546001600160a01b031633145b6117775760405162461bcd60e51b8152600401610a0d90615913565b6117cb565b611784612518565b6001600160a01b0316336001600160a01b031614806117af575060058201546001600160a01b031633145b6117cb5760405162461bcd60e51b8152600401610a0d906157da565b6117d882600401546132d5565b156117f55760405162461bcd60e51b8152600401610a0d90615811565b60078201546009830154600d840154600c8501546001600160a01b03938416939092169160009161182691906132dd565b9050801561188257816001600160a01b0316836001600160a01b03161461186857600585015461186390849084906001600160a01b031684613803565b611882565b60058501546118829084906001600160a01b031683613707565b8361192457600a85015460088601546001600160a01b039182166000818152600c6020908152604080832060068c015487168452909152902054909290911690801561191c57816001600160a01b0316836001600160a01b031614156119015760068801546118fc906001600160a01b0316848380613929565b61191c565b600688015461191c906001600160a01b031683858480613970565b5050506119a2565b600554600686015460088701546007880154604051632df6767560e21b81526001600160a01b039485169463b7d9d9d49461196f949082169389939183169216908890600401615093565b600060405180830381600087803b15801561198957600080fd5b505af115801561199d573d6000803e3d6000fd5b505050505b600485018054600190811791829055604080516101008082018352895482529289015460208083019190915260028a01548284015260038a015460608084019190915260808084019690965260058b01546001600160a01b0390811660a08086019190915260068d0154821660c08087019190915286516101208101885260078f01548416815260088f015484169581019590955260098e0154831696850196909652600a8d015490911691830191909152600b8b015495820195909552600c8a015494810194909452600d89015491840191909152600e88015460e084810191909152600f8901549284019290925290810191909152611aa290613378565b6008850154600786015460058701546040516001600160a01b039384169392831692909116907fa263a8e516fa313745abfe43252b015249ad3c987ae268d37531ce67364d7acf90611af5908b90615b87565b60405180910390a450506000805460ff60b01b1916600160b01b17905550505050565b60085481565b60106020528160005260406000208181548110610b4b57fe5b60095481565b60025460ff1681565b60801c90565b611b546132d1565b6001600160a01b0316611b65612518565b6001600160a01b031614611b8b5760405162461bcd60e51b8152600401610a0d906156c9565b6000611b9784846139ac565b6040517f24637ce000000000000000000000000000000000000000000000000000000000815290915073__$95c6f8e4159971276d72925c2dc3de45f7$__906324637ce090611bec9084908690600401615b90565b60006040518083038186803b158015611c0457600080fd5b505af4158015611c18573d6000803e3d6000fd5b5050505050505050565b6000611c2d82611b46565b611c3684610b60565b1790505b92915050565b611c486132d1565b6001600160a01b0316611c59612518565b6001600160a01b031614611c7f5760405162461bcd60e51b8152600401610a0d906156c9565b60008054604051620100009091046001600160a01b0316907f8be0079c531659141344cd1fd0a4f28419497f9722a3daafe3b4186f6b6457e0908390a36000805475ffffffffffffffffffffffffffffffffffffffff000019169055565b611ce56132d1565b6001600160a01b0316611cf6612518565b6001600160a01b031614611d1c5760405162461bcd60e51b8152600401610a0d906156c9565b600755565b60025460009060ff1615611d475760405162461bcd60e51b8152600401610a0d9061594a565b600054600160b01b900460ff16611d705760405162461bcd60e51b8152600401610a0d90615aba565b6000805460ff60b01b191690556001600160a01b038781169087161415611da95760405162461bcd60e51b8152600401610a0d906159b8565b50600180548082019091556000818152600d602052604090208181556005810180546001600160a01b031916331790556001600160a01b03861615611dee5785611df0565b335b6006820180546001600160a01b0319166001600160a01b03928316179055426003830155600482018490556000600d8301558816611e4d5784341015611e485760405162461bcd60e51b8152600401610a0d9061576c565b611e59565b611e59883330886139eb565b6000611e6489613ae9565b6007830180546001600160a01b03808d166001600160a01b03199283168117909355600986018054918516919092168117909155600b850189905591925014611ebc57611eb2898288613cfc565b600c830155611ec4565b600c82018690555b6001600160a01b0381166000908152600b6020526040902054600c83015411611eff5760405162461bcd60e51b8152600401610a0d90615848565b6008820180546001600160a01b0319166001600160a01b038a161790556000611f2789613ae9565b600a840180546001600160a01b038084166001600160a01b03199092168217909255600e86018990559192508b811684821614908b1690911414611f7d5760405162461bcd60e51b8152600401610a0d906159ef565b611f878282613344565b60028401556005546001600160a01b03163314156120c957611fa88561236c565b611fc45760405162461bcd60e51b8152600401610a0d90615981565b896001600160a01b0316826001600160a01b031614611ff55760405162461bcd60e51b8152600401610a0d90615635565b6001600160a01b03881633141561201e5760405162461bcd60e51b8152600401610a0d9061556a565b600a8301546001600160a01b038a811691161461204d5760405162461bcd60e51b8152600401610a0d906154c5565b6001600160a01b03881660009081526011602090815260408083206002870154845290915290205460075481106120965760405162461bcd60e51b8152600401610a0d90615242565b6001600160a01b0389166000908152601160209081526040808320600288015484529091529020600190910190556120ef565b6120d28561236c565b156120ef5760405162461bcd60e51b8152600401610a0d906153b2565b604051636eb1769f60e11b81527f7fffffffffffffffffffffffffffffffffffffffffffffffffffffffffffffff906001600160a01b0383169063dd62ed3e9061213f9030908690600401615041565b60206040518083038186803b15801561215757600080fd5b505afa15801561216b573d6000803e3d6000fd5b505050506040513d601f19601f8201168201806040525081019061218f9190614dec565b10156122195760405163095ea7b360e01b81526001600160a01b0382169063095ea7b3906121c59084906000199060040161514f565b602060405180830381600087803b1580156121df57600080fd5b505af11580156121f3573d6000803e3d6000fd5b505050506040513d601f19601f820116820180604052508101906122179190614db8565b505b604051636eb1769f60e11b81527f7fffffffffffffffffffffffffffffffffffffffffffffffffffffffffffffff906001600160a01b0384169063dd62ed3e906122699030908790600401615041565b60206040518083038186803b15801561228157600080fd5b505afa158015612295573d6000803e3d6000fd5b505050506040513d601f19601f820116820180604052508101906122b99190614dec565b10156123435760405163095ea7b360e01b81526001600160a01b0383169063095ea7b3906122ef9084906000199060040161514f565b602060405180830381600087803b15801561230957600080fd5b505af115801561231d573d6000803e3d6000fd5b505050506040513d601f19601f820116820180604052508101906123419190614db8565b505b61234c83613f1f565b50506000805460ff60b01b1916600160b01b179055509695505050505050565b7f800000000000000000000000000000000000000000000000000000000000000016151590565b61239b6132d1565b6001600160a01b03166123ac612518565b6001600160a01b0316146123d25760405162461bcd60e51b8152600401610a0d906156c9565b6002805460ff19169055565b60008060008060006123ee614944565b50505060009384525050600d602081815260409384902084516101008082018752825482526001830154828501526002830154828801526003830154606080840191909152600484015460808085019190915260058501546001600160a01b0390811660a0808701919091526006870154821660c0808801919091528b5161012081018d526007890154841681526008890154841699810199909952600988015483169b89019b8c52600a880154909216938801938452600b87015492880192909252600c86015491870191825296850154968601968752600e85015460e0878101918252600f909601549387019390935293909201939093529451945190519251915194959094929350909190565b6fffffffffffffffffffffffffffffffff19919091161790565b6000546201000090046001600160a01b031690565b61271081565b600061254f61254184614058565b61254a84614058565b613344565b9392505050565b6000818152600a602052604080822090517f652bccd3000000000000000000000000000000000000000000000000000000008152829173__$95c6f8e4159971276d72925c2dc3de45f7$__9163652bccd3916125b491600401615b87565b60206040518083038186803b1580156125cc57600080fd5b505af41580156125e0573d6000803e3d6000fd5b505050506040513d601f19601f820116820180604052508101906126049190614dec565b905080612615575050600854610b74565b6000190192915050565b600b6020526000908152604090205481565b6126396132d1565b6001600160a01b031661264a612518565b6001600160a01b0316146126705760405162461bcd60e51b8152600401610a0d906156c9565b600061267c84846139ac565b6040517f32b914bf00000000000000000000000000000000000000000000000000000000815290915073__$95c6f8e4159971276d72925c2dc3de45f7$__906332b914bf90611bec9084908690600401615b90565b6003546001600160a01b031681565b6126e86132d1565b6001600160a01b03166126f9612518565b6001600160a01b03161461271f5760405162461bcd60e51b8152600401610a0d906156c9565b6002805460ff19166001179055565b600d6020818152600092835260409283902080546001820154600283015460038401546004850154600586015460068701548a5161012081018c5260078901546001600160a01b03908116825260088a015481169a82019a909a5260098901548a169b81019b909b52600a880154891660608c0152600b88015460808c0152600c88015460a08c01529887015460c08b0152600e87015460e08b0152600f909601546101008a0152939792969195909481169291169088565b6000818152600a602052604080822090517fa645cb6d000000000000000000000000000000000000000000000000000000008152829173__$95c6f8e4159971276d72925c2dc3de45f7$__9163a645cb6d9161284591600401615b87565b60206040518083038186803b15801561285d57600080fd5b505af4158015612871573d6000803e3d6000fd5b505050506040513d601f19601f820116820180604052508101906128959190614dec565b905080612615575050600954610b74565b6128ae6132d1565b6001600160a01b03166128bf612518565b6001600160a01b0316146128e55760405162461bcd60e51b8152600401610a0d906156c9565b6128ee82614134565b506001600160a01b039091166000908152600b6020526040902055565b600061254f8383613344565b60801b1790565b60025461010090046001600160a01b031681565b61293a6132d1565b6001600160a01b031661294b612518565b6001600160a01b0316146129715760405162461bcd60e51b8152600401610a0d906156c9565b6001600160a01b0381166129975760405162461bcd60e51b8152600401610a0d9061531e565b600080546040516001600160a01b03808516936201000090930416917f8be0079c531659141344cd1fd0a4f28419497f9722a3daafe3b4186f6b6457e091a3600080546001600160a01b03909216620100000275ffffffffffffffffffffffffffffffffffffffff000019909216919091179055565b60025460ff1615612a305760405162461bcd60e51b8152600401610a0d9061594a565b6001600160a01b0382166000908152600c6020908152604080832033845290915290205480612a715760405162461bcd60e51b8152600401610a0d90615735565b81612a7e57809150612a9e565b81811015612a9e5760405162461bcd60e51b8152600401610a0d90615a26565b612aaa33848385613929565b505050565b612ab76132d1565b6001600160a01b0316612ac8612518565b6001600160a01b031614612aee5760405162461bcd60e51b8152600401610a0d906156c9565b600680546001600160a01b0319166001600160a01b0392909216919091179055565b600c60209081526000928352604080842090915290825290205481565b612b35614a10565b60025460ff1615612b585760405162461bcd60e51b8152600401610a0d9061594a565b600054600160b01b900460ff16612b815760405162461bcd60e51b8152600401610a0d90615aba565b6000805460ff60b01b19168155878152600d6020526040902086612bb75760405162461bcd60e51b8152600401610a0d906152e7565b600481015460011615612bca57506130db565b612bd26149a0565b50604080516101208101825260078301546001600160a01b0390811682526008840154811660208301526009840154811692820192909252600a83015482166060820152600b8301546080820152600c83015460a0820152600d83015460c0820152600e83015460e0820152600f830154610100820152908716612c54573396505b85151583526060830188905260098201546001600160a01b039081166020850152600a83015416604084015260c081015160a0820151600091612c9791906132dd565b905080891115612cc65785612cbe5760405162461bcd60e51b8152600401610a0d906158dc565b606084018190525b50612cd6818484600201546141ff565b606081015160408201518715612d1e5782516001600160a01b038281169082161415612d0857612d0582614134565b90505b612d1881838c8960c00151613803565b50612d2d565b612d2d818a8760c00151613707565b855115612f09576040517f70a082310000000000000000000000000000000000000000000000000000000081526000906001600160a01b038416906370a0823190612d7c90309060040161502d565b60206040518083038186803b158015612d9457600080fd5b505afa158015612da8573d6000803e3d6000fd5b505050506040513d601f19601f82011682018060405250810190612dcc9190614dec565b60c08701516101208801516040517f226dc8820000000000000000000000000000000000000000000000000000000081529293506001600160a01b038d169263226dc88292612e219233928d9060040161505b565b600060405180830381600087803b158015612e3b57600080fd5b505af1158015612e4f573d6000803e3d6000fd5b505050506000612edb82856001600160a01b03166370a08231306040518263ffffffff1660e01b8152600401612e85919061502d565b60206040518083038186803b158015612e9d57600080fd5b505afa158015612eb1573d6000803e3d6000fd5b505050506040513d601f19601f82011682018060405250810190612ed59190614dec565b906132dd565b9050866101200151811015612f025760405162461bcd60e51b8152600401610a0d9061548e565b5050612fcf565b8715612fbe5760208301516001600160a01b038381169082161415612f3457612f3183614134565b90505b6001600160a01b038116612f9d578561014001513410612f80576000612f68876101400151346132dd90919063ffffffff16565b90508015612f7a57612f7a33826144cd565b50612f98565b60405162461bcd60e51b8152600401610a0d90615533565b612fae565b612fae8133308961014001516139eb565b612f028184886101400151613cfc565b612fcf8233308861012001516139eb565b60008560800151118015612fed57506006546001600160a01b031615155b156130115760065460808601516130119183916001600160a01b0390911690613707565b60008560a0015111801561302f57506006546001600160a01b031615155b156130535760065460a08601516130539184916001600160a01b0390911690613707565b61306784866060015187610100015161455a565b336001600160a01b03168460050160009054906101000a90046001600160a01b03166001600160a01b03167fd00ede2e0292fd63d9ba8b4b572003009a04bcdf39cd75ac9684433d20de7ebf8d88606001518961012001516040516130ce93929190615bbb565b60405180910390a3505050505b6000805460ff60b01b1916600160b01b1790559695505050505050565b600054610100900460ff1680613111575061311161484e565b8061311f575060005460ff16155b61313b5760405162461bcd60e51b8152600401610a0d906155a1565b600054610100900460ff16158015613166576000805460ff1961ff0019909116610100171660011790555b600380546001600160a01b038087166001600160a01b03199283161790925560028054868416610100027fffffffffffffffffffffff0000000000000000000000000000000000000000ff9091161790556005805485841690831617905560048054928816929091169190911790556000805460ff60b01b1916600160b01b17905580156131fa576000805461ff00191690555b5050505050565b600f6020528160005260406000208181548110610b4b57fe5b60025460ff161561323d5760405162461bcd60e51b8152600401610a0d9061594a565b600061324883614058565b6001600160a01b0381166000908152600c602090815260408083203384529091529020549091508061328c5760405162461bcd60e51b8152600401610a0d90615735565b82613299578092506132b9565b828110156132b95760405162461bcd60e51b8152600401610a0d90615a26565b6132c63385848487613970565b50505050565b600181565b3390565b600116151590565b600061254f83836040518060400160405280601e81526020017f536166654d6174683a207375627472616374696f6e206f766572666c6f77000081525061485f565b60008282018381101561254f5760405162461bcd60e51b8152600401610a0d90615420565b60008282604051602001613359929190614fea565b60408051601f1981840301815291905280516020909101209392505050565b60006133878260200151610b60565b905060006133988360200151611b46565b905060008360a0015190506000806133b3866080015161236c565b905080156134f55760c08601516001600160a01b0381166000908152600e60205260409020549093506000190184811461348a576001600160a01b0384166000908152600e6020526040902080548290811061340b57fe5b9060005260206000200154925082600e6000866001600160a01b03166001600160a01b03168152602001908152602001600020868154811061344957fe5b9060005260206000200181905550613477600d60008581526020019081526020016000206001015486611c22565b6000848152600d60205260409020600101555b6001600160a01b0384166000908152600e602052604090208054806134ab57fe5b6000828152602080822083016000199081018390559283019093556001600160a01b03871681526011835260408082208b82015183529093529190912080549091019055506135f5565b6001600160a01b0383166000908152600f6020526040902054600019018481146135bc576001600160a01b0384166000908152600f6020526040902080548290811061353d57fe5b9060005260206000200154925082600f6000866001600160a01b03166001600160a01b03168152602001908152602001600020868154811061357b57fe5b90600052602060002001819055506135a9600d60008581526020019081526020016000206001015486611c22565b6000848152600d60205260409020600101555b6001600160a01b0384166000908152600f602052604090208054806135dd57fe5b60019003818190600052602060002001600090559055505b604080870151600090815260106020522054600110801561362b5750604080870151600090815260106020522054600019018514155b156136cf576040808701805160009081526010602052828120915181529190912054815460001990910190811061365e57fe5b90600052602060002001549150816010600088604001518152602001908152602001600020868154811061368e57fe5b90600052602060002001819055506136bc600d600084815260200190815260200160002060010154866124fe565b6000838152600d60205260409020600101555b60408087015160009081526010602052208054806136e957fe5b60019003818190600052602060002001600090559055505050505050565b60006060846001600160a01b031663a9059cbb858560405160240161372d92919061514f565b6040516020818303038152906040529060e01b6020820180517bffffffffffffffffffffffffffffffffffffffffffffffffffffffff838183161783525050505060405161377b9190615011565b6000604051808303816000865af19150503d80600081146137b8576040519150601f19603f3d011682016040523d82523d6000602084013e6137bd565b606091505b50915091508180156137e75750805115806137e75750808060200190518101906137e79190614db8565b6131fa5760405162461bcd60e51b8152600401610a0d90615279565b826001600160a01b0316846001600160a01b031614156138355760405162461bcd60e51b8152600401610a0d9061537b565b600080846001600160a01b031663db006a75846040518263ffffffff1660e01b81526004016138649190615b87565b606060405180830381600087803b15801561387e57600080fd5b505af1158015613892573d6000803e3d6000fd5b505050506040513d601f19601f820116820180604052508101906138b69190614f0c565b925050915081600014806138ca575081600e145b6138e65760405162461bcd60e51b8152600401610a0d906157a3565b81600e1415613901576138fa858585613707565b50506132c6565b6001600160a01b03861661391e5761391984826144cd565b610ac3565b610ac3868583613707565b613934838583613707565b61393e82826132dd565b6001600160a01b039384166000908152600c602090815260408083209790961682529590955292909320919091555050565b61397a82826132dd565b6001600160a01b038085166000908152600c60209081526040808320938a16835292905220556131fa84848784613803565b6000806139b884614058565b905060006139c584614058565b905060006139d38383613344565b6000908152600a602052604090209695505050505050565b60006060856001600160a01b03166323b872dd868686604051602401613a13939291906150fa565b6040516020818303038152906040529060e01b6020820180517bffffffffffffffffffffffffffffffffffffffffffffffffffffffff8381831617835250505050604051613a619190615011565b6000604051808303816000865af19150503d8060008114613a9e576040519150601f19603f3d011682016040523d82523d6000602084013e613aa3565b606091505b5091509150818015613acd575080511580613acd575080806020019051810190613acd9190614db8565b610ac35760405162461bcd60e51b8152600401610a0d90615a5d565b60006001600160a01b0382161580613b1357506002546001600160a01b0383811661010090920416145b15613b2a57506003546001600160a01b0316610b74565b6004805460405163714bca1f60e11b81526000926001600160a01b039092169163e297943e91613b5c9187910161502d565b60206040518083038186803b158015613b7457600080fd5b505afa158015613b88573d6000803e3d6000fd5b505050506040513d601f19601f82011682018060405250810190613bac9190614b1a565b90506001600160a01b038116611c3a576004805460405163b8d7b66960e01b81526000926001600160a01b039092169163b8d7b66991613bee9188910161502d565b60206040518083038186803b158015613c0657600080fd5b505afa158015613c1a573d6000803e3d6000fd5b505050506040513d601f19601f82011682018060405250810190613c3e9190614b1a565b90506001600160a01b03811615613c59578392505050610b74565b600480546040517f26c7bd930000000000000000000000000000000000000000000000000000000081526001600160a01b03909116916326c7bd9391613ca19188910161502d565b602060405180830381600087803b158015613cbb57600080fd5b505af1158015613ccf573d6000803e3d6000fd5b505050506040513d601f19601f82011682018060405250810190613cf39190614b1a565b92505050610b74565b600080836001600160a01b0316856001600160a01b03161415613d315760405162461bcd60e51b8152600401610a0d906152b0565b6001600160a01b038516613ddd57600354604080517f1249c58b00000000000000000000000000000000000000000000000000000000815281516001600160a01b0390931692631249c58b9287926004808201939182900301818588803b158015613d9b57600080fd5b505af1158015613daf573d6000803e3d6000fd5b50505050506040513d601f19601f82011682018060405250810190613dd49190614e25565b92509050613ef9565b60405163095ea7b360e01b81526001600160a01b0386169063095ea7b390613e0b908790879060040161514f565b602060405180830381600087803b158015613e2557600080fd5b505af1158015613e39573d6000803e3d6000fd5b505050506040513d601f19601f82011682018060405250810190613e5d9190614db8565b506040517fa0712d680000000000000000000000000000000000000000000000000000000081526001600160a01b0385169063a0712d6890613ea3908690600401615b87565b6040805180830381600087803b158015613ebc57600080fd5b505af1158015613ed0573d6000803e3d6000fd5b505050506040513d601f19601f82011682018060405250810190613ef49190614e25565b925090505b8015613f175760405162461bcd60e51b8152600401610a0d906154fc565b509392505050565b805460048201546000613f318261236c565b600585015490915060009081906001600160a01b03168315613f85575060068601546001600160a01b03166000818152600e6020908152604082208054600181018255908352912081018790559250613fb4565b6001600160a01b0381166000908152600f60209081526040822080546001810182559083529120810187905592505b6002870154600090815260106020908152604082208054600181018255908352912081018790559150613fe78284612917565b600188015560088701546007880154600b890154600e8a01546040516001600160a01b0394851694938416938616927fc8419e5c94126588374d91d4332ef5d56223abb9c42776b667e899ccff2c5f2792614047928d9291908d90615bd1565b60405180910390a450505050505050565b60006001600160a01b038216158061408257506002546001600160a01b0383811661010090920416145b1561409957506003546001600160a01b0316610b74565b6004805460405163714bca1f60e11b81526000926001600160a01b039092169163e297943e916140cb9187910161502d565b60206040518083038186803b1580156140e357600080fd5b505afa1580156140f7573d6000803e3d6000fd5b505050506040513d601f19601f8201168201806040525081019061411b9190614b1a565b90506001600160a01b038116611c3a5782915050610b74565b6003546000906001600160a01b038381169116141561415557506000610b74565b6004805460405163b8d7b66960e01b81526000926001600160a01b039092169163b8d7b669916141879187910161502d565b60206040518083038186803b15801561419f57600080fd5b505afa1580156141b3573d6000803e3d6000fd5b505050506040513d601f19601f820116820180604052508101906141d79190614b1a565b90506001600160a01b038116611c3a5760405162461bcd60e51b8152600401610a0d90615457565b60608201516040517f78cbe05100000000000000000000000000000000000000000000000000000000815273__$ede4fa3877902dc4fe1d8d42678939ceaa$__906378cbe051906142569087908590600401615b9e565b60206040518083038186803b15801561426e57600080fd5b505af4158015614282573d6000803e3d6000fd5b505050506040513d601f19601f820116820180604052508101906142a69190614dec565b6101208401526006546001600160a01b0316156142fd576142dc6127106142d66142cf856127e7565b849061488b565b906148c5565b60808401526142f36127106142d66142cf85612556565b60a084015261430c565b60006080840181905260a08401525b608083015161431c9082906132dd565b60c084015260a0830151610120840151614335916132dd565b6101008401528251156132c65760408085015190517f0bbc1cea00000000000000000000000000000000000000000000000000000000815260009173__$ede4fa3877902dc4fe1d8d42678939ceaa$__91630bbc1cea916143989160040161502d565b60206040518083038186803b1580156143b057600080fd5b505af41580156143c4573d6000803e3d6000fd5b505050506040513d601f19601f820116820180604052508101906143e89190614dec565b9050600073__$ede4fa3877902dc4fe1d8d42678939ceaa$__630bbc1cea87606001516040518263ffffffff1660e01b8152600401614427919061502d565b60206040518083038186803b15801561443f57600080fd5b505af4158015614453573d6000803e3d6000fd5b505050506040513d601f19601f820116820180604052508101906144779190614dec565b905061449c670de0b6b3a76400006142d6848860c0015161488b90919063ffffffff16565b60e08601526101208501516144bf90670de0b6b3a7640000906142d6908461488b565b610140860152505050505050565b604080516000808252602082019092526001600160a01b0384169083906040516144f79190615011565b60006040518083038185875af1925050503d8060008114614534576040519150601f19603f3d011682016040523d82523d6000602084013e614539565b606091505b5050905080612aaa5760405162461bcd60e51b8152600401610a0d9061587f565b60068301546009840154600a85015460048601546001600160a01b0393841693928316929091169061458b9061236c565b15614630576005546145a89082906001600160a01b031686613707565b6005546040517f1889ae210000000000000000000000000000000000000000000000000000000081526001600160a01b0390911690631889ae21906145f9908690869086908a908c906004016150c6565b600060405180830381600087803b15801561461357600080fd5b505af1158015614627573d6000803e3d6000fd5b5050505061465c565b6001600160a01b038082166000908152600c602090815260408083209387168352929052208054850190555b600d86015461466b908661331f565b600d870155600f86015461467f908561331f565b600f870155600c860154600d87015410610ac35760018660040160008282541792505081905550610ac3866040518061010001604052908160008201548152602001600182015481526020016002820154815260200160038201548152602001600482015481526020016005820160009054906101000a90046001600160a01b03166001600160a01b03166001600160a01b031681526020016006820160009054906101000a90046001600160a01b03166001600160a01b03166001600160a01b0316815260200160078201604051806101200160405290816000820160009054906101000a90046001600160a01b03166001600160a01b03166001600160a01b031681526020016001820160009054906101000a90046001600160a01b03166001600160a01b03166001600160a01b031681526020016002820160009054906101000a90046001600160a01b03166001600160a01b03166001600160a01b031681526020016003820160009054906101000a90046001600160a01b03166001600160a01b03166001600160a01b031681526020016004820154815260200160058201548152602001600682015481526020016007820154815260200160088201548152505081525050613378565b600061485930614907565b15905090565b600081848411156148835760405162461bcd60e51b8152600401610a0d919061522f565b505050900390565b60008261489a57506000611c3a565b828202828482816148a757fe5b041461254f5760405162461bcd60e51b8152600401610a0d9061566c565b600061254f83836040518060400160405280601a81526020017f536166654d6174683a206469766973696f6e206279207a65726f00000000000081525061490d565b3b151590565b6000818361492e5760405162461bcd60e51b8152600401610a0d919061522f565b50600083858161493a57fe5b0495945050505050565b604051806101000160405280600081526020016000815260200160008152602001600081526020016000815260200160006001600160a01b0316815260200160006001600160a01b0316815260200161499b6149a0565b905290565b60405180610120016040528060006001600160a01b0316815260200160006001600160a01b0316815260200160006001600160a01b0316815260200160006001600160a01b0316815260200160008152602001600081526020016000815260200160008152602001600081525090565b60405180610160016040528060001515815260200160006001600160a01b0316815260200160006001600160a01b0316815260200160008152602001600081526020016000815260200160008152602001600081526020016000815260200160008152602001600081525090565b600082601f830112614a8e578081fd5b813567ffffffffffffffff811115614aa4578182fd5b6020808202614ab4828201615c41565b83815293508184018583018287018401881015614ad057600080fd5b600092505b84831015614af3578035825260019290920191908301908301614ad5565b505050505092915050565b600060208284031215614b0f578081fd5b813561254f81615cc4565b600060208284031215614b2b578081fd5b815161254f81615cc4565b60008060408385031215614b48578081fd5b8235614b5381615cc4565b91506020830135614b6381615cc4565b809150509250929050565b600080600060608486031215614b82578081fd5b8335614b8d81615cc4565b92506020840135614b9d81615cc4565b91506040840135614bad81615cc4565b809150509250925092565b60008060008060808587031215614bcd578081fd5b8435614bd881615cc4565b93506020850135614be881615cc4565b92506040850135614bf881615cc4565b91506060850135614c0881615cc4565b939692955090935050565b60008060008060008060c08789031215614c2b578182fd5b8635614c3681615cc4565b95506020870135614c4681615cc4565b94506040870135614c5681615cc4565b959894975094956060810135955060808101359460a0909101359350915050565b600080600060608486031215614c8b578283fd5b8335614c9681615cc4565b92506020840135614ca681615cc4565b929592945050506040919091013590565b60008060408385031215614cc9578182fd5b8235614cd481615cc4565b946020939093013593505050565b600060208284031215614cf3578081fd5b813567ffffffffffffffff811115614d09578182fd5b614d1584828501614a7e565b949350505050565b600080600080600060a08688031215614d34578081fd5b853567ffffffffffffffff80821115614d4b578283fd5b614d5789838a01614a7e565b96506020880135915080821115614d6c578283fd5b50614d7988828901614a7e565b9450506040860135614d8a81615cc4565b92506060860135614d9a81615cdc565b91506080860135614daa81615cdc565b809150509295509295909350565b600060208284031215614dc9578081fd5b815161254f81615cdc565b600060208284031215614de5578081fd5b5035919050565b600060208284031215614dfd578081fd5b5051919050565b60008060408385031215614e16578182fd5b50508035926020909101359150565b60008060408385031215614e37578182fd5b505080516020909101519092909150565b60008060008060008060c08789031215614e60578384fd5b86359550602087013594506040870135614e7981615cc4565b93506060870135614e8981615cdc565b92506080870135614e9981615cdc565b915060a087013567ffffffffffffffff811115614eb4578182fd5b8701601f81018913614ec4578182fd5b8035614ed7614ed282615c68565b615c41565b8181528a6020838501011115614eeb578384fd5b614efc826020830160208601615c8c565b8093505050509295509295509295565b600080600060608486031215614f20578081fd5b8351925060208401519150604084015190509250925092565b6001600160a01b03169052565b15159052565b60008151808452614f64816020860160208601615c98565b601f01601f19169290920160200192915050565b6001600160a01b03808251168352806020830151166020840152806040830151166040840152506060810151614fb16060840182614f39565b506080810151608083015260a081015160a083015260c081015160c083015260e081015160e08301526101008082015181840152505050565b6bffffffffffffffffffffffff19606093841b811682529190921b16601482015260280190565b60008251615023818460208701615c98565b9190910192915050565b6001600160a01b0391909116815260200190565b6001600160a01b0392831681529116602082015260400190565b60006001600160a01b0386168252846020830152836040830152608060608301526150896080830184614f4c565b9695505050505050565b6001600160a01b039586168152938516602085015291841660408401529092166060820152608081019190915260a00190565b6001600160a01b03958616815293851660208501529190931660408301526060820192909252608081019190915260a00190565b6001600160a01b039384168152919092166020820152604081019190915260600190565b6001600160a01b03958616815293909416602084015260408301919091526060820152608081019190915260a00190565b6001600160a01b03929092168252602082015260400190565b602080825282518282018190526000919060409081850190868401855b828110156152055781518051855286810151878601528581015186860152606080820151908601526080808201519086015260a0808201516001600160a01b039081169187019190915260c0808301519091169086015260e090810151906151ef81870183614f78565b5050610200939093019290850190600101615185565b5091979650505050505050565b901515815260200190565b91151582521515602082015260400190565b60006020825261254f6020830184614f4c565b6020808252600b908201527f6f7264657220636f756e74000000000000000000000000000000000000000000604082015260600190565b6020808252601f908201527f5472616e7366657248656c7065723a205452414e534645525f4641494c454400604082015260600190565b60208082526012908201527f746f6b656e20657175616c2065746f6b656e0000000000000000000000000000604082015260600190565b6020808252600b908201527f7a65726f20616d6f756e74000000000000000000000000000000000000000000604082015260600190565b60208082526026908201527f4f776e61626c653a206e6577206f776e657220697320746865207a65726f206160408201527f6464726573730000000000000000000000000000000000000000000000000000606082015260800190565b6020808252601d908201527f746f6b656e2073686f756c64206e6f7420657175616c2065746f6b656e000000604082015260600190565b60208082526019908201527f73686f756c64206e6f74206265206d617267696e20666c616700000000000000604082015260600190565b6020808252600a908201527f696e76616c696420696400000000000000000000000000000000000000000000604082015260600190565b6020808252601b908201527f536166654d6174683a206164646974696f6e206f766572666c6f770000000000604082015260600190565b6020808252600e908201527f696e76616c69642065746f6b656e000000000000000000000000000000000000604082015260600190565b6020808252600a908201527f6e6f7420656e6f75676800000000000000000000000000000000000000000000604082015260600190565b60208082526015908201527f646573742073686f756c642062652065746f6b656e0000000000000000000000604082015260600190565b6020808252600b908201527f6d696e74206661696c6564000000000000000000000000000000000000000000604082015260600190565b60208082526011908201527f6e6f7420656e6f7567682065746820696e000000000000000000000000000000604082015260600190565b6020808252601b908201527f746f2073686f756c642062652075736572277320616464726573730000000000604082015260600190565b6020808252602e908201527f496e697469616c697a61626c653a20636f6e747261637420697320616c72656160408201527f647920696e697469616c697a6564000000000000000000000000000000000000606082015260800190565b6020808252600f908201527f6e6f74206d617267696e20616464720000000000000000000000000000000000604082015260600190565b60208082526014908201527f7372632073686f756c642062652065746f6b656e000000000000000000000000604082015260600190565b60208082526021908201527f536166654d6174683a206d756c7469706c69636174696f6e206f766572666c6f60408201527f7700000000000000000000000000000000000000000000000000000000000000606082015260800190565b6020808252818101527f4f776e61626c653a2063616c6c6572206973206e6f7420746865206f776e6572604082015260600190565b6020808252600d908201527f696e76616c696420706172616d00000000000000000000000000000000000000604082015260600190565b60208082526008908201527f6e6f206173736574000000000000000000000000000000000000000000000000604082015260600190565b60208082526013908201527f6e6f7420656e6f75676820616d6f756e74496e00000000000000000000000000604082015260600190565b6020808252600d908201527f72656465656d206661696c656400000000000000000000000000000000000000604082015260600190565b60208082526014908201527f63616e63656c4f726465723a206e6f2061757468000000000000000000000000604082015260600190565b60208082526015908201527f6f7264657220686173206265656e20636c6f7365640000000000000000000000604082015260600190565b60208082526014908201527f6c657373207468616e206d696e20616d6f756e74000000000000000000000000604082015260600190565b60208082526023908201527f5472616e7366657248656c7065723a204554485f5452414e534645525f46414960408201527f4c45440000000000000000000000000000000000000000000000000000000000606082015260800190565b60208082526014908201527f6e6f7420656e6f75676820746f2066756c66696c000000000000000000000000604082015260600190565b6020808252601a908201527f63616e63656c4d617267696e4f726465723a206e6f2061757468000000000000604082015260600190565b60208082526011908201527f6f7264657220626f6f6b20636c6f736564000000000000000000000000000000604082015260600190565b60208082526015908201527f666c61672073686f756c64206265206d617267696e0000000000000000000000604082015260600190565b6020808252600f908201527f6964656e746963616c20746f6b656e0000000000000000000000000000000000604082015260600190565b60208082526014908201527f626f746820746f6b656e206f722065746f6b656e000000000000000000000000604082015260600190565b60208082526010908201527f6e6f7420656e6f75676820617373657400000000000000000000000000000000604082015260600190565b60208082526024908201527f5472616e7366657248656c7065723a205452414e534645525f46524f4d5f464160408201527f494c454400000000000000000000000000000000000000000000000000000000606082015260800190565b6020808252601f908201527f5265656e7472616e637947756172643a207265656e7472616e742063616c6c00604082015260600190565b600061016082019050615b05828451614f46565b6020830151615b176020840182614f39565b506040830151615b2a6040840182614f39565b50606083015160608301526080830151608083015260a083015160a083015260c083015160c083015260e083015160e083015261010080840151818401525061012080840151818401525061014080840151818401525092915050565b90815260200190565b918252602082015260400190565b6101408101615bad8285614f78565b826101208301529392505050565b9283526020830191909152604082015260600190565b93845260208401929092526040830152606082015260800190565b888152602081018890526040810187905260608101869052608081018590526001600160a01b0384811660a0830152831660c08201526102008101615c3460e0830184614f78565b9998505050505050505050565b60405181810167ffffffffffffffff81118282101715615c6057600080fd5b604052919050565b600067ffffffffffffffff821115615c7e578081fd5b50601f01601f191660200190565b82818337506000910152565b60005b83811015615cb3578181015183820152602001615c9b565b838111156132c65750506000910152565b6001600160a01b0381168114615cd957600080fd5b50565b8015158114615cd957600080fdfea2646970667358221220c67f849068da37de50a23b5f2caeec525d32483b3d743c424e868b8b3103972b64736f6c634300060c0033",
  "linkReferences": {
    "contracts/swap/orderbook/OBPairConfig.sol": {
      "OBPairConfig": [
        {
          "length": 20,
          "start": 7545
        },
        {
          "length": 20,
          "start": 10053
        },
        {
          "length": 20,
          "start": 10334
        },
        {
          "length": 20,
          "start": 10710
        }
      ]
    },
    "contracts/swap/orderbook/OBPriceLogic.sol": {
      "OBPriceLogic": [
        {
          "length": 20,
          "start": 3748
        },
        {
          "length": 20,
          "start": 5559
        },
        {
          "length": 20,
          "start": 17379
        },
        {
          "length": 20,
          "start": 17705
        },
        {
          "length": 20,
          "start": 17829
        }
      ]
    }
  },
  "deployedLinkReferences": {
    "contracts/swap/orderbook/OBPairConfig.sol": {
      "OBPairConfig": [
        {
          "length": 20,
          "start": 7106
        },
        {
          "length": 20,
          "start": 9614
        },
        {
          "length": 20,
          "start": 9895
        },
        {
          "length": 20,
          "start": 10271
        }
      ]
    },
    "contracts/swap/orderbook/OBPriceLogic.sol": {
      "OBPriceLogic": [
        {
          "length": 20,
          "start": 3309
        },
        {
          "length": 20,
          "start": 5120
        },
        {
          "length": 20,
          "start": 16940
        },
        {
          "length": 20,
          "start": 17266
        },
        {
          "length": 20,
          "start": 17390
        }
      ]
    }
  }
}