{
  "_format": "hh-sol-artifact-1",
  "contractName": "SwapExchangeRate",
  "sourceName": "contracts/swap/heco/Router.sol",
  "abi": [
    {
      "constant": true,
      "inputs": [
        {
          "internalType": "address",
          "name": "factory",
          "type": "address"
        },
        {
          "internalType": "address",
          "name": "ctokenFactory",
          "type": "address"
        },
        {
          "internalType": "uint256",
          "name": "amountOut",
          "type": "uint256"
        },
        {
          "internalType": "address[]",
          "name": "path",
          "type": "address[]"
        },
        {
          "internalType": "address",
          "name": "to",
          "type": "address"
        }
      ],
      "name": "getAmountsInUnderlying",
      "outputs": [
        {
          "internalType": "uint256[]",
          "name": "amounts",
          "type": "uint256[]"
        },
        {
          "internalType": "uint256",
          "name": "amountIn",
          "type": "uint256"
        }
      ],
      "payable": false,
      "stateMutability": "view",
      "type": "function"
    },
    {
      "constant": true,
      "inputs": [
        {
          "internalType": "address",
          "name": "factory",
          "type": "address"
        },
        {
          "internalType": "address",
          "name": "ctokenFactory",
          "type": "address"
        },
        {
          "internalType": "uint256",
          "name": "amountIn",
          "type": "uint256"
        },
        {
          "internalType": "address[]",
          "name": "path",
          "type": "address[]"
        },
        {
          "internalType": "address",
          "name": "to",
          "type": "address"
        }
      ],
      "name": "getAmountsOutUnderlying",
      "outputs": [
        {
          "internalType": "uint256[]",
          "name": "amounts",
          "type": "uint256[]"
        },
        {
          "internalType": "uint256",
          "name": "amountOut",
          "type": "uint256"
        }
      ],
      "payable": false,
      "stateMutability": "view",
      "type": "function"
    },
    {
      "constant": true,
      "inputs": [
        {
          "internalType": "address",
          "name": "_ctoken",
          "type": "address"
        }
      ],
      "name": "getCurrentExchangeRate",
      "outputs": [
        {
          "internalType": "uint256",
          "name": "",
          "type": "uint256"
        }
      ],
      "payable": false,
      "stateMutability": "view",
      "type": "function"
    },
    {
      "constant": true,
      "inputs": [
        {
          "internalType": "address",
          "name": "factory",
          "type": "address"
        },
        {
          "internalType": "address",
          "name": "ctokenFactory",
          "type": "address"
        },
        {
          "internalType": "uint256",
          "name": "amountA",
          "type": "uint256"
        },
        {
          "internalType": "address",
          "name": "tokenA",
          "type": "address"
        },
        {
          "internalType": "address",
          "name": "tokenB",
          "type": "address"
        }
      ],
      "name": "getLiquidityAmountUnderlying",
      "outputs": [
        {
          "internalType": "uint256",
          "name": "",
          "type": "uint256"
        }
      ],
      "payable": false,
      "stateMutability": "view",
      "type": "function"
    },
    {
      "constant": true,
      "inputs": [
        {
          "internalType": "address",
          "name": "ctokenFactory",
          "type": "address"
        },
        {
          "internalType": "address[]",
          "name": "path",
          "type": "address[]"
        }
      ],
      "name": "path2cpath",
      "outputs": [
        {
          "internalType": "address[]",
          "name": "",
          "type": "address[]"
        }
      ],
      "payable": false,
      "stateMutability": "view",
      "type": "function"
    }
  ],
  "bytecode": "0x610ef0610026600b82828239805160001a60731461001957fe5b30600052607381538281f3fe73000000000000000000000000000000000000000030146080604052600436106100615760003560e01c80635c4410d3146100665780638f56ed841461018d578063c61e0e3c14610259578063d848411f1461035a578063f53e73b9146103b2575b600080fd5b610132600480360360a081101561007c57600080fd5b6001600160a01b03823581169260208101359091169160408201359190810190608081016060820135600160201b8111156100b657600080fd5b8201836020820111156100c857600080fd5b803590602001918460208302840111600160201b831117156100e957600080fd5b919080806020026020016040519081016040528093929190818152602001838360200280828437600092019190915250929550505090356001600160a01b031691506103d89050565b6040518080602001838152602001828103825284818151815260200191508051906020019060200280838360005b83811015610178578181015183820152602001610160565b50505050905001935050505060405180910390f35b610132600480360360a08110156101a357600080fd5b6001600160a01b03823581169260208101359091169160408201359190810190608081016060820135600160201b8111156101dd57600080fd5b8201836020820111156101ef57600080fd5b803590602001918460208302840111600160201b8311171561021057600080fd5b919080806020026020016040519081016040528093929190818152602001838360200280828437600092019190915250929550505090356001600160a01b031691506106019050565b61030a6004803603604081101561026f57600080fd5b6001600160a01b038235169190810190604081016020820135600160201b81111561029957600080fd5b8201836020820111156102ab57600080fd5b803590602001918460208302840111600160201b831117156102cc57600080fd5b9190808060200260200160405190810160405280939291908181526020018383602002808284376000920191909152509295506107e8945050505050565b60408051602080825283518183015283519192839290830191858101910280838360005b8381101561034657818101518382015260200161032e565b505050509050019250505060405180910390f35b6103a0600480360360a081101561037057600080fd5b506001600160a01b03813581169160208101358216916040820135916060810135821691608090910135166108f2565b60408051918252519081900360200190f35b6103a0600480360360208110156103c857600080fd5b50356001600160a01b0316610ac5565b6060600060606103e887866107e8565b90506000610409826000815181106103fc57fe5b6020026020010151610ac5565b90506000610435826104298a670de0b6b3a764000063ffffffff610c6016565b9063ffffffff610cc016565b9050896001600160a01b031663d2b364c68289896040518463ffffffff1660e01b81526004018084815260200180602001836001600160a01b03166001600160a01b03168152602001828103825284818151815260200191508051906020019060200280838360005b838110156104b657818101518382015260200161049e565b5050505090500194505050505060006040518083038186803b1580156104db57600080fd5b505afa1580156104ef573d6000803e3d6000fd5b505050506040513d6000823e601f3d908101601f19168201604052602081101561051857600080fd5b8101908080516040519392919084600160201b82111561053757600080fd5b90830190602082018581111561054c57600080fd5b82518660208202830111600160201b8211171561056857600080fd5b82525081516020918201928201910280838360005b8381101561059557818101518382015260200161057d565b50505050905001604052505050945060006105b9846001865103815181106103fc57fe5b90506105f1670de0b6b3a7640000610429838960018b5103815181106105db57fe5b6020026020010151610c6090919063ffffffff16565b9450505050509550959350505050565b60606000606061061187866107e8565b90506000610628826001845103815181106103fc57fe5b90506000610648826104298a670de0b6b3a764000063ffffffff610c6016565b9050896001600160a01b0316630c49bd138289896040518463ffffffff1660e01b81526004018084815260200180602001836001600160a01b03166001600160a01b03168152602001828103825284818151815260200191508051906020019060200280838360005b838110156106c95781810151838201526020016106b1565b5050505090500194505050505060006040518083038186803b1580156106ee57600080fd5b505afa158015610702573d6000803e3d6000fd5b505050506040513d6000823e601f3d908101601f19168201604052602081101561072b57600080fd5b8101908080516040519392919084600160201b82111561074a57600080fd5b90830190602082018581111561075f57600080fd5b82518660208202830111600160201b8211171561077b57600080fd5b82525081516020918201928201910280838360005b838110156107a8578181015183820152602001610790565b50505050905001604052505050945060006107c9846000815181106103fc57fe5b90506105f1670de0b6b3a764000061042983896000815181106105db57fe5b6060808251604051908082528060200260200182016040528015610816578160200160208202803883390190505b50905060005b83518110156108e857846001600160a01b031663e297943e85838151811061084057fe5b60200260200101516040518263ffffffff1660e01b815260040180826001600160a01b03166001600160a01b0316815260200191505060206040518083038186803b15801561088e57600080fd5b505afa1580156108a2573d6000803e3d6000fd5b505050506040513d60208110156108b857600080fd5b505182518390839081106108c857fe5b6001600160a01b039092166020928302919091019091015260010161081c565b5090505b92915050565b6040805163354aedbd60e21b81526001600160a01b03848116600483015283811660248301528251600093849384938b169263d52bb6f492604480840193919291829003018186803b15801561094757600080fd5b505afa15801561095b573d6000803e3d6000fd5b505050506040513d604081101561097157600080fd5b5080516020918201516040805163714bca1f60e11b81526001600160a01b038a81166004830152915193965091945060009384938493928d169263e297943e926024808301939192829003018186803b1580156109cd57600080fd5b505afa1580156109e1573d6000803e3d6000fd5b505050506040513d60208110156109f757600080fd5b50516040805163714bca1f60e11b81526001600160a01b038a811660048301529151929350600092918d169163e297943e91602480820192602092909190829003018186803b158015610a4957600080fd5b505afa158015610a5d573d6000803e3d6000fd5b505050506040513d6020811015610a7357600080fd5b50519050610a8082610ac5565b9350610a8b81610ac5565b9250610ab79150859050610429848185610aab8e8a63ffffffff610c6016565b9063ffffffff610c6016565b9a9950505050505050505050565b6000808290506000816001600160a01b031663182df0f56040518163ffffffff1660e01b815260040160206040518083038186803b158015610b0657600080fd5b505afa158015610b1a573d6000803e3d6000fd5b505050506040513d6020811015610b3057600080fd5b505160408051630ae9d70b60e41b815290519192506000916001600160a01b0385169163ae9d70b0916004808301926020929190829003018186803b158015610b7857600080fd5b505afa158015610b8c573d6000803e3d6000fd5b505050506040513d6020811015610ba257600080fd5b505160408051636c540baf60e01b815290519192506000916001600160a01b03861691636c540baf916004808301926020929190829003018186803b158015610bea57600080fd5b505afa158015610bfe573d6000803e3d6000fd5b505050506040513d6020811015610c1457600080fd5b505190506000610c2a438363ffffffff610d0216565b90506000610c4282610aab878763ffffffff610c6016565b9050610c54858263ffffffff610d4416565b98975050505050505050565b600082610c6f575060006108ec565b82820282848281610c7c57fe5b0414610cb95760405162461bcd60e51b8152600401808060200182810382526021815260200180610e9b6021913960400191505060405180910390fd5b9392505050565b6000610cb983836040518060400160405280601a81526020017f536166654d6174683a206469766973696f6e206279207a65726f000000000000815250610d9e565b6000610cb983836040518060400160405280601e81526020017f536166654d6174683a207375627472616374696f6e206f766572666c6f770000815250610e40565b600082820183811015610cb9576040805162461bcd60e51b815260206004820152601b60248201527f536166654d6174683a206164646974696f6e206f766572666c6f770000000000604482015290519081900360640190fd5b60008183610e2a5760405162461bcd60e51b81526004018080602001828103825283818151815260200191508051906020019080838360005b83811015610def578181015183820152602001610dd7565b50505050905090810190601f168015610e1c5780820380516001836020036101000a031916815260200191505b509250505060405180910390fd5b506000838581610e3657fe5b0495945050505050565b60008184841115610e925760405162461bcd60e51b8152602060048201818152835160248401528351909283926044909101919085019080838360008315610def578181015183820152602001610dd7565b50505090039056fe536166654d6174683a206d756c7469706c69636174696f6e206f766572666c6f77a265627a7a72315820420e8be935dcfd2bbc9b1d2b00c4fabc497a1c3e31dc234f4d5656723813140964736f6c63430005100032",
  "linkReferences": {},
  "deployedLinkReferences": {}
}