{
  "_format": "hh-sol-artifact-1",
  "contractName": "SwapExchangeRate",
  "sourceName": "contracts/swap/heco/Router.sol",
  "abi": [
    {
      "constant": true,
      "inputs": [
        {
          "internalType": "address",
          "name": "factory",
          "type": "address"
        },
        {
          "internalType": "address",
          "name": "ctokenFactory",
          "type": "address"
        },
        {
          "internalType": "uint256",
          "name": "amountOut",
          "type": "uint256"
        },
        {
          "internalType": "address[]",
          "name": "path",
          "type": "address[]"
        },
        {
          "internalType": "address",
          "name": "to",
          "type": "address"
        }
      ],
      "name": "getAmountsInUnderlying",
      "outputs": [
        {
          "internalType": "uint256[]",
          "name": "amounts",
          "type": "uint256[]"
        },
        {
          "internalType": "uint256",
          "name": "amountIn",
          "type": "uint256"
        }
      ],
      "payable": false,
      "stateMutability": "view",
      "type": "function"
    },
    {
      "constant": true,
      "inputs": [
        {
          "internalType": "address",
          "name": "factory",
          "type": "address"
        },
        {
          "internalType": "address",
          "name": "ctokenFactory",
          "type": "address"
        },
        {
          "internalType": "uint256",
          "name": "amountIn",
          "type": "uint256"
        },
        {
          "internalType": "address[]",
          "name": "path",
          "type": "address[]"
        },
        {
          "internalType": "address",
          "name": "to",
          "type": "address"
        }
      ],
      "name": "getAmountsOutUnderlying",
      "outputs": [
        {
          "internalType": "uint256[]",
          "name": "amounts",
          "type": "uint256[]"
        },
        {
          "internalType": "uint256",
          "name": "amountOut",
          "type": "uint256"
        }
      ],
      "payable": false,
      "stateMutability": "view",
      "type": "function"
    },
    {
      "constant": true,
      "inputs": [
        {
          "internalType": "address",
          "name": "_ctoken",
          "type": "address"
        }
      ],
      "name": "getCurrentExchangeRate",
      "outputs": [
        {
          "internalType": "uint256",
          "name": "",
          "type": "uint256"
        }
      ],
      "payable": false,
      "stateMutability": "view",
      "type": "function"
    },
    {
      "constant": true,
      "inputs": [
        {
          "internalType": "address",
          "name": "ctokenFactory",
          "type": "address"
        },
        {
          "internalType": "address[]",
          "name": "path",
          "type": "address[]"
        }
      ],
      "name": "path2cpath",
      "outputs": [
        {
          "internalType": "address[]",
          "name": "",
          "type": "address[]"
        }
      ],
      "payable": false,
      "stateMutability": "view",
      "type": "function"
    }
  ],
  "bytecode": "0x610cd8610026600b82828239805160001a60731461001957fe5b30600052607381538281f3fe73000000000000000000000000000000000000000030146080604052600436106100565760003560e01c80635c4410d31461005b5780638f56ed8414610182578063c61e0e3c1461024e578063f53e73b91461034f575b600080fd5b610127600480360360a081101561007157600080fd5b6001600160a01b03823581169260208101359091169160408201359190810190608081016060820135600160201b8111156100ab57600080fd5b8201836020820111156100bd57600080fd5b803590602001918460208302840111600160201b831117156100de57600080fd5b919080806020026020016040519081016040528093929190818152602001838360200280828437600092019190915250929550505090356001600160a01b031691506103879050565b6040518080602001838152602001828103825284818151815260200191508051906020019060200280838360005b8381101561016d578181015183820152602001610155565b50505050905001935050505060405180910390f35b610127600480360360a081101561019857600080fd5b6001600160a01b03823581169260208101359091169160408201359190810190608081016060820135600160201b8111156101d257600080fd5b8201836020820111156101e457600080fd5b803590602001918460208302840111600160201b8311171561020557600080fd5b919080806020026020016040519081016040528093929190818152602001838360200280828437600092019190915250929550505090356001600160a01b031691506105b09050565b6102ff6004803603604081101561026457600080fd5b6001600160a01b038235169190810190604081016020820135600160201b81111561028e57600080fd5b8201836020820111156102a057600080fd5b803590602001918460208302840111600160201b831117156102c157600080fd5b919080806020026020016040519081016040528093929190818152602001838360200280828437600092019190915250929550610797945050505050565b60408051602080825283518183015283519192839290830191858101910280838360005b8381101561033b578181015183820152602001610323565b505050509050019250505060405180910390f35b6103756004803603602081101561036557600080fd5b50356001600160a01b03166108a1565b60408051918252519081900360200190f35b6060600060606103978786610797565b905060006103b8826000815181106103ab57fe5b60200260200101516108a1565b905060006103e4826103d88a670de0b6b3a764000063ffffffff610a4816565b9063ffffffff610aa816565b9050896001600160a01b031663d2b364c68285896040518463ffffffff1660e01b81526004018084815260200180602001836001600160a01b03166001600160a01b03168152602001828103825284818151815260200191508051906020019060200280838360005b8381101561046557818101518382015260200161044d565b5050505090500194505050505060006040518083038186803b15801561048a57600080fd5b505afa15801561049e573d6000803e3d6000fd5b505050506040513d6000823e601f3d908101601f1916820160405260208110156104c757600080fd5b8101908080516040519392919084600160201b8211156104e657600080fd5b9083019060208201858111156104fb57600080fd5b82518660208202830111600160201b8211171561051757600080fd5b82525081516020918201928201910280838360005b8381101561054457818101518382015260200161052c565b5050505090500160405250505094506000610568846001865103815181106103ab57fe5b90506105a0670de0b6b3a76400006103d8838960018b51038151811061058a57fe5b6020026020010151610a4890919063ffffffff16565b9450505050509550959350505050565b6060600060606105c08786610797565b905060006105d7826001845103815181106103ab57fe5b905060006105f7826103d88a670de0b6b3a764000063ffffffff610a4816565b9050896001600160a01b0316630c49bd138285896040518463ffffffff1660e01b81526004018084815260200180602001836001600160a01b03166001600160a01b03168152602001828103825284818151815260200191508051906020019060200280838360005b83811015610678578181015183820152602001610660565b5050505090500194505050505060006040518083038186803b15801561069d57600080fd5b505afa1580156106b1573d6000803e3d6000fd5b505050506040513d6000823e601f3d908101601f1916820160405260208110156106da57600080fd5b8101908080516040519392919084600160201b8211156106f957600080fd5b90830190602082018581111561070e57600080fd5b82518660208202830111600160201b8211171561072a57600080fd5b82525081516020918201928201910280838360005b8381101561075757818101518382015260200161073f565b5050505090500160405250505094506000610778846000815181106103ab57fe5b90506105a0670de0b6b3a76400006103d8838960008151811061058a57fe5b60608082516040519080825280602002602001820160405280156107c5578160200160208202803883390190505b50905060005b835181101561089757846001600160a01b031663e297943e8583815181106107ef57fe5b60200260200101516040518263ffffffff1660e01b815260040180826001600160a01b03166001600160a01b0316815260200191505060206040518083038186803b15801561083d57600080fd5b505afa158015610851573d6000803e3d6000fd5b505050506040513d602081101561086757600080fd5b5051825183908390811061087757fe5b6001600160a01b03909216602092830291909101909101526001016107cb565b5090505b92915050565b6000808290506000816001600160a01b031663182df0f56040518163ffffffff1660e01b815260040160206040518083038186803b1580156108e257600080fd5b505afa1580156108f6573d6000803e3d6000fd5b505050506040513d602081101561090c57600080fd5b505160408051630ae9d70b60e41b815290519192506000916001600160a01b0385169163ae9d70b0916004808301926020929190829003018186803b15801561095457600080fd5b505afa158015610968573d6000803e3d6000fd5b505050506040513d602081101561097e57600080fd5b505160408051636c540baf60e01b815290519192506000916001600160a01b03861691636c540baf916004808301926020929190829003018186803b1580156109c657600080fd5b505afa1580156109da573d6000803e3d6000fd5b505050506040513d60208110156109f057600080fd5b505190506000610a06438363ffffffff610aea16565b90506000610a2a82610a1e878763ffffffff610a4816565b9063ffffffff610a4816565b9050610a3c858263ffffffff610b2c16565b98975050505050505050565b600082610a575750600061089b565b82820282848281610a6457fe5b0414610aa15760405162461bcd60e51b8152600401808060200182810382526021815260200180610c836021913960400191505060405180910390fd5b9392505050565b6000610aa183836040518060400160405280601a81526020017f536166654d6174683a206469766973696f6e206279207a65726f000000000000815250610b86565b6000610aa183836040518060400160405280601e81526020017f536166654d6174683a207375627472616374696f6e206f766572666c6f770000815250610c28565b600082820183811015610aa1576040805162461bcd60e51b815260206004820152601b60248201527f536166654d6174683a206164646974696f6e206f766572666c6f770000000000604482015290519081900360640190fd5b60008183610c125760405162461bcd60e51b81526004018080602001828103825283818151815260200191508051906020019080838360005b83811015610bd7578181015183820152602001610bbf565b50505050905090810190601f168015610c045780820380516001836020036101000a031916815260200191505b509250505060405180910390fd5b506000838581610c1e57fe5b0495945050505050565b60008184841115610c7a5760405162461bcd60e51b8152602060048201818152835160248401528351909283926044909101919085019080838360008315610bd7578181015183820152602001610bbf565b50505090039056fe536166654d6174683a206d756c7469706c69636174696f6e206f766572666c6f77a265627a7a723158202ccd2bbca37bfe3ed6f212bb5c9ba945d33223a6e8bfd51824110d23b7ba209464736f6c63430005100032",
  "linkReferences": {},
  "deployedLinkReferences": {}
}