{
  "_format": "hh-sol-artifact-1",
  "contractName": "PathFinder",
  "sourceName": "contracts/swap/aggressive2/library/PathFinder.sol",
  "abi": [
    {
      "inputs": [
        {
          "internalType": "uint256",
          "name": "s",
          "type": "uint256"
        },
        {
          "internalType": "int256[][]",
          "name": "amounts",
          "type": "int256[][]"
        }
      ],
      "name": "findBestDistribution",
      "outputs": [
        {
          "internalType": "int256",
          "name": "returnAmount",
          "type": "int256"
        },
        {
          "internalType": "uint256[]",
          "name": "distribution",
          "type": "uint256[]"
        }
      ],
      "stateMutability": "view",
      "type": "function"
    }
  ],
  "bytecode": "0x610a6b610026600b82828239805160001a60731461001957fe5b30600052607381538281f3fe73000000000000000000000000000000000000000030146080604052600436106100355760003560e01c8063605e405a1461003a575b600080fd5b61004d610048366004610872565b610064565b60405161005b929190610950565b60405180910390f35b8051600090606090818167ffffffffffffffff8111801561008457600080fd5b506040519080825280602002602001820160405280156100b857816020015b60608152602001906001900390816100a35790505b50905060608267ffffffffffffffff811180156100d457600080fd5b5060405190808252806020026020018201604052801561010857816020015b60608152602001906001900390816100f35790505b50905060005b838110156101d6578760010167ffffffffffffffff8111801561013057600080fd5b5060405190808252806020026020018201604052801561015a578160200160208202803683370190505b5083828151811061016757fe5b60200260200101819052508760010167ffffffffffffffff8111801561018c57600080fd5b506040519080825280602002602001820160405280156101b6578160200160208202803683370190505b508282815181106101c357fe5b602090810291909101015260010161010e565b5060005b8781116102a957866000815181106101ee57fe5b6020026020010151818151811061020157fe5b60200260200101518360008151811061021657fe5b6020026020010151828151811061022957fe5b602090810291909101015260015b8481101561027357600084828151811061024d57fe5b6020026020010151838151811061026057fe5b6020908102919091010152600101610237565b5060008260008151811061028357fe5b6020026020010151828151811061029657fe5b60209081029190910101526001016101da565b5060015b838110156104925760005b888111610489578360018303815181106102ce57fe5b602002602001015181815181106102e157fe5b60200260200101518483815181106102f557fe5b6020026020010151828151811061030857fe5b6020026020010181815250508083838151811061032157fe5b6020026020010151828151811061033457fe5b602090810291909101015260015b8181116104805784838151811061035557fe5b6020026020010151828151811061036857fe5b602002602001015189848151811061037c57fe5b6020026020010151828151811061038f57fe5b60200260200101518660018603815181106103a657fe5b6020026020010151838503815181106103bb57fe5b6020026020010151011315610478578883815181106103d657fe5b602002602001015181815181106103e957fe5b602002602001015185600185038151811061040057fe5b60200260200101518284038151811061041557fe5b60200260200101510185848151811061042a57fe5b6020026020010151838151811061043d57fe5b60200260200101818152505080820384848151811061045857fe5b6020026020010151838151811061046b57fe5b6020026020010181815250505b600101610342565b506001016102b8565b506001016102ad565b506104e96040518060400160405280601181526020017f616d6f756e7473206c656e67746820333a0000000000000000000000000000008152508489896000815181106104db57fe5b6020026020010151516106ef565b8267ffffffffffffffff8111801561050057600080fd5b5060405190808252806020026020018201604052801561052a578160200160208202803683370190505b5093508660001984015b81156105b05782818151811061054657fe5b6020026020010151828151811061055957fe5b6020026020010151820386828151811061056f57fe5b60200260200101818152505082818151811061058757fe5b6020026020010151828151811061059a57fe5b6020908102919091010151915060001901610534565b5060008360018603815181106105c257fe5b602002602001015189815181106105d557fe5b60200260200101511315610612578260018503815181106105f257fe5b6020026020010151888151811061060557fe5b6020026020010151610615565b60005b95506106566040518060400160405280600e81526020017f72657475726e20616d6f756e743a0000000000000000000000000000000000008152508761076c565b60005b848110156106e3576106db6040518060400160405280601781526020017f646973747269627574696f6e5b25645d3a202564202564000000000000000000815250828884815181106106a757fe5b60200260200101518b85815181106106bb57fe5b60200260200101518d815181106106ce57fe5b60200260200101516106ef565b600101610659565b50505050509250929050565b6107668484848460405160240161070994939291906109bf565b60408051601f198184030181529190526020810180517bffffffffffffffffffffffffffffffffffffffffffffffffffffffff167f08ee5666000000000000000000000000000000000000000000000000000000001790526107e3565b50505050565b6107df828260405160240161078292919061099d565b60408051601f198184030181529190526020810180517bffffffffffffffffffffffffffffffffffffffffffffffffffffffff167f9710a9d0000000000000000000000000000000000000000000000000000000001790526107e3565b5050565b80516a636f6e736f6c652e6c6f67602083016000808483855afa5050505050565b600082601f830112610814578081fd5b813561082761082282610a15565b6109ee565b81815291506020808301908481018184028601820187101561084857600080fd5b60005b848110156108675781358452928201929082019060010161084b565b505050505092915050565b60008060408385031215610884578182fd5b8235915060208084013567ffffffffffffffff8111156108a2578283fd5b8401601f810186136108b2578283fd5b80356108c061082282610a15565b81815283810190838501865b848110156108f5576108e38b888435890101610804565b845292860192908601906001016108cc565b5096999098509650505050505050565b60008151808452815b8181101561092a5760208185018101518683018201520161090e565b8181111561093b5782602083870101525b50601f01601f19169290920160200192915050565b60006040820184835260206040818501528185518084526060860191508287019350845b8181101561099057845183529383019391830191600101610974565b5090979650505050505050565b6000604082526109b06040830185610905565b90508260208301529392505050565b6000608082526109d26080830187610905565b6020830195909552506040810192909252606090910152919050565b60405181810167ffffffffffffffff81118282101715610a0d57600080fd5b604052919050565b600067ffffffffffffffff821115610a2b578081fd5b506020908102019056fea264697066735822122037c268d664d9622a62bc93838c995181f34cb4fdc1281da4839e7e42b3b14a3864736f6c634300060c0033",
  "linkReferences": {},
  "deployedLinkReferences": {}
}