{
  "_format": "hh-sol-artifact-1",
  "contractName": "MultiPriceOracle",
  "sourceName": "contracts/compound/SimplePriceOracle.sol",
  "abi": [
    {
      "inputs": [
        {
          "internalType": "string",
          "name": "symbol",
          "type": "string"
        }
      ],
      "payable": false,
      "stateMutability": "nonpayable",
      "type": "constructor"
    },
    {
      "anonymous": false,
      "inputs": [
        {
          "indexed": false,
          "internalType": "address",
          "name": "asset",
          "type": "address"
        },
        {
          "indexed": false,
          "internalType": "uint256",
          "name": "previousPriceMantissa",
          "type": "uint256"
        },
        {
          "indexed": false,
          "internalType": "uint256",
          "name": "requestedPriceMantissa",
          "type": "uint256"
        },
        {
          "indexed": false,
          "internalType": "uint256",
          "name": "newPriceMantissa",
          "type": "uint256"
        }
      ],
      "name": "PricePosted",
      "type": "event"
    },
    {
      "constant": false,
      "inputs": [
        {
          "internalType": "address",
          "name": "addr",
          "type": "address"
        }
      ],
      "name": "addRole",
      "outputs": [],
      "payable": false,
      "stateMutability": "nonpayable",
      "type": "function"
    },
    {
      "constant": true,
      "inputs": [
        {
          "internalType": "address",
          "name": "asset",
          "type": "address"
        }
      ],
      "name": "assetPrices",
      "outputs": [
        {
          "internalType": "uint256",
          "name": "",
          "type": "uint256"
        }
      ],
      "payable": false,
      "stateMutability": "view",
      "type": "function"
    },
    {
      "constant": true,
      "inputs": [],
      "name": "baseSymbol",
      "outputs": [
        {
          "internalType": "string",
          "name": "",
          "type": "string"
        }
      ],
      "payable": false,
      "stateMutability": "view",
      "type": "function"
    },
    {
      "constant": false,
      "inputs": [
        {
          "internalType": "address",
          "name": "newAdmin",
          "type": "address"
        }
      ],
      "name": "changeAdmin",
      "outputs": [],
      "payable": false,
      "stateMutability": "nonpayable",
      "type": "function"
    },
    {
      "constant": false,
      "inputs": [
        {
          "internalType": "address",
          "name": "addr",
          "type": "address"
        }
      ],
      "name": "dropRole",
      "outputs": [],
      "payable": false,
      "stateMutability": "nonpayable",
      "type": "function"
    },
    {
      "constant": true,
      "inputs": [
        {
          "internalType": "contract CToken",
          "name": "cToken",
          "type": "address"
        }
      ],
      "name": "getUnderlyingPrice",
      "outputs": [
        {
          "internalType": "uint256",
          "name": "",
          "type": "uint256"
        }
      ],
      "payable": false,
      "stateMutability": "view",
      "type": "function"
    },
    {
      "constant": true,
      "inputs": [
        {
          "internalType": "address",
          "name": "addr",
          "type": "address"
        }
      ],
      "name": "hasRole",
      "outputs": [
        {
          "internalType": "bool",
          "name": "",
          "type": "bool"
        }
      ],
      "payable": false,
      "stateMutability": "view",
      "type": "function"
    },
    {
      "constant": true,
      "inputs": [],
      "name": "isPriceOracle",
      "outputs": [
        {
          "internalType": "bool",
          "name": "",
          "type": "bool"
        }
      ],
      "payable": false,
      "stateMutability": "view",
      "type": "function"
    },
    {
      "constant": false,
      "inputs": [
        {
          "internalType": "address",
          "name": "asset",
          "type": "address"
        },
        {
          "internalType": "uint256",
          "name": "price",
          "type": "uint256"
        }
      ],
      "name": "setDirectPrice",
      "outputs": [],
      "payable": false,
      "stateMutability": "nonpayable",
      "type": "function"
    },
    {
      "constant": false,
      "inputs": [
        {
          "internalType": "address[]",
          "name": "assets",
          "type": "address[]"
        },
        {
          "internalType": "uint256[]",
          "name": "prices",
          "type": "uint256[]"
        }
      ],
      "name": "setDirectPrices",
      "outputs": [],
      "payable": false,
      "stateMutability": "nonpayable",
      "type": "function"
    },
    {
      "constant": false,
      "inputs": [
        {
          "internalType": "string",
          "name": "symbol",
          "type": "string"
        }
      ],
      "name": "setSymbol",
      "outputs": [],
      "payable": false,
      "stateMutability": "nonpayable",
      "type": "function"
    },
    {
      "constant": false,
      "inputs": [
        {
          "internalType": "contract CToken",
          "name": "cToken",
          "type": "address"
        },
        {
          "internalType": "uint256",
          "name": "underlyingPriceMantissa",
          "type": "uint256"
        }
      ],
      "name": "setUnderlyingPrice",
      "outputs": [],
      "payable": false,
      "stateMutability": "nonpayable",
      "type": "function"
    },
    {
      "constant": false,
      "inputs": [
        {
          "internalType": "contract CToken[]",
          "name": "cTokens",
          "type": "address[]"
        },
        {
          "internalType": "uint256[]",
          "name": "underlyingPrices",
          "type": "uint256[]"
        }
      ],
      "name": "setUnderlyingPrices",
      "outputs": [],
      "payable": false,
      "stateMutability": "nonpayable",
      "type": "function"
    }
  ],
  "bytecode": "0x60806040523480156200001157600080fd5b50604051620011f5380380620011f5833981810160405260208110156200003757600080fd5b81019080805160405193929190846401000000008211156200005857600080fd5b9083019060208201858111156200006e57600080fd5b82516401000000008111828201881017156200008957600080fd5b82525081516020918201929091019080838360005b83811015620000b85781810151838201526020016200009e565b50505050905090810190601f168015620000e65780820380516001836020036101000a031916815260200191505b506040908152600480546001600160a01b0319163390811790915560009081526020818152919020805460ff19166001179055845162000130945060039350908501915062000138565b5050620001dd565b828054600181600116156101000203166002900490600052602060002090601f016020900481019282601f106200017b57805160ff1916838001178555620001ab565b82800160010185558215620001ab579182015b82811115620001ab5782518255916020019190600101906200018e565b50620001b9929150620001bd565b5090565b620001da91905b80821115620001b95760008155600101620001c4565b90565b61100880620001ed6000396000f3fe608060405234801561001057600080fd5b50600436106100cf5760003560e01c80637ef09bca1161008c5780638f283970116100665780638f28397014610491578063b84c8246146104b7578063d1439cff1461055b578063fc57d4df14610581576100cf565b80637ef09bca146102cb57806380583be7146102f157806387791e5b1461036e576100cf565b806309a8acb0146100d4578063127ffda0146101025780631774b39b1461012e5780633f877f72146102515780635e9a523c1461027757806366331bba146102af575b600080fd5b610100600480360360408110156100ea57600080fd5b506001600160a01b0381351690602001356105a7565b005b6101006004803603604081101561011857600080fd5b506001600160a01b038135169060200135610665565b6101006004803603604081101561014457600080fd5b810190602081018135600160201b81111561015e57600080fd5b82018360208201111561017057600080fd5b803590602001918460208302840111600160201b8311171561019157600080fd5b9190808060200260200160405190810160405280939291908181526020018383602002808284376000920191909152509295949360208101935035915050600160201b8111156101e057600080fd5b8201836020820111156101f257600080fd5b803590602001918460208302840111600160201b8311171561021357600080fd5b919080806020026020016040519081016040528093929190818152602001838360200280828437600092019190915250929550610954945050505050565b6101006004803603602081101561026757600080fd5b50356001600160a01b03166109f5565b61029d6004803603602081101561028d57600080fd5b50356001600160a01b0316610a78565b60408051918252519081900360200190f35b6102b7610a97565b604080519115158252519081900360200190f35b6102b7600480360360208110156102e157600080fd5b50356001600160a01b0316610a9c565b6102f9610aba565b6040805160208082528351818301528351919283929083019185019080838360005b8381101561033357818101518382015260200161031b565b50505050905090810190601f1680156103605780820380516001836020036101000a031916815260200191505b509250505060405180910390f35b6101006004803603604081101561038457600080fd5b810190602081018135600160201b81111561039e57600080fd5b8201836020820111156103b057600080fd5b803590602001918460208302840111600160201b831117156103d157600080fd5b9190808060200260200160405190810160405280939291908181526020018383602002808284376000920191909152509295949360208101935035915050600160201b81111561042057600080fd5b82018360208201111561043257600080fd5b803590602001918460208302840111600160201b8311171561045357600080fd5b919080806020026020016040519081016040528093929190818152602001838360200280828437600092019190915250929550610b48945050505050565b610100600480360360208110156104a757600080fd5b50356001600160a01b0316610be3565b610100600480360360208110156104cd57600080fd5b810190602081018135600160201b8111156104e757600080fd5b8201836020820111156104f957600080fd5b803590602001918460018302840111600160201b8311171561051a57600080fd5b91908080601f016020809104026020016040519081016040528093929190818152602001838380828437600092019190915250929550610c4e945050505050565b6101006004803603602081101561057157600080fd5b50356001600160a01b0316610caa565b61029d6004803603602081101561059757600080fd5b50356001600160a01b0316610d2a565b6105b033610a9c565b6105eb5760405162461bcd60e51b815260040180806020018281038252602e815260200180610fa6602e913960400191505060405180910390fd5b6001600160a01b0382166000818152600160209081526040918290205482519384529083015281810183905260608201839052517fdd71a1d19fcba687442a1d5c58578f1e409af71a79d10fd95a4d66efd8fa9ae79181900360800190a16001600160a01b03909116600090815260016020526040902055565b61066e33610a9c565b6106a95760405162461bcd60e51b815260040180806020018281038252602e815260200180610fa6602e913960400191505060405180910390fd5b61085d826001600160a01b03166395d89b416040518163ffffffff1660e01b815260040160006040518083038186803b1580156106e557600080fd5b505afa1580156106f9573d6000803e3d6000fd5b505050506040513d6000823e601f3d908101601f19168201604052602081101561072257600080fd5b8101908080516040519392919084600160201b82111561074157600080fd5b90830190602082018581111561075657600080fd5b8251600160201b81118282018810171561076f57600080fd5b82525081516020918201929091019080838360005b8381101561079c578181015183820152602001610784565b50505050905090810190601f1680156107c95780820380516001836020036101000a031916815260200191505b50600380546020601f6002600019610100600186161502019093169290920491820181900481028401810160405281845292955090935091508301828280156108535780601f1061082857610100808354040283529160200191610853565b820191906000526020600020905b81548152906001019060200180831161083657829003601f168201915b5050505050610e00565b1561086c576002819055610950565b6000826001600160a01b0316636f307dc36040518163ffffffff1660e01b815260040160206040518083038186803b1580156108a757600080fd5b505afa1580156108bb573d6000803e3d6000fd5b505050506040513d60208110156108d157600080fd5b50516001600160a01b0381166000818152600160209081526040918290205482519384529083015281810185905260608201859052519192507fdd71a1d19fcba687442a1d5c58578f1e409af71a79d10fd95a4d66efd8fa9ae7919081900360800190a16001600160a01b031660009081526001602052604090208190555b5050565b80518251146109aa576040805162461bcd60e51b815260206004820152601a60248201527f61737365747320707269636573206e756d626572206572726f72000000000000604482015290519081900360640190fd5b815160005b818110156109ef576109e78482815181106109c657fe5b60200260200101518483815181106109da57fe5b60200260200101516105a7565b6001016109af565b50505050565b6004546001600160a01b03163314610a54576040805162461bcd60e51b815260206004820152601f60248201527f6f6e6c79207468652061646d696e206d61792063616c6c20616464526f6c6500604482015290519081900360640190fd5b6001600160a01b03166000908152602081905260409020805460ff19166001179055565b6001600160a01b0381166000908152600160205260409020545b919050565b600181565b6001600160a01b031660009081526020819052604090205460ff1690565b6003805460408051602060026001851615610100026000190190941693909304601f81018490048402820184019092528181529291830182828015610b405780601f10610b1557610100808354040283529160200191610b40565b820191906000526020600020905b815481529060010190602001808311610b2357829003601f168201915b505050505081565b8051825114610b9e576040805162461bcd60e51b815260206004820152601e60248201527f756e6465726c79696e6720707269636573206e756d626572206572726f720000604482015290519081900360640190fd5b815160005b818110156109ef57610bdb848281518110610bba57fe5b6020026020010151848381518110610bce57fe5b6020026020010151610665565b600101610ba3565b6004546001600160a01b03163314610c2c5760405162461bcd60e51b8152600401808060200182810382526023815260200180610f836023913960400191505060405180910390fd5b600480546001600160a01b0319166001600160a01b0392909216919091179055565b6004546001600160a01b03163314610c975760405162461bcd60e51b8152600401808060200182810382526023815260200180610f836023913960400191505060405180910390fd5b8051610950906003906020840190610ee7565b6004546001600160a01b03163314610d09576040805162461bcd60e51b815260206004820181905260248201527f6f6e6c79207468652061646d696e206d61792063616c6c2064726f70526f6c65604482015290519081900360640190fd5b6001600160a01b03166000908152602081905260409020805460ff19169055565b6000610d68826001600160a01b03166395d89b416040518163ffffffff1660e01b815260040160006040518083038186803b1580156106e557600080fd5b15610d765750600254610a92565b60016000836001600160a01b0316636f307dc36040518163ffffffff1660e01b815260040160206040518083038186803b158015610db357600080fd5b505afa158015610dc7573d6000803e3d6000fd5b505050506040513d6020811015610ddd57600080fd5b50516001600160a01b031681526020810191909152604001600020549050610a92565b6000816040516020018082805190602001908083835b60208310610e355780518252601f199092019160209182019101610e16565b6001836020036101000a03801982511681845116808217855250505050505090500191505060405160208183030381529060405280519060200120836040516020018082805190602001908083835b60208310610ea35780518252601f199092019160209182019101610e84565b6001836020036101000a0380198251168184511680821785525050505050509050019150506040516020818303038152906040528051906020012014905092915050565b828054600181600116156101000203166002900490600052602060002090601f016020900481019282601f10610f2857805160ff1916838001178555610f55565b82800160010185558215610f55579182015b82811115610f55578251825591602001919060010190610f3a565b50610f61929150610f65565b5090565b610f7f91905b80821115610f615760008155600101610f6b565b9056fe6f6e6c79207468652061646d696e206d61792063616c6c206368616e676541646d696e6f6e6c792074686520636f6d6d6974746572206d61792063616c6c20736574556e6465726c79696e675072696365a265627a7a72315820f0075ad0404ee7fbe9845007c4f62780b8bf26477211856f31c10199b960ab0c64736f6c63430005100032",
  "linkReferences": {},
  "deployedLinkReferences": {}
}