{
  "_format": "hh-sol-artifact-1",
  "contractName": "LendHubLens",
  "sourceName": "contracts/compound/lens/LendHubLens.sol",
  "abi": [
    {
      "constant": false,
      "inputs": [
        {
          "internalType": "contract CToken",
          "name": "cToken",
          "type": "address"
        },
        {
          "internalType": "address payable",
          "name": "account",
          "type": "address"
        }
      ],
      "name": "cTokenBalances",
      "outputs": [
        {
          "components": [
            {
              "internalType": "address",
              "name": "cToken",
              "type": "address"
            },
            {
              "internalType": "uint256",
              "name": "balanceOf",
              "type": "uint256"
            },
            {
              "internalType": "uint256",
              "name": "borrowBalanceCurrent",
              "type": "uint256"
            },
            {
              "internalType": "uint256",
              "name": "balanceOfUnderlying",
              "type": "uint256"
            },
            {
              "internalType": "uint256",
              "name": "tokenBalance",
              "type": "uint256"
            },
            {
              "internalType": "uint256",
              "name": "tokenAllowance",
              "type": "uint256"
            }
          ],
          "internalType": "struct LendHubLens.CTokenBalances",
          "name": "",
          "type": "tuple"
        }
      ],
      "payable": false,
      "stateMutability": "nonpayable",
      "type": "function"
    },
    {
      "constant": false,
      "inputs": [
        {
          "internalType": "contract CToken[]",
          "name": "cTokens",
          "type": "address[]"
        },
        {
          "internalType": "address payable",
          "name": "account",
          "type": "address"
        }
      ],
      "name": "cTokenBalancesAll",
      "outputs": [
        {
          "components": [
            {
              "internalType": "address",
              "name": "cToken",
              "type": "address"
            },
            {
              "internalType": "uint256",
              "name": "balanceOf",
              "type": "uint256"
            },
            {
              "internalType": "uint256",
              "name": "borrowBalanceCurrent",
              "type": "uint256"
            },
            {
              "internalType": "uint256",
              "name": "balanceOfUnderlying",
              "type": "uint256"
            },
            {
              "internalType": "uint256",
              "name": "tokenBalance",
              "type": "uint256"
            },
            {
              "internalType": "uint256",
              "name": "tokenAllowance",
              "type": "uint256"
            }
          ],
          "internalType": "struct LendHubLens.CTokenBalances[]",
          "name": "",
          "type": "tuple[]"
        }
      ],
      "payable": false,
      "stateMutability": "nonpayable",
      "type": "function"
    },
    {
      "constant": false,
      "inputs": [
        {
          "internalType": "contract CToken",
          "name": "cToken",
          "type": "address"
        }
      ],
      "name": "cTokenMetadata",
      "outputs": [
        {
          "components": [
            {
              "internalType": "address",
              "name": "cToken",
              "type": "address"
            },
            {
              "internalType": "uint256",
              "name": "exchangeRateCurrent",
              "type": "uint256"
            },
            {
              "internalType": "uint256",
              "name": "supplyRatePerBlock",
              "type": "uint256"
            },
            {
              "internalType": "uint256",
              "name": "borrowRatePerBlock",
              "type": "uint256"
            },
            {
              "internalType": "uint256",
              "name": "reserveFactorMantissa",
              "type": "uint256"
            },
            {
              "internalType": "uint256",
              "name": "totalBorrows",
              "type": "uint256"
            },
            {
              "internalType": "uint256",
              "name": "totalReserves",
              "type": "uint256"
            },
            {
              "internalType": "uint256",
              "name": "totalSupply",
              "type": "uint256"
            },
            {
              "internalType": "uint256",
              "name": "totalCash",
              "type": "uint256"
            },
            {
              "internalType": "bool",
              "name": "isListed",
              "type": "bool"
            },
            {
              "internalType": "uint256",
              "name": "collateralFactorMantissa",
              "type": "uint256"
            },
            {
              "internalType": "address",
              "name": "underlyingAssetAddress",
              "type": "address"
            },
            {
              "internalType": "uint256",
              "name": "cTokenDecimals",
              "type": "uint256"
            },
            {
              "internalType": "uint256",
              "name": "underlyingDecimals",
              "type": "uint256"
            }
          ],
          "internalType": "struct LendHubLens.CTokenMetadata",
          "name": "",
          "type": "tuple"
        }
      ],
      "payable": false,
      "stateMutability": "nonpayable",
      "type": "function"
    },
    {
      "constant": false,
      "inputs": [
        {
          "internalType": "contract CToken[]",
          "name": "cTokens",
          "type": "address[]"
        }
      ],
      "name": "cTokenMetadataAll",
      "outputs": [
        {
          "components": [
            {
              "internalType": "address",
              "name": "cToken",
              "type": "address"
            },
            {
              "internalType": "uint256",
              "name": "exchangeRateCurrent",
              "type": "uint256"
            },
            {
              "internalType": "uint256",
              "name": "supplyRatePerBlock",
              "type": "uint256"
            },
            {
              "internalType": "uint256",
              "name": "borrowRatePerBlock",
              "type": "uint256"
            },
            {
              "internalType": "uint256",
              "name": "reserveFactorMantissa",
              "type": "uint256"
            },
            {
              "internalType": "uint256",
              "name": "totalBorrows",
              "type": "uint256"
            },
            {
              "internalType": "uint256",
              "name": "totalReserves",
              "type": "uint256"
            },
            {
              "internalType": "uint256",
              "name": "totalSupply",
              "type": "uint256"
            },
            {
              "internalType": "uint256",
              "name": "totalCash",
              "type": "uint256"
            },
            {
              "internalType": "bool",
              "name": "isListed",
              "type": "bool"
            },
            {
              "internalType": "uint256",
              "name": "collateralFactorMantissa",
              "type": "uint256"
            },
            {
              "internalType": "address",
              "name": "underlyingAssetAddress",
              "type": "address"
            },
            {
              "internalType": "uint256",
              "name": "cTokenDecimals",
              "type": "uint256"
            },
            {
              "internalType": "uint256",
              "name": "underlyingDecimals",
              "type": "uint256"
            }
          ],
          "internalType": "struct LendHubLens.CTokenMetadata[]",
          "name": "",
          "type": "tuple[]"
        }
      ],
      "payable": false,
      "stateMutability": "nonpayable",
      "type": "function"
    },
    {
      "constant": false,
      "inputs": [
        {
          "internalType": "contract CToken",
          "name": "cToken",
          "type": "address"
        }
      ],
      "name": "cTokenUnderlyingPrice",
      "outputs": [
        {
          "components": [
            {
              "internalType": "address",
              "name": "cToken",
              "type": "address"
            },
            {
              "internalType": "uint256",
              "name": "underlyingPrice",
              "type": "uint256"
            }
          ],
          "internalType": "struct LendHubLens.CTokenUnderlyingPrice",
          "name": "",
          "type": "tuple"
        }
      ],
      "payable": false,
      "stateMutability": "nonpayable",
      "type": "function"
    },
    {
      "constant": false,
      "inputs": [
        {
          "internalType": "contract CToken[]",
          "name": "cTokens",
          "type": "address[]"
        }
      ],
      "name": "cTokenUnderlyingPriceAll",
      "outputs": [
        {
          "components": [
            {
              "internalType": "address",
              "name": "cToken",
              "type": "address"
            },
            {
              "internalType": "uint256",
              "name": "underlyingPrice",
              "type": "uint256"
            }
          ],
          "internalType": "struct LendHubLens.CTokenUnderlyingPrice[]",
          "name": "",
          "type": "tuple[]"
        }
      ],
      "payable": false,
      "stateMutability": "nonpayable",
      "type": "function"
    },
    {
      "constant": false,
      "inputs": [
        {
          "internalType": "contract ComptrollerLensInterface",
          "name": "comptroller",
          "type": "address"
        },
        {
          "internalType": "address",
          "name": "account",
          "type": "address"
        }
      ],
      "name": "getAccountLimits",
      "outputs": [
        {
          "components": [
            {
              "internalType": "contract CToken[]",
              "name": "markets",
              "type": "address[]"
            },
            {
              "internalType": "uint256",
              "name": "liquidity",
              "type": "uint256"
            },
            {
              "internalType": "uint256",
              "name": "shortfall",
              "type": "uint256"
            }
          ],
          "internalType": "struct LendHubLens.AccountLimits",
          "name": "",
          "type": "tuple"
        }
      ],
      "payable": false,
      "stateMutability": "nonpayable",
      "type": "function"
    },
    {
      "constant": true,
      "inputs": [
        {
          "internalType": "contract LendHub",
          "name": "lhb",
          "type": "address"
        },
        {
          "internalType": "address",
          "name": "account",
          "type": "address"
        }
      ],
      "name": "getCompBalanceMetadata",
      "outputs": [
        {
          "components": [
            {
              "internalType": "uint256",
              "name": "balance",
              "type": "uint256"
            },
            {
              "internalType": "uint256",
              "name": "votes",
              "type": "uint256"
            },
            {
              "internalType": "address",
              "name": "delegate",
              "type": "address"
            }
          ],
          "internalType": "struct LendHubLens.CompBalanceMetadata",
          "name": "",
          "type": "tuple"
        }
      ],
      "payable": false,
      "stateMutability": "view",
      "type": "function"
    },
    {
      "constant": false,
      "inputs": [
        {
          "internalType": "contract LendHub",
          "name": "lhb",
          "type": "address"
        },
        {
          "internalType": "contract ComptrollerLensInterface",
          "name": "comptroller",
          "type": "address"
        },
        {
          "internalType": "address",
          "name": "account",
          "type": "address"
        }
      ],
      "name": "getCompBalanceMetadataExt",
      "outputs": [
        {
          "components": [
            {
              "internalType": "uint256",
              "name": "balance",
              "type": "uint256"
            },
            {
              "internalType": "uint256",
              "name": "votes",
              "type": "uint256"
            },
            {
              "internalType": "address",
              "name": "delegate",
              "type": "address"
            },
            {
              "internalType": "uint256",
              "name": "allocated",
              "type": "uint256"
            }
          ],
          "internalType": "struct LendHubLens.CompBalanceMetadataExt",
          "name": "",
          "type": "tuple"
        }
      ],
      "payable": false,
      "stateMutability": "nonpayable",
      "type": "function"
    },
    {
      "constant": true,
      "inputs": [
        {
          "internalType": "contract LendHub",
          "name": "lhb",
          "type": "address"
        },
        {
          "internalType": "address",
          "name": "account",
          "type": "address"
        },
        {
          "internalType": "uint32[]",
          "name": "blockNumbers",
          "type": "uint32[]"
        }
      ],
      "name": "getCompVotes",
      "outputs": [
        {
          "components": [
            {
              "internalType": "uint256",
              "name": "blockNumber",
              "type": "uint256"
            },
            {
              "internalType": "uint256",
              "name": "votes",
              "type": "uint256"
            }
          ],
          "internalType": "struct LendHubLens.CompVotes[]",
          "name": "",
          "type": "tuple[]"
        }
      ],
      "payable": false,
      "stateMutability": "view",
      "type": "function"
    }
  ],
  "bytecode": "0x608060405234801561001057600080fd5b506126e6806100206000396000f3fe608060405234801561001057600080fd5b506004361061009e5760003560e01c80634b70d84b116100665780634b70d84b1461014c578063595642191461016c5780637dd8f6d91461018c578063bdf950c9146101ac578063c5ae5934146101cc5761009e565b80630972bf8b146100a3578063158eca8b146100cc5780631ea63741146100ec5780632b2d5ed61461010c578063416405d71461012c575b600080fd5b6100b66100b1366004611c43565b6101ec565b6040516100c39190612482565b60405180910390f35b6100df6100da366004611d07565b61028f565b6040516100c39190612504565b6100ff6100fa366004611ddb565b610a12565b6040516100c39190612521565b61011f61011a366004611c01565b610d98565b6040516100c391906124a4565b61013f61013a366004611d25565b610e34565b6040516100c3919061252f565b61015f61015a366004611c01565b610fdd565b6040516100c39190612493565b61017f61017a366004611d73565b61106e565b6040516100c391906124b5565b61019f61019a366004611d25565b6111c6565b6040516100c391906124e5565b6101bf6101ba366004611d25565b611302565b6040516100c391906124f6565b6101df6101da366004611d07565b6116a2565b6040516100c39190612513565b6040805183815260208085028201019091526060908390829082801561022c57816020015b6102196118f2565b8152602001906001900390816102115790505b50905060005b828110156102835761026487878381811061024957fe5b905060200201602061025e9190810190611d07565b86611302565b82828151811061027057fe5b6020908102919091010152600101610232565b509150505b9392505050565b610297611931565b6000826001600160a01b031663bd6d894d6040518163ffffffff1660e01b8152600401602060405180830381600087803b1580156102d457600080fd5b505af11580156102e8573d6000803e3d6000fd5b505050506040513d601f19601f8201168201806040525061030c9190810190611e53565b90506000836001600160a01b0316635fe3b5676040518163ffffffff1660e01b815260040160206040518083038186803b15801561034957600080fd5b505afa15801561035d573d6000803e3d6000fd5b505050506040513d601f19601f820116820180604052506103819190810190611d55565b9050600080826001600160a01b0316638e8f294b876040518263ffffffff1660e01b81526004016103b29190612430565b604080518083038186803b1580156103c957600080fd5b505afa1580156103dd573d6000803e3d6000fd5b505050506040513d601f19601f820116820180604052506104019190810190611ccd565b915091506000806104a1886001600160a01b03166395d89b416040518163ffffffff1660e01b815260040160006040518083038186803b15801561044457600080fd5b505afa158015610458573d6000803e3d6000fd5b505050506040513d6000823e601f3d908101601f191682016040526104809190810190611e1e565b604051806040016040528060038152602001621b121560ea1b815250611834565b156104b25750600090506012610612565b6000889050806001600160a01b0316636f307dc36040518163ffffffff1660e01b815260040160206040518083038186803b1580156104f057600080fd5b505afa158015610504573d6000803e3d6000fd5b505050506040513d601f19601f820116820180604052506105289190810190611bdb565b9250806001600160a01b0316636f307dc36040518163ffffffff1660e01b815260040160206040518083038186803b15801561056357600080fd5b505afa158015610577573d6000803e3d6000fd5b505050506040513d601f19601f8201168201806040525061059b9190810190611bdb565b6001600160a01b031663313ce5676040518163ffffffff1660e01b815260040160206040518083038186803b1580156105d357600080fd5b505afa1580156105e7573d6000803e3d6000fd5b505050506040513d601f19601f8201168201806040525061060b9190810190611ed2565b60ff169150505b604051806101c00160405280896001600160a01b03168152602001878152602001896001600160a01b031663ae9d70b06040518163ffffffff1660e01b815260040160206040518083038186803b15801561066c57600080fd5b505afa158015610680573d6000803e3d6000fd5b505050506040513d601f19601f820116820180604052506106a49190810190611e53565b8152602001896001600160a01b031663f8f9da286040518163ffffffff1660e01b815260040160206040518083038186803b1580156106e257600080fd5b505afa1580156106f6573d6000803e3d6000fd5b505050506040513d601f19601f8201168201806040525061071a9190810190611e53565b8152602001896001600160a01b031663173b99046040518163ffffffff1660e01b815260040160206040518083038186803b15801561075857600080fd5b505afa15801561076c573d6000803e3d6000fd5b505050506040513d601f19601f820116820180604052506107909190810190611e53565b8152602001896001600160a01b03166347bd37186040518163ffffffff1660e01b815260040160206040518083038186803b1580156107ce57600080fd5b505afa1580156107e2573d6000803e3d6000fd5b505050506040513d601f19601f820116820180604052506108069190810190611e53565b8152602001896001600160a01b0316638f840ddd6040518163ffffffff1660e01b815260040160206040518083038186803b15801561084457600080fd5b505afa158015610858573d6000803e3d6000fd5b505050506040513d601f19601f8201168201806040525061087c9190810190611e53565b8152602001896001600160a01b03166318160ddd6040518163ffffffff1660e01b815260040160206040518083038186803b1580156108ba57600080fd5b505afa1580156108ce573d6000803e3d6000fd5b505050506040513d601f19601f820116820180604052506108f29190810190611e53565b8152602001896001600160a01b0316633b1d21a26040518163ffffffff1660e01b815260040160206040518083038186803b15801561093057600080fd5b505afa158015610944573d6000803e3d6000fd5b505050506040513d601f19601f820116820180604052506109689190810190611e53565b81526020018515158152602001848152602001836001600160a01b03168152602001896001600160a01b031663313ce5676040518163ffffffff1660e01b815260040160206040518083038186803b1580156109c357600080fd5b505afa1580156109d7573d6000803e3d6000fd5b505050506040513d601f19601f820116820180604052506109fb9190810190611ed2565b60ff16815260200191909152979650505050505050565b610a1a6119b4565b6040516370a0823160e01b81526000906001600160a01b038616906370a0823190610a49908690600401612430565b60206040518083038186803b158015610a6157600080fd5b505afa158015610a75573d6000803e3d6000fd5b505050506040513d601f19601f82011682018060405250610a999190810190611e53565b6040516374d7814960e11b81529091506001600160a01b0385169063e9af029290610ac8908690600401612430565b600060405180830381600087803b158015610ae257600080fd5b505af1158015610af6573d6000803e3d6000fd5b50506040516370a0823160e01b8152600092506001600160a01b03881691506370a0823190610b29908790600401612430565b60206040518083038186803b158015610b4157600080fd5b505afa158015610b55573d6000803e3d6000fd5b505050506040513d601f19601f82011682018060405250610b799190810190611e53565b90506000856001600160a01b031663cc7ebdc4866040518263ffffffff1660e01b8152600401610ba99190612430565b60206040518083038186803b158015610bc157600080fd5b505afa158015610bd5573d6000803e3d6000fd5b505050506040513d601f19601f82011682018060405250610bf99190810190611e53565b90506000610c2d82846040518060400160405280600d81526020016c1cdd5b48131210881d1bdd185b609a1b81525061188d565b90506000610c6182866040518060400160405280600d81526020016c1cdd5888185b1b1bd8d85d1959609a1b8152506118c6565b905060405180608001604052808681526020018a6001600160a01b031663b4b5ea578a6040518263ffffffff1660e01b8152600401610ca09190612430565b60206040518083038186803b158015610cb857600080fd5b505afa158015610ccc573d6000803e3d6000fd5b505050506040513d601f19601f82011682018060405250610cf09190810190611ef0565b6001600160601b031681526020018a6001600160a01b031663587cde1e8a6040518263ffffffff1660e01b8152600401610d2a9190612430565b60206040518083038186803b158015610d4257600080fd5b505afa158015610d56573d6000803e3d6000fd5b505050506040513d601f19601f82011682018060405250610d7a9190810190611bdb565b6001600160a01b031681526020019190915298975050505050505050565b60408051828152602080840282010190915260609082908290828015610dd857816020015b610dc56119e5565b815260200190600190039081610dbd5790505b50905060005b82811015610e2957610e0a868683818110610df557fe5b90506020020160206101da9190810190611d07565b828281518110610e1657fe5b6020908102919091010152600101610dde565b509150505b92915050565b610e3c6119fc565b6040805160608101918290526370a0823160e01b909152806001600160a01b0385166370a08231610e708660648501612430565b60206040518083038186803b158015610e8857600080fd5b505afa158015610e9c573d6000803e3d6000fd5b505050506040513d601f19601f82011682018060405250610ec09190810190611e53565b8152602001846001600160a01b031663b4b5ea57856040518263ffffffff1660e01b8152600401610ef19190612430565b60206040518083038186803b158015610f0957600080fd5b505afa158015610f1d573d6000803e3d6000fd5b505050506040513d601f19601f82011682018060405250610f419190810190611ef0565b6001600160601b03168152602001846001600160a01b031663587cde1e856040518263ffffffff1660e01b8152600401610f7b9190612430565b60206040518083038186803b158015610f9357600080fd5b505afa158015610fa7573d6000803e3d6000fd5b505050506040513d601f19601f82011682018060405250610fcb9190810190611bdb565b6001600160a01b031690529392505050565b6040805182815260208084028201019091526060908290829082801561101d57816020015b61100a611931565b8152602001906001900390816110025790505b50905060005b82811015610e295761104f86868381811061103a57fe5b90506020020160206100da9190810190611d07565b82828151811061105b57fe5b6020908102919091010152600101611023565b606080838390506040519080825280602002602001820160405280156110ae57816020015b61109b611a26565b8152602001906001900390816110935790505b50905060005b838110156111bc5760405180604001604052808686848181106110d357fe5b90506020020160206110e89190810190611eb4565b63ffffffff168152602001886001600160a01b031663782d6fe18989898781811061110f57fe5b90506020020160206111249190810190611eb4565b6040518363ffffffff1660e01b8152600401611141929190612467565b60206040518083038186803b15801561115957600080fd5b505afa15801561116d573d6000803e3d6000fd5b505050506040513d601f19601f820116820180604052506111919190810190611ef0565b6001600160601b03168152508282815181106111a957fe5b60209081029190910101526001016110b4565b5095945050505050565b6111ce611a40565b6000806000856001600160a01b0316635ec88c79866040518263ffffffff1660e01b81526004016111ff9190612430565b60606040518083038186803b15801561121757600080fd5b505afa15801561122b573d6000803e3d6000fd5b505050506040513d601f19601f8201168201806040525061124f9190810190611e71565b9250925092508260001461126257600080fd5b604080516060810191829052632aff3bff60e21b909152806001600160a01b03881663abfceffc6112968960648501612430565b60006040518083038186803b1580156112ae57600080fd5b505afa1580156112c2573d6000803e3d6000fd5b505050506040513d6000823e601f3d908101601f191682016040526112ea9190810190611c98565b81526020810193909352604090920152949350505050565b61130a6118f2565b6040516370a0823160e01b81526000906001600160a01b038516906370a082319061133990869060040161243e565b60206040518083038186803b15801561135157600080fd5b505afa158015611365573d6000803e3d6000fd5b505050506040513d601f19601f820116820180604052506113899190810190611e53565b90506000846001600160a01b03166317bfdfbc856040518263ffffffff1660e01b81526004016113b9919061243e565b602060405180830381600087803b1580156113d357600080fd5b505af11580156113e7573d6000803e3d6000fd5b505050506040513d601f19601f8201168201806040525061140b9190810190611e53565b90506000856001600160a01b0316633af9e669866040518263ffffffff1660e01b815260040161143b919061243e565b602060405180830381600087803b15801561145557600080fd5b505af1158015611469573d6000803e3d6000fd5b505050506040513d601f19601f8201168201806040525061148d9190810190611e53565b90506000806114ce886001600160a01b03166395d89b416040518163ffffffff1660e01b815260040160006040518083038186803b15801561044457600080fd5b156114e85750506001600160a01b03851680319031611665565b60008890506000816001600160a01b0316636f307dc36040518163ffffffff1660e01b815260040160206040518083038186803b15801561152857600080fd5b505afa15801561153c573d6000803e3d6000fd5b505050506040513d601f19601f820116820180604052506115609190810190611bdb565b6040516370a0823160e01b81529091506001600160a01b038216906370a082319061158f908c9060040161243e565b60206040518083038186803b1580156115a757600080fd5b505afa1580156115bb573d6000803e3d6000fd5b505050506040513d601f19601f820116820180604052506115df9190810190611e53565b604051636eb1769f60e11b81529094506001600160a01b0382169063dd62ed3e90611610908c908e9060040161244c565b60206040518083038186803b15801561162857600080fd5b505afa15801561163c573d6000803e3d6000fd5b505050506040513d601f19601f820116820180604052506116609190810190611e53565b925050505b6040805160c0810182526001600160a01b039990991689526020890195909552938701929092526060860152608085015260a08401525090919050565b6116aa6119e5565b6000826001600160a01b0316635fe3b5676040518163ffffffff1660e01b815260040160206040518083038186803b1580156116e557600080fd5b505afa1580156116f9573d6000803e3d6000fd5b505050506040513d601f19601f8201168201806040525061171d9190810190611d55565b90506000816001600160a01b0316637dc0d1d06040518163ffffffff1660e01b815260040160206040518083038186803b15801561175a57600080fd5b505afa15801561176e573d6000803e3d6000fd5b505050506040513d601f19601f820116820180604052506117929190810190611d55565b90506040518060400160405280856001600160a01b03168152602001826001600160a01b031663fc57d4df876040518263ffffffff1660e01b81526004016117da91906124c6565b60206040518083038186803b1580156117f257600080fd5b505afa158015611806573d6000803e3d6000fd5b505050506040513d601f19601f8201168201806040525061182a9190810190611e53565b9052949350505050565b6000816040516020016118479190612424565b604051602081830303815290604052805190602001208360405160200161186e9190612424565b6040516020818303038152906040528051906020012014905092915050565b600083830182858210156118bd5760405162461bcd60e51b81526004016118b491906124d4565b60405180910390fd5b50949350505050565b600081848411156118ea5760405162461bcd60e51b81526004016118b491906124d4565b505050900390565b6040518060c0016040528060006001600160a01b0316815260200160008152602001600081526020016000815260200160008152602001600081525090565b604051806101c0016040528060006001600160a01b0316815260200160008152602001600081526020016000815260200160008152602001600081526020016000815260200160008152602001600081526020016000151581526020016000815260200160006001600160a01b0316815260200160008152602001600081525090565b6040518060800160405280600081526020016000815260200160006001600160a01b03168152602001600081525090565b604080518082019091526000808252602082015290565b6040518060600160405280600081526020016000815260200160006001600160a01b031681525090565b604051806040016040528060008152602001600081525090565b60405180606001604052806060815260200160008152602001600081525090565b8035610e2e81612656565b8051610e2e81612656565b60008083601f840112611a8957600080fd5b50813567ffffffffffffffff811115611aa157600080fd5b602083019150836020820283011115611ab957600080fd5b9250929050565b600082601f830112611ad157600080fd5b8151611ae4611adf82612564565b61253d565b91508181835260208401935060208101905083856020840282011115611b0957600080fd5b60005b83811015611b355781611b1f8882611b55565b8452506020928301929190910190600101611b0c565b5050505092915050565b8051610e2e8161266d565b8035610e2e81612676565b8051610e2e81612676565b600082601f830112611b7157600080fd5b8151611b7f611adf82612585565b91508082526020830160208301858383011115611b9b57600080fd5b611ba6838284612620565b50505092915050565b8051610e2e8161267f565b8035610e2e81612688565b8051610e2e81612691565b8051610e2e8161269a565b600060208284031215611bed57600080fd5b6000611bf98484611a6c565b949350505050565b60008060208385031215611c1457600080fd5b823567ffffffffffffffff811115611c2b57600080fd5b611c3785828601611a77565b92509250509250929050565b600080600060408486031215611c5857600080fd5b833567ffffffffffffffff811115611c6f57600080fd5b611c7b86828701611a77565b93509350506020611c8e86828701611a61565b9150509250925092565b600060208284031215611caa57600080fd5b815167ffffffffffffffff811115611cc157600080fd5b611bf984828501611ac0565b60008060408385031215611ce057600080fd5b6000611cec8585611b3f565b9250506020611cfd85828601611baf565b9150509250929050565b600060208284031215611d1957600080fd5b6000611bf98484611b4a565b60008060408385031215611d3857600080fd5b6000611d448585611b4a565b9250506020611cfd85828601611a61565b600060208284031215611d6757600080fd5b6000611bf98484611b55565b60008060008060608587031215611d8957600080fd5b6000611d958787611b4a565b9450506020611da687828801611a61565b935050604085013567ffffffffffffffff811115611dc357600080fd5b611dcf87828801611a77565b95989497509550505050565b600080600060608486031215611df057600080fd5b6000611dfc8686611b4a565b9350506020611e0d86828701611b4a565b9250506040611c8e86828701611a61565b600060208284031215611e3057600080fd5b815167ffffffffffffffff811115611e4757600080fd5b611bf984828501611b60565b600060208284031215611e6557600080fd5b6000611bf98484611baf565b600080600060608486031215611e8657600080fd5b6000611e928686611baf565b9350506020611ea386828701611baf565b9250506040611c8e86828701611baf565b600060208284031215611ec657600080fd5b6000611bf98484611bba565b600060208284031215611ee457600080fd5b6000611bf98484611bc5565b600060208284031215611f0257600080fd5b6000611bf98484611bd0565b6000611f1a838361211d565b505060200190565b6000611f2e83836121d5565b505060c00190565b6000611f42838361224b565b50506101c00190565b6000611f578383612360565b505060400190565b6000611f578383612405565b611f748161260a565b82525050565b611f74816125c5565b6000611f8e826125b3565b611f9881856125b7565b9350611fa3836125ad565b8060005b83811015611fd1578151611fbb8882611f0e565b9750611fc6836125ad565b925050600101611fa7565b509495945050505050565b6000611fe7826125b3565b611ff181856125b7565b9350611ffc836125ad565b8060005b83811015611fd15781516120148882611f22565b975061201f836125ad565b925050600101612000565b6000612035826125b3565b61203f81856125b7565b935061204a836125ad565b8060005b83811015611fd15781516120628882611f36565b975061206d836125ad565b92505060010161204e565b6000612083826125b3565b61208d81856125b7565b9350612098836125ad565b8060005b83811015611fd15781516120b08882611f4b565b97506120bb836125ad565b92505060010161209c565b60006120d1826125b3565b6120db81856125b7565b93506120e6836125ad565b8060005b83811015611fd15781516120fe8882611f5f565b9750612109836125ad565b9250506001016120ea565b611f74816125d0565b611f74816125d5565b6000612131826125b3565b61213b81856125b7565b935061214b818560208601612620565b6121548161264c565b9093019392505050565b6000612169826125b3565b61217381856125c0565b9350612183818560208601612620565b9290920192915050565b80516060808452600091908401906121a58282611f83565b91505060208301516121ba6020860182612412565b5060408301516121cd6040860182612412565b509392505050565b805160c08301906121e68482611f7a565b5060208201516121f96020850182612412565b50604082015161220c6040850182612412565b50606082015161221f6060850182612412565b5060808201516122326080850182612412565b5060a082015161224560a0850182612412565b50505050565b80516101c083019061225d8482611f7a565b5060208201516122706020850182612412565b5060408201516122836040850182612412565b5060608201516122966060850182612412565b5060808201516122a96080850182612412565b5060a08201516122bc60a0850182612412565b5060c08201516122cf60c0850182612412565b5060e08201516122e260e0850182612412565b506101008201516122f7610100850182612412565b5061012082015161230c610120850182612114565b50610140820151612321610140850182612412565b50610160820151612336610160850182611f7a565b5061018082015161234b610180850182612412565b506101a08201516122456101a0850182612412565b805160408301906123718482611f7a565b5060208201516122456020850182612412565b805160808301906123958482612412565b5060208201516123a86020850182612412565b5060408201516123bb6040850182611f7a565b5060608201516122456060850182612412565b805160608301906123df8482612412565b5060208201516123f26020850182612412565b5060408201516122456040850182611f7a565b8051604083019061237184825b611f74816125ec565b611f7481612615565b6000610288828461215e565b60208101610e2e8284611f7a565b60208101610e2e8284611f6b565b6040810161245a8285611f6b565b6102886020830184611f7a565b604081016124758285611f7a565b610288602083018461241b565b602080825281016102888184611fdc565b60208082528101610288818461202a565b602080825281016102888184612078565b6020808252810161028881846120c6565b60208101610e2e828461211d565b602080825281016102888184612126565b60208082528101610288818461218d565b60c08101610e2e82846121d5565b6101c08101610e2e828461224b565b60408101610e2e8284612360565b60808101610e2e8284612384565b60608101610e2e82846123ce565b60405181810167ffffffffffffffff8111828210171561255c57600080fd5b604052919050565b600067ffffffffffffffff82111561257b57600080fd5b5060209081020190565b600067ffffffffffffffff82111561259c57600080fd5b506020601f91909101601f19160190565b60200190565b5190565b90815260200190565b919050565b6000610e2e826125e0565b151590565b6000610e2e826125c5565b6001600160a01b031690565b90565b63ffffffff1690565b60ff1690565b6001600160601b031690565b6000610e2e826125d5565b6000610e2e826125ef565b60005b8381101561263b578181015183820152602001612623565b838111156122455750506000910152565b601f01601f191690565b61265f816125c5565b811461266a57600080fd5b50565b61265f816125d0565b61265f816125d5565b61265f816125ec565b61265f816125ef565b61265f816125f8565b61265f816125fe56fea365627a7a7231582005d48056cfeabf23a6278ba36676b118e50954b172f7702cab123644fa761fae6c6578706572696d656e74616cf564736f6c63430005100040",
  "linkReferences": {},
  "deployedLinkReferences": {}
}