{
  "_format": "hh-sol-artifact-1",
  "contractName": "SwapMining",
  "sourceName": "contracts/flatten/SwapMining.sol",
  "abi": [
    {
      "inputs": [
        {
          "internalType": "address",
          "name": "_ebe",
          "type": "address"
        },
        {
          "internalType": "address",
          "name": "_router",
          "type": "address"
        },
        {
          "internalType": "uint256",
          "name": "_ebePerBlock",
          "type": "uint256"
        },
        {
          "internalType": "uint256",
          "name": "_startBlock",
          "type": "uint256"
        }
      ],
      "payable": false,
      "stateMutability": "nonpayable",
      "type": "constructor"
    },
    {
      "anonymous": false,
      "inputs": [
        {
          "indexed": true,
          "internalType": "address",
          "name": "previousOwner",
          "type": "address"
        },
        {
          "indexed": true,
          "internalType": "address",
          "name": "newOwner",
          "type": "address"
        }
      ],
      "name": "OwnershipTransferred",
      "type": "event"
    },
    {
      "constant": true,
      "inputs": [],
      "name": "ebe",
      "outputs": [
        {
          "internalType": "contract IEBEToken",
          "name": "",
          "type": "address"
        }
      ],
      "payable": false,
      "stateMutability": "view",
      "type": "function"
    },
    {
      "constant": true,
      "inputs": [],
      "name": "ebePerBlock",
      "outputs": [
        {
          "internalType": "uint256",
          "name": "",
          "type": "uint256"
        }
      ],
      "payable": false,
      "stateMutability": "view",
      "type": "function"
    },
    {
      "constant": true,
      "inputs": [],
      "name": "getUserReward",
      "outputs": [
        {
          "internalType": "uint256",
          "name": "",
          "type": "uint256"
        },
        {
          "internalType": "uint256",
          "name": "",
          "type": "uint256"
        }
      ],
      "payable": false,
      "stateMutability": "view",
      "type": "function"
    },
    {
      "constant": true,
      "inputs": [],
      "name": "halvingPeriod",
      "outputs": [
        {
          "internalType": "uint256",
          "name": "",
          "type": "uint256"
        }
      ],
      "payable": false,
      "stateMutability": "view",
      "type": "function"
    },
    {
      "constant": true,
      "inputs": [],
      "name": "isOwner",
      "outputs": [
        {
          "internalType": "bool",
          "name": "",
          "type": "bool"
        }
      ],
      "payable": false,
      "stateMutability": "view",
      "type": "function"
    },
    {
      "constant": false,
      "inputs": [],
      "name": "mint",
      "outputs": [
        {
          "internalType": "bool",
          "name": "",
          "type": "bool"
        }
      ],
      "payable": false,
      "stateMutability": "nonpayable",
      "type": "function"
    },
    {
      "constant": true,
      "inputs": [],
      "name": "owner",
      "outputs": [
        {
          "internalType": "address",
          "name": "",
          "type": "address"
        }
      ],
      "payable": false,
      "stateMutability": "view",
      "type": "function"
    },
    {
      "constant": true,
      "inputs": [],
      "name": "pool",
      "outputs": [
        {
          "internalType": "uint256",
          "name": "quantity",
          "type": "uint256"
        },
        {
          "internalType": "uint256",
          "name": "totalQuantity",
          "type": "uint256"
        },
        {
          "internalType": "uint256",
          "name": "allocEbeAmount",
          "type": "uint256"
        },
        {
          "internalType": "uint256",
          "name": "lastRewardBlock",
          "type": "uint256"
        }
      ],
      "payable": false,
      "stateMutability": "view",
      "type": "function"
    },
    {
      "constant": false,
      "inputs": [],
      "name": "renounceOwnership",
      "outputs": [],
      "payable": false,
      "stateMutability": "nonpayable",
      "type": "function"
    },
    {
      "constant": true,
      "inputs": [],
      "name": "router",
      "outputs": [
        {
          "internalType": "address",
          "name": "",
          "type": "address"
        }
      ],
      "payable": false,
      "stateMutability": "view",
      "type": "function"
    },
    {
      "constant": false,
      "inputs": [
        {
          "internalType": "uint256",
          "name": "_newPerBlock",
          "type": "uint256"
        }
      ],
      "name": "setEbePerBlock",
      "outputs": [],
      "payable": false,
      "stateMutability": "nonpayable",
      "type": "function"
    },
    {
      "constant": false,
      "inputs": [
        {
          "internalType": "address",
          "name": "newRouter",
          "type": "address"
        }
      ],
      "name": "setRouter",
      "outputs": [],
      "payable": false,
      "stateMutability": "nonpayable",
      "type": "function"
    },
    {
      "constant": true,
      "inputs": [],
      "name": "startBlock",
      "outputs": [
        {
          "internalType": "uint256",
          "name": "",
          "type": "uint256"
        }
      ],
      "payable": false,
      "stateMutability": "view",
      "type": "function"
    },
    {
      "constant": false,
      "inputs": [
        {
          "internalType": "address",
          "name": "account",
          "type": "address"
        },
        {
          "internalType": "address",
          "name": "input",
          "type": "address"
        },
        {
          "internalType": "address",
          "name": "output",
          "type": "address"
        },
        {
          "internalType": "uint256",
          "name": "fee",
          "type": "uint256"
        }
      ],
      "name": "swap",
      "outputs": [
        {
          "internalType": "bool",
          "name": "",
          "type": "bool"
        }
      ],
      "payable": false,
      "stateMutability": "nonpayable",
      "type": "function"
    },
    {
      "constant": false,
      "inputs": [],
      "name": "takerWithdraw",
      "outputs": [],
      "payable": false,
      "stateMutability": "nonpayable",
      "type": "function"
    },
    {
      "constant": true,
      "inputs": [],
      "name": "totalAllocPoint",
      "outputs": [
        {
          "internalType": "uint256",
          "name": "",
          "type": "uint256"
        }
      ],
      "payable": false,
      "stateMutability": "view",
      "type": "function"
    },
    {
      "constant": false,
      "inputs": [
        {
          "internalType": "address",
          "name": "newOwner",
          "type": "address"
        }
      ],
      "name": "transferOwnership",
      "outputs": [],
      "payable": false,
      "stateMutability": "nonpayable",
      "type": "function"
    },
    {
      "constant": true,
      "inputs": [
        {
          "internalType": "address",
          "name": "",
          "type": "address"
        }
      ],
      "name": "userInfo",
      "outputs": [
        {
          "internalType": "uint256",
          "name": "quantity",
          "type": "uint256"
        },
        {
          "internalType": "uint256",
          "name": "blockNumber",
          "type": "uint256"
        }
      ],
      "payable": false,
      "stateMutability": "view",
      "type": "function"
    }
  ],
  "bytecode": "0x608060405262503340600355600060045534801561001c57600080fd5b50604051610ee1380380610ee18339818101604052608081101561003f57600080fd5b508051602082015160408301516060909301519192909160006100696001600160e01b036100f116565b600080546001600160a01b0319166001600160a01b0383169081178255604051929350917f8be0079c531659141344cd1fd0a4f28419497f9722a3daafe3b4186f6b6457e0908290a350600680546001600160a01b039586166001600160a01b03199182161790915560058054949095169316929092179092556001919091556002556100f5565b3390565b610ddd806101046000396000f3fe608060405234801561001057600080fd5b50600436106101155760003560e01c80638da5cb5b116100a2578063c0d7865511610071578063c0d786551461026c578063d793d83e14610292578063f1844a251461029a578063f2fde38b146102a2578063f887ea40146102c857610115565b80638da5cb5b146102185780638f32d59b14610220578063a9678a1814610228578063b872dd0e1461026457610115565b80631959a002116100e95780631959a002146101a257806348cd4cb1146101e15780635a3e251f146101e957806366f9e64b146101f1578063715018a61461021057610115565b8062a2e1781461011a5780631249c58b1461013e57806316f0115b1461015a57806317caf6f114610188575b600080fd5b6101226102d0565b604080516001600160a01b039092168252519081900360200190f35b6101466102df565b604080519115158252519081900360200190f35b610162610417565b604080519485526020850193909352838301919091526060830152519081900360800190f35b610190610426565b60408051918252519081900360200190f35b6101c8600480360360208110156101b857600080fd5b50356001600160a01b031661042c565b6040805192835260208301919091528051918290030190f35b610190610445565b61019061044b565b61020e6004803603602081101561020757600080fd5b5035610451565b005b61020e6104a6565b610122610537565b610146610546565b6101466004803603608081101561023e57600080fd5b506001600160a01b0381358116916020810135821691604082013516906060013561056a565b61020e61067f565b61020e6004803603602081101561028257600080fd5b50356001600160a01b03166107ad565b6101c861085b565b61019061095f565b61020e600480360360208110156102b857600080fd5b50356001600160a01b0316610965565b6101226109b8565b6006546001600160a01b031681565b600a5460009043116102f357506000610414565b600654600154600a5460408051631bba3daf60e01b815260048101939093526024830191909152516000926001600160a01b031691631bba3daf916044808301926020929190829003018186803b15801561034d57600080fd5b505afa158015610361573d6000803e3d6000fd5b505050506040513d602081101561037757600080fd5b505190508061038a576000915050610414565b600654604080516340c10f1960e01b81523060048201526024810184905290516001600160a01b03909216916340c10f19916044808201926020929091908290030181600087803b1580156103de57600080fd5b505af11580156103f2573d6000803e3d6000fd5b505050506040513d602081101561040857600080fd5b505043600a5550600190505b90565b600754600854600954600a5484565b60045481565b600b602052600090815260409020805460019091015482565b60025481565b60035481565b610459610546565b610498576040805162461bcd60e51b81526020600482018190526024820152600080516020610d57833981519152604482015290519081900360640190fd5b6104a06102df565b50600155565b6104ae610546565b6104ed576040805162461bcd60e51b81526020600482018190526024820152600080516020610d57833981519152604482015290519081900360640190fd5b600080546040516001600160a01b03909116907f8be0079c531659141344cd1fd0a4f28419497f9722a3daafe3b4186f6b6457e0908390a3600080546001600160a01b0319169055565b6000546001600160a01b031690565b600080546001600160a01b031661055b6109c7565b6001600160a01b031614905090565b6005546000906001600160a01b031633146105b65760405162461bcd60e51b8152600401808060200182810382526024815260200180610d126024913960400191505060405180910390fd5b6001600160a01b0385166105fb5760405162461bcd60e51b8152600401808060200182810382526032815260200180610d776032913960400191505060405180910390fd5b818061060b576000915050610677565b6106136102df565b50600754610627908263ffffffff6109cb16565b60075560085461063d908263ffffffff6109cb16565b6008556001600160a01b0386166000908152600b60205260409020805461066a908363ffffffff6109cb16565b8155436001918201559150505b949350505050565b336000908152600b602052604081208054156107195761069d6102df565b5060075481546009546000926106ca9290916106be9163ffffffff610a2e16565b9063ffffffff610a8716565b82546007549192506106e2919063ffffffff610ac916565b6007556009546106f8908263ffffffff610ac916565b60095560008255436001830155610715838263ffffffff6109cb16565b9250505b600082116107285750506107ab565b6006546040805163a9059cbb60e01b81523360048201526024810185905290516001600160a01b039092169163a9059cbb916044808201926020929091908290030181600087803b15801561077c57600080fd5b505af1158015610790573d6000803e3d6000fd5b505050506040513d60208110156107a657600080fd5b505050505b565b6107b5610546565b6107f4576040805162461bcd60e51b81526020600482018190526024820152600080516020610d57833981519152604482015290519081900360640190fd5b6001600160a01b0381166108395760405162461bcd60e51b815260040180806020018281038252602a815260200180610cc2602a913960400191505060405180910390fd5b600580546001600160a01b0319166001600160a01b0392909216919091179055565b6000806000610868610ca7565b50336000908152600b602090815260409182902082518084019093528054808452600190910154918301919091521561095557600654600154600a5460408051631bba3daf60e01b815260048101939093526024830191909152516000926001600160a01b031691631bba3daf916044808301926020929190829003018186803b1580156108f557600080fd5b505afa158015610909573d6000803e3d6000fd5b505050506040513d602081101561091f57600080fd5b50516007548351600954929350610951926106be9190610945908663ffffffff6109cb16565b9063ffffffff610a2e16565b9250505b5190925090509091565b60015481565b61096d610546565b6109ac576040805162461bcd60e51b81526020600482018190526024820152600080516020610d57833981519152604482015290519081900360640190fd5b6109b581610b0b565b50565b6005546001600160a01b031681565b3390565b600082820183811015610a25576040805162461bcd60e51b815260206004820152601b60248201527f536166654d6174683a206164646974696f6e206f766572666c6f770000000000604482015290519081900360640190fd5b90505b92915050565b600082610a3d57506000610a28565b82820282848281610a4a57fe5b0414610a255760405162461bcd60e51b8152600401808060200182810382526021815260200180610d366021913960400191505060405180910390fd5b6000610a2583836040518060400160405280601a81526020017f536166654d6174683a206469766973696f6e206279207a65726f000000000000815250610bab565b6000610a2583836040518060400160405280601e81526020017f536166654d6174683a207375627472616374696f6e206f766572666c6f770000815250610c4d565b6001600160a01b038116610b505760405162461bcd60e51b8152600401808060200182810382526026815260200180610cec6026913960400191505060405180910390fd5b600080546040516001600160a01b03808516939216917f8be0079c531659141344cd1fd0a4f28419497f9722a3daafe3b4186f6b6457e091a3600080546001600160a01b0319166001600160a01b0392909216919091179055565b60008183610c375760405162461bcd60e51b81526004018080602001828103825283818151815260200191508051906020019080838360005b83811015610bfc578181015183820152602001610be4565b50505050905090810190601f168015610c295780820380516001836020036101000a031916815260200191505b509250505060405180910390fd5b506000838581610c4357fe5b0495945050505050565b60008184841115610c9f5760405162461bcd60e51b8152602060048201818152835160248401528351909283926044909101919085019080838360008315610bfc578181015183820152602001610be4565b505050900390565b60405180604001604052806000815260200160008152509056fe537761704d696e696e673a206e657720726f7574657220697320746865207a65726f20616464726573734f776e61626c653a206e6577206f776e657220697320746865207a65726f2061646472657373537761704d696e696e673a2063616c6c6572206973206e6f742074686520726f75746572536166654d6174683a206d756c7469706c69636174696f6e206f766572666c6f774f776e61626c653a2063616c6c6572206973206e6f7420746865206f776e6572537761704d696e696e673a2074616b65722073776170206163636f756e7420697320746865207a65726f2061646472657373a265627a7a723158209b454a342d88ae4bef5593003666f668a6b26b75736f92635be3ef88870b42fc64736f6c63430005100032",
  "linkReferences": {},
  "deployedLinkReferences": {}
}