{
  "_format": "hh-sol-artifact-1",
  "contractName": "ComptrollerV2",
  "sourceName": "contracts/compound/ComptrollerV2.sol",
  "abi": [
    {
      "anonymous": false,
      "inputs": [
        {
          "indexed": false,
          "internalType": "address",
          "name": "recipient",
          "type": "address"
        },
        {
          "indexed": false,
          "internalType": "uint256",
          "name": "amount",
          "type": "uint256"
        }
      ],
      "name": "CompGranted",
      "type": "event"
    },
    {
      "anonymous": false,
      "inputs": [
        {
          "indexed": false,
          "internalType": "uint256",
          "name": "error",
          "type": "uint256"
        },
        {
          "indexed": false,
          "internalType": "uint256",
          "name": "info",
          "type": "uint256"
        },
        {
          "indexed": false,
          "internalType": "uint256",
          "name": "detail",
          "type": "uint256"
        }
      ],
      "name": "Failure",
      "type": "event"
    },
    {
      "anonymous": false,
      "inputs": [
        {
          "indexed": false,
          "internalType": "contract CToken",
          "name": "cToken",
          "type": "address"
        }
      ],
      "name": "MarketListed",
      "type": "event"
    },
    {
      "constant": true,
      "inputs": [],
      "name": "_borrowGuardianPaused",
      "outputs": [
        {
          "internalType": "bool",
          "name": "",
          "type": "bool"
        }
      ],
      "payable": false,
      "stateMutability": "view",
      "type": "function"
    },
    {
      "constant": false,
      "inputs": [
        {
          "internalType": "address",
          "name": "recipient",
          "type": "address"
        },
        {
          "internalType": "uint256",
          "name": "amount",
          "type": "uint256"
        }
      ],
      "name": "_grantComp",
      "outputs": [],
      "payable": false,
      "stateMutability": "nonpayable",
      "type": "function"
    },
    {
      "constant": true,
      "inputs": [],
      "name": "_mintGuardianPaused",
      "outputs": [
        {
          "internalType": "bool",
          "name": "",
          "type": "bool"
        }
      ],
      "payable": false,
      "stateMutability": "view",
      "type": "function"
    },
    {
      "constant": false,
      "inputs": [
        {
          "internalType": "address",
          "name": "delegateFactoryAddress_",
          "type": "address"
        }
      ],
      "name": "_setDelegateFactoryAddress",
      "outputs": [
        {
          "internalType": "uint256",
          "name": "",
          "type": "uint256"
        }
      ],
      "payable": false,
      "stateMutability": "nonpayable",
      "type": "function"
    },
    {
      "constant": false,
      "inputs": [
        {
          "internalType": "address",
          "name": "token",
          "type": "address"
        },
        {
          "internalType": "address",
          "name": "cTokenAddress",
          "type": "address"
        }
      ],
      "name": "_supportMarket",
      "outputs": [
        {
          "internalType": "uint256",
          "name": "",
          "type": "uint256"
        }
      ],
      "payable": false,
      "stateMutability": "nonpayable",
      "type": "function"
    },
    {
      "constant": false,
      "inputs": [
        {
          "internalType": "address",
          "name": "eTokenAddress",
          "type": "address"
        },
        {
          "internalType": "bool",
          "name": "isLPPool",
          "type": "bool"
        }
      ],
      "name": "_updateMarket",
      "outputs": [
        {
          "internalType": "uint256",
          "name": "",
          "type": "uint256"
        }
      ],
      "payable": false,
      "stateMutability": "nonpayable",
      "type": "function"
    },
    {
      "constant": true,
      "inputs": [
        {
          "internalType": "address",
          "name": "",
          "type": "address"
        },
        {
          "internalType": "uint256",
          "name": "",
          "type": "uint256"
        }
      ],
      "name": "accountAssets",
      "outputs": [
        {
          "internalType": "contract CToken",
          "name": "",
          "type": "address"
        }
      ],
      "payable": false,
      "stateMutability": "view",
      "type": "function"
    },
    {
      "constant": true,
      "inputs": [],
      "name": "admin",
      "outputs": [
        {
          "internalType": "address",
          "name": "",
          "type": "address"
        }
      ],
      "payable": false,
      "stateMutability": "view",
      "type": "function"
    },
    {
      "constant": true,
      "inputs": [
        {
          "internalType": "uint256",
          "name": "",
          "type": "uint256"
        }
      ],
      "name": "allMarkets",
      "outputs": [
        {
          "internalType": "contract CToken",
          "name": "",
          "type": "address"
        }
      ],
      "payable": false,
      "stateMutability": "view",
      "type": "function"
    },
    {
      "constant": true,
      "inputs": [],
      "name": "borrowCapGuardian",
      "outputs": [
        {
          "internalType": "address",
          "name": "",
          "type": "address"
        }
      ],
      "payable": false,
      "stateMutability": "view",
      "type": "function"
    },
    {
      "constant": true,
      "inputs": [
        {
          "internalType": "address",
          "name": "",
          "type": "address"
        }
      ],
      "name": "borrowCaps",
      "outputs": [
        {
          "internalType": "uint256",
          "name": "",
          "type": "uint256"
        }
      ],
      "payable": false,
      "stateMutability": "view",
      "type": "function"
    },
    {
      "constant": true,
      "inputs": [
        {
          "internalType": "address",
          "name": "",
          "type": "address"
        }
      ],
      "name": "borrowGuardianPaused",
      "outputs": [
        {
          "internalType": "bool",
          "name": "",
          "type": "bool"
        }
      ],
      "payable": false,
      "stateMutability": "view",
      "type": "function"
    },
    {
      "constant": true,
      "inputs": [
        {
          "internalType": "address",
          "name": "account",
          "type": "address"
        },
        {
          "internalType": "contract CToken",
          "name": "cToken",
          "type": "address"
        }
      ],
      "name": "checkMembership",
      "outputs": [
        {
          "internalType": "bool",
          "name": "",
          "type": "bool"
        }
      ],
      "payable": false,
      "stateMutability": "view",
      "type": "function"
    },
    {
      "constant": true,
      "inputs": [],
      "name": "closeFactorMantissa",
      "outputs": [
        {
          "internalType": "uint256",
          "name": "",
          "type": "uint256"
        }
      ],
      "payable": false,
      "stateMutability": "view",
      "type": "function"
    },
    {
      "constant": true,
      "inputs": [
        {
          "internalType": "address",
          "name": "",
          "type": "address"
        }
      ],
      "name": "compAccrued",
      "outputs": [
        {
          "internalType": "uint256",
          "name": "",
          "type": "uint256"
        }
      ],
      "payable": false,
      "stateMutability": "view",
      "type": "function"
    },
    {
      "constant": true,
      "inputs": [
        {
          "internalType": "address",
          "name": "",
          "type": "address"
        }
      ],
      "name": "compBorrowState",
      "outputs": [
        {
          "internalType": "uint224",
          "name": "index",
          "type": "uint224"
        },
        {
          "internalType": "uint32",
          "name": "block",
          "type": "uint32"
        }
      ],
      "payable": false,
      "stateMutability": "view",
      "type": "function"
    },
    {
      "constant": true,
      "inputs": [
        {
          "internalType": "address",
          "name": "",
          "type": "address"
        },
        {
          "internalType": "address",
          "name": "",
          "type": "address"
        }
      ],
      "name": "compBorrowerIndex",
      "outputs": [
        {
          "internalType": "uint256",
          "name": "",
          "type": "uint256"
        }
      ],
      "payable": false,
      "stateMutability": "view",
      "type": "function"
    },
    {
      "constant": true,
      "inputs": [],
      "name": "compClaimThreshold",
      "outputs": [
        {
          "internalType": "uint256",
          "name": "",
          "type": "uint256"
        }
      ],
      "payable": false,
      "stateMutability": "view",
      "type": "function"
    },
    {
      "constant": true,
      "inputs": [],
      "name": "compInitialIndex",
      "outputs": [
        {
          "internalType": "uint224",
          "name": "",
          "type": "uint224"
        }
      ],
      "payable": false,
      "stateMutability": "view",
      "type": "function"
    },
    {
      "constant": true,
      "inputs": [],
      "name": "compRate",
      "outputs": [
        {
          "internalType": "uint256",
          "name": "",
          "type": "uint256"
        }
      ],
      "payable": false,
      "stateMutability": "view",
      "type": "function"
    },
    {
      "constant": true,
      "inputs": [
        {
          "internalType": "address",
          "name": "",
          "type": "address"
        }
      ],
      "name": "compSpeeds",
      "outputs": [
        {
          "internalType": "uint256",
          "name": "",
          "type": "uint256"
        }
      ],
      "payable": false,
      "stateMutability": "view",
      "type": "function"
    },
    {
      "constant": true,
      "inputs": [
        {
          "internalType": "address",
          "name": "",
          "type": "address"
        },
        {
          "internalType": "address",
          "name": "",
          "type": "address"
        }
      ],
      "name": "compSupplierIndex",
      "outputs": [
        {
          "internalType": "uint256",
          "name": "",
          "type": "uint256"
        }
      ],
      "payable": false,
      "stateMutability": "view",
      "type": "function"
    },
    {
      "constant": true,
      "inputs": [
        {
          "internalType": "address",
          "name": "",
          "type": "address"
        }
      ],
      "name": "compSupplyState",
      "outputs": [
        {
          "internalType": "uint224",
          "name": "index",
          "type": "uint224"
        },
        {
          "internalType": "uint32",
          "name": "block",
          "type": "uint32"
        }
      ],
      "payable": false,
      "stateMutability": "view",
      "type": "function"
    },
    {
      "constant": true,
      "inputs": [],
      "name": "delegateFactoryAddress",
      "outputs": [
        {
          "internalType": "address",
          "name": "",
          "type": "address"
        }
      ],
      "payable": false,
      "stateMutability": "view",
      "type": "function"
    },
    {
      "constant": true,
      "inputs": [
        {
          "internalType": "address",
          "name": "token",
          "type": "address"
        }
      ],
      "name": "eTokenFromToken",
      "outputs": [
        {
          "internalType": "address",
          "name": "",
          "type": "address"
        }
      ],
      "payable": false,
      "stateMutability": "view",
      "type": "function"
    },
    {
      "constant": true,
      "inputs": [
        {
          "internalType": "address",
          "name": "",
          "type": "address"
        }
      ],
      "name": "eTokensMapping",
      "outputs": [
        {
          "internalType": "address",
          "name": "",
          "type": "address"
        }
      ],
      "payable": false,
      "stateMutability": "view",
      "type": "function"
    },
    {
      "constant": true,
      "inputs": [
        {
          "internalType": "address",
          "name": "account",
          "type": "address"
        }
      ],
      "name": "getAssetsIn",
      "outputs": [
        {
          "internalType": "contract CToken[]",
          "name": "",
          "type": "address[]"
        }
      ],
      "payable": false,
      "stateMutability": "view",
      "type": "function"
    },
    {
      "constant": true,
      "inputs": [],
      "name": "getBlockNumber",
      "outputs": [
        {
          "internalType": "uint256",
          "name": "",
          "type": "uint256"
        }
      ],
      "payable": false,
      "stateMutability": "view",
      "type": "function"
    },
    {
      "constant": true,
      "inputs": [],
      "name": "getCompAddress",
      "outputs": [
        {
          "internalType": "address",
          "name": "",
          "type": "address"
        }
      ],
      "payable": false,
      "stateMutability": "view",
      "type": "function"
    },
    {
      "constant": true,
      "inputs": [
        {
          "internalType": "uint256",
          "name": "",
          "type": "uint256"
        }
      ],
      "name": "implementsMapping",
      "outputs": [
        {
          "internalType": "address",
          "name": "",
          "type": "address"
        }
      ],
      "payable": false,
      "stateMutability": "view",
      "type": "function"
    },
    {
      "constant": true,
      "inputs": [
        {
          "internalType": "address",
          "name": "cToken",
          "type": "address"
        }
      ],
      "name": "isCToken",
      "outputs": [
        {
          "internalType": "bool",
          "name": "",
          "type": "bool"
        }
      ],
      "payable": false,
      "stateMutability": "view",
      "type": "function"
    },
    {
      "constant": true,
      "inputs": [],
      "name": "isComptroller",
      "outputs": [
        {
          "internalType": "bool",
          "name": "",
          "type": "bool"
        }
      ],
      "payable": false,
      "stateMutability": "view",
      "type": "function"
    },
    {
      "constant": true,
      "inputs": [
        {
          "internalType": "address",
          "name": "eToken",
          "type": "address"
        }
      ],
      "name": "isLP",
      "outputs": [
        {
          "internalType": "bool",
          "name": "",
          "type": "bool"
        }
      ],
      "payable": false,
      "stateMutability": "view",
      "type": "function"
    },
    {
      "constant": true,
      "inputs": [],
      "name": "liquidationIncentiveMantissa",
      "outputs": [
        {
          "internalType": "uint256",
          "name": "",
          "type": "uint256"
        }
      ],
      "payable": false,
      "stateMutability": "view",
      "type": "function"
    },
    {
      "constant": true,
      "inputs": [
        {
          "internalType": "address",
          "name": "",
          "type": "address"
        }
      ],
      "name": "markets",
      "outputs": [
        {
          "internalType": "bool",
          "name": "isListed",
          "type": "bool"
        },
        {
          "internalType": "uint256",
          "name": "collateralFactorMantissa",
          "type": "uint256"
        },
        {
          "internalType": "bool",
          "name": "isComped",
          "type": "bool"
        },
        {
          "internalType": "uint256",
          "name": "borrowFactorMantissa",
          "type": "uint256"
        },
        {
          "internalType": "bool",
          "name": "isLPPool",
          "type": "bool"
        }
      ],
      "payable": false,
      "stateMutability": "view",
      "type": "function"
    },
    {
      "constant": true,
      "inputs": [],
      "name": "maxAssets",
      "outputs": [
        {
          "internalType": "uint256",
          "name": "",
          "type": "uint256"
        }
      ],
      "payable": false,
      "stateMutability": "view",
      "type": "function"
    },
    {
      "constant": true,
      "inputs": [
        {
          "internalType": "bytes",
          "name": "",
          "type": "bytes"
        }
      ],
      "name": "methodImplements",
      "outputs": [
        {
          "internalType": "uint256",
          "name": "",
          "type": "uint256"
        }
      ],
      "payable": false,
      "stateMutability": "view",
      "type": "function"
    },
    {
      "constant": true,
      "inputs": [
        {
          "internalType": "address",
          "name": "",
          "type": "address"
        }
      ],
      "name": "mintGuardianPaused",
      "outputs": [
        {
          "internalType": "bool",
          "name": "",
          "type": "bool"
        }
      ],
      "payable": false,
      "stateMutability": "view",
      "type": "function"
    },
    {
      "constant": true,
      "inputs": [],
      "name": "oracle",
      "outputs": [
        {
          "internalType": "contract PriceOracle",
          "name": "",
          "type": "address"
        }
      ],
      "payable": false,
      "stateMutability": "view",
      "type": "function"
    },
    {
      "constant": true,
      "inputs": [],
      "name": "pauseGuardian",
      "outputs": [
        {
          "internalType": "address",
          "name": "",
          "type": "address"
        }
      ],
      "payable": false,
      "stateMutability": "view",
      "type": "function"
    },
    {
      "constant": true,
      "inputs": [],
      "name": "pendingAdmin",
      "outputs": [
        {
          "internalType": "address",
          "name": "",
          "type": "address"
        }
      ],
      "payable": false,
      "stateMutability": "view",
      "type": "function"
    },
    {
      "constant": true,
      "inputs": [],
      "name": "pendingComptrollerImplementation",
      "outputs": [
        {
          "internalType": "address",
          "name": "",
          "type": "address"
        }
      ],
      "payable": false,
      "stateMutability": "view",
      "type": "function"
    },
    {
      "constant": true,
      "inputs": [
        {
          "internalType": "address",
          "name": "",
          "type": "address"
        }
      ],
      "name": "pledgeAmounts",
      "outputs": [
        {
          "internalType": "uint256",
          "name": "",
          "type": "uint256"
        }
      ],
      "payable": false,
      "stateMutability": "view",
      "type": "function"
    },
    {
      "constant": true,
      "inputs": [
        {
          "internalType": "address",
          "name": "",
          "type": "address"
        }
      ],
      "name": "pledgedMaxs",
      "outputs": [
        {
          "internalType": "uint256",
          "name": "",
          "type": "uint256"
        }
      ],
      "payable": false,
      "stateMutability": "view",
      "type": "function"
    },
    {
      "constant": true,
      "inputs": [],
      "name": "seizeGuardianPaused",
      "outputs": [
        {
          "internalType": "bool",
          "name": "",
          "type": "bool"
        }
      ],
      "payable": false,
      "stateMutability": "view",
      "type": "function"
    },
    {
      "constant": true,
      "inputs": [
        {
          "internalType": "address",
          "name": "eToken",
          "type": "address"
        }
      ],
      "name": "tokenFromEToken",
      "outputs": [
        {
          "internalType": "address",
          "name": "",
          "type": "address"
        }
      ],
      "payable": false,
      "stateMutability": "view",
      "type": "function"
    },
    {
      "constant": true,
      "inputs": [
        {
          "internalType": "address",
          "name": "",
          "type": "address"
        }
      ],
      "name": "tokensMapping",
      "outputs": [
        {
          "internalType": "address",
          "name": "",
          "type": "address"
        }
      ],
      "payable": false,
      "stateMutability": "view",
      "type": "function"
    },
    {
      "constant": true,
      "inputs": [],
      "name": "transferGuardianPaused",
      "outputs": [
        {
          "internalType": "bool",
          "name": "",
          "type": "bool"
        }
      ],
      "payable": false,
      "stateMutability": "view",
      "type": "function"
    }
  ],
  "bytecode": "0x608060405234801561001057600080fd5b5061149b806100206000396000f3fe608060405234801561001057600080fd5b506004361061029f5760003560e01c806387f7630311610167578063c1abfaa3116100ce578063dcfbc0c711610087578063dcfbc0c7146108a9578063e3635d33146108b1578063e6653f3d146108d7578063e8755446146108df578063f851a440146108e7578063fa001120146108ef5761029f565b8063c1abfaa3146107b0578063ca0af043146107de578063cc7ebdc41461080c578063d0b0630f14610832578063d7f4f30f1461084f578063dce154491461087d5761029f565b8063a2c7ca4d11610120578063a2c7ca4d146106d0578063a7f0e231146106d8578063aa900754146106fc578063abfceffc14610704578063ac0b0bb71461077a578063b21be7fd146107825761029f565b806387f763031461060f5780638c57804e146106175780638e8f294b1461063d578063929fe9a11461069257806394b2294b146106c05780639d1b5a0a146106c85761029f565b80634a5844321161020b57806372fdfcae116101c457806372fdfcae146104e7578063731f0c2b1461058d578063747026c9146105b35780637dc0d1d0146105bb5780637df0f767146105c35780638708ec63146105e95761029f565b80634a584432146104025780634ada90af1461042857806352d84d1e146104305780636b79c38d1461044d5780636d154ea51461049b5780636e294bd8146104c15761029f565b806327efe3cb1161025d57806327efe3cb146103525780632f52e5951461038057806331975b69146103a65780633c94786f146103cc5780633d70015a146103d457806342cbb15c146103fa5761029f565b80627e3dd2146102a45780631d7b33d7146102c057806321af4569146102f857806324a3d6221461031c57806326634e4c14610324578063267822471461034a575b600080fd5b6102ac610915565b604080519115158252519081900360200190f35b6102e6600480360360208110156102d657600080fd5b50356001600160a01b031661091a565b60408051918252519081900360200190f35b61030061092c565b604080516001600160a01b039092168252519081900360200190f35b61030061093b565b6102e66004803603602081101561033a57600080fd5b50356001600160a01b031661094a565b6103006109be565b61037e6004803603604081101561036857600080fd5b506001600160a01b0381351690602001356109cd565b005b6102ac6004803603602081101561039657600080fd5b50356001600160a01b0316610ad0565b610300600480360360208110156103bc57600080fd5b50356001600160a01b0316610b01565b6102ac610b1f565b610300600480360360208110156103ea57600080fd5b50356001600160a01b0316610b2f565b6102e6610b4a565b6102e66004803603602081101561041857600080fd5b50356001600160a01b0316610b4e565b6102e6610b60565b6103006004803603602081101561044657600080fd5b5035610b66565b6104736004803603602081101561046357600080fd5b50356001600160a01b0316610b8d565b604080516001600160e01b03909316835263ffffffff90911660208301528051918290030190f35b6102ac600480360360208110156104b157600080fd5b50356001600160a01b0316610bb7565b6102e6600480360360208110156104d757600080fd5b50356001600160a01b0316610bcc565b6102e6600480360360208110156104fd57600080fd5b81019060208101813564010000000081111561051857600080fd5b82018360208201111561052a57600080fd5b8035906020019184600183028401116401000000008311171561054c57600080fd5b91908080601f016020809104026020016040519081016040528093929190818152602001838380828437600092019190915250929550610bde945050505050565b6102ac600480360360208110156105a357600080fd5b50356001600160a01b0316610bfb565b6102e6610c10565b610300610c1b565b6102ac600480360360208110156105d957600080fd5b50356001600160a01b0316610c2a565b610300600480360360208110156105ff57600080fd5b50356001600160a01b0316610c4b565b6102ac610c69565b6104736004803603602081101561062d57600080fd5b50356001600160a01b0316610c79565b6106636004803603602081101561065357600080fd5b50356001600160a01b0316610ca3565b604080519515158652602086019490945291151584840152606084015215156080830152519081900360a00190f35b6102ac600480360360408110156106a857600080fd5b506001600160a01b0381358116916020013516610cd9565b6102e6610d0d565b610300610d13565b610300610d2b565b6106e0610d3a565b604080516001600160e01b039092168252519081900360200190f35b6102e6610d4d565b61072a6004803603602081101561071a57600080fd5b50356001600160a01b0316610d53565b60408051602080825283518183015283519192839290830191858101910280838360005b8381101561076657818101518382015260200161074e565b505050509050019250505060405180910390f35b6102ac610ddc565b6102e66004803603604081101561079857600080fd5b506001600160a01b0381358116916020013516610dec565b6102e6600480360360408110156107c657600080fd5b506001600160a01b0381358116916020013516610e09565b6102e6600480360360408110156107f457600080fd5b506001600160a01b0381358116916020013516611073565b6102e66004803603602081101561082257600080fd5b50356001600160a01b0316611090565b6103006004803603602081101561084857600080fd5b50356110a2565b6102e66004803603604081101561086557600080fd5b506001600160a01b03813516906020013515156110bd565b6103006004803603604081101561089357600080fd5b506001600160a01b038135169060200135611142565b610300611177565b6102e6600480360360208110156108c757600080fd5b50356001600160a01b0316611186565b6102ac611198565b6102e66111a8565b6103006111ae565b6103006004803603602081101561090557600080fd5b50356001600160a01b03166111bd565b600181565b60136020526000908152604090205481565b6019546001600160a01b031681565b600e546001600160a01b031681565b600080546001600160a01b03163314610999576040805162461bcd60e51b815260206004820152600c60248201526b15539055551213d49256915160a21b604482015290519081900360640190fd5b600180546001600160a01b0319166001600160a01b038416179055600090505b919050565b6002546001600160a01b031681565b6109d56111d8565b610a26576040805162461bcd60e51b815260206004820152601860248201527f6f6e6c792061646d696e2063616e206772616e74204c48420000000000000000604482015290519081900360640190fd5b6000610a3283836111e9565b90508015610a87576040805162461bcd60e51b815260206004820152601a60248201527f696e73756666696369656e74204c484220666f72206772616e74000000000000604482015290519081900360640190fd5b604080516001600160a01b03851681526020810184905281517f98b2f82a3a07f223a0be64b3d0f47711c64dccd1feafb94aa28156b38cd9695c929181900390910190a1505050565b6001600160a01b0381166000908152600b602052604081205460ff1615610af9575060016109b9565b506000919050565b6001600160a01b039081166000908152600d60205260409020541690565b600e54600160a01b900460ff1681565b600d602052600090815260409020546001600160a01b031681565b4390565b601a6020526000908152604090205481565b60085481565b60118181548110610b7357fe5b6000918252602090912001546001600160a01b0316905081565b6014602052600090815260409020546001600160e01b03811690600160e01b900463ffffffff1682565b60106020526000908152604090205460ff1681565b601b6020526000908152604090205481565b805160208183018101805160048252928201919093012091525481565b600f6020526000908152604090205460ff1681565b66038d7ea4c6800081565b6006546001600160a01b031681565b6001600160a01b03166000908152600b602052604090206005015460ff1690565b6001600160a01b039081166000908152600c60205260409020541690565b600e54600160b01b900460ff1681565b6015602052600090815260409020546001600160e01b03811690600160e01b900463ffffffff1682565b600b602052600090815260409020805460018201546003830154600484015460059094015460ff93841694929391821692911685565b6001600160a01b038082166000908152600b60209081526040808320938616835260029093019052205460ff165b92915050565b60095481565b738f67854497218043e1f72908ffe38d0ed7f2472190565b6001546001600160a01b031681565b6ec097ce7bc90715b34b9f100000000081565b60125481565b606080600a6000846001600160a01b03166001600160a01b03168152602001908152602001600020805480602002602001604051908101604052809291908181526020018280548015610dcf57602002820191906000526020600020905b81546001600160a01b03168152600190910190602001808311610db1575b5093979650505050505050565b600e54600160b81b900460ff1681565b601660209081526000928352604080842090915290825290205481565b600080546001600160a01b03163314801590610e3057506001546001600160a01b03163314155b15610e4857610e416001601a611316565b9050610d07565b6001600160a01b0382166000908152600b602052604090205460ff1615610e7557610e41600b6019611316565b6000829050806001600160a01b031663fe9c44ae6040518163ffffffff1660e01b815260040160206040518083038186803b158015610eb357600080fd5b505afa158015610ec7573d6000803e3d6000fd5b505050506040513d6020811015610edd57600080fd5b5051610f23576040805162461bcd60e51b815260206004820152601060248201526f34ba39903737ba10309021aa37b5b2b760811b604482015290519081900360640190fd5b6001600160a01b038481166000908152600d60205260409020541615610f90576040805162461bcd60e51b815260206004820152601d60248201527f5468697320746f6b656e20686164206265656e20737570706f72746564000000604482015290519081900360640190fd5b6040805160a081018252600180825260006020808401828152848601838152670de0b6b3a764000060608701908152608087018581526001600160a01b038a168652600b909452969093209451855490151560ff199182161786559051938501939093559051600384018054911515918416919091179055925160048301559151600590910180549115159190921617905561102c8482611383565b604080516001600160a01b038316815290517fcf583bb0c569eb967f806b11601c4cb93c10310485c67add5f8362c2f212321f9181900360200190a160005b949350505050565b601760209081526000928352604080842090915290825290205481565b60186020526000908152604090205481565b6005602052600090815260409020546001600160a01b031681565b600080546001600160a01b031633148015906110e457506001546001600160a01b03163314155b156110f557610e416001601a611316565b6001600160a01b0383166000908152600b60205260409020805460ff161561112b57611123600b6019611316565b915050610d07565b60058101805460ff1916841515179055600061106b565b600a602052816000526040600020818154811061115b57fe5b6000918252602090912001546001600160a01b03169150829050565b6003546001600160a01b031681565b601c6020526000908152604090205481565b600e54600160a81b900460ff1681565b60075481565b6000546001600160a01b031681565b600c602052600090815260409020546001600160a01b031681565b6000546001600160a01b0316331490565b6000806111f4610d13565b604080516370a0823160e01b815230600482015290519192506000916001600160a01b038416916370a08231916024808301926020929190829003018186803b15801561124057600080fd5b505afa158015611254573d6000803e3d6000fd5b505050506040513d602081101561126a57600080fd5b5051905080841161130d57816001600160a01b031663a9059cbb86866040518363ffffffff1660e01b815260040180836001600160a01b03166001600160a01b0316815260200182815260200192505050602060405180830381600087803b1580156112d557600080fd5b505af11580156112e9573d6000803e3d6000fd5b505050506040513d60208110156112ff57600080fd5b5060009350610d0792505050565b50919392505050565b60007f45b96fe442630264581b197e84bbada861235052c5a1aadfff9ea4e40a969aa083601381111561134557fe5b83601b81111561135157fe5b604080519283526020830191909152600082820152519081900360600190a182601381111561137c57fe5b9392505050565b6001600160a01b038181166000908152600c602052604090205416156113e7576040805162461bcd60e51b81526020600482015260146024820152731b585c9ad95d08185b1c9958591e48185919195960621b604482015290519081900360640190fd5b6001600160a01b039182166000818152600d602090815260408083208054969095166001600160a01b03199687168117909555848352600c9091528120805485169092179091556011805460018101825591527f31ecc21a745e3968a04e9570e4425bc18fa8019c68028196b546d1669c200c6801805490921617905556fea265627a7a72315820aeeb9186a36219b17144dcd004e64fc347fce447de04d7f1beedf21462f7946c64736f6c63430005100032",
  "linkReferences": {},
  "deployedLinkReferences": {}
}