{
  "_format": "hh-sol-artifact-1",
  "contractName": "SwapFlag",
  "sourceName": "contracts/swap/aggressive2/library/SwapFlag.sol",
  "abi": [
    {
      "inputs": [],
      "name": "FLAG_TOKEN_CTOKEN",
      "outputs": [
        {
          "internalType": "uint256",
          "name": "",
          "type": "uint256"
        }
      ],
      "stateMutability": "view",
      "type": "function"
    },
    {
      "inputs": [],
      "name": "FLAG_TOKEN_IN_ETH",
      "outputs": [
        {
          "internalType": "uint256",
          "name": "",
          "type": "uint256"
        }
      ],
      "stateMutability": "view",
      "type": "function"
    },
    {
      "inputs": [],
      "name": "FLAG_TOKEN_OUT_ETH",
      "outputs": [
        {
          "internalType": "uint256",
          "name": "",
          "type": "uint256"
        }
      ],
      "stateMutability": "view",
      "type": "function"
    },
    {
      "inputs": [],
      "name": "FLAG_TOKEN_TOKEN",
      "outputs": [
        {
          "internalType": "uint256",
          "name": "",
          "type": "uint256"
        }
      ],
      "stateMutability": "view",
      "type": "function"
    },
    {
      "inputs": [
        {
          "components": [
            {
              "internalType": "uint256",
              "name": "data",
              "type": "uint256"
            }
          ],
          "internalType": "struct DataTypes.SwapFlagMap",
          "name": "self",
          "type": "tuple"
        }
      ],
      "name": "allowPartialFill",
      "outputs": [
        {
          "internalType": "bool",
          "name": "",
          "type": "bool"
        }
      ],
      "stateMutability": "pure",
      "type": "function"
    },
    {
      "inputs": [
        {
          "components": [
            {
              "internalType": "uint256",
              "name": "data",
              "type": "uint256"
            }
          ],
          "internalType": "struct DataTypes.SwapFlagMap",
          "name": "self",
          "type": "tuple"
        }
      ],
      "name": "burnCHI",
      "outputs": [
        {
          "internalType": "bool",
          "name": "",
          "type": "bool"
        }
      ],
      "stateMutability": "pure",
      "type": "function"
    },
    {
      "inputs": [
        {
          "components": [
            {
              "internalType": "uint256",
              "name": "data",
              "type": "uint256"
            }
          ],
          "internalType": "struct DataTypes.SwapFlagMap",
          "name": "self",
          "type": "tuple"
        }
      ],
      "name": "getComplexLevel",
      "outputs": [
        {
          "internalType": "uint256",
          "name": "",
          "type": "uint256"
        }
      ],
      "stateMutability": "pure",
      "type": "function"
    },
    {
      "inputs": [
        {
          "components": [
            {
              "internalType": "uint256",
              "name": "data",
              "type": "uint256"
            }
          ],
          "internalType": "struct DataTypes.SwapFlagMap",
          "name": "self",
          "type": "tuple"
        }
      ],
      "name": "getMainRoutes",
      "outputs": [
        {
          "internalType": "uint256",
          "name": "",
          "type": "uint256"
        }
      ],
      "stateMutability": "pure",
      "type": "function"
    },
    {
      "inputs": [
        {
          "components": [
            {
              "internalType": "uint256",
              "name": "data",
              "type": "uint256"
            }
          ],
          "internalType": "struct DataTypes.SwapFlagMap",
          "name": "self",
          "type": "tuple"
        }
      ],
      "name": "getParts",
      "outputs": [
        {
          "internalType": "uint256",
          "name": "",
          "type": "uint256"
        }
      ],
      "stateMutability": "pure",
      "type": "function"
    },
    {
      "inputs": [
        {
          "components": [
            {
              "internalType": "uint256",
              "name": "data",
              "type": "uint256"
            }
          ],
          "internalType": "struct DataTypes.SwapFlagMap",
          "name": "self",
          "type": "tuple"
        }
      ],
      "name": "tokenInIsETH",
      "outputs": [
        {
          "internalType": "bool",
          "name": "",
          "type": "bool"
        }
      ],
      "stateMutability": "pure",
      "type": "function"
    },
    {
      "inputs": [
        {
          "components": [
            {
              "internalType": "uint256",
              "name": "data",
              "type": "uint256"
            }
          ],
          "internalType": "struct DataTypes.SwapFlagMap",
          "name": "self",
          "type": "tuple"
        }
      ],
      "name": "tokenIsCToken",
      "outputs": [
        {
          "internalType": "bool",
          "name": "",
          "type": "bool"
        }
      ],
      "stateMutability": "pure",
      "type": "function"
    },
    {
      "inputs": [
        {
          "internalType": "uint256",
          "name": "flag",
          "type": "uint256"
        }
      ],
      "name": "tokenIsToken",
      "outputs": [
        {
          "internalType": "bool",
          "name": "",
          "type": "bool"
        }
      ],
      "stateMutability": "pure",
      "type": "function"
    },
    {
      "inputs": [
        {
          "components": [
            {
              "internalType": "uint256",
              "name": "data",
              "type": "uint256"
            }
          ],
          "internalType": "struct DataTypes.SwapFlagMap",
          "name": "self",
          "type": "tuple"
        }
      ],
      "name": "tokenIsToken",
      "outputs": [
        {
          "internalType": "bool",
          "name": "",
          "type": "bool"
        }
      ],
      "stateMutability": "pure",
      "type": "function"
    },
    {
      "inputs": [
        {
          "components": [
            {
              "internalType": "uint256",
              "name": "data",
              "type": "uint256"
            }
          ],
          "internalType": "struct DataTypes.SwapFlagMap",
          "name": "self",
          "type": "tuple"
        }
      ],
      "name": "tokenOutIsETH",
      "outputs": [
        {
          "internalType": "bool",
          "name": "",
          "type": "bool"
        }
      ],
      "stateMutability": "pure",
      "type": "function"
    }
  ],
  "bytecode": "0x610323610026600b82828239805160001a60731461001957fe5b30600052607381538281f3fe73000000000000000000000000000000000000000030146080604052600436106100f45760003560e01c80636fa12665116100965780638f861f7b116100705780638f861f7b146101b9578063ad81031f146101c1578063d000d182146101d4578063d28e79c5146101e7576100f4565b80636fa12665146101805780637ecd24881461019357806382417abe146101a6576100f4565b80632e6d07e2116100d25780632e6d07e21461014a57806347c077ff14610152578063587f2107146101655780636f3961fe1461016d576100f4565b8063115ed913146100f957806312fc4c2d146101175780631b49f21e14610137575b600080fd5b6101016101fa565b60405161010e91906102e4565b60405180910390f35b61012a610125366004610284565b610200565b60405161010e91906102d9565b610101610145366004610284565b610213565b61010161021d565b61012a610160366004610284565b610223565b610101610236565b61012a61017b3660046102c1565b61023c565b61010161018e366004610284565b610245565b61012a6101a1366004610284565b61024f565b61012a6101b4366004610284565b610259565b610101610263565b61012a6101cf366004610284565b610269565b6101016101e2366004610284565b610273565b61012a6101f5366004610284565b61027a565b61080081565b516a040000000000000000000016151590565b5160481c60ff1690565b61020081565b516a080000000000000000000016151590565b61040081565b61020016151590565b5160501c60031690565b5161010016151590565b5161020016151590565b61010081565b5161040016151590565b5160ff1690565b5161080016151590565b600060208284031215610295578081fd5b6040516020810181811067ffffffffffffffff821117156102b4578283fd5b6040529135825250919050565b6000602082840312156102d2578081fd5b5035919050565b901515815260200190565b9081526020019056fea2646970667358221220752cd5ee5886464e17755447846030c312f7baf0cee67a3728bcd10d1ac03ccf64736f6c634300060c0033",
  "linkReferences": {},
  "deployedLinkReferences": {}
}