{
  "_format": "hh-sol-artifact-1",
  "contractName": "OneSplit",
  "sourceName": "contracts/swap/aggressive/OneSpilt.sol",
  "abi": [
    {
      "inputs": [
        {
          "internalType": "address",
          "name": "_weth",
          "type": "address"
        },
        {
          "internalType": "address",
          "name": "_ctokenFactory",
          "type": "address"
        }
      ],
      "stateMutability": "nonpayable",
      "type": "constructor"
    },
    {
      "anonymous": false,
      "inputs": [
        {
          "indexed": true,
          "internalType": "address",
          "name": "previousOwner",
          "type": "address"
        },
        {
          "indexed": true,
          "internalType": "address",
          "name": "newOwner",
          "type": "address"
        }
      ],
      "name": "OwnershipTransferred",
      "type": "event"
    },
    {
      "inputs": [],
      "name": "FLAG_SWAP_DIRECT",
      "outputs": [
        {
          "internalType": "uint256",
          "name": "",
          "type": "uint256"
        }
      ],
      "stateMutability": "view",
      "type": "function"
    },
    {
      "inputs": [],
      "name": "FLAG_SWAP_ROUTER",
      "outputs": [
        {
          "internalType": "uint256",
          "name": "",
          "type": "uint256"
        }
      ],
      "stateMutability": "view",
      "type": "function"
    },
    {
      "inputs": [
        {
          "internalType": "address",
          "name": "_router",
          "type": "address"
        },
        {
          "internalType": "address",
          "name": "_ctokenFactory",
          "type": "address"
        },
        {
          "internalType": "uint256",
          "name": "_flag",
          "type": "uint256"
        }
      ],
      "name": "addCompoundSwap",
      "outputs": [],
      "stateMutability": "nonpayable",
      "type": "function"
    },
    {
      "inputs": [
        {
          "internalType": "address",
          "name": "_pool",
          "type": "address"
        },
        {
          "internalType": "uint256",
          "name": "_flag",
          "type": "uint256"
        }
      ],
      "name": "addCurveSwap",
      "outputs": [],
      "stateMutability": "nonpayable",
      "type": "function"
    },
    {
      "inputs": [
        {
          "internalType": "address",
          "name": "_router",
          "type": "address"
        },
        {
          "internalType": "uint256",
          "name": "_flag",
          "type": "uint256"
        }
      ],
      "name": "addUniswap",
      "outputs": [],
      "stateMutability": "nonpayable",
      "type": "function"
    },
    {
      "inputs": [],
      "name": "ctokenFactory",
      "outputs": [
        {
          "internalType": "address",
          "name": "",
          "type": "address"
        }
      ],
      "stateMutability": "view",
      "type": "function"
    },
    {
      "inputs": [
        {
          "components": [
            {
              "internalType": "contract IERC20",
              "name": "fromToken",
              "type": "address"
            },
            {
              "internalType": "contract IERC20",
              "name": "destToken",
              "type": "address"
            },
            {
              "internalType": "contract IERC20[]",
              "name": "midTokens",
              "type": "address[]"
            },
            {
              "internalType": "uint256",
              "name": "amount",
              "type": "uint256"
            },
            {
              "internalType": "uint256",
              "name": "parts",
              "type": "uint256"
            },
            {
              "internalType": "uint256",
              "name": "flags",
              "type": "uint256"
            },
            {
              "internalType": "uint256",
              "name": "slip",
              "type": "uint256"
            },
            {
              "internalType": "uint256",
              "name": "destTokenEthPriceTimesGasPrice",
              "type": "uint256"
            }
          ],
          "internalType": "struct OneSplit.Args",
          "name": "args",
          "type": "tuple"
        }
      ],
      "name": "getExpectedReturnWithGas",
      "outputs": [
        {
          "internalType": "uint256",
          "name": "returnAmount",
          "type": "uint256"
        },
        {
          "internalType": "uint256",
          "name": "estimateGasAmount",
          "type": "uint256"
        },
        {
          "internalType": "uint256[]",
          "name": "distribution",
          "type": "uint256[]"
        },
        {
          "internalType": "bytes",
          "name": "data",
          "type": "bytes"
        }
      ],
      "stateMutability": "view",
      "type": "function"
    },
    {
      "inputs": [],
      "name": "owner",
      "outputs": [
        {
          "internalType": "address",
          "name": "",
          "type": "address"
        }
      ],
      "stateMutability": "view",
      "type": "function"
    },
    {
      "inputs": [],
      "name": "renounceOwnership",
      "outputs": [],
      "stateMutability": "nonpayable",
      "type": "function"
    },
    {
      "inputs": [],
      "name": "resetSwaps",
      "outputs": [],
      "stateMutability": "nonpayable",
      "type": "function"
    },
    {
      "inputs": [
        {
          "internalType": "uint256",
          "name": "",
          "type": "uint256"
        }
      ],
      "name": "swaps",
      "outputs": [
        {
          "internalType": "address",
          "name": "router",
          "type": "address"
        },
        {
          "internalType": "uint256",
          "name": "flag",
          "type": "uint256"
        }
      ],
      "stateMutability": "view",
      "type": "function"
    },
    {
      "inputs": [
        {
          "internalType": "address",
          "name": "newOwner",
          "type": "address"
        }
      ],
      "name": "transferOwnership",
      "outputs": [],
      "stateMutability": "nonpayable",
      "type": "function"
    },
    {
      "inputs": [],
      "name": "weth",
      "outputs": [
        {
          "internalType": "contract IWETH",
          "name": "",
          "type": "address"
        }
      ],
      "stateMutability": "view",
      "type": "function"
    }
  ],
  "bytecode": "0x60806040523480156200001157600080fd5b50604051620036c5380380620036c58339810160408190526200003491620000c0565b600062000040620000bc565b600080546001600160a01b0319166001600160a01b0383169081178255604051929350917f8be0079c531659141344cd1fd0a4f28419497f9722a3daafe3b4186f6b6457e0908290a350600180546001600160a01b039384166001600160a01b0319918216179091556002805492909316911617905562000117565b3390565b60008060408385031215620000d3578182fd5b8251620000e081620000fe565b6020840151909250620000f381620000fe565b809150509250929050565b6001600160a01b03811681146200011457600080fd5b50565b61359e80620001276000396000f3fe608060405234801561001057600080fd5b50600436106100df5760003560e01c80639235aebb1161008c578063c7a8281111610066578063c7a8281114610182578063f09c58291461018a578063f2fde38b146101ab578063fd3eb91b146101be576100df565b80639235aebb14610144578063a6260e811461014c578063ba6c1d341461016f576100df565b8063715018a6116100bd578063715018a61461011f578063757607f8146101275780638da5cb5b1461013c576100df565b806325c9e276146100e45780633fc8cef3146101025780636382a58a1461010a575b600080fd5b6100ec6101d1565b6040516100f99190613129565b60405180910390f35b6100ec6101e0565b61011d610118366004612ef9565b6101ef565b005b61011d6102f2565b61012f61037b565b6040516100f99190613497565b6100ec610383565b61011d610392565b61015f61015a366004612f24565b610422565b6040516100f994939291906134a0565b61011d61017d366004612eb9565b6107b2565b61012f6108b1565b61019d610198366004612fec565b6108b9565b6040516100f992919061313d565b61011d6101b9366004612e81565b6108ee565b61011d6101cc366004612ef9565b6109ae565b6002546001600160a01b031681565b6001546001600160a01b031681565b6101f7610a82565b6001600160a01b0316610208610383565b6001600160a01b0316146102375760405162461bcd60e51b815260040161022e9061338b565b60405180910390fd5b604080518082019091526001600160a01b0392831681527f100000000000000000000000000000000000000000000000000000000000000091909117602082019081526003805460018101825560009190915291517fc2575a0e9e593c00f959f8c92f12db2869c3395a3b0502d05e2516446f71f85b600290930292830180546001600160a01b031916919094161790925590517fc2575a0e9e593c00f959f8c92f12db2869c3395a3b0502d05e2516446f71f85c90910155565b6102fa610a82565b6001600160a01b031661030b610383565b6001600160a01b0316146103315760405162461bcd60e51b815260040161022e9061338b565b600080546040516001600160a01b03909116907f8be0079c531659141344cd1fd0a4f28419497f9722a3daafe3b4186f6b6457e0908390a3600080546001600160a01b0319169055565b600160f91b81565b6000546001600160a01b031690565b61039a610a82565b6001600160a01b03166103ab610383565b6001600160a01b0316146103d15760405162461bcd60e51b815260040161022e9061338b565b60035460005b8181101561041e5760038054806103ea57fe5b60008281526020812060026000199093019283020180546001600160a01b03191681556001908101919091559155016103d7565b5050565b6000806060806000600380549050866040015151600101029050606061045087606001518860800151610a86565b905060608267ffffffffffffffff8111801561046b57600080fd5b5060405190808252806020026020018201604052801561049f57816020015b606081526020019060019003908161048a5790505b50905060608367ffffffffffffffff811180156104bb57600080fd5b506040519080825280602002602001820160405280156104e5578160200160208202803683370190505b5060408051808201909152601981527f6265666f7265205f676574466163746f7279526573756c747300000000000000602082015260035491925061052991610b14565b610531612d17565b89516001600160a01b039081166020808401919091528b01511660608201526080810184905260e08a015160c08201526000805b600354811015610718576105d56040518060400160405280600f81526020017f7377615b25645d2e726f757465723a000000000000000000000000000000000081525082600384815481106105b657fe5b60009182526020909120600290910201546001600160a01b0316610b72565b600381815481106105e257fe5b600091825260209182902060029091020154604080517fc45a015500000000000000000000000000000000000000000000000000000000815290516001600160a01b039092169263c45a015592600480840193829003018186803b15801561064957600080fd5b505afa15801561065d573d6000803e3d6000fd5b505050506040513d601f19601f820116820180604052508101906106819190612e9d565b6001600160a01b0316835260408051808201909152600781527f666163746f727900000000000000000000000000000000000000000000000000602082015283516106cc9190610bd7565b600381815481106106d957fe5b9060005260206000209060020201600101548360a0018181525050610705838d60400151878786610c35565b60408c0151516001920182019101610565565b5050506107606040518060400160405280601d81526020017f6265666f7265205f66696e6442657374446973747269627574696f6e3a0000008152508a608001518451610f0b565b61076e896080015183610f6b565b905080965050610795604051806060016040528060258152602001613544602591396114d2565b6107a189878484611531565b919b909a5096985096505050505050565b6107ba610a82565b6001600160a01b03166107cb610383565b6001600160a01b0316146107f15760405162461bcd60e51b815260040161022e9061338b565b604080518082019091526001600160a01b039384168152918316177f0a00000000000000000000000000000000000000000000000000000000000000176020820190815260038054600181018255600091909152915160029092027fc2575a0e9e593c00f959f8c92f12db2869c3395a3b0502d05e2516446f71f85b81018054939094166001600160a01b03199093169290921790925590517fc2575a0e9e593c00f959f8c92f12db2869c3395a3b0502d05e2516446f71f85c90910155565b600160fa1b81565b600381815481106108c657fe5b6000918252602090912060029091020180546001909101546001600160a01b03909116915082565b6108f6610a82565b6001600160a01b0316610907610383565b6001600160a01b03161461092d5760405162461bcd60e51b815260040161022e9061338b565b6001600160a01b0381166109535760405162461bcd60e51b815260040161022e90613263565b600080546040516001600160a01b03808516939216917f8be0079c531659141344cd1fd0a4f28419497f9722a3daafe3b4186f6b6457e091a3600080546001600160a01b0319166001600160a01b0392909216919091179055565b6109b6610a82565b6001600160a01b03166109c7610383565b6001600160a01b0316146109ed5760405162461bcd60e51b815260040161022e9061338b565b604080518082019091526001600160a01b039283168152602081019182526003805460018101825560009190915290517fc2575a0e9e593c00f959f8c92f12db2869c3395a3b0502d05e2516446f71f85b600290920291820180546001600160a01b0319169190941617909255517fc2575a0e9e593c00f959f8c92f12db2869c3395a3b0502d05e2516446f71f85c90910155565b3390565b60608167ffffffffffffffff81118015610a9f57600080fd5b50604051908082528060200260200182016040528015610ac9578160200160208202803683370190505b50905060005b82811015610b0d57610aee83610ae88660018501611abc565b90611aff565b828281518110610afa57fe5b6020908102919091010152600101610acf565b5092915050565b61041e8282604051602401610b2a9291906131ea565b60408051601f198184030181529190526020810180516001600160e01b03167f9710a9d000000000000000000000000000000000000000000000000000000000179052611b41565b610bd2838383604051602401610b8a9392919061320c565b60408051601f198184030181529190526020810180516001600160e01b03167fe3849f7900000000000000000000000000000000000000000000000000000000179052611b41565b505050565b61041e8282604051602401610bed929190613183565b60408051601f198184030181529190526020810180516001600160e01b03167f319af33300000000000000000000000000000000000000000000000000000000179052611b41565b600060606000610c4488611b62565b9150915080858581518110610c5557fe5b602002602001018181525050610c84670de0b6b3a7640000610ae88a60c0015184611abc90919063ffffffff16565b9050815160010167ffffffffffffffff81118015610ca157600080fd5b50604051908082528060200260200182016040528015610ccb578160200160208202803683370190505b50868581518110610cd857fe5b602002602001018190525060005b8251811015610d725781838281518110610cfc57fe5b602002602001015103878681518110610d1157fe5b60200260200101518260010181518110610d2757fe5b6020026020010181815250508380610d6857506000878681518110610d4857fe5b60200260200101518260010181518110610d5e57fe5b6020026020010151135b9350600101610ce6565b5060019093019260005b8751811015610ef257878181518110610d9157fe5b60209081029190910101516001600160a01b031660408a0152610db389611e95565b809350819450505081868681518110610dc857fe5b602002602001018181525050610df7670de0b6b3a7640000610ae88b60c0015185611abc90919063ffffffff16565b9150825160010167ffffffffffffffff81118015610e1457600080fd5b50604051908082528060200260200182016040528015610e3e578160200160208202803683370190505b50878681518110610e4b57fe5b602002602001018190525060005b8351811015610ee55782848281518110610e6f57fe5b602002602001015103888781518110610e8457fe5b60200260200101518260010181518110610e9a57fe5b6020026020010181815250508480610edb57506000888781518110610ebb57fe5b60200260200101518260010181518110610ed157fe5b6020026020010151135b9450600101610e59565b5060019485019401610d7c565b508215610f0157600160e08901525b5050505050505050565b610bd2838383604051602401610f239392919061323e565b60408051601f198184030181529190526020810180516001600160e01b03167f969cdd0300000000000000000000000000000000000000000000000000000000179052611b41565b8051600090606090818167ffffffffffffffff81118015610f8b57600080fd5b50604051908082528060200260200182016040528015610fbf57816020015b6060815260200190600190039081610faa5790505b50905060608267ffffffffffffffff81118015610fdb57600080fd5b5060405190808252806020026020018201604052801561100f57816020015b6060815260200190600190039081610ffa5790505b50905060005b838110156110dd578760010167ffffffffffffffff8111801561103757600080fd5b50604051908082528060200260200182016040528015611061578160200160208202803683370190505b5083828151811061106e57fe5b60200260200101819052508760010167ffffffffffffffff8111801561109357600080fd5b506040519080825280602002602001820160405280156110bd578160200160208202803683370190505b508282815181106110ca57fe5b6020908102919091010152600101611015565b5060005b8781116111b057866000815181106110f557fe5b6020026020010151818151811061110857fe5b60200260200101518360008151811061111d57fe5b6020026020010151828151811061113057fe5b602090810291909101015260015b8481101561117a57600084828151811061115457fe5b6020026020010151838151811061116757fe5b602090810291909101015260010161113e565b5060008260008151811061118a57fe5b6020026020010151828151811061119d57fe5b60209081029190910101526001016110e1565b5060015b838110156113995760005b888111611390578360018303815181106111d557fe5b602002602001015181815181106111e857fe5b60200260200101518483815181106111fc57fe5b6020026020010151828151811061120f57fe5b6020026020010181815250508083838151811061122857fe5b6020026020010151828151811061123b57fe5b602090810291909101015260015b8181116113875784838151811061125c57fe5b6020026020010151828151811061126f57fe5b602002602001015189848151811061128357fe5b6020026020010151828151811061129657fe5b60200260200101518660018603815181106112ad57fe5b6020026020010151838503815181106112c257fe5b602002602001015101131561137f578883815181106112dd57fe5b602002602001015181815181106112f057fe5b602002602001015185600185038151811061130757fe5b60200260200101518284038151811061131c57fe5b60200260200101510185848151811061133157fe5b6020026020010151838151811061134457fe5b60200260200101818152505080820384848151811061135f57fe5b6020026020010151838151811061137257fe5b6020026020010181815250505b600101611249565b506001016111bf565b506001016111b4565b508267ffffffffffffffff811180156113b157600080fd5b506040519080825280602002602001820160405280156113db578160200160208202803683370190505b5093508660001984015b8115611461578281815181106113f757fe5b6020026020010151828151811061140a57fe5b6020026020010151820386828151811061142057fe5b60200260200101818152505082818151811061143857fe5b6020026020010151828151811061144b57fe5b60209081029190910101519150600019016113e5565b5082600185038151811061147157fe5b6020026020010151888151811061148457fe5b60200260200101516000146114c2578260018503815181106114a257fe5b602002602001015188815181106114b557fe5b60200260200101516114c5565b60005b9550505050509250929050565b61152e816040516024016114e69190613170565b60408051601f198184030181529190526020810180516001600160e01b03167f41304fac00000000000000000000000000000000000000000000000000000000179052611b41565b50565b600080606061153e612d5a565b60005b875181101561157a57600088828151811061155857fe5b602002602001015111156115725760408201805160010190525b600101611541565b5087516001600160a01b0390811682526020808a015190911690820152604081015167ffffffffffffffff811180156115b257600080fd5b506040519080825280602002602001820160405280156115dc578160200160208202803683370190505b506080820152604081015167ffffffffffffffff811180156115fd57600080fd5b50604051908082528060200260200182016040528015611627578160200160208202803683370190505b5060a0820152604081015167ffffffffffffffff8111801561164857600080fd5b50604051908082528060200260200182016040528015611672578160200160208202803683370190505b5060c0820152604081015167ffffffffffffffff8111801561169357600080fd5b506040519080825280602002602001820160405280156116bd578160200160208202803683370190505b5060e0820152604081015167ffffffffffffffff811180156116de57600080fd5b5060405190808252806020026020018201604052801561171257816020015b60608152602001906001900390816116fd5790505b50610100820152600080805b8951811015611a855760008a828151811061173557fe5b60200260200101511115611a7d5761176988828151811061175257fe5b602002602001015187611f2c90919063ffffffff16565b955060006117a3670de0b6b3a7640000610ae88e60e001518c868151811061178d57fe5b6020026020010151611abc90919063ffffffff16565b8a83815181106117af57fe5b60200260200101518c84815181106117c357fe5b6020026020010151815181106117d557fe5b60200260200101510190506117f38189611f2c90919063ffffffff16565b9750600185604001510383141561182c57838c60600151038560800151848151811061181b57fe5b60200260200101818152505061187b565b61185e8c60800151610ae88d858151811061184357fe5b60200260200101518f60600151611abc90919063ffffffff16565b8560800151848151811061186e57fe5b6020026020010181815250505b808560a00151848151811061188c57fe5b6020026020010181815250506118b9612710610ae88e60c001516127100384611abc90919063ffffffff16565b8560c0015184815181106118c957fe5b602002602001018181525050846080015183815181106118e557fe5b6020026020010151840193506118f9612db8565b60408d015151600101600381858161190d57fe5b048154811061191857fe5b60009182526020909120600290910201546001600160a01b03168252600381858161193f57fe5b048154811061194a57fe5b9060005260206000209060020201600101548e60a00151178260200181815250508d6000015182604001906001600160a01b031690816001600160a01b0316815250508d6020015182608001906001600160a01b031690816001600160a01b031681525050620f36888260a00181815250508084816119c557fe5b0615611a01578d6040015160018286816119db57fe5b0603815181106119e757fe5b60209081029190910101516001600160a01b031660608301525b611a0a82611f51565b8761010001518681518110611a1b57fe5b60200260200101819052506001600160a01b03196003828681611a3a57fe5b0481548110611a4557fe5b906000526020600020906002020160010154168760e001518681518110611a6857fe5b60209081029190910101525050600190920191505b60010161171e565b5060608301869052604051611a9e9084906020016133c0565b60405160208183030381529060405293505050509450945094915050565b600082611acb57506000611af9565b82820282848281611ad857fe5b0414611af65760405162461bcd60e51b815260040161022e9061332e565b90505b92915050565b6000611af683836040518060400160405280601a81526020017f536166654d6174683a206469766973696f6e206279207a65726f0000000000008152506125f6565b80516a636f6e736f6c652e6c6f67602083016000808483855afa5050505050565b60606000807f08000000000000000000000000000000000000000000000000000000000000008460a001511660001415905060008085608001515167ffffffffffffffff81118015611bb357600080fd5b50604051908082528060200260200182016040528015611bdd578160200160208202803683370190505b5094506000611bf887602001516001600160a01b031661262f565b611c06578660200151611c13565b6001546001600160a01b03165b90506000611c2d88606001516001600160a01b031661262f565b611c3b578760600151611c48565b6001546001600160a01b03165b90508415611d015760a08801516001600160a01b0316611c688184612668565b9250611c748183612668565b91506001600160a01b0383161580611c9357506001600160a01b038216155b15611ca9575061c3509550611e90945050505050565b611cb283612701565b9450611cbd82612701565b9350611cff6040518060400160405280601681526020017f636f6d706f756e642065786368616e6765207261743a000000000000000000008152508686610f0b565b505b87516040517fe6a439050000000000000000000000000000000000000000000000000000000081526000916001600160a01b03169063e6a4390590611d4c9086908690600401613156565b60206040518083038186803b158015611d6457600080fd5b505afa158015611d78573d6000803e3d6000fd5b505050506040513d601f19601f82011682018060405250810190611d9c9190612e9d565b90506001600160a01b03811615611e89576000611dc26001600160a01b0385168361289c565b90506000611dd96001600160a01b0385168461289c565b905060005b8b6080015151811015611e75578815611e3257611e1583838e608001518481518110611e0657fe5b60200260200101518b8b612959565b8b8281518110611e2157fe5b602002602001018181525050611e6d565b611e5483838e608001518481518110611e4757fe5b60200260200101516129db565b8b8281518110611e6057fe5b6020026020010181815250505b600101611dde565b5061c3509850611e90975050505050505050565b5050505050505b915091565b60606000611ea1612d17565b83516001600160a01b03908116825260208086015182169083015260408501511660608201526080808501519082015260a08085015190820152600080611ee783611b62565b6080850182905260408801516001600160a01b0390811660208701526060808a0151909116908601529095509150611f1e83611b62565b909792019550909350505050565b600082820183811015611af65760405162461bcd60e51b815260040161022e906132c0565b60208101516060908190600160f91b811615801591600160fa1b16151590611f8757611f7d8582612a20565b93505050506125f1565b600060a08660a00151901b90506000611fac87604001516001600160a01b031661262f565b611fba578660400151611fc7565b6001546001600160a01b03165b90506000611fe188608001516001600160a01b031661262f565b611fef578760800151611ffc565b6001546001600160a01b03165b606089810151919250906001600160a01b03166120b45760408051600180825281830190925290602080830190803683375050604080516002808252606082018352939a50929150602083019080368337019050509050828160008151811061206157fe5b60200260200101906001600160a01b031690816001600160a01b031681525050818160018151811061208f57fe5b60200260200101906001600160a01b031690816001600160a01b031681525050612247565b604080516002808252606082018352909160208301908036833750506040805160038082526080820190925292995090506020820160608036833701905050905084156121b85760208901516001600160a01b03166121138185612668565b8260008151811061212057fe5b60200260200101906001600160a01b031690816001600160a01b03168152505061214e818b60600151612668565b8260018151811061215b57fe5b60200260200101906001600160a01b031690816001600160a01b0316815250506121858184612668565b8260028151811061219257fe5b60200260200101906001600160a01b031690816001600160a01b03168152505050612247565b82816000815181106121c657fe5b60200260200101906001600160a01b031690816001600160a01b0316815250508860600151816001815181106121f857fe5b60200260200101906001600160a01b031690816001600160a01b031681525050818160028151811061222657fe5b60200260200101906001600160a01b031690816001600160a01b0316815250505b60005b600182510381101561251857600082828151811061226457fe5b60200260200101519050600083836001018151811061227f57fe5b6020026020010151905060008c600001516001600160a01b031663c45a01556040518163ffffffff1660e01b815260040160206040518083038186803b1580156122c857600080fd5b505afa1580156122dc573d6000803e3d6000fd5b505050506040513d601f19601f820116820180604052508101906123009190612e9d565b6001600160a01b031663e6a4390584846040518363ffffffff1660e01b815260040161232d929190613156565b60206040518083038186803b15801561234557600080fd5b505afa158015612359573d6000803e3d6000fd5b505050506040513d601f19601f8201168201806040525081019061237d9190612e9d565b90506001600160a01b0381166123a55760405162461bcd60e51b815260040161022e906132f7565b6123e66040518060400160405280601681526020017f74303a2025732074313a20257320706169723a20257300000000000000000000815250848484612c46565b6000816001600160a01b0316905080891790506000826001600160a01b0316630dfe16816040518163ffffffff1660e01b815260040160206040518083038186803b15801561243457600080fd5b505afa158015612448573d6000803e3d6000fd5b505050506040513d601f19601f8201168201806040525081019061246c9190612e9d565b90506124ad6040518060400160405280600a81526020017f746f6b656e303a2025730000000000000000000000000000000000000000000081525082610bd7565b846001600160a01b0316816001600160a01b0316146124ec577f8000000000000000000000000000000000000000000000000000000000000000821791505b8160001b8d87815181106124fc57fe5b602090810291909101015250506001909301925061224a915050565b5061252f89608001516001600160a01b031661262f565b15612591577f40000000000000000000000000000000000000000000000000000000000000008760018951038151811061256557fe5b602002602001015160001c1760001b8760018951038151811061258457fe5b6020026020010181815250505b6125e76040518060400160405280600881526020017f646174615b305d3a000000000000000000000000000000000000000000000000815250886000815181106125d757fe5b602002602001015160001c610b14565b5094955050505050505b919050565b600081836126175760405162461bcd60e51b815260040161022e9190613170565b50600083858161262357fe5b049150505b9392505050565b60006001600160a01b0382161580611af957506001600160a01b03821673eeeeeeeeeeeeeeeeeeeeeeeeeeeeeeeeeeeeeeee1492915050565b600080836001600160a01b031663e297943e846040518263ffffffff1660e01b81526004016126979190613129565b60206040518083038186803b1580156126af57600080fd5b505afa1580156126c3573d6000803e3d6000fd5b505050506040513d601f19601f820116820180604052508101906126e79190612e9d565b90506001600160a01b038116611af6576000915050611af9565b600080826001600160a01b031663182df0f56040518163ffffffff1660e01b815260040160206040518083038186803b15801561273d57600080fd5b505afa158015612751573d6000803e3d6000fd5b505050506040513d601f19601f820116820180604052508101906127759190613004565b90506000836001600160a01b031663ae9d70b06040518163ffffffff1660e01b815260040160206040518083038186803b1580156127b257600080fd5b505afa1580156127c6573d6000803e3d6000fd5b505050506040513d601f19601f820116820180604052508101906127ea9190613004565b90506000846001600160a01b0316636c540baf6040518163ffffffff1660e01b815260040160206040518083038186803b15801561282757600080fd5b505afa15801561283b573d6000803e3d6000fd5b505050506040513d601f19601f8201168201806040525081019061285f9190613004565b9050600061286d4383612cae565b905060006128858261287f8787611abc565b90611abc565b90506128918582611f2c565b979650505050505050565b60006128a78361262f565b156128bd57506001600160a01b03811631611af9565b6040517f70a082310000000000000000000000000000000000000000000000000000000081526001600160a01b038416906370a0823190612902908590600401613129565b60206040518083038186803b15801561291a57600080fd5b505afa15801561292e573d6000803e3d6000fd5b505050506040513d601f19601f820116820180604052508101906129529190613004565b9050611af9565b600083612968575060006129d2565b61297e83610ae886670de0b6b3a7640000611abc565b935060006129b66129a6612994876103e5611abc565b6129a08a6103e8611abc565b90611f2c565b610ae86103e561287f898b611abc565b90506129ce670de0b6b3a7640000610ae88386611abc565b9150505b95945050505050565b6000816129ea57506000612628565b612a18612a086129fc846103e5611abc565b6129a0876103e8611abc565b610ae86103e561287f8688611abc565b949350505050565b6060600060a08460a00151901b90506000612a4785604001516001600160a01b031661262f565b612a55578460400151612a62565b6001546001600160a01b03165b90506000612a7c86608001516001600160a01b031661262f565b612a8a578560800151612a97565b6001546001600160a01b03165b60608701519091508515612ad95760208701516001600160a01b0316612abd8183612668565b9150612ac98185612668565b9350612ad58184612668565b9250505b6060878101516001600160a01b0316612b83576040805160038082526080820190925290602082016060803683375050895182519293506001600160a01b031691839150600090612b2657fe5b602002602001018181525050836001600160a01b031660001b81600181518110612b4c57fe5b602002602001018181525050826001600160a01b031660001b81600281518110612b7257fe5b602002602001018181525050612891565b60408051600480825260a0820190925290602082016080803683375050895182519293506001600160a01b031691839150600090612bbd57fe5b602002602001018181525050836001600160a01b031660001b81600181518110612be357fe5b602002602001018181525050816001600160a01b031660001b81600281518110612c0957fe5b602002602001018181525050826001600160a01b031660001b81600381518110612c2f57fe5b602002602001018181525050979650505050505050565b612ca884848484604051602401612c6094939291906131ae565b60408051601f198184030181529190526020810180516001600160e01b03167fed8f28f600000000000000000000000000000000000000000000000000000000179052611b41565b50505050565b6000611af683836040518060400160405280601e81526020017f536166654d6174683a207375627472616374696f6e206f766572666c6f77000081525060008184841115612d0f5760405162461bcd60e51b815260040161022e9190613170565b505050900390565b60408051610100810182526000808252602082018190529181018290526060808201839052608082015260a0810182905260c0810182905260e081019190915290565b60405180610120016040528060006001600160a01b0316815260200160006001600160a01b03168152602001600081526020016000815260200160608152602001606081526020016060815260200160608152602001606081525090565b6040805160c081018252600080825260208201819052918101829052606081018290526080810182905260a081019190915290565b600082601f830112612dfd578081fd5b813567ffffffffffffffff811115612e13578182fd5b6020808202612e23828201613507565b83815293508184018583018287018401881015612e3f57600080fd5b600092505b84831015612e6b578035612e578161352e565b825260019290920191908301908301612e44565b505050505092915050565b8035611af98161352e565b600060208284031215612e92578081fd5b8135611af68161352e565b600060208284031215612eae578081fd5b8151611af68161352e565b600080600060608486031215612ecd578182fd5b8335612ed88161352e565b92506020840135612ee88161352e565b929592945050506040919091013590565b60008060408385031215612f0b578182fd5b8235612f168161352e565b946020939093013593505050565b600060208284031215612f35578081fd5b813567ffffffffffffffff80821115612f4c578283fd5b8184019150610100808387031215612f62578384fd5b612f6b81613507565b9050612f778684612e76565b8152612f868660208501612e76565b6020820152604083013582811115612f9c578485fd5b612fa887828601612ded565b604083015250606083013560608201526080830135608082015260a083013560a082015260c083013560c082015260e083013560e082015280935050505092915050565b600060208284031215612ffd578081fd5b5035919050565b600060208284031215613015578081fd5b5051919050565b6001600160a01b03169052565b60008282518085526020808601955080818302840101818601855b8481101561309757858303601f19018952815180518085529085019085850190895b8181101561308257835183529287019291870191600101613066565b50509985019993505090830190600101613044565b5090979650505050505050565b6000815180845260208085019450808401835b838110156130d3578151875295820195908201906001016130b7565b509495945050505050565b60008151808452815b81811015613103576020818501810151868301820152016130e7565b818111156131145782602083870101525b50601f01601f19169290920160200192915050565b6001600160a01b0391909116815260200190565b6001600160a01b03929092168252602082015260400190565b6001600160a01b0392831681529116602082015260400190565b600060208252611af660208301846130de565b60006040825261319660408301856130de565b90506001600160a01b03831660208301529392505050565b6000608082526131c160808301876130de565b6001600160a01b0395861660208401529385166040830152509216606090920191909152919050565b6000604082526131fd60408301856130de565b90508260208301529392505050565b60006060825261321f60608301866130de565b90508360208301526001600160a01b0383166040830152949350505050565b60006060825261325160608301866130de565b60208301949094525060400152919050565b60208082526026908201527f4f776e61626c653a206e6577206f776e657220697320746865207a65726f206160408201527f6464726573730000000000000000000000000000000000000000000000000000606082015260800190565b6020808252601b908201527f536166654d6174683a206164646974696f6e206f766572666c6f770000000000604082015260600190565b6020808252600e908201527f70616972206e6f74206578697374000000000000000000000000000000000000604082015260600190565b60208082526021908201527f536166654d6174683a206d756c7469706c69636174696f6e206f766572666c6f60408201527f7700000000000000000000000000000000000000000000000000000000000000606082015260800190565b6020808252818101527f4f776e61626c653a2063616c6c6572206973206e6f7420746865206f776e6572604082015260600190565b6000602082526133d460208301845161301c565b60208301516133e6604084018261301c565b50604083015160608301526060830151608083015260808301516101208060a08501526134176101408501836130a4565b915060a0850151601f19808685030160c087015261343584836130a4565b935060c08701519150808685030160e087015261345284836130a4565b935060e0870151915061010081878603018188015261347185846130a4565b90880151878203909201848801529350905061348d8382613029565b9695505050505050565b90815260200190565b600060808201868352602086818501526080604085015281865180845260a0860191508288019350845b818110156134e6578451835293830193918301916001016134ca565b505084810360608601526134fa81876130de565b9998505050505050505050565b60405181810167ffffffffffffffff8111828210171561352657600080fd5b604052919050565b6001600160a01b038116811461152e57600080fdfe6265666f7265205f67657452657475726e416e644761734279446973747269627574696f6ea2646970667358221220ef3547f8f3a0bb99599d325ebdd3d1a6453a54fbf61f4177de10c84fe99e899764736f6c634300060c0033",
  "linkReferences": {},
  "deployedLinkReferences": {}
}