{
  "_format": "hh-sol-artifact-1",
  "contractName": "OrderBook",
  "sourceName": "contracts/swap/orderbook/Orderbook.sol",
  "abi": [
    {
      "inputs": [
        {
          "internalType": "address",
          "name": "_router",
          "type": "address"
        },
        {
          "internalType": "address",
          "name": "_ctokenFactory",
          "type": "address"
        },
        {
          "internalType": "address",
          "name": "_wETH",
          "type": "address"
        },
        {
          "internalType": "address",
          "name": "_margin",
          "type": "address"
        }
      ],
      "stateMutability": "nonpayable",
      "type": "constructor"
    },
    {
      "anonymous": false,
      "inputs": [
        {
          "indexed": true,
          "internalType": "address",
          "name": "owner",
          "type": "address"
        },
        {
          "indexed": false,
          "internalType": "uint256",
          "name": "orderId",
          "type": "uint256"
        }
      ],
      "name": "CancelOrder",
      "type": "event"
    },
    {
      "anonymous": false,
      "inputs": [
        {
          "indexed": true,
          "internalType": "address",
          "name": "owner",
          "type": "address"
        },
        {
          "indexed": true,
          "internalType": "address",
          "name": "srcToken",
          "type": "address"
        },
        {
          "indexed": true,
          "internalType": "address",
          "name": "destToken",
          "type": "address"
        },
        {
          "indexed": false,
          "internalType": "uint256",
          "name": "orderId",
          "type": "uint256"
        },
        {
          "indexed": false,
          "internalType": "uint256",
          "name": "amountIn",
          "type": "uint256"
        },
        {
          "indexed": false,
          "internalType": "uint256",
          "name": "minAmountOut",
          "type": "uint256"
        },
        {
          "indexed": false,
          "internalType": "uint256",
          "name": "flag",
          "type": "uint256"
        }
      ],
      "name": "CreateOrder",
      "type": "event"
    },
    {
      "anonymous": false,
      "inputs": [
        {
          "indexed": true,
          "internalType": "address",
          "name": "maker",
          "type": "address"
        },
        {
          "indexed": true,
          "internalType": "address",
          "name": "taker",
          "type": "address"
        },
        {
          "indexed": false,
          "internalType": "uint256",
          "name": "orderId",
          "type": "uint256"
        },
        {
          "indexed": false,
          "internalType": "uint256",
          "name": "amt",
          "type": "uint256"
        },
        {
          "indexed": false,
          "internalType": "uint256",
          "name": "amtOut",
          "type": "uint256"
        },
        {
          "indexed": false,
          "internalType": "uint256",
          "name": "remaining",
          "type": "uint256"
        }
      ],
      "name": "FulFilOrder",
      "type": "event"
    },
    {
      "anonymous": false,
      "inputs": [
        {
          "indexed": true,
          "internalType": "address",
          "name": "previousOwner",
          "type": "address"
        },
        {
          "indexed": true,
          "internalType": "address",
          "name": "newOwner",
          "type": "address"
        }
      ],
      "name": "OwnershipTransferred",
      "type": "event"
    },
    {
      "inputs": [
        {
          "internalType": "uint256",
          "name": "id",
          "type": "uint256"
        }
      ],
      "name": "addrIndex",
      "outputs": [
        {
          "internalType": "uint256",
          "name": "",
          "type": "uint256"
        }
      ],
      "stateMutability": "pure",
      "type": "function"
    },
    {
      "inputs": [
        {
          "internalType": "address",
          "name": "",
          "type": "address"
        },
        {
          "internalType": "uint256",
          "name": "",
          "type": "uint256"
        }
      ],
      "name": "addressOrders",
      "outputs": [
        {
          "internalType": "uint256",
          "name": "",
          "type": "uint256"
        }
      ],
      "stateMutability": "view",
      "type": "function"
    },
    {
      "inputs": [
        {
          "internalType": "address",
          "name": "token",
          "type": "address"
        },
        {
          "internalType": "address",
          "name": "to",
          "type": "address"
        },
        {
          "internalType": "uint256",
          "name": "amt",
          "type": "uint256"
        }
      ],
      "name": "adminTransfer",
      "outputs": [],
      "stateMutability": "nonpayable",
      "type": "function"
    },
    {
      "inputs": [
        {
          "internalType": "address",
          "name": "",
          "type": "address"
        },
        {
          "internalType": "address",
          "name": "",
          "type": "address"
        }
      ],
      "name": "balanceOf",
      "outputs": [
        {
          "internalType": "uint256",
          "name": "",
          "type": "uint256"
        }
      ],
      "stateMutability": "view",
      "type": "function"
    },
    {
      "inputs": [
        {
          "internalType": "uint256",
          "name": "orderId",
          "type": "uint256"
        }
      ],
      "name": "cancelOrder",
      "outputs": [],
      "stateMutability": "nonpayable",
      "type": "function"
    },
    {
      "inputs": [],
      "name": "closeOrderBook",
      "outputs": [],
      "stateMutability": "nonpayable",
      "type": "function"
    },
    {
      "inputs": [],
      "name": "closed",
      "outputs": [
        {
          "internalType": "bool",
          "name": "",
          "type": "bool"
        }
      ],
      "stateMutability": "view",
      "type": "function"
    },
    {
      "inputs": [
        {
          "internalType": "address",
          "name": "srcToken",
          "type": "address"
        },
        {
          "internalType": "address",
          "name": "destToken",
          "type": "address"
        },
        {
          "internalType": "address",
          "name": "from",
          "type": "address"
        },
        {
          "internalType": "address",
          "name": "to",
          "type": "address"
        },
        {
          "internalType": "uint256",
          "name": "amountIn",
          "type": "uint256"
        },
        {
          "internalType": "uint256",
          "name": "guaranteeAmountOut",
          "type": "uint256"
        },
        {
          "internalType": "uint256",
          "name": "expiredAt",
          "type": "uint256"
        },
        {
          "internalType": "uint256",
          "name": "flag",
          "type": "uint256"
        }
      ],
      "name": "createOrder",
      "outputs": [
        {
          "internalType": "uint256",
          "name": "",
          "type": "uint256"
        }
      ],
      "stateMutability": "payable",
      "type": "function"
    },
    {
      "inputs": [],
      "name": "ctokenFactory",
      "outputs": [
        {
          "internalType": "address",
          "name": "",
          "type": "address"
        }
      ],
      "stateMutability": "view",
      "type": "function"
    },
    {
      "inputs": [],
      "name": "feeRate",
      "outputs": [
        {
          "internalType": "uint256",
          "name": "",
          "type": "uint256"
        }
      ],
      "stateMutability": "view",
      "type": "function"
    },
    {
      "inputs": [
        {
          "internalType": "uint256",
          "name": "orderId",
          "type": "uint256"
        },
        {
          "internalType": "uint256",
          "name": "amtToTaken",
          "type": "uint256"
        }
      ],
      "name": "fulfilOrder",
      "outputs": [
        {
          "internalType": "bool",
          "name": "",
          "type": "bool"
        }
      ],
      "stateMutability": "payable",
      "type": "function"
    },
    {
      "inputs": [],
      "name": "getAllOrders",
      "outputs": [
        {
          "components": [
            {
              "internalType": "uint256",
              "name": "orderId",
              "type": "uint256"
            },
            {
              "internalType": "uint256",
              "name": "pairAddrIdx",
              "type": "uint256"
            },
            {
              "internalType": "address",
              "name": "owner",
              "type": "address"
            },
            {
              "internalType": "address",
              "name": "to",
              "type": "address"
            },
            {
              "internalType": "uint256",
              "name": "pair",
              "type": "uint256"
            },
            {
              "internalType": "uint256",
              "name": "timestamp",
              "type": "uint256"
            },
            {
              "internalType": "uint256",
              "name": "flag",
              "type": "uint256"
            },
            {
              "components": [
                {
                  "internalType": "address",
                  "name": "srcToken",
                  "type": "address"
                },
                {
                  "internalType": "address",
                  "name": "destToken",
                  "type": "address"
                },
                {
                  "internalType": "uint256",
                  "name": "amountIn",
                  "type": "uint256"
                },
                {
                  "internalType": "uint256",
                  "name": "fulfiled",
                  "type": "uint256"
                },
                {
                  "internalType": "uint256",
                  "name": "guaranteeAmountOut",
                  "type": "uint256"
                }
              ],
              "internalType": "struct OBStorage.TokenAmount",
              "name": "tokenAmt",
              "type": "tuple"
            }
          ],
          "internalType": "struct OBStorage.OrderItem[]",
          "name": "orders",
          "type": "tuple[]"
        }
      ],
      "stateMutability": "view",
      "type": "function"
    },
    {
      "inputs": [
        {
          "internalType": "uint256",
          "name": "ts",
          "type": "uint256"
        }
      ],
      "name": "getExpiredAt",
      "outputs": [
        {
          "internalType": "uint256",
          "name": "",
          "type": "uint256"
        }
      ],
      "stateMutability": "pure",
      "type": "function"
    },
    {
      "inputs": [],
      "name": "getFeeRate",
      "outputs": [
        {
          "internalType": "uint256",
          "name": "",
          "type": "uint256"
        }
      ],
      "stateMutability": "view",
      "type": "function"
    },
    {
      "inputs": [
        {
          "internalType": "uint256",
          "name": "flag",
          "type": "uint256"
        }
      ],
      "name": "isMargin",
      "outputs": [
        {
          "internalType": "bool",
          "name": "",
          "type": "bool"
        }
      ],
      "stateMutability": "pure",
      "type": "function"
    },
    {
      "inputs": [],
      "name": "marginAddr",
      "outputs": [
        {
          "internalType": "address",
          "name": "",
          "type": "address"
        }
      ],
      "stateMutability": "view",
      "type": "function"
    },
    {
      "inputs": [
        {
          "internalType": "address",
          "name": "",
          "type": "address"
        },
        {
          "internalType": "uint256",
          "name": "",
          "type": "uint256"
        }
      ],
      "name": "marginOrders",
      "outputs": [
        {
          "internalType": "uint256",
          "name": "",
          "type": "uint256"
        }
      ],
      "stateMutability": "view",
      "type": "function"
    },
    {
      "inputs": [
        {
          "internalType": "uint256",
          "name": "pairIdx",
          "type": "uint256"
        },
        {
          "internalType": "uint256",
          "name": "addrIdx",
          "type": "uint256"
        }
      ],
      "name": "maskAddrPairIndex",
      "outputs": [
        {
          "internalType": "uint256",
          "name": "",
          "type": "uint256"
        }
      ],
      "stateMutability": "pure",
      "type": "function"
    },
    {
      "inputs": [
        {
          "internalType": "uint256",
          "name": "ts",
          "type": "uint256"
        },
        {
          "internalType": "uint256",
          "name": "expired",
          "type": "uint256"
        }
      ],
      "name": "maskTimestamp",
      "outputs": [
        {
          "internalType": "uint256",
          "name": "",
          "type": "uint256"
        }
      ],
      "stateMutability": "pure",
      "type": "function"
    },
    {
      "inputs": [
        {
          "internalType": "address",
          "name": "",
          "type": "address"
        }
      ],
      "name": "minAmounts",
      "outputs": [
        {
          "internalType": "uint256",
          "name": "",
          "type": "uint256"
        }
      ],
      "stateMutability": "view",
      "type": "function"
    },
    {
      "inputs": [],
      "name": "minBuyAmt",
      "outputs": [
        {
          "internalType": "uint256",
          "name": "",
          "type": "uint256"
        }
      ],
      "stateMutability": "view",
      "type": "function"
    },
    {
      "inputs": [],
      "name": "minSellAmt",
      "outputs": [
        {
          "internalType": "uint256",
          "name": "",
          "type": "uint256"
        }
      ],
      "stateMutability": "view",
      "type": "function"
    },
    {
      "inputs": [],
      "name": "openOrderBook",
      "outputs": [],
      "stateMutability": "nonpayable",
      "type": "function"
    },
    {
      "inputs": [],
      "name": "orderId",
      "outputs": [
        {
          "internalType": "uint256",
          "name": "",
          "type": "uint256"
        }
      ],
      "stateMutability": "view",
      "type": "function"
    },
    {
      "inputs": [
        {
          "internalType": "uint256",
          "name": "",
          "type": "uint256"
        }
      ],
      "name": "orders",
      "outputs": [
        {
          "internalType": "uint256",
          "name": "orderId",
          "type": "uint256"
        },
        {
          "internalType": "uint256",
          "name": "pairAddrIdx",
          "type": "uint256"
        },
        {
          "internalType": "address",
          "name": "owner",
          "type": "address"
        },
        {
          "internalType": "address",
          "name": "to",
          "type": "address"
        },
        {
          "internalType": "uint256",
          "name": "pair",
          "type": "uint256"
        },
        {
          "internalType": "uint256",
          "name": "timestamp",
          "type": "uint256"
        },
        {
          "internalType": "uint256",
          "name": "flag",
          "type": "uint256"
        },
        {
          "components": [
            {
              "internalType": "address",
              "name": "srcToken",
              "type": "address"
            },
            {
              "internalType": "address",
              "name": "destToken",
              "type": "address"
            },
            {
              "internalType": "uint256",
              "name": "amountIn",
              "type": "uint256"
            },
            {
              "internalType": "uint256",
              "name": "fulfiled",
              "type": "uint256"
            },
            {
              "internalType": "uint256",
              "name": "guaranteeAmountOut",
              "type": "uint256"
            }
          ],
          "internalType": "struct OBStorage.TokenAmount",
          "name": "tokenAmt",
          "type": "tuple"
        }
      ],
      "stateMutability": "view",
      "type": "function"
    },
    {
      "inputs": [],
      "name": "owner",
      "outputs": [
        {
          "internalType": "address",
          "name": "",
          "type": "address"
        }
      ],
      "stateMutability": "view",
      "type": "function"
    },
    {
      "inputs": [
        {
          "internalType": "address",
          "name": "srcToken",
          "type": "address"
        },
        {
          "internalType": "address",
          "name": "destToken",
          "type": "address"
        }
      ],
      "name": "pairFor",
      "outputs": [
        {
          "internalType": "uint256",
          "name": "pair",
          "type": "uint256"
        }
      ],
      "stateMutability": "view",
      "type": "function"
    },
    {
      "inputs": [
        {
          "internalType": "uint256",
          "name": "id",
          "type": "uint256"
        }
      ],
      "name": "pairIndex",
      "outputs": [
        {
          "internalType": "uint256",
          "name": "",
          "type": "uint256"
        }
      ],
      "stateMutability": "pure",
      "type": "function"
    },
    {
      "inputs": [
        {
          "internalType": "uint256",
          "name": "",
          "type": "uint256"
        },
        {
          "internalType": "uint256",
          "name": "",
          "type": "uint256"
        }
      ],
      "name": "pairOrders",
      "outputs": [
        {
          "internalType": "uint256",
          "name": "",
          "type": "uint256"
        }
      ],
      "stateMutability": "view",
      "type": "function"
    },
    {
      "inputs": [],
      "name": "priceRatio",
      "outputs": [
        {
          "internalType": "uint256",
          "name": "",
          "type": "uint256"
        }
      ],
      "stateMutability": "view",
      "type": "function"
    },
    {
      "inputs": [],
      "name": "renounceOwnership",
      "outputs": [],
      "stateMutability": "nonpayable",
      "type": "function"
    },
    {
      "inputs": [],
      "name": "router",
      "outputs": [
        {
          "internalType": "address",
          "name": "",
          "type": "address"
        }
      ],
      "stateMutability": "view",
      "type": "function"
    },
    {
      "inputs": [
        {
          "internalType": "address",
          "name": "token",
          "type": "address"
        },
        {
          "internalType": "uint256",
          "name": "amt",
          "type": "uint256"
        }
      ],
      "name": "setMinOrderAmount",
      "outputs": [],
      "stateMutability": "nonpayable",
      "type": "function"
    },
    {
      "inputs": [
        {
          "internalType": "address",
          "name": "_swapMininng",
          "type": "address"
        }
      ],
      "name": "setSwapMining",
      "outputs": [],
      "stateMutability": "nonpayable",
      "type": "function"
    },
    {
      "inputs": [],
      "name": "swapMining",
      "outputs": [
        {
          "internalType": "address",
          "name": "",
          "type": "address"
        }
      ],
      "stateMutability": "view",
      "type": "function"
    },
    {
      "inputs": [
        {
          "internalType": "address",
          "name": "newOwner",
          "type": "address"
        }
      ],
      "name": "transferOwnership",
      "outputs": [],
      "stateMutability": "nonpayable",
      "type": "function"
    },
    {
      "inputs": [
        {
          "internalType": "uint256",
          "name": "idx",
          "type": "uint256"
        },
        {
          "internalType": "uint256",
          "name": "addrIdx",
          "type": "uint256"
        }
      ],
      "name": "updateAddrIdx",
      "outputs": [
        {
          "internalType": "uint256",
          "name": "",
          "type": "uint256"
        }
      ],
      "stateMutability": "pure",
      "type": "function"
    },
    {
      "inputs": [
        {
          "internalType": "uint256",
          "name": "idx",
          "type": "uint256"
        },
        {
          "internalType": "uint256",
          "name": "pairIdx",
          "type": "uint256"
        }
      ],
      "name": "updatePairIdx",
      "outputs": [
        {
          "internalType": "uint256",
          "name": "",
          "type": "uint256"
        }
      ],
      "stateMutability": "pure",
      "type": "function"
    },
    {
      "inputs": [],
      "name": "wETH",
      "outputs": [
        {
          "internalType": "address",
          "name": "",
          "type": "address"
        }
      ],
      "stateMutability": "view",
      "type": "function"
    },
    {
      "inputs": [
        {
          "internalType": "address",
          "name": "token",
          "type": "address"
        },
        {
          "internalType": "uint256",
          "name": "amt",
          "type": "uint256"
        }
      ],
      "name": "withdraw",
      "outputs": [],
      "stateMutability": "nonpayable",
      "type": "function"
    }
  ],
  "bytecode": "0x60806040526c0c9f2c9cd04674edea40000000600155601e600a553480156200002757600080fd5b5060405162002a6438038062002a648339810160408190526200004a916200012c565b6000620000566200010a565b600080546001600160a01b0319166001600160a01b0383169081178255604051929350917f8be0079c531659141344cd1fd0a4f28419497f9722a3daafe3b4186f6b6457e0908290a3506011805460ff19166001179055600380546001600160a01b0395861661010002610100600160a81b0319909116179055600580549385166001600160a01b03199485161790556004805492851692841692909217909155600680549190931691161790556200018c565b3390565b80516001600160a01b03811681146200012657600080fd5b92915050565b6000806000806080858703121562000142578384fd5b6200014e86866200010e565b93506200015f86602087016200010e565b92506200017086604087016200010e565b91506200018186606087016200010e565b905092959194509250565b6128c8806200019c6000396000f3fe6080604052600436106102bb5760003560e01c8063862d77ba1161016e578063c0e863c3116100cb578063f2fde38b1161007f578063f7888aec11610064578063f7888aec146106a9578063f887ea40146106c9578063fbd2eb7c146106de576102bb565b8063f2fde38b14610669578063f3fef3a314610689576102bb565b8063da72c1e8116100b0578063da72c1e814610634578063e4fc9e5b14610438578063f242862114610654576102bb565b8063c0e863c314610614578063d7755b8b14610519576102bb565b80639c5e52d511610122578063a66eb9ac11610107578063a66eb9ac146105b8578063a85c38ef146105cd578063b0c1b28914610601576102bb565b80639c5e52d514610583578063a04310d9146105a3576102bb565b80638da5cb5b116101535780638da5cb5b1461053957806396ed28f91461054e578063978bbdb91461056e576102bb565b8063862d77ba146104f95780638add99f714610519576102bb565b8063514fcac71161021c578063715018a6116101d05780637bea0d1c116101b55780637bea0d1c146104ad578063803289fe146104cf57806384e5eed0146104e4576102bb565b8063715018a6146104785780637623cccb1461048d576102bb565b8063597e1fb511610201578063597e1fb514610423578063613436bc146104385780636d0b6a6c14610458576102bb565b8063514fcac7146103e357806352e86d5b14610403576102bb565b80633623cd3d1161027357806345e660711161025857806345e66071146103975780634e5eda11146103ac5780634f887183146103c1576102bb565b80633623cd3d14610362578063415e63b814610377576102bb565b80631cf60222116102a45780631cf60222146103005780631d20980a1461032057806325c9e27614610340576102bb565b80630aa2f420146102c0578063163de5e5146102eb575b600080fd5b3480156102cc57600080fd5b506102d56106fe565b6040516102e291906127d1565b60405180910390f35b3480156102f757600080fd5b506102d5610704565b34801561030c57600080fd5b506102d561031b366004612171565b61070a565b34801561032c57600080fd5b506102d561033b3660046121bb565b610738565b34801561034c57600080fd5b5061035561074d565b6040516102e29190612274565b34801561036e57600080fd5b506102d561075c565b61038a6103853660046121d3565b610762565b6040516102e2919061238d565b3480156103a357600080fd5b50610355610a77565b3480156103b857600080fd5b50610355610a86565b3480156103cd57600080fd5b506103e16103dc366004612067565b610a95565b005b3480156103ef57600080fd5b506103e16103fe3660046121bb565b610af6565b34801561040f57600080fd5b506102d561041e3660046121d3565b610d56565b34801561042f57600080fd5b5061038a610d6f565b34801561044457600080fd5b506102d56104533660046121bb565b610d78565b34801561046457600080fd5b506102d56104733660046121d3565b610d7e565b34801561048457600080fd5b506103e1610d9c565b34801561049957600080fd5b5061038a6104a83660046121bb565b610e25565b3480156104b957600080fd5b506104c2610e4c565b6040516102e291906122e6565b3480156104db57600080fd5b506103e1610f5a565b3480156104f057600080fd5b506102d5610fa5565b34801561050557600080fd5b506102d56105143660046121d3565b610fab565b34801561052557600080fd5b506102d56105343660046121d3565b610fc5565b34801561054557600080fd5b50610355610fcc565b34801561055a57600080fd5b506102d5610569366004612082565b610fdb565b34801561057a57600080fd5b506102d5611075565b34801561058f57600080fd5b506102d561059e366004612067565b61107b565b3480156105af57600080fd5b506102d561108d565b3480156105c457600080fd5b506103e1611093565b3480156105d957600080fd5b506105ed6105e83660046121bb565b6110e1565b6040516102e29897969594939291906127da565b6102d561060f3660046120b6565b61116e565b34801561062057600080fd5b506103e161062f366004612171565b6113a3565b34801561064057600080fd5b506103e161064f366004612131565b6113fe565b34801561066057600080fd5b5061035561146b565b34801561067557600080fd5b506103e1610684366004612067565b61147a565b34801561069557600080fd5b506103e16106a4366004612171565b61153a565b3480156106b557600080fd5b506102d56106c4366004612082565b6115dd565b3480156106d557600080fd5b506103556115fa565b3480156106ea57600080fd5b506102d56106f9366004612171565b61160e565b60015481565b60025481565b600e602052816000526040600020818154811061072357fe5b90600052602060002001600091509150505481565b6fffffffffffffffffffffffffffffffff1690565b6005546001600160a01b031681565b60095481565b60035460009060ff16156107915760405162461bcd60e51b815260040161078890612698565b60405180910390fd5b60115460ff166107b35760405162461bcd60e51b81526004016107889061279a565b6011805460ff191690556000838152600d6020526040812060058101549091906107dc90610d78565b905080158015906107ec57504281105b15610805576107fa85610af6565b600092505050610a64565b60068201546001161561081d57600092505050610a64565b600a82015460098301546000916108349190611627565b90508481101561084a5760009350505050610a64565b60088301546009840154600b8501546001600160a01b039092169160009161087d91610877908a90611670565b906116aa565b90506000610889610fa5565b9050600061089d6127106108778b85611670565b905060006108b16127106108778686611670565b600789015460088a015460028b015460068c01549394506108f4936001600160a01b039384169392831692909116903390879087906108ef90610e25565b6116ec565b6001600160a01b03851661092757833410156109225760405162461bcd60e51b815260040161078890612528565b610933565b610933853330876117d3565b600a880180548b0190556002880154604051968b90039633916001600160a01b0316907fc4da0ed5c63d261a1e04ac35307957a9d404d4a3e6e9dc446ae24589147da94f90610989908f908f908a908d9061282f565b60405180910390a385610a575760068801805460019081179182905560408051610100810182528b548152918b015460208084019190915260028c01546001600160a01b039081168484015260038d0154811660608086019190915260048e015460808087019190915260058f015460a08088019190915260c08701979097528451968701855260078f01548316875260088f01549092169286019290925260098d015492850192909252600a8c015490840152600b8b01549083015260e0810191909152610a57906118d9565b6001985050505050505050505b6011805460ff1916600117905592915050565b6006546001600160a01b031681565b6007546001600160a01b031681565b610a9d611c87565b6001600160a01b0316610aae610fcc565b6001600160a01b031614610ad45760405162461bcd60e51b8152600401610788906124f3565b600780546001600160a01b0319166001600160a01b0392909216919091179055565b60115460ff16610b185760405162461bcd60e51b81526004016107889061279a565b6011805460ff191690556000818152600d602052604090206006810154610b3e90610e25565b15610b9557610b4b610fcc565b6001600160a01b0316336001600160a01b03161480610b7457506006546001600160a01b031633145b610b905760405162461bcd60e51b815260040161078890612661565b610be4565b610b9d610fcc565b6001600160a01b0316336001600160a01b03161480610bc8575060028101546001600160a01b031633145b610be45760405162461bcd60e51b815260040161078890612596565b60078101546001600160a01b031680610c19576002820154600a830154610c14916001600160a01b031690611c8b565b610c3a565b6002820154600a830154610c3a9183916001600160a01b0390911690611d18565b60028201546040516001600160a01b03909116907fc0e68d6b69f741c21e955cad2ae4d505b6f6735c7e7b278251b3f6283a5f07eb90610c7b9086906127d1565b60405180910390a26006820180546001908117918290556040805161010081018252855481529185015460208084019190915260028601546001600160a01b0390811684840152600387015481166060808601919091526004880154608080870191909152600589015460a08088019190915260c087019790975284519687018552600789015483168752600889015490921692860192909252600987015492850192909252600a86015490840152600b8501549083015260e0810191909152610d44906118d9565b50506011805460ff1916600117905550565b6010602052816000526040600020818154811061072357fe5b60035460ff1681565b60801c90565b6000610d8982610d78565b610d9284610738565b1790505b92915050565b610da4611c87565b6001600160a01b0316610db5610fcc565b6001600160a01b031614610ddb5760405162461bcd60e51b8152600401610788906124f3565b600080546040516001600160a01b03909116907f8be0079c531659141344cd1fd0a4f28419497f9722a3daafe3b4186f6b6457e0908390a3600080546001600160a01b0319169055565b7f800000000000000000000000000000000000000000000000000000000000000016151590565b606060008060005b600254811015610e9c57610e66611fb3565b848281518110610e7257fe5b6020026020010151905060018160c001511660001415610e93576001909301925b50600101610e54565b508167ffffffffffffffff81118015610eb457600080fd5b50604051908082528060200260200182016040528015610eee57816020015b610edb611fb3565b815260200190600190039081610ed35790505b50925060005b600254811015610f5457610f06611fb3565b848281518110610f1257fe5b6020026020010151905060018160c001511660001415610f4b5780858481518110610f3957fe5b60209081029190910101526001909201915b50600101610ef4565b50505090565b610f62611c87565b6001600160a01b0316610f73610fcc565b6001600160a01b031614610f995760405162461bcd60e51b8152600401610788906124f3565b6003805460ff19169055565b6126f290565b6fffffffffffffffffffffffffffffffff19919091161790565b60801b1790565b6000546001600160a01b031690565b60006001600160a01b038316610ffa576004546001600160a01b031692505b6001600160a01b038216611017576004546001600160a01b031691505b600080836001600160a01b0316856001600160a01b03161061103a57838561103d565b84845b915091508181604051602001611054929190612231565b60408051601f19818403018152919052805160209091012095945050505050565b600a5481565b600b6020526000908152604090205481565b60085481565b61109b611c87565b6001600160a01b03166110ac610fcc565b6001600160a01b0316146110d25760405162461bcd60e51b8152600401610788906124f3565b6003805460ff19166001179055565b600d602090815260009182526040918290208054600182015460028301546003840154600485015460058601546006870154895160a081018b5260078901546001600160a01b03908116825260088a015481169a82019a909a5260098901549a81019a909a52600a88015460608b0152600b9097015460808a015294979396928316959190921693919288565b60035460009060ff16156111945760405162461bcd60e51b815260040161078890612698565b60115460ff166111b65760405162461bcd60e51b81526004016107889061279a565b6011805460ff191690556001600160a01b0389811690891614156111ec5760405162461bcd60e51b8152600401610788906126cf565b8215806111f857504283115b6112145760405162461bcd60e51b81526004016107889061245f565b6001600160a01b03891661125557843410156112425760405162461bcd60e51b81526004016107889061255f565b6004546001600160a01b03169850611261565b611261893330886117d3565b6001600160a01b0389166000908152600b602052604090205485116112985760405162461bcd60e51b8152600401610788906125cd565b60028054600181019091556000818152600d602052604090208181556007810180546001600160a01b03808e166001600160a01b0319928316179092556008830180548d841692169190911790558916156112f357886112f5565b335b6002820180546001600160a01b0319166001600160a01b039283161790558816156113205787611322565b335b6003820180546001600160a01b0319166001600160a01b0392909216919091179055600981018790556000600a820155600b81018690556113634286610fc5565b6005820155600681018490556113798b8b610fdb565b600482015561138781611e1b565b5090506011805460ff1916600117905598975050505050505050565b6113ab611c87565b6001600160a01b03166113bc610fcc565b6001600160a01b0316146113e25760405162461bcd60e51b8152600401610788906124f3565b6001600160a01b039091166000908152600b6020526040902055565b611406611c87565b6001600160a01b0316611417610fcc565b6001600160a01b03161461143d5760405162461bcd60e51b8152600401610788906124f3565b6001600160a01b03831661145a576114558282611c8b565b611466565b611466833084846117d3565b505050565b6004546001600160a01b031681565b611482611c87565b6001600160a01b0316611493610fcc565b6001600160a01b0316146114b95760405162461bcd60e51b8152600401610788906124f3565b6001600160a01b0381166114df5760405162461bcd60e51b815260040161078890612402565b600080546040516001600160a01b03808516939216917f8be0079c531659141344cd1fd0a4f28419497f9722a3daafe3b4186f6b6457e091a3600080546001600160a01b0319166001600160a01b0392909216919091179055565b6001600160a01b0382166000908152600c602090815260408083203384529091529020548181101561157e5760405162461bcd60e51b815260040161078890612706565b6001600160a01b03831661159b576115963383611c8b565b6115a7565b6115a7833033856117d3565b6115b18183611627565b6001600160a01b039093166000908152600c602090815260408083203384529091529020929092555050565b600c60209081526000928352604080842090915290825290205481565b60035461010090046001600160a01b031681565b600f602052816000526040600020818154811061072357fe5b600061166983836040518060400160405280601e81526020017f536166654d6174683a207375627472616374696f6e206f766572666c6f770000815250611f50565b9392505050565b60008261167f57506000610d96565b8282028284828161168c57fe5b04146116695760405162461bcd60e51b815260040161078890612496565b600061166983836040518060400160405280601a81526020017f536166654d6174683a206469766973696f6e206279207a65726f000000000000815250611f7c565b8015611776576006546040517ff4e2c0370000000000000000000000000000000000000000000000000000000081526001600160a01b039091169063f4e2c0379061173f908890869088906004016122c5565b600060405180830381600087803b15801561175957600080fd5b505af115801561176d573d6000803e3d6000fd5b505050506117a2565b6001600160a01b038087166000908152600c602090815260408083209389168352929052208054830190555b6001600160a01b0387166117bf576117ba8484611c8b565b6117ca565b6117ca878585611d18565b50505050505050565b60006060856001600160a01b03166323b872dd8686866040516024016117fb93929190612288565b6040516020818303038152906040529060e01b6020820180517bffffffffffffffffffffffffffffffffffffffffffffffffffffffff83818316178352505050506040516118499190612258565b6000604051808303816000865af19150503d8060008114611886576040519150601f19603f3d011682016040523d82523d6000602084013e61188b565b606091505b50915091508180156118b55750805115806118b55750808060200190518101906118b5919061219b565b6118d15760405162461bcd60e51b81526004016107889061273d565b505050505050565b60006118e88260200151610738565b905060006118f98360200151610d78565b90506000836040015190506000806119148660c00151610e25565b90508015611a48576001600160a01b0383166000908152600e6020526040902054600110801561196057506001600160a01b0383166000908152600e6020526040902054600019018414155b15611a0c576001600160a01b0383166000908152600e602052604090208054600019810190811061198d57fe5b9060005260206000200154915081600e6000856001600160a01b03166001600160a01b0316815260200190815260200160002085815481106119cb57fe5b90600052602060002001819055506119f9600d60008481526020019081526020016000206001015485610d7e565b6000838152600d60205260409020600101555b6001600160a01b0383166000908152600e60205260409020805480611a2d57fe5b60019003818190600052602060002001600090559055611b70565b6001600160a01b0383166000908152600f60205260409020546001108015611a8c57506001600160a01b0383166000908152600f6020526040902054600019018414155b15611b38576001600160a01b0383166000908152600f6020526040902080546000198101908110611ab957fe5b9060005260206000200154915081600f6000856001600160a01b03166001600160a01b031681526020019081526020016000208581548110611af757fe5b9060005260206000200181905550611b25600d60008481526020019081526020016000206001015485610d7e565b6000838152600d60205260409020600101555b6001600160a01b0383166000908152600f60205260409020805480611b5957fe5b600190038181906000526020600020016000905590555b60808601516000908152601060205260409020546001108015611baa57506080860151600090815260106020526040902054600019018514155b15611c4d57608086018051600090815260106020526040808220925182529020548154600019909101908110611bdc57fe5b906000526020600020015491508160106000886080015181526020019081526020016000208681548110611c0c57fe5b9060005260206000200181905550611c3a600d60008481526020019081526020016000206001015486610fab565b6000838152600d60205260409020600101555b60808601516000908152601060205260409020805480611c6957fe5b60019003818190600052602060002001600090559055505050505050565b3390565b604080516000808252602082019092526001600160a01b038416908390604051611cb59190612258565b60006040518083038185875af1925050503d8060008114611cf2576040519150601f19603f3d011682016040523d82523d6000602084013e611cf7565b606091505b50509050806114665760405162461bcd60e51b815260040161078890612604565b60006060846001600160a01b031663a9059cbb8585604051602401611d3e9291906122ac565b6040516020818303038152906040529060e01b6020820180517bffffffffffffffffffffffffffffffffffffffffffffffffffffffff8381831617835250505050604051611d8c9190612258565b6000604051808303816000865af19150503d8060008114611dc9576040519150601f19603f3d011682016040523d82523d6000602084013e611dce565b606091505b5091509150818015611df8575080511580611df8575080806020019051810190611df8919061219b565b611e145760405162461bcd60e51b8152600401610788906123cb565b5050505050565b80546006820154600090611e2e90610e25565b90506000808215611e705760028501546001600160a01b03166000908152600e6020908152604082208054600181018255908352912081018590559150611ea3565b60028501546001600160a01b03166000908152600f60209081526040822080546001810182559083529120810185905591505b50600484015460009081526010602090815260408220805460018101825590835291208101849055611ed58183610fc5565b60018601556008850154600786015460028701546009880154600b89015460068a01546040516001600160a01b039687169695861695909416937fc8419e5c94126588374d91d4332ef5d56223abb9c42776b667e899ccff2c5f2793611f41938c93919290919061282f565b60405180910390a45050505050565b60008184841115611f745760405162461bcd60e51b81526004016107889190612398565b505050900390565b60008183611f9d5760405162461bcd60e51b81526004016107889190612398565b506000838581611fa957fe5b0495945050505050565b604051806101000160405280600081526020016000815260200160006001600160a01b0316815260200160006001600160a01b0316815260200160008152602001600081526020016000815260200161200a61200f565b905290565b6040518060a0016040528060006001600160a01b0316815260200160006001600160a01b031681526020016000815260200160008152602001600081525090565b80356001600160a01b0381168114610d9657600080fd5b600060208284031215612078578081fd5b6116698383612050565b60008060408385031215612094578081fd5b61209e8484612050565b91506120ad8460208501612050565b90509250929050565b600080600080600080600080610100898b0312156120d2578384fd5b6120dc8a8a612050565b97506120eb8a60208b01612050565b96506120fa8a60408b01612050565b95506121098a60608b01612050565b979a969950949760808101359660a0820135965060c0820135955060e0909101359350915050565b600080600060608486031215612145578283fd5b83356121508161287a565b925060208401356121608161287a565b929592945050506040919091013590565b60008060408385031215612183578182fd5b61218d8484612050565b946020939093013593505050565b6000602082840312156121ac578081fd5b81518015158114611669578182fd5b6000602082840312156121cc578081fd5b5035919050565b600080604083850312156121e5578182fd5b50508035926020909101359150565b6001600160a01b03808251168352806020830151166020840152506040810151604083015260608101516060830152608081015160808301525050565b6bffffffffffffffffffffffff19606093841b811682529190921b16601482015260280190565b6000825161226a81846020870161284a565b9190910192915050565b6001600160a01b0391909116815260200190565b6001600160a01b039384168152919092166020820152604081019190915260600190565b6001600160a01b03929092168252602082015260400190565b6001600160a01b039390931683526020830191909152604082015260600190565b602080825282518282018190526000919060409081850190868401855b82811015612380578151805185528681015187860152858101516001600160a01b0390811687870152606080830151909116908601526080808201519086015260a0808201519086015260c0808201519086015260e0908101519061236a818701836121f4565b5050610180939093019290850190600101612303565b5091979650505050505050565b901515815260200190565b60006020825282518060208401526123b781604085016020870161284a565b601f01601f19169190910160400192915050565b6020808252601f908201527f5472616e7366657248656c7065723a205452414e534645525f4641494c454400604082015260600190565b60208082526026908201527f4f776e61626c653a206e6577206f776e657220697320746865207a65726f206160408201527f6464726573730000000000000000000000000000000000000000000000000000606082015260800190565b60208082526017908201527f696e76616c696420706172616d20657870697265644174000000000000000000604082015260600190565b60208082526021908201527f536166654d6174683a206d756c7469706c69636174696f6e206f766572666c6f60408201527f7700000000000000000000000000000000000000000000000000000000000000606082015260800190565b6020808252818101527f4f776e61626c653a2063616c6c6572206973206e6f7420746865206f776e6572604082015260600190565b60208082526016908201527f616d6f756e74206e6f74207472616e7366657220696e00000000000000000000604082015260600190565b60208082526013908201527f6e6f7420656e6f75676820616d6f756e74496e00000000000000000000000000604082015260600190565b60208082526014908201527f63616e63656c4f726465723a206e6f2061757468000000000000000000000000604082015260600190565b60208082526014908201527f6c657373207468616e206d696e20616d6f756e74000000000000000000000000604082015260600190565b60208082526023908201527f5472616e7366657248656c7065723a204554485f5452414e534645525f46414960408201527f4c45440000000000000000000000000000000000000000000000000000000000606082015260800190565b6020808252601a908201527f63616e63656c4d617267696e4f726465723a206e6f2061757468000000000000604082015260600190565b60208082526011908201527f6f7264657220626f6f6b20636c6f736564000000000000000000000000000000604082015260600190565b6020808252600f908201527f6964656e746963616c20746f6b656e0000000000000000000000000000000000604082015260600190565b60208082526010908201527f6e6f7420656e6f75676820617373657400000000000000000000000000000000604082015260600190565b60208082526024908201527f5472616e7366657248656c7065723a205452414e534645525f46524f4d5f464160408201527f494c454400000000000000000000000000000000000000000000000000000000606082015260800190565b6020808252601f908201527f5265656e7472616e637947756172643a207265656e7472616e742063616c6c00604082015260600190565b90815260200190565b888152602081018890526001600160a01b038781166040830152861660608201526080810185905260a0810184905260c08101839052610180810161282260e08301846121f4565b9998505050505050505050565b93845260208401929092526040830152606082015260800190565b60005b8381101561286557818101518382015260200161284d565b83811115612874576000848401525b50505050565b6001600160a01b038116811461288f57600080fd5b5056fea2646970667358221220185b2945717cbc6bd423cf0fade11455a19275f7634e41c66205b602afdeade064736f6c634300060c0033",
  "linkReferences": {},
  "deployedLinkReferences": {}
}