{
  "_format": "hh-sol-artifact-1",
  "contractName": "OrderBook",
  "sourceName": "contracts/swap/orderbook/Orderbook.sol",
  "abi": [
    {
      "inputs": [
        {
          "internalType": "address",
          "name": "_router",
          "type": "address"
        },
        {
          "internalType": "address",
          "name": "_ctokenFactory",
          "type": "address"
        },
        {
          "internalType": "address",
          "name": "_wETH",
          "type": "address"
        },
        {
          "internalType": "address",
          "name": "_margin",
          "type": "address"
        }
      ],
      "stateMutability": "nonpayable",
      "type": "constructor"
    },
    {
      "anonymous": false,
      "inputs": [
        {
          "indexed": true,
          "internalType": "address",
          "name": "owner",
          "type": "address"
        },
        {
          "indexed": false,
          "internalType": "uint256",
          "name": "orderId",
          "type": "uint256"
        }
      ],
      "name": "CancelOrder",
      "type": "event"
    },
    {
      "anonymous": false,
      "inputs": [
        {
          "indexed": true,
          "internalType": "address",
          "name": "owner",
          "type": "address"
        },
        {
          "indexed": true,
          "internalType": "address",
          "name": "srcToken",
          "type": "address"
        },
        {
          "indexed": true,
          "internalType": "address",
          "name": "destToken",
          "type": "address"
        },
        {
          "indexed": false,
          "internalType": "uint256",
          "name": "orderId",
          "type": "uint256"
        },
        {
          "indexed": false,
          "internalType": "uint256",
          "name": "amountIn",
          "type": "uint256"
        },
        {
          "indexed": false,
          "internalType": "uint256",
          "name": "minAmountOut",
          "type": "uint256"
        },
        {
          "indexed": false,
          "internalType": "uint256",
          "name": "flag",
          "type": "uint256"
        }
      ],
      "name": "CreateOrder",
      "type": "event"
    },
    {
      "anonymous": false,
      "inputs": [
        {
          "indexed": true,
          "internalType": "address",
          "name": "maker",
          "type": "address"
        },
        {
          "indexed": true,
          "internalType": "address",
          "name": "taker",
          "type": "address"
        },
        {
          "indexed": false,
          "internalType": "uint256",
          "name": "orderId",
          "type": "uint256"
        },
        {
          "indexed": false,
          "internalType": "uint256",
          "name": "amt",
          "type": "uint256"
        },
        {
          "indexed": false,
          "internalType": "uint256",
          "name": "amtOut",
          "type": "uint256"
        },
        {
          "indexed": false,
          "internalType": "uint256",
          "name": "remaining",
          "type": "uint256"
        }
      ],
      "name": "FulFilOrder",
      "type": "event"
    },
    {
      "anonymous": false,
      "inputs": [
        {
          "indexed": true,
          "internalType": "address",
          "name": "previousOwner",
          "type": "address"
        },
        {
          "indexed": true,
          "internalType": "address",
          "name": "newOwner",
          "type": "address"
        }
      ],
      "name": "OwnershipTransferred",
      "type": "event"
    },
    {
      "inputs": [
        {
          "internalType": "uint256",
          "name": "id",
          "type": "uint256"
        }
      ],
      "name": "addrIndex",
      "outputs": [
        {
          "internalType": "uint256",
          "name": "",
          "type": "uint256"
        }
      ],
      "stateMutability": "pure",
      "type": "function"
    },
    {
      "inputs": [
        {
          "internalType": "address",
          "name": "",
          "type": "address"
        },
        {
          "internalType": "uint256",
          "name": "",
          "type": "uint256"
        }
      ],
      "name": "addressOrders",
      "outputs": [
        {
          "internalType": "uint256",
          "name": "",
          "type": "uint256"
        }
      ],
      "stateMutability": "view",
      "type": "function"
    },
    {
      "inputs": [
        {
          "internalType": "address",
          "name": "token",
          "type": "address"
        },
        {
          "internalType": "address",
          "name": "to",
          "type": "address"
        },
        {
          "internalType": "uint256",
          "name": "amt",
          "type": "uint256"
        }
      ],
      "name": "adminTransfer",
      "outputs": [],
      "stateMutability": "nonpayable",
      "type": "function"
    },
    {
      "inputs": [
        {
          "internalType": "address",
          "name": "",
          "type": "address"
        },
        {
          "internalType": "address",
          "name": "",
          "type": "address"
        }
      ],
      "name": "balanceOf",
      "outputs": [
        {
          "internalType": "uint256",
          "name": "",
          "type": "uint256"
        }
      ],
      "stateMutability": "view",
      "type": "function"
    },
    {
      "inputs": [
        {
          "internalType": "uint256",
          "name": "orderId",
          "type": "uint256"
        }
      ],
      "name": "cancelOrder",
      "outputs": [],
      "stateMutability": "nonpayable",
      "type": "function"
    },
    {
      "inputs": [],
      "name": "closeOrderBook",
      "outputs": [],
      "stateMutability": "nonpayable",
      "type": "function"
    },
    {
      "inputs": [],
      "name": "closed",
      "outputs": [
        {
          "internalType": "bool",
          "name": "",
          "type": "bool"
        }
      ],
      "stateMutability": "view",
      "type": "function"
    },
    {
      "inputs": [
        {
          "internalType": "address",
          "name": "srcToken",
          "type": "address"
        },
        {
          "internalType": "address",
          "name": "destToken",
          "type": "address"
        },
        {
          "internalType": "address",
          "name": "from",
          "type": "address"
        },
        {
          "internalType": "address",
          "name": "to",
          "type": "address"
        },
        {
          "internalType": "uint256",
          "name": "amountIn",
          "type": "uint256"
        },
        {
          "internalType": "uint256",
          "name": "guaranteeAmountOut",
          "type": "uint256"
        },
        {
          "internalType": "uint256",
          "name": "expiredAt",
          "type": "uint256"
        },
        {
          "internalType": "uint256",
          "name": "flag",
          "type": "uint256"
        }
      ],
      "name": "createOrder",
      "outputs": [
        {
          "internalType": "uint256",
          "name": "",
          "type": "uint256"
        }
      ],
      "stateMutability": "payable",
      "type": "function"
    },
    {
      "inputs": [],
      "name": "ctokenFactory",
      "outputs": [
        {
          "internalType": "address",
          "name": "",
          "type": "address"
        }
      ],
      "stateMutability": "view",
      "type": "function"
    },
    {
      "inputs": [],
      "name": "feeRate",
      "outputs": [
        {
          "internalType": "uint256",
          "name": "",
          "type": "uint256"
        }
      ],
      "stateMutability": "view",
      "type": "function"
    },
    {
      "inputs": [
        {
          "internalType": "uint256",
          "name": "orderId",
          "type": "uint256"
        },
        {
          "internalType": "uint256",
          "name": "amtToTaken",
          "type": "uint256"
        }
      ],
      "name": "fulfilOrder",
      "outputs": [
        {
          "internalType": "bool",
          "name": "",
          "type": "bool"
        }
      ],
      "stateMutability": "payable",
      "type": "function"
    },
    {
      "inputs": [
        {
          "internalType": "uint256",
          "name": "ts",
          "type": "uint256"
        }
      ],
      "name": "getExpiredAt",
      "outputs": [
        {
          "internalType": "uint256",
          "name": "",
          "type": "uint256"
        }
      ],
      "stateMutability": "pure",
      "type": "function"
    },
    {
      "inputs": [],
      "name": "getFeeRate",
      "outputs": [
        {
          "internalType": "uint256",
          "name": "",
          "type": "uint256"
        }
      ],
      "stateMutability": "view",
      "type": "function"
    },
    {
      "inputs": [
        {
          "internalType": "uint256",
          "name": "flag",
          "type": "uint256"
        }
      ],
      "name": "isMargin",
      "outputs": [
        {
          "internalType": "bool",
          "name": "",
          "type": "bool"
        }
      ],
      "stateMutability": "pure",
      "type": "function"
    },
    {
      "inputs": [],
      "name": "marginAddr",
      "outputs": [
        {
          "internalType": "address",
          "name": "",
          "type": "address"
        }
      ],
      "stateMutability": "view",
      "type": "function"
    },
    {
      "inputs": [
        {
          "internalType": "address",
          "name": "",
          "type": "address"
        },
        {
          "internalType": "uint256",
          "name": "",
          "type": "uint256"
        }
      ],
      "name": "marginOrders",
      "outputs": [
        {
          "internalType": "uint256",
          "name": "",
          "type": "uint256"
        }
      ],
      "stateMutability": "view",
      "type": "function"
    },
    {
      "inputs": [
        {
          "internalType": "uint256",
          "name": "pairIdx",
          "type": "uint256"
        },
        {
          "internalType": "uint256",
          "name": "addrIdx",
          "type": "uint256"
        }
      ],
      "name": "maskAddrPairIndex",
      "outputs": [
        {
          "internalType": "uint256",
          "name": "",
          "type": "uint256"
        }
      ],
      "stateMutability": "pure",
      "type": "function"
    },
    {
      "inputs": [
        {
          "internalType": "uint256",
          "name": "ts",
          "type": "uint256"
        },
        {
          "internalType": "uint256",
          "name": "expired",
          "type": "uint256"
        }
      ],
      "name": "maskTimestamp",
      "outputs": [
        {
          "internalType": "uint256",
          "name": "",
          "type": "uint256"
        }
      ],
      "stateMutability": "pure",
      "type": "function"
    },
    {
      "inputs": [
        {
          "internalType": "address",
          "name": "",
          "type": "address"
        }
      ],
      "name": "minAmounts",
      "outputs": [
        {
          "internalType": "uint256",
          "name": "",
          "type": "uint256"
        }
      ],
      "stateMutability": "view",
      "type": "function"
    },
    {
      "inputs": [],
      "name": "minBuyAmt",
      "outputs": [
        {
          "internalType": "uint256",
          "name": "",
          "type": "uint256"
        }
      ],
      "stateMutability": "view",
      "type": "function"
    },
    {
      "inputs": [],
      "name": "minSellAmt",
      "outputs": [
        {
          "internalType": "uint256",
          "name": "",
          "type": "uint256"
        }
      ],
      "stateMutability": "view",
      "type": "function"
    },
    {
      "inputs": [],
      "name": "openOrderBook",
      "outputs": [],
      "stateMutability": "nonpayable",
      "type": "function"
    },
    {
      "inputs": [],
      "name": "orderId",
      "outputs": [
        {
          "internalType": "uint256",
          "name": "",
          "type": "uint256"
        }
      ],
      "stateMutability": "view",
      "type": "function"
    },
    {
      "inputs": [
        {
          "internalType": "uint256",
          "name": "",
          "type": "uint256"
        }
      ],
      "name": "orders",
      "outputs": [
        {
          "internalType": "uint256",
          "name": "orderId",
          "type": "uint256"
        },
        {
          "internalType": "uint256",
          "name": "pairAddrIdx",
          "type": "uint256"
        },
        {
          "internalType": "address",
          "name": "owner",
          "type": "address"
        },
        {
          "internalType": "address",
          "name": "to",
          "type": "address"
        },
        {
          "internalType": "uint256",
          "name": "pair",
          "type": "uint256"
        },
        {
          "internalType": "uint256",
          "name": "timestamp",
          "type": "uint256"
        },
        {
          "internalType": "uint256",
          "name": "flag",
          "type": "uint256"
        },
        {
          "components": [
            {
              "internalType": "address",
              "name": "srcToken",
              "type": "address"
            },
            {
              "internalType": "address",
              "name": "destToken",
              "type": "address"
            },
            {
              "internalType": "uint256",
              "name": "amountIn",
              "type": "uint256"
            },
            {
              "internalType": "uint256",
              "name": "fulfiled",
              "type": "uint256"
            },
            {
              "internalType": "uint256",
              "name": "guaranteeAmountOut",
              "type": "uint256"
            }
          ],
          "internalType": "struct OBStorage.TokenAmount",
          "name": "tokenAmt",
          "type": "tuple"
        }
      ],
      "stateMutability": "view",
      "type": "function"
    },
    {
      "inputs": [],
      "name": "owner",
      "outputs": [
        {
          "internalType": "address",
          "name": "",
          "type": "address"
        }
      ],
      "stateMutability": "view",
      "type": "function"
    },
    {
      "inputs": [
        {
          "internalType": "address",
          "name": "srcToken",
          "type": "address"
        },
        {
          "internalType": "address",
          "name": "destToken",
          "type": "address"
        }
      ],
      "name": "pairFor",
      "outputs": [
        {
          "internalType": "uint256",
          "name": "pair",
          "type": "uint256"
        }
      ],
      "stateMutability": "view",
      "type": "function"
    },
    {
      "inputs": [
        {
          "internalType": "uint256",
          "name": "id",
          "type": "uint256"
        }
      ],
      "name": "pairIndex",
      "outputs": [
        {
          "internalType": "uint256",
          "name": "",
          "type": "uint256"
        }
      ],
      "stateMutability": "pure",
      "type": "function"
    },
    {
      "inputs": [
        {
          "internalType": "uint256",
          "name": "",
          "type": "uint256"
        },
        {
          "internalType": "uint256",
          "name": "",
          "type": "uint256"
        }
      ],
      "name": "pairOrders",
      "outputs": [
        {
          "internalType": "uint256",
          "name": "",
          "type": "uint256"
        }
      ],
      "stateMutability": "view",
      "type": "function"
    },
    {
      "inputs": [],
      "name": "priceRatio",
      "outputs": [
        {
          "internalType": "uint256",
          "name": "",
          "type": "uint256"
        }
      ],
      "stateMutability": "view",
      "type": "function"
    },
    {
      "inputs": [],
      "name": "renounceOwnership",
      "outputs": [],
      "stateMutability": "nonpayable",
      "type": "function"
    },
    {
      "inputs": [],
      "name": "router",
      "outputs": [
        {
          "internalType": "address",
          "name": "",
          "type": "address"
        }
      ],
      "stateMutability": "view",
      "type": "function"
    },
    {
      "inputs": [
        {
          "internalType": "address",
          "name": "token",
          "type": "address"
        },
        {
          "internalType": "uint256",
          "name": "amt",
          "type": "uint256"
        }
      ],
      "name": "setMinOrderAmount",
      "outputs": [],
      "stateMutability": "nonpayable",
      "type": "function"
    },
    {
      "inputs": [
        {
          "internalType": "address",
          "name": "_swapMininng",
          "type": "address"
        }
      ],
      "name": "setSwapMining",
      "outputs": [],
      "stateMutability": "nonpayable",
      "type": "function"
    },
    {
      "inputs": [],
      "name": "swapMining",
      "outputs": [
        {
          "internalType": "address",
          "name": "",
          "type": "address"
        }
      ],
      "stateMutability": "view",
      "type": "function"
    },
    {
      "inputs": [
        {
          "internalType": "address",
          "name": "newOwner",
          "type": "address"
        }
      ],
      "name": "transferOwnership",
      "outputs": [],
      "stateMutability": "nonpayable",
      "type": "function"
    },
    {
      "inputs": [
        {
          "internalType": "uint256",
          "name": "idx",
          "type": "uint256"
        },
        {
          "internalType": "uint256",
          "name": "addrIdx",
          "type": "uint256"
        }
      ],
      "name": "updateAddrIdx",
      "outputs": [
        {
          "internalType": "uint256",
          "name": "",
          "type": "uint256"
        }
      ],
      "stateMutability": "pure",
      "type": "function"
    },
    {
      "inputs": [
        {
          "internalType": "uint256",
          "name": "idx",
          "type": "uint256"
        },
        {
          "internalType": "uint256",
          "name": "pairIdx",
          "type": "uint256"
        }
      ],
      "name": "updatePairIdx",
      "outputs": [
        {
          "internalType": "uint256",
          "name": "",
          "type": "uint256"
        }
      ],
      "stateMutability": "pure",
      "type": "function"
    },
    {
      "inputs": [],
      "name": "wETH",
      "outputs": [
        {
          "internalType": "address",
          "name": "",
          "type": "address"
        }
      ],
      "stateMutability": "view",
      "type": "function"
    },
    {
      "inputs": [
        {
          "internalType": "address",
          "name": "token",
          "type": "address"
        },
        {
          "internalType": "uint256",
          "name": "amt",
          "type": "uint256"
        }
      ],
      "name": "withdraw",
      "outputs": [],
      "stateMutability": "nonpayable",
      "type": "function"
    }
  ],
  "bytecode": "0x60806040526c0c9f2c9cd04674edea40000000600155601e600a553480156200002757600080fd5b5060405162002738380380620027388339810160408190526200004a916200012c565b6000620000566200010a565b600080546001600160a01b0319166001600160a01b0383169081178255604051929350917f8be0079c531659141344cd1fd0a4f28419497f9722a3daafe3b4186f6b6457e0908290a3506011805460ff19166001179055600380546001600160a01b0395861661010002610100600160a81b0319909116179055600480549285166001600160a01b03199384161790556005805493851693831693909317909255600680549290931691161790556200018c565b3390565b80516001600160a01b03811681146200012657600080fd5b92915050565b6000806000806080858703121562000142578384fd5b6200014e86866200010e565b93506200015f86602087016200010e565b92506200017086604087016200010e565b91506200018186606087016200010e565b905092959194509250565b61259c806200019c6000396000f3fe6080604052600436106102a05760003560e01c8063862d77ba1161016e578063c0e863c3116100cb578063f2fde38b1161007f578063f7888aec11610064578063f7888aec1461066c578063f887ea401461068c578063fbd2eb7c146106a1576102a0565b8063f2fde38b1461062c578063f3fef3a31461064c576102a0565b8063da72c1e8116100b0578063da72c1e8146105f7578063e4fc9e5b1461041d578063f242862114610617576102a0565b8063c0e863c3146105d7578063d7755b8b146104dc576102a0565b80639c5e52d511610122578063a66eb9ac11610107578063a66eb9ac1461057b578063a85c38ef14610590578063b0c1b289146105c4576102a0565b80639c5e52d514610546578063a04310d914610566576102a0565b80638da5cb5b116101535780638da5cb5b146104fc57806396ed28f914610511578063978bbdb914610531576102a0565b8063862d77ba146104bc5780638add99f7146104dc576102a0565b80634f8871831161021c5780636d0b6a6c116101d05780637623cccb116101b55780637623cccb14610472578063803289fe1461049257806384e5eed0146104a7576102a0565b80636d0b6a6c1461043d578063715018a61461045d576102a0565b806352e86d5b1161020157806352e86d5b146103e8578063597e1fb514610408578063613436bc1461041d576102a0565b80634f887183146103a6578063514fcac7146103c8576102a0565b806325c9e27611610273578063415e63b811610258578063415e63b81461035c57806345e660711461037c5780634e5eda1114610391576102a0565b806325c9e276146103255780633623cd3d14610347576102a0565b80630aa2f420146102a5578063163de5e5146102d05780631cf60222146102e55780631d20980a14610305575b600080fd5b3480156102b157600080fd5b506102ba6106c1565b6040516102c79190612469565b60405180910390f35b3480156102dc57600080fd5b506102ba6106c7565b3480156102f157600080fd5b506102ba610300366004611f0e565b6106cd565b34801561031157600080fd5b506102ba610320366004611f58565b6106fb565b34801561033157600080fd5b5061033a610710565b6040516102c79190611fd4565b34801561035357600080fd5b506102ba61071f565b61036f61036a366004611f70565b610725565b6040516102c79190612025565b34801561038857600080fd5b5061033a610a3a565b34801561039d57600080fd5b5061033a610a49565b3480156103b257600080fd5b506103c66103c1366004611e04565b610a58565b005b3480156103d457600080fd5b506103c66103e3366004611f58565b610ab9565b3480156103f457600080fd5b506102ba610403366004611f70565b610d19565b34801561041457600080fd5b5061036f610d32565b34801561042957600080fd5b506102ba610438366004611f58565b610d3b565b34801561044957600080fd5b506102ba610458366004611f70565b610d41565b34801561046957600080fd5b506103c6610d5f565b34801561047e57600080fd5b5061036f61048d366004611f58565b610de8565b34801561049e57600080fd5b506103c6610e0f565b3480156104b357600080fd5b506102ba610e5a565b3480156104c857600080fd5b506102ba6104d7366004611f70565b610e60565b3480156104e857600080fd5b506102ba6104f7366004611f70565b610e7a565b34801561050857600080fd5b5061033a610e81565b34801561051d57600080fd5b506102ba61052c366004611e1f565b610e90565b34801561053d57600080fd5b506102ba610f2a565b34801561055257600080fd5b506102ba610561366004611e04565b610f30565b34801561057257600080fd5b506102ba610f42565b34801561058757600080fd5b506103c6610f48565b34801561059c57600080fd5b506105b06105ab366004611f58565b610f96565b6040516102c7989796959493929190612472565b6102ba6105d2366004611e53565b611023565b3480156105e357600080fd5b506103c66105f2366004611f0e565b61125c565b34801561060357600080fd5b506103c6610612366004611ece565b6112b7565b34801561062357600080fd5b5061033a611324565b34801561063857600080fd5b506103c6610647366004611e04565b611333565b34801561065857600080fd5b506103c6610667366004611f0e565b6113f3565b34801561067857600080fd5b506102ba610687366004611e1f565b611496565b34801561069857600080fd5b5061033a6114b3565b3480156106ad57600080fd5b506102ba6106bc366004611f0e565b6114c7565b60015481565b60025481565b600e60205281600052604060002081815481106106e657fe5b90600052602060002001600091509150505481565b6fffffffffffffffffffffffffffffffff1690565b6005546001600160a01b031681565b60095481565b60035460009060ff16156107545760405162461bcd60e51b815260040161074b90612330565b60405180910390fd5b60115460ff166107765760405162461bcd60e51b815260040161074b90612432565b6011805460ff191690556000838152600d60205260408120600581015490919061079f90610d3b565b905080158015906107af57504281105b156107c8576107bd85610ab9565b600092505050610a27565b6006820154600116156107e057600092505050610a27565b600a82015460098301546000916107f791906114e0565b90508481101561080d5760009350505050610a27565b60088301546009840154600b8501546001600160a01b03909216916000916108409161083a908a90611529565b90611563565b9050600061084c610e5a565b9050600061086061271061083a8b85611529565b9050600061087461271061083a8686611529565b600789015460088a015460028b015460068c01549394506108b7936001600160a01b039384169392831692909116903390879087906108b290610de8565b6115a5565b6001600160a01b0385166108ea57833410156108e55760405162461bcd60e51b815260040161074b906121c0565b6108f6565b6108f68533308761160d565b600a880180548b0190556002880154604051968b90039633916001600160a01b0316907fc4da0ed5c63d261a1e04ac35307957a9d404d4a3e6e9dc446ae24589147da94f9061094c908f908f908a908d906124f7565b60405180910390a385610a1a5760068801805460019081179182905560408051610100810182528b548152918b015460208084019190915260028c01546001600160a01b039081168484015260038d0154811660608086019190915260048e015460808087019190915260058f015460a08088019190915260c08701979097528451968701855260078f01548316875260088f01549092169286019290925260098d015492850192909252600a8c015490840152600b8b01549083015260e0810191909152610a1a90611713565b6001985050505050505050505b6011805460ff1916600117905592915050565b6006546001600160a01b031681565b6007546001600160a01b031681565b610a60611ac1565b6001600160a01b0316610a71610e81565b6001600160a01b031614610a975760405162461bcd60e51b815260040161074b9061218b565b600780546001600160a01b0319166001600160a01b0392909216919091179055565b60115460ff16610adb5760405162461bcd60e51b815260040161074b90612432565b6011805460ff191690556000818152600d602052604090206006810154610b0190610de8565b15610b5857610b0e610e81565b6001600160a01b0316336001600160a01b03161480610b3757506006546001600160a01b031633145b610b535760405162461bcd60e51b815260040161074b906122f9565b610ba7565b610b60610e81565b6001600160a01b0316336001600160a01b03161480610b8b575060028101546001600160a01b031633145b610ba75760405162461bcd60e51b815260040161074b9061222e565b60078101546001600160a01b031680610bdc576002820154600a830154610bd7916001600160a01b031690611ac5565b610bfd565b6002820154600a830154610bfd9183916001600160a01b0390911690611b52565b60028201546040516001600160a01b03909116907fc0e68d6b69f741c21e955cad2ae4d505b6f6735c7e7b278251b3f6283a5f07eb90610c3e908690612469565b60405180910390a26006820180546001908117918290556040805161010081018252855481529185015460208084019190915260028601546001600160a01b0390811684840152600387015481166060808601919091526004880154608080870191909152600589015460a08088019190915260c087019790975284519687018552600789015483168752600889015490921692860192909252600987015492850192909252600a86015490840152600b8501549083015260e0810191909152610d0790611713565b50506011805460ff1916600117905550565b601060205281600052604060002081815481106106e657fe5b60035460ff1681565b60801c90565b6000610d4c82610d3b565b610d55846106fb565b1790505b92915050565b610d67611ac1565b6001600160a01b0316610d78610e81565b6001600160a01b031614610d9e5760405162461bcd60e51b815260040161074b9061218b565b600080546040516001600160a01b03909116907f8be0079c531659141344cd1fd0a4f28419497f9722a3daafe3b4186f6b6457e0908390a3600080546001600160a01b0319169055565b7f800000000000000000000000000000000000000000000000000000000000000016151590565b610e17611ac1565b6001600160a01b0316610e28610e81565b6001600160a01b031614610e4e5760405162461bcd60e51b815260040161074b9061218b565b6003805460ff19169055565b6126f290565b6fffffffffffffffffffffffffffffffff19919091161790565b60801b1790565b6000546001600160a01b031690565b60006001600160a01b038316610eaf576004546001600160a01b031692505b6001600160a01b038216610ecc576004546001600160a01b031691505b600080836001600160a01b0316856001600160a01b031610610eef578385610ef2565b84845b915091508181604051602001610f09929190611f91565b60408051601f19818403018152919052805160209091012095945050505050565b600a5481565b600b6020526000908152604090205481565b60085481565b610f50611ac1565b6001600160a01b0316610f61610e81565b6001600160a01b031614610f875760405162461bcd60e51b815260040161074b9061218b565b6003805460ff19166001179055565b600d602090815260009182526040918290208054600182015460028301546003840154600485015460058601546006870154895160a081018b5260078901546001600160a01b03908116825260088a015481169a82019a909a5260098901549a81019a909a52600a88015460608b0152600b9097015460808a015294979396928316959190921693919288565b60035460009060ff16156110495760405162461bcd60e51b815260040161074b90612330565b60115460ff1661106b5760405162461bcd60e51b815260040161074b90612432565b6011805460ff191690556001600160a01b0389811690891614156110a15760405162461bcd60e51b815260040161074b90612367565b8215806110ad57504283115b6110c95760405162461bcd60e51b815260040161074b906120f7565b6001600160a01b03891661110a57843410156110f75760405162461bcd60e51b815260040161074b906121f7565b6004546001600160a01b03169850611116565b6111168933308861160d565b6001600160a01b0389166000908152600b6020526040902054851161114d5760405162461bcd60e51b815260040161074b90612265565b60028054600181019091556000818152600d602052604090208181556007810180546001600160a01b03808e166001600160a01b0319928316179092556008830180548d841692169190911790558916156111a857886111aa565b335b6002820180546001600160a01b0319166001600160a01b039283161790558816156111d557876111d7565b335b6003820180546001600160a01b0319166001600160a01b0392909216919091179055600981018790556000600a820155600b81018690556112184286610e7a565b60058201556006810184905561122e8b8b610e90565b600482015561123c81611c55565b600254925050506011805460ff1916600117905598975050505050505050565b611264611ac1565b6001600160a01b0316611275610e81565b6001600160a01b03161461129b5760405162461bcd60e51b815260040161074b9061218b565b6001600160a01b039091166000908152600b6020526040902055565b6112bf611ac1565b6001600160a01b03166112d0610e81565b6001600160a01b0316146112f65760405162461bcd60e51b815260040161074b9061218b565b6001600160a01b0383166113135761130e8282611ac5565b61131f565b61131f8330848461160d565b505050565b6004546001600160a01b031681565b61133b611ac1565b6001600160a01b031661134c610e81565b6001600160a01b0316146113725760405162461bcd60e51b815260040161074b9061218b565b6001600160a01b0381166113985760405162461bcd60e51b815260040161074b9061209a565b600080546040516001600160a01b03808516939216917f8be0079c531659141344cd1fd0a4f28419497f9722a3daafe3b4186f6b6457e091a3600080546001600160a01b0319166001600160a01b0392909216919091179055565b6001600160a01b0382166000908152600c60209081526040808320338452909152902054818110156114375760405162461bcd60e51b815260040161074b9061239e565b6001600160a01b0383166114545761144f3383611ac5565b611460565b6114608330338561160d565b61146a81836114e0565b6001600160a01b039093166000908152600c602090815260408083203384529091529020929092555050565b600c60209081526000928352604080842090915290825290205481565b60035461010090046001600160a01b031681565b600f60205281600052604060002081815481106106e657fe5b600061152283836040518060400160405280601e81526020017f536166654d6174683a207375627472616374696f6e206f766572666c6f770000815250611d8a565b9392505050565b60008261153857506000610d59565b8282028284828161154557fe5b04146115225760405162461bcd60e51b815260040161074b9061212e565b600061152283836040518060400160405280601a81526020017f536166654d6174683a206469766973696f6e206279207a65726f000000000000815250611db6565b80156115b0576115dc565b6001600160a01b038087166000908152600c602090815260408083209389168352929052208054830190555b6001600160a01b0387166115f9576115f48484611ac5565b611604565b611604878585611b52565b50505050505050565b60006060856001600160a01b03166323b872dd86868660405160240161163593929190611fe8565b6040516020818303038152906040529060e01b6020820180517bffffffffffffffffffffffffffffffffffffffffffffffffffffffff83818316178352505050506040516116839190611fb8565b6000604051808303816000865af19150503d80600081146116c0576040519150601f19603f3d011682016040523d82523d6000602084013e6116c5565b606091505b50915091508180156116ef5750805115806116ef5750808060200190518101906116ef9190611f38565b61170b5760405162461bcd60e51b815260040161074b906123d5565b505050505050565b600061172282602001516106fb565b905060006117338360200151610d3b565b905060008360400151905060008061174e8660c00151610de8565b90508015611882576001600160a01b0383166000908152600e6020526040902054600110801561179a57506001600160a01b0383166000908152600e6020526040902054600019018414155b15611846576001600160a01b0383166000908152600e60205260409020805460001981019081106117c757fe5b9060005260206000200154915081600e6000856001600160a01b03166001600160a01b03168152602001908152602001600020858154811061180557fe5b9060005260206000200181905550611833600d60008481526020019081526020016000206001015485610d41565b6000838152600d60205260409020600101555b6001600160a01b0383166000908152600e6020526040902080548061186757fe5b600190038181906000526020600020016000905590556119aa565b6001600160a01b0383166000908152600f602052604090205460011080156118c657506001600160a01b0383166000908152600f6020526040902054600019018414155b15611972576001600160a01b0383166000908152600f60205260409020805460001981019081106118f357fe5b9060005260206000200154915081600f6000856001600160a01b03166001600160a01b03168152602001908152602001600020858154811061193157fe5b906000526020600020018190555061195f600d60008481526020019081526020016000206001015485610d41565b6000838152600d60205260409020600101555b6001600160a01b0383166000908152600f6020526040902080548061199357fe5b600190038181906000526020600020016000905590555b608086015160009081526010602052604090205460011080156119e457506080860151600090815260106020526040902054600019018514155b15611a8757608086018051600090815260106020526040808220925182529020548154600019909101908110611a1657fe5b906000526020600020015491508160106000886080015181526020019081526020016000208681548110611a4657fe5b9060005260206000200181905550611a74600d60008481526020019081526020016000206001015486610e60565b6000838152600d60205260409020600101555b60808601516000908152601060205260409020805480611aa357fe5b60019003818190600052602060002001600090559055505050505050565b3390565b604080516000808252602082019092526001600160a01b038416908390604051611aef9190611fb8565b60006040518083038185875af1925050503d8060008114611b2c576040519150601f19603f3d011682016040523d82523d6000602084013e611b31565b606091505b505090508061131f5760405162461bcd60e51b815260040161074b9061229c565b60006060846001600160a01b031663a9059cbb8585604051602401611b7892919061200c565b6040516020818303038152906040529060e01b6020820180517bffffffffffffffffffffffffffffffffffffffffffffffffffffffff8381831617835250505050604051611bc69190611fb8565b6000604051808303816000865af19150503d8060008114611c03576040519150601f19603f3d011682016040523d82523d6000602084013e611c08565b606091505b5091509150818015611c32575080511580611c32575080806020019051810190611c329190611f38565b611c4e5760405162461bcd60e51b815260040161074b90612063565b5050505050565b80546006820154600090611c6890610de8565b90506000808215611caa5760028501546001600160a01b03166000908152600e6020908152604082208054600181018255908352912081018590559150611cdd565b60028501546001600160a01b03166000908152600f60209081526040822080546001810182559083529120810185905591505b50600484015460009081526010602090815260408220805460018101825590835291208101849055611d0f8183610e7a565b60018601556008850154600786015460028701546009880154600b89015460068a01546040516001600160a01b039687169695861695909416937fc8419e5c94126588374d91d4332ef5d56223abb9c42776b667e899ccff2c5f2793611d7b938c9391929091906124f7565b60405180910390a45050505050565b60008184841115611dae5760405162461bcd60e51b815260040161074b9190612030565b505050900390565b60008183611dd75760405162461bcd60e51b815260040161074b9190612030565b506000838581611de357fe5b0495945050505050565b80356001600160a01b0381168114610d5957600080fd5b600060208284031215611e15578081fd5b6115228383611ded565b60008060408385031215611e31578081fd5b611e3b8484611ded565b9150611e4a8460208501611ded565b90509250929050565b600080600080600080600080610100898b031215611e6f578384fd5b611e798a8a611ded565b9750611e888a60208b01611ded565b9650611e978a60408b01611ded565b9550611ea68a60608b01611ded565b979a969950949760808101359660a0820135965060c0820135955060e0909101359350915050565b600080600060608486031215611ee2578283fd5b8335611eed8161254e565b92506020840135611efd8161254e565b929592945050506040919091013590565b60008060408385031215611f20578182fd5b611f2a8484611ded565b946020939093013593505050565b600060208284031215611f49578081fd5b81518015158114611522578182fd5b600060208284031215611f69578081fd5b5035919050565b60008060408385031215611f82578182fd5b50508035926020909101359150565b6bffffffffffffffffffffffff19606093841b811682529190921b16601482015260280190565b60008251611fca81846020870161251e565b9190910192915050565b6001600160a01b0391909116815260200190565b6001600160a01b039384168152919092166020820152604081019190915260600190565b6001600160a01b03929092168252602082015260400190565b901515815260200190565b600060208252825180602084015261204f81604085016020870161251e565b601f01601f19169190910160400192915050565b6020808252601f908201527f5472616e7366657248656c7065723a205452414e534645525f4641494c454400604082015260600190565b60208082526026908201527f4f776e61626c653a206e6577206f776e657220697320746865207a65726f206160408201527f6464726573730000000000000000000000000000000000000000000000000000606082015260800190565b60208082526017908201527f696e76616c696420706172616d20657870697265644174000000000000000000604082015260600190565b60208082526021908201527f536166654d6174683a206d756c7469706c69636174696f6e206f766572666c6f60408201527f7700000000000000000000000000000000000000000000000000000000000000606082015260800190565b6020808252818101527f4f776e61626c653a2063616c6c6572206973206e6f7420746865206f776e6572604082015260600190565b60208082526016908201527f616d6f756e74206e6f74207472616e7366657220696e00000000000000000000604082015260600190565b60208082526013908201527f6e6f7420656e6f75676820616d6f756e74496e00000000000000000000000000604082015260600190565b60208082526014908201527f63616e63656c4f726465723a206e6f2061757468000000000000000000000000604082015260600190565b60208082526014908201527f6c657373207468616e206d696e20616d6f756e74000000000000000000000000604082015260600190565b60208082526023908201527f5472616e7366657248656c7065723a204554485f5452414e534645525f46414960408201527f4c45440000000000000000000000000000000000000000000000000000000000606082015260800190565b6020808252601a908201527f63616e63656c4d617267696e4f726465723a206e6f2061757468000000000000604082015260600190565b60208082526011908201527f6f7264657220626f6f6b20636c6f736564000000000000000000000000000000604082015260600190565b6020808252600f908201527f6964656e746963616c20746f6b656e0000000000000000000000000000000000604082015260600190565b60208082526010908201527f6e6f7420656e6f75676820617373657400000000000000000000000000000000604082015260600190565b60208082526024908201527f5472616e7366657248656c7065723a205452414e534645525f46524f4d5f464160408201527f494c454400000000000000000000000000000000000000000000000000000000606082015260800190565b6020808252601f908201527f5265656e7472616e637947756172643a207265656e7472616e742063616c6c00604082015260600190565b90815260200190565b6000610180820190508982528860208301526001600160a01b03808916604084015280881660608401528660808401528560a08401528460c08401526124b88451612512565b60e08401526020840151166101008301526040830151610120830152606083015161014083015260809092015161016090910152979650505050505050565b93845260208401929092526040830152606082015260800190565b6001600160a01b031690565b60005b83811015612539578181015183820152602001612521565b83811115612548576000848401525b50505050565b6001600160a01b038116811461256357600080fd5b5056fea2646970667358221220ee9df733ac44da791e395e522e5b0a98c80d819327cc639f35ba56b9201a7c3464736f6c634300060c0033",
  "linkReferences": {},
  "deployedLinkReferences": {}
}