{
  "_format": "hh-sol-artifact-1",
  "contractName": "LeverageHoldingComptrollerStorage",
  "sourceName": "contracts/compound/LeverageHoldingInterface.sol",
  "abi": [
    {
      "constant": true,
      "inputs": [],
      "name": "admin",
      "outputs": [
        {
          "internalType": "address",
          "name": "",
          "type": "address"
        }
      ],
      "payable": false,
      "stateMutability": "view",
      "type": "function"
    },
    {
      "constant": true,
      "inputs": [],
      "name": "comptrollerImplementation",
      "outputs": [
        {
          "internalType": "address",
          "name": "",
          "type": "address"
        }
      ],
      "payable": false,
      "stateMutability": "view",
      "type": "function"
    },
    {
      "constant": true,
      "inputs": [],
      "name": "comptrollerV2",
      "outputs": [
        {
          "internalType": "contract ComptrollerInterfaceV2",
          "name": "",
          "type": "address"
        }
      ],
      "payable": false,
      "stateMutability": "view",
      "type": "function"
    },
    {
      "constant": true,
      "inputs": [],
      "name": "leverageDelegator",
      "outputs": [
        {
          "internalType": "contract LeverageHoldingInterface",
          "name": "",
          "type": "address"
        }
      ],
      "payable": false,
      "stateMutability": "view",
      "type": "function"
    },
    {
      "constant": true,
      "inputs": [],
      "name": "oracle",
      "outputs": [
        {
          "internalType": "contract PriceOracle",
          "name": "",
          "type": "address"
        }
      ],
      "payable": false,
      "stateMutability": "view",
      "type": "function"
    },
    {
      "constant": true,
      "inputs": [],
      "name": "pendingAdmin",
      "outputs": [
        {
          "internalType": "address",
          "name": "",
          "type": "address"
        }
      ],
      "payable": false,
      "stateMutability": "view",
      "type": "function"
    }
  ],
  "bytecode": "0x6080604052670de0b6b3a7640000600055670f43fc2c04ee0000600855670214e8348c4f0000600955671158e460913d0000600a55671bc16d674ec80000600b5534801561004c57600080fd5b5061012e8061005c6000396000f3fe6080604052348015600f57600080fd5b5060043610605a5760003560e01c8063106d378614605f578063267822471460815780632b8b68171460875780637dc0d1d014608d578063bb82aa5e146093578063f851a440146099575b600080fd5b6065609f565b604080516001600160a01b039092168252519081900360200190f35b606560ae565b606560bd565b606560cc565b606560db565b606560ea565b6006546001600160a01b031681565b6002546001600160a01b031681565b6007546001600160a01b031681565b6005546001600160a01b031681565b6003546001600160a01b031681565b6001546001600160a01b03168156fea265627a7a72315820c67b177397e053658a1a5805af512e1c9a4983e2b366906267f1a624ee04bf7664736f6c63430005100032",
  "linkReferences": {},
  "deployedLinkReferences": {}
}