{
  "_format": "hh-sol-artifact-1",
  "contractName": "Comptroller",
  "sourceName": "contracts/compound/Comptroller.sol",
  "abi": [
    {
      "inputs": [],
      "payable": false,
      "stateMutability": "nonpayable",
      "type": "constructor"
    },
    {
      "anonymous": false,
      "inputs": [
        {
          "indexed": false,
          "internalType": "string",
          "name": "action",
          "type": "string"
        },
        {
          "indexed": false,
          "internalType": "bool",
          "name": "pauseState",
          "type": "bool"
        }
      ],
      "name": "ActionPaused",
      "type": "event"
    },
    {
      "anonymous": false,
      "inputs": [
        {
          "indexed": false,
          "internalType": "contract CToken",
          "name": "cToken",
          "type": "address"
        },
        {
          "indexed": false,
          "internalType": "string",
          "name": "action",
          "type": "string"
        },
        {
          "indexed": false,
          "internalType": "bool",
          "name": "pauseState",
          "type": "bool"
        }
      ],
      "name": "ActionPaused",
      "type": "event"
    },
    {
      "anonymous": false,
      "inputs": [
        {
          "indexed": false,
          "internalType": "address",
          "name": "recipient",
          "type": "address"
        },
        {
          "indexed": false,
          "internalType": "uint256",
          "name": "amount",
          "type": "uint256"
        }
      ],
      "name": "CompGranted",
      "type": "event"
    },
    {
      "anonymous": false,
      "inputs": [
        {
          "indexed": true,
          "internalType": "contract CToken",
          "name": "cToken",
          "type": "address"
        },
        {
          "indexed": false,
          "internalType": "uint256",
          "name": "newSpeed",
          "type": "uint256"
        }
      ],
      "name": "CompSpeedUpdated",
      "type": "event"
    },
    {
      "anonymous": false,
      "inputs": [
        {
          "indexed": true,
          "internalType": "contract CToken",
          "name": "cToken",
          "type": "address"
        },
        {
          "indexed": true,
          "internalType": "address",
          "name": "borrower",
          "type": "address"
        },
        {
          "indexed": false,
          "internalType": "uint256",
          "name": "compDelta",
          "type": "uint256"
        },
        {
          "indexed": false,
          "internalType": "uint256",
          "name": "compBorrowIndex",
          "type": "uint256"
        }
      ],
      "name": "DistributedBorrowerComp",
      "type": "event"
    },
    {
      "anonymous": false,
      "inputs": [
        {
          "indexed": true,
          "internalType": "contract CToken",
          "name": "cToken",
          "type": "address"
        },
        {
          "indexed": true,
          "internalType": "address",
          "name": "supplier",
          "type": "address"
        },
        {
          "indexed": false,
          "internalType": "uint256",
          "name": "compDelta",
          "type": "uint256"
        },
        {
          "indexed": false,
          "internalType": "uint256",
          "name": "compSupplyIndex",
          "type": "uint256"
        }
      ],
      "name": "DistributedSupplierComp",
      "type": "event"
    },
    {
      "anonymous": false,
      "inputs": [
        {
          "indexed": false,
          "internalType": "uint256",
          "name": "error",
          "type": "uint256"
        },
        {
          "indexed": false,
          "internalType": "uint256",
          "name": "info",
          "type": "uint256"
        },
        {
          "indexed": false,
          "internalType": "uint256",
          "name": "detail",
          "type": "uint256"
        }
      ],
      "name": "Failure",
      "type": "event"
    },
    {
      "anonymous": false,
      "inputs": [
        {
          "indexed": false,
          "internalType": "contract CToken",
          "name": "cToken",
          "type": "address"
        },
        {
          "indexed": false,
          "internalType": "bool",
          "name": "isComped",
          "type": "bool"
        }
      ],
      "name": "MarketComped",
      "type": "event"
    },
    {
      "anonymous": false,
      "inputs": [
        {
          "indexed": false,
          "internalType": "contract CToken",
          "name": "cToken",
          "type": "address"
        },
        {
          "indexed": false,
          "internalType": "address",
          "name": "account",
          "type": "address"
        }
      ],
      "name": "MarketEntered",
      "type": "event"
    },
    {
      "anonymous": false,
      "inputs": [
        {
          "indexed": false,
          "internalType": "contract CToken",
          "name": "cToken",
          "type": "address"
        },
        {
          "indexed": false,
          "internalType": "address",
          "name": "account",
          "type": "address"
        }
      ],
      "name": "MarketExited",
      "type": "event"
    },
    {
      "anonymous": false,
      "inputs": [
        {
          "indexed": false,
          "internalType": "contract CToken",
          "name": "cToken",
          "type": "address"
        }
      ],
      "name": "MarketListed",
      "type": "event"
    },
    {
      "anonymous": false,
      "inputs": [
        {
          "indexed": true,
          "internalType": "contract CToken",
          "name": "cToken",
          "type": "address"
        },
        {
          "indexed": false,
          "internalType": "uint256",
          "name": "newBorrowCap",
          "type": "uint256"
        }
      ],
      "name": "NewBorrowCap",
      "type": "event"
    },
    {
      "anonymous": false,
      "inputs": [
        {
          "indexed": false,
          "internalType": "address",
          "name": "oldBorrowCapGuardian",
          "type": "address"
        },
        {
          "indexed": false,
          "internalType": "address",
          "name": "newBorrowCapGuardian",
          "type": "address"
        }
      ],
      "name": "NewBorrowCapGuardian",
      "type": "event"
    },
    {
      "anonymous": false,
      "inputs": [
        {
          "indexed": false,
          "internalType": "contract CToken",
          "name": "cToken",
          "type": "address"
        },
        {
          "indexed": false,
          "internalType": "uint256",
          "name": "oldBorrowFactorMantissa",
          "type": "uint256"
        },
        {
          "indexed": false,
          "internalType": "uint256",
          "name": "newBorrowFactorMantissa",
          "type": "uint256"
        }
      ],
      "name": "NewBorrowFactor",
      "type": "event"
    },
    {
      "anonymous": false,
      "inputs": [
        {
          "indexed": false,
          "internalType": "uint256",
          "name": "oldCloseFactorMantissa",
          "type": "uint256"
        },
        {
          "indexed": false,
          "internalType": "uint256",
          "name": "newCloseFactorMantissa",
          "type": "uint256"
        }
      ],
      "name": "NewCloseFactor",
      "type": "event"
    },
    {
      "anonymous": false,
      "inputs": [
        {
          "indexed": false,
          "internalType": "contract CToken",
          "name": "cToken",
          "type": "address"
        },
        {
          "indexed": false,
          "internalType": "uint256",
          "name": "oldCollateralFactorMantissa",
          "type": "uint256"
        },
        {
          "indexed": false,
          "internalType": "uint256",
          "name": "newCollateralFactorMantissa",
          "type": "uint256"
        }
      ],
      "name": "NewCollateralFactor",
      "type": "event"
    },
    {
      "anonymous": false,
      "inputs": [
        {
          "indexed": false,
          "internalType": "uint256",
          "name": "oldCompRate",
          "type": "uint256"
        },
        {
          "indexed": false,
          "internalType": "uint256",
          "name": "newCompRate",
          "type": "uint256"
        }
      ],
      "name": "NewCompRate",
      "type": "event"
    },
    {
      "anonymous": false,
      "inputs": [
        {
          "indexed": false,
          "internalType": "uint256",
          "name": "oldLiquidationIncentiveMantissa",
          "type": "uint256"
        },
        {
          "indexed": false,
          "internalType": "uint256",
          "name": "newLiquidationIncentiveMantissa",
          "type": "uint256"
        }
      ],
      "name": "NewLiquidationIncentive",
      "type": "event"
    },
    {
      "anonymous": false,
      "inputs": [
        {
          "indexed": false,
          "internalType": "address",
          "name": "oldPauseGuardian",
          "type": "address"
        },
        {
          "indexed": false,
          "internalType": "address",
          "name": "newPauseGuardian",
          "type": "address"
        }
      ],
      "name": "NewPauseGuardian",
      "type": "event"
    },
    {
      "anonymous": false,
      "inputs": [
        {
          "indexed": false,
          "internalType": "contract PriceOracle",
          "name": "oldPriceOracle",
          "type": "address"
        },
        {
          "indexed": false,
          "internalType": "contract PriceOracle",
          "name": "newPriceOracle",
          "type": "address"
        }
      ],
      "name": "NewPriceOracle",
      "type": "event"
    },
    {
      "constant": false,
      "inputs": [
        {
          "internalType": "address[]",
          "name": "cTokens",
          "type": "address[]"
        }
      ],
      "name": "_addCompMarkets",
      "outputs": [],
      "payable": false,
      "stateMutability": "nonpayable",
      "type": "function"
    },
    {
      "constant": true,
      "inputs": [],
      "name": "_borrowGuardianPaused",
      "outputs": [
        {
          "internalType": "bool",
          "name": "",
          "type": "bool"
        }
      ],
      "payable": false,
      "stateMutability": "view",
      "type": "function"
    },
    {
      "constant": false,
      "inputs": [
        {
          "internalType": "address",
          "name": "cToken",
          "type": "address"
        }
      ],
      "name": "_dropCompMarket",
      "outputs": [],
      "payable": false,
      "stateMutability": "nonpayable",
      "type": "function"
    },
    {
      "constant": false,
      "inputs": [
        {
          "internalType": "address",
          "name": "recipient",
          "type": "address"
        },
        {
          "internalType": "uint256",
          "name": "amount",
          "type": "uint256"
        }
      ],
      "name": "_grantComp",
      "outputs": [],
      "payable": false,
      "stateMutability": "nonpayable",
      "type": "function"
    },
    {
      "constant": true,
      "inputs": [],
      "name": "_mintGuardianPaused",
      "outputs": [
        {
          "internalType": "bool",
          "name": "",
          "type": "bool"
        }
      ],
      "payable": false,
      "stateMutability": "view",
      "type": "function"
    },
    {
      "constant": false,
      "inputs": [
        {
          "internalType": "address",
          "name": "newBorrowCapGuardian",
          "type": "address"
        }
      ],
      "name": "_setBorrowCapGuardian",
      "outputs": [],
      "payable": false,
      "stateMutability": "nonpayable",
      "type": "function"
    },
    {
      "constant": false,
      "inputs": [
        {
          "internalType": "contract CToken",
          "name": "cToken",
          "type": "address"
        },
        {
          "internalType": "uint256",
          "name": "newBorrowFactorMantissa",
          "type": "uint256"
        }
      ],
      "name": "_setBorrowFactor",
      "outputs": [
        {
          "internalType": "uint256",
          "name": "",
          "type": "uint256"
        }
      ],
      "payable": false,
      "stateMutability": "nonpayable",
      "type": "function"
    },
    {
      "constant": false,
      "inputs": [
        {
          "internalType": "contract CToken",
          "name": "cToken",
          "type": "address"
        },
        {
          "internalType": "bool",
          "name": "state",
          "type": "bool"
        }
      ],
      "name": "_setBorrowPaused",
      "outputs": [
        {
          "internalType": "bool",
          "name": "",
          "type": "bool"
        }
      ],
      "payable": false,
      "stateMutability": "nonpayable",
      "type": "function"
    },
    {
      "constant": false,
      "inputs": [
        {
          "internalType": "uint256",
          "name": "newCloseFactorMantissa",
          "type": "uint256"
        }
      ],
      "name": "_setCloseFactor",
      "outputs": [
        {
          "internalType": "uint256",
          "name": "",
          "type": "uint256"
        }
      ],
      "payable": false,
      "stateMutability": "nonpayable",
      "type": "function"
    },
    {
      "constant": false,
      "inputs": [
        {
          "internalType": "contract CToken",
          "name": "cToken",
          "type": "address"
        },
        {
          "internalType": "uint256",
          "name": "newCollateralFactorMantissa",
          "type": "uint256"
        }
      ],
      "name": "_setCollateralFactor",
      "outputs": [
        {
          "internalType": "uint256",
          "name": "",
          "type": "uint256"
        }
      ],
      "payable": false,
      "stateMutability": "nonpayable",
      "type": "function"
    },
    {
      "constant": false,
      "inputs": [
        {
          "internalType": "uint256",
          "name": "compRate_",
          "type": "uint256"
        }
      ],
      "name": "_setCompRate",
      "outputs": [],
      "payable": false,
      "stateMutability": "nonpayable",
      "type": "function"
    },
    {
      "constant": false,
      "inputs": [
        {
          "internalType": "uint256",
          "name": "newLiquidationIncentiveMantissa",
          "type": "uint256"
        }
      ],
      "name": "_setLiquidationIncentive",
      "outputs": [
        {
          "internalType": "uint256",
          "name": "",
          "type": "uint256"
        }
      ],
      "payable": false,
      "stateMutability": "nonpayable",
      "type": "function"
    },
    {
      "constant": false,
      "inputs": [
        {
          "internalType": "contract CToken[]",
          "name": "cTokens",
          "type": "address[]"
        },
        {
          "internalType": "uint256[]",
          "name": "newBorrowCaps",
          "type": "uint256[]"
        }
      ],
      "name": "_setMarketBorrowCaps",
      "outputs": [],
      "payable": false,
      "stateMutability": "nonpayable",
      "type": "function"
    },
    {
      "constant": false,
      "inputs": [
        {
          "internalType": "contract CToken",
          "name": "cToken",
          "type": "address"
        },
        {
          "internalType": "bool",
          "name": "state",
          "type": "bool"
        }
      ],
      "name": "_setMintPaused",
      "outputs": [
        {
          "internalType": "bool",
          "name": "",
          "type": "bool"
        }
      ],
      "payable": false,
      "stateMutability": "nonpayable",
      "type": "function"
    },
    {
      "constant": false,
      "inputs": [
        {
          "internalType": "address",
          "name": "newPauseGuardian",
          "type": "address"
        }
      ],
      "name": "_setPauseGuardian",
      "outputs": [
        {
          "internalType": "uint256",
          "name": "",
          "type": "uint256"
        }
      ],
      "payable": false,
      "stateMutability": "nonpayable",
      "type": "function"
    },
    {
      "constant": false,
      "inputs": [
        {
          "internalType": "contract PriceOracle",
          "name": "newOracle",
          "type": "address"
        }
      ],
      "name": "_setPriceOracle",
      "outputs": [
        {
          "internalType": "uint256",
          "name": "",
          "type": "uint256"
        }
      ],
      "payable": false,
      "stateMutability": "nonpayable",
      "type": "function"
    },
    {
      "constant": false,
      "inputs": [
        {
          "internalType": "bool",
          "name": "state",
          "type": "bool"
        }
      ],
      "name": "_setSeizePaused",
      "outputs": [
        {
          "internalType": "bool",
          "name": "",
          "type": "bool"
        }
      ],
      "payable": false,
      "stateMutability": "nonpayable",
      "type": "function"
    },
    {
      "constant": false,
      "inputs": [
        {
          "internalType": "bool",
          "name": "state",
          "type": "bool"
        }
      ],
      "name": "_setTransferPaused",
      "outputs": [
        {
          "internalType": "bool",
          "name": "",
          "type": "bool"
        }
      ],
      "payable": false,
      "stateMutability": "nonpayable",
      "type": "function"
    },
    {
      "constant": true,
      "inputs": [
        {
          "internalType": "address",
          "name": "",
          "type": "address"
        },
        {
          "internalType": "uint256",
          "name": "",
          "type": "uint256"
        }
      ],
      "name": "accountAssets",
      "outputs": [
        {
          "internalType": "contract CToken",
          "name": "",
          "type": "address"
        }
      ],
      "payable": false,
      "stateMutability": "view",
      "type": "function"
    },
    {
      "constant": true,
      "inputs": [],
      "name": "admin",
      "outputs": [
        {
          "internalType": "address",
          "name": "",
          "type": "address"
        }
      ],
      "payable": false,
      "stateMutability": "view",
      "type": "function"
    },
    {
      "constant": true,
      "inputs": [
        {
          "internalType": "uint256",
          "name": "",
          "type": "uint256"
        }
      ],
      "name": "allMarkets",
      "outputs": [
        {
          "internalType": "contract CToken",
          "name": "",
          "type": "address"
        }
      ],
      "payable": false,
      "stateMutability": "view",
      "type": "function"
    },
    {
      "constant": false,
      "inputs": [
        {
          "internalType": "address",
          "name": "cToken",
          "type": "address"
        },
        {
          "internalType": "address",
          "name": "borrower",
          "type": "address"
        },
        {
          "internalType": "uint256",
          "name": "borrowAmount",
          "type": "uint256"
        }
      ],
      "name": "borrowAllowed",
      "outputs": [
        {
          "internalType": "uint256",
          "name": "",
          "type": "uint256"
        }
      ],
      "payable": false,
      "stateMutability": "nonpayable",
      "type": "function"
    },
    {
      "constant": true,
      "inputs": [],
      "name": "borrowCapGuardian",
      "outputs": [
        {
          "internalType": "address",
          "name": "",
          "type": "address"
        }
      ],
      "payable": false,
      "stateMutability": "view",
      "type": "function"
    },
    {
      "constant": true,
      "inputs": [
        {
          "internalType": "address",
          "name": "",
          "type": "address"
        }
      ],
      "name": "borrowCaps",
      "outputs": [
        {
          "internalType": "uint256",
          "name": "",
          "type": "uint256"
        }
      ],
      "payable": false,
      "stateMutability": "view",
      "type": "function"
    },
    {
      "constant": true,
      "inputs": [
        {
          "internalType": "address",
          "name": "",
          "type": "address"
        }
      ],
      "name": "borrowGuardianPaused",
      "outputs": [
        {
          "internalType": "bool",
          "name": "",
          "type": "bool"
        }
      ],
      "payable": false,
      "stateMutability": "view",
      "type": "function"
    },
    {
      "constant": false,
      "inputs": [
        {
          "internalType": "address",
          "name": "cToken",
          "type": "address"
        },
        {
          "internalType": "address",
          "name": "borrower",
          "type": "address"
        },
        {
          "internalType": "uint256",
          "name": "borrowAmount",
          "type": "uint256"
        }
      ],
      "name": "borrowVerify",
      "outputs": [],
      "payable": false,
      "stateMutability": "nonpayable",
      "type": "function"
    },
    {
      "constant": false,
      "inputs": [
        {
          "internalType": "address",
          "name": "holder",
          "type": "address"
        },
        {
          "internalType": "contract CToken[]",
          "name": "cTokens",
          "type": "address[]"
        }
      ],
      "name": "claimComp",
      "outputs": [],
      "payable": false,
      "stateMutability": "nonpayable",
      "type": "function"
    },
    {
      "constant": false,
      "inputs": [
        {
          "internalType": "address[]",
          "name": "holders",
          "type": "address[]"
        },
        {
          "internalType": "contract CToken[]",
          "name": "cTokens",
          "type": "address[]"
        },
        {
          "internalType": "bool",
          "name": "borrowers",
          "type": "bool"
        },
        {
          "internalType": "bool",
          "name": "suppliers",
          "type": "bool"
        }
      ],
      "name": "claimComp",
      "outputs": [],
      "payable": false,
      "stateMutability": "nonpayable",
      "type": "function"
    },
    {
      "constant": false,
      "inputs": [
        {
          "internalType": "address",
          "name": "holder",
          "type": "address"
        }
      ],
      "name": "claimComp",
      "outputs": [],
      "payable": false,
      "stateMutability": "nonpayable",
      "type": "function"
    },
    {
      "constant": true,
      "inputs": [],
      "name": "closeFactorMantissa",
      "outputs": [
        {
          "internalType": "uint256",
          "name": "",
          "type": "uint256"
        }
      ],
      "payable": false,
      "stateMutability": "view",
      "type": "function"
    },
    {
      "constant": true,
      "inputs": [
        {
          "internalType": "address",
          "name": "",
          "type": "address"
        }
      ],
      "name": "compAccrued",
      "outputs": [
        {
          "internalType": "uint256",
          "name": "",
          "type": "uint256"
        }
      ],
      "payable": false,
      "stateMutability": "view",
      "type": "function"
    },
    {
      "constant": true,
      "inputs": [
        {
          "internalType": "address",
          "name": "",
          "type": "address"
        }
      ],
      "name": "compBorrowState",
      "outputs": [
        {
          "internalType": "uint224",
          "name": "index",
          "type": "uint224"
        },
        {
          "internalType": "uint32",
          "name": "block",
          "type": "uint32"
        }
      ],
      "payable": false,
      "stateMutability": "view",
      "type": "function"
    },
    {
      "constant": true,
      "inputs": [
        {
          "internalType": "address",
          "name": "",
          "type": "address"
        },
        {
          "internalType": "address",
          "name": "",
          "type": "address"
        }
      ],
      "name": "compBorrowerIndex",
      "outputs": [
        {
          "internalType": "uint256",
          "name": "",
          "type": "uint256"
        }
      ],
      "payable": false,
      "stateMutability": "view",
      "type": "function"
    },
    {
      "constant": true,
      "inputs": [],
      "name": "compClaimThreshold",
      "outputs": [
        {
          "internalType": "uint256",
          "name": "",
          "type": "uint256"
        }
      ],
      "payable": false,
      "stateMutability": "view",
      "type": "function"
    },
    {
      "constant": true,
      "inputs": [],
      "name": "compInitialIndex",
      "outputs": [
        {
          "internalType": "uint224",
          "name": "",
          "type": "uint224"
        }
      ],
      "payable": false,
      "stateMutability": "view",
      "type": "function"
    },
    {
      "constant": true,
      "inputs": [],
      "name": "compRate",
      "outputs": [
        {
          "internalType": "uint256",
          "name": "",
          "type": "uint256"
        }
      ],
      "payable": false,
      "stateMutability": "view",
      "type": "function"
    },
    {
      "constant": true,
      "inputs": [
        {
          "internalType": "address",
          "name": "",
          "type": "address"
        }
      ],
      "name": "compSpeeds",
      "outputs": [
        {
          "internalType": "uint256",
          "name": "",
          "type": "uint256"
        }
      ],
      "payable": false,
      "stateMutability": "view",
      "type": "function"
    },
    {
      "constant": true,
      "inputs": [
        {
          "internalType": "address",
          "name": "",
          "type": "address"
        },
        {
          "internalType": "address",
          "name": "",
          "type": "address"
        }
      ],
      "name": "compSupplierIndex",
      "outputs": [
        {
          "internalType": "uint256",
          "name": "",
          "type": "uint256"
        }
      ],
      "payable": false,
      "stateMutability": "view",
      "type": "function"
    },
    {
      "constant": true,
      "inputs": [
        {
          "internalType": "address",
          "name": "",
          "type": "address"
        }
      ],
      "name": "compSupplyState",
      "outputs": [
        {
          "internalType": "uint224",
          "name": "index",
          "type": "uint224"
        },
        {
          "internalType": "uint32",
          "name": "block",
          "type": "uint32"
        }
      ],
      "payable": false,
      "stateMutability": "view",
      "type": "function"
    },
    {
      "constant": true,
      "inputs": [],
      "name": "delegateFactoryAddress",
      "outputs": [
        {
          "internalType": "address",
          "name": "",
          "type": "address"
        }
      ],
      "payable": false,
      "stateMutability": "view",
      "type": "function"
    },
    {
      "constant": true,
      "inputs": [
        {
          "internalType": "address",
          "name": "",
          "type": "address"
        }
      ],
      "name": "eTokensMapping",
      "outputs": [
        {
          "internalType": "address",
          "name": "",
          "type": "address"
        }
      ],
      "payable": false,
      "stateMutability": "view",
      "type": "function"
    },
    {
      "constant": false,
      "inputs": [
        {
          "internalType": "address[]",
          "name": "cTokens",
          "type": "address[]"
        }
      ],
      "name": "enterMarkets",
      "outputs": [
        {
          "internalType": "uint256[]",
          "name": "",
          "type": "uint256[]"
        }
      ],
      "payable": false,
      "stateMutability": "nonpayable",
      "type": "function"
    },
    {
      "constant": false,
      "inputs": [
        {
          "internalType": "address",
          "name": "cTokenAddress",
          "type": "address"
        }
      ],
      "name": "exitMarket",
      "outputs": [
        {
          "internalType": "uint256",
          "name": "",
          "type": "uint256"
        }
      ],
      "payable": false,
      "stateMutability": "nonpayable",
      "type": "function"
    },
    {
      "constant": true,
      "inputs": [
        {
          "internalType": "address",
          "name": "account",
          "type": "address"
        }
      ],
      "name": "getAccountLiquidity",
      "outputs": [
        {
          "internalType": "uint256",
          "name": "",
          "type": "uint256"
        },
        {
          "internalType": "uint256",
          "name": "",
          "type": "uint256"
        },
        {
          "internalType": "uint256",
          "name": "",
          "type": "uint256"
        }
      ],
      "payable": false,
      "stateMutability": "view",
      "type": "function"
    },
    {
      "constant": true,
      "inputs": [],
      "name": "getAllMarkets",
      "outputs": [
        {
          "internalType": "contract CToken[]",
          "name": "",
          "type": "address[]"
        }
      ],
      "payable": false,
      "stateMutability": "view",
      "type": "function"
    },
    {
      "constant": true,
      "inputs": [],
      "name": "getBlockNumber",
      "outputs": [
        {
          "internalType": "uint256",
          "name": "",
          "type": "uint256"
        }
      ],
      "payable": false,
      "stateMutability": "view",
      "type": "function"
    },
    {
      "constant": true,
      "inputs": [],
      "name": "getCompAddress",
      "outputs": [
        {
          "internalType": "address",
          "name": "",
          "type": "address"
        }
      ],
      "payable": false,
      "stateMutability": "pure",
      "type": "function"
    },
    {
      "constant": true,
      "inputs": [
        {
          "internalType": "address",
          "name": "account",
          "type": "address"
        },
        {
          "internalType": "address",
          "name": "cTokenModify",
          "type": "address"
        },
        {
          "internalType": "uint256",
          "name": "redeemTokens",
          "type": "uint256"
        },
        {
          "internalType": "uint256",
          "name": "borrowAmount",
          "type": "uint256"
        }
      ],
      "name": "getHypotheticalAccountLiquidity",
      "outputs": [
        {
          "internalType": "uint256",
          "name": "",
          "type": "uint256"
        },
        {
          "internalType": "uint256",
          "name": "",
          "type": "uint256"
        },
        {
          "internalType": "uint256",
          "name": "",
          "type": "uint256"
        }
      ],
      "payable": false,
      "stateMutability": "view",
      "type": "function"
    },
    {
      "constant": true,
      "inputs": [
        {
          "internalType": "uint256",
          "name": "",
          "type": "uint256"
        }
      ],
      "name": "implementsMapping",
      "outputs": [
        {
          "internalType": "address",
          "name": "",
          "type": "address"
        }
      ],
      "payable": false,
      "stateMutability": "view",
      "type": "function"
    },
    {
      "constant": true,
      "inputs": [],
      "name": "isComptroller",
      "outputs": [
        {
          "internalType": "bool",
          "name": "",
          "type": "bool"
        }
      ],
      "payable": false,
      "stateMutability": "view",
      "type": "function"
    },
    {
      "constant": false,
      "inputs": [
        {
          "internalType": "address",
          "name": "cTokenBorrowed",
          "type": "address"
        },
        {
          "internalType": "address",
          "name": "cTokenCollateral",
          "type": "address"
        },
        {
          "internalType": "address",
          "name": "liquidator",
          "type": "address"
        },
        {
          "internalType": "address",
          "name": "borrower",
          "type": "address"
        },
        {
          "internalType": "uint256",
          "name": "repayAmount",
          "type": "uint256"
        }
      ],
      "name": "liquidateBorrowAllowed",
      "outputs": [
        {
          "internalType": "uint256",
          "name": "",
          "type": "uint256"
        }
      ],
      "payable": false,
      "stateMutability": "nonpayable",
      "type": "function"
    },
    {
      "constant": false,
      "inputs": [
        {
          "internalType": "address",
          "name": "cTokenBorrowed",
          "type": "address"
        },
        {
          "internalType": "address",
          "name": "cTokenCollateral",
          "type": "address"
        },
        {
          "internalType": "address",
          "name": "liquidator",
          "type": "address"
        },
        {
          "internalType": "address",
          "name": "borrower",
          "type": "address"
        },
        {
          "internalType": "uint256",
          "name": "actualRepayAmount",
          "type": "uint256"
        },
        {
          "internalType": "uint256",
          "name": "seizeTokens",
          "type": "uint256"
        }
      ],
      "name": "liquidateBorrowVerify",
      "outputs": [],
      "payable": false,
      "stateMutability": "nonpayable",
      "type": "function"
    },
    {
      "constant": true,
      "inputs": [
        {
          "internalType": "address",
          "name": "cTokenBorrowed",
          "type": "address"
        },
        {
          "internalType": "address",
          "name": "cTokenCollateral",
          "type": "address"
        },
        {
          "internalType": "uint256",
          "name": "actualRepayAmount",
          "type": "uint256"
        }
      ],
      "name": "liquidateCalculateSeizeTokens",
      "outputs": [
        {
          "internalType": "uint256",
          "name": "",
          "type": "uint256"
        },
        {
          "internalType": "uint256",
          "name": "",
          "type": "uint256"
        }
      ],
      "payable": false,
      "stateMutability": "view",
      "type": "function"
    },
    {
      "constant": true,
      "inputs": [],
      "name": "liquidationIncentiveMantissa",
      "outputs": [
        {
          "internalType": "uint256",
          "name": "",
          "type": "uint256"
        }
      ],
      "payable": false,
      "stateMutability": "view",
      "type": "function"
    },
    {
      "constant": true,
      "inputs": [
        {
          "internalType": "address",
          "name": "",
          "type": "address"
        }
      ],
      "name": "markets",
      "outputs": [
        {
          "internalType": "bool",
          "name": "isListed",
          "type": "bool"
        },
        {
          "internalType": "uint256",
          "name": "collateralFactorMantissa",
          "type": "uint256"
        },
        {
          "internalType": "bool",
          "name": "isComped",
          "type": "bool"
        },
        {
          "internalType": "uint256",
          "name": "borrowFactorMantissa",
          "type": "uint256"
        },
        {
          "internalType": "bool",
          "name": "isLPPool",
          "type": "bool"
        }
      ],
      "payable": false,
      "stateMutability": "view",
      "type": "function"
    },
    {
      "constant": true,
      "inputs": [],
      "name": "maxAssets",
      "outputs": [
        {
          "internalType": "uint256",
          "name": "",
          "type": "uint256"
        }
      ],
      "payable": false,
      "stateMutability": "view",
      "type": "function"
    },
    {
      "constant": true,
      "inputs": [
        {
          "internalType": "bytes",
          "name": "",
          "type": "bytes"
        }
      ],
      "name": "methodImplements",
      "outputs": [
        {
          "internalType": "uint256",
          "name": "",
          "type": "uint256"
        }
      ],
      "payable": false,
      "stateMutability": "view",
      "type": "function"
    },
    {
      "constant": false,
      "inputs": [
        {
          "internalType": "address",
          "name": "cToken",
          "type": "address"
        },
        {
          "internalType": "address",
          "name": "minter",
          "type": "address"
        },
        {
          "internalType": "uint256",
          "name": "mintAmount",
          "type": "uint256"
        }
      ],
      "name": "mintAllowed",
      "outputs": [
        {
          "internalType": "uint256",
          "name": "",
          "type": "uint256"
        }
      ],
      "payable": false,
      "stateMutability": "nonpayable",
      "type": "function"
    },
    {
      "constant": true,
      "inputs": [
        {
          "internalType": "address",
          "name": "",
          "type": "address"
        }
      ],
      "name": "mintGuardianPaused",
      "outputs": [
        {
          "internalType": "bool",
          "name": "",
          "type": "bool"
        }
      ],
      "payable": false,
      "stateMutability": "view",
      "type": "function"
    },
    {
      "constant": false,
      "inputs": [
        {
          "internalType": "address",
          "name": "cToken",
          "type": "address"
        },
        {
          "internalType": "address",
          "name": "minter",
          "type": "address"
        },
        {
          "internalType": "uint256",
          "name": "actualMintAmount",
          "type": "uint256"
        },
        {
          "internalType": "uint256",
          "name": "mintTokens",
          "type": "uint256"
        }
      ],
      "name": "mintVerify",
      "outputs": [],
      "payable": false,
      "stateMutability": "nonpayable",
      "type": "function"
    },
    {
      "constant": true,
      "inputs": [],
      "name": "oracle",
      "outputs": [
        {
          "internalType": "contract PriceOracle",
          "name": "",
          "type": "address"
        }
      ],
      "payable": false,
      "stateMutability": "view",
      "type": "function"
    },
    {
      "constant": true,
      "inputs": [],
      "name": "pauseGuardian",
      "outputs": [
        {
          "internalType": "address",
          "name": "",
          "type": "address"
        }
      ],
      "payable": false,
      "stateMutability": "view",
      "type": "function"
    },
    {
      "constant": true,
      "inputs": [],
      "name": "pendingAdmin",
      "outputs": [
        {
          "internalType": "address",
          "name": "",
          "type": "address"
        }
      ],
      "payable": false,
      "stateMutability": "view",
      "type": "function"
    },
    {
      "constant": true,
      "inputs": [],
      "name": "pendingComptrollerImplementation",
      "outputs": [
        {
          "internalType": "address",
          "name": "",
          "type": "address"
        }
      ],
      "payable": false,
      "stateMutability": "view",
      "type": "function"
    },
    {
      "constant": false,
      "inputs": [
        {
          "internalType": "uint256",
          "name": "addAmount",
          "type": "uint256"
        },
        {
          "internalType": "address",
          "name": "pledger",
          "type": "address"
        }
      ],
      "name": "pledgeAllowed",
      "outputs": [
        {
          "internalType": "uint256",
          "name": "",
          "type": "uint256"
        }
      ],
      "payable": false,
      "stateMutability": "nonpayable",
      "type": "function"
    },
    {
      "constant": true,
      "inputs": [
        {
          "internalType": "address",
          "name": "",
          "type": "address"
        }
      ],
      "name": "pledgeAmounts",
      "outputs": [
        {
          "internalType": "uint256",
          "name": "",
          "type": "uint256"
        }
      ],
      "payable": false,
      "stateMutability": "view",
      "type": "function"
    },
    {
      "constant": true,
      "inputs": [
        {
          "internalType": "address",
          "name": "",
          "type": "address"
        }
      ],
      "name": "pledgedMaxs",
      "outputs": [
        {
          "internalType": "uint256",
          "name": "",
          "type": "uint256"
        }
      ],
      "payable": false,
      "stateMutability": "view",
      "type": "function"
    },
    {
      "constant": false,
      "inputs": [
        {
          "internalType": "address",
          "name": "cToken",
          "type": "address"
        },
        {
          "internalType": "address",
          "name": "redeemer",
          "type": "address"
        },
        {
          "internalType": "uint256",
          "name": "redeemTokens",
          "type": "uint256"
        }
      ],
      "name": "redeemAllowed",
      "outputs": [
        {
          "internalType": "uint256",
          "name": "",
          "type": "uint256"
        }
      ],
      "payable": false,
      "stateMutability": "nonpayable",
      "type": "function"
    },
    {
      "constant": false,
      "inputs": [
        {
          "internalType": "address",
          "name": "cToken",
          "type": "address"
        },
        {
          "internalType": "address",
          "name": "redeemer",
          "type": "address"
        },
        {
          "internalType": "uint256",
          "name": "redeemAmount",
          "type": "uint256"
        },
        {
          "internalType": "uint256",
          "name": "redeemTokens",
          "type": "uint256"
        }
      ],
      "name": "redeemVerify",
      "outputs": [],
      "payable": false,
      "stateMutability": "nonpayable",
      "type": "function"
    },
    {
      "constant": false,
      "inputs": [],
      "name": "refreshCompSpeeds",
      "outputs": [],
      "payable": false,
      "stateMutability": "nonpayable",
      "type": "function"
    },
    {
      "constant": false,
      "inputs": [
        {
          "internalType": "address",
          "name": "cToken",
          "type": "address"
        },
        {
          "internalType": "address",
          "name": "payer",
          "type": "address"
        },
        {
          "internalType": "address",
          "name": "borrower",
          "type": "address"
        },
        {
          "internalType": "uint256",
          "name": "repayAmount",
          "type": "uint256"
        }
      ],
      "name": "repayBorrowAllowed",
      "outputs": [
        {
          "internalType": "uint256",
          "name": "",
          "type": "uint256"
        }
      ],
      "payable": false,
      "stateMutability": "nonpayable",
      "type": "function"
    },
    {
      "constant": false,
      "inputs": [
        {
          "internalType": "address",
          "name": "cToken",
          "type": "address"
        },
        {
          "internalType": "address",
          "name": "payer",
          "type": "address"
        },
        {
          "internalType": "address",
          "name": "borrower",
          "type": "address"
        },
        {
          "internalType": "uint256",
          "name": "actualRepayAmount",
          "type": "uint256"
        },
        {
          "internalType": "uint256",
          "name": "borrowerIndex",
          "type": "uint256"
        }
      ],
      "name": "repayBorrowVerify",
      "outputs": [],
      "payable": false,
      "stateMutability": "nonpayable",
      "type": "function"
    },
    {
      "constant": false,
      "inputs": [
        {
          "internalType": "uint256",
          "name": "subAmount",
          "type": "uint256"
        },
        {
          "internalType": "address",
          "name": "redeemer",
          "type": "address"
        }
      ],
      "name": "retrieveAllowed",
      "outputs": [
        {
          "internalType": "uint256",
          "name": "",
          "type": "uint256"
        }
      ],
      "payable": false,
      "stateMutability": "nonpayable",
      "type": "function"
    },
    {
      "constant": false,
      "inputs": [
        {
          "internalType": "address",
          "name": "cTokenCollateral",
          "type": "address"
        },
        {
          "internalType": "address",
          "name": "cTokenBorrowed",
          "type": "address"
        },
        {
          "internalType": "address",
          "name": "liquidator",
          "type": "address"
        },
        {
          "internalType": "address",
          "name": "borrower",
          "type": "address"
        },
        {
          "internalType": "uint256",
          "name": "seizeTokens",
          "type": "uint256"
        }
      ],
      "name": "seizeAllowed",
      "outputs": [
        {
          "internalType": "uint256",
          "name": "",
          "type": "uint256"
        }
      ],
      "payable": false,
      "stateMutability": "nonpayable",
      "type": "function"
    },
    {
      "constant": true,
      "inputs": [],
      "name": "seizeGuardianPaused",
      "outputs": [
        {
          "internalType": "bool",
          "name": "",
          "type": "bool"
        }
      ],
      "payable": false,
      "stateMutability": "view",
      "type": "function"
    },
    {
      "constant": false,
      "inputs": [
        {
          "internalType": "address",
          "name": "cTokenCollateral",
          "type": "address"
        },
        {
          "internalType": "address",
          "name": "cTokenBorrowed",
          "type": "address"
        },
        {
          "internalType": "address",
          "name": "liquidator",
          "type": "address"
        },
        {
          "internalType": "address",
          "name": "borrower",
          "type": "address"
        },
        {
          "internalType": "uint256",
          "name": "seizeTokens",
          "type": "uint256"
        }
      ],
      "name": "seizeVerify",
      "outputs": [],
      "payable": false,
      "stateMutability": "nonpayable",
      "type": "function"
    },
    {
      "constant": true,
      "inputs": [
        {
          "internalType": "address",
          "name": "",
          "type": "address"
        }
      ],
      "name": "tokensMapping",
      "outputs": [
        {
          "internalType": "address",
          "name": "",
          "type": "address"
        }
      ],
      "payable": false,
      "stateMutability": "view",
      "type": "function"
    },
    {
      "constant": false,
      "inputs": [
        {
          "internalType": "address",
          "name": "cToken",
          "type": "address"
        },
        {
          "internalType": "address",
          "name": "src",
          "type": "address"
        },
        {
          "internalType": "address",
          "name": "dst",
          "type": "address"
        },
        {
          "internalType": "uint256",
          "name": "transferTokens",
          "type": "uint256"
        }
      ],
      "name": "transferAllowed",
      "outputs": [
        {
          "internalType": "uint256",
          "name": "",
          "type": "uint256"
        }
      ],
      "payable": false,
      "stateMutability": "nonpayable",
      "type": "function"
    },
    {
      "constant": true,
      "inputs": [],
      "name": "transferGuardianPaused",
      "outputs": [
        {
          "internalType": "bool",
          "name": "",
          "type": "bool"
        }
      ],
      "payable": false,
      "stateMutability": "view",
      "type": "function"
    },
    {
      "constant": false,
      "inputs": [
        {
          "internalType": "address",
          "name": "cToken",
          "type": "address"
        },
        {
          "internalType": "address",
          "name": "src",
          "type": "address"
        },
        {
          "internalType": "address",
          "name": "dst",
          "type": "address"
        },
        {
          "internalType": "uint256",
          "name": "transferTokens",
          "type": "uint256"
        }
      ],
      "name": "transferVerify",
      "outputs": [],
      "payable": false,
      "stateMutability": "nonpayable",
      "type": "function"
    }
  ],
  "bytecode": "0x608060405234801561001057600080fd5b50600080546001600160a01b03191633179055615cce80620000336000396000f3fe608060405234801561001057600080fd5b506004361061047f5760003560e01c80636d35bf9111610257578063bdcdc25811610146578063dcfbc0c7116100c3578063e9af029211610087578063e9af02921461137a578063eabe7d91146113a0578063ede4edd0146113d6578063f851a440146113fc578063fa001120146114045761047f565b8063dcfbc0c714611310578063e3635d3314611318578063e4028eee1461133e578063e6653f3d1461136a578063e8755446146113725761047f565b8063ce485c5e1161010a578063ce485c5e146111aa578063d02f73511461124b578063d0b0630f14611291578063da3d454c146112ae578063dce15449146112e45761047f565b8063bdcdc2581461102a578063c299823814611066578063c488847b14611107578063ca0af04314611156578063cc7ebdc4146111845761047f565b806394021d7f116101d4578063a7f0e23111610198578063a7f0e23114610f70578063aa90075414610f94578063ac0b0bb714610f9c578063b0772d0b14610fa4578063b21be7fd14610ffc5761047f565b806394021d7f14610f0057806394b2294b14610f2c5780639d1b5a0a14610f345780639d8cc5c414610f3c578063a2c7ca4d14610f685761047f565b80637dc0d1d01161021b5780637dc0d1d014610e5657806387f7630314610e5e5780638c57804e14610e665780638e8f294b14610e8c5780638ebf636414610ee15761047f565b80636d35bf9114610d185780636e294bd814610d5e57806372fdfcae14610d84578063731f0c2b14610e28578063747026c914610e4e5761047f565b806347ef3b3b116103735780635c778605116102f05780636810dfa6116102b45780636810dfa614610b1f5780636a49111214610c4b5780636a56947e14610c685780636b79c38d14610ca45780636d154ea514610cf25761047f565b80635c778605146109995780635ec88c79146109cf5780635f5af1aa146109f55780635fc7e71e14610a1b578063607ef6c114610a615761047f565b80634ef4c3e1116103375780634ef4c3e1146108c75780634fd42e17146108fd57806351dff9891461091a57806352d84d1e1461095657806355ee1fe1146109735761047f565b806347ef3b3b146107eb5780634a584432146108375780634ada90af1461085d5780634d8e5037146108655780634e79238f1461086d5761047f565b806327efe3cb116104015780633bcf7ec1116103c55780633bcf7ec11461074b5780633c94786f146107795780633d70015a1461078157806341c728b9146107a757806342cbb15c146107e35761047f565b806327efe3cb146106975780632d70db78146106c3578063317b0b77146106e2578063391957d7146106ff5780633aa729b4146107255761047f565b80631ededc91116104485780631ededc91146105e557806321af45691461062757806324008a621461064b57806324a3d62214610687578063267822471461068f5761047f565b80627e3dd214610484578063016ea2ca146104a057806318c882a5146104de5780631c3db2e01461050c5780631d7b33d7146105bf575b600080fd5b61048c61142a565b604080519115158252519081900360200190f35b6104cc600480360360408110156104b657600080fd5b50803590602001356001600160a01b031661142f565b60408051918252519081900360200190f35b61048c600480360360408110156104f457600080fd5b506001600160a01b038135169060200135151561148f565b6105bd6004803603604081101561052257600080fd5b6001600160a01b038235169190810190604081016020820135600160201b81111561054c57600080fd5b82018360208201111561055e57600080fd5b803590602001918460208302840111600160201b8311171561057f57600080fd5b91908080602002602001604051908101604052809392919081815260200183836020028082843760009201919091525092955061162c945050505050565b005b6104cc600480360360208110156105d557600080fd5b50356001600160a01b031661168e565b6105bd600480360360a08110156105fb57600080fd5b506001600160a01b038135811691602081013582169160408201351690606081013590608001356116a0565b61062f6116a7565b604080516001600160a01b039092168252519081900360200190f35b6104cc6004803603608081101561066157600080fd5b506001600160a01b038135811691602081013582169160408201351690606001356116b6565b61062f61177f565b61062f61178e565b6105bd600480360360408110156106ad57600080fd5b506001600160a01b03813516906020013561179d565b61048c600480360360208110156106d957600080fd5b503515156118a0565b6104cc600480360360208110156106f857600080fd5b50356119da565b6105bd6004803603602081101561071557600080fd5b50356001600160a01b0316611a87565b6105bd6004803603602081101561073b57600080fd5b50356001600160a01b0316611b33565b61048c6004803603604081101561076157600080fd5b506001600160a01b0381351690602001351515611c64565b61048c611dff565b61062f6004803603602081101561079757600080fd5b50356001600160a01b0316611e0f565b6105bd600480360360808110156107bd57600080fd5b506001600160a01b03813581169160208101359091169060408101359060600135611e2a565b6104cc611e30565b6105bd600480360360c081101561080157600080fd5b506001600160a01b0381358116916020810135821691604082013581169160608101359091169060808101359060a00135611e35565b6104cc6004803603602081101561084d57600080fd5b50356001600160a01b0316611e3d565b6104cc611e4f565b6105bd611e55565b6108a96004803603608081101561088357600080fd5b506001600160a01b03813581169160208101359091169060408101359060600135611e9d565b60408051938452602084019290925282820152519081900360600190f35b6104cc600480360360608110156108dd57600080fd5b506001600160a01b03813581169160208101359091169060400135611ed7565b6104cc6004803603602081101561091357600080fd5b5035611f7f565b6105bd6004803603608081101561093057600080fd5b506001600160a01b03813581169160208101359091169060408101359060600135611fef565b61062f6004803603602081101561096c57600080fd5b5035612043565b6104cc6004803603602081101561098957600080fd5b50356001600160a01b031661206a565b6105bd600480360360608110156109af57600080fd5b506001600160a01b038135811691602081013590911690604001356120ef565b6108a9600480360360208110156109e557600080fd5b50356001600160a01b03166120f4565b6104cc60048036036020811015610a0b57600080fd5b50356001600160a01b0316612129565b6104cc600480360360a0811015610a3157600080fd5b506001600160a01b03813581169160208101358216916040820135811691606081013590911690608001356121ad565b6105bd60048036036040811015610a7757600080fd5b810190602081018135600160201b811115610a9157600080fd5b820183602082011115610aa357600080fd5b803590602001918460208302840111600160201b83111715610ac457600080fd5b919390929091602081019035600160201b811115610ae157600080fd5b820183602082011115610af357600080fd5b803590602001918460208302840111600160201b83111715610b1457600080fd5b509092509050612312565b6105bd60048036036080811015610b3557600080fd5b810190602081018135600160201b811115610b4f57600080fd5b820183602082011115610b6157600080fd5b803590602001918460208302840111600160201b83111715610b8257600080fd5b9190808060200260200160405190810160405280939291908181526020018383602002808284376000920191909152509295949360208101935035915050600160201b811115610bd157600080fd5b820183602082011115610be357600080fd5b803590602001918460208302840111600160201b83111715610c0457600080fd5b9190808060200260200160405190810160405280939291908181526020018383602002808284376000920191909152509295505050508035151591506020013515156124a2565b6105bd60048036036020811015610c6157600080fd5b503561264b565b6105bd60048036036080811015610c7e57600080fd5b506001600160a01b03813581169160208101358216916040820135169060600135611e2a565b610cca60048036036020811015610cba57600080fd5b50356001600160a01b03166126ef565b604080516001600160e01b03909316835263ffffffff90911660208301528051918290030190f35b61048c60048036036020811015610d0857600080fd5b50356001600160a01b0316612719565b6105bd600480360360a0811015610d2e57600080fd5b506001600160a01b03813581169160208101358216916040820135811691606081013590911690608001356116a0565b6104cc60048036036020811015610d7457600080fd5b50356001600160a01b031661272e565b6104cc60048036036020811015610d9a57600080fd5b810190602081018135600160201b811115610db457600080fd5b820183602082011115610dc657600080fd5b803590602001918460018302840111600160201b83111715610de757600080fd5b91908080601f016020809104026020016040519081016040528093929190818152602001838380828437600092019190915250929550612740945050505050565b61048c60048036036020811015610e3e57600080fd5b50356001600160a01b031661275d565b6104cc612772565b61062f61277d565b61048c61278c565b610cca60048036036020811015610e7c57600080fd5b50356001600160a01b031661279c565b610eb260048036036020811015610ea257600080fd5b50356001600160a01b03166127c6565b604080519515158652602086019490945291151584840152606084015215156080830152519081900360a00190f35b61048c60048036036020811015610ef757600080fd5b503515156127fc565b6104cc60048036036040811015610f1657600080fd5b50803590602001356001600160a01b0316612935565b6104cc612987565b61062f61298d565b6104cc60048036036040811015610f5257600080fd5b506001600160a01b0381351690602001356129a5565b61062f612b4a565b610f78612b59565b604080516001600160e01b039092168252519081900360200190f35b6104cc612b6c565b61048c612b72565b610fac612b82565b60408051602080825283518183015283519192839290830191858101910280838360005b83811015610fe8578181015183820152602001610fd0565b505050509050019250505060405180910390f35b6104cc6004803603604081101561101257600080fd5b506001600160a01b0381358116916020013516612be4565b6104cc6004803603608081101561104057600080fd5b506001600160a01b03813581169160208101358216916040820135169060600135612c01565b610fac6004803603602081101561107c57600080fd5b810190602081018135600160201b81111561109657600080fd5b8201836020820111156110a857600080fd5b803590602001918460208302840111600160201b831117156110c957600080fd5b919080806020026020016040519081016040528093929190818152602001838360200280828437600092019190915250929550612c95945050505050565b61113d6004803603606081101561111d57600080fd5b506001600160a01b03813581169160208101359091169060400135612d2c565b6040805192835260208301919091528051918290030190f35b6104cc6004803603604081101561116c57600080fd5b506001600160a01b0381358116916020013516612f4d565b6104cc6004803603602081101561119a57600080fd5b50356001600160a01b0316612f6a565b6105bd600480360360208110156111c057600080fd5b810190602081018135600160201b8111156111da57600080fd5b8201836020820111156111ec57600080fd5b803590602001918460208302840111600160201b8311171561120d57600080fd5b919080806020026020016040519081016040528093929190818152602001838360200280828437600092019190915250929550612f7c945050505050565b6104cc600480360360a081101561126157600080fd5b506001600160a01b0381358116916020810135821691604082013581169160608101359091169060800135613011565b61062f600480360360208110156112a757600080fd5b50356131c9565b6104cc600480360360608110156112c457600080fd5b506001600160a01b038135811691602081013590911690604001356131e4565b61062f600480360360408110156112fa57600080fd5b506001600160a01b0381351690602001356135bc565b61062f6135f1565b6104cc6004803603602081101561132e57600080fd5b50356001600160a01b0316613600565b6104cc6004803603604081101561135457600080fd5b506001600160a01b038135169060200135613612565b61048c61379f565b6104cc6137af565b6105bd6004803603602081101561139057600080fd5b50356001600160a01b03166137b5565b6104cc600480360360608110156113b657600080fd5b506001600160a01b03813581169160208101359091169060400135613819565b6104cc600480360360208110156113ec57600080fd5b50356001600160a01b0316613856565b61062f613b7a565b61062f6004803603602081101561141a57600080fd5b50356001600160a01b0316613b89565b600181565b336000908152600b60205260408120805460ff1661145257600a5b915050611489565b6001600160a01b038316600090815260028201602052604090205460ff1661147b57600061144a565b6114853385613ba4565b9150505b92915050565b6001600160a01b0382166000908152600b602052604081205460ff166114e65760405162461bcd60e51b8152600401808060200182810382526028815260200180615b7a6028913960400191505060405180910390fd5b600e546001600160a01b031633148061150957506000546001600160a01b031633145b6115445760405162461bcd60e51b8152600401808060200182810382526027815260200180615bd36027913960400191505060405180910390fd5b6000546001600160a01b031633148061155f57506001821515145b6115a9576040805162461bcd60e51b81526020600482015260166024820152756f6e6c792061646d696e2063616e20756e706175736560501b604482015290519081900360640190fd5b6001600160a01b038316600081815260106020908152604091829020805486151560ff199091168117909155825193845283830152606090830181905260069083015265426f72726f7760d01b6080830152517f71aec636243f9709bb0007ae15e9afb8150ab01716d75fd7573be5cc096e03b09181900360a00190a150919050565b60408051600180825281830190925260609160208083019080388339019050509050828160008151811061165c57fe5b60200260200101906001600160a01b031690816001600160a01b03168152505061168981836001806124a2565b505050565b60136020526000908152604090205481565b5050505050565b6019546001600160a01b031681565b6001600160a01b0384166000908152600b602052604081205460ff166116de5750600a611777565b6116e6615aa0565b6040518060200160405280876001600160a01b031663aa5af0fd6040518163ffffffff1660e01b815260040160206040518083038186803b15801561172a57600080fd5b505afa15801561173e573d6000803e3d6000fd5b505050506040513d602081101561175457600080fd5b5051905290506117648682613c15565b6117718685836000613e9d565b60009150505b949350505050565b600e546001600160a01b031681565b6002546001600160a01b031681565b6117a5614087565b6117f6576040805162461bcd60e51b815260206004820152601860248201527f6f6e6c792061646d696e2063616e206772616e74204c48420000000000000000604482015290519081900360640190fd5b60006118028383614098565b90508015611857576040805162461bcd60e51b815260206004820152601a60248201527f696e73756666696369656e74204c484220666f72206772616e74000000000000604482015290519081900360640190fd5b604080516001600160a01b03851681526020810184905281517f98b2f82a3a07f223a0be64b3d0f47711c64dccd1feafb94aa28156b38cd9695c929181900390910190a1505050565b600e546000906001600160a01b03163314806118c657506000546001600160a01b031633145b6119015760405162461bcd60e51b8152600401808060200182810382526027815260200180615bd36027913960400191505060405180910390fd5b6000546001600160a01b031633148061191c57506001821515145b611966576040805162461bcd60e51b81526020600482015260166024820152756f6e6c792061646d696e2063616e20756e706175736560501b604482015290519081900360640190fd5b600e8054831515600160b81b810260ff60b81b1990921691909117909155604080516020810192909252808252600582820152645365697a6560d81b6060830152517fef159d9a32b2472e32b098f954f3ce62d232939f1c207070b584df1814de2de09181900360800190a150805b919050565b600080546001600160a01b03163314611a3a576040805162461bcd60e51b815260206004820152601f60248201527f6f6e6c792061646d696e2063616e2073657420636c6f736520666163746f7200604482015290519081900360640190fd5b6007805490839055604080518281526020810185905281517f3b9670cf975d26958e754b57098eaa2ac914d8d2a31b83257997b9f346110fd9929181900390910190a160005b9392505050565b6000546001600160a01b03163314611ad05760405162461bcd60e51b8152600401808060200182810382526026815260200180615bfa6026913960400191505060405180910390fd5b601980546001600160a01b038381166001600160a01b0319831681179093556040805191909216808252602082019390935281517feda98690e518e9a05f8ec6837663e188211b2da8f4906648b323f2c1d4434e29929181900390910190a15050565b6000546001600160a01b03163314611b92576040805162461bcd60e51b815260206004820152601e60248201527f6f6e6c792061646d696e2063616e2064726f70204c4842206d61726b65740000604482015290519081900360640190fd5b6001600160a01b0381166000908152600b60205260409020600381015460ff161515600114611c08576040805162461bcd60e51b815260206004820152601a60248201527f6d61726b6574206973206e6f742061204c4842206d61726b6574000000000000604482015290519081900360640190fd5b60038101805460ff19169055604080516001600160a01b03841681526000602082015281517f93c1f3e36ed71139f466a4ce8c9751790e2e33f5afb2df0dcfb3aeabe55d5aa2929181900390910190a1611c606141c5565b5050565b6001600160a01b0382166000908152600b602052604081205460ff16611cbb5760405162461bcd60e51b8152600401808060200182810382526028815260200180615b7a6028913960400191505060405180910390fd5b600e546001600160a01b0316331480611cde57506000546001600160a01b031633145b611d195760405162461bcd60e51b8152600401808060200182810382526027815260200180615bd36027913960400191505060405180910390fd5b6000546001600160a01b0316331480611d3457506001821515145b611d7e576040805162461bcd60e51b81526020600482015260166024820152756f6e6c792061646d696e2063616e20756e706175736560501b604482015290519081900360640190fd5b6001600160a01b0383166000818152600f6020908152604091829020805486151560ff199091168117909155825193845283830152606090830181905260049083015263135a5b9d60e21b6080830152517f71aec636243f9709bb0007ae15e9afb8150ab01716d75fd7573be5cc096e03b09181900360a00190a150919050565b600e54600160a01b900460ff1681565b600d602052600090815260409020546001600160a01b031681565b50505050565b435b90565b505050505050565b601a6020526000908152604090205481565b60085481565b333214611e935760405162461bcd60e51b8152600401808060200182810382526031815260200180615ba26031913960400191505060405180910390fd5b611e9b6141c5565b565b600080600080600080611eb28a8a8a8a61458a565b925092509250826013811115611ec457fe5b95509093509150505b9450945094915050565b6001600160a01b0383166000908152600f602052604081205460ff1615611f36576040805162461bcd60e51b815260206004820152600e60248201526d1b5a5b9d081a5cc81c185d5cd95960921b604482015290519081900360640190fd5b6001600160a01b0384166000908152600b602052604090205460ff16611f6057600a5b9050611a80565b611f6984614925565b611f7584846000614ba3565b6000949350505050565b600080546001600160a01b03163314611fa557611f9e60016013614d9b565b90506119d5565b6008805490839055604080518281526020810185905281517faeba5a6c40a8ac138134bff1aaa65debf25971188a58804bad717f82f0ec1316929181900390910190a16000611a80565b80158015611ffd5750600082115b15611e2a576040805162461bcd60e51b815260206004820152601160248201527072656465656d546f6b656e73207a65726f60781b604482015290519081900360640190fd5b6011818154811061205057fe5b6000918252602090912001546001600160a01b0316905081565b600080546001600160a01b0316331461208957611f9e60016018614d9b565b600680546001600160a01b038481166001600160a01b0319831681179093556040805191909216808252602082019390935281517fd52b2b9b7e9ee655fcb95d2e5b9e0c9f69e7ef2b8e9d2d0ea78402d576d22e22929181900390910190a16000611a80565b611689565b60008060008060008061210b87600080600061458a565b92509250925082601381111561211d57fe5b97919650945092505050565b600080546001600160a01b0316331461214857611f9e6001601b614d9b565b600e80546001600160a01b038481166001600160a01b0319831617928390556040805192821680845293909116602083015280517f0613b6ee6a04f0d09f390e4d9318894b9f6ac7fd83897cd8d18896ba579c401e9281900390910190a16000611a80565b6001600160a01b0385166000908152600b602052604081205460ff1615806121ee57506001600160a01b0385166000908152600b602052604090205460ff16155b156121fd57600a5b9050612309565b60008061220985614e01565b9193509091506000905082601381111561221f57fe5b146122395781601381111561223057fe5b92505050612309565b80612245576003612230565b6000886001600160a01b03166395dd9193876040518263ffffffff1660e01b815260040180826001600160a01b03166001600160a01b0316815260200191505060206040518083038186803b15801561229d57600080fd5b505afa1580156122b1573d6000803e3d6000fd5b505050506040513d60208110156122c757600080fd5b5051604080516020810190915260075481529091506000906122e99083614e21565b905080861115612300576012945050505050612309565b60009450505050505b95945050505050565b6000546001600160a01b031633148061233557506019546001600160a01b031633145b6123705760405162461bcd60e51b8152600401808060200182810382526035815260200180615c206035913960400191505060405180910390fd5b8281811580159061238057508082145b6123c1576040805162461bcd60e51b815260206004820152600d60248201526c1a5b9d985b1a59081a5b9c1d5d609a1b604482015290519081900360640190fd5b60005b82811015612499578484828181106123d857fe5b90506020020135601a60008989858181106123ef57fe5b905060200201356001600160a01b03166001600160a01b03166001600160a01b031681526020019081526020016000208190555086868281811061242f57fe5b905060200201356001600160a01b03166001600160a01b03167f6f1951b2aad10f3fc81b86d91105b413a5b3f847a34bbc5ce1904201b14438f686868481811061247557fe5b905060200201356040518082815260200191505060405180910390a26001016123c4565b50505050505050565b60005b83518110156116a05760008482815181106124bc57fe5b6020908102919091018101516001600160a01b0381166000908152600b90925260409091205490915060ff16612531576040805162461bcd60e51b81526020600482015260156024820152741b585c9ad95d081b5d5cdd081899481b1a5cdd1959605a1b604482015290519081900360640190fd5b600184151514156125f957612544615aa0565b6040518060200160405280836001600160a01b031663aa5af0fd6040518163ffffffff1660e01b815260040160206040518083038186803b15801561258857600080fd5b505afa15801561259c573d6000803e3d6000fd5b505050506040513d60208110156125b257600080fd5b5051905290506125c28282613c15565b60005b87518110156125f6576125ee838983815181106125de57fe5b6020026020010151846001613e9d565b6001016125c5565b50505b600183151514156126425761260d81614925565b60005b8651811015612640576126388288838151811061262957fe5b60200260200101516001614ba3565b600101612610565b505b506001016124a5565b612653614087565b6126a4576040805162461bcd60e51b815260206004820152601e60248201527f6f6e6c792061646d696e2063616e206368616e6765204c484220726174650000604482015290519081900360640190fd5b6012805490829055604080518281526020810184905281517fc227c9272633c3a307d9845bf2bc2509cefb20d655b5f3c1002d8e1e3f22c8b0929181900390910190a1611c606141c5565b6014602052600090815260409020546001600160e01b03811690600160e01b900463ffffffff1682565b60106020526000908152604090205460ff1681565b601b6020526000908152604090205481565b805160208183018101805160048252928201919093012091525481565b600f6020526000908152604090205460ff1681565b66038d7ea4c6800081565b6006546001600160a01b031681565b600e54600160b01b900460ff1681565b6015602052600090815260409020546001600160e01b03811690600160e01b900463ffffffff1682565b600b602052600090815260409020805460018201546003830154600484015460059094015460ff93841694929391821692911685565b600e546000906001600160a01b031633148061282257506000546001600160a01b031633145b61285d5760405162461bcd60e51b8152600401808060200182810382526027815260200180615bd36027913960400191505060405180910390fd5b6000546001600160a01b031633148061287857506001821515145b6128c2576040805162461bcd60e51b81526020600482015260166024820152756f6e6c792061646d696e2063616e20756e706175736560501b604482015290519081900360640190fd5b600e8054831515600160b01b810260ff60b01b1990921691909117909155604080516020810192909252808252600882820152672a3930b739b332b960c11b6060830152517fef159d9a32b2472e32b098f954f3ce62d232939f1c207070b584df1814de2de09181900360800190a15090565b336000908152600b60205260408120805460ff1661295457600a61144a565b6001600160a01b038316600090815260028201602052604090205460ff1661297d57600061144a565b6114853385614e40565b60095481565b738f67854497218043e1f72908ffe38d0ed7f2472190565b600080546001600160a01b031633146129cb576129c46001600a614d9b565b9050611489565b6001600160a01b0383166000908152600b60205260409020805460ff166129f85761144a600a600b614d9b565b612a00615aa0565b506040805160208101909152838152612a17615aa0565b506040805160208101909152670de0b6b3a76400008152612a388183614e92565b15612a5357612a496007600c614d9b565b9350505050611489565b8415801590612ad857506006546040805163fc57d4df60e01b81526001600160a01b0389811660048301529151919092169163fc57d4df916024808301926020929190829003018186803b158015612aaa57600080fd5b505afa158015612abe573d6000803e3d6000fd5b505050506040513d6020811015612ad457600080fd5b5051155b15612ae957612a49600e600d614d9b565b60048301805490869055604080516001600160a01b03891681526020810183905280820188905290517fd69d3c48186e96a0af0545cf26e970b49ed3e29a306a37118a5a787bae6b90be9181900360600190a160005b979650505050505050565b6001546001600160a01b031681565b6ec097ce7bc90715b34b9f100000000081565b60125481565b600e54600160b81b900460ff1681565b60606011805480602002602001604051908101604052809291908181526020018280548015612bda57602002820191906000526020600020905b81546001600160a01b03168152600190910190602001808311612bbc575b5050505050905090565b601660209081526000928352604080842090915290825290205481565b600e54600090600160b01b900460ff1615612c58576040805162461bcd60e51b81526020600482015260126024820152711d1c985b9cd9995c881a5cc81c185d5cd95960721b604482015290519081900360640190fd5b6000612c65868685614e99565b90508015612c74579050611777565b612c7d86614925565b612c8986866000614ba3565b61177186856000614ba3565b6060600082519050606081604051908082528060200260200182016040528015612cc9578160200160208202803883390190505b50905060005b82811015612d24576000858281518110612ce557fe5b60200260200101519050612cf98133614f45565b6013811115612d0457fe5b838381518110612d1057fe5b602090810291909101015250600101612ccf565b509392505050565b6006546040805163fc57d4df60e01b81526001600160a01b03868116600483015291516000938493849391169163fc57d4df91602480820192602092909190829003018186803b158015612d7f57600080fd5b505afa158015612d93573d6000803e3d6000fd5b505050506040513d6020811015612da957600080fd5b50516006546040805163fc57d4df60e01b81526001600160a01b0389811660048301529151939450600093919092169163fc57d4df916024808301926020929190829003018186803b158015612dfe57600080fd5b505afa158015612e12573d6000803e3d6000fd5b505050506040513d6020811015612e2857600080fd5b50519050811580612e37575080155b15612e4c57600e935060009250612f45915050565b6000866001600160a01b031663182df0f56040518163ffffffff1660e01b815260040160206040518083038186803b158015612e8757600080fd5b505afa158015612e9b573d6000803e3d6000fd5b505050506040513d6020811015612eb157600080fd5b505190506000612ebf615aa0565b612ec7615aa0565b612ecf615aa0565b612ef7604051806020016040528060085481525060405180602001604052808a8152506150be565b9250612f1f6040518060200160405280888152506040518060200160405280888152506150be565b9150612f2b83836150fd565b9050612f37818b614e21565b600099509750505050505050505b935093915050565b601760209081526000928352604080842090915290825290205481565b60186020526000908152604090205481565b612f84614087565b612fd5576040805162461bcd60e51b815260206004820152601d60248201527f6f6e6c792061646d696e2063616e20616464204c4842206d61726b6574000000604482015290519081900360640190fd5b60005b815181101561300557612ffd828281518110612ff057fe5b6020026020010151615139565b600101612fd8565b5061300e6141c5565b50565b600e54600090600160b81b900460ff1615613065576040805162461bcd60e51b815260206004820152600f60248201526e1cd95a5e99481a5cc81c185d5cd959608a1b604482015290519081900360640190fd5b6001600160a01b0386166000908152600b602052604090205460ff1615806130a657506001600160a01b0385166000908152600b602052604090205460ff16155b156130b257600a6121f6565b846001600160a01b0316635fe3b5676040518163ffffffff1660e01b815260040160206040518083038186803b1580156130eb57600080fd5b505afa1580156130ff573d6000803e3d6000fd5b505050506040513d602081101561311557600080fd5b505160408051635fe3b56760e01b815290516001600160a01b0392831692891691635fe3b567916004808301926020929190829003018186803b15801561315b57600080fd5b505afa15801561316f573d6000803e3d6000fd5b505050506040513d602081101561318557600080fd5b50516001600160a01b03161461319c5760026121f6565b6131a586614925565b6131b186846000614ba3565b6131bd86856000614ba3565b60009695505050505050565b6005602052600090815260409020546001600160a01b031681565b6001600160a01b03831660009081526010602052604081205460ff1615613245576040805162461bcd60e51b815260206004820152601060248201526f189bdc9c9bddc81a5cc81c185d5cd95960821b604482015290519081900360640190fd5b6001600160a01b0384166000908152600b602052604090205460ff1661326c57600a611f59565b6001600160a01b038085166000908152600b60209081526040808320938716835260029093019052205460ff1661335c57336001600160a01b038516146132f2576040805162461bcd60e51b815260206004820152601560248201527439b2b73232b91036bab9ba1031329031aa37b5b2b760591b604482015290519081900360640190fd5b60006132fe3385614f45565b9050600081601381111561330e57fe5b146133275780601381111561331f57fe5b915050611a80565b6001600160a01b038086166000908152600b60209081526040808320938816835260029093019052205460ff1661335a57fe5b505b6006546040805163fc57d4df60e01b81526001600160a01b0387811660048301529151919092169163fc57d4df916024808301926020929190829003018186803b1580156133a957600080fd5b505afa1580156133bd573d6000803e3d6000fd5b505050506040513d60208110156133d357600080fd5b50516133e057600e611f59565b6001600160a01b0384166000908152601a602052604090205480156134cd576000856001600160a01b03166347bd37186040518163ffffffff1660e01b815260040160206040518083038186803b15801561343a57600080fd5b505afa15801561344e573d6000803e3d6000fd5b505050506040513d602081101561346457600080fd5b5051905060006134748286615454565b90508281106134ca576040805162461bcd60e51b815260206004820152601960248201527f6d61726b657420626f72726f7720636170207265616368656400000000000000604482015290519081900360640190fd5b50505b6000806134dd868860008861458a565b919350909150600090508260138111156134f357fe5b1461350e5781601381111561350457fe5b9350505050611a80565b801561351b576004613504565b613523615aa0565b6040518060200160405280896001600160a01b031663aa5af0fd6040518163ffffffff1660e01b815260040160206040518083038186803b15801561356757600080fd5b505afa15801561357b573d6000803e3d6000fd5b505050506040513d602081101561359157600080fd5b5051905290506135a18882613c15565b6135ae8888836000613e9d565b600098975050505050505050565b600a60205281600052604060002081815481106135d557fe5b6000918252602090912001546001600160a01b03169150829050565b6003546001600160a01b031681565b601c6020526000908152604090205481565b600080546001600160a01b03163314613631576129c460016006614d9b565b6001600160a01b0383166000908152600b60205260409020805460ff1661365e5761144a600a6007614d9b565b613666615aa0565b50604080516020810190915283815261367d615aa0565b506040805160208101909152670c7d713b49da0000815261369e8183614e92565b156136af57612a4960066008614d9b565b841580159061373457506006546040805163fc57d4df60e01b81526001600160a01b0389811660048301529151919092169163fc57d4df916024808301926020929190829003018186803b15801561370657600080fd5b505afa15801561371a573d6000803e3d6000fd5b505050506040513d602081101561373057600080fd5b5051155b1561374557612a49600e6009614d9b565b60018301805490869055604080516001600160a01b03891681526020810183905280820188905290517f70483e6592cd5182d45ac970e05bc62cdcc90e9d8ef2c2dbe686cf383bcd7fc59181900360600190a16000612b3f565b600e54600160a81b900460ff1681565b60075481565b61300e81601180548060200260200160405190810160405280929190818152602001828054801561380f57602002820191906000526020600020905b81546001600160a01b031681526001909101906020018083116137f1575b505050505061162c565b600080613827858585614e99565b90508015613836579050611a80565b61383f85614925565b61384b85856000614ba3565b600095945050505050565b6000808290506000806000836001600160a01b031663c37f68e2336040518263ffffffff1660e01b815260040180826001600160a01b03166001600160a01b0316815260200191505060806040518083038186803b1580156138b757600080fd5b505afa1580156138cb573d6000803e3d6000fd5b505050506040513d60808110156138e157600080fd5b5080516020820151604090920151909450909250905082156139345760405162461bcd60e51b8152600401808060200182810382526025815260200180615c556025913960400191505060405180910390fd5b801561395157613946600d6002614d9b565b9450505050506119d5565b600061395e873385614e99565b9050801561397f57613973600f60038361548a565b955050505050506119d5565b6001600160a01b0385166000908152600b60209081526040808320338452600281019092529091205460ff166139be57600096505050505050506119d5565b60006139ca8786614e40565b3360009081526002840160209081526040808320805460ff19169055600a82529182902080548351818402810184019094528084529394506060939091830182828015613a4057602002820191906000526020600020905b81546001600160a01b03168152600190910190602001808311613a22575b5050835193945083925060009150505b82811015613a95578a6001600160a01b0316848281518110613a6e57fe5b60200260200101516001600160a01b03161415613a8d57809150613a95565b600101613a50565b50818110613a9f57fe5b336000908152600a60205260409020805481906000198101908110613ac057fe5b9060005260206000200160009054906101000a90046001600160a01b0316818381548110613aea57fe5b600091825260209091200180546001600160a01b0319166001600160a01b03929092169190911790558054613b23826000198301615ab3565b50604080516001600160a01b038d16815233602082015281517fe699a64c18b07ac5b7301aa273f36a2287239eb9501d81950672794afba29a0d929181900390910190a160009d9c50505050505050505050505050565b6000546001600160a01b031681565b600c602052600090815260409020546001600160a01b031681565b6001600160a01b0382166000908152601b6020908152604080832054601c90925282205482613bd38286615454565b9050600083118015613be457508281115b15613bf0576013612a49565b6001600160a01b0386166000908152601c602052604081208290559695505050505050565b6001600160a01b038216600090815260156020908152604080832060139092528220549091613c42611e30565b8354909150600090613c62908390600160e01b900463ffffffff166154f0565b9050600081118015613c745750600083115b15613e43576000613ce9876001600160a01b03166347bd37186040518163ffffffff1660e01b815260040160206040518083038186803b158015613cb757600080fd5b505afa158015613ccb573d6000803e3d6000fd5b505050506040513d6020811015613ce157600080fd5b50518761552a565b90506000613cf78386615548565b9050613d01615aa0565b60008311613d1e5760405180602001604052806000815250613d28565b613d28828461558a565b9050613d32615aa0565b604080516020810190915288546001600160e01b03168152613d5490836155bf565b90506040518060400160405280613da483600001516040518060400160405280601a81526020017f6e657720696e64657820657863656564732032323420626974730000000000008152506155e4565b6001600160e01b03168152602001613ddf886040518060400160405280601c8152602001600080516020615c7a83398151915281525061567e565b63ffffffff9081169091526001600160a01b038c166000908152601560209081526040909120835181549490920151909216600160e01b026001600160e01b039182166001600160e01b0319909416939093171691909117905550611e3592505050565b8015611e3557613e76826040518060400160405280601c8152602001600080516020615c7a83398151915281525061567e565b845463ffffffff91909116600160e01b026001600160e01b03909116178455505050505050565b6001600160a01b0384166000908152601560205260409020613ebd615aa0565b50604080516020810190915281546001600160e01b03168152613ede615aa0565b5060408051602080820183526001600160a01b03808a16600090815260178352848120918a168082528284529481208054855286519590915291529190915580511561249957613f2c615aa0565b613f3683836156d3565b90506000613fc5896001600160a01b03166395dd91938a6040518263ffffffff1660e01b815260040180826001600160a01b03166001600160a01b0316815260200191505060206040518083038186803b158015613f9357600080fd5b505afa158015613fa7573d6000803e3d6000fd5b505050506040513d6020811015613fbd57600080fd5b50518861552a565b90506000613fd382846156f8565b6001600160a01b038a1660009081526018602052604081205491925090613ffa9083615454565b905061401b8a828a6140135766038d7ea4c68000614016565b60005b615727565b6001600160a01b03808c1660008181526018602090815260409182902094909455895181518781529485015280519193928f16927f1fc3ecc087d8d2d15e23d0032af5a47059c3892d003d8e139fdcb6bb327c99a6929081900390910190a35050505050505050505050565b6000546001600160a01b0316331490565b6000806140a361298d565b604080516370a0823160e01b815230600482015290519192506000916001600160a01b038416916370a08231916024808301926020929190829003018186803b1580156140ef57600080fd5b505afa158015614103573d6000803e3d6000fd5b505050506040513d602081101561411957600080fd5b505190508084116141bc57816001600160a01b031663a9059cbb86866040518363ffffffff1660e01b815260040180836001600160a01b03166001600160a01b0316815260200182815260200192505050602060405180830381600087803b15801561418457600080fd5b505af1158015614198573d6000803e3d6000fd5b505050506040513d60208110156141ae57600080fd5b506000935061148992505050565b50919392505050565b6060601180548060200260200160405190810160405280929190818152602001828054801561421d57602002820191906000526020600020905b81546001600160a01b031681526001909101906020018083116141ff575b50939450600093505050505b81518110156142e357600082828151811061424057fe5b60200260200101519050614252615aa0565b6040518060200160405280836001600160a01b031663aa5af0fd6040518163ffffffff1660e01b815260040160206040518083038186803b15801561429657600080fd5b505afa1580156142aa573d6000803e3d6000fd5b505050506040513d60208110156142c057600080fd5b5051905290506142cf82614925565b6142d98282613c15565b5050600101614229565b506142ec615aa0565b6040518060200160405280600081525090506060825160405190808252806020026020018201604052801561433b57816020015b614328615aa0565b8152602001906001900390816143205790505b50905060005b83518110156144c157600084828151811061435857fe5b6020908102919091018101516001600160a01b0381166000908152600b90925260409091206003015490915060ff16156144b857614394615aa0565b60408051602080820180845260065463fc57d4df60e01b9091526001600160a01b03868116602485015293519293849391169163fc57d4df916044808601929190818703018186803b1580156143e957600080fd5b505afa1580156143fd573d6000803e3d6000fd5b505050506040513d602081101561441357600080fd5b505190529050614421615aa0565b61448f82846001600160a01b03166347bd37186040518163ffffffff1660e01b815260040160206040518083038186803b15801561445e57600080fd5b505afa158015614472573d6000803e3d6000fd5b505050506040513d602081101561448857600080fd5b505161586c565b90508085858151811061449e57fe5b60200260200101819052506144b386826155bf565b955050505b50600101614341565b5060005b8351811015611e2a576000601182815481106144dd57fe5b600091825260208220015485516001600160a01b03909116925061450257600061452a565b61452a60125461452586868151811061451757fe5b6020026020010151886150fd565b61588d565b6001600160a01b0383166000818152601360209081526040918290208490558151848152915193945091927f2ab93f65628379309f36cb125e90d7c902454a545c4f8b8cb0794af75c24b807929181900390910190a250506001016144c5565b6000806000614597615ad7565b6001600160a01b0388166000908152600a6020908152604080832080548251818502810185019093528083526060938301828280156145ff57602002820191906000526020600020905b81546001600160a01b031681526001909101906020018083116145e1575b50939450600093505050505b81518110156148b857600082828151811061462257fe5b60200260200101519050806001600160a01b031663c37f68e28d6040518263ffffffff1660e01b815260040180826001600160a01b03166001600160a01b0316815260200191505060806040518083038186803b15801561468257600080fd5b505afa158015614696573d6000803e3d6000fd5b505050506040513d60808110156146ac57600080fd5b508051602082015160408084015160609485015160808b01529389019390935291870191909152935083156146f157506010965060009550859450611ecd9350505050565b60408051602080820183526001600160a01b038085166000818152600b8085528682206001810154875260c08d019690965286518086018852918390528452600494850154815260e08b01528451808401865260808b015181526101008b0152600654855163fc57d4df60e01b815294850191909152935193169263fc57d4df926024808201939291829003018186803b15801561478e57600080fd5b505afa1580156147a2573d6000803e3d6000fd5b505050506040513d60208110156147b857600080fd5b505160a086018190526147db5750600e965060009550859450611ecd9350505050565b604080516020810190915260a0860151815261012086015260c08501516101008601516148169161480b916150be565b8661012001516150be565b6101408601819052604086015186516148309291906158a6565b855261012085015160e086015161484791906150be565b6101608601819052606086015160208701516148649291906158a6565b60208601526001600160a01b03818116908c1614156148af576148918561014001518b87602001516158a6565b602086018190526101608601516148a9918b906158a6565b60208601525b5060010161460b565b506020830151835111156148de5750506020810151905160009450039150829050611ecd565b82516020840151031580156148f35750600087115b1561490c57506003945060009350859250611ecd915050565b5050805160209091015160009450849350039050611ecd565b6001600160a01b038116600090815260146020908152604080832060139092528220549091614952611e30565b8354909150600090614972908390600160e01b900463ffffffff166154f0565b90506000811180156149845750600083115b15614b4a576000856001600160a01b03166318160ddd6040518163ffffffff1660e01b815260040160206040518083038186803b1580156149c457600080fd5b505afa1580156149d8573d6000803e3d6000fd5b505050506040513d60208110156149ee57600080fd5b5051905060006149fe8386615548565b9050614a08615aa0565b60008311614a255760405180602001604052806000815250614a2f565b614a2f828461558a565b9050614a39615aa0565b604080516020810190915288546001600160e01b03168152614a5b90836155bf565b90506040518060400160405280614aab83600001516040518060400160405280601a81526020017f6e657720696e64657820657863656564732032323420626974730000000000008152506155e4565b6001600160e01b03168152602001614ae6886040518060400160405280601c8152602001600080516020615c7a83398151915281525061567e565b63ffffffff9081169091526001600160a01b038b166000908152601460209081526040909120835181549490920151909216600160e01b026001600160e01b039182166001600160e01b03199094169390931716919091179055506116a092505050565b80156116a057614b7d826040518060400160405280601c8152602001600080516020615c7a83398151915281525061567e565b845463ffffffff91909116600160e01b026001600160e01b039091161784555050505050565b6001600160a01b0383166000908152601460205260409020614bc3615aa0565b50604080516020810190915281546001600160e01b03168152614be4615aa0565b5060408051602080820183526001600160a01b03808916600090815260168352848120918916808252828452948120805485528651959091529152919091558051158015614c325750815115155b15614c4a576ec097ce7bc90715b34b9f100000000081525b614c52615aa0565b614c5c83836156d3565b90506000876001600160a01b03166370a08231886040518263ffffffff1660e01b815260040180826001600160a01b03166001600160a01b0316815260200191505060206040518083038186803b158015614cb657600080fd5b505afa158015614cca573d6000803e3d6000fd5b505050506040513d6020811015614ce057600080fd5b505190506000614cf082846156f8565b6001600160a01b03891660009081526018602052604081205491925090614d179083615454565b9050614d3089828a6140135766038d7ea4c68000614016565b6001600160a01b03808b1660008181526018602090815260409182902094909455895181518781529485015280519193928e16927f2caecd17d02f56fa897705dcc740da2d237c373f70686f4e0d9bd3bf0400ea7a929081900390910190a350505050505050505050565b60007f45b96fe442630264581b197e84bbada861235052c5a1aadfff9ea4e40a969aa0836013811115614dca57fe5b83601b811115614dd657fe5b604080519283526020830191909152600082820152519081900360600190a1826013811115611a8057fe5b6000806000614e1484600080600061458a565b9250925092509193909250565b6000614e2b615aa0565b614e35848461586c565b9050611485816158ce565b6001600160a01b0382166000908152601c602052604081205481838210614e6e57614e6b82856154f0565b90505b6001600160a01b0385166000908152601c6020526040812082905595945050505050565b5190511090565b6001600160a01b0383166000908152600b602052604081205460ff16614ec057600a611f59565b6001600160a01b038085166000908152600b60209081526040808320938716835260029093019052205460ff16614ef8576000611f59565b600080614f08858786600061458a565b91935090915060009050826013811115614f1e57fe5b14614f3857816013811115614f2f57fe5b92505050611a80565b80156131bd576004614f2f565b6001600160a01b0382166000908152600b60205260408120805460ff16614f7057600a915050611489565b6001600160a01b038316600090815260028201602052604090205460ff16151560011415614fa2576000915050611489565b6001600160a01b0380841660008181526002840160209081526040808320805460ff19166001908117909155600a8352818420805491820181558452828420018054958a166001600160a01b03199096168617905580516370a0823160e01b81526004810194909452519193926370a082319260248083019392829003018186803b15801561503057600080fd5b505afa158015615044573d6000803e3d6000fd5b505050506040513d602081101561505a57600080fd5b50519050600061506a8683613ba4565b604080516001600160a01b03808a1682528816602082015281519293507f3ab23ab0d51cccc0c3085aec51f99228625aa1a922b3a8ca89a26b0f2027a1a5929081900390910190a150600095945050505050565b6150c6615aa0565b6040518060200160405280670de0b6b3a76400006150ec86600001518660000151615548565b816150f357fe5b0490529392505050565b615105615aa0565b60405180602001604052806151306151298660000151670de0b6b3a7640000615548565b85516158dd565b90529392505050565b6001600160a01b0381166000908152600b60205260409020805460ff1615156001146151ac576040805162461bcd60e51b815260206004820152601860248201527f4c4842206d61726b6574206973206e6f74206c69737465640000000000000000604482015290519081900360640190fd5b600381015460ff1615615206576040805162461bcd60e51b815260206004820152601860248201527f4c4842206d61726b657420616c72656164792061646465640000000000000000604482015290519081900360640190fd5b60038101805460ff19166001908117909155604080516001600160a01b0385168152602081019290925280517f93c1f3e36ed71139f466a4ce8c9751790e2e33f5afb2df0dcfb3aeabe55d5aa29281900390910190a16001600160a01b0382166000908152601460205260409020546001600160e01b03161580156152ae57506001600160a01b038216600090815260146020526040902054600160e01b900463ffffffff16155b1561536b5760405180604001604052806ec097ce7bc90715b34b9f10000000006001600160e01b031681526020016153106152e7611e30565b6040518060400160405280601c8152602001600080516020615c7a83398151915281525061567e565b63ffffffff9081169091526001600160a01b0384166000908152601460209081526040909120835181549490920151909216600160e01b026001600160e01b039182166001600160e01b031990941693909317169190911790555b6001600160a01b0382166000908152601560205260409020546001600160e01b03161580156153bd57506001600160a01b038216600090815260156020526040902054600160e01b900463ffffffff16155b15611c605760405180604001604052806ec097ce7bc90715b34b9f10000000006001600160e01b031681526020016153f66152e7611e30565b63ffffffff9081169091526001600160a01b0384166000908152601560209081526040909120835181549490920151909216600160e01b026001600160e01b039182166001600160e01b031990941693909317169190911790555050565b6000611a808383604051806040016040528060118152602001706164646974696f6e206f766572666c6f7760781b815250615910565b60007f45b96fe442630264581b197e84bbada861235052c5a1aadfff9ea4e40a969aa08460138111156154b957fe5b84601b8111156154c557fe5b604080519283526020830191909152818101859052519081900360600190a183601381111561177757fe5b6000611a808383604051806040016040528060158152602001747375627472616374696f6e20756e646572666c6f7760581b81525061596e565b6000611a8061554184670de0b6b3a7640000615548565b83516158dd565b6000611a8083836040518060400160405280601781526020017f6d756c7469706c69636174696f6e206f766572666c6f770000000000000000008152506159c8565b615592615aa0565b60405180602001604052806151306155b9866ec097ce7bc90715b34b9f1000000000615548565b856158dd565b6155c7615aa0565b604051806020016040528061513085600001518560000151615454565b600081600160e01b84106156765760405162461bcd60e51b81526004018080602001828103825283818151815260200191508051906020019080838360005b8381101561563b578181015183820152602001615623565b50505050905090810190601f1680156156685780820380516001836020036101000a031916815260200191505b509250505060405180910390fd5b509192915050565b600081600160201b84106156765760405162461bcd60e51b815260206004820181815283516024840152835190928392604490910191908501908083836000831561563b578181015183820152602001615623565b6156db615aa0565b6040518060200160405280615130856000015185600001516154f0565b60006ec097ce7bc90715b34b9f1000000000615718848460000151615548565b8161571f57fe5b049392505050565b60008183101580156157395750600083115b1561586457600061574861298d565b604080516370a0823160e01b815230600482015290519192506000916001600160a01b038416916370a08231916024808301926020929190829003018186803b15801561579457600080fd5b505afa1580156157a8573d6000803e3d6000fd5b505050506040513d60208110156157be57600080fd5b5051905080851161586157816001600160a01b031663a9059cbb87876040518363ffffffff1660e01b815260040180836001600160a01b03166001600160a01b0316815260200182815260200192505050602060405180830381600087803b15801561582957600080fd5b505af115801561583d573d6000803e3d6000fd5b505050506040513d602081101561585357600080fd5b5060009350611a8092505050565b50505b509092915050565b615874615aa0565b6040518060200160405280615130856000015185615548565b6000670de0b6b3a7640000615718848460000151615548565b60006158b0615aa0565b6158ba858561586c565b90506123096158c8826158ce565b84615454565b51670de0b6b3a7640000900490565b6000611a8083836040518060400160405280600e81526020016d646976696465206279207a65726f60901b815250615a3e565b600083830182858210156159655760405162461bcd60e51b815260206004820181815283516024840152835190928392604490910191908501908083836000831561563b578181015183820152602001615623565b50949350505050565b600081848411156159c05760405162461bcd60e51b815260206004820181815283516024840152835190928392604490910191908501908083836000831561563b578181015183820152602001615623565b505050900390565b60008315806159d5575082155b156159e257506000611a80565b838302838582816159ef57fe5b041483906159655760405162461bcd60e51b815260206004820181815283516024840152835190928392604490910191908501908083836000831561563b578181015183820152602001615623565b60008183615a8d5760405162461bcd60e51b815260206004820181815283516024840152835190928392604490910191908501908083836000831561563b578181015183820152602001615623565b50828481615a9757fe5b04949350505050565b6040518060200160405280600081525090565b81548183558181111561168957600083815260209020611689918101908301615b5b565b604051806101800160405280600081526020016000815260200160008152602001600081526020016000815260200160008152602001615b15615aa0565b8152602001615b22615aa0565b8152602001615b2f615aa0565b8152602001615b3c615aa0565b8152602001615b49615aa0565b8152602001615b56615aa0565b905290565b611e3291905b80821115615b755760008155600101615b61565b509056fe63616e6e6f742070617573652061206d61726b65742074686174206973206e6f74206c69737465646f6e6c792065787465726e616c6c79206f776e6564206163636f756e7473206d61792072656672657368207370656564736f6e6c7920706175736520677561726469616e20616e642061646d696e2063616e2070617573656f6e6c792061646d696e2063616e2073657420626f72726f772063617020677561726469616e6f6e6c792061646d696e206f7220626f72726f772063617020677561726469616e2063616e2073657420626f72726f772063617073657869744d61726b65743a206765744163636f756e74536e617073686f74206661696c6564626c6f636b206e756d6265722065786365656473203332206269747300000000a265627a7a723158203bc1ca42cbeea4e9fc23ac23236fef6e87780db0f44ae06663b03647fb3b94ba64736f6c63430005100032",
  "linkReferences": {},
  "deployedLinkReferences": {}
}