{
  "_format": "hh-sol-artifact-1",
  "contractName": "LErc20Immutable1",
  "sourceName": "contracts/compound/LErc20Immutable.sol",
  "abi": [
    {
      "inputs": [
        {
          "internalType": "address",
          "name": "underlying_",
          "type": "address"
        },
        {
          "internalType": "contract ComptrollerInterface",
          "name": "comptroller_",
          "type": "address"
        },
        {
          "internalType": "contract InterestRateModel",
          "name": "interestRateModel_",
          "type": "address"
        },
        {
          "internalType": "uint256",
          "name": "initialExchangeRateMantissa_",
          "type": "uint256"
        },
        {
          "internalType": "string",
          "name": "name_",
          "type": "string"
        },
        {
          "internalType": "string",
          "name": "symbol_",
          "type": "string"
        },
        {
          "internalType": "uint8",
          "name": "decimals_",
          "type": "uint8"
        },
        {
          "internalType": "address payable",
          "name": "admin_",
          "type": "address"
        }
      ],
      "payable": false,
      "stateMutability": "nonpayable",
      "type": "constructor"
    },
    {
      "anonymous": false,
      "inputs": [
        {
          "indexed": false,
          "internalType": "uint256",
          "name": "cashPrior",
          "type": "uint256"
        },
        {
          "indexed": false,
          "internalType": "uint256",
          "name": "interestAccumulated",
          "type": "uint256"
        },
        {
          "indexed": false,
          "internalType": "uint256",
          "name": "borrowIndex",
          "type": "uint256"
        },
        {
          "indexed": false,
          "internalType": "uint256",
          "name": "totalBorrows",
          "type": "uint256"
        }
      ],
      "name": "AccrueInterest",
      "type": "event"
    },
    {
      "anonymous": false,
      "inputs": [
        {
          "indexed": true,
          "internalType": "address",
          "name": "owner",
          "type": "address"
        },
        {
          "indexed": true,
          "internalType": "address",
          "name": "spender",
          "type": "address"
        },
        {
          "indexed": false,
          "internalType": "uint256",
          "name": "amount",
          "type": "uint256"
        }
      ],
      "name": "Approval",
      "type": "event"
    },
    {
      "anonymous": false,
      "inputs": [
        {
          "indexed": false,
          "internalType": "address",
          "name": "borrower",
          "type": "address"
        },
        {
          "indexed": false,
          "internalType": "uint256",
          "name": "borrowAmount",
          "type": "uint256"
        },
        {
          "indexed": false,
          "internalType": "uint256",
          "name": "accountBorrows",
          "type": "uint256"
        },
        {
          "indexed": false,
          "internalType": "uint256",
          "name": "totalBorrows",
          "type": "uint256"
        }
      ],
      "name": "Borrow",
      "type": "event"
    },
    {
      "anonymous": false,
      "inputs": [
        {
          "indexed": false,
          "internalType": "uint256",
          "name": "error",
          "type": "uint256"
        },
        {
          "indexed": false,
          "internalType": "uint256",
          "name": "info",
          "type": "uint256"
        },
        {
          "indexed": false,
          "internalType": "uint256",
          "name": "detail",
          "type": "uint256"
        }
      ],
      "name": "Failure",
      "type": "event"
    },
    {
      "anonymous": false,
      "inputs": [
        {
          "indexed": false,
          "internalType": "address",
          "name": "liquidator",
          "type": "address"
        },
        {
          "indexed": false,
          "internalType": "address",
          "name": "borrower",
          "type": "address"
        },
        {
          "indexed": false,
          "internalType": "uint256",
          "name": "repayAmount",
          "type": "uint256"
        },
        {
          "indexed": false,
          "internalType": "address",
          "name": "cTokenCollateral",
          "type": "address"
        },
        {
          "indexed": false,
          "internalType": "uint256",
          "name": "seizeTokens",
          "type": "uint256"
        }
      ],
      "name": "LiquidateBorrow",
      "type": "event"
    },
    {
      "anonymous": false,
      "inputs": [
        {
          "indexed": false,
          "internalType": "address",
          "name": "minter",
          "type": "address"
        },
        {
          "indexed": false,
          "internalType": "uint256",
          "name": "mintAmount",
          "type": "uint256"
        },
        {
          "indexed": false,
          "internalType": "uint256",
          "name": "mintTokens",
          "type": "uint256"
        }
      ],
      "name": "Mint",
      "type": "event"
    },
    {
      "anonymous": false,
      "inputs": [
        {
          "indexed": false,
          "internalType": "address",
          "name": "oldAdmin",
          "type": "address"
        },
        {
          "indexed": false,
          "internalType": "address",
          "name": "newAdmin",
          "type": "address"
        }
      ],
      "name": "NewAdmin",
      "type": "event"
    },
    {
      "anonymous": false,
      "inputs": [
        {
          "indexed": false,
          "internalType": "contract ComptrollerInterface",
          "name": "oldComptroller",
          "type": "address"
        },
        {
          "indexed": false,
          "internalType": "contract ComptrollerInterface",
          "name": "newComptroller",
          "type": "address"
        }
      ],
      "name": "NewComptroller",
      "type": "event"
    },
    {
      "anonymous": false,
      "inputs": [
        {
          "indexed": false,
          "internalType": "contract InterestRateModel",
          "name": "oldInterestRateModel",
          "type": "address"
        },
        {
          "indexed": false,
          "internalType": "contract InterestRateModel",
          "name": "newInterestRateModel",
          "type": "address"
        }
      ],
      "name": "NewMarketInterestRateModel",
      "type": "event"
    },
    {
      "anonymous": false,
      "inputs": [
        {
          "indexed": false,
          "internalType": "address",
          "name": "oldPendingAdmin",
          "type": "address"
        },
        {
          "indexed": false,
          "internalType": "address",
          "name": "newPendingAdmin",
          "type": "address"
        }
      ],
      "name": "NewPendingAdmin",
      "type": "event"
    },
    {
      "anonymous": false,
      "inputs": [
        {
          "indexed": false,
          "internalType": "uint256",
          "name": "oldReserveFactorMantissa",
          "type": "uint256"
        },
        {
          "indexed": false,
          "internalType": "uint256",
          "name": "newReserveFactorMantissa",
          "type": "uint256"
        }
      ],
      "name": "NewReserveFactor",
      "type": "event"
    },
    {
      "anonymous": false,
      "inputs": [
        {
          "indexed": false,
          "internalType": "address",
          "name": "redeemer",
          "type": "address"
        },
        {
          "indexed": false,
          "internalType": "uint256",
          "name": "redeemAmount",
          "type": "uint256"
        },
        {
          "indexed": false,
          "internalType": "uint256",
          "name": "redeemTokens",
          "type": "uint256"
        }
      ],
      "name": "Redeem",
      "type": "event"
    },
    {
      "anonymous": false,
      "inputs": [
        {
          "indexed": false,
          "internalType": "address",
          "name": "payer",
          "type": "address"
        },
        {
          "indexed": false,
          "internalType": "address",
          "name": "borrower",
          "type": "address"
        },
        {
          "indexed": false,
          "internalType": "uint256",
          "name": "repayAmount",
          "type": "uint256"
        },
        {
          "indexed": false,
          "internalType": "uint256",
          "name": "accountBorrows",
          "type": "uint256"
        },
        {
          "indexed": false,
          "internalType": "uint256",
          "name": "totalBorrows",
          "type": "uint256"
        }
      ],
      "name": "RepayBorrow",
      "type": "event"
    },
    {
      "anonymous": false,
      "inputs": [
        {
          "indexed": false,
          "internalType": "address",
          "name": "benefactor",
          "type": "address"
        },
        {
          "indexed": false,
          "internalType": "uint256",
          "name": "addAmount",
          "type": "uint256"
        },
        {
          "indexed": false,
          "internalType": "uint256",
          "name": "newTotalReserves",
          "type": "uint256"
        }
      ],
      "name": "ReservesAdded",
      "type": "event"
    },
    {
      "anonymous": false,
      "inputs": [
        {
          "indexed": false,
          "internalType": "address",
          "name": "admin",
          "type": "address"
        },
        {
          "indexed": false,
          "internalType": "uint256",
          "name": "reduceAmount",
          "type": "uint256"
        },
        {
          "indexed": false,
          "internalType": "uint256",
          "name": "newTotalReserves",
          "type": "uint256"
        }
      ],
      "name": "ReservesReduced",
      "type": "event"
    },
    {
      "anonymous": false,
      "inputs": [
        {
          "indexed": true,
          "internalType": "address",
          "name": "from",
          "type": "address"
        },
        {
          "indexed": true,
          "internalType": "address",
          "name": "to",
          "type": "address"
        },
        {
          "indexed": false,
          "internalType": "uint256",
          "name": "amount",
          "type": "uint256"
        }
      ],
      "name": "Transfer",
      "type": "event"
    },
    {
      "constant": false,
      "inputs": [],
      "name": "_acceptAdmin",
      "outputs": [
        {
          "internalType": "uint256",
          "name": "",
          "type": "uint256"
        }
      ],
      "payable": false,
      "stateMutability": "nonpayable",
      "type": "function"
    },
    {
      "constant": false,
      "inputs": [
        {
          "internalType": "uint256",
          "name": "addAmount",
          "type": "uint256"
        }
      ],
      "name": "_addReserves",
      "outputs": [
        {
          "internalType": "uint256",
          "name": "",
          "type": "uint256"
        }
      ],
      "payable": false,
      "stateMutability": "nonpayable",
      "type": "function"
    },
    {
      "constant": false,
      "inputs": [
        {
          "internalType": "uint256",
          "name": "reduceAmount",
          "type": "uint256"
        }
      ],
      "name": "_reduceReserves",
      "outputs": [
        {
          "internalType": "uint256",
          "name": "",
          "type": "uint256"
        }
      ],
      "payable": false,
      "stateMutability": "nonpayable",
      "type": "function"
    },
    {
      "constant": false,
      "inputs": [
        {
          "internalType": "contract ComptrollerInterface",
          "name": "newComptroller",
          "type": "address"
        }
      ],
      "name": "_setComptroller",
      "outputs": [
        {
          "internalType": "uint256",
          "name": "",
          "type": "uint256"
        }
      ],
      "payable": false,
      "stateMutability": "nonpayable",
      "type": "function"
    },
    {
      "constant": false,
      "inputs": [
        {
          "internalType": "contract InterestRateModel",
          "name": "newInterestRateModel",
          "type": "address"
        }
      ],
      "name": "_setInterestRateModel",
      "outputs": [
        {
          "internalType": "uint256",
          "name": "",
          "type": "uint256"
        }
      ],
      "payable": false,
      "stateMutability": "nonpayable",
      "type": "function"
    },
    {
      "constant": false,
      "inputs": [
        {
          "internalType": "address payable",
          "name": "newPendingAdmin",
          "type": "address"
        }
      ],
      "name": "_setPendingAdmin",
      "outputs": [
        {
          "internalType": "uint256",
          "name": "",
          "type": "uint256"
        }
      ],
      "payable": false,
      "stateMutability": "nonpayable",
      "type": "function"
    },
    {
      "constant": false,
      "inputs": [
        {
          "internalType": "uint256",
          "name": "newReserveFactorMantissa",
          "type": "uint256"
        }
      ],
      "name": "_setReserveFactor",
      "outputs": [
        {
          "internalType": "uint256",
          "name": "",
          "type": "uint256"
        }
      ],
      "payable": false,
      "stateMutability": "nonpayable",
      "type": "function"
    },
    {
      "constant": true,
      "inputs": [],
      "name": "accrualBlockNumber",
      "outputs": [
        {
          "internalType": "uint256",
          "name": "",
          "type": "uint256"
        }
      ],
      "payable": false,
      "stateMutability": "view",
      "type": "function"
    },
    {
      "constant": false,
      "inputs": [],
      "name": "accrueInterest",
      "outputs": [
        {
          "internalType": "uint256",
          "name": "",
          "type": "uint256"
        }
      ],
      "payable": false,
      "stateMutability": "nonpayable",
      "type": "function"
    },
    {
      "constant": true,
      "inputs": [],
      "name": "admin",
      "outputs": [
        {
          "internalType": "address payable",
          "name": "",
          "type": "address"
        }
      ],
      "payable": false,
      "stateMutability": "view",
      "type": "function"
    },
    {
      "constant": true,
      "inputs": [
        {
          "internalType": "address",
          "name": "owner",
          "type": "address"
        },
        {
          "internalType": "address",
          "name": "spender",
          "type": "address"
        }
      ],
      "name": "allowance",
      "outputs": [
        {
          "internalType": "uint256",
          "name": "",
          "type": "uint256"
        }
      ],
      "payable": false,
      "stateMutability": "view",
      "type": "function"
    },
    {
      "constant": false,
      "inputs": [
        {
          "internalType": "address",
          "name": "spender",
          "type": "address"
        },
        {
          "internalType": "uint256",
          "name": "amount",
          "type": "uint256"
        }
      ],
      "name": "approve",
      "outputs": [
        {
          "internalType": "bool",
          "name": "",
          "type": "bool"
        }
      ],
      "payable": false,
      "stateMutability": "nonpayable",
      "type": "function"
    },
    {
      "constant": true,
      "inputs": [
        {
          "internalType": "address",
          "name": "owner",
          "type": "address"
        }
      ],
      "name": "balanceOf",
      "outputs": [
        {
          "internalType": "uint256",
          "name": "",
          "type": "uint256"
        }
      ],
      "payable": false,
      "stateMutability": "view",
      "type": "function"
    },
    {
      "constant": false,
      "inputs": [
        {
          "internalType": "address",
          "name": "owner",
          "type": "address"
        }
      ],
      "name": "balanceOfUnderlying",
      "outputs": [
        {
          "internalType": "uint256",
          "name": "",
          "type": "uint256"
        }
      ],
      "payable": false,
      "stateMutability": "nonpayable",
      "type": "function"
    },
    {
      "constant": false,
      "inputs": [
        {
          "internalType": "uint256",
          "name": "borrowAmount",
          "type": "uint256"
        },
        {
          "internalType": "address",
          "name": "to",
          "type": "address"
        }
      ],
      "name": "borrow",
      "outputs": [
        {
          "internalType": "uint256",
          "name": "",
          "type": "uint256"
        }
      ],
      "payable": false,
      "stateMutability": "nonpayable",
      "type": "function"
    },
    {
      "constant": false,
      "inputs": [
        {
          "internalType": "address",
          "name": "account",
          "type": "address"
        }
      ],
      "name": "borrowBalanceCurrent",
      "outputs": [
        {
          "internalType": "uint256",
          "name": "",
          "type": "uint256"
        }
      ],
      "payable": false,
      "stateMutability": "nonpayable",
      "type": "function"
    },
    {
      "constant": true,
      "inputs": [
        {
          "internalType": "address",
          "name": "account",
          "type": "address"
        }
      ],
      "name": "borrowBalanceStored",
      "outputs": [
        {
          "internalType": "uint256",
          "name": "",
          "type": "uint256"
        }
      ],
      "payable": false,
      "stateMutability": "view",
      "type": "function"
    },
    {
      "constant": true,
      "inputs": [],
      "name": "borrowIndex",
      "outputs": [
        {
          "internalType": "uint256",
          "name": "",
          "type": "uint256"
        }
      ],
      "payable": false,
      "stateMutability": "view",
      "type": "function"
    },
    {
      "constant": true,
      "inputs": [],
      "name": "borrowRatePerBlock",
      "outputs": [
        {
          "internalType": "uint256",
          "name": "",
          "type": "uint256"
        }
      ],
      "payable": false,
      "stateMutability": "view",
      "type": "function"
    },
    {
      "constant": true,
      "inputs": [],
      "name": "comptroller",
      "outputs": [
        {
          "internalType": "contract ComptrollerInterface",
          "name": "",
          "type": "address"
        }
      ],
      "payable": false,
      "stateMutability": "view",
      "type": "function"
    },
    {
      "constant": true,
      "inputs": [],
      "name": "comptrollerV2",
      "outputs": [
        {
          "internalType": "contract ComptrollerInterfaceV2",
          "name": "",
          "type": "address"
        }
      ],
      "payable": false,
      "stateMutability": "view",
      "type": "function"
    },
    {
      "constant": true,
      "inputs": [],
      "name": "decimals",
      "outputs": [
        {
          "internalType": "uint8",
          "name": "",
          "type": "uint8"
        }
      ],
      "payable": false,
      "stateMutability": "view",
      "type": "function"
    },
    {
      "constant": false,
      "inputs": [],
      "name": "exchangeRateCurrent",
      "outputs": [
        {
          "internalType": "uint256",
          "name": "",
          "type": "uint256"
        }
      ],
      "payable": false,
      "stateMutability": "nonpayable",
      "type": "function"
    },
    {
      "constant": true,
      "inputs": [],
      "name": "exchangeRateStored",
      "outputs": [
        {
          "internalType": "uint256",
          "name": "",
          "type": "uint256"
        }
      ],
      "payable": false,
      "stateMutability": "view",
      "type": "function"
    },
    {
      "constant": false,
      "inputs": [
        {
          "internalType": "uint256",
          "name": "addBorrow",
          "type": "uint256"
        }
      ],
      "name": "externalDebtAdd",
      "outputs": [
        {
          "internalType": "uint256",
          "name": "",
          "type": "uint256"
        }
      ],
      "payable": false,
      "stateMutability": "nonpayable",
      "type": "function"
    },
    {
      "constant": true,
      "inputs": [
        {
          "internalType": "address",
          "name": "account",
          "type": "address"
        }
      ],
      "name": "getAccountSnapshot",
      "outputs": [
        {
          "internalType": "uint256",
          "name": "",
          "type": "uint256"
        },
        {
          "internalType": "uint256",
          "name": "",
          "type": "uint256"
        },
        {
          "internalType": "uint256",
          "name": "",
          "type": "uint256"
        },
        {
          "internalType": "uint256",
          "name": "",
          "type": "uint256"
        }
      ],
      "payable": false,
      "stateMutability": "view",
      "type": "function"
    },
    {
      "constant": true,
      "inputs": [],
      "name": "getBorrowRate",
      "outputs": [
        {
          "internalType": "uint256",
          "name": "",
          "type": "uint256"
        }
      ],
      "payable": false,
      "stateMutability": "view",
      "type": "function"
    },
    {
      "constant": true,
      "inputs": [],
      "name": "getCash",
      "outputs": [
        {
          "internalType": "uint256",
          "name": "",
          "type": "uint256"
        }
      ],
      "payable": false,
      "stateMutability": "view",
      "type": "function"
    },
    {
      "constant": false,
      "inputs": [
        {
          "internalType": "address",
          "name": "underlying_",
          "type": "address"
        },
        {
          "internalType": "contract ComptrollerInterface",
          "name": "comptroller_",
          "type": "address"
        },
        {
          "internalType": "contract InterestRateModel",
          "name": "interestRateModel_",
          "type": "address"
        },
        {
          "internalType": "uint256",
          "name": "initialExchangeRateMantissa_",
          "type": "uint256"
        },
        {
          "internalType": "string",
          "name": "name_",
          "type": "string"
        },
        {
          "internalType": "string",
          "name": "symbol_",
          "type": "string"
        },
        {
          "internalType": "uint8",
          "name": "decimals_",
          "type": "uint8"
        }
      ],
      "name": "initialize",
      "outputs": [],
      "payable": false,
      "stateMutability": "nonpayable",
      "type": "function"
    },
    {
      "constant": false,
      "inputs": [
        {
          "internalType": "contract ComptrollerInterface",
          "name": "comptroller_",
          "type": "address"
        },
        {
          "internalType": "contract InterestRateModel",
          "name": "interestRateModel_",
          "type": "address"
        },
        {
          "internalType": "uint256",
          "name": "initialExchangeRateMantissa_",
          "type": "uint256"
        },
        {
          "internalType": "string",
          "name": "name_",
          "type": "string"
        },
        {
          "internalType": "string",
          "name": "symbol_",
          "type": "string"
        },
        {
          "internalType": "uint8",
          "name": "decimals_",
          "type": "uint8"
        }
      ],
      "name": "initialize",
      "outputs": [],
      "payable": false,
      "stateMutability": "nonpayable",
      "type": "function"
    },
    {
      "constant": true,
      "inputs": [],
      "name": "interestRateModel",
      "outputs": [
        {
          "internalType": "contract InterestRateModel",
          "name": "",
          "type": "address"
        }
      ],
      "payable": false,
      "stateMutability": "view",
      "type": "function"
    },
    {
      "constant": true,
      "inputs": [],
      "name": "isCToken",
      "outputs": [
        {
          "internalType": "bool",
          "name": "",
          "type": "bool"
        }
      ],
      "payable": false,
      "stateMutability": "view",
      "type": "function"
    },
    {
      "constant": false,
      "inputs": [
        {
          "internalType": "uint256",
          "name": "leverageAmount",
          "type": "uint256"
        }
      ],
      "name": "leverageBorrow",
      "outputs": [
        {
          "internalType": "uint256",
          "name": "",
          "type": "uint256"
        }
      ],
      "payable": false,
      "stateMutability": "nonpayable",
      "type": "function"
    },
    {
      "constant": true,
      "inputs": [],
      "name": "leverageSupply",
      "outputs": [
        {
          "internalType": "uint256",
          "name": "",
          "type": "uint256"
        }
      ],
      "payable": false,
      "stateMutability": "view",
      "type": "function"
    },
    {
      "constant": false,
      "inputs": [
        {
          "internalType": "address",
          "name": "borrower",
          "type": "address"
        },
        {
          "internalType": "uint256",
          "name": "repayAmount",
          "type": "uint256"
        },
        {
          "internalType": "contract CTokenInterface",
          "name": "cTokenCollateral",
          "type": "address"
        }
      ],
      "name": "liquidateBorrow",
      "outputs": [
        {
          "internalType": "uint256",
          "name": "",
          "type": "uint256"
        }
      ],
      "payable": false,
      "stateMutability": "nonpayable",
      "type": "function"
    },
    {
      "constant": false,
      "inputs": [
        {
          "internalType": "uint256",
          "name": "mintAmount",
          "type": "uint256"
        }
      ],
      "name": "mint",
      "outputs": [
        {
          "internalType": "uint256",
          "name": "",
          "type": "uint256"
        },
        {
          "internalType": "uint256",
          "name": "",
          "type": "uint256"
        }
      ],
      "payable": false,
      "stateMutability": "nonpayable",
      "type": "function"
    },
    {
      "constant": true,
      "inputs": [],
      "name": "name",
      "outputs": [
        {
          "internalType": "string",
          "name": "",
          "type": "string"
        }
      ],
      "payable": false,
      "stateMutability": "view",
      "type": "function"
    },
    {
      "constant": true,
      "inputs": [],
      "name": "pendingAdmin",
      "outputs": [
        {
          "internalType": "address payable",
          "name": "",
          "type": "address"
        }
      ],
      "payable": false,
      "stateMutability": "view",
      "type": "function"
    },
    {
      "constant": false,
      "inputs": [
        {
          "internalType": "uint256",
          "name": "redeemTokens",
          "type": "uint256"
        }
      ],
      "name": "redeem",
      "outputs": [
        {
          "internalType": "uint256",
          "name": "",
          "type": "uint256"
        },
        {
          "internalType": "uint256",
          "name": "",
          "type": "uint256"
        },
        {
          "internalType": "uint256",
          "name": "",
          "type": "uint256"
        }
      ],
      "payable": false,
      "stateMutability": "nonpayable",
      "type": "function"
    },
    {
      "constant": false,
      "inputs": [
        {
          "internalType": "uint256",
          "name": "redeemTokens",
          "type": "uint256"
        }
      ],
      "name": "redeemLeverage",
      "outputs": [
        {
          "internalType": "uint256",
          "name": "",
          "type": "uint256"
        },
        {
          "internalType": "uint256",
          "name": "",
          "type": "uint256"
        }
      ],
      "payable": false,
      "stateMutability": "nonpayable",
      "type": "function"
    },
    {
      "constant": false,
      "inputs": [
        {
          "internalType": "uint256",
          "name": "redeemAmount",
          "type": "uint256"
        }
      ],
      "name": "redeemUnderlying",
      "outputs": [
        {
          "internalType": "uint256",
          "name": "",
          "type": "uint256"
        },
        {
          "internalType": "uint256",
          "name": "",
          "type": "uint256"
        },
        {
          "internalType": "uint256",
          "name": "",
          "type": "uint256"
        }
      ],
      "payable": false,
      "stateMutability": "nonpayable",
      "type": "function"
    },
    {
      "constant": false,
      "inputs": [
        {
          "internalType": "uint256",
          "name": "repayAmount",
          "type": "uint256"
        }
      ],
      "name": "repayBorrow",
      "outputs": [
        {
          "internalType": "uint256",
          "name": "",
          "type": "uint256"
        }
      ],
      "payable": false,
      "stateMutability": "nonpayable",
      "type": "function"
    },
    {
      "constant": false,
      "inputs": [
        {
          "internalType": "address",
          "name": "borrower",
          "type": "address"
        },
        {
          "internalType": "uint256",
          "name": "repayAmount",
          "type": "uint256"
        }
      ],
      "name": "repayBorrowBehalf",
      "outputs": [
        {
          "internalType": "uint256",
          "name": "",
          "type": "uint256"
        }
      ],
      "payable": false,
      "stateMutability": "nonpayable",
      "type": "function"
    },
    {
      "constant": true,
      "inputs": [],
      "name": "reserveFactorMantissa",
      "outputs": [
        {
          "internalType": "uint256",
          "name": "",
          "type": "uint256"
        }
      ],
      "payable": false,
      "stateMutability": "view",
      "type": "function"
    },
    {
      "constant": false,
      "inputs": [
        {
          "internalType": "address",
          "name": "liquidator",
          "type": "address"
        },
        {
          "internalType": "address",
          "name": "borrower",
          "type": "address"
        },
        {
          "internalType": "uint256",
          "name": "seizeTokens",
          "type": "uint256"
        }
      ],
      "name": "seize",
      "outputs": [
        {
          "internalType": "uint256",
          "name": "",
          "type": "uint256"
        }
      ],
      "payable": false,
      "stateMutability": "nonpayable",
      "type": "function"
    },
    {
      "constant": true,
      "inputs": [],
      "name": "supplyRatePerBlock",
      "outputs": [
        {
          "internalType": "uint256",
          "name": "",
          "type": "uint256"
        }
      ],
      "payable": false,
      "stateMutability": "view",
      "type": "function"
    },
    {
      "constant": true,
      "inputs": [],
      "name": "symbol",
      "outputs": [
        {
          "internalType": "string",
          "name": "",
          "type": "string"
        }
      ],
      "payable": false,
      "stateMutability": "view",
      "type": "function"
    },
    {
      "constant": true,
      "inputs": [],
      "name": "totalBorrows",
      "outputs": [
        {
          "internalType": "uint256",
          "name": "",
          "type": "uint256"
        }
      ],
      "payable": false,
      "stateMutability": "view",
      "type": "function"
    },
    {
      "constant": false,
      "inputs": [],
      "name": "totalBorrowsCurrent",
      "outputs": [
        {
          "internalType": "uint256",
          "name": "",
          "type": "uint256"
        }
      ],
      "payable": false,
      "stateMutability": "nonpayable",
      "type": "function"
    },
    {
      "constant": true,
      "inputs": [],
      "name": "totalReserves",
      "outputs": [
        {
          "internalType": "uint256",
          "name": "",
          "type": "uint256"
        }
      ],
      "payable": false,
      "stateMutability": "view",
      "type": "function"
    },
    {
      "constant": true,
      "inputs": [],
      "name": "totalSupply",
      "outputs": [
        {
          "internalType": "uint256",
          "name": "",
          "type": "uint256"
        }
      ],
      "payable": false,
      "stateMutability": "view",
      "type": "function"
    },
    {
      "constant": false,
      "inputs": [
        {
          "internalType": "address",
          "name": "dst",
          "type": "address"
        },
        {
          "internalType": "uint256",
          "name": "amount",
          "type": "uint256"
        }
      ],
      "name": "transfer",
      "outputs": [
        {
          "internalType": "bool",
          "name": "",
          "type": "bool"
        }
      ],
      "payable": false,
      "stateMutability": "nonpayable",
      "type": "function"
    },
    {
      "constant": false,
      "inputs": [
        {
          "internalType": "address",
          "name": "src",
          "type": "address"
        },
        {
          "internalType": "address",
          "name": "dst",
          "type": "address"
        },
        {
          "internalType": "uint256",
          "name": "amount",
          "type": "uint256"
        }
      ],
      "name": "transferFrom",
      "outputs": [
        {
          "internalType": "bool",
          "name": "",
          "type": "bool"
        }
      ],
      "payable": false,
      "stateMutability": "nonpayable",
      "type": "function"
    },
    {
      "constant": true,
      "inputs": [],
      "name": "underlying",
      "outputs": [
        {
          "internalType": "address",
          "name": "",
          "type": "address"
        }
      ],
      "payable": false,
      "stateMutability": "view",
      "type": "function"
    }
  ],
  "bytecode": "0x60806040523480156200001157600080fd5b50604051620065513803806200655183398181016040526101008110156200003857600080fd5b81516020830151604080850151606086015160808701805193519597949692959194919392820192846401000000008211156200007457600080fd5b9083019060208201858111156200008a57600080fd5b8251640100000000811182820188101715620000a557600080fd5b82525081516020918201929091019080838360005b83811015620000d4578181015183820152602001620000ba565b50505050905090810190601f168015620001025780820380516001836020036101000a031916815260200191505b50604052602001805160405193929190846401000000008211156200012657600080fd5b9083019060208201858111156200013c57600080fd5b82516401000000008111828201881017156200015757600080fd5b82525081516020918201929091019080838360005b83811015620001865781810151838201526020016200016c565b50505050905090810190601f168015620001b45780820380516001836020036101000a031916815260200191505b506040908152602082015191015160038054610100600160a81b03191633610100021790559092509050620001ef8888888888888862000223565b600380546001600160a01b0390921661010002610100600160a81b0319909216919091179055506200091b95505050505050565b6200023e868686868686620002d260201b6200158f1760201c565b601380546001600160a01b0319166001600160a01b038981169190911791829055604080516318160ddd60e01b8152905192909116916318160ddd91600480820192602092909190829003018186803b1580156200029b57600080fd5b505afa158015620002b0573d6000803e3d6000fd5b505050506040513d6020811015620002c757600080fd5b505050505050505050565b60035461010090046001600160a01b03163314620003225760405162461bcd60e51b8152600401808060200182810382526024815260200180620064b86024913960400191505060405180910390fd5b600a54158015620003335750600b54155b620003705760405162461bcd60e51b8152600401808060200182810382526023815260200180620064dc6023913960400191505060405180910390fd5b600884905583620003b35760405162461bcd60e51b8152600401808060200182810382526030815260200180620064ff6030913960400191505060405180910390fd5b6000620003c9876001600160e01b03620004e816565b905080156200041f576040805162461bcd60e51b815260206004820152601a60248201527f73657474696e6720636f6d7074726f6c6c6572206661696c6564000000000000604482015290519081900360640190fd5b620004326001600160e01b036200065e16565b600a55670de0b6b3a7640000600b5562000455866001600160e01b036200066316565b90508015620004965760405162461bcd60e51b81526004018080602001828103825260228152602001806200652f6022913960400191505060405180910390fd5b8351620004ab90600190602087019062000879565b508251620004c190600290602086019062000879565b50506003805460ff90921660ff199283161790556000805490911660011790555050505050565b60035460009061010090046001600160a01b0316331462000522576200051a6001603f6001600160e01b036200080916565b905062000659565b60055460408051623f1ee960e11b815290516001600160a01b0392831692851691627e3dd2916004808301926020929190829003018186803b1580156200056857600080fd5b505afa1580156200057d573d6000803e3d6000fd5b505050506040513d60208110156200059457600080fd5b5051620005e8576040805162461bcd60e51b815260206004820152601c60248201527f6d61726b6572206d6574686f642072657475726e65642066616c736500000000604482015290519081900360640190fd5b600580546001600160a01b038086166001600160a01b03199283168117909355600680549092168317909155604080519184168252602082019290925281517f7ac369dbd14fa5ea3f473ed67cc9d598964a77501540ba6751eb0b3decf5870d929181900390910190a160005b9150505b919050565b435b90565b600354600090819061010090046001600160a01b03163314620006a05762000697600160426001600160e01b036200080916565b91505062000659565b620006b36001600160e01b036200065e16565b600a5414620006d35762000697600a60416001600160e01b036200080916565b600760009054906101000a90046001600160a01b03169050826001600160a01b0316632191f92a6040518163ffffffff1660e01b815260040160206040518083038186803b1580156200072557600080fd5b505afa1580156200073a573d6000803e3d6000fd5b505050506040513d60208110156200075157600080fd5b5051620007a5576040805162461bcd60e51b815260206004820152601c60248201527f6d61726b6572206d6574686f642072657475726e65642066616c736500000000604482015290519081900360640190fd5b600780546001600160a01b0319166001600160a01b03858116918217909255604080519284168352602083019190915280517fedffc32e068c7c95dfd4bdfd5c4d939a084d6b11c4199eac8436ed234d72f9269281900390910190a1600062000655565b60007f45b96fe442630264581b197e84bbada861235052c5a1aadfff9ea4e40a969aa08360108111156200083957fe5b8360508111156200084657fe5b604080519283526020830191909152600082820152519081900360600190a18260108111156200087257fe5b9392505050565b828054600181600116156101000203166002900490600052602060002090601f016020900481019282601f10620008bc57805160ff1916838001178555620008ec565b82800160010185558215620008ec579182015b82811115620008ec578251825591602001919060010190620008cf565b50620008fa929150620008fe565b5090565b6200066091905b80821115620008fa576000815560010162000905565b615b8d806200092b6000396000f3fe608060405234801561001057600080fd5b50600436106103425760003560e01c8063852a12e3116101b8578063ba1c5e8011610104578063f2b3abbd116100a2578063f851a4401161007c578063f851a44014610b84578063f8f9da2814610b8c578063fca7820b14610b94578063fe9c44ae14610bb157610342565b8063f2b3abbd14610b20578063f3fdb15a14610b46578063f5e3c46214610b4e57610342565b8063db006a75116100de578063db006a7514610ab0578063dd62ed3e14610acd578063e9c714f214610afb578063ea5b375e14610b0357610342565b8063ba1c5e8014610a54578063bd6d894d14610a5c578063c37f68e214610a6457610342565b8063a6afed9511610171578063ab317fd91161014b578063ab317fd9146109e8578063ae9d70b0146109f0578063b2a02ff1146109f8578063b71d1a0c14610a2e57610342565b8063a6afed95146109ac578063a9059cbb146109b4578063aa5af0fd146109e057610342565b8063852a12e3146107d05780638f840ddd1461080b57806395d89b411461081357806395dd91931461081b57806399d8c1b414610841578063a0712d681461098f57610342565b806338f8fc4f116102925780635fe3b567116102305780636f307dc31161020a5780636f307dc31461076457806370a082311461076c57806373acee9814610792578063822df1b41461079a57610342565b80635fe3b56714610737578063601a0bf11461073f5780636c540baf1461075c57610342565b80633e9410101161026c5780633e941010146106c05780634576b5db146106dd57806347bd3718146107035780634b3fd1481461070b57610342565b806338f8fc4f146106755780633af9e669146106925780633b1d21a2146106b857610342565b806318160ddd116102ff57806323b872dd116102d957806323b872dd146105ed5780632608f81814610623578063267822471461064f578063313ce5671461065757610342565b806318160ddd14610485578063182df0f51461048d5780631a31d4651461049557610342565b806306fdde0314610347578063095ea7b3146103c45780630e75270214610404578063106d378614610433578063173b99041461045757806317bfdfbc1461045f575b600080fd5b61034f610bb9565b6040805160208082528351818301528351919283929083019185019080838360005b83811015610389578181015183820152602001610371565b50505050905090810190601f1680156103b65780820380516001836020036101000a031916815260200191505b509250505060405180910390f35b6103f0600480360360408110156103da57600080fd5b506001600160a01b038135169060200135610c46565b604080519115158252519081900360200190f35b6104216004803603602081101561041a57600080fd5b5035610cb1565b60408051918252519081900360200190f35b61043b610cc7565b604080516001600160a01b039092168252519081900360200190f35b610421610cd6565b6104216004803603602081101561047557600080fd5b50356001600160a01b0316610cdc565b610421610d9c565b610421610da2565b6105eb600480360360e08110156104ab57600080fd5b6001600160a01b03823581169260208101358216926040820135909216916060820135919081019060a081016080820135600160201b8111156104ed57600080fd5b8201836020820111156104ff57600080fd5b803590602001918460018302840111600160201b8311171561052057600080fd5b91908080601f0160208091040260200160405190810160405280939291908181526020018383808284376000920191909152509295949360208101935035915050600160201b81111561057257600080fd5b82018360208201111561058457600080fd5b803590602001918460018302840111600160201b831117156105a557600080fd5b91908080601f0160208091040260200160405190810160405280939291908181526020018383808284376000920191909152509295505050903560ff169150610e059050565b005b6103f06004803603606081101561060357600080fd5b506001600160a01b03813581169160208101359091169060400135610ea4565b6104216004803603604081101561063957600080fd5b506001600160a01b038135169060200135610fdf565b61043b610ff5565b61065f611004565b6040805160ff9092168252519081900360200190f35b6104216004803603602081101561068b57600080fd5b503561100d565b610421600480360360208110156106a857600080fd5b50356001600160a01b03166110c8565b61042161117e565b610421600480360360208110156106d657600080fd5b503561118d565b610421600480360360208110156106f357600080fd5b50356001600160a01b031661119e565b610421611301565b6104216004803603604081101561072157600080fd5b50803590602001356001600160a01b0316611307565b61043b611313565b6104216004803603602081101561075557600080fd5b5035611322565b6104216113bd565b61043b6113c3565b6104216004803603602081101561078257600080fd5b50356001600160a01b03166113d2565b6104216113ed565b6107b7600480360360208110156107b057600080fd5b50356114a3565b6040805192835260208301919091528051918290030190f35b6107ed600480360360208110156107e657600080fd5b50356114b9565b60408051938452602084019290925282820152519081900360600190f35b6104216114d4565b61034f6114da565b6104216004803603602081101561083157600080fd5b50356001600160a01b0316611532565b6105eb600480360360c081101561085757600080fd5b6001600160a01b03823581169260208101359091169160408201359190810190608081016060820135600160201b81111561089157600080fd5b8201836020820111156108a357600080fd5b803590602001918460018302840111600160201b831117156108c457600080fd5b91908080601f0160208091040260200160405190810160405280939291908181526020018383808284376000920191909152509295949360208101935035915050600160201b81111561091657600080fd5b82018360208201111561092857600080fd5b803590602001918460018302840111600160201b8311171561094957600080fd5b91908080601f0160208091040260200160405190810160405280939291908181526020018383808284376000920191909152509295505050903560ff16915061158f9050565b6107b7600480360360208110156109a557600080fd5b5035611776565b610421611793565b6103f0600480360360408110156109ca57600080fd5b506001600160a01b038135169060200135611ae6565b610421611c18565b610421611c1e565b610421611c24565b61042160048036036060811015610a0e57600080fd5b506001600160a01b03813581169160208101359091169060400135611cc3565b61042160048036036020811015610a4457600080fd5b50356001600160a01b0316611d34565b610421611dc0565b610421611ec6565b610a8a60048036036020811015610a7a57600080fd5b50356001600160a01b0316611f82565b604080519485526020850193909352838301919091526060830152519081900360800190f35b6107ed60048036036020811015610ac657600080fd5b5035612017565b61042160048036036040811015610ae357600080fd5b506001600160a01b0381358116916020013516612025565b610421612050565b61042160048036036020811015610b1957600080fd5b5035612153565b61042160048036036020811015610b3657600080fd5b50356001600160a01b0316612168565b61043b61219a565b61042160048036036060811015610b6457600080fd5b506001600160a01b038135811691602081013591604090910135166121a9565b61043b6121c1565b6104216121d5565b61042160048036036020811015610baa57600080fd5b5035612239565b6103f06122b7565b60018054604080516020600284861615610100026000190190941693909304601f81018490048402820184019092528181529291830182828015610c3e5780601f10610c1357610100808354040283529160200191610c3e565b820191906000526020600020905b815481529060010190602001808311610c2157829003601f168201915b505050505081565b3360008181526011602090815260408083206001600160a01b03871680855290835281842086905581518681529151939493909284927f8c5be1e5ebec7d5bd14f71427d1e84f3dd0314c0f7b2291e5b200ac8c7c3b925929081900390910190a35060019392505050565b600080610cbd836122bc565b509150505b919050565b6006546001600160a01b031681565b60095481565b6000805460ff16610d21576040805162461bcd60e51b815260206004820152600a6024820152691c994b595b9d195c995960b21b604482015290519081900360640190fd5b6000805460ff19168155610d33611793565b14610d7e576040805162461bcd60e51b81526020600482015260166024820152751858d8dc9d59481a5b9d195c995cdd0819985a5b195960521b604482015290519081900360640190fd5b610d8782611532565b90505b6000805460ff19166001179055919050565b600e5481565b6000806000610daf612365565b90925090506000826003811115610dc257fe5b14610dfe5760405162461bcd60e51b8152600401808060200182810382526035815260200180615aa46035913960400191505060405180910390fd5b9150505b90565b610e1386868686868661158f565b601380546001600160a01b0319166001600160a01b038981169190911791829055604080516318160ddd60e01b8152905192909116916318160ddd91600480820192602092909190829003018186803b158015610e6f57600080fd5b505afa158015610e83573d6000803e3d6000fd5b505050506040513d6020811015610e9957600080fd5b505050505050505050565b6000805460ff16610ee9576040805162461bcd60e51b815260206004820152600a6024820152691c994b595b9d195c995960b21b604482015290519081900360640190fd5b6000805460ff1916815560065460408051637df0f76760e01b815230600482015290516001600160a01b0390921691637df0f76791602480820192602092909190829003018186803b158015610f3e57600080fd5b505afa158015610f52573d6000803e3d6000fd5b505050506040513d6020811015610f6857600080fd5b505190508015610fb9576001600160a01b0384163014610fb95760405162461bcd60e51b815260040180806020018281038252602c815260200180615906602c913960400191505060405180910390fd5b6000610fc733878787612414565b149150506000805460ff191660011790559392505050565b600080610fec8484612722565b50949350505050565b6004546001600160a01b031681565b60035460ff1681565b6000331561101a57600080fd5b6000611024611793565b9050801561104a5761104281601081111561103b57fe5b60086127cd565b915050610cc2565b611052615722565b61105e600c5485612833565b604083018190528282600381111561107257fe5b600381111561107d57fe5b905250600090508151600381111561109157fe5b146110bb576110b26009600b836000015160038111156110ad57fe5b61285c565b92505050610cc2565b60400151600c5550919050565b60006110d2615744565b60405180602001604052806110e5611ec6565b90526001600160a01b0384166000908152601060205260408120549192509081906111119084906128c2565b9092509050600082600381111561112457fe5b14611176576040805162461bcd60e51b815260206004820152601f60248201527f62616c616e636520636f756c64206e6f742062652063616c63756c6174656400604482015290519081900360640190fd5b949350505050565b6000611188612915565b905090565b600061119882612995565b92915050565b60035460009061010090046001600160a01b031633146111cb576111c46001603f6127cd565b9050610cc2565b60055460408051623f1ee960e11b815290516001600160a01b0392831692851691627e3dd2916004808301926020929190829003018186803b15801561121057600080fd5b505afa158015611224573d6000803e3d6000fd5b505050506040513d602081101561123a57600080fd5b505161128d576040805162461bcd60e51b815260206004820152601c60248201527f6d61726b6572206d6574686f642072657475726e65642066616c736500000000604482015290519081900360640190fd5b600580546001600160a01b038086166001600160a01b03199283168117909355600680549092168317909155604080519184168252602082019290925281517f7ac369dbd14fa5ea3f473ed67cc9d598964a77501540ba6751eb0b3decf5870d929181900390910190a160005b9392505050565b600c5481565b60006112fa8383612a29565b6005546001600160a01b031681565b6000805460ff16611367576040805162461bcd60e51b815260206004820152600a6024820152691c994b595b9d195c995960b21b604482015290519081900360640190fd5b6000805460ff19168155611379611793565b9050801561139f5761139781601081111561139057fe5b60306127cd565b915050610d8a565b6113a883612ac2565b9150506000805460ff19166001179055919050565b600a5481565b6013546001600160a01b031681565b6001600160a01b031660009081526010602052604090205490565b6000805460ff16611432576040805162461bcd60e51b815260206004820152600a6024820152691c994b595b9d195c995960b21b604482015290519081900360640190fd5b6000805460ff19168155611444611793565b1461148f576040805162461bcd60e51b81526020600482015260166024820152751858d8dc9d59481a5b9d195c995cdd0819985a5b195960521b604482015290519081900360640190fd5b50600c546000805460ff1916600117905590565b6000806114af83612bf5565b915091505b915091565b60008060006114c784612c68565b9250925092509193909250565b600d5481565b6002805460408051602060018416156101000260001901909316849004601f81018490048402820184019092528181529291830182828015610c3e5780601f10610c1357610100808354040283529160200191610c3e565b600080600061154084612d19565b9092509050600082600381111561155357fe5b146112fa5760405162461bcd60e51b81526004018080602001828103825260378152602001806159af6037913960400191505060405180910390fd5b60035461010090046001600160a01b031633146115dd5760405162461bcd60e51b81526004018080602001828103825260248152602001806158bf6024913960400191505060405180910390fd5b600a541580156115ed5750600b54155b6116285760405162461bcd60e51b81526004018080602001828103825260238152602001806158e36023913960400191505060405180910390fd5b6008849055836116695760405162461bcd60e51b81526004018080602001828103825260308152602001806159326030913960400191505060405180910390fd5b60006116748761119e565b905080156116c9576040805162461bcd60e51b815260206004820152601a60248201527f73657474696e6720636f6d7074726f6c6c6572206661696c6564000000000000604482015290519081900360640190fd5b6116d1612dcc565b600a55670de0b6b3a7640000600b556116e986612dd0565b905080156117285760405162461bcd60e51b81526004018080602001828103825260228152602001806159626022913960400191505060405180910390fd5b835161173b906001906020870190615757565b50825161174f906002906020860190615757565b50506003805460ff90921660ff199283161790556000805490911660011790555050505050565b60008060008061178585612f45565b919550909350505050915091565b60008061179e612dcc565b600a54909150808214156117b757600092505050610e02565b60006117c1612915565b600c54600d54600b54600754604080516315f2405360e01b815260048101879052602481018690526044810185905290519596509394929391926000926001600160a01b03909216916315f24053916064808301926020929190829003018186803b15801561182f57600080fd5b505afa158015611843573d6000803e3d6000fd5b505050506040513d602081101561185957600080fd5b5051905065048c273950008111156118b8576040805162461bcd60e51b815260206004820152601c60248201527f626f72726f772072617465206973206162737572646c79206869676800000000604482015290519081900360640190fd5b6000806118c58989612fc8565b909250905060008260038111156118d857fe5b1461192a576040805162461bcd60e51b815260206004820152601f60248201527f636f756c64206e6f742063616c63756c61746520626c6f636b2064656c746100604482015290519081900360640190fd5b611932615744565b60008060008061195060405180602001604052808a81525087612feb565b9097509450600087600381111561196357fe5b146119905761197b600960068960038111156110ad57fe5b9e505050505050505050505050505050610e02565b61199a858c6128c2565b909750935060008760038111156119ad57fe5b146119c55761197b600960018960038111156110ad57fe5b6119cf848c612833565b909750925060008760038111156119e257fe5b146119fa5761197b600960048960038111156110ad57fe5b611a156040518060200160405280600954815250858c613053565b90975091506000876003811115611a2857fe5b14611a405761197b600960058960038111156110ad57fe5b611a4b858a8b613053565b90975090506000876003811115611a5e57fe5b14611a765761197b600960038960038111156110ad57fe5b600a8e9055600b819055600c839055600d829055604080518d8152602081018690528082018390526060810185905290517f4dec04e750ca11537cabcd8a9eab06494de08da3735bc8871cd41250e190bc049181900360800190a160009e50505050505050505050505050505090565b6000805460ff16611b2b576040805162461bcd60e51b815260206004820152600a6024820152691c994b595b9d195c995960b21b604482015290519081900360640190fd5b6000805460ff1916815560065460408051637df0f76760e01b815230600482015290516001600160a01b0390921691637df0f76791602480820192602092909190829003018186803b158015611b8057600080fd5b505afa158015611b94573d6000803e3d6000fd5b505050506040513d6020811015611baa57600080fd5b505190508015611bf257333014611bf25760405162461bcd60e51b815260040180806020018281038252602c815260200180615906602c913960400191505060405180910390fd5b6000611c0033338787612414565b149150505b6000805460ff1916600117905592915050565b600b5481565b600f5481565b6007546000906001600160a01b031663b8168816611c40612915565b600c54600d546009546040518563ffffffff1660e01b81526004018085815260200184815260200183815260200182815260200194505050505060206040518083038186803b158015611c9257600080fd5b505afa158015611ca6573d6000803e3d6000fd5b505050506040513d6020811015611cbc57600080fd5b5051905090565b6000805460ff16611d08576040805162461bcd60e51b815260206004820152600a6024820152691c994b595b9d195c995960b21b604482015290519081900360640190fd5b6000805460ff19169055611d1e338585856130af565b90506000805460ff191660011790559392505050565b60035460009061010090046001600160a01b03163314611d5a576111c4600160456127cd565b600480546001600160a01b038481166001600160a01b0319831681179093556040805191909216808252602082019390935281517fca4f2f25d0898edd99413412fb94012f9e54ec8142f9b093e7720646a95b16a9929181900390910190a160006112fa565b600080611dcb612915565b600c54600d54600754604080516315f2405360e01b81526004810186905260248101859052604481018490529051949550929391926000926001600160a01b03909216916315f2405391606480820192602092909190829003018186803b158015611e3557600080fd5b505afa158015611e49573d6000803e3d6000fd5b505050506040513d6020811015611e5f57600080fd5b5051905065048c27395000811115611ebe576040805162461bcd60e51b815260206004820152601c60248201527f626f72726f772072617465206973206162737572646c79206869676800000000604482015290519081900360640190fd5b935050505090565b6000805460ff16611f0b576040805162461bcd60e51b815260206004820152600a6024820152691c994b595b9d195c995960b21b604482015290519081900360640190fd5b6000805460ff19168155611f1d611793565b14611f68576040805162461bcd60e51b81526020600482015260166024820152751858d8dc9d59481a5b9d195c995cdd0819985a5b195960521b604482015290519081900360640190fd5b611f70610da2565b90506000805460ff1916600117905590565b6001600160a01b038116600090815260106020526040812054819081908190818080611fad89612d19565b935090506000816003811115611fbf57fe5b14611fdd5760095b9750600096508695508594506120109350505050565b611fe5612365565b925090506000816003811115611ff757fe5b14612003576009611fc7565b5060009650919450925090505b9193509193565b60008060006114c784613315565b6001600160a01b03918216600090815260116020908152604080832093909416825291909152205490565b6004546000906001600160a01b03163314158061206b575033155b156120835761207c600160006127cd565b9050610e02565b60038054600480546001600160a01b03818116610100818102610100600160a81b0319871617968790556001600160a01b031990931690935560408051948390048216808652929095041660208401528351909391927ff9ffabca9c8276e99321725bcb43fb076a6c66a54b7f21c4e8146d8519b417dc92908290030190a1600454604080516001600160a01b038085168252909216602083015280517fca4f2f25d0898edd99413412fb94012f9e54ec8142f9b093e7720646a95b16a99281900390910190a160009250505090565b60008061215f83613393565b95945050505050565b600080612173611793565b905080156121915761104281601081111561218a57fe5b60406127cd565b6112fa83612dd0565b6007546001600160a01b031681565b6000806121b785858561340f565b5095945050505050565b60035461010090046001600160a01b031681565b6007546000906001600160a01b03166315f240536121f1612915565b600c54600d546040518463ffffffff1660e01b815260040180848152602001838152602001828152602001935050505060206040518083038186803b158015611c9257600080fd5b6000805460ff1661227e576040805162461bcd60e51b815260206004820152600a6024820152691c994b595b9d195c995960b21b604482015290519081900360640190fd5b6000805460ff19168155612290611793565b905080156122ae576113978160108111156122a757fe5b60466127cd565b6113a883613541565b600181565b60008054819060ff16612303576040805162461bcd60e51b815260206004820152600a6024820152691c994b595b9d195c995960b21b604482015290519081900360640190fd5b6000805460ff19168155612315611793565b905080156123405761233381601081111561232c57fe5b60366127cd565b9250600091506123519050565b61234b3333866135e9565b92509250505b6000805460ff191660011790559092909150565b600e5460009081908061238057505060085460009150612410565b600061238a612915565b90506000612396615744565b60006123a784600c54600d546139ce565b9350905060008160038111156123b957fe5b146123ce579550600094506124109350505050565b6123d88386613a0c565b9250905060008160038111156123ea57fe5b146123ff579550600094506124109350505050565b505160009550935061241092505050565b9091565b600554604080516317b9b84b60e31b81523060048201526001600160a01b03868116602483015285811660448301526064820185905291516000938493169163bdcdc25891608480830192602092919082900301818787803b15801561247957600080fd5b505af115801561248d573d6000803e3d6000fd5b505050506040513d60208110156124a357600080fd5b5051905080156124c2576124ba6003604a8361285c565b915050611176565b836001600160a01b0316856001600160a01b031614156124e8576124ba6002604b6127cd565b60006001600160a01b038781169087161415612507575060001961252f565b506001600160a01b038086166000908152601160209081526040808320938a16835292905220545b60008060008061253f8589612fc8565b9094509250600084600381111561255257fe5b14612570576125636009604b6127cd565b9650505050505050611176565b6001600160a01b038a166000908152601060205260409020546125939089612fc8565b909450915060008460038111156125a657fe5b146125b7576125636009604c6127cd565b6001600160a01b0389166000908152601060205260409020546125da9089612833565b909450905060008460038111156125ed57fe5b146125fe576125636009604d6127cd565b6001600160a01b03808b16600090815260106020526040808220859055918b168152208190556000198514612656576001600160a01b03808b166000908152601160209081526040808320938f168352929052208390555b886001600160a01b03168a6001600160a01b0316600080516020615a208339815191528a6040518082815260200191505060405180910390a36005546040805163352b4a3f60e11b81523060048201526001600160a01b038d811660248301528c81166044830152606482018c905291519190921691636a56947e91608480830192600092919082900301818387803b1580156126f257600080fd5b505af1158015612706573d6000803e3d6000fd5b5060009250612713915050565b9b9a5050505050505050505050565b60008054819060ff16612769576040805162461bcd60e51b815260206004820152600a6024820152691c994b595b9d195c995960b21b604482015290519081900360640190fd5b6000805460ff1916815561277b611793565b905080156127a65761279981601081111561279257fe5b60356127cd565b9250600091506127b79050565b6127b13386866135e9565b92509250505b6000805460ff1916600117905590939092509050565b60007f45b96fe442630264581b197e84bbada861235052c5a1aadfff9ea4e40a969aa08360108111156127fc57fe5b83605081111561280857fe5b604080519283526020830191909152600082820152519081900360600190a18260108111156112fa57fe5b60008083830184811061284b57600092509050612855565b5060029150600090505b9250929050565b60007f45b96fe442630264581b197e84bbada861235052c5a1aadfff9ea4e40a969aa084601081111561288b57fe5b84605081111561289757fe5b604080519283526020830191909152818101859052519081900360600190a183601081111561117657fe5b60008060006128cf615744565b6128d98686612feb565b909250905060008260038111156128ec57fe5b146128fd5750915060009050612855565b600061290882613abc565b9350935050509250929050565b601354604080516370a0823160e01b815230600482015290516000926001600160a01b03169182916370a0823191602480820192602092909190829003018186803b15801561296357600080fd5b505afa158015612977573d6000803e3d6000fd5b505050506040513d602081101561298d57600080fd5b505191505090565b6000805460ff166129da576040805162461bcd60e51b815260206004820152600a6024820152691c994b595b9d195c995960b21b604482015290519081900360640190fd5b6000805460ff191681556129ec611793565b90508015612a0a57611397816010811115612a0357fe5b604e6127cd565b612a1383613acb565b509150506000805460ff19166001179055919050565b6000805460ff16612a6e576040805162461bcd60e51b815260206004820152600a6024820152691c994b595b9d195c995960b21b604482015290519081900360640190fd5b6000805460ff19168155612a80611793565b90508015612a9f57612a9781601081111561103b57fe5b915050611c05565b82612aab338683613bb3565b925050506000805460ff1916600117905592915050565b600354600090819061010090046001600160a01b03163314612aea57611042600160316127cd565b612af2612dcc565b600a5414612b0657611042600a60336127cd565b82612b0f612915565b1015612b2157611042600e60326127cd565b600d54831115612b3757611042600260346127cd565b50600d5482810390811115612b7d5760405162461bcd60e51b8152600401808060200182810382526024815260200180615b356024913960400191505060405180910390fd5b600d819055600354612b9d9061010090046001600160a01b031684613ed7565b600354604080516101009092046001600160a01b0316825260208201859052818101839052517f3bad0c59cf2f06e7314077049f48a93578cd16f5ef92329f1dab1420a99c177e916060908290030190a160006112fa565b60008054819060ff16612c3c576040805162461bcd60e51b815260206004820152600a6024820152691c994b595b9d195c995960b21b604482015290519081900360640190fd5b6000805460ff19169055612c503384613fce565b915091506000805460ff191660011790559092909150565b600080548190819060ff16612cb1576040805162461bcd60e51b815260206004820152600a6024820152691c994b595b9d195c995960b21b604482015290519081900360640190fd5b6000805460ff19168155612cc3611793565b90508015612cf157612ce1816010811115612cda57fe5b60276127cd565b935060009250829150612d059050565b612cfd33600087614156565b935093509350505b6000805460ff191660011790559193909250565b6001600160a01b038116600090815260126020526040812080548291829182918291612d505750600094508493506114b492505050565b612d608160000154600b546146c5565b90945092506000846003811115612d7357fe5b14612d885750919350600092506114b4915050565b612d96838260010154614704565b90945091506000846003811115612da957fe5b14612dbe5750919350600092506114b4915050565b506000945092505050915091565b4390565b600354600090819061010090046001600160a01b03163314612df857611042600160426127cd565b612e00612dcc565b600a5414612e1457611042600a60416127cd565b600760009054906101000a90046001600160a01b03169050826001600160a01b0316632191f92a6040518163ffffffff1660e01b815260040160206040518083038186803b158015612e6557600080fd5b505afa158015612e79573d6000803e3d6000fd5b505050506040513d6020811015612e8f57600080fd5b5051612ee2576040805162461bcd60e51b815260206004820152601c60248201527f6d61726b6572206d6574686f642072657475726e65642066616c736500000000604482015290519081900360640190fd5b600780546001600160a01b0319166001600160a01b03858116918217909255604080519284168352602083019190915280517fedffc32e068c7c95dfd4bdfd5c4d939a084d6b11c4199eac8436ed234d72f9269281900390910190a160006112fa565b600080548190819060ff16612f8e576040805162461bcd60e51b815260206004820152600a6024820152691c994b595b9d195c995960b21b604482015290519081900360640190fd5b6000805460ff19168155612fa0611793565b90508015612fbe57612ce1816010811115612fb757fe5b601e6127cd565b612cfd338661472f565b600080838311612fdf575060009050818303612855565b50600390506000612855565b6000612ff5615744565b6000806130068660000151866146c5565b9092509050600082600381111561301957fe5b1461303857506040805160208101909152600081529092509050612855565b60408051602081019091529081526000969095509350505050565b6000806000613060615744565b61306a8787612feb565b9092509050600082600381111561307d57fe5b1461308e57509150600090506130a7565b6130a061309a82613abc565b86612833565b9350935050505b935093915050565b6005546040805163d02f735160e01b81523060048201526001600160a01b038781166024830152868116604483015285811660648301526084820185905291516000938493169163d02f73519160a480830192602092919082900301818787803b15801561311c57600080fd5b505af1158015613130573d6000803e3d6000fd5b505050506040513d602081101561314657600080fd5b50519050801561315d576124ba6003601b8361285c565b846001600160a01b0316846001600160a01b03161415613183576124ba6006601c6127cd565b6001600160a01b038416600090815260106020526040812054819081906131aa9087612fc8565b909350915060008360038111156131bd57fe5b146131e0576131d56009601a8560038111156110ad57fe5b945050505050611176565b6001600160a01b0388166000908152601060205260409020546132039087612833565b9093509050600083600381111561321657fe5b1461322e576131d5600960198560038111156110ad57fe5b6001600160a01b038088166000818152601060209081526040808320879055938c168083529184902085905583518a815293519193600080516020615a20833981519152929081900390910190a360055460408051636d35bf9160e01b81523060048201526001600160a01b038c811660248301528b811660448301528a81166064830152608482018a905291519190921691636d35bf919160a480830192600092919082900301818387803b1580156132e757600080fd5b505af11580156132fb573d6000803e3d6000fd5b5060009250613308915050565b9998505050505050505050565b600080548190819060ff1661335e576040805162461bcd60e51b815260206004820152600a6024820152691c994b595b9d195c995960b21b604482015290519081900360640190fd5b6000805460ff19168155613370611793565b9050801561338757612ce1816010811115612cda57fe5b612cfd33866000614156565b600080548190819060ff166133dc576040805162461bcd60e51b815260206004820152600a6024820152691c994b595b9d195c995960b21b604482015290519081900360640190fd5b6000805460ff191681556133ee611793565b9050801561340557612ce1816010811115612fb757fe5b612cfd3386614c21565b60008054819060ff16613456576040805162461bcd60e51b815260206004820152600a6024820152691c994b595b9d195c995960b21b604482015290519081900360640190fd5b6000805460ff19168155613468611793565b905080156134935761348681601081111561347f57fe5b600f6127cd565b92506000915061352a9050565b836001600160a01b031663a6afed956040518163ffffffff1660e01b8152600401602060405180830381600087803b1580156134ce57600080fd5b505af11580156134e2573d6000803e3d6000fd5b505050506040513d60208110156134f857600080fd5b5051905080156135185761348681601081111561351157fe5b60106127cd565b61352433878787614ee4565b92509250505b6000805460ff191660011790559094909350915050565b60035460009061010090046001600160a01b03163314613567576111c4600160476127cd565b61356f612dcc565b600a5414613583576111c4600a60486127cd565b670de0b6b3a764000082111561359f576111c4600260496127cd565b6009805490839055604080518281526020810185905281517faaa68312e2ea9d50e16af5068410ab56e1a1fd06037b1a35664812c30f821460929181900390910190a160006112fa565b60055460408051631200453160e11b81523060048201526001600160a01b0386811660248301528581166044830152606482018590529151600093849384939116916324008a629160848082019260209290919082900301818787803b15801561365257600080fd5b505af1158015613666573d6000803e3d6000fd5b505050506040513d602081101561367c57600080fd5b5051905080156136a057613693600360388361285c565b9250600091506130a79050565b6136a8612dcc565b600a54146136bc57613693600a60396127cd565b6136c46157d5565b6001600160a01b03861660009081526012602052604090206001015460608201526136ee86612d19565b608083018190526020830182600381111561370557fe5b600381111561371057fe5b905250600090508160200151600381111561372757fe5b146137515761374360096037836020015160038111156110ad57fe5b9350600092506130a7915050565b60001985141561376a5760808101516040820152613772565b604081018590525b613780878260400151615467565b60e08201819052608082015161379591612fc8565b60a08301819052602083018260038111156137ac57fe5b60038111156137b757fe5b90525060009050816020015160038111156137ce57fe5b1461380a5760405162461bcd60e51b815260040180806020018281038252603a8152602001806159e6603a913960400191505060405180910390fd5b61381a600c548260e00151612fc8565b60c083018190526020830182600381111561383157fe5b600381111561383c57fe5b905250600090508160200151600381111561385357fe5b1461388f5760405162461bcd60e51b8152600401808060200182810382526031815260200180615a406031913960400191505060405180910390fd5b60a080820180516001600160a01b03808a16600081815260126020908152604091829020948555600b5460019095019490945560c0870151600c81905560e088015195518251948f16855294840192909252828101949094526060820192909252608081019190915290517f1a2a22cb034d26d1854bdc6666a5b91fe25efbbb5dcad3b0355478d6f5c362a1929181900390910190a160055460e0820151606083015160408051631ededc9160e01b81523060048201526001600160a01b038c811660248301528b8116604483015260648201949094526084810192909252519190921691631ededc919160a480830192600092919082900301818387803b15801561399a57600080fd5b505af11580156139ae573d6000803e3d6000fd5b50600092506139bb915050565b8160e00151935093505050935093915050565b6000806000806139de8787612833565b909250905060008260038111156139f157fe5b14613a0257509150600090506130a7565b6130a08186612fc8565b6000613a16615744565b600080613a2b86670de0b6b3a76400006146c5565b90925090506000826003811115613a3e57fe5b14613a5d57506040805160208101909152600081529092509050612855565b600080613a6a8388614704565b90925090506000826003811115613a7d57fe5b14613a9f57506040805160208101909152600081529094509250612855915050565b604080516020810190915290815260009890975095505050505050565b51670de0b6b3a7640000900490565b600080600080613ad9612dcc565b600a5414613af857613aed600a604f6127cd565b935091506114b49050565b613b023386615467565b905080600d54019150600d54821015613b62576040805162461bcd60e51b815260206004820181905260248201527f61646420726573657276657320756e6578706563746564206f766572666c6f77604482015290519081900360640190fd5b600d829055604080513381526020810183905280820184905290517fa91e67c5ea634cd43a12c5a482724b03de01e85ca68702a53d0c2f45cb7c1dc59181900360600190a160009350915050915091565b6005546040805163368f515360e21b81523060048201526001600160a01b0386811660248301526044820186905291516000938493169163da3d454c91606480830192602092919082900301818787803b158015613c1057600080fd5b505af1158015613c24573d6000803e3d6000fd5b505050506040513d6020811015613c3a57600080fd5b505190508015613c5957613c516003600e8361285c565b9150506112fa565b613c61612dcc565b600a5414613c7457613c51600a806127cd565b83613c7d612915565b1015613c8f57613c51600e60096127cd565b613c9761581b565b613ca086612d19565b6040830181905282826003811115613cb457fe5b6003811115613cbf57fe5b9052506000905081516003811115613cd357fe5b14613cf857613cef60096007836000015160038111156110ad57fe5b925050506112fa565b613d06816040015186612833565b6060830181905282826003811115613d1a57fe5b6003811115613d2557fe5b9052506000905081516003811115613d3957fe5b14613d5557613cef6009600c836000015160038111156110ad57fe5b613d61600c5486612833565b6080830181905282826003811115613d7557fe5b6003811115613d8057fe5b9052506000905081516003811115613d9457fe5b14613db057613cef6009600b836000015160038111156110ad57fe5b6001600160a01b038416613dc2578593505b613dcc8486613ed7565b606080820180516001600160a01b038916600081815260126020908152604091829020938455600b54600190940193909355608080870151600c819055945182519384529383018b9052828201939093529381019290925291517f13ed6866d4e1ee6da46f845c46d7e54120883d75c5ea9a2dacc1c4ca8984ab80929181900390910190a160055460408051635c77860560e01b81523060048201526001600160a01b0389811660248301526044820189905291519190921691635c77860591606480830192600092919082900301818387803b158015613eac57600080fd5b505af1158015613ec0573d6000803e3d6000fd5b5060009250613ecd915050565b9695505050505050565b6013546040805163a9059cbb60e01b81526001600160a01b0385811660048301526024820185905291519190921691829163a9059cbb9160448082019260009290919082900301818387803b158015613f2f57600080fd5b505af1158015613f43573d6000803e3d6000fd5b5050505060003d60008114613f5f5760208114613f6957600080fd5b6000199150613f75565b60206000803e60005191505b5080613fc8576040805162461bcd60e51b815260206004820152601960248201527f544f4b454e5f5452414e534645525f4f55545f4641494c454400000000000000604482015290519081900360640190fd5b50505050565b6000808215614024576040805162461bcd60e51b815260206004820152601e60248201527f72656465656d546f6b656e73496e206d7573746e2774206265207a65726f0000604482015290519081900360640190fd5b61402c61584c565b60608101849052600f546140409085612fc8565b608083018190526020830182600381111561405757fe5b600381111561406257fe5b905250600090508160200151600381111561407957fe5b146140a2576140956009602e836020015160038111156110ad57fe5b9250600091506128559050565b6001600160a01b03851660009081526010602052604090205460608201516140ca9190612fc8565b60c08301819052602083018260038111156140e157fe5b60038111156140ec57fe5b905250600090508160200151600381111561410357fe5b1461411f576140956009602d836020015160038111156110ad57fe5b6080810151600f5560c08101516001600160a01b039590951660009081526010602052604081209590955560600151939492505050565b60008080841580614165575083155b6141a05760405162461bcd60e51b8152600401808060200182810382526034815260200180615b016034913960400191505060405180910390fd5b6141a86157d5565b6141b0612365565b60408301819052602083018260038111156141c757fe5b60038111156141d257fe5b90525060009050816020015160038111156141e957fe5b14614215576142056009602b836020015160038111156110ad57fe5b9350600092508291506146bc9050565b851561429657606081018690526040805160208101825290820151815261423c90876128c2565b608083018190526020830182600381111561425357fe5b600381111561425e57fe5b905250600090508160200151600381111561427557fe5b146142915761420560096029836020015160038111156110ad57fe5b61430f565b6142b285604051806020016040528084604001518152506156b1565b60608301819052602083018260038111156142c957fe5b60038111156142d457fe5b90525060009050816020015160038111156142eb57fe5b14614307576142056009602a836020015160038111156110ad57fe5b608081018590525b60055460608201516040805163eabe7d9160e01b81523060048201526001600160a01b038b8116602483015260448201939093529051600093929092169163eabe7d919160648082019260209290919082900301818787803b15801561437457600080fd5b505af1158015614388573d6000803e3d6000fd5b505050506040513d602081101561439e57600080fd5b5051905080156143c6576143b5600360288361285c565b9450600093508392506146bc915050565b6143ce612dcc565b600a54146143e2576143b5600a602c6127cd565b6143f2600e548360600151612fc8565b60a084018190526020840182600381111561440957fe5b600381111561441457fe5b905250600090508260200151600381111561442b57fe5b14614447576143b56009602e846020015160038111156110ad57fe5b6001600160a01b038816600090815260106020526040902054606083015161446f9190612fc8565b60e084018190526020840182600381111561448657fe5b600381111561449157fe5b90525060009050826020015160038111156144a857fe5b146144c4576143b56009602d846020015160038111156110ad57fe5b81608001516144d1612915565b10156144e3576143b5600e602f6127cd565b6144f1888360800151613ed7565b60a0820151600e5560e08201516001600160a01b038916600081815260106020908152604091829020939093556060850151815190815290513093600080516020615a20833981519152928290030190a36080820151606080840151604080516001600160a01b038d168152602081019490945283810191909152517fe5b754fb1abb7f01b499791d0b820ae3b6af3424ac1c59768edb53f4ec31a9299281900390910190a160055460808301516060840151604080516351dff98960e01b81523060048201526001600160a01b038d81166024830152604482019490945260648101929092525191909216916351dff98991608480830192600092919082900301818387803b15801561460457600080fd5b505af1158015614618573d6000803e3d6000fd5b50506005546060850151604080516394021d7f60e01b815260048101929092526001600160a01b038d81166024840152905160009550921692506394021d7f91604480830192602092919082900301818787803b15801561467857600080fd5b505af115801561468c573d6000803e3d6000fd5b505050506040513d60208110156146a257600080fd5b505190506000836080015184606001519550955095505050505b93509350939050565b600080836146d857506000905080612855565b838302838582816146e557fe5b04146146f957506002915060009050612855565b600092509050612855565b600080826147185750600190506000612855565b600083858161472357fe5b04915091509250929050565b60055460408051634ef4c3e160e01b81523060048201526001600160a01b0385811660248301526044820185905291516000938493849384939190921691634ef4c3e191606480830192602092919082900301818787803b15801561479357600080fd5b505af11580156147a7573d6000803e3d6000fd5b505050506040513d60208110156147bd57600080fd5b5051905080156147e4576147d46003601f8361285c565b935060009250829150614c1a9050565b6147ec612dcc565b600a5414614800576147d4600a60226127cd565b6148086157d5565b614810612365565b604083018190526020830182600381111561482757fe5b600381111561483257fe5b905250600090508160200151600381111561484957fe5b146148765761486560096021836020015160038111156110ad57fe5b945060009350839250614c1a915050565b6148808787615467565b60e08201819052604080516020810182529083015181526148a191906156b1565b60608301819052602083018260038111156148b857fe5b60038111156148c357fe5b90525060009050816020015160038111156148da57fe5b1461492c576040805162461bcd60e51b815260206004820181905260248201527f4d494e545f45584348414e47455f43414c43554c4154494f4e5f4641494c4544604482015290519081900360640190fd5b61493c600e548260600151612833565b608083018190526020830182600381111561495357fe5b600381111561495e57fe5b905250600090508160200151600381111561497557fe5b146149b15760405162461bcd60e51b8152600401808060200182810382526028815260200180615ad96028913960400191505060405180910390fd5b6001600160a01b03871660009081526010602052604090205460608201516149d99190612833565b60c08301819052602083018260038111156149f057fe5b60038111156149fb57fe5b9052506000905081602001516003811115614a1257fe5b14614a4e5760405162461bcd60e51b815260040180806020018281038252602b815260200180615984602b913960400191505060405180910390fd5b6080810151600e5560c08101516001600160a01b0388166000818152601060209081526040918290209390935560e084015160608086015183519485529484019190915282820193909352517f4c209b5fc8ad50758f13e2e1088ba56a560dff690a1c6fef26394f4c03821c4f929181900390910190a1606081015160408051918252516001600160a01b038916913091600080516020615a208339815191529181900360200190a360055460e08201516060830151604080516341c728b960e01b81523060048201526001600160a01b038c81166024830152604482019490945260648101929092525191909216916341c728b991608480830192600092919082900301818387803b158015614b6457600080fd5b505af1158015614b78573d6000803e3d6000fd5b505060055460608401516040805162b7516560e11b815260048101929092526001600160a01b038c811660248401529051600095509216925063016ea2ca91604480830192602092919082900301818787803b158015614bd757600080fd5b505af1158015614beb573d6000803e3d6000fd5b505050506040513d6020811015614c0157600080fd5b50505060e0810151606090910151600095509093509150505b9250925092565b6000806000614c2e612dcc565b600a5414614c5057614c42600a60226127cd565b925060009150819050614c1a565b614c5861588a565b614c60612365565b6040830181905260208301826003811115614c7757fe5b6003811115614c8257fe5b9052506000905081602001516003811115614c9957fe5b14614cb5576147d460096021836020015160038111156110ad57fe5b614cd185604051806020016040528084604001518152506156b1565b6060830181905260208301826003811115614ce857fe5b6003811115614cf357fe5b9052506000905081602001516003811115614d0a57fe5b14614d5c576040805162461bcd60e51b815260206004820181905260248201527f4d494e545f45584348414e47455f43414c43554c4154494f4e5f4641494c4544604482015290519081900360640190fd5b614d6c600f548260600151612833565b60a0830181905260208301826003811115614d8357fe5b6003811115614d8e57fe5b9052506000905081602001516003811115614da557fe5b14614de15760405162461bcd60e51b8152600401808060200182810382526028815260200180615ad96028913960400191505060405180910390fd5b6001600160a01b0386166000908152601060205260409020546060820151614e099190612833565b6080830181905260208301826003811115614e2057fe5b6003811115614e2b57fe5b9052506000905081602001516003811115614e4257fe5b14614e7e5760405162461bcd60e51b815260040180806020018281038252602b815260200180615984602b913960400191505060405180910390fd5b60a0810151600f5560808101516001600160a01b0387166000818152601060209081526040918290209390935560608401518151908152905191923092600080516020615a208339815191529281900390910190a3606001516000969495509392505050565b60055460408051632fe3f38f60e11b81523060048201526001600160a01b0384811660248301528781166044830152868116606483015260848201869052915160009384938493911691635fc7e71e9160a48082019260209290919082900301818787803b158015614f5557600080fd5b505af1158015614f69573d6000803e3d6000fd5b505050506040513d6020811015614f7f57600080fd5b505190508015614fa357614f96600360128361285c565b92506000915061545e9050565b614fab612dcc565b600a5414614fbf57614f96600a60166127cd565b614fc7612dcc565b846001600160a01b0316636c540baf6040518163ffffffff1660e01b815260040160206040518083038186803b15801561500057600080fd5b505afa158015615014573d6000803e3d6000fd5b505050506040513d602081101561502a57600080fd5b50511461503d57614f96600a60116127cd565b866001600160a01b0316866001600160a01b0316141561506357614f96600660176127cd565b8461507457614f96600760156127cd565b60001985141561508a57614f96600760146127cd565b6000806150988989896135e9565b909250905081156150c8576150b98260108111156150b257fe5b60186127cd565b94506000935061545e92505050565b6005546040805163c488847b60e01b81523060048201526001600160a01b038981166024830152604482018590528251600094859492169263c488847b926064808301939192829003018186803b15801561512257600080fd5b505afa158015615136573d6000803e3d6000fd5b505050506040513d604081101561514c57600080fd5b508051602090910151909250905081156151975760405162461bcd60e51b8152600401808060200182810382526033815260200180615a716033913960400191505060405180910390fd5b80886001600160a01b03166370a082318c6040518263ffffffff1660e01b815260040180826001600160a01b03166001600160a01b0316815260200191505060206040518083038186803b1580156151ee57600080fd5b505afa158015615202573d6000803e3d6000fd5b505050506040513d602081101561521857600080fd5b5051101561526d576040805162461bcd60e51b815260206004820152601860248201527f4c49515549444154455f5345495a455f544f4f5f4d5543480000000000000000604482015290519081900360640190fd5b60006001600160a01b0389163014156152935761528c308d8d856130af565b905061531d565b6040805163b2a02ff160e01b81526001600160a01b038e811660048301528d81166024830152604482018590529151918b169163b2a02ff1916064808201926020929091908290030181600087803b1580156152ee57600080fd5b505af1158015615302573d6000803e3d6000fd5b505050506040513d602081101561531857600080fd5b505190505b8015615367576040805162461bcd60e51b81526020600482015260146024820152731d1bdad95b881cd95a5e9d5c994819985a5b195960621b604482015290519081900360640190fd5b604080516001600160a01b03808f168252808e1660208301528183018790528b1660608201526080810184905290517f298637f684da70674f26509b10f07ec2fbc77a335ab1e7d6215a4b2484d8bb529181900360a00190a1600554604080516347ef3b3b60e01b81523060048201526001600160a01b038c811660248301528f811660448301528e811660648301526084820188905260a48201869052915191909216916347ef3b3b9160c480830192600092919082900301818387803b15801561543257600080fd5b505af1158015615446573d6000803e3d6000fd5b5060009250615453915050565b975092955050505050505b94509492505050565b601354604080516370a0823160e01b815230600482015290516000926001600160a01b031691839183916370a08231916024808301926020929190829003018186803b1580156154b657600080fd5b505afa1580156154ca573d6000803e3d6000fd5b505050506040513d60208110156154e057600080fd5b5051604080516323b872dd60e01b81526001600160a01b038881166004830152306024830152604482018890529151929350908416916323b872dd9160648082019260009290919082900301818387803b15801561553d57600080fd5b505af1158015615551573d6000803e3d6000fd5b5050505060003d6000811461556d576020811461557757600080fd5b6000199150615583565b60206000803e60005191505b50806155d6576040805162461bcd60e51b815260206004820152601860248201527f544f4b454e5f5452414e534645525f494e5f4641494c45440000000000000000604482015290519081900360640190fd5b601354604080516370a0823160e01b815230600482015290516000926001600160a01b0316916370a08231916024808301926020929190829003018186803b15801561562157600080fd5b505afa158015615635573d6000803e3d6000fd5b505050506040513d602081101561564b57600080fd5b50519050828110156156a4576040805162461bcd60e51b815260206004820152601a60248201527f544f4b454e5f5452414e534645525f494e5f4f564552464c4f57000000000000604482015290519081900360640190fd5b9190910395945050505050565b60008060006156be615744565b6128d9868660006156cd615744565b6000806156e2670de0b6b3a7640000876146c5565b909250905060008260038111156156f557fe5b1461571457506040805160208101909152600081529092509050612855565b612908818660000151613a0c565b6040805160608101909152806000815260200160008152602001600081525090565b6040518060200160405280600081525090565b828054600181600116156101000203166002900490600052602060002090601f016020900481019282601f1061579857805160ff19168380011785556157c5565b828001600101855582156157c5579182015b828111156157c55782518255916020019190600101906157aa565b506157d19291506158a4565b5090565b6040805161010081019091528060008152602001600081526020016000815260200160008152602001600081526020016000815260200160008152602001600081525090565b6040805160a081019091528060005b8152602001600081526020016000815260200160008152602001600081525090565b6040805160e0810190915280600081526020016000815260200160008152602001600081526020016000815260200160008152602001600081525090565b6040805160c081019091528060008152602001600061582a565b610e0291905b808211156157d157600081556001016158aa56fe6f6e6c792061646d696e206d617920696e697469616c697a6520746865206d61726b65746d61726b6574206d6179206f6e6c7920626520696e697469616c697a6564206f6e6365557365727320617265206e6f7420616c6c6f77656420746f207472616e7366657220696e2070726976617465696e697469616c2065786368616e67652072617465206d7573742062652067726561746572207468616e207a65726f2e73657474696e6720696e7465726573742072617465206d6f64656c206661696c65644d494e545f4e45575f4143434f554e545f42414c414e43455f43414c43554c4154494f4e5f4641494c4544626f72726f7742616c616e636553746f7265643a20626f72726f7742616c616e636553746f726564496e7465726e616c206661696c656452455041595f424f52524f575f4e45575f4143434f554e545f424f52524f575f42414c414e43455f43414c43554c4154494f4e5f4641494c4544ddf252ad1be2c89b69c2b068fc378daa952ba7f163c4a11628f55a4df523b3ef52455041595f424f52524f575f4e45575f544f54414c5f42414c414e43455f43414c43554c4154494f4e5f4641494c45444c49515549444154455f434f4d5054524f4c4c45525f43414c43554c4154455f414d4f554e545f5345495a455f4641494c454465786368616e67655261746553746f7265643a2065786368616e67655261746553746f726564496e7465726e616c206661696c65644d494e545f4e45575f544f54414c5f535550504c595f43414c43554c4154494f4e5f4641494c45446f6e65206f662072656465656d546f6b656e73496e206f722072656465656d416d6f756e74496e206d757374206265207a65726f72656475636520726573657276657320756e657870656374656420756e646572666c6f77a265627a7a72315820c75463e2d06542f8178537bc96e3ba624428b98213e75dd1fc7aa82653e465b664736f6c634300051000326f6e6c792061646d696e206d617920696e697469616c697a6520746865206d61726b65746d61726b6574206d6179206f6e6c7920626520696e697469616c697a6564206f6e6365696e697469616c2065786368616e67652072617465206d7573742062652067726561746572207468616e207a65726f2e73657474696e6720696e7465726573742072617465206d6f64656c206661696c6564",
  "linkReferences": {},
  "deployedLinkReferences": {}
}