{
  "_format": "hh-sol-artifact-1",
  "contractName": "LeverageHoldingDelegator",
  "sourceName": "contracts/compound/LeverageHoldingDelegator.sol",
  "abi": [
    {
      "inputs": [],
      "payable": false,
      "stateMutability": "nonpayable",
      "type": "constructor"
    },
    {
      "anonymous": false,
      "inputs": [
        {
          "indexed": false,
          "internalType": "uint256",
          "name": "error",
          "type": "uint256"
        },
        {
          "indexed": false,
          "internalType": "uint256",
          "name": "info",
          "type": "uint256"
        },
        {
          "indexed": false,
          "internalType": "uint256",
          "name": "detail",
          "type": "uint256"
        }
      ],
      "name": "Failure",
      "type": "event"
    },
    {
      "anonymous": false,
      "inputs": [
        {
          "indexed": false,
          "internalType": "address",
          "name": "newImplementationS1",
          "type": "address"
        },
        {
          "indexed": false,
          "internalType": "address",
          "name": "NewImplementationS2",
          "type": "address"
        }
      ],
      "name": "NewImplementation",
      "type": "event"
    },
    {
      "payable": true,
      "stateMutability": "payable",
      "type": "fallback"
    },
    {
      "constant": false,
      "inputs": [],
      "name": "_acceptAdmin",
      "outputs": [
        {
          "internalType": "uint256",
          "name": "",
          "type": "uint256"
        }
      ],
      "payable": false,
      "stateMutability": "nonpayable",
      "type": "function"
    },
    {
      "constant": false,
      "inputs": [
        {
          "internalType": "address",
          "name": "token",
          "type": "address"
        },
        {
          "internalType": "address",
          "name": "spender",
          "type": "address"
        },
        {
          "internalType": "uint256",
          "name": "amount",
          "type": "uint256"
        }
      ],
      "name": "_approve",
      "outputs": [],
      "payable": false,
      "stateMutability": "nonpayable",
      "type": "function"
    },
    {
      "constant": true,
      "inputs": [],
      "name": "_borrowGuardianPaused",
      "outputs": [
        {
          "internalType": "bool",
          "name": "",
          "type": "bool"
        }
      ],
      "payable": false,
      "stateMutability": "view",
      "type": "function"
    },
    {
      "constant": true,
      "inputs": [],
      "name": "_mintGuardianPaused",
      "outputs": [
        {
          "internalType": "bool",
          "name": "",
          "type": "bool"
        }
      ],
      "payable": false,
      "stateMutability": "view",
      "type": "function"
    },
    {
      "constant": false,
      "inputs": [
        {
          "internalType": "address",
          "name": "baseEToken_",
          "type": "address"
        }
      ],
      "name": "_setBaseEToken",
      "outputs": [
        {
          "internalType": "uint256",
          "name": "",
          "type": "uint256"
        }
      ],
      "payable": false,
      "stateMutability": "nonpayable",
      "type": "function"
    },
    {
      "constant": false,
      "inputs": [
        {
          "internalType": "contract ComptrollerInterfaceV2",
          "name": "newComptroller",
          "type": "address"
        }
      ],
      "name": "_setComptroller",
      "outputs": [
        {
          "internalType": "uint256",
          "name": "",
          "type": "uint256"
        }
      ],
      "payable": false,
      "stateMutability": "nonpayable",
      "type": "function"
    },
    {
      "constant": false,
      "inputs": [
        {
          "internalType": "address",
          "name": "implementationS1_",
          "type": "address"
        },
        {
          "internalType": "address",
          "name": "implementationS2_",
          "type": "address"
        }
      ],
      "name": "_setImplementation",
      "outputs": [],
      "payable": false,
      "stateMutability": "nonpayable",
      "type": "function"
    },
    {
      "constant": false,
      "inputs": [
        {
          "internalType": "contract LeverageHoldingComptrollerInterface",
          "name": "leverageComptroller_",
          "type": "address"
        }
      ],
      "name": "_setLeverageComptroller",
      "outputs": [
        {
          "internalType": "uint256",
          "name": "",
          "type": "uint256"
        }
      ],
      "payable": false,
      "stateMutability": "nonpayable",
      "type": "function"
    },
    {
      "constant": false,
      "inputs": [
        {
          "internalType": "address payable",
          "name": "newPendingAdmin",
          "type": "address"
        }
      ],
      "name": "_setPendingAdmin",
      "outputs": [
        {
          "internalType": "uint256",
          "name": "",
          "type": "uint256"
        }
      ],
      "payable": false,
      "stateMutability": "nonpayable",
      "type": "function"
    },
    {
      "constant": false,
      "inputs": [
        {
          "internalType": "contract PriceOracle",
          "name": "oracle_",
          "type": "address"
        }
      ],
      "name": "_setPrice",
      "outputs": [
        {
          "internalType": "uint256",
          "name": "",
          "type": "uint256"
        }
      ],
      "payable": false,
      "stateMutability": "nonpayable",
      "type": "function"
    },
    {
      "constant": true,
      "inputs": [
        {
          "internalType": "address",
          "name": "",
          "type": "address"
        },
        {
          "internalType": "address",
          "name": "",
          "type": "address"
        },
        {
          "internalType": "address",
          "name": "",
          "type": "address"
        }
      ],
      "name": "accrualBlockNumbers",
      "outputs": [
        {
          "internalType": "uint256",
          "name": "",
          "type": "uint256"
        }
      ],
      "payable": false,
      "stateMutability": "view",
      "type": "function"
    },
    {
      "constant": false,
      "inputs": [
        {
          "internalType": "address",
          "name": "token0",
          "type": "address"
        },
        {
          "internalType": "address",
          "name": "token1",
          "type": "address"
        },
        {
          "internalType": "address",
          "name": "tokenAccrued",
          "type": "address"
        }
      ],
      "name": "accrueInterest",
      "outputs": [
        {
          "internalType": "uint256",
          "name": "",
          "type": "uint256"
        }
      ],
      "payable": false,
      "stateMutability": "nonpayable",
      "type": "function"
    },
    {
      "constant": false,
      "inputs": [
        {
          "internalType": "address",
          "name": "eToken_",
          "type": "address"
        }
      ],
      "name": "accrueInterest",
      "outputs": [
        {
          "internalType": "uint256",
          "name": "",
          "type": "uint256"
        }
      ],
      "payable": false,
      "stateMutability": "nonpayable",
      "type": "function"
    },
    {
      "constant": true,
      "inputs": [],
      "name": "admin",
      "outputs": [
        {
          "internalType": "address",
          "name": "",
          "type": "address"
        }
      ],
      "payable": false,
      "stateMutability": "view",
      "type": "function"
    },
    {
      "constant": true,
      "inputs": [
        {
          "internalType": "address",
          "name": "",
          "type": "address"
        },
        {
          "internalType": "address",
          "name": "",
          "type": "address"
        },
        {
          "internalType": "address",
          "name": "",
          "type": "address"
        }
      ],
      "name": "amountLeveragedMax",
      "outputs": [
        {
          "internalType": "uint256",
          "name": "",
          "type": "uint256"
        }
      ],
      "payable": false,
      "stateMutability": "view",
      "type": "function"
    },
    {
      "constant": true,
      "inputs": [],
      "name": "baseEToken",
      "outputs": [
        {
          "internalType": "address",
          "name": "",
          "type": "address"
        }
      ],
      "payable": false,
      "stateMutability": "view",
      "type": "function"
    },
    {
      "constant": true,
      "inputs": [
        {
          "internalType": "address",
          "name": "eToken0",
          "type": "address"
        },
        {
          "internalType": "address",
          "name": "eToken1",
          "type": "address"
        },
        {
          "internalType": "address",
          "name": "assetsSelected",
          "type": "address"
        },
        {
          "internalType": "address",
          "name": "account",
          "type": "address"
        }
      ],
      "name": "borrowBalanceStored",
      "outputs": [
        {
          "internalType": "uint256",
          "name": "",
          "type": "uint256"
        },
        {
          "internalType": "uint256",
          "name": "",
          "type": "uint256"
        },
        {
          "internalType": "uint256",
          "name": "",
          "type": "uint256"
        },
        {
          "internalType": "uint256",
          "name": "",
          "type": "uint256"
        },
        {
          "internalType": "uint256",
          "name": "",
          "type": "uint256"
        }
      ],
      "payable": false,
      "stateMutability": "view",
      "type": "function"
    },
    {
      "constant": true,
      "inputs": [
        {
          "internalType": "address",
          "name": "",
          "type": "address"
        }
      ],
      "name": "borrowGuardianPaused",
      "outputs": [
        {
          "internalType": "bool",
          "name": "",
          "type": "bool"
        }
      ],
      "payable": false,
      "stateMutability": "view",
      "type": "function"
    },
    {
      "constant": true,
      "inputs": [],
      "name": "closeFactorMantissa",
      "outputs": [
        {
          "internalType": "uint256",
          "name": "",
          "type": "uint256"
        }
      ],
      "payable": false,
      "stateMutability": "view",
      "type": "function"
    },
    {
      "constant": false,
      "inputs": [
        {
          "internalType": "address",
          "name": "token0",
          "type": "address"
        },
        {
          "internalType": "address",
          "name": "token1",
          "type": "address"
        },
        {
          "internalType": "address",
          "name": "srcToken",
          "type": "address"
        },
        {
          "internalType": "address",
          "name": "destToken",
          "type": "address"
        },
        {
          "internalType": "uint256",
          "name": "amountIn",
          "type": "uint256"
        },
        {
          "internalType": "uint256",
          "name": "guaranteeAmountOut",
          "type": "uint256"
        },
        {
          "internalType": "uint256",
          "name": "expiredAt",
          "type": "uint256"
        },
        {
          "internalType": "uint256",
          "name": "flag",
          "type": "uint256"
        }
      ],
      "name": "commissionOrder",
      "outputs": [
        {
          "internalType": "uint256",
          "name": "",
          "type": "uint256"
        }
      ],
      "payable": false,
      "stateMutability": "nonpayable",
      "type": "function"
    },
    {
      "constant": true,
      "inputs": [],
      "name": "comptrollerV2",
      "outputs": [
        {
          "internalType": "contract ComptrollerInterfaceV2",
          "name": "",
          "type": "address"
        }
      ],
      "payable": false,
      "stateMutability": "view",
      "type": "function"
    },
    {
      "constant": false,
      "inputs": [
        {
          "internalType": "bytes",
          "name": "data",
          "type": "bytes"
        }
      ],
      "name": "delegateToImplementationS1",
      "outputs": [
        {
          "internalType": "bytes",
          "name": "",
          "type": "bytes"
        }
      ],
      "payable": false,
      "stateMutability": "nonpayable",
      "type": "function"
    },
    {
      "constant": false,
      "inputs": [
        {
          "internalType": "bytes",
          "name": "data",
          "type": "bytes"
        }
      ],
      "name": "delegateToImplementationS2",
      "outputs": [
        {
          "internalType": "bytes",
          "name": "",
          "type": "bytes"
        }
      ],
      "payable": false,
      "stateMutability": "nonpayable",
      "type": "function"
    },
    {
      "constant": true,
      "inputs": [
        {
          "internalType": "bytes",
          "name": "data",
          "type": "bytes"
        }
      ],
      "name": "delegateToViewImplementation",
      "outputs": [
        {
          "internalType": "bytes",
          "name": "",
          "type": "bytes"
        }
      ],
      "payable": false,
      "stateMutability": "view",
      "type": "function"
    },
    {
      "constant": false,
      "inputs": [
        {
          "internalType": "address",
          "name": "eTokenA",
          "type": "address"
        },
        {
          "internalType": "address",
          "name": "eTokenB",
          "type": "address"
        },
        {
          "internalType": "address",
          "name": "asserIn",
          "type": "address"
        },
        {
          "internalType": "uint256",
          "name": "amountIn",
          "type": "uint256"
        }
      ],
      "name": "deposit",
      "outputs": [
        {
          "internalType": "enum LeverageError.Error",
          "name": "",
          "type": "uint8"
        }
      ],
      "payable": true,
      "stateMutability": "payable",
      "type": "function"
    },
    {
      "constant": true,
      "inputs": [
        {
          "internalType": "uint256",
          "name": "levaraged",
          "type": "uint256"
        },
        {
          "internalType": "address",
          "name": "borrower",
          "type": "address"
        },
        {
          "internalType": "address",
          "name": "token0",
          "type": "address"
        },
        {
          "internalType": "address",
          "name": "token1",
          "type": "address"
        },
        {
          "internalType": "uint256",
          "name": "repayAmount",
          "type": "uint256"
        },
        {
          "internalType": "address",
          "name": "eTokenLiquidated",
          "type": "address"
        }
      ],
      "name": "executable",
      "outputs": [
        {
          "internalType": "uint256",
          "name": "",
          "type": "uint256"
        },
        {
          "internalType": "uint256",
          "name": "",
          "type": "uint256"
        },
        {
          "internalType": "uint256",
          "name": "",
          "type": "uint256"
        }
      ],
      "payable": false,
      "stateMutability": "view",
      "type": "function"
    },
    {
      "constant": true,
      "inputs": [
        {
          "internalType": "address",
          "name": "eToken0",
          "type": "address"
        },
        {
          "internalType": "address",
          "name": "eToken1",
          "type": "address"
        },
        {
          "internalType": "address",
          "name": "account",
          "type": "address"
        }
      ],
      "name": "getAccountSnapshot",
      "outputs": [
        {
          "internalType": "uint256",
          "name": "",
          "type": "uint256"
        },
        {
          "internalType": "uint256",
          "name": "",
          "type": "uint256"
        },
        {
          "internalType": "uint256",
          "name": "",
          "type": "uint256"
        }
      ],
      "payable": false,
      "stateMutability": "view",
      "type": "function"
    },
    {
      "constant": true,
      "inputs": [],
      "name": "getBlockNumber",
      "outputs": [
        {
          "internalType": "uint256",
          "name": "",
          "type": "uint256"
        }
      ],
      "payable": false,
      "stateMutability": "view",
      "type": "function"
    },
    {
      "constant": true,
      "inputs": [
        {
          "internalType": "address",
          "name": "token0",
          "type": "address"
        },
        {
          "internalType": "address",
          "name": "token1",
          "type": "address"
        }
      ],
      "name": "getPair",
      "outputs": [
        {
          "internalType": "address",
          "name": "",
          "type": "address"
        }
      ],
      "payable": false,
      "stateMutability": "view",
      "type": "function"
    },
    {
      "constant": true,
      "inputs": [
        {
          "internalType": "address",
          "name": "eToken_",
          "type": "address"
        },
        {
          "internalType": "uint256",
          "name": "eTokens",
          "type": "uint256"
        }
      ],
      "name": "getTokenAmount",
      "outputs": [
        {
          "internalType": "uint256",
          "name": "",
          "type": "uint256"
        }
      ],
      "payable": false,
      "stateMutability": "view",
      "type": "function"
    },
    {
      "constant": true,
      "inputs": [],
      "name": "implementationS1",
      "outputs": [
        {
          "internalType": "address",
          "name": "",
          "type": "address"
        }
      ],
      "payable": false,
      "stateMutability": "view",
      "type": "function"
    },
    {
      "constant": true,
      "inputs": [],
      "name": "implementationS2",
      "outputs": [
        {
          "internalType": "address",
          "name": "",
          "type": "address"
        }
      ],
      "payable": false,
      "stateMutability": "view",
      "type": "function"
    },
    {
      "constant": false,
      "inputs": [
        {
          "internalType": "address",
          "name": "eTokenA",
          "type": "address"
        },
        {
          "internalType": "address",
          "name": "eTokenB",
          "type": "address"
        },
        {
          "internalType": "address",
          "name": "asserOut",
          "type": "address"
        },
        {
          "internalType": "uint256",
          "name": "leverageAmount",
          "type": "uint256"
        }
      ],
      "name": "leverageBorrow",
      "outputs": [
        {
          "internalType": "uint256",
          "name": "",
          "type": "uint256"
        }
      ],
      "payable": false,
      "stateMutability": "nonpayable",
      "type": "function"
    },
    {
      "constant": true,
      "inputs": [
        {
          "internalType": "address",
          "name": "",
          "type": "address"
        },
        {
          "internalType": "address",
          "name": "",
          "type": "address"
        },
        {
          "internalType": "address",
          "name": "",
          "type": "address"
        }
      ],
      "name": "leverageCapitals",
      "outputs": [
        {
          "internalType": "uint256",
          "name": "pureBaseAmount0",
          "type": "uint256"
        },
        {
          "internalType": "uint256",
          "name": "pureCTokens0",
          "type": "uint256"
        },
        {
          "internalType": "uint256",
          "name": "borrowAmount0",
          "type": "uint256"
        },
        {
          "internalType": "uint256",
          "name": "interestIndex0",
          "type": "uint256"
        },
        {
          "internalType": "uint256",
          "name": "pureBaseAmount1",
          "type": "uint256"
        },
        {
          "internalType": "uint256",
          "name": "pureCTokens1",
          "type": "uint256"
        },
        {
          "internalType": "uint256",
          "name": "borrowAmount1",
          "type": "uint256"
        },
        {
          "internalType": "uint256",
          "name": "interestIndex1",
          "type": "uint256"
        }
      ],
      "payable": false,
      "stateMutability": "view",
      "type": "function"
    },
    {
      "constant": true,
      "inputs": [],
      "name": "leverageComptroller",
      "outputs": [
        {
          "internalType": "contract LeverageHoldingComptrollerInterface",
          "name": "",
          "type": "address"
        }
      ],
      "payable": false,
      "stateMutability": "view",
      "type": "function"
    },
    {
      "constant": true,
      "inputs": [
        {
          "internalType": "address",
          "name": "",
          "type": "address"
        },
        {
          "internalType": "address",
          "name": "",
          "type": "address"
        },
        {
          "internalType": "address",
          "name": "",
          "type": "address"
        }
      ],
      "name": "leveragePrincipals",
      "outputs": [
        {
          "internalType": "uint256",
          "name": "",
          "type": "uint256"
        }
      ],
      "payable": false,
      "stateMutability": "view",
      "type": "function"
    },
    {
      "constant": true,
      "inputs": [
        {
          "internalType": "address",
          "name": "borrower",
          "type": "address"
        },
        {
          "internalType": "address",
          "name": "token0",
          "type": "address"
        },
        {
          "internalType": "address",
          "name": "token1",
          "type": "address"
        },
        {
          "internalType": "uint256",
          "name": "repayAmount",
          "type": "uint256"
        },
        {
          "internalType": "address",
          "name": "eTokenLiquidated",
          "type": "address"
        }
      ],
      "name": "liquidateBorrowAllowed",
      "outputs": [
        {
          "internalType": "uint256",
          "name": "",
          "type": "uint256"
        },
        {
          "internalType": "uint256",
          "name": "",
          "type": "uint256"
        },
        {
          "internalType": "uint256",
          "name": "",
          "type": "uint256"
        }
      ],
      "payable": false,
      "stateMutability": "view",
      "type": "function"
    },
    {
      "constant": true,
      "inputs": [
        {
          "internalType": "address",
          "name": "eTokenLiquidated",
          "type": "address"
        },
        {
          "internalType": "uint256",
          "name": "actualRepayAmount",
          "type": "uint256"
        }
      ],
      "name": "liquidateCalculateSeizeTokens",
      "outputs": [
        {
          "internalType": "uint256",
          "name": "",
          "type": "uint256"
        },
        {
          "internalType": "uint256",
          "name": "",
          "type": "uint256"
        }
      ],
      "payable": false,
      "stateMutability": "view",
      "type": "function"
    },
    {
      "constant": false,
      "inputs": [
        {
          "internalType": "address",
          "name": "borrower",
          "type": "address"
        },
        {
          "internalType": "uint256",
          "name": "repayAmount",
          "type": "uint256"
        },
        {
          "internalType": "address",
          "name": "token0",
          "type": "address"
        },
        {
          "internalType": "address",
          "name": "token1",
          "type": "address"
        },
        {
          "internalType": "address",
          "name": "eTokenLiquidated",
          "type": "address"
        }
      ],
      "name": "liquidateLeverage",
      "outputs": [
        {
          "internalType": "uint256",
          "name": "",
          "type": "uint256"
        }
      ],
      "payable": false,
      "stateMutability": "nonpayable",
      "type": "function"
    },
    {
      "constant": false,
      "inputs": [
        {
          "internalType": "address",
          "name": "borrower",
          "type": "address"
        },
        {
          "internalType": "address",
          "name": "token0",
          "type": "address"
        },
        {
          "internalType": "address",
          "name": "token1",
          "type": "address"
        },
        {
          "internalType": "address",
          "name": "eTokenLiquidated",
          "type": "address"
        }
      ],
      "name": "liquidateLeverage",
      "outputs": [],
      "payable": true,
      "stateMutability": "payable",
      "type": "function"
    },
    {
      "constant": true,
      "inputs": [],
      "name": "liquidationIncentiveMantissa",
      "outputs": [
        {
          "internalType": "uint256",
          "name": "",
          "type": "uint256"
        }
      ],
      "payable": false,
      "stateMutability": "view",
      "type": "function"
    },
    {
      "constant": true,
      "inputs": [],
      "name": "marginHolding_",
      "outputs": [
        {
          "internalType": "address",
          "name": "",
          "type": "address"
        }
      ],
      "payable": false,
      "stateMutability": "view",
      "type": "function"
    },
    {
      "constant": true,
      "inputs": [
        {
          "internalType": "address",
          "name": "",
          "type": "address"
        }
      ],
      "name": "mintGuardianPaused",
      "outputs": [
        {
          "internalType": "bool",
          "name": "",
          "type": "bool"
        }
      ],
      "payable": false,
      "stateMutability": "view",
      "type": "function"
    },
    {
      "constant": false,
      "inputs": [
        {
          "internalType": "address",
          "name": "owner",
          "type": "address"
        },
        {
          "internalType": "address",
          "name": "token0",
          "type": "address"
        },
        {
          "internalType": "address",
          "name": "token1",
          "type": "address"
        },
        {
          "internalType": "address",
          "name": "tokenReturn",
          "type": "address"
        },
        {
          "internalType": "uint256",
          "name": "amt",
          "type": "uint256"
        }
      ],
      "name": "onCanceled",
      "outputs": [],
      "payable": false,
      "stateMutability": "nonpayable",
      "type": "function"
    },
    {
      "constant": false,
      "inputs": [
        {
          "internalType": "address",
          "name": "owner",
          "type": "address"
        },
        {
          "internalType": "address",
          "name": "tokenOut",
          "type": "address"
        },
        {
          "internalType": "address",
          "name": "tokenIn",
          "type": "address"
        },
        {
          "internalType": "uint256",
          "name": "fulfiled",
          "type": "uint256"
        },
        {
          "internalType": "uint256",
          "name": "amt",
          "type": "uint256"
        }
      ],
      "name": "onFulfiled",
      "outputs": [],
      "payable": false,
      "stateMutability": "nonpayable",
      "type": "function"
    },
    {
      "constant": true,
      "inputs": [],
      "name": "oracle",
      "outputs": [
        {
          "internalType": "contract PriceOracle",
          "name": "",
          "type": "address"
        }
      ],
      "payable": false,
      "stateMutability": "view",
      "type": "function"
    },
    {
      "constant": true,
      "inputs": [
        {
          "internalType": "address",
          "name": "",
          "type": "address"
        },
        {
          "internalType": "address",
          "name": "",
          "type": "address"
        },
        {
          "internalType": "address",
          "name": "",
          "type": "address"
        }
      ],
      "name": "pairCapitals",
      "outputs": [
        {
          "internalType": "uint256",
          "name": "free0",
          "type": "uint256"
        },
        {
          "internalType": "uint256",
          "name": "free1",
          "type": "uint256"
        },
        {
          "internalType": "uint256",
          "name": "freeze0",
          "type": "uint256"
        },
        {
          "internalType": "uint256",
          "name": "freeze1",
          "type": "uint256"
        }
      ],
      "payable": false,
      "stateMutability": "view",
      "type": "function"
    },
    {
      "constant": true,
      "inputs": [
        {
          "internalType": "address",
          "name": "",
          "type": "address"
        },
        {
          "internalType": "address",
          "name": "",
          "type": "address"
        }
      ],
      "name": "pairs",
      "outputs": [
        {
          "internalType": "bool",
          "name": "",
          "type": "bool"
        }
      ],
      "payable": false,
      "stateMutability": "view",
      "type": "function"
    },
    {
      "constant": true,
      "inputs": [],
      "name": "pauseGuardian",
      "outputs": [
        {
          "internalType": "address",
          "name": "",
          "type": "address"
        }
      ],
      "payable": false,
      "stateMutability": "view",
      "type": "function"
    },
    {
      "constant": true,
      "inputs": [],
      "name": "pendingAdmin",
      "outputs": [
        {
          "internalType": "address",
          "name": "",
          "type": "address"
        }
      ],
      "payable": false,
      "stateMutability": "view",
      "type": "function"
    },
    {
      "constant": true,
      "inputs": [],
      "name": "seizeGuardianPaused",
      "outputs": [
        {
          "internalType": "bool",
          "name": "",
          "type": "bool"
        }
      ],
      "payable": false,
      "stateMutability": "view",
      "type": "function"
    },
    {
      "constant": true,
      "inputs": [],
      "name": "swapFactory_",
      "outputs": [
        {
          "internalType": "address",
          "name": "",
          "type": "address"
        }
      ],
      "payable": false,
      "stateMutability": "view",
      "type": "function"
    },
    {
      "constant": true,
      "inputs": [
        {
          "internalType": "address",
          "name": "",
          "type": "address"
        },
        {
          "internalType": "address",
          "name": "",
          "type": "address"
        },
        {
          "internalType": "address",
          "name": "",
          "type": "address"
        }
      ],
      "name": "tokenLeverageRates",
      "outputs": [
        {
          "internalType": "uint256",
          "name": "",
          "type": "uint256"
        }
      ],
      "payable": false,
      "stateMutability": "view",
      "type": "function"
    },
    {
      "constant": true,
      "inputs": [
        {
          "internalType": "address",
          "name": "",
          "type": "address"
        },
        {
          "internalType": "address",
          "name": "",
          "type": "address"
        },
        {
          "internalType": "address",
          "name": "",
          "type": "address"
        }
      ],
      "name": "totalLeverages",
      "outputs": [
        {
          "internalType": "uint256",
          "name": "",
          "type": "uint256"
        }
      ],
      "payable": false,
      "stateMutability": "view",
      "type": "function"
    },
    {
      "constant": true,
      "inputs": [],
      "name": "totalWithdrawalAllowed",
      "outputs": [
        {
          "internalType": "bool",
          "name": "",
          "type": "bool"
        }
      ],
      "payable": false,
      "stateMutability": "view",
      "type": "function"
    },
    {
      "constant": true,
      "inputs": [],
      "name": "transferGuardianPaused",
      "outputs": [
        {
          "internalType": "bool",
          "name": "",
          "type": "bool"
        }
      ],
      "payable": false,
      "stateMutability": "view",
      "type": "function"
    },
    {
      "constant": true,
      "inputs": [
        {
          "internalType": "address",
          "name": "eToken_",
          "type": "address"
        }
      ],
      "name": "verifyBlocks",
      "outputs": [
        {
          "internalType": "bool",
          "name": "",
          "type": "bool"
        }
      ],
      "payable": false,
      "stateMutability": "view",
      "type": "function"
    },
    {
      "constant": false,
      "inputs": [
        {
          "internalType": "address",
          "name": "eTokenA",
          "type": "address"
        },
        {
          "internalType": "address",
          "name": "eTokenB",
          "type": "address"
        },
        {
          "internalType": "uint256",
          "name": "withdraw0",
          "type": "uint256"
        },
        {
          "internalType": "uint256",
          "name": "withdraw1",
          "type": "uint256"
        }
      ],
      "name": "withdraw",
      "outputs": [
        {
          "internalType": "uint256",
          "name": "",
          "type": "uint256"
        }
      ],
      "payable": false,
      "stateMutability": "nonpayable",
      "type": "function"
    }
  ],
  "bytecode": "0x6080604052670de0b6b3a7640000600455670f43fc2c04ee0000600855670214e8348c4f0000600955671158e460913d0000600a55671bc16d674ec80000600b55600c805460ff191660011790556706f05b59d3b20000601355601780546001600160a01b031916905534801561007557600080fd5b50600280546001600160a01b03191633179055611b30806100976000396000f3fe6080604052600436106103815760003560e01c8063542bb19d116101d1578063a3d5974e11610102578063e6653f3d116100a0578063ebdf591a1161006f578063ebdf591a14610fe9578063f851a4401461102e578063fb5df49714611043578063fdc60606146110ae57610381565b8063e6653f3d14610f6f578063e6a4390514610f84578063e875544614610fbf578063e9c714f214610fd457610381565b8063b71d1a0c116100dc578063b71d1a0c14610652578063b7d9d9d414610eb4578063bbea9a7a14610f07578063e31ca93c14610f4c57610381565b8063a3d5974e14610652578063a5f98dd914610dee578063ac0b0bb714610e9f57610381565b80637bfe950c1161016f57806389fefa441161014957806389fefa4414610cdc5780638a72e53114610d4d5780638f9cdb3514610da65780639198e51514610dbb57610381565b80637bfe950c14610c695780637dc0d1d014610cb257806387f7630314610cc757610381565b806369454b86116101ab57806369454b8614610bb35780636d154ea514610bee578063731f0c2b14610c215780637ac0ac4714610c5457610381565b8063542bb19d14610ae357806357c2b7b814610af857806364a8f5c414610b6e57610381565b806326782247116102b657806341e340061161025457806345a219bb1161022357806345a219bb14610a4157806348ab8fc714610a865780634ada90af14610a9b578063518a37f214610ab057610381565b806341e340061461092957806342cbb15c1461097b5780634487152f146109905780634576b5db1461065257610381565b80633627fec8116102905780633627fec8146108505780633713bb02146106525780633c94786f146108d6578063410815b8146108eb57610381565b806326782247146107c05780633358936a146107d557806333668e2a146107ea57610381565b8063115ece4c116103235780631fc74c85116102fd5780631fc74c85146106295780632199fdee1461065257806324a3d62214610685578063253211921461069a57610381565b8063115ece4c1461056657806313d016021461059f5780631889ae21146105da57610381565b8063104e81ff1161035f578063104e81ff14610482578063106d3786146104c757806311157d87146104dc578063114a78431461052157610381565b80630284c3f51461038c5780630e56d06f146103ec5780631001663c1461041d575b6103896110f3565b50005b6103c8600480360360808110156103a257600080fd5b506001600160a01b03813581169160208101358216916040820135169060600135611178565b604051808260258111156103d857fe5b60ff16815260200191505060405180910390f35b3480156103f857600080fd5b5061040161118b565b604080516001600160a01b039092168252519081900360200190f35b34801561042957600080fd5b50610470600480360360a081101561044057600080fd5b506001600160a01b038135811691602081013591604082013581169160608101358216916080909101351661119a565b60408051918252519081900360200190f35b34801561048e57600080fd5b506104c5600480360360608110156104a557600080fd5b506001600160a01b038135811691602081013590911690604001356111ae565b005b3480156104d357600080fd5b506104016111bc565b3480156104e857600080fd5b50610470600480360360608110156104ff57600080fd5b506001600160a01b0381358116916020810135821691604090910135166111cb565b34801561052d57600080fd5b506104706004803603606081101561054457600080fd5b506001600160a01b0381358116916020810135821691604090910135166111ee565b34801561057257600080fd5b506104706004803603604081101561058957600080fd5b506001600160a01b038135169060200135611211565b3480156105ab57600080fd5b506104c5600480360360408110156105c257600080fd5b506001600160a01b0381358116916020013516611222565b3480156105e657600080fd5b506104c5600480360360a08110156105fd57600080fd5b506001600160a01b0381358116916020810135821691604082013516906060810135906080013561130a565b34801561063557600080fd5b5061063e61131a565b604080519115158252519081900360200190f35b34801561065e57600080fd5b506104706004803603602081101561067557600080fd5b50356001600160a01b0316611323565b34801561069157600080fd5b50610401611333565b3480156106a657600080fd5b5061074b600480360360208110156106bd57600080fd5b810190602081018135600160201b8111156106d757600080fd5b8201836020820111156106e957600080fd5b803590602001918460018302840111600160201b8311171561070a57600080fd5b91908080601f016020809104026020016040519081016040528093929190818152602001838380828437600092019190915250929550611342945050505050565b6040805160208082528351818301528351919283929083019185019080838360005b8381101561078557818101518382015260200161076d565b50505050905090810190601f1680156107b25780820380516001836020036101000a031916815260200191505b509250505060405180910390f35b3480156107cc57600080fd5b50610401611361565b3480156107e157600080fd5b50610401611370565b3480156107f657600080fd5b50610470600480360361010081101561080e57600080fd5b506001600160a01b0381358116916020810135821691604082013581169160608101359091169060808101359060a08101359060c08101359060e0013561137f565b34801561085c57600080fd5b506108956004803603606081101561087357600080fd5b506001600160a01b038135811691602081013582169160409091013516611396565b604080519889526020890197909752878701959095526060870193909352608086019190915260a085015260c084015260e083015251908190036101000190f35b3480156108e257600080fd5b5061063e6113ea565b6104c56004803603608081101561090157600080fd5b506001600160a01b0381358116916020810135821691604082013581169160600135166113fa565b34801561093557600080fd5b506109626004803603604081101561094c57600080fd5b506001600160a01b038135169060200135611409565b6040805192835260208301919091528051918290030190f35b34801561098757600080fd5b5061047061141c565b34801561099c57600080fd5b5061074b600480360360208110156109b357600080fd5b810190602081018135600160201b8111156109cd57600080fd5b8201836020820111156109df57600080fd5b803590602001918460018302840111600160201b83111715610a0057600080fd5b91908080601f016020809104026020016040519081016040528093929190818152602001838380828437600092019190915250929550611420945050505050565b348015610a4d57600080fd5b5061047060048036036060811015610a6457600080fd5b506001600160a01b03813581169160208101358216916040909101351661163f565b348015610a9257600080fd5b50610401611651565b348015610aa757600080fd5b50610470611660565b348015610abc57600080fd5b5061063e60048036036020811015610ad357600080fd5b50356001600160a01b0316611666565b348015610aef57600080fd5b50610401611670565b348015610b0457600080fd5b50610b4360048036036080811015610b1b57600080fd5b506001600160a01b03813581169160208101358216916040820135811691606001351661167f565b6040805195865260208601949094528484019290925260608401526080830152519081900360a00190f35b348015610b7a57600080fd5b5061047060048036036060811015610b9157600080fd5b506001600160a01b03813581169160208101358216916040909101351661169b565b348015610bbf57600080fd5b5061063e60048036036040811015610bd657600080fd5b506001600160a01b03813581169160200135166116be565b348015610bfa57600080fd5b5061063e60048036036020811015610c1157600080fd5b50356001600160a01b03166116de565b348015610c2d57600080fd5b5061063e60048036036020811015610c4457600080fd5b50356001600160a01b03166116f3565b348015610c6057600080fd5b50610401611708565b348015610c7557600080fd5b5061047060048036036080811015610c8c57600080fd5b506001600160a01b03813581169160208101359091169060408101359060600135611178565b348015610cbe57600080fd5b5061040161171c565b348015610cd357600080fd5b5061063e61172b565b348015610ce857600080fd5b50610d2f600480360360a0811015610cff57600080fd5b506001600160a01b038135811691602081013582169160408201358116916060810135916080909101351661173b565b60408051938452602084019290925282820152519081900360600190f35b348015610d5957600080fd5b50610d2f600480360360c0811015610d7057600080fd5b508035906001600160a01b0360208201358116916040810135821691606082013581169160808101359160a09091013516611754565b348015610db257600080fd5b5061040161176e565b348015610dc757600080fd5b5061047060048036036020811015610dde57600080fd5b50356001600160a01b031661177d565b348015610dfa57600080fd5b5061074b60048036036020811015610e1157600080fd5b810190602081018135600160201b811115610e2b57600080fd5b820183602082011115610e3d57600080fd5b803590602001918460018302840111600160201b83111715610e5e57600080fd5b91908080601f016020809104026020016040519081016040528093929190818152602001838380828437600092019190915250929550611787945050505050565b348015610eab57600080fd5b5061063e6117a0565b348015610ec057600080fd5b506104c5600480360360a0811015610ed757600080fd5b506001600160a01b038135811691602081013582169160408201358116916060810135909116906080013561130a565b348015610f1357600080fd5b5061047060048036036060811015610f2a57600080fd5b506001600160a01b0381358116916020810135821691604090910135166117b0565b348015610f5857600080fd5b50610470600480360360808110156103a257600080fd5b348015610f7b57600080fd5b5061063e6117d3565b348015610f9057600080fd5b5061040160048036036040811015610fa757600080fd5b506001600160a01b0381358116916020013516611211565b348015610fcb57600080fd5b506104706117e3565b348015610fe057600080fd5b506104706117e9565b348015610ff557600080fd5b50610d2f6004803603606081101561100c57600080fd5b506001600160a01b0381358116916020810135821691604090910135166117f7565b34801561103a57600080fd5b5061040161180e565b34801561104f57600080fd5b506110886004803603606081101561106657600080fd5b506001600160a01b03813581169160208101358216916040909101351661181d565b604080519485526020850193909352838301919091526060830152519081900360800190f35b3480156110ba57600080fd5b50610470600480360360608110156110d157600080fd5b506001600160a01b038135811691602081013582169160409091013516611855565b60008054604051606092916001600160a01b031690829036908083838082843760405192019450600093509091505080830381855af49150503d8060008114611158576040519150601f19603f3d011682016040523d82523d6000602084013e61115d565b606091505b505090506040513d6000823e818015611174573d82f35b3d82fd5b60006111826110f3565b50949350505050565b6001546001600160a01b031681565b60006111a46110f3565b5095945050505050565b6111b6611878565b50505050565b6016546001600160a01b031681565b601160209081526000938452604080852082529284528284209052825290205481565b601260209081526000938452604080852082529284528284209052825290205481565b600061121b6118e0565b5092915050565b6002546001600160a01b0316331461126b5760405162461bcd60e51b8152600401808060200182810382526039815260200180611ac36039913960400191505060405180910390fd5b6001600160a01b0382161561129657600080546001600160a01b0319166001600160a01b0384161790555b6001600160a01b038116156112c157600180546001600160a01b0319166001600160a01b0383161790555b604080516001600160a01b0380851682528316602082015281517fd604de94d45953f9138079ec1b82d533cb2160c906d1076d1f7ed54befbca97a929181900390910190a15050565b6113126110f3565b505050505050565b600c5460ff1681565b600061132d611878565b50919050565b6019546001600160a01b031681565b60015460609061135b906001600160a01b031683611a00565b92915050565b6003546001600160a01b031681565b6000546001600160a01b031681565b60006113896110f3565b5098975050505050505050565b60076020818152600094855260408086208252938552838520905290835291208054600182015460028301546003840154600485015460058601546006870154969097015494969395929491939092909188565b601954600160a01b900460ff1681565b6114026110f3565b5050505050565b6000806114146118e0565b509250929050565b4390565b606060006060306001600160a01b0316846040516024018080602001828103825283818151815260200191508051906020019080838360005b83811015611471578181015183820152602001611459565b50505050905090810190601f16801561149e5780820380516001836020036101000a031916815260200191505b5060408051601f198184030181529181526020820180516001600160e01b0316630933c1ed60e01b178152905182519295509350839250908083835b602083106114f95780518252601f1990920191602091820191016114da565b6001836020036101000a038019825116818451168082178552505050505050905001915050600060405180830381855afa9150503d8060008114611559576040519150601f19603f3d011682016040523d82523d6000602084013e61155e565b606091505b50915091506000821415611573573d60208201fd5b80806020019051602081101561158857600080fd5b8101908080516040519392919084600160201b8211156115a757600080fd5b9083019060208201858111156115bc57600080fd5b8251600160201b8111828201881017156115d557600080fd5b82525081516020918201929091019080838360005b838110156116025781810151838201526020016115ea565b50505050905090810190601f16801561162f5780820380516001836020036101000a031916815260200191505b5060405250505092505050919050565b60006116496110f3565b509392505050565b6018546001600160a01b031681565b60145481565b600061132d6118e0565b600d546001600160a01b031681565b600080600080600061168f6118e0565b50945094509450945094565b600e60209081526000938452604080852082529284528284209052825290205481565b600560209081526000928352604080842090915290825290205460ff1681565b601b6020526000908152604090205460ff1681565b601a6020526000908152604090205460ff1681565b600c5461010090046001600160a01b031681565b6015546001600160a01b031681565b601954600160b01b900460ff1681565b60008060006117486118e0565b50955095509592505050565b60008060006117616118e0565b5096509650969350505050565b6017546001600160a01b031681565b600061132d6110f3565b60005460609061135b906001600160a01b031683611a00565b601954600160b81b900460ff1681565b600f60209081526000938452604080852082529284528284209052825290205481565b601954600160a81b900460ff1681565b60135481565b60006117f3611878565b5090565b60008060006118046118e0565b5093509350939050565b6002546001600160a01b031681565b600660209081526000938452604080852082529284528284209052825290208054600182015460028301546003909301549192909184565b601060209081526000938452604080852082529284528284209052825290205481565b6001546040516060916000916001600160a01b0390911690829036908083838082843760405192019450600093509091505080830381855af49150503d8060008114611158576040519150601f19603f3d011682016040523d82523d6000602084013e61115d565b60606000306001600160a01b03166000366040516024018080602001828103825284848281815260200192508082843760008382015260408051601f909201601f1990811690940182810390940182529283526020810180516001600160e01b031663a5f98dd960e01b17815292518151919750955085945091925081905083835b602083106119815780518252601f199092019160209182019101611962565b6001836020036101000a038019825116818451168082178552505050505050905001915050600060405180830381855afa9150503d80600081146119e1576040519150601f19603f3d011682016040523d82523d6000602084013e6119e6565b606091505b505090506040513d6000823e818015611174573d60408301f35b606060006060846001600160a01b0316846040518082805190602001908083835b60208310611a405780518252601f199092019160209182019101611a21565b6001836020036101000a038019825116818451168082178552505050505050905001915050600060405180830381855af49150503d8060008114611aa0576040519150601f19603f3d011682016040523d82523d6000602084013e611aa5565b606091505b50915091506000821415611aba573d60208201fd5b94935050505056fe43457263323044656c656761746f723a3a5f736574496d706c656d656e746174696f6e3a2043616c6c6572206d7573742062652061646d696ea265627a7a7231582015093beba2f6aedbbddc532999325da526ad371df791844ff957b275bb43632364736f6c63430005100032",
  "linkReferences": {},
  "deployedLinkReferences": {}
}