{
  "_format": "hh-sol-artifact-1",
  "contractName": "SwapExchangeRate",
  "sourceName": "contracts/flatten/Router.sol",
  "abi": [
    {
      "constant": true,
      "inputs": [
        {
          "internalType": "address",
          "name": "factory",
          "type": "address"
        },
        {
          "internalType": "address",
          "name": "ctokenFactory",
          "type": "address"
        },
        {
          "internalType": "uint256",
          "name": "amountOut",
          "type": "uint256"
        },
        {
          "internalType": "address[]",
          "name": "path",
          "type": "address[]"
        },
        {
          "internalType": "address",
          "name": "to",
          "type": "address"
        }
      ],
      "name": "getAmountsInUnderlying",
      "outputs": [
        {
          "internalType": "uint256[]",
          "name": "amounts",
          "type": "uint256[]"
        },
        {
          "internalType": "uint256",
          "name": "amountIn",
          "type": "uint256"
        }
      ],
      "payable": false,
      "stateMutability": "view",
      "type": "function"
    },
    {
      "constant": true,
      "inputs": [
        {
          "internalType": "address",
          "name": "factory",
          "type": "address"
        },
        {
          "internalType": "address",
          "name": "ctokenFactory",
          "type": "address"
        },
        {
          "internalType": "uint256",
          "name": "amountIn",
          "type": "uint256"
        },
        {
          "internalType": "address[]",
          "name": "path",
          "type": "address[]"
        },
        {
          "internalType": "address",
          "name": "to",
          "type": "address"
        }
      ],
      "name": "getAmountsOutUnderlying",
      "outputs": [
        {
          "internalType": "uint256[]",
          "name": "amounts",
          "type": "uint256[]"
        },
        {
          "internalType": "uint256",
          "name": "amountOut",
          "type": "uint256"
        }
      ],
      "payable": false,
      "stateMutability": "view",
      "type": "function"
    },
    {
      "constant": true,
      "inputs": [
        {
          "internalType": "address",
          "name": "_pair",
          "type": "address"
        },
        {
          "internalType": "uint256",
          "name": "liquidity",
          "type": "uint256"
        }
      ],
      "name": "getBurnETokenAmt",
      "outputs": [
        {
          "internalType": "uint256",
          "name": "amount0",
          "type": "uint256"
        },
        {
          "internalType": "uint256",
          "name": "amount1",
          "type": "uint256"
        }
      ],
      "payable": false,
      "stateMutability": "view",
      "type": "function"
    },
    {
      "constant": true,
      "inputs": [
        {
          "internalType": "address",
          "name": "_ctoken",
          "type": "address"
        }
      ],
      "name": "getCurrentExchangeRate",
      "outputs": [
        {
          "internalType": "uint256",
          "name": "",
          "type": "uint256"
        }
      ],
      "payable": false,
      "stateMutability": "view",
      "type": "function"
    },
    {
      "constant": true,
      "inputs": [
        {
          "internalType": "address",
          "name": "factory",
          "type": "address"
        },
        {
          "internalType": "address",
          "name": "ctokenFactory",
          "type": "address"
        },
        {
          "internalType": "address",
          "name": "token",
          "type": "address"
        }
      ],
      "name": "getETokenByToken",
      "outputs": [
        {
          "internalType": "address",
          "name": "ctoken",
          "type": "address"
        }
      ],
      "payable": false,
      "stateMutability": "view",
      "type": "function"
    },
    {
      "constant": true,
      "inputs": [
        {
          "internalType": "address",
          "name": "factory",
          "type": "address"
        },
        {
          "internalType": "address",
          "name": "ctokenFactory",
          "type": "address"
        },
        {
          "internalType": "uint256",
          "name": "amountA",
          "type": "uint256"
        },
        {
          "internalType": "address",
          "name": "tokenA",
          "type": "address"
        },
        {
          "internalType": "address",
          "name": "tokenB",
          "type": "address"
        }
      ],
      "name": "getLiquidityAmountUnderlying",
      "outputs": [
        {
          "internalType": "uint256",
          "name": "",
          "type": "uint256"
        }
      ],
      "payable": false,
      "stateMutability": "view",
      "type": "function"
    },
    {
      "constant": true,
      "inputs": [
        {
          "internalType": "address",
          "name": "factory",
          "type": "address"
        },
        {
          "internalType": "address",
          "name": "ctokenFactory",
          "type": "address"
        },
        {
          "internalType": "address[]",
          "name": "path",
          "type": "address[]"
        }
      ],
      "name": "path2cpath",
      "outputs": [
        {
          "internalType": "address[]",
          "name": "",
          "type": "address[]"
        }
      ],
      "payable": false,
      "stateMutability": "view",
      "type": "function"
    }
  ],
  "bytecode": "0x61136a610026600b82828239805160001a60731461001957fe5b30600052607381538281f3fe73000000000000000000000000000000000000000030146080604052600436106100875760003560e01c80638f56ed84116100655780638f56ed8414610311578063d848411f146103dd578063d9f9afb714610435578063f53e73b91461047a57610087565b80635c4410d31461008c57806376c46965146101b35780637c7fdbba146102bd575b600080fd5b610158600480360360a08110156100a257600080fd5b6001600160a01b03823581169260208101359091169160408201359190810190608081016060820135600160201b8111156100dc57600080fd5b8201836020820111156100ee57600080fd5b803590602001918460208302840111600160201b8311171561010f57600080fd5b919080806020026020016040519081016040528093929190818152602001838360200280828437600092019190915250929550505090356001600160a01b031691506104a09050565b6040518080602001838152602001828103825284818151815260200191508051906020019060200280838360005b8381101561019e578181015183820152602001610186565b50505050905001935050505060405180910390f35b61026d600480360360608110156101c957600080fd5b6001600160a01b038235811692602081013590911691810190606081016040820135600160201b8111156101fc57600080fd5b82018360208201111561020e57600080fd5b803590602001918460208302840111600160201b8311171561022f57600080fd5b9190808060200260200160405190810160405280939291908181526020018383602002808284376000920191909152509295506106ca945050505050565b60408051602080825283518183015283519192839290830191858101910280838360005b838110156102a9578181015183820152602001610291565b505050509050019250505060405180910390f35b6102f5600480360360608110156102d357600080fd5b506001600160a01b03813581169160208101358216916040909101351661075c565b604080516001600160a01b039092168252519081900360200190f35b610158600480360360a081101561032757600080fd5b6001600160a01b03823581169260208101359091169160408201359190810190608081016060820135600160201b81111561036157600080fd5b82018360208201111561037357600080fd5b803590602001918460208302840111600160201b8311171561039457600080fd5b919080806020026020016040519081016040528093929190818152602001838360200280828437600092019190915250929550505090356001600160a01b031691506107719050565b610423600480360360a08110156103f357600080fd5b506001600160a01b0381358116916020810135821691604082013591606081013582169160809091013516610959565b60408051918252519081900360200190f35b6104616004803603604081101561044b57600080fd5b506001600160a01b038135169060200135610a54565b6040805192835260208301919091528051918290030190f35b6104236004803603602081101561049057600080fd5b50356001600160a01b0316610cdc565b6060600060606104b18888876106ca565b905060006104d2826000815181106104c557fe5b6020026020010151610cdc565b905060006104fe826104f28a670de0b6b3a764000063ffffffff610e7716565b9063ffffffff610ed916565b9050896001600160a01b031663d2b364c68289896040518463ffffffff1660e01b81526004018084815260200180602001836001600160a01b03166001600160a01b03168152602001828103825284818151815260200191508051906020019060200280838360005b8381101561057f578181015183820152602001610567565b5050505090500194505050505060006040518083038186803b1580156105a457600080fd5b505afa1580156105b8573d6000803e3d6000fd5b505050506040513d6000823e601f3d908101601f1916820160405260208110156105e157600080fd5b8101908080516040519392919084600160201b82111561060057600080fd5b90830190602082018581111561061557600080fd5b82518660208202830111600160201b8211171561063157600080fd5b82525081516020918201928201910280838360005b8381101561065e578181015183820152602001610646565b5050505090500160405250505094506000610682846001865103815181106104c557fe5b90506106ba670de0b6b3a76400006104f2838960018b5103815181106106a457fe5b6020026020010151610e7790919063ffffffff16565b9450505050509550959350505050565b60608082516040519080825280602002602001820160405280156106f8578160200160208202803883390190505b50905060005b835181101561075157610725868686848151811061071857fe5b6020026020010151610f1b565b82828151811061073157fe5b6001600160a01b03909216602092830291909101909101526001016106fe565b5090505b9392505050565b6000610769848484610f1b565b949350505050565b6060600060606107828888876106ca565b90506000610799826001845103815181106104c557fe5b905060006107b9826104f28a670de0b6b3a764000063ffffffff610e7716565b9050896001600160a01b0316630c49bd138289896040518463ffffffff1660e01b81526004018084815260200180602001836001600160a01b03166001600160a01b03168152602001828103825284818151815260200191508051906020019060200280838360005b8381101561083a578181015183820152602001610822565b5050505090500194505050505060006040518083038186803b15801561085f57600080fd5b505afa158015610873573d6000803e3d6000fd5b505050506040513d6000823e601f3d908101601f19168201604052602081101561089c57600080fd5b8101908080516040519392919084600160201b8211156108bb57600080fd5b9083019060208201858111156108d057600080fd5b82518660208202830111600160201b821117156108ec57600080fd5b82525081516020918201928201910280838360005b83811015610919578181015183820152602001610901565b505050509050016040525050509450600061093a846000815181106104c557fe5b90506106ba670de0b6b3a76400006104f283896000815181106106a457fe5b6040805163354aedbd60e21b81526001600160a01b03848116600483015283811660248301528251600093849384938b169263d52bb6f492604480840193919291829003018186803b1580156109ae57600080fd5b505afa1580156109c2573d6000803e3d6000fd5b505050506040513d60408110156109d857600080fd5b5080516020909101519092509050600080806109f58b8b8a610f1b565b90506000610a048c8c8b610f1b565b9050610a0f82610cdc565b9350610a1a81610cdc565b9250610a4691508590506104f2848185610a3a8e8a63ffffffff610e7716565b9063ffffffff610e7716565b9a9950505050505050505050565b60008060008490506000816001600160a01b031663948023ab6040518163ffffffff1660e01b815260040160206040518083038186803b158015610a9757600080fd5b505afa158015610aab573d6000803e3d6000fd5b505050506040513d6020811015610ac157600080fd5b505160408051636c9cfd4560e11b815290519192506000916001600160a01b0385169163d939fa8a916004808301926020929190829003018186803b158015610b0957600080fd5b505afa158015610b1d573d6000803e3d6000fd5b505050506040513d6020811015610b3357600080fd5b5051604080516370a0823160e01b815230600482015290519192506000916001600160a01b038516916370a08231916024808301926020929190829003018186803b158015610b8157600080fd5b505afa158015610b95573d6000803e3d6000fd5b505050506040513d6020811015610bab57600080fd5b5051604080516370a0823160e01b815230600482015290519192506000916001600160a01b038516916370a08231916024808301926020929190829003018186803b158015610bf957600080fd5b505afa158015610c0d573d6000803e3d6000fd5b505050506040513d6020811015610c2357600080fd5b5051604080516318160ddd60e01b815290519192506000916001600160a01b038816916318160ddd916004808301926020929190829003018186803b158015610c6b57600080fd5b505afa158015610c7f573d6000803e3d6000fd5b505050506040513d6020811015610c9557600080fd5b5051905080610caa8a8563ffffffff610e7716565b81610cb157fe5b04975080610cc58a8463ffffffff610e7716565b81610ccc57fe5b0496505050505050509250929050565b6000808290506000816001600160a01b031663182df0f56040518163ffffffff1660e01b815260040160206040518083038186803b158015610d1d57600080fd5b505afa158015610d31573d6000803e3d6000fd5b505050506040513d6020811015610d4757600080fd5b505160408051630ae9d70b60e41b815290519192506000916001600160a01b0385169163ae9d70b0916004808301926020929190829003018186803b158015610d8f57600080fd5b505afa158015610da3573d6000803e3d6000fd5b505050506040513d6020811015610db957600080fd5b505160408051636c540baf60e01b815290519192506000916001600160a01b03861691636c540baf916004808301926020929190829003018186803b158015610e0157600080fd5b505afa158015610e15573d6000803e3d6000fd5b505050506040513d6020811015610e2b57600080fd5b505190506000610e41438363ffffffff61117c16565b90506000610e5982610a3a878763ffffffff610e7716565b9050610e6b858263ffffffff6111be16565b98975050505050505050565b600082610e8657506000610ed3565b82820282848281610e9357fe5b0414610ed05760405162461bcd60e51b81526004018080602001828103825260218152602001806113156021913960400191505060405180910390fd5b90505b92915050565b6000610ed083836040518060400160405280601a81526020017f536166654d6174683a206469766973696f6e206279207a65726f000000000000815250611218565b600080846001600160a01b031663f887ea406040518163ffffffff1660e01b815260040160206040518083038186803b158015610f5757600080fd5b505afa158015610f6b573d6000803e3d6000fd5b505050506040513d6020811015610f8157600080fd5b505160408051632e5a42c960e11b815290519192506000916001600160a01b03841691635cb48592916004808301926020929190829003018186803b158015610fc957600080fd5b505afa158015610fdd573d6000803e3d6000fd5b505050506040513d6020811015610ff357600080fd5b5051604080516315c4081f60e21b815290519192506000916001600160a01b03851691635710207c916004808301926020929190829003018186803b15801561103b57600080fd5b505afa15801561104f573d6000803e3d6000fd5b505050506040513d602081101561106557600080fd5b505190506001600160a01b03851615806110905750816001600160a01b0316856001600160a01b0316145b1561109f579250610755915050565b856001600160a01b031663e297943e866040518263ffffffff1660e01b815260040180826001600160a01b03166001600160a01b0316815260200191505060206040518083038186803b1580156110f557600080fd5b505afa158015611109573d6000803e3d6000fd5b505050506040513d602081101561111f57600080fd5b505193506001600160a01b038416611172576040805162461bcd60e51b815260206004820152601160248201527019d95d08195d1bdad95b8819985a5b1959607a1b604482015290519081900360640190fd5b5050509392505050565b6000610ed083836040518060400160405280601e81526020017f536166654d6174683a207375627472616374696f6e206f766572666c6f7700008152506112ba565b600082820183811015610ed0576040805162461bcd60e51b815260206004820152601b60248201527f536166654d6174683a206164646974696f6e206f766572666c6f770000000000604482015290519081900360640190fd5b600081836112a45760405162461bcd60e51b81526004018080602001828103825283818151815260200191508051906020019080838360005b83811015611269578181015183820152602001611251565b50505050905090810190601f1680156112965780820380516001836020036101000a031916815260200191505b509250505060405180910390fd5b5060008385816112b057fe5b0495945050505050565b6000818484111561130c5760405162461bcd60e51b8152602060048201818152835160248401528351909283926044909101919085019080838360008315611269578181015183820152602001611251565b50505090039056fe536166654d6174683a206d756c7469706c69636174696f6e206f766572666c6f77a265627a7a72315820bac73b1b63c986383c44b3a8b02e484189453c596e8fc1107d4d08ed3828cc9f64736f6c63430005100032",
  "linkReferences": {},
  "deployedLinkReferences": {}
}