{
  "_format": "hh-sol-artifact-1",
  "contractName": "MdxToken",
  "sourceName": "contracts/swap/heco/MdxTokenHeco.sol",
  "abi": [
    {
      "inputs": [],
      "payable": false,
      "stateMutability": "nonpayable",
      "type": "constructor"
    },
    {
      "anonymous": false,
      "inputs": [
        {
          "indexed": true,
          "internalType": "address",
          "name": "owner",
          "type": "address"
        },
        {
          "indexed": true,
          "internalType": "address",
          "name": "spender",
          "type": "address"
        },
        {
          "indexed": false,
          "internalType": "uint256",
          "name": "value",
          "type": "uint256"
        }
      ],
      "name": "Approval",
      "type": "event"
    },
    {
      "anonymous": false,
      "inputs": [
        {
          "indexed": true,
          "internalType": "address",
          "name": "delegator",
          "type": "address"
        },
        {
          "indexed": true,
          "internalType": "address",
          "name": "fromDelegate",
          "type": "address"
        },
        {
          "indexed": true,
          "internalType": "address",
          "name": "toDelegate",
          "type": "address"
        }
      ],
      "name": "DelegateChanged",
      "type": "event"
    },
    {
      "anonymous": false,
      "inputs": [
        {
          "indexed": true,
          "internalType": "address",
          "name": "delegate",
          "type": "address"
        },
        {
          "indexed": false,
          "internalType": "uint256",
          "name": "previousBalance",
          "type": "uint256"
        },
        {
          "indexed": false,
          "internalType": "uint256",
          "name": "newBalance",
          "type": "uint256"
        }
      ],
      "name": "DelegateVotesChanged",
      "type": "event"
    },
    {
      "anonymous": false,
      "inputs": [
        {
          "indexed": true,
          "internalType": "address",
          "name": "previousOwner",
          "type": "address"
        },
        {
          "indexed": true,
          "internalType": "address",
          "name": "newOwner",
          "type": "address"
        }
      ],
      "name": "OwnershipTransferred",
      "type": "event"
    },
    {
      "anonymous": false,
      "inputs": [
        {
          "indexed": true,
          "internalType": "address",
          "name": "from",
          "type": "address"
        },
        {
          "indexed": true,
          "internalType": "address",
          "name": "to",
          "type": "address"
        },
        {
          "indexed": false,
          "internalType": "uint256",
          "name": "value",
          "type": "uint256"
        }
      ],
      "name": "Transfer",
      "type": "event"
    },
    {
      "constant": true,
      "inputs": [],
      "name": "DELEGATION_TYPEHASH",
      "outputs": [
        {
          "internalType": "bytes32",
          "name": "",
          "type": "bytes32"
        }
      ],
      "payable": false,
      "stateMutability": "view",
      "type": "function"
    },
    {
      "constant": true,
      "inputs": [],
      "name": "DOMAIN_TYPEHASH",
      "outputs": [
        {
          "internalType": "bytes32",
          "name": "",
          "type": "bytes32"
        }
      ],
      "payable": false,
      "stateMutability": "view",
      "type": "function"
    },
    {
      "constant": false,
      "inputs": [
        {
          "internalType": "address",
          "name": "_addMinter",
          "type": "address"
        }
      ],
      "name": "addMinter",
      "outputs": [
        {
          "internalType": "bool",
          "name": "",
          "type": "bool"
        }
      ],
      "payable": false,
      "stateMutability": "nonpayable",
      "type": "function"
    },
    {
      "constant": true,
      "inputs": [
        {
          "internalType": "address",
          "name": "owner",
          "type": "address"
        },
        {
          "internalType": "address",
          "name": "spender",
          "type": "address"
        }
      ],
      "name": "allowance",
      "outputs": [
        {
          "internalType": "uint256",
          "name": "",
          "type": "uint256"
        }
      ],
      "payable": false,
      "stateMutability": "view",
      "type": "function"
    },
    {
      "constant": false,
      "inputs": [
        {
          "internalType": "address",
          "name": "spender",
          "type": "address"
        },
        {
          "internalType": "uint256",
          "name": "amount",
          "type": "uint256"
        }
      ],
      "name": "approve",
      "outputs": [
        {
          "internalType": "bool",
          "name": "",
          "type": "bool"
        }
      ],
      "payable": false,
      "stateMutability": "nonpayable",
      "type": "function"
    },
    {
      "constant": true,
      "inputs": [
        {
          "internalType": "address",
          "name": "account",
          "type": "address"
        }
      ],
      "name": "balanceOf",
      "outputs": [
        {
          "internalType": "uint256",
          "name": "",
          "type": "uint256"
        }
      ],
      "payable": false,
      "stateMutability": "view",
      "type": "function"
    },
    {
      "constant": true,
      "inputs": [
        {
          "internalType": "address",
          "name": "",
          "type": "address"
        },
        {
          "internalType": "uint32",
          "name": "",
          "type": "uint32"
        }
      ],
      "name": "checkpoints",
      "outputs": [
        {
          "internalType": "uint32",
          "name": "fromBlock",
          "type": "uint32"
        },
        {
          "internalType": "uint256",
          "name": "votes",
          "type": "uint256"
        }
      ],
      "payable": false,
      "stateMutability": "view",
      "type": "function"
    },
    {
      "constant": true,
      "inputs": [],
      "name": "decimals",
      "outputs": [
        {
          "internalType": "uint8",
          "name": "",
          "type": "uint8"
        }
      ],
      "payable": false,
      "stateMutability": "view",
      "type": "function"
    },
    {
      "constant": false,
      "inputs": [
        {
          "internalType": "address",
          "name": "spender",
          "type": "address"
        },
        {
          "internalType": "uint256",
          "name": "subtractedValue",
          "type": "uint256"
        }
      ],
      "name": "decreaseAllowance",
      "outputs": [
        {
          "internalType": "bool",
          "name": "",
          "type": "bool"
        }
      ],
      "payable": false,
      "stateMutability": "nonpayable",
      "type": "function"
    },
    {
      "constant": false,
      "inputs": [
        {
          "internalType": "address",
          "name": "_delMinter",
          "type": "address"
        }
      ],
      "name": "delMinter",
      "outputs": [
        {
          "internalType": "bool",
          "name": "",
          "type": "bool"
        }
      ],
      "payable": false,
      "stateMutability": "nonpayable",
      "type": "function"
    },
    {
      "constant": false,
      "inputs": [
        {
          "internalType": "address",
          "name": "delegatee",
          "type": "address"
        }
      ],
      "name": "delegate",
      "outputs": [],
      "payable": false,
      "stateMutability": "nonpayable",
      "type": "function"
    },
    {
      "constant": false,
      "inputs": [
        {
          "internalType": "address",
          "name": "delegatee",
          "type": "address"
        },
        {
          "internalType": "uint256",
          "name": "nonce",
          "type": "uint256"
        },
        {
          "internalType": "uint256",
          "name": "expiry",
          "type": "uint256"
        },
        {
          "internalType": "uint8",
          "name": "v",
          "type": "uint8"
        },
        {
          "internalType": "bytes32",
          "name": "r",
          "type": "bytes32"
        },
        {
          "internalType": "bytes32",
          "name": "s",
          "type": "bytes32"
        }
      ],
      "name": "delegateBySig",
      "outputs": [],
      "payable": false,
      "stateMutability": "nonpayable",
      "type": "function"
    },
    {
      "constant": true,
      "inputs": [
        {
          "internalType": "address",
          "name": "account",
          "type": "address"
        }
      ],
      "name": "getCurrentVotes",
      "outputs": [
        {
          "internalType": "uint256",
          "name": "",
          "type": "uint256"
        }
      ],
      "payable": false,
      "stateMutability": "view",
      "type": "function"
    },
    {
      "constant": true,
      "inputs": [
        {
          "internalType": "uint256",
          "name": "_index",
          "type": "uint256"
        }
      ],
      "name": "getMinter",
      "outputs": [
        {
          "internalType": "address",
          "name": "",
          "type": "address"
        }
      ],
      "payable": false,
      "stateMutability": "view",
      "type": "function"
    },
    {
      "constant": true,
      "inputs": [],
      "name": "getMinterLength",
      "outputs": [
        {
          "internalType": "uint256",
          "name": "",
          "type": "uint256"
        }
      ],
      "payable": false,
      "stateMutability": "view",
      "type": "function"
    },
    {
      "constant": true,
      "inputs": [
        {
          "internalType": "address",
          "name": "account",
          "type": "address"
        },
        {
          "internalType": "uint256",
          "name": "blockNumber",
          "type": "uint256"
        }
      ],
      "name": "getPriorVotes",
      "outputs": [
        {
          "internalType": "uint256",
          "name": "",
          "type": "uint256"
        }
      ],
      "payable": false,
      "stateMutability": "view",
      "type": "function"
    },
    {
      "constant": false,
      "inputs": [
        {
          "internalType": "address",
          "name": "spender",
          "type": "address"
        },
        {
          "internalType": "uint256",
          "name": "addedValue",
          "type": "uint256"
        }
      ],
      "name": "increaseAllowance",
      "outputs": [
        {
          "internalType": "bool",
          "name": "",
          "type": "bool"
        }
      ],
      "payable": false,
      "stateMutability": "nonpayable",
      "type": "function"
    },
    {
      "constant": true,
      "inputs": [
        {
          "internalType": "address",
          "name": "account",
          "type": "address"
        }
      ],
      "name": "isMinter",
      "outputs": [
        {
          "internalType": "bool",
          "name": "",
          "type": "bool"
        }
      ],
      "payable": false,
      "stateMutability": "view",
      "type": "function"
    },
    {
      "constant": true,
      "inputs": [],
      "name": "isOwner",
      "outputs": [
        {
          "internalType": "bool",
          "name": "",
          "type": "bool"
        }
      ],
      "payable": false,
      "stateMutability": "view",
      "type": "function"
    },
    {
      "constant": false,
      "inputs": [
        {
          "internalType": "address",
          "name": "_to",
          "type": "address"
        },
        {
          "internalType": "uint256",
          "name": "_amount",
          "type": "uint256"
        }
      ],
      "name": "mint",
      "outputs": [
        {
          "internalType": "bool",
          "name": "",
          "type": "bool"
        }
      ],
      "payable": false,
      "stateMutability": "nonpayable",
      "type": "function"
    },
    {
      "constant": true,
      "inputs": [],
      "name": "name",
      "outputs": [
        {
          "internalType": "string",
          "name": "",
          "type": "string"
        }
      ],
      "payable": false,
      "stateMutability": "view",
      "type": "function"
    },
    {
      "constant": true,
      "inputs": [
        {
          "internalType": "address",
          "name": "",
          "type": "address"
        }
      ],
      "name": "nonces",
      "outputs": [
        {
          "internalType": "uint256",
          "name": "",
          "type": "uint256"
        }
      ],
      "payable": false,
      "stateMutability": "view",
      "type": "function"
    },
    {
      "constant": true,
      "inputs": [
        {
          "internalType": "address",
          "name": "",
          "type": "address"
        }
      ],
      "name": "numCheckpoints",
      "outputs": [
        {
          "internalType": "uint32",
          "name": "",
          "type": "uint32"
        }
      ],
      "payable": false,
      "stateMutability": "view",
      "type": "function"
    },
    {
      "constant": true,
      "inputs": [],
      "name": "owner",
      "outputs": [
        {
          "internalType": "address",
          "name": "",
          "type": "address"
        }
      ],
      "payable": false,
      "stateMutability": "view",
      "type": "function"
    },
    {
      "constant": false,
      "inputs": [],
      "name": "renounceOwnership",
      "outputs": [],
      "payable": false,
      "stateMutability": "nonpayable",
      "type": "function"
    },
    {
      "constant": true,
      "inputs": [],
      "name": "symbol",
      "outputs": [
        {
          "internalType": "string",
          "name": "",
          "type": "string"
        }
      ],
      "payable": false,
      "stateMutability": "view",
      "type": "function"
    },
    {
      "constant": true,
      "inputs": [],
      "name": "totalSupply",
      "outputs": [
        {
          "internalType": "uint256",
          "name": "",
          "type": "uint256"
        }
      ],
      "payable": false,
      "stateMutability": "view",
      "type": "function"
    },
    {
      "constant": false,
      "inputs": [
        {
          "internalType": "address",
          "name": "recipient",
          "type": "address"
        },
        {
          "internalType": "uint256",
          "name": "amount",
          "type": "uint256"
        }
      ],
      "name": "transfer",
      "outputs": [
        {
          "internalType": "bool",
          "name": "",
          "type": "bool"
        }
      ],
      "payable": false,
      "stateMutability": "nonpayable",
      "type": "function"
    },
    {
      "constant": false,
      "inputs": [
        {
          "internalType": "address",
          "name": "sender",
          "type": "address"
        },
        {
          "internalType": "address",
          "name": "recipient",
          "type": "address"
        },
        {
          "internalType": "uint256",
          "name": "amount",
          "type": "uint256"
        }
      ],
      "name": "transferFrom",
      "outputs": [
        {
          "internalType": "bool",
          "name": "",
          "type": "bool"
        }
      ],
      "payable": false,
      "stateMutability": "nonpayable",
      "type": "function"
    },
    {
      "constant": false,
      "inputs": [
        {
          "internalType": "address",
          "name": "newOwner",
          "type": "address"
        }
      ],
      "name": "transferOwnership",
      "outputs": [],
      "payable": false,
      "stateMutability": "nonpayable",
      "type": "function"
    }
  ],
  "bytecode": "0x60806040523480156200001157600080fd5b506040518060400160405280600981526020016826a22c102a37b5b2b760b91b8152506040518060400160405280600381526020016209a88b60eb1b81525081600390805190602001906200006892919062000638565b5080516200007e90600490602084019062000638565b50506005805460ff19166012179055506000620000a36001600160e01b036200011716565b600b80546001600160a01b0319166001600160a01b038316908117909155604051919250906000907f8be0079c531659141344cd1fd0a4f28419497f9722a3daafe3b4186f6b6457e0908290a35062000111336aa56fa5b99019a5c80000006001600160e01b036200011c16565b62000851565b335b90565b6200013382826200016760201b620014ab1760201c565b6001600160a01b03808316600090815260066020526040812054620001639216836001600160e01b036200025c16565b5050565b6001600160a01b038216620001995760405162461bcd60e51b81526004016200019090620007c6565b60405180910390fd5b620001b0600083836001600160e01b03620003db16565b620001cc81600254620003e060201b6200100e1790919060201c565b6002556001600160a01b03821660009081526020818152604090912054620001ff9183906200100e620003e0821b17901c565b6001600160a01b0383166000818152602081905260408082209390935591519091907fddf252ad1be2c89b69c2b068fc378daa952ba7f163c4a11628f55a4df523b3ef9062000250908590620007d8565b60405180910390a35050565b816001600160a01b0316836001600160a01b0316141580156200027f5750600081115b15620003db576001600160a01b0383161562000330576001600160a01b03831660009081526009602052604081205463ffffffff169081620002c3576000620002f5565b6001600160a01b038516600090815260086020908152604080832063ffffffff60001987011684529091529020600101545b905060006200031384836200041160201b620015771790919060201c565b90506200032c868484846001600160e01b036200045b16565b5050505b6001600160a01b03821615620003db576001600160a01b03821660009081526009602052604081205463ffffffff1690816200036e576000620003a0565b6001600160a01b038416600090815260086020908152604080832063ffffffff60001987011684529091529020600101545b90506000620003be8483620003e060201b6200100e1790919060201c565b9050620003d7858484846001600160e01b036200045b16565b5050505b505050565b600082820183811015620004085760405162461bcd60e51b81526004016200019090620007b4565b90505b92915050565b60006200040883836040518060400160405280601e81526020017f536166654d6174683a207375627472616374696f6e206f766572666c6f770000815250620005d160201b60201c565b60006200048b4360405180606001604052806038815260200162002b30603891396001600160e01b036200060516565b905060008463ffffffff16118015620004d557506001600160a01b038516600090815260086020908152604080832063ffffffff6000198901811685529252909120548282169116145b1562000514576001600160a01b038516600090815260086020908152604080832063ffffffff6000198901168452909152902060010182905562000585565b60408051808201825263ffffffff808416825260208083018681526001600160a01b038a166000818152600884528681208b8616825284528681209551865490861663ffffffff19918216178755925160019687015590815260099092529390208054928801909116919092161790555b846001600160a01b03167fdec2bacdd2f05b59de34da9b523dff8be42e5e38e818c82fdb0bae774387a7248484604051620005c2929190620007e8565b60405180910390a25050505050565b60008184841115620005f85760405162461bcd60e51b8152600401620001909190620007a1565b50508183035b9392505050565b6000816401000000008410620006305760405162461bcd60e51b8152600401620001909190620007a1565b509192915050565b828054600181600116156101000203166002900490600052602060002090601f016020900481019282601f106200067b57805160ff1916838001178555620006ab565b82800160010185558215620006ab579182015b82811115620006ab5782518255916020019190600101906200068e565b50620006b9929150620006bd565b5090565b6200011991905b80821115620006b95760008155600101620006c4565b6000620006e78262000807565b620006f381856200080b565b93506200070581856020860162000814565b620007108162000847565b9093019392505050565b600062000729601b836200080b565b7f536166654d6174683a206164646974696f6e206f766572666c6f770000000000815260200192915050565b600062000764601f836200080b565b7f45524332303a206d696e7420746f20746865207a65726f206164647265737300815260200192915050565b6200079b8162000119565b82525050565b60208082528101620004088184620006da565b602080825281016200040b816200071a565b602080825281016200040b8162000755565b602081016200040b828462000790565b60408101620007f8828562000790565b620005fe602083018462000790565b5190565b90815260200190565b60005b838110156200083157818101518382015260200162000817565b8381111562000841576000848401525b50505050565b601f01601f191690565b6122cf80620008616000396000f3fe608060405234801561001057600080fd5b50600436106101da5760003560e01c8063782d6fe111610104578063a9059cbb116100a2578063dd62ed3e11610071578063dd62ed3e146103c3578063e7a324dc146103d6578063f1127ed8146103de578063f2fde38b146103ff576101da565b8063a9059cbb14610377578063aa271e1a1461038a578063b4b5ea571461039d578063c3cda520146103b0576101da565b80638f32d59b116100de5780638f32d59b1461034157806395d89b4114610349578063983b2d5614610351578063a457c2d714610364576101da565b8063782d6fe1146103135780637ecebe00146103265780638da5cb5b14610339576101da565b8063313ce5671161017c5780635c19a95c1161014b5780635c19a95c146102c35780636fcfff45146102d857806370a08231146102f8578063715018a61461030b576101da565b8063313ce56714610268578063395093511461027d57806340c10f19146102905780635b7121f8146102a3576101da565b806318160ddd116101b857806318160ddd1461023257806320606b701461023a57806323338b881461024257806323b872dd14610255576101da565b80630323aac7146101df57806306fdde03146101fd578063095ea7b314610212575b600080fd5b6101e7610412565b6040516101f49190611f46565b60405180910390f35b610205610423565b6040516101f49190611fe2565b61022561022036600461183e565b6104b9565b6040516101f49190611f38565b6101e76104d7565b6101e76104dd565b610225610250366004611791565b6104f4565b6102256102633660046117f1565b610554565b6102706105e2565b6040516101f4919061212a565b61022561028b36600461183e565b6105eb565b61022561029e36600461183e565b61063f565b6102b66102b1366004611925565b6106a3565b6040516101f49190611f2a565b6102d66102d1366004611791565b6106fe565b005b6102eb6102e6366004611791565b61070b565b6040516101f4919061210e565b6101e7610306366004611791565b610723565b6102d661073e565b6101e761032136600461183e565b6107ac565b6101e7610334366004611791565b610995565b6102b66109a7565b6102256109b6565b6102056109dc565b61022561035f366004611791565b610a3d565b61022561037236600461183e565b610a94565b61022561038536600461183e565b610b02565b610225610398366004611791565b610b16565b6101e76103ab366004611791565b610b23565b6102d66103be36600461186e565b610b86565b6101e76103d13660046117b7565b610d3d565b6101e7610d68565b6103f16103ec3660046118f5565b610d74565b6040516101f492919061211c565b6102d661040d366004611791565b610da1565b600061041e600c610dce565b905090565b60038054604080516020601f60026000196101006001881615020190951694909404938401819004810282018101909252828152606093909290918301828280156104af5780601f10610484576101008083540402835291602001916104af565b820191906000526020600020905b81548152906001019060200180831161049257829003601f168201915b5050505050905090565b60006104cd6104c6610dd5565b8484610dd9565b5060015b92915050565b60025490565b6040516104e990611f14565b604051809103902081565b60006104fe6109b6565b6105235760405162461bcd60e51b815260040161051a906120a3565b60405180910390fd5b6001600160a01b0382166105495760405162461bcd60e51b815260040161051a906120c3565b6104d1600c83610e8d565b6000610561848484610fa0565b6105d78461056d610dd5565b6105d285604051806060016040528060288152602001612240602891396001600160a01b038a166000908152600160205260408120906105ab610dd5565b6001600160a01b03168152602081019190915260400160002054919063ffffffff610fe216565b610dd9565b5060015b9392505050565b60055460ff1690565b60006104cd6105f8610dd5565b846105d28560016000610609610dd5565b6001600160a01b03908116825260208083019390935260409182016000908120918c16815292529020549063ffffffff61100e16565b600061064a33610b16565b6106665760405162461bcd60e51b815260040161051a90612083565b6b033b2e3c9fd0803ce800000061068b61067e6104d7565b849063ffffffff61100e16565b1115610699575060006104d1565b6104cd8383611033565b60006106ad6109b6565b6106c95760405162461bcd60e51b815260040161051a906120a3565b60016106d3610412565b038211156106f35760405162461bcd60e51b815260040161051a90612093565b6104d1600c83611066565b6107083382611093565b50565b60096020526000908152604090205463ffffffff1681565b6001600160a01b031660009081526020819052604090205490565b6107466109b6565b6107625760405162461bcd60e51b815260040161051a906120a3565b600b546040516000916001600160a01b0316907f8be0079c531659141344cd1fd0a4f28419497f9722a3daafe3b4186f6b6457e0908390a3600b80546001600160a01b0319169055565b60004382106107cd5760405162461bcd60e51b815260040161051a90612043565b6001600160a01b03831660009081526009602052604090205463ffffffff16806107fb5760009150506104d1565b6001600160a01b038416600090815260086020908152604080832063ffffffff60001986018116855292529091205416831061086a576001600160a01b03841660009081526008602090815260408083206000199490940163ffffffff168352929052206001015490506104d1565b6001600160a01b038416600090815260086020908152604080832083805290915290205463ffffffff168310156108a55760009150506104d1565b600060001982015b8163ffffffff168163ffffffff16111561095e57600282820363ffffffff160481036108d761174e565b506001600160a01b038716600090815260086020908152604080832063ffffffff808616855290835292819020815180830190925280549093168082526001909301549181019190915290871415610939576020015194506104d19350505050565b805163ffffffff1687111561095057819350610957565b6001820392505b50506108ad565b506001600160a01b038516600090815260086020908152604080832063ffffffff9094168352929052206001015491505092915050565b600a6020526000908152604090205481565b600b546001600160a01b031690565b600b546000906001600160a01b03166109cd610dd5565b6001600160a01b031614905090565b60048054604080516020601f60026000196101006001881615020190951694909404938401819004810282018101909252828152606093909290918301828280156104af5780601f10610484576101008083540402835291602001916104af565b6000610a476109b6565b610a635760405162461bcd60e51b815260040161051a906120a3565b6001600160a01b038216610a895760405162461bcd60e51b815260040161051a90612013565b6104d1600c83611145565b60006104cd610aa1610dd5565b846105d2856040518060600160405280602581526020016122686025913960016000610acb610dd5565b6001600160a01b03908116825260208083019390935260409182016000908120918d1681529252902054919063ffffffff610fe216565b60006104cd610b0f610dd5565b8484610fa0565b60006104d1600c8361119d565b6001600160a01b03811660009081526009602052604081205463ffffffff1680610b4e5760006105db565b6001600160a01b038316600090815260086020908152604080832063ffffffff60001986011684529091529020600101549392505050565b6000604051610b9490611f14565b6040518091039020610ba4610423565b80519060200120610bb36111bb565b30604051602001610bc79493929190611f92565b6040516020818303038152906040528051906020012090506000604051610bed90611f1f565b604051908190038120610c08918a908a908a90602001611f54565b60405160208183030381529060405280519060200120905060008282604051602001610c35929190611ee3565b604051602081830303815290604052805190602001209050600060018288888860405160008152602001604052604051610c729493929190611fc7565b6020604051602081039080840390855afa158015610c94573d6000803e3d6000fd5b5050604051601f1901519150506001600160a01b038116610cc75760405162461bcd60e51b815260040161051a90612063565b6001600160a01b0381166000908152600a602052604090208054600181019091558914610d065760405162461bcd60e51b815260040161051a90612073565b87421115610d265760405162461bcd60e51b815260040161051a90612003565b610d30818b611093565b505050505b505050505050565b6001600160a01b03918216600090815260016020908152604080832093909416825291909152205490565b6040516104e990611f1f565b60086020908152600092835260408084209091529082529020805460019091015463ffffffff9091169082565b610da96109b6565b610dc55760405162461bcd60e51b815260040161051a906120a3565b610708816111bf565b6001015490565b3390565b6001600160a01b038316610dff5760405162461bcd60e51b815260040161051a906120d3565b6001600160a01b038216610e255760405162461bcd60e51b815260040161051a90612033565b6001600160a01b0380841660008181526001602090815260408083209487168084529490915290819020849055517f8c5be1e5ebec7d5bd14f71427d1e84f3dd0314c0f7b2291e5b200ac8c7c3b92590610e80908590611f46565b60405180910390a3505050565b6000610e99838361119d565b15610f98576001600160a01b03821660009081526020849052604090205460018401546000199182019101808214610f44576000856001018281548110610edc57fe5b6000918252602090912001546001870180546001600160a01b039092169250829185908110610f0757fe5b600091825260208083209190910180546001600160a01b0319166001600160a01b0394851617905592909116815290869052604090206001830190555b6001600160a01b03841660009081526020869052604081205560018501805480610f6a57fe5b600082815260209020810160001990810180546001600160a01b031916905501905550600191506104d19050565b5060006104d1565b610fab838383611241565b6001600160a01b03808416600090815260066020526040808220548584168352912054610fdd92918216911683611362565b505050565b600081848411156110065760405162461bcd60e51b815260040161051a9190611fe2565b505050900390565b6000828201838110156105db5760405162461bcd60e51b815260040161051a90612053565b61103d82826114ab565b6001600160a01b03808316600090815260066020526040812054611062921683611362565b5050565b600082600101828154811061107757fe5b6000918252602090912001546001600160a01b03169392505050565b6001600160a01b03808316600090815260066020526040812054909116906110ba84610723565b6001600160a01b03858116600090815260066020526040902080546001600160a01b03191691861691909117905590506110f5828483611362565b826001600160a01b0316826001600160a01b0316856001600160a01b03167f3134e8a2e6d97e929a7e54011ea5485d7d196dd5f0ba4d4ef95803e8e3fc257f60405160405180910390a450505050565b6000611151838361119d565b610f985750600182810180548083018083556000928352602080842090920180546001600160a01b0319166001600160a01b0387169081179091558352908590526040909120556104d1565b6001600160a01b031660009081526020919091526040902054151590565b4690565b6001600160a01b0381166111e55760405162461bcd60e51b815260040161051a90612023565b600b546040516001600160a01b038084169216907f8be0079c531659141344cd1fd0a4f28419497f9722a3daafe3b4186f6b6457e090600090a3600b80546001600160a01b0319166001600160a01b0392909216919091179055565b6001600160a01b0383166112675760405162461bcd60e51b815260040161051a906120b3565b6001600160a01b03821661128d5760405162461bcd60e51b815260040161051a90611ff3565b611298838383610fdd565b6112db8160405180606001604052806026815260200161221a602691396001600160a01b038616600090815260208190526040902054919063ffffffff610fe216565b6001600160a01b038085166000908152602081905260408082209390935590841681522054611310908263ffffffff61100e16565b6001600160a01b0380841660008181526020819052604090819020939093559151908516907fddf252ad1be2c89b69c2b068fc378daa952ba7f163c4a11628f55a4df523b3ef90610e80908590611f46565b816001600160a01b0316836001600160a01b0316141580156113845750600081115b15610fdd576001600160a01b0383161561141c576001600160a01b03831660009081526009602052604081205463ffffffff1690816113c45760006113f6565b6001600160a01b038516600090815260086020908152604080832063ffffffff60001987011684529091529020600101545b9050600061140a828563ffffffff61157716565b9050611418868484846115b9565b5050505b6001600160a01b03821615610fdd576001600160a01b03821660009081526009602052604081205463ffffffff169081611457576000611489565b6001600160a01b038416600090815260086020908152604080832063ffffffff60001987011684529091529020600101545b9050600061149d828563ffffffff61100e16565b9050610d35858484846115b9565b6001600160a01b0382166114d15760405162461bcd60e51b815260040161051a906120e3565b6114dd60008383610fdd565b6002546114f0908263ffffffff61100e16565b6002556001600160a01b03821660009081526020819052604090205461151c908263ffffffff61100e16565b6001600160a01b0383166000818152602081905260408082209390935591519091907fddf252ad1be2c89b69c2b068fc378daa952ba7f163c4a11628f55a4df523b3ef9061156b908590611f46565b60405180910390a35050565b60006105db83836040518060400160405280601e81526020017f536166654d6174683a207375627472616374696f6e206f766572666c6f770000815250610fe2565b60006115dd436040518060600160405280603881526020016121e26038913961171e565b905060008463ffffffff1611801561162657506001600160a01b038516600090815260086020908152604080832063ffffffff6000198901811685529252909120548282169116145b15611663576001600160a01b038516600090815260086020908152604080832063ffffffff600019890116845290915290206001018290556116d4565b60408051808201825263ffffffff808416825260208083018681526001600160a01b038a166000818152600884528681208b8616825284528681209551865490861663ffffffff19918216178755925160019687015590815260099092529390208054928801909116919092161790555b846001600160a01b03167fdec2bacdd2f05b59de34da9b523dff8be42e5e38e818c82fdb0bae774387a724848460405161170f9291906120f3565b60405180910390a25050505050565b60008164010000000084106117465760405162461bcd60e51b815260040161051a9190611fe2565b509192915050565b604080518082019091526000808252602082015290565b80356104d1816121b2565b80356104d1816121c6565b80356104d1816121cf565b80356104d1816121d8565b6000602082840312156117a357600080fd5b60006117af8484611765565b949350505050565b600080604083850312156117ca57600080fd5b60006117d68585611765565b92505060206117e785828601611765565b9150509250929050565b60008060006060848603121561180657600080fd5b60006118128686611765565b935050602061182386828701611765565b925050604061183486828701611770565b9150509250925092565b6000806040838503121561185157600080fd5b600061185d8585611765565b92505060206117e785828601611770565b60008060008060008060c0878903121561188757600080fd5b60006118938989611765565b96505060206118a489828a01611770565b95505060406118b589828a01611770565b94505060606118c689828a01611786565b93505060806118d789828a01611770565b92505060a06118e889828a01611770565b9150509295509295509295565b6000806040838503121561190857600080fd5b60006119148585611765565b92505060206117e78582860161177b565b60006020828403121561193757600080fd5b60006117af8484611770565b61194c8161214a565b82525050565b61194c81612155565b61194c8161215a565b61194c6119708261215a565b61215a565b600061198082612138565b61198a818561213c565b935061199a818560208601612178565b6119a3816121a8565b9093019392505050565b60006119ba60238361213c565b7f45524332303a207472616e7366657220746f20746865207a65726f206164647281526265737360e81b602082015260400192915050565b60006119ff602a8361213c565b7f4d6478546f6b656e3a3a64656c656761746542795369673a207369676e6174758152691c9948195e1c1a5c995960b21b602082015260400192915050565b6000611a4b60288361213c565b7f4d6478546f6b656e3a205f6164644d696e74657220697320746865207a65726f815267206164647265737360c01b602082015260400192915050565b6000611a9560268361213c565b7f4f776e61626c653a206e6577206f776e657220697320746865207a65726f206181526564647265737360d01b602082015260400192915050565b6000611add60228361213c565b7f45524332303a20617070726f766520746f20746865207a65726f206164647265815261737360f01b602082015260400192915050565b6000611b21602b8361213c565b7f4d6478546f6b656e3a3a6765745072696f72566f7465733a206e6f742079657481526a0819195d195c9b5a5b995960aa1b602082015260400192915050565b6000611b6e600283612145565b61190160f01b815260020192915050565b6000611b8c601b8361213c565b7f536166654d6174683a206164646974696f6e206f766572666c6f770000000000815260200192915050565b6000611bc5602a8361213c565b7f4d6478546f6b656e3a3a64656c656761746542795369673a20696e76616c6964815269207369676e617475726560b01b602082015260400192915050565b6000611c1160268361213c565b7f4d6478546f6b656e3a3a64656c656761746542795369673a20696e76616c6964815265206e6f6e636560d01b602082015260400192915050565b6000611c5960188361213c565b7f63616c6c6572206973206e6f7420746865206d696e7465720000000000000000815260200192915050565b6000611c92604383612145565b7f454950373132446f6d61696e28737472696e67206e616d652c75696e7432353681527f20636861696e49642c6164647265737320766572696679696e67436f6e74726160208201526263742960e81b604082015260430192915050565b6000611cfd601d8361213c565b7f4d6478546f6b656e3a20696e646578206f7574206f6620626f756e6473000000815260200192915050565b6000611d3660208361213c565b7f4f776e61626c653a2063616c6c6572206973206e6f7420746865206f776e6572815260200192915050565b6000611d6f60258361213c565b7f45524332303a207472616e736665722066726f6d20746865207a65726f206164815264647265737360d81b602082015260400192915050565b6000611db660288361213c565b7f4d6478546f6b656e3a205f64656c4d696e74657220697320746865207a65726f815267206164647265737360c01b602082015260400192915050565b6000611e0060248361213c565b7f45524332303a20617070726f76652066726f6d20746865207a65726f206164648152637265737360e01b602082015260400192915050565b6000611e46603a83612145565b7f44656c65676174696f6e28616464726573732064656c6567617465652c75696e81527f74323536206e6f6e63652c75696e7432353620657870697279290000000000006020820152603a0192915050565b6000611ea5601f8361213c565b7f45524332303a206d696e7420746f20746865207a65726f206164647265737300815260200192915050565b61194c81612169565b61194c81612172565b6000611eee82611b61565b9150611efa8285611964565b602082019150611f0a8284611964565b5060200192915050565b60006104d182611c85565b60006104d182611e39565b602081016104d18284611943565b602081016104d18284611952565b602081016104d1828461195b565b60808101611f62828761195b565b611f6f6020830186611943565b611f7c604083018561195b565b611f89606083018461195b565b95945050505050565b60808101611fa0828761195b565b611fad602083018661195b565b611fba604083018561195b565b611f896060830184611943565b60808101611fd5828761195b565b611f6f6020830186611eda565b602080825281016105db8184611975565b602080825281016104d1816119ad565b602080825281016104d1816119f2565b602080825281016104d181611a3e565b602080825281016104d181611a88565b602080825281016104d181611ad0565b602080825281016104d181611b14565b602080825281016104d181611b7f565b602080825281016104d181611bb8565b602080825281016104d181611c04565b602080825281016104d181611c4c565b602080825281016104d181611cf0565b602080825281016104d181611d29565b602080825281016104d181611d62565b602080825281016104d181611da9565b602080825281016104d181611df3565b602080825281016104d181611e98565b60408101612101828561195b565b6105db602083018461195b565b602081016104d18284611ed1565b604081016121018285611ed1565b602081016104d18284611eda565b5190565b90815260200190565b919050565b60006104d18261215d565b151590565b90565b6001600160a01b031690565b63ffffffff1690565b60ff1690565b60005b8381101561219357818101518382015260200161217b565b838111156121a2576000848401525b50505050565b601f01601f191690565b6121bb8161214a565b811461070857600080fd5b6121bb8161215a565b6121bb81612169565b6121bb8161217256fe4d6478546f6b656e3a3a5f7772697465436865636b706f696e743a20626c6f636b206e756d6265722065786365656473203332206269747345524332303a207472616e7366657220616d6f756e7420657863656564732062616c616e636545524332303a207472616e7366657220616d6f756e74206578636565647320616c6c6f77616e636545524332303a2064656372656173656420616c6c6f77616e63652062656c6f77207a65726fa365627a7a7231582047e5647f5bd9d343ed71748ad5365c6d622228776bc3ff41df27460b8718ac626c6578706572696d656e74616cf564736f6c634300051000404d6478546f6b656e3a3a5f7772697465436865636b706f696e743a20626c6f636b206e756d62657220657863656564732033322062697473",
  "linkReferences": {},
  "deployedLinkReferences": {}
}