{
  "_format": "hh-sol-artifact-1",
  "contractName": "StepSwap",
  "sourceName": "contracts/swap/aggressive2/StepSwap.sol",
  "abi": [
    {
      "inputs": [
        {
          "internalType": "address",
          "name": "_weth",
          "type": "address"
        },
        {
          "internalType": "address",
          "name": "_ceth",
          "type": "address"
        },
        {
          "internalType": "address",
          "name": "_factory",
          "type": "address"
        }
      ],
      "stateMutability": "nonpayable",
      "type": "constructor"
    },
    {
      "anonymous": false,
      "inputs": [
        {
          "indexed": true,
          "internalType": "address",
          "name": "previousOwner",
          "type": "address"
        },
        {
          "indexed": true,
          "internalType": "address",
          "name": "newOwner",
          "type": "address"
        }
      ],
      "name": "OwnershipTransferred",
      "type": "event"
    },
    {
      "inputs": [
        {
          "internalType": "uint256",
          "name": "flag",
          "type": "uint256"
        },
        {
          "internalType": "address",
          "name": "addr",
          "type": "address"
        }
      ],
      "name": "addSwap",
      "outputs": [],
      "stateMutability": "nonpayable",
      "type": "function"
    },
    {
      "inputs": [
        {
          "internalType": "address[][]",
          "name": "ps",
          "type": "address[][]"
        }
      ],
      "name": "allSwapPaths",
      "outputs": [
        {
          "internalType": "address[][]",
          "name": "paths",
          "type": "address[][]"
        }
      ],
      "stateMutability": "view",
      "type": "function"
    },
    {
      "inputs": [
        {
          "internalType": "address",
          "name": "router",
          "type": "address"
        },
        {
          "internalType": "address[]",
          "name": "path",
          "type": "address[]"
        },
        {
          "internalType": "address[]",
          "name": "cpath",
          "type": "address[]"
        },
        {
          "internalType": "uint256",
          "name": "amtIn",
          "type": "uint256"
        },
        {
          "internalType": "bool",
          "name": "isEToken",
          "type": "bool"
        }
      ],
      "name": "buildEbankSwapStep",
      "outputs": [
        {
          "components": [
            {
              "internalType": "uint256",
              "name": "flag",
              "type": "uint256"
            },
            {
              "internalType": "bytes",
              "name": "data",
              "type": "bytes"
            }
          ],
          "internalType": "struct DataTypes.StepExecuteParams",
          "name": "step",
          "type": "tuple"
        }
      ],
      "stateMutability": "view",
      "type": "function"
    },
    {
      "inputs": [
        {
          "components": [
            {
              "internalType": "bool",
              "name": "isEToken",
              "type": "bool"
            },
            {
              "internalType": "bool",
              "name": "allowBurnchi",
              "type": "bool"
            },
            {
              "internalType": "bool",
              "name": "allEbank",
              "type": "bool"
            },
            {
              "internalType": "uint256",
              "name": "ebankAmt",
              "type": "uint256"
            },
            {
              "internalType": "uint256",
              "name": "amountIn",
              "type": "uint256"
            },
            {
              "internalType": "uint256",
              "name": "swapRoutes",
              "type": "uint256"
            },
            {
              "internalType": "address",
              "name": "tokenIn",
              "type": "address"
            },
            {
              "internalType": "address",
              "name": "tokenOut",
              "type": "address"
            },
            {
              "internalType": "address",
              "name": "etokenIn",
              "type": "address"
            },
            {
              "internalType": "address",
              "name": "etokenOut",
              "type": "address"
            },
            {
              "internalType": "uint256",
              "name": "routes",
              "type": "uint256"
            },
            {
              "internalType": "uint256",
              "name": "rateIn",
              "type": "uint256"
            },
            {
              "internalType": "uint256",
              "name": "rateOut",
              "type": "uint256"
            },
            {
              "internalType": "uint256[]",
              "name": "fees",
              "type": "uint256[]"
            },
            {
              "components": [
                {
                  "internalType": "uint256",
                  "name": "exFlag",
                  "type": "uint256"
                },
                {
                  "internalType": "address",
                  "name": "contractAddr",
                  "type": "address"
                }
              ],
              "internalType": "struct DataTypes.Exchange[]",
              "name": "exchanges",
              "type": "tuple[]"
            },
            {
              "internalType": "address[][]",
              "name": "paths",
              "type": "address[][]"
            },
            {
              "internalType": "address[][]",
              "name": "cpaths",
              "type": "address[][]"
            },
            {
              "internalType": "uint256[][][]",
              "name": "reserves",
              "type": "uint256[][][]"
            },
            {
              "internalType": "uint256[]",
              "name": "distributes",
              "type": "uint256[]"
            }
          ],
          "internalType": "struct DataTypes.SwapReserveRates",
          "name": "args",
          "type": "tuple"
        }
      ],
      "name": "buildSwapRouteSteps",
      "outputs": [
        {
          "components": [
            {
              "internalType": "bool",
              "name": "isEToken",
              "type": "bool"
            },
            {
              "internalType": "address",
              "name": "tokenIn",
              "type": "address"
            },
            {
              "internalType": "address",
              "name": "tokenOut",
              "type": "address"
            },
            {
              "internalType": "uint256",
              "name": "amountIn",
              "type": "uint256"
            },
            {
              "internalType": "uint256",
              "name": "minAmt",
              "type": "uint256"
            },
            {
              "internalType": "uint256",
              "name": "block",
              "type": "uint256"
            },
            {
              "components": [
                {
                  "internalType": "uint256",
                  "name": "flag",
                  "type": "uint256"
                },
                {
                  "internalType": "bytes",
                  "name": "data",
                  "type": "bytes"
                }
              ],
              "internalType": "struct DataTypes.StepExecuteParams[]",
              "name": "steps",
              "type": "tuple[]"
            }
          ],
          "internalType": "struct DataTypes.SwapParams",
          "name": "params",
          "type": "tuple"
        }
      ],
      "stateMutability": "view",
      "type": "function"
    },
    {
      "inputs": [
        {
          "internalType": "address",
          "name": "router",
          "type": "address"
        },
        {
          "internalType": "address[]",
          "name": "path",
          "type": "address[]"
        },
        {
          "internalType": "uint256",
          "name": "amtIn",
          "type": "uint256"
        },
        {
          "internalType": "bool",
          "name": "useRouter",
          "type": "bool"
        }
      ],
      "name": "buildUniSwapStep",
      "outputs": [
        {
          "components": [
            {
              "internalType": "uint256",
              "name": "flag",
              "type": "uint256"
            },
            {
              "internalType": "bytes",
              "name": "data",
              "type": "bytes"
            }
          ],
          "internalType": "struct DataTypes.StepExecuteParams",
          "name": "step",
          "type": "tuple"
        }
      ],
      "stateMutability": "view",
      "type": "function"
    },
    {
      "inputs": [
        {
          "internalType": "uint256",
          "name": "midTokens",
          "type": "uint256"
        },
        {
          "internalType": "uint256",
          "name": "complexLevel",
          "type": "uint256"
        }
      ],
      "name": "calcExchangeRoutes",
      "outputs": [
        {
          "internalType": "uint256",
          "name": "total",
          "type": "uint256"
        },
        {
          "components": [
            {
              "internalType": "uint256",
              "name": "exFlag",
              "type": "uint256"
            },
            {
              "internalType": "address",
              "name": "contractAddr",
              "type": "address"
            }
          ],
          "internalType": "struct DataTypes.Exchange[]",
          "name": "exchanges",
          "type": "tuple[]"
        }
      ],
      "stateMutability": "view",
      "type": "function"
    },
    {
      "inputs": [],
      "name": "ceth",
      "outputs": [
        {
          "internalType": "contract ILHT",
          "name": "",
          "type": "address"
        }
      ],
      "stateMutability": "view",
      "type": "function"
    },
    {
      "inputs": [],
      "name": "ctokenFactory",
      "outputs": [
        {
          "internalType": "contract ICTokenFactory",
          "name": "",
          "type": "address"
        }
      ],
      "stateMutability": "view",
      "type": "function"
    },
    {
      "inputs": [],
      "name": "exchangeCount",
      "outputs": [
        {
          "internalType": "uint256",
          "name": "",
          "type": "uint256"
        }
      ],
      "stateMutability": "view",
      "type": "function"
    },
    {
      "inputs": [
        {
          "components": [
            {
              "internalType": "address",
              "name": "to",
              "type": "address"
            },
            {
              "internalType": "address",
              "name": "tokenIn",
              "type": "address"
            },
            {
              "internalType": "address",
              "name": "tokenOut",
              "type": "address"
            },
            {
              "internalType": "uint256",
              "name": "amountIn",
              "type": "uint256"
            },
            {
              "internalType": "address[]",
              "name": "midTokens",
              "type": "address[]"
            },
            {
              "internalType": "uint256",
              "name": "mainRoutes",
              "type": "uint256"
            },
            {
              "internalType": "uint256",
              "name": "complex",
              "type": "uint256"
            },
            {
              "internalType": "uint256",
              "name": "parts",
              "type": "uint256"
            },
            {
              "internalType": "bool",
              "name": "allowPartial",
              "type": "bool"
            },
            {
              "internalType": "bool",
              "name": "allowBurnchi",
              "type": "bool"
            }
          ],
          "internalType": "struct DataTypes.QuoteParams",
          "name": "args",
          "type": "tuple"
        }
      ],
      "name": "getRoutesPaths",
      "outputs": [
        {
          "internalType": "uint256",
          "name": "routes",
          "type": "uint256"
        },
        {
          "internalType": "address[][]",
          "name": "paths",
          "type": "address[][]"
        },
        {
          "internalType": "address[][]",
          "name": "cpaths",
          "type": "address[][]"
        },
        {
          "components": [
            {
              "internalType": "uint256",
              "name": "exFlag",
              "type": "uint256"
            },
            {
              "internalType": "address",
              "name": "contractAddr",
              "type": "address"
            }
          ],
          "internalType": "struct DataTypes.Exchange[]",
          "name": "exchanges",
          "type": "tuple[]"
        }
      ],
      "stateMutability": "view",
      "type": "function"
    },
    {
      "inputs": [
        {
          "components": [
            {
              "internalType": "address",
              "name": "to",
              "type": "address"
            },
            {
              "internalType": "address",
              "name": "tokenIn",
              "type": "address"
            },
            {
              "internalType": "address",
              "name": "tokenOut",
              "type": "address"
            },
            {
              "internalType": "uint256",
              "name": "amountIn",
              "type": "uint256"
            },
            {
              "internalType": "address[]",
              "name": "midTokens",
              "type": "address[]"
            },
            {
              "internalType": "uint256",
              "name": "mainRoutes",
              "type": "uint256"
            },
            {
              "internalType": "uint256",
              "name": "complex",
              "type": "uint256"
            },
            {
              "internalType": "uint256",
              "name": "parts",
              "type": "uint256"
            },
            {
              "internalType": "bool",
              "name": "allowPartial",
              "type": "bool"
            },
            {
              "internalType": "bool",
              "name": "allowBurnchi",
              "type": "bool"
            }
          ],
          "internalType": "struct DataTypes.QuoteParams",
          "name": "args",
          "type": "tuple"
        }
      ],
      "name": "getSwapReserveRates",
      "outputs": [
        {
          "components": [
            {
              "internalType": "bool",
              "name": "isEToken",
              "type": "bool"
            },
            {
              "internalType": "bool",
              "name": "allowBurnchi",
              "type": "bool"
            },
            {
              "internalType": "bool",
              "name": "allEbank",
              "type": "bool"
            },
            {
              "internalType": "uint256",
              "name": "ebankAmt",
              "type": "uint256"
            },
            {
              "internalType": "uint256",
              "name": "amountIn",
              "type": "uint256"
            },
            {
              "internalType": "uint256",
              "name": "swapRoutes",
              "type": "uint256"
            },
            {
              "internalType": "address",
              "name": "tokenIn",
              "type": "address"
            },
            {
              "internalType": "address",
              "name": "tokenOut",
              "type": "address"
            },
            {
              "internalType": "address",
              "name": "etokenIn",
              "type": "address"
            },
            {
              "internalType": "address",
              "name": "etokenOut",
              "type": "address"
            },
            {
              "internalType": "uint256",
              "name": "routes",
              "type": "uint256"
            },
            {
              "internalType": "uint256",
              "name": "rateIn",
              "type": "uint256"
            },
            {
              "internalType": "uint256",
              "name": "rateOut",
              "type": "uint256"
            },
            {
              "internalType": "uint256[]",
              "name": "fees",
              "type": "uint256[]"
            },
            {
              "components": [
                {
                  "internalType": "uint256",
                  "name": "exFlag",
                  "type": "uint256"
                },
                {
                  "internalType": "address",
                  "name": "contractAddr",
                  "type": "address"
                }
              ],
              "internalType": "struct DataTypes.Exchange[]",
              "name": "exchanges",
              "type": "tuple[]"
            },
            {
              "internalType": "address[][]",
              "name": "paths",
              "type": "address[][]"
            },
            {
              "internalType": "address[][]",
              "name": "cpaths",
              "type": "address[][]"
            },
            {
              "internalType": "uint256[][][]",
              "name": "reserves",
              "type": "uint256[][][]"
            },
            {
              "internalType": "uint256[]",
              "name": "distributes",
              "type": "uint256[]"
            }
          ],
          "internalType": "struct DataTypes.SwapReserveRates",
          "name": "params",
          "type": "tuple"
        }
      ],
      "stateMutability": "view",
      "type": "function"
    },
    {
      "inputs": [
        {
          "internalType": "address",
          "name": "token",
          "type": "address"
        }
      ],
      "name": "isTokenToken",
      "outputs": [
        {
          "internalType": "bool",
          "name": "",
          "type": "bool"
        }
      ],
      "stateMutability": "view",
      "type": "function"
    },
    {
      "inputs": [],
      "name": "owner",
      "outputs": [
        {
          "internalType": "address",
          "name": "",
          "type": "address"
        }
      ],
      "stateMutability": "view",
      "type": "function"
    },
    {
      "inputs": [
        {
          "internalType": "uint256",
          "name": "i",
          "type": "uint256"
        }
      ],
      "name": "removeSwap",
      "outputs": [],
      "stateMutability": "nonpayable",
      "type": "function"
    },
    {
      "inputs": [],
      "name": "renounceOwnership",
      "outputs": [],
      "stateMutability": "nonpayable",
      "type": "function"
    },
    {
      "inputs": [
        {
          "internalType": "address",
          "name": "_ceth",
          "type": "address"
        }
      ],
      "name": "setCETH",
      "outputs": [],
      "stateMutability": "nonpayable",
      "type": "function"
    },
    {
      "inputs": [
        {
          "internalType": "address",
          "name": "factory",
          "type": "address"
        }
      ],
      "name": "setCtokenFactory",
      "outputs": [],
      "stateMutability": "nonpayable",
      "type": "function"
    },
    {
      "inputs": [
        {
          "internalType": "address",
          "name": "_weth",
          "type": "address"
        }
      ],
      "name": "setWETH",
      "outputs": [],
      "stateMutability": "nonpayable",
      "type": "function"
    },
    {
      "inputs": [
        {
          "internalType": "uint256",
          "name": "",
          "type": "uint256"
        }
      ],
      "name": "swaps",
      "outputs": [
        {
          "internalType": "uint256",
          "name": "exFlag",
          "type": "uint256"
        },
        {
          "internalType": "address",
          "name": "contractAddr",
          "type": "address"
        }
      ],
      "stateMutability": "view",
      "type": "function"
    },
    {
      "inputs": [
        {
          "internalType": "address",
          "name": "newOwner",
          "type": "address"
        }
      ],
      "name": "transferOwnership",
      "outputs": [],
      "stateMutability": "nonpayable",
      "type": "function"
    },
    {
      "inputs": [
        {
          "components": [
            {
              "internalType": "bool",
              "name": "isEToken",
              "type": "bool"
            },
            {
              "internalType": "address",
              "name": "tokenIn",
              "type": "address"
            },
            {
              "internalType": "address",
              "name": "tokenOut",
              "type": "address"
            },
            {
              "internalType": "uint256",
              "name": "amountIn",
              "type": "uint256"
            },
            {
              "internalType": "uint256",
              "name": "minAmt",
              "type": "uint256"
            },
            {
              "internalType": "uint256",
              "name": "block",
              "type": "uint256"
            },
            {
              "components": [
                {
                  "internalType": "uint256",
                  "name": "flag",
                  "type": "uint256"
                },
                {
                  "internalType": "bytes",
                  "name": "data",
                  "type": "bytes"
                }
              ],
              "internalType": "struct DataTypes.StepExecuteParams[]",
              "name": "steps",
              "type": "tuple[]"
            }
          ],
          "internalType": "struct DataTypes.SwapParams",
          "name": "args",
          "type": "tuple"
        }
      ],
      "name": "unoswap",
      "outputs": [],
      "stateMutability": "payable",
      "type": "function"
    },
    {
      "inputs": [],
      "name": "weth",
      "outputs": [
        {
          "internalType": "contract IWETH",
          "name": "",
          "type": "address"
        }
      ],
      "stateMutability": "view",
      "type": "function"
    },
    {
      "stateMutability": "payable",
      "type": "receive"
    }
  ],
  "bytecode": "0x60806040523480156200001157600080fd5b5060405162005691380380620056918339810160408190526200003491620000d1565b600062000040620000cd565b600080546001600160a01b0319166001600160a01b0383169081178255604051929350917f8be0079c531659141344cd1fd0a4f28419497f9722a3daafe3b4186f6b6457e0908290a350600380546001600160a01b039485166001600160a01b0319918216179091556004805493851693821693909317909255600580549190931691161790556200013d565b3390565b600080600060608486031215620000e6578283fd5b8351620000f38162000124565b6020850151909350620001068162000124565b6040850151909250620001198162000124565b809150509250925092565b6001600160a01b03811681146200013a57600080fd5b50565b615544806200014d6000396000f3fe6080604052600436106101795760003560e01c8063857b9fd0116100cb578063a36eb6311161007f578063f09c582911610059578063f09c58291461040d578063f11c48dc1461043b578063f2fde38b1461046857610180565b8063a36eb6311461039b578063d1d367ba146103cb578063ddd93585146103e057610180565b80638da5cb5b116100b05780638da5cb5b1461034657806396705cc71461035b5780639c6050161461037b57610180565b8063857b9fd0146102f95780638af15e6e1461032657610180565b80633fc8cef31161012d57806368972e501161010757806368972e50146102955780636c6ca238146102b7578063715018a6146102e457610180565b80633fc8cef3146102405780635a5ad601146102555780635b769f3c1461027557610180565b80630e1b8df71161015e5780630e1b8df7146101e957806322b83c2a1461020b57806325c9e2761461021e57610180565b80630272aa02146101855780630902a845146101bc57610180565b3661018057005b600080fd5b34801561019157600080fd5b506101a56101a03660046147ee565b610488565b6040516101b39291906153b4565b60405180910390f35b3480156101c857600080fd5b506101dc6101d7366004614133565b6106fc565b6040516101b391906150b1565b3480156101f557600080fd5b506102096102043660046147bf565b6107e6565b005b61020961021936600461445d565b610868565b34801561022a57600080fd5b506102336111c1565b6040516101b39190614a74565b34801561024c57600080fd5b506102336111d0565b34801561026157600080fd5b5061020961027036600461478f565b6111df565b34801561028157600080fd5b50610209610290366004614069565b611240565b3480156102a157600080fd5b506102aa6112a1565b6040516101b3919061534a565b3480156102c357600080fd5b506102d76102d2366004614069565b6112a7565b6040516101b39190614b51565b3480156102f057600080fd5b506102096113eb565b34801561030557600080fd5b5061031961031436600461451c565b611474565b6040516101b391906150c4565b34801561033257600080fd5b50610209610341366004614069565b6119bb565b34801561035257600080fd5b50610233611a1c565b34801561036757600080fd5b50610209610376366004614069565b611a2c565b34801561038757600080fd5b506101dc6103963660046140a1565b611a8d565b3480156103a757600080fd5b506103bb6103b6366004614364565b611b68565b6040516101b3949392919061536a565b3480156103d757600080fd5b50610233611fdc565b3480156103ec57600080fd5b506104006103fb366004614364565b611feb565b6040516101b3919061517f565b34801561041957600080fd5b5061042d61042836600461478f565b6128c1565b6040516101b3929190615353565b34801561044757600080fd5b5061045b61045636600461419d565b6128e3565b6040516101b39190614b3e565b34801561047457600080fd5b50610209610483366004614069565b612b6d565b6000606060005b60025481101561055b576000818152600160208190526040909120908101546001600160a01b03166104c15750610553565b80546040516331f6e32d60e11b815273__$c57c5a2f57f31663e8b085606ef2ffd4d4$__916363edc65a916104fd91908a908a90600401615409565b60206040518083038186803b15801561051557600080fd5b505af4158015610529573d6000803e3d6000fd5b505050506040513d601f19601f8201168201806040525081019061054d91906147a7565b84019350505b60010161048f565b8267ffffffffffffffff8111801561057257600080fd5b506040519080825280602002602001820160405280156105ac57816020015b610599613ab8565b8152602001906001900390816105915790505b50915060008091505b6002548210156106f3576000828152600160208190526040909120908101546001600160a01b03166105e757506106e8565b80546040516331f6e32d60e11b815260009173__$c57c5a2f57f31663e8b085606ef2ffd4d4$__916363edc65a91610625918c908c90600401615409565b60206040518083038186803b15801561063d57600080fd5b505af4158015610651573d6000803e3d6000fd5b505050506040513d601f19601f8201168201806040525081019061067591906147a7565b905060005b818110156106e457826000015486858151811061069357fe5b602090810291909101015152600183015486516001600160a01b03909116908790869081106106be57fe5b6020908102919091018101516001600160a01b039092169101526001938401930161067a565b5050505b6001909101906105b5565b50509250929050565b610704613acf565b8161072a5760405162461bcd60e51b815260040161072190614e9f565b60405180910390fd5b60008460008151811061073957fe5b6020026020010151905060008560018751038151811061075557fe5b6020026020010151905061076882612c2d565b156107765760128352610792565b61077f81612c2d565b1561078d5760138352610792565b601183525b61079a613ae9565b6001600160a01b0388166020808301919091528682526040808301899052516107c591839101615312565b60408051601f19818403018152919052602085015250919695505050505050565b6107ee612c68565b6001600160a01b03166107ff611a1c565b6001600160a01b0316146108255760405162461bcd60e51b815260040161072190614e6a565b60028054600090815260016020819052604090912093845592830180546001600160a01b0319166001600160a01b03939093169290921790915580549091019055565b60208101516001600160a01b0381166108a457816060015134101561089f5760405162461bcd60e51b81526004016107219061506c565b6108b4565b6108b48133308560600151612c6c565b6108e06040518060600160405280603481526020016154db603491398360c00151518460600151612d5d565b6040820151825161025842019015610f245760c08401518051600091829081908190600590828661090d57fe5b6020026020010151600001511415610b3c57600194850194600019909401939250610936613ab8565b8960c0015160008151811061094757fe5b602002602001015160200151806020019051810190610966919061432b565b602081015181516040517fdb006a750000000000000000000000000000000000000000000000000000000081529293506001600160a01b039091169163db006a75916109b49160040161534a565b606060405180830381600087803b1580156109ce57600080fd5b505af11580156109e2573d6000803e3d6000fd5b505050506040513d601f19601f82011682018060405250810190610a069190614832565b5050815160045460208401519194506001600160a01b03918216911614159050610a3257479250610b3a565b600554602082015160405163b8d7b66960e01b81526000926001600160a01b03169163b8d7b66991610a679190600401614a74565b60206040518083038186803b158015610a7f57600080fd5b505afa158015610a93573d6000803e3d6000fd5b505050506040513d601f19601f82011682018060405250810190610ab79190614085565b6040516370a0823160e01b81529091506001600160a01b038216906370a0823190610ae6903090600401614a74565b60206040518083038186803b158015610afe57600080fd5b505afa158015610b12573d6000803e3d6000fd5b505050506040513d601f19601f82011682018060405250810190610b3691906147a7565b9350505b505b8089606001511115610c2b57610b528830612dc2565b610b5a613ae9565b8960c001518681518110610b6a57fe5b602002602001015160200151806020019051810190610b899190614707565b905080602001516001600160a01b03166338ed1739826000015160008460400151308c6040518663ffffffff1660e01b8152600401610bcc9594939291906153cd565b600060405180830381600087803b158015610be657600080fd5b505af1158015610bfa573d6000803e3d6000fd5b505050506040513d6000823e601f3d908101601f19168201604052610c2291908101906142dc565b50506001909401935b6000610c3689612f20565b90505b84861015610cd4576000610c4b613acf565b8b60c001518881518110610c5b57fe5b60200260200101519050610c6d613ae9565b8160200151806020019051810190610c859190614707565b9050600188038914610cac578051610ca9908690610ca39089612fc1565b90613002565b92505b610cc682600001518583602001518685604001518f613044565b505060019096019550610c39565b8315610f19576004546001600160a01b0389811691161415610d905760048054604080517f1249c58b000000000000000000000000000000000000000000000000000000008152815147946001600160a01b0390941693631249c58b9386938083019391929082900301818588803b158015610d4f57600080fd5b505af1158015610d63573d6000803e3d6000fd5b50505050506040513d601f19601f82011682018060405250810190610d88919061480f565b505050610f19565b60055460405163b8d7b66960e01b81526000916001600160a01b03169063b8d7b66990610dc1908c90600401614a74565b60206040518083038186803b158015610dd957600080fd5b505afa158015610ded573d6000803e3d6000fd5b505050506040513d601f19601f82011682018060405250810190610e119190614085565b9050610e1d818a612dc2565b886001600160a01b031663a0712d68826001600160a01b03166370a08231306040518263ffffffff1660e01b8152600401610e589190614a74565b60206040518083038186803b158015610e7057600080fd5b505afa158015610e84573d6000803e3d6000fd5b505050506040513d601f19601f82011682018060405250810190610ea891906147a7565b6040518263ffffffff1660e01b8152600401610ec4919061534a565b602060405180830381600087803b158015610ede57600080fd5b505af1158015610ef2573d6000803e3d6000fd5b505050506040513d601f19601f82011682018060405250810190610f1691906147a7565b50505b505050505050611043565b610f686040518060400160405280600681526020017f73746570733a00000000000000000000000000000000000000000000000000008152508560c001515161364a565b60005b8460c00151518110156110415760008560c001518281518110610f8a57fe5b6020026020010151600001519050610fd86040518060400160405280600a81526020017f73776170202564202564000000000000000000000000000000000000000000008152508383612d5d565b610fe0613acf565b8660c001518381518110610ff057fe5b60200260200101519050611002613ae9565b816020015180602001905181019061101a9190614707565b905061103683888360200151846000015185604001518a613044565b505050600101610f6b565b505b60408401516001600160a01b03166110ca576080840151479081101561107b5760405162461bcd60e51b815260040161072190614fa1565b6110ba6040518060400160405280600c81526020017f6574682062616c616e63653a00000000000000000000000000000000000000008152508261364a565b6110c433826136a8565b506111bb565b6040516370a0823160e01b81526000906001600160a01b038416906370a08231906110f9903090600401614a74565b60206040518083038186803b15801561111157600080fd5b505afa158015611125573d6000803e3d6000fd5b505050506040513d601f19601f8201168201806040525081019061114991906147a7565b9050846080015181101561116f5760405162461bcd60e51b815260040161072190614fa1565b6111ae6040518060400160405280600e81526020017f746f6b656e2062616c616e63653a0000000000000000000000000000000000008152508261364a565b6111b9833383613735565b505b50505050565b6005546001600160a01b031681565b6003546001600160a01b031681565b6111e7612c68565b6001600160a01b03166111f8611a1c565b6001600160a01b03161461121e5760405162461bcd60e51b815260040161072190614e6a565b60009081526001602081905260409091200180546001600160a01b0319169055565b611248612c68565b6001600160a01b0316611259611a1c565b6001600160a01b03161461127f5760405162461bcd60e51b815260040161072190614e6a565b600380546001600160a01b0319166001600160a01b0392909216919091179055565b60025481565b60055460405163714bca1f60e11b815260009182916001600160a01b039091169063e297943e906112dc908690600401614a74565b60206040518083038186803b1580156112f457600080fd5b505afa158015611308573d6000803e3d6000fd5b505050506040513d601f19601f8201168201806040525081019061132c9190614085565b90506001600160a01b038116156113475760019150506113e6565b60055460405163b8d7b66960e01b81526000916001600160a01b03169063b8d7b66990611378908790600401614a74565b60206040518083038186803b15801561139057600080fd5b505afa1580156113a4573d6000803e3d6000fd5b505050506040513d601f19601f820116820180604052508101906113c89190614085565b6001600160a01b0316146113e05760009150506113e6565b60019150505b919050565b6113f3612c68565b6001600160a01b0316611404611a1c565b6001600160a01b03161461142a5760405162461bcd60e51b815260040161072190614e6a565b600080546040516001600160a01b03909116907f8be0079c531659141344cd1fd0a4f28419497f9722a3daafe3b4186f6b6457e0908390a3600080546001600160a01b0319169055565b61147c613b13565b60a0820151608083015160608301528251156114c8576101008301516001600160a01b039081166020840152610120840151166040808401919091528301516114c3576001015b6114e9565b60c08301516001600160a01b03908116602084015260e08401511660408301525b82511515825260008167ffffffffffffffff8111801561150857600080fd5b5060405190808252806020026020018201604052801561154257816020015b61152f613acf565b8152602001906001900390816115275790505b5060c08401528351801561155857506040840151155b156115a55761158661157b8560600151866080015161381c90919063ffffffff16565b85610100015161385e565b8360c00151828151811061159657fe5b60209081029190910101526001015b6060840151156117925760006115b96138b3565b905060608060005b876102400151518110156116ee5787610240015181815181106115e057fe5b6020026020010151600014156115f5576116e6565b6115fd613ab8565b886101c00151828151811061160e57fe5b6020026020010151905073__$c57c5a2f57f31663e8b085606ef2ffd4d4$__634c1a86b682600001516040518263ffffffff1660e01b8152600401611653919061534a565b60206040518083038186803b15801561166b57600080fd5b505af415801561167f573d6000803e3d6000fd5b505050506040513d601f19601f820116820180604052508101906116a3919061430f565b156116e457886101e0015182815181106116b957fe5b6020026020010151935088610200015182815181106116d457fe5b60200260200101519250506116ee565b505b6001016115c1565b6117316040518060400160405280601881526020017f6275696c64206562616e6b20737465703a20616d743d25640000000000000000815250896060015161364a565b876102400151518114156117575760405162461bcd60e51b815260040161072190614d9f565b61176c8484848b606001518c60000151611a8d565b8760c00151868151811061177c57fe5b6020908102919091010152505060019092019150505b60005b846102400151518110156119ad5784610240015181815181106117b457fe5b6020026020010151600014156117c9576119a5565b6117d1613ab8565b856101c0015182815181106117e257fe5b6020026020010151905073__$c57c5a2f57f31663e8b085606ef2ffd4d4$__634c1a86b682600001516040518263ffffffff1660e01b8152600401611827919061534a565b60206040518083038186803b15801561183f57600080fd5b505af4158015611853573d6000803e3d6000fd5b505050506040513d601f19601f82011682018060405250810190611877919061430f565b1561188257506119a5565b8051604051633b71164f60e21b815273__$c57c5a2f57f31663e8b085606ef2ffd4d4$__9163edc4593c916118ba919060040161534a565b60206040518083038186803b1580156118d257600080fd5b505af41580156118e6573d6000803e3d6000fd5b505050506040513d601f19601f8201168201806040525081019061190a919061430f565b15611970576119508160200151876101e00151848151811061192857fe5b6020026020010151886102400151858151811061194157fe5b602002602001015160016106fc565b8560c00151848151811061196057fe5b602002602001018190525061199d565b611978613acf565b6000815260c086015180518291908690811061199057fe5b6020026020010181905250505b506001909101905b600101611795565b50504360a083015250919050565b6119c3612c68565b6001600160a01b03166119d4611a1c565b6001600160a01b0316146119fa5760405162461bcd60e51b815260040161072190614e6a565b600480546001600160a01b0319166001600160a01b0392909216919091179055565b6000546001600160a01b03165b90565b611a34612c68565b6001600160a01b0316611a45611a1c565b6001600160a01b031614611a6b5760405162461bcd60e51b815260040161072190614e6a565b600580546001600160a01b0319166001600160a01b0392909216919091179055565b611a95613acf565b611a9d613ae9565b82611b1857600085600081518110611ab157fe5b60200260200101519050600086600188510381518110611acd57fe5b60200260200101519050611ae082613954565b15611aee5760168452611b0a565b611af781613954565b15611b055760178452611b0a565b601584525b505060408101869052611b24565b60148252604081018590525b6001600160a01b038716602080830191909152848252604051611b4991839101615312565b60408051601f1981840301815291905260208301525095945050505050565b60006060806060611b828560800151518660c00151610488565b602087015160408801519296509092509081816001600160a01b038216611bb6576004546001600160a01b03169150611c5b565b611bc389602001516112a7565b15611bd857611bd184613984565b9150611c5b565b60055460405163b8d7b66960e01b81526001600160a01b039091169063b8d7b66990611c08908590600401614a74565b60206040518083038186803b158015611c2057600080fd5b505afa158015611c34573d6000803e3d6000fd5b505050506040513d601f19601f82011682018060405250810190611c589190614085565b93505b60408901516001600160a01b0316611c7f57506004546001600160a01b0316611da3565b611c8c89604001516112a7565b15611ce057611c9e89602001516112a7565b80611cb4575060208901516001600160a01b0316155b611cd05760405162461bcd60e51b815260040161072190614c51565b611cd983613984565b9050611da3565b611ced89602001516112a7565b1580611d04575060208901516001600160a01b0316155b611d205760405162461bcd60e51b815260040161072190614d0b565b60055460405163b8d7b66960e01b81526001600160a01b039091169063b8d7b66990611d50908490600401614a74565b60206040518083038186803b158015611d6857600080fd5b505afa158015611d7c573d6000803e3d6000fd5b505050506040513d601f19601f82011682018060405250810190611da09190614085565b92505b6001600160a01b038416611dc0576003546001600160a01b031693505b6001600160a01b038316611ddd576003546001600160a01b031692505b606089608001515167ffffffffffffffff81118015611dfb57600080fd5b50604051908082528060200260200182016040528015611e25578160200160208202803683370190505b50905060005b8a6080015151811015611e8457611e588b608001518281518110611e4b57fe5b6020026020010151613984565b828281518110611e6457fe5b6001600160a01b0390921660209283029190910190910152600101611e2b565b5060808a015160c08b015160405163a076618360e01b815260609273__$c57c5a2f57f31663e8b085606ef2ffd4d4$__9263a076618392611ecb928b928b92600401614aa2565b60006040518083038186803b158015611ee357600080fd5b505af4158015611ef7573d6000803e3d6000fd5b505050506040513d6000823e601f3d908101601f19168201604052611f1f91908101906141d8565b9050611f2a816128e3565b60c08c015160405163a076618360e01b8152919a5073__$c57c5a2f57f31663e8b085606ef2ffd4d4$__9163a076618391611f6e9188918891889190600401614aa2565b60006040518083038186803b158015611f8657600080fd5b505af4158015611f9a573d6000803e3d6000fd5b505050506040513d6000823e601f3d908101601f19168201604052611fc291908101906141d8565b9050611fcd816128e3565b97505050505050509193509193565b6004546001600160a01b031681565b611ff3613b64565b6000600254116120155760405162461bcd60e51b815260040161072190614d68565b61201e82611b68565b6101c08501526102008401526101e08301526101408201526040805160608101909152602280825261206c91906154b96020830139826101400151836101e0015151846101c00151516139d6565b61207982602001516112a7565b156122225761208b82604001516112a7565b6120a75760405162461bcd60e51b815260040161072190614f0d565b60006120b68360200151613984565b905060006120c78460400151613984565b6000845260208501516001600160a01b0390811660c0860152604080870151821660e0870152848216610100870152908216610120860152516349638fa760e11b815290915073__$c57c5a2f57f31663e8b085606ef2ffd4d4$__906392c71f4e90612137908590600401614a74565b60206040518083038186803b15801561214f57600080fd5b505af4158015612163573d6000803e3d6000fd5b505050506040513d601f19601f8201168201806040525081019061218791906147a7565b6101608401526040516349638fa760e11b815273__$c57c5a2f57f31663e8b085606ef2ffd4d4$__906392c71f4e906121c4908490600401614a74565b60206040518083038186803b1580156121dc57600080fd5b505af41580156121f0573d6000803e3d6000fd5b505050506040513d601f19601f8201168201806040525081019061221491906147a7565b610180840152506124ab9050565b61222f82604001516112a7565b1561224c5760405162461bcd60e51b815260040161072190614ed6565b600181526020820180516001600160a01b0390811661010084015260408085015182166101208501526005549251905163b8d7b66960e01b8152929091169163b8d7b6699161229d91600401614a74565b60206040518083038186803b1580156122b557600080fd5b505afa1580156122c9573d6000803e3d6000fd5b505050506040513d601f19601f820116820180604052508101906122ed9190614085565b6001600160a01b0390811660c0830152600554604080850151905163b8d7b66960e01b8152919092169163b8d7b6699161232a9190600401614a74565b60206040518083038186803b15801561234257600080fd5b505afa158015612356573d6000803e3d6000fd5b505050506040513d601f19601f8201168201806040525081019061237a9190614085565b6001600160a01b031660e082015260208201516040516349638fa760e11b815273__$c57c5a2f57f31663e8b085606ef2ffd4d4$__916392c71f4e916123c39190600401614a74565b60206040518083038186803b1580156123db57600080fd5b505af41580156123ef573d6000803e3d6000fd5b505050506040513d601f19601f8201168201806040525081019061241391906147a7565b61016082015260408083015190516349638fa760e11b815273__$c57c5a2f57f31663e8b085606ef2ffd4d4$__916392c71f4e916124549190600401614a74565b60206040518083038186803b15801561246c57600080fd5b505af4158015612480573d6000803e3d6000fd5b505050506040513d601f19601f820116820180604052508101906124a491906147a7565b6101808201525b80610140015167ffffffffffffffff811180156124c757600080fd5b506040519080825280602002602001820160405280156124f1578160200160208202803683370190505b506101a082015261014081015167ffffffffffffffff8111801561251457600080fd5b5060405190808252806020026020018201604052801561254857816020015b60608152602001906001900390816125335790505b5061022082015260005b816101e00151518110156128bb57612568613ab8565b826101c00151828151811061257957fe5b602002602001015190506060836101e00151838151811061259657fe5b6020026020010151905073__$c57c5a2f57f31663e8b085606ef2ffd4d4$__63edc4593c83600001516040518263ffffffff1660e01b81526004016125db919061534a565b60206040518083038186803b1580156125f357600080fd5b505af4158015612607573d6000803e3d6000fd5b505050506040513d601f19601f8201168201806040525081019061262b919061430f565b156128915781516040517f4c1a86b600000000000000000000000000000000000000000000000000000000815273__$c57c5a2f57f31663e8b085606ef2ffd4d4$__91634c1a86b691612681919060040161534a565b60206040518083038186803b15801561269957600080fd5b505af41580156126ad573d6000803e3d6000fd5b505050506040513d601f19601f820116820180604052508101906126d1919061430f565b156127bf57601e846101a0015184815181106126e957fe5b60200260200101818152505073__$c57c5a2f57f31663e8b085606ef2ffd4d4$__63275f53968360200151866102000151868151811061272557fe5b60200260200101516040518363ffffffff1660e01b815260040161274a929190614b03565b60006040518083038186803b15801561276257600080fd5b505af4158015612776573d6000803e3d6000fd5b505050506040513d6000823e601f3d908101601f1916820160405261279e9190810190614261565b84610220015184815181106127af57fe5b602002602001018190525061288c565b601e846101a0015184815181106127d257fe5b60200260200101818152505073__$c57c5a2f57f31663e8b085606ef2ffd4d4$__63275f53968360200151836040518363ffffffff1660e01b815260040161281b929190614b03565b60006040518083038186803b15801561283357600080fd5b505af4158015612847573d6000803e3d6000fd5b505050506040513d6000823e601f3d908101601f1916820160405261286f9190810190614261565b846102200151848151811061288057fe5b60200260200101819052505b6128b1565b6004846101a0015184815181106128a457fe5b6020026020010181815250505b5050600101612552565b50919050565b600160208190526000918252604090912080549101546001600160a01b031682565b60606000805b6002548110156129c4576000818152600160208190526040909120908101546001600160a01b031661291b57506129bc565b8054604051633b71164f60e21b815273__$c57c5a2f57f31663e8b085606ef2ffd4d4$__9163edc4593c91612953919060040161534a565b60206040518083038186803b15801561296b57600080fd5b505af415801561297f573d6000803e3d6000fd5b505050506040513d601f19601f820116820180604052508101906129a3919061430f565b156129b3578451830192506129ba565b6001909201915b505b6001016128e9565b508067ffffffffffffffff811180156129dc57600080fd5b50604051908082528060200260200182016040528015612a1057816020015b60608152602001906001900390816129fb5790505b5091506000805b600254811015612b65576000818152600160208190526040909120908101546001600160a01b0316612a495750612b5d565b8054604051633b71164f60e21b815273__$c57c5a2f57f31663e8b085606ef2ffd4d4$__9163edc4593c91612a81919060040161534a565b60206040518083038186803b158015612a9957600080fd5b505af4158015612aad573d6000803e3d6000fd5b505050506040513d601f19601f82011682018060405250810190612ad1919061430f565b15612b1f5760005b8651811015612b1957868181518110612aee57fe5b6020026020010151868581518110612b0257fe5b602090810291909101015260019384019301612ad9565b50612b5b565b604080516001808252818301909252906020808301908036833701905050858481518110612b4957fe5b60209081029190910101526001909201915b505b600101612a17565b505050919050565b612b75612c68565b6001600160a01b0316612b86611a1c565b6001600160a01b031614612bac5760405162461bcd60e51b815260040161072190614e6a565b6001600160a01b038116612bd25760405162461bcd60e51b815260040161072190614cae565b600080546040516001600160a01b03808516939216917f8be0079c531659141344cd1fd0a4f28419497f9722a3daafe3b4186f6b6457e091a3600080546001600160a01b0319166001600160a01b0392909216919091179055565b6003546000906001600160a01b0383811691161480612c5357506001600160a01b038216155b15612c60575060016113e6565b506000919050565b3390565b60006060856001600160a01b03166323b872dd868686604051602401612c9493929190614adf565b6040516020818303038152906040529060e01b6020820180516001600160e01b038381831617835250505050604051612ccd9190614a58565b6000604051808303816000865af19150503d8060008114612d0a576040519150601f19603f3d011682016040523d82523d6000602084013e612d0f565b606091505b5091509150818015612d39575080511580612d39575080806020019051810190612d39919061430f565b612d555760405162461bcd60e51b81526004016107219061500f565b505050505050565b612dbd838383604051602401612d7593929190614bc6565b60408051601f198184030181529190526020810180516001600160e01b03167f969cdd0300000000000000000000000000000000000000000000000000000000179052613a34565b505050565b6040517fdd62ed3e0000000000000000000000000000000000000000000000000000000081527f7fffffffffffffffffffffffffffffffffffffffffffffffffffffffffffffff906001600160a01b0384169063dd62ed3e90612e2b9030908690600401614a88565b60206040518083038186803b158015612e4357600080fd5b505afa158015612e57573d6000803e3d6000fd5b505050506040513d601f19601f82011682018060405250810190612e7b91906147a7565b1015612f1c576040517f095ea7b30000000000000000000000000000000000000000000000000000000081526001600160a01b0383169063095ea7b390612eca90849060001990600401614b25565b602060405180830381600087803b158015612ee457600080fd5b505af1158015612ef8573d6000803e3d6000fd5b505050506040513d601f19601f82011682018060405250810190612dbd919061430f565b5050565b6004546000906001600160a01b0316612f3b575060006113e6565b60055460405163b8d7b66960e01b81526001600160a01b039091169063b8d7b66990612f6b908590600401614a74565b60206040518083038186803b158015612f8357600080fd5b505afa158015612f97573d6000803e3d6000fd5b505050506040513d601f19601f82011682018060405250810190612fbb9190614085565b92915050565b600082612fd057506000612fbb565b82820282848281612fdd57fe5b0414612ffb5760405162461bcd60e51b815260040161072190614e0d565b9392505050565b6000612ffb83836040518060400160405280601a81526020017f536166654d6174683a206469766973696f6e206279207a65726f000000000000815250613a55565b6130836040518060400160405280601381526020017f5f646f526f757465725365747020666c61673a000000000000000000000000008152508761364a565b60128614806130925750601686145b156131fe57826130a0574792505b6012861415613153576040517f7ff36ab50000000000000000000000000000000000000000000000000000000081526001600160a01b03851690637ff36ab59085906130f790600090879030908890600401614b5c565b6000604051808303818588803b15801561311057600080fd5b505af1158015613124573d6000803e3d6000fd5b50505050506040513d6000823e601f3d908101601f1916820160405261314d91908101906142dc565b506131f9565b6040517fee41be8e0000000000000000000000000000000000000000000000000000000081526001600160a01b0385169063ee41be8e9085906131a190600090879030908890600401614b5c565b6000604051808303818588803b1580156131ba57600080fd5b505af11580156131ce573d6000803e3d6000fd5b50505050506040513d6000823e601f3d908101601f191682016040526131f791908101906142dc565b505b612d55565b82613282576040516370a0823160e01b81526001600160a01b038616906370a082319061322f903090600401614a74565b60206040518083038186803b15801561324757600080fd5b505afa15801561325b573d6000803e3d6000fd5b505050506040513d601f19601f8201168201806040525081019061327f91906147a7565b92505b61328c8585612dc2565b60118614156133f6576133526040518060400160405280601581526020017f756e697377617020746f6b656e2d3e746f6b656e3a0000000000000000000000815250835185886001600160a01b03166370a08231306040518263ffffffff1660e01b81526004016132fd9190614a74565b60206040518083038186803b15801561331557600080fd5b505afa158015613329573d6000803e3d6000fd5b505050506040513d601f19601f8201168201806040525081019061334d91906147a7565b6139d6565b6040517f38ed17390000000000000000000000000000000000000000000000000000000081526001600160a01b038516906338ed1739906133a09086906000908790309088906004016153cd565b600060405180830381600087803b1580156133ba57600080fd5b505af11580156133ce573d6000803e3d6000fd5b505050506040513d6000823e601f3d908101601f191682016040526131f791908101906142dc565b601386141561344d576040517f18cbafe50000000000000000000000000000000000000000000000000000000081526001600160a01b038516906318cbafe5906133a09086906000908790309088906004016153cd565b60148614156134be576133526040518060400160405280601581526020017f6562616e6b2063746f6b656e2d3e63746f6b656e3a0000000000000000000000815250835185886001600160a01b03166370a08231306040518263ffffffff1660e01b81526004016132fd9190614a74565b601586141561357d5761352f6040518060400160405280601381526020017f6562616e6b20746f6b656e2d3e746f6b656e3a00000000000000000000000000815250835185886001600160a01b03166370a08231306040518263ffffffff1660e01b81526004016132fd9190614a74565b6040517f3eabf55f0000000000000000000000000000000000000000000000000000000081526001600160a01b03851690633eabf55f906133a09086906000908790309088906004016153cd565b6017861461359d5760405162461bcd60e51b815260040161072190614fd8565b6040517f8e750db90000000000000000000000000000000000000000000000000000000081526001600160a01b03851690638e750db9906135eb9086906000908790309088906004016153cd565b600060405180830381600087803b15801561360557600080fd5b505af1158015613619573d6000803e3d6000fd5b505050506040513d6000823e601f3d908101601f1916820160405261364191908101906142dc565b50505050505050565b612f1c8282604051602401613660929190614ba4565b60408051601f198184030181529190526020810180516001600160e01b03167f9710a9d000000000000000000000000000000000000000000000000000000000179052613a34565b604080516000808252602082019092526001600160a01b0384169083906040516136d29190614a58565b60006040518083038185875af1925050503d806000811461370f576040519150601f19603f3d011682016040523d82523d6000602084013e613714565b606091505b5050905080612dbd5760405162461bcd60e51b815260040161072190614f44565b60006060846001600160a01b031663a9059cbb858560405160240161375b929190614b25565b6040516020818303038152906040529060e01b6020820180516001600160e01b0383818316178352505050506040516137949190614a58565b6000604051808303816000865af19150503d80600081146137d1576040519150601f19603f3d011682016040523d82523d6000602084013e6137d6565b606091505b5091509150818015613800575080511580613800575080806020019051810190613800919061430f565b6111b95760405162461bcd60e51b815260040161072190614c1a565b6000612ffb83836040518060400160405280601e81526020017f536166654d6174683a207375627472616374696f6e206f766572666c6f770000815250613a8c565b613866613acf565b60058152613872613ab8565b8381526001600160a01b038316602080830191909152604051613897918391016150a3565b60408051601f1981840301815291905260208301525092915050565b6000805b60025481101561392d576138c9613ab8565b50600081815260016020818152604092839020835180850190945280548085529201546001600160a01b0316908301526003148015613914575060208101516001600160a01b031615155b156139245760200151915061392d565b506001016138b7565b506001600160a01b038116611a295760405162461bcd60e51b815260040161072190614dd6565b6004546000906001600160a01b0383811691161480612c5357506001600160a01b038216612c60575060016113e6565b60006001600160a01b0382166139a657506004546001600160a01b03166113e6565b60055460405163714bca1f60e11b81526001600160a01b039091169063e297943e90612f6b908590600401614a74565b6111bb848484846040516024016139f09493929190614beb565b60408051601f198184030181529190526020810180516001600160e01b03167f08ee5666000000000000000000000000000000000000000000000000000000001790525b80516a636f6e736f6c652e6c6f67602083016000808483855afa5050505050565b60008183613a765760405162461bcd60e51b81526004016107219190614b91565b506000838581613a8257fe5b0495945050505050565b60008184841115613ab05760405162461bcd60e51b81526004016107219190614b91565b505050900390565b604080518082019091526000808252602082015290565b604051806040016040528060008152602001606081525090565b60405180606001604052806000815260200160006001600160a01b03168152602001606081525090565b6040518060e0016040528060001515815260200160006001600160a01b0316815260200160006001600160a01b03168152602001600081526020016000815260200160008152602001606081525090565b60405180610260016040528060001515815260200160001515815260200160001515815260200160008152602001600081526020016000815260200160006001600160a01b0316815260200160006001600160a01b0316815260200160006001600160a01b0316815260200160006001600160a01b031681526020016000815260200160008152602001600081526020016060815260200160608152602001606081526020016060815260200160608152602001606081525090565b8035612fbb81615492565b600082601f830112613c3b578081fd5b8135613c4e613c4982615446565b61541f565b818152915060208083019084810181840286018201871015613c6f57600080fd5b60005b84811015613c97578135613c8581615492565b84529282019290820190600101613c72565b505050505092915050565b600082601f830112613cb2578081fd5b8151613cc0613c4982615446565b818152915060208083019084810181840286018201871015613ce157600080fd5b60005b84811015613c97578151613cf781615492565b84529282019290820190600101613ce4565b600082601f830112613d19578081fd5b8135613d27613c4982615446565b818152915060208083019084810160005b84811015613c9757613d4f888484358a0101613c2b565b84529282019290820190600101613d38565b600082601f830112613d71578081fd5b8135613d7f613c4982615446565b818152915060208083019084810160005b84811015613c97578135870188603f820112613dab57600080fd5b83810135613dbb613c4982615446565b81815285810190604084810160005b85811015613df357613de18f8484358a0101613fa2565b85529389019390890190600101613dca565b50505087525050509282019290820190600101613d90565b600082601f830112613e1b578081fd5b8135613e29613c4982615446565b8181529150602080830190848101604080850287018301881015613e4c57600080fd5b6000805b86811015613e965782848b031215613e66578182fd5b613e6f8361541f565b8435815285850135613e8081615492565b8187015286529484019492820192600101613e50565b5050505050505092915050565b6000601f8381840112613eb4578182fd5b8235613ec2613c4982615446565b818152925060208084019085810160005b84811015613f9657813588016040601f198181848e03011215613ef557600080fd5b613efe8261541f565b8684013581528284013567ffffffffffffffff80821115613f1e57600080fd5b81860195508e603f870112613f3257600080fd5b88860135915080821115613f4557600080fd5b50613f5588848d8401160161541f565b92508083528d84828701011115613f6b57600080fd5b8084860189850137600090830188015280870191909152865250509282019290820190600101613ed3565b50505050505092915050565b600082601f830112613fb2578081fd5b8135613fc0613c4982615446565b818152915060208083019084810181840286018201871015613fe157600080fd5b60005b84811015613c9757813584529282019290820190600101613fe4565b600082601f830112614010578081fd5b815161401e613c4982615446565b81815291506020808301908481018184028601820187101561403f57600080fd5b60005b84811015613c9757815184529282019290820190600101614042565b8035612fbb816154aa565b60006020828403121561407a578081fd5b8135612ffb81615492565b600060208284031215614096578081fd5b8151612ffb81615492565b600080600080600060a086880312156140b8578081fd5b85356140c381615492565b9450602086013567ffffffffffffffff808211156140df578283fd5b6140eb89838a01613c2b565b95506040880135915080821115614100578283fd5b5061410d88828901613c2b565b935050606086013591506080860135614125816154aa565b809150509295509295909350565b60008060008060808587031215614148578182fd5b843561415381615492565b9350602085013567ffffffffffffffff81111561416e578283fd5b61417a87828801613c2b565b935050604085013591506060850135614192816154aa565b939692955090935050565b6000602082840312156141ae578081fd5b813567ffffffffffffffff8111156141c4578182fd5b6141d084828501613d09565b949350505050565b600060208083850312156141ea578182fd5b825167ffffffffffffffff811115614200578283fd5b8301601f81018513614210578283fd5b805161421e613c4982615446565b81815283810190838501865b84811015614253576142418a888451890101613ca2565b8452928601929086019060010161422a565b509098975050505050505050565b60006020808385031215614273578182fd5b825167ffffffffffffffff811115614289578283fd5b8301601f81018513614299578283fd5b80516142a7613c4982615446565b81815283810190838501865b84811015614253576142ca8a888451890101614000565b845292860192908601906001016142b3565b6000602082840312156142ed578081fd5b815167ffffffffffffffff811115614303578182fd5b6141d084828501614000565b600060208284031215614320578081fd5b8151612ffb816154aa565b60006040828403121561433c578081fd5b614346604061541f565b82518152602083015161435881615492565b60208201529392505050565b600060208284031215614375578081fd5b813567ffffffffffffffff8082111561438c578283fd5b81840191506101408083870312156143a2578384fd5b6143ab8161541f565b90506143b78684613c20565b81526143c68660208501613c20565b60208201526143d88660408501613c20565b6040820152606083013560608201526080830135828111156143f8578485fd5b61440487828601613c2b565b60808301525060a083013560a082015260c083013560c082015260e083013560e082015261010091506144398683850161405e565b82820152610120915061444e8683850161405e565b91810191909152949350505050565b60006020828403121561446e578081fd5b813567ffffffffffffffff80821115614485578283fd5b9083019060e08286031215614498578283fd5b6144a260e061541f565b6144ac868461405e565b81526144bb8660208501613c20565b60208201526144cd8660408501613c20565b6040820152606083013560608201526080830135608082015260a083013560a082015260c083013582811115614501578485fd5b61450d87828601613ea3565b60c08301525095945050505050565b60006020828403121561452d578081fd5b813567ffffffffffffffff80821115614544578283fd5b818401915061026080838703121561455a578384fd5b6145638161541f565b905061456f868461405e565b815261457e866020850161405e565b6020820152614590866040850161405e565b6040820152606083013560608201526080830135608082015260a083013560a08201526145c08660c08501613c20565b60c08201526145d28660e08501613c20565b60e08201526101006145e687828601613c20565b908201526101206145f987858301613c20565b908201526101408381013590820152610160808401359082015261018080840135908201526101a08084013583811115614631578586fd5b61463d88828701613fa2565b8284015250506101c08084013583811115614656578586fd5b61466288828701613e0b565b8284015250506101e0808401358381111561467b578586fd5b61468788828701613d09565b82840152505061020080840135838111156146a0578586fd5b6146ac88828701613d09565b82840152505061022080840135838111156146c5578586fd5b6146d188828701613d61565b82840152505061024080840135838111156146ea578586fd5b6146f688828701613fa2565b918301919091525095945050505050565b600060208284031215614718578081fd5b815167ffffffffffffffff8082111561472f578283fd5b9083019060608286031215614742578283fd5b61474c606061541f565b82518152602083015161475e81615492565b6020820152604083015182811115614774578485fd5b61478087828601613ca2565b60408301525095945050505050565b6000602082840312156147a0578081fd5b5035919050565b6000602082840312156147b8578081fd5b5051919050565b600080604083850312156147d1578182fd5b8235915060208301356147e381615492565b809150509250929050565b60008060408385031215614800578182fd5b50508035926020909101359150565b60008060408385031215614821578182fd5b505080516020909101519092909150565b600080600060608486031215614846578081fd5b8351925060208401519150604084015190509250925092565b6001600160a01b03169052565b6000815180845260208085019450808401835b838110156148a45781516001600160a01b03168752958201959082019060010161487f565b509495945050505050565b6000815180845260208085018081965082840281019150828601855b858110156148f55782840389526148e384835161486c565b988501989350908401906001016148cb565b5091979650505050505050565b6000815180845260208085018081965082840281019150828601855b858110156148f5578284038952815180518086529086019086860190878102870188018a5b8281101561497157601f1989830301845261495f8286516149c0565b948a0194938a01939150600101614943565b509b88019b96505050918501915060010161491e565b6000815180845260208085019450808401835b838110156148a4576149ad878351614a21565b604096909601959082019060010161499a565b6000815180845260208085019450808401835b838110156148a4578151875295820195908201906001016149d3565b15159052565b60008151808452614a0d816020860160208601615466565b601f01601f19169290920160200192915050565b805182526020908101516001600160a01b0316910152565b6000815183526020820151604060208501526141d060408501826149f5565b60008251614a6a818460208701615466565b9190910192915050565b6001600160a01b0391909116815260200190565b6001600160a01b0392831681529116602082015260400190565b60006001600160a01b03808716835280861660208401525060806040830152614ace608083018561486c565b905082606083015295945050505050565b6001600160a01b039384168152919092166020820152604081019190915260600190565b60006001600160a01b0384168252604060208301526141d0604083018461486c565b6001600160a01b03929092168252602082015260400190565b600060208252612ffb60208301846148af565b901515815260200190565b600085825260806020830152614b75608083018661486c565b6001600160a01b03949094166040830152506060015292915050565b600060208252612ffb60208301846149f5565b600060408252614bb760408301856149f5565b90508260208301529392505050565b600060608252614bd960608301866149f5565b60208301949094525060400152919050565b600060808252614bfe60808301876149f5565b6020830195909552506040810192909252606090910152919050565b6020808252601f908201527f5472616e7366657248656c7065723a205452414e534645525f4641494c454400604082015260600190565b60208082526021908201527f626f746820746f6b656e20696e2f6f75742073686f756c6420626520746f6b6560408201527f6e00000000000000000000000000000000000000000000000000000000000000606082015260800190565b60208082526026908201527f4f776e61626c653a206e6577206f776e657220697320746865207a65726f206160408201527f6464726573730000000000000000000000000000000000000000000000000000606082015260800190565b60208082526022908201527f626f746820746f6b656e20696e2f6f75742073686f756c642062652065746f6b60408201527f656e000000000000000000000000000000000000000000000000000000000000606082015260800190565b6020808252600c908201527f6e6f2065786368616e6765730000000000000000000000000000000000000000604082015260600190565b60208082526008908201527f6e6f206562616e6b000000000000000000000000000000000000000000000000604082015260600190565b6020808252600f908201527f6e6f7420666f756e64206562616e6b0000000000000000000000000000000000604082015260600190565b60208082526021908201527f536166654d6174683a206d756c7469706c69636174696f6e206f766572666c6f60408201527f7700000000000000000000000000000000000000000000000000000000000000606082015260800190565b6020808252818101527f4f776e61626c653a2063616c6c6572206973206e6f7420746865206f776e6572604082015260600190565b6020808252600e908201527f6d75737420626520726f75746572000000000000000000000000000000000000604082015260600190565b6020808252601d908201527f746f6b656e4f75742073686f756c642062652065746f6b656e20746f6f000000604082015260600190565b6020808252601c908201527f746f6b656e4f75742073686f756c6420626520746f6b656e20746f6f00000000604082015260600190565b60208082526023908201527f5472616e7366657248656c7065723a204554485f5452414e534645525f46414960408201527f4c45440000000000000000000000000000000000000000000000000000000000606082015260800190565b60208082526010908201527f6c657373207468616e206d696e416d7400000000000000000000000000000000604082015260600190565b6020808252600c908201527f696e76616c696420666c61670000000000000000000000000000000000000000604082015260600190565b60208082526024908201527f5472616e7366657248656c7065723a205452414e534645525f46524f4d5f464160408201527f494c454400000000000000000000000000000000000000000000000000000000606082015260800190565b60208082526010908201527f6e6f7420656e6f7567682076616c756500000000000000000000000000000000604082015260600190565b60408101612fbb8284614a21565b600060208252612ffb6020830184614a39565b6000602080835261010083018451151582850152818501516001600160a01b038082166040870152806040880151166060870152505060608501516080850152608085015160a085015260a085015160c085015260c085015160e080860152818151808452610120935083870191508385820288010193508483019250855b818110156151725761011f19888603018352615160858551614a39565b94509285019291850191600101615143565b5092979650505050505050565b6000602082526151936020830184516149ef565b60208301516151a560408401826149ef565b5060408301516151b860608401826149ef565b5060608301516080830152608083015160a083015260a083015160c083015260c08301516151e960e084018261485f565b5060e08301516101006151fe8185018361485f565b84015190506101206152128482018361485f565b84015190506101406152268482018361485f565b84015161016084810191909152840151610180808501919091528401516101a0808501919091528401516102606101c08086018290529192509061526e6102808601846149c0565b9250808601519050601f196101e081878603018188015261528f8584614987565b9450808801519250506102008187860301818801526152ae85846148af565b9450808801519250506102208187860301818801526152cd85846148af565b9450808801519250506102408187860301818801526152ec8584614902565b90880151878203909201848801529350905061530883826149c0565b9695505050505050565b600060208252825160208301526001600160a01b03602084015116604083015260408301516060808401526141d0608084018261486c565b90815260200190565b9182526001600160a01b0316602082015260400190565b60008582526080602083015261538360808301866148af565b828103604084015261539581866148af565b905082810360608401526153a98185614987565b979650505050505050565b6000838252604060208301526141d06040830184614987565b600086825285602083015260a060408301526153ec60a083018661486c565b6001600160a01b0394909416606083015250608001529392505050565b9283526020830191909152604082015260600190565b60405181810167ffffffffffffffff8111828210171561543e57600080fd5b604052919050565b600067ffffffffffffffff82111561545c578081fd5b5060209081020190565b60005b83811015615481578181015183820152602001615469565b838111156111bb5750506000910152565b6001600160a01b03811681146154a757600080fd5b50565b80151581146154a757600080fdfe726f757465733a2025642070617468733a2025642065786368616e6765733a2025647472616e7366657220746f20737465707377617020737563636573732c2073746570733a20256420616d6f756e74496e3a202564a26469706673582212207df5758726b83152ac4e781bfb42ec0deaf60a92aa21da98df3e6792b83be9b964736f6c634300060c0033",
  "linkReferences": {
    "contracts/swap/aggressive2/Exchanges.sol": {
      "Exchanges": [
        {
          "length": 20,
          "start": 1567
        },
        {
          "length": 20,
          "start": 1864
        },
        {
          "length": 20,
          "start": 5991
        },
        {
          "length": 20,
          "start": 6459
        },
        {
          "length": 20,
          "start": 6624
        },
        {
          "length": 20,
          "start": 8174
        },
        {
          "length": 20,
          "start": 8334
        },
        {
          "length": 20,
          "start": 8796
        },
        {
          "length": 20,
          "start": 8937
        },
        {
          "length": 20,
          "start": 9449
        },
        {
          "length": 20,
          "start": 9594
        },
        {
          "length": 20,
          "start": 9967
        },
        {
          "length": 20,
          "start": 10151
        },
        {
          "length": 20,
          "start": 10308
        },
        {
          "length": 20,
          "start": 10541
        },
        {
          "length": 20,
          "start": 10873
        },
        {
          "length": 20,
          "start": 11175
        }
      ]
    }
  },
  "deployedLinkReferences": {
    "contracts/swap/aggressive2/Exchanges.sol": {
      "Exchanges": [
        {
          "length": 20,
          "start": 1234
        },
        {
          "length": 20,
          "start": 1531
        },
        {
          "length": 20,
          "start": 5658
        },
        {
          "length": 20,
          "start": 6126
        },
        {
          "length": 20,
          "start": 6291
        },
        {
          "length": 20,
          "start": 7841
        },
        {
          "length": 20,
          "start": 8001
        },
        {
          "length": 20,
          "start": 8463
        },
        {
          "length": 20,
          "start": 8604
        },
        {
          "length": 20,
          "start": 9116
        },
        {
          "length": 20,
          "start": 9261
        },
        {
          "length": 20,
          "start": 9634
        },
        {
          "length": 20,
          "start": 9818
        },
        {
          "length": 20,
          "start": 9975
        },
        {
          "length": 20,
          "start": 10208
        },
        {
          "length": 20,
          "start": 10540
        },
        {
          "length": 20,
          "start": 10842
        }
      ]
    }
  }
}