{
  "_format": "hh-sol-artifact-1",
  "contractName": "LPPool",
  "sourceName": "contracts/compound/LPPool.sol",
  "abi": [
    {
      "anonymous": false,
      "inputs": [
        {
          "indexed": false,
          "internalType": "uint256",
          "name": "error",
          "type": "uint256"
        },
        {
          "indexed": false,
          "internalType": "uint256",
          "name": "info",
          "type": "uint256"
        },
        {
          "indexed": false,
          "internalType": "uint256",
          "name": "detail",
          "type": "uint256"
        }
      ],
      "name": "Failure",
      "type": "event"
    },
    {
      "constant": false,
      "inputs": [
        {
          "internalType": "uint256",
          "name": "mintAmount",
          "type": "uint256"
        },
        {
          "internalType": "address",
          "name": "pool",
          "type": "address"
        }
      ],
      "name": "mint",
      "outputs": [
        {
          "internalType": "uint256",
          "name": "",
          "type": "uint256"
        }
      ],
      "payable": false,
      "stateMutability": "nonpayable",
      "type": "function"
    },
    {
      "constant": false,
      "inputs": [
        {
          "internalType": "uint256",
          "name": "mintAmount",
          "type": "uint256"
        },
        {
          "internalType": "address",
          "name": "pool",
          "type": "address"
        }
      ],
      "name": "redeeem",
      "outputs": [
        {
          "internalType": "uint256",
          "name": "",
          "type": "uint256"
        }
      ],
      "payable": false,
      "stateMutability": "nonpayable",
      "type": "function"
    }
  ],
  "bytecode": "0x608060405234801561001057600080fd5b506104ce806100206000396000f3fe608060405234801561001057600080fd5b50600436106100365760003560e01c806394bf804d1461003b578063c53d115f1461003b575b600080fd5b6100676004803603604081101561005157600080fd5b50803590602001356001600160a01b0316610079565b60408051918252519081900360200190f35b6000806100868484610090565b9695505050505050565b60008060006100a03386866100ad565b9250925092509250925092565b6000806000806100be878787610129565b6001600160a01b03808716600090815260208181526040808320938c168352929052908120549192506100f182846103cd565b6001600160a01b039788166000908152602081815260408083209c909a1682529a909a52968920879055509697909650939450505050565b60006001600160a01b0382166101855782341461017e576040805162461bcd60e51b815260206004820152600e60248201526d0ecc2d8eaca40dad2e6dac2e8c6d60931b604482015290519081900360640190fd5b50816103c6565b604080516370a0823160e01b8152306004820152905183916000916001600160a01b038416916370a08231916024808301926020929190829003018186803b1580156101d057600080fd5b505afa1580156101e4573d6000803e3d6000fd5b505050506040513d60208110156101fa57600080fd5b5051604080516323b872dd60e01b81526001600160a01b038981166004830152306024830152604482018990529151929350908416916323b872dd9160648082019260009290919082900301818387803b15801561025757600080fd5b505af115801561026b573d6000803e3d6000fd5b5050505060003d60008114610287576020811461029157600080fd5b600019915061029d565b60206000803e60005191505b50806102f0576040805162461bcd60e51b815260206004820152601860248201527f544f4b454e5f5452414e534645525f494e5f4641494c45440000000000000000604482015290519081900360640190fd5b604080516370a0823160e01b815230600482015290516000916001600160a01b038816916370a0823191602480820192602092909190829003018186803b15801561033a57600080fd5b505afa15801561034e573d6000803e3d6000fd5b505050506040513d602081101561036457600080fd5b50519050828110156103bd576040805162461bcd60e51b815260206004820152601a60248201527f544f4b454e5f5452414e534645525f494e5f4f564552464c4f57000000000000604482015290519081900360640190fd5b91909103925050505b9392505050565b60006103c68383604051806040016040528060118152602001706164646974696f6e206f766572666c6f7760781b815250600083830182858210156104905760405162461bcd60e51b81526004018080602001828103825283818151815260200191508051906020019080838360005b8381101561045557818101518382015260200161043d565b50505050905090810190601f1680156104825780820380516001836020036101000a031916815260200191505b509250505060405180910390fd5b5094935050505056fea265627a7a723158208f8bd2be82bc22d890caee9f7681c9d6e810d81c1911398c4f4876189cfdf01364736f6c63430005100032",
  "linkReferences": {},
  "deployedLinkReferences": {}
}