{
  "_format": "hh-sol-artifact-1",
  "contractName": "ComptrollerV3Storage",
  "sourceName": "contracts/compound/ComptrollerStorage.sol",
  "abi": [
    {
      "constant": true,
      "inputs": [],
      "name": "_borrowGuardianPaused",
      "outputs": [
        {
          "internalType": "bool",
          "name": "",
          "type": "bool"
        }
      ],
      "payable": false,
      "stateMutability": "view",
      "type": "function"
    },
    {
      "constant": true,
      "inputs": [],
      "name": "_mintGuardianPaused",
      "outputs": [
        {
          "internalType": "bool",
          "name": "",
          "type": "bool"
        }
      ],
      "payable": false,
      "stateMutability": "view",
      "type": "function"
    },
    {
      "constant": true,
      "inputs": [
        {
          "internalType": "address",
          "name": "",
          "type": "address"
        },
        {
          "internalType": "uint256",
          "name": "",
          "type": "uint256"
        }
      ],
      "name": "accountAssets",
      "outputs": [
        {
          "internalType": "contract CToken",
          "name": "",
          "type": "address"
        }
      ],
      "payable": false,
      "stateMutability": "view",
      "type": "function"
    },
    {
      "constant": true,
      "inputs": [],
      "name": "admin",
      "outputs": [
        {
          "internalType": "address",
          "name": "",
          "type": "address"
        }
      ],
      "payable": false,
      "stateMutability": "view",
      "type": "function"
    },
    {
      "constant": true,
      "inputs": [
        {
          "internalType": "uint256",
          "name": "",
          "type": "uint256"
        }
      ],
      "name": "allMarkets",
      "outputs": [
        {
          "internalType": "contract CToken",
          "name": "",
          "type": "address"
        }
      ],
      "payable": false,
      "stateMutability": "view",
      "type": "function"
    },
    {
      "constant": true,
      "inputs": [
        {
          "internalType": "address",
          "name": "",
          "type": "address"
        }
      ],
      "name": "borrowGuardianPaused",
      "outputs": [
        {
          "internalType": "bool",
          "name": "",
          "type": "bool"
        }
      ],
      "payable": false,
      "stateMutability": "view",
      "type": "function"
    },
    {
      "constant": true,
      "inputs": [],
      "name": "closeFactorMantissa",
      "outputs": [
        {
          "internalType": "uint256",
          "name": "",
          "type": "uint256"
        }
      ],
      "payable": false,
      "stateMutability": "view",
      "type": "function"
    },
    {
      "constant": true,
      "inputs": [
        {
          "internalType": "address",
          "name": "",
          "type": "address"
        }
      ],
      "name": "compAccrued",
      "outputs": [
        {
          "internalType": "uint256",
          "name": "",
          "type": "uint256"
        }
      ],
      "payable": false,
      "stateMutability": "view",
      "type": "function"
    },
    {
      "constant": true,
      "inputs": [
        {
          "internalType": "address",
          "name": "",
          "type": "address"
        }
      ],
      "name": "compBorrowState",
      "outputs": [
        {
          "internalType": "uint224",
          "name": "index",
          "type": "uint224"
        },
        {
          "internalType": "uint32",
          "name": "block",
          "type": "uint32"
        }
      ],
      "payable": false,
      "stateMutability": "view",
      "type": "function"
    },
    {
      "constant": true,
      "inputs": [
        {
          "internalType": "address",
          "name": "",
          "type": "address"
        },
        {
          "internalType": "address",
          "name": "",
          "type": "address"
        }
      ],
      "name": "compBorrowerIndex",
      "outputs": [
        {
          "internalType": "uint256",
          "name": "",
          "type": "uint256"
        }
      ],
      "payable": false,
      "stateMutability": "view",
      "type": "function"
    },
    {
      "constant": true,
      "inputs": [],
      "name": "compRate",
      "outputs": [
        {
          "internalType": "uint256",
          "name": "",
          "type": "uint256"
        }
      ],
      "payable": false,
      "stateMutability": "view",
      "type": "function"
    },
    {
      "constant": true,
      "inputs": [
        {
          "internalType": "address",
          "name": "",
          "type": "address"
        }
      ],
      "name": "compSpeeds",
      "outputs": [
        {
          "internalType": "uint256",
          "name": "",
          "type": "uint256"
        }
      ],
      "payable": false,
      "stateMutability": "view",
      "type": "function"
    },
    {
      "constant": true,
      "inputs": [
        {
          "internalType": "address",
          "name": "",
          "type": "address"
        },
        {
          "internalType": "address",
          "name": "",
          "type": "address"
        }
      ],
      "name": "compSupplierIndex",
      "outputs": [
        {
          "internalType": "uint256",
          "name": "",
          "type": "uint256"
        }
      ],
      "payable": false,
      "stateMutability": "view",
      "type": "function"
    },
    {
      "constant": true,
      "inputs": [
        {
          "internalType": "address",
          "name": "",
          "type": "address"
        }
      ],
      "name": "compSupplyState",
      "outputs": [
        {
          "internalType": "uint224",
          "name": "index",
          "type": "uint224"
        },
        {
          "internalType": "uint32",
          "name": "block",
          "type": "uint32"
        }
      ],
      "payable": false,
      "stateMutability": "view",
      "type": "function"
    },
    {
      "constant": true,
      "inputs": [],
      "name": "delegateFactoryAddress",
      "outputs": [
        {
          "internalType": "address",
          "name": "",
          "type": "address"
        }
      ],
      "payable": false,
      "stateMutability": "view",
      "type": "function"
    },
    {
      "constant": true,
      "inputs": [
        {
          "internalType": "address",
          "name": "",
          "type": "address"
        }
      ],
      "name": "eTokensMapping",
      "outputs": [
        {
          "internalType": "address",
          "name": "",
          "type": "address"
        }
      ],
      "payable": false,
      "stateMutability": "view",
      "type": "function"
    },
    {
      "constant": true,
      "inputs": [
        {
          "internalType": "uint256",
          "name": "",
          "type": "uint256"
        }
      ],
      "name": "implementsMapping",
      "outputs": [
        {
          "internalType": "address",
          "name": "",
          "type": "address"
        }
      ],
      "payable": false,
      "stateMutability": "view",
      "type": "function"
    },
    {
      "constant": true,
      "inputs": [],
      "name": "liquidationIncentiveMantissa",
      "outputs": [
        {
          "internalType": "uint256",
          "name": "",
          "type": "uint256"
        }
      ],
      "payable": false,
      "stateMutability": "view",
      "type": "function"
    },
    {
      "constant": true,
      "inputs": [
        {
          "internalType": "address",
          "name": "",
          "type": "address"
        }
      ],
      "name": "markets",
      "outputs": [
        {
          "internalType": "bool",
          "name": "isListed",
          "type": "bool"
        },
        {
          "internalType": "uint256",
          "name": "collateralFactorMantissa",
          "type": "uint256"
        },
        {
          "internalType": "bool",
          "name": "isComped",
          "type": "bool"
        },
        {
          "internalType": "uint256",
          "name": "borrowFactorMantissa",
          "type": "uint256"
        },
        {
          "internalType": "bool",
          "name": "isLPPool",
          "type": "bool"
        }
      ],
      "payable": false,
      "stateMutability": "view",
      "type": "function"
    },
    {
      "constant": true,
      "inputs": [],
      "name": "maxAssets",
      "outputs": [
        {
          "internalType": "uint256",
          "name": "",
          "type": "uint256"
        }
      ],
      "payable": false,
      "stateMutability": "view",
      "type": "function"
    },
    {
      "constant": true,
      "inputs": [
        {
          "internalType": "bytes",
          "name": "",
          "type": "bytes"
        }
      ],
      "name": "methodImplements",
      "outputs": [
        {
          "internalType": "uint256",
          "name": "",
          "type": "uint256"
        }
      ],
      "payable": false,
      "stateMutability": "view",
      "type": "function"
    },
    {
      "constant": true,
      "inputs": [
        {
          "internalType": "address",
          "name": "",
          "type": "address"
        }
      ],
      "name": "mintGuardianPaused",
      "outputs": [
        {
          "internalType": "bool",
          "name": "",
          "type": "bool"
        }
      ],
      "payable": false,
      "stateMutability": "view",
      "type": "function"
    },
    {
      "constant": true,
      "inputs": [],
      "name": "oracle",
      "outputs": [
        {
          "internalType": "contract PriceOracle",
          "name": "",
          "type": "address"
        }
      ],
      "payable": false,
      "stateMutability": "view",
      "type": "function"
    },
    {
      "constant": true,
      "inputs": [],
      "name": "pauseGuardian",
      "outputs": [
        {
          "internalType": "address",
          "name": "",
          "type": "address"
        }
      ],
      "payable": false,
      "stateMutability": "view",
      "type": "function"
    },
    {
      "constant": true,
      "inputs": [],
      "name": "pendingAdmin",
      "outputs": [
        {
          "internalType": "address",
          "name": "",
          "type": "address"
        }
      ],
      "payable": false,
      "stateMutability": "view",
      "type": "function"
    },
    {
      "constant": true,
      "inputs": [],
      "name": "pendingComptrollerImplementation",
      "outputs": [
        {
          "internalType": "address",
          "name": "",
          "type": "address"
        }
      ],
      "payable": false,
      "stateMutability": "view",
      "type": "function"
    },
    {
      "constant": true,
      "inputs": [],
      "name": "seizeGuardianPaused",
      "outputs": [
        {
          "internalType": "bool",
          "name": "",
          "type": "bool"
        }
      ],
      "payable": false,
      "stateMutability": "view",
      "type": "function"
    },
    {
      "constant": true,
      "inputs": [
        {
          "internalType": "address",
          "name": "",
          "type": "address"
        }
      ],
      "name": "tokensMapping",
      "outputs": [
        {
          "internalType": "address",
          "name": "",
          "type": "address"
        }
      ],
      "payable": false,
      "stateMutability": "view",
      "type": "function"
    },
    {
      "constant": true,
      "inputs": [],
      "name": "transferGuardianPaused",
      "outputs": [
        {
          "internalType": "bool",
          "name": "",
          "type": "bool"
        }
      ],
      "payable": false,
      "stateMutability": "view",
      "type": "function"
    }
  ],
  "bytecode": "0x608060405234801561001057600080fd5b5061085e806100206000396000f3fe608060405234801561001057600080fd5b50600436106101cf5760003560e01c80638e8f294b11610104578063cc7ebdc4116100a2578063e6653f3d11610071578063e6653f3d1461055d578063e875544614610565578063f851a4401461056d578063fa00112014610575576101cf565b8063cc7ebdc4146104e6578063d0b0630f1461050c578063dce1544914610529578063dcfbc0c714610555576101cf565b8063aa900754116100de578063aa9007541461047a578063ac0b0bb714610482578063b21be7fd1461048a578063ca0af043146104b8576101cf565b80638e8f294b1461041557806394b2294b1461046a578063a2c7ca4d14610472576101cf565b80636b79c38d11610171578063731f0c2b1161014b578063731f0c2b146103b95780637dc0d1d0146103df57806387f76303146103e75780638c57804e146103ef576101cf565b80636b79c38d1461029f5780636d154ea5146102ed57806372fdfcae14610313576101cf565b80633c94786f116101ad5780633c94786f146102385780633d70015a146102545780634ada90af1461027a57806352d84d1e14610282576101cf565b80631d7b33d7146101d457806324a3d6221461020c5780632678224714610230575b600080fd5b6101fa600480360360208110156101ea57600080fd5b50356001600160a01b031661059b565b60408051918252519081900360200190f35b6102146105ad565b604080516001600160a01b039092168252519081900360200190f35b6102146105bc565b6102406105cb565b604080519115158252519081900360200190f35b6102146004803603602081101561026a57600080fd5b50356001600160a01b03166105db565b6101fa6105f6565b6102146004803603602081101561029857600080fd5b50356105fc565b6102c5600480360360208110156102b557600080fd5b50356001600160a01b0316610623565b604080516001600160e01b03909316835263ffffffff90911660208301528051918290030190f35b6102406004803603602081101561030357600080fd5b50356001600160a01b031661064d565b6101fa6004803603602081101561032957600080fd5b81019060208101813564010000000081111561034457600080fd5b82018360208201111561035657600080fd5b8035906020019184600183028401116401000000008311171561037857600080fd5b91908080601f016020809104026020016040519081016040528093929190818152602001838380828437600092019190915250929550610662945050505050565b610240600480360360208110156103cf57600080fd5b50356001600160a01b031661067f565b610214610694565b6102406106a3565b6102c56004803603602081101561040557600080fd5b50356001600160a01b03166106b3565b61043b6004803603602081101561042b57600080fd5b50356001600160a01b03166106dd565b604080519515158652602086019490945291151584840152606084015215156080830152519081900360a00190f35b6101fa610713565b610214610719565b6101fa610728565b61024061072e565b6101fa600480360360408110156104a057600080fd5b506001600160a01b038135811691602001351661073e565b6101fa600480360360408110156104ce57600080fd5b506001600160a01b038135811691602001351661075b565b6101fa600480360360208110156104fc57600080fd5b50356001600160a01b0316610778565b6102146004803603602081101561052257600080fd5b503561078a565b6102146004803603604081101561053f57600080fd5b506001600160a01b0381351690602001356107a5565b6102146107da565b6102406107e9565b6101fa6107f9565b6102146107ff565b6102146004803603602081101561058b57600080fd5b50356001600160a01b031661080e565b60136020526000908152604090205481565b600e546001600160a01b031681565b6002546001600160a01b031681565b600e54600160a01b900460ff1681565b600d602052600090815260409020546001600160a01b031681565b60085481565b6011818154811061060957fe5b6000918252602090912001546001600160a01b0316905081565b6014602052600090815260409020546001600160e01b03811690600160e01b900463ffffffff1682565b60106020526000908152604090205460ff1681565b805160208183018101805160048252928201919093012091525481565b600f6020526000908152604090205460ff1681565b6006546001600160a01b031681565b600e54600160b01b900460ff1681565b6015602052600090815260409020546001600160e01b03811690600160e01b900463ffffffff1682565b600b602052600090815260409020805460018201546003830154600484015460059094015460ff93841694929391821692911685565b60095481565b6001546001600160a01b031681565b60125481565b600e54600160b81b900460ff1681565b601660209081526000928352604080842090915290825290205481565b601760209081526000928352604080842090915290825290205481565b60186020526000908152604090205481565b6005602052600090815260409020546001600160a01b031681565b600a60205281600052604060002081815481106107be57fe5b6000918252602090912001546001600160a01b03169150829050565b6003546001600160a01b031681565b600e54600160a81b900460ff1681565b60075481565b6000546001600160a01b031681565b600c602052600090815260409020546001600160a01b03168156fea265627a7a723158202a2e31b68e2cf9477d7d39cc9b89178e610bd33cd6ccd2200d9c05141e5d2d5564736f6c63430005100032",
  "linkReferences": {},
  "deployedLinkReferences": {}
}