{
  "_format": "hh-sol-artifact-1",
  "contractName": "HecoPool",
  "sourceName": "contracts/swap/heco/HecoPool.sol",
  "abi": [
    {
      "inputs": [
        {
          "internalType": "address",
          "name": "_ebe",
          "type": "address"
        },
        {
          "internalType": "uint256",
          "name": "_ebePerBlock",
          "type": "uint256"
        },
        {
          "internalType": "uint256",
          "name": "_startBlock",
          "type": "uint256"
        }
      ],
      "payable": false,
      "stateMutability": "nonpayable",
      "type": "constructor"
    },
    {
      "anonymous": false,
      "inputs": [
        {
          "indexed": true,
          "internalType": "address",
          "name": "user",
          "type": "address"
        },
        {
          "indexed": true,
          "internalType": "uint256",
          "name": "pid",
          "type": "uint256"
        },
        {
          "indexed": false,
          "internalType": "uint256",
          "name": "amount",
          "type": "uint256"
        }
      ],
      "name": "Deposit",
      "type": "event"
    },
    {
      "anonymous": false,
      "inputs": [
        {
          "indexed": true,
          "internalType": "address",
          "name": "user",
          "type": "address"
        },
        {
          "indexed": true,
          "internalType": "uint256",
          "name": "pid",
          "type": "uint256"
        },
        {
          "indexed": false,
          "internalType": "uint256",
          "name": "amount",
          "type": "uint256"
        }
      ],
      "name": "EmergencyWithdraw",
      "type": "event"
    },
    {
      "anonymous": false,
      "inputs": [
        {
          "indexed": true,
          "internalType": "address",
          "name": "previousOwner",
          "type": "address"
        },
        {
          "indexed": true,
          "internalType": "address",
          "name": "newOwner",
          "type": "address"
        }
      ],
      "name": "OwnershipTransferred",
      "type": "event"
    },
    {
      "anonymous": false,
      "inputs": [
        {
          "indexed": true,
          "internalType": "address",
          "name": "user",
          "type": "address"
        },
        {
          "indexed": true,
          "internalType": "uint256",
          "name": "pid",
          "type": "uint256"
        },
        {
          "indexed": false,
          "internalType": "uint256",
          "name": "amount",
          "type": "uint256"
        }
      ],
      "name": "Withdraw",
      "type": "event"
    },
    {
      "constant": true,
      "inputs": [
        {
          "internalType": "address",
          "name": "",
          "type": "address"
        }
      ],
      "name": "LpOfPid",
      "outputs": [
        {
          "internalType": "uint256",
          "name": "",
          "type": "uint256"
        }
      ],
      "payable": false,
      "stateMutability": "view",
      "type": "function"
    },
    {
      "constant": false,
      "inputs": [
        {
          "internalType": "uint256",
          "name": "_allocPoint",
          "type": "uint256"
        },
        {
          "internalType": "contract IERC20",
          "name": "_lpToken",
          "type": "address"
        },
        {
          "internalType": "bool",
          "name": "_withUpdate",
          "type": "bool"
        }
      ],
      "name": "add",
      "outputs": [],
      "payable": false,
      "stateMutability": "nonpayable",
      "type": "function"
    },
    {
      "constant": false,
      "inputs": [
        {
          "internalType": "address",
          "name": "_addLP",
          "type": "address"
        }
      ],
      "name": "addMultLP",
      "outputs": [
        {
          "internalType": "bool",
          "name": "",
          "type": "bool"
        }
      ],
      "payable": false,
      "stateMutability": "nonpayable",
      "type": "function"
    },
    {
      "constant": false,
      "inputs": [
        {
          "internalType": "uint256",
          "name": "_pid",
          "type": "uint256"
        },
        {
          "internalType": "uint256",
          "name": "_amount",
          "type": "uint256"
        }
      ],
      "name": "deposit",
      "outputs": [],
      "payable": false,
      "stateMutability": "nonpayable",
      "type": "function"
    },
    {
      "constant": true,
      "inputs": [],
      "name": "ebe",
      "outputs": [
        {
          "internalType": "contract IEBEToken",
          "name": "",
          "type": "address"
        }
      ],
      "payable": false,
      "stateMutability": "view",
      "type": "function"
    },
    {
      "constant": true,
      "inputs": [],
      "name": "ebePerBlock",
      "outputs": [
        {
          "internalType": "uint256",
          "name": "",
          "type": "uint256"
        }
      ],
      "payable": false,
      "stateMutability": "view",
      "type": "function"
    },
    {
      "constant": false,
      "inputs": [
        {
          "internalType": "uint256",
          "name": "_pid",
          "type": "uint256"
        }
      ],
      "name": "emergencyWithdraw",
      "outputs": [],
      "payable": false,
      "stateMutability": "nonpayable",
      "type": "function"
    },
    {
      "constant": true,
      "inputs": [
        {
          "internalType": "uint256",
          "name": "_lastRewardBlock",
          "type": "uint256"
        }
      ],
      "name": "getEbeBlockReward",
      "outputs": [
        {
          "internalType": "uint256",
          "name": "",
          "type": "uint256"
        }
      ],
      "payable": false,
      "stateMutability": "view",
      "type": "function"
    },
    {
      "constant": true,
      "inputs": [
        {
          "internalType": "uint256",
          "name": "_pid",
          "type": "uint256"
        }
      ],
      "name": "getMultLPAddress",
      "outputs": [
        {
          "internalType": "address",
          "name": "",
          "type": "address"
        }
      ],
      "payable": false,
      "stateMutability": "view",
      "type": "function"
    },
    {
      "constant": true,
      "inputs": [],
      "name": "getMultLPLength",
      "outputs": [
        {
          "internalType": "uint256",
          "name": "",
          "type": "uint256"
        }
      ],
      "payable": false,
      "stateMutability": "view",
      "type": "function"
    },
    {
      "constant": true,
      "inputs": [],
      "name": "halvingPeriod",
      "outputs": [
        {
          "internalType": "uint256",
          "name": "",
          "type": "uint256"
        }
      ],
      "payable": false,
      "stateMutability": "view",
      "type": "function"
    },
    {
      "constant": true,
      "inputs": [
        {
          "internalType": "address",
          "name": "_lp",
          "type": "address"
        }
      ],
      "name": "isMultLP",
      "outputs": [
        {
          "internalType": "bool",
          "name": "",
          "type": "bool"
        }
      ],
      "payable": false,
      "stateMutability": "view",
      "type": "function"
    },
    {
      "constant": true,
      "inputs": [],
      "name": "isOwner",
      "outputs": [
        {
          "internalType": "bool",
          "name": "",
          "type": "bool"
        }
      ],
      "payable": false,
      "stateMutability": "view",
      "type": "function"
    },
    {
      "constant": false,
      "inputs": [],
      "name": "massUpdatePools",
      "outputs": [],
      "payable": false,
      "stateMutability": "nonpayable",
      "type": "function"
    },
    {
      "constant": true,
      "inputs": [],
      "name": "multLpChef",
      "outputs": [
        {
          "internalType": "address",
          "name": "",
          "type": "address"
        }
      ],
      "payable": false,
      "stateMutability": "view",
      "type": "function"
    },
    {
      "constant": true,
      "inputs": [],
      "name": "multLpToken",
      "outputs": [
        {
          "internalType": "address",
          "name": "",
          "type": "address"
        }
      ],
      "payable": false,
      "stateMutability": "view",
      "type": "function"
    },
    {
      "constant": true,
      "inputs": [],
      "name": "owner",
      "outputs": [
        {
          "internalType": "address",
          "name": "",
          "type": "address"
        }
      ],
      "payable": false,
      "stateMutability": "view",
      "type": "function"
    },
    {
      "constant": true,
      "inputs": [],
      "name": "paused",
      "outputs": [
        {
          "internalType": "bool",
          "name": "",
          "type": "bool"
        }
      ],
      "payable": false,
      "stateMutability": "view",
      "type": "function"
    },
    {
      "constant": true,
      "inputs": [
        {
          "internalType": "uint256",
          "name": "_pid",
          "type": "uint256"
        },
        {
          "internalType": "address",
          "name": "_user",
          "type": "address"
        }
      ],
      "name": "pending",
      "outputs": [
        {
          "internalType": "uint256",
          "name": "",
          "type": "uint256"
        },
        {
          "internalType": "uint256",
          "name": "",
          "type": "uint256"
        }
      ],
      "payable": false,
      "stateMutability": "view",
      "type": "function"
    },
    {
      "constant": true,
      "inputs": [
        {
          "internalType": "uint256",
          "name": "",
          "type": "uint256"
        }
      ],
      "name": "poolCorrespond",
      "outputs": [
        {
          "internalType": "uint256",
          "name": "",
          "type": "uint256"
        }
      ],
      "payable": false,
      "stateMutability": "view",
      "type": "function"
    },
    {
      "constant": true,
      "inputs": [
        {
          "internalType": "uint256",
          "name": "",
          "type": "uint256"
        }
      ],
      "name": "poolInfo",
      "outputs": [
        {
          "internalType": "contract IERC20",
          "name": "lpToken",
          "type": "address"
        },
        {
          "internalType": "uint256",
          "name": "allocPoint",
          "type": "uint256"
        },
        {
          "internalType": "uint256",
          "name": "lastRewardBlock",
          "type": "uint256"
        },
        {
          "internalType": "uint256",
          "name": "accEbePerShare",
          "type": "uint256"
        },
        {
          "internalType": "uint256",
          "name": "accMultLpPerShare",
          "type": "uint256"
        },
        {
          "internalType": "uint256",
          "name": "totalAmount",
          "type": "uint256"
        }
      ],
      "payable": false,
      "stateMutability": "view",
      "type": "function"
    },
    {
      "constant": true,
      "inputs": [],
      "name": "poolLength",
      "outputs": [
        {
          "internalType": "uint256",
          "name": "",
          "type": "uint256"
        }
      ],
      "payable": false,
      "stateMutability": "view",
      "type": "function"
    },
    {
      "constant": false,
      "inputs": [],
      "name": "renounceOwnership",
      "outputs": [],
      "payable": false,
      "stateMutability": "nonpayable",
      "type": "function"
    },
    {
      "constant": false,
      "inputs": [
        {
          "internalType": "address",
          "name": "_multLpToken",
          "type": "address"
        },
        {
          "internalType": "address",
          "name": "_multLpChef",
          "type": "address"
        }
      ],
      "name": "replaceMultLP",
      "outputs": [],
      "payable": false,
      "stateMutability": "nonpayable",
      "type": "function"
    },
    {
      "constant": false,
      "inputs": [
        {
          "internalType": "uint256",
          "name": "_pid",
          "type": "uint256"
        },
        {
          "internalType": "uint256",
          "name": "_allocPoint",
          "type": "uint256"
        },
        {
          "internalType": "bool",
          "name": "_withUpdate",
          "type": "bool"
        }
      ],
      "name": "set",
      "outputs": [],
      "payable": false,
      "stateMutability": "nonpayable",
      "type": "function"
    },
    {
      "constant": false,
      "inputs": [
        {
          "internalType": "uint256",
          "name": "_newPerBlock",
          "type": "uint256"
        }
      ],
      "name": "setEbePerBlock",
      "outputs": [],
      "payable": false,
      "stateMutability": "nonpayable",
      "type": "function"
    },
    {
      "constant": false,
      "inputs": [
        {
          "internalType": "address",
          "name": "_multLpToken",
          "type": "address"
        },
        {
          "internalType": "address",
          "name": "_multLpChef",
          "type": "address"
        }
      ],
      "name": "setMultLP",
      "outputs": [],
      "payable": false,
      "stateMutability": "nonpayable",
      "type": "function"
    },
    {
      "constant": false,
      "inputs": [],
      "name": "setPause",
      "outputs": [],
      "payable": false,
      "stateMutability": "nonpayable",
      "type": "function"
    },
    {
      "constant": false,
      "inputs": [
        {
          "internalType": "uint256",
          "name": "_pid",
          "type": "uint256"
        },
        {
          "internalType": "uint256",
          "name": "_sid",
          "type": "uint256"
        }
      ],
      "name": "setPoolCorr",
      "outputs": [],
      "payable": false,
      "stateMutability": "nonpayable",
      "type": "function"
    },
    {
      "constant": true,
      "inputs": [],
      "name": "startBlock",
      "outputs": [
        {
          "internalType": "uint256",
          "name": "",
          "type": "uint256"
        }
      ],
      "payable": false,
      "stateMutability": "view",
      "type": "function"
    },
    {
      "constant": true,
      "inputs": [],
      "name": "totalAllocPoint",
      "outputs": [
        {
          "internalType": "uint256",
          "name": "",
          "type": "uint256"
        }
      ],
      "payable": false,
      "stateMutability": "view",
      "type": "function"
    },
    {
      "constant": false,
      "inputs": [
        {
          "internalType": "address",
          "name": "newOwner",
          "type": "address"
        }
      ],
      "name": "transferOwnership",
      "outputs": [],
      "payable": false,
      "stateMutability": "nonpayable",
      "type": "function"
    },
    {
      "constant": false,
      "inputs": [
        {
          "internalType": "uint256",
          "name": "_pid",
          "type": "uint256"
        }
      ],
      "name": "updatePool",
      "outputs": [],
      "payable": false,
      "stateMutability": "nonpayable",
      "type": "function"
    },
    {
      "constant": true,
      "inputs": [
        {
          "internalType": "uint256",
          "name": "",
          "type": "uint256"
        },
        {
          "internalType": "address",
          "name": "",
          "type": "address"
        }
      ],
      "name": "userInfo",
      "outputs": [
        {
          "internalType": "uint256",
          "name": "amount",
          "type": "uint256"
        },
        {
          "internalType": "uint256",
          "name": "rewardDebt",
          "type": "uint256"
        },
        {
          "internalType": "uint256",
          "name": "multLpRewardDebt",
          "type": "uint256"
        }
      ],
      "payable": false,
      "stateMutability": "view",
      "type": "function"
    },
    {
      "constant": false,
      "inputs": [
        {
          "internalType": "uint256",
          "name": "_pid",
          "type": "uint256"
        },
        {
          "internalType": "uint256",
          "name": "_amount",
          "type": "uint256"
        }
      ],
      "name": "withdraw",
      "outputs": [],
      "payable": false,
      "stateMutability": "nonpayable",
      "type": "function"
    }
  ],
  "bytecode": "0x60806040526009805460ff191690556000600a5562503340600e553480156200002757600080fd5b506040516200347238038062003472833981810160405260608110156200004d57600080fd5b50805160208201516040909201519091906000620000736001600160e01b03620000ea16565b600080546001600160a01b0319166001600160a01b0383169081178255604051929350917f8be0079c531659141344cd1fd0a4f28419497f9722a3daafe3b4186f6b6457e0908290a350600380546001600160a01b0319166001600160a01b039490941693909317909255600455600b55620000ee565b3390565b61337480620000fe6000396000f3fe608060405234801561001057600080fd5b50600436106102105760003560e01c8063715018a611610125578063cb4502c4116100ad578063e4c75c271161007c578063e4c75c271461057b578063e6ab8d48146105c0578063e715e234146105c8578063f1844a25146105f6578063f2fde38b146105fe57610210565b8063cb4502c41461052b578063d431b1ac14610548578063dfc7b95b14610550578063e2bbb1581461055857610210565b80638f32d59b116100f45780638f32d59b1461046257806393f1a40b1461046a578063aaae43cc146104b4578063b0c7044b146104e2578063b337d32c1461050857610210565b8063715018a61461040f5780637fe6f5ac146104175780638c0352521461043d5780638da5cb5b1461045a57610210565b806351eb05a6116101a85780635c975abb116101775780635c975abb146103af578063630b5ba1146103b757806364482f79146103bf57806366f9e64b146103ea578063705bbc011461040757610210565b806351eb05a6146103335780635312ea8e1461035057806356c5867d1461036d5780635a3e251f146103a757610210565b80631eaaa045116101e45780631eaaa045146102b557806343154907146102eb578063441a3e701461030857806348cd4cb11461032b57610210565b8062a2e17814610215578063081e3eda146102395780631526fe271461025357806317caf6f1146102ad575b600080fd5b61021d610624565b604080516001600160a01b039092168252519081900360200190f35b610241610633565b60408051918252519081900360200190f35b6102706004803603602081101561026957600080fd5b5035610639565b604080516001600160a01b0390971687526020870195909552858501939093526060850191909152608084015260a0830152519081900360c00190f35b610241610686565b6102e9600480360360608110156102cb57600080fd5b508035906001600160a01b036020820135169060400135151561068c565b005b61021d6004803603602081101561030157600080fd5b50356108df565b6102e96004803603604081101561031e57600080fd5b5080359060200135610948565b6102416109f7565b6102e96004803603602081101561034957600080fd5b50356109fd565b6102e96004803603602081101561036657600080fd5b5035610c12565b6103936004803603602081101561038357600080fd5b50356001600160a01b0316610cbe565b604080519115158252519081900360200190f35b610241610dea565b610393610df0565b6102e9610df9565b6102e9600480360360608110156103d557600080fd5b50803590602081013590604001351515610e18565b6102e96004803603602081101561040057600080fd5b5035610ede565b61021d610f32565b6102e9610f41565b6103936004803603602081101561042d57600080fd5b50356001600160a01b0316610fd2565b6102416004803603602081101561045357600080fd5b5035610fdf565b61021d611067565b610393611076565b6104966004803603604081101561048057600080fd5b50803590602001356001600160a01b031661109a565b60408051938452602084019290925282820152519081900360600190f35b6102e9600480360360408110156104ca57600080fd5b506001600160a01b03813581169160200135166110c6565b610241600480360360208110156104f857600080fd5b50356001600160a01b03166112b5565b6102e96004803603604081101561051e57600080fd5b50803590602001356112c7565b6102416004803603602081101561054157600080fd5b5035611374565b6102e9611386565b61021d6113e1565b6102e96004803603604081101561056e57600080fd5b50803590602001356113f0565b6105a76004803603604081101561059157600080fd5b50803590602001356001600160a01b0316611495565b6040805192835260208301919091528051918290030190f35b61024161150f565b6102e9600480360360408110156105de57600080fd5b506001600160a01b0381358116916020013516611520565b6102416115fc565b6102e96004803603602081101561061457600080fd5b50356001600160a01b0316611602565b6003546001600160a01b031681565b60055490565b6005818154811061064657fe5b60009182526020909120600690910201805460018201546002830154600384015460048501546005909501546001600160a01b0390941695509193909286565b600a5481565b610694611076565b6106d3576040805162461bcd60e51b815260206004820181905260248201526000805160206132f6833981519152604482015290519081900360640190fd5b6001600160a01b03821661072e576040805162461bcd60e51b815260206004820152601c60248201527f5f6c70546f6b656e20697320746865207a65726f206164647265737300000000604482015290519081900360640190fd5b801561073c5761073c610df9565b6000600b54431161074f57600b54610751565b435b600a54909150610767908563ffffffff61165216565b600a556040805160c0810182526001600160a01b038581168252602082018781529282018481526000606084018181526080850182815260a0860183815260058054600180820183559190955296517f036b6384b5eca791c62761152d0c79bb0604c104a5fb6f4eb0703f3154bb3db0600690950294850180546001600160a01b031916919097161790955595517f036b6384b5eca791c62761152d0c79bb0604c104a5fb6f4eb0703f3154bb3db183015591517f036b6384b5eca791c62761152d0c79bb0604c104a5fb6f4eb0703f3154bb3db282015590517f036b6384b5eca791c62761152d0c79bb0604c104a5fb6f4eb0703f3154bb3db382015592517f036b6384b5eca791c62761152d0c79bb0604c104a5fb6f4eb0703f3154bb3db4840155517f036b6384b5eca791c62761152d0c79bb0604c104a5fb6f4eb0703f3154bb3db5909201919091556108bc610633565b6001600160a01b0390941660009081526008602052604090209303909255505050565b600060016108eb61150f565b03821115610937576040805162461bcd60e51b815260206004820152601460248201527306e6f742066696e642074686973206d756c744c560641b604482015290519081900360640190fd5b6109426001836116b3565b92915050565b60095460ff161561099c576040805162461bcd60e51b8152602060048201526019602482015278135a5b9a5b99c81a185cc81899595b881cdd5cdc195b991959603a1b604482015290519081900360640190fd5b6000600583815481106109ab57fe5b6000918252602090912060069091020180549091506109d2906001600160a01b0316610fd2565b156109e7576109e28383336116e0565b6109f2565b6109f2838333611aba565b505050565b600b5481565b600060058281548110610a0c57fe5b9060005260206000209060060201905080600201544311610a2d5750610c0f565b8054600090610a44906001600160a01b0316610fd2565b15610a6a576005820154610a5f575043600290910155610c0f565b506005810154610af4565b8154604080516370a0823160e01b815230600482015290516001600160a01b03909216916370a0823191602480820192602092909190829003018186803b158015610ab457600080fd5b505afa158015610ac8573d6000803e3d6000fd5b505050506040513d6020811015610ade57600080fd5b5051905080610af4575043600290910155610c0f565b6000610b038360020154610fdf565b905060008111610b1557505050610c0f565b6000610b40600a54610b34866001015485611c5190919063ffffffff16565b9063ffffffff611caa16565b600354604080516340c10f1960e01b81523060048201526024810184905290519293506000926001600160a01b03909216916340c10f199160448082019260209290919082900301818787803b158015610b9957600080fd5b505af1158015610bad573d6000803e3d6000fd5b505050506040513d6020811015610bc357600080fd5b505190508015610c0057610bfa610be985610b348564e8d4a5100063ffffffff611c5116565b60038701549063ffffffff61165216565b60038601555b43856002018190555050505050505b50565b60095460ff1615610c66576040805162461bcd60e51b8152602060048201526019602482015278135a5b9a5b99c81a185cc81899595b881cdd5cdc195b991959603a1b604482015290519081900360640190fd5b600060058281548110610c7557fe5b600091825260209091206006909102018054909150610c9c906001600160a01b0316610fd2565b15610cb057610cab8233611cec565b610cba565b610cba8233611f45565b5050565b6000610cc8611076565b610d07576040805162461bcd60e51b815260206004820181905260248201526000805160206132f6833981519152604482015290519081900360640190fd5b6001600160a01b038216610d5b576040805162461bcd60e51b81526020600482015260166024820152754c5020697320746865207a65726f206164647265737360501b604482015290519081900360640190fd5b600c546040805163095ea7b360e01b81526001600160a01b039283166004820152600019602482015290519184169163095ea7b3916044808201926020929091908290030181600087803b158015610db257600080fd5b505af1158015610dc6573d6000803e3d6000fd5b505050506040513d6020811015610ddc57600080fd5b506109429050600183612007565b600e5481565b60095460ff1681565b60055460005b81811015610cba57610e10816109fd565b600101610dff565b610e20611076565b610e5f576040805162461bcd60e51b815260206004820181905260248201526000805160206132f6833981519152604482015290519081900360640190fd5b8015610e6d57610e6d610df9565b610eb082610ea460058681548110610e8157fe5b906000526020600020906006020160010154600a5461206790919063ffffffff16565b9063ffffffff61165216565b600a819055508160058481548110610ec457fe5b906000526020600020906006020160010181905550505050565b610ee6611076565b610f25576040805162461bcd60e51b815260206004820181905260248201526000805160206132f6833981519152604482015290519081900360640190fd5b610f2d610df9565b600455565b600d546001600160a01b031681565b610f49611076565b610f88576040805162461bcd60e51b815260206004820181905260248201526000805160206132f6833981519152604482015290519081900360640190fd5b600080546040516001600160a01b03909116907f8be0079c531659141344cd1fd0a4f28419497f9722a3daafe3b4186f6b6457e0908390a3600080546001600160a01b0319169055565b60006109426001836120a9565b6003546004805460408051631bba3daf60e01b81529283019190915260248201849052516000926001600160a01b031691631bba3daf916044808301926020929190829003018186803b15801561103557600080fd5b505afa158015611049573d6000803e3d6000fd5b505050506040513d602081101561105f57600080fd5b505192915050565b6000546001600160a01b031690565b600080546001600160a01b031661108b6120c7565b6001600160a01b031614905090565b600660209081526000928352604080842090915290825290208054600182015460029092015490919083565b6110ce611076565b61110d576040805162461bcd60e51b815260206004820181905260248201526000805160206132f6833981519152604482015290519081900360640190fd5b6001600160a01b0382161580159061112d57506001600160a01b03811615155b611174576040805162461bcd60e51b8152602060048201526013602482015272697320746865207a65726f206164647265737360681b604482015290519081900360640190fd5b60095460ff1615156001146111c7576040805162461bcd60e51b815260206004820152601460248201527327379036b4b734b7339039bab9b832b739b4b7b760611b604482015290519081900360640190fd5b600d80546001600160a01b038085166001600160a01b031992831617909255600c805492841692909116919091179055600061120161150f565b90505b80156109f2576000611218600160006116b3565b6001600160a01b03808216600090815260086020908152604080832054600c548185526007909352818420548251632989754760e11b815260048101919091529151959650949190931692635312ea8e92602480830193919282900301818387803b15801561128657600080fd5b505af115801561129a573d6000803e3d6000fd5b505050506112a96001836120cb565b50505060001901611204565b60086020526000908152604090205481565b6112cf611076565b61130e576040805162461bcd60e51b815260206004820181905260248201526000805160206132f6833981519152604482015290519081900360640190fd5b6001611318610633565b03821115611362576040805162461bcd60e51b81526020600482015260126024820152711b9bdd08199a5b99081d1a1a5cc81c1bdbdb60721b604482015290519081900360640190fd5b60009182526007602052604090912055565b60076020526000908152604090205481565b61138e611076565b6113cd576040805162461bcd60e51b815260206004820181905260248201526000805160206132f6833981519152604482015290519081900360640190fd5b6009805460ff19811660ff90911615179055565b600c546001600160a01b031681565b60095460ff1615611444576040805162461bcd60e51b8152602060048201526019602482015278135a5b9a5b99c81a185cc81899595b881cdd5cdc195b991959603a1b604482015290519081900360640190fd5b60006005838154811061145357fe5b60009182526020909120600690910201805490915061147a906001600160a01b0316610fd2565b1561148a576109e28383336121d6565b6109f2838333612798565b6000806000600585815481106114a757fe5b6000918252602090912060069091020180549091506114ce906001600160a01b0316610fd2565b156114ee576000806114e087876128e9565b909550935061150892505050565b60006114fa8686612b2c565b935060009250611508915050565b9250929050565b600061151b6001612cd5565b905090565b611528611076565b611567576040805162461bcd60e51b815260206004820181905260248201526000805160206132f6833981519152604482015290519081900360640190fd5b6001600160a01b0382161580159061158757506001600160a01b03811615155b6115ce576040805162461bcd60e51b8152602060048201526013602482015272697320746865207a65726f206164647265737360681b604482015290519081900360640190fd5b600d80546001600160a01b039384166001600160a01b031991821617909155600c8054929093169116179055565b60045481565b61160a611076565b611649576040805162461bcd60e51b815260206004820181905260248201526000805160206132f6833981519152604482015290519081900360640190fd5b610c0f81612cdc565b6000828201838110156116ac576040805162461bcd60e51b815260206004820152601b60248201527f536166654d6174683a206164646974696f6e206f766572666c6f770000000000604482015290519081900360640190fd5b9392505050565b60008260010182815481106116c457fe5b6000918252602090912001546001600160a01b03169392505050565b6000600584815481106116ef57fe5b60009182526020808320878452600680835260408086206001600160a01b0389168752909352919093208054929091029092019250841115611778576040805162461bcd60e51b815260206004820152601d60248201527f7769746864726177456265416e64546f6b656e3a206e6f7420676f6f64000000604482015290519081900360640190fd5b611781856109fd565b60006117bb82600101546117af64e8d4a51000610b3487600301548760000154611c5190919063ffffffff16565b9063ffffffff61206716565b905080156117cd576117cd8482612d7c565b8415611a2657600d54604080516370a0823160e01b815230600482015290516000926001600160a01b0316916370a08231916024808301926020929190829003018186803b15801561181e57600080fd5b505afa158015611832573d6000803e3d6000fd5b505050506040513d602081101561184857600080fd5b5051600c54600089815260076020526040808220548151630441a3e760e41b81526004810191909152602481018b905290519394506001600160a01b039092169263441a3e7092604480820193929182900301818387803b1580156118ac57600080fd5b505af11580156118c0573d6000803e3d6000fd5b5050600d54604080516370a0823160e01b81523060048201529051600094506001600160a01b0390921692506370a08231916024808301926020929190829003018186803b15801561191157600080fd5b505afa158015611925573d6000803e3d6000fd5b505050506040513d602081101561193b57600080fd5b505160058601549091506119839061197290610b3464e8d4a51000611966868863ffffffff61206716565b9063ffffffff611c5116565b60048701549063ffffffff61165216565b60048601819055600285015485546000926119b392916117af9164e8d4a5100091610b349163ffffffff611c5116565b905080156119d857600d546119d8906001600160a01b0316888363ffffffff612f0c16565b84546119ea908963ffffffff61206716565b85556005860154611a01908963ffffffff61206716565b60058701558554611a22906001600160a01b0316888a63ffffffff612f0c16565b5050505b60038301548254611a479164e8d4a5100091610b349163ffffffff611c5116565b600183015560048301548254611a6d9164e8d4a5100091610b349163ffffffff611c5116565b600283015560408051868152905187916001600160a01b038716917ff279e6a1f5e320cca91135676d9cb6e44ca8a08c0b88342bcdb1144f6511b5689181900360200190a3505050505050565b600060058481548110611ac957fe5b60009182526020808320878452600680835260408086206001600160a01b0389168752909352919093208054929091029092019250841115611b4a576040805162461bcd60e51b81526020600482015260156024820152741dda5d1a191c985dd158994e881b9bdd0819dbdbd9605a1b604482015290519081900360640190fd5b611b53856109fd565b6000611b8182600101546117af64e8d4a51000610b3487600301548760000154611c5190919063ffffffff16565b90508015611b9357611b938482612d7c565b8415611be3578154611bab908663ffffffff61206716565b82556005830154611bc2908663ffffffff61206716565b60058401558254611be3906001600160a01b0316858763ffffffff612f0c16565b60038301548254611c049164e8d4a5100091610b349163ffffffff611c5116565b600183015560408051868152905187916001600160a01b038716917ff279e6a1f5e320cca91135676d9cb6e44ca8a08c0b88342bcdb1144f6511b5689181900360200190a3505050505050565b600082611c6057506000610942565b82820282848281611c6d57fe5b04146116ac5760405162461bcd60e51b81526004018080602001828103825260218152602001806132d56021913960400191505060405180910390fd5b60006116ac83836040518060400160405280601a81526020017f536166654d6174683a206469766973696f6e206279207a65726f000000000000815250612f5e565b600060058381548110611cfb57fe5b60009182526020808320868452600680835260408086206001600160a01b03808a1688529085528187208054600d5484516370a0823160e01b8152306004820152945195909802909501985096939593949316926370a0823192602480840193829003018186803b158015611d6f57600080fd5b505afa158015611d83573d6000803e3d6000fd5b505050506040513d6020811015611d9957600080fd5b5051600c54600088815260076020526040808220548151630441a3e760e41b815260048101919091526024810187905290519394506001600160a01b039092169263441a3e7092604480820193929182900301818387803b158015611dfd57600080fd5b505af1158015611e11573d6000803e3d6000fd5b5050600d54604080516370a0823160e01b81523060048201529051600094506001600160a01b0390921692506370a08231916024808301926020929190829003018186803b158015611e6257600080fd5b505afa158015611e76573d6000803e3d6000fd5b505050506040513d6020811015611e8c57600080fd5b50516005860154909150611eb79061197290610b3464e8d4a51000611966868863ffffffff61206716565b6004860155600080855560018501558454611ee2906001600160a01b0316878563ffffffff612f0c16565b6005850154611ef7908463ffffffff61206716565b600586015560408051848152905188916001600160a01b038916917fbb757047c2b5f3974fe26b7c10f732e7bce710b0952a71082702781e62ae05959181900360200190a350505050505050565b600060058381548110611f5457fe5b60009182526020808320868452600680835260408086206001600160a01b03808a16885294528520805486825560018201969096559302018054909450919291611fa69116858363ffffffff612f0c16565b6005830154611fbb908263ffffffff61206716565b600584015560408051828152905186916001600160a01b038716917fbb757047c2b5f3974fe26b7c10f732e7bce710b0952a71082702781e62ae05959181900360200190a35050505050565b600061201383836120a9565b61205f5750600182810180548083018083556000928352602080842090920180546001600160a01b0319166001600160a01b038716908117909155835290859052604090912055610942565b506000610942565b60006116ac83836040518060400160405280601e81526020017f536166654d6174683a207375627472616374696f6e206f766572666c6f770000815250613000565b6001600160a01b031660009081526020919091526040902054151590565b3390565b60006120d783836120a9565b1561205f576001600160a01b0382166000908152602084905260409020546001840154600019918201910180821461218257600085600101828154811061211a57fe5b6000918252602090912001546001870180546001600160a01b03909216925082918590811061214557fe5b600091825260208083209190910180546001600160a01b0319166001600160a01b0394851617905592909116815290869052604090206001830190555b6001600160a01b038416600090815260208690526040812055600185018054806121a857fe5b600082815260209020810160001990810180546001600160a01b031916905501905550600191506109429050565b6000600584815481106121e557fe5b60009182526020808320878452600680835260408086206001600160a01b0389168752909352919093209102909101915061221f856109fd565b80541561245357600061225482600101546117af64e8d4a51000610b3487600301548760000154611c5190919063ffffffff16565b90508015612266576122668482612d7c565b600d54604080516370a0823160e01b815230600482015290516000926001600160a01b0316916370a08231916024808301926020929190829003018186803b1580156122b157600080fd5b505afa1580156122c5573d6000803e3d6000fd5b505050506040513d60208110156122db57600080fd5b5051600c54600089815260076020526040808220548151631c57762b60e31b815260048101919091526024810183905290519394506001600160a01b039092169263e2bbb15892604480820193929182900301818387803b15801561233f57600080fd5b505af1158015612353573d6000803e3d6000fd5b5050600d54604080516370a0823160e01b81523060048201529051600094506001600160a01b0390921692506370a08231916024808301926020929190829003018186803b1580156123a457600080fd5b505afa1580156123b8573d6000803e3d6000fd5b505050506040513d60208110156123ce57600080fd5b505160058601549091506123f99061197290610b3464e8d4a51000611966868863ffffffff61206716565b600486018190556002850154855460009261242992916117af9164e8d4a5100091610b349163ffffffff611c5116565b9050801561244e57600d5461244e906001600160a01b0316888363ffffffff612f0c16565b505050505b8315612705578154612476906001600160a01b031684308763ffffffff61305a16565b600582015461252b57600c54600086815260076020526040808220548151631c57762b60e31b815260048101919091526024810188905290516001600160a01b039093169263e2bbb1589260448084019391929182900301818387803b1580156124df57600080fd5b505af11580156124f3573d6000803e3d6000fd5b5050825461250a925090508563ffffffff61165216565b81556005820154612521908563ffffffff61165216565b6005830155612705565b600d54604080516370a0823160e01b815230600482015290516000926001600160a01b0316916370a08231916024808301926020929190829003018186803b15801561257657600080fd5b505afa15801561258a573d6000803e3d6000fd5b505050506040513d60208110156125a057600080fd5b5051600c54600088815260076020526040808220548151631c57762b60e31b81526004810191909152602481018a905290519394506001600160a01b039092169263e2bbb15892604480820193929182900301818387803b15801561260457600080fd5b505af1158015612618573d6000803e3d6000fd5b5050600d54604080516370a0823160e01b81523060048201529051600094506001600160a01b0390921692506370a08231916024808301926020929190829003018186803b15801561266957600080fd5b505afa15801561267d573d6000803e3d6000fd5b505050506040513d602081101561269357600080fd5b505160058501549091506126cf906126be90610b3464e8d4a51000611966868863ffffffff61206716565b60048601549063ffffffff61165216565b600485015582546126e6908763ffffffff61165216565b835560058401546126fd908763ffffffff61165216565b600585015550505b600382015481546127269164e8d4a5100091610b349163ffffffff611c5116565b60018201556004820154815461274c9164e8d4a5100091610b349163ffffffff611c5116565b600282015560408051858152905186916001600160a01b038616917f90890809c654f11d6e72a28fa60149770a0d11ec6c92319d6ceb2bb0a4ea1a159181900360200190a35050505050565b6000600584815481106127a757fe5b60009182526020808320878452600680835260408086206001600160a01b038916875290935291909320910290910191506127e1856109fd565b80541561282a57600061281682600101546117af64e8d4a51000610b3487600301548760000154611c5190919063ffffffff16565b90508015612828576128288482612d7c565b505b831561287c57815461284d906001600160a01b031684308763ffffffff61305a16565b805461285f908563ffffffff61165216565b81556005820154612876908563ffffffff61165216565b60058301555b6003820154815461289d9164e8d4a5100091610b349163ffffffff611c5116565b600182015560408051858152905186916001600160a01b038616917f90890809c654f11d6e72a28fa60149770a0d11ec6c92319d6ceb2bb0a4ea1a159181900360200190a35050505050565b6000806000600585815481106128fb57fe5b60009182526020808320888452600680835260408086206001600160a01b038b168752909352919093209102909101600381015460048201548354929450909115612b1c57600c54600089815260076020908152604080832054815163e4c75c2760e01b81526004810191909152306024820152905192936001600160a01b03169263e4c75c2792604480840193919291829003018186803b1580156129a057600080fd5b505afa1580156129b4573d6000803e3d6000fd5b505050506040513d60208110156129ca57600080fd5b505160058601549091506129fe906129f190610b348464e8d4a5100063ffffffff611c5116565b839063ffffffff61165216565b91506000612a2a85600201546117af64e8d4a51000610b34878a60000154611c5190919063ffffffff16565b90508560020154431115612ad6576000612a478760020154610fdf565b90506000612a68600a54610b348a6001015485611c5190919063ffffffff16565b9050612a9a612a8d8960050154610b3464e8d4a5100085611c5190919063ffffffff16565b879063ffffffff61165216565b9550612ac487600101546117af64e8d4a51000610b348a8c60000154611c5190919063ffffffff16565b83995099505050505050505050611508565b8560020154431415612b1957612b0a85600101546117af64e8d4a51000610b34888a60000154611c5190919063ffffffff16565b97509550611508945050505050565b50505b5060009788975095505050505050565b60008060058481548110612b3c57fe5b60009182526020808320878452600680835260408086206001600160a01b03808b16885290855281872060039390960290930191820154825482516370a0823160e01b815230600482015292519398509596909590949316926370a0823192602480840193829003018186803b158015612bb557600080fd5b505afa158015612bc9573d6000803e3d6000fd5b505050506040513d6020811015612bdf57600080fd5b5051835490915015612cc8578360020154431115612c89576000612c068560020154610fdf565b90506000612c27600a54610b34886001015485611c5190919063ffffffff16565b9050612c52612c4584610b348464e8d4a5100063ffffffff611c5116565b859063ffffffff61165216565b9350612c7c85600101546117af64e8d4a51000610b34888a60000154611c5190919063ffffffff16565b9650505050505050610942565b8360020154431415612cc857612cbd83600101546117af64e8d4a51000610b34868860000154611c5190919063ffffffff16565b945050505050610942565b5060009695505050505050565b6001015490565b6001600160a01b038116612d215760405162461bcd60e51b81526004018080602001828103825260268152602001806132af6026913960400191505060405180910390fd5b600080546040516001600160a01b03808516939216917f8be0079c531659141344cd1fd0a4f28419497f9722a3daafe3b4186f6b6457e091a3600080546001600160a01b0319166001600160a01b0392909216919091179055565b600354604080516370a0823160e01b815230600482015290516000926001600160a01b0316916370a08231916024808301926020929190829003018186803b158015612dc757600080fd5b505afa158015612ddb573d6000803e3d6000fd5b505050506040513d6020811015612df157600080fd5b5051905080821115612e85576003546040805163a9059cbb60e01b81526001600160a01b038681166004830152602482018590529151919092169163a9059cbb9160448083019260209291908290030181600087803b158015612e5357600080fd5b505af1158015612e67573d6000803e3d6000fd5b505050506040513d6020811015612e7d57600080fd5b506109f29050565b6003546040805163a9059cbb60e01b81526001600160a01b038681166004830152602482018690529151919092169163a9059cbb9160448083019260209291908290030181600087803b158015612edb57600080fd5b505af1158015612eef573d6000803e3d6000fd5b505050506040513d6020811015612f0557600080fd5b5050505050565b604080516001600160a01b038416602482015260448082018490528251808303909101815260649091019091526020810180516001600160e01b031663a9059cbb60e01b1790526109f29084906130ba565b60008183612fea5760405162461bcd60e51b81526004018080602001828103825283818151815260200191508051906020019080838360005b83811015612faf578181015183820152602001612f97565b50505050905090810190601f168015612fdc5780820380516001836020036101000a031916815260200191505b509250505060405180910390fd5b506000838581612ff657fe5b0495945050505050565b600081848411156130525760405162461bcd60e51b8152602060048201818152835160248401528351909283926044909101919085019080838360008315612faf578181015183820152602001612f97565b505050900390565b604080516001600160a01b0385811660248301528416604482015260648082018490528251808303909101815260849091019091526020810180516001600160e01b03166323b872dd60e01b1790526130b49085906130ba565b50505050565b6130cc826001600160a01b0316613272565b61311d576040805162461bcd60e51b815260206004820152601f60248201527f5361666545524332303a2063616c6c20746f206e6f6e2d636f6e747261637400604482015290519081900360640190fd5b60006060836001600160a01b0316836040518082805190602001908083835b6020831061315b5780518252601f19909201916020918201910161313c565b6001836020036101000a0380198251168184511680821785525050505050509050019150506000604051808303816000865af19150503d80600081146131bd576040519150601f19603f3d011682016040523d82523d6000602084013e6131c2565b606091505b509150915081613219576040805162461bcd60e51b815260206004820181905260248201527f5361666545524332303a206c6f772d6c6576656c2063616c6c206661696c6564604482015290519081900360640190fd5b8051156130b45780806020019051602081101561323557600080fd5b50516130b45760405162461bcd60e51b815260040180806020018281038252602a815260200180613316602a913960400191505060405180910390fd5b6000813f7fc5d2460186f7233c927e7db2dcc703c0e500b653ca82273b7bfad8045d85a4708181148015906132a657508115155b94935050505056fe4f776e61626c653a206e6577206f776e657220697320746865207a65726f2061646472657373536166654d6174683a206d756c7469706c69636174696f6e206f766572666c6f774f776e61626c653a2063616c6c6572206973206e6f7420746865206f776e65725361666545524332303a204552433230206f7065726174696f6e20646964206e6f742073756363656564a265627a7a72315820431f2aec913e74317e952efb4b8084a574e904c45bc10e6c03f3130c45d9afe064736f6c63430005100032",
  "linkReferences": {},
  "deployedLinkReferences": {}
}